{
	"data": {
		"bytecode": {
			"linkReferences": {},
			"object": "6080604052348015600e575f80fd5b506102638061001c5f395ff3fe608060405234801561000f575f80fd5b5060043610610029575f3560e01c8063b01752c61461002d575b5f80fd5b6100476004803603810190610042919061011a565b61005d565b60405161005491906101c8565b60405180910390f35b60608282604051602001610072929190610206565b604051602081830303815290604052905092915050565b5f80fd5b5f73ffffffffffffffffffffffffffffffffffffffff82169050919050565b5f6100b68261008d565b9050919050565b6100c6816100ac565b81146100d0575f80fd5b50565b5f813590506100e1816100bd565b92915050565b5f819050919050565b6100f9816100e7565b8114610103575f80fd5b50565b5f81359050610114816100f0565b92915050565b5f80604083850312156101305761012f610089565b5b5f61013d858286016100d3565b925050602061014e85828601610106565b9150509250929050565b5f81519050919050565b5f82825260208201905092915050565b8281835e5f83830152505050565b5f601f19601f8301169050919050565b5f61019a82610158565b6101a48185610162565b93506101b4818560208601610172565b6101bd81610180565b840191505092915050565b5f6020820190508181035f8301526101e08184610190565b905092915050565b6101f1816100ac565b82525050565b610200816100e7565b82525050565b5f6040820190506102195f8301856101e8565b61022660208301846101f7565b939250505056fea26469706673582212209c1a9bbba706198eaddac8cff7007ca3e14ff8abb5af1b7662c6febb29d0de0b64736f6c634300081a0033",
			"opcodes": "PUSH1 0x80 PUSH1 0x40 MSTORE CALLVALUE DUP1 ISZERO PUSH1 0xE JUMPI PUSH0 DUP1 REVERT JUMPDEST POP PUSH2 0x263 DUP1 PUSH2 0x1C PUSH0 CODECOPY PUSH0 RETURN INVALID PUSH1 0x80 PUSH1 0x40 MSTORE CALLVALUE DUP1 ISZERO PUSH2 0xF JUMPI PUSH0 DUP1 REVERT JUMPDEST POP PUSH1 0x4 CALLDATASIZE LT PUSH2 0x29 JUMPI PUSH0 CALLDATALOAD PUSH1 0xE0 SHR DUP1 PUSH4 0xB01752C6 EQ PUSH2 0x2D JUMPI JUMPDEST PUSH0 DUP1 REVERT JUMPDEST PUSH2 0x47 PUSH1 0x4 DUP1 CALLDATASIZE SUB DUP2 ADD SWAP1 PUSH2 0x42 SWAP2 SWAP1 PUSH2 0x11A JUMP JUMPDEST PUSH2 0x5D JUMP JUMPDEST PUSH1 0x40 MLOAD PUSH2 0x54 SWAP2 SWAP1 PUSH2 0x1C8 JUMP JUMPDEST PUSH1 0x40 MLOAD DUP1 SWAP2 SUB SWAP1 RETURN JUMPDEST PUSH1 0x60 DUP3 DUP3 PUSH1 0x40 MLOAD PUSH1 0x20 ADD PUSH2 0x72 SWAP3 SWAP2 SWAP1 PUSH2 0x206 JUMP JUMPDEST PUSH1 0x40 MLOAD PUSH1 0x20 DUP2 DUP4 SUB SUB DUP2 MSTORE SWAP1 PUSH1 0x40 MSTORE SWAP1 POP SWAP3 SWAP2 POP POP JUMP JUMPDEST PUSH0 DUP1 REVERT JUMPDEST PUSH0 PUSH20 0xFFFFFFFFFFFFFFFFFFFFFFFFFFFFFFFFFFFFFFFF DUP3 AND SWAP1 POP SWAP2 SWAP1 POP JUMP JUMPDEST PUSH0 PUSH2 0xB6 DUP3 PUSH2 0x8D JUMP JUMPDEST SWAP1 POP SWAP2 SWAP1 POP JUMP JUMPDEST PUSH2 0xC6 DUP2 PUSH2 0xAC JUMP JUMPDEST DUP2 EQ PUSH2 0xD0 JUMPI PUSH0 DUP1 REVERT JUMPDEST POP JUMP JUMPDEST PUSH0 DUP2 CALLDATALOAD SWAP1 POP PUSH2 0xE1 DUP2 PUSH2 0xBD JUMP JUMPDEST SWAP3 SWAP2 POP POP JUMP JUMPDEST PUSH0 DUP2 SWAP1 POP SWAP2 SWAP1 POP JUMP JUMPDEST PUSH2 0xF9 DUP2 PUSH2 0xE7 JUMP JUMPDEST DUP2 EQ PUSH2 0x103 JUMPI PUSH0 DUP1 REVERT JUMPDEST POP JUMP JUMPDEST PUSH0 DUP2 CALLDATALOAD SWAP1 POP PUSH2 0x114 DUP2 PUSH2 0xF0 JUMP JUMPDEST SWAP3 SWAP2 POP POP JUMP JUMPDEST PUSH0 DUP1 PUSH1 0x40 DUP4 DUP6 SUB SLT ISZERO PUSH2 0x130 JUMPI PUSH2 0x12F PUSH2 0x89 JUMP JUMPDEST JUMPDEST PUSH0 PUSH2 0x13D DUP6 DUP3 DUP7 ADD PUSH2 0xD3 JUMP JUMPDEST SWAP3 POP POP PUSH1 0x20 PUSH2 0x14E DUP6 DUP3 DUP7 ADD PUSH2 0x106 JUMP JUMPDEST SWAP2 POP POP SWAP3 POP SWAP3 SWAP1 POP JUMP JUMPDEST PUSH0 DUP2 MLOAD SWAP1 POP SWAP2 SWAP1 POP JUMP JUMPDEST PUSH0 DUP3 DUP3 MSTORE PUSH1 0x20 DUP3 ADD SWAP1 POP SWAP3 SWAP2 POP POP JUMP JUMPDEST DUP3 DUP2 DUP4 MCOPY PUSH0 DUP4 DUP4 ADD MSTORE POP POP POP JUMP JUMPDEST PUSH0 PUSH1 0x1F NOT PUSH1 0x1F DUP4 ADD AND SWAP1 POP SWAP2 SWAP1 POP JUMP JUMPDEST PUSH0 PUSH2 0x19A DUP3 PUSH2 0x158 JUMP JUMPDEST PUSH2 0x1A4 DUP2 DUP6 PUSH2 0x162 JUMP JUMPDEST SWAP4 POP PUSH2 0x1B4 DUP2 DUP6 PUSH1 0x20 DUP7 ADD PUSH2 0x172 JUMP JUMPDEST PUSH2 0x1BD DUP2 PUSH2 0x180 JUMP JUMPDEST DUP5 ADD SWAP2 POP POP SWAP3 SWAP2 POP POP JUMP JUMPDEST PUSH0 PUSH1 0x20 DUP3 ADD SWAP1 POP DUP2 DUP2 SUB PUSH0 DUP4 ADD MSTORE PUSH2 0x1E0 DUP2 DUP5 PUSH2 0x190 JUMP JUMPDEST SWAP1 POP SWAP3 SWAP2 POP POP JUMP JUMPDEST PUSH2 0x1F1 DUP2 PUSH2 0xAC JUMP JUMPDEST DUP3 MSTORE POP POP JUMP JUMPDEST PUSH2 0x200 DUP2 PUSH2 0xE7 JUMP JUMPDEST DUP3 MSTORE POP POP JUMP JUMPDEST PUSH0 PUSH1 0x40 DUP3 ADD SWAP1 POP PUSH2 0x219 PUSH0 DUP4 ADD DUP6 PUSH2 0x1E8 JUMP JUMPDEST PUSH2 0x226 PUSH1 0x20 DUP4 ADD DUP5 PUSH2 0x1F7 JUMP JUMPDEST SWAP4 SWAP3 POP POP POP JUMP INVALID LOG2 PUSH5 0x6970667358 0x22 SLT KECCAK256 SWAP13 BYTE SWAP12 0xBB 0xA7 MOD NOT DUP15 0xAD 0xDA 0xC8 0xCF 0xF7 STOP PUSH29 0xA3E14FF8ABB5AF1B7662C6FEBB29D0DE0B64736F6C634300081A003300 "
		},
		"gasEstimates": {
			"creation": {
				"codeDepositCost": "122200",
				"executionCost": "169",
				"totalCost": "122369"
			},
			"external": {
				"Encode(address,uint256)": "infinite"
			}
		},
		"methodIdentifiers": {
			"Encode(address,uint256)": "b01752c6"
		}
	},
	"abi": [
		{
			"inputs": [
				{
					"internalType": "address",
					"name": "addr",
					"type": "address"
				},
				{
					"internalType": "uint256",
					"name": "amount",
					"type": "uint256"
				}
			],
			"name": "Encode",
			"outputs": [
				{
					"internalType": "bytes",
					"name": "",
					"type": "bytes"
				}
			],
			"stateMutability": "pure",
			"type": "function"
		}
	]
}