{
	"data": {
		"bytecode": {
			"linkReferences": {},
			"object": "6080604052348015600e575f80fd5b506103e88061001c5f395ff3fe608060405234801561000f575f80fd5b5060043610610034575f3560e01c8063760c422b14610038578063b01752c614610069575b5f80fd5b610052600480360381019061004d919061014e565b610099565b6040516100609291906101f0565b60405180910390f35b610083600480360381019061007e919061026b565b6100b9565b6040516100909190610319565b60405180910390f35b5f8083838101906100aa9190610374565b80925081935050509250929050565b606082826040516020016100ce9291906101f0565b604051602081830303815290604052905092915050565b5f80fd5b5f80fd5b5f80fd5b5f80fd5b5f80fd5b5f8083601f84011261010e5761010d6100ed565b5b8235905067ffffffffffffffff81111561012b5761012a6100f1565b5b602083019150836001820283011115610147576101466100f5565b5b9250929050565b5f8060208385031215610164576101636100e5565b5b5f83013567ffffffffffffffff811115610181576101806100e9565b5b61018d858286016100f9565b92509250509250929050565b5f73ffffffffffffffffffffffffffffffffffffffff82169050919050565b5f6101c282610199565b9050919050565b6101d2816101b8565b82525050565b5f819050919050565b6101ea816101d8565b82525050565b5f6040820190506102035f8301856101c9565b61021060208301846101e1565b9392505050565b610220816101b8565b811461022a575f80fd5b50565b5f8135905061023b81610217565b92915050565b61024a816101d8565b8114610254575f80fd5b50565b5f8135905061026581610241565b92915050565b5f8060408385031215610281576102806100e5565b5b5f61028e8582860161022d565b925050602061029f85828601610257565b9150509250929050565b5f81519050919050565b5f82825260208201905092915050565b8281835e5f83830152505050565b5f601f19601f8301169050919050565b5f6102eb826102a9565b6102f581856102b3565b93506103058185602086016102c3565b61030e816102d1565b840191505092915050565b5f6020820190508181035f83015261033181846102e1565b905092915050565b5f61034382610199565b9050919050565b61035381610339565b811461035d575f80fd5b50565b5f8135905061036e8161034a565b92915050565b5f806040838503121561038a576103896100e5565b5b5f61039785828601610360565b92505060206103a885828601610257565b915050925092905056fea2646970667358221220078424362ad153993bbd7bc6be0f3cef86b1779a5f4e9b92b5dd4f7840ac0ec764736f6c634300081a0033",
			"opcodes": "PUSH1 0x80 PUSH1 0x40 MSTORE CALLVALUE DUP1 ISZERO PUSH1 0xE JUMPI PUSH0 DUP1 REVERT JUMPDEST POP PUSH2 0x3E8 DUP1 PUSH2 0x1C PUSH0 CODECOPY PUSH0 RETURN INVALID PUSH1 0x80 PUSH1 0x40 MSTORE CALLVALUE DUP1 ISZERO PUSH2 0xF JUMPI PUSH0 DUP1 REVERT JUMPDEST POP PUSH1 0x4 CALLDATASIZE LT PUSH2 0x34 JUMPI PUSH0 CALLDATALOAD PUSH1 0xE0 SHR DUP1 PUSH4 0x760C422B EQ PUSH2 0x38 JUMPI DUP1 PUSH4 0xB01752C6 EQ PUSH2 0x69 JUMPI JUMPDEST PUSH0 DUP1 REVERT JUMPDEST PUSH2 0x52 PUSH1 0x4 DUP1 CALLDATASIZE SUB DUP2 ADD SWAP1 PUSH2 0x4D SWAP2 SWAP1 PUSH2 0x14E JUMP JUMPDEST PUSH2 0x99 JUMP JUMPDEST PUSH1 0x40 MLOAD PUSH2 0x60 SWAP3 SWAP2 SWAP1 PUSH2 0x1F0 JUMP JUMPDEST PUSH1 0x40 MLOAD DUP1 SWAP2 SUB SWAP1 RETURN JUMPDEST PUSH2 0x83 PUSH1 0x4 DUP1 CALLDATASIZE SUB DUP2 ADD SWAP1 PUSH2 0x7E SWAP2 SWAP1 PUSH2 0x26B JUMP JUMPDEST PUSH2 0xB9 JUMP JUMPDEST PUSH1 0x40 MLOAD PUSH2 0x90 SWAP2 SWAP1 PUSH2 0x319 JUMP JUMPDEST PUSH1 0x40 MLOAD DUP1 SWAP2 SUB SWAP1 RETURN JUMPDEST PUSH0 DUP1 DUP4 DUP4 DUP2 ADD SWAP1 PUSH2 0xAA SWAP2 SWAP1 PUSH2 0x374 JUMP JUMPDEST DUP1 SWAP3 POP DUP2 SWAP4 POP POP POP SWAP3 POP SWAP3 SWAP1 POP JUMP JUMPDEST PUSH1 0x60 DUP3 DUP3 PUSH1 0x40 MLOAD PUSH1 0x20 ADD PUSH2 0xCE SWAP3 SWAP2 SWAP1 PUSH2 0x1F0 JUMP JUMPDEST PUSH1 0x40 MLOAD PUSH1 0x20 DUP2 DUP4 SUB SUB DUP2 MSTORE SWAP1 PUSH1 0x40 MSTORE SWAP1 POP SWAP3 SWAP2 POP POP JUMP JUMPDEST PUSH0 DUP1 REVERT JUMPDEST PUSH0 DUP1 REVERT JUMPDEST PUSH0 DUP1 REVERT JUMPDEST PUSH0 DUP1 REVERT JUMPDEST PUSH0 DUP1 REVERT JUMPDEST PUSH0 DUP1 DUP4 PUSH1 0x1F DUP5 ADD SLT PUSH2 0x10E JUMPI PUSH2 0x10D PUSH2 0xED JUMP JUMPDEST JUMPDEST DUP3 CALLDATALOAD SWAP1 POP PUSH8 0xFFFFFFFFFFFFFFFF DUP2 GT ISZERO PUSH2 0x12B JUMPI PUSH2 0x12A PUSH2 0xF1 JUMP JUMPDEST JUMPDEST PUSH1 0x20 DUP4 ADD SWAP2 POP DUP4 PUSH1 0x1 DUP3 MUL DUP4 ADD GT ISZERO PUSH2 0x147 JUMPI PUSH2 0x146 PUSH2 0xF5 JUMP JUMPDEST JUMPDEST SWAP3 POP SWAP3 SWAP1 POP JUMP JUMPDEST PUSH0 DUP1 PUSH1 0x20 DUP4 DUP6 SUB SLT ISZERO PUSH2 0x164 JUMPI PUSH2 0x163 PUSH2 0xE5 JUMP JUMPDEST JUMPDEST PUSH0 DUP4 ADD CALLDATALOAD PUSH8 0xFFFFFFFFFFFFFFFF DUP2 GT ISZERO PUSH2 0x181 JUMPI PUSH2 0x180 PUSH2 0xE9 JUMP JUMPDEST JUMPDEST PUSH2 0x18D DUP6 DUP3 DUP7 ADD PUSH2 0xF9 JUMP JUMPDEST SWAP3 POP SWAP3 POP POP SWAP3 POP SWAP3 SWAP1 POP JUMP JUMPDEST PUSH0 PUSH20 0xFFFFFFFFFFFFFFFFFFFFFFFFFFFFFFFFFFFFFFFF DUP3 AND SWAP1 POP SWAP2 SWAP1 POP JUMP JUMPDEST PUSH0 PUSH2 0x1C2 DUP3 PUSH2 0x199 JUMP JUMPDEST SWAP1 POP SWAP2 SWAP1 POP JUMP JUMPDEST PUSH2 0x1D2 DUP2 PUSH2 0x1B8 JUMP JUMPDEST DUP3 MSTORE POP POP JUMP JUMPDEST PUSH0 DUP2 SWAP1 POP SWAP2 SWAP1 POP JUMP JUMPDEST PUSH2 0x1EA DUP2 PUSH2 0x1D8 JUMP JUMPDEST DUP3 MSTORE POP POP JUMP JUMPDEST PUSH0 PUSH1 0x40 DUP3 ADD SWAP1 POP PUSH2 0x203 PUSH0 DUP4 ADD DUP6 PUSH2 0x1C9 JUMP JUMPDEST PUSH2 0x210 PUSH1 0x20 DUP4 ADD DUP5 PUSH2 0x1E1 JUMP JUMPDEST SWAP4 SWAP3 POP POP POP JUMP JUMPDEST PUSH2 0x220 DUP2 PUSH2 0x1B8 JUMP JUMPDEST DUP2 EQ PUSH2 0x22A JUMPI PUSH0 DUP1 REVERT JUMPDEST POP JUMP JUMPDEST PUSH0 DUP2 CALLDATALOAD SWAP1 POP PUSH2 0x23B DUP2 PUSH2 0x217 JUMP JUMPDEST SWAP3 SWAP2 POP POP JUMP JUMPDEST PUSH2 0x24A DUP2 PUSH2 0x1D8 JUMP JUMPDEST DUP2 EQ PUSH2 0x254 JUMPI PUSH0 DUP1 REVERT JUMPDEST POP JUMP JUMPDEST PUSH0 DUP2 CALLDATALOAD SWAP1 POP PUSH2 0x265 DUP2 PUSH2 0x241 JUMP JUMPDEST SWAP3 SWAP2 POP POP JUMP JUMPDEST PUSH0 DUP1 PUSH1 0x40 DUP4 DUP6 SUB SLT ISZERO PUSH2 0x281 JUMPI PUSH2 0x280 PUSH2 0xE5 JUMP JUMPDEST JUMPDEST PUSH0 PUSH2 0x28E DUP6 DUP3 DUP7 ADD PUSH2 0x22D JUMP JUMPDEST SWAP3 POP POP PUSH1 0x20 PUSH2 0x29F DUP6 DUP3 DUP7 ADD PUSH2 0x257 JUMP JUMPDEST SWAP2 POP POP SWAP3 POP SWAP3 SWAP1 POP JUMP JUMPDEST PUSH0 DUP2 MLOAD SWAP1 POP SWAP2 SWAP1 POP JUMP JUMPDEST PUSH0 DUP3 DUP3 MSTORE PUSH1 0x20 DUP3 ADD SWAP1 POP SWAP3 SWAP2 POP POP JUMP JUMPDEST DUP3 DUP2 DUP4 MCOPY PUSH0 DUP4 DUP4 ADD MSTORE POP POP POP JUMP JUMPDEST PUSH0 PUSH1 0x1F NOT PUSH1 0x1F DUP4 ADD AND SWAP1 POP SWAP2 SWAP1 POP JUMP JUMPDEST PUSH0 PUSH2 0x2EB DUP3 PUSH2 0x2A9 JUMP JUMPDEST PUSH2 0x2F5 DUP2 DUP6 PUSH2 0x2B3 JUMP JUMPDEST SWAP4 POP PUSH2 0x305 DUP2 DUP6 PUSH1 0x20 DUP7 ADD PUSH2 0x2C3 JUMP JUMPDEST PUSH2 0x30E DUP2 PUSH2 0x2D1 JUMP JUMPDEST DUP5 ADD SWAP2 POP POP SWAP3 SWAP2 POP POP JUMP JUMPDEST PUSH0 PUSH1 0x20 DUP3 ADD SWAP1 POP DUP2 DUP2 SUB PUSH0 DUP4 ADD MSTORE PUSH2 0x331 DUP2 DUP5 PUSH2 0x2E1 JUMP JUMPDEST SWAP1 POP SWAP3 SWAP2 POP POP JUMP JUMPDEST PUSH0 PUSH2 0x343 DUP3 PUSH2 0x199 JUMP JUMPDEST SWAP1 POP SWAP2 SWAP1 POP JUMP JUMPDEST PUSH2 0x353 DUP2 PUSH2 0x339 JUMP JUMPDEST DUP2 EQ PUSH2 0x35D JUMPI PUSH0 DUP1 REVERT JUMPDEST POP JUMP JUMPDEST PUSH0 DUP2 CALLDATALOAD SWAP1 POP PUSH2 0x36E DUP2 PUSH2 0x34A JUMP JUMPDEST SWAP3 SWAP2 POP POP JUMP JUMPDEST PUSH0 DUP1 PUSH1 0x40 DUP4 DUP6 SUB SLT ISZERO PUSH2 0x38A JUMPI PUSH2 0x389 PUSH2 0xE5 JUMP JUMPDEST JUMPDEST PUSH0 PUSH2 0x397 DUP6 DUP3 DUP7 ADD PUSH2 0x360 JUMP JUMPDEST SWAP3 POP POP PUSH1 0x20 PUSH2 0x3A8 DUP6 DUP3 DUP7 ADD PUSH2 0x257 JUMP JUMPDEST SWAP2 POP POP SWAP3 POP SWAP3 SWAP1 POP JUMP INVALID LOG2 PUSH5 0x6970667358 0x22 SLT KECCAK256 SMOD DUP5 0x24 CALLDATASIZE 0x2A 0xD1 MSTORE8 SWAP10 EXTCODESIZE 0xBD PUSH28 0xC6BE0F3CEF86B1779A5F4E9B92B5DD4F7840AC0EC764736F6C634300 ADDMOD BYTE STOP CALLER "
		},
		"gasEstimates": {
			"creation": {
				"codeDepositCost": "200000",
				"executionCost": "243",
				"totalCost": "200243"
			},
			"external": {
				"Decode(bytes)": "infinite",
				"Encode(address,uint256)": "infinite"
			}
		},
		"methodIdentifiers": {
			"Decode(bytes)": "760c422b",
			"Encode(address,uint256)": "b01752c6"
		}
	},
	"abi": [
		{
			"inputs": [
				{
					"internalType": "bytes",
					"name": "data",
					"type": "bytes"
				}
			],
			"name": "Decode",
			"outputs": [
				{
					"internalType": "address",
					"name": "addr",
					"type": "address"
				},
				{
					"internalType": "uint256",
					"name": "amount",
					"type": "uint256"
				}
			],
			"stateMutability": "pure",
			"type": "function"
		},
		{
			"inputs": [
				{
					"internalType": "address",
					"name": "addr",
					"type": "address"
				},
				{
					"internalType": "uint256",
					"name": "amount",
					"type": "uint256"
				}
			],
			"name": "Encode",
			"outputs": [
				{
					"internalType": "bytes",
					"name": "",
					"type": "bytes"
				}
			],
			"stateMutability": "pure",
			"type": "function"
		}
	]
}