{
	"data": {
		"bytecode": {
			"linkReferences": {},
			"object": "60806040527f05416460deb76d57af601be17e777b93592d8d4d4a4096c57876a91c84f4a7125f1b5f553480156033575f80fd5b50610353806100415f395ff3fe608060405234801561000f575f80fd5b5060043610610034575f3560e01c80633fad9ae0146100385780635b6beeb914610056575b5f80fd5b610040610086565b60405161004d91906100d5565b60405180910390f35b610070600480360381019061006b919061023b565b61008b565b60405161007d919061029c565b60405180910390f35b5f5481565b5f80548260405160200161009f9190610307565b60405160208183030381529060405280519060200120149050919050565b5f819050919050565b6100cf816100bd565b82525050565b5f6020820190506100e85f8301846100c6565b92915050565b5f604051905090565b5f80fd5b5f80fd5b5f80fd5b5f80fd5b5f601f19601f8301169050919050565b7f4e487b71000000000000000000000000000000000000000000000000000000005f52604160045260245ffd5b61014d82610107565b810181811067ffffffffffffffff8211171561016c5761016b610117565b5b80604052505050565b5f61017e6100ee565b905061018a8282610144565b919050565b5f67ffffffffffffffff8211156101a9576101a8610117565b5b6101b282610107565b9050602081019050919050565b828183375f83830152505050565b5f6101df6101da8461018f565b610175565b9050828152602081018484840111156101fb576101fa610103565b5b6102068482856101bf565b509392505050565b5f82601f830112610222576102216100ff565b5b81356102328482602086016101cd565b91505092915050565b5f602082840312156102505761024f6100f7565b5b5f82013567ffffffffffffffff81111561026d5761026c6100fb565b5b6102798482850161020e565b91505092915050565b5f8115159050919050565b61029681610282565b82525050565b5f6020820190506102af5f83018461028d565b92915050565b5f81519050919050565b5f81905092915050565b8281835e5f83830152505050565b5f6102e1826102b5565b6102eb81856102bf565b93506102fb8185602086016102c9565b80840191505092915050565b5f61031282846102d7565b91508190509291505056fea2646970667358221220c7ebb41ecb5bbbc2ada2bdb576d21b244883f5a935f07a44af8572aa126c3c9964736f6c634300081a0033",
			"opcodes": "PUSH1 0x80 PUSH1 0x40 MSTORE PUSH32 0x5416460DEB76D57AF601BE17E777B93592D8D4D4A4096C57876A91C84F4A712 PUSH0 SHL PUSH0 SSTORE CALLVALUE DUP1 ISZERO PUSH1 0x33 JUMPI PUSH0 DUP1 REVERT JUMPDEST POP PUSH2 0x353 DUP1 PUSH2 0x41 PUSH0 CODECOPY PUSH0 RETURN INVALID PUSH1 0x80 PUSH1 0x40 MSTORE CALLVALUE DUP1 ISZERO PUSH2 0xF JUMPI PUSH0 DUP1 REVERT JUMPDEST POP PUSH1 0x4 CALLDATASIZE LT PUSH2 0x34 JUMPI PUSH0 CALLDATALOAD PUSH1 0xE0 SHR DUP1 PUSH4 0x3FAD9AE0 EQ PUSH2 0x38 JUMPI DUP1 PUSH4 0x5B6BEEB9 EQ PUSH2 0x56 JUMPI JUMPDEST PUSH0 DUP1 REVERT JUMPDEST PUSH2 0x40 PUSH2 0x86 JUMP JUMPDEST PUSH1 0x40 MLOAD PUSH2 0x4D SWAP2 SWAP1 PUSH2 0xD5 JUMP JUMPDEST PUSH1 0x40 MLOAD DUP1 SWAP2 SUB SWAP1 RETURN JUMPDEST PUSH2 0x70 PUSH1 0x4 DUP1 CALLDATASIZE SUB DUP2 ADD SWAP1 PUSH2 0x6B SWAP2 SWAP1 PUSH2 0x23B JUMP JUMPDEST PUSH2 0x8B JUMP JUMPDEST PUSH1 0x40 MLOAD PUSH2 0x7D SWAP2 SWAP1 PUSH2 0x29C JUMP JUMPDEST PUSH1 0x40 MLOAD DUP1 SWAP2 SUB SWAP1 RETURN JUMPDEST PUSH0 SLOAD DUP2 JUMP JUMPDEST PUSH0 DUP1 SLOAD DUP3 PUSH1 0x40 MLOAD PUSH1 0x20 ADD PUSH2 0x9F SWAP2 SWAP1 PUSH2 0x307 JUMP JUMPDEST PUSH1 0x40 MLOAD PUSH1 0x20 DUP2 DUP4 SUB SUB DUP2 MSTORE SWAP1 PUSH1 0x40 MSTORE DUP1 MLOAD SWAP1 PUSH1 0x20 ADD KECCAK256 EQ SWAP1 POP SWAP2 SWAP1 POP JUMP JUMPDEST PUSH0 DUP2 SWAP1 POP SWAP2 SWAP1 POP JUMP JUMPDEST PUSH2 0xCF DUP2 PUSH2 0xBD JUMP JUMPDEST DUP3 MSTORE POP POP JUMP JUMPDEST PUSH0 PUSH1 0x20 DUP3 ADD SWAP1 POP PUSH2 0xE8 PUSH0 DUP4 ADD DUP5 PUSH2 0xC6 JUMP JUMPDEST SWAP3 SWAP2 POP POP JUMP JUMPDEST PUSH0 PUSH1 0x40 MLOAD SWAP1 POP SWAP1 JUMP JUMPDEST PUSH0 DUP1 REVERT JUMPDEST PUSH0 DUP1 REVERT JUMPDEST PUSH0 DUP1 REVERT JUMPDEST PUSH0 DUP1 REVERT JUMPDEST PUSH0 PUSH1 0x1F NOT PUSH1 0x1F DUP4 ADD AND SWAP1 POP SWAP2 SWAP1 POP JUMP JUMPDEST PUSH32 0x4E487B7100000000000000000000000000000000000000000000000000000000 PUSH0 MSTORE PUSH1 0x41 PUSH1 0x4 MSTORE PUSH1 0x24 PUSH0 REVERT JUMPDEST PUSH2 0x14D DUP3 PUSH2 0x107 JUMP JUMPDEST DUP2 ADD DUP2 DUP2 LT PUSH8 0xFFFFFFFFFFFFFFFF DUP3 GT OR ISZERO PUSH2 0x16C JUMPI PUSH2 0x16B PUSH2 0x117 JUMP JUMPDEST JUMPDEST DUP1 PUSH1 0x40 MSTORE POP POP POP JUMP JUMPDEST PUSH0 PUSH2 0x17E PUSH2 0xEE JUMP JUMPDEST SWAP1 POP PUSH2 0x18A DUP3 DUP3 PUSH2 0x144 JUMP JUMPDEST SWAP2 SWAP1 POP JUMP JUMPDEST PUSH0 PUSH8 0xFFFFFFFFFFFFFFFF DUP3 GT ISZERO PUSH2 0x1A9 JUMPI PUSH2 0x1A8 PUSH2 0x117 JUMP JUMPDEST JUMPDEST PUSH2 0x1B2 DUP3 PUSH2 0x107 JUMP JUMPDEST SWAP1 POP PUSH1 0x20 DUP2 ADD SWAP1 POP SWAP2 SWAP1 POP JUMP JUMPDEST DUP3 DUP2 DUP4 CALLDATACOPY PUSH0 DUP4 DUP4 ADD MSTORE POP POP POP JUMP JUMPDEST PUSH0 PUSH2 0x1DF PUSH2 0x1DA DUP5 PUSH2 0x18F JUMP JUMPDEST PUSH2 0x175 JUMP JUMPDEST SWAP1 POP DUP3 DUP2 MSTORE PUSH1 0x20 DUP2 ADD DUP5 DUP5 DUP5 ADD GT ISZERO PUSH2 0x1FB JUMPI PUSH2 0x1FA PUSH2 0x103 JUMP JUMPDEST JUMPDEST PUSH2 0x206 DUP5 DUP3 DUP6 PUSH2 0x1BF JUMP JUMPDEST POP SWAP4 SWAP3 POP POP POP JUMP JUMPDEST PUSH0 DUP3 PUSH1 0x1F DUP4 ADD SLT PUSH2 0x222 JUMPI PUSH2 0x221 PUSH2 0xFF JUMP JUMPDEST JUMPDEST DUP2 CALLDATALOAD PUSH2 0x232 DUP5 DUP3 PUSH1 0x20 DUP7 ADD PUSH2 0x1CD JUMP JUMPDEST SWAP2 POP POP SWAP3 SWAP2 POP POP JUMP JUMPDEST PUSH0 PUSH1 0x20 DUP3 DUP5 SUB SLT ISZERO PUSH2 0x250 JUMPI PUSH2 0x24F PUSH2 0xF7 JUMP JUMPDEST JUMPDEST PUSH0 DUP3 ADD CALLDATALOAD PUSH8 0xFFFFFFFFFFFFFFFF DUP2 GT ISZERO PUSH2 0x26D JUMPI PUSH2 0x26C PUSH2 0xFB JUMP JUMPDEST JUMPDEST PUSH2 0x279 DUP5 DUP3 DUP6 ADD PUSH2 0x20E JUMP JUMPDEST SWAP2 POP POP SWAP3 SWAP2 POP POP JUMP JUMPDEST PUSH0 DUP2 ISZERO ISZERO SWAP1 POP SWAP2 SWAP1 POP JUMP JUMPDEST PUSH2 0x296 DUP2 PUSH2 0x282 JUMP JUMPDEST DUP3 MSTORE POP POP JUMP JUMPDEST PUSH0 PUSH1 0x20 DUP3 ADD SWAP1 POP PUSH2 0x2AF PUSH0 DUP4 ADD DUP5 PUSH2 0x28D JUMP JUMPDEST SWAP3 SWAP2 POP POP JUMP JUMPDEST PUSH0 DUP2 MLOAD SWAP1 POP SWAP2 SWAP1 POP JUMP JUMPDEST PUSH0 DUP2 SWAP1 POP SWAP3 SWAP2 POP POP JUMP JUMPDEST DUP3 DUP2 DUP4 MCOPY PUSH0 DUP4 DUP4 ADD MSTORE POP POP POP JUMP JUMPDEST PUSH0 PUSH2 0x2E1 DUP3 PUSH2 0x2B5 JUMP JUMPDEST PUSH2 0x2EB DUP2 DUP6 PUSH2 0x2BF JUMP JUMPDEST SWAP4 POP PUSH2 0x2FB DUP2 DUP6 PUSH1 0x20 DUP7 ADD PUSH2 0x2C9 JUMP JUMPDEST DUP1 DUP5 ADD SWAP2 POP POP SWAP3 SWAP2 POP POP JUMP JUMPDEST PUSH0 PUSH2 0x312 DUP3 DUP5 PUSH2 0x2D7 JUMP JUMPDEST SWAP2 POP DUP2 SWAP1 POP SWAP3 SWAP2 POP POP JUMP INVALID LOG2 PUSH5 0x6970667358 0x22 SLT KECCAK256 0xC7 0xEB 0xB4 0x1E 0xCB JUMPDEST 0xBB 0xC2 0xAD LOG2 0xBD 0xB5 PUSH23 0xD21B244883F5A935F07A44AF8572AA126C3C9964736F6C PUSH4 0x4300081A STOP CALLER "
		},
		"gasEstimates": {
			"creation": {
				"codeDepositCost": "170200",
				"executionCost": "22322",
				"totalCost": "192522"
			},
			"external": {
				"getHash(string)": "infinite",
				"question()": "2402"
			}
		},
		"methodIdentifiers": {
			"getHash(string)": "5b6beeb9",
			"question()": "3fad9ae0"
		}
	},
	"abi": [
		{
			"inputs": [
				{
					"internalType": "string",
					"name": "_text",
					"type": "string"
				}
			],
			"name": "getHash",
			"outputs": [
				{
					"internalType": "bool",
					"name": "",
					"type": "bool"
				}
			],
			"stateMutability": "view",
			"type": "function"
		},
		{
			"inputs": [],
			"name": "question",
			"outputs": [
				{
					"internalType": "bytes32",
					"name": "",
					"type": "bytes32"
				}
			],
			"stateMutability": "view",
			"type": "function"
		}
	]
}