{
	"data": {
		"bytecode": {
			"linkReferences": {},
			"object": "6080604052348015600e575f80fd5b506105048061001c5f395ff3fe608060405234801561000f575f80fd5b5060043610610034575f3560e01c80631be264d81461003857806385ff0bf114610068575b5f80fd5b610052600480360381019061004d91906102d9565b610098565b60405161005f919061035d565b60405180910390f35b610082600480360381019061007d9190610376565b6100cd565b60405161008f919061035d565b60405180910390f35b5f8383836040516020016100ae9392919061046b565b6040516020818303038152906040528051906020012090509392505050565b5f82826040516020016100e19291906104a3565b60405160208183030381529060405280519060200120905092915050565b5f604051905090565b5f80fd5b5f80fd5b5f80fd5b5f80fd5b5f601f19601f8301169050919050565b7f4e487b71000000000000000000000000000000000000000000000000000000005f52604160045260245ffd5b61015e82610118565b810181811067ffffffffffffffff8211171561017d5761017c610128565b5b80604052505050565b5f61018f6100ff565b905061019b8282610155565b919050565b5f67ffffffffffffffff8211156101ba576101b9610128565b5b6101c382610118565b9050602081019050919050565b828183375f83830152505050565b5f6101f06101eb846101a0565b610186565b90508281526020810184848401111561020c5761020b610114565b5b6102178482856101d0565b509392505050565b5f82601f83011261023357610232610110565b5b81356102438482602086016101de565b91505092915050565b5f819050919050565b61025e8161024c565b8114610268575f80fd5b50565b5f8135905061027981610255565b92915050565b5f73ffffffffffffffffffffffffffffffffffffffff82169050919050565b5f6102a88261027f565b9050919050565b6102b88161029e565b81146102c2575f80fd5b50565b5f813590506102d3816102af565b92915050565b5f805f606084860312156102f0576102ef610108565b5b5f84013567ffffffffffffffff81111561030d5761030c61010c565b5b6103198682870161021f565b935050602061032a8682870161026b565b925050604061033b868287016102c5565b9150509250925092565b5f819050919050565b61035781610345565b82525050565b5f6020820190506103705f83018461034e565b92915050565b5f806040838503121561038c5761038b610108565b5b5f6103998582860161026b565b92505060206103aa8582860161026b565b9150509250929050565b5f81519050919050565b5f81905092915050565b8281835e5f83830152505050565b5f6103e0826103b4565b6103ea81856103be565b93506103fa8185602086016103c8565b80840191505092915050565b5f819050919050565b61042061041b8261024c565b610406565b82525050565b5f8160601b9050919050565b5f61043c82610426565b9050919050565b5f61044d82610432565b9050919050565b6104656104608261029e565b610443565b82525050565b5f61047682866103d6565b9150610482828561040f565b6020820191506104928284610454565b601482019150819050949350505050565b5f6104ae828561040f565b6020820191506104be828461040f565b602082019150819050939250505056fea26469706673582212205bb0c380cde18d65ef0fccd23ece83671f5eeac0968fa4f3fcf028abda4f9b7e64736f6c634300081a0033",
			"opcodes": "PUSH1 0x80 PUSH1 0x40 MSTORE CALLVALUE DUP1 ISZERO PUSH1 0xE JUMPI PUSH0 DUP1 REVERT JUMPDEST POP PUSH2 0x504 DUP1 PUSH2 0x1C PUSH0 CODECOPY PUSH0 RETURN INVALID PUSH1 0x80 PUSH1 0x40 MSTORE CALLVALUE DUP1 ISZERO PUSH2 0xF JUMPI PUSH0 DUP1 REVERT JUMPDEST POP PUSH1 0x4 CALLDATASIZE LT PUSH2 0x34 JUMPI PUSH0 CALLDATALOAD PUSH1 0xE0 SHR DUP1 PUSH4 0x1BE264D8 EQ PUSH2 0x38 JUMPI DUP1 PUSH4 0x85FF0BF1 EQ PUSH2 0x68 JUMPI JUMPDEST PUSH0 DUP1 REVERT JUMPDEST PUSH2 0x52 PUSH1 0x4 DUP1 CALLDATASIZE SUB DUP2 ADD SWAP1 PUSH2 0x4D SWAP2 SWAP1 PUSH2 0x2D9 JUMP JUMPDEST PUSH2 0x98 JUMP JUMPDEST PUSH1 0x40 MLOAD PUSH2 0x5F SWAP2 SWAP1 PUSH2 0x35D JUMP JUMPDEST PUSH1 0x40 MLOAD DUP1 SWAP2 SUB SWAP1 RETURN JUMPDEST PUSH2 0x82 PUSH1 0x4 DUP1 CALLDATASIZE SUB DUP2 ADD SWAP1 PUSH2 0x7D SWAP2 SWAP1 PUSH2 0x376 JUMP JUMPDEST PUSH2 0xCD JUMP JUMPDEST PUSH1 0x40 MLOAD PUSH2 0x8F SWAP2 SWAP1 PUSH2 0x35D JUMP JUMPDEST PUSH1 0x40 MLOAD DUP1 SWAP2 SUB SWAP1 RETURN JUMPDEST PUSH0 DUP4 DUP4 DUP4 PUSH1 0x40 MLOAD PUSH1 0x20 ADD PUSH2 0xAE SWAP4 SWAP3 SWAP2 SWAP1 PUSH2 0x46B JUMP JUMPDEST PUSH1 0x40 MLOAD PUSH1 0x20 DUP2 DUP4 SUB SUB DUP2 MSTORE SWAP1 PUSH1 0x40 MSTORE DUP1 MLOAD SWAP1 PUSH1 0x20 ADD KECCAK256 SWAP1 POP SWAP4 SWAP3 POP POP POP JUMP JUMPDEST PUSH0 DUP3 DUP3 PUSH1 0x40 MLOAD PUSH1 0x20 ADD PUSH2 0xE1 SWAP3 SWAP2 SWAP1 PUSH2 0x4A3 JUMP JUMPDEST PUSH1 0x40 MLOAD PUSH1 0x20 DUP2 DUP4 SUB SUB DUP2 MSTORE SWAP1 PUSH1 0x40 MSTORE DUP1 MLOAD SWAP1 PUSH1 0x20 ADD KECCAK256 SWAP1 POP SWAP3 SWAP2 POP POP JUMP JUMPDEST PUSH0 PUSH1 0x40 MLOAD SWAP1 POP SWAP1 JUMP JUMPDEST PUSH0 DUP1 REVERT JUMPDEST PUSH0 DUP1 REVERT JUMPDEST PUSH0 DUP1 REVERT JUMPDEST PUSH0 DUP1 REVERT JUMPDEST PUSH0 PUSH1 0x1F NOT PUSH1 0x1F DUP4 ADD AND SWAP1 POP SWAP2 SWAP1 POP JUMP JUMPDEST PUSH32 0x4E487B7100000000000000000000000000000000000000000000000000000000 PUSH0 MSTORE PUSH1 0x41 PUSH1 0x4 MSTORE PUSH1 0x24 PUSH0 REVERT JUMPDEST PUSH2 0x15E DUP3 PUSH2 0x118 JUMP JUMPDEST DUP2 ADD DUP2 DUP2 LT PUSH8 0xFFFFFFFFFFFFFFFF DUP3 GT OR ISZERO PUSH2 0x17D JUMPI PUSH2 0x17C PUSH2 0x128 JUMP JUMPDEST JUMPDEST DUP1 PUSH1 0x40 MSTORE POP POP POP JUMP JUMPDEST PUSH0 PUSH2 0x18F PUSH2 0xFF JUMP JUMPDEST SWAP1 POP PUSH2 0x19B DUP3 DUP3 PUSH2 0x155 JUMP JUMPDEST SWAP2 SWAP1 POP JUMP JUMPDEST PUSH0 PUSH8 0xFFFFFFFFFFFFFFFF DUP3 GT ISZERO PUSH2 0x1BA JUMPI PUSH2 0x1B9 PUSH2 0x128 JUMP JUMPDEST JUMPDEST PUSH2 0x1C3 DUP3 PUSH2 0x118 JUMP JUMPDEST SWAP1 POP PUSH1 0x20 DUP2 ADD SWAP1 POP SWAP2 SWAP1 POP JUMP JUMPDEST DUP3 DUP2 DUP4 CALLDATACOPY PUSH0 DUP4 DUP4 ADD MSTORE POP POP POP JUMP JUMPDEST PUSH0 PUSH2 0x1F0 PUSH2 0x1EB DUP5 PUSH2 0x1A0 JUMP JUMPDEST PUSH2 0x186 JUMP JUMPDEST SWAP1 POP DUP3 DUP2 MSTORE PUSH1 0x20 DUP2 ADD DUP5 DUP5 DUP5 ADD GT ISZERO PUSH2 0x20C JUMPI PUSH2 0x20B PUSH2 0x114 JUMP JUMPDEST JUMPDEST PUSH2 0x217 DUP5 DUP3 DUP6 PUSH2 0x1D0 JUMP JUMPDEST POP SWAP4 SWAP3 POP POP POP JUMP JUMPDEST PUSH0 DUP3 PUSH1 0x1F DUP4 ADD SLT PUSH2 0x233 JUMPI PUSH2 0x232 PUSH2 0x110 JUMP JUMPDEST JUMPDEST DUP2 CALLDATALOAD PUSH2 0x243 DUP5 DUP3 PUSH1 0x20 DUP7 ADD PUSH2 0x1DE JUMP JUMPDEST SWAP2 POP POP SWAP3 SWAP2 POP POP JUMP JUMPDEST PUSH0 DUP2 SWAP1 POP SWAP2 SWAP1 POP JUMP JUMPDEST PUSH2 0x25E DUP2 PUSH2 0x24C JUMP JUMPDEST DUP2 EQ PUSH2 0x268 JUMPI PUSH0 DUP1 REVERT JUMPDEST POP JUMP JUMPDEST PUSH0 DUP2 CALLDATALOAD SWAP1 POP PUSH2 0x279 DUP2 PUSH2 0x255 JUMP JUMPDEST SWAP3 SWAP2 POP POP JUMP JUMPDEST PUSH0 PUSH20 0xFFFFFFFFFFFFFFFFFFFFFFFFFFFFFFFFFFFFFFFF DUP3 AND SWAP1 POP SWAP2 SWAP1 POP JUMP JUMPDEST PUSH0 PUSH2 0x2A8 DUP3 PUSH2 0x27F JUMP JUMPDEST SWAP1 POP SWAP2 SWAP1 POP JUMP JUMPDEST PUSH2 0x2B8 DUP2 PUSH2 0x29E JUMP JUMPDEST DUP2 EQ PUSH2 0x2C2 JUMPI PUSH0 DUP1 REVERT JUMPDEST POP JUMP JUMPDEST PUSH0 DUP2 CALLDATALOAD SWAP1 POP PUSH2 0x2D3 DUP2 PUSH2 0x2AF JUMP JUMPDEST SWAP3 SWAP2 POP POP JUMP JUMPDEST PUSH0 DUP1 PUSH0 PUSH1 0x60 DUP5 DUP7 SUB SLT ISZERO PUSH2 0x2F0 JUMPI PUSH2 0x2EF PUSH2 0x108 JUMP JUMPDEST JUMPDEST PUSH0 DUP5 ADD CALLDATALOAD PUSH8 0xFFFFFFFFFFFFFFFF DUP2 GT ISZERO PUSH2 0x30D JUMPI PUSH2 0x30C PUSH2 0x10C JUMP JUMPDEST JUMPDEST PUSH2 0x319 DUP7 DUP3 DUP8 ADD PUSH2 0x21F JUMP JUMPDEST SWAP4 POP POP PUSH1 0x20 PUSH2 0x32A DUP7 DUP3 DUP8 ADD PUSH2 0x26B JUMP JUMPDEST SWAP3 POP POP PUSH1 0x40 PUSH2 0x33B DUP7 DUP3 DUP8 ADD PUSH2 0x2C5 JUMP JUMPDEST SWAP2 POP POP SWAP3 POP SWAP3 POP SWAP3 JUMP JUMPDEST PUSH0 DUP2 SWAP1 POP SWAP2 SWAP1 POP JUMP JUMPDEST PUSH2 0x357 DUP2 PUSH2 0x345 JUMP JUMPDEST DUP3 MSTORE POP POP JUMP JUMPDEST PUSH0 PUSH1 0x20 DUP3 ADD SWAP1 POP PUSH2 0x370 PUSH0 DUP4 ADD DUP5 PUSH2 0x34E JUMP JUMPDEST SWAP3 SWAP2 POP POP JUMP JUMPDEST PUSH0 DUP1 PUSH1 0x40 DUP4 DUP6 SUB SLT ISZERO PUSH2 0x38C JUMPI PUSH2 0x38B PUSH2 0x108 JUMP JUMPDEST JUMPDEST PUSH0 PUSH2 0x399 DUP6 DUP3 DUP7 ADD PUSH2 0x26B JUMP JUMPDEST SWAP3 POP POP PUSH1 0x20 PUSH2 0x3AA DUP6 DUP3 DUP7 ADD PUSH2 0x26B JUMP JUMPDEST SWAP2 POP POP SWAP3 POP SWAP3 SWAP1 POP JUMP JUMPDEST PUSH0 DUP2 MLOAD SWAP1 POP SWAP2 SWAP1 POP JUMP JUMPDEST PUSH0 DUP2 SWAP1 POP SWAP3 SWAP2 POP POP JUMP JUMPDEST DUP3 DUP2 DUP4 MCOPY PUSH0 DUP4 DUP4 ADD MSTORE POP POP POP JUMP JUMPDEST PUSH0 PUSH2 0x3E0 DUP3 PUSH2 0x3B4 JUMP JUMPDEST PUSH2 0x3EA DUP2 DUP6 PUSH2 0x3BE JUMP JUMPDEST SWAP4 POP PUSH2 0x3FA DUP2 DUP6 PUSH1 0x20 DUP7 ADD PUSH2 0x3C8 JUMP JUMPDEST DUP1 DUP5 ADD SWAP2 POP POP SWAP3 SWAP2 POP POP JUMP JUMPDEST PUSH0 DUP2 SWAP1 POP SWAP2 SWAP1 POP JUMP JUMPDEST PUSH2 0x420 PUSH2 0x41B DUP3 PUSH2 0x24C JUMP JUMPDEST PUSH2 0x406 JUMP JUMPDEST DUP3 MSTORE POP POP JUMP JUMPDEST PUSH0 DUP2 PUSH1 0x60 SHL SWAP1 POP SWAP2 SWAP1 POP JUMP JUMPDEST PUSH0 PUSH2 0x43C DUP3 PUSH2 0x426 JUMP JUMPDEST SWAP1 POP SWAP2 SWAP1 POP JUMP JUMPDEST PUSH0 PUSH2 0x44D DUP3 PUSH2 0x432 JUMP JUMPDEST SWAP1 POP SWAP2 SWAP1 POP JUMP JUMPDEST PUSH2 0x465 PUSH2 0x460 DUP3 PUSH2 0x29E JUMP JUMPDEST PUSH2 0x443 JUMP JUMPDEST DUP3 MSTORE POP POP JUMP JUMPDEST PUSH0 PUSH2 0x476 DUP3 DUP7 PUSH2 0x3D6 JUMP JUMPDEST SWAP2 POP PUSH2 0x482 DUP3 DUP6 PUSH2 0x40F JUMP JUMPDEST PUSH1 0x20 DUP3 ADD SWAP2 POP PUSH2 0x492 DUP3 DUP5 PUSH2 0x454 JUMP JUMPDEST PUSH1 0x14 DUP3 ADD SWAP2 POP DUP2 SWAP1 POP SWAP5 SWAP4 POP POP POP POP JUMP JUMPDEST PUSH0 PUSH2 0x4AE DUP3 DUP6 PUSH2 0x40F JUMP JUMPDEST PUSH1 0x20 DUP3 ADD SWAP2 POP PUSH2 0x4BE DUP3 DUP5 PUSH2 0x40F JUMP JUMPDEST PUSH1 0x20 DUP3 ADD SWAP2 POP DUP2 SWAP1 POP SWAP4 SWAP3 POP POP POP JUMP INVALID LOG2 PUSH5 0x6970667358 0x22 SLT KECCAK256 JUMPDEST 0xB0 0xC3 DUP1 0xCD 0xE1 DUP14 PUSH6 0xEF0FCCD23ECE DUP4 PUSH8 0x1F5EEAC0968FA4F3 0xFC CREATE 0x28 0xAB 0xDA 0x4F SWAP12 PUSH31 0x64736F6C634300081A00330000000000000000000000000000000000000000 "
		},
		"gasEstimates": {
			"creation": {
				"codeDepositCost": "256800",
				"executionCost": "298",
				"totalCost": "257098"
			},
			"external": {
				"HashCollision(uint256,uint256)": "infinite",
				"check(string,uint256,address)": "infinite"
			}
		},
		"methodIdentifiers": {
			"HashCollision(uint256,uint256)": "85ff0bf1",
			"check(string,uint256,address)": "1be264d8"
		}
	},
	"abi": [
		{
			"inputs": [
				{
					"internalType": "uint256",
					"name": "_num1",
					"type": "uint256"
				},
				{
					"internalType": "uint256",
					"name": "_num2",
					"type": "uint256"
				}
			],
			"name": "HashCollision",
			"outputs": [
				{
					"internalType": "bytes32",
					"name": "",
					"type": "bytes32"
				}
			],
			"stateMutability": "pure",
			"type": "function"
		},
		{
			"inputs": [
				{
					"internalType": "string",
					"name": "_name",
					"type": "string"
				},
				{
					"internalType": "uint256",
					"name": "_price",
					"type": "uint256"
				},
				{
					"internalType": "address",
					"name": "_owner",
					"type": "address"
				}
			],
			"name": "check",
			"outputs": [
				{
					"internalType": "bytes32",
					"name": "",
					"type": "bytes32"
				}
			],
			"stateMutability": "pure",
			"type": "function"
		}
	]
}