{
	"data": {
		"bytecode": {
			"linkReferences": {},
			"object": "6080604052348015600e575f80fd5b50610dbc8061001c5f395ff3fe60806040526004361061003e575f3560e01c80635fc7c31d146100425780637a2cdd8b1461005e578063fb8057361461009e578063fe5d42d6146100c6575b5f80fd5b61005c60048036038101906100579190610601565b610102565b005b348015610069575f80fd5b50610084600480360381019061007f9190610601565b610316565b604051610095959493929190610704565b60405180910390f35b3480156100a9575f80fd5b506100c460048036038101906100bf919061088f565b61047f565b005b3480156100d1575f80fd5b506100ec60048036038101906100e79190610601565b61059d565b6040516100f9919061092b565b60405180910390f35b5f805f8381526020019081526020015f209050348160020154111561015c576040517f08c379a00000000000000000000000000000000000000000000000000000000081526004016101539061098e565b60405180910390fd5b8060030160149054906101000a900460ff166101ad576040517f08c379a00000000000000000000000000000000000000000000000000000000081526004016101a4906109f6565b60405180910390fd5b33816003015f6101000a81548173ffffffffffffffffffffffffffffffffffffffff021916908373ffffffffffffffffffffffffffffffffffffffff1602179055505f8160030160146101000a81548160ff0219169083151502179055505f816003015f9054906101000a900473ffffffffffffffffffffffffffffffffffffffff1673ffffffffffffffffffffffffffffffffffffffff16826002015460405161025790610a41565b5f6040518083038185875af1925050503d805f8114610291576040519150601f19603f3d011682016040523d82523d5f602084013e610296565b606091505b50509050806102da576040517f08c379a00000000000000000000000000000000000000000000000000000000081526004016102d190610a9f565b60405180910390fd5b7fe1b89d90477b845fbe809b6b58fc6f614a4334ef046a7b08830f145fe48e601e83604051610309919061092b565b60405180910390a1505050565b5f602052805f5260405f205f91509050805f01805461033490610aea565b80601f016020809104026020016040519081016040528092919081815260200182805461036090610aea565b80156103ab5780601f10610382576101008083540402835291602001916103ab565b820191905f5260205f20905b81548152906001019060200180831161038e57829003601f168201915b5050505050908060010180546103c090610aea565b80601f01602080910402602001604051908101604052809291908181526020018280546103ec90610aea565b80156104375780601f1061040e57610100808354040283529160200191610437565b820191905f5260205f20905b81548152906001019060200180831161041a57829003601f168201915b505050505090806002015490806003015f9054906101000a900473ffffffffffffffffffffffffffffffffffffffff16908060030160149054906101000a900460ff16905085565b5f6040518060a001604052808681526020018581526020018481526020013373ffffffffffffffffffffffffffffffffffffffff168152602001600115158152509050805f808481526020019081526020015f205f820151815f0190816104e69190610cb7565b5060208201518160010190816104fc9190610cb7565b50604082015181600201556060820151816003015f6101000a81548173ffffffffffffffffffffffffffffffffffffffff021916908373ffffffffffffffffffffffffffffffffffffffff16021790555060808201518160030160146101000a81548160ff021916908315150217905550905050600182908060018154018082558091505060019003905f5260205f20015f90919091909150555050505050565b600181815481106105ac575f80fd5b905f5260205f20015f915090505481565b5f604051905090565b5f80fd5b5f80fd5b5f819050919050565b6105e0816105ce565b81146105ea575f80fd5b50565b5f813590506105fb816105d7565b92915050565b5f60208284031215610616576106156105c6565b5b5f610623848285016105ed565b91505092915050565b5f81519050919050565b5f82825260208201905092915050565b8281835e5f83830152505050565b5f601f19601f8301169050919050565b5f61066e8261062c565b6106788185610636565b9350610688818560208601610646565b61069181610654565b840191505092915050565b6106a5816105ce565b82525050565b5f73ffffffffffffffffffffffffffffffffffffffff82169050919050565b5f6106d4826106ab565b9050919050565b6106e4816106ca565b82525050565b5f8115159050919050565b6106fe816106ea565b82525050565b5f60a0820190508181035f83015261071c8188610664565b905081810360208301526107308187610664565b905061073f604083018661069c565b61074c60608301856106db565b61075960808301846106f5565b9695505050505050565b5f80fd5b5f80fd5b7f4e487b71000000000000000000000000000000000000000000000000000000005f52604160045260245ffd5b6107a182610654565b810181811067ffffffffffffffff821117156107c0576107bf61076b565b5b80604052505050565b5f6107d26105bd565b90506107de8282610798565b919050565b5f67ffffffffffffffff8211156107fd576107fc61076b565b5b61080682610654565b9050602081019050919050565b828183375f83830152505050565b5f61083361082e846107e3565b6107c9565b90508281526020810184848401111561084f5761084e610767565b5b61085a848285610813565b509392505050565b5f82601f83011261087657610875610763565b5b8135610886848260208601610821565b91505092915050565b5f805f80608085870312156108a7576108a66105c6565b5b5f85013567ffffffffffffffff8111156108c4576108c36105ca565b5b6108d087828801610862565b945050602085013567ffffffffffffffff8111156108f1576108f06105ca565b5b6108fd87828801610862565b935050604061090e878288016105ed565b925050606061091f878288016105ed565b91505092959194509250565b5f60208201905061093e5f83018461069c565b92915050565b7f456e74657220612068696768657220616d6f756e7400000000000000000000005f82015250565b5f610978601583610636565b915061098382610944565b602082019050919050565b5f6020820190508181035f8301526109a58161096c565b9050919050565b7f6e6f7420666f722073616c6500000000000000000000000000000000000000005f82015250565b5f6109e0600c83610636565b91506109eb826109ac565b602082019050919050565b5f6020820190508181035f830152610a0d816109d4565b9050919050565b5f81905092915050565b50565b5f610a2c5f83610a14565b9150610a3782610a1e565b5f82019050919050565b5f610a4b82610a21565b9150819050919050565b7f7478206661696c656400000000000000000000000000000000000000000000005f82015250565b5f610a89600983610636565b9150610a9482610a55565b602082019050919050565b5f6020820190508181035f830152610ab681610a7d565b9050919050565b7f4e487b71000000000000000000000000000000000000000000000000000000005f52602260045260245ffd5b5f6002820490506001821680610b0157607f821691505b602082108103610b1457610b13610abd565b5b50919050565b5f819050815f5260205f209050919050565b5f6020601f8301049050919050565b5f82821b905092915050565b5f60088302610b767fffffffffffffffffffffffffffffffffffffffffffffffffffffffffffffffff82610b3b565b610b808683610b3b565b95508019841693508086168417925050509392505050565b5f819050919050565b5f610bbb610bb6610bb1846105ce565b610b98565b6105ce565b9050919050565b5f819050919050565b610bd483610ba1565b610be8610be082610bc2565b848454610b47565b825550505050565b5f90565b610bfc610bf0565b610c07818484610bcb565b505050565b5b81811015610c2a57610c1f5f82610bf4565b600181019050610c0d565b5050565b601f821115610c6f57610c4081610b1a565b610c4984610b2c565b81016020851015610c58578190505b610c6c610c6485610b2c565b830182610c0c565b50505b505050565b5f82821c905092915050565b5f610c8f5f1984600802610c74565b1980831691505092915050565b5f610ca78383610c80565b9150826002028217905092915050565b610cc08261062c565b67ffffffffffffffff811115610cd957610cd861076b565b5b610ce38254610aea565b610cee828285610c2e565b5f60209050601f831160018114610d1f575f8415610d0d578287015190505b610d178582610c9c565b865550610d7e565b601f198416610d2d86610b1a565b5f5b82811015610d5457848901518255600182019150602085019450602081019050610d2f565b86831015610d715784890151610d6d601f891682610c80565b8355505b6001600288020188555050505b50505050505056fea2646970667358221220b9e30184bed5115bbcd797f5ff2c43bdac0e66f30d398ff75a95b7e40661ea6864736f6c634300081a0033",
			"opcodes": "PUSH1 0x80 PUSH1 0x40 MSTORE CALLVALUE DUP1 ISZERO PUSH1 0xE JUMPI PUSH0 DUP1 REVERT JUMPDEST POP PUSH2 0xDBC DUP1 PUSH2 0x1C PUSH0 CODECOPY PUSH0 RETURN INVALID PUSH1 0x80 PUSH1 0x40 MSTORE PUSH1 0x4 CALLDATASIZE LT PUSH2 0x3E JUMPI PUSH0 CALLDATALOAD PUSH1 0xE0 SHR DUP1 PUSH4 0x5FC7C31D EQ PUSH2 0x42 JUMPI DUP1 PUSH4 0x7A2CDD8B EQ PUSH2 0x5E JUMPI DUP1 PUSH4 0xFB805736 EQ PUSH2 0x9E JUMPI DUP1 PUSH4 0xFE5D42D6 EQ PUSH2 0xC6 JUMPI JUMPDEST PUSH0 DUP1 REVERT JUMPDEST PUSH2 0x5C PUSH1 0x4 DUP1 CALLDATASIZE SUB DUP2 ADD SWAP1 PUSH2 0x57 SWAP2 SWAP1 PUSH2 0x601 JUMP JUMPDEST PUSH2 0x102 JUMP JUMPDEST STOP JUMPDEST CALLVALUE DUP1 ISZERO PUSH2 0x69 JUMPI PUSH0 DUP1 REVERT JUMPDEST POP PUSH2 0x84 PUSH1 0x4 DUP1 CALLDATASIZE SUB DUP2 ADD SWAP1 PUSH2 0x7F SWAP2 SWAP1 PUSH2 0x601 JUMP JUMPDEST PUSH2 0x316 JUMP JUMPDEST PUSH1 0x40 MLOAD PUSH2 0x95 SWAP6 SWAP5 SWAP4 SWAP3 SWAP2 SWAP1 PUSH2 0x704 JUMP JUMPDEST PUSH1 0x40 MLOAD DUP1 SWAP2 SUB SWAP1 RETURN JUMPDEST CALLVALUE DUP1 ISZERO PUSH2 0xA9 JUMPI PUSH0 DUP1 REVERT JUMPDEST POP PUSH2 0xC4 PUSH1 0x4 DUP1 CALLDATASIZE SUB DUP2 ADD SWAP1 PUSH2 0xBF SWAP2 SWAP1 PUSH2 0x88F JUMP JUMPDEST PUSH2 0x47F JUMP JUMPDEST STOP JUMPDEST CALLVALUE DUP1 ISZERO PUSH2 0xD1 JUMPI PUSH0 DUP1 REVERT JUMPDEST POP PUSH2 0xEC PUSH1 0x4 DUP1 CALLDATASIZE SUB DUP2 ADD SWAP1 PUSH2 0xE7 SWAP2 SWAP1 PUSH2 0x601 JUMP JUMPDEST PUSH2 0x59D JUMP JUMPDEST PUSH1 0x40 MLOAD PUSH2 0xF9 SWAP2 SWAP1 PUSH2 0x92B JUMP JUMPDEST PUSH1 0x40 MLOAD DUP1 SWAP2 SUB SWAP1 RETURN JUMPDEST PUSH0 DUP1 PUSH0 DUP4 DUP2 MSTORE PUSH1 0x20 ADD SWAP1 DUP2 MSTORE PUSH1 0x20 ADD PUSH0 KECCAK256 SWAP1 POP CALLVALUE DUP2 PUSH1 0x2 ADD SLOAD GT ISZERO PUSH2 0x15C JUMPI PUSH1 0x40 MLOAD PUSH32 0x8C379A000000000000000000000000000000000000000000000000000000000 DUP2 MSTORE PUSH1 0x4 ADD PUSH2 0x153 SWAP1 PUSH2 0x98E JUMP JUMPDEST PUSH1 0x40 MLOAD DUP1 SWAP2 SUB SWAP1 REVERT JUMPDEST DUP1 PUSH1 0x3 ADD PUSH1 0x14 SWAP1 SLOAD SWAP1 PUSH2 0x100 EXP SWAP1 DIV PUSH1 0xFF AND PUSH2 0x1AD JUMPI PUSH1 0x40 MLOAD PUSH32 0x8C379A000000000000000000000000000000000000000000000000000000000 DUP2 MSTORE PUSH1 0x4 ADD PUSH2 0x1A4 SWAP1 PUSH2 0x9F6 JUMP JUMPDEST PUSH1 0x40 MLOAD DUP1 SWAP2 SUB SWAP1 REVERT JUMPDEST CALLER DUP2 PUSH1 0x3 ADD PUSH0 PUSH2 0x100 EXP DUP2 SLOAD DUP2 PUSH20 0xFFFFFFFFFFFFFFFFFFFFFFFFFFFFFFFFFFFFFFFF MUL NOT AND SWAP1 DUP4 PUSH20 0xFFFFFFFFFFFFFFFFFFFFFFFFFFFFFFFFFFFFFFFF AND MUL OR SWAP1 SSTORE POP PUSH0 DUP2 PUSH1 0x3 ADD PUSH1 0x14 PUSH2 0x100 EXP DUP2 SLOAD DUP2 PUSH1 0xFF MUL NOT AND SWAP1 DUP4 ISZERO ISZERO MUL OR SWAP1 SSTORE POP PUSH0 DUP2 PUSH1 0x3 ADD PUSH0 SWAP1 SLOAD SWAP1 PUSH2 0x100 EXP SWAP1 DIV PUSH20 0xFFFFFFFFFFFFFFFFFFFFFFFFFFFFFFFFFFFFFFFF AND PUSH20 0xFFFFFFFFFFFFFFFFFFFFFFFFFFFFFFFFFFFFFFFF AND DUP3 PUSH1 0x2 ADD SLOAD PUSH1 0x40 MLOAD PUSH2 0x257 SWAP1 PUSH2 0xA41 JUMP JUMPDEST PUSH0 PUSH1 0x40 MLOAD DUP1 DUP4 SUB DUP2 DUP6 DUP8 GAS CALL SWAP3 POP POP POP RETURNDATASIZE DUP1 PUSH0 DUP2 EQ PUSH2 0x291 JUMPI PUSH1 0x40 MLOAD SWAP2 POP PUSH1 0x1F NOT PUSH1 0x3F RETURNDATASIZE ADD AND DUP3 ADD PUSH1 0x40 MSTORE RETURNDATASIZE DUP3 MSTORE RETURNDATASIZE PUSH0 PUSH1 0x20 DUP5 ADD RETURNDATACOPY PUSH2 0x296 JUMP JUMPDEST PUSH1 0x60 SWAP2 POP JUMPDEST POP POP SWAP1 POP DUP1 PUSH2 0x2DA JUMPI PUSH1 0x40 MLOAD PUSH32 0x8C379A000000000000000000000000000000000000000000000000000000000 DUP2 MSTORE PUSH1 0x4 ADD PUSH2 0x2D1 SWAP1 PUSH2 0xA9F JUMP JUMPDEST PUSH1 0x40 MLOAD DUP1 SWAP2 SUB SWAP1 REVERT JUMPDEST PUSH32 0xE1B89D90477B845FBE809B6B58FC6F614A4334EF046A7B08830F145FE48E601E DUP4 PUSH1 0x40 MLOAD PUSH2 0x309 SWAP2 SWAP1 PUSH2 0x92B JUMP JUMPDEST PUSH1 0x40 MLOAD DUP1 SWAP2 SUB SWAP1 LOG1 POP POP POP JUMP JUMPDEST PUSH0 PUSH1 0x20 MSTORE DUP1 PUSH0 MSTORE PUSH1 0x40 PUSH0 KECCAK256 PUSH0 SWAP2 POP SWAP1 POP DUP1 PUSH0 ADD DUP1 SLOAD PUSH2 0x334 SWAP1 PUSH2 0xAEA JUMP JUMPDEST DUP1 PUSH1 0x1F ADD PUSH1 0x20 DUP1 SWAP2 DIV MUL PUSH1 0x20 ADD PUSH1 0x40 MLOAD SWAP1 DUP2 ADD PUSH1 0x40 MSTORE DUP1 SWAP3 SWAP2 SWAP1 DUP2 DUP2 MSTORE PUSH1 0x20 ADD DUP3 DUP1 SLOAD PUSH2 0x360 SWAP1 PUSH2 0xAEA JUMP JUMPDEST DUP1 ISZERO PUSH2 0x3AB JUMPI DUP1 PUSH1 0x1F LT PUSH2 0x382 JUMPI PUSH2 0x100 DUP1 DUP4 SLOAD DIV MUL DUP4 MSTORE SWAP2 PUSH1 0x20 ADD SWAP2 PUSH2 0x3AB JUMP JUMPDEST DUP3 ADD SWAP2 SWAP1 PUSH0 MSTORE PUSH1 0x20 PUSH0 KECCAK256 SWAP1 JUMPDEST DUP2 SLOAD DUP2 MSTORE SWAP1 PUSH1 0x1 ADD SWAP1 PUSH1 0x20 ADD DUP1 DUP4 GT PUSH2 0x38E JUMPI DUP3 SWAP1 SUB PUSH1 0x1F AND DUP3 ADD SWAP2 JUMPDEST POP POP POP POP POP SWAP1 DUP1 PUSH1 0x1 ADD DUP1 SLOAD PUSH2 0x3C0 SWAP1 PUSH2 0xAEA JUMP JUMPDEST DUP1 PUSH1 0x1F ADD PUSH1 0x20 DUP1 SWAP2 DIV MUL PUSH1 0x20 ADD PUSH1 0x40 MLOAD SWAP1 DUP2 ADD PUSH1 0x40 MSTORE DUP1 SWAP3 SWAP2 SWAP1 DUP2 DUP2 MSTORE PUSH1 0x20 ADD DUP3 DUP1 SLOAD PUSH2 0x3EC SWAP1 PUSH2 0xAEA JUMP JUMPDEST DUP1 ISZERO PUSH2 0x437 JUMPI DUP1 PUSH1 0x1F LT PUSH2 0x40E JUMPI PUSH2 0x100 DUP1 DUP4 SLOAD DIV MUL DUP4 MSTORE SWAP2 PUSH1 0x20 ADD SWAP2 PUSH2 0x437 JUMP JUMPDEST DUP3 ADD SWAP2 SWAP1 PUSH0 MSTORE PUSH1 0x20 PUSH0 KECCAK256 SWAP1 JUMPDEST DUP2 SLOAD DUP2 MSTORE SWAP1 PUSH1 0x1 ADD SWAP1 PUSH1 0x20 ADD DUP1 DUP4 GT PUSH2 0x41A JUMPI DUP3 SWAP1 SUB PUSH1 0x1F AND DUP3 ADD SWAP2 JUMPDEST POP POP POP POP POP SWAP1 DUP1 PUSH1 0x2 ADD SLOAD SWAP1 DUP1 PUSH1 0x3 ADD PUSH0 SWAP1 SLOAD SWAP1 PUSH2 0x100 EXP SWAP1 DIV PUSH20 0xFFFFFFFFFFFFFFFFFFFFFFFFFFFFFFFFFFFFFFFF AND SWAP1 DUP1 PUSH1 0x3 ADD PUSH1 0x14 SWAP1 SLOAD SWAP1 PUSH2 0x100 EXP SWAP1 DIV PUSH1 0xFF AND SWAP1 POP DUP6 JUMP JUMPDEST PUSH0 PUSH1 0x40 MLOAD DUP1 PUSH1 0xA0 ADD PUSH1 0x40 MSTORE DUP1 DUP7 DUP2 MSTORE PUSH1 0x20 ADD DUP6 DUP2 MSTORE PUSH1 0x20 ADD DUP5 DUP2 MSTORE PUSH1 0x20 ADD CALLER PUSH20 0xFFFFFFFFFFFFFFFFFFFFFFFFFFFFFFFFFFFFFFFF AND DUP2 MSTORE PUSH1 0x20 ADD PUSH1 0x1 ISZERO ISZERO DUP2 MSTORE POP SWAP1 POP DUP1 PUSH0 DUP1 DUP5 DUP2 MSTORE PUSH1 0x20 ADD SWAP1 DUP2 MSTORE PUSH1 0x20 ADD PUSH0 KECCAK256 PUSH0 DUP3 ADD MLOAD DUP2 PUSH0 ADD SWAP1 DUP2 PUSH2 0x4E6 SWAP2 SWAP1 PUSH2 0xCB7 JUMP JUMPDEST POP PUSH1 0x20 DUP3 ADD MLOAD DUP2 PUSH1 0x1 ADD SWAP1 DUP2 PUSH2 0x4FC SWAP2 SWAP1 PUSH2 0xCB7 JUMP JUMPDEST POP PUSH1 0x40 DUP3 ADD MLOAD DUP2 PUSH1 0x2 ADD SSTORE PUSH1 0x60 DUP3 ADD MLOAD DUP2 PUSH1 0x3 ADD PUSH0 PUSH2 0x100 EXP DUP2 SLOAD DUP2 PUSH20 0xFFFFFFFFFFFFFFFFFFFFFFFFFFFFFFFFFFFFFFFF MUL NOT AND SWAP1 DUP4 PUSH20 0xFFFFFFFFFFFFFFFFFFFFFFFFFFFFFFFFFFFFFFFF AND MUL OR SWAP1 SSTORE POP PUSH1 0x80 DUP3 ADD MLOAD DUP2 PUSH1 0x3 ADD PUSH1 0x14 PUSH2 0x100 EXP DUP2 SLOAD DUP2 PUSH1 0xFF MUL NOT AND SWAP1 DUP4 ISZERO ISZERO MUL OR SWAP1 SSTORE POP SWAP1 POP POP PUSH1 0x1 DUP3 SWAP1 DUP1 PUSH1 0x1 DUP2 SLOAD ADD DUP1 DUP3 SSTORE DUP1 SWAP2 POP POP PUSH1 0x1 SWAP1 SUB SWAP1 PUSH0 MSTORE PUSH1 0x20 PUSH0 KECCAK256 ADD PUSH0 SWAP1 SWAP2 SWAP1 SWAP2 SWAP1 SWAP2 POP SSTORE POP POP POP POP POP JUMP JUMPDEST PUSH1 0x1 DUP2 DUP2 SLOAD DUP2 LT PUSH2 0x5AC JUMPI PUSH0 DUP1 REVERT JUMPDEST SWAP1 PUSH0 MSTORE PUSH1 0x20 PUSH0 KECCAK256 ADD PUSH0 SWAP2 POP SWAP1 POP SLOAD DUP2 JUMP JUMPDEST PUSH0 PUSH1 0x40 MLOAD SWAP1 POP SWAP1 JUMP JUMPDEST PUSH0 DUP1 REVERT JUMPDEST PUSH0 DUP1 REVERT JUMPDEST PUSH0 DUP2 SWAP1 POP SWAP2 SWAP1 POP JUMP JUMPDEST PUSH2 0x5E0 DUP2 PUSH2 0x5CE JUMP JUMPDEST DUP2 EQ PUSH2 0x5EA JUMPI PUSH0 DUP1 REVERT JUMPDEST POP JUMP JUMPDEST PUSH0 DUP2 CALLDATALOAD SWAP1 POP PUSH2 0x5FB DUP2 PUSH2 0x5D7 JUMP JUMPDEST SWAP3 SWAP2 POP POP JUMP JUMPDEST PUSH0 PUSH1 0x20 DUP3 DUP5 SUB SLT ISZERO PUSH2 0x616 JUMPI PUSH2 0x615 PUSH2 0x5C6 JUMP JUMPDEST JUMPDEST PUSH0 PUSH2 0x623 DUP5 DUP3 DUP6 ADD PUSH2 0x5ED JUMP JUMPDEST SWAP2 POP POP SWAP3 SWAP2 POP POP JUMP JUMPDEST PUSH0 DUP2 MLOAD SWAP1 POP SWAP2 SWAP1 POP JUMP JUMPDEST PUSH0 DUP3 DUP3 MSTORE PUSH1 0x20 DUP3 ADD SWAP1 POP SWAP3 SWAP2 POP POP JUMP JUMPDEST DUP3 DUP2 DUP4 MCOPY PUSH0 DUP4 DUP4 ADD MSTORE POP POP POP JUMP JUMPDEST PUSH0 PUSH1 0x1F NOT PUSH1 0x1F DUP4 ADD AND SWAP1 POP SWAP2 SWAP1 POP JUMP JUMPDEST PUSH0 PUSH2 0x66E DUP3 PUSH2 0x62C JUMP JUMPDEST PUSH2 0x678 DUP2 DUP6 PUSH2 0x636 JUMP JUMPDEST SWAP4 POP PUSH2 0x688 DUP2 DUP6 PUSH1 0x20 DUP7 ADD PUSH2 0x646 JUMP JUMPDEST PUSH2 0x691 DUP2 PUSH2 0x654 JUMP JUMPDEST DUP5 ADD SWAP2 POP POP SWAP3 SWAP2 POP POP JUMP JUMPDEST PUSH2 0x6A5 DUP2 PUSH2 0x5CE JUMP JUMPDEST DUP3 MSTORE POP POP JUMP JUMPDEST PUSH0 PUSH20 0xFFFFFFFFFFFFFFFFFFFFFFFFFFFFFFFFFFFFFFFF DUP3 AND SWAP1 POP SWAP2 SWAP1 POP JUMP JUMPDEST PUSH0 PUSH2 0x6D4 DUP3 PUSH2 0x6AB JUMP JUMPDEST SWAP1 POP SWAP2 SWAP1 POP JUMP JUMPDEST PUSH2 0x6E4 DUP2 PUSH2 0x6CA JUMP JUMPDEST DUP3 MSTORE POP POP JUMP JUMPDEST PUSH0 DUP2 ISZERO ISZERO SWAP1 POP SWAP2 SWAP1 POP JUMP JUMPDEST PUSH2 0x6FE DUP2 PUSH2 0x6EA JUMP JUMPDEST DUP3 MSTORE POP POP JUMP JUMPDEST PUSH0 PUSH1 0xA0 DUP3 ADD SWAP1 POP DUP2 DUP2 SUB PUSH0 DUP4 ADD MSTORE PUSH2 0x71C DUP2 DUP9 PUSH2 0x664 JUMP JUMPDEST SWAP1 POP DUP2 DUP2 SUB PUSH1 0x20 DUP4 ADD MSTORE PUSH2 0x730 DUP2 DUP8 PUSH2 0x664 JUMP JUMPDEST SWAP1 POP PUSH2 0x73F PUSH1 0x40 DUP4 ADD DUP7 PUSH2 0x69C JUMP JUMPDEST PUSH2 0x74C PUSH1 0x60 DUP4 ADD DUP6 PUSH2 0x6DB JUMP JUMPDEST PUSH2 0x759 PUSH1 0x80 DUP4 ADD DUP5 PUSH2 0x6F5 JUMP JUMPDEST SWAP7 SWAP6 POP POP POP POP POP POP JUMP JUMPDEST PUSH0 DUP1 REVERT JUMPDEST PUSH0 DUP1 REVERT JUMPDEST PUSH32 0x4E487B7100000000000000000000000000000000000000000000000000000000 PUSH0 MSTORE PUSH1 0x41 PUSH1 0x4 MSTORE PUSH1 0x24 PUSH0 REVERT JUMPDEST PUSH2 0x7A1 DUP3 PUSH2 0x654 JUMP JUMPDEST DUP2 ADD DUP2 DUP2 LT PUSH8 0xFFFFFFFFFFFFFFFF DUP3 GT OR ISZERO PUSH2 0x7C0 JUMPI PUSH2 0x7BF PUSH2 0x76B JUMP JUMPDEST JUMPDEST DUP1 PUSH1 0x40 MSTORE POP POP POP JUMP JUMPDEST PUSH0 PUSH2 0x7D2 PUSH2 0x5BD JUMP JUMPDEST SWAP1 POP PUSH2 0x7DE DUP3 DUP3 PUSH2 0x798 JUMP JUMPDEST SWAP2 SWAP1 POP JUMP JUMPDEST PUSH0 PUSH8 0xFFFFFFFFFFFFFFFF DUP3 GT ISZERO PUSH2 0x7FD JUMPI PUSH2 0x7FC PUSH2 0x76B JUMP JUMPDEST JUMPDEST PUSH2 0x806 DUP3 PUSH2 0x654 JUMP JUMPDEST SWAP1 POP PUSH1 0x20 DUP2 ADD SWAP1 POP SWAP2 SWAP1 POP JUMP JUMPDEST DUP3 DUP2 DUP4 CALLDATACOPY PUSH0 DUP4 DUP4 ADD MSTORE POP POP POP JUMP JUMPDEST PUSH0 PUSH2 0x833 PUSH2 0x82E DUP5 PUSH2 0x7E3 JUMP JUMPDEST PUSH2 0x7C9 JUMP JUMPDEST SWAP1 POP DUP3 DUP2 MSTORE PUSH1 0x20 DUP2 ADD DUP5 DUP5 DUP5 ADD GT ISZERO PUSH2 0x84F JUMPI PUSH2 0x84E PUSH2 0x767 JUMP JUMPDEST JUMPDEST PUSH2 0x85A DUP5 DUP3 DUP6 PUSH2 0x813 JUMP JUMPDEST POP SWAP4 SWAP3 POP POP POP JUMP JUMPDEST PUSH0 DUP3 PUSH1 0x1F DUP4 ADD SLT PUSH2 0x876 JUMPI PUSH2 0x875 PUSH2 0x763 JUMP JUMPDEST JUMPDEST DUP2 CALLDATALOAD PUSH2 0x886 DUP5 DUP3 PUSH1 0x20 DUP7 ADD PUSH2 0x821 JUMP JUMPDEST SWAP2 POP POP SWAP3 SWAP2 POP POP JUMP JUMPDEST PUSH0 DUP1 PUSH0 DUP1 PUSH1 0x80 DUP6 DUP8 SUB SLT ISZERO PUSH2 0x8A7 JUMPI PUSH2 0x8A6 PUSH2 0x5C6 JUMP JUMPDEST JUMPDEST PUSH0 DUP6 ADD CALLDATALOAD PUSH8 0xFFFFFFFFFFFFFFFF DUP2 GT ISZERO PUSH2 0x8C4 JUMPI PUSH2 0x8C3 PUSH2 0x5CA JUMP JUMPDEST JUMPDEST PUSH2 0x8D0 DUP8 DUP3 DUP9 ADD PUSH2 0x862 JUMP JUMPDEST SWAP5 POP POP PUSH1 0x20 DUP6 ADD CALLDATALOAD PUSH8 0xFFFFFFFFFFFFFFFF DUP2 GT ISZERO PUSH2 0x8F1 JUMPI PUSH2 0x8F0 PUSH2 0x5CA JUMP JUMPDEST JUMPDEST PUSH2 0x8FD DUP8 DUP3 DUP9 ADD PUSH2 0x862 JUMP JUMPDEST SWAP4 POP POP PUSH1 0x40 PUSH2 0x90E DUP8 DUP3 DUP9 ADD PUSH2 0x5ED JUMP JUMPDEST SWAP3 POP POP PUSH1 0x60 PUSH2 0x91F DUP8 DUP3 DUP9 ADD PUSH2 0x5ED JUMP JUMPDEST SWAP2 POP POP SWAP3 SWAP6 SWAP2 SWAP5 POP SWAP3 POP JUMP JUMPDEST PUSH0 PUSH1 0x20 DUP3 ADD SWAP1 POP PUSH2 0x93E PUSH0 DUP4 ADD DUP5 PUSH2 0x69C JUMP JUMPDEST SWAP3 SWAP2 POP POP JUMP JUMPDEST PUSH32 0x456E74657220612068696768657220616D6F756E740000000000000000000000 PUSH0 DUP3 ADD MSTORE POP JUMP JUMPDEST PUSH0 PUSH2 0x978 PUSH1 0x15 DUP4 PUSH2 0x636 JUMP JUMPDEST SWAP2 POP PUSH2 0x983 DUP3 PUSH2 0x944 JUMP JUMPDEST PUSH1 0x20 DUP3 ADD SWAP1 POP SWAP2 SWAP1 POP JUMP JUMPDEST PUSH0 PUSH1 0x20 DUP3 ADD SWAP1 POP DUP2 DUP2 SUB PUSH0 DUP4 ADD MSTORE PUSH2 0x9A5 DUP2 PUSH2 0x96C JUMP JUMPDEST SWAP1 POP SWAP2 SWAP1 POP JUMP JUMPDEST PUSH32 0x6E6F7420666F722073616C650000000000000000000000000000000000000000 PUSH0 DUP3 ADD MSTORE POP JUMP JUMPDEST PUSH0 PUSH2 0x9E0 PUSH1 0xC DUP4 PUSH2 0x636 JUMP JUMPDEST SWAP2 POP PUSH2 0x9EB DUP3 PUSH2 0x9AC JUMP JUMPDEST PUSH1 0x20 DUP3 ADD SWAP1 POP SWAP2 SWAP1 POP JUMP JUMPDEST PUSH0 PUSH1 0x20 DUP3 ADD SWAP1 POP DUP2 DUP2 SUB PUSH0 DUP4 ADD MSTORE PUSH2 0xA0D DUP2 PUSH2 0x9D4 JUMP JUMPDEST SWAP1 POP SWAP2 SWAP1 POP JUMP JUMPDEST PUSH0 DUP2 SWAP1 POP SWAP3 SWAP2 POP POP JUMP JUMPDEST POP JUMP JUMPDEST PUSH0 PUSH2 0xA2C PUSH0 DUP4 PUSH2 0xA14 JUMP JUMPDEST SWAP2 POP PUSH2 0xA37 DUP3 PUSH2 0xA1E JUMP JUMPDEST PUSH0 DUP3 ADD SWAP1 POP SWAP2 SWAP1 POP JUMP JUMPDEST PUSH0 PUSH2 0xA4B DUP3 PUSH2 0xA21 JUMP JUMPDEST SWAP2 POP DUP2 SWAP1 POP SWAP2 SWAP1 POP JUMP JUMPDEST PUSH32 0x7478206661696C65640000000000000000000000000000000000000000000000 PUSH0 DUP3 ADD MSTORE POP JUMP JUMPDEST PUSH0 PUSH2 0xA89 PUSH1 0x9 DUP4 PUSH2 0x636 JUMP JUMPDEST SWAP2 POP PUSH2 0xA94 DUP3 PUSH2 0xA55 JUMP JUMPDEST PUSH1 0x20 DUP3 ADD SWAP1 POP SWAP2 SWAP1 POP JUMP JUMPDEST PUSH0 PUSH1 0x20 DUP3 ADD SWAP1 POP DUP2 DUP2 SUB PUSH0 DUP4 ADD MSTORE PUSH2 0xAB6 DUP2 PUSH2 0xA7D JUMP JUMPDEST SWAP1 POP SWAP2 SWAP1 POP JUMP JUMPDEST PUSH32 0x4E487B7100000000000000000000000000000000000000000000000000000000 PUSH0 MSTORE PUSH1 0x22 PUSH1 0x4 MSTORE PUSH1 0x24 PUSH0 REVERT JUMPDEST PUSH0 PUSH1 0x2 DUP3 DIV SWAP1 POP PUSH1 0x1 DUP3 AND DUP1 PUSH2 0xB01 JUMPI PUSH1 0x7F DUP3 AND SWAP2 POP JUMPDEST PUSH1 0x20 DUP3 LT DUP2 SUB PUSH2 0xB14 JUMPI PUSH2 0xB13 PUSH2 0xABD JUMP JUMPDEST JUMPDEST POP SWAP2 SWAP1 POP JUMP JUMPDEST PUSH0 DUP2 SWAP1 POP DUP2 PUSH0 MSTORE PUSH1 0x20 PUSH0 KECCAK256 SWAP1 POP SWAP2 SWAP1 POP JUMP JUMPDEST PUSH0 PUSH1 0x20 PUSH1 0x1F DUP4 ADD DIV SWAP1 POP SWAP2 SWAP1 POP JUMP JUMPDEST PUSH0 DUP3 DUP3 SHL SWAP1 POP SWAP3 SWAP2 POP POP JUMP JUMPDEST PUSH0 PUSH1 0x8 DUP4 MUL PUSH2 0xB76 PUSH32 0xFFFFFFFFFFFFFFFFFFFFFFFFFFFFFFFFFFFFFFFFFFFFFFFFFFFFFFFFFFFFFFFF DUP3 PUSH2 0xB3B JUMP JUMPDEST PUSH2 0xB80 DUP7 DUP4 PUSH2 0xB3B JUMP JUMPDEST SWAP6 POP DUP1 NOT DUP5 AND SWAP4 POP DUP1 DUP7 AND DUP5 OR SWAP3 POP POP POP SWAP4 SWAP3 POP POP POP JUMP JUMPDEST PUSH0 DUP2 SWAP1 POP SWAP2 SWAP1 POP JUMP JUMPDEST PUSH0 PUSH2 0xBBB PUSH2 0xBB6 PUSH2 0xBB1 DUP5 PUSH2 0x5CE JUMP JUMPDEST PUSH2 0xB98 JUMP JUMPDEST PUSH2 0x5CE JUMP JUMPDEST SWAP1 POP SWAP2 SWAP1 POP JUMP JUMPDEST PUSH0 DUP2 SWAP1 POP SWAP2 SWAP1 POP JUMP JUMPDEST PUSH2 0xBD4 DUP4 PUSH2 0xBA1 JUMP JUMPDEST PUSH2 0xBE8 PUSH2 0xBE0 DUP3 PUSH2 0xBC2 JUMP JUMPDEST DUP5 DUP5 SLOAD PUSH2 0xB47 JUMP JUMPDEST DUP3 SSTORE POP POP POP POP JUMP JUMPDEST PUSH0 SWAP1 JUMP JUMPDEST PUSH2 0xBFC PUSH2 0xBF0 JUMP JUMPDEST PUSH2 0xC07 DUP2 DUP5 DUP5 PUSH2 0xBCB JUMP JUMPDEST POP POP POP JUMP JUMPDEST JUMPDEST DUP2 DUP2 LT ISZERO PUSH2 0xC2A JUMPI PUSH2 0xC1F PUSH0 DUP3 PUSH2 0xBF4 JUMP JUMPDEST PUSH1 0x1 DUP2 ADD SWAP1 POP PUSH2 0xC0D JUMP JUMPDEST POP POP JUMP JUMPDEST PUSH1 0x1F DUP3 GT ISZERO PUSH2 0xC6F JUMPI PUSH2 0xC40 DUP2 PUSH2 0xB1A JUMP JUMPDEST PUSH2 0xC49 DUP5 PUSH2 0xB2C JUMP JUMPDEST DUP2 ADD PUSH1 0x20 DUP6 LT ISZERO PUSH2 0xC58 JUMPI DUP2 SWAP1 POP JUMPDEST PUSH2 0xC6C PUSH2 0xC64 DUP6 PUSH2 0xB2C JUMP JUMPDEST DUP4 ADD DUP3 PUSH2 0xC0C JUMP JUMPDEST POP POP JUMPDEST POP POP POP JUMP JUMPDEST PUSH0 DUP3 DUP3 SHR SWAP1 POP SWAP3 SWAP2 POP POP JUMP JUMPDEST PUSH0 PUSH2 0xC8F PUSH0 NOT DUP5 PUSH1 0x8 MUL PUSH2 0xC74 JUMP JUMPDEST NOT DUP1 DUP4 AND SWAP2 POP POP SWAP3 SWAP2 POP POP JUMP JUMPDEST PUSH0 PUSH2 0xCA7 DUP4 DUP4 PUSH2 0xC80 JUMP JUMPDEST SWAP2 POP DUP3 PUSH1 0x2 MUL DUP3 OR SWAP1 POP SWAP3 SWAP2 POP POP JUMP JUMPDEST PUSH2 0xCC0 DUP3 PUSH2 0x62C JUMP JUMPDEST PUSH8 0xFFFFFFFFFFFFFFFF DUP2 GT ISZERO PUSH2 0xCD9 JUMPI PUSH2 0xCD8 PUSH2 0x76B JUMP JUMPDEST JUMPDEST PUSH2 0xCE3 DUP3 SLOAD PUSH2 0xAEA JUMP JUMPDEST PUSH2 0xCEE DUP3 DUP3 DUP6 PUSH2 0xC2E JUMP JUMPDEST PUSH0 PUSH1 0x20 SWAP1 POP PUSH1 0x1F DUP4 GT PUSH1 0x1 DUP2 EQ PUSH2 0xD1F JUMPI PUSH0 DUP5 ISZERO PUSH2 0xD0D JUMPI DUP3 DUP8 ADD MLOAD SWAP1 POP JUMPDEST PUSH2 0xD17 DUP6 DUP3 PUSH2 0xC9C JUMP JUMPDEST DUP7 SSTORE POP PUSH2 0xD7E JUMP JUMPDEST PUSH1 0x1F NOT DUP5 AND PUSH2 0xD2D DUP7 PUSH2 0xB1A JUMP JUMPDEST PUSH0 JUMPDEST DUP3 DUP2 LT ISZERO PUSH2 0xD54 JUMPI DUP5 DUP10 ADD MLOAD DUP3 SSTORE PUSH1 0x1 DUP3 ADD SWAP2 POP PUSH1 0x20 DUP6 ADD SWAP5 POP PUSH1 0x20 DUP2 ADD SWAP1 POP PUSH2 0xD2F JUMP JUMPDEST DUP7 DUP4 LT ISZERO PUSH2 0xD71 JUMPI DUP5 DUP10 ADD MLOAD PUSH2 0xD6D PUSH1 0x1F DUP10 AND DUP3 PUSH2 0xC80 JUMP JUMPDEST DUP4 SSTORE POP JUMPDEST PUSH1 0x1 PUSH1 0x2 DUP9 MUL ADD DUP9 SSTORE POP POP POP JUMPDEST POP POP POP POP POP POP JUMP INVALID LOG2 PUSH5 0x6970667358 0x22 SLT KECCAK256 0xB9 0xE3 ADD DUP5 0xBE 0xD5 GT JUMPDEST 0xBC 0xD7 SWAP8 CREATE2 SELFDESTRUCT 0x2C NUMBER 0xBD 0xAC 0xE PUSH7 0xF30D398FF75A95 0xB7 0xE4 MOD PUSH2 0xEA68 PUSH5 0x736F6C6343 STOP ADDMOD BYTE STOP CALLER "
		},
		"gasEstimates": {
			"creation": {
				"codeDepositCost": "703200",
				"executionCost": "732",
				"totalCost": "703932"
			},
			"external": {
				"buyToy(uint256)": "infinite",
				"list_Toy(string,string,uint256,uint256)": "infinite",
				"toyList(uint256)": "infinite",
				"toys(uint256)": "infinite"
			}
		},
		"methodIdentifiers": {
			"buyToy(uint256)": "5fc7c31d",
			"list_Toy(string,string,uint256,uint256)": "fb805736",
			"toyList(uint256)": "fe5d42d6",
			"toys(uint256)": "7a2cdd8b"
		}
	},
	"abi": [
		{
			"anonymous": false,
			"inputs": [
				{
					"indexed": false,
					"internalType": "uint256",
					"name": "toyId",
					"type": "uint256"
				}
			],
			"name": "ToySold",
			"type": "event"
		},
		{
			"inputs": [
				{
					"internalType": "uint256",
					"name": "_toyId",
					"type": "uint256"
				}
			],
			"name": "buyToy",
			"outputs": [],
			"stateMutability": "payable",
			"type": "function"
		},
		{
			"inputs": [
				{
					"internalType": "string",
					"name": "_name",
					"type": "string"
				},
				{
					"internalType": "string",
					"name": "_desc",
					"type": "string"
				},
				{
					"internalType": "uint256",
					"name": "_price",
					"type": "uint256"
				},
				{
					"internalType": "uint256",
					"name": "_toyId",
					"type": "uint256"
				}
			],
			"name": "list_Toy",
			"outputs": [],
			"stateMutability": "nonpayable",
			"type": "function"
		},
		{
			"inputs": [
				{
					"internalType": "uint256",
					"name": "",
					"type": "uint256"
				}
			],
			"name": "toyList",
			"outputs": [
				{
					"internalType": "uint256",
					"name": "",
					"type": "uint256"
				}
			],
			"stateMutability": "view",
			"type": "function"
		},
		{
			"inputs": [
				{
					"internalType": "uint256",
					"name": "",
					"type": "uint256"
				}
			],
			"name": "toys",
			"outputs": [
				{
					"internalType": "string",
					"name": "name",
					"type": "string"
				},
				{
					"internalType": "string",
					"name": "desc",
					"type": "string"
				},
				{
					"internalType": "uint256",
					"name": "price",
					"type": "uint256"
				},
				{
					"internalType": "address",
					"name": "owner",
					"type": "address"
				},
				{
					"internalType": "bool",
					"name": "forSale",
					"type": "bool"
				}
			],
			"stateMutability": "view",
			"type": "function"
		}
	]
}