{
	"Learning Pth/WhileLoop.sol": {
		"WhileLoopp": {
			"abi": [
				{
					"inputs": [
						{
							"internalType": "uint256",
							"name": "",
							"type": "uint256"
						}
					],
					"name": "cars",
					"outputs": [
						{
							"internalType": "uint256",
							"name": "",
							"type": "uint256"
						}
					],
					"stateMutability": "view",
					"type": "function"
				},
				{
					"inputs": [],
					"name": "num",
					"outputs": [
						{
							"internalType": "uint256",
							"name": "",
							"type": "uint256"
						}
					],
					"stateMutability": "view",
					"type": "function"
				},
				{
					"inputs": [],
					"name": "number",
					"outputs": [
						{
							"internalType": "uint256",
							"name": "",
							"type": "uint256"
						}
					],
					"stateMutability": "view",
					"type": "function"
				},
				{
					"inputs": [],
					"name": "numberLoop",
					"outputs": [
						{
							"internalType": "uint256",
							"name": "",
							"type": "uint256"
						}
					],
					"stateMutability": "nonpayable",
					"type": "function"
				},
				{
					"inputs": [],
					"name": "viewLoop",
					"outputs": [
						{
							"internalType": "uint256[]",
							"name": "",
							"type": "uint256[]"
						}
					],
					"stateMutability": "nonpayable",
					"type": "function"
				}
			],
			"devdoc": {
				"kind": "dev",
				"methods": {},
				"version": 1
			},
			"evm": {
				"assembly": "    /* \"Learning Pth/WhileLoop.sol\":61:591  contract WhileLoopp {... */\n  mstore(0x40, 0x80)\n    /* \"Learning Pth/WhileLoop.sol\":241:242  0 */\n  0x00\n    /* \"Learning Pth/WhileLoop.sol\":220:242  uint public number = 0 */\n  0x02\n  sstore\n    /* \"Learning Pth/WhileLoop.sol\":61:591  contract WhileLoopp {... */\n  callvalue\n  dup1\n  iszero\n  tag_1\n  jumpi\n  0x00\n  dup1\n  revert\ntag_1:\n  pop\n  dataSize(sub_0)\n  dup1\n  dataOffset(sub_0)\n  0x00\n  codecopy\n  0x00\n  return\nstop\n\nsub_0: assembly {\n        /* \"Learning Pth/WhileLoop.sol\":61:591  contract WhileLoopp {... */\n      mstore(0x40, 0x80)\n      callvalue\n      dup1\n      iszero\n      tag_1\n      jumpi\n      0x00\n      dup1\n      revert\n    tag_1:\n      pop\n      jumpi(tag_2, lt(calldatasize, 0x04))\n      shr(0xe0, calldataload(0x00))\n      dup1\n      0x4e70b1dc\n      eq\n      tag_3\n      jumpi\n      dup1\n      0x624749bf\n      eq\n      tag_4\n      jumpi\n      dup1\n      0x8381f58a\n      eq\n      tag_5\n      jumpi\n      dup1\n      0x95206396\n      eq\n      tag_6\n      jumpi\n      dup1\n      0xf7746e36\n      eq\n      tag_7\n      jumpi\n    tag_2:\n      0x00\n      dup1\n      revert\n        /* \"Learning Pth/WhileLoop.sol\":193:211  uint256 public num */\n    tag_3:\n      tag_8\n      tag_9\n      jump\t// in\n    tag_8:\n      mload(0x40)\n      tag_10\n      swap2\n      swap1\n      tag_11\n      jump\t// in\n    tag_10:\n      mload(0x40)\n      dup1\n      swap2\n      sub\n      swap1\n      return\n        /* \"Learning Pth/WhileLoop.sol\":251:428  function viewLoop() public returns(uint[] memory) {... */\n    tag_4:\n      tag_12\n      tag_13\n      jump\t// in\n    tag_12:\n      mload(0x40)\n      tag_14\n      swap2\n      swap1\n      tag_15\n      jump\t// in\n    tag_14:\n      mload(0x40)\n      dup1\n      swap2\n      sub\n      swap1\n      return\n        /* \"Learning Pth/WhileLoop.sol\":220:242  uint public number = 0 */\n    tag_5:\n      tag_16\n      tag_17\n      jump\t// in\n    tag_16:\n      mload(0x40)\n      tag_18\n      swap2\n      swap1\n      tag_11\n      jump\t// in\n    tag_18:\n      mload(0x40)\n      dup1\n      swap2\n      sub\n      swap1\n      return\n        /* \"Learning Pth/WhileLoop.sol\":436:588  function numberLoop() public returns(uint256) {... */\n    tag_6:\n      tag_19\n      tag_20\n      jump\t// in\n    tag_19:\n      mload(0x40)\n      tag_21\n      swap2\n      swap1\n      tag_11\n      jump\t// in\n    tag_21:\n      mload(0x40)\n      dup1\n      swap2\n      sub\n      swap1\n      return\n        /* \"Learning Pth/WhileLoop.sol\":163:184  uint256[] public cars */\n    tag_7:\n      tag_22\n      0x04\n      dup1\n      calldatasize\n      sub\n      dup2\n      add\n      swap1\n      tag_23\n      swap2\n      swap1\n      tag_24\n      jump\t// in\n    tag_23:\n      tag_25\n      jump\t// in\n    tag_22:\n      mload(0x40)\n      tag_26\n      swap2\n      swap1\n      tag_11\n      jump\t// in\n    tag_26:\n      mload(0x40)\n      dup1\n      swap2\n      sub\n      swap1\n      return\n        /* \"Learning Pth/WhileLoop.sol\":193:211  uint256 public num */\n    tag_9:\n      sload(0x01)\n      dup2\n      jump\t// out\n        /* \"Learning Pth/WhileLoop.sol\":251:428  function viewLoop() public returns(uint[] memory) {... */\n    tag_13:\n        /* \"Learning Pth/WhileLoop.sol\":286:299  uint[] memory */\n      0x60\n        /* \"Learning Pth/WhileLoop.sol\":312:399  while (num < 5) ... */\n    tag_28:\n        /* \"Learning Pth/WhileLoop.sol\":325:326  5 */\n      0x05\n        /* \"Learning Pth/WhileLoop.sol\":319:322  num */\n      sload(0x01)\n        /* \"Learning Pth/WhileLoop.sol\":319:326  num < 5 */\n      lt\n        /* \"Learning Pth/WhileLoop.sol\":312:399  while (num < 5) ... */\n      iszero\n      tag_29\n      jumpi\n        /* \"Learning Pth/WhileLoop.sol\":353:356  num */\n      0x01\n      0x00\n        /* \"Learning Pth/WhileLoop.sol\":353:358  num++ */\n      dup2\n      sload\n      dup1\n      swap3\n      swap2\n      swap1\n      tag_30\n      swap1\n      tag_31\n      jump\t// in\n    tag_30:\n      swap2\n      swap1\n      pop\n      sstore\n      pop\n        /* \"Learning Pth/WhileLoop.sol\":373:377  cars */\n      0x00\n        /* \"Learning Pth/WhileLoop.sol\":383:386  num */\n      sload(0x01)\n        /* \"Learning Pth/WhileLoop.sol\":373:387  cars.push(num) */\n      swap1\n      dup1\n      0x01\n      dup2\n      sload\n      add\n      dup1\n      dup3\n      sstore\n      dup1\n      swap2\n      pop\n      pop\n      0x01\n      swap1\n      sub\n      swap1\n      0x00\n      mstore\n      keccak256(0x00, 0x20)\n      add\n      0x00\n      swap1\n      swap2\n      swap1\n      swap2\n      swap1\n      swap2\n      pop\n      sstore\n        /* \"Learning Pth/WhileLoop.sol\":312:399  while (num < 5) ... */\n      jump(tag_28)\n    tag_29:\n        /* \"Learning Pth/WhileLoop.sol\":416:420  cars */\n      0x00\n        /* \"Learning Pth/WhileLoop.sol\":409:420  return cars */\n      dup1\n      sload\n      dup1\n      0x20\n      mul\n      0x20\n      add\n      mload(0x40)\n      swap1\n      dup2\n      add\n      0x40\n      mstore\n      dup1\n      swap3\n      swap2\n      swap1\n      dup2\n      dup2\n      mstore\n      0x20\n      add\n      dup3\n      dup1\n      sload\n      dup1\n      iszero\n      tag_33\n      jumpi\n      0x20\n      mul\n      dup3\n      add\n      swap2\n      swap1\n      0x00\n      mstore\n      keccak256(0x00, 0x20)\n      swap1\n    tag_34:\n      dup2\n      sload\n      dup2\n      mstore\n      0x20\n      add\n      swap1\n      0x01\n      add\n      swap1\n      dup1\n      dup4\n      gt\n      tag_34\n      jumpi\n    tag_33:\n      pop\n      pop\n      pop\n      pop\n      pop\n      swap1\n      pop\n        /* \"Learning Pth/WhileLoop.sol\":251:428  function viewLoop() public returns(uint[] memory) {... */\n      swap1\n      jump\t// out\n        /* \"Learning Pth/WhileLoop.sol\":220:242  uint public number = 0 */\n    tag_17:\n      sload(0x02)\n      dup2\n      jump\t// out\n        /* \"Learning Pth/WhileLoop.sol\":436:588  function numberLoop() public returns(uint256) {... */\n    tag_20:\n        /* \"Learning Pth/WhileLoop.sol\":473:480  uint256 */\n      0x00\n        /* \"Learning Pth/WhileLoop.sol\":493:557  while (number < 7) ... */\n    tag_36:\n        /* \"Learning Pth/WhileLoop.sol\":509:510  7 */\n      0x07\n        /* \"Learning Pth/WhileLoop.sol\":500:506  number */\n      sload(0x02)\n        /* \"Learning Pth/WhileLoop.sol\":500:510  number < 7 */\n      lt\n        /* \"Learning Pth/WhileLoop.sol\":493:557  while (number < 7) ... */\n      iszero\n      tag_37\n      jumpi\n        /* \"Learning Pth/WhileLoop.sol\":537:543  number */\n      0x02\n      0x00\n        /* \"Learning Pth/WhileLoop.sol\":537:545  number++ */\n      dup2\n      sload\n      dup1\n      swap3\n      swap2\n      swap1\n      tag_38\n      swap1\n      tag_31\n      jump\t// in\n    tag_38:\n      swap2\n      swap1\n      pop\n      sstore\n      pop\n        /* \"Learning Pth/WhileLoop.sol\":493:557  while (number < 7) ... */\n      jump(tag_36)\n    tag_37:\n        /* \"Learning Pth/WhileLoop.sol\":574:580  number */\n      sload(0x02)\n        /* \"Learning Pth/WhileLoop.sol\":567:580  return number */\n      swap1\n      pop\n        /* \"Learning Pth/WhileLoop.sol\":436:588  function numberLoop() public returns(uint256) {... */\n      swap1\n      jump\t// out\n        /* \"Learning Pth/WhileLoop.sol\":163:184  uint256[] public cars */\n    tag_25:\n      0x00\n      dup2\n      dup2\n      sload\n      dup2\n      lt\n      tag_39\n      jumpi\n      0x00\n      dup1\n      revert\n    tag_39:\n      swap1\n      0x00\n      mstore\n      keccak256(0x00, 0x20)\n      add\n      0x00\n      swap2\n      pop\n      swap1\n      pop\n      sload\n      dup2\n      jump\t// out\n        /* \"#utility.yul\":7:84   */\n    tag_41:\n        /* \"#utility.yul\":44:51   */\n      0x00\n        /* \"#utility.yul\":73:78   */\n      dup2\n        /* \"#utility.yul\":62:78   */\n      swap1\n      pop\n        /* \"#utility.yul\":7:84   */\n      swap2\n      swap1\n      pop\n      jump\t// out\n        /* \"#utility.yul\":90:208   */\n    tag_42:\n        /* \"#utility.yul\":177:201   */\n      tag_59\n        /* \"#utility.yul\":195:200   */\n      dup2\n        /* \"#utility.yul\":177:201   */\n      tag_41\n      jump\t// in\n    tag_59:\n        /* \"#utility.yul\":172:175   */\n      dup3\n        /* \"#utility.yul\":165:202   */\n      mstore\n        /* \"#utility.yul\":90:208   */\n      pop\n      pop\n      jump\t// out\n        /* \"#utility.yul\":214:436   */\n    tag_11:\n        /* \"#utility.yul\":307:311   */\n      0x00\n        /* \"#utility.yul\":345:347   */\n      0x20\n        /* \"#utility.yul\":334:343   */\n      dup3\n        /* \"#utility.yul\":330:348   */\n      add\n        /* \"#utility.yul\":322:348   */\n      swap1\n      pop\n        /* \"#utility.yul\":358:429   */\n      tag_61\n        /* \"#utility.yul\":426:427   */\n      0x00\n        /* \"#utility.yul\":415:424   */\n      dup4\n        /* \"#utility.yul\":411:428   */\n      add\n        /* \"#utility.yul\":402:408   */\n      dup5\n        /* \"#utility.yul\":358:429   */\n      tag_42\n      jump\t// in\n    tag_61:\n        /* \"#utility.yul\":214:436   */\n      swap3\n      swap2\n      pop\n      pop\n      jump\t// out\n        /* \"#utility.yul\":442:556   */\n    tag_43:\n        /* \"#utility.yul\":509:515   */\n      0x00\n        /* \"#utility.yul\":543:548   */\n      dup2\n        /* \"#utility.yul\":537:549   */\n      mload\n        /* \"#utility.yul\":527:549   */\n      swap1\n      pop\n        /* \"#utility.yul\":442:556   */\n      swap2\n      swap1\n      pop\n      jump\t// out\n        /* \"#utility.yul\":562:746   */\n    tag_44:\n        /* \"#utility.yul\":661:672   */\n      0x00\n        /* \"#utility.yul\":695:701   */\n      dup3\n        /* \"#utility.yul\":690:693   */\n      dup3\n        /* \"#utility.yul\":683:702   */\n      mstore\n        /* \"#utility.yul\":735:739   */\n      0x20\n        /* \"#utility.yul\":730:733   */\n      dup3\n        /* \"#utility.yul\":726:740   */\n      add\n        /* \"#utility.yul\":711:740   */\n      swap1\n      pop\n        /* \"#utility.yul\":562:746   */\n      swap3\n      swap2\n      pop\n      pop\n      jump\t// out\n        /* \"#utility.yul\":752:884   */\n    tag_45:\n        /* \"#utility.yul\":819:823   */\n      0x00\n        /* \"#utility.yul\":842:845   */\n      dup2\n        /* \"#utility.yul\":834:845   */\n      swap1\n      pop\n        /* \"#utility.yul\":872:876   */\n      0x20\n        /* \"#utility.yul\":867:870   */\n      dup3\n        /* \"#utility.yul\":863:877   */\n      add\n        /* \"#utility.yul\":855:877   */\n      swap1\n      pop\n        /* \"#utility.yul\":752:884   */\n      swap2\n      swap1\n      pop\n      jump\t// out\n        /* \"#utility.yul\":890:998   */\n    tag_46:\n        /* \"#utility.yul\":967:991   */\n      tag_66\n        /* \"#utility.yul\":985:990   */\n      dup2\n        /* \"#utility.yul\":967:991   */\n      tag_41\n      jump\t// in\n    tag_66:\n        /* \"#utility.yul\":962:965   */\n      dup3\n        /* \"#utility.yul\":955:992   */\n      mstore\n        /* \"#utility.yul\":890:998   */\n      pop\n      pop\n      jump\t// out\n        /* \"#utility.yul\":1004:1183   */\n    tag_47:\n        /* \"#utility.yul\":1073:1083   */\n      0x00\n        /* \"#utility.yul\":1094:1140   */\n      tag_68\n        /* \"#utility.yul\":1136:1139   */\n      dup4\n        /* \"#utility.yul\":1128:1134   */\n      dup4\n        /* \"#utility.yul\":1094:1140   */\n      tag_46\n      jump\t// in\n    tag_68:\n        /* \"#utility.yul\":1172:1176   */\n      0x20\n        /* \"#utility.yul\":1167:1170   */\n      dup4\n        /* \"#utility.yul\":1163:1177   */\n      add\n        /* \"#utility.yul\":1149:1177   */\n      swap1\n      pop\n        /* \"#utility.yul\":1004:1183   */\n      swap3\n      swap2\n      pop\n      pop\n      jump\t// out\n        /* \"#utility.yul\":1189:1302   */\n    tag_48:\n        /* \"#utility.yul\":1259:1263   */\n      0x00\n        /* \"#utility.yul\":1291:1295   */\n      0x20\n        /* \"#utility.yul\":1286:1289   */\n      dup3\n        /* \"#utility.yul\":1282:1296   */\n      add\n        /* \"#utility.yul\":1274:1296   */\n      swap1\n      pop\n        /* \"#utility.yul\":1189:1302   */\n      swap2\n      swap1\n      pop\n      jump\t// out\n        /* \"#utility.yul\":1338:2070   */\n    tag_49:\n        /* \"#utility.yul\":1457:1460   */\n      0x00\n        /* \"#utility.yul\":1486:1540   */\n      tag_71\n        /* \"#utility.yul\":1534:1539   */\n      dup3\n        /* \"#utility.yul\":1486:1540   */\n      tag_43\n      jump\t// in\n    tag_71:\n        /* \"#utility.yul\":1556:1642   */\n      tag_72\n        /* \"#utility.yul\":1635:1641   */\n      dup2\n        /* \"#utility.yul\":1630:1633   */\n      dup6\n        /* \"#utility.yul\":1556:1642   */\n      tag_44\n      jump\t// in\n    tag_72:\n        /* \"#utility.yul\":1549:1642   */\n      swap4\n      pop\n        /* \"#utility.yul\":1666:1722   */\n      tag_73\n        /* \"#utility.yul\":1716:1721   */\n      dup4\n        /* \"#utility.yul\":1666:1722   */\n      tag_45\n      jump\t// in\n    tag_73:\n        /* \"#utility.yul\":1745:1752   */\n      dup1\n        /* \"#utility.yul\":1776:1777   */\n      0x00\n        /* \"#utility.yul\":1761:2045   */\n    tag_74:\n        /* \"#utility.yul\":1786:1792   */\n      dup4\n        /* \"#utility.yul\":1783:1784   */\n      dup2\n        /* \"#utility.yul\":1780:1793   */\n      lt\n        /* \"#utility.yul\":1761:2045   */\n      iszero\n      tag_76\n      jumpi\n        /* \"#utility.yul\":1862:1868   */\n      dup2\n        /* \"#utility.yul\":1856:1869   */\n      mload\n        /* \"#utility.yul\":1889:1952   */\n      tag_77\n        /* \"#utility.yul\":1948:1951   */\n      dup9\n        /* \"#utility.yul\":1933:1946   */\n      dup3\n        /* \"#utility.yul\":1889:1952   */\n      tag_47\n      jump\t// in\n    tag_77:\n        /* \"#utility.yul\":1882:1952   */\n      swap8\n      pop\n        /* \"#utility.yul\":1975:2035   */\n      tag_78\n        /* \"#utility.yul\":2028:2034   */\n      dup4\n        /* \"#utility.yul\":1975:2035   */\n      tag_48\n      jump\t// in\n    tag_78:\n        /* \"#utility.yul\":1965:2035   */\n      swap3\n      pop\n        /* \"#utility.yul\":1821:2045   */\n      pop\n        /* \"#utility.yul\":1808:1809   */\n      0x01\n        /* \"#utility.yul\":1805:1806   */\n      dup2\n        /* \"#utility.yul\":1801:1810   */\n      add\n        /* \"#utility.yul\":1796:1810   */\n      swap1\n      pop\n        /* \"#utility.yul\":1761:2045   */\n      jump(tag_74)\n    tag_76:\n        /* \"#utility.yul\":1765:1779   */\n      pop\n        /* \"#utility.yul\":2061:2064   */\n      dup6\n        /* \"#utility.yul\":2054:2064   */\n      swap4\n      pop\n        /* \"#utility.yul\":1462:2070   */\n      pop\n      pop\n      pop\n        /* \"#utility.yul\":1338:2070   */\n      swap3\n      swap2\n      pop\n      pop\n      jump\t// out\n        /* \"#utility.yul\":2076:2449   */\n    tag_15:\n        /* \"#utility.yul\":2219:2223   */\n      0x00\n        /* \"#utility.yul\":2257:2259   */\n      0x20\n        /* \"#utility.yul\":2246:2255   */\n      dup3\n        /* \"#utility.yul\":2242:2260   */\n      add\n        /* \"#utility.yul\":2234:2260   */\n      swap1\n      pop\n        /* \"#utility.yul\":2306:2315   */\n      dup2\n        /* \"#utility.yul\":2300:2304   */\n      dup2\n        /* \"#utility.yul\":2296:2316   */\n      sub\n        /* \"#utility.yul\":2292:2293   */\n      0x00\n        /* \"#utility.yul\":2281:2290   */\n      dup4\n        /* \"#utility.yul\":2277:2294   */\n      add\n        /* \"#utility.yul\":2270:2317   */\n      mstore\n        /* \"#utility.yul\":2334:2442   */\n      tag_80\n        /* \"#utility.yul\":2437:2441   */\n      dup2\n        /* \"#utility.yul\":2428:2434   */\n      dup5\n        /* \"#utility.yul\":2334:2442   */\n      tag_49\n      jump\t// in\n    tag_80:\n        /* \"#utility.yul\":2326:2442   */\n      swap1\n      pop\n        /* \"#utility.yul\":2076:2449   */\n      swap3\n      swap2\n      pop\n      pop\n      jump\t// out\n        /* \"#utility.yul\":2536:2653   */\n    tag_51:\n        /* \"#utility.yul\":2645:2646   */\n      0x00\n        /* \"#utility.yul\":2642:2643   */\n      dup1\n        /* \"#utility.yul\":2635:2647   */\n      revert\n        /* \"#utility.yul\":2782:2904   */\n    tag_53:\n        /* \"#utility.yul\":2855:2879   */\n      tag_85\n        /* \"#utility.yul\":2873:2878   */\n      dup2\n        /* \"#utility.yul\":2855:2879   */\n      tag_41\n      jump\t// in\n    tag_85:\n        /* \"#utility.yul\":2848:2853   */\n      dup2\n        /* \"#utility.yul\":2845:2880   */\n      eq\n        /* \"#utility.yul\":2835:2898   */\n      tag_86\n      jumpi\n        /* \"#utility.yul\":2894:2895   */\n      0x00\n        /* \"#utility.yul\":2891:2892   */\n      dup1\n        /* \"#utility.yul\":2884:2896   */\n      revert\n        /* \"#utility.yul\":2835:2898   */\n    tag_86:\n        /* \"#utility.yul\":2782:2904   */\n      pop\n      jump\t// out\n        /* \"#utility.yul\":2910:3049   */\n    tag_54:\n        /* \"#utility.yul\":2956:2961   */\n      0x00\n        /* \"#utility.yul\":2994:3000   */\n      dup2\n        /* \"#utility.yul\":2981:3001   */\n      calldataload\n        /* \"#utility.yul\":2972:3001   */\n      swap1\n      pop\n        /* \"#utility.yul\":3010:3043   */\n      tag_88\n        /* \"#utility.yul\":3037:3042   */\n      dup2\n        /* \"#utility.yul\":3010:3043   */\n      tag_53\n      jump\t// in\n    tag_88:\n        /* \"#utility.yul\":2910:3049   */\n      swap3\n      swap2\n      pop\n      pop\n      jump\t// out\n        /* \"#utility.yul\":3055:3384   */\n    tag_24:\n        /* \"#utility.yul\":3114:3120   */\n      0x00\n        /* \"#utility.yul\":3163:3165   */\n      0x20\n        /* \"#utility.yul\":3151:3160   */\n      dup3\n        /* \"#utility.yul\":3142:3149   */\n      dup5\n        /* \"#utility.yul\":3138:3161   */\n      sub\n        /* \"#utility.yul\":3134:3166   */\n      slt\n        /* \"#utility.yul\":3131:3250   */\n      iszero\n      tag_90\n      jumpi\n        /* \"#utility.yul\":3169:3248   */\n      tag_91\n      tag_51\n      jump\t// in\n    tag_91:\n        /* \"#utility.yul\":3131:3250   */\n    tag_90:\n        /* \"#utility.yul\":3289:3290   */\n      0x00\n        /* \"#utility.yul\":3314:3367   */\n      tag_92\n        /* \"#utility.yul\":3359:3366   */\n      dup5\n        /* \"#utility.yul\":3350:3356   */\n      dup3\n        /* \"#utility.yul\":3339:3348   */\n      dup6\n        /* \"#utility.yul\":3335:3357   */\n      add\n        /* \"#utility.yul\":3314:3367   */\n      tag_54\n      jump\t// in\n    tag_92:\n        /* \"#utility.yul\":3304:3367   */\n      swap2\n      pop\n        /* \"#utility.yul\":3260:3377   */\n      pop\n        /* \"#utility.yul\":3055:3384   */\n      swap3\n      swap2\n      pop\n      pop\n      jump\t// out\n        /* \"#utility.yul\":3390:3570   */\n    tag_55:\n        /* \"#utility.yul\":3438:3515   */\n      0x4e487b7100000000000000000000000000000000000000000000000000000000\n        /* \"#utility.yul\":3435:3436   */\n      0x00\n        /* \"#utility.yul\":3428:3516   */\n      mstore\n        /* \"#utility.yul\":3535:3539   */\n      0x11\n        /* \"#utility.yul\":3532:3533   */\n      0x04\n        /* \"#utility.yul\":3525:3540   */\n      mstore\n        /* \"#utility.yul\":3559:3563   */\n      0x24\n        /* \"#utility.yul\":3556:3557   */\n      0x00\n        /* \"#utility.yul\":3549:3564   */\n      revert\n        /* \"#utility.yul\":3576:3809   */\n    tag_31:\n        /* \"#utility.yul\":3615:3618   */\n      0x00\n        /* \"#utility.yul\":3638:3662   */\n      tag_95\n        /* \"#utility.yul\":3656:3661   */\n      dup3\n        /* \"#utility.yul\":3638:3662   */\n      tag_41\n      jump\t// in\n    tag_95:\n        /* \"#utility.yul\":3629:3662   */\n      swap2\n      pop\n        /* \"#utility.yul\":3684:3750   */\n      0xffffffffffffffffffffffffffffffffffffffffffffffffffffffffffffffff\n        /* \"#utility.yul\":3677:3682   */\n      dup3\n        /* \"#utility.yul\":3674:3751   */\n      sub\n        /* \"#utility.yul\":3671:3774   */\n      tag_96\n      jumpi\n        /* \"#utility.yul\":3754:3772   */\n      tag_97\n      tag_55\n      jump\t// in\n    tag_97:\n        /* \"#utility.yul\":3671:3774   */\n    tag_96:\n        /* \"#utility.yul\":3801:3802   */\n      0x01\n        /* \"#utility.yul\":3794:3799   */\n      dup3\n        /* \"#utility.yul\":3790:3803   */\n      add\n        /* \"#utility.yul\":3783:3803   */\n      swap1\n      pop\n        /* \"#utility.yul\":3576:3809   */\n      swap2\n      swap1\n      pop\n      jump\t// out\n\n    auxdata: 0xa264697066735822122040f0af0e269c4323e83ba767d79f7093670e4651b6c8f65e39cb713a2e8f8bb764736f6c634300081a0033\n}\n",
				"bytecode": {
					"linkReferences": {},
					"object": "60806040525f6002553480156012575f80fd5b5061040c806100205f395ff3fe608060405234801561000f575f80fd5b5060043610610055575f3560e01c80634e70b1dc14610059578063624749bf146100775780638381f58a1461009557806395206396146100b3578063f7746e36146100d1575b5f80fd5b610061610101565b60405161006e9190610219565b60405180910390f35b61007f610107565b60405161008c91906102e9565b60405180910390f35b61009d6101ab565b6040516100aa9190610219565b60405180910390f35b6100bb6101b1565b6040516100c89190610219565b60405180910390f35b6100eb60048036038101906100e69190610337565b6101e2565b6040516100f89190610219565b60405180910390f35b60015481565b60605b600560015410156101585760015f8154809291906101279061038f565b91905055505f600154908060018154018082558091505060019003905f5260205f20015f909190919091505561010a565b5f8054806020026020016040519081016040528092919081815260200182805480156101a157602002820191905f5260205f20905b81548152602001906001019080831161018d575b5050505050905090565b60025481565b5f5b600760025410156101da5760025f8154809291906101d09061038f565b91905055506101b3565b600254905090565b5f81815481106101f0575f80fd5b905f5260205f20015f915090505481565b5f819050919050565b61021381610201565b82525050565b5f60208201905061022c5f83018461020a565b92915050565b5f81519050919050565b5f82825260208201905092915050565b5f819050602082019050919050565b61026481610201565b82525050565b5f610275838361025b565b60208301905092915050565b5f602082019050919050565b5f61029782610232565b6102a1818561023c565b93506102ac8361024c565b805f5b838110156102dc5781516102c3888261026a565b97506102ce83610281565b9250506001810190506102af565b5085935050505092915050565b5f6020820190508181035f830152610301818461028d565b905092915050565b5f80fd5b61031681610201565b8114610320575f80fd5b50565b5f813590506103318161030d565b92915050565b5f6020828403121561034c5761034b610309565b5b5f61035984828501610323565b91505092915050565b7f4e487b71000000000000000000000000000000000000000000000000000000005f52601160045260245ffd5b5f61039982610201565b91507fffffffffffffffffffffffffffffffffffffffffffffffffffffffffffffffff82036103cb576103ca610362565b5b60018201905091905056fea264697066735822122040f0af0e269c4323e83ba767d79f7093670e4651b6c8f65e39cb713a2e8f8bb764736f6c634300081a0033",
					"opcodes": "PUSH1 0x80 PUSH1 0x40 MSTORE PUSH0 PUSH1 0x2 SSTORE CALLVALUE DUP1 ISZERO PUSH1 0x12 JUMPI PUSH0 DUP1 REVERT JUMPDEST POP PUSH2 0x40C DUP1 PUSH2 0x20 PUSH0 CODECOPY PUSH0 RETURN INVALID PUSH1 0x80 PUSH1 0x40 MSTORE CALLVALUE DUP1 ISZERO PUSH2 0xF JUMPI PUSH0 DUP1 REVERT JUMPDEST POP PUSH1 0x4 CALLDATASIZE LT PUSH2 0x55 JUMPI PUSH0 CALLDATALOAD PUSH1 0xE0 SHR DUP1 PUSH4 0x4E70B1DC EQ PUSH2 0x59 JUMPI DUP1 PUSH4 0x624749BF EQ PUSH2 0x77 JUMPI DUP1 PUSH4 0x8381F58A EQ PUSH2 0x95 JUMPI DUP1 PUSH4 0x95206396 EQ PUSH2 0xB3 JUMPI DUP1 PUSH4 0xF7746E36 EQ PUSH2 0xD1 JUMPI JUMPDEST PUSH0 DUP1 REVERT JUMPDEST PUSH2 0x61 PUSH2 0x101 JUMP JUMPDEST PUSH1 0x40 MLOAD PUSH2 0x6E SWAP2 SWAP1 PUSH2 0x219 JUMP JUMPDEST PUSH1 0x40 MLOAD DUP1 SWAP2 SUB SWAP1 RETURN JUMPDEST PUSH2 0x7F PUSH2 0x107 JUMP JUMPDEST PUSH1 0x40 MLOAD PUSH2 0x8C SWAP2 SWAP1 PUSH2 0x2E9 JUMP JUMPDEST PUSH1 0x40 MLOAD DUP1 SWAP2 SUB SWAP1 RETURN JUMPDEST PUSH2 0x9D PUSH2 0x1AB JUMP JUMPDEST PUSH1 0x40 MLOAD PUSH2 0xAA SWAP2 SWAP1 PUSH2 0x219 JUMP JUMPDEST PUSH1 0x40 MLOAD DUP1 SWAP2 SUB SWAP1 RETURN JUMPDEST PUSH2 0xBB PUSH2 0x1B1 JUMP JUMPDEST PUSH1 0x40 MLOAD PUSH2 0xC8 SWAP2 SWAP1 PUSH2 0x219 JUMP JUMPDEST PUSH1 0x40 MLOAD DUP1 SWAP2 SUB SWAP1 RETURN JUMPDEST PUSH2 0xEB PUSH1 0x4 DUP1 CALLDATASIZE SUB DUP2 ADD SWAP1 PUSH2 0xE6 SWAP2 SWAP1 PUSH2 0x337 JUMP JUMPDEST PUSH2 0x1E2 JUMP JUMPDEST PUSH1 0x40 MLOAD PUSH2 0xF8 SWAP2 SWAP1 PUSH2 0x219 JUMP JUMPDEST PUSH1 0x40 MLOAD DUP1 SWAP2 SUB SWAP1 RETURN JUMPDEST PUSH1 0x1 SLOAD DUP2 JUMP JUMPDEST PUSH1 0x60 JUMPDEST PUSH1 0x5 PUSH1 0x1 SLOAD LT ISZERO PUSH2 0x158 JUMPI PUSH1 0x1 PUSH0 DUP2 SLOAD DUP1 SWAP3 SWAP2 SWAP1 PUSH2 0x127 SWAP1 PUSH2 0x38F JUMP JUMPDEST SWAP2 SWAP1 POP SSTORE POP PUSH0 PUSH1 0x1 SLOAD SWAP1 DUP1 PUSH1 0x1 DUP2 SLOAD ADD DUP1 DUP3 SSTORE DUP1 SWAP2 POP POP PUSH1 0x1 SWAP1 SUB SWAP1 PUSH0 MSTORE PUSH1 0x20 PUSH0 KECCAK256 ADD PUSH0 SWAP1 SWAP2 SWAP1 SWAP2 SWAP1 SWAP2 POP SSTORE PUSH2 0x10A JUMP JUMPDEST PUSH0 DUP1 SLOAD DUP1 PUSH1 0x20 MUL PUSH1 0x20 ADD PUSH1 0x40 MLOAD SWAP1 DUP2 ADD PUSH1 0x40 MSTORE DUP1 SWAP3 SWAP2 SWAP1 DUP2 DUP2 MSTORE PUSH1 0x20 ADD DUP3 DUP1 SLOAD DUP1 ISZERO PUSH2 0x1A1 JUMPI PUSH1 0x20 MUL DUP3 ADD SWAP2 SWAP1 PUSH0 MSTORE PUSH1 0x20 PUSH0 KECCAK256 SWAP1 JUMPDEST DUP2 SLOAD DUP2 MSTORE PUSH1 0x20 ADD SWAP1 PUSH1 0x1 ADD SWAP1 DUP1 DUP4 GT PUSH2 0x18D JUMPI JUMPDEST POP POP POP POP POP SWAP1 POP SWAP1 JUMP JUMPDEST PUSH1 0x2 SLOAD DUP2 JUMP JUMPDEST PUSH0 JUMPDEST PUSH1 0x7 PUSH1 0x2 SLOAD LT ISZERO PUSH2 0x1DA JUMPI PUSH1 0x2 PUSH0 DUP2 SLOAD DUP1 SWAP3 SWAP2 SWAP1 PUSH2 0x1D0 SWAP1 PUSH2 0x38F JUMP JUMPDEST SWAP2 SWAP1 POP SSTORE POP PUSH2 0x1B3 JUMP JUMPDEST PUSH1 0x2 SLOAD SWAP1 POP SWAP1 JUMP JUMPDEST PUSH0 DUP2 DUP2 SLOAD DUP2 LT PUSH2 0x1F0 JUMPI PUSH0 DUP1 REVERT JUMPDEST SWAP1 PUSH0 MSTORE PUSH1 0x20 PUSH0 KECCAK256 ADD PUSH0 SWAP2 POP SWAP1 POP SLOAD DUP2 JUMP JUMPDEST PUSH0 DUP2 SWAP1 POP SWAP2 SWAP1 POP JUMP JUMPDEST PUSH2 0x213 DUP2 PUSH2 0x201 JUMP JUMPDEST DUP3 MSTORE POP POP JUMP JUMPDEST PUSH0 PUSH1 0x20 DUP3 ADD SWAP1 POP PUSH2 0x22C PUSH0 DUP4 ADD DUP5 PUSH2 0x20A JUMP JUMPDEST SWAP3 SWAP2 POP POP JUMP JUMPDEST PUSH0 DUP2 MLOAD SWAP1 POP SWAP2 SWAP1 POP JUMP JUMPDEST PUSH0 DUP3 DUP3 MSTORE PUSH1 0x20 DUP3 ADD SWAP1 POP SWAP3 SWAP2 POP POP JUMP JUMPDEST PUSH0 DUP2 SWAP1 POP PUSH1 0x20 DUP3 ADD SWAP1 POP SWAP2 SWAP1 POP JUMP JUMPDEST PUSH2 0x264 DUP2 PUSH2 0x201 JUMP JUMPDEST DUP3 MSTORE POP POP JUMP JUMPDEST PUSH0 PUSH2 0x275 DUP4 DUP4 PUSH2 0x25B JUMP JUMPDEST PUSH1 0x20 DUP4 ADD SWAP1 POP SWAP3 SWAP2 POP POP JUMP JUMPDEST PUSH0 PUSH1 0x20 DUP3 ADD SWAP1 POP SWAP2 SWAP1 POP JUMP JUMPDEST PUSH0 PUSH2 0x297 DUP3 PUSH2 0x232 JUMP JUMPDEST PUSH2 0x2A1 DUP2 DUP6 PUSH2 0x23C JUMP JUMPDEST SWAP4 POP PUSH2 0x2AC DUP4 PUSH2 0x24C JUMP JUMPDEST DUP1 PUSH0 JUMPDEST DUP4 DUP2 LT ISZERO PUSH2 0x2DC JUMPI DUP2 MLOAD PUSH2 0x2C3 DUP9 DUP3 PUSH2 0x26A JUMP JUMPDEST SWAP8 POP PUSH2 0x2CE DUP4 PUSH2 0x281 JUMP JUMPDEST SWAP3 POP POP PUSH1 0x1 DUP2 ADD SWAP1 POP PUSH2 0x2AF JUMP JUMPDEST POP DUP6 SWAP4 POP POP POP POP SWAP3 SWAP2 POP POP JUMP JUMPDEST PUSH0 PUSH1 0x20 DUP3 ADD SWAP1 POP DUP2 DUP2 SUB PUSH0 DUP4 ADD MSTORE PUSH2 0x301 DUP2 DUP5 PUSH2 0x28D JUMP JUMPDEST SWAP1 POP SWAP3 SWAP2 POP POP JUMP JUMPDEST PUSH0 DUP1 REVERT JUMPDEST PUSH2 0x316 DUP2 PUSH2 0x201 JUMP JUMPDEST DUP2 EQ PUSH2 0x320 JUMPI PUSH0 DUP1 REVERT JUMPDEST POP JUMP JUMPDEST PUSH0 DUP2 CALLDATALOAD SWAP1 POP PUSH2 0x331 DUP2 PUSH2 0x30D JUMP JUMPDEST SWAP3 SWAP2 POP POP JUMP JUMPDEST PUSH0 PUSH1 0x20 DUP3 DUP5 SUB SLT ISZERO PUSH2 0x34C JUMPI PUSH2 0x34B PUSH2 0x309 JUMP JUMPDEST JUMPDEST PUSH0 PUSH2 0x359 DUP5 DUP3 DUP6 ADD PUSH2 0x323 JUMP JUMPDEST SWAP2 POP POP SWAP3 SWAP2 POP POP JUMP JUMPDEST PUSH32 0x4E487B7100000000000000000000000000000000000000000000000000000000 PUSH0 MSTORE PUSH1 0x11 PUSH1 0x4 MSTORE PUSH1 0x24 PUSH0 REVERT JUMPDEST PUSH0 PUSH2 0x399 DUP3 PUSH2 0x201 JUMP JUMPDEST SWAP2 POP PUSH32 0xFFFFFFFFFFFFFFFFFFFFFFFFFFFFFFFFFFFFFFFFFFFFFFFFFFFFFFFFFFFFFFFF DUP3 SUB PUSH2 0x3CB JUMPI PUSH2 0x3CA PUSH2 0x362 JUMP JUMPDEST JUMPDEST PUSH1 0x1 DUP3 ADD SWAP1 POP SWAP2 SWAP1 POP JUMP INVALID LOG2 PUSH5 0x6970667358 0x22 SLT KECCAK256 BLOCKHASH CREATE 0xAF 0xE 0x26 SWAP13 NUMBER 0x23 0xE8 EXTCODESIZE 0xA7 PUSH8 0xD79F7093670E4651 0xB6 0xC8 0xF6 MCOPY CODECOPY 0xCB PUSH18 0x3A2E8F8BB764736F6C634300081A00330000 "
				},
				"gasEstimates": {
					"creation": {
						"codeDepositCost": "207200",
						"executionCost": "5254",
						"totalCost": "212454"
					},
					"external": {
						"cars(uint256)": "infinite",
						"num()": "2403",
						"number()": "2447",
						"numberLoop()": "infinite",
						"viewLoop()": "infinite"
					}
				},
				"methodIdentifiers": {
					"cars(uint256)": "f7746e36",
					"num()": "4e70b1dc",
					"number()": "8381f58a",
					"numberLoop()": "95206396",
					"viewLoop()": "624749bf"
				}
			},
			"storageLayout": {
				"storage": [
					{
						"astId": 4,
						"contract": "Learning Pth/WhileLoop.sol:WhileLoopp",
						"label": "cars",
						"offset": 0,
						"slot": "0",
						"type": "t_array(t_uint256)dyn_storage"
					},
					{
						"astId": 6,
						"contract": "Learning Pth/WhileLoop.sol:WhileLoopp",
						"label": "num",
						"offset": 0,
						"slot": "1",
						"type": "t_uint256"
					},
					{
						"astId": 9,
						"contract": "Learning Pth/WhileLoop.sol:WhileLoopp",
						"label": "number",
						"offset": 0,
						"slot": "2",
						"type": "t_uint256"
					}
				],
				"types": {
					"t_array(t_uint256)dyn_storage": {
						"base": "t_uint256",
						"encoding": "dynamic_array",
						"label": "uint256[]",
						"numberOfBytes": "32"
					},
					"t_uint256": {
						"encoding": "inplace",
						"label": "uint256",
						"numberOfBytes": "32"
					}
				}
			},
			"userdoc": {
				"kind": "user",
				"methods": {},
				"version": 1
			}
		}
	}
}