{
	"Learning Pth/ProjectMedicalEx.sol": {
		"MedicalData": {
			"abi": [
				{
					"inputs": [
						{
							"internalType": "string",
							"name": "_name",
							"type": "string"
						},
						{
							"internalType": "string",
							"name": "_bloodType",
							"type": "string"
						},
						{
							"internalType": "uint256",
							"name": "_age",
							"type": "uint256"
						},
						{
							"internalType": "string[]",
							"name": "_symptoms",
							"type": "string[]"
						},
						{
							"internalType": "string[]",
							"name": "_drugs",
							"type": "string[]"
						}
					],
					"name": "addPatient",
					"outputs": [],
					"stateMutability": "nonpayable",
					"type": "function"
				},
				{
					"inputs": [
						{
							"internalType": "address",
							"name": "_addr",
							"type": "address"
						}
					],
					"name": "getPatientInfo",
					"outputs": [
						{
							"internalType": "string",
							"name": "",
							"type": "string"
						},
						{
							"internalType": "string",
							"name": "",
							"type": "string"
						},
						{
							"internalType": "uint256",
							"name": "",
							"type": "uint256"
						},
						{
							"internalType": "string[]",
							"name": "",
							"type": "string[]"
						},
						{
							"internalType": "string[]",
							"name": "",
							"type": "string[]"
						}
					],
					"stateMutability": "view",
					"type": "function"
				},
				{
					"inputs": [
						{
							"internalType": "address",
							"name": "",
							"type": "address"
						}
					],
					"name": "patients",
					"outputs": [
						{
							"internalType": "string",
							"name": "name",
							"type": "string"
						},
						{
							"internalType": "string",
							"name": "bloodType",
							"type": "string"
						},
						{
							"internalType": "uint256",
							"name": "age",
							"type": "uint256"
						}
					],
					"stateMutability": "view",
					"type": "function"
				},
				{
					"inputs": [
						{
							"internalType": "string[]",
							"name": "_symptoms",
							"type": "string[]"
						},
						{
							"internalType": "string[]",
							"name": "_drugs",
							"type": "string[]"
						}
					],
					"name": "updatePatient",
					"outputs": [],
					"stateMutability": "nonpayable",
					"type": "function"
				}
			],
			"devdoc": {
				"kind": "dev",
				"methods": {},
				"version": 1
			},
			"evm": {
				"assembly": "    /* \"Learning Pth/ProjectMedicalEx.sol\":61:1465  contract MedicalData {... */\n  mstore(0x40, 0x80)\n  callvalue\n  dup1\n  iszero\n  tag_1\n  jumpi\n  0x00\n  dup1\n  revert\ntag_1:\n  pop\n  dataSize(sub_0)\n  dup1\n  dataOffset(sub_0)\n  0x00\n  codecopy\n  0x00\n  return\nstop\n\nsub_0: assembly {\n        /* \"Learning Pth/ProjectMedicalEx.sol\":61:1465  contract MedicalData {... */\n      mstore(0x40, 0x80)\n      callvalue\n      dup1\n      iszero\n      tag_1\n      jumpi\n      0x00\n      dup1\n      revert\n    tag_1:\n      pop\n      jumpi(tag_2, lt(calldatasize, 0x04))\n      shr(0xe0, calldataload(0x00))\n      dup1\n      0x0869cfbc\n      eq\n      tag_3\n      jumpi\n      dup1\n      0x4b426178\n      eq\n      tag_4\n      jumpi\n      dup1\n      0x67cafcb8\n      eq\n      tag_5\n      jumpi\n      dup1\n      0x7428c9e6\n      eq\n      tag_6\n      jumpi\n    tag_2:\n      0x00\n      dup1\n      revert\n        /* \"Learning Pth/ProjectMedicalEx.sol\":323:367  mapping (address => Patient) public patients */\n    tag_3:\n      tag_7\n      0x04\n      dup1\n      calldatasize\n      sub\n      dup2\n      add\n      swap1\n      tag_8\n      swap2\n      swap1\n      tag_9\n      jump\t// in\n    tag_8:\n      tag_10\n      jump\t// in\n    tag_7:\n      mload(0x40)\n      tag_11\n      swap4\n      swap3\n      swap2\n      swap1\n      tag_12\n      jump\t// in\n    tag_11:\n      mload(0x40)\n      dup1\n      swap2\n      sub\n      swap1\n      return\n        /* \"Learning Pth/ProjectMedicalEx.sol\":1178:1462  function getPatientInfo(address _addr) public view returns(string memory, string memory, uint, string[] memory, string[] memory) {... */\n    tag_4:\n      tag_13\n      0x04\n      dup1\n      calldatasize\n      sub\n      dup2\n      add\n      swap1\n      tag_14\n      swap2\n      swap1\n      tag_9\n      jump\t// in\n    tag_14:\n      tag_15\n      jump\t// in\n    tag_13:\n      mload(0x40)\n      tag_16\n      swap6\n      swap5\n      swap4\n      swap3\n      swap2\n      swap1\n      tag_17\n      jump\t// in\n    tag_16:\n      mload(0x40)\n      dup1\n      swap2\n      sub\n      swap1\n      return\n        /* \"Learning Pth/ProjectMedicalEx.sol\":424:829  function addPatient(string memory _name, string memory _bloodType, uint _age, ... */\n    tag_5:\n      tag_18\n      0x04\n      dup1\n      calldatasize\n      sub\n      dup2\n      add\n      swap1\n      tag_19\n      swap2\n      swap1\n      tag_20\n      jump\t// in\n    tag_19:\n      tag_21\n      jump\t// in\n    tag_18:\n      stop\n        /* \"Learning Pth/ProjectMedicalEx.sol\":890:1108  function updatePatient(string[] memory _symptoms, string[] memory _drugs) public {... */\n    tag_6:\n      tag_22\n      0x04\n      dup1\n      calldatasize\n      sub\n      dup2\n      add\n      swap1\n      tag_23\n      swap2\n      swap1\n      tag_24\n      jump\t// in\n    tag_23:\n      tag_25\n      jump\t// in\n    tag_22:\n      stop\n        /* \"Learning Pth/ProjectMedicalEx.sol\":323:367  mapping (address => Patient) public patients */\n    tag_10:\n      mstore(0x20, 0x00)\n      dup1\n      0x00\n      mstore\n      keccak256(0x00, 0x40)\n      0x00\n      swap2\n      pop\n      swap1\n      pop\n      dup1\n      0x00\n      add\n      dup1\n      sload\n      tag_26\n      swap1\n      tag_27\n      jump\t// in\n    tag_26:\n      dup1\n      0x1f\n      add\n      0x20\n      dup1\n      swap2\n      div\n      mul\n      0x20\n      add\n      mload(0x40)\n      swap1\n      dup2\n      add\n      0x40\n      mstore\n      dup1\n      swap3\n      swap2\n      swap1\n      dup2\n      dup2\n      mstore\n      0x20\n      add\n      dup3\n      dup1\n      sload\n      tag_28\n      swap1\n      tag_27\n      jump\t// in\n    tag_28:\n      dup1\n      iszero\n      tag_29\n      jumpi\n      dup1\n      0x1f\n      lt\n      tag_30\n      jumpi\n      0x0100\n      dup1\n      dup4\n      sload\n      div\n      mul\n      dup4\n      mstore\n      swap2\n      0x20\n      add\n      swap2\n      jump(tag_29)\n    tag_30:\n      dup3\n      add\n      swap2\n      swap1\n      0x00\n      mstore\n      keccak256(0x00, 0x20)\n      swap1\n    tag_31:\n      dup2\n      sload\n      dup2\n      mstore\n      swap1\n      0x01\n      add\n      swap1\n      0x20\n      add\n      dup1\n      dup4\n      gt\n      tag_31\n      jumpi\n      dup3\n      swap1\n      sub\n      0x1f\n      and\n      dup3\n      add\n      swap2\n    tag_29:\n      pop\n      pop\n      pop\n      pop\n      pop\n      swap1\n      dup1\n      0x01\n      add\n      dup1\n      sload\n      tag_32\n      swap1\n      tag_27\n      jump\t// in\n    tag_32:\n      dup1\n      0x1f\n      add\n      0x20\n      dup1\n      swap2\n      div\n      mul\n      0x20\n      add\n      mload(0x40)\n      swap1\n      dup2\n      add\n      0x40\n      mstore\n      dup1\n      swap3\n      swap2\n      swap1\n      dup2\n      dup2\n      mstore\n      0x20\n      add\n      dup3\n      dup1\n      sload\n      tag_33\n      swap1\n      tag_27\n      jump\t// in\n    tag_33:\n      dup1\n      iszero\n      tag_34\n      jumpi\n      dup1\n      0x1f\n      lt\n      tag_35\n      jumpi\n      0x0100\n      dup1\n      dup4\n      sload\n      div\n      mul\n      dup4\n      mstore\n      swap2\n      0x20\n      add\n      swap2\n      jump(tag_34)\n    tag_35:\n      dup3\n      add\n      swap2\n      swap1\n      0x00\n      mstore\n      keccak256(0x00, 0x20)\n      swap1\n    tag_36:\n      dup2\n      sload\n      dup2\n      mstore\n      swap1\n      0x01\n      add\n      swap1\n      0x20\n      add\n      dup1\n      dup4\n      gt\n      tag_36\n      jumpi\n      dup3\n      swap1\n      sub\n      0x1f\n      and\n      dup3\n      add\n      swap2\n    tag_34:\n      pop\n      pop\n      pop\n      pop\n      pop\n      swap1\n      dup1\n      0x02\n      add\n      sload\n      swap1\n      pop\n      dup4\n      jump\t// out\n        /* \"Learning Pth/ProjectMedicalEx.sol\":1178:1462  function getPatientInfo(address _addr) public view returns(string memory, string memory, uint, string[] memory, string[] memory) {... */\n    tag_15:\n        /* \"Learning Pth/ProjectMedicalEx.sol\":1237:1250  string memory */\n      0x60\n        /* \"Learning Pth/ProjectMedicalEx.sol\":1252:1265  string memory */\n      dup1\n        /* \"Learning Pth/ProjectMedicalEx.sol\":1267:1271  uint */\n      0x00\n        /* \"Learning Pth/ProjectMedicalEx.sol\":1273:1288  string[] memory */\n      0x60\n        /* \"Learning Pth/ProjectMedicalEx.sol\":1290:1305  string[] memory */\n      dup1\n        /* \"Learning Pth/ProjectMedicalEx.sol\":1318:1340  Patient memory patient */\n      0x00\n        /* \"Learning Pth/ProjectMedicalEx.sol\":1343:1351  patients */\n      dup1\n        /* \"Learning Pth/ProjectMedicalEx.sol\":1343:1358  patients[_addr] */\n      0x00\n        /* \"Learning Pth/ProjectMedicalEx.sol\":1352:1357  _addr */\n      dup9\n        /* \"Learning Pth/ProjectMedicalEx.sol\":1343:1358  patients[_addr] */\n      0xffffffffffffffffffffffffffffffffffffffff\n      and\n      0xffffffffffffffffffffffffffffffffffffffff\n      and\n      dup2\n      mstore\n      0x20\n      add\n      swap1\n      dup2\n      mstore\n      0x20\n      add\n      0x00\n      keccak256\n        /* \"Learning Pth/ProjectMedicalEx.sol\":1318:1358  Patient memory patient = patients[_addr] */\n      mload(0x40)\n      dup1\n      0xa0\n      add\n      0x40\n      mstore\n      swap1\n      dup2\n      0x00\n      dup3\n      add\n      dup1\n      sload\n      tag_38\n      swap1\n      tag_27\n      jump\t// in\n    tag_38:\n      dup1\n      0x1f\n      add\n      0x20\n      dup1\n      swap2\n      div\n      mul\n      0x20\n      add\n      mload(0x40)\n      swap1\n      dup2\n      add\n      0x40\n      mstore\n      dup1\n      swap3\n      swap2\n      swap1\n      dup2\n      dup2\n      mstore\n      0x20\n      add\n      dup3\n      dup1\n      sload\n      tag_39\n      swap1\n      tag_27\n      jump\t// in\n    tag_39:\n      dup1\n      iszero\n      tag_40\n      jumpi\n      dup1\n      0x1f\n      lt\n      tag_41\n      jumpi\n      0x0100\n      dup1\n      dup4\n      sload\n      div\n      mul\n      dup4\n      mstore\n      swap2\n      0x20\n      add\n      swap2\n      jump(tag_40)\n    tag_41:\n      dup3\n      add\n      swap2\n      swap1\n      0x00\n      mstore\n      keccak256(0x00, 0x20)\n      swap1\n    tag_42:\n      dup2\n      sload\n      dup2\n      mstore\n      swap1\n      0x01\n      add\n      swap1\n      0x20\n      add\n      dup1\n      dup4\n      gt\n      tag_42\n      jumpi\n      dup3\n      swap1\n      sub\n      0x1f\n      and\n      dup3\n      add\n      swap2\n    tag_40:\n      pop\n      pop\n      pop\n      pop\n      pop\n      dup2\n      mstore\n      0x20\n      add\n      0x01\n      dup3\n      add\n      dup1\n      sload\n      tag_43\n      swap1\n      tag_27\n      jump\t// in\n    tag_43:\n      dup1\n      0x1f\n      add\n      0x20\n      dup1\n      swap2\n      div\n      mul\n      0x20\n      add\n      mload(0x40)\n      swap1\n      dup2\n      add\n      0x40\n      mstore\n      dup1\n      swap3\n      swap2\n      swap1\n      dup2\n      dup2\n      mstore\n      0x20\n      add\n      dup3\n      dup1\n      sload\n      tag_44\n      swap1\n      tag_27\n      jump\t// in\n    tag_44:\n      dup1\n      iszero\n      tag_45\n      jumpi\n      dup1\n      0x1f\n      lt\n      tag_46\n      jumpi\n      0x0100\n      dup1\n      dup4\n      sload\n      div\n      mul\n      dup4\n      mstore\n      swap2\n      0x20\n      add\n      swap2\n      jump(tag_45)\n    tag_46:\n      dup3\n      add\n      swap2\n      swap1\n      0x00\n      mstore\n      keccak256(0x00, 0x20)\n      swap1\n    tag_47:\n      dup2\n      sload\n      dup2\n      mstore\n      swap1\n      0x01\n      add\n      swap1\n      0x20\n      add\n      dup1\n      dup4\n      gt\n      tag_47\n      jumpi\n      dup3\n      swap1\n      sub\n      0x1f\n      and\n      dup3\n      add\n      swap2\n    tag_45:\n      pop\n      pop\n      pop\n      pop\n      pop\n      dup2\n      mstore\n      0x20\n      add\n      0x02\n      dup3\n      add\n      sload\n      dup2\n      mstore\n      0x20\n      add\n      0x03\n      dup3\n      add\n      dup1\n      sload\n      dup1\n      0x20\n      mul\n      0x20\n      add\n      mload(0x40)\n      swap1\n      dup2\n      add\n      0x40\n      mstore\n      dup1\n      swap3\n      swap2\n      swap1\n      dup2\n      dup2\n      mstore\n      0x20\n      add\n      0x00\n      swap1\n    tag_48:\n      dup3\n      dup3\n      lt\n      iszero\n      tag_49\n      jumpi\n      dup4\n      dup3\n      swap1\n      0x00\n      mstore\n      keccak256(0x00, 0x20)\n      add\n      dup1\n      sload\n      tag_51\n      swap1\n      tag_27\n      jump\t// in\n    tag_51:\n      dup1\n      0x1f\n      add\n      0x20\n      dup1\n      swap2\n      div\n      mul\n      0x20\n      add\n      mload(0x40)\n      swap1\n      dup2\n      add\n      0x40\n      mstore\n      dup1\n      swap3\n      swap2\n      swap1\n      dup2\n      dup2\n      mstore\n      0x20\n      add\n      dup3\n      dup1\n      sload\n      tag_52\n      swap1\n      tag_27\n      jump\t// in\n    tag_52:\n      dup1\n      iszero\n      tag_53\n      jumpi\n      dup1\n      0x1f\n      lt\n      tag_54\n      jumpi\n      0x0100\n      dup1\n      dup4\n      sload\n      div\n      mul\n      dup4\n      mstore\n      swap2\n      0x20\n      add\n      swap2\n      jump(tag_53)\n    tag_54:\n      dup3\n      add\n      swap2\n      swap1\n      0x00\n      mstore\n      keccak256(0x00, 0x20)\n      swap1\n    tag_55:\n      dup2\n      sload\n      dup2\n      mstore\n      swap1\n      0x01\n      add\n      swap1\n      0x20\n      add\n      dup1\n      dup4\n      gt\n      tag_55\n      jumpi\n      dup3\n      swap1\n      sub\n      0x1f\n      and\n      dup3\n      add\n      swap2\n    tag_53:\n      pop\n      pop\n      pop\n      pop\n      pop\n      dup2\n      mstore\n      0x20\n      add\n      swap1\n      0x01\n      add\n      swap1\n      jump(tag_48)\n    tag_49:\n      pop\n      pop\n      pop\n      pop\n      dup2\n      mstore\n      0x20\n      add\n      0x04\n      dup3\n      add\n      dup1\n      sload\n      dup1\n      0x20\n      mul\n      0x20\n      add\n      mload(0x40)\n      swap1\n      dup2\n      add\n      0x40\n      mstore\n      dup1\n      swap3\n      swap2\n      swap1\n      dup2\n      dup2\n      mstore\n      0x20\n      add\n      0x00\n      swap1\n    tag_56:\n      dup3\n      dup3\n      lt\n      iszero\n      tag_57\n      jumpi\n      dup4\n      dup3\n      swap1\n      0x00\n      mstore\n      keccak256(0x00, 0x20)\n      add\n      dup1\n      sload\n      tag_59\n      swap1\n      tag_27\n      jump\t// in\n    tag_59:\n      dup1\n      0x1f\n      add\n      0x20\n      dup1\n      swap2\n      div\n      mul\n      0x20\n      add\n      mload(0x40)\n      swap1\n      dup2\n      add\n      0x40\n      mstore\n      dup1\n      swap3\n      swap2\n      swap1\n      dup2\n      dup2\n      mstore\n      0x20\n      add\n      dup3\n      dup1\n      sload\n      tag_60\n      swap1\n      tag_27\n      jump\t// in\n    tag_60:\n      dup1\n      iszero\n      tag_61\n      jumpi\n      dup1\n      0x1f\n      lt\n      tag_62\n      jumpi\n      0x0100\n      dup1\n      dup4\n      sload\n      div\n      mul\n      dup4\n      mstore\n      swap2\n      0x20\n      add\n      swap2\n      jump(tag_61)\n    tag_62:\n      dup3\n      add\n      swap2\n      swap1\n      0x00\n      mstore\n      keccak256(0x00, 0x20)\n      swap1\n    tag_63:\n      dup2\n      sload\n      dup2\n      mstore\n      swap1\n      0x01\n      add\n      swap1\n      0x20\n      add\n      dup1\n      dup4\n      gt\n      tag_63\n      jumpi\n      dup3\n      swap1\n      sub\n      0x1f\n      and\n      dup3\n      add\n      swap2\n    tag_61:\n      pop\n      pop\n      pop\n      pop\n      pop\n      dup2\n      mstore\n      0x20\n      add\n      swap1\n      0x01\n      add\n      swap1\n      jump(tag_56)\n    tag_57:\n      pop\n      pop\n      pop\n      pop\n      dup2\n      mstore\n      pop\n      pop\n      swap1\n      pop\n        /* \"Learning Pth/ProjectMedicalEx.sol\":1376:1383  patient */\n      dup1\n        /* \"Learning Pth/ProjectMedicalEx.sol\":1376:1388  patient.name */\n      0x00\n      add\n      mload\n        /* \"Learning Pth/ProjectMedicalEx.sol\":1390:1397  patient */\n      dup2\n        /* \"Learning Pth/ProjectMedicalEx.sol\":1390:1407  patient.bloodType */\n      0x20\n      add\n      mload\n        /* \"Learning Pth/ProjectMedicalEx.sol\":1409:1416  patient */\n      dup3\n        /* \"Learning Pth/ProjectMedicalEx.sol\":1409:1420  patient.age */\n      0x40\n      add\n      mload\n        /* \"Learning Pth/ProjectMedicalEx.sol\":1422:1429  patient */\n      dup4\n        /* \"Learning Pth/ProjectMedicalEx.sol\":1422:1438  patient.symptoms */\n      0x60\n      add\n      mload\n        /* \"Learning Pth/ProjectMedicalEx.sol\":1440:1447  patient */\n      dup5\n        /* \"Learning Pth/ProjectMedicalEx.sol\":1440:1453  patient.drugs */\n      0x80\n      add\n      mload\n        /* \"Learning Pth/ProjectMedicalEx.sol\":1369:1454  return(patient.name, patient.bloodType, patient.age, patient.symptoms, patient.drugs) */\n      swap6\n      pop\n      swap6\n      pop\n      swap6\n      pop\n      swap6\n      pop\n      swap6\n      pop\n      pop\n        /* \"Learning Pth/ProjectMedicalEx.sol\":1178:1462  function getPatientInfo(address _addr) public view returns(string memory, string memory, uint, string[] memory, string[] memory) {... */\n      swap2\n      swap4\n      swap6\n      swap1\n      swap3\n      swap5\n      pop\n      jump\t// out\n        /* \"Learning Pth/ProjectMedicalEx.sol\":424:829  function addPatient(string memory _name, string memory _bloodType, uint _age, ... */\n    tag_21:\n        /* \"Learning Pth/ProjectMedicalEx.sol\":577:599  Patient memory patient */\n      0x00\n        /* \"Learning Pth/ProjectMedicalEx.sol\":602:770  Patient({... */\n      mload(0x40)\n      dup1\n      0xa0\n      add\n      0x40\n      mstore\n      dup1\n        /* \"Learning Pth/ProjectMedicalEx.sol\":631:636  _name */\n      dup8\n        /* \"Learning Pth/ProjectMedicalEx.sol\":602:770  Patient({... */\n      dup2\n      mstore\n      0x20\n      add\n        /* \"Learning Pth/ProjectMedicalEx.sol\":662:672  _bloodType */\n      dup7\n        /* \"Learning Pth/ProjectMedicalEx.sol\":602:770  Patient({... */\n      dup2\n      mstore\n      0x20\n      add\n        /* \"Learning Pth/ProjectMedicalEx.sol\":692:696  _age */\n      dup6\n        /* \"Learning Pth/ProjectMedicalEx.sol\":602:770  Patient({... */\n      dup2\n      mstore\n      0x20\n      add\n        /* \"Learning Pth/ProjectMedicalEx.sol\":721:730  _symptoms */\n      dup5\n        /* \"Learning Pth/ProjectMedicalEx.sol\":602:770  Patient({... */\n      dup2\n      mstore\n      0x20\n      add\n        /* \"Learning Pth/ProjectMedicalEx.sol\":752:758  _drugs */\n      dup4\n        /* \"Learning Pth/ProjectMedicalEx.sol\":602:770  Patient({... */\n      dup2\n      mstore\n      pop\n        /* \"Learning Pth/ProjectMedicalEx.sol\":577:770  Patient memory patient = Patient({... */\n      swap1\n      pop\n        /* \"Learning Pth/ProjectMedicalEx.sol\":804:811  patient */\n      dup1\n        /* \"Learning Pth/ProjectMedicalEx.sol\":781:789  patients */\n      0x00\n        /* \"Learning Pth/ProjectMedicalEx.sol\":781:801  patients[msg.sender] */\n      dup1\n        /* \"Learning Pth/ProjectMedicalEx.sol\":790:800  msg.sender */\n      caller\n        /* \"Learning Pth/ProjectMedicalEx.sol\":781:801  patients[msg.sender] */\n      0xffffffffffffffffffffffffffffffffffffffff\n      and\n      0xffffffffffffffffffffffffffffffffffffffff\n      and\n      dup2\n      mstore\n      0x20\n      add\n      swap1\n      dup2\n      mstore\n      0x20\n      add\n      0x00\n      keccak256\n        /* \"Learning Pth/ProjectMedicalEx.sol\":781:811  patients[msg.sender] = patient */\n      0x00\n      dup3\n      add\n      mload\n      dup2\n      0x00\n      add\n      swap1\n      dup2\n      tag_65\n      swap2\n      swap1\n      tag_66\n      jump\t// in\n    tag_65:\n      pop\n      0x20\n      dup3\n      add\n      mload\n      dup2\n      0x01\n      add\n      swap1\n      dup2\n      tag_67\n      swap2\n      swap1\n      tag_66\n      jump\t// in\n    tag_67:\n      pop\n      0x40\n      dup3\n      add\n      mload\n      dup2\n      0x02\n      add\n      sstore\n      0x60\n      dup3\n      add\n      mload\n      dup2\n      0x03\n      add\n      swap1\n      dup1\n      mload\n      swap1\n      0x20\n      add\n      swap1\n      tag_68\n      swap3\n      swap2\n      swap1\n      tag_69\n      jump\t// in\n    tag_68:\n      pop\n      0x80\n      dup3\n      add\n      mload\n      dup2\n      0x04\n      add\n      swap1\n      dup1\n      mload\n      swap1\n      0x20\n      add\n      swap1\n      tag_70\n      swap3\n      swap2\n      swap1\n      tag_69\n      jump\t// in\n    tag_70:\n      pop\n      swap1\n      pop\n      pop\n        /* \"Learning Pth/ProjectMedicalEx.sol\":566:829  {... */\n      pop\n        /* \"Learning Pth/ProjectMedicalEx.sol\":424:829  function addPatient(string memory _name, string memory _bloodType, uint _age, ... */\n      pop\n      pop\n      pop\n      pop\n      pop\n      jump\t// out\n        /* \"Learning Pth/ProjectMedicalEx.sol\":890:1108  function updatePatient(string[] memory _symptoms, string[] memory _drugs) public {... */\n    tag_25:\n        /* \"Learning Pth/ProjectMedicalEx.sol\":982:1005  Patient storage patient */\n      0x00\n        /* \"Learning Pth/ProjectMedicalEx.sol\":1008:1016  patients */\n      dup1\n        /* \"Learning Pth/ProjectMedicalEx.sol\":1008:1028  patients[msg.sender] */\n      0x00\n        /* \"Learning Pth/ProjectMedicalEx.sol\":1017:1027  msg.sender */\n      caller\n        /* \"Learning Pth/ProjectMedicalEx.sol\":1008:1028  patients[msg.sender] */\n      0xffffffffffffffffffffffffffffffffffffffff\n      and\n      0xffffffffffffffffffffffffffffffffffffffff\n      and\n      dup2\n      mstore\n      0x20\n      add\n      swap1\n      dup2\n      mstore\n      0x20\n      add\n      0x00\n      keccak256\n        /* \"Learning Pth/ProjectMedicalEx.sol\":982:1028  Patient storage patient = patients[msg.sender] */\n      swap1\n      pop\n        /* \"Learning Pth/ProjectMedicalEx.sol\":1058:1067  _symptoms */\n      dup3\n        /* \"Learning Pth/ProjectMedicalEx.sol\":1039:1046  patient */\n      dup2\n        /* \"Learning Pth/ProjectMedicalEx.sol\":1039:1055  patient.symptoms */\n      0x03\n      add\n        /* \"Learning Pth/ProjectMedicalEx.sol\":1039:1067  patient.symptoms = _symptoms */\n      swap1\n      dup1\n      mload\n      swap1\n      0x20\n      add\n      swap1\n      tag_72\n      swap3\n      swap2\n      swap1\n      tag_69\n      jump\t// in\n    tag_72:\n      pop\n        /* \"Learning Pth/ProjectMedicalEx.sol\":1094:1100  _drugs */\n      dup2\n        /* \"Learning Pth/ProjectMedicalEx.sol\":1078:1085  patient */\n      dup2\n        /* \"Learning Pth/ProjectMedicalEx.sol\":1078:1091  patient.drugs */\n      0x04\n      add\n        /* \"Learning Pth/ProjectMedicalEx.sol\":1078:1100  patient.drugs = _drugs */\n      swap1\n      dup1\n      mload\n      swap1\n      0x20\n      add\n      swap1\n      tag_73\n      swap3\n      swap2\n      swap1\n      tag_69\n      jump\t// in\n    tag_73:\n      pop\n        /* \"Learning Pth/ProjectMedicalEx.sol\":971:1108  {... */\n      pop\n        /* \"Learning Pth/ProjectMedicalEx.sol\":890:1108  function updatePatient(string[] memory _symptoms, string[] memory _drugs) public {... */\n      pop\n      pop\n      jump\t// out\n    tag_69:\n      dup3\n      dup1\n      sload\n      dup3\n      dup3\n      sstore\n      swap1\n      0x00\n      mstore\n      keccak256(0x00, 0x20)\n      swap1\n      dup2\n      add\n      swap3\n      dup3\n      iszero\n      tag_74\n      jumpi\n      swap2\n      0x20\n      mul\n      dup3\n      add\n    tag_75:\n      dup3\n      dup2\n      gt\n      iszero\n      tag_76\n      jumpi\n      dup3\n      mload\n      dup3\n      swap1\n      dup2\n      tag_77\n      swap2\n      swap1\n      tag_66\n      jump\t// in\n    tag_77:\n      pop\n      swap2\n      0x20\n      add\n      swap2\n      swap1\n      0x01\n      add\n      swap1\n      jump(tag_75)\n    tag_76:\n    tag_74:\n      pop\n      swap1\n      pop\n      tag_78\n      swap2\n      swap1\n      tag_79\n      jump\t// in\n    tag_78:\n      pop\n      swap1\n      jump\t// out\n    tag_79:\n    tag_80:\n      dup1\n      dup3\n      gt\n      iszero\n      tag_81\n      jumpi\n      0x00\n      dup2\n      dup2\n      tag_82\n      swap2\n      swap1\n      tag_83\n      jump\t// in\n    tag_82:\n      pop\n      0x01\n      add\n      jump(tag_80)\n    tag_81:\n      pop\n      swap1\n      jump\t// out\n    tag_83:\n      pop\n      dup1\n      sload\n      tag_84\n      swap1\n      tag_27\n      jump\t// in\n    tag_84:\n      0x00\n      dup3\n      sstore\n      dup1\n      0x1f\n      lt\n      tag_86\n      jumpi\n      pop\n      jump(tag_85)\n    tag_86:\n      0x1f\n      add\n      0x20\n      swap1\n      div\n      swap1\n      0x00\n      mstore\n      keccak256(0x00, 0x20)\n      swap1\n      dup2\n      add\n      swap1\n      tag_87\n      swap2\n      swap1\n      tag_88\n      jump\t// in\n    tag_87:\n    tag_85:\n      pop\n      jump\t// out\n    tag_88:\n    tag_89:\n      dup1\n      dup3\n      gt\n      iszero\n      tag_90\n      jumpi\n      0x00\n      dup2\n      0x00\n      swap1\n      sstore\n      pop\n      0x01\n      add\n      jump(tag_89)\n    tag_90:\n      pop\n      swap1\n      jump\t// out\n        /* \"#utility.yul\":7:82   */\n    tag_91:\n        /* \"#utility.yul\":40:46   */\n      0x00\n        /* \"#utility.yul\":73:75   */\n      0x40\n        /* \"#utility.yul\":67:76   */\n      mload\n        /* \"#utility.yul\":57:76   */\n      swap1\n      pop\n        /* \"#utility.yul\":7:82   */\n      swap1\n      jump\t// out\n        /* \"#utility.yul\":88:205   */\n    tag_92:\n        /* \"#utility.yul\":197:198   */\n      0x00\n        /* \"#utility.yul\":194:195   */\n      dup1\n        /* \"#utility.yul\":187:199   */\n      revert\n        /* \"#utility.yul\":211:328   */\n    tag_93:\n        /* \"#utility.yul\":320:321   */\n      0x00\n        /* \"#utility.yul\":317:318   */\n      dup1\n        /* \"#utility.yul\":310:322   */\n      revert\n        /* \"#utility.yul\":334:460   */\n    tag_94:\n        /* \"#utility.yul\":371:378   */\n      0x00\n        /* \"#utility.yul\":411:453   */\n      0xffffffffffffffffffffffffffffffffffffffff\n        /* \"#utility.yul\":404:409   */\n      dup3\n        /* \"#utility.yul\":400:454   */\n      and\n        /* \"#utility.yul\":389:454   */\n      swap1\n      pop\n        /* \"#utility.yul\":334:460   */\n      swap2\n      swap1\n      pop\n      jump\t// out\n        /* \"#utility.yul\":466:562   */\n    tag_95:\n        /* \"#utility.yul\":503:510   */\n      0x00\n        /* \"#utility.yul\":532:556   */\n      tag_150\n        /* \"#utility.yul\":550:555   */\n      dup3\n        /* \"#utility.yul\":532:556   */\n      tag_94\n      jump\t// in\n    tag_150:\n        /* \"#utility.yul\":521:556   */\n      swap1\n      pop\n        /* \"#utility.yul\":466:562   */\n      swap2\n      swap1\n      pop\n      jump\t// out\n        /* \"#utility.yul\":568:690   */\n    tag_96:\n        /* \"#utility.yul\":641:665   */\n      tag_152\n        /* \"#utility.yul\":659:664   */\n      dup2\n        /* \"#utility.yul\":641:665   */\n      tag_95\n      jump\t// in\n    tag_152:\n        /* \"#utility.yul\":634:639   */\n      dup2\n        /* \"#utility.yul\":631:666   */\n      eq\n        /* \"#utility.yul\":621:684   */\n      tag_153\n      jumpi\n        /* \"#utility.yul\":680:681   */\n      0x00\n        /* \"#utility.yul\":677:678   */\n      dup1\n        /* \"#utility.yul\":670:682   */\n      revert\n        /* \"#utility.yul\":621:684   */\n    tag_153:\n        /* \"#utility.yul\":568:690   */\n      pop\n      jump\t// out\n        /* \"#utility.yul\":696:835   */\n    tag_97:\n        /* \"#utility.yul\":742:747   */\n      0x00\n        /* \"#utility.yul\":780:786   */\n      dup2\n        /* \"#utility.yul\":767:787   */\n      calldataload\n        /* \"#utility.yul\":758:787   */\n      swap1\n      pop\n        /* \"#utility.yul\":796:829   */\n      tag_155\n        /* \"#utility.yul\":823:828   */\n      dup2\n        /* \"#utility.yul\":796:829   */\n      tag_96\n      jump\t// in\n    tag_155:\n        /* \"#utility.yul\":696:835   */\n      swap3\n      swap2\n      pop\n      pop\n      jump\t// out\n        /* \"#utility.yul\":841:1170   */\n    tag_9:\n        /* \"#utility.yul\":900:906   */\n      0x00\n        /* \"#utility.yul\":949:951   */\n      0x20\n        /* \"#utility.yul\":937:946   */\n      dup3\n        /* \"#utility.yul\":928:935   */\n      dup5\n        /* \"#utility.yul\":924:947   */\n      sub\n        /* \"#utility.yul\":920:952   */\n      slt\n        /* \"#utility.yul\":917:1036   */\n      iszero\n      tag_157\n      jumpi\n        /* \"#utility.yul\":955:1034   */\n      tag_158\n      tag_92\n      jump\t// in\n    tag_158:\n        /* \"#utility.yul\":917:1036   */\n    tag_157:\n        /* \"#utility.yul\":1075:1076   */\n      0x00\n        /* \"#utility.yul\":1100:1153   */\n      tag_159\n        /* \"#utility.yul\":1145:1152   */\n      dup5\n        /* \"#utility.yul\":1136:1142   */\n      dup3\n        /* \"#utility.yul\":1125:1134   */\n      dup6\n        /* \"#utility.yul\":1121:1143   */\n      add\n        /* \"#utility.yul\":1100:1153   */\n      tag_97\n      jump\t// in\n    tag_159:\n        /* \"#utility.yul\":1090:1153   */\n      swap2\n      pop\n        /* \"#utility.yul\":1046:1163   */\n      pop\n        /* \"#utility.yul\":841:1170   */\n      swap3\n      swap2\n      pop\n      pop\n      jump\t// out\n        /* \"#utility.yul\":1176:1275   */\n    tag_98:\n        /* \"#utility.yul\":1228:1234   */\n      0x00\n        /* \"#utility.yul\":1262:1267   */\n      dup2\n        /* \"#utility.yul\":1256:1268   */\n      mload\n        /* \"#utility.yul\":1246:1268   */\n      swap1\n      pop\n        /* \"#utility.yul\":1176:1275   */\n      swap2\n      swap1\n      pop\n      jump\t// out\n        /* \"#utility.yul\":1281:1450   */\n    tag_99:\n        /* \"#utility.yul\":1365:1376   */\n      0x00\n        /* \"#utility.yul\":1399:1405   */\n      dup3\n        /* \"#utility.yul\":1394:1397   */\n      dup3\n        /* \"#utility.yul\":1387:1406   */\n      mstore\n        /* \"#utility.yul\":1439:1443   */\n      0x20\n        /* \"#utility.yul\":1434:1437   */\n      dup3\n        /* \"#utility.yul\":1430:1444   */\n      add\n        /* \"#utility.yul\":1415:1444   */\n      swap1\n      pop\n        /* \"#utility.yul\":1281:1450   */\n      swap3\n      swap2\n      pop\n      pop\n      jump\t// out\n        /* \"#utility.yul\":1456:1595   */\n    tag_100:\n        /* \"#utility.yul\":1545:1551   */\n      dup3\n        /* \"#utility.yul\":1540:1543   */\n      dup2\n        /* \"#utility.yul\":1535:1538   */\n      dup4\n        /* \"#utility.yul\":1529:1552   */\n      mcopy\n        /* \"#utility.yul\":1586:1587   */\n      0x00\n        /* \"#utility.yul\":1577:1583   */\n      dup4\n        /* \"#utility.yul\":1572:1575   */\n      dup4\n        /* \"#utility.yul\":1568:1584   */\n      add\n        /* \"#utility.yul\":1561:1588   */\n      mstore\n        /* \"#utility.yul\":1456:1595   */\n      pop\n      pop\n      pop\n      jump\t// out\n        /* \"#utility.yul\":1601:1703   */\n    tag_101:\n        /* \"#utility.yul\":1642:1648   */\n      0x00\n        /* \"#utility.yul\":1693:1695   */\n      0x1f\n        /* \"#utility.yul\":1689:1696   */\n      not\n        /* \"#utility.yul\":1684:1686   */\n      0x1f\n        /* \"#utility.yul\":1677:1682   */\n      dup4\n        /* \"#utility.yul\":1673:1687   */\n      add\n        /* \"#utility.yul\":1669:1697   */\n      and\n        /* \"#utility.yul\":1659:1697   */\n      swap1\n      pop\n        /* \"#utility.yul\":1601:1703   */\n      swap2\n      swap1\n      pop\n      jump\t// out\n        /* \"#utility.yul\":1709:2086   */\n    tag_102:\n        /* \"#utility.yul\":1797:1800   */\n      0x00\n        /* \"#utility.yul\":1825:1864   */\n      tag_165\n        /* \"#utility.yul\":1858:1863   */\n      dup3\n        /* \"#utility.yul\":1825:1864   */\n      tag_98\n      jump\t// in\n    tag_165:\n        /* \"#utility.yul\":1880:1951   */\n      tag_166\n        /* \"#utility.yul\":1944:1950   */\n      dup2\n        /* \"#utility.yul\":1939:1942   */\n      dup6\n        /* \"#utility.yul\":1880:1951   */\n      tag_99\n      jump\t// in\n    tag_166:\n        /* \"#utility.yul\":1873:1951   */\n      swap4\n      pop\n        /* \"#utility.yul\":1960:2025   */\n      tag_167\n        /* \"#utility.yul\":2018:2024   */\n      dup2\n        /* \"#utility.yul\":2013:2016   */\n      dup6\n        /* \"#utility.yul\":2006:2010   */\n      0x20\n        /* \"#utility.yul\":1999:2004   */\n      dup7\n        /* \"#utility.yul\":1995:2011   */\n      add\n        /* \"#utility.yul\":1960:2025   */\n      tag_100\n      jump\t// in\n    tag_167:\n        /* \"#utility.yul\":2050:2079   */\n      tag_168\n        /* \"#utility.yul\":2072:2078   */\n      dup2\n        /* \"#utility.yul\":2050:2079   */\n      tag_101\n      jump\t// in\n    tag_168:\n        /* \"#utility.yul\":2045:2048   */\n      dup5\n        /* \"#utility.yul\":2041:2080   */\n      add\n        /* \"#utility.yul\":2034:2080   */\n      swap2\n      pop\n        /* \"#utility.yul\":1801:2086   */\n      pop\n        /* \"#utility.yul\":1709:2086   */\n      swap3\n      swap2\n      pop\n      pop\n      jump\t// out\n        /* \"#utility.yul\":2092:2169   */\n    tag_103:\n        /* \"#utility.yul\":2129:2136   */\n      0x00\n        /* \"#utility.yul\":2158:2163   */\n      dup2\n        /* \"#utility.yul\":2147:2163   */\n      swap1\n      pop\n        /* \"#utility.yul\":2092:2169   */\n      swap2\n      swap1\n      pop\n      jump\t// out\n        /* \"#utility.yul\":2175:2293   */\n    tag_104:\n        /* \"#utility.yul\":2262:2286   */\n      tag_171\n        /* \"#utility.yul\":2280:2285   */\n      dup2\n        /* \"#utility.yul\":2262:2286   */\n      tag_103\n      jump\t// in\n    tag_171:\n        /* \"#utility.yul\":2257:2260   */\n      dup3\n        /* \"#utility.yul\":2250:2287   */\n      mstore\n        /* \"#utility.yul\":2175:2293   */\n      pop\n      pop\n      jump\t// out\n        /* \"#utility.yul\":2299:2923   */\n    tag_12:\n        /* \"#utility.yul\":2488:2492   */\n      0x00\n        /* \"#utility.yul\":2526:2528   */\n      0x60\n        /* \"#utility.yul\":2515:2524   */\n      dup3\n        /* \"#utility.yul\":2511:2529   */\n      add\n        /* \"#utility.yul\":2503:2529   */\n      swap1\n      pop\n        /* \"#utility.yul\":2575:2584   */\n      dup2\n        /* \"#utility.yul\":2569:2573   */\n      dup2\n        /* \"#utility.yul\":2565:2585   */\n      sub\n        /* \"#utility.yul\":2561:2562   */\n      0x00\n        /* \"#utility.yul\":2550:2559   */\n      dup4\n        /* \"#utility.yul\":2546:2563   */\n      add\n        /* \"#utility.yul\":2539:2586   */\n      mstore\n        /* \"#utility.yul\":2603:2681   */\n      tag_173\n        /* \"#utility.yul\":2676:2680   */\n      dup2\n        /* \"#utility.yul\":2667:2673   */\n      dup7\n        /* \"#utility.yul\":2603:2681   */\n      tag_102\n      jump\t// in\n    tag_173:\n        /* \"#utility.yul\":2595:2681   */\n      swap1\n      pop\n        /* \"#utility.yul\":2728:2737   */\n      dup2\n        /* \"#utility.yul\":2722:2726   */\n      dup2\n        /* \"#utility.yul\":2718:2738   */\n      sub\n        /* \"#utility.yul\":2713:2715   */\n      0x20\n        /* \"#utility.yul\":2702:2711   */\n      dup4\n        /* \"#utility.yul\":2698:2716   */\n      add\n        /* \"#utility.yul\":2691:2739   */\n      mstore\n        /* \"#utility.yul\":2756:2834   */\n      tag_174\n        /* \"#utility.yul\":2829:2833   */\n      dup2\n        /* \"#utility.yul\":2820:2826   */\n      dup6\n        /* \"#utility.yul\":2756:2834   */\n      tag_102\n      jump\t// in\n    tag_174:\n        /* \"#utility.yul\":2748:2834   */\n      swap1\n      pop\n        /* \"#utility.yul\":2844:2916   */\n      tag_175\n        /* \"#utility.yul\":2912:2914   */\n      0x40\n        /* \"#utility.yul\":2901:2910   */\n      dup4\n        /* \"#utility.yul\":2897:2915   */\n      add\n        /* \"#utility.yul\":2888:2894   */\n      dup5\n        /* \"#utility.yul\":2844:2916   */\n      tag_104\n      jump\t// in\n    tag_175:\n        /* \"#utility.yul\":2299:2923   */\n      swap5\n      swap4\n      pop\n      pop\n      pop\n      pop\n      jump\t// out\n        /* \"#utility.yul\":2929:3053   */\n    tag_105:\n        /* \"#utility.yul\":3006:3012   */\n      0x00\n        /* \"#utility.yul\":3040:3045   */\n      dup2\n        /* \"#utility.yul\":3034:3046   */\n      mload\n        /* \"#utility.yul\":3024:3046   */\n      swap1\n      pop\n        /* \"#utility.yul\":2929:3053   */\n      swap2\n      swap1\n      pop\n      jump\t// out\n        /* \"#utility.yul\":3059:3253   */\n    tag_106:\n        /* \"#utility.yul\":3168:3179   */\n      0x00\n        /* \"#utility.yul\":3202:3208   */\n      dup3\n        /* \"#utility.yul\":3197:3200   */\n      dup3\n        /* \"#utility.yul\":3190:3209   */\n      mstore\n        /* \"#utility.yul\":3242:3246   */\n      0x20\n        /* \"#utility.yul\":3237:3240   */\n      dup3\n        /* \"#utility.yul\":3233:3247   */\n      add\n        /* \"#utility.yul\":3218:3247   */\n      swap1\n      pop\n        /* \"#utility.yul\":3059:3253   */\n      swap3\n      swap2\n      pop\n      pop\n      jump\t// out\n        /* \"#utility.yul\":3259:3401   */\n    tag_107:\n        /* \"#utility.yul\":3336:3340   */\n      0x00\n        /* \"#utility.yul\":3359:3362   */\n      dup2\n        /* \"#utility.yul\":3351:3362   */\n      swap1\n      pop\n        /* \"#utility.yul\":3389:3393   */\n      0x20\n        /* \"#utility.yul\":3384:3387   */\n      dup3\n        /* \"#utility.yul\":3380:3394   */\n      add\n        /* \"#utility.yul\":3372:3394   */\n      swap1\n      pop\n        /* \"#utility.yul\":3259:3401   */\n      swap2\n      swap1\n      pop\n      jump\t// out\n        /* \"#utility.yul\":3407:3566   */\n    tag_108:\n        /* \"#utility.yul\":3481:3492   */\n      0x00\n        /* \"#utility.yul\":3515:3521   */\n      dup3\n        /* \"#utility.yul\":3510:3513   */\n      dup3\n        /* \"#utility.yul\":3503:3522   */\n      mstore\n        /* \"#utility.yul\":3555:3559   */\n      0x20\n        /* \"#utility.yul\":3550:3553   */\n      dup3\n        /* \"#utility.yul\":3546:3560   */\n      add\n        /* \"#utility.yul\":3531:3560   */\n      swap1\n      pop\n        /* \"#utility.yul\":3407:3566   */\n      swap3\n      swap2\n      pop\n      pop\n      jump\t// out\n        /* \"#utility.yul\":3572:3929   */\n    tag_109:\n        /* \"#utility.yul\":3650:3653   */\n      0x00\n        /* \"#utility.yul\":3678:3717   */\n      tag_181\n        /* \"#utility.yul\":3711:3716   */\n      dup3\n        /* \"#utility.yul\":3678:3717   */\n      tag_98\n      jump\t// in\n    tag_181:\n        /* \"#utility.yul\":3733:3794   */\n      tag_182\n        /* \"#utility.yul\":3787:3793   */\n      dup2\n        /* \"#utility.yul\":3782:3785   */\n      dup6\n        /* \"#utility.yul\":3733:3794   */\n      tag_108\n      jump\t// in\n    tag_182:\n        /* \"#utility.yul\":3726:3794   */\n      swap4\n      pop\n        /* \"#utility.yul\":3803:3868   */\n      tag_183\n        /* \"#utility.yul\":3861:3867   */\n      dup2\n        /* \"#utility.yul\":3856:3859   */\n      dup6\n        /* \"#utility.yul\":3849:3853   */\n      0x20\n        /* \"#utility.yul\":3842:3847   */\n      dup7\n        /* \"#utility.yul\":3838:3854   */\n      add\n        /* \"#utility.yul\":3803:3868   */\n      tag_100\n      jump\t// in\n    tag_183:\n        /* \"#utility.yul\":3893:3922   */\n      tag_184\n        /* \"#utility.yul\":3915:3921   */\n      dup2\n        /* \"#utility.yul\":3893:3922   */\n      tag_101\n      jump\t// in\n    tag_184:\n        /* \"#utility.yul\":3888:3891   */\n      dup5\n        /* \"#utility.yul\":3884:3923   */\n      add\n        /* \"#utility.yul\":3877:3923   */\n      swap2\n      pop\n        /* \"#utility.yul\":3654:3929   */\n      pop\n        /* \"#utility.yul\":3572:3929   */\n      swap3\n      swap2\n      pop\n      pop\n      jump\t// out\n        /* \"#utility.yul\":3935:4131   */\n    tag_110:\n        /* \"#utility.yul\":4024:4034   */\n      0x00\n        /* \"#utility.yul\":4059:4125   */\n      tag_186\n        /* \"#utility.yul\":4121:4124   */\n      dup4\n        /* \"#utility.yul\":4113:4119   */\n      dup4\n        /* \"#utility.yul\":4059:4125   */\n      tag_109\n      jump\t// in\n    tag_186:\n        /* \"#utility.yul\":4045:4125   */\n      swap1\n      pop\n        /* \"#utility.yul\":3935:4131   */\n      swap3\n      swap2\n      pop\n      pop\n      jump\t// out\n        /* \"#utility.yul\":4137:4260   */\n    tag_111:\n        /* \"#utility.yul\":4217:4221   */\n      0x00\n        /* \"#utility.yul\":4249:4253   */\n      0x20\n        /* \"#utility.yul\":4244:4247   */\n      dup3\n        /* \"#utility.yul\":4240:4254   */\n      add\n        /* \"#utility.yul\":4232:4254   */\n      swap1\n      pop\n        /* \"#utility.yul\":4137:4260   */\n      swap2\n      swap1\n      pop\n      jump\t// out\n        /* \"#utility.yul\":4294:5285   */\n    tag_112:\n        /* \"#utility.yul\":4433:4436   */\n      0x00\n        /* \"#utility.yul\":4462:4526   */\n      tag_189\n        /* \"#utility.yul\":4520:4525   */\n      dup3\n        /* \"#utility.yul\":4462:4526   */\n      tag_105\n      jump\t// in\n    tag_189:\n        /* \"#utility.yul\":4542:4638   */\n      tag_190\n        /* \"#utility.yul\":4631:4637   */\n      dup2\n        /* \"#utility.yul\":4626:4629   */\n      dup6\n        /* \"#utility.yul\":4542:4638   */\n      tag_106\n      jump\t// in\n    tag_190:\n        /* \"#utility.yul\":4535:4638   */\n      swap4\n      pop\n        /* \"#utility.yul\":4664:4667   */\n      dup4\n        /* \"#utility.yul\":4709:4713   */\n      0x20\n        /* \"#utility.yul\":4701:4707   */\n      dup3\n        /* \"#utility.yul\":4697:4714   */\n      mul\n        /* \"#utility.yul\":4692:4695   */\n      dup6\n        /* \"#utility.yul\":4688:4715   */\n      add\n        /* \"#utility.yul\":4739:4805   */\n      tag_191\n        /* \"#utility.yul\":4799:4804   */\n      dup6\n        /* \"#utility.yul\":4739:4805   */\n      tag_107\n      jump\t// in\n    tag_191:\n        /* \"#utility.yul\":4828:4835   */\n      dup1\n        /* \"#utility.yul\":4859:4860   */\n      0x00\n        /* \"#utility.yul\":4844:5240   */\n    tag_192:\n        /* \"#utility.yul\":4869:4875   */\n      dup6\n        /* \"#utility.yul\":4866:4867   */\n      dup2\n        /* \"#utility.yul\":4863:4876   */\n      lt\n        /* \"#utility.yul\":4844:5240   */\n      iszero\n      tag_194\n      jumpi\n        /* \"#utility.yul\":4940:4949   */\n      dup5\n        /* \"#utility.yul\":4934:4938   */\n      dup5\n        /* \"#utility.yul\":4930:4950   */\n      sub\n        /* \"#utility.yul\":4925:4928   */\n      dup10\n        /* \"#utility.yul\":4918:4951   */\n      mstore\n        /* \"#utility.yul\":4991:4997   */\n      dup2\n        /* \"#utility.yul\":4985:4998   */\n      mload\n        /* \"#utility.yul\":5019:5103   */\n      tag_195\n        /* \"#utility.yul\":5098:5102   */\n      dup6\n        /* \"#utility.yul\":5083:5096   */\n      dup3\n        /* \"#utility.yul\":5019:5103   */\n      tag_110\n      jump\t// in\n    tag_195:\n        /* \"#utility.yul\":5011:5103   */\n      swap5\n      pop\n        /* \"#utility.yul\":5126:5196   */\n      tag_196\n        /* \"#utility.yul\":5189:5195   */\n      dup4\n        /* \"#utility.yul\":5126:5196   */\n      tag_111\n      jump\t// in\n    tag_196:\n        /* \"#utility.yul\":5116:5196   */\n      swap3\n      pop\n        /* \"#utility.yul\":5225:5229   */\n      0x20\n        /* \"#utility.yul\":5220:5223   */\n      dup11\n        /* \"#utility.yul\":5216:5230   */\n      add\n        /* \"#utility.yul\":5209:5230   */\n      swap10\n      pop\n        /* \"#utility.yul\":4904:5240   */\n      pop\n        /* \"#utility.yul\":4891:4892   */\n      0x01\n        /* \"#utility.yul\":4888:4889   */\n      dup2\n        /* \"#utility.yul\":4884:4893   */\n      add\n        /* \"#utility.yul\":4879:4893   */\n      swap1\n      pop\n        /* \"#utility.yul\":4844:5240   */\n      jump(tag_192)\n    tag_194:\n        /* \"#utility.yul\":4848:4862   */\n      pop\n        /* \"#utility.yul\":5256:5260   */\n      dup3\n        /* \"#utility.yul\":5249:5260   */\n      swap8\n      pop\n        /* \"#utility.yul\":5276:5279   */\n      dup8\n        /* \"#utility.yul\":5269:5279   */\n      swap6\n      pop\n        /* \"#utility.yul\":4438:5285   */\n      pop\n      pop\n      pop\n      pop\n      pop\n        /* \"#utility.yul\":4294:5285   */\n      swap3\n      swap2\n      pop\n      pop\n      jump\t// out\n        /* \"#utility.yul\":5291:6519   */\n    tag_17:\n        /* \"#utility.yul\":5676:5680   */\n      0x00\n        /* \"#utility.yul\":5714:5717   */\n      0xa0\n        /* \"#utility.yul\":5703:5712   */\n      dup3\n        /* \"#utility.yul\":5699:5718   */\n      add\n        /* \"#utility.yul\":5691:5718   */\n      swap1\n      pop\n        /* \"#utility.yul\":5764:5773   */\n      dup2\n        /* \"#utility.yul\":5758:5762   */\n      dup2\n        /* \"#utility.yul\":5754:5774   */\n      sub\n        /* \"#utility.yul\":5750:5751   */\n      0x00\n        /* \"#utility.yul\":5739:5748   */\n      dup4\n        /* \"#utility.yul\":5735:5752   */\n      add\n        /* \"#utility.yul\":5728:5775   */\n      mstore\n        /* \"#utility.yul\":5792:5870   */\n      tag_198\n        /* \"#utility.yul\":5865:5869   */\n      dup2\n        /* \"#utility.yul\":5856:5862   */\n      dup9\n        /* \"#utility.yul\":5792:5870   */\n      tag_102\n      jump\t// in\n    tag_198:\n        /* \"#utility.yul\":5784:5870   */\n      swap1\n      pop\n        /* \"#utility.yul\":5917:5926   */\n      dup2\n        /* \"#utility.yul\":5911:5915   */\n      dup2\n        /* \"#utility.yul\":5907:5927   */\n      sub\n        /* \"#utility.yul\":5902:5904   */\n      0x20\n        /* \"#utility.yul\":5891:5900   */\n      dup4\n        /* \"#utility.yul\":5887:5905   */\n      add\n        /* \"#utility.yul\":5880:5928   */\n      mstore\n        /* \"#utility.yul\":5945:6023   */\n      tag_199\n        /* \"#utility.yul\":6018:6022   */\n      dup2\n        /* \"#utility.yul\":6009:6015   */\n      dup8\n        /* \"#utility.yul\":5945:6023   */\n      tag_102\n      jump\t// in\n    tag_199:\n        /* \"#utility.yul\":5937:6023   */\n      swap1\n      pop\n        /* \"#utility.yul\":6033:6105   */\n      tag_200\n        /* \"#utility.yul\":6101:6103   */\n      0x40\n        /* \"#utility.yul\":6090:6099   */\n      dup4\n        /* \"#utility.yul\":6086:6104   */\n      add\n        /* \"#utility.yul\":6077:6083   */\n      dup7\n        /* \"#utility.yul\":6033:6105   */\n      tag_104\n      jump\t// in\n    tag_200:\n        /* \"#utility.yul\":6152:6161   */\n      dup2\n        /* \"#utility.yul\":6146:6150   */\n      dup2\n        /* \"#utility.yul\":6142:6162   */\n      sub\n        /* \"#utility.yul\":6137:6139   */\n      0x60\n        /* \"#utility.yul\":6126:6135   */\n      dup4\n        /* \"#utility.yul\":6122:6140   */\n      add\n        /* \"#utility.yul\":6115:6163   */\n      mstore\n        /* \"#utility.yul\":6180:6308   */\n      tag_201\n        /* \"#utility.yul\":6303:6307   */\n      dup2\n        /* \"#utility.yul\":6294:6300   */\n      dup6\n        /* \"#utility.yul\":6180:6308   */\n      tag_112\n      jump\t// in\n    tag_201:\n        /* \"#utility.yul\":6172:6308   */\n      swap1\n      pop\n        /* \"#utility.yul\":6356:6365   */\n      dup2\n        /* \"#utility.yul\":6350:6354   */\n      dup2\n        /* \"#utility.yul\":6346:6366   */\n      sub\n        /* \"#utility.yul\":6340:6343   */\n      0x80\n        /* \"#utility.yul\":6329:6338   */\n      dup4\n        /* \"#utility.yul\":6325:6344   */\n      add\n        /* \"#utility.yul\":6318:6367   */\n      mstore\n        /* \"#utility.yul\":6384:6512   */\n      tag_202\n        /* \"#utility.yul\":6507:6511   */\n      dup2\n        /* \"#utility.yul\":6498:6504   */\n      dup5\n        /* \"#utility.yul\":6384:6512   */\n      tag_112\n      jump\t// in\n    tag_202:\n        /* \"#utility.yul\":6376:6512   */\n      swap1\n      pop\n        /* \"#utility.yul\":5291:6519   */\n      swap7\n      swap6\n      pop\n      pop\n      pop\n      pop\n      pop\n      pop\n      jump\t// out\n        /* \"#utility.yul\":6525:6642   */\n    tag_113:\n        /* \"#utility.yul\":6634:6635   */\n      0x00\n        /* \"#utility.yul\":6631:6632   */\n      dup1\n        /* \"#utility.yul\":6624:6636   */\n      revert\n        /* \"#utility.yul\":6648:6765   */\n    tag_114:\n        /* \"#utility.yul\":6757:6758   */\n      0x00\n        /* \"#utility.yul\":6754:6755   */\n      dup1\n        /* \"#utility.yul\":6747:6759   */\n      revert\n        /* \"#utility.yul\":6771:6951   */\n    tag_115:\n        /* \"#utility.yul\":6819:6896   */\n      0x4e487b7100000000000000000000000000000000000000000000000000000000\n        /* \"#utility.yul\":6816:6817   */\n      0x00\n        /* \"#utility.yul\":6809:6897   */\n      mstore\n        /* \"#utility.yul\":6916:6920   */\n      0x41\n        /* \"#utility.yul\":6913:6914   */\n      0x04\n        /* \"#utility.yul\":6906:6921   */\n      mstore\n        /* \"#utility.yul\":6940:6944   */\n      0x24\n        /* \"#utility.yul\":6937:6938   */\n      0x00\n        /* \"#utility.yul\":6930:6945   */\n      revert\n        /* \"#utility.yul\":6957:7238   */\n    tag_116:\n        /* \"#utility.yul\":7040:7067   */\n      tag_207\n        /* \"#utility.yul\":7062:7066   */\n      dup3\n        /* \"#utility.yul\":7040:7067   */\n      tag_101\n      jump\t// in\n    tag_207:\n        /* \"#utility.yul\":7032:7038   */\n      dup2\n        /* \"#utility.yul\":7028:7068   */\n      add\n        /* \"#utility.yul\":7170:7176   */\n      dup2\n        /* \"#utility.yul\":7158:7168   */\n      dup2\n        /* \"#utility.yul\":7155:7177   */\n      lt\n        /* \"#utility.yul\":7134:7152   */\n      0xffffffffffffffff\n        /* \"#utility.yul\":7122:7132   */\n      dup3\n        /* \"#utility.yul\":7119:7153   */\n      gt\n        /* \"#utility.yul\":7116:7178   */\n      or\n        /* \"#utility.yul\":7113:7201   */\n      iszero\n      tag_208\n      jumpi\n        /* \"#utility.yul\":7181:7199   */\n      tag_209\n      tag_115\n      jump\t// in\n    tag_209:\n        /* \"#utility.yul\":7113:7201   */\n    tag_208:\n        /* \"#utility.yul\":7221:7231   */\n      dup1\n        /* \"#utility.yul\":7217:7219   */\n      0x40\n        /* \"#utility.yul\":7210:7232   */\n      mstore\n        /* \"#utility.yul\":7000:7238   */\n      pop\n        /* \"#utility.yul\":6957:7238   */\n      pop\n      pop\n      jump\t// out\n        /* \"#utility.yul\":7244:7373   */\n    tag_117:\n        /* \"#utility.yul\":7278:7284   */\n      0x00\n        /* \"#utility.yul\":7305:7325   */\n      tag_211\n      tag_91\n      jump\t// in\n    tag_211:\n        /* \"#utility.yul\":7295:7325   */\n      swap1\n      pop\n        /* \"#utility.yul\":7334:7367   */\n      tag_212\n        /* \"#utility.yul\":7362:7366   */\n      dup3\n        /* \"#utility.yul\":7354:7360   */\n      dup3\n        /* \"#utility.yul\":7334:7367   */\n      tag_116\n      jump\t// in\n    tag_212:\n        /* \"#utility.yul\":7244:7373   */\n      swap2\n      swap1\n      pop\n      jump\t// out\n        /* \"#utility.yul\":7379:7687   */\n    tag_118:\n        /* \"#utility.yul\":7441:7445   */\n      0x00\n        /* \"#utility.yul\":7531:7549   */\n      0xffffffffffffffff\n        /* \"#utility.yul\":7523:7529   */\n      dup3\n        /* \"#utility.yul\":7520:7550   */\n      gt\n        /* \"#utility.yul\":7517:7573   */\n      iszero\n      tag_214\n      jumpi\n        /* \"#utility.yul\":7553:7571   */\n      tag_215\n      tag_115\n      jump\t// in\n    tag_215:\n        /* \"#utility.yul\":7517:7573   */\n    tag_214:\n        /* \"#utility.yul\":7591:7620   */\n      tag_216\n        /* \"#utility.yul\":7613:7619   */\n      dup3\n        /* \"#utility.yul\":7591:7620   */\n      tag_101\n      jump\t// in\n    tag_216:\n        /* \"#utility.yul\":7583:7620   */\n      swap1\n      pop\n        /* \"#utility.yul\":7675:7679   */\n      0x20\n        /* \"#utility.yul\":7669:7673   */\n      dup2\n        /* \"#utility.yul\":7665:7680   */\n      add\n        /* \"#utility.yul\":7657:7680   */\n      swap1\n      pop\n        /* \"#utility.yul\":7379:7687   */\n      swap2\n      swap1\n      pop\n      jump\t// out\n        /* \"#utility.yul\":7693:7841   */\n    tag_119:\n        /* \"#utility.yul\":7791:7797   */\n      dup3\n        /* \"#utility.yul\":7786:7789   */\n      dup2\n        /* \"#utility.yul\":7781:7784   */\n      dup4\n        /* \"#utility.yul\":7768:7798   */\n      calldatacopy\n        /* \"#utility.yul\":7832:7833   */\n      0x00\n        /* \"#utility.yul\":7823:7829   */\n      dup4\n        /* \"#utility.yul\":7818:7821   */\n      dup4\n        /* \"#utility.yul\":7814:7830   */\n      add\n        /* \"#utility.yul\":7807:7834   */\n      mstore\n        /* \"#utility.yul\":7693:7841   */\n      pop\n      pop\n      pop\n      jump\t// out\n        /* \"#utility.yul\":7847:8272   */\n    tag_120:\n        /* \"#utility.yul\":7925:7930   */\n      0x00\n        /* \"#utility.yul\":7950:8016   */\n      tag_219\n        /* \"#utility.yul\":7966:8015   */\n      tag_220\n        /* \"#utility.yul\":8008:8014   */\n      dup5\n        /* \"#utility.yul\":7966:8015   */\n      tag_118\n      jump\t// in\n    tag_220:\n        /* \"#utility.yul\":7950:8016   */\n      tag_117\n      jump\t// in\n    tag_219:\n        /* \"#utility.yul\":7941:8016   */\n      swap1\n      pop\n        /* \"#utility.yul\":8039:8045   */\n      dup3\n        /* \"#utility.yul\":8032:8037   */\n      dup2\n        /* \"#utility.yul\":8025:8046   */\n      mstore\n        /* \"#utility.yul\":8077:8081   */\n      0x20\n        /* \"#utility.yul\":8070:8075   */\n      dup2\n        /* \"#utility.yul\":8066:8082   */\n      add\n        /* \"#utility.yul\":8115:8118   */\n      dup5\n        /* \"#utility.yul\":8106:8112   */\n      dup5\n        /* \"#utility.yul\":8101:8104   */\n      dup5\n        /* \"#utility.yul\":8097:8113   */\n      add\n        /* \"#utility.yul\":8094:8119   */\n      gt\n        /* \"#utility.yul\":8091:8203   */\n      iszero\n      tag_221\n      jumpi\n        /* \"#utility.yul\":8122:8201   */\n      tag_222\n      tag_114\n      jump\t// in\n    tag_222:\n        /* \"#utility.yul\":8091:8203   */\n    tag_221:\n        /* \"#utility.yul\":8212:8266   */\n      tag_223\n        /* \"#utility.yul\":8259:8265   */\n      dup5\n        /* \"#utility.yul\":8254:8257   */\n      dup3\n        /* \"#utility.yul\":8249:8252   */\n      dup6\n        /* \"#utility.yul\":8212:8266   */\n      tag_119\n      jump\t// in\n    tag_223:\n        /* \"#utility.yul\":7931:8272   */\n      pop\n        /* \"#utility.yul\":7847:8272   */\n      swap4\n      swap3\n      pop\n      pop\n      pop\n      jump\t// out\n        /* \"#utility.yul\":8292:8632   */\n    tag_121:\n        /* \"#utility.yul\":8348:8353   */\n      0x00\n        /* \"#utility.yul\":8397:8400   */\n      dup3\n        /* \"#utility.yul\":8390:8394   */\n      0x1f\n        /* \"#utility.yul\":8382:8388   */\n      dup4\n        /* \"#utility.yul\":8378:8395   */\n      add\n        /* \"#utility.yul\":8374:8401   */\n      slt\n        /* \"#utility.yul\":8364:8486   */\n      tag_225\n      jumpi\n        /* \"#utility.yul\":8405:8484   */\n      tag_226\n      tag_113\n      jump\t// in\n    tag_226:\n        /* \"#utility.yul\":8364:8486   */\n    tag_225:\n        /* \"#utility.yul\":8522:8528   */\n      dup2\n        /* \"#utility.yul\":8509:8529   */\n      calldataload\n        /* \"#utility.yul\":8547:8626   */\n      tag_227\n        /* \"#utility.yul\":8622:8625   */\n      dup5\n        /* \"#utility.yul\":8614:8620   */\n      dup3\n        /* \"#utility.yul\":8607:8611   */\n      0x20\n        /* \"#utility.yul\":8599:8605   */\n      dup7\n        /* \"#utility.yul\":8595:8612   */\n      add\n        /* \"#utility.yul\":8547:8626   */\n      tag_120\n      jump\t// in\n    tag_227:\n        /* \"#utility.yul\":8538:8626   */\n      swap2\n      pop\n        /* \"#utility.yul\":8354:8632   */\n      pop\n        /* \"#utility.yul\":8292:8632   */\n      swap3\n      swap2\n      pop\n      pop\n      jump\t// out\n        /* \"#utility.yul\":8638:8760   */\n    tag_122:\n        /* \"#utility.yul\":8711:8735   */\n      tag_229\n        /* \"#utility.yul\":8729:8734   */\n      dup2\n        /* \"#utility.yul\":8711:8735   */\n      tag_103\n      jump\t// in\n    tag_229:\n        /* \"#utility.yul\":8704:8709   */\n      dup2\n        /* \"#utility.yul\":8701:8736   */\n      eq\n        /* \"#utility.yul\":8691:8754   */\n      tag_230\n      jumpi\n        /* \"#utility.yul\":8750:8751   */\n      0x00\n        /* \"#utility.yul\":8747:8748   */\n      dup1\n        /* \"#utility.yul\":8740:8752   */\n      revert\n        /* \"#utility.yul\":8691:8754   */\n    tag_230:\n        /* \"#utility.yul\":8638:8760   */\n      pop\n      jump\t// out\n        /* \"#utility.yul\":8766:8905   */\n    tag_123:\n        /* \"#utility.yul\":8812:8817   */\n      0x00\n        /* \"#utility.yul\":8850:8856   */\n      dup2\n        /* \"#utility.yul\":8837:8857   */\n      calldataload\n        /* \"#utility.yul\":8828:8857   */\n      swap1\n      pop\n        /* \"#utility.yul\":8866:8899   */\n      tag_232\n        /* \"#utility.yul\":8893:8898   */\n      dup2\n        /* \"#utility.yul\":8866:8899   */\n      tag_122\n      jump\t// in\n    tag_232:\n        /* \"#utility.yul\":8766:8905   */\n      swap3\n      swap2\n      pop\n      pop\n      jump\t// out\n        /* \"#utility.yul\":8911:9232   */\n    tag_124:\n        /* \"#utility.yul\":8998:9002   */\n      0x00\n        /* \"#utility.yul\":9088:9106   */\n      0xffffffffffffffff\n        /* \"#utility.yul\":9080:9086   */\n      dup3\n        /* \"#utility.yul\":9077:9107   */\n      gt\n        /* \"#utility.yul\":9074:9130   */\n      iszero\n      tag_234\n      jumpi\n        /* \"#utility.yul\":9110:9128   */\n      tag_235\n      tag_115\n      jump\t// in\n    tag_235:\n        /* \"#utility.yul\":9074:9130   */\n    tag_234:\n        /* \"#utility.yul\":9160:9164   */\n      0x20\n        /* \"#utility.yul\":9152:9158   */\n      dup3\n        /* \"#utility.yul\":9148:9165   */\n      mul\n        /* \"#utility.yul\":9140:9165   */\n      swap1\n      pop\n        /* \"#utility.yul\":9220:9224   */\n      0x20\n        /* \"#utility.yul\":9214:9218   */\n      dup2\n        /* \"#utility.yul\":9210:9225   */\n      add\n        /* \"#utility.yul\":9202:9225   */\n      swap1\n      pop\n        /* \"#utility.yul\":8911:9232   */\n      swap2\n      swap1\n      pop\n      jump\t// out\n        /* \"#utility.yul\":9238:9355   */\n    tag_125:\n        /* \"#utility.yul\":9347:9348   */\n      0x00\n        /* \"#utility.yul\":9344:9345   */\n      dup1\n        /* \"#utility.yul\":9337:9349   */\n      revert\n        /* \"#utility.yul\":9377:10322   */\n    tag_126:\n        /* \"#utility.yul\":9483:9488   */\n      0x00\n        /* \"#utility.yul\":9508:9599   */\n      tag_238\n        /* \"#utility.yul\":9524:9598   */\n      tag_239\n        /* \"#utility.yul\":9591:9597   */\n      dup5\n        /* \"#utility.yul\":9524:9598   */\n      tag_124\n      jump\t// in\n    tag_239:\n        /* \"#utility.yul\":9508:9599   */\n      tag_117\n      jump\t// in\n    tag_238:\n        /* \"#utility.yul\":9499:9599   */\n      swap1\n      pop\n        /* \"#utility.yul\":9619:9624   */\n      dup1\n        /* \"#utility.yul\":9648:9654   */\n      dup4\n        /* \"#utility.yul\":9641:9646   */\n      dup3\n        /* \"#utility.yul\":9634:9655   */\n      mstore\n        /* \"#utility.yul\":9682:9686   */\n      0x20\n        /* \"#utility.yul\":9675:9680   */\n      dup3\n        /* \"#utility.yul\":9671:9687   */\n      add\n        /* \"#utility.yul\":9664:9687   */\n      swap1\n      pop\n        /* \"#utility.yul\":9735:9739   */\n      0x20\n        /* \"#utility.yul\":9727:9733   */\n      dup5\n        /* \"#utility.yul\":9723:9740   */\n      mul\n        /* \"#utility.yul\":9715:9721   */\n      dup4\n        /* \"#utility.yul\":9711:9741   */\n      add\n        /* \"#utility.yul\":9764:9767   */\n      dup6\n        /* \"#utility.yul\":9756:9762   */\n      dup2\n        /* \"#utility.yul\":9753:9768   */\n      gt\n        /* \"#utility.yul\":9750:9872   */\n      iszero\n      tag_240\n      jumpi\n        /* \"#utility.yul\":9783:9862   */\n      tag_241\n      tag_125\n      jump\t// in\n    tag_241:\n        /* \"#utility.yul\":9750:9872   */\n    tag_240:\n        /* \"#utility.yul\":9898:9904   */\n      dup4\n        /* \"#utility.yul\":9881:10316   */\n    tag_242:\n        /* \"#utility.yul\":9915:9921   */\n      dup2\n        /* \"#utility.yul\":9910:9913   */\n      dup2\n        /* \"#utility.yul\":9907:9922   */\n      lt\n        /* \"#utility.yul\":9881:10316   */\n      iszero\n      tag_244\n      jumpi\n        /* \"#utility.yul\":10004:10007   */\n      dup1\n        /* \"#utility.yul\":9991:10008   */\n      calldataload\n        /* \"#utility.yul\":10040:10058   */\n      0xffffffffffffffff\n        /* \"#utility.yul\":10027:10038   */\n      dup2\n        /* \"#utility.yul\":10024:10059   */\n      gt\n        /* \"#utility.yul\":10021:10143   */\n      iszero\n      tag_245\n      jumpi\n        /* \"#utility.yul\":10062:10141   */\n      tag_246\n      tag_113\n      jump\t// in\n    tag_246:\n        /* \"#utility.yul\":10021:10143   */\n    tag_245:\n        /* \"#utility.yul\":10186:10197   */\n      dup1\n        /* \"#utility.yul\":10178:10184   */\n      dup7\n        /* \"#utility.yul\":10174:10198   */\n      add\n        /* \"#utility.yul\":10224:10271   */\n      tag_247\n        /* \"#utility.yul\":10267:10270   */\n      dup10\n        /* \"#utility.yul\":10255:10265   */\n      dup3\n        /* \"#utility.yul\":10224:10271   */\n      tag_121\n      jump\t// in\n    tag_247:\n        /* \"#utility.yul\":10219:10222   */\n      dup6\n        /* \"#utility.yul\":10212:10272   */\n      mstore\n        /* \"#utility.yul\":10301:10305   */\n      0x20\n        /* \"#utility.yul\":10296:10299   */\n      dup6\n        /* \"#utility.yul\":10292:10306   */\n      add\n        /* \"#utility.yul\":10285:10306   */\n      swap5\n      pop\n        /* \"#utility.yul\":9957:10316   */\n      pop\n      pop\n        /* \"#utility.yul\":9941:9945   */\n      0x20\n        /* \"#utility.yul\":9936:9939   */\n      dup2\n        /* \"#utility.yul\":9932:9946   */\n      add\n        /* \"#utility.yul\":9925:9946   */\n      swap1\n      pop\n        /* \"#utility.yul\":9881:10316   */\n      jump(tag_242)\n    tag_244:\n        /* \"#utility.yul\":9885:9906   */\n      pop\n        /* \"#utility.yul\":9489:10322   */\n      pop\n      pop\n        /* \"#utility.yul\":9377:10322   */\n      swap4\n      swap3\n      pop\n      pop\n      pop\n      jump\t// out\n        /* \"#utility.yul\":10344:10734   */\n    tag_127:\n        /* \"#utility.yul\":10425:10430   */\n      0x00\n        /* \"#utility.yul\":10474:10477   */\n      dup3\n        /* \"#utility.yul\":10467:10471   */\n      0x1f\n        /* \"#utility.yul\":10459:10465   */\n      dup4\n        /* \"#utility.yul\":10455:10472   */\n      add\n        /* \"#utility.yul\":10451:10478   */\n      slt\n        /* \"#utility.yul\":10441:10563   */\n      tag_249\n      jumpi\n        /* \"#utility.yul\":10482:10561   */\n      tag_250\n      tag_113\n      jump\t// in\n    tag_250:\n        /* \"#utility.yul\":10441:10563   */\n    tag_249:\n        /* \"#utility.yul\":10599:10605   */\n      dup2\n        /* \"#utility.yul\":10586:10606   */\n      calldataload\n        /* \"#utility.yul\":10624:10728   */\n      tag_251\n        /* \"#utility.yul\":10724:10727   */\n      dup5\n        /* \"#utility.yul\":10716:10722   */\n      dup3\n        /* \"#utility.yul\":10709:10713   */\n      0x20\n        /* \"#utility.yul\":10701:10707   */\n      dup7\n        /* \"#utility.yul\":10697:10714   */\n      add\n        /* \"#utility.yul\":10624:10728   */\n      tag_126\n      jump\t// in\n    tag_251:\n        /* \"#utility.yul\":10615:10728   */\n      swap2\n      pop\n        /* \"#utility.yul\":10431:10734   */\n      pop\n        /* \"#utility.yul\":10344:10734   */\n      swap3\n      swap2\n      pop\n      pop\n      jump\t// out\n        /* \"#utility.yul\":10740:12471   */\n    tag_20:\n        /* \"#utility.yul\":10925:10931   */\n      0x00\n        /* \"#utility.yul\":10933:10939   */\n      dup1\n        /* \"#utility.yul\":10941:10947   */\n      0x00\n        /* \"#utility.yul\":10949:10955   */\n      dup1\n        /* \"#utility.yul\":10957:10963   */\n      0x00\n        /* \"#utility.yul\":11006:11009   */\n      0xa0\n        /* \"#utility.yul\":10994:11003   */\n      dup7\n        /* \"#utility.yul\":10985:10992   */\n      dup9\n        /* \"#utility.yul\":10981:11004   */\n      sub\n        /* \"#utility.yul\":10977:11010   */\n      slt\n        /* \"#utility.yul\":10974:11094   */\n      iszero\n      tag_253\n      jumpi\n        /* \"#utility.yul\":11013:11092   */\n      tag_254\n      tag_92\n      jump\t// in\n    tag_254:\n        /* \"#utility.yul\":10974:11094   */\n    tag_253:\n        /* \"#utility.yul\":11161:11162   */\n      0x00\n        /* \"#utility.yul\":11150:11159   */\n      dup7\n        /* \"#utility.yul\":11146:11163   */\n      add\n        /* \"#utility.yul\":11133:11164   */\n      calldataload\n        /* \"#utility.yul\":11191:11209   */\n      0xffffffffffffffff\n        /* \"#utility.yul\":11183:11189   */\n      dup2\n        /* \"#utility.yul\":11180:11210   */\n      gt\n        /* \"#utility.yul\":11177:11294   */\n      iszero\n      tag_255\n      jumpi\n        /* \"#utility.yul\":11213:11292   */\n      tag_256\n      tag_93\n      jump\t// in\n    tag_256:\n        /* \"#utility.yul\":11177:11294   */\n    tag_255:\n        /* \"#utility.yul\":11318:11381   */\n      tag_257\n        /* \"#utility.yul\":11373:11380   */\n      dup9\n        /* \"#utility.yul\":11364:11370   */\n      dup3\n        /* \"#utility.yul\":11353:11362   */\n      dup10\n        /* \"#utility.yul\":11349:11371   */\n      add\n        /* \"#utility.yul\":11318:11381   */\n      tag_121\n      jump\t// in\n    tag_257:\n        /* \"#utility.yul\":11308:11381   */\n      swap6\n      pop\n        /* \"#utility.yul\":11104:11391   */\n      pop\n        /* \"#utility.yul\":11458:11460   */\n      0x20\n        /* \"#utility.yul\":11447:11456   */\n      dup7\n        /* \"#utility.yul\":11443:11461   */\n      add\n        /* \"#utility.yul\":11430:11462   */\n      calldataload\n        /* \"#utility.yul\":11489:11507   */\n      0xffffffffffffffff\n        /* \"#utility.yul\":11481:11487   */\n      dup2\n        /* \"#utility.yul\":11478:11508   */\n      gt\n        /* \"#utility.yul\":11475:11592   */\n      iszero\n      tag_258\n      jumpi\n        /* \"#utility.yul\":11511:11590   */\n      tag_259\n      tag_93\n      jump\t// in\n    tag_259:\n        /* \"#utility.yul\":11475:11592   */\n    tag_258:\n        /* \"#utility.yul\":11616:11679   */\n      tag_260\n        /* \"#utility.yul\":11671:11678   */\n      dup9\n        /* \"#utility.yul\":11662:11668   */\n      dup3\n        /* \"#utility.yul\":11651:11660   */\n      dup10\n        /* \"#utility.yul\":11647:11669   */\n      add\n        /* \"#utility.yul\":11616:11679   */\n      tag_121\n      jump\t// in\n    tag_260:\n        /* \"#utility.yul\":11606:11679   */\n      swap5\n      pop\n        /* \"#utility.yul\":11401:11689   */\n      pop\n        /* \"#utility.yul\":11728:11730   */\n      0x40\n        /* \"#utility.yul\":11754:11807   */\n      tag_261\n        /* \"#utility.yul\":11799:11806   */\n      dup9\n        /* \"#utility.yul\":11790:11796   */\n      dup3\n        /* \"#utility.yul\":11779:11788   */\n      dup10\n        /* \"#utility.yul\":11775:11797   */\n      add\n        /* \"#utility.yul\":11754:11807   */\n      tag_123\n      jump\t// in\n    tag_261:\n        /* \"#utility.yul\":11744:11807   */\n      swap4\n      pop\n        /* \"#utility.yul\":11699:11817   */\n      pop\n        /* \"#utility.yul\":11884:11886   */\n      0x60\n        /* \"#utility.yul\":11873:11882   */\n      dup7\n        /* \"#utility.yul\":11869:11887   */\n      add\n        /* \"#utility.yul\":11856:11888   */\n      calldataload\n        /* \"#utility.yul\":11915:11933   */\n      0xffffffffffffffff\n        /* \"#utility.yul\":11907:11913   */\n      dup2\n        /* \"#utility.yul\":11904:11934   */\n      gt\n        /* \"#utility.yul\":11901:12018   */\n      iszero\n      tag_262\n      jumpi\n        /* \"#utility.yul\":11937:12016   */\n      tag_263\n      tag_93\n      jump\t// in\n    tag_263:\n        /* \"#utility.yul\":11901:12018   */\n    tag_262:\n        /* \"#utility.yul\":12042:12130   */\n      tag_264\n        /* \"#utility.yul\":12122:12129   */\n      dup9\n        /* \"#utility.yul\":12113:12119   */\n      dup3\n        /* \"#utility.yul\":12102:12111   */\n      dup10\n        /* \"#utility.yul\":12098:12120   */\n      add\n        /* \"#utility.yul\":12042:12130   */\n      tag_127\n      jump\t// in\n    tag_264:\n        /* \"#utility.yul\":12032:12130   */\n      swap3\n      pop\n        /* \"#utility.yul\":11827:12140   */\n      pop\n        /* \"#utility.yul\":12207:12210   */\n      0x80\n        /* \"#utility.yul\":12196:12205   */\n      dup7\n        /* \"#utility.yul\":12192:12211   */\n      add\n        /* \"#utility.yul\":12179:12212   */\n      calldataload\n        /* \"#utility.yul\":12239:12257   */\n      0xffffffffffffffff\n        /* \"#utility.yul\":12231:12237   */\n      dup2\n        /* \"#utility.yul\":12228:12258   */\n      gt\n        /* \"#utility.yul\":12225:12342   */\n      iszero\n      tag_265\n      jumpi\n        /* \"#utility.yul\":12261:12340   */\n      tag_266\n      tag_93\n      jump\t// in\n    tag_266:\n        /* \"#utility.yul\":12225:12342   */\n    tag_265:\n        /* \"#utility.yul\":12366:12454   */\n      tag_267\n        /* \"#utility.yul\":12446:12453   */\n      dup9\n        /* \"#utility.yul\":12437:12443   */\n      dup3\n        /* \"#utility.yul\":12426:12435   */\n      dup10\n        /* \"#utility.yul\":12422:12444   */\n      add\n        /* \"#utility.yul\":12366:12454   */\n      tag_127\n      jump\t// in\n    tag_267:\n        /* \"#utility.yul\":12356:12454   */\n      swap2\n      pop\n        /* \"#utility.yul\":12150:12464   */\n      pop\n        /* \"#utility.yul\":10740:12471   */\n      swap3\n      swap6\n      pop\n      swap3\n      swap6\n      swap1\n      swap4\n      pop\n      jump\t// out\n        /* \"#utility.yul\":12477:13411   */\n    tag_24:\n        /* \"#utility.yul\":12615:12621   */\n      0x00\n        /* \"#utility.yul\":12623:12629   */\n      dup1\n        /* \"#utility.yul\":12672:12674   */\n      0x40\n        /* \"#utility.yul\":12660:12669   */\n      dup4\n        /* \"#utility.yul\":12651:12658   */\n      dup6\n        /* \"#utility.yul\":12647:12670   */\n      sub\n        /* \"#utility.yul\":12643:12675   */\n      slt\n        /* \"#utility.yul\":12640:12759   */\n      iszero\n      tag_269\n      jumpi\n        /* \"#utility.yul\":12678:12757   */\n      tag_270\n      tag_92\n      jump\t// in\n    tag_270:\n        /* \"#utility.yul\":12640:12759   */\n    tag_269:\n        /* \"#utility.yul\":12826:12827   */\n      0x00\n        /* \"#utility.yul\":12815:12824   */\n      dup4\n        /* \"#utility.yul\":12811:12828   */\n      add\n        /* \"#utility.yul\":12798:12829   */\n      calldataload\n        /* \"#utility.yul\":12856:12874   */\n      0xffffffffffffffff\n        /* \"#utility.yul\":12848:12854   */\n      dup2\n        /* \"#utility.yul\":12845:12875   */\n      gt\n        /* \"#utility.yul\":12842:12959   */\n      iszero\n      tag_271\n      jumpi\n        /* \"#utility.yul\":12878:12957   */\n      tag_272\n      tag_93\n      jump\t// in\n    tag_272:\n        /* \"#utility.yul\":12842:12959   */\n    tag_271:\n        /* \"#utility.yul\":12983:13071   */\n      tag_273\n        /* \"#utility.yul\":13063:13070   */\n      dup6\n        /* \"#utility.yul\":13054:13060   */\n      dup3\n        /* \"#utility.yul\":13043:13052   */\n      dup7\n        /* \"#utility.yul\":13039:13061   */\n      add\n        /* \"#utility.yul\":12983:13071   */\n      tag_127\n      jump\t// in\n    tag_273:\n        /* \"#utility.yul\":12973:13071   */\n      swap3\n      pop\n        /* \"#utility.yul\":12769:13081   */\n      pop\n        /* \"#utility.yul\":13148:13150   */\n      0x20\n        /* \"#utility.yul\":13137:13146   */\n      dup4\n        /* \"#utility.yul\":13133:13151   */\n      add\n        /* \"#utility.yul\":13120:13152   */\n      calldataload\n        /* \"#utility.yul\":13179:13197   */\n      0xffffffffffffffff\n        /* \"#utility.yul\":13171:13177   */\n      dup2\n        /* \"#utility.yul\":13168:13198   */\n      gt\n        /* \"#utility.yul\":13165:13282   */\n      iszero\n      tag_274\n      jumpi\n        /* \"#utility.yul\":13201:13280   */\n      tag_275\n      tag_93\n      jump\t// in\n    tag_275:\n        /* \"#utility.yul\":13165:13282   */\n    tag_274:\n        /* \"#utility.yul\":13306:13394   */\n      tag_276\n        /* \"#utility.yul\":13386:13393   */\n      dup6\n        /* \"#utility.yul\":13377:13383   */\n      dup3\n        /* \"#utility.yul\":13366:13375   */\n      dup7\n        /* \"#utility.yul\":13362:13384   */\n      add\n        /* \"#utility.yul\":13306:13394   */\n      tag_127\n      jump\t// in\n    tag_276:\n        /* \"#utility.yul\":13296:13394   */\n      swap2\n      pop\n        /* \"#utility.yul\":13091:13404   */\n      pop\n        /* \"#utility.yul\":12477:13411   */\n      swap3\n      pop\n      swap3\n      swap1\n      pop\n      jump\t// out\n        /* \"#utility.yul\":13417:13597   */\n    tag_128:\n        /* \"#utility.yul\":13465:13542   */\n      0x4e487b7100000000000000000000000000000000000000000000000000000000\n        /* \"#utility.yul\":13462:13463   */\n      0x00\n        /* \"#utility.yul\":13455:13543   */\n      mstore\n        /* \"#utility.yul\":13562:13566   */\n      0x22\n        /* \"#utility.yul\":13559:13560   */\n      0x04\n        /* \"#utility.yul\":13552:13567   */\n      mstore\n        /* \"#utility.yul\":13586:13590   */\n      0x24\n        /* \"#utility.yul\":13583:13584   */\n      0x00\n        /* \"#utility.yul\":13576:13591   */\n      revert\n        /* \"#utility.yul\":13603:13923   */\n    tag_27:\n        /* \"#utility.yul\":13647:13653   */\n      0x00\n        /* \"#utility.yul\":13684:13685   */\n      0x02\n        /* \"#utility.yul\":13678:13682   */\n      dup3\n        /* \"#utility.yul\":13674:13686   */\n      div\n        /* \"#utility.yul\":13664:13686   */\n      swap1\n      pop\n        /* \"#utility.yul\":13731:13732   */\n      0x01\n        /* \"#utility.yul\":13725:13729   */\n      dup3\n        /* \"#utility.yul\":13721:13733   */\n      and\n        /* \"#utility.yul\":13752:13770   */\n      dup1\n        /* \"#utility.yul\":13742:13823   */\n      tag_279\n      jumpi\n        /* \"#utility.yul\":13808:13812   */\n      0x7f\n        /* \"#utility.yul\":13800:13806   */\n      dup3\n        /* \"#utility.yul\":13796:13813   */\n      and\n        /* \"#utility.yul\":13786:13813   */\n      swap2\n      pop\n        /* \"#utility.yul\":13742:13823   */\n    tag_279:\n        /* \"#utility.yul\":13870:13872   */\n      0x20\n        /* \"#utility.yul\":13862:13868   */\n      dup3\n        /* \"#utility.yul\":13859:13873   */\n      lt\n        /* \"#utility.yul\":13839:13857   */\n      dup2\n        /* \"#utility.yul\":13836:13874   */\n      sub\n        /* \"#utility.yul\":13833:13917   */\n      tag_280\n      jumpi\n        /* \"#utility.yul\":13889:13907   */\n      tag_281\n      tag_128\n      jump\t// in\n    tag_281:\n        /* \"#utility.yul\":13833:13917   */\n    tag_280:\n        /* \"#utility.yul\":13654:13923   */\n      pop\n        /* \"#utility.yul\":13603:13923   */\n      swap2\n      swap1\n      pop\n      jump\t// out\n        /* \"#utility.yul\":13929:14070   */\n    tag_129:\n        /* \"#utility.yul\":13978:13982   */\n      0x00\n        /* \"#utility.yul\":14001:14004   */\n      dup2\n        /* \"#utility.yul\":13993:14004   */\n      swap1\n      pop\n        /* \"#utility.yul\":14024:14027   */\n      dup2\n        /* \"#utility.yul\":14021:14022   */\n      0x00\n        /* \"#utility.yul\":14014:14028   */\n      mstore\n        /* \"#utility.yul\":14058:14062   */\n      0x20\n        /* \"#utility.yul\":14055:14056   */\n      0x00\n        /* \"#utility.yul\":14045:14063   */\n      keccak256\n        /* \"#utility.yul\":14037:14063   */\n      swap1\n      pop\n        /* \"#utility.yul\":13929:14070   */\n      swap2\n      swap1\n      pop\n      jump\t// out\n        /* \"#utility.yul\":14076:14169   */\n    tag_130:\n        /* \"#utility.yul\":14113:14119   */\n      0x00\n        /* \"#utility.yul\":14160:14162   */\n      0x20\n        /* \"#utility.yul\":14155:14157   */\n      0x1f\n        /* \"#utility.yul\":14148:14153   */\n      dup4\n        /* \"#utility.yul\":14144:14158   */\n      add\n        /* \"#utility.yul\":14140:14163   */\n      div\n        /* \"#utility.yul\":14130:14163   */\n      swap1\n      pop\n        /* \"#utility.yul\":14076:14169   */\n      swap2\n      swap1\n      pop\n      jump\t// out\n        /* \"#utility.yul\":14175:14282   */\n    tag_131:\n        /* \"#utility.yul\":14219:14227   */\n      0x00\n        /* \"#utility.yul\":14269:14274   */\n      dup3\n        /* \"#utility.yul\":14263:14267   */\n      dup3\n        /* \"#utility.yul\":14259:14275   */\n      shl\n        /* \"#utility.yul\":14238:14275   */\n      swap1\n      pop\n        /* \"#utility.yul\":14175:14282   */\n      swap3\n      swap2\n      pop\n      pop\n      jump\t// out\n        /* \"#utility.yul\":14288:14681   */\n    tag_132:\n        /* \"#utility.yul\":14357:14363   */\n      0x00\n        /* \"#utility.yul\":14407:14408   */\n      0x08\n        /* \"#utility.yul\":14395:14405   */\n      dup4\n        /* \"#utility.yul\":14391:14409   */\n      mul\n        /* \"#utility.yul\":14430:14527   */\n      tag_286\n        /* \"#utility.yul\":14460:14526   */\n      0xffffffffffffffffffffffffffffffffffffffffffffffffffffffffffffffff\n        /* \"#utility.yul\":14449:14458   */\n      dup3\n        /* \"#utility.yul\":14430:14527   */\n      tag_131\n      jump\t// in\n    tag_286:\n        /* \"#utility.yul\":14548:14587   */\n      tag_287\n        /* \"#utility.yul\":14578:14586   */\n      dup7\n        /* \"#utility.yul\":14567:14576   */\n      dup4\n        /* \"#utility.yul\":14548:14587   */\n      tag_131\n      jump\t// in\n    tag_287:\n        /* \"#utility.yul\":14536:14587   */\n      swap6\n      pop\n        /* \"#utility.yul\":14620:14624   */\n      dup1\n        /* \"#utility.yul\":14616:14625   */\n      not\n        /* \"#utility.yul\":14609:14614   */\n      dup5\n        /* \"#utility.yul\":14605:14626   */\n      and\n        /* \"#utility.yul\":14596:14626   */\n      swap4\n      pop\n        /* \"#utility.yul\":14669:14673   */\n      dup1\n        /* \"#utility.yul\":14659:14667   */\n      dup7\n        /* \"#utility.yul\":14655:14674   */\n      and\n        /* \"#utility.yul\":14648:14653   */\n      dup5\n        /* \"#utility.yul\":14645:14675   */\n      or\n        /* \"#utility.yul\":14635:14675   */\n      swap3\n      pop\n        /* \"#utility.yul\":14364:14681   */\n      pop\n      pop\n        /* \"#utility.yul\":14288:14681   */\n      swap4\n      swap3\n      pop\n      pop\n      pop\n      jump\t// out\n        /* \"#utility.yul\":14687:14747   */\n    tag_133:\n        /* \"#utility.yul\":14715:14718   */\n      0x00\n        /* \"#utility.yul\":14736:14741   */\n      dup2\n        /* \"#utility.yul\":14729:14741   */\n      swap1\n      pop\n        /* \"#utility.yul\":14687:14747   */\n      swap2\n      swap1\n      pop\n      jump\t// out\n        /* \"#utility.yul\":14753:14895   */\n    tag_134:\n        /* \"#utility.yul\":14803:14812   */\n      0x00\n        /* \"#utility.yul\":14836:14889   */\n      tag_290\n        /* \"#utility.yul\":14854:14888   */\n      tag_291\n        /* \"#utility.yul\":14863:14887   */\n      tag_292\n        /* \"#utility.yul\":14881:14886   */\n      dup5\n        /* \"#utility.yul\":14863:14887   */\n      tag_103\n      jump\t// in\n    tag_292:\n        /* \"#utility.yul\":14854:14888   */\n      tag_133\n      jump\t// in\n    tag_291:\n        /* \"#utility.yul\":14836:14889   */\n      tag_103\n      jump\t// in\n    tag_290:\n        /* \"#utility.yul\":14823:14889   */\n      swap1\n      pop\n        /* \"#utility.yul\":14753:14895   */\n      swap2\n      swap1\n      pop\n      jump\t// out\n        /* \"#utility.yul\":14901:14976   */\n    tag_135:\n        /* \"#utility.yul\":14944:14947   */\n      0x00\n        /* \"#utility.yul\":14965:14970   */\n      dup2\n        /* \"#utility.yul\":14958:14970   */\n      swap1\n      pop\n        /* \"#utility.yul\":14901:14976   */\n      swap2\n      swap1\n      pop\n      jump\t// out\n        /* \"#utility.yul\":14982:15251   */\n    tag_136:\n        /* \"#utility.yul\":15092:15131   */\n      tag_295\n        /* \"#utility.yul\":15123:15130   */\n      dup4\n        /* \"#utility.yul\":15092:15131   */\n      tag_134\n      jump\t// in\n    tag_295:\n        /* \"#utility.yul\":15153:15244   */\n      tag_296\n        /* \"#utility.yul\":15202:15243   */\n      tag_297\n        /* \"#utility.yul\":15226:15242   */\n      dup3\n        /* \"#utility.yul\":15202:15243   */\n      tag_135\n      jump\t// in\n    tag_297:\n        /* \"#utility.yul\":15194:15200   */\n      dup5\n        /* \"#utility.yul\":15187:15191   */\n      dup5\n        /* \"#utility.yul\":15181:15192   */\n      sload\n        /* \"#utility.yul\":15153:15244   */\n      tag_132\n      jump\t// in\n    tag_296:\n        /* \"#utility.yul\":15147:15151   */\n      dup3\n        /* \"#utility.yul\":15140:15245   */\n      sstore\n        /* \"#utility.yul\":15058:15251   */\n      pop\n        /* \"#utility.yul\":14982:15251   */\n      pop\n      pop\n      pop\n      jump\t// out\n        /* \"#utility.yul\":15257:15330   */\n    tag_137:\n        /* \"#utility.yul\":15302:15305   */\n      0x00\n        /* \"#utility.yul\":15257:15330   */\n      swap1\n      jump\t// out\n        /* \"#utility.yul\":15336:15525   */\n    tag_138:\n        /* \"#utility.yul\":15413:15445   */\n      tag_300\n      tag_137\n      jump\t// in\n    tag_300:\n        /* \"#utility.yul\":15454:15519   */\n      tag_301\n        /* \"#utility.yul\":15512:15518   */\n      dup2\n        /* \"#utility.yul\":15504:15510   */\n      dup5\n        /* \"#utility.yul\":15498:15502   */\n      dup5\n        /* \"#utility.yul\":15454:15519   */\n      tag_136\n      jump\t// in\n    tag_301:\n        /* \"#utility.yul\":15389:15525   */\n      pop\n        /* \"#utility.yul\":15336:15525   */\n      pop\n      pop\n      jump\t// out\n        /* \"#utility.yul\":15531:15717   */\n    tag_139:\n        /* \"#utility.yul\":15591:15711   */\n    tag_303:\n        /* \"#utility.yul\":15608:15611   */\n      dup2\n        /* \"#utility.yul\":15601:15606   */\n      dup2\n        /* \"#utility.yul\":15598:15612   */\n      lt\n        /* \"#utility.yul\":15591:15711   */\n      iszero\n      tag_305\n      jumpi\n        /* \"#utility.yul\":15662:15701   */\n      tag_306\n        /* \"#utility.yul\":15699:15700   */\n      0x00\n        /* \"#utility.yul\":15692:15697   */\n      dup3\n        /* \"#utility.yul\":15662:15701   */\n      tag_138\n      jump\t// in\n    tag_306:\n        /* \"#utility.yul\":15635:15636   */\n      0x01\n        /* \"#utility.yul\":15628:15633   */\n      dup2\n        /* \"#utility.yul\":15624:15637   */\n      add\n        /* \"#utility.yul\":15615:15637   */\n      swap1\n      pop\n        /* \"#utility.yul\":15591:15711   */\n      jump(tag_303)\n    tag_305:\n        /* \"#utility.yul\":15531:15717   */\n      pop\n      pop\n      jump\t// out\n        /* \"#utility.yul\":15723:16266   */\n    tag_140:\n        /* \"#utility.yul\":15824:15826   */\n      0x1f\n        /* \"#utility.yul\":15819:15822   */\n      dup3\n        /* \"#utility.yul\":15816:15827   */\n      gt\n        /* \"#utility.yul\":15813:16259   */\n      iszero\n      tag_308\n      jumpi\n        /* \"#utility.yul\":15858:15896   */\n      tag_309\n        /* \"#utility.yul\":15890:15895   */\n      dup2\n        /* \"#utility.yul\":15858:15896   */\n      tag_129\n      jump\t// in\n    tag_309:\n        /* \"#utility.yul\":15942:15971   */\n      tag_310\n        /* \"#utility.yul\":15960:15970   */\n      dup5\n        /* \"#utility.yul\":15942:15971   */\n      tag_130\n      jump\t// in\n    tag_310:\n        /* \"#utility.yul\":15932:15940   */\n      dup2\n        /* \"#utility.yul\":15928:15972   */\n      add\n        /* \"#utility.yul\":16125:16127   */\n      0x20\n        /* \"#utility.yul\":16113:16123   */\n      dup6\n        /* \"#utility.yul\":16110:16128   */\n      lt\n        /* \"#utility.yul\":16107:16156   */\n      iszero\n      tag_311\n      jumpi\n        /* \"#utility.yul\":16146:16154   */\n      dup2\n        /* \"#utility.yul\":16131:16154   */\n      swap1\n      pop\n        /* \"#utility.yul\":16107:16156   */\n    tag_311:\n        /* \"#utility.yul\":16169:16249   */\n      tag_312\n        /* \"#utility.yul\":16225:16247   */\n      tag_313\n        /* \"#utility.yul\":16243:16246   */\n      dup6\n        /* \"#utility.yul\":16225:16247   */\n      tag_130\n      jump\t// in\n    tag_313:\n        /* \"#utility.yul\":16215:16223   */\n      dup4\n        /* \"#utility.yul\":16211:16248   */\n      add\n        /* \"#utility.yul\":16198:16209   */\n      dup3\n        /* \"#utility.yul\":16169:16249   */\n      tag_139\n      jump\t// in\n    tag_312:\n        /* \"#utility.yul\":15828:16259   */\n      pop\n      pop\n        /* \"#utility.yul\":15813:16259   */\n    tag_308:\n        /* \"#utility.yul\":15723:16266   */\n      pop\n      pop\n      pop\n      jump\t// out\n        /* \"#utility.yul\":16272:16389   */\n    tag_141:\n        /* \"#utility.yul\":16326:16334   */\n      0x00\n        /* \"#utility.yul\":16376:16381   */\n      dup3\n        /* \"#utility.yul\":16370:16374   */\n      dup3\n        /* \"#utility.yul\":16366:16382   */\n      shr\n        /* \"#utility.yul\":16345:16382   */\n      swap1\n      pop\n        /* \"#utility.yul\":16272:16389   */\n      swap3\n      swap2\n      pop\n      pop\n      jump\t// out\n        /* \"#utility.yul\":16395:16564   */\n    tag_142:\n        /* \"#utility.yul\":16439:16445   */\n      0x00\n        /* \"#utility.yul\":16472:16523   */\n      tag_316\n        /* \"#utility.yul\":16520:16521   */\n      0x00\n        /* \"#utility.yul\":16516:16522   */\n      not\n        /* \"#utility.yul\":16508:16513   */\n      dup5\n        /* \"#utility.yul\":16505:16506   */\n      0x08\n        /* \"#utility.yul\":16501:16514   */\n      mul\n        /* \"#utility.yul\":16472:16523   */\n      tag_141\n      jump\t// in\n    tag_316:\n        /* \"#utility.yul\":16468:16524   */\n      not\n        /* \"#utility.yul\":16553:16557   */\n      dup1\n        /* \"#utility.yul\":16547:16551   */\n      dup4\n        /* \"#utility.yul\":16543:16558   */\n      and\n        /* \"#utility.yul\":16533:16558   */\n      swap2\n      pop\n        /* \"#utility.yul\":16446:16564   */\n      pop\n        /* \"#utility.yul\":16395:16564   */\n      swap3\n      swap2\n      pop\n      pop\n      jump\t// out\n        /* \"#utility.yul\":16569:16864   */\n    tag_143:\n        /* \"#utility.yul\":16645:16649   */\n      0x00\n        /* \"#utility.yul\":16791:16820   */\n      tag_318\n        /* \"#utility.yul\":16816:16819   */\n      dup4\n        /* \"#utility.yul\":16810:16814   */\n      dup4\n        /* \"#utility.yul\":16791:16820   */\n      tag_142\n      jump\t// in\n    tag_318:\n        /* \"#utility.yul\":16783:16820   */\n      swap2\n      pop\n        /* \"#utility.yul\":16853:16856   */\n      dup3\n        /* \"#utility.yul\":16850:16851   */\n      0x02\n        /* \"#utility.yul\":16846:16857   */\n      mul\n        /* \"#utility.yul\":16840:16844   */\n      dup3\n        /* \"#utility.yul\":16837:16858   */\n      or\n        /* \"#utility.yul\":16829:16858   */\n      swap1\n      pop\n        /* \"#utility.yul\":16569:16864   */\n      swap3\n      swap2\n      pop\n      pop\n      jump\t// out\n        /* \"#utility.yul\":16869:18264   */\n    tag_66:\n        /* \"#utility.yul\":16986:17023   */\n      tag_320\n        /* \"#utility.yul\":17019:17022   */\n      dup3\n        /* \"#utility.yul\":16986:17023   */\n      tag_98\n      jump\t// in\n    tag_320:\n        /* \"#utility.yul\":17088:17106   */\n      0xffffffffffffffff\n        /* \"#utility.yul\":17080:17086   */\n      dup2\n        /* \"#utility.yul\":17077:17107   */\n      gt\n        /* \"#utility.yul\":17074:17130   */\n      iszero\n      tag_321\n      jumpi\n        /* \"#utility.yul\":17110:17128   */\n      tag_322\n      tag_115\n      jump\t// in\n    tag_322:\n        /* \"#utility.yul\":17074:17130   */\n    tag_321:\n        /* \"#utility.yul\":17154:17192   */\n      tag_323\n        /* \"#utility.yul\":17186:17190   */\n      dup3\n        /* \"#utility.yul\":17180:17191   */\n      sload\n        /* \"#utility.yul\":17154:17192   */\n      tag_27\n      jump\t// in\n    tag_323:\n        /* \"#utility.yul\":17239:17306   */\n      tag_324\n        /* \"#utility.yul\":17299:17305   */\n      dup3\n        /* \"#utility.yul\":17291:17297   */\n      dup3\n        /* \"#utility.yul\":17285:17289   */\n      dup6\n        /* \"#utility.yul\":17239:17306   */\n      tag_140\n      jump\t// in\n    tag_324:\n        /* \"#utility.yul\":17333:17334   */\n      0x00\n        /* \"#utility.yul\":17357:17361   */\n      0x20\n        /* \"#utility.yul\":17344:17361   */\n      swap1\n      pop\n        /* \"#utility.yul\":17389:17391   */\n      0x1f\n        /* \"#utility.yul\":17381:17387   */\n      dup4\n        /* \"#utility.yul\":17378:17392   */\n      gt\n        /* \"#utility.yul\":17406:17407   */\n      0x01\n        /* \"#utility.yul\":17401:18019   */\n      dup2\n      eq\n      tag_326\n      jumpi\n        /* \"#utility.yul\":18063:18064   */\n      0x00\n        /* \"#utility.yul\":18080:18086   */\n      dup5\n        /* \"#utility.yul\":18077:18154   */\n      iszero\n      tag_327\n      jumpi\n        /* \"#utility.yul\":18129:18138   */\n      dup3\n        /* \"#utility.yul\":18124:18127   */\n      dup8\n        /* \"#utility.yul\":18120:18139   */\n      add\n        /* \"#utility.yul\":18114:18140   */\n      mload\n        /* \"#utility.yul\":18105:18140   */\n      swap1\n      pop\n        /* \"#utility.yul\":18077:18154   */\n    tag_327:\n        /* \"#utility.yul\":18180:18247   */\n      tag_328\n        /* \"#utility.yul\":18240:18246   */\n      dup6\n        /* \"#utility.yul\":18233:18238   */\n      dup3\n        /* \"#utility.yul\":18180:18247   */\n      tag_143\n      jump\t// in\n    tag_328:\n        /* \"#utility.yul\":18174:18178   */\n      dup7\n        /* \"#utility.yul\":18167:18248   */\n      sstore\n        /* \"#utility.yul\":18036:18258   */\n      pop\n        /* \"#utility.yul\":17371:18258   */\n      jump(tag_325)\n        /* \"#utility.yul\":17401:18019   */\n    tag_326:\n        /* \"#utility.yul\":17453:17457   */\n      0x1f\n        /* \"#utility.yul\":17449:17458   */\n      not\n        /* \"#utility.yul\":17441:17447   */\n      dup5\n        /* \"#utility.yul\":17437:17459   */\n      and\n        /* \"#utility.yul\":17487:17524   */\n      tag_329\n        /* \"#utility.yul\":17519:17523   */\n      dup7\n        /* \"#utility.yul\":17487:17524   */\n      tag_129\n      jump\t// in\n    tag_329:\n        /* \"#utility.yul\":17546:17547   */\n      0x00\n        /* \"#utility.yul\":17560:17768   */\n    tag_330:\n        /* \"#utility.yul\":17574:17581   */\n      dup3\n        /* \"#utility.yul\":17571:17572   */\n      dup2\n        /* \"#utility.yul\":17568:17582   */\n      lt\n        /* \"#utility.yul\":17560:17768   */\n      iszero\n      tag_332\n      jumpi\n        /* \"#utility.yul\":17653:17662   */\n      dup5\n        /* \"#utility.yul\":17648:17651   */\n      dup10\n        /* \"#utility.yul\":17644:17663   */\n      add\n        /* \"#utility.yul\":17638:17664   */\n      mload\n        /* \"#utility.yul\":17630:17636   */\n      dup3\n        /* \"#utility.yul\":17623:17665   */\n      sstore\n        /* \"#utility.yul\":17704:17705   */\n      0x01\n        /* \"#utility.yul\":17696:17702   */\n      dup3\n        /* \"#utility.yul\":17692:17706   */\n      add\n        /* \"#utility.yul\":17682:17706   */\n      swap2\n      pop\n        /* \"#utility.yul\":17751:17753   */\n      0x20\n        /* \"#utility.yul\":17740:17749   */\n      dup6\n        /* \"#utility.yul\":17736:17754   */\n      add\n        /* \"#utility.yul\":17723:17754   */\n      swap5\n      pop\n        /* \"#utility.yul\":17597:17601   */\n      0x20\n        /* \"#utility.yul\":17594:17595   */\n      dup2\n        /* \"#utility.yul\":17590:17602   */\n      add\n        /* \"#utility.yul\":17585:17602   */\n      swap1\n      pop\n        /* \"#utility.yul\":17560:17768   */\n      jump(tag_330)\n    tag_332:\n        /* \"#utility.yul\":17796:17802   */\n      dup7\n        /* \"#utility.yul\":17787:17794   */\n      dup4\n        /* \"#utility.yul\":17784:17803   */\n      lt\n        /* \"#utility.yul\":17781:17960   */\n      iszero\n      tag_333\n      jumpi\n        /* \"#utility.yul\":17854:17863   */\n      dup5\n        /* \"#utility.yul\":17849:17852   */\n      dup10\n        /* \"#utility.yul\":17845:17864   */\n      add\n        /* \"#utility.yul\":17839:17865   */\n      mload\n        /* \"#utility.yul\":17897:17945   */\n      tag_334\n        /* \"#utility.yul\":17939:17943   */\n      0x1f\n        /* \"#utility.yul\":17931:17937   */\n      dup10\n        /* \"#utility.yul\":17927:17944   */\n      and\n        /* \"#utility.yul\":17916:17925   */\n      dup3\n        /* \"#utility.yul\":17897:17945   */\n      tag_142\n      jump\t// in\n    tag_334:\n        /* \"#utility.yul\":17889:17895   */\n      dup4\n        /* \"#utility.yul\":17882:17946   */\n      sstore\n        /* \"#utility.yul\":17804:17960   */\n      pop\n        /* \"#utility.yul\":17781:17960   */\n    tag_333:\n        /* \"#utility.yul\":18006:18007   */\n      0x01\n        /* \"#utility.yul\":18002:18003   */\n      0x02\n        /* \"#utility.yul\":17994:18000   */\n      dup9\n        /* \"#utility.yul\":17990:18004   */\n      mul\n        /* \"#utility.yul\":17986:18008   */\n      add\n        /* \"#utility.yul\":17980:17984   */\n      dup9\n        /* \"#utility.yul\":17973:18009   */\n      sstore\n        /* \"#utility.yul\":17408:18019   */\n      pop\n      pop\n      pop\n        /* \"#utility.yul\":17371:18258   */\n    tag_325:\n      pop\n        /* \"#utility.yul\":16961:18264   */\n      pop\n      pop\n      pop\n        /* \"#utility.yul\":16869:18264   */\n      pop\n      pop\n      jump\t// out\n\n    auxdata: 0xa2646970667358221220a8beef3ce4ad720044219abb18ca158db9a9529e16e1ad50ffc28bd1719243d264736f6c634300081a0033\n}\n",
				"bytecode": {
					"linkReferences": {},
					"object": "6080604052348015600e575f80fd5b506110f88061001c5f395ff3fe608060405234801561000f575f80fd5b506004361061004a575f3560e01c80630869cfbc1461004e5780634b4261781461008057806367cafcb8146100b45780637428c9e6146100d0575b5f80fd5b610068600480360381019061006391906107fe565b6100ec565b604051610077939291906108b1565b60405180910390f35b61009a600480360381019061009591906107fe565b61021d565b6040516100ab9594939291906109f7565b60405180910390f35b6100ce60048036038101906100c99190610c9c565b61056b565b005b6100ea60048036038101906100e59190610d83565b61064b565b005b5f602052805f5260405f205f91509050805f01805461010a90610e26565b80601f016020809104026020016040519081016040528092919081815260200182805461013690610e26565b80156101815780601f1061015857610100808354040283529160200191610181565b820191905f5260205f20905b81548152906001019060200180831161016457829003601f168201915b50505050509080600101805461019690610e26565b80601f01602080910402602001604051908101604052809291908181526020018280546101c290610e26565b801561020d5780601f106101e45761010080835404028352916020019161020d565b820191905f5260205f20905b8154815290600101906020018083116101f057829003601f168201915b5050505050908060020154905083565b6060805f6060805f805f8873ffffffffffffffffffffffffffffffffffffffff1673ffffffffffffffffffffffffffffffffffffffff1681526020019081526020015f206040518060a00160405290815f8201805461027b90610e26565b80601f01602080910402602001604051908101604052809291908181526020018280546102a790610e26565b80156102f25780601f106102c9576101008083540402835291602001916102f2565b820191905f5260205f20905b8154815290600101906020018083116102d557829003601f168201915b5050505050815260200160018201805461030b90610e26565b80601f016020809104026020016040519081016040528092919081815260200182805461033790610e26565b80156103825780601f1061035957610100808354040283529160200191610382565b820191905f5260205f20905b81548152906001019060200180831161036557829003601f168201915b505050505081526020016002820154815260200160038201805480602002602001604051908101604052809291908181526020015f905b82821015610461578382905f5260205f200180546103d690610e26565b80601f016020809104026020016040519081016040528092919081815260200182805461040290610e26565b801561044d5780601f106104245761010080835404028352916020019161044d565b820191905f5260205f20905b81548152906001019060200180831161043057829003601f168201915b5050505050815260200190600101906103b9565b50505050815260200160048201805480602002602001604051908101604052809291908181526020015f905b82821015610535578382905f5260205f200180546104aa90610e26565b80601f01602080910402602001604051908101604052809291908181526020018280546104d690610e26565b80156105215780601f106104f857610100808354040283529160200191610521565b820191905f5260205f20905b81548152906001019060200180831161050457829003601f168201915b50505050508152602001906001019061048d565b50505050815250509050805f01518160200151826040015183606001518460800151955095509550955095505091939590929450565b5f6040518060a00160405280878152602001868152602001858152602001848152602001838152509050805f803373ffffffffffffffffffffffffffffffffffffffff1673ffffffffffffffffffffffffffffffffffffffff1681526020019081526020015f205f820151815f0190816105e59190610ff3565b5060208201518160010190816105fb9190610ff3565b506040820151816002015560608201518160030190805190602001906106229291906106c1565b50608082015181600401908051906020019061063f9291906106c1565b50905050505050505050565b5f805f3373ffffffffffffffffffffffffffffffffffffffff1673ffffffffffffffffffffffffffffffffffffffff1681526020019081526020015f209050828160030190805190602001906106a29291906106c1565b50818160040190805190602001906106bb9291906106c1565b50505050565b828054828255905f5260205f20908101928215610707579160200282015b828111156107065782518290816106f69190610ff3565b50916020019190600101906106df565b5b5090506107149190610718565b5090565b5b80821115610737575f818161072e919061073b565b50600101610719565b5090565b50805461074790610e26565b5f825580601f106107585750610775565b601f0160209004905f5260205f20908101906107749190610778565b5b50565b5b8082111561078f575f815f905550600101610779565b5090565b5f604051905090565b5f80fd5b5f80fd5b5f73ffffffffffffffffffffffffffffffffffffffff82169050919050565b5f6107cd826107a4565b9050919050565b6107dd816107c3565b81146107e7575f80fd5b50565b5f813590506107f8816107d4565b92915050565b5f602082840312156108135761081261079c565b5b5f610820848285016107ea565b91505092915050565b5f81519050919050565b5f82825260208201905092915050565b8281835e5f83830152505050565b5f601f19601f8301169050919050565b5f61086b82610829565b6108758185610833565b9350610885818560208601610843565b61088e81610851565b840191505092915050565b5f819050919050565b6108ab81610899565b82525050565b5f6060820190508181035f8301526108c98186610861565b905081810360208301526108dd8185610861565b90506108ec60408301846108a2565b949350505050565b5f81519050919050565b5f82825260208201905092915050565b5f819050602082019050919050565b5f82825260208201905092915050565b5f61093782610829565b610941818561091d565b9350610951818560208601610843565b61095a81610851565b840191505092915050565b5f610970838361092d565b905092915050565b5f602082019050919050565b5f61098e826108f4565b61099881856108fe565b9350836020820285016109aa8561090e565b805f5b858110156109e557848403895281516109c68582610965565b94506109d183610978565b925060208a019950506001810190506109ad565b50829750879550505050505092915050565b5f60a0820190508181035f830152610a0f8188610861565b90508181036020830152610a238187610861565b9050610a3260408301866108a2565b8181036060830152610a448185610984565b90508181036080830152610a588184610984565b90509695505050505050565b5f80fd5b5f80fd5b7f4e487b71000000000000000000000000000000000000000000000000000000005f52604160045260245ffd5b610aa282610851565b810181811067ffffffffffffffff82111715610ac157610ac0610a6c565b5b80604052505050565b5f610ad3610793565b9050610adf8282610a99565b919050565b5f67ffffffffffffffff821115610afe57610afd610a6c565b5b610b0782610851565b9050602081019050919050565b828183375f83830152505050565b5f610b34610b2f84610ae4565b610aca565b905082815260208101848484011115610b5057610b4f610a68565b5b610b5b848285610b14565b509392505050565b5f82601f830112610b7757610b76610a64565b5b8135610b87848260208601610b22565b91505092915050565b610b9981610899565b8114610ba3575f80fd5b50565b5f81359050610bb481610b90565b92915050565b5f67ffffffffffffffff821115610bd457610bd3610a6c565b5b602082029050602081019050919050565b5f80fd5b5f610bfb610bf684610bba565b610aca565b90508083825260208201905060208402830185811115610c1e57610c1d610be5565b5b835b81811015610c6557803567ffffffffffffffff811115610c4357610c42610a64565b5b808601610c508982610b63565b85526020850194505050602081019050610c20565b5050509392505050565b5f82601f830112610c8357610c82610a64565b5b8135610c93848260208601610be9565b91505092915050565b5f805f805f60a08688031215610cb557610cb461079c565b5b5f86013567ffffffffffffffff811115610cd257610cd16107a0565b5b610cde88828901610b63565b955050602086013567ffffffffffffffff811115610cff57610cfe6107a0565b5b610d0b88828901610b63565b9450506040610d1c88828901610ba6565b935050606086013567ffffffffffffffff811115610d3d57610d3c6107a0565b5b610d4988828901610c6f565b925050608086013567ffffffffffffffff811115610d6a57610d696107a0565b5b610d7688828901610c6f565b9150509295509295909350565b5f8060408385031215610d9957610d9861079c565b5b5f83013567ffffffffffffffff811115610db657610db56107a0565b5b610dc285828601610c6f565b925050602083013567ffffffffffffffff811115610de357610de26107a0565b5b610def85828601610c6f565b9150509250929050565b7f4e487b71000000000000000000000000000000000000000000000000000000005f52602260045260245ffd5b5f6002820490506001821680610e3d57607f821691505b602082108103610e5057610e4f610df9565b5b50919050565b5f819050815f5260205f209050919050565b5f6020601f8301049050919050565b5f82821b905092915050565b5f60088302610eb27fffffffffffffffffffffffffffffffffffffffffffffffffffffffffffffffff82610e77565b610ebc8683610e77565b95508019841693508086168417925050509392505050565b5f819050919050565b5f610ef7610ef2610eed84610899565b610ed4565b610899565b9050919050565b5f819050919050565b610f1083610edd565b610f24610f1c82610efe565b848454610e83565b825550505050565b5f90565b610f38610f2c565b610f43818484610f07565b505050565b5b81811015610f6657610f5b5f82610f30565b600181019050610f49565b5050565b601f821115610fab57610f7c81610e56565b610f8584610e68565b81016020851015610f94578190505b610fa8610fa085610e68565b830182610f48565b50505b505050565b5f82821c905092915050565b5f610fcb5f1984600802610fb0565b1980831691505092915050565b5f610fe38383610fbc565b9150826002028217905092915050565b610ffc82610829565b67ffffffffffffffff81111561101557611014610a6c565b5b61101f8254610e26565b61102a828285610f6a565b5f60209050601f83116001811461105b575f8415611049578287015190505b6110538582610fd8565b8655506110ba565b601f19841661106986610e56565b5f5b828110156110905784890151825560018201915060208501945060208101905061106b565b868310156110ad57848901516110a9601f891682610fbc565b8355505b6001600288020188555050505b50505050505056fea2646970667358221220a8beef3ce4ad720044219abb18ca158db9a9529e16e1ad50ffc28bd1719243d264736f6c634300081a0033",
					"opcodes": "PUSH1 0x80 PUSH1 0x40 MSTORE CALLVALUE DUP1 ISZERO PUSH1 0xE JUMPI PUSH0 DUP1 REVERT JUMPDEST POP PUSH2 0x10F8 DUP1 PUSH2 0x1C PUSH0 CODECOPY PUSH0 RETURN INVALID PUSH1 0x80 PUSH1 0x40 MSTORE CALLVALUE DUP1 ISZERO PUSH2 0xF JUMPI PUSH0 DUP1 REVERT JUMPDEST POP PUSH1 0x4 CALLDATASIZE LT PUSH2 0x4A JUMPI PUSH0 CALLDATALOAD PUSH1 0xE0 SHR DUP1 PUSH4 0x869CFBC EQ PUSH2 0x4E JUMPI DUP1 PUSH4 0x4B426178 EQ PUSH2 0x80 JUMPI DUP1 PUSH4 0x67CAFCB8 EQ PUSH2 0xB4 JUMPI DUP1 PUSH4 0x7428C9E6 EQ PUSH2 0xD0 JUMPI JUMPDEST PUSH0 DUP1 REVERT JUMPDEST PUSH2 0x68 PUSH1 0x4 DUP1 CALLDATASIZE SUB DUP2 ADD SWAP1 PUSH2 0x63 SWAP2 SWAP1 PUSH2 0x7FE JUMP JUMPDEST PUSH2 0xEC JUMP JUMPDEST PUSH1 0x40 MLOAD PUSH2 0x77 SWAP4 SWAP3 SWAP2 SWAP1 PUSH2 0x8B1 JUMP JUMPDEST PUSH1 0x40 MLOAD DUP1 SWAP2 SUB SWAP1 RETURN JUMPDEST PUSH2 0x9A PUSH1 0x4 DUP1 CALLDATASIZE SUB DUP2 ADD SWAP1 PUSH2 0x95 SWAP2 SWAP1 PUSH2 0x7FE JUMP JUMPDEST PUSH2 0x21D JUMP JUMPDEST PUSH1 0x40 MLOAD PUSH2 0xAB SWAP6 SWAP5 SWAP4 SWAP3 SWAP2 SWAP1 PUSH2 0x9F7 JUMP JUMPDEST PUSH1 0x40 MLOAD DUP1 SWAP2 SUB SWAP1 RETURN JUMPDEST PUSH2 0xCE PUSH1 0x4 DUP1 CALLDATASIZE SUB DUP2 ADD SWAP1 PUSH2 0xC9 SWAP2 SWAP1 PUSH2 0xC9C JUMP JUMPDEST PUSH2 0x56B JUMP JUMPDEST STOP JUMPDEST PUSH2 0xEA PUSH1 0x4 DUP1 CALLDATASIZE SUB DUP2 ADD SWAP1 PUSH2 0xE5 SWAP2 SWAP1 PUSH2 0xD83 JUMP JUMPDEST PUSH2 0x64B JUMP JUMPDEST STOP JUMPDEST PUSH0 PUSH1 0x20 MSTORE DUP1 PUSH0 MSTORE PUSH1 0x40 PUSH0 KECCAK256 PUSH0 SWAP2 POP SWAP1 POP DUP1 PUSH0 ADD DUP1 SLOAD PUSH2 0x10A SWAP1 PUSH2 0xE26 JUMP JUMPDEST DUP1 PUSH1 0x1F ADD PUSH1 0x20 DUP1 SWAP2 DIV MUL PUSH1 0x20 ADD PUSH1 0x40 MLOAD SWAP1 DUP2 ADD PUSH1 0x40 MSTORE DUP1 SWAP3 SWAP2 SWAP1 DUP2 DUP2 MSTORE PUSH1 0x20 ADD DUP3 DUP1 SLOAD PUSH2 0x136 SWAP1 PUSH2 0xE26 JUMP JUMPDEST DUP1 ISZERO PUSH2 0x181 JUMPI DUP1 PUSH1 0x1F LT PUSH2 0x158 JUMPI PUSH2 0x100 DUP1 DUP4 SLOAD DIV MUL DUP4 MSTORE SWAP2 PUSH1 0x20 ADD SWAP2 PUSH2 0x181 JUMP JUMPDEST DUP3 ADD SWAP2 SWAP1 PUSH0 MSTORE PUSH1 0x20 PUSH0 KECCAK256 SWAP1 JUMPDEST DUP2 SLOAD DUP2 MSTORE SWAP1 PUSH1 0x1 ADD SWAP1 PUSH1 0x20 ADD DUP1 DUP4 GT PUSH2 0x164 JUMPI DUP3 SWAP1 SUB PUSH1 0x1F AND DUP3 ADD SWAP2 JUMPDEST POP POP POP POP POP SWAP1 DUP1 PUSH1 0x1 ADD DUP1 SLOAD PUSH2 0x196 SWAP1 PUSH2 0xE26 JUMP JUMPDEST DUP1 PUSH1 0x1F ADD PUSH1 0x20 DUP1 SWAP2 DIV MUL PUSH1 0x20 ADD PUSH1 0x40 MLOAD SWAP1 DUP2 ADD PUSH1 0x40 MSTORE DUP1 SWAP3 SWAP2 SWAP1 DUP2 DUP2 MSTORE PUSH1 0x20 ADD DUP3 DUP1 SLOAD PUSH2 0x1C2 SWAP1 PUSH2 0xE26 JUMP JUMPDEST DUP1 ISZERO PUSH2 0x20D JUMPI DUP1 PUSH1 0x1F LT PUSH2 0x1E4 JUMPI PUSH2 0x100 DUP1 DUP4 SLOAD DIV MUL DUP4 MSTORE SWAP2 PUSH1 0x20 ADD SWAP2 PUSH2 0x20D JUMP JUMPDEST DUP3 ADD SWAP2 SWAP1 PUSH0 MSTORE PUSH1 0x20 PUSH0 KECCAK256 SWAP1 JUMPDEST DUP2 SLOAD DUP2 MSTORE SWAP1 PUSH1 0x1 ADD SWAP1 PUSH1 0x20 ADD DUP1 DUP4 GT PUSH2 0x1F0 JUMPI DUP3 SWAP1 SUB PUSH1 0x1F AND DUP3 ADD SWAP2 JUMPDEST POP POP POP POP POP SWAP1 DUP1 PUSH1 0x2 ADD SLOAD SWAP1 POP DUP4 JUMP JUMPDEST PUSH1 0x60 DUP1 PUSH0 PUSH1 0x60 DUP1 PUSH0 DUP1 PUSH0 DUP9 PUSH20 0xFFFFFFFFFFFFFFFFFFFFFFFFFFFFFFFFFFFFFFFF AND PUSH20 0xFFFFFFFFFFFFFFFFFFFFFFFFFFFFFFFFFFFFFFFF AND DUP2 MSTORE PUSH1 0x20 ADD SWAP1 DUP2 MSTORE PUSH1 0x20 ADD PUSH0 KECCAK256 PUSH1 0x40 MLOAD DUP1 PUSH1 0xA0 ADD PUSH1 0x40 MSTORE SWAP1 DUP2 PUSH0 DUP3 ADD DUP1 SLOAD PUSH2 0x27B SWAP1 PUSH2 0xE26 JUMP JUMPDEST DUP1 PUSH1 0x1F ADD PUSH1 0x20 DUP1 SWAP2 DIV MUL PUSH1 0x20 ADD PUSH1 0x40 MLOAD SWAP1 DUP2 ADD PUSH1 0x40 MSTORE DUP1 SWAP3 SWAP2 SWAP1 DUP2 DUP2 MSTORE PUSH1 0x20 ADD DUP3 DUP1 SLOAD PUSH2 0x2A7 SWAP1 PUSH2 0xE26 JUMP JUMPDEST DUP1 ISZERO PUSH2 0x2F2 JUMPI DUP1 PUSH1 0x1F LT PUSH2 0x2C9 JUMPI PUSH2 0x100 DUP1 DUP4 SLOAD DIV MUL DUP4 MSTORE SWAP2 PUSH1 0x20 ADD SWAP2 PUSH2 0x2F2 JUMP JUMPDEST DUP3 ADD SWAP2 SWAP1 PUSH0 MSTORE PUSH1 0x20 PUSH0 KECCAK256 SWAP1 JUMPDEST DUP2 SLOAD DUP2 MSTORE SWAP1 PUSH1 0x1 ADD SWAP1 PUSH1 0x20 ADD DUP1 DUP4 GT PUSH2 0x2D5 JUMPI DUP3 SWAP1 SUB PUSH1 0x1F AND DUP3 ADD SWAP2 JUMPDEST POP POP POP POP POP DUP2 MSTORE PUSH1 0x20 ADD PUSH1 0x1 DUP3 ADD DUP1 SLOAD PUSH2 0x30B SWAP1 PUSH2 0xE26 JUMP JUMPDEST DUP1 PUSH1 0x1F ADD PUSH1 0x20 DUP1 SWAP2 DIV MUL PUSH1 0x20 ADD PUSH1 0x40 MLOAD SWAP1 DUP2 ADD PUSH1 0x40 MSTORE DUP1 SWAP3 SWAP2 SWAP1 DUP2 DUP2 MSTORE PUSH1 0x20 ADD DUP3 DUP1 SLOAD PUSH2 0x337 SWAP1 PUSH2 0xE26 JUMP JUMPDEST DUP1 ISZERO PUSH2 0x382 JUMPI DUP1 PUSH1 0x1F LT PUSH2 0x359 JUMPI PUSH2 0x100 DUP1 DUP4 SLOAD DIV MUL DUP4 MSTORE SWAP2 PUSH1 0x20 ADD SWAP2 PUSH2 0x382 JUMP JUMPDEST DUP3 ADD SWAP2 SWAP1 PUSH0 MSTORE PUSH1 0x20 PUSH0 KECCAK256 SWAP1 JUMPDEST DUP2 SLOAD DUP2 MSTORE SWAP1 PUSH1 0x1 ADD SWAP1 PUSH1 0x20 ADD DUP1 DUP4 GT PUSH2 0x365 JUMPI DUP3 SWAP1 SUB PUSH1 0x1F AND DUP3 ADD SWAP2 JUMPDEST POP POP POP POP POP DUP2 MSTORE PUSH1 0x20 ADD PUSH1 0x2 DUP3 ADD SLOAD DUP2 MSTORE PUSH1 0x20 ADD PUSH1 0x3 DUP3 ADD DUP1 SLOAD DUP1 PUSH1 0x20 MUL PUSH1 0x20 ADD PUSH1 0x40 MLOAD SWAP1 DUP2 ADD PUSH1 0x40 MSTORE DUP1 SWAP3 SWAP2 SWAP1 DUP2 DUP2 MSTORE PUSH1 0x20 ADD PUSH0 SWAP1 JUMPDEST DUP3 DUP3 LT ISZERO PUSH2 0x461 JUMPI DUP4 DUP3 SWAP1 PUSH0 MSTORE PUSH1 0x20 PUSH0 KECCAK256 ADD DUP1 SLOAD PUSH2 0x3D6 SWAP1 PUSH2 0xE26 JUMP JUMPDEST DUP1 PUSH1 0x1F ADD PUSH1 0x20 DUP1 SWAP2 DIV MUL PUSH1 0x20 ADD PUSH1 0x40 MLOAD SWAP1 DUP2 ADD PUSH1 0x40 MSTORE DUP1 SWAP3 SWAP2 SWAP1 DUP2 DUP2 MSTORE PUSH1 0x20 ADD DUP3 DUP1 SLOAD PUSH2 0x402 SWAP1 PUSH2 0xE26 JUMP JUMPDEST DUP1 ISZERO PUSH2 0x44D JUMPI DUP1 PUSH1 0x1F LT PUSH2 0x424 JUMPI PUSH2 0x100 DUP1 DUP4 SLOAD DIV MUL DUP4 MSTORE SWAP2 PUSH1 0x20 ADD SWAP2 PUSH2 0x44D JUMP JUMPDEST DUP3 ADD SWAP2 SWAP1 PUSH0 MSTORE PUSH1 0x20 PUSH0 KECCAK256 SWAP1 JUMPDEST DUP2 SLOAD DUP2 MSTORE SWAP1 PUSH1 0x1 ADD SWAP1 PUSH1 0x20 ADD DUP1 DUP4 GT PUSH2 0x430 JUMPI DUP3 SWAP1 SUB PUSH1 0x1F AND DUP3 ADD SWAP2 JUMPDEST POP POP POP POP POP DUP2 MSTORE PUSH1 0x20 ADD SWAP1 PUSH1 0x1 ADD SWAP1 PUSH2 0x3B9 JUMP JUMPDEST POP POP POP POP DUP2 MSTORE PUSH1 0x20 ADD PUSH1 0x4 DUP3 ADD DUP1 SLOAD DUP1 PUSH1 0x20 MUL PUSH1 0x20 ADD PUSH1 0x40 MLOAD SWAP1 DUP2 ADD PUSH1 0x40 MSTORE DUP1 SWAP3 SWAP2 SWAP1 DUP2 DUP2 MSTORE PUSH1 0x20 ADD PUSH0 SWAP1 JUMPDEST DUP3 DUP3 LT ISZERO PUSH2 0x535 JUMPI DUP4 DUP3 SWAP1 PUSH0 MSTORE PUSH1 0x20 PUSH0 KECCAK256 ADD DUP1 SLOAD PUSH2 0x4AA SWAP1 PUSH2 0xE26 JUMP JUMPDEST DUP1 PUSH1 0x1F ADD PUSH1 0x20 DUP1 SWAP2 DIV MUL PUSH1 0x20 ADD PUSH1 0x40 MLOAD SWAP1 DUP2 ADD PUSH1 0x40 MSTORE DUP1 SWAP3 SWAP2 SWAP1 DUP2 DUP2 MSTORE PUSH1 0x20 ADD DUP3 DUP1 SLOAD PUSH2 0x4D6 SWAP1 PUSH2 0xE26 JUMP JUMPDEST DUP1 ISZERO PUSH2 0x521 JUMPI DUP1 PUSH1 0x1F LT PUSH2 0x4F8 JUMPI PUSH2 0x100 DUP1 DUP4 SLOAD DIV MUL DUP4 MSTORE SWAP2 PUSH1 0x20 ADD SWAP2 PUSH2 0x521 JUMP JUMPDEST DUP3 ADD SWAP2 SWAP1 PUSH0 MSTORE PUSH1 0x20 PUSH0 KECCAK256 SWAP1 JUMPDEST DUP2 SLOAD DUP2 MSTORE SWAP1 PUSH1 0x1 ADD SWAP1 PUSH1 0x20 ADD DUP1 DUP4 GT PUSH2 0x504 JUMPI DUP3 SWAP1 SUB PUSH1 0x1F AND DUP3 ADD SWAP2 JUMPDEST POP POP POP POP POP DUP2 MSTORE PUSH1 0x20 ADD SWAP1 PUSH1 0x1 ADD SWAP1 PUSH2 0x48D JUMP JUMPDEST POP POP POP POP DUP2 MSTORE POP POP SWAP1 POP DUP1 PUSH0 ADD MLOAD DUP2 PUSH1 0x20 ADD MLOAD DUP3 PUSH1 0x40 ADD MLOAD DUP4 PUSH1 0x60 ADD MLOAD DUP5 PUSH1 0x80 ADD MLOAD SWAP6 POP SWAP6 POP SWAP6 POP SWAP6 POP SWAP6 POP POP SWAP2 SWAP4 SWAP6 SWAP1 SWAP3 SWAP5 POP JUMP JUMPDEST PUSH0 PUSH1 0x40 MLOAD DUP1 PUSH1 0xA0 ADD PUSH1 0x40 MSTORE DUP1 DUP8 DUP2 MSTORE PUSH1 0x20 ADD DUP7 DUP2 MSTORE PUSH1 0x20 ADD DUP6 DUP2 MSTORE PUSH1 0x20 ADD DUP5 DUP2 MSTORE PUSH1 0x20 ADD DUP4 DUP2 MSTORE POP SWAP1 POP DUP1 PUSH0 DUP1 CALLER PUSH20 0xFFFFFFFFFFFFFFFFFFFFFFFFFFFFFFFFFFFFFFFF AND PUSH20 0xFFFFFFFFFFFFFFFFFFFFFFFFFFFFFFFFFFFFFFFF AND DUP2 MSTORE PUSH1 0x20 ADD SWAP1 DUP2 MSTORE PUSH1 0x20 ADD PUSH0 KECCAK256 PUSH0 DUP3 ADD MLOAD DUP2 PUSH0 ADD SWAP1 DUP2 PUSH2 0x5E5 SWAP2 SWAP1 PUSH2 0xFF3 JUMP JUMPDEST POP PUSH1 0x20 DUP3 ADD MLOAD DUP2 PUSH1 0x1 ADD SWAP1 DUP2 PUSH2 0x5FB SWAP2 SWAP1 PUSH2 0xFF3 JUMP JUMPDEST POP PUSH1 0x40 DUP3 ADD MLOAD DUP2 PUSH1 0x2 ADD SSTORE PUSH1 0x60 DUP3 ADD MLOAD DUP2 PUSH1 0x3 ADD SWAP1 DUP1 MLOAD SWAP1 PUSH1 0x20 ADD SWAP1 PUSH2 0x622 SWAP3 SWAP2 SWAP1 PUSH2 0x6C1 JUMP JUMPDEST POP PUSH1 0x80 DUP3 ADD MLOAD DUP2 PUSH1 0x4 ADD SWAP1 DUP1 MLOAD SWAP1 PUSH1 0x20 ADD SWAP1 PUSH2 0x63F SWAP3 SWAP2 SWAP1 PUSH2 0x6C1 JUMP JUMPDEST POP SWAP1 POP POP POP POP POP POP POP POP JUMP JUMPDEST PUSH0 DUP1 PUSH0 CALLER PUSH20 0xFFFFFFFFFFFFFFFFFFFFFFFFFFFFFFFFFFFFFFFF AND PUSH20 0xFFFFFFFFFFFFFFFFFFFFFFFFFFFFFFFFFFFFFFFF AND DUP2 MSTORE PUSH1 0x20 ADD SWAP1 DUP2 MSTORE PUSH1 0x20 ADD PUSH0 KECCAK256 SWAP1 POP DUP3 DUP2 PUSH1 0x3 ADD SWAP1 DUP1 MLOAD SWAP1 PUSH1 0x20 ADD SWAP1 PUSH2 0x6A2 SWAP3 SWAP2 SWAP1 PUSH2 0x6C1 JUMP JUMPDEST POP DUP2 DUP2 PUSH1 0x4 ADD SWAP1 DUP1 MLOAD SWAP1 PUSH1 0x20 ADD SWAP1 PUSH2 0x6BB SWAP3 SWAP2 SWAP1 PUSH2 0x6C1 JUMP JUMPDEST POP POP POP POP JUMP JUMPDEST DUP3 DUP1 SLOAD DUP3 DUP3 SSTORE SWAP1 PUSH0 MSTORE PUSH1 0x20 PUSH0 KECCAK256 SWAP1 DUP2 ADD SWAP3 DUP3 ISZERO PUSH2 0x707 JUMPI SWAP2 PUSH1 0x20 MUL DUP3 ADD JUMPDEST DUP3 DUP2 GT ISZERO PUSH2 0x706 JUMPI DUP3 MLOAD DUP3 SWAP1 DUP2 PUSH2 0x6F6 SWAP2 SWAP1 PUSH2 0xFF3 JUMP JUMPDEST POP SWAP2 PUSH1 0x20 ADD SWAP2 SWAP1 PUSH1 0x1 ADD SWAP1 PUSH2 0x6DF JUMP JUMPDEST JUMPDEST POP SWAP1 POP PUSH2 0x714 SWAP2 SWAP1 PUSH2 0x718 JUMP JUMPDEST POP SWAP1 JUMP JUMPDEST JUMPDEST DUP1 DUP3 GT ISZERO PUSH2 0x737 JUMPI PUSH0 DUP2 DUP2 PUSH2 0x72E SWAP2 SWAP1 PUSH2 0x73B JUMP JUMPDEST POP PUSH1 0x1 ADD PUSH2 0x719 JUMP JUMPDEST POP SWAP1 JUMP JUMPDEST POP DUP1 SLOAD PUSH2 0x747 SWAP1 PUSH2 0xE26 JUMP JUMPDEST PUSH0 DUP3 SSTORE DUP1 PUSH1 0x1F LT PUSH2 0x758 JUMPI POP PUSH2 0x775 JUMP JUMPDEST PUSH1 0x1F ADD PUSH1 0x20 SWAP1 DIV SWAP1 PUSH0 MSTORE PUSH1 0x20 PUSH0 KECCAK256 SWAP1 DUP2 ADD SWAP1 PUSH2 0x774 SWAP2 SWAP1 PUSH2 0x778 JUMP JUMPDEST JUMPDEST POP JUMP JUMPDEST JUMPDEST DUP1 DUP3 GT ISZERO PUSH2 0x78F JUMPI PUSH0 DUP2 PUSH0 SWAP1 SSTORE POP PUSH1 0x1 ADD PUSH2 0x779 JUMP JUMPDEST POP SWAP1 JUMP JUMPDEST PUSH0 PUSH1 0x40 MLOAD SWAP1 POP SWAP1 JUMP JUMPDEST PUSH0 DUP1 REVERT JUMPDEST PUSH0 DUP1 REVERT JUMPDEST PUSH0 PUSH20 0xFFFFFFFFFFFFFFFFFFFFFFFFFFFFFFFFFFFFFFFF DUP3 AND SWAP1 POP SWAP2 SWAP1 POP JUMP JUMPDEST PUSH0 PUSH2 0x7CD DUP3 PUSH2 0x7A4 JUMP JUMPDEST SWAP1 POP SWAP2 SWAP1 POP JUMP JUMPDEST PUSH2 0x7DD DUP2 PUSH2 0x7C3 JUMP JUMPDEST DUP2 EQ PUSH2 0x7E7 JUMPI PUSH0 DUP1 REVERT JUMPDEST POP JUMP JUMPDEST PUSH0 DUP2 CALLDATALOAD SWAP1 POP PUSH2 0x7F8 DUP2 PUSH2 0x7D4 JUMP JUMPDEST SWAP3 SWAP2 POP POP JUMP JUMPDEST PUSH0 PUSH1 0x20 DUP3 DUP5 SUB SLT ISZERO PUSH2 0x813 JUMPI PUSH2 0x812 PUSH2 0x79C JUMP JUMPDEST JUMPDEST PUSH0 PUSH2 0x820 DUP5 DUP3 DUP6 ADD PUSH2 0x7EA JUMP JUMPDEST SWAP2 POP POP SWAP3 SWAP2 POP POP JUMP JUMPDEST PUSH0 DUP2 MLOAD SWAP1 POP SWAP2 SWAP1 POP JUMP JUMPDEST PUSH0 DUP3 DUP3 MSTORE PUSH1 0x20 DUP3 ADD SWAP1 POP SWAP3 SWAP2 POP POP JUMP JUMPDEST DUP3 DUP2 DUP4 MCOPY PUSH0 DUP4 DUP4 ADD MSTORE POP POP POP JUMP JUMPDEST PUSH0 PUSH1 0x1F NOT PUSH1 0x1F DUP4 ADD AND SWAP1 POP SWAP2 SWAP1 POP JUMP JUMPDEST PUSH0 PUSH2 0x86B DUP3 PUSH2 0x829 JUMP JUMPDEST PUSH2 0x875 DUP2 DUP6 PUSH2 0x833 JUMP JUMPDEST SWAP4 POP PUSH2 0x885 DUP2 DUP6 PUSH1 0x20 DUP7 ADD PUSH2 0x843 JUMP JUMPDEST PUSH2 0x88E DUP2 PUSH2 0x851 JUMP JUMPDEST DUP5 ADD SWAP2 POP POP SWAP3 SWAP2 POP POP JUMP JUMPDEST PUSH0 DUP2 SWAP1 POP SWAP2 SWAP1 POP JUMP JUMPDEST PUSH2 0x8AB DUP2 PUSH2 0x899 JUMP JUMPDEST DUP3 MSTORE POP POP JUMP JUMPDEST PUSH0 PUSH1 0x60 DUP3 ADD SWAP1 POP DUP2 DUP2 SUB PUSH0 DUP4 ADD MSTORE PUSH2 0x8C9 DUP2 DUP7 PUSH2 0x861 JUMP JUMPDEST SWAP1 POP DUP2 DUP2 SUB PUSH1 0x20 DUP4 ADD MSTORE PUSH2 0x8DD DUP2 DUP6 PUSH2 0x861 JUMP JUMPDEST SWAP1 POP PUSH2 0x8EC PUSH1 0x40 DUP4 ADD DUP5 PUSH2 0x8A2 JUMP JUMPDEST SWAP5 SWAP4 POP POP POP POP JUMP JUMPDEST PUSH0 DUP2 MLOAD SWAP1 POP SWAP2 SWAP1 POP JUMP JUMPDEST PUSH0 DUP3 DUP3 MSTORE PUSH1 0x20 DUP3 ADD SWAP1 POP SWAP3 SWAP2 POP POP JUMP JUMPDEST PUSH0 DUP2 SWAP1 POP PUSH1 0x20 DUP3 ADD SWAP1 POP SWAP2 SWAP1 POP JUMP JUMPDEST PUSH0 DUP3 DUP3 MSTORE PUSH1 0x20 DUP3 ADD SWAP1 POP SWAP3 SWAP2 POP POP JUMP JUMPDEST PUSH0 PUSH2 0x937 DUP3 PUSH2 0x829 JUMP JUMPDEST PUSH2 0x941 DUP2 DUP6 PUSH2 0x91D JUMP JUMPDEST SWAP4 POP PUSH2 0x951 DUP2 DUP6 PUSH1 0x20 DUP7 ADD PUSH2 0x843 JUMP JUMPDEST PUSH2 0x95A DUP2 PUSH2 0x851 JUMP JUMPDEST DUP5 ADD SWAP2 POP POP SWAP3 SWAP2 POP POP JUMP JUMPDEST PUSH0 PUSH2 0x970 DUP4 DUP4 PUSH2 0x92D JUMP JUMPDEST SWAP1 POP SWAP3 SWAP2 POP POP JUMP JUMPDEST PUSH0 PUSH1 0x20 DUP3 ADD SWAP1 POP SWAP2 SWAP1 POP JUMP JUMPDEST PUSH0 PUSH2 0x98E DUP3 PUSH2 0x8F4 JUMP JUMPDEST PUSH2 0x998 DUP2 DUP6 PUSH2 0x8FE JUMP JUMPDEST SWAP4 POP DUP4 PUSH1 0x20 DUP3 MUL DUP6 ADD PUSH2 0x9AA DUP6 PUSH2 0x90E JUMP JUMPDEST DUP1 PUSH0 JUMPDEST DUP6 DUP2 LT ISZERO PUSH2 0x9E5 JUMPI DUP5 DUP5 SUB DUP10 MSTORE DUP2 MLOAD PUSH2 0x9C6 DUP6 DUP3 PUSH2 0x965 JUMP JUMPDEST SWAP5 POP PUSH2 0x9D1 DUP4 PUSH2 0x978 JUMP JUMPDEST SWAP3 POP PUSH1 0x20 DUP11 ADD SWAP10 POP POP PUSH1 0x1 DUP2 ADD SWAP1 POP PUSH2 0x9AD JUMP JUMPDEST POP DUP3 SWAP8 POP DUP8 SWAP6 POP POP POP POP POP POP SWAP3 SWAP2 POP POP JUMP JUMPDEST PUSH0 PUSH1 0xA0 DUP3 ADD SWAP1 POP DUP2 DUP2 SUB PUSH0 DUP4 ADD MSTORE PUSH2 0xA0F DUP2 DUP9 PUSH2 0x861 JUMP JUMPDEST SWAP1 POP DUP2 DUP2 SUB PUSH1 0x20 DUP4 ADD MSTORE PUSH2 0xA23 DUP2 DUP8 PUSH2 0x861 JUMP JUMPDEST SWAP1 POP PUSH2 0xA32 PUSH1 0x40 DUP4 ADD DUP7 PUSH2 0x8A2 JUMP JUMPDEST DUP2 DUP2 SUB PUSH1 0x60 DUP4 ADD MSTORE PUSH2 0xA44 DUP2 DUP6 PUSH2 0x984 JUMP JUMPDEST SWAP1 POP DUP2 DUP2 SUB PUSH1 0x80 DUP4 ADD MSTORE PUSH2 0xA58 DUP2 DUP5 PUSH2 0x984 JUMP JUMPDEST SWAP1 POP SWAP7 SWAP6 POP POP POP POP POP POP JUMP JUMPDEST PUSH0 DUP1 REVERT JUMPDEST PUSH0 DUP1 REVERT JUMPDEST PUSH32 0x4E487B7100000000000000000000000000000000000000000000000000000000 PUSH0 MSTORE PUSH1 0x41 PUSH1 0x4 MSTORE PUSH1 0x24 PUSH0 REVERT JUMPDEST PUSH2 0xAA2 DUP3 PUSH2 0x851 JUMP JUMPDEST DUP2 ADD DUP2 DUP2 LT PUSH8 0xFFFFFFFFFFFFFFFF DUP3 GT OR ISZERO PUSH2 0xAC1 JUMPI PUSH2 0xAC0 PUSH2 0xA6C JUMP JUMPDEST JUMPDEST DUP1 PUSH1 0x40 MSTORE POP POP POP JUMP JUMPDEST PUSH0 PUSH2 0xAD3 PUSH2 0x793 JUMP JUMPDEST SWAP1 POP PUSH2 0xADF DUP3 DUP3 PUSH2 0xA99 JUMP JUMPDEST SWAP2 SWAP1 POP JUMP JUMPDEST PUSH0 PUSH8 0xFFFFFFFFFFFFFFFF DUP3 GT ISZERO PUSH2 0xAFE JUMPI PUSH2 0xAFD PUSH2 0xA6C JUMP JUMPDEST JUMPDEST PUSH2 0xB07 DUP3 PUSH2 0x851 JUMP JUMPDEST SWAP1 POP PUSH1 0x20 DUP2 ADD SWAP1 POP SWAP2 SWAP1 POP JUMP JUMPDEST DUP3 DUP2 DUP4 CALLDATACOPY PUSH0 DUP4 DUP4 ADD MSTORE POP POP POP JUMP JUMPDEST PUSH0 PUSH2 0xB34 PUSH2 0xB2F DUP5 PUSH2 0xAE4 JUMP JUMPDEST PUSH2 0xACA JUMP JUMPDEST SWAP1 POP DUP3 DUP2 MSTORE PUSH1 0x20 DUP2 ADD DUP5 DUP5 DUP5 ADD GT ISZERO PUSH2 0xB50 JUMPI PUSH2 0xB4F PUSH2 0xA68 JUMP JUMPDEST JUMPDEST PUSH2 0xB5B DUP5 DUP3 DUP6 PUSH2 0xB14 JUMP JUMPDEST POP SWAP4 SWAP3 POP POP POP JUMP JUMPDEST PUSH0 DUP3 PUSH1 0x1F DUP4 ADD SLT PUSH2 0xB77 JUMPI PUSH2 0xB76 PUSH2 0xA64 JUMP JUMPDEST JUMPDEST DUP2 CALLDATALOAD PUSH2 0xB87 DUP5 DUP3 PUSH1 0x20 DUP7 ADD PUSH2 0xB22 JUMP JUMPDEST SWAP2 POP POP SWAP3 SWAP2 POP POP JUMP JUMPDEST PUSH2 0xB99 DUP2 PUSH2 0x899 JUMP JUMPDEST DUP2 EQ PUSH2 0xBA3 JUMPI PUSH0 DUP1 REVERT JUMPDEST POP JUMP JUMPDEST PUSH0 DUP2 CALLDATALOAD SWAP1 POP PUSH2 0xBB4 DUP2 PUSH2 0xB90 JUMP JUMPDEST SWAP3 SWAP2 POP POP JUMP JUMPDEST PUSH0 PUSH8 0xFFFFFFFFFFFFFFFF DUP3 GT ISZERO PUSH2 0xBD4 JUMPI PUSH2 0xBD3 PUSH2 0xA6C JUMP JUMPDEST JUMPDEST PUSH1 0x20 DUP3 MUL SWAP1 POP PUSH1 0x20 DUP2 ADD SWAP1 POP SWAP2 SWAP1 POP JUMP JUMPDEST PUSH0 DUP1 REVERT JUMPDEST PUSH0 PUSH2 0xBFB PUSH2 0xBF6 DUP5 PUSH2 0xBBA JUMP JUMPDEST PUSH2 0xACA JUMP JUMPDEST SWAP1 POP DUP1 DUP4 DUP3 MSTORE PUSH1 0x20 DUP3 ADD SWAP1 POP PUSH1 0x20 DUP5 MUL DUP4 ADD DUP6 DUP2 GT ISZERO PUSH2 0xC1E JUMPI PUSH2 0xC1D PUSH2 0xBE5 JUMP JUMPDEST JUMPDEST DUP4 JUMPDEST DUP2 DUP2 LT ISZERO PUSH2 0xC65 JUMPI DUP1 CALLDATALOAD PUSH8 0xFFFFFFFFFFFFFFFF DUP2 GT ISZERO PUSH2 0xC43 JUMPI PUSH2 0xC42 PUSH2 0xA64 JUMP JUMPDEST JUMPDEST DUP1 DUP7 ADD PUSH2 0xC50 DUP10 DUP3 PUSH2 0xB63 JUMP JUMPDEST DUP6 MSTORE PUSH1 0x20 DUP6 ADD SWAP5 POP POP POP PUSH1 0x20 DUP2 ADD SWAP1 POP PUSH2 0xC20 JUMP JUMPDEST POP POP POP SWAP4 SWAP3 POP POP POP JUMP JUMPDEST PUSH0 DUP3 PUSH1 0x1F DUP4 ADD SLT PUSH2 0xC83 JUMPI PUSH2 0xC82 PUSH2 0xA64 JUMP JUMPDEST JUMPDEST DUP2 CALLDATALOAD PUSH2 0xC93 DUP5 DUP3 PUSH1 0x20 DUP7 ADD PUSH2 0xBE9 JUMP JUMPDEST SWAP2 POP POP SWAP3 SWAP2 POP POP JUMP JUMPDEST PUSH0 DUP1 PUSH0 DUP1 PUSH0 PUSH1 0xA0 DUP7 DUP9 SUB SLT ISZERO PUSH2 0xCB5 JUMPI PUSH2 0xCB4 PUSH2 0x79C JUMP JUMPDEST JUMPDEST PUSH0 DUP7 ADD CALLDATALOAD PUSH8 0xFFFFFFFFFFFFFFFF DUP2 GT ISZERO PUSH2 0xCD2 JUMPI PUSH2 0xCD1 PUSH2 0x7A0 JUMP JUMPDEST JUMPDEST PUSH2 0xCDE DUP9 DUP3 DUP10 ADD PUSH2 0xB63 JUMP JUMPDEST SWAP6 POP POP PUSH1 0x20 DUP7 ADD CALLDATALOAD PUSH8 0xFFFFFFFFFFFFFFFF DUP2 GT ISZERO PUSH2 0xCFF JUMPI PUSH2 0xCFE PUSH2 0x7A0 JUMP JUMPDEST JUMPDEST PUSH2 0xD0B DUP9 DUP3 DUP10 ADD PUSH2 0xB63 JUMP JUMPDEST SWAP5 POP POP PUSH1 0x40 PUSH2 0xD1C DUP9 DUP3 DUP10 ADD PUSH2 0xBA6 JUMP JUMPDEST SWAP4 POP POP PUSH1 0x60 DUP7 ADD CALLDATALOAD PUSH8 0xFFFFFFFFFFFFFFFF DUP2 GT ISZERO PUSH2 0xD3D JUMPI PUSH2 0xD3C PUSH2 0x7A0 JUMP JUMPDEST JUMPDEST PUSH2 0xD49 DUP9 DUP3 DUP10 ADD PUSH2 0xC6F JUMP JUMPDEST SWAP3 POP POP PUSH1 0x80 DUP7 ADD CALLDATALOAD PUSH8 0xFFFFFFFFFFFFFFFF DUP2 GT ISZERO PUSH2 0xD6A JUMPI PUSH2 0xD69 PUSH2 0x7A0 JUMP JUMPDEST JUMPDEST PUSH2 0xD76 DUP9 DUP3 DUP10 ADD PUSH2 0xC6F JUMP JUMPDEST SWAP2 POP POP SWAP3 SWAP6 POP SWAP3 SWAP6 SWAP1 SWAP4 POP JUMP JUMPDEST PUSH0 DUP1 PUSH1 0x40 DUP4 DUP6 SUB SLT ISZERO PUSH2 0xD99 JUMPI PUSH2 0xD98 PUSH2 0x79C JUMP JUMPDEST JUMPDEST PUSH0 DUP4 ADD CALLDATALOAD PUSH8 0xFFFFFFFFFFFFFFFF DUP2 GT ISZERO PUSH2 0xDB6 JUMPI PUSH2 0xDB5 PUSH2 0x7A0 JUMP JUMPDEST JUMPDEST PUSH2 0xDC2 DUP6 DUP3 DUP7 ADD PUSH2 0xC6F JUMP JUMPDEST SWAP3 POP POP PUSH1 0x20 DUP4 ADD CALLDATALOAD PUSH8 0xFFFFFFFFFFFFFFFF DUP2 GT ISZERO PUSH2 0xDE3 JUMPI PUSH2 0xDE2 PUSH2 0x7A0 JUMP JUMPDEST JUMPDEST PUSH2 0xDEF DUP6 DUP3 DUP7 ADD PUSH2 0xC6F JUMP JUMPDEST SWAP2 POP POP SWAP3 POP SWAP3 SWAP1 POP JUMP JUMPDEST PUSH32 0x4E487B7100000000000000000000000000000000000000000000000000000000 PUSH0 MSTORE PUSH1 0x22 PUSH1 0x4 MSTORE PUSH1 0x24 PUSH0 REVERT JUMPDEST PUSH0 PUSH1 0x2 DUP3 DIV SWAP1 POP PUSH1 0x1 DUP3 AND DUP1 PUSH2 0xE3D JUMPI PUSH1 0x7F DUP3 AND SWAP2 POP JUMPDEST PUSH1 0x20 DUP3 LT DUP2 SUB PUSH2 0xE50 JUMPI PUSH2 0xE4F PUSH2 0xDF9 JUMP JUMPDEST JUMPDEST POP SWAP2 SWAP1 POP JUMP JUMPDEST PUSH0 DUP2 SWAP1 POP DUP2 PUSH0 MSTORE PUSH1 0x20 PUSH0 KECCAK256 SWAP1 POP SWAP2 SWAP1 POP JUMP JUMPDEST PUSH0 PUSH1 0x20 PUSH1 0x1F DUP4 ADD DIV SWAP1 POP SWAP2 SWAP1 POP JUMP JUMPDEST PUSH0 DUP3 DUP3 SHL SWAP1 POP SWAP3 SWAP2 POP POP JUMP JUMPDEST PUSH0 PUSH1 0x8 DUP4 MUL PUSH2 0xEB2 PUSH32 0xFFFFFFFFFFFFFFFFFFFFFFFFFFFFFFFFFFFFFFFFFFFFFFFFFFFFFFFFFFFFFFFF DUP3 PUSH2 0xE77 JUMP JUMPDEST PUSH2 0xEBC DUP7 DUP4 PUSH2 0xE77 JUMP JUMPDEST SWAP6 POP DUP1 NOT DUP5 AND SWAP4 POP DUP1 DUP7 AND DUP5 OR SWAP3 POP POP POP SWAP4 SWAP3 POP POP POP JUMP JUMPDEST PUSH0 DUP2 SWAP1 POP SWAP2 SWAP1 POP JUMP JUMPDEST PUSH0 PUSH2 0xEF7 PUSH2 0xEF2 PUSH2 0xEED DUP5 PUSH2 0x899 JUMP JUMPDEST PUSH2 0xED4 JUMP JUMPDEST PUSH2 0x899 JUMP JUMPDEST SWAP1 POP SWAP2 SWAP1 POP JUMP JUMPDEST PUSH0 DUP2 SWAP1 POP SWAP2 SWAP1 POP JUMP JUMPDEST PUSH2 0xF10 DUP4 PUSH2 0xEDD JUMP JUMPDEST PUSH2 0xF24 PUSH2 0xF1C DUP3 PUSH2 0xEFE JUMP JUMPDEST DUP5 DUP5 SLOAD PUSH2 0xE83 JUMP JUMPDEST DUP3 SSTORE POP POP POP POP JUMP JUMPDEST PUSH0 SWAP1 JUMP JUMPDEST PUSH2 0xF38 PUSH2 0xF2C JUMP JUMPDEST PUSH2 0xF43 DUP2 DUP5 DUP5 PUSH2 0xF07 JUMP JUMPDEST POP POP POP JUMP JUMPDEST JUMPDEST DUP2 DUP2 LT ISZERO PUSH2 0xF66 JUMPI PUSH2 0xF5B PUSH0 DUP3 PUSH2 0xF30 JUMP JUMPDEST PUSH1 0x1 DUP2 ADD SWAP1 POP PUSH2 0xF49 JUMP JUMPDEST POP POP JUMP JUMPDEST PUSH1 0x1F DUP3 GT ISZERO PUSH2 0xFAB JUMPI PUSH2 0xF7C DUP2 PUSH2 0xE56 JUMP JUMPDEST PUSH2 0xF85 DUP5 PUSH2 0xE68 JUMP JUMPDEST DUP2 ADD PUSH1 0x20 DUP6 LT ISZERO PUSH2 0xF94 JUMPI DUP2 SWAP1 POP JUMPDEST PUSH2 0xFA8 PUSH2 0xFA0 DUP6 PUSH2 0xE68 JUMP JUMPDEST DUP4 ADD DUP3 PUSH2 0xF48 JUMP JUMPDEST POP POP JUMPDEST POP POP POP JUMP JUMPDEST PUSH0 DUP3 DUP3 SHR SWAP1 POP SWAP3 SWAP2 POP POP JUMP JUMPDEST PUSH0 PUSH2 0xFCB PUSH0 NOT DUP5 PUSH1 0x8 MUL PUSH2 0xFB0 JUMP JUMPDEST NOT DUP1 DUP4 AND SWAP2 POP POP SWAP3 SWAP2 POP POP JUMP JUMPDEST PUSH0 PUSH2 0xFE3 DUP4 DUP4 PUSH2 0xFBC JUMP JUMPDEST SWAP2 POP DUP3 PUSH1 0x2 MUL DUP3 OR SWAP1 POP SWAP3 SWAP2 POP POP JUMP JUMPDEST PUSH2 0xFFC DUP3 PUSH2 0x829 JUMP JUMPDEST PUSH8 0xFFFFFFFFFFFFFFFF DUP2 GT ISZERO PUSH2 0x1015 JUMPI PUSH2 0x1014 PUSH2 0xA6C JUMP JUMPDEST JUMPDEST PUSH2 0x101F DUP3 SLOAD PUSH2 0xE26 JUMP JUMPDEST PUSH2 0x102A DUP3 DUP3 DUP6 PUSH2 0xF6A JUMP JUMPDEST PUSH0 PUSH1 0x20 SWAP1 POP PUSH1 0x1F DUP4 GT PUSH1 0x1 DUP2 EQ PUSH2 0x105B JUMPI PUSH0 DUP5 ISZERO PUSH2 0x1049 JUMPI DUP3 DUP8 ADD MLOAD SWAP1 POP JUMPDEST PUSH2 0x1053 DUP6 DUP3 PUSH2 0xFD8 JUMP JUMPDEST DUP7 SSTORE POP PUSH2 0x10BA JUMP JUMPDEST PUSH1 0x1F NOT DUP5 AND PUSH2 0x1069 DUP7 PUSH2 0xE56 JUMP JUMPDEST PUSH0 JUMPDEST DUP3 DUP2 LT ISZERO PUSH2 0x1090 JUMPI DUP5 DUP10 ADD MLOAD DUP3 SSTORE PUSH1 0x1 DUP3 ADD SWAP2 POP PUSH1 0x20 DUP6 ADD SWAP5 POP PUSH1 0x20 DUP2 ADD SWAP1 POP PUSH2 0x106B JUMP JUMPDEST DUP7 DUP4 LT ISZERO PUSH2 0x10AD JUMPI DUP5 DUP10 ADD MLOAD PUSH2 0x10A9 PUSH1 0x1F DUP10 AND DUP3 PUSH2 0xFBC JUMP JUMPDEST DUP4 SSTORE POP JUMPDEST PUSH1 0x1 PUSH1 0x2 DUP9 MUL ADD DUP9 SSTORE POP POP POP JUMPDEST POP POP POP POP POP POP JUMP INVALID LOG2 PUSH5 0x6970667358 0x22 SLT KECCAK256 0xA8 0xBE 0xEF EXTCODECOPY 0xE4 0xAD PUSH19 0x44219ABB18CA158DB9A9529E16E1AD50FFC2 DUP12 0xD1 PUSH18 0x9243D264736F6C634300081A003300000000 "
				},
				"gasEstimates": {
					"creation": {
						"codeDepositCost": "868800",
						"executionCost": "901",
						"totalCost": "869701"
					},
					"external": {
						"addPatient(string,string,uint256,string[],string[])": "infinite",
						"getPatientInfo(address)": "infinite",
						"patients(address)": "infinite",
						"updatePatient(string[],string[])": "infinite"
					}
				},
				"methodIdentifiers": {
					"addPatient(string,string,uint256,string[],string[])": "67cafcb8",
					"getPatientInfo(address)": "4b426178",
					"patients(address)": "0869cfbc",
					"updatePatient(string[],string[])": "7428c9e6"
				}
			},
			"storageLayout": {
				"storage": [
					{
						"astId": 19,
						"contract": "Learning Pth/ProjectMedicalEx.sol:MedicalData",
						"label": "patients",
						"offset": 0,
						"slot": "0",
						"type": "t_mapping(t_address,t_struct(Patient)14_storage)"
					}
				],
				"types": {
					"t_address": {
						"encoding": "inplace",
						"label": "address",
						"numberOfBytes": "20"
					},
					"t_array(t_string_storage)dyn_storage": {
						"base": "t_string_storage",
						"encoding": "dynamic_array",
						"label": "string[]",
						"numberOfBytes": "32"
					},
					"t_mapping(t_address,t_struct(Patient)14_storage)": {
						"encoding": "mapping",
						"key": "t_address",
						"label": "mapping(address => struct MedicalData.Patient)",
						"numberOfBytes": "32",
						"value": "t_struct(Patient)14_storage"
					},
					"t_string_storage": {
						"encoding": "bytes",
						"label": "string",
						"numberOfBytes": "32"
					},
					"t_struct(Patient)14_storage": {
						"encoding": "inplace",
						"label": "struct MedicalData.Patient",
						"members": [
							{
								"astId": 3,
								"contract": "Learning Pth/ProjectMedicalEx.sol:MedicalData",
								"label": "name",
								"offset": 0,
								"slot": "0",
								"type": "t_string_storage"
							},
							{
								"astId": 5,
								"contract": "Learning Pth/ProjectMedicalEx.sol:MedicalData",
								"label": "bloodType",
								"offset": 0,
								"slot": "1",
								"type": "t_string_storage"
							},
							{
								"astId": 7,
								"contract": "Learning Pth/ProjectMedicalEx.sol:MedicalData",
								"label": "age",
								"offset": 0,
								"slot": "2",
								"type": "t_uint256"
							},
							{
								"astId": 10,
								"contract": "Learning Pth/ProjectMedicalEx.sol:MedicalData",
								"label": "symptoms",
								"offset": 0,
								"slot": "3",
								"type": "t_array(t_string_storage)dyn_storage"
							},
							{
								"astId": 13,
								"contract": "Learning Pth/ProjectMedicalEx.sol:MedicalData",
								"label": "drugs",
								"offset": 0,
								"slot": "4",
								"type": "t_array(t_string_storage)dyn_storage"
							}
						],
						"numberOfBytes": "160"
					},
					"t_uint256": {
						"encoding": "inplace",
						"label": "uint256",
						"numberOfBytes": "32"
					}
				}
			},
			"userdoc": {
				"kind": "user",
				"methods": {},
				"version": 1
			}
		}
	}
}