{
	"Learning Pth/Modifier.sol": {
		"ModifierKeyword": {
			"abi": [
				{
					"inputs": [],
					"stateMutability": "nonpayable",
					"type": "constructor"
				},
				{
					"inputs": [
						{
							"internalType": "address",
							"name": "_newOwner",
							"type": "address"
						}
					],
					"name": "changeOwner",
					"outputs": [],
					"stateMutability": "nonpayable",
					"type": "function"
				},
				{
					"inputs": [
						{
							"internalType": "uint256",
							"name": "i",
							"type": "uint256"
						}
					],
					"name": "decrement",
					"outputs": [
						{
							"internalType": "uint256",
							"name": "",
							"type": "uint256"
						},
						{
							"internalType": "uint256",
							"name": "",
							"type": "uint256"
						}
					],
					"stateMutability": "nonpayable",
					"type": "function"
				},
				{
					"inputs": [],
					"name": "locked",
					"outputs": [
						{
							"internalType": "bool",
							"name": "",
							"type": "bool"
						}
					],
					"stateMutability": "view",
					"type": "function"
				},
				{
					"inputs": [],
					"name": "owner",
					"outputs": [
						{
							"internalType": "address",
							"name": "",
							"type": "address"
						}
					],
					"stateMutability": "view",
					"type": "function"
				},
				{
					"inputs": [],
					"name": "x",
					"outputs": [
						{
							"internalType": "uint256",
							"name": "",
							"type": "uint256"
						}
					],
					"stateMutability": "view",
					"type": "function"
				}
			],
			"devdoc": {
				"kind": "dev",
				"methods": {},
				"version": 1
			},
			"evm": {
				"assembly": "    /* \"Learning Pth/Modifier.sol\":61:989  contract ModifierKeyword {... */\n  mstore(0x40, 0x80)\n    /* \"Learning Pth/Modifier.sol\":212:214  10 */\n  0x0a\n    /* \"Learning Pth/Modifier.sol\":193:214  uint256 public x = 10 */\n  0x01\n  sstore\n    /* \"Learning Pth/Modifier.sol\":248:299  constructor() {... */\n  callvalue\n  dup1\n  iszero\n  tag_1\n  jumpi\n  0x00\n  dup1\n  revert\ntag_1:\n  pop\n    /* \"Learning Pth/Modifier.sol\":281:291  msg.sender */\n  caller\n    /* \"Learning Pth/Modifier.sol\":273:278  owner */\n  0x00\n  dup1\n    /* \"Learning Pth/Modifier.sol\":273:291  owner = msg.sender */\n  0x0100\n  exp\n  dup2\n  sload\n  dup2\n  0xffffffffffffffffffffffffffffffffffffffff\n  mul\n  not\n  and\n  swap1\n  dup4\n  0xffffffffffffffffffffffffffffffffffffffff\n  and\n  mul\n  or\n  swap1\n  sstore\n  pop\n    /* \"Learning Pth/Modifier.sol\":61:989  contract ModifierKeyword {... */\n  dataSize(sub_0)\n  dup1\n  dataOffset(sub_0)\n  0x00\n  codecopy\n  0x00\n  return\nstop\n\nsub_0: assembly {\n        /* \"Learning Pth/Modifier.sol\":61:989  contract ModifierKeyword {... */\n      mstore(0x40, 0x80)\n      callvalue\n      dup1\n      iszero\n      tag_1\n      jumpi\n      0x00\n      dup1\n      revert\n    tag_1:\n      pop\n      jumpi(tag_2, lt(calldatasize, 0x04))\n      shr(0xe0, calldataload(0x00))\n      dup1\n      0x0c55699c\n      eq\n      tag_3\n      jumpi\n      dup1\n      0x3a9ebefd\n      eq\n      tag_4\n      jumpi\n      dup1\n      0x8da5cb5b\n      eq\n      tag_5\n      jumpi\n      dup1\n      0xa6f9dae1\n      eq\n      tag_6\n      jumpi\n      dup1\n      0xcf309012\n      eq\n      tag_7\n      jumpi\n    tag_2:\n      0x00\n      dup1\n      revert\n        /* \"Learning Pth/Modifier.sol\":193:214  uint256 public x = 10 */\n    tag_3:\n      tag_8\n      tag_9\n      jump\t// in\n    tag_8:\n      mload(0x40)\n      tag_10\n      swap2\n      swap1\n      tag_11\n      jump\t// in\n    tag_10:\n      mload(0x40)\n      dup1\n      swap2\n      sub\n      swap1\n      return\n        /* \"Learning Pth/Modifier.sol\":803:986  function decrement(uint256 i) public noReentrancy returns(uint, uint){... */\n    tag_4:\n      tag_12\n      0x04\n      dup1\n      calldatasize\n      sub\n      dup2\n      add\n      swap1\n      tag_13\n      swap2\n      swap1\n      tag_14\n      jump\t// in\n    tag_13:\n      tag_15\n      jump\t// in\n    tag_12:\n      mload(0x40)\n      tag_16\n      swap3\n      swap2\n      swap1\n      tag_17\n      jump\t// in\n    tag_16:\n      mload(0x40)\n      dup1\n      swap2\n      sub\n      swap1\n      return\n        /* \"Learning Pth/Modifier.sol\":166:186  address public owner */\n    tag_5:\n      tag_18\n      tag_19\n      jump\t// in\n    tag_18:\n      mload(0x40)\n      tag_20\n      swap2\n      swap1\n      tag_21\n      jump\t// in\n    tag_20:\n      mload(0x40)\n      dup1\n      swap2\n      sub\n      swap1\n      return\n        /* \"Learning Pth/Modifier.sol\":533:650  function changeOwner(address _newOwner) public onlyOwner validateData(_newOwner) {... */\n    tag_6:\n      tag_22\n      0x04\n      dup1\n      calldatasize\n      sub\n      dup2\n      add\n      swap1\n      tag_23\n      swap2\n      swap1\n      tag_24\n      jump\t// in\n    tag_23:\n      tag_25\n      jump\t// in\n    tag_22:\n      stop\n        /* \"Learning Pth/Modifier.sol\":221:239  bool public locked */\n    tag_7:\n      tag_26\n      tag_27\n      jump\t// in\n    tag_26:\n      mload(0x40)\n      tag_28\n      swap2\n      swap1\n      tag_29\n      jump\t// in\n    tag_28:\n      mload(0x40)\n      dup1\n      swap2\n      sub\n      swap1\n      return\n        /* \"Learning Pth/Modifier.sol\":193:214  uint256 public x = 10 */\n    tag_9:\n      sload(0x01)\n      dup2\n      jump\t// out\n        /* \"Learning Pth/Modifier.sol\":803:986  function decrement(uint256 i) public noReentrancy returns(uint, uint){... */\n    tag_15:\n        /* \"Learning Pth/Modifier.sol\":861:865  uint */\n      0x00\n        /* \"Learning Pth/Modifier.sol\":867:871  uint */\n      dup1\n        /* \"Learning Pth/Modifier.sol\":702:708  locked */\n      0x02\n      0x00\n      swap1\n      sload\n      swap1\n      0x0100\n      exp\n      swap1\n      div\n      0xff\n      and\n        /* \"Learning Pth/Modifier.sol\":701:708  !locked */\n      iszero\n        /* \"Learning Pth/Modifier.sol\":693:726  require(!locked, \"No reentrancy\") */\n      tag_31\n      jumpi\n      mload(0x40)\n      0x08c379a000000000000000000000000000000000000000000000000000000000\n      dup2\n      mstore\n      0x04\n      add\n      tag_32\n      swap1\n      tag_33\n      jump\t// in\n    tag_32:\n      mload(0x40)\n      dup1\n      swap2\n      sub\n      swap1\n      revert\n    tag_31:\n        /* \"Learning Pth/Modifier.sol\":746:750  true */\n      0x01\n        /* \"Learning Pth/Modifier.sol\":737:743  locked */\n      0x02\n      0x00\n        /* \"Learning Pth/Modifier.sol\":737:750  locked = true */\n      0x0100\n      exp\n      dup2\n      sload\n      dup2\n      0xff\n      mul\n      not\n      and\n      swap1\n      dup4\n      iszero\n      iszero\n      mul\n      or\n      swap1\n      sstore\n      pop\n        /* \"Learning Pth/Modifier.sol\":888:889  1 */\n      0x01\n        /* \"Learning Pth/Modifier.sol\":883:884  x */\n      dup1\n      0x00\n        /* \"Learning Pth/Modifier.sol\":883:889  x -= 1 */\n      dup3\n      dup3\n      sload\n      tag_35\n      swap2\n      swap1\n      tag_36\n      jump\t// in\n    tag_35:\n      swap3\n      pop\n      pop\n      dup2\n      swap1\n      sstore\n      pop\n        /* \"Learning Pth/Modifier.sol\":908:909  1 */\n      0x01\n        /* \"Learning Pth/Modifier.sol\":904:905  i */\n      dup4\n        /* \"Learning Pth/Modifier.sol\":904:909  i > 1 */\n      gt\n        /* \"Learning Pth/Modifier.sol\":900:954  if (i > 1) {... */\n      iszero\n      tag_37\n      jumpi\n        /* \"Learning Pth/Modifier.sol\":926:942  decrement(i - 1) */\n      tag_38\n        /* \"Learning Pth/Modifier.sol\":940:941  1 */\n      0x01\n        /* \"Learning Pth/Modifier.sol\":936:937  i */\n      dup5\n        /* \"Learning Pth/Modifier.sol\":936:941  i - 1 */\n      tag_39\n      swap2\n      swap1\n      tag_36\n      jump\t// in\n    tag_39:\n        /* \"Learning Pth/Modifier.sol\":926:935  decrement */\n      tag_15\n        /* \"Learning Pth/Modifier.sol\":926:942  decrement(i - 1) */\n      jump\t// in\n    tag_38:\n      pop\n      pop\n        /* \"Learning Pth/Modifier.sol\":900:954  if (i > 1) {... */\n    tag_37:\n        /* \"Learning Pth/Modifier.sol\":973:974  i */\n      dup3\n        /* \"Learning Pth/Modifier.sol\":976:977  x */\n      sload(0x01)\n        /* \"Learning Pth/Modifier.sol\":965:978  return (i, x) */\n      swap2\n      pop\n      swap2\n      pop\n        /* \"Learning Pth/Modifier.sol\":782:787  false */\n      0x00\n        /* \"Learning Pth/Modifier.sol\":773:779  locked */\n      0x02\n      0x00\n        /* \"Learning Pth/Modifier.sol\":773:787  locked = false */\n      0x0100\n      exp\n      dup2\n      sload\n      dup2\n      0xff\n      mul\n      not\n      and\n      swap1\n      dup4\n      iszero\n      iszero\n      mul\n      or\n      swap1\n      sstore\n      pop\n        /* \"Learning Pth/Modifier.sol\":803:986  function decrement(uint256 i) public noReentrancy returns(uint, uint){... */\n      swap2\n      pop\n      swap2\n      jump\t// out\n        /* \"Learning Pth/Modifier.sol\":166:186  address public owner */\n    tag_19:\n      0x00\n      dup1\n      sload\n      swap1\n      0x0100\n      exp\n      swap1\n      div\n      0xffffffffffffffffffffffffffffffffffffffff\n      and\n      dup2\n      jump\t// out\n        /* \"Learning Pth/Modifier.sol\":533:650  function changeOwner(address _newOwner) public onlyOwner validateData(_newOwner) {... */\n    tag_25:\n        /* \"Learning Pth/Modifier.sol\":361:366  owner */\n      0x00\n      dup1\n      sload\n      swap1\n      0x0100\n      exp\n      swap1\n      div\n      0xffffffffffffffffffffffffffffffffffffffff\n      and\n        /* \"Learning Pth/Modifier.sol\":347:366  msg.sender == owner */\n      0xffffffffffffffffffffffffffffffffffffffff\n      and\n        /* \"Learning Pth/Modifier.sol\":347:357  msg.sender */\n      caller\n        /* \"Learning Pth/Modifier.sol\":347:366  msg.sender == owner */\n      0xffffffffffffffffffffffffffffffffffffffff\n      and\n      eq\n        /* \"Learning Pth/Modifier.sol\":339:380  require(msg.sender == owner, \"Not owner\") */\n      tag_41\n      jumpi\n      mload(0x40)\n      0x08c379a000000000000000000000000000000000000000000000000000000000\n      dup2\n      mstore\n      0x04\n      add\n      tag_42\n      swap1\n      tag_43\n      jump\t// in\n    tag_42:\n      mload(0x40)\n      dup1\n      swap2\n      sub\n      swap1\n      revert\n    tag_41:\n        /* \"Learning Pth/Modifier.sol\":603:612  _newOwner */\n      dup1\n        /* \"Learning Pth/Modifier.sol\":481:482  0 */\n      0x00\n        /* \"Learning Pth/Modifier.sol\":464:483  _addr != address(0) */\n      0xffffffffffffffffffffffffffffffffffffffff\n      and\n        /* \"Learning Pth/Modifier.sol\":464:469  _addr */\n      dup2\n        /* \"Learning Pth/Modifier.sol\":464:483  _addr != address(0) */\n      0xffffffffffffffffffffffffffffffffffffffff\n      and\n      sub\n        /* \"Learning Pth/Modifier.sol\":456:505  require(_addr != address(0), \"Not valid address\") */\n      tag_45\n      jumpi\n      mload(0x40)\n      0x08c379a000000000000000000000000000000000000000000000000000000000\n      dup2\n      mstore\n      0x04\n      add\n      tag_46\n      swap1\n      tag_47\n      jump\t// in\n    tag_46:\n      mload(0x40)\n      dup1\n      swap2\n      sub\n      swap1\n      revert\n    tag_45:\n        /* \"Learning Pth/Modifier.sol\":633:642  _newOwner */\n      dup2\n        /* \"Learning Pth/Modifier.sol\":625:630  owner */\n      0x00\n      dup1\n        /* \"Learning Pth/Modifier.sol\":625:642  owner = _newOwner */\n      0x0100\n      exp\n      dup2\n      sload\n      dup2\n      0xffffffffffffffffffffffffffffffffffffffff\n      mul\n      not\n      and\n      swap1\n      dup4\n      0xffffffffffffffffffffffffffffffffffffffff\n      and\n      mul\n      or\n      swap1\n      sstore\n      pop\n        /* \"Learning Pth/Modifier.sol\":391:392  _ */\n      pop\n        /* \"Learning Pth/Modifier.sol\":533:650  function changeOwner(address _newOwner) public onlyOwner validateData(_newOwner) {... */\n      pop\n      jump\t// out\n        /* \"Learning Pth/Modifier.sol\":221:239  bool public locked */\n    tag_27:\n      0x02\n      0x00\n      swap1\n      sload\n      swap1\n      0x0100\n      exp\n      swap1\n      div\n      0xff\n      and\n      dup2\n      jump\t// out\n        /* \"#utility.yul\":7:84   */\n    tag_49:\n        /* \"#utility.yul\":44:51   */\n      0x00\n        /* \"#utility.yul\":73:78   */\n      dup2\n        /* \"#utility.yul\":62:78   */\n      swap1\n      pop\n        /* \"#utility.yul\":7:84   */\n      swap2\n      swap1\n      pop\n      jump\t// out\n        /* \"#utility.yul\":90:208   */\n    tag_50:\n        /* \"#utility.yul\":177:201   */\n      tag_74\n        /* \"#utility.yul\":195:200   */\n      dup2\n        /* \"#utility.yul\":177:201   */\n      tag_49\n      jump\t// in\n    tag_74:\n        /* \"#utility.yul\":172:175   */\n      dup3\n        /* \"#utility.yul\":165:202   */\n      mstore\n        /* \"#utility.yul\":90:208   */\n      pop\n      pop\n      jump\t// out\n        /* \"#utility.yul\":214:436   */\n    tag_11:\n        /* \"#utility.yul\":307:311   */\n      0x00\n        /* \"#utility.yul\":345:347   */\n      0x20\n        /* \"#utility.yul\":334:343   */\n      dup3\n        /* \"#utility.yul\":330:348   */\n      add\n        /* \"#utility.yul\":322:348   */\n      swap1\n      pop\n        /* \"#utility.yul\":358:429   */\n      tag_76\n        /* \"#utility.yul\":426:427   */\n      0x00\n        /* \"#utility.yul\":415:424   */\n      dup4\n        /* \"#utility.yul\":411:428   */\n      add\n        /* \"#utility.yul\":402:408   */\n      dup5\n        /* \"#utility.yul\":358:429   */\n      tag_50\n      jump\t// in\n    tag_76:\n        /* \"#utility.yul\":214:436   */\n      swap3\n      swap2\n      pop\n      pop\n      jump\t// out\n        /* \"#utility.yul\":523:640   */\n    tag_52:\n        /* \"#utility.yul\":632:633   */\n      0x00\n        /* \"#utility.yul\":629:630   */\n      dup1\n        /* \"#utility.yul\":622:634   */\n      revert\n        /* \"#utility.yul\":769:891   */\n    tag_54:\n        /* \"#utility.yul\":842:866   */\n      tag_81\n        /* \"#utility.yul\":860:865   */\n      dup2\n        /* \"#utility.yul\":842:866   */\n      tag_49\n      jump\t// in\n    tag_81:\n        /* \"#utility.yul\":835:840   */\n      dup2\n        /* \"#utility.yul\":832:867   */\n      eq\n        /* \"#utility.yul\":822:885   */\n      tag_82\n      jumpi\n        /* \"#utility.yul\":881:882   */\n      0x00\n        /* \"#utility.yul\":878:879   */\n      dup1\n        /* \"#utility.yul\":871:883   */\n      revert\n        /* \"#utility.yul\":822:885   */\n    tag_82:\n        /* \"#utility.yul\":769:891   */\n      pop\n      jump\t// out\n        /* \"#utility.yul\":897:1036   */\n    tag_55:\n        /* \"#utility.yul\":943:948   */\n      0x00\n        /* \"#utility.yul\":981:987   */\n      dup2\n        /* \"#utility.yul\":968:988   */\n      calldataload\n        /* \"#utility.yul\":959:988   */\n      swap1\n      pop\n        /* \"#utility.yul\":997:1030   */\n      tag_84\n        /* \"#utility.yul\":1024:1029   */\n      dup2\n        /* \"#utility.yul\":997:1030   */\n      tag_54\n      jump\t// in\n    tag_84:\n        /* \"#utility.yul\":897:1036   */\n      swap3\n      swap2\n      pop\n      pop\n      jump\t// out\n        /* \"#utility.yul\":1042:1371   */\n    tag_14:\n        /* \"#utility.yul\":1101:1107   */\n      0x00\n        /* \"#utility.yul\":1150:1152   */\n      0x20\n        /* \"#utility.yul\":1138:1147   */\n      dup3\n        /* \"#utility.yul\":1129:1136   */\n      dup5\n        /* \"#utility.yul\":1125:1148   */\n      sub\n        /* \"#utility.yul\":1121:1153   */\n      slt\n        /* \"#utility.yul\":1118:1237   */\n      iszero\n      tag_86\n      jumpi\n        /* \"#utility.yul\":1156:1235   */\n      tag_87\n      tag_52\n      jump\t// in\n    tag_87:\n        /* \"#utility.yul\":1118:1237   */\n    tag_86:\n        /* \"#utility.yul\":1276:1277   */\n      0x00\n        /* \"#utility.yul\":1301:1354   */\n      tag_88\n        /* \"#utility.yul\":1346:1353   */\n      dup5\n        /* \"#utility.yul\":1337:1343   */\n      dup3\n        /* \"#utility.yul\":1326:1335   */\n      dup6\n        /* \"#utility.yul\":1322:1344   */\n      add\n        /* \"#utility.yul\":1301:1354   */\n      tag_55\n      jump\t// in\n    tag_88:\n        /* \"#utility.yul\":1291:1354   */\n      swap2\n      pop\n        /* \"#utility.yul\":1247:1364   */\n      pop\n        /* \"#utility.yul\":1042:1371   */\n      swap3\n      swap2\n      pop\n      pop\n      jump\t// out\n        /* \"#utility.yul\":1377:1709   */\n    tag_17:\n        /* \"#utility.yul\":1498:1502   */\n      0x00\n        /* \"#utility.yul\":1536:1538   */\n      0x40\n        /* \"#utility.yul\":1525:1534   */\n      dup3\n        /* \"#utility.yul\":1521:1539   */\n      add\n        /* \"#utility.yul\":1513:1539   */\n      swap1\n      pop\n        /* \"#utility.yul\":1549:1620   */\n      tag_90\n        /* \"#utility.yul\":1617:1618   */\n      0x00\n        /* \"#utility.yul\":1606:1615   */\n      dup4\n        /* \"#utility.yul\":1602:1619   */\n      add\n        /* \"#utility.yul\":1593:1599   */\n      dup6\n        /* \"#utility.yul\":1549:1620   */\n      tag_50\n      jump\t// in\n    tag_90:\n        /* \"#utility.yul\":1630:1702   */\n      tag_91\n        /* \"#utility.yul\":1698:1700   */\n      0x20\n        /* \"#utility.yul\":1687:1696   */\n      dup4\n        /* \"#utility.yul\":1683:1701   */\n      add\n        /* \"#utility.yul\":1674:1680   */\n      dup5\n        /* \"#utility.yul\":1630:1702   */\n      tag_50\n      jump\t// in\n    tag_91:\n        /* \"#utility.yul\":1377:1709   */\n      swap4\n      swap3\n      pop\n      pop\n      pop\n      jump\t// out\n        /* \"#utility.yul\":1715:1841   */\n    tag_56:\n        /* \"#utility.yul\":1752:1759   */\n      0x00\n        /* \"#utility.yul\":1792:1834   */\n      0xffffffffffffffffffffffffffffffffffffffff\n        /* \"#utility.yul\":1785:1790   */\n      dup3\n        /* \"#utility.yul\":1781:1835   */\n      and\n        /* \"#utility.yul\":1770:1835   */\n      swap1\n      pop\n        /* \"#utility.yul\":1715:1841   */\n      swap2\n      swap1\n      pop\n      jump\t// out\n        /* \"#utility.yul\":1847:1943   */\n    tag_57:\n        /* \"#utility.yul\":1884:1891   */\n      0x00\n        /* \"#utility.yul\":1913:1937   */\n      tag_94\n        /* \"#utility.yul\":1931:1936   */\n      dup3\n        /* \"#utility.yul\":1913:1937   */\n      tag_56\n      jump\t// in\n    tag_94:\n        /* \"#utility.yul\":1902:1937   */\n      swap1\n      pop\n        /* \"#utility.yul\":1847:1943   */\n      swap2\n      swap1\n      pop\n      jump\t// out\n        /* \"#utility.yul\":1949:2067   */\n    tag_58:\n        /* \"#utility.yul\":2036:2060   */\n      tag_96\n        /* \"#utility.yul\":2054:2059   */\n      dup2\n        /* \"#utility.yul\":2036:2060   */\n      tag_57\n      jump\t// in\n    tag_96:\n        /* \"#utility.yul\":2031:2034   */\n      dup3\n        /* \"#utility.yul\":2024:2061   */\n      mstore\n        /* \"#utility.yul\":1949:2067   */\n      pop\n      pop\n      jump\t// out\n        /* \"#utility.yul\":2073:2295   */\n    tag_21:\n        /* \"#utility.yul\":2166:2170   */\n      0x00\n        /* \"#utility.yul\":2204:2206   */\n      0x20\n        /* \"#utility.yul\":2193:2202   */\n      dup3\n        /* \"#utility.yul\":2189:2207   */\n      add\n        /* \"#utility.yul\":2181:2207   */\n      swap1\n      pop\n        /* \"#utility.yul\":2217:2288   */\n      tag_98\n        /* \"#utility.yul\":2285:2286   */\n      0x00\n        /* \"#utility.yul\":2274:2283   */\n      dup4\n        /* \"#utility.yul\":2270:2287   */\n      add\n        /* \"#utility.yul\":2261:2267   */\n      dup5\n        /* \"#utility.yul\":2217:2288   */\n      tag_58\n      jump\t// in\n    tag_98:\n        /* \"#utility.yul\":2073:2295   */\n      swap3\n      swap2\n      pop\n      pop\n      jump\t// out\n        /* \"#utility.yul\":2301:2423   */\n    tag_59:\n        /* \"#utility.yul\":2374:2398   */\n      tag_100\n        /* \"#utility.yul\":2392:2397   */\n      dup2\n        /* \"#utility.yul\":2374:2398   */\n      tag_57\n      jump\t// in\n    tag_100:\n        /* \"#utility.yul\":2367:2372   */\n      dup2\n        /* \"#utility.yul\":2364:2399   */\n      eq\n        /* \"#utility.yul\":2354:2417   */\n      tag_101\n      jumpi\n        /* \"#utility.yul\":2413:2414   */\n      0x00\n        /* \"#utility.yul\":2410:2411   */\n      dup1\n        /* \"#utility.yul\":2403:2415   */\n      revert\n        /* \"#utility.yul\":2354:2417   */\n    tag_101:\n        /* \"#utility.yul\":2301:2423   */\n      pop\n      jump\t// out\n        /* \"#utility.yul\":2429:2568   */\n    tag_60:\n        /* \"#utility.yul\":2475:2480   */\n      0x00\n        /* \"#utility.yul\":2513:2519   */\n      dup2\n        /* \"#utility.yul\":2500:2520   */\n      calldataload\n        /* \"#utility.yul\":2491:2520   */\n      swap1\n      pop\n        /* \"#utility.yul\":2529:2562   */\n      tag_103\n        /* \"#utility.yul\":2556:2561   */\n      dup2\n        /* \"#utility.yul\":2529:2562   */\n      tag_59\n      jump\t// in\n    tag_103:\n        /* \"#utility.yul\":2429:2568   */\n      swap3\n      swap2\n      pop\n      pop\n      jump\t// out\n        /* \"#utility.yul\":2574:2903   */\n    tag_24:\n        /* \"#utility.yul\":2633:2639   */\n      0x00\n        /* \"#utility.yul\":2682:2684   */\n      0x20\n        /* \"#utility.yul\":2670:2679   */\n      dup3\n        /* \"#utility.yul\":2661:2668   */\n      dup5\n        /* \"#utility.yul\":2657:2680   */\n      sub\n        /* \"#utility.yul\":2653:2685   */\n      slt\n        /* \"#utility.yul\":2650:2769   */\n      iszero\n      tag_105\n      jumpi\n        /* \"#utility.yul\":2688:2767   */\n      tag_106\n      tag_52\n      jump\t// in\n    tag_106:\n        /* \"#utility.yul\":2650:2769   */\n    tag_105:\n        /* \"#utility.yul\":2808:2809   */\n      0x00\n        /* \"#utility.yul\":2833:2886   */\n      tag_107\n        /* \"#utility.yul\":2878:2885   */\n      dup5\n        /* \"#utility.yul\":2869:2875   */\n      dup3\n        /* \"#utility.yul\":2858:2867   */\n      dup6\n        /* \"#utility.yul\":2854:2876   */\n      add\n        /* \"#utility.yul\":2833:2886   */\n      tag_60\n      jump\t// in\n    tag_107:\n        /* \"#utility.yul\":2823:2886   */\n      swap2\n      pop\n        /* \"#utility.yul\":2779:2896   */\n      pop\n        /* \"#utility.yul\":2574:2903   */\n      swap3\n      swap2\n      pop\n      pop\n      jump\t// out\n        /* \"#utility.yul\":2909:2999   */\n    tag_61:\n        /* \"#utility.yul\":2943:2950   */\n      0x00\n        /* \"#utility.yul\":2986:2991   */\n      dup2\n        /* \"#utility.yul\":2979:2992   */\n      iszero\n        /* \"#utility.yul\":2972:2993   */\n      iszero\n        /* \"#utility.yul\":2961:2993   */\n      swap1\n      pop\n        /* \"#utility.yul\":2909:2999   */\n      swap2\n      swap1\n      pop\n      jump\t// out\n        /* \"#utility.yul\":3005:3114   */\n    tag_62:\n        /* \"#utility.yul\":3086:3107   */\n      tag_110\n        /* \"#utility.yul\":3101:3106   */\n      dup2\n        /* \"#utility.yul\":3086:3107   */\n      tag_61\n      jump\t// in\n    tag_110:\n        /* \"#utility.yul\":3081:3084   */\n      dup3\n        /* \"#utility.yul\":3074:3108   */\n      mstore\n        /* \"#utility.yul\":3005:3114   */\n      pop\n      pop\n      jump\t// out\n        /* \"#utility.yul\":3120:3330   */\n    tag_29:\n        /* \"#utility.yul\":3207:3211   */\n      0x00\n        /* \"#utility.yul\":3245:3247   */\n      0x20\n        /* \"#utility.yul\":3234:3243   */\n      dup3\n        /* \"#utility.yul\":3230:3248   */\n      add\n        /* \"#utility.yul\":3222:3248   */\n      swap1\n      pop\n        /* \"#utility.yul\":3258:3323   */\n      tag_112\n        /* \"#utility.yul\":3320:3321   */\n      0x00\n        /* \"#utility.yul\":3309:3318   */\n      dup4\n        /* \"#utility.yul\":3305:3322   */\n      add\n        /* \"#utility.yul\":3296:3302   */\n      dup5\n        /* \"#utility.yul\":3258:3323   */\n      tag_62\n      jump\t// in\n    tag_112:\n        /* \"#utility.yul\":3120:3330   */\n      swap3\n      swap2\n      pop\n      pop\n      jump\t// out\n        /* \"#utility.yul\":3336:3505   */\n    tag_63:\n        /* \"#utility.yul\":3420:3431   */\n      0x00\n        /* \"#utility.yul\":3454:3460   */\n      dup3\n        /* \"#utility.yul\":3449:3452   */\n      dup3\n        /* \"#utility.yul\":3442:3461   */\n      mstore\n        /* \"#utility.yul\":3494:3498   */\n      0x20\n        /* \"#utility.yul\":3489:3492   */\n      dup3\n        /* \"#utility.yul\":3485:3499   */\n      add\n        /* \"#utility.yul\":3470:3499   */\n      swap1\n      pop\n        /* \"#utility.yul\":3336:3505   */\n      swap3\n      swap2\n      pop\n      pop\n      jump\t// out\n        /* \"#utility.yul\":3511:3674   */\n    tag_64:\n        /* \"#utility.yul\":3651:3666   */\n      0x4e6f207265656e7472616e637900000000000000000000000000000000000000\n        /* \"#utility.yul\":3647:3648   */\n      0x00\n        /* \"#utility.yul\":3639:3645   */\n      dup3\n        /* \"#utility.yul\":3635:3649   */\n      add\n        /* \"#utility.yul\":3628:3667   */\n      mstore\n        /* \"#utility.yul\":3511:3674   */\n      pop\n      jump\t// out\n        /* \"#utility.yul\":3680:4046   */\n    tag_65:\n        /* \"#utility.yul\":3822:3825   */\n      0x00\n        /* \"#utility.yul\":3843:3910   */\n      tag_116\n        /* \"#utility.yul\":3907:3909   */\n      0x0d\n        /* \"#utility.yul\":3902:3905   */\n      dup4\n        /* \"#utility.yul\":3843:3910   */\n      tag_63\n      jump\t// in\n    tag_116:\n        /* \"#utility.yul\":3836:3910   */\n      swap2\n      pop\n        /* \"#utility.yul\":3919:4012   */\n      tag_117\n        /* \"#utility.yul\":4008:4011   */\n      dup3\n        /* \"#utility.yul\":3919:4012   */\n      tag_64\n      jump\t// in\n    tag_117:\n        /* \"#utility.yul\":4037:4039   */\n      0x20\n        /* \"#utility.yul\":4032:4035   */\n      dup3\n        /* \"#utility.yul\":4028:4040   */\n      add\n        /* \"#utility.yul\":4021:4040   */\n      swap1\n      pop\n        /* \"#utility.yul\":3680:4046   */\n      swap2\n      swap1\n      pop\n      jump\t// out\n        /* \"#utility.yul\":4052:4471   */\n    tag_33:\n        /* \"#utility.yul\":4218:4222   */\n      0x00\n        /* \"#utility.yul\":4256:4258   */\n      0x20\n        /* \"#utility.yul\":4245:4254   */\n      dup3\n        /* \"#utility.yul\":4241:4259   */\n      add\n        /* \"#utility.yul\":4233:4259   */\n      swap1\n      pop\n        /* \"#utility.yul\":4305:4314   */\n      dup2\n        /* \"#utility.yul\":4299:4303   */\n      dup2\n        /* \"#utility.yul\":4295:4315   */\n      sub\n        /* \"#utility.yul\":4291:4292   */\n      0x00\n        /* \"#utility.yul\":4280:4289   */\n      dup4\n        /* \"#utility.yul\":4276:4293   */\n      add\n        /* \"#utility.yul\":4269:4316   */\n      mstore\n        /* \"#utility.yul\":4333:4464   */\n      tag_119\n        /* \"#utility.yul\":4459:4463   */\n      dup2\n        /* \"#utility.yul\":4333:4464   */\n      tag_65\n      jump\t// in\n    tag_119:\n        /* \"#utility.yul\":4325:4464   */\n      swap1\n      pop\n        /* \"#utility.yul\":4052:4471   */\n      swap2\n      swap1\n      pop\n      jump\t// out\n        /* \"#utility.yul\":4477:4657   */\n    tag_66:\n        /* \"#utility.yul\":4525:4602   */\n      0x4e487b7100000000000000000000000000000000000000000000000000000000\n        /* \"#utility.yul\":4522:4523   */\n      0x00\n        /* \"#utility.yul\":4515:4603   */\n      mstore\n        /* \"#utility.yul\":4622:4626   */\n      0x11\n        /* \"#utility.yul\":4619:4620   */\n      0x04\n        /* \"#utility.yul\":4612:4627   */\n      mstore\n        /* \"#utility.yul\":4646:4650   */\n      0x24\n        /* \"#utility.yul\":4643:4644   */\n      0x00\n        /* \"#utility.yul\":4636:4651   */\n      revert\n        /* \"#utility.yul\":4663:4857   */\n    tag_36:\n        /* \"#utility.yul\":4703:4707   */\n      0x00\n        /* \"#utility.yul\":4723:4743   */\n      tag_122\n        /* \"#utility.yul\":4741:4742   */\n      dup3\n        /* \"#utility.yul\":4723:4743   */\n      tag_49\n      jump\t// in\n    tag_122:\n        /* \"#utility.yul\":4718:4743   */\n      swap2\n      pop\n        /* \"#utility.yul\":4757:4777   */\n      tag_123\n        /* \"#utility.yul\":4775:4776   */\n      dup4\n        /* \"#utility.yul\":4757:4777   */\n      tag_49\n      jump\t// in\n    tag_123:\n        /* \"#utility.yul\":4752:4777   */\n      swap3\n      pop\n        /* \"#utility.yul\":4801:4802   */\n      dup3\n        /* \"#utility.yul\":4798:4799   */\n      dup3\n        /* \"#utility.yul\":4794:4803   */\n      sub\n        /* \"#utility.yul\":4786:4803   */\n      swap1\n      pop\n        /* \"#utility.yul\":4825:4826   */\n      dup2\n        /* \"#utility.yul\":4819:4823   */\n      dup2\n        /* \"#utility.yul\":4816:4827   */\n      gt\n        /* \"#utility.yul\":4813:4850   */\n      iszero\n      tag_124\n      jumpi\n        /* \"#utility.yul\":4830:4848   */\n      tag_125\n      tag_66\n      jump\t// in\n    tag_125:\n        /* \"#utility.yul\":4813:4850   */\n    tag_124:\n        /* \"#utility.yul\":4663:4857   */\n      swap3\n      swap2\n      pop\n      pop\n      jump\t// out\n        /* \"#utility.yul\":4863:5022   */\n    tag_67:\n        /* \"#utility.yul\":5003:5014   */\n      0x4e6f74206f776e65720000000000000000000000000000000000000000000000\n        /* \"#utility.yul\":4999:5000   */\n      0x00\n        /* \"#utility.yul\":4991:4997   */\n      dup3\n        /* \"#utility.yul\":4987:5001   */\n      add\n        /* \"#utility.yul\":4980:5015   */\n      mstore\n        /* \"#utility.yul\":4863:5022   */\n      pop\n      jump\t// out\n        /* \"#utility.yul\":5028:5393   */\n    tag_68:\n        /* \"#utility.yul\":5170:5173   */\n      0x00\n        /* \"#utility.yul\":5191:5257   */\n      tag_128\n        /* \"#utility.yul\":5255:5256   */\n      0x09\n        /* \"#utility.yul\":5250:5253   */\n      dup4\n        /* \"#utility.yul\":5191:5257   */\n      tag_63\n      jump\t// in\n    tag_128:\n        /* \"#utility.yul\":5184:5257   */\n      swap2\n      pop\n        /* \"#utility.yul\":5266:5359   */\n      tag_129\n        /* \"#utility.yul\":5355:5358   */\n      dup3\n        /* \"#utility.yul\":5266:5359   */\n      tag_67\n      jump\t// in\n    tag_129:\n        /* \"#utility.yul\":5384:5386   */\n      0x20\n        /* \"#utility.yul\":5379:5382   */\n      dup3\n        /* \"#utility.yul\":5375:5387   */\n      add\n        /* \"#utility.yul\":5368:5387   */\n      swap1\n      pop\n        /* \"#utility.yul\":5028:5393   */\n      swap2\n      swap1\n      pop\n      jump\t// out\n        /* \"#utility.yul\":5399:5818   */\n    tag_43:\n        /* \"#utility.yul\":5565:5569   */\n      0x00\n        /* \"#utility.yul\":5603:5605   */\n      0x20\n        /* \"#utility.yul\":5592:5601   */\n      dup3\n        /* \"#utility.yul\":5588:5606   */\n      add\n        /* \"#utility.yul\":5580:5606   */\n      swap1\n      pop\n        /* \"#utility.yul\":5652:5661   */\n      dup2\n        /* \"#utility.yul\":5646:5650   */\n      dup2\n        /* \"#utility.yul\":5642:5662   */\n      sub\n        /* \"#utility.yul\":5638:5639   */\n      0x00\n        /* \"#utility.yul\":5627:5636   */\n      dup4\n        /* \"#utility.yul\":5623:5640   */\n      add\n        /* \"#utility.yul\":5616:5663   */\n      mstore\n        /* \"#utility.yul\":5680:5811   */\n      tag_131\n        /* \"#utility.yul\":5806:5810   */\n      dup2\n        /* \"#utility.yul\":5680:5811   */\n      tag_68\n      jump\t// in\n    tag_131:\n        /* \"#utility.yul\":5672:5811   */\n      swap1\n      pop\n        /* \"#utility.yul\":5399:5818   */\n      swap2\n      swap1\n      pop\n      jump\t// out\n        /* \"#utility.yul\":5824:5991   */\n    tag_69:\n        /* \"#utility.yul\":5964:5983   */\n      0x4e6f742076616c69642061646472657373000000000000000000000000000000\n        /* \"#utility.yul\":5960:5961   */\n      0x00\n        /* \"#utility.yul\":5952:5958   */\n      dup3\n        /* \"#utility.yul\":5948:5962   */\n      add\n        /* \"#utility.yul\":5941:5984   */\n      mstore\n        /* \"#utility.yul\":5824:5991   */\n      pop\n      jump\t// out\n        /* \"#utility.yul\":5997:6363   */\n    tag_70:\n        /* \"#utility.yul\":6139:6142   */\n      0x00\n        /* \"#utility.yul\":6160:6227   */\n      tag_134\n        /* \"#utility.yul\":6224:6226   */\n      0x11\n        /* \"#utility.yul\":6219:6222   */\n      dup4\n        /* \"#utility.yul\":6160:6227   */\n      tag_63\n      jump\t// in\n    tag_134:\n        /* \"#utility.yul\":6153:6227   */\n      swap2\n      pop\n        /* \"#utility.yul\":6236:6329   */\n      tag_135\n        /* \"#utility.yul\":6325:6328   */\n      dup3\n        /* \"#utility.yul\":6236:6329   */\n      tag_69\n      jump\t// in\n    tag_135:\n        /* \"#utility.yul\":6354:6356   */\n      0x20\n        /* \"#utility.yul\":6349:6352   */\n      dup3\n        /* \"#utility.yul\":6345:6357   */\n      add\n        /* \"#utility.yul\":6338:6357   */\n      swap1\n      pop\n        /* \"#utility.yul\":5997:6363   */\n      swap2\n      swap1\n      pop\n      jump\t// out\n        /* \"#utility.yul\":6369:6788   */\n    tag_47:\n        /* \"#utility.yul\":6535:6539   */\n      0x00\n        /* \"#utility.yul\":6573:6575   */\n      0x20\n        /* \"#utility.yul\":6562:6571   */\n      dup3\n        /* \"#utility.yul\":6558:6576   */\n      add\n        /* \"#utility.yul\":6550:6576   */\n      swap1\n      pop\n        /* \"#utility.yul\":6622:6631   */\n      dup2\n        /* \"#utility.yul\":6616:6620   */\n      dup2\n        /* \"#utility.yul\":6612:6632   */\n      sub\n        /* \"#utility.yul\":6608:6609   */\n      0x00\n        /* \"#utility.yul\":6597:6606   */\n      dup4\n        /* \"#utility.yul\":6593:6610   */\n      add\n        /* \"#utility.yul\":6586:6633   */\n      mstore\n        /* \"#utility.yul\":6650:6781   */\n      tag_137\n        /* \"#utility.yul\":6776:6780   */\n      dup2\n        /* \"#utility.yul\":6650:6781   */\n      tag_70\n      jump\t// in\n    tag_137:\n        /* \"#utility.yul\":6642:6781   */\n      swap1\n      pop\n        /* \"#utility.yul\":6369:6788   */\n      swap2\n      swap1\n      pop\n      jump\t// out\n\n    auxdata: 0xa26469706673582212205ecef0ff508e00881f5fde87fed0a75df7cc930a614582cc09788ba6d55cd17b64736f6c634300081a0033\n}\n",
				"bytecode": {
					"linkReferences": {},
					"object": "6080604052600a6001553480156013575f80fd5b50335f806101000a81548173ffffffffffffffffffffffffffffffffffffffff021916908373ffffffffffffffffffffffffffffffffffffffff1602179055506106b3806100605f395ff3fe608060405234801561000f575f80fd5b5060043610610055575f3560e01c80630c55699c146100595780633a9ebefd146100775780638da5cb5b146100a8578063a6f9dae1146100c6578063cf309012146100e2575b5f80fd5b610061610100565b60405161006e919061035c565b60405180910390f35b610091600480360381019061008c91906103a3565b610106565b60405161009f9291906103ce565b60405180910390f35b6100b06101d0565b6040516100bd9190610434565b60405180910390f35b6100e060048036038101906100db9190610477565b6101f3565b005b6100ea610332565b6040516100f791906104bc565b60405180910390f35b60015481565b5f8060025f9054906101000a900460ff1615610157576040517f08c379a000000000000000000000000000000000000000000000000000000000815260040161014e9061052f565b60405180910390fd5b600160025f6101000a81548160ff0219169083151502179055506001805f828254610182919061057a565b9250508190555060018311156101aa576101a76001846101a2919061057a565b610106565b50505b82600154915091505f60025f6101000a81548160ff021916908315150217905550915091565b5f8054906101000a900473ffffffffffffffffffffffffffffffffffffffff1681565b5f8054906101000a900473ffffffffffffffffffffffffffffffffffffffff1673ffffffffffffffffffffffffffffffffffffffff163373ffffffffffffffffffffffffffffffffffffffff1614610280576040517f08c379a0000000000000000000000000000000000000000000000000000000008152600401610277906105f7565b60405180910390fd5b805f73ffffffffffffffffffffffffffffffffffffffff168173ffffffffffffffffffffffffffffffffffffffff16036102ef576040517f08c379a00000000000000000000000000000000000000000000000000000000081526004016102e69061065f565b60405180910390fd5b815f806101000a81548173ffffffffffffffffffffffffffffffffffffffff021916908373ffffffffffffffffffffffffffffffffffffffff1602179055505050565b60025f9054906101000a900460ff1681565b5f819050919050565b61035681610344565b82525050565b5f60208201905061036f5f83018461034d565b92915050565b5f80fd5b61038281610344565b811461038c575f80fd5b50565b5f8135905061039d81610379565b92915050565b5f602082840312156103b8576103b7610375565b5b5f6103c58482850161038f565b91505092915050565b5f6040820190506103e15f83018561034d565b6103ee602083018461034d565b9392505050565b5f73ffffffffffffffffffffffffffffffffffffffff82169050919050565b5f61041e826103f5565b9050919050565b61042e81610414565b82525050565b5f6020820190506104475f830184610425565b92915050565b61045681610414565b8114610460575f80fd5b50565b5f813590506104718161044d565b92915050565b5f6020828403121561048c5761048b610375565b5b5f61049984828501610463565b91505092915050565b5f8115159050919050565b6104b6816104a2565b82525050565b5f6020820190506104cf5f8301846104ad565b92915050565b5f82825260208201905092915050565b7f4e6f207265656e7472616e6379000000000000000000000000000000000000005f82015250565b5f610519600d836104d5565b9150610524826104e5565b602082019050919050565b5f6020820190508181035f8301526105468161050d565b9050919050565b7f4e487b71000000000000000000000000000000000000000000000000000000005f52601160045260245ffd5b5f61058482610344565b915061058f83610344565b92508282039050818111156105a7576105a661054d565b5b92915050565b7f4e6f74206f776e657200000000000000000000000000000000000000000000005f82015250565b5f6105e16009836104d5565b91506105ec826105ad565b602082019050919050565b5f6020820190508181035f83015261060e816105d5565b9050919050565b7f4e6f742076616c696420616464726573730000000000000000000000000000005f82015250565b5f6106496011836104d5565b915061065482610615565b602082019050919050565b5f6020820190508181035f8301526106768161063d565b905091905056fea26469706673582212205ecef0ff508e00881f5fde87fed0a75df7cc930a614582cc09788ba6d55cd17b64736f6c634300081a0033",
					"opcodes": "PUSH1 0x80 PUSH1 0x40 MSTORE PUSH1 0xA PUSH1 0x1 SSTORE CALLVALUE DUP1 ISZERO PUSH1 0x13 JUMPI PUSH0 DUP1 REVERT JUMPDEST POP CALLER PUSH0 DUP1 PUSH2 0x100 EXP DUP2 SLOAD DUP2 PUSH20 0xFFFFFFFFFFFFFFFFFFFFFFFFFFFFFFFFFFFFFFFF MUL NOT AND SWAP1 DUP4 PUSH20 0xFFFFFFFFFFFFFFFFFFFFFFFFFFFFFFFFFFFFFFFF AND MUL OR SWAP1 SSTORE POP PUSH2 0x6B3 DUP1 PUSH2 0x60 PUSH0 CODECOPY PUSH0 RETURN INVALID PUSH1 0x80 PUSH1 0x40 MSTORE CALLVALUE DUP1 ISZERO PUSH2 0xF JUMPI PUSH0 DUP1 REVERT JUMPDEST POP PUSH1 0x4 CALLDATASIZE LT PUSH2 0x55 JUMPI PUSH0 CALLDATALOAD PUSH1 0xE0 SHR DUP1 PUSH4 0xC55699C EQ PUSH2 0x59 JUMPI DUP1 PUSH4 0x3A9EBEFD EQ PUSH2 0x77 JUMPI DUP1 PUSH4 0x8DA5CB5B EQ PUSH2 0xA8 JUMPI DUP1 PUSH4 0xA6F9DAE1 EQ PUSH2 0xC6 JUMPI DUP1 PUSH4 0xCF309012 EQ PUSH2 0xE2 JUMPI JUMPDEST PUSH0 DUP1 REVERT JUMPDEST PUSH2 0x61 PUSH2 0x100 JUMP JUMPDEST PUSH1 0x40 MLOAD PUSH2 0x6E SWAP2 SWAP1 PUSH2 0x35C JUMP JUMPDEST PUSH1 0x40 MLOAD DUP1 SWAP2 SUB SWAP1 RETURN JUMPDEST PUSH2 0x91 PUSH1 0x4 DUP1 CALLDATASIZE SUB DUP2 ADD SWAP1 PUSH2 0x8C SWAP2 SWAP1 PUSH2 0x3A3 JUMP JUMPDEST PUSH2 0x106 JUMP JUMPDEST PUSH1 0x40 MLOAD PUSH2 0x9F SWAP3 SWAP2 SWAP1 PUSH2 0x3CE JUMP JUMPDEST PUSH1 0x40 MLOAD DUP1 SWAP2 SUB SWAP1 RETURN JUMPDEST PUSH2 0xB0 PUSH2 0x1D0 JUMP JUMPDEST PUSH1 0x40 MLOAD PUSH2 0xBD SWAP2 SWAP1 PUSH2 0x434 JUMP JUMPDEST PUSH1 0x40 MLOAD DUP1 SWAP2 SUB SWAP1 RETURN JUMPDEST PUSH2 0xE0 PUSH1 0x4 DUP1 CALLDATASIZE SUB DUP2 ADD SWAP1 PUSH2 0xDB SWAP2 SWAP1 PUSH2 0x477 JUMP JUMPDEST PUSH2 0x1F3 JUMP JUMPDEST STOP JUMPDEST PUSH2 0xEA PUSH2 0x332 JUMP JUMPDEST PUSH1 0x40 MLOAD PUSH2 0xF7 SWAP2 SWAP1 PUSH2 0x4BC JUMP JUMPDEST PUSH1 0x40 MLOAD DUP1 SWAP2 SUB SWAP1 RETURN JUMPDEST PUSH1 0x1 SLOAD DUP2 JUMP JUMPDEST PUSH0 DUP1 PUSH1 0x2 PUSH0 SWAP1 SLOAD SWAP1 PUSH2 0x100 EXP SWAP1 DIV PUSH1 0xFF AND ISZERO PUSH2 0x157 JUMPI PUSH1 0x40 MLOAD PUSH32 0x8C379A000000000000000000000000000000000000000000000000000000000 DUP2 MSTORE PUSH1 0x4 ADD PUSH2 0x14E SWAP1 PUSH2 0x52F JUMP JUMPDEST PUSH1 0x40 MLOAD DUP1 SWAP2 SUB SWAP1 REVERT JUMPDEST PUSH1 0x1 PUSH1 0x2 PUSH0 PUSH2 0x100 EXP DUP2 SLOAD DUP2 PUSH1 0xFF MUL NOT AND SWAP1 DUP4 ISZERO ISZERO MUL OR SWAP1 SSTORE POP PUSH1 0x1 DUP1 PUSH0 DUP3 DUP3 SLOAD PUSH2 0x182 SWAP2 SWAP1 PUSH2 0x57A JUMP JUMPDEST SWAP3 POP POP DUP2 SWAP1 SSTORE POP PUSH1 0x1 DUP4 GT ISZERO PUSH2 0x1AA JUMPI PUSH2 0x1A7 PUSH1 0x1 DUP5 PUSH2 0x1A2 SWAP2 SWAP1 PUSH2 0x57A JUMP JUMPDEST PUSH2 0x106 JUMP JUMPDEST POP POP JUMPDEST DUP3 PUSH1 0x1 SLOAD SWAP2 POP SWAP2 POP PUSH0 PUSH1 0x2 PUSH0 PUSH2 0x100 EXP DUP2 SLOAD DUP2 PUSH1 0xFF MUL NOT AND SWAP1 DUP4 ISZERO ISZERO MUL OR SWAP1 SSTORE POP SWAP2 POP SWAP2 JUMP JUMPDEST PUSH0 DUP1 SLOAD SWAP1 PUSH2 0x100 EXP SWAP1 DIV PUSH20 0xFFFFFFFFFFFFFFFFFFFFFFFFFFFFFFFFFFFFFFFF AND DUP2 JUMP JUMPDEST PUSH0 DUP1 SLOAD SWAP1 PUSH2 0x100 EXP SWAP1 DIV PUSH20 0xFFFFFFFFFFFFFFFFFFFFFFFFFFFFFFFFFFFFFFFF AND PUSH20 0xFFFFFFFFFFFFFFFFFFFFFFFFFFFFFFFFFFFFFFFF AND CALLER PUSH20 0xFFFFFFFFFFFFFFFFFFFFFFFFFFFFFFFFFFFFFFFF AND EQ PUSH2 0x280 JUMPI PUSH1 0x40 MLOAD PUSH32 0x8C379A000000000000000000000000000000000000000000000000000000000 DUP2 MSTORE PUSH1 0x4 ADD PUSH2 0x277 SWAP1 PUSH2 0x5F7 JUMP JUMPDEST PUSH1 0x40 MLOAD DUP1 SWAP2 SUB SWAP1 REVERT JUMPDEST DUP1 PUSH0 PUSH20 0xFFFFFFFFFFFFFFFFFFFFFFFFFFFFFFFFFFFFFFFF AND DUP2 PUSH20 0xFFFFFFFFFFFFFFFFFFFFFFFFFFFFFFFFFFFFFFFF AND SUB PUSH2 0x2EF JUMPI PUSH1 0x40 MLOAD PUSH32 0x8C379A000000000000000000000000000000000000000000000000000000000 DUP2 MSTORE PUSH1 0x4 ADD PUSH2 0x2E6 SWAP1 PUSH2 0x65F JUMP JUMPDEST PUSH1 0x40 MLOAD DUP1 SWAP2 SUB SWAP1 REVERT JUMPDEST DUP2 PUSH0 DUP1 PUSH2 0x100 EXP DUP2 SLOAD DUP2 PUSH20 0xFFFFFFFFFFFFFFFFFFFFFFFFFFFFFFFFFFFFFFFF MUL NOT AND SWAP1 DUP4 PUSH20 0xFFFFFFFFFFFFFFFFFFFFFFFFFFFFFFFFFFFFFFFF AND MUL OR SWAP1 SSTORE POP POP POP JUMP JUMPDEST PUSH1 0x2 PUSH0 SWAP1 SLOAD SWAP1 PUSH2 0x100 EXP SWAP1 DIV PUSH1 0xFF AND DUP2 JUMP JUMPDEST PUSH0 DUP2 SWAP1 POP SWAP2 SWAP1 POP JUMP JUMPDEST PUSH2 0x356 DUP2 PUSH2 0x344 JUMP JUMPDEST DUP3 MSTORE POP POP JUMP JUMPDEST PUSH0 PUSH1 0x20 DUP3 ADD SWAP1 POP PUSH2 0x36F PUSH0 DUP4 ADD DUP5 PUSH2 0x34D JUMP JUMPDEST SWAP3 SWAP2 POP POP JUMP JUMPDEST PUSH0 DUP1 REVERT JUMPDEST PUSH2 0x382 DUP2 PUSH2 0x344 JUMP JUMPDEST DUP2 EQ PUSH2 0x38C JUMPI PUSH0 DUP1 REVERT JUMPDEST POP JUMP JUMPDEST PUSH0 DUP2 CALLDATALOAD SWAP1 POP PUSH2 0x39D DUP2 PUSH2 0x379 JUMP JUMPDEST SWAP3 SWAP2 POP POP JUMP JUMPDEST PUSH0 PUSH1 0x20 DUP3 DUP5 SUB SLT ISZERO PUSH2 0x3B8 JUMPI PUSH2 0x3B7 PUSH2 0x375 JUMP JUMPDEST JUMPDEST PUSH0 PUSH2 0x3C5 DUP5 DUP3 DUP6 ADD PUSH2 0x38F JUMP JUMPDEST SWAP2 POP POP SWAP3 SWAP2 POP POP JUMP JUMPDEST PUSH0 PUSH1 0x40 DUP3 ADD SWAP1 POP PUSH2 0x3E1 PUSH0 DUP4 ADD DUP6 PUSH2 0x34D JUMP JUMPDEST PUSH2 0x3EE PUSH1 0x20 DUP4 ADD DUP5 PUSH2 0x34D JUMP JUMPDEST SWAP4 SWAP3 POP POP POP JUMP JUMPDEST PUSH0 PUSH20 0xFFFFFFFFFFFFFFFFFFFFFFFFFFFFFFFFFFFFFFFF DUP3 AND SWAP1 POP SWAP2 SWAP1 POP JUMP JUMPDEST PUSH0 PUSH2 0x41E DUP3 PUSH2 0x3F5 JUMP JUMPDEST SWAP1 POP SWAP2 SWAP1 POP JUMP JUMPDEST PUSH2 0x42E DUP2 PUSH2 0x414 JUMP JUMPDEST DUP3 MSTORE POP POP JUMP JUMPDEST PUSH0 PUSH1 0x20 DUP3 ADD SWAP1 POP PUSH2 0x447 PUSH0 DUP4 ADD DUP5 PUSH2 0x425 JUMP JUMPDEST SWAP3 SWAP2 POP POP JUMP JUMPDEST PUSH2 0x456 DUP2 PUSH2 0x414 JUMP JUMPDEST DUP2 EQ PUSH2 0x460 JUMPI PUSH0 DUP1 REVERT JUMPDEST POP JUMP JUMPDEST PUSH0 DUP2 CALLDATALOAD SWAP1 POP PUSH2 0x471 DUP2 PUSH2 0x44D JUMP JUMPDEST SWAP3 SWAP2 POP POP JUMP JUMPDEST PUSH0 PUSH1 0x20 DUP3 DUP5 SUB SLT ISZERO PUSH2 0x48C JUMPI PUSH2 0x48B PUSH2 0x375 JUMP JUMPDEST JUMPDEST PUSH0 PUSH2 0x499 DUP5 DUP3 DUP6 ADD PUSH2 0x463 JUMP JUMPDEST SWAP2 POP POP SWAP3 SWAP2 POP POP JUMP JUMPDEST PUSH0 DUP2 ISZERO ISZERO SWAP1 POP SWAP2 SWAP1 POP JUMP JUMPDEST PUSH2 0x4B6 DUP2 PUSH2 0x4A2 JUMP JUMPDEST DUP3 MSTORE POP POP JUMP JUMPDEST PUSH0 PUSH1 0x20 DUP3 ADD SWAP1 POP PUSH2 0x4CF PUSH0 DUP4 ADD DUP5 PUSH2 0x4AD JUMP JUMPDEST SWAP3 SWAP2 POP POP JUMP JUMPDEST PUSH0 DUP3 DUP3 MSTORE PUSH1 0x20 DUP3 ADD SWAP1 POP SWAP3 SWAP2 POP POP JUMP JUMPDEST PUSH32 0x4E6F207265656E7472616E637900000000000000000000000000000000000000 PUSH0 DUP3 ADD MSTORE POP JUMP JUMPDEST PUSH0 PUSH2 0x519 PUSH1 0xD DUP4 PUSH2 0x4D5 JUMP JUMPDEST SWAP2 POP PUSH2 0x524 DUP3 PUSH2 0x4E5 JUMP JUMPDEST PUSH1 0x20 DUP3 ADD SWAP1 POP SWAP2 SWAP1 POP JUMP JUMPDEST PUSH0 PUSH1 0x20 DUP3 ADD SWAP1 POP DUP2 DUP2 SUB PUSH0 DUP4 ADD MSTORE PUSH2 0x546 DUP2 PUSH2 0x50D JUMP JUMPDEST SWAP1 POP SWAP2 SWAP1 POP JUMP JUMPDEST PUSH32 0x4E487B7100000000000000000000000000000000000000000000000000000000 PUSH0 MSTORE PUSH1 0x11 PUSH1 0x4 MSTORE PUSH1 0x24 PUSH0 REVERT JUMPDEST PUSH0 PUSH2 0x584 DUP3 PUSH2 0x344 JUMP JUMPDEST SWAP2 POP PUSH2 0x58F DUP4 PUSH2 0x344 JUMP JUMPDEST SWAP3 POP DUP3 DUP3 SUB SWAP1 POP DUP2 DUP2 GT ISZERO PUSH2 0x5A7 JUMPI PUSH2 0x5A6 PUSH2 0x54D JUMP JUMPDEST JUMPDEST SWAP3 SWAP2 POP POP JUMP JUMPDEST PUSH32 0x4E6F74206F776E65720000000000000000000000000000000000000000000000 PUSH0 DUP3 ADD MSTORE POP JUMP JUMPDEST PUSH0 PUSH2 0x5E1 PUSH1 0x9 DUP4 PUSH2 0x4D5 JUMP JUMPDEST SWAP2 POP PUSH2 0x5EC DUP3 PUSH2 0x5AD JUMP JUMPDEST PUSH1 0x20 DUP3 ADD SWAP1 POP SWAP2 SWAP1 POP JUMP JUMPDEST PUSH0 PUSH1 0x20 DUP3 ADD SWAP1 POP DUP2 DUP2 SUB PUSH0 DUP4 ADD MSTORE PUSH2 0x60E DUP2 PUSH2 0x5D5 JUMP JUMPDEST SWAP1 POP SWAP2 SWAP1 POP JUMP JUMPDEST PUSH32 0x4E6F742076616C69642061646472657373000000000000000000000000000000 PUSH0 DUP3 ADD MSTORE POP JUMP JUMPDEST PUSH0 PUSH2 0x649 PUSH1 0x11 DUP4 PUSH2 0x4D5 JUMP JUMPDEST SWAP2 POP PUSH2 0x654 DUP3 PUSH2 0x615 JUMP JUMPDEST PUSH1 0x20 DUP3 ADD SWAP1 POP SWAP2 SWAP1 POP JUMP JUMPDEST PUSH0 PUSH1 0x20 DUP3 ADD SWAP1 POP DUP2 DUP2 SUB PUSH0 DUP4 ADD MSTORE PUSH2 0x676 DUP2 PUSH2 0x63D JUMP JUMPDEST SWAP1 POP SWAP2 SWAP1 POP JUMP INVALID LOG2 PUSH5 0x6970667358 0x22 SLT KECCAK256 MCOPY 0xCE CREATE SELFDESTRUCT POP DUP15 STOP DUP9 0x1F PUSH0 0xDE DUP8 INVALID 0xD0 0xA7 TSTORE 0xF7 0xCC SWAP4 EXP PUSH2 0x4582 0xCC MULMOD PUSH25 0x8BA6D55CD17B64736F6C634300081A00330000000000000000 "
				},
				"gasEstimates": {
					"creation": {
						"codeDepositCost": "343000",
						"executionCost": "46749",
						"totalCost": "389749"
					},
					"external": {
						"changeOwner(address)": "26964",
						"decrement(uint256)": "infinite",
						"locked()": "2532",
						"owner()": "2527",
						"x()": "2403"
					}
				},
				"methodIdentifiers": {
					"changeOwner(address)": "a6f9dae1",
					"decrement(uint256)": "3a9ebefd",
					"locked()": "cf309012",
					"owner()": "8da5cb5b",
					"x()": "0c55699c"
				}
			},
			"storageLayout": {
				"storage": [
					{
						"astId": 3,
						"contract": "Learning Pth/Modifier.sol:ModifierKeyword",
						"label": "owner",
						"offset": 0,
						"slot": "0",
						"type": "t_address"
					},
					{
						"astId": 6,
						"contract": "Learning Pth/Modifier.sol:ModifierKeyword",
						"label": "x",
						"offset": 0,
						"slot": "1",
						"type": "t_uint256"
					},
					{
						"astId": 8,
						"contract": "Learning Pth/Modifier.sol:ModifierKeyword",
						"label": "locked",
						"offset": 0,
						"slot": "2",
						"type": "t_bool"
					}
				],
				"types": {
					"t_address": {
						"encoding": "inplace",
						"label": "address",
						"numberOfBytes": "20"
					},
					"t_bool": {
						"encoding": "inplace",
						"label": "bool",
						"numberOfBytes": "1"
					},
					"t_uint256": {
						"encoding": "inplace",
						"label": "uint256",
						"numberOfBytes": "32"
					}
				}
			},
			"userdoc": {
				"kind": "user",
				"methods": {},
				"version": 1
			}
		}
	}
}