{
	"Learning Pth/Call.sol": {
		"Caller": {
			"abi": [
				{
					"anonymous": false,
					"inputs": [
						{
							"indexed": false,
							"internalType": "bool",
							"name": "success",
							"type": "bool"
						},
						{
							"indexed": false,
							"internalType": "bytes",
							"name": "data",
							"type": "bytes"
						}
					],
					"name": "Response",
					"type": "event"
				},
				{
					"inputs": [
						{
							"internalType": "address",
							"name": "_addr",
							"type": "address"
						}
					],
					"name": "testCallDoesNotExist",
					"outputs": [],
					"stateMutability": "payable",
					"type": "function"
				},
				{
					"inputs": [
						{
							"internalType": "address payable",
							"name": "_addr",
							"type": "address"
						}
					],
					"name": "testCallFoo",
					"outputs": [],
					"stateMutability": "payable",
					"type": "function"
				}
			],
			"devdoc": {
				"kind": "dev",
				"methods": {},
				"version": 1
			},
			"evm": {
				"assembly": "    /* \"Learning Pth/Call.sol\":478:1410  contract Caller {... */\n  mstore(0x40, 0x80)\n  callvalue\n  dup1\n  iszero\n  tag_1\n  jumpi\n  0x00\n  dup1\n  revert\ntag_1:\n  pop\n  dataSize(sub_0)\n  dup1\n  dataOffset(sub_0)\n  0x00\n  codecopy\n  0x00\n  return\nstop\n\nsub_0: assembly {\n        /* \"Learning Pth/Call.sol\":478:1410  contract Caller {... */\n      mstore(0x40, 0x80)\n      jumpi(tag_1, lt(calldatasize, 0x04))\n      shr(0xe0, calldataload(0x00))\n      dup1\n      0x87ba6179\n      eq\n      tag_2\n      jumpi\n      dup1\n      0xff00726c\n      eq\n      tag_3\n      jumpi\n    tag_1:\n      0x00\n      dup1\n      revert\n        /* \"Learning Pth/Call.sol\":723:1069  function testCallFoo(address payable _addr) public payable {... */\n    tag_2:\n      tag_4\n      0x04\n      dup1\n      calldatasize\n      sub\n      dup2\n      add\n      swap1\n      tag_5\n      swap2\n      swap1\n      tag_6\n      jump\t// in\n    tag_5:\n      tag_7\n      jump\t// in\n    tag_4:\n      stop\n        /* \"Learning Pth/Call.sol\":1156:1407  function testCallDoesNotExist(address _addr) public payable {... */\n    tag_3:\n      tag_8\n      0x04\n      dup1\n      calldatasize\n      sub\n      dup2\n      add\n      swap1\n      tag_9\n      swap2\n      swap1\n      tag_10\n      jump\t// in\n    tag_9:\n      tag_11\n      jump\t// in\n    tag_8:\n      stop\n        /* \"Learning Pth/Call.sol\":723:1069  function testCallFoo(address payable _addr) public payable {... */\n    tag_7:\n        /* \"Learning Pth/Call.sol\":857:869  bool success */\n      0x00\n        /* \"Learning Pth/Call.sol\":871:888  bytes memory data */\n      dup1\n        /* \"Learning Pth/Call.sol\":892:897  _addr */\n      dup3\n        /* \"Learning Pth/Call.sol\":892:902  _addr.call */\n      0xffffffffffffffffffffffffffffffffffffffff\n      and\n        /* \"Learning Pth/Call.sol\":910:919  msg.value */\n      callvalue\n        /* \"Learning Pth/Call.sol\":926:930  5000 */\n      0x1388\n        /* \"Learning Pth/Call.sol\":892:1020  _addr.call{value: msg.value, gas: 5000}(... */\n      swap1\n        /* \"Learning Pth/Call.sol\":1005:1008  123 */\n      0x7b\n        /* \"Learning Pth/Call.sol\":946:1009  abi.encodeWithSignature(\"foo(string,uint256)\", \"call foo\", 123) */\n      add(0x24, mload(0x40))\n      tag_13\n      swap2\n      swap1\n      tag_14\n      jump\t// in\n    tag_13:\n      mload(0x40)\n      0x20\n      dup2\n      dup4\n      sub\n      sub\n      dup2\n      mstore\n      swap1\n      0x40\n      mstore\n      and(not(0xffffffffffffffffffffffffffffffffffffffffffffffffffffffff), 0x24ccab8f00000000000000000000000000000000000000000000000000000000)\n      0x20\n      dup3\n      add\n      dup1\n      mload\n      0xffffffffffffffffffffffffffffffffffffffffffffffffffffffff\n      dup4\n      dup2\n      dup4\n      and\n      or\n      dup4\n      mstore\n      pop\n      pop\n      pop\n      pop\n        /* \"Learning Pth/Call.sol\":892:1020  _addr.call{value: msg.value, gas: 5000}(... */\n      mload(0x40)\n      tag_15\n      swap2\n      swap1\n      tag_16\n      jump\t// in\n    tag_15:\n      0x00\n      mload(0x40)\n      dup1\n      dup4\n      sub\n      dup2\n      dup6\n      dup9\n      dup9\n      call\n      swap4\n      pop\n      pop\n      pop\n      pop\n      returndatasize\n      dup1\n      0x00\n      dup2\n      eq\n      tag_19\n      jumpi\n      mload(0x40)\n      swap2\n      pop\n      and(add(returndatasize, 0x3f), not(0x1f))\n      dup3\n      add\n      0x40\n      mstore\n      returndatasize\n      dup3\n      mstore\n      returndatasize\n      0x00\n      0x20\n      dup5\n      add\n      returndatacopy\n      jump(tag_18)\n    tag_19:\n      0x60\n      swap2\n      pop\n    tag_18:\n      pop\n        /* \"Learning Pth/Call.sol\":856:1020  (bool success, bytes memory data) = _addr.call{value: msg.value, gas: 5000}(... */\n      swap2\n      pop\n      swap2\n      pop\n        /* \"Learning Pth/Call.sol\":1038:1061  Response(success, data) */\n      0x13848c3e38f8886f3f5d2ad9dff80d8092c2bbb8efd5b887a99c2c6cfc09ac2a\n        /* \"Learning Pth/Call.sol\":1047:1054  success */\n      dup3\n        /* \"Learning Pth/Call.sol\":1056:1060  data */\n      dup3\n        /* \"Learning Pth/Call.sol\":1038:1061  Response(success, data) */\n      mload(0x40)\n      tag_20\n      swap3\n      swap2\n      swap1\n      tag_21\n      jump\t// in\n    tag_20:\n      mload(0x40)\n      dup1\n      swap2\n      sub\n      swap1\n      log1\n        /* \"Learning Pth/Call.sol\":782:1069  {... */\n      pop\n      pop\n        /* \"Learning Pth/Call.sol\":723:1069  function testCallFoo(address payable _addr) public payable {... */\n      pop\n      jump\t// out\n        /* \"Learning Pth/Call.sol\":1156:1407  function testCallDoesNotExist(address _addr) public payable {... */\n    tag_11:\n        /* \"Learning Pth/Call.sol\":1228:1240  bool success */\n      0x00\n        /* \"Learning Pth/Call.sol\":1242:1259  bytes memory data */\n      dup1\n        /* \"Learning Pth/Call.sol\":1263:1268  _addr */\n      dup3\n        /* \"Learning Pth/Call.sol\":1263:1273  _addr.call */\n      0xffffffffffffffffffffffffffffffffffffffff\n      and\n        /* \"Learning Pth/Call.sol\":1281:1290  msg.value */\n      callvalue\n        /* \"Learning Pth/Call.sol\":1306:1347  abi.encodeWithSignature(\"doesNotExist()\") */\n      add(0x24, mload(0x40))\n      mload(0x40)\n      0x20\n      dup2\n      dup4\n      sub\n      sub\n      dup2\n      mstore\n      swap1\n      0x40\n      mstore\n      and(not(0xffffffffffffffffffffffffffffffffffffffffffffffffffffffff), 0x1dcc85ae00000000000000000000000000000000000000000000000000000000)\n      0x20\n      dup3\n      add\n      dup1\n      mload\n      0xffffffffffffffffffffffffffffffffffffffffffffffffffffffff\n      dup4\n      dup2\n      dup4\n      and\n      or\n      dup4\n      mstore\n      pop\n      pop\n      pop\n      pop\n        /* \"Learning Pth/Call.sol\":1263:1358  _addr.call{value: msg.value}(... */\n      mload(0x40)\n      tag_23\n      swap2\n      swap1\n      tag_16\n      jump\t// in\n    tag_23:\n      0x00\n      mload(0x40)\n      dup1\n      dup4\n      sub\n      dup2\n      dup6\n      dup8\n      gas\n      call\n      swap3\n      pop\n      pop\n      pop\n      returndatasize\n      dup1\n      0x00\n      dup2\n      eq\n      tag_26\n      jumpi\n      mload(0x40)\n      swap2\n      pop\n      and(add(returndatasize, 0x3f), not(0x1f))\n      dup3\n      add\n      0x40\n      mstore\n      returndatasize\n      dup3\n      mstore\n      returndatasize\n      0x00\n      0x20\n      dup5\n      add\n      returndatacopy\n      jump(tag_25)\n    tag_26:\n      0x60\n      swap2\n      pop\n    tag_25:\n      pop\n        /* \"Learning Pth/Call.sol\":1227:1358  (bool success, bytes memory data) = _addr.call{value: msg.value}(... */\n      swap2\n      pop\n      swap2\n      pop\n        /* \"Learning Pth/Call.sol\":1376:1399  Response(success, data) */\n      0x13848c3e38f8886f3f5d2ad9dff80d8092c2bbb8efd5b887a99c2c6cfc09ac2a\n        /* \"Learning Pth/Call.sol\":1385:1392  success */\n      dup3\n        /* \"Learning Pth/Call.sol\":1394:1398  data */\n      dup3\n        /* \"Learning Pth/Call.sol\":1376:1399  Response(success, data) */\n      mload(0x40)\n      tag_27\n      swap3\n      swap2\n      swap1\n      tag_21\n      jump\t// in\n    tag_27:\n      mload(0x40)\n      dup1\n      swap2\n      sub\n      swap1\n      log1\n        /* \"Learning Pth/Call.sol\":1216:1407  {... */\n      pop\n      pop\n        /* \"Learning Pth/Call.sol\":1156:1407  function testCallDoesNotExist(address _addr) public payable {... */\n      pop\n      jump\t// out\n        /* \"#utility.yul\":88:205   */\n    tag_29:\n        /* \"#utility.yul\":197:198   */\n      0x00\n        /* \"#utility.yul\":194:195   */\n      dup1\n        /* \"#utility.yul\":187:199   */\n      revert\n        /* \"#utility.yul\":334:460   */\n    tag_31:\n        /* \"#utility.yul\":371:378   */\n      0x00\n        /* \"#utility.yul\":411:453   */\n      0xffffffffffffffffffffffffffffffffffffffff\n        /* \"#utility.yul\":404:409   */\n      dup3\n        /* \"#utility.yul\":400:454   */\n      and\n        /* \"#utility.yul\":389:454   */\n      swap1\n      pop\n        /* \"#utility.yul\":334:460   */\n      swap2\n      swap1\n      pop\n      jump\t// out\n        /* \"#utility.yul\":466:570   */\n    tag_32:\n        /* \"#utility.yul\":511:518   */\n      0x00\n        /* \"#utility.yul\":540:564   */\n      tag_61\n        /* \"#utility.yul\":558:563   */\n      dup3\n        /* \"#utility.yul\":540:564   */\n      tag_31\n      jump\t// in\n    tag_61:\n        /* \"#utility.yul\":529:564   */\n      swap1\n      pop\n        /* \"#utility.yul\":466:570   */\n      swap2\n      swap1\n      pop\n      jump\t// out\n        /* \"#utility.yul\":576:714   */\n    tag_33:\n        /* \"#utility.yul\":657:689   */\n      tag_63\n        /* \"#utility.yul\":683:688   */\n      dup2\n        /* \"#utility.yul\":657:689   */\n      tag_32\n      jump\t// in\n    tag_63:\n        /* \"#utility.yul\":650:655   */\n      dup2\n        /* \"#utility.yul\":647:690   */\n      eq\n        /* \"#utility.yul\":637:708   */\n      tag_64\n      jumpi\n        /* \"#utility.yul\":704:705   */\n      0x00\n        /* \"#utility.yul\":701:702   */\n      dup1\n        /* \"#utility.yul\":694:706   */\n      revert\n        /* \"#utility.yul\":637:708   */\n    tag_64:\n        /* \"#utility.yul\":576:714   */\n      pop\n      jump\t// out\n        /* \"#utility.yul\":720:875   */\n    tag_34:\n        /* \"#utility.yul\":774:779   */\n      0x00\n        /* \"#utility.yul\":812:818   */\n      dup2\n        /* \"#utility.yul\":799:819   */\n      calldataload\n        /* \"#utility.yul\":790:819   */\n      swap1\n      pop\n        /* \"#utility.yul\":828:869   */\n      tag_66\n        /* \"#utility.yul\":863:868   */\n      dup2\n        /* \"#utility.yul\":828:869   */\n      tag_33\n      jump\t// in\n    tag_66:\n        /* \"#utility.yul\":720:875   */\n      swap3\n      swap2\n      pop\n      pop\n      jump\t// out\n        /* \"#utility.yul\":881:1226   */\n    tag_6:\n        /* \"#utility.yul\":948:954   */\n      0x00\n        /* \"#utility.yul\":997:999   */\n      0x20\n        /* \"#utility.yul\":985:994   */\n      dup3\n        /* \"#utility.yul\":976:983   */\n      dup5\n        /* \"#utility.yul\":972:995   */\n      sub\n        /* \"#utility.yul\":968:1000   */\n      slt\n        /* \"#utility.yul\":965:1084   */\n      iszero\n      tag_68\n      jumpi\n        /* \"#utility.yul\":1003:1082   */\n      tag_69\n      tag_29\n      jump\t// in\n    tag_69:\n        /* \"#utility.yul\":965:1084   */\n    tag_68:\n        /* \"#utility.yul\":1123:1124   */\n      0x00\n        /* \"#utility.yul\":1148:1209   */\n      tag_70\n        /* \"#utility.yul\":1201:1208   */\n      dup5\n        /* \"#utility.yul\":1192:1198   */\n      dup3\n        /* \"#utility.yul\":1181:1190   */\n      dup6\n        /* \"#utility.yul\":1177:1199   */\n      add\n        /* \"#utility.yul\":1148:1209   */\n      tag_34\n      jump\t// in\n    tag_70:\n        /* \"#utility.yul\":1138:1209   */\n      swap2\n      pop\n        /* \"#utility.yul\":1094:1219   */\n      pop\n        /* \"#utility.yul\":881:1226   */\n      swap3\n      swap2\n      pop\n      pop\n      jump\t// out\n        /* \"#utility.yul\":1232:1328   */\n    tag_35:\n        /* \"#utility.yul\":1269:1276   */\n      0x00\n        /* \"#utility.yul\":1298:1322   */\n      tag_72\n        /* \"#utility.yul\":1316:1321   */\n      dup3\n        /* \"#utility.yul\":1298:1322   */\n      tag_31\n      jump\t// in\n    tag_72:\n        /* \"#utility.yul\":1287:1322   */\n      swap1\n      pop\n        /* \"#utility.yul\":1232:1328   */\n      swap2\n      swap1\n      pop\n      jump\t// out\n        /* \"#utility.yul\":1334:1456   */\n    tag_36:\n        /* \"#utility.yul\":1407:1431   */\n      tag_74\n        /* \"#utility.yul\":1425:1430   */\n      dup2\n        /* \"#utility.yul\":1407:1431   */\n      tag_35\n      jump\t// in\n    tag_74:\n        /* \"#utility.yul\":1400:1405   */\n      dup2\n        /* \"#utility.yul\":1397:1432   */\n      eq\n        /* \"#utility.yul\":1387:1450   */\n      tag_75\n      jumpi\n        /* \"#utility.yul\":1446:1447   */\n      0x00\n        /* \"#utility.yul\":1443:1444   */\n      dup1\n        /* \"#utility.yul\":1436:1448   */\n      revert\n        /* \"#utility.yul\":1387:1450   */\n    tag_75:\n        /* \"#utility.yul\":1334:1456   */\n      pop\n      jump\t// out\n        /* \"#utility.yul\":1462:1601   */\n    tag_37:\n        /* \"#utility.yul\":1508:1513   */\n      0x00\n        /* \"#utility.yul\":1546:1552   */\n      dup2\n        /* \"#utility.yul\":1533:1553   */\n      calldataload\n        /* \"#utility.yul\":1524:1553   */\n      swap1\n      pop\n        /* \"#utility.yul\":1562:1595   */\n      tag_77\n        /* \"#utility.yul\":1589:1594   */\n      dup2\n        /* \"#utility.yul\":1562:1595   */\n      tag_36\n      jump\t// in\n    tag_77:\n        /* \"#utility.yul\":1462:1601   */\n      swap3\n      swap2\n      pop\n      pop\n      jump\t// out\n        /* \"#utility.yul\":1607:1936   */\n    tag_10:\n        /* \"#utility.yul\":1666:1672   */\n      0x00\n        /* \"#utility.yul\":1715:1717   */\n      0x20\n        /* \"#utility.yul\":1703:1712   */\n      dup3\n        /* \"#utility.yul\":1694:1701   */\n      dup5\n        /* \"#utility.yul\":1690:1713   */\n      sub\n        /* \"#utility.yul\":1686:1718   */\n      slt\n        /* \"#utility.yul\":1683:1802   */\n      iszero\n      tag_79\n      jumpi\n        /* \"#utility.yul\":1721:1800   */\n      tag_80\n      tag_29\n      jump\t// in\n    tag_80:\n        /* \"#utility.yul\":1683:1802   */\n    tag_79:\n        /* \"#utility.yul\":1841:1842   */\n      0x00\n        /* \"#utility.yul\":1866:1919   */\n      tag_81\n        /* \"#utility.yul\":1911:1918   */\n      dup5\n        /* \"#utility.yul\":1902:1908   */\n      dup3\n        /* \"#utility.yul\":1891:1900   */\n      dup6\n        /* \"#utility.yul\":1887:1909   */\n      add\n        /* \"#utility.yul\":1866:1919   */\n      tag_37\n      jump\t// in\n    tag_81:\n        /* \"#utility.yul\":1856:1919   */\n      swap2\n      pop\n        /* \"#utility.yul\":1812:1929   */\n      pop\n        /* \"#utility.yul\":1607:1936   */\n      swap3\n      swap2\n      pop\n      pop\n      jump\t// out\n        /* \"#utility.yul\":1942:2111   */\n    tag_38:\n        /* \"#utility.yul\":2026:2037   */\n      0x00\n        /* \"#utility.yul\":2060:2066   */\n      dup3\n        /* \"#utility.yul\":2055:2058   */\n      dup3\n        /* \"#utility.yul\":2048:2067   */\n      mstore\n        /* \"#utility.yul\":2100:2104   */\n      0x20\n        /* \"#utility.yul\":2095:2098   */\n      dup3\n        /* \"#utility.yul\":2091:2105   */\n      add\n        /* \"#utility.yul\":2076:2105   */\n      swap1\n      pop\n        /* \"#utility.yul\":1942:2111   */\n      swap3\n      swap2\n      pop\n      pop\n      jump\t// out\n        /* \"#utility.yul\":2117:2275   */\n    tag_39:\n        /* \"#utility.yul\":2257:2267   */\n      0x63616c6c20666f6f000000000000000000000000000000000000000000000000\n        /* \"#utility.yul\":2253:2254   */\n      0x00\n        /* \"#utility.yul\":2245:2251   */\n      dup3\n        /* \"#utility.yul\":2241:2255   */\n      add\n        /* \"#utility.yul\":2234:2268   */\n      mstore\n        /* \"#utility.yul\":2117:2275   */\n      pop\n      jump\t// out\n        /* \"#utility.yul\":2281:2646   */\n    tag_40:\n        /* \"#utility.yul\":2423:2426   */\n      0x00\n        /* \"#utility.yul\":2444:2510   */\n      tag_85\n        /* \"#utility.yul\":2508:2509   */\n      0x08\n        /* \"#utility.yul\":2503:2506   */\n      dup4\n        /* \"#utility.yul\":2444:2510   */\n      tag_38\n      jump\t// in\n    tag_85:\n        /* \"#utility.yul\":2437:2510   */\n      swap2\n      pop\n        /* \"#utility.yul\":2519:2612   */\n      tag_86\n        /* \"#utility.yul\":2608:2611   */\n      dup3\n        /* \"#utility.yul\":2519:2612   */\n      tag_39\n      jump\t// in\n    tag_86:\n        /* \"#utility.yul\":2637:2639   */\n      0x20\n        /* \"#utility.yul\":2632:2635   */\n      dup3\n        /* \"#utility.yul\":2628:2640   */\n      add\n        /* \"#utility.yul\":2621:2640   */\n      swap1\n      pop\n        /* \"#utility.yul\":2281:2646   */\n      swap2\n      swap1\n      pop\n      jump\t// out\n        /* \"#utility.yul\":2652:2739   */\n    tag_41:\n        /* \"#utility.yul\":2699:2706   */\n      0x00\n        /* \"#utility.yul\":2728:2733   */\n      dup2\n        /* \"#utility.yul\":2717:2733   */\n      swap1\n      pop\n        /* \"#utility.yul\":2652:2739   */\n      swap2\n      swap1\n      pop\n      jump\t// out\n        /* \"#utility.yul\":2745:2831   */\n    tag_42:\n        /* \"#utility.yul\":2780:2787   */\n      0x00\n        /* \"#utility.yul\":2820:2824   */\n      0xff\n        /* \"#utility.yul\":2813:2818   */\n      dup3\n        /* \"#utility.yul\":2809:2825   */\n      and\n        /* \"#utility.yul\":2798:2825   */\n      swap1\n      pop\n        /* \"#utility.yul\":2745:2831   */\n      swap2\n      swap1\n      pop\n      jump\t// out\n        /* \"#utility.yul\":2837:2897   */\n    tag_43:\n        /* \"#utility.yul\":2865:2868   */\n      0x00\n        /* \"#utility.yul\":2886:2891   */\n      dup2\n        /* \"#utility.yul\":2879:2891   */\n      swap1\n      pop\n        /* \"#utility.yul\":2837:2897   */\n      swap2\n      swap1\n      pop\n      jump\t// out\n        /* \"#utility.yul\":2903:3061   */\n    tag_44:\n        /* \"#utility.yul\":2961:2970   */\n      0x00\n        /* \"#utility.yul\":2994:3055   */\n      tag_91\n        /* \"#utility.yul\":3010:3054   */\n      tag_92\n        /* \"#utility.yul\":3019:3053   */\n      tag_93\n        /* \"#utility.yul\":3047:3052   */\n      dup5\n        /* \"#utility.yul\":3019:3053   */\n      tag_41\n      jump\t// in\n    tag_93:\n        /* \"#utility.yul\":3010:3054   */\n      tag_43\n      jump\t// in\n    tag_92:\n        /* \"#utility.yul\":2994:3055   */\n      tag_42\n      jump\t// in\n    tag_91:\n        /* \"#utility.yul\":2981:3055   */\n      swap1\n      pop\n        /* \"#utility.yul\":2903:3061   */\n      swap2\n      swap1\n      pop\n      jump\t// out\n        /* \"#utility.yul\":3067:3214   */\n    tag_45:\n        /* \"#utility.yul\":3162:3207   */\n      tag_95\n        /* \"#utility.yul\":3201:3206   */\n      dup2\n        /* \"#utility.yul\":3162:3207   */\n      tag_44\n      jump\t// in\n    tag_95:\n        /* \"#utility.yul\":3157:3160   */\n      dup3\n        /* \"#utility.yul\":3150:3208   */\n      mstore\n        /* \"#utility.yul\":3067:3214   */\n      pop\n      pop\n      jump\t// out\n        /* \"#utility.yul\":3220:3765   */\n    tag_14:\n        /* \"#utility.yul\":3422:3426   */\n      0x00\n        /* \"#utility.yul\":3460:3462   */\n      0x40\n        /* \"#utility.yul\":3449:3458   */\n      dup3\n        /* \"#utility.yul\":3445:3463   */\n      add\n        /* \"#utility.yul\":3437:3463   */\n      swap1\n      pop\n        /* \"#utility.yul\":3509:3518   */\n      dup2\n        /* \"#utility.yul\":3503:3507   */\n      dup2\n        /* \"#utility.yul\":3499:3519   */\n      sub\n        /* \"#utility.yul\":3495:3496   */\n      0x00\n        /* \"#utility.yul\":3484:3493   */\n      dup4\n        /* \"#utility.yul\":3480:3497   */\n      add\n        /* \"#utility.yul\":3473:3520   */\n      mstore\n        /* \"#utility.yul\":3537:3668   */\n      tag_97\n        /* \"#utility.yul\":3663:3667   */\n      dup2\n        /* \"#utility.yul\":3537:3668   */\n      tag_40\n      jump\t// in\n    tag_97:\n        /* \"#utility.yul\":3529:3668   */\n      swap1\n      pop\n        /* \"#utility.yul\":3678:3758   */\n      tag_98\n        /* \"#utility.yul\":3754:3756   */\n      0x20\n        /* \"#utility.yul\":3743:3752   */\n      dup4\n        /* \"#utility.yul\":3739:3757   */\n      add\n        /* \"#utility.yul\":3730:3736   */\n      dup5\n        /* \"#utility.yul\":3678:3758   */\n      tag_45\n      jump\t// in\n    tag_98:\n        /* \"#utility.yul\":3220:3765   */\n      swap3\n      swap2\n      pop\n      pop\n      jump\t// out\n        /* \"#utility.yul\":3771:3869   */\n    tag_46:\n        /* \"#utility.yul\":3822:3828   */\n      0x00\n        /* \"#utility.yul\":3856:3861   */\n      dup2\n        /* \"#utility.yul\":3850:3862   */\n      mload\n        /* \"#utility.yul\":3840:3862   */\n      swap1\n      pop\n        /* \"#utility.yul\":3771:3869   */\n      swap2\n      swap1\n      pop\n      jump\t// out\n        /* \"#utility.yul\":3875:4022   */\n    tag_47:\n        /* \"#utility.yul\":3976:3987   */\n      0x00\n        /* \"#utility.yul\":4013:4016   */\n      dup2\n        /* \"#utility.yul\":3998:4016   */\n      swap1\n      pop\n        /* \"#utility.yul\":3875:4022   */\n      swap3\n      swap2\n      pop\n      pop\n      jump\t// out\n        /* \"#utility.yul\":4028:4167   */\n    tag_48:\n        /* \"#utility.yul\":4117:4123   */\n      dup3\n        /* \"#utility.yul\":4112:4115   */\n      dup2\n        /* \"#utility.yul\":4107:4110   */\n      dup4\n        /* \"#utility.yul\":4101:4124   */\n      mcopy\n        /* \"#utility.yul\":4158:4159   */\n      0x00\n        /* \"#utility.yul\":4149:4155   */\n      dup4\n        /* \"#utility.yul\":4144:4147   */\n      dup4\n        /* \"#utility.yul\":4140:4156   */\n      add\n        /* \"#utility.yul\":4133:4160   */\n      mstore\n        /* \"#utility.yul\":4028:4167   */\n      pop\n      pop\n      pop\n      jump\t// out\n        /* \"#utility.yul\":4173:4559   */\n    tag_49:\n        /* \"#utility.yul\":4277:4280   */\n      0x00\n        /* \"#utility.yul\":4305:4343   */\n      tag_103\n        /* \"#utility.yul\":4337:4342   */\n      dup3\n        /* \"#utility.yul\":4305:4343   */\n      tag_46\n      jump\t// in\n    tag_103:\n        /* \"#utility.yul\":4359:4447   */\n      tag_104\n        /* \"#utility.yul\":4440:4446   */\n      dup2\n        /* \"#utility.yul\":4435:4438   */\n      dup6\n        /* \"#utility.yul\":4359:4447   */\n      tag_47\n      jump\t// in\n    tag_104:\n        /* \"#utility.yul\":4352:4447   */\n      swap4\n      pop\n        /* \"#utility.yul\":4456:4521   */\n      tag_105\n        /* \"#utility.yul\":4514:4520   */\n      dup2\n        /* \"#utility.yul\":4509:4512   */\n      dup6\n        /* \"#utility.yul\":4502:4506   */\n      0x20\n        /* \"#utility.yul\":4495:4500   */\n      dup7\n        /* \"#utility.yul\":4491:4507   */\n      add\n        /* \"#utility.yul\":4456:4521   */\n      tag_48\n      jump\t// in\n    tag_105:\n        /* \"#utility.yul\":4546:4552   */\n      dup1\n        /* \"#utility.yul\":4541:4544   */\n      dup5\n        /* \"#utility.yul\":4537:4553   */\n      add\n        /* \"#utility.yul\":4530:4553   */\n      swap2\n      pop\n        /* \"#utility.yul\":4281:4559   */\n      pop\n        /* \"#utility.yul\":4173:4559   */\n      swap3\n      swap2\n      pop\n      pop\n      jump\t// out\n        /* \"#utility.yul\":4565:4836   */\n    tag_16:\n        /* \"#utility.yul\":4695:4698   */\n      0x00\n        /* \"#utility.yul\":4717:4810   */\n      tag_107\n        /* \"#utility.yul\":4806:4809   */\n      dup3\n        /* \"#utility.yul\":4797:4803   */\n      dup5\n        /* \"#utility.yul\":4717:4810   */\n      tag_49\n      jump\t// in\n    tag_107:\n        /* \"#utility.yul\":4710:4810   */\n      swap2\n      pop\n        /* \"#utility.yul\":4827:4830   */\n      dup2\n        /* \"#utility.yul\":4820:4830   */\n      swap1\n      pop\n        /* \"#utility.yul\":4565:4836   */\n      swap3\n      swap2\n      pop\n      pop\n      jump\t// out\n        /* \"#utility.yul\":4842:4932   */\n    tag_50:\n        /* \"#utility.yul\":4876:4883   */\n      0x00\n        /* \"#utility.yul\":4919:4924   */\n      dup2\n        /* \"#utility.yul\":4912:4925   */\n      iszero\n        /* \"#utility.yul\":4905:4926   */\n      iszero\n        /* \"#utility.yul\":4894:4926   */\n      swap1\n      pop\n        /* \"#utility.yul\":4842:4932   */\n      swap2\n      swap1\n      pop\n      jump\t// out\n        /* \"#utility.yul\":4938:5047   */\n    tag_51:\n        /* \"#utility.yul\":5019:5040   */\n      tag_110\n        /* \"#utility.yul\":5034:5039   */\n      dup2\n        /* \"#utility.yul\":5019:5040   */\n      tag_50\n      jump\t// in\n    tag_110:\n        /* \"#utility.yul\":5014:5017   */\n      dup3\n        /* \"#utility.yul\":5007:5041   */\n      mstore\n        /* \"#utility.yul\":4938:5047   */\n      pop\n      pop\n      jump\t// out\n        /* \"#utility.yul\":5053:5221   */\n    tag_52:\n        /* \"#utility.yul\":5136:5147   */\n      0x00\n        /* \"#utility.yul\":5170:5176   */\n      dup3\n        /* \"#utility.yul\":5165:5168   */\n      dup3\n        /* \"#utility.yul\":5158:5177   */\n      mstore\n        /* \"#utility.yul\":5210:5214   */\n      0x20\n        /* \"#utility.yul\":5205:5208   */\n      dup3\n        /* \"#utility.yul\":5201:5215   */\n      add\n        /* \"#utility.yul\":5186:5215   */\n      swap1\n      pop\n        /* \"#utility.yul\":5053:5221   */\n      swap3\n      swap2\n      pop\n      pop\n      jump\t// out\n        /* \"#utility.yul\":5227:5329   */\n    tag_53:\n        /* \"#utility.yul\":5268:5274   */\n      0x00\n        /* \"#utility.yul\":5319:5321   */\n      0x1f\n        /* \"#utility.yul\":5315:5322   */\n      not\n        /* \"#utility.yul\":5310:5312   */\n      0x1f\n        /* \"#utility.yul\":5303:5308   */\n      dup4\n        /* \"#utility.yul\":5299:5313   */\n      add\n        /* \"#utility.yul\":5295:5323   */\n      and\n        /* \"#utility.yul\":5285:5323   */\n      swap1\n      pop\n        /* \"#utility.yul\":5227:5329   */\n      swap2\n      swap1\n      pop\n      jump\t// out\n        /* \"#utility.yul\":5335:5708   */\n    tag_54:\n        /* \"#utility.yul\":5421:5424   */\n      0x00\n        /* \"#utility.yul\":5449:5487   */\n      tag_114\n        /* \"#utility.yul\":5481:5486   */\n      dup3\n        /* \"#utility.yul\":5449:5487   */\n      tag_46\n      jump\t// in\n    tag_114:\n        /* \"#utility.yul\":5503:5573   */\n      tag_115\n        /* \"#utility.yul\":5566:5572   */\n      dup2\n        /* \"#utility.yul\":5561:5564   */\n      dup6\n        /* \"#utility.yul\":5503:5573   */\n      tag_52\n      jump\t// in\n    tag_115:\n        /* \"#utility.yul\":5496:5573   */\n      swap4\n      pop\n        /* \"#utility.yul\":5582:5647   */\n      tag_116\n        /* \"#utility.yul\":5640:5646   */\n      dup2\n        /* \"#utility.yul\":5635:5638   */\n      dup6\n        /* \"#utility.yul\":5628:5632   */\n      0x20\n        /* \"#utility.yul\":5621:5626   */\n      dup7\n        /* \"#utility.yul\":5617:5633   */\n      add\n        /* \"#utility.yul\":5582:5647   */\n      tag_48\n      jump\t// in\n    tag_116:\n        /* \"#utility.yul\":5672:5701   */\n      tag_117\n        /* \"#utility.yul\":5694:5700   */\n      dup2\n        /* \"#utility.yul\":5672:5701   */\n      tag_53\n      jump\t// in\n    tag_117:\n        /* \"#utility.yul\":5667:5670   */\n      dup5\n        /* \"#utility.yul\":5663:5702   */\n      add\n        /* \"#utility.yul\":5656:5702   */\n      swap2\n      pop\n        /* \"#utility.yul\":5425:5708   */\n      pop\n        /* \"#utility.yul\":5335:5708   */\n      swap3\n      swap2\n      pop\n      pop\n      jump\t// out\n        /* \"#utility.yul\":5714:6121   */\n    tag_21:\n        /* \"#utility.yul\":5847:5851   */\n      0x00\n        /* \"#utility.yul\":5885:5887   */\n      0x40\n        /* \"#utility.yul\":5874:5883   */\n      dup3\n        /* \"#utility.yul\":5870:5888   */\n      add\n        /* \"#utility.yul\":5862:5888   */\n      swap1\n      pop\n        /* \"#utility.yul\":5898:5963   */\n      tag_119\n        /* \"#utility.yul\":5960:5961   */\n      0x00\n        /* \"#utility.yul\":5949:5958   */\n      dup4\n        /* \"#utility.yul\":5945:5962   */\n      add\n        /* \"#utility.yul\":5936:5942   */\n      dup6\n        /* \"#utility.yul\":5898:5963   */\n      tag_51\n      jump\t// in\n    tag_119:\n        /* \"#utility.yul\":6010:6019   */\n      dup2\n        /* \"#utility.yul\":6004:6008   */\n      dup2\n        /* \"#utility.yul\":6000:6020   */\n      sub\n        /* \"#utility.yul\":5995:5997   */\n      0x20\n        /* \"#utility.yul\":5984:5993   */\n      dup4\n        /* \"#utility.yul\":5980:5998   */\n      add\n        /* \"#utility.yul\":5973:6021   */\n      mstore\n        /* \"#utility.yul\":6038:6114   */\n      tag_120\n        /* \"#utility.yul\":6109:6113   */\n      dup2\n        /* \"#utility.yul\":6100:6106   */\n      dup5\n        /* \"#utility.yul\":6038:6114   */\n      tag_54\n      jump\t// in\n    tag_120:\n        /* \"#utility.yul\":6030:6114   */\n      swap1\n      pop\n        /* \"#utility.yul\":5714:6121   */\n      swap4\n      swap3\n      pop\n      pop\n      pop\n      jump\t// out\n\n    auxdata: 0xa2646970667358221220e4f190cae0bc42fc3f5922ccbd1afe000787ba9906a22d597130cfabe102947d64736f6c634300081a0033\n}\n",
				"bytecode": {
					"linkReferences": {},
					"object": "6080604052348015600e575f80fd5b506105ce8061001c5f395ff3fe608060405260043610610028575f3560e01c806387ba61791461002c578063ff00726c14610048575b5f80fd5b6100466004803603810190610041919061032b565b610064565b005b610062600480360381019061005d9190610391565b6101a1565b005b5f808273ffffffffffffffffffffffffffffffffffffffff163461138890607b6040516024016100949190610464565b6040516020818303038152906040527f24ccab8f000000000000000000000000000000000000000000000000000000007bffffffffffffffffffffffffffffffffffffffffffffffffffffffff19166020820180517bffffffffffffffffffffffffffffffffffffffffffffffffffffffff838183161783525050505060405161011e91906104e2565b5f60405180830381858888f193505050503d805f8114610159576040519150601f19603f3d011682016040523d82523d5f602084013e61015e565b606091505b50915091507f13848c3e38f8886f3f5d2ad9dff80d8092c2bbb8efd5b887a99c2c6cfc09ac2a828260405161019492919061056a565b60405180910390a1505050565b5f808273ffffffffffffffffffffffffffffffffffffffff16346040516024016040516020818303038152906040527f1dcc85ae000000000000000000000000000000000000000000000000000000007bffffffffffffffffffffffffffffffffffffffffffffffffffffffff19166020820180517bffffffffffffffffffffffffffffffffffffffffffffffffffffffff838183161783525050505060405161024b91906104e2565b5f6040518083038185875af1925050503d805f8114610285576040519150601f19603f3d011682016040523d82523d5f602084013e61028a565b606091505b50915091507f13848c3e38f8886f3f5d2ad9dff80d8092c2bbb8efd5b887a99c2c6cfc09ac2a82826040516102c092919061056a565b60405180910390a1505050565b5f80fd5b5f73ffffffffffffffffffffffffffffffffffffffff82169050919050565b5f6102fa826102d1565b9050919050565b61030a816102f0565b8114610314575f80fd5b50565b5f8135905061032581610301565b92915050565b5f602082840312156103405761033f6102cd565b5b5f61034d84828501610317565b91505092915050565b5f610360826102d1565b9050919050565b61037081610356565b811461037a575f80fd5b50565b5f8135905061038b81610367565b92915050565b5f602082840312156103a6576103a56102cd565b5b5f6103b38482850161037d565b91505092915050565b5f82825260208201905092915050565b7f63616c6c20666f6f0000000000000000000000000000000000000000000000005f82015250565b5f6104006008836103bc565b915061040b826103cc565b602082019050919050565b5f819050919050565b5f60ff82169050919050565b5f819050919050565b5f61044e61044961044484610416565b61042b565b61041f565b9050919050565b61045e81610434565b82525050565b5f6040820190508181035f83015261047b816103f4565b905061048a6020830184610455565b92915050565b5f81519050919050565b5f81905092915050565b8281835e5f83830152505050565b5f6104bc82610490565b6104c6818561049a565b93506104d68185602086016104a4565b80840191505092915050565b5f6104ed82846104b2565b915081905092915050565b5f8115159050919050565b61050c816104f8565b82525050565b5f82825260208201905092915050565b5f601f19601f8301169050919050565b5f61053c82610490565b6105468185610512565b93506105568185602086016104a4565b61055f81610522565b840191505092915050565b5f60408201905061057d5f830185610503565b818103602083015261058f8184610532565b9050939250505056fea2646970667358221220e4f190cae0bc42fc3f5922ccbd1afe000787ba9906a22d597130cfabe102947d64736f6c634300081a0033",
					"opcodes": "PUSH1 0x80 PUSH1 0x40 MSTORE CALLVALUE DUP1 ISZERO PUSH1 0xE JUMPI PUSH0 DUP1 REVERT JUMPDEST POP PUSH2 0x5CE DUP1 PUSH2 0x1C PUSH0 CODECOPY PUSH0 RETURN INVALID PUSH1 0x80 PUSH1 0x40 MSTORE PUSH1 0x4 CALLDATASIZE LT PUSH2 0x28 JUMPI PUSH0 CALLDATALOAD PUSH1 0xE0 SHR DUP1 PUSH4 0x87BA6179 EQ PUSH2 0x2C JUMPI DUP1 PUSH4 0xFF00726C EQ PUSH2 0x48 JUMPI JUMPDEST PUSH0 DUP1 REVERT JUMPDEST PUSH2 0x46 PUSH1 0x4 DUP1 CALLDATASIZE SUB DUP2 ADD SWAP1 PUSH2 0x41 SWAP2 SWAP1 PUSH2 0x32B JUMP JUMPDEST PUSH2 0x64 JUMP JUMPDEST STOP JUMPDEST PUSH2 0x62 PUSH1 0x4 DUP1 CALLDATASIZE SUB DUP2 ADD SWAP1 PUSH2 0x5D SWAP2 SWAP1 PUSH2 0x391 JUMP JUMPDEST PUSH2 0x1A1 JUMP JUMPDEST STOP JUMPDEST PUSH0 DUP1 DUP3 PUSH20 0xFFFFFFFFFFFFFFFFFFFFFFFFFFFFFFFFFFFFFFFF AND CALLVALUE PUSH2 0x1388 SWAP1 PUSH1 0x7B PUSH1 0x40 MLOAD PUSH1 0x24 ADD PUSH2 0x94 SWAP2 SWAP1 PUSH2 0x464 JUMP JUMPDEST PUSH1 0x40 MLOAD PUSH1 0x20 DUP2 DUP4 SUB SUB DUP2 MSTORE SWAP1 PUSH1 0x40 MSTORE PUSH32 0x24CCAB8F00000000000000000000000000000000000000000000000000000000 PUSH28 0xFFFFFFFFFFFFFFFFFFFFFFFFFFFFFFFFFFFFFFFFFFFFFFFFFFFFFFFF NOT AND PUSH1 0x20 DUP3 ADD DUP1 MLOAD PUSH28 0xFFFFFFFFFFFFFFFFFFFFFFFFFFFFFFFFFFFFFFFFFFFFFFFFFFFFFFFF DUP4 DUP2 DUP4 AND OR DUP4 MSTORE POP POP POP POP PUSH1 0x40 MLOAD PUSH2 0x11E SWAP2 SWAP1 PUSH2 0x4E2 JUMP JUMPDEST PUSH0 PUSH1 0x40 MLOAD DUP1 DUP4 SUB DUP2 DUP6 DUP9 DUP9 CALL SWAP4 POP POP POP POP RETURNDATASIZE DUP1 PUSH0 DUP2 EQ PUSH2 0x159 JUMPI PUSH1 0x40 MLOAD SWAP2 POP PUSH1 0x1F NOT PUSH1 0x3F RETURNDATASIZE ADD AND DUP3 ADD PUSH1 0x40 MSTORE RETURNDATASIZE DUP3 MSTORE RETURNDATASIZE PUSH0 PUSH1 0x20 DUP5 ADD RETURNDATACOPY PUSH2 0x15E JUMP JUMPDEST PUSH1 0x60 SWAP2 POP JUMPDEST POP SWAP2 POP SWAP2 POP PUSH32 0x13848C3E38F8886F3F5D2AD9DFF80D8092C2BBB8EFD5B887A99C2C6CFC09AC2A DUP3 DUP3 PUSH1 0x40 MLOAD PUSH2 0x194 SWAP3 SWAP2 SWAP1 PUSH2 0x56A JUMP JUMPDEST PUSH1 0x40 MLOAD DUP1 SWAP2 SUB SWAP1 LOG1 POP POP POP JUMP JUMPDEST PUSH0 DUP1 DUP3 PUSH20 0xFFFFFFFFFFFFFFFFFFFFFFFFFFFFFFFFFFFFFFFF AND CALLVALUE PUSH1 0x40 MLOAD PUSH1 0x24 ADD PUSH1 0x40 MLOAD PUSH1 0x20 DUP2 DUP4 SUB SUB DUP2 MSTORE SWAP1 PUSH1 0x40 MSTORE PUSH32 0x1DCC85AE00000000000000000000000000000000000000000000000000000000 PUSH28 0xFFFFFFFFFFFFFFFFFFFFFFFFFFFFFFFFFFFFFFFFFFFFFFFFFFFFFFFF NOT AND PUSH1 0x20 DUP3 ADD DUP1 MLOAD PUSH28 0xFFFFFFFFFFFFFFFFFFFFFFFFFFFFFFFFFFFFFFFFFFFFFFFFFFFFFFFF DUP4 DUP2 DUP4 AND OR DUP4 MSTORE POP POP POP POP PUSH1 0x40 MLOAD PUSH2 0x24B SWAP2 SWAP1 PUSH2 0x4E2 JUMP JUMPDEST PUSH0 PUSH1 0x40 MLOAD DUP1 DUP4 SUB DUP2 DUP6 DUP8 GAS CALL SWAP3 POP POP POP RETURNDATASIZE DUP1 PUSH0 DUP2 EQ PUSH2 0x285 JUMPI PUSH1 0x40 MLOAD SWAP2 POP PUSH1 0x1F NOT PUSH1 0x3F RETURNDATASIZE ADD AND DUP3 ADD PUSH1 0x40 MSTORE RETURNDATASIZE DUP3 MSTORE RETURNDATASIZE PUSH0 PUSH1 0x20 DUP5 ADD RETURNDATACOPY PUSH2 0x28A JUMP JUMPDEST PUSH1 0x60 SWAP2 POP JUMPDEST POP SWAP2 POP SWAP2 POP PUSH32 0x13848C3E38F8886F3F5D2AD9DFF80D8092C2BBB8EFD5B887A99C2C6CFC09AC2A DUP3 DUP3 PUSH1 0x40 MLOAD PUSH2 0x2C0 SWAP3 SWAP2 SWAP1 PUSH2 0x56A JUMP JUMPDEST PUSH1 0x40 MLOAD DUP1 SWAP2 SUB SWAP1 LOG1 POP POP POP JUMP JUMPDEST PUSH0 DUP1 REVERT JUMPDEST PUSH0 PUSH20 0xFFFFFFFFFFFFFFFFFFFFFFFFFFFFFFFFFFFFFFFF DUP3 AND SWAP1 POP SWAP2 SWAP1 POP JUMP JUMPDEST PUSH0 PUSH2 0x2FA DUP3 PUSH2 0x2D1 JUMP JUMPDEST SWAP1 POP SWAP2 SWAP1 POP JUMP JUMPDEST PUSH2 0x30A DUP2 PUSH2 0x2F0 JUMP JUMPDEST DUP2 EQ PUSH2 0x314 JUMPI PUSH0 DUP1 REVERT JUMPDEST POP JUMP JUMPDEST PUSH0 DUP2 CALLDATALOAD SWAP1 POP PUSH2 0x325 DUP2 PUSH2 0x301 JUMP JUMPDEST SWAP3 SWAP2 POP POP JUMP JUMPDEST PUSH0 PUSH1 0x20 DUP3 DUP5 SUB SLT ISZERO PUSH2 0x340 JUMPI PUSH2 0x33F PUSH2 0x2CD JUMP JUMPDEST JUMPDEST PUSH0 PUSH2 0x34D DUP5 DUP3 DUP6 ADD PUSH2 0x317 JUMP JUMPDEST SWAP2 POP POP SWAP3 SWAP2 POP POP JUMP JUMPDEST PUSH0 PUSH2 0x360 DUP3 PUSH2 0x2D1 JUMP JUMPDEST SWAP1 POP SWAP2 SWAP1 POP JUMP JUMPDEST PUSH2 0x370 DUP2 PUSH2 0x356 JUMP JUMPDEST DUP2 EQ PUSH2 0x37A JUMPI PUSH0 DUP1 REVERT JUMPDEST POP JUMP JUMPDEST PUSH0 DUP2 CALLDATALOAD SWAP1 POP PUSH2 0x38B DUP2 PUSH2 0x367 JUMP JUMPDEST SWAP3 SWAP2 POP POP JUMP JUMPDEST PUSH0 PUSH1 0x20 DUP3 DUP5 SUB SLT ISZERO PUSH2 0x3A6 JUMPI PUSH2 0x3A5 PUSH2 0x2CD JUMP JUMPDEST JUMPDEST PUSH0 PUSH2 0x3B3 DUP5 DUP3 DUP6 ADD PUSH2 0x37D JUMP JUMPDEST SWAP2 POP POP SWAP3 SWAP2 POP POP JUMP JUMPDEST PUSH0 DUP3 DUP3 MSTORE PUSH1 0x20 DUP3 ADD SWAP1 POP SWAP3 SWAP2 POP POP JUMP JUMPDEST PUSH32 0x63616C6C20666F6F000000000000000000000000000000000000000000000000 PUSH0 DUP3 ADD MSTORE POP JUMP JUMPDEST PUSH0 PUSH2 0x400 PUSH1 0x8 DUP4 PUSH2 0x3BC JUMP JUMPDEST SWAP2 POP PUSH2 0x40B DUP3 PUSH2 0x3CC JUMP JUMPDEST PUSH1 0x20 DUP3 ADD SWAP1 POP SWAP2 SWAP1 POP JUMP JUMPDEST PUSH0 DUP2 SWAP1 POP SWAP2 SWAP1 POP JUMP JUMPDEST PUSH0 PUSH1 0xFF DUP3 AND SWAP1 POP SWAP2 SWAP1 POP JUMP JUMPDEST PUSH0 DUP2 SWAP1 POP SWAP2 SWAP1 POP JUMP JUMPDEST PUSH0 PUSH2 0x44E PUSH2 0x449 PUSH2 0x444 DUP5 PUSH2 0x416 JUMP JUMPDEST PUSH2 0x42B JUMP JUMPDEST PUSH2 0x41F JUMP JUMPDEST SWAP1 POP SWAP2 SWAP1 POP JUMP JUMPDEST PUSH2 0x45E DUP2 PUSH2 0x434 JUMP JUMPDEST DUP3 MSTORE POP POP JUMP JUMPDEST PUSH0 PUSH1 0x40 DUP3 ADD SWAP1 POP DUP2 DUP2 SUB PUSH0 DUP4 ADD MSTORE PUSH2 0x47B DUP2 PUSH2 0x3F4 JUMP JUMPDEST SWAP1 POP PUSH2 0x48A PUSH1 0x20 DUP4 ADD DUP5 PUSH2 0x455 JUMP JUMPDEST SWAP3 SWAP2 POP POP JUMP JUMPDEST PUSH0 DUP2 MLOAD SWAP1 POP SWAP2 SWAP1 POP JUMP JUMPDEST PUSH0 DUP2 SWAP1 POP SWAP3 SWAP2 POP POP JUMP JUMPDEST DUP3 DUP2 DUP4 MCOPY PUSH0 DUP4 DUP4 ADD MSTORE POP POP POP JUMP JUMPDEST PUSH0 PUSH2 0x4BC DUP3 PUSH2 0x490 JUMP JUMPDEST PUSH2 0x4C6 DUP2 DUP6 PUSH2 0x49A JUMP JUMPDEST SWAP4 POP PUSH2 0x4D6 DUP2 DUP6 PUSH1 0x20 DUP7 ADD PUSH2 0x4A4 JUMP JUMPDEST DUP1 DUP5 ADD SWAP2 POP POP SWAP3 SWAP2 POP POP JUMP JUMPDEST PUSH0 PUSH2 0x4ED DUP3 DUP5 PUSH2 0x4B2 JUMP JUMPDEST SWAP2 POP DUP2 SWAP1 POP SWAP3 SWAP2 POP POP JUMP JUMPDEST PUSH0 DUP2 ISZERO ISZERO SWAP1 POP SWAP2 SWAP1 POP JUMP JUMPDEST PUSH2 0x50C DUP2 PUSH2 0x4F8 JUMP JUMPDEST DUP3 MSTORE POP POP JUMP JUMPDEST PUSH0 DUP3 DUP3 MSTORE PUSH1 0x20 DUP3 ADD SWAP1 POP SWAP3 SWAP2 POP POP JUMP JUMPDEST PUSH0 PUSH1 0x1F NOT PUSH1 0x1F DUP4 ADD AND SWAP1 POP SWAP2 SWAP1 POP JUMP JUMPDEST PUSH0 PUSH2 0x53C DUP3 PUSH2 0x490 JUMP JUMPDEST PUSH2 0x546 DUP2 DUP6 PUSH2 0x512 JUMP JUMPDEST SWAP4 POP PUSH2 0x556 DUP2 DUP6 PUSH1 0x20 DUP7 ADD PUSH2 0x4A4 JUMP JUMPDEST PUSH2 0x55F DUP2 PUSH2 0x522 JUMP JUMPDEST DUP5 ADD SWAP2 POP POP SWAP3 SWAP2 POP POP JUMP JUMPDEST PUSH0 PUSH1 0x40 DUP3 ADD SWAP1 POP PUSH2 0x57D PUSH0 DUP4 ADD DUP6 PUSH2 0x503 JUMP JUMPDEST DUP2 DUP2 SUB PUSH1 0x20 DUP4 ADD MSTORE PUSH2 0x58F DUP2 DUP5 PUSH2 0x532 JUMP JUMPDEST SWAP1 POP SWAP4 SWAP3 POP POP POP JUMP INVALID LOG2 PUSH5 0x6970667358 0x22 SLT KECCAK256 0xE4 CALL SWAP1 0xCA 0xE0 0xBC TIMESTAMP 0xFC EXTCODEHASH MSIZE 0x22 0xCC 0xBD BYTE INVALID STOP SMOD DUP8 0xBA SWAP10 MOD LOG2 0x2D MSIZE PUSH18 0x30CFABE102947D64736F6C634300081A0033 "
				},
				"gasEstimates": {
					"creation": {
						"codeDepositCost": "297200",
						"executionCost": "335",
						"totalCost": "297535"
					},
					"external": {
						"testCallDoesNotExist(address)": "infinite",
						"testCallFoo(address)": "infinite"
					}
				},
				"methodIdentifiers": {
					"testCallDoesNotExist(address)": "ff00726c",
					"testCallFoo(address)": "87ba6179"
				}
			},
			"storageLayout": {
				"storage": [],
				"types": null
			},
			"userdoc": {
				"kind": "user",
				"methods": {},
				"version": 1
			}
		}
	}
}