{
	"Learning Pth/SuperEx.sol": {
		"Base2": {
			"abi": [
				{
					"anonymous": false,
					"inputs": [
						{
							"indexed": false,
							"internalType": "string",
							"name": "text",
							"type": "string"
						}
					],
					"name": "Log",
					"type": "event"
				},
				{
					"inputs": [],
					"name": "test_1",
					"outputs": [],
					"stateMutability": "nonpayable",
					"type": "function"
				},
				{
					"inputs": [],
					"name": "test_2",
					"outputs": [],
					"stateMutability": "nonpayable",
					"type": "function"
				}
			],
			"devdoc": {
				"kind": "dev",
				"methods": {},
				"version": 1
			},
			"evm": {
				"assembly": "    /* \"Learning Pth/SuperEx.sol\":293:566  contract Base2 is Base1 {... */\n  mstore(0x40, 0x80)\n  callvalue\n  dup1\n  iszero\n  tag_1\n  jumpi\n  0x00\n  dup1\n  revert\ntag_1:\n  pop\n  dataSize(sub_0)\n  dup1\n  dataOffset(sub_0)\n  0x00\n  codecopy\n  0x00\n  return\nstop\n\nsub_0: assembly {\n        /* \"Learning Pth/SuperEx.sol\":293:566  contract Base2 is Base1 {... */\n      mstore(0x40, 0x80)\n      callvalue\n      dup1\n      iszero\n      tag_1\n      jumpi\n      0x00\n      dup1\n      revert\n    tag_1:\n      pop\n      jumpi(tag_2, lt(calldatasize, 0x04))\n      shr(0xe0, calldataload(0x00))\n      dup1\n      0x663bc990\n      eq\n      tag_3\n      jumpi\n      dup1\n      0x899eb49c\n      eq\n      tag_4\n      jumpi\n    tag_2:\n      0x00\n      dup1\n      revert\n        /* \"Learning Pth/SuperEx.sol\":324:439  function test_1()public virtual override {... */\n    tag_3:\n      tag_5\n      tag_6\n      jump\t// in\n    tag_5:\n      stop\n        /* \"Learning Pth/SuperEx.sol\":447:563  function test_2() public virtual override {... */\n    tag_4:\n      tag_7\n      tag_8\n      jump\t// in\n    tag_7:\n      stop\n        /* \"Learning Pth/SuperEx.sol\":324:439  function test_1()public virtual override {... */\n    tag_6:\n        /* \"Learning Pth/SuperEx.sol\":381:406  Log(\"Base Two, Test One\") */\n      0xcf34ef537ac33ee1ac626ca1587a0a7e8e51561e5514f8cb36afa1c5102b3bab\n      mload(0x40)\n      tag_10\n      swap1\n      tag_11\n      jump\t// in\n    tag_10:\n      mload(0x40)\n      dup1\n      swap2\n      sub\n      swap1\n      log1\n        /* \"Learning Pth/SuperEx.sol\":417:431  Base1.test_1() */\n      tag_12\n        /* \"Learning Pth/SuperEx.sol\":417:429  Base1.test_1 */\n      tag_13\n        /* \"Learning Pth/SuperEx.sol\":417:431  Base1.test_1() */\n      jump\t// in\n    tag_12:\n        /* \"Learning Pth/SuperEx.sol\":324:439  function test_1()public virtual override {... */\n      jump\t// out\n        /* \"Learning Pth/SuperEx.sol\":447:563  function test_2() public virtual override {... */\n    tag_8:\n        /* \"Learning Pth/SuperEx.sol\":505:530  Log(\"Base Two, Test Two\") */\n      0xcf34ef537ac33ee1ac626ca1587a0a7e8e51561e5514f8cb36afa1c5102b3bab\n      mload(0x40)\n      tag_15\n      swap1\n      tag_16\n      jump\t// in\n    tag_15:\n      mload(0x40)\n      dup1\n      swap2\n      sub\n      swap1\n      log1\n        /* \"Learning Pth/SuperEx.sol\":541:555  super.test_2() */\n      tag_17\n        /* \"Learning Pth/SuperEx.sol\":541:553  super.test_2 */\n      tag_18\n        /* \"Learning Pth/SuperEx.sol\":541:555  super.test_2() */\n      jump\t// in\n    tag_17:\n        /* \"Learning Pth/SuperEx.sol\":447:563  function test_2() public virtual override {... */\n      jump\t// out\n        /* \"Learning Pth/SuperEx.sol\":114:196  function test_1() public virtual {... */\n    tag_13:\n        /* \"Learning Pth/SuperEx.sol\":163:188  Log(\"Base One, Test One\") */\n      0xcf34ef537ac33ee1ac626ca1587a0a7e8e51561e5514f8cb36afa1c5102b3bab\n      mload(0x40)\n      tag_20\n      swap1\n      tag_21\n      jump\t// in\n    tag_20:\n      mload(0x40)\n      dup1\n      swap2\n      sub\n      swap1\n      log1\n        /* \"Learning Pth/SuperEx.sol\":114:196  function test_1() public virtual {... */\n      jump\t// out\n        /* \"Learning Pth/SuperEx.sol\":204:286  function test_2() public virtual {... */\n    tag_18:\n        /* \"Learning Pth/SuperEx.sol\":253:278  Log(\"Base One, Test Two\") */\n      0xcf34ef537ac33ee1ac626ca1587a0a7e8e51561e5514f8cb36afa1c5102b3bab\n      mload(0x40)\n      tag_23\n      swap1\n      tag_24\n      jump\t// in\n    tag_23:\n      mload(0x40)\n      dup1\n      swap2\n      sub\n      swap1\n      log1\n        /* \"Learning Pth/SuperEx.sol\":204:286  function test_2() public virtual {... */\n      jump\t// out\n        /* \"#utility.yul\":7:176   */\n    tag_25:\n        /* \"#utility.yul\":91:102   */\n      0x00\n        /* \"#utility.yul\":125:131   */\n      dup3\n        /* \"#utility.yul\":120:123   */\n      dup3\n        /* \"#utility.yul\":113:132   */\n      mstore\n        /* \"#utility.yul\":165:169   */\n      0x20\n        /* \"#utility.yul\":160:163   */\n      dup3\n        /* \"#utility.yul\":156:170   */\n      add\n        /* \"#utility.yul\":141:170   */\n      swap1\n      pop\n        /* \"#utility.yul\":7:176   */\n      swap3\n      swap2\n      pop\n      pop\n      jump\t// out\n        /* \"#utility.yul\":182:350   */\n    tag_26:\n        /* \"#utility.yul\":322:342   */\n      0x426173652054776f2c2054657374204f6e650000000000000000000000000000\n        /* \"#utility.yul\":318:319   */\n      0x00\n        /* \"#utility.yul\":310:316   */\n      dup3\n        /* \"#utility.yul\":306:320   */\n      add\n        /* \"#utility.yul\":299:343   */\n      mstore\n        /* \"#utility.yul\":182:350   */\n      pop\n      jump\t// out\n        /* \"#utility.yul\":356:722   */\n    tag_27:\n        /* \"#utility.yul\":498:501   */\n      0x00\n        /* \"#utility.yul\":519:586   */\n      tag_38\n        /* \"#utility.yul\":583:585   */\n      0x12\n        /* \"#utility.yul\":578:581   */\n      dup4\n        /* \"#utility.yul\":519:586   */\n      tag_25\n      jump\t// in\n    tag_38:\n        /* \"#utility.yul\":512:586   */\n      swap2\n      pop\n        /* \"#utility.yul\":595:688   */\n      tag_39\n        /* \"#utility.yul\":684:687   */\n      dup3\n        /* \"#utility.yul\":595:688   */\n      tag_26\n      jump\t// in\n    tag_39:\n        /* \"#utility.yul\":713:715   */\n      0x20\n        /* \"#utility.yul\":708:711   */\n      dup3\n        /* \"#utility.yul\":704:716   */\n      add\n        /* \"#utility.yul\":697:716   */\n      swap1\n      pop\n        /* \"#utility.yul\":356:722   */\n      swap2\n      swap1\n      pop\n      jump\t// out\n        /* \"#utility.yul\":728:1147   */\n    tag_11:\n        /* \"#utility.yul\":894:898   */\n      0x00\n        /* \"#utility.yul\":932:934   */\n      0x20\n        /* \"#utility.yul\":921:930   */\n      dup3\n        /* \"#utility.yul\":917:935   */\n      add\n        /* \"#utility.yul\":909:935   */\n      swap1\n      pop\n        /* \"#utility.yul\":981:990   */\n      dup2\n        /* \"#utility.yul\":975:979   */\n      dup2\n        /* \"#utility.yul\":971:991   */\n      sub\n        /* \"#utility.yul\":967:968   */\n      0x00\n        /* \"#utility.yul\":956:965   */\n      dup4\n        /* \"#utility.yul\":952:969   */\n      add\n        /* \"#utility.yul\":945:992   */\n      mstore\n        /* \"#utility.yul\":1009:1140   */\n      tag_41\n        /* \"#utility.yul\":1135:1139   */\n      dup2\n        /* \"#utility.yul\":1009:1140   */\n      tag_27\n      jump\t// in\n    tag_41:\n        /* \"#utility.yul\":1001:1140   */\n      swap1\n      pop\n        /* \"#utility.yul\":728:1147   */\n      swap2\n      swap1\n      pop\n      jump\t// out\n        /* \"#utility.yul\":1153:1321   */\n    tag_28:\n        /* \"#utility.yul\":1293:1313   */\n      0x426173652054776f2c20546573742054776f0000000000000000000000000000\n        /* \"#utility.yul\":1289:1290   */\n      0x00\n        /* \"#utility.yul\":1281:1287   */\n      dup3\n        /* \"#utility.yul\":1277:1291   */\n      add\n        /* \"#utility.yul\":1270:1314   */\n      mstore\n        /* \"#utility.yul\":1153:1321   */\n      pop\n      jump\t// out\n        /* \"#utility.yul\":1327:1693   */\n    tag_29:\n        /* \"#utility.yul\":1469:1472   */\n      0x00\n        /* \"#utility.yul\":1490:1557   */\n      tag_44\n        /* \"#utility.yul\":1554:1556   */\n      0x12\n        /* \"#utility.yul\":1549:1552   */\n      dup4\n        /* \"#utility.yul\":1490:1557   */\n      tag_25\n      jump\t// in\n    tag_44:\n        /* \"#utility.yul\":1483:1557   */\n      swap2\n      pop\n        /* \"#utility.yul\":1566:1659   */\n      tag_45\n        /* \"#utility.yul\":1655:1658   */\n      dup3\n        /* \"#utility.yul\":1566:1659   */\n      tag_28\n      jump\t// in\n    tag_45:\n        /* \"#utility.yul\":1684:1686   */\n      0x20\n        /* \"#utility.yul\":1679:1682   */\n      dup3\n        /* \"#utility.yul\":1675:1687   */\n      add\n        /* \"#utility.yul\":1668:1687   */\n      swap1\n      pop\n        /* \"#utility.yul\":1327:1693   */\n      swap2\n      swap1\n      pop\n      jump\t// out\n        /* \"#utility.yul\":1699:2118   */\n    tag_16:\n        /* \"#utility.yul\":1865:1869   */\n      0x00\n        /* \"#utility.yul\":1903:1905   */\n      0x20\n        /* \"#utility.yul\":1892:1901   */\n      dup3\n        /* \"#utility.yul\":1888:1906   */\n      add\n        /* \"#utility.yul\":1880:1906   */\n      swap1\n      pop\n        /* \"#utility.yul\":1952:1961   */\n      dup2\n        /* \"#utility.yul\":1946:1950   */\n      dup2\n        /* \"#utility.yul\":1942:1962   */\n      sub\n        /* \"#utility.yul\":1938:1939   */\n      0x00\n        /* \"#utility.yul\":1927:1936   */\n      dup4\n        /* \"#utility.yul\":1923:1940   */\n      add\n        /* \"#utility.yul\":1916:1963   */\n      mstore\n        /* \"#utility.yul\":1980:2111   */\n      tag_47\n        /* \"#utility.yul\":2106:2110   */\n      dup2\n        /* \"#utility.yul\":1980:2111   */\n      tag_29\n      jump\t// in\n    tag_47:\n        /* \"#utility.yul\":1972:2111   */\n      swap1\n      pop\n        /* \"#utility.yul\":1699:2118   */\n      swap2\n      swap1\n      pop\n      jump\t// out\n        /* \"#utility.yul\":2124:2292   */\n    tag_30:\n        /* \"#utility.yul\":2264:2284   */\n      0x42617365204f6e652c2054657374204f6e650000000000000000000000000000\n        /* \"#utility.yul\":2260:2261   */\n      0x00\n        /* \"#utility.yul\":2252:2258   */\n      dup3\n        /* \"#utility.yul\":2248:2262   */\n      add\n        /* \"#utility.yul\":2241:2285   */\n      mstore\n        /* \"#utility.yul\":2124:2292   */\n      pop\n      jump\t// out\n        /* \"#utility.yul\":2298:2664   */\n    tag_31:\n        /* \"#utility.yul\":2440:2443   */\n      0x00\n        /* \"#utility.yul\":2461:2528   */\n      tag_50\n        /* \"#utility.yul\":2525:2527   */\n      0x12\n        /* \"#utility.yul\":2520:2523   */\n      dup4\n        /* \"#utility.yul\":2461:2528   */\n      tag_25\n      jump\t// in\n    tag_50:\n        /* \"#utility.yul\":2454:2528   */\n      swap2\n      pop\n        /* \"#utility.yul\":2537:2630   */\n      tag_51\n        /* \"#utility.yul\":2626:2629   */\n      dup3\n        /* \"#utility.yul\":2537:2630   */\n      tag_30\n      jump\t// in\n    tag_51:\n        /* \"#utility.yul\":2655:2657   */\n      0x20\n        /* \"#utility.yul\":2650:2653   */\n      dup3\n        /* \"#utility.yul\":2646:2658   */\n      add\n        /* \"#utility.yul\":2639:2658   */\n      swap1\n      pop\n        /* \"#utility.yul\":2298:2664   */\n      swap2\n      swap1\n      pop\n      jump\t// out\n        /* \"#utility.yul\":2670:3089   */\n    tag_21:\n        /* \"#utility.yul\":2836:2840   */\n      0x00\n        /* \"#utility.yul\":2874:2876   */\n      0x20\n        /* \"#utility.yul\":2863:2872   */\n      dup3\n        /* \"#utility.yul\":2859:2877   */\n      add\n        /* \"#utility.yul\":2851:2877   */\n      swap1\n      pop\n        /* \"#utility.yul\":2923:2932   */\n      dup2\n        /* \"#utility.yul\":2917:2921   */\n      dup2\n        /* \"#utility.yul\":2913:2933   */\n      sub\n        /* \"#utility.yul\":2909:2910   */\n      0x00\n        /* \"#utility.yul\":2898:2907   */\n      dup4\n        /* \"#utility.yul\":2894:2911   */\n      add\n        /* \"#utility.yul\":2887:2934   */\n      mstore\n        /* \"#utility.yul\":2951:3082   */\n      tag_53\n        /* \"#utility.yul\":3077:3081   */\n      dup2\n        /* \"#utility.yul\":2951:3082   */\n      tag_31\n      jump\t// in\n    tag_53:\n        /* \"#utility.yul\":2943:3082   */\n      swap1\n      pop\n        /* \"#utility.yul\":2670:3089   */\n      swap2\n      swap1\n      pop\n      jump\t// out\n        /* \"#utility.yul\":3095:3263   */\n    tag_32:\n        /* \"#utility.yul\":3235:3255   */\n      0x42617365204f6e652c20546573742054776f0000000000000000000000000000\n        /* \"#utility.yul\":3231:3232   */\n      0x00\n        /* \"#utility.yul\":3223:3229   */\n      dup3\n        /* \"#utility.yul\":3219:3233   */\n      add\n        /* \"#utility.yul\":3212:3256   */\n      mstore\n        /* \"#utility.yul\":3095:3263   */\n      pop\n      jump\t// out\n        /* \"#utility.yul\":3269:3635   */\n    tag_33:\n        /* \"#utility.yul\":3411:3414   */\n      0x00\n        /* \"#utility.yul\":3432:3499   */\n      tag_56\n        /* \"#utility.yul\":3496:3498   */\n      0x12\n        /* \"#utility.yul\":3491:3494   */\n      dup4\n        /* \"#utility.yul\":3432:3499   */\n      tag_25\n      jump\t// in\n    tag_56:\n        /* \"#utility.yul\":3425:3499   */\n      swap2\n      pop\n        /* \"#utility.yul\":3508:3601   */\n      tag_57\n        /* \"#utility.yul\":3597:3600   */\n      dup3\n        /* \"#utility.yul\":3508:3601   */\n      tag_32\n      jump\t// in\n    tag_57:\n        /* \"#utility.yul\":3626:3628   */\n      0x20\n        /* \"#utility.yul\":3621:3624   */\n      dup3\n        /* \"#utility.yul\":3617:3629   */\n      add\n        /* \"#utility.yul\":3610:3629   */\n      swap1\n      pop\n        /* \"#utility.yul\":3269:3635   */\n      swap2\n      swap1\n      pop\n      jump\t// out\n        /* \"#utility.yul\":3641:4060   */\n    tag_24:\n        /* \"#utility.yul\":3807:3811   */\n      0x00\n        /* \"#utility.yul\":3845:3847   */\n      0x20\n        /* \"#utility.yul\":3834:3843   */\n      dup3\n        /* \"#utility.yul\":3830:3848   */\n      add\n        /* \"#utility.yul\":3822:3848   */\n      swap1\n      pop\n        /* \"#utility.yul\":3894:3903   */\n      dup2\n        /* \"#utility.yul\":3888:3892   */\n      dup2\n        /* \"#utility.yul\":3884:3904   */\n      sub\n        /* \"#utility.yul\":3880:3881   */\n      0x00\n        /* \"#utility.yul\":3869:3878   */\n      dup4\n        /* \"#utility.yul\":3865:3882   */\n      add\n        /* \"#utility.yul\":3858:3905   */\n      mstore\n        /* \"#utility.yul\":3922:4053   */\n      tag_59\n        /* \"#utility.yul\":4048:4052   */\n      dup2\n        /* \"#utility.yul\":3922:4053   */\n      tag_33\n      jump\t// in\n    tag_59:\n        /* \"#utility.yul\":3914:4053   */\n      swap1\n      pop\n        /* \"#utility.yul\":3641:4060   */\n      swap2\n      swap1\n      pop\n      jump\t// out\n\n    auxdata: 0xa26469706673582212209bdd323d5ae15c5a524380bc386a268d085e50b94dbe555e5370dc83d78c570664736f6c634300081a0033\n}\n",
				"bytecode": {
					"linkReferences": {},
					"object": "6080604052348015600e575f80fd5b5061031e8061001c5f395ff3fe608060405234801561000f575f80fd5b5060043610610034575f3560e01c8063663bc99014610038578063899eb49c14610042575b5f80fd5b61004061004c565b005b61004a61008b565b005b7fcf34ef537ac33ee1ac626ca1587a0a7e8e51561e5514f8cb36afa1c5102b3bab60405161007990610192565b60405180910390a16100896100ca565b565b7fcf34ef537ac33ee1ac626ca1587a0a7e8e51561e5514f8cb36afa1c5102b3bab6040516100b8906101fa565b60405180910390a16100c8610101565b565b7fcf34ef537ac33ee1ac626ca1587a0a7e8e51561e5514f8cb36afa1c5102b3bab6040516100f790610262565b60405180910390a1565b7fcf34ef537ac33ee1ac626ca1587a0a7e8e51561e5514f8cb36afa1c5102b3bab60405161012e906102ca565b60405180910390a1565b5f82825260208201905092915050565b7f426173652054776f2c2054657374204f6e6500000000000000000000000000005f82015250565b5f61017c601283610138565b915061018782610148565b602082019050919050565b5f6020820190508181035f8301526101a981610170565b9050919050565b7f426173652054776f2c20546573742054776f00000000000000000000000000005f82015250565b5f6101e4601283610138565b91506101ef826101b0565b602082019050919050565b5f6020820190508181035f830152610211816101d8565b9050919050565b7f42617365204f6e652c2054657374204f6e6500000000000000000000000000005f82015250565b5f61024c601283610138565b915061025782610218565b602082019050919050565b5f6020820190508181035f83015261027981610240565b9050919050565b7f42617365204f6e652c20546573742054776f00000000000000000000000000005f82015250565b5f6102b4601283610138565b91506102bf82610280565b602082019050919050565b5f6020820190508181035f8301526102e1816102a8565b905091905056fea26469706673582212209bdd323d5ae15c5a524380bc386a268d085e50b94dbe555e5370dc83d78c570664736f6c634300081a0033",
					"opcodes": "PUSH1 0x80 PUSH1 0x40 MSTORE CALLVALUE DUP1 ISZERO PUSH1 0xE JUMPI PUSH0 DUP1 REVERT JUMPDEST POP PUSH2 0x31E DUP1 PUSH2 0x1C PUSH0 CODECOPY PUSH0 RETURN INVALID PUSH1 0x80 PUSH1 0x40 MSTORE CALLVALUE DUP1 ISZERO PUSH2 0xF JUMPI PUSH0 DUP1 REVERT JUMPDEST POP PUSH1 0x4 CALLDATASIZE LT PUSH2 0x34 JUMPI PUSH0 CALLDATALOAD PUSH1 0xE0 SHR DUP1 PUSH4 0x663BC990 EQ PUSH2 0x38 JUMPI DUP1 PUSH4 0x899EB49C EQ PUSH2 0x42 JUMPI JUMPDEST PUSH0 DUP1 REVERT JUMPDEST PUSH2 0x40 PUSH2 0x4C JUMP JUMPDEST STOP JUMPDEST PUSH2 0x4A PUSH2 0x8B JUMP JUMPDEST STOP JUMPDEST PUSH32 0xCF34EF537AC33EE1AC626CA1587A0A7E8E51561E5514F8CB36AFA1C5102B3BAB PUSH1 0x40 MLOAD PUSH2 0x79 SWAP1 PUSH2 0x192 JUMP JUMPDEST PUSH1 0x40 MLOAD DUP1 SWAP2 SUB SWAP1 LOG1 PUSH2 0x89 PUSH2 0xCA JUMP JUMPDEST JUMP JUMPDEST PUSH32 0xCF34EF537AC33EE1AC626CA1587A0A7E8E51561E5514F8CB36AFA1C5102B3BAB PUSH1 0x40 MLOAD PUSH2 0xB8 SWAP1 PUSH2 0x1FA JUMP JUMPDEST PUSH1 0x40 MLOAD DUP1 SWAP2 SUB SWAP1 LOG1 PUSH2 0xC8 PUSH2 0x101 JUMP JUMPDEST JUMP JUMPDEST PUSH32 0xCF34EF537AC33EE1AC626CA1587A0A7E8E51561E5514F8CB36AFA1C5102B3BAB PUSH1 0x40 MLOAD PUSH2 0xF7 SWAP1 PUSH2 0x262 JUMP JUMPDEST PUSH1 0x40 MLOAD DUP1 SWAP2 SUB SWAP1 LOG1 JUMP JUMPDEST PUSH32 0xCF34EF537AC33EE1AC626CA1587A0A7E8E51561E5514F8CB36AFA1C5102B3BAB PUSH1 0x40 MLOAD PUSH2 0x12E SWAP1 PUSH2 0x2CA JUMP JUMPDEST PUSH1 0x40 MLOAD DUP1 SWAP2 SUB SWAP1 LOG1 JUMP JUMPDEST PUSH0 DUP3 DUP3 MSTORE PUSH1 0x20 DUP3 ADD SWAP1 POP SWAP3 SWAP2 POP POP JUMP JUMPDEST PUSH32 0x426173652054776F2C2054657374204F6E650000000000000000000000000000 PUSH0 DUP3 ADD MSTORE POP JUMP JUMPDEST PUSH0 PUSH2 0x17C PUSH1 0x12 DUP4 PUSH2 0x138 JUMP JUMPDEST SWAP2 POP PUSH2 0x187 DUP3 PUSH2 0x148 JUMP JUMPDEST PUSH1 0x20 DUP3 ADD SWAP1 POP SWAP2 SWAP1 POP JUMP JUMPDEST PUSH0 PUSH1 0x20 DUP3 ADD SWAP1 POP DUP2 DUP2 SUB PUSH0 DUP4 ADD MSTORE PUSH2 0x1A9 DUP2 PUSH2 0x170 JUMP JUMPDEST SWAP1 POP SWAP2 SWAP1 POP JUMP JUMPDEST PUSH32 0x426173652054776F2C20546573742054776F0000000000000000000000000000 PUSH0 DUP3 ADD MSTORE POP JUMP JUMPDEST PUSH0 PUSH2 0x1E4 PUSH1 0x12 DUP4 PUSH2 0x138 JUMP JUMPDEST SWAP2 POP PUSH2 0x1EF DUP3 PUSH2 0x1B0 JUMP JUMPDEST PUSH1 0x20 DUP3 ADD SWAP1 POP SWAP2 SWAP1 POP JUMP JUMPDEST PUSH0 PUSH1 0x20 DUP3 ADD SWAP1 POP DUP2 DUP2 SUB PUSH0 DUP4 ADD MSTORE PUSH2 0x211 DUP2 PUSH2 0x1D8 JUMP JUMPDEST SWAP1 POP SWAP2 SWAP1 POP JUMP JUMPDEST PUSH32 0x42617365204F6E652C2054657374204F6E650000000000000000000000000000 PUSH0 DUP3 ADD MSTORE POP JUMP JUMPDEST PUSH0 PUSH2 0x24C PUSH1 0x12 DUP4 PUSH2 0x138 JUMP JUMPDEST SWAP2 POP PUSH2 0x257 DUP3 PUSH2 0x218 JUMP JUMPDEST PUSH1 0x20 DUP3 ADD SWAP1 POP SWAP2 SWAP1 POP JUMP JUMPDEST PUSH0 PUSH1 0x20 DUP3 ADD SWAP1 POP DUP2 DUP2 SUB PUSH0 DUP4 ADD MSTORE PUSH2 0x279 DUP2 PUSH2 0x240 JUMP JUMPDEST SWAP1 POP SWAP2 SWAP1 POP JUMP JUMPDEST PUSH32 0x42617365204F6E652C20546573742054776F0000000000000000000000000000 PUSH0 DUP3 ADD MSTORE POP JUMP JUMPDEST PUSH0 PUSH2 0x2B4 PUSH1 0x12 DUP4 PUSH2 0x138 JUMP JUMPDEST SWAP2 POP PUSH2 0x2BF DUP3 PUSH2 0x280 JUMP JUMPDEST PUSH1 0x20 DUP3 ADD SWAP1 POP SWAP2 SWAP1 POP JUMP JUMPDEST PUSH0 PUSH1 0x20 DUP3 ADD SWAP1 POP DUP2 DUP2 SUB PUSH0 DUP4 ADD MSTORE PUSH2 0x2E1 DUP2 PUSH2 0x2A8 JUMP JUMPDEST SWAP1 POP SWAP2 SWAP1 POP JUMP INVALID LOG2 PUSH5 0x6970667358 0x22 SLT KECCAK256 SWAP12 0xDD ORIGIN RETURNDATASIZE GAS 0xE1 TLOAD GAS MSTORE NUMBER DUP1 0xBC CODESIZE PUSH11 0x268D085E50B94DBE555E53 PUSH17 0xDC83D78C570664736F6C634300081A0033 "
				},
				"gasEstimates": {
					"creation": {
						"codeDepositCost": "159600",
						"executionCost": "200",
						"totalCost": "159800"
					},
					"external": {
						"test_1()": "infinite",
						"test_2()": "infinite"
					}
				},
				"methodIdentifiers": {
					"test_1()": "663bc990",
					"test_2()": "899eb49c"
				}
			},
			"storageLayout": {
				"storage": [],
				"types": null
			},
			"userdoc": {
				"kind": "user",
				"methods": {},
				"version": 1
			}
		}
	}
}