{
	"Learning Pth/SuperEx.sol": {
		"Base1": {
			"abi": [
				{
					"anonymous": false,
					"inputs": [
						{
							"indexed": false,
							"internalType": "string",
							"name": "text",
							"type": "string"
						}
					],
					"name": "Log",
					"type": "event"
				},
				{
					"inputs": [],
					"name": "test_1",
					"outputs": [],
					"stateMutability": "nonpayable",
					"type": "function"
				},
				{
					"inputs": [],
					"name": "test_2",
					"outputs": [],
					"stateMutability": "nonpayable",
					"type": "function"
				}
			],
			"devdoc": {
				"kind": "dev",
				"methods": {},
				"version": 1
			},
			"evm": {
				"assembly": "    /* \"Learning Pth/SuperEx.sol\":61:289  contract Base1 {... */\n  mstore(0x40, 0x80)\n  callvalue\n  dup1\n  iszero\n  tag_1\n  jumpi\n  0x00\n  dup1\n  revert\ntag_1:\n  pop\n  dataSize(sub_0)\n  dup1\n  dataOffset(sub_0)\n  0x00\n  codecopy\n  0x00\n  return\nstop\n\nsub_0: assembly {\n        /* \"Learning Pth/SuperEx.sol\":61:289  contract Base1 {... */\n      mstore(0x40, 0x80)\n      callvalue\n      dup1\n      iszero\n      tag_1\n      jumpi\n      0x00\n      dup1\n      revert\n    tag_1:\n      pop\n      jumpi(tag_2, lt(calldatasize, 0x04))\n      shr(0xe0, calldataload(0x00))\n      dup1\n      0x663bc990\n      eq\n      tag_3\n      jumpi\n      dup1\n      0x899eb49c\n      eq\n      tag_4\n      jumpi\n    tag_2:\n      0x00\n      dup1\n      revert\n        /* \"Learning Pth/SuperEx.sol\":114:196  function test_1() public virtual {... */\n    tag_3:\n      tag_5\n      tag_6\n      jump\t// in\n    tag_5:\n      stop\n        /* \"Learning Pth/SuperEx.sol\":204:286  function test_2() public virtual {... */\n    tag_4:\n      tag_7\n      tag_8\n      jump\t// in\n    tag_7:\n      stop\n        /* \"Learning Pth/SuperEx.sol\":114:196  function test_1() public virtual {... */\n    tag_6:\n        /* \"Learning Pth/SuperEx.sol\":163:188  Log(\"Base One, Test One\") */\n      0xcf34ef537ac33ee1ac626ca1587a0a7e8e51561e5514f8cb36afa1c5102b3bab\n      mload(0x40)\n      tag_10\n      swap1\n      tag_11\n      jump\t// in\n    tag_10:\n      mload(0x40)\n      dup1\n      swap2\n      sub\n      swap1\n      log1\n        /* \"Learning Pth/SuperEx.sol\":114:196  function test_1() public virtual {... */\n      jump\t// out\n        /* \"Learning Pth/SuperEx.sol\":204:286  function test_2() public virtual {... */\n    tag_8:\n        /* \"Learning Pth/SuperEx.sol\":253:278  Log(\"Base One, Test Two\") */\n      0xcf34ef537ac33ee1ac626ca1587a0a7e8e51561e5514f8cb36afa1c5102b3bab\n      mload(0x40)\n      tag_13\n      swap1\n      tag_14\n      jump\t// in\n    tag_13:\n      mload(0x40)\n      dup1\n      swap2\n      sub\n      swap1\n      log1\n        /* \"Learning Pth/SuperEx.sol\":204:286  function test_2() public virtual {... */\n      jump\t// out\n        /* \"#utility.yul\":7:176   */\n    tag_15:\n        /* \"#utility.yul\":91:102   */\n      0x00\n        /* \"#utility.yul\":125:131   */\n      dup3\n        /* \"#utility.yul\":120:123   */\n      dup3\n        /* \"#utility.yul\":113:132   */\n      mstore\n        /* \"#utility.yul\":165:169   */\n      0x20\n        /* \"#utility.yul\":160:163   */\n      dup3\n        /* \"#utility.yul\":156:170   */\n      add\n        /* \"#utility.yul\":141:170   */\n      swap1\n      pop\n        /* \"#utility.yul\":7:176   */\n      swap3\n      swap2\n      pop\n      pop\n      jump\t// out\n        /* \"#utility.yul\":182:350   */\n    tag_16:\n        /* \"#utility.yul\":322:342   */\n      0x42617365204f6e652c2054657374204f6e650000000000000000000000000000\n        /* \"#utility.yul\":318:319   */\n      0x00\n        /* \"#utility.yul\":310:316   */\n      dup3\n        /* \"#utility.yul\":306:320   */\n      add\n        /* \"#utility.yul\":299:343   */\n      mstore\n        /* \"#utility.yul\":182:350   */\n      pop\n      jump\t// out\n        /* \"#utility.yul\":356:722   */\n    tag_17:\n        /* \"#utility.yul\":498:501   */\n      0x00\n        /* \"#utility.yul\":519:586   */\n      tag_24\n        /* \"#utility.yul\":583:585   */\n      0x12\n        /* \"#utility.yul\":578:581   */\n      dup4\n        /* \"#utility.yul\":519:586   */\n      tag_15\n      jump\t// in\n    tag_24:\n        /* \"#utility.yul\":512:586   */\n      swap2\n      pop\n        /* \"#utility.yul\":595:688   */\n      tag_25\n        /* \"#utility.yul\":684:687   */\n      dup3\n        /* \"#utility.yul\":595:688   */\n      tag_16\n      jump\t// in\n    tag_25:\n        /* \"#utility.yul\":713:715   */\n      0x20\n        /* \"#utility.yul\":708:711   */\n      dup3\n        /* \"#utility.yul\":704:716   */\n      add\n        /* \"#utility.yul\":697:716   */\n      swap1\n      pop\n        /* \"#utility.yul\":356:722   */\n      swap2\n      swap1\n      pop\n      jump\t// out\n        /* \"#utility.yul\":728:1147   */\n    tag_11:\n        /* \"#utility.yul\":894:898   */\n      0x00\n        /* \"#utility.yul\":932:934   */\n      0x20\n        /* \"#utility.yul\":921:930   */\n      dup3\n        /* \"#utility.yul\":917:935   */\n      add\n        /* \"#utility.yul\":909:935   */\n      swap1\n      pop\n        /* \"#utility.yul\":981:990   */\n      dup2\n        /* \"#utility.yul\":975:979   */\n      dup2\n        /* \"#utility.yul\":971:991   */\n      sub\n        /* \"#utility.yul\":967:968   */\n      0x00\n        /* \"#utility.yul\":956:965   */\n      dup4\n        /* \"#utility.yul\":952:969   */\n      add\n        /* \"#utility.yul\":945:992   */\n      mstore\n        /* \"#utility.yul\":1009:1140   */\n      tag_27\n        /* \"#utility.yul\":1135:1139   */\n      dup2\n        /* \"#utility.yul\":1009:1140   */\n      tag_17\n      jump\t// in\n    tag_27:\n        /* \"#utility.yul\":1001:1140   */\n      swap1\n      pop\n        /* \"#utility.yul\":728:1147   */\n      swap2\n      swap1\n      pop\n      jump\t// out\n        /* \"#utility.yul\":1153:1321   */\n    tag_18:\n        /* \"#utility.yul\":1293:1313   */\n      0x42617365204f6e652c20546573742054776f0000000000000000000000000000\n        /* \"#utility.yul\":1289:1290   */\n      0x00\n        /* \"#utility.yul\":1281:1287   */\n      dup3\n        /* \"#utility.yul\":1277:1291   */\n      add\n        /* \"#utility.yul\":1270:1314   */\n      mstore\n        /* \"#utility.yul\":1153:1321   */\n      pop\n      jump\t// out\n        /* \"#utility.yul\":1327:1693   */\n    tag_19:\n        /* \"#utility.yul\":1469:1472   */\n      0x00\n        /* \"#utility.yul\":1490:1557   */\n      tag_30\n        /* \"#utility.yul\":1554:1556   */\n      0x12\n        /* \"#utility.yul\":1549:1552   */\n      dup4\n        /* \"#utility.yul\":1490:1557   */\n      tag_15\n      jump\t// in\n    tag_30:\n        /* \"#utility.yul\":1483:1557   */\n      swap2\n      pop\n        /* \"#utility.yul\":1566:1659   */\n      tag_31\n        /* \"#utility.yul\":1655:1658   */\n      dup3\n        /* \"#utility.yul\":1566:1659   */\n      tag_18\n      jump\t// in\n    tag_31:\n        /* \"#utility.yul\":1684:1686   */\n      0x20\n        /* \"#utility.yul\":1679:1682   */\n      dup3\n        /* \"#utility.yul\":1675:1687   */\n      add\n        /* \"#utility.yul\":1668:1687   */\n      swap1\n      pop\n        /* \"#utility.yul\":1327:1693   */\n      swap2\n      swap1\n      pop\n      jump\t// out\n        /* \"#utility.yul\":1699:2118   */\n    tag_14:\n        /* \"#utility.yul\":1865:1869   */\n      0x00\n        /* \"#utility.yul\":1903:1905   */\n      0x20\n        /* \"#utility.yul\":1892:1901   */\n      dup3\n        /* \"#utility.yul\":1888:1906   */\n      add\n        /* \"#utility.yul\":1880:1906   */\n      swap1\n      pop\n        /* \"#utility.yul\":1952:1961   */\n      dup2\n        /* \"#utility.yul\":1946:1950   */\n      dup2\n        /* \"#utility.yul\":1942:1962   */\n      sub\n        /* \"#utility.yul\":1938:1939   */\n      0x00\n        /* \"#utility.yul\":1927:1936   */\n      dup4\n        /* \"#utility.yul\":1923:1940   */\n      add\n        /* \"#utility.yul\":1916:1963   */\n      mstore\n        /* \"#utility.yul\":1980:2111   */\n      tag_33\n        /* \"#utility.yul\":2106:2110   */\n      dup2\n        /* \"#utility.yul\":1980:2111   */\n      tag_19\n      jump\t// in\n    tag_33:\n        /* \"#utility.yul\":1972:2111   */\n      swap1\n      pop\n        /* \"#utility.yul\":1699:2118   */\n      swap2\n      swap1\n      pop\n      jump\t// out\n\n    auxdata: 0xa2646970667358221220e8a0a82a5f0831537115bed87e76fcdd77ac71c8eb7bfeb52d0e7dad23ca911764736f6c634300081a0033\n}\n",
				"bytecode": {
					"linkReferences": {},
					"object": "6080604052348015600e575f80fd5b506101d08061001c5f395ff3fe608060405234801561000f575f80fd5b5060043610610034575f3560e01c8063663bc99014610038578063899eb49c14610042575b5f80fd5b61004061004c565b005b61004a610083565b005b7fcf34ef537ac33ee1ac626ca1587a0a7e8e51561e5514f8cb36afa1c5102b3bab60405161007990610114565b60405180910390a1565b7fcf34ef537ac33ee1ac626ca1587a0a7e8e51561e5514f8cb36afa1c5102b3bab6040516100b09061017c565b60405180910390a1565b5f82825260208201905092915050565b7f42617365204f6e652c2054657374204f6e6500000000000000000000000000005f82015250565b5f6100fe6012836100ba565b9150610109826100ca565b602082019050919050565b5f6020820190508181035f83015261012b816100f2565b9050919050565b7f42617365204f6e652c20546573742054776f00000000000000000000000000005f82015250565b5f6101666012836100ba565b915061017182610132565b602082019050919050565b5f6020820190508181035f8301526101938161015a565b905091905056fea2646970667358221220e8a0a82a5f0831537115bed87e76fcdd77ac71c8eb7bfeb52d0e7dad23ca911764736f6c634300081a0033",
					"opcodes": "PUSH1 0x80 PUSH1 0x40 MSTORE CALLVALUE DUP1 ISZERO PUSH1 0xE JUMPI PUSH0 DUP1 REVERT JUMPDEST POP PUSH2 0x1D0 DUP1 PUSH2 0x1C PUSH0 CODECOPY PUSH0 RETURN INVALID PUSH1 0x80 PUSH1 0x40 MSTORE CALLVALUE DUP1 ISZERO PUSH2 0xF JUMPI PUSH0 DUP1 REVERT JUMPDEST POP PUSH1 0x4 CALLDATASIZE LT PUSH2 0x34 JUMPI PUSH0 CALLDATALOAD PUSH1 0xE0 SHR DUP1 PUSH4 0x663BC990 EQ PUSH2 0x38 JUMPI DUP1 PUSH4 0x899EB49C EQ PUSH2 0x42 JUMPI JUMPDEST PUSH0 DUP1 REVERT JUMPDEST PUSH2 0x40 PUSH2 0x4C JUMP JUMPDEST STOP JUMPDEST PUSH2 0x4A PUSH2 0x83 JUMP JUMPDEST STOP JUMPDEST PUSH32 0xCF34EF537AC33EE1AC626CA1587A0A7E8E51561E5514F8CB36AFA1C5102B3BAB PUSH1 0x40 MLOAD PUSH2 0x79 SWAP1 PUSH2 0x114 JUMP JUMPDEST PUSH1 0x40 MLOAD DUP1 SWAP2 SUB SWAP1 LOG1 JUMP JUMPDEST PUSH32 0xCF34EF537AC33EE1AC626CA1587A0A7E8E51561E5514F8CB36AFA1C5102B3BAB PUSH1 0x40 MLOAD PUSH2 0xB0 SWAP1 PUSH2 0x17C JUMP JUMPDEST PUSH1 0x40 MLOAD DUP1 SWAP2 SUB SWAP1 LOG1 JUMP JUMPDEST PUSH0 DUP3 DUP3 MSTORE PUSH1 0x20 DUP3 ADD SWAP1 POP SWAP3 SWAP2 POP POP JUMP JUMPDEST PUSH32 0x42617365204F6E652C2054657374204F6E650000000000000000000000000000 PUSH0 DUP3 ADD MSTORE POP JUMP JUMPDEST PUSH0 PUSH2 0xFE PUSH1 0x12 DUP4 PUSH2 0xBA JUMP JUMPDEST SWAP2 POP PUSH2 0x109 DUP3 PUSH2 0xCA JUMP JUMPDEST PUSH1 0x20 DUP3 ADD SWAP1 POP SWAP2 SWAP1 POP JUMP JUMPDEST PUSH0 PUSH1 0x20 DUP3 ADD SWAP1 POP DUP2 DUP2 SUB PUSH0 DUP4 ADD MSTORE PUSH2 0x12B DUP2 PUSH2 0xF2 JUMP JUMPDEST SWAP1 POP SWAP2 SWAP1 POP JUMP JUMPDEST PUSH32 0x42617365204F6E652C20546573742054776F0000000000000000000000000000 PUSH0 DUP3 ADD MSTORE POP JUMP JUMPDEST PUSH0 PUSH2 0x166 PUSH1 0x12 DUP4 PUSH2 0xBA JUMP JUMPDEST SWAP2 POP PUSH2 0x171 DUP3 PUSH2 0x132 JUMP JUMPDEST PUSH1 0x20 DUP3 ADD SWAP1 POP SWAP2 SWAP1 POP JUMP JUMPDEST PUSH0 PUSH1 0x20 DUP3 ADD SWAP1 POP DUP2 DUP2 SUB PUSH0 DUP4 ADD MSTORE PUSH2 0x193 DUP2 PUSH2 0x15A JUMP JUMPDEST SWAP1 POP SWAP2 SWAP1 POP JUMP INVALID LOG2 PUSH5 0x6970667358 0x22 SLT KECCAK256 0xE8 LOG0 0xA8 0x2A PUSH0 ADDMOD BALANCE MSTORE8 PUSH18 0x15BED87E76FCDD77AC71C8EB7BFEB52D0E7D 0xAD 0x23 0xCA SWAP2 OR PUSH5 0x736F6C6343 STOP ADDMOD BYTE STOP CALLER "
				},
				"gasEstimates": {
					"creation": {
						"codeDepositCost": "92800",
						"executionCost": "139",
						"totalCost": "92939"
					},
					"external": {
						"test_1()": "1918",
						"test_2()": "1940"
					}
				},
				"methodIdentifiers": {
					"test_1()": "663bc990",
					"test_2()": "899eb49c"
				}
			},
			"storageLayout": {
				"storage": [],
				"types": null
			},
			"userdoc": {
				"kind": "user",
				"methods": {},
				"version": 1
			}
		}
	}
}