{
	"Learning Pth/CreateContractFromContractEX.sol": {
		"CityCreation": {
			"abi": [
				{
					"inputs": [
						{
							"internalType": "uint256",
							"name": "",
							"type": "uint256"
						}
					],
					"name": "cities",
					"outputs": [
						{
							"internalType": "contract Creator",
							"name": "",
							"type": "address"
						}
					],
					"stateMutability": "view",
					"type": "function"
				},
				{
					"inputs": [
						{
							"internalType": "address",
							"name": "_owner",
							"type": "address"
						},
						{
							"internalType": "string",
							"name": "_city",
							"type": "string"
						}
					],
					"name": "create",
					"outputs": [],
					"stateMutability": "nonpayable",
					"type": "function"
				},
				{
					"inputs": [
						{
							"internalType": "address",
							"name": "_owner",
							"type": "address"
						},
						{
							"internalType": "string",
							"name": "_city",
							"type": "string"
						}
					],
					"name": "createAndSendEther",
					"outputs": [],
					"stateMutability": "payable",
					"type": "function"
				},
				{
					"inputs": [
						{
							"internalType": "uint256",
							"name": "_index",
							"type": "uint256"
						}
					],
					"name": "getCities",
					"outputs": [
						{
							"internalType": "address",
							"name": "owner",
							"type": "address"
						},
						{
							"internalType": "address",
							"name": "cityAddr",
							"type": "address"
						},
						{
							"internalType": "string",
							"name": "city",
							"type": "string"
						},
						{
							"internalType": "uint256",
							"name": "balance",
							"type": "uint256"
						}
					],
					"stateMutability": "view",
					"type": "function"
				}
			],
			"devdoc": {
				"kind": "dev",
				"methods": {},
				"version": 1
			},
			"evm": {
				"assembly": "    /* \"Learning Pth/CreateContractFromContractEX.sol\":324:1020  contract CityCreation {... */\n  mstore(0x40, 0x80)\n  callvalue\n  dup1\n  iszero\n  tag_1\n  jumpi\n  0x00\n  dup1\n  revert\ntag_1:\n  pop\n  dataSize(sub_0)\n  dup1\n  dataOffset(sub_0)\n  0x00\n  codecopy\n  0x00\n  return\nstop\n\nsub_0: assembly {\n        /* \"Learning Pth/CreateContractFromContractEX.sol\":324:1020  contract CityCreation {... */\n      mstore(0x40, 0x80)\n      jumpi(tag_1, lt(calldatasize, 0x04))\n      shr(0xe0, calldataload(0x00))\n      dup1\n      0x6a51b918\n      eq\n      tag_2\n      jumpi\n      dup1\n      0x7fe4faf8\n      eq\n      tag_3\n      jumpi\n      dup1\n      0xa15ab08d\n      eq\n      tag_4\n      jumpi\n      dup1\n      0xc33cd615\n      eq\n      tag_5\n      jumpi\n    tag_1:\n      0x00\n      dup1\n      revert\n        /* \"Learning Pth/CreateContractFromContractEX.sol\":353:376  Creator[] public cities */\n    tag_2:\n      callvalue\n      dup1\n      iszero\n      tag_6\n      jumpi\n      0x00\n      dup1\n      revert\n    tag_6:\n      pop\n      tag_7\n      0x04\n      dup1\n      calldatasize\n      sub\n      dup2\n      add\n      swap1\n      tag_8\n      swap2\n      swap1\n      tag_9\n      jump\t// in\n    tag_8:\n      tag_10\n      jump\t// in\n    tag_7:\n      mload(0x40)\n      tag_11\n      swap2\n      swap1\n      tag_12\n      jump\t// in\n    tag_11:\n      mload(0x40)\n      dup1\n      swap2\n      sub\n      swap1\n      return\n        /* \"Learning Pth/CreateContractFromContractEX.sol\":749:1017  function getCities(uint _index) public view returns(address owner, address cityAddr, string memory city, uint balance) {... */\n    tag_3:\n      callvalue\n      dup1\n      iszero\n      tag_13\n      jumpi\n      0x00\n      dup1\n      revert\n    tag_13:\n      pop\n      tag_14\n      0x04\n      dup1\n      calldatasize\n      sub\n      dup2\n      add\n      swap1\n      tag_15\n      swap2\n      swap1\n      tag_9\n      jump\t// in\n    tag_15:\n      tag_16\n      jump\t// in\n    tag_14:\n      mload(0x40)\n      tag_17\n      swap5\n      swap4\n      swap3\n      swap2\n      swap1\n      tag_18\n      jump\t// in\n    tag_17:\n      mload(0x40)\n      dup1\n      swap2\n      sub\n      swap1\n      return\n        /* \"Learning Pth/CreateContractFromContractEX.sol\":385:539  function create(address _owner, string memory _city) public {... */\n    tag_4:\n      callvalue\n      dup1\n      iszero\n      tag_19\n      jumpi\n      0x00\n      dup1\n      revert\n    tag_19:\n      pop\n      tag_20\n      0x04\n      dup1\n      calldatasize\n      sub\n      dup2\n      add\n      swap1\n      tag_21\n      swap2\n      swap1\n      tag_22\n      jump\t// in\n    tag_21:\n      tag_23\n      jump\t// in\n    tag_20:\n      stop\n        /* \"Learning Pth/CreateContractFromContractEX.sol\":547:741  function createAndSendEther(address _owner, string memory _city) public payable {... */\n    tag_5:\n      tag_24\n      0x04\n      dup1\n      calldatasize\n      sub\n      dup2\n      add\n      swap1\n      tag_25\n      swap2\n      swap1\n      tag_22\n      jump\t// in\n    tag_25:\n      tag_26\n      jump\t// in\n    tag_24:\n      stop\n        /* \"Learning Pth/CreateContractFromContractEX.sol\":353:376  Creator[] public cities */\n    tag_10:\n      0x00\n      dup2\n      dup2\n      sload\n      dup2\n      lt\n      tag_27\n      jumpi\n      0x00\n      dup1\n      revert\n    tag_27:\n      swap1\n      0x00\n      mstore\n      keccak256(0x00, 0x20)\n      add\n      0x00\n      swap2\n      pop\n      sload\n      swap1\n      0x0100\n      exp\n      swap1\n      div\n      0xffffffffffffffffffffffffffffffffffffffff\n      and\n      dup2\n      jump\t// out\n        /* \"Learning Pth/CreateContractFromContractEX.sol\":749:1017  function getCities(uint _index) public view returns(address owner, address cityAddr, string memory city, uint balance) {... */\n    tag_16:\n        /* \"Learning Pth/CreateContractFromContractEX.sol\":801:814  address owner */\n      0x00\n        /* \"Learning Pth/CreateContractFromContractEX.sol\":816:832  address cityAddr */\n      dup1\n        /* \"Learning Pth/CreateContractFromContractEX.sol\":834:852  string memory city */\n      0x60\n        /* \"Learning Pth/CreateContractFromContractEX.sol\":854:866  uint balance */\n      0x00\n        /* \"Learning Pth/CreateContractFromContractEX.sol\":879:894  Creator creator */\n      dup1\n        /* \"Learning Pth/CreateContractFromContractEX.sol\":898:904  cities */\n      0x00\n        /* \"Learning Pth/CreateContractFromContractEX.sol\":905:911  _index */\n      dup7\n        /* \"Learning Pth/CreateContractFromContractEX.sol\":898:912  cities[_index] */\n      dup2\n      sload\n      dup2\n      lt\n      tag_30\n      jumpi\n      tag_31\n      tag_32\n      jump\t// in\n    tag_31:\n    tag_30:\n      swap1\n      0x00\n      mstore\n      keccak256(0x00, 0x20)\n      add\n      0x00\n      swap1\n      sload\n      swap1\n      0x0100\n      exp\n      swap1\n      div\n      0xffffffffffffffffffffffffffffffffffffffff\n      and\n        /* \"Learning Pth/CreateContractFromContractEX.sol\":879:912  Creator creator =  cities[_index] */\n      swap1\n      pop\n        /* \"Learning Pth/CreateContractFromContractEX.sol\":931:938  creator */\n      dup1\n        /* \"Learning Pth/CreateContractFromContractEX.sol\":931:944  creator.owner */\n      0xffffffffffffffffffffffffffffffffffffffff\n      and\n      0x8da5cb5b\n        /* \"Learning Pth/CreateContractFromContractEX.sol\":931:946  creator.owner() */\n      mload(0x40)\n      dup2\n      0xffffffff\n      and\n      0xe0\n      shl\n      dup2\n      mstore\n      0x04\n      add\n      0x20\n      mload(0x40)\n      dup1\n      dup4\n      sub\n      dup2\n      dup7\n      gas\n      staticcall\n      iszero\n      dup1\n      iszero\n      tag_35\n      jumpi\n      returndatasize\n      0x00\n      dup1\n      returndatacopy\n      revert(0x00, returndatasize)\n    tag_35:\n      pop\n      pop\n      pop\n      pop\n      mload(0x40)\n      returndatasize\n      not(0x1f)\n      0x1f\n      dup3\n      add\n      and\n      dup3\n      add\n      dup1\n      0x40\n      mstore\n      pop\n      dup2\n      add\n      swap1\n      tag_36\n      swap2\n      swap1\n      tag_37\n      jump\t// in\n    tag_36:\n        /* \"Learning Pth/CreateContractFromContractEX.sol\":948:955  creator */\n      dup2\n        /* \"Learning Pth/CreateContractFromContractEX.sol\":948:964  creator.cityAddr */\n      0xffffffffffffffffffffffffffffffffffffffff\n      and\n      0x909c0087\n        /* \"Learning Pth/CreateContractFromContractEX.sol\":948:966  creator.cityAddr() */\n      mload(0x40)\n      dup2\n      0xffffffff\n      and\n      0xe0\n      shl\n      dup2\n      mstore\n      0x04\n      add\n      0x20\n      mload(0x40)\n      dup1\n      dup4\n      sub\n      dup2\n      dup7\n      gas\n      staticcall\n      iszero\n      dup1\n      iszero\n      tag_39\n      jumpi\n      returndatasize\n      0x00\n      dup1\n      returndatacopy\n      revert(0x00, returndatasize)\n    tag_39:\n      pop\n      pop\n      pop\n      pop\n      mload(0x40)\n      returndatasize\n      not(0x1f)\n      0x1f\n      dup3\n      add\n      and\n      dup3\n      add\n      dup1\n      0x40\n      mstore\n      pop\n      dup2\n      add\n      swap1\n      tag_40\n      swap2\n      swap1\n      tag_37\n      jump\t// in\n    tag_40:\n        /* \"Learning Pth/CreateContractFromContractEX.sol\":968:975  creator */\n      dup3\n        /* \"Learning Pth/CreateContractFromContractEX.sol\":968:980  creator.city */\n      0xffffffffffffffffffffffffffffffffffffffff\n      and\n      0xfd0160fe\n        /* \"Learning Pth/CreateContractFromContractEX.sol\":968:982  creator.city() */\n      mload(0x40)\n      dup2\n      0xffffffff\n      and\n      0xe0\n      shl\n      dup2\n      mstore\n      0x04\n      add\n      0x00\n      mload(0x40)\n      dup1\n      dup4\n      sub\n      dup2\n      dup7\n      gas\n      staticcall\n      iszero\n      dup1\n      iszero\n      tag_42\n      jumpi\n      returndatasize\n      0x00\n      dup1\n      returndatacopy\n      revert(0x00, returndatasize)\n    tag_42:\n      pop\n      pop\n      pop\n      pop\n      mload(0x40)\n      returndatasize\n      0x00\n      dup3\n      returndatacopy\n      returndatasize\n      not(0x1f)\n      0x1f\n      dup3\n      add\n      and\n      dup3\n      add\n      dup1\n      0x40\n      mstore\n      pop\n      dup2\n      add\n      swap1\n      tag_43\n      swap2\n      swap1\n      tag_44\n      jump\t// in\n    tag_43:\n        /* \"Learning Pth/CreateContractFromContractEX.sol\":992:999  creator */\n      dup4\n        /* \"Learning Pth/CreateContractFromContractEX.sol\":984:1008  address(creator).balance */\n      0xffffffffffffffffffffffffffffffffffffffff\n      and\n      balance\n        /* \"Learning Pth/CreateContractFromContractEX.sol\":923:1009  return (creator.owner(), creator.cityAddr(), creator.city(), address(creator).balance) */\n      swap5\n      pop\n      swap5\n      pop\n      swap5\n      pop\n      swap5\n      pop\n      pop\n        /* \"Learning Pth/CreateContractFromContractEX.sol\":749:1017  function getCities(uint _index) public view returns(address owner, address cityAddr, string memory city, uint balance) {... */\n      swap2\n      swap4\n      pop\n      swap2\n      swap4\n      jump\t// out\n        /* \"Learning Pth/CreateContractFromContractEX.sol\":385:539  function create(address _owner, string memory _city) public {... */\n    tag_23:\n        /* \"Learning Pth/CreateContractFromContractEX.sol\":456:471  Creator creator */\n      0x00\n        /* \"Learning Pth/CreateContractFromContractEX.sol\":486:492  _owner */\n      dup3\n        /* \"Learning Pth/CreateContractFromContractEX.sol\":494:499  _city */\n      dup3\n        /* \"Learning Pth/CreateContractFromContractEX.sol\":474:500  new Creator(_owner, _city) */\n      mload(0x40)\n      tag_46\n      swap1\n      tag_47\n      jump\t// in\n    tag_46:\n      tag_48\n      swap3\n      swap2\n      swap1\n      tag_49\n      jump\t// in\n    tag_48:\n      mload(0x40)\n      dup1\n      swap2\n      sub\n      swap1\n      0x00\n      create\n      dup1\n      iszero\n      dup1\n      iszero\n      tag_50\n      jumpi\n      returndatasize\n      0x00\n      dup1\n      returndatacopy\n      revert(0x00, returndatasize)\n    tag_50:\n      pop\n        /* \"Learning Pth/CreateContractFromContractEX.sol\":456:500  Creator creator = new Creator(_owner, _city) */\n      swap1\n      pop\n        /* \"Learning Pth/CreateContractFromContractEX.sol\":511:517  cities */\n      0x00\n        /* \"Learning Pth/CreateContractFromContractEX.sol\":523:530  creator */\n      dup2\n        /* \"Learning Pth/CreateContractFromContractEX.sol\":511:531  cities.push(creator) */\n      swap1\n      dup1\n      0x01\n      dup2\n      sload\n      add\n      dup1\n      dup3\n      sstore\n      dup1\n      swap2\n      pop\n      pop\n      0x01\n      swap1\n      sub\n      swap1\n      0x00\n      mstore\n      keccak256(0x00, 0x20)\n      add\n      0x00\n      swap1\n      swap2\n      swap1\n      swap2\n      swap1\n      swap2\n      0x0100\n      exp\n      dup2\n      sload\n      dup2\n      0xffffffffffffffffffffffffffffffffffffffff\n      mul\n      not\n      and\n      swap1\n      dup4\n      0xffffffffffffffffffffffffffffffffffffffff\n      and\n      mul\n      or\n      swap1\n      sstore\n      pop\n        /* \"Learning Pth/CreateContractFromContractEX.sol\":445:539  {... */\n      pop\n        /* \"Learning Pth/CreateContractFromContractEX.sol\":385:539  function create(address _owner, string memory _city) public {... */\n      pop\n      pop\n      jump\t// out\n        /* \"Learning Pth/CreateContractFromContractEX.sol\":547:741  function createAndSendEther(address _owner, string memory _city) public payable {... */\n    tag_26:\n        /* \"Learning Pth/CreateContractFromContractEX.sol\":638:653  Creator creator */\n      0x00\n        /* \"Learning Pth/CreateContractFromContractEX.sol\":677:686  msg.value */\n      callvalue\n        /* \"Learning Pth/CreateContractFromContractEX.sol\":688:694  _owner */\n      dup4\n        /* \"Learning Pth/CreateContractFromContractEX.sol\":696:701  _city */\n      dup4\n        /* \"Learning Pth/CreateContractFromContractEX.sol\":656:702  (new Creator){value: msg.value}(_owner, _city) */\n      mload(0x40)\n      tag_53\n      swap1\n      tag_47\n      jump\t// in\n    tag_53:\n      tag_54\n      swap3\n      swap2\n      swap1\n      tag_49\n      jump\t// in\n    tag_54:\n      mload(0x40)\n      dup1\n      swap2\n      sub\n      swap1\n      dup3\n      create\n      swap1\n      pop\n      dup1\n      iszero\n      dup1\n      iszero\n      tag_55\n      jumpi\n      returndatasize\n      0x00\n      dup1\n      returndatacopy\n      revert(0x00, returndatasize)\n    tag_55:\n      pop\n        /* \"Learning Pth/CreateContractFromContractEX.sol\":638:702  Creator creator = (new Creator){value: msg.value}(_owner, _city) */\n      swap1\n      pop\n        /* \"Learning Pth/CreateContractFromContractEX.sol\":713:719  cities */\n      0x00\n        /* \"Learning Pth/CreateContractFromContractEX.sol\":725:732  creator */\n      dup2\n        /* \"Learning Pth/CreateContractFromContractEX.sol\":713:733  cities.push(creator) */\n      swap1\n      dup1\n      0x01\n      dup2\n      sload\n      add\n      dup1\n      dup3\n      sstore\n      dup1\n      swap2\n      pop\n      pop\n      0x01\n      swap1\n      sub\n      swap1\n      0x00\n      mstore\n      keccak256(0x00, 0x20)\n      add\n      0x00\n      swap1\n      swap2\n      swap1\n      swap2\n      swap1\n      swap2\n      0x0100\n      exp\n      dup2\n      sload\n      dup2\n      0xffffffffffffffffffffffffffffffffffffffff\n      mul\n      not\n      and\n      swap1\n      dup4\n      0xffffffffffffffffffffffffffffffffffffffff\n      and\n      mul\n      or\n      swap1\n      sstore\n      pop\n        /* \"Learning Pth/CreateContractFromContractEX.sol\":627:741  {... */\n      pop\n        /* \"Learning Pth/CreateContractFromContractEX.sol\":547:741  function createAndSendEther(address _owner, string memory _city) public payable {... */\n      pop\n      pop\n      jump\t// out\n    tag_47:\n      dataSize(sub_0)\n      dup1\n      dataOffset(sub_0)\n      dup4\n      codecopy\n      add\n      swap1\n      jump\t// out\n        /* \"#utility.yul\":7:82   */\n    tag_57:\n        /* \"#utility.yul\":40:46   */\n      0x00\n        /* \"#utility.yul\":73:75   */\n      0x40\n        /* \"#utility.yul\":67:76   */\n      mload\n        /* \"#utility.yul\":57:76   */\n      swap1\n      pop\n        /* \"#utility.yul\":7:82   */\n      swap1\n      jump\t// out\n        /* \"#utility.yul\":88:205   */\n    tag_58:\n        /* \"#utility.yul\":197:198   */\n      0x00\n        /* \"#utility.yul\":194:195   */\n      dup1\n        /* \"#utility.yul\":187:199   */\n      revert\n        /* \"#utility.yul\":211:328   */\n    tag_59:\n        /* \"#utility.yul\":320:321   */\n      0x00\n        /* \"#utility.yul\":317:318   */\n      dup1\n        /* \"#utility.yul\":310:322   */\n      revert\n        /* \"#utility.yul\":334:411   */\n    tag_60:\n        /* \"#utility.yul\":371:378   */\n      0x00\n        /* \"#utility.yul\":400:405   */\n      dup2\n        /* \"#utility.yul\":389:405   */\n      swap1\n      pop\n        /* \"#utility.yul\":334:411   */\n      swap2\n      swap1\n      pop\n      jump\t// out\n        /* \"#utility.yul\":417:539   */\n    tag_61:\n        /* \"#utility.yul\":490:514   */\n      tag_97\n        /* \"#utility.yul\":508:513   */\n      dup2\n        /* \"#utility.yul\":490:514   */\n      tag_60\n      jump\t// in\n    tag_97:\n        /* \"#utility.yul\":483:488   */\n      dup2\n        /* \"#utility.yul\":480:515   */\n      eq\n        /* \"#utility.yul\":470:533   */\n      tag_98\n      jumpi\n        /* \"#utility.yul\":529:530   */\n      0x00\n        /* \"#utility.yul\":526:527   */\n      dup1\n        /* \"#utility.yul\":519:531   */\n      revert\n        /* \"#utility.yul\":470:533   */\n    tag_98:\n        /* \"#utility.yul\":417:539   */\n      pop\n      jump\t// out\n        /* \"#utility.yul\":545:684   */\n    tag_62:\n        /* \"#utility.yul\":591:596   */\n      0x00\n        /* \"#utility.yul\":629:635   */\n      dup2\n        /* \"#utility.yul\":616:636   */\n      calldataload\n        /* \"#utility.yul\":607:636   */\n      swap1\n      pop\n        /* \"#utility.yul\":645:678   */\n      tag_100\n        /* \"#utility.yul\":672:677   */\n      dup2\n        /* \"#utility.yul\":645:678   */\n      tag_61\n      jump\t// in\n    tag_100:\n        /* \"#utility.yul\":545:684   */\n      swap3\n      swap2\n      pop\n      pop\n      jump\t// out\n        /* \"#utility.yul\":690:1019   */\n    tag_9:\n        /* \"#utility.yul\":749:755   */\n      0x00\n        /* \"#utility.yul\":798:800   */\n      0x20\n        /* \"#utility.yul\":786:795   */\n      dup3\n        /* \"#utility.yul\":777:784   */\n      dup5\n        /* \"#utility.yul\":773:796   */\n      sub\n        /* \"#utility.yul\":769:801   */\n      slt\n        /* \"#utility.yul\":766:885   */\n      iszero\n      tag_102\n      jumpi\n        /* \"#utility.yul\":804:883   */\n      tag_103\n      tag_58\n      jump\t// in\n    tag_103:\n        /* \"#utility.yul\":766:885   */\n    tag_102:\n        /* \"#utility.yul\":924:925   */\n      0x00\n        /* \"#utility.yul\":949:1002   */\n      tag_104\n        /* \"#utility.yul\":994:1001   */\n      dup5\n        /* \"#utility.yul\":985:991   */\n      dup3\n        /* \"#utility.yul\":974:983   */\n      dup6\n        /* \"#utility.yul\":970:992   */\n      add\n        /* \"#utility.yul\":949:1002   */\n      tag_62\n      jump\t// in\n    tag_104:\n        /* \"#utility.yul\":939:1002   */\n      swap2\n      pop\n        /* \"#utility.yul\":895:1012   */\n      pop\n        /* \"#utility.yul\":690:1019   */\n      swap3\n      swap2\n      pop\n      pop\n      jump\t// out\n        /* \"#utility.yul\":1025:1151   */\n    tag_63:\n        /* \"#utility.yul\":1062:1069   */\n      0x00\n        /* \"#utility.yul\":1102:1144   */\n      0xffffffffffffffffffffffffffffffffffffffff\n        /* \"#utility.yul\":1095:1100   */\n      dup3\n        /* \"#utility.yul\":1091:1145   */\n      and\n        /* \"#utility.yul\":1080:1145   */\n      swap1\n      pop\n        /* \"#utility.yul\":1025:1151   */\n      swap2\n      swap1\n      pop\n      jump\t// out\n        /* \"#utility.yul\":1157:1217   */\n    tag_64:\n        /* \"#utility.yul\":1185:1188   */\n      0x00\n        /* \"#utility.yul\":1206:1211   */\n      dup2\n        /* \"#utility.yul\":1199:1211   */\n      swap1\n      pop\n        /* \"#utility.yul\":1157:1217   */\n      swap2\n      swap1\n      pop\n      jump\t// out\n        /* \"#utility.yul\":1223:1365   */\n    tag_65:\n        /* \"#utility.yul\":1273:1282   */\n      0x00\n        /* \"#utility.yul\":1306:1359   */\n      tag_108\n        /* \"#utility.yul\":1324:1358   */\n      tag_109\n        /* \"#utility.yul\":1333:1357   */\n      tag_110\n        /* \"#utility.yul\":1351:1356   */\n      dup5\n        /* \"#utility.yul\":1333:1357   */\n      tag_63\n      jump\t// in\n    tag_110:\n        /* \"#utility.yul\":1324:1358   */\n      tag_64\n      jump\t// in\n    tag_109:\n        /* \"#utility.yul\":1306:1359   */\n      tag_63\n      jump\t// in\n    tag_108:\n        /* \"#utility.yul\":1293:1359   */\n      swap1\n      pop\n        /* \"#utility.yul\":1223:1365   */\n      swap2\n      swap1\n      pop\n      jump\t// out\n        /* \"#utility.yul\":1371:1497   */\n    tag_66:\n        /* \"#utility.yul\":1421:1430   */\n      0x00\n        /* \"#utility.yul\":1454:1491   */\n      tag_112\n        /* \"#utility.yul\":1485:1490   */\n      dup3\n        /* \"#utility.yul\":1454:1491   */\n      tag_65\n      jump\t// in\n    tag_112:\n        /* \"#utility.yul\":1441:1491   */\n      swap1\n      pop\n        /* \"#utility.yul\":1371:1497   */\n      swap2\n      swap1\n      pop\n      jump\t// out\n        /* \"#utility.yul\":1503:1643   */\n    tag_67:\n        /* \"#utility.yul\":1567:1576   */\n      0x00\n        /* \"#utility.yul\":1600:1637   */\n      tag_114\n        /* \"#utility.yul\":1631:1636   */\n      dup3\n        /* \"#utility.yul\":1600:1637   */\n      tag_66\n      jump\t// in\n    tag_114:\n        /* \"#utility.yul\":1587:1637   */\n      swap1\n      pop\n        /* \"#utility.yul\":1503:1643   */\n      swap2\n      swap1\n      pop\n      jump\t// out\n        /* \"#utility.yul\":1649:1808   */\n    tag_68:\n        /* \"#utility.yul\":1750:1801   */\n      tag_116\n        /* \"#utility.yul\":1795:1800   */\n      dup2\n        /* \"#utility.yul\":1750:1801   */\n      tag_67\n      jump\t// in\n    tag_116:\n        /* \"#utility.yul\":1745:1748   */\n      dup3\n        /* \"#utility.yul\":1738:1802   */\n      mstore\n        /* \"#utility.yul\":1649:1808   */\n      pop\n      pop\n      jump\t// out\n        /* \"#utility.yul\":1814:2064   */\n    tag_12:\n        /* \"#utility.yul\":1921:1925   */\n      0x00\n        /* \"#utility.yul\":1959:1961   */\n      0x20\n        /* \"#utility.yul\":1948:1957   */\n      dup3\n        /* \"#utility.yul\":1944:1962   */\n      add\n        /* \"#utility.yul\":1936:1962   */\n      swap1\n      pop\n        /* \"#utility.yul\":1972:2057   */\n      tag_118\n        /* \"#utility.yul\":2054:2055   */\n      0x00\n        /* \"#utility.yul\":2043:2052   */\n      dup4\n        /* \"#utility.yul\":2039:2056   */\n      add\n        /* \"#utility.yul\":2030:2036   */\n      dup5\n        /* \"#utility.yul\":1972:2057   */\n      tag_68\n      jump\t// in\n    tag_118:\n        /* \"#utility.yul\":1814:2064   */\n      swap3\n      swap2\n      pop\n      pop\n      jump\t// out\n        /* \"#utility.yul\":2070:2166   */\n    tag_69:\n        /* \"#utility.yul\":2107:2114   */\n      0x00\n        /* \"#utility.yul\":2136:2160   */\n      tag_120\n        /* \"#utility.yul\":2154:2159   */\n      dup3\n        /* \"#utility.yul\":2136:2160   */\n      tag_63\n      jump\t// in\n    tag_120:\n        /* \"#utility.yul\":2125:2160   */\n      swap1\n      pop\n        /* \"#utility.yul\":2070:2166   */\n      swap2\n      swap1\n      pop\n      jump\t// out\n        /* \"#utility.yul\":2172:2290   */\n    tag_70:\n        /* \"#utility.yul\":2259:2283   */\n      tag_122\n        /* \"#utility.yul\":2277:2282   */\n      dup2\n        /* \"#utility.yul\":2259:2283   */\n      tag_69\n      jump\t// in\n    tag_122:\n        /* \"#utility.yul\":2254:2257   */\n      dup3\n        /* \"#utility.yul\":2247:2284   */\n      mstore\n        /* \"#utility.yul\":2172:2290   */\n      pop\n      pop\n      jump\t// out\n        /* \"#utility.yul\":2296:2395   */\n    tag_71:\n        /* \"#utility.yul\":2348:2354   */\n      0x00\n        /* \"#utility.yul\":2382:2387   */\n      dup2\n        /* \"#utility.yul\":2376:2388   */\n      mload\n        /* \"#utility.yul\":2366:2388   */\n      swap1\n      pop\n        /* \"#utility.yul\":2296:2395   */\n      swap2\n      swap1\n      pop\n      jump\t// out\n        /* \"#utility.yul\":2401:2570   */\n    tag_72:\n        /* \"#utility.yul\":2485:2496   */\n      0x00\n        /* \"#utility.yul\":2519:2525   */\n      dup3\n        /* \"#utility.yul\":2514:2517   */\n      dup3\n        /* \"#utility.yul\":2507:2526   */\n      mstore\n        /* \"#utility.yul\":2559:2563   */\n      0x20\n        /* \"#utility.yul\":2554:2557   */\n      dup3\n        /* \"#utility.yul\":2550:2564   */\n      add\n        /* \"#utility.yul\":2535:2564   */\n      swap1\n      pop\n        /* \"#utility.yul\":2401:2570   */\n      swap3\n      swap2\n      pop\n      pop\n      jump\t// out\n        /* \"#utility.yul\":2576:2715   */\n    tag_73:\n        /* \"#utility.yul\":2665:2671   */\n      dup3\n        /* \"#utility.yul\":2660:2663   */\n      dup2\n        /* \"#utility.yul\":2655:2658   */\n      dup4\n        /* \"#utility.yul\":2649:2672   */\n      mcopy\n        /* \"#utility.yul\":2706:2707   */\n      0x00\n        /* \"#utility.yul\":2697:2703   */\n      dup4\n        /* \"#utility.yul\":2692:2695   */\n      dup4\n        /* \"#utility.yul\":2688:2704   */\n      add\n        /* \"#utility.yul\":2681:2708   */\n      mstore\n        /* \"#utility.yul\":2576:2715   */\n      pop\n      pop\n      pop\n      jump\t// out\n        /* \"#utility.yul\":2721:2823   */\n    tag_74:\n        /* \"#utility.yul\":2762:2768   */\n      0x00\n        /* \"#utility.yul\":2813:2815   */\n      0x1f\n        /* \"#utility.yul\":2809:2816   */\n      not\n        /* \"#utility.yul\":2804:2806   */\n      0x1f\n        /* \"#utility.yul\":2797:2802   */\n      dup4\n        /* \"#utility.yul\":2793:2807   */\n      add\n        /* \"#utility.yul\":2789:2817   */\n      and\n        /* \"#utility.yul\":2779:2817   */\n      swap1\n      pop\n        /* \"#utility.yul\":2721:2823   */\n      swap2\n      swap1\n      pop\n      jump\t// out\n        /* \"#utility.yul\":2829:3206   */\n    tag_75:\n        /* \"#utility.yul\":2917:2920   */\n      0x00\n        /* \"#utility.yul\":2945:2984   */\n      tag_128\n        /* \"#utility.yul\":2978:2983   */\n      dup3\n        /* \"#utility.yul\":2945:2984   */\n      tag_71\n      jump\t// in\n    tag_128:\n        /* \"#utility.yul\":3000:3071   */\n      tag_129\n        /* \"#utility.yul\":3064:3070   */\n      dup2\n        /* \"#utility.yul\":3059:3062   */\n      dup6\n        /* \"#utility.yul\":3000:3071   */\n      tag_72\n      jump\t// in\n    tag_129:\n        /* \"#utility.yul\":2993:3071   */\n      swap4\n      pop\n        /* \"#utility.yul\":3080:3145   */\n      tag_130\n        /* \"#utility.yul\":3138:3144   */\n      dup2\n        /* \"#utility.yul\":3133:3136   */\n      dup6\n        /* \"#utility.yul\":3126:3130   */\n      0x20\n        /* \"#utility.yul\":3119:3124   */\n      dup7\n        /* \"#utility.yul\":3115:3131   */\n      add\n        /* \"#utility.yul\":3080:3145   */\n      tag_73\n      jump\t// in\n    tag_130:\n        /* \"#utility.yul\":3170:3199   */\n      tag_131\n        /* \"#utility.yul\":3192:3198   */\n      dup2\n        /* \"#utility.yul\":3170:3199   */\n      tag_74\n      jump\t// in\n    tag_131:\n        /* \"#utility.yul\":3165:3168   */\n      dup5\n        /* \"#utility.yul\":3161:3200   */\n      add\n        /* \"#utility.yul\":3154:3200   */\n      swap2\n      pop\n        /* \"#utility.yul\":2921:3206   */\n      pop\n        /* \"#utility.yul\":2829:3206   */\n      swap3\n      swap2\n      pop\n      pop\n      jump\t// out\n        /* \"#utility.yul\":3212:3330   */\n    tag_76:\n        /* \"#utility.yul\":3299:3323   */\n      tag_133\n        /* \"#utility.yul\":3317:3322   */\n      dup2\n        /* \"#utility.yul\":3299:3323   */\n      tag_60\n      jump\t// in\n    tag_133:\n        /* \"#utility.yul\":3294:3297   */\n      dup3\n        /* \"#utility.yul\":3287:3324   */\n      mstore\n        /* \"#utility.yul\":3212:3330   */\n      pop\n      pop\n      jump\t// out\n        /* \"#utility.yul\":3336:3980   */\n    tag_18:\n        /* \"#utility.yul\":3533:3537   */\n      0x00\n        /* \"#utility.yul\":3571:3574   */\n      0x80\n        /* \"#utility.yul\":3560:3569   */\n      dup3\n        /* \"#utility.yul\":3556:3575   */\n      add\n        /* \"#utility.yul\":3548:3575   */\n      swap1\n      pop\n        /* \"#utility.yul\":3585:3656   */\n      tag_135\n        /* \"#utility.yul\":3653:3654   */\n      0x00\n        /* \"#utility.yul\":3642:3651   */\n      dup4\n        /* \"#utility.yul\":3638:3655   */\n      add\n        /* \"#utility.yul\":3629:3635   */\n      dup8\n        /* \"#utility.yul\":3585:3656   */\n      tag_70\n      jump\t// in\n    tag_135:\n        /* \"#utility.yul\":3666:3738   */\n      tag_136\n        /* \"#utility.yul\":3734:3736   */\n      0x20\n        /* \"#utility.yul\":3723:3732   */\n      dup4\n        /* \"#utility.yul\":3719:3737   */\n      add\n        /* \"#utility.yul\":3710:3716   */\n      dup7\n        /* \"#utility.yul\":3666:3738   */\n      tag_70\n      jump\t// in\n    tag_136:\n        /* \"#utility.yul\":3785:3794   */\n      dup2\n        /* \"#utility.yul\":3779:3783   */\n      dup2\n        /* \"#utility.yul\":3775:3795   */\n      sub\n        /* \"#utility.yul\":3770:3772   */\n      0x40\n        /* \"#utility.yul\":3759:3768   */\n      dup4\n        /* \"#utility.yul\":3755:3773   */\n      add\n        /* \"#utility.yul\":3748:3796   */\n      mstore\n        /* \"#utility.yul\":3813:3891   */\n      tag_137\n        /* \"#utility.yul\":3886:3890   */\n      dup2\n        /* \"#utility.yul\":3877:3883   */\n      dup6\n        /* \"#utility.yul\":3813:3891   */\n      tag_75\n      jump\t// in\n    tag_137:\n        /* \"#utility.yul\":3805:3891   */\n      swap1\n      pop\n        /* \"#utility.yul\":3901:3973   */\n      tag_138\n        /* \"#utility.yul\":3969:3971   */\n      0x60\n        /* \"#utility.yul\":3958:3967   */\n      dup4\n        /* \"#utility.yul\":3954:3972   */\n      add\n        /* \"#utility.yul\":3945:3951   */\n      dup5\n        /* \"#utility.yul\":3901:3973   */\n      tag_76\n      jump\t// in\n    tag_138:\n        /* \"#utility.yul\":3336:3980   */\n      swap6\n      swap5\n      pop\n      pop\n      pop\n      pop\n      pop\n      jump\t// out\n        /* \"#utility.yul\":3986:4108   */\n    tag_77:\n        /* \"#utility.yul\":4059:4083   */\n      tag_140\n        /* \"#utility.yul\":4077:4082   */\n      dup2\n        /* \"#utility.yul\":4059:4083   */\n      tag_69\n      jump\t// in\n    tag_140:\n        /* \"#utility.yul\":4052:4057   */\n      dup2\n        /* \"#utility.yul\":4049:4084   */\n      eq\n        /* \"#utility.yul\":4039:4102   */\n      tag_141\n      jumpi\n        /* \"#utility.yul\":4098:4099   */\n      0x00\n        /* \"#utility.yul\":4095:4096   */\n      dup1\n        /* \"#utility.yul\":4088:4100   */\n      revert\n        /* \"#utility.yul\":4039:4102   */\n    tag_141:\n        /* \"#utility.yul\":3986:4108   */\n      pop\n      jump\t// out\n        /* \"#utility.yul\":4114:4253   */\n    tag_78:\n        /* \"#utility.yul\":4160:4165   */\n      0x00\n        /* \"#utility.yul\":4198:4204   */\n      dup2\n        /* \"#utility.yul\":4185:4205   */\n      calldataload\n        /* \"#utility.yul\":4176:4205   */\n      swap1\n      pop\n        /* \"#utility.yul\":4214:4247   */\n      tag_143\n        /* \"#utility.yul\":4241:4246   */\n      dup2\n        /* \"#utility.yul\":4214:4247   */\n      tag_77\n      jump\t// in\n    tag_143:\n        /* \"#utility.yul\":4114:4253   */\n      swap3\n      swap2\n      pop\n      pop\n      jump\t// out\n        /* \"#utility.yul\":4259:4376   */\n    tag_79:\n        /* \"#utility.yul\":4368:4369   */\n      0x00\n        /* \"#utility.yul\":4365:4366   */\n      dup1\n        /* \"#utility.yul\":4358:4370   */\n      revert\n        /* \"#utility.yul\":4382:4499   */\n    tag_80:\n        /* \"#utility.yul\":4491:4492   */\n      0x00\n        /* \"#utility.yul\":4488:4489   */\n      dup1\n        /* \"#utility.yul\":4481:4493   */\n      revert\n        /* \"#utility.yul\":4505:4685   */\n    tag_81:\n        /* \"#utility.yul\":4553:4630   */\n      0x4e487b7100000000000000000000000000000000000000000000000000000000\n        /* \"#utility.yul\":4550:4551   */\n      0x00\n        /* \"#utility.yul\":4543:4631   */\n      mstore\n        /* \"#utility.yul\":4650:4654   */\n      0x41\n        /* \"#utility.yul\":4647:4648   */\n      0x04\n        /* \"#utility.yul\":4640:4655   */\n      mstore\n        /* \"#utility.yul\":4674:4678   */\n      0x24\n        /* \"#utility.yul\":4671:4672   */\n      0x00\n        /* \"#utility.yul\":4664:4679   */\n      revert\n        /* \"#utility.yul\":4691:4972   */\n    tag_82:\n        /* \"#utility.yul\":4774:4801   */\n      tag_148\n        /* \"#utility.yul\":4796:4800   */\n      dup3\n        /* \"#utility.yul\":4774:4801   */\n      tag_74\n      jump\t// in\n    tag_148:\n        /* \"#utility.yul\":4766:4772   */\n      dup2\n        /* \"#utility.yul\":4762:4802   */\n      add\n        /* \"#utility.yul\":4904:4910   */\n      dup2\n        /* \"#utility.yul\":4892:4902   */\n      dup2\n        /* \"#utility.yul\":4889:4911   */\n      lt\n        /* \"#utility.yul\":4868:4886   */\n      0xffffffffffffffff\n        /* \"#utility.yul\":4856:4866   */\n      dup3\n        /* \"#utility.yul\":4853:4887   */\n      gt\n        /* \"#utility.yul\":4850:4912   */\n      or\n        /* \"#utility.yul\":4847:4935   */\n      iszero\n      tag_149\n      jumpi\n        /* \"#utility.yul\":4915:4933   */\n      tag_150\n      tag_81\n      jump\t// in\n    tag_150:\n        /* \"#utility.yul\":4847:4935   */\n    tag_149:\n        /* \"#utility.yul\":4955:4965   */\n      dup1\n        /* \"#utility.yul\":4951:4953   */\n      0x40\n        /* \"#utility.yul\":4944:4966   */\n      mstore\n        /* \"#utility.yul\":4734:4972   */\n      pop\n        /* \"#utility.yul\":4691:4972   */\n      pop\n      pop\n      jump\t// out\n        /* \"#utility.yul\":4978:5107   */\n    tag_83:\n        /* \"#utility.yul\":5012:5018   */\n      0x00\n        /* \"#utility.yul\":5039:5059   */\n      tag_152\n      tag_57\n      jump\t// in\n    tag_152:\n        /* \"#utility.yul\":5029:5059   */\n      swap1\n      pop\n        /* \"#utility.yul\":5068:5101   */\n      tag_153\n        /* \"#utility.yul\":5096:5100   */\n      dup3\n        /* \"#utility.yul\":5088:5094   */\n      dup3\n        /* \"#utility.yul\":5068:5101   */\n      tag_82\n      jump\t// in\n    tag_153:\n        /* \"#utility.yul\":4978:5107   */\n      swap2\n      swap1\n      pop\n      jump\t// out\n        /* \"#utility.yul\":5113:5421   */\n    tag_84:\n        /* \"#utility.yul\":5175:5179   */\n      0x00\n        /* \"#utility.yul\":5265:5283   */\n      0xffffffffffffffff\n        /* \"#utility.yul\":5257:5263   */\n      dup3\n        /* \"#utility.yul\":5254:5284   */\n      gt\n        /* \"#utility.yul\":5251:5307   */\n      iszero\n      tag_155\n      jumpi\n        /* \"#utility.yul\":5287:5305   */\n      tag_156\n      tag_81\n      jump\t// in\n    tag_156:\n        /* \"#utility.yul\":5251:5307   */\n    tag_155:\n        /* \"#utility.yul\":5325:5354   */\n      tag_157\n        /* \"#utility.yul\":5347:5353   */\n      dup3\n        /* \"#utility.yul\":5325:5354   */\n      tag_74\n      jump\t// in\n    tag_157:\n        /* \"#utility.yul\":5317:5354   */\n      swap1\n      pop\n        /* \"#utility.yul\":5409:5413   */\n      0x20\n        /* \"#utility.yul\":5403:5407   */\n      dup2\n        /* \"#utility.yul\":5399:5414   */\n      add\n        /* \"#utility.yul\":5391:5414   */\n      swap1\n      pop\n        /* \"#utility.yul\":5113:5421   */\n      swap2\n      swap1\n      pop\n      jump\t// out\n        /* \"#utility.yul\":5427:5575   */\n    tag_85:\n        /* \"#utility.yul\":5525:5531   */\n      dup3\n        /* \"#utility.yul\":5520:5523   */\n      dup2\n        /* \"#utility.yul\":5515:5518   */\n      dup4\n        /* \"#utility.yul\":5502:5532   */\n      calldatacopy\n        /* \"#utility.yul\":5566:5567   */\n      0x00\n        /* \"#utility.yul\":5557:5563   */\n      dup4\n        /* \"#utility.yul\":5552:5555   */\n      dup4\n        /* \"#utility.yul\":5548:5564   */\n      add\n        /* \"#utility.yul\":5541:5568   */\n      mstore\n        /* \"#utility.yul\":5427:5575   */\n      pop\n      pop\n      pop\n      jump\t// out\n        /* \"#utility.yul\":5581:6006   */\n    tag_86:\n        /* \"#utility.yul\":5659:5664   */\n      0x00\n        /* \"#utility.yul\":5684:5750   */\n      tag_160\n        /* \"#utility.yul\":5700:5749   */\n      tag_161\n        /* \"#utility.yul\":5742:5748   */\n      dup5\n        /* \"#utility.yul\":5700:5749   */\n      tag_84\n      jump\t// in\n    tag_161:\n        /* \"#utility.yul\":5684:5750   */\n      tag_83\n      jump\t// in\n    tag_160:\n        /* \"#utility.yul\":5675:5750   */\n      swap1\n      pop\n        /* \"#utility.yul\":5773:5779   */\n      dup3\n        /* \"#utility.yul\":5766:5771   */\n      dup2\n        /* \"#utility.yul\":5759:5780   */\n      mstore\n        /* \"#utility.yul\":5811:5815   */\n      0x20\n        /* \"#utility.yul\":5804:5809   */\n      dup2\n        /* \"#utility.yul\":5800:5816   */\n      add\n        /* \"#utility.yul\":5849:5852   */\n      dup5\n        /* \"#utility.yul\":5840:5846   */\n      dup5\n        /* \"#utility.yul\":5835:5838   */\n      dup5\n        /* \"#utility.yul\":5831:5847   */\n      add\n        /* \"#utility.yul\":5828:5853   */\n      gt\n        /* \"#utility.yul\":5825:5937   */\n      iszero\n      tag_162\n      jumpi\n        /* \"#utility.yul\":5856:5935   */\n      tag_163\n      tag_80\n      jump\t// in\n    tag_163:\n        /* \"#utility.yul\":5825:5937   */\n    tag_162:\n        /* \"#utility.yul\":5946:6000   */\n      tag_164\n        /* \"#utility.yul\":5993:5999   */\n      dup5\n        /* \"#utility.yul\":5988:5991   */\n      dup3\n        /* \"#utility.yul\":5983:5986   */\n      dup6\n        /* \"#utility.yul\":5946:6000   */\n      tag_85\n      jump\t// in\n    tag_164:\n        /* \"#utility.yul\":5665:6006   */\n      pop\n        /* \"#utility.yul\":5581:6006   */\n      swap4\n      swap3\n      pop\n      pop\n      pop\n      jump\t// out\n        /* \"#utility.yul\":6026:6366   */\n    tag_87:\n        /* \"#utility.yul\":6082:6087   */\n      0x00\n        /* \"#utility.yul\":6131:6134   */\n      dup3\n        /* \"#utility.yul\":6124:6128   */\n      0x1f\n        /* \"#utility.yul\":6116:6122   */\n      dup4\n        /* \"#utility.yul\":6112:6129   */\n      add\n        /* \"#utility.yul\":6108:6135   */\n      slt\n        /* \"#utility.yul\":6098:6220   */\n      tag_166\n      jumpi\n        /* \"#utility.yul\":6139:6218   */\n      tag_167\n      tag_79\n      jump\t// in\n    tag_167:\n        /* \"#utility.yul\":6098:6220   */\n    tag_166:\n        /* \"#utility.yul\":6256:6262   */\n      dup2\n        /* \"#utility.yul\":6243:6263   */\n      calldataload\n        /* \"#utility.yul\":6281:6360   */\n      tag_168\n        /* \"#utility.yul\":6356:6359   */\n      dup5\n        /* \"#utility.yul\":6348:6354   */\n      dup3\n        /* \"#utility.yul\":6341:6345   */\n      0x20\n        /* \"#utility.yul\":6333:6339   */\n      dup7\n        /* \"#utility.yul\":6329:6346   */\n      add\n        /* \"#utility.yul\":6281:6360   */\n      tag_86\n      jump\t// in\n    tag_168:\n        /* \"#utility.yul\":6272:6360   */\n      swap2\n      pop\n        /* \"#utility.yul\":6088:6366   */\n      pop\n        /* \"#utility.yul\":6026:6366   */\n      swap3\n      swap2\n      pop\n      pop\n      jump\t// out\n        /* \"#utility.yul\":6372:7026   */\n    tag_22:\n        /* \"#utility.yul\":6450:6456   */\n      0x00\n        /* \"#utility.yul\":6458:6464   */\n      dup1\n        /* \"#utility.yul\":6507:6509   */\n      0x40\n        /* \"#utility.yul\":6495:6504   */\n      dup4\n        /* \"#utility.yul\":6486:6493   */\n      dup6\n        /* \"#utility.yul\":6482:6505   */\n      sub\n        /* \"#utility.yul\":6478:6510   */\n      slt\n        /* \"#utility.yul\":6475:6594   */\n      iszero\n      tag_170\n      jumpi\n        /* \"#utility.yul\":6513:6592   */\n      tag_171\n      tag_58\n      jump\t// in\n    tag_171:\n        /* \"#utility.yul\":6475:6594   */\n    tag_170:\n        /* \"#utility.yul\":6633:6634   */\n      0x00\n        /* \"#utility.yul\":6658:6711   */\n      tag_172\n        /* \"#utility.yul\":6703:6710   */\n      dup6\n        /* \"#utility.yul\":6694:6700   */\n      dup3\n        /* \"#utility.yul\":6683:6692   */\n      dup7\n        /* \"#utility.yul\":6679:6701   */\n      add\n        /* \"#utility.yul\":6658:6711   */\n      tag_78\n      jump\t// in\n    tag_172:\n        /* \"#utility.yul\":6648:6711   */\n      swap3\n      pop\n        /* \"#utility.yul\":6604:6721   */\n      pop\n        /* \"#utility.yul\":6788:6790   */\n      0x20\n        /* \"#utility.yul\":6777:6786   */\n      dup4\n        /* \"#utility.yul\":6773:6791   */\n      add\n        /* \"#utility.yul\":6760:6792   */\n      calldataload\n        /* \"#utility.yul\":6819:6837   */\n      0xffffffffffffffff\n        /* \"#utility.yul\":6811:6817   */\n      dup2\n        /* \"#utility.yul\":6808:6838   */\n      gt\n        /* \"#utility.yul\":6805:6922   */\n      iszero\n      tag_173\n      jumpi\n        /* \"#utility.yul\":6841:6920   */\n      tag_174\n      tag_59\n      jump\t// in\n    tag_174:\n        /* \"#utility.yul\":6805:6922   */\n    tag_173:\n        /* \"#utility.yul\":6946:7009   */\n      tag_175\n        /* \"#utility.yul\":7001:7008   */\n      dup6\n        /* \"#utility.yul\":6992:6998   */\n      dup3\n        /* \"#utility.yul\":6981:6990   */\n      dup7\n        /* \"#utility.yul\":6977:6999   */\n      add\n        /* \"#utility.yul\":6946:7009   */\n      tag_87\n      jump\t// in\n    tag_175:\n        /* \"#utility.yul\":6936:7009   */\n      swap2\n      pop\n        /* \"#utility.yul\":6731:7019   */\n      pop\n        /* \"#utility.yul\":6372:7026   */\n      swap3\n      pop\n      swap3\n      swap1\n      pop\n      jump\t// out\n        /* \"#utility.yul\":7032:7212   */\n    tag_32:\n        /* \"#utility.yul\":7080:7157   */\n      0x4e487b7100000000000000000000000000000000000000000000000000000000\n        /* \"#utility.yul\":7077:7078   */\n      0x00\n        /* \"#utility.yul\":7070:7158   */\n      mstore\n        /* \"#utility.yul\":7177:7181   */\n      0x32\n        /* \"#utility.yul\":7174:7175   */\n      0x04\n        /* \"#utility.yul\":7167:7182   */\n      mstore\n        /* \"#utility.yul\":7201:7205   */\n      0x24\n        /* \"#utility.yul\":7198:7199   */\n      0x00\n        /* \"#utility.yul\":7191:7206   */\n      revert\n        /* \"#utility.yul\":7218:7361   */\n    tag_88:\n        /* \"#utility.yul\":7275:7280   */\n      0x00\n        /* \"#utility.yul\":7306:7312   */\n      dup2\n        /* \"#utility.yul\":7300:7313   */\n      mload\n        /* \"#utility.yul\":7291:7313   */\n      swap1\n      pop\n        /* \"#utility.yul\":7322:7355   */\n      tag_178\n        /* \"#utility.yul\":7349:7354   */\n      dup2\n        /* \"#utility.yul\":7322:7355   */\n      tag_77\n      jump\t// in\n    tag_178:\n        /* \"#utility.yul\":7218:7361   */\n      swap3\n      swap2\n      pop\n      pop\n      jump\t// out\n        /* \"#utility.yul\":7367:7718   */\n    tag_37:\n        /* \"#utility.yul\":7437:7443   */\n      0x00\n        /* \"#utility.yul\":7486:7488   */\n      0x20\n        /* \"#utility.yul\":7474:7483   */\n      dup3\n        /* \"#utility.yul\":7465:7472   */\n      dup5\n        /* \"#utility.yul\":7461:7484   */\n      sub\n        /* \"#utility.yul\":7457:7489   */\n      slt\n        /* \"#utility.yul\":7454:7573   */\n      iszero\n      tag_180\n      jumpi\n        /* \"#utility.yul\":7492:7571   */\n      tag_181\n      tag_58\n      jump\t// in\n    tag_181:\n        /* \"#utility.yul\":7454:7573   */\n    tag_180:\n        /* \"#utility.yul\":7612:7613   */\n      0x00\n        /* \"#utility.yul\":7637:7701   */\n      tag_182\n        /* \"#utility.yul\":7693:7700   */\n      dup5\n        /* \"#utility.yul\":7684:7690   */\n      dup3\n        /* \"#utility.yul\":7673:7682   */\n      dup6\n        /* \"#utility.yul\":7669:7691   */\n      add\n        /* \"#utility.yul\":7637:7701   */\n      tag_88\n      jump\t// in\n    tag_182:\n        /* \"#utility.yul\":7627:7701   */\n      swap2\n      pop\n        /* \"#utility.yul\":7583:7711   */\n      pop\n        /* \"#utility.yul\":7367:7718   */\n      swap3\n      swap2\n      pop\n      pop\n      jump\t// out\n        /* \"#utility.yul\":7724:8158   */\n    tag_89:\n        /* \"#utility.yul\":7813:7818   */\n      0x00\n        /* \"#utility.yul\":7838:7904   */\n      tag_184\n        /* \"#utility.yul\":7854:7903   */\n      tag_185\n        /* \"#utility.yul\":7896:7902   */\n      dup5\n        /* \"#utility.yul\":7854:7903   */\n      tag_84\n      jump\t// in\n    tag_185:\n        /* \"#utility.yul\":7838:7904   */\n      tag_83\n      jump\t// in\n    tag_184:\n        /* \"#utility.yul\":7829:7904   */\n      swap1\n      pop\n        /* \"#utility.yul\":7927:7933   */\n      dup3\n        /* \"#utility.yul\":7920:7925   */\n      dup2\n        /* \"#utility.yul\":7913:7934   */\n      mstore\n        /* \"#utility.yul\":7965:7969   */\n      0x20\n        /* \"#utility.yul\":7958:7963   */\n      dup2\n        /* \"#utility.yul\":7954:7970   */\n      add\n        /* \"#utility.yul\":8003:8006   */\n      dup5\n        /* \"#utility.yul\":7994:8000   */\n      dup5\n        /* \"#utility.yul\":7989:7992   */\n      dup5\n        /* \"#utility.yul\":7985:8001   */\n      add\n        /* \"#utility.yul\":7982:8007   */\n      gt\n        /* \"#utility.yul\":7979:8091   */\n      iszero\n      tag_186\n      jumpi\n        /* \"#utility.yul\":8010:8089   */\n      tag_187\n      tag_80\n      jump\t// in\n    tag_187:\n        /* \"#utility.yul\":7979:8091   */\n    tag_186:\n        /* \"#utility.yul\":8100:8152   */\n      tag_188\n        /* \"#utility.yul\":8145:8151   */\n      dup5\n        /* \"#utility.yul\":8140:8143   */\n      dup3\n        /* \"#utility.yul\":8135:8138   */\n      dup6\n        /* \"#utility.yul\":8100:8152   */\n      tag_73\n      jump\t// in\n    tag_188:\n        /* \"#utility.yul\":7819:8158   */\n      pop\n        /* \"#utility.yul\":7724:8158   */\n      swap4\n      swap3\n      pop\n      pop\n      pop\n      jump\t// out\n        /* \"#utility.yul\":8178:8533   */\n    tag_90:\n        /* \"#utility.yul\":8245:8250   */\n      0x00\n        /* \"#utility.yul\":8294:8297   */\n      dup3\n        /* \"#utility.yul\":8287:8291   */\n      0x1f\n        /* \"#utility.yul\":8279:8285   */\n      dup4\n        /* \"#utility.yul\":8275:8292   */\n      add\n        /* \"#utility.yul\":8271:8298   */\n      slt\n        /* \"#utility.yul\":8261:8383   */\n      tag_190\n      jumpi\n        /* \"#utility.yul\":8302:8381   */\n      tag_191\n      tag_79\n      jump\t// in\n    tag_191:\n        /* \"#utility.yul\":8261:8383   */\n    tag_190:\n        /* \"#utility.yul\":8412:8418   */\n      dup2\n        /* \"#utility.yul\":8406:8419   */\n      mload\n        /* \"#utility.yul\":8437:8527   */\n      tag_192\n        /* \"#utility.yul\":8523:8526   */\n      dup5\n        /* \"#utility.yul\":8515:8521   */\n      dup3\n        /* \"#utility.yul\":8508:8512   */\n      0x20\n        /* \"#utility.yul\":8500:8506   */\n      dup7\n        /* \"#utility.yul\":8496:8513   */\n      add\n        /* \"#utility.yul\":8437:8527   */\n      tag_89\n      jump\t// in\n    tag_192:\n        /* \"#utility.yul\":8428:8527   */\n      swap2\n      pop\n        /* \"#utility.yul\":8251:8533   */\n      pop\n        /* \"#utility.yul\":8178:8533   */\n      swap3\n      swap2\n      pop\n      pop\n      jump\t// out\n        /* \"#utility.yul\":8539:9063   */\n    tag_44:\n        /* \"#utility.yul\":8619:8625   */\n      0x00\n        /* \"#utility.yul\":8668:8670   */\n      0x20\n        /* \"#utility.yul\":8656:8665   */\n      dup3\n        /* \"#utility.yul\":8647:8654   */\n      dup5\n        /* \"#utility.yul\":8643:8666   */\n      sub\n        /* \"#utility.yul\":8639:8671   */\n      slt\n        /* \"#utility.yul\":8636:8755   */\n      iszero\n      tag_194\n      jumpi\n        /* \"#utility.yul\":8674:8753   */\n      tag_195\n      tag_58\n      jump\t// in\n    tag_195:\n        /* \"#utility.yul\":8636:8755   */\n    tag_194:\n        /* \"#utility.yul\":8815:8816   */\n      0x00\n        /* \"#utility.yul\":8804:8813   */\n      dup3\n        /* \"#utility.yul\":8800:8817   */\n      add\n        /* \"#utility.yul\":8794:8818   */\n      mload\n        /* \"#utility.yul\":8845:8863   */\n      0xffffffffffffffff\n        /* \"#utility.yul\":8837:8843   */\n      dup2\n        /* \"#utility.yul\":8834:8864   */\n      gt\n        /* \"#utility.yul\":8831:8948   */\n      iszero\n      tag_196\n      jumpi\n        /* \"#utility.yul\":8867:8946   */\n      tag_197\n      tag_59\n      jump\t// in\n    tag_197:\n        /* \"#utility.yul\":8831:8948   */\n    tag_196:\n        /* \"#utility.yul\":8972:9046   */\n      tag_198\n        /* \"#utility.yul\":9038:9045   */\n      dup5\n        /* \"#utility.yul\":9029:9035   */\n      dup3\n        /* \"#utility.yul\":9018:9027   */\n      dup6\n        /* \"#utility.yul\":9014:9036   */\n      add\n        /* \"#utility.yul\":8972:9046   */\n      tag_90\n      jump\t// in\n    tag_198:\n        /* \"#utility.yul\":8962:9046   */\n      swap2\n      pop\n        /* \"#utility.yul\":8765:9056   */\n      pop\n        /* \"#utility.yul\":8539:9063   */\n      swap3\n      swap2\n      pop\n      pop\n      jump\t// out\n        /* \"#utility.yul\":9069:9492   */\n    tag_49:\n        /* \"#utility.yul\":9210:9214   */\n      0x00\n        /* \"#utility.yul\":9248:9250   */\n      0x40\n        /* \"#utility.yul\":9237:9246   */\n      dup3\n        /* \"#utility.yul\":9233:9251   */\n      add\n        /* \"#utility.yul\":9225:9251   */\n      swap1\n      pop\n        /* \"#utility.yul\":9261:9332   */\n      tag_200\n        /* \"#utility.yul\":9329:9330   */\n      0x00\n        /* \"#utility.yul\":9318:9327   */\n      dup4\n        /* \"#utility.yul\":9314:9331   */\n      add\n        /* \"#utility.yul\":9305:9311   */\n      dup6\n        /* \"#utility.yul\":9261:9332   */\n      tag_70\n      jump\t// in\n    tag_200:\n        /* \"#utility.yul\":9379:9388   */\n      dup2\n        /* \"#utility.yul\":9373:9377   */\n      dup2\n        /* \"#utility.yul\":9369:9389   */\n      sub\n        /* \"#utility.yul\":9364:9366   */\n      0x20\n        /* \"#utility.yul\":9353:9362   */\n      dup4\n        /* \"#utility.yul\":9349:9367   */\n      add\n        /* \"#utility.yul\":9342:9390   */\n      mstore\n        /* \"#utility.yul\":9407:9485   */\n      tag_201\n        /* \"#utility.yul\":9480:9484   */\n      dup2\n        /* \"#utility.yul\":9471:9477   */\n      dup5\n        /* \"#utility.yul\":9407:9485   */\n      tag_75\n      jump\t// in\n    tag_201:\n        /* \"#utility.yul\":9399:9485   */\n      swap1\n      pop\n        /* \"#utility.yul\":9069:9492   */\n      swap4\n      swap3\n      pop\n      pop\n      pop\n      jump\t// out\n    stop\n\n    sub_0: assembly {\n            /* \"Learning Pth/CreateContractFromContractEX.sol\":61:320  contract Creator {... */\n          mstore(0x40, 0x80)\n            /* \"Learning Pth/CreateContractFromContractEX.sol\":169:317  constructor(address _owner, string memory _city) payable {... */\n          mload(0x40)\n          sub(codesize, bytecodeSize)\n          dup1\n          bytecodeSize\n          dup4\n          codecopy\n          dup2\n          dup2\n          add\n          0x40\n          mstore\n          dup2\n          add\n          swap1\n          tag_1\n          swap2\n          swap1\n          tag_2\n          jump\t// in\n        tag_1:\n            /* \"Learning Pth/CreateContractFromContractEX.sol\":245:251  _owner */\n          dup2\n            /* \"Learning Pth/CreateContractFromContractEX.sol\":237:242  owner */\n          0x00\n          dup1\n            /* \"Learning Pth/CreateContractFromContractEX.sol\":237:251  owner = _owner */\n          0x0100\n          exp\n          dup2\n          sload\n          dup2\n          0xffffffffffffffffffffffffffffffffffffffff\n          mul\n          not\n          and\n          swap1\n          dup4\n          0xffffffffffffffffffffffffffffffffffffffff\n          and\n          mul\n          or\n          swap1\n          sstore\n          pop\n            /* \"Learning Pth/CreateContractFromContractEX.sol\":281:285  this */\n          address\n            /* \"Learning Pth/CreateContractFromContractEX.sol\":262:270  cityAddr */\n          0x01\n          0x00\n            /* \"Learning Pth/CreateContractFromContractEX.sol\":262:286  cityAddr = address(this) */\n          0x0100\n          exp\n          dup2\n          sload\n          dup2\n          0xffffffffffffffffffffffffffffffffffffffff\n          mul\n          not\n          and\n          swap1\n          dup4\n          0xffffffffffffffffffffffffffffffffffffffff\n          and\n          mul\n          or\n          swap1\n          sstore\n          pop\n            /* \"Learning Pth/CreateContractFromContractEX.sol\":304:309  _city */\n          dup1\n            /* \"Learning Pth/CreateContractFromContractEX.sol\":297:301  city */\n          0x02\n            /* \"Learning Pth/CreateContractFromContractEX.sol\":297:309  city = _city */\n          swap1\n          dup2\n          tag_5\n          swap2\n          swap1\n          tag_6\n          jump\t// in\n        tag_5:\n          pop\n            /* \"Learning Pth/CreateContractFromContractEX.sol\":169:317  constructor(address _owner, string memory _city) payable {... */\n          pop\n          pop\n            /* \"Learning Pth/CreateContractFromContractEX.sol\":61:320  contract Creator {... */\n          jump(tag_7)\n            /* \"#utility.yul\":7:82   */\n        tag_8:\n            /* \"#utility.yul\":40:46   */\n          0x00\n            /* \"#utility.yul\":73:75   */\n          0x40\n            /* \"#utility.yul\":67:76   */\n          mload\n            /* \"#utility.yul\":57:76   */\n          swap1\n          pop\n            /* \"#utility.yul\":7:82   */\n          swap1\n          jump\t// out\n            /* \"#utility.yul\":88:205   */\n        tag_9:\n            /* \"#utility.yul\":197:198   */\n          0x00\n            /* \"#utility.yul\":194:195   */\n          dup1\n            /* \"#utility.yul\":187:199   */\n          revert\n            /* \"#utility.yul\":211:328   */\n        tag_10:\n            /* \"#utility.yul\":320:321   */\n          0x00\n            /* \"#utility.yul\":317:318   */\n          dup1\n            /* \"#utility.yul\":310:322   */\n          revert\n            /* \"#utility.yul\":334:460   */\n        tag_11:\n            /* \"#utility.yul\":371:378   */\n          0x00\n            /* \"#utility.yul\":411:453   */\n          0xffffffffffffffffffffffffffffffffffffffff\n            /* \"#utility.yul\":404:409   */\n          dup3\n            /* \"#utility.yul\":400:454   */\n          and\n            /* \"#utility.yul\":389:454   */\n          swap1\n          pop\n            /* \"#utility.yul\":334:460   */\n          swap2\n          swap1\n          pop\n          jump\t// out\n            /* \"#utility.yul\":466:562   */\n        tag_12:\n            /* \"#utility.yul\":503:510   */\n          0x00\n            /* \"#utility.yul\":532:556   */\n          tag_50\n            /* \"#utility.yul\":550:555   */\n          dup3\n            /* \"#utility.yul\":532:556   */\n          tag_11\n          jump\t// in\n        tag_50:\n            /* \"#utility.yul\":521:556   */\n          swap1\n          pop\n            /* \"#utility.yul\":466:562   */\n          swap2\n          swap1\n          pop\n          jump\t// out\n            /* \"#utility.yul\":568:690   */\n        tag_13:\n            /* \"#utility.yul\":641:665   */\n          tag_52\n            /* \"#utility.yul\":659:664   */\n          dup2\n            /* \"#utility.yul\":641:665   */\n          tag_12\n          jump\t// in\n        tag_52:\n            /* \"#utility.yul\":634:639   */\n          dup2\n            /* \"#utility.yul\":631:666   */\n          eq\n            /* \"#utility.yul\":621:684   */\n          tag_53\n          jumpi\n            /* \"#utility.yul\":680:681   */\n          0x00\n            /* \"#utility.yul\":677:678   */\n          dup1\n            /* \"#utility.yul\":670:682   */\n          revert\n            /* \"#utility.yul\":621:684   */\n        tag_53:\n            /* \"#utility.yul\":568:690   */\n          pop\n          jump\t// out\n            /* \"#utility.yul\":696:839   */\n        tag_14:\n            /* \"#utility.yul\":753:758   */\n          0x00\n            /* \"#utility.yul\":784:790   */\n          dup2\n            /* \"#utility.yul\":778:791   */\n          mload\n            /* \"#utility.yul\":769:791   */\n          swap1\n          pop\n            /* \"#utility.yul\":800:833   */\n          tag_55\n            /* \"#utility.yul\":827:832   */\n          dup2\n            /* \"#utility.yul\":800:833   */\n          tag_13\n          jump\t// in\n        tag_55:\n            /* \"#utility.yul\":696:839   */\n          swap3\n          swap2\n          pop\n          pop\n          jump\t// out\n            /* \"#utility.yul\":845:962   */\n        tag_15:\n            /* \"#utility.yul\":954:955   */\n          0x00\n            /* \"#utility.yul\":951:952   */\n          dup1\n            /* \"#utility.yul\":944:956   */\n          revert\n            /* \"#utility.yul\":968:1085   */\n        tag_16:\n            /* \"#utility.yul\":1077:1078   */\n          0x00\n            /* \"#utility.yul\":1074:1075   */\n          dup1\n            /* \"#utility.yul\":1067:1079   */\n          revert\n            /* \"#utility.yul\":1091:1193   */\n        tag_17:\n            /* \"#utility.yul\":1132:1138   */\n          0x00\n            /* \"#utility.yul\":1183:1185   */\n          0x1f\n            /* \"#utility.yul\":1179:1186   */\n          not\n            /* \"#utility.yul\":1174:1176   */\n          0x1f\n            /* \"#utility.yul\":1167:1172   */\n          dup4\n            /* \"#utility.yul\":1163:1177   */\n          add\n            /* \"#utility.yul\":1159:1187   */\n          and\n            /* \"#utility.yul\":1149:1187   */\n          swap1\n          pop\n            /* \"#utility.yul\":1091:1193   */\n          swap2\n          swap1\n          pop\n          jump\t// out\n            /* \"#utility.yul\":1199:1379   */\n        tag_18:\n            /* \"#utility.yul\":1247:1324   */\n          0x4e487b7100000000000000000000000000000000000000000000000000000000\n            /* \"#utility.yul\":1244:1245   */\n          0x00\n            /* \"#utility.yul\":1237:1325   */\n          mstore\n            /* \"#utility.yul\":1344:1348   */\n          0x41\n            /* \"#utility.yul\":1341:1342   */\n          0x04\n            /* \"#utility.yul\":1334:1349   */\n          mstore\n            /* \"#utility.yul\":1368:1372   */\n          0x24\n            /* \"#utility.yul\":1365:1366   */\n          0x00\n            /* \"#utility.yul\":1358:1373   */\n          revert\n            /* \"#utility.yul\":1385:1666   */\n        tag_19:\n            /* \"#utility.yul\":1468:1495   */\n          tag_61\n            /* \"#utility.yul\":1490:1494   */\n          dup3\n            /* \"#utility.yul\":1468:1495   */\n          tag_17\n          jump\t// in\n        tag_61:\n            /* \"#utility.yul\":1460:1466   */\n          dup2\n            /* \"#utility.yul\":1456:1496   */\n          add\n            /* \"#utility.yul\":1598:1604   */\n          dup2\n            /* \"#utility.yul\":1586:1596   */\n          dup2\n            /* \"#utility.yul\":1583:1605   */\n          lt\n            /* \"#utility.yul\":1562:1580   */\n          0xffffffffffffffff\n            /* \"#utility.yul\":1550:1560   */\n          dup3\n            /* \"#utility.yul\":1547:1581   */\n          gt\n            /* \"#utility.yul\":1544:1606   */\n          or\n            /* \"#utility.yul\":1541:1629   */\n          iszero\n          tag_62\n          jumpi\n            /* \"#utility.yul\":1609:1627   */\n          tag_63\n          tag_18\n          jump\t// in\n        tag_63:\n            /* \"#utility.yul\":1541:1629   */\n        tag_62:\n            /* \"#utility.yul\":1649:1659   */\n          dup1\n            /* \"#utility.yul\":1645:1647   */\n          0x40\n            /* \"#utility.yul\":1638:1660   */\n          mstore\n            /* \"#utility.yul\":1428:1666   */\n          pop\n            /* \"#utility.yul\":1385:1666   */\n          pop\n          pop\n          jump\t// out\n            /* \"#utility.yul\":1672:1801   */\n        tag_20:\n            /* \"#utility.yul\":1706:1712   */\n          0x00\n            /* \"#utility.yul\":1733:1753   */\n          tag_65\n          tag_8\n          jump\t// in\n        tag_65:\n            /* \"#utility.yul\":1723:1753   */\n          swap1\n          pop\n            /* \"#utility.yul\":1762:1795   */\n          tag_66\n            /* \"#utility.yul\":1790:1794   */\n          dup3\n            /* \"#utility.yul\":1782:1788   */\n          dup3\n            /* \"#utility.yul\":1762:1795   */\n          tag_19\n          jump\t// in\n        tag_66:\n            /* \"#utility.yul\":1672:1801   */\n          swap2\n          swap1\n          pop\n          jump\t// out\n            /* \"#utility.yul\":1807:2115   */\n        tag_21:\n            /* \"#utility.yul\":1869:1873   */\n          0x00\n            /* \"#utility.yul\":1959:1977   */\n          0xffffffffffffffff\n            /* \"#utility.yul\":1951:1957   */\n          dup3\n            /* \"#utility.yul\":1948:1978   */\n          gt\n            /* \"#utility.yul\":1945:2001   */\n          iszero\n          tag_68\n          jumpi\n            /* \"#utility.yul\":1981:1999   */\n          tag_69\n          tag_18\n          jump\t// in\n        tag_69:\n            /* \"#utility.yul\":1945:2001   */\n        tag_68:\n            /* \"#utility.yul\":2019:2048   */\n          tag_70\n            /* \"#utility.yul\":2041:2047   */\n          dup3\n            /* \"#utility.yul\":2019:2048   */\n          tag_17\n          jump\t// in\n        tag_70:\n            /* \"#utility.yul\":2011:2048   */\n          swap1\n          pop\n            /* \"#utility.yul\":2103:2107   */\n          0x20\n            /* \"#utility.yul\":2097:2101   */\n          dup2\n            /* \"#utility.yul\":2093:2108   */\n          add\n            /* \"#utility.yul\":2085:2108   */\n          swap1\n          pop\n            /* \"#utility.yul\":1807:2115   */\n          swap2\n          swap1\n          pop\n          jump\t// out\n            /* \"#utility.yul\":2121:2260   */\n        tag_22:\n            /* \"#utility.yul\":2210:2216   */\n          dup3\n            /* \"#utility.yul\":2205:2208   */\n          dup2\n            /* \"#utility.yul\":2200:2203   */\n          dup4\n            /* \"#utility.yul\":2194:2217   */\n          mcopy\n            /* \"#utility.yul\":2251:2252   */\n          0x00\n            /* \"#utility.yul\":2242:2248   */\n          dup4\n            /* \"#utility.yul\":2237:2240   */\n          dup4\n            /* \"#utility.yul\":2233:2249   */\n          add\n            /* \"#utility.yul\":2226:2253   */\n          mstore\n            /* \"#utility.yul\":2121:2260   */\n          pop\n          pop\n          pop\n          jump\t// out\n            /* \"#utility.yul\":2266:2700   */\n        tag_23:\n            /* \"#utility.yul\":2355:2360   */\n          0x00\n            /* \"#utility.yul\":2380:2446   */\n          tag_73\n            /* \"#utility.yul\":2396:2445   */\n          tag_74\n            /* \"#utility.yul\":2438:2444   */\n          dup5\n            /* \"#utility.yul\":2396:2445   */\n          tag_21\n          jump\t// in\n        tag_74:\n            /* \"#utility.yul\":2380:2446   */\n          tag_20\n          jump\t// in\n        tag_73:\n            /* \"#utility.yul\":2371:2446   */\n          swap1\n          pop\n            /* \"#utility.yul\":2469:2475   */\n          dup3\n            /* \"#utility.yul\":2462:2467   */\n          dup2\n            /* \"#utility.yul\":2455:2476   */\n          mstore\n            /* \"#utility.yul\":2507:2511   */\n          0x20\n            /* \"#utility.yul\":2500:2505   */\n          dup2\n            /* \"#utility.yul\":2496:2512   */\n          add\n            /* \"#utility.yul\":2545:2548   */\n          dup5\n            /* \"#utility.yul\":2536:2542   */\n          dup5\n            /* \"#utility.yul\":2531:2534   */\n          dup5\n            /* \"#utility.yul\":2527:2543   */\n          add\n            /* \"#utility.yul\":2524:2549   */\n          gt\n            /* \"#utility.yul\":2521:2633   */\n          iszero\n          tag_75\n          jumpi\n            /* \"#utility.yul\":2552:2631   */\n          tag_76\n          tag_16\n          jump\t// in\n        tag_76:\n            /* \"#utility.yul\":2521:2633   */\n        tag_75:\n            /* \"#utility.yul\":2642:2694   */\n          tag_77\n            /* \"#utility.yul\":2687:2693   */\n          dup5\n            /* \"#utility.yul\":2682:2685   */\n          dup3\n            /* \"#utility.yul\":2677:2680   */\n          dup6\n            /* \"#utility.yul\":2642:2694   */\n          tag_22\n          jump\t// in\n        tag_77:\n            /* \"#utility.yul\":2361:2700   */\n          pop\n            /* \"#utility.yul\":2266:2700   */\n          swap4\n          swap3\n          pop\n          pop\n          pop\n          jump\t// out\n            /* \"#utility.yul\":2720:3075   */\n        tag_24:\n            /* \"#utility.yul\":2787:2792   */\n          0x00\n            /* \"#utility.yul\":2836:2839   */\n          dup3\n            /* \"#utility.yul\":2829:2833   */\n          0x1f\n            /* \"#utility.yul\":2821:2827   */\n          dup4\n            /* \"#utility.yul\":2817:2834   */\n          add\n            /* \"#utility.yul\":2813:2840   */\n          slt\n            /* \"#utility.yul\":2803:2925   */\n          tag_79\n          jumpi\n            /* \"#utility.yul\":2844:2923   */\n          tag_80\n          tag_15\n          jump\t// in\n        tag_80:\n            /* \"#utility.yul\":2803:2925   */\n        tag_79:\n            /* \"#utility.yul\":2954:2960   */\n          dup2\n            /* \"#utility.yul\":2948:2961   */\n          mload\n            /* \"#utility.yul\":2979:3069   */\n          tag_81\n            /* \"#utility.yul\":3065:3068   */\n          dup5\n            /* \"#utility.yul\":3057:3063   */\n          dup3\n            /* \"#utility.yul\":3050:3054   */\n          0x20\n            /* \"#utility.yul\":3042:3048   */\n          dup7\n            /* \"#utility.yul\":3038:3055   */\n          add\n            /* \"#utility.yul\":2979:3069   */\n          tag_23\n          jump\t// in\n        tag_81:\n            /* \"#utility.yul\":2970:3069   */\n          swap2\n          pop\n            /* \"#utility.yul\":2793:3075   */\n          pop\n            /* \"#utility.yul\":2720:3075   */\n          swap3\n          swap2\n          pop\n          pop\n          jump\t// out\n            /* \"#utility.yul\":3081:3761   */\n        tag_2:\n            /* \"#utility.yul\":3170:3176   */\n          0x00\n            /* \"#utility.yul\":3178:3184   */\n          dup1\n            /* \"#utility.yul\":3227:3229   */\n          0x40\n            /* \"#utility.yul\":3215:3224   */\n          dup4\n            /* \"#utility.yul\":3206:3213   */\n          dup6\n            /* \"#utility.yul\":3202:3225   */\n          sub\n            /* \"#utility.yul\":3198:3230   */\n          slt\n            /* \"#utility.yul\":3195:3314   */\n          iszero\n          tag_83\n          jumpi\n            /* \"#utility.yul\":3233:3312   */\n          tag_84\n          tag_9\n          jump\t// in\n        tag_84:\n            /* \"#utility.yul\":3195:3314   */\n        tag_83:\n            /* \"#utility.yul\":3353:3354   */\n          0x00\n            /* \"#utility.yul\":3378:3442   */\n          tag_85\n            /* \"#utility.yul\":3434:3441   */\n          dup6\n            /* \"#utility.yul\":3425:3431   */\n          dup3\n            /* \"#utility.yul\":3414:3423   */\n          dup7\n            /* \"#utility.yul\":3410:3432   */\n          add\n            /* \"#utility.yul\":3378:3442   */\n          tag_14\n          jump\t// in\n        tag_85:\n            /* \"#utility.yul\":3368:3442   */\n          swap3\n          pop\n            /* \"#utility.yul\":3324:3452   */\n          pop\n            /* \"#utility.yul\":3512:3514   */\n          0x20\n            /* \"#utility.yul\":3501:3510   */\n          dup4\n            /* \"#utility.yul\":3497:3515   */\n          add\n            /* \"#utility.yul\":3491:3516   */\n          mload\n            /* \"#utility.yul\":3543:3561   */\n          0xffffffffffffffff\n            /* \"#utility.yul\":3535:3541   */\n          dup2\n            /* \"#utility.yul\":3532:3562   */\n          gt\n            /* \"#utility.yul\":3529:3646   */\n          iszero\n          tag_86\n          jumpi\n            /* \"#utility.yul\":3565:3644   */\n          tag_87\n          tag_10\n          jump\t// in\n        tag_87:\n            /* \"#utility.yul\":3529:3646   */\n        tag_86:\n            /* \"#utility.yul\":3670:3744   */\n          tag_88\n            /* \"#utility.yul\":3736:3743   */\n          dup6\n            /* \"#utility.yul\":3727:3733   */\n          dup3\n            /* \"#utility.yul\":3716:3725   */\n          dup7\n            /* \"#utility.yul\":3712:3734   */\n          add\n            /* \"#utility.yul\":3670:3744   */\n          tag_24\n          jump\t// in\n        tag_88:\n            /* \"#utility.yul\":3660:3744   */\n          swap2\n          pop\n            /* \"#utility.yul\":3462:3754   */\n          pop\n            /* \"#utility.yul\":3081:3761   */\n          swap3\n          pop\n          swap3\n          swap1\n          pop\n          jump\t// out\n            /* \"#utility.yul\":3767:3866   */\n        tag_25:\n            /* \"#utility.yul\":3819:3825   */\n          0x00\n            /* \"#utility.yul\":3853:3858   */\n          dup2\n            /* \"#utility.yul\":3847:3859   */\n          mload\n            /* \"#utility.yul\":3837:3859   */\n          swap1\n          pop\n            /* \"#utility.yul\":3767:3866   */\n          swap2\n          swap1\n          pop\n          jump\t// out\n            /* \"#utility.yul\":3872:4052   */\n        tag_26:\n            /* \"#utility.yul\":3920:3997   */\n          0x4e487b7100000000000000000000000000000000000000000000000000000000\n            /* \"#utility.yul\":3917:3918   */\n          0x00\n            /* \"#utility.yul\":3910:3998   */\n          mstore\n            /* \"#utility.yul\":4017:4021   */\n          0x22\n            /* \"#utility.yul\":4014:4015   */\n          0x04\n            /* \"#utility.yul\":4007:4022   */\n          mstore\n            /* \"#utility.yul\":4041:4045   */\n          0x24\n            /* \"#utility.yul\":4038:4039   */\n          0x00\n            /* \"#utility.yul\":4031:4046   */\n          revert\n            /* \"#utility.yul\":4058:4378   */\n        tag_27:\n            /* \"#utility.yul\":4102:4108   */\n          0x00\n            /* \"#utility.yul\":4139:4140   */\n          0x02\n            /* \"#utility.yul\":4133:4137   */\n          dup3\n            /* \"#utility.yul\":4129:4141   */\n          div\n            /* \"#utility.yul\":4119:4141   */\n          swap1\n          pop\n            /* \"#utility.yul\":4186:4187   */\n          0x01\n            /* \"#utility.yul\":4180:4184   */\n          dup3\n            /* \"#utility.yul\":4176:4188   */\n          and\n            /* \"#utility.yul\":4207:4225   */\n          dup1\n            /* \"#utility.yul\":4197:4278   */\n          tag_92\n          jumpi\n            /* \"#utility.yul\":4263:4267   */\n          0x7f\n            /* \"#utility.yul\":4255:4261   */\n          dup3\n            /* \"#utility.yul\":4251:4268   */\n          and\n            /* \"#utility.yul\":4241:4268   */\n          swap2\n          pop\n            /* \"#utility.yul\":4197:4278   */\n        tag_92:\n            /* \"#utility.yul\":4325:4327   */\n          0x20\n            /* \"#utility.yul\":4317:4323   */\n          dup3\n            /* \"#utility.yul\":4314:4328   */\n          lt\n            /* \"#utility.yul\":4294:4312   */\n          dup2\n            /* \"#utility.yul\":4291:4329   */\n          sub\n            /* \"#utility.yul\":4288:4372   */\n          tag_93\n          jumpi\n            /* \"#utility.yul\":4344:4362   */\n          tag_94\n          tag_26\n          jump\t// in\n        tag_94:\n            /* \"#utility.yul\":4288:4372   */\n        tag_93:\n            /* \"#utility.yul\":4109:4378   */\n          pop\n            /* \"#utility.yul\":4058:4378   */\n          swap2\n          swap1\n          pop\n          jump\t// out\n            /* \"#utility.yul\":4384:4525   */\n        tag_28:\n            /* \"#utility.yul\":4433:4437   */\n          0x00\n            /* \"#utility.yul\":4456:4459   */\n          dup2\n            /* \"#utility.yul\":4448:4459   */\n          swap1\n          pop\n            /* \"#utility.yul\":4479:4482   */\n          dup2\n            /* \"#utility.yul\":4476:4477   */\n          0x00\n            /* \"#utility.yul\":4469:4483   */\n          mstore\n            /* \"#utility.yul\":4513:4517   */\n          0x20\n            /* \"#utility.yul\":4510:4511   */\n          0x00\n            /* \"#utility.yul\":4500:4518   */\n          keccak256\n            /* \"#utility.yul\":4492:4518   */\n          swap1\n          pop\n            /* \"#utility.yul\":4384:4525   */\n          swap2\n          swap1\n          pop\n          jump\t// out\n            /* \"#utility.yul\":4531:4624   */\n        tag_29:\n            /* \"#utility.yul\":4568:4574   */\n          0x00\n            /* \"#utility.yul\":4615:4617   */\n          0x20\n            /* \"#utility.yul\":4610:4612   */\n          0x1f\n            /* \"#utility.yul\":4603:4608   */\n          dup4\n            /* \"#utility.yul\":4599:4613   */\n          add\n            /* \"#utility.yul\":4595:4618   */\n          div\n            /* \"#utility.yul\":4585:4618   */\n          swap1\n          pop\n            /* \"#utility.yul\":4531:4624   */\n          swap2\n          swap1\n          pop\n          jump\t// out\n            /* \"#utility.yul\":4630:4737   */\n        tag_30:\n            /* \"#utility.yul\":4674:4682   */\n          0x00\n            /* \"#utility.yul\":4724:4729   */\n          dup3\n            /* \"#utility.yul\":4718:4722   */\n          dup3\n            /* \"#utility.yul\":4714:4730   */\n          shl\n            /* \"#utility.yul\":4693:4730   */\n          swap1\n          pop\n            /* \"#utility.yul\":4630:4737   */\n          swap3\n          swap2\n          pop\n          pop\n          jump\t// out\n            /* \"#utility.yul\":4743:5136   */\n        tag_31:\n            /* \"#utility.yul\":4812:4818   */\n          0x00\n            /* \"#utility.yul\":4862:4863   */\n          0x08\n            /* \"#utility.yul\":4850:4860   */\n          dup4\n            /* \"#utility.yul\":4846:4864   */\n          mul\n            /* \"#utility.yul\":4885:4982   */\n          tag_99\n            /* \"#utility.yul\":4915:4981   */\n          0xffffffffffffffffffffffffffffffffffffffffffffffffffffffffffffffff\n            /* \"#utility.yul\":4904:4913   */\n          dup3\n            /* \"#utility.yul\":4885:4982   */\n          tag_30\n          jump\t// in\n        tag_99:\n            /* \"#utility.yul\":5003:5042   */\n          tag_100\n            /* \"#utility.yul\":5033:5041   */\n          dup7\n            /* \"#utility.yul\":5022:5031   */\n          dup4\n            /* \"#utility.yul\":5003:5042   */\n          tag_30\n          jump\t// in\n        tag_100:\n            /* \"#utility.yul\":4991:5042   */\n          swap6\n          pop\n            /* \"#utility.yul\":5075:5079   */\n          dup1\n            /* \"#utility.yul\":5071:5080   */\n          not\n            /* \"#utility.yul\":5064:5069   */\n          dup5\n            /* \"#utility.yul\":5060:5081   */\n          and\n            /* \"#utility.yul\":5051:5081   */\n          swap4\n          pop\n            /* \"#utility.yul\":5124:5128   */\n          dup1\n            /* \"#utility.yul\":5114:5122   */\n          dup7\n            /* \"#utility.yul\":5110:5129   */\n          and\n            /* \"#utility.yul\":5103:5108   */\n          dup5\n            /* \"#utility.yul\":5100:5130   */\n          or\n            /* \"#utility.yul\":5090:5130   */\n          swap3\n          pop\n            /* \"#utility.yul\":4819:5136   */\n          pop\n          pop\n            /* \"#utility.yul\":4743:5136   */\n          swap4\n          swap3\n          pop\n          pop\n          pop\n          jump\t// out\n            /* \"#utility.yul\":5142:5219   */\n        tag_32:\n            /* \"#utility.yul\":5179:5186   */\n          0x00\n            /* \"#utility.yul\":5208:5213   */\n          dup2\n            /* \"#utility.yul\":5197:5213   */\n          swap1\n          pop\n            /* \"#utility.yul\":5142:5219   */\n          swap2\n          swap1\n          pop\n          jump\t// out\n            /* \"#utility.yul\":5225:5285   */\n        tag_33:\n            /* \"#utility.yul\":5253:5256   */\n          0x00\n            /* \"#utility.yul\":5274:5279   */\n          dup2\n            /* \"#utility.yul\":5267:5279   */\n          swap1\n          pop\n            /* \"#utility.yul\":5225:5285   */\n          swap2\n          swap1\n          pop\n          jump\t// out\n            /* \"#utility.yul\":5291:5433   */\n        tag_34:\n            /* \"#utility.yul\":5341:5350   */\n          0x00\n            /* \"#utility.yul\":5374:5427   */\n          tag_104\n            /* \"#utility.yul\":5392:5426   */\n          tag_105\n            /* \"#utility.yul\":5401:5425   */\n          tag_106\n            /* \"#utility.yul\":5419:5424   */\n          dup5\n            /* \"#utility.yul\":5401:5425   */\n          tag_32\n          jump\t// in\n        tag_106:\n            /* \"#utility.yul\":5392:5426   */\n          tag_33\n          jump\t// in\n        tag_105:\n            /* \"#utility.yul\":5374:5427   */\n          tag_32\n          jump\t// in\n        tag_104:\n            /* \"#utility.yul\":5361:5427   */\n          swap1\n          pop\n            /* \"#utility.yul\":5291:5433   */\n          swap2\n          swap1\n          pop\n          jump\t// out\n            /* \"#utility.yul\":5439:5514   */\n        tag_35:\n            /* \"#utility.yul\":5482:5485   */\n          0x00\n            /* \"#utility.yul\":5503:5508   */\n          dup2\n            /* \"#utility.yul\":5496:5508   */\n          swap1\n          pop\n            /* \"#utility.yul\":5439:5514   */\n          swap2\n          swap1\n          pop\n          jump\t// out\n            /* \"#utility.yul\":5520:5789   */\n        tag_36:\n            /* \"#utility.yul\":5630:5669   */\n          tag_109\n            /* \"#utility.yul\":5661:5668   */\n          dup4\n            /* \"#utility.yul\":5630:5669   */\n          tag_34\n          jump\t// in\n        tag_109:\n            /* \"#utility.yul\":5691:5782   */\n          tag_110\n            /* \"#utility.yul\":5740:5781   */\n          tag_111\n            /* \"#utility.yul\":5764:5780   */\n          dup3\n            /* \"#utility.yul\":5740:5781   */\n          tag_35\n          jump\t// in\n        tag_111:\n            /* \"#utility.yul\":5732:5738   */\n          dup5\n            /* \"#utility.yul\":5725:5729   */\n          dup5\n            /* \"#utility.yul\":5719:5730   */\n          sload\n            /* \"#utility.yul\":5691:5782   */\n          tag_31\n          jump\t// in\n        tag_110:\n            /* \"#utility.yul\":5685:5689   */\n          dup3\n            /* \"#utility.yul\":5678:5783   */\n          sstore\n            /* \"#utility.yul\":5596:5789   */\n          pop\n            /* \"#utility.yul\":5520:5789   */\n          pop\n          pop\n          pop\n          jump\t// out\n            /* \"#utility.yul\":5795:5868   */\n        tag_37:\n            /* \"#utility.yul\":5840:5843   */\n          0x00\n            /* \"#utility.yul\":5795:5868   */\n          swap1\n          jump\t// out\n            /* \"#utility.yul\":5874:6063   */\n        tag_38:\n            /* \"#utility.yul\":5951:5983   */\n          tag_114\n          tag_37\n          jump\t// in\n        tag_114:\n            /* \"#utility.yul\":5992:6057   */\n          tag_115\n            /* \"#utility.yul\":6050:6056   */\n          dup2\n            /* \"#utility.yul\":6042:6048   */\n          dup5\n            /* \"#utility.yul\":6036:6040   */\n          dup5\n            /* \"#utility.yul\":5992:6057   */\n          tag_36\n          jump\t// in\n        tag_115:\n            /* \"#utility.yul\":5927:6063   */\n          pop\n            /* \"#utility.yul\":5874:6063   */\n          pop\n          pop\n          jump\t// out\n            /* \"#utility.yul\":6069:6255   */\n        tag_39:\n            /* \"#utility.yul\":6129:6249   */\n        tag_117:\n            /* \"#utility.yul\":6146:6149   */\n          dup2\n            /* \"#utility.yul\":6139:6144   */\n          dup2\n            /* \"#utility.yul\":6136:6150   */\n          lt\n            /* \"#utility.yul\":6129:6249   */\n          iszero\n          tag_119\n          jumpi\n            /* \"#utility.yul\":6200:6239   */\n          tag_120\n            /* \"#utility.yul\":6237:6238   */\n          0x00\n            /* \"#utility.yul\":6230:6235   */\n          dup3\n            /* \"#utility.yul\":6200:6239   */\n          tag_38\n          jump\t// in\n        tag_120:\n            /* \"#utility.yul\":6173:6174   */\n          0x01\n            /* \"#utility.yul\":6166:6171   */\n          dup2\n            /* \"#utility.yul\":6162:6175   */\n          add\n            /* \"#utility.yul\":6153:6175   */\n          swap1\n          pop\n            /* \"#utility.yul\":6129:6249   */\n          jump(tag_117)\n        tag_119:\n            /* \"#utility.yul\":6069:6255   */\n          pop\n          pop\n          jump\t// out\n            /* \"#utility.yul\":6261:6804   */\n        tag_40:\n            /* \"#utility.yul\":6362:6364   */\n          0x1f\n            /* \"#utility.yul\":6357:6360   */\n          dup3\n            /* \"#utility.yul\":6354:6365   */\n          gt\n            /* \"#utility.yul\":6351:6797   */\n          iszero\n          tag_122\n          jumpi\n            /* \"#utility.yul\":6396:6434   */\n          tag_123\n            /* \"#utility.yul\":6428:6433   */\n          dup2\n            /* \"#utility.yul\":6396:6434   */\n          tag_28\n          jump\t// in\n        tag_123:\n            /* \"#utility.yul\":6480:6509   */\n          tag_124\n            /* \"#utility.yul\":6498:6508   */\n          dup5\n            /* \"#utility.yul\":6480:6509   */\n          tag_29\n          jump\t// in\n        tag_124:\n            /* \"#utility.yul\":6470:6478   */\n          dup2\n            /* \"#utility.yul\":6466:6510   */\n          add\n            /* \"#utility.yul\":6663:6665   */\n          0x20\n            /* \"#utility.yul\":6651:6661   */\n          dup6\n            /* \"#utility.yul\":6648:6666   */\n          lt\n            /* \"#utility.yul\":6645:6694   */\n          iszero\n          tag_125\n          jumpi\n            /* \"#utility.yul\":6684:6692   */\n          dup2\n            /* \"#utility.yul\":6669:6692   */\n          swap1\n          pop\n            /* \"#utility.yul\":6645:6694   */\n        tag_125:\n            /* \"#utility.yul\":6707:6787   */\n          tag_126\n            /* \"#utility.yul\":6763:6785   */\n          tag_127\n            /* \"#utility.yul\":6781:6784   */\n          dup6\n            /* \"#utility.yul\":6763:6785   */\n          tag_29\n          jump\t// in\n        tag_127:\n            /* \"#utility.yul\":6753:6761   */\n          dup4\n            /* \"#utility.yul\":6749:6786   */\n          add\n            /* \"#utility.yul\":6736:6747   */\n          dup3\n            /* \"#utility.yul\":6707:6787   */\n          tag_39\n          jump\t// in\n        tag_126:\n            /* \"#utility.yul\":6366:6797   */\n          pop\n          pop\n            /* \"#utility.yul\":6351:6797   */\n        tag_122:\n            /* \"#utility.yul\":6261:6804   */\n          pop\n          pop\n          pop\n          jump\t// out\n            /* \"#utility.yul\":6810:6927   */\n        tag_41:\n            /* \"#utility.yul\":6864:6872   */\n          0x00\n            /* \"#utility.yul\":6914:6919   */\n          dup3\n            /* \"#utility.yul\":6908:6912   */\n          dup3\n            /* \"#utility.yul\":6904:6920   */\n          shr\n            /* \"#utility.yul\":6883:6920   */\n          swap1\n          pop\n            /* \"#utility.yul\":6810:6927   */\n          swap3\n          swap2\n          pop\n          pop\n          jump\t// out\n            /* \"#utility.yul\":6933:7102   */\n        tag_42:\n            /* \"#utility.yul\":6977:6983   */\n          0x00\n            /* \"#utility.yul\":7010:7061   */\n          tag_130\n            /* \"#utility.yul\":7058:7059   */\n          0x00\n            /* \"#utility.yul\":7054:7060   */\n          not\n            /* \"#utility.yul\":7046:7051   */\n          dup5\n            /* \"#utility.yul\":7043:7044   */\n          0x08\n            /* \"#utility.yul\":7039:7052   */\n          mul\n            /* \"#utility.yul\":7010:7061   */\n          tag_41\n          jump\t// in\n        tag_130:\n            /* \"#utility.yul\":7006:7062   */\n          not\n            /* \"#utility.yul\":7091:7095   */\n          dup1\n            /* \"#utility.yul\":7085:7089   */\n          dup4\n            /* \"#utility.yul\":7081:7096   */\n          and\n            /* \"#utility.yul\":7071:7096   */\n          swap2\n          pop\n            /* \"#utility.yul\":6984:7102   */\n          pop\n            /* \"#utility.yul\":6933:7102   */\n          swap3\n          swap2\n          pop\n          pop\n          jump\t// out\n            /* \"#utility.yul\":7107:7402   */\n        tag_43:\n            /* \"#utility.yul\":7183:7187   */\n          0x00\n            /* \"#utility.yul\":7329:7358   */\n          tag_132\n            /* \"#utility.yul\":7354:7357   */\n          dup4\n            /* \"#utility.yul\":7348:7352   */\n          dup4\n            /* \"#utility.yul\":7329:7358   */\n          tag_42\n          jump\t// in\n        tag_132:\n            /* \"#utility.yul\":7321:7358   */\n          swap2\n          pop\n            /* \"#utility.yul\":7391:7394   */\n          dup3\n            /* \"#utility.yul\":7388:7389   */\n          0x02\n            /* \"#utility.yul\":7384:7395   */\n          mul\n            /* \"#utility.yul\":7378:7382   */\n          dup3\n            /* \"#utility.yul\":7375:7396   */\n          or\n            /* \"#utility.yul\":7367:7396   */\n          swap1\n          pop\n            /* \"#utility.yul\":7107:7402   */\n          swap3\n          swap2\n          pop\n          pop\n          jump\t// out\n            /* \"#utility.yul\":7407:8802   */\n        tag_6:\n            /* \"#utility.yul\":7524:7561   */\n          tag_134\n            /* \"#utility.yul\":7557:7560   */\n          dup3\n            /* \"#utility.yul\":7524:7561   */\n          tag_25\n          jump\t// in\n        tag_134:\n            /* \"#utility.yul\":7626:7644   */\n          0xffffffffffffffff\n            /* \"#utility.yul\":7618:7624   */\n          dup2\n            /* \"#utility.yul\":7615:7645   */\n          gt\n            /* \"#utility.yul\":7612:7668   */\n          iszero\n          tag_135\n          jumpi\n            /* \"#utility.yul\":7648:7666   */\n          tag_136\n          tag_18\n          jump\t// in\n        tag_136:\n            /* \"#utility.yul\":7612:7668   */\n        tag_135:\n            /* \"#utility.yul\":7692:7730   */\n          tag_137\n            /* \"#utility.yul\":7724:7728   */\n          dup3\n            /* \"#utility.yul\":7718:7729   */\n          sload\n            /* \"#utility.yul\":7692:7730   */\n          tag_27\n          jump\t// in\n        tag_137:\n            /* \"#utility.yul\":7777:7844   */\n          tag_138\n            /* \"#utility.yul\":7837:7843   */\n          dup3\n            /* \"#utility.yul\":7829:7835   */\n          dup3\n            /* \"#utility.yul\":7823:7827   */\n          dup6\n            /* \"#utility.yul\":7777:7844   */\n          tag_40\n          jump\t// in\n        tag_138:\n            /* \"#utility.yul\":7871:7872   */\n          0x00\n            /* \"#utility.yul\":7895:7899   */\n          0x20\n            /* \"#utility.yul\":7882:7899   */\n          swap1\n          pop\n            /* \"#utility.yul\":7927:7929   */\n          0x1f\n            /* \"#utility.yul\":7919:7925   */\n          dup4\n            /* \"#utility.yul\":7916:7930   */\n          gt\n            /* \"#utility.yul\":7944:7945   */\n          0x01\n            /* \"#utility.yul\":7939:8557   */\n          dup2\n          eq\n          tag_140\n          jumpi\n            /* \"#utility.yul\":8601:8602   */\n          0x00\n            /* \"#utility.yul\":8618:8624   */\n          dup5\n            /* \"#utility.yul\":8615:8692   */\n          iszero\n          tag_141\n          jumpi\n            /* \"#utility.yul\":8667:8676   */\n          dup3\n            /* \"#utility.yul\":8662:8665   */\n          dup8\n            /* \"#utility.yul\":8658:8677   */\n          add\n            /* \"#utility.yul\":8652:8678   */\n          mload\n            /* \"#utility.yul\":8643:8678   */\n          swap1\n          pop\n            /* \"#utility.yul\":8615:8692   */\n        tag_141:\n            /* \"#utility.yul\":8718:8785   */\n          tag_142\n            /* \"#utility.yul\":8778:8784   */\n          dup6\n            /* \"#utility.yul\":8771:8776   */\n          dup3\n            /* \"#utility.yul\":8718:8785   */\n          tag_43\n          jump\t// in\n        tag_142:\n            /* \"#utility.yul\":8712:8716   */\n          dup7\n            /* \"#utility.yul\":8705:8786   */\n          sstore\n            /* \"#utility.yul\":8574:8796   */\n          pop\n            /* \"#utility.yul\":7909:8796   */\n          jump(tag_139)\n            /* \"#utility.yul\":7939:8557   */\n        tag_140:\n            /* \"#utility.yul\":7991:7995   */\n          0x1f\n            /* \"#utility.yul\":7987:7996   */\n          not\n            /* \"#utility.yul\":7979:7985   */\n          dup5\n            /* \"#utility.yul\":7975:7997   */\n          and\n            /* \"#utility.yul\":8025:8062   */\n          tag_143\n            /* \"#utility.yul\":8057:8061   */\n          dup7\n            /* \"#utility.yul\":8025:8062   */\n          tag_28\n          jump\t// in\n        tag_143:\n            /* \"#utility.yul\":8084:8085   */\n          0x00\n            /* \"#utility.yul\":8098:8306   */\n        tag_144:\n            /* \"#utility.yul\":8112:8119   */\n          dup3\n            /* \"#utility.yul\":8109:8110   */\n          dup2\n            /* \"#utility.yul\":8106:8120   */\n          lt\n            /* \"#utility.yul\":8098:8306   */\n          iszero\n          tag_146\n          jumpi\n            /* \"#utility.yul\":8191:8200   */\n          dup5\n            /* \"#utility.yul\":8186:8189   */\n          dup10\n            /* \"#utility.yul\":8182:8201   */\n          add\n            /* \"#utility.yul\":8176:8202   */\n          mload\n            /* \"#utility.yul\":8168:8174   */\n          dup3\n            /* \"#utility.yul\":8161:8203   */\n          sstore\n            /* \"#utility.yul\":8242:8243   */\n          0x01\n            /* \"#utility.yul\":8234:8240   */\n          dup3\n            /* \"#utility.yul\":8230:8244   */\n          add\n            /* \"#utility.yul\":8220:8244   */\n          swap2\n          pop\n            /* \"#utility.yul\":8289:8291   */\n          0x20\n            /* \"#utility.yul\":8278:8287   */\n          dup6\n            /* \"#utility.yul\":8274:8292   */\n          add\n            /* \"#utility.yul\":8261:8292   */\n          swap5\n          pop\n            /* \"#utility.yul\":8135:8139   */\n          0x20\n            /* \"#utility.yul\":8132:8133   */\n          dup2\n            /* \"#utility.yul\":8128:8140   */\n          add\n            /* \"#utility.yul\":8123:8140   */\n          swap1\n          pop\n            /* \"#utility.yul\":8098:8306   */\n          jump(tag_144)\n        tag_146:\n            /* \"#utility.yul\":8334:8340   */\n          dup7\n            /* \"#utility.yul\":8325:8332   */\n          dup4\n            /* \"#utility.yul\":8322:8341   */\n          lt\n            /* \"#utility.yul\":8319:8498   */\n          iszero\n          tag_147\n          jumpi\n            /* \"#utility.yul\":8392:8401   */\n          dup5\n            /* \"#utility.yul\":8387:8390   */\n          dup10\n            /* \"#utility.yul\":8383:8402   */\n          add\n            /* \"#utility.yul\":8377:8403   */\n          mload\n            /* \"#utility.yul\":8435:8483   */\n          tag_148\n            /* \"#utility.yul\":8477:8481   */\n          0x1f\n            /* \"#utility.yul\":8469:8475   */\n          dup10\n            /* \"#utility.yul\":8465:8482   */\n          and\n            /* \"#utility.yul\":8454:8463   */\n          dup3\n            /* \"#utility.yul\":8435:8483   */\n          tag_42\n          jump\t// in\n        tag_148:\n            /* \"#utility.yul\":8427:8433   */\n          dup4\n            /* \"#utility.yul\":8420:8484   */\n          sstore\n            /* \"#utility.yul\":8342:8498   */\n          pop\n            /* \"#utility.yul\":8319:8498   */\n        tag_147:\n            /* \"#utility.yul\":8544:8545   */\n          0x01\n            /* \"#utility.yul\":8540:8541   */\n          0x02\n            /* \"#utility.yul\":8532:8538   */\n          dup9\n            /* \"#utility.yul\":8528:8542   */\n          mul\n            /* \"#utility.yul\":8524:8546   */\n          add\n            /* \"#utility.yul\":8518:8522   */\n          dup9\n            /* \"#utility.yul\":8511:8547   */\n          sstore\n            /* \"#utility.yul\":7946:8557   */\n          pop\n          pop\n          pop\n            /* \"#utility.yul\":7909:8796   */\n        tag_139:\n          pop\n            /* \"#utility.yul\":7499:8802   */\n          pop\n          pop\n          pop\n            /* \"#utility.yul\":7407:8802   */\n          pop\n          pop\n          jump\t// out\n            /* \"Learning Pth/CreateContractFromContractEX.sol\":61:320  contract Creator {... */\n        tag_7:\n          dataSize(sub_0)\n          dup1\n          dataOffset(sub_0)\n          0x00\n          codecopy\n          0x00\n          return\n        stop\n\n        sub_0: assembly {\n                /* \"Learning Pth/CreateContractFromContractEX.sol\":61:320  contract Creator {... */\n              mstore(0x40, 0x80)\n              callvalue\n              dup1\n              iszero\n              tag_1\n              jumpi\n              0x00\n              dup1\n              revert\n            tag_1:\n              pop\n              jumpi(tag_2, lt(calldatasize, 0x04))\n              shr(0xe0, calldataload(0x00))\n              dup1\n              0x8da5cb5b\n              eq\n              tag_3\n              jumpi\n              dup1\n              0x909c0087\n              eq\n              tag_4\n              jumpi\n              dup1\n              0xfd0160fe\n              eq\n              tag_5\n              jumpi\n            tag_2:\n              0x00\n              dup1\n              revert\n                /* \"Learning Pth/CreateContractFromContractEX.sol\":85:105  address public owner */\n            tag_3:\n              tag_6\n              tag_7\n              jump\t// in\n            tag_6:\n              mload(0x40)\n              tag_8\n              swap2\n              swap1\n              tag_9\n              jump\t// in\n            tag_8:\n              mload(0x40)\n              dup1\n              swap2\n              sub\n              swap1\n              return\n                /* \"Learning Pth/CreateContractFromContractEX.sol\":112:135  address public cityAddr */\n            tag_4:\n              tag_10\n              tag_11\n              jump\t// in\n            tag_10:\n              mload(0x40)\n              tag_12\n              swap2\n              swap1\n              tag_9\n              jump\t// in\n            tag_12:\n              mload(0x40)\n              dup1\n              swap2\n              sub\n              swap1\n              return\n                /* \"Learning Pth/CreateContractFromContractEX.sol\":142:160  string public city */\n            tag_5:\n              tag_13\n              tag_14\n              jump\t// in\n            tag_13:\n              mload(0x40)\n              tag_15\n              swap2\n              swap1\n              tag_16\n              jump\t// in\n            tag_15:\n              mload(0x40)\n              dup1\n              swap2\n              sub\n              swap1\n              return\n                /* \"Learning Pth/CreateContractFromContractEX.sol\":85:105  address public owner */\n            tag_7:\n              0x00\n              dup1\n              sload\n              swap1\n              0x0100\n              exp\n              swap1\n              div\n              0xffffffffffffffffffffffffffffffffffffffff\n              and\n              dup2\n              jump\t// out\n                /* \"Learning Pth/CreateContractFromContractEX.sol\":112:135  address public cityAddr */\n            tag_11:\n              0x01\n              0x00\n              swap1\n              sload\n              swap1\n              0x0100\n              exp\n              swap1\n              div\n              0xffffffffffffffffffffffffffffffffffffffff\n              and\n              dup2\n              jump\t// out\n                /* \"Learning Pth/CreateContractFromContractEX.sol\":142:160  string public city */\n            tag_14:\n              0x02\n              dup1\n              sload\n              tag_17\n              swap1\n              tag_18\n              jump\t// in\n            tag_17:\n              dup1\n              0x1f\n              add\n              0x20\n              dup1\n              swap2\n              div\n              mul\n              0x20\n              add\n              mload(0x40)\n              swap1\n              dup2\n              add\n              0x40\n              mstore\n              dup1\n              swap3\n              swap2\n              swap1\n              dup2\n              dup2\n              mstore\n              0x20\n              add\n              dup3\n              dup1\n              sload\n              tag_19\n              swap1\n              tag_18\n              jump\t// in\n            tag_19:\n              dup1\n              iszero\n              tag_20\n              jumpi\n              dup1\n              0x1f\n              lt\n              tag_21\n              jumpi\n              0x0100\n              dup1\n              dup4\n              sload\n              div\n              mul\n              dup4\n              mstore\n              swap2\n              0x20\n              add\n              swap2\n              jump(tag_20)\n            tag_21:\n              dup3\n              add\n              swap2\n              swap1\n              0x00\n              mstore\n              keccak256(0x00, 0x20)\n              swap1\n            tag_22:\n              dup2\n              sload\n              dup2\n              mstore\n              swap1\n              0x01\n              add\n              swap1\n              0x20\n              add\n              dup1\n              dup4\n              gt\n              tag_22\n              jumpi\n              dup3\n              swap1\n              sub\n              0x1f\n              and\n              dup3\n              add\n              swap2\n            tag_20:\n              pop\n              pop\n              pop\n              pop\n              pop\n              dup2\n              jump\t// out\n                /* \"#utility.yul\":7:133   */\n            tag_23:\n                /* \"#utility.yul\":44:51   */\n              0x00\n                /* \"#utility.yul\":84:126   */\n              0xffffffffffffffffffffffffffffffffffffffff\n                /* \"#utility.yul\":77:82   */\n              dup3\n                /* \"#utility.yul\":73:127   */\n              and\n                /* \"#utility.yul\":62:127   */\n              swap1\n              pop\n                /* \"#utility.yul\":7:133   */\n              swap2\n              swap1\n              pop\n              jump\t// out\n                /* \"#utility.yul\":139:235   */\n            tag_24:\n                /* \"#utility.yul\":176:183   */\n              0x00\n                /* \"#utility.yul\":205:229   */\n              tag_35\n                /* \"#utility.yul\":223:228   */\n              dup3\n                /* \"#utility.yul\":205:229   */\n              tag_23\n              jump\t// in\n            tag_35:\n                /* \"#utility.yul\":194:229   */\n              swap1\n              pop\n                /* \"#utility.yul\":139:235   */\n              swap2\n              swap1\n              pop\n              jump\t// out\n                /* \"#utility.yul\":241:359   */\n            tag_25:\n                /* \"#utility.yul\":328:352   */\n              tag_37\n                /* \"#utility.yul\":346:351   */\n              dup2\n                /* \"#utility.yul\":328:352   */\n              tag_24\n              jump\t// in\n            tag_37:\n                /* \"#utility.yul\":323:326   */\n              dup3\n                /* \"#utility.yul\":316:353   */\n              mstore\n                /* \"#utility.yul\":241:359   */\n              pop\n              pop\n              jump\t// out\n                /* \"#utility.yul\":365:587   */\n            tag_9:\n                /* \"#utility.yul\":458:462   */\n              0x00\n                /* \"#utility.yul\":496:498   */\n              0x20\n                /* \"#utility.yul\":485:494   */\n              dup3\n                /* \"#utility.yul\":481:499   */\n              add\n                /* \"#utility.yul\":473:499   */\n              swap1\n              pop\n                /* \"#utility.yul\":509:580   */\n              tag_39\n                /* \"#utility.yul\":577:578   */\n              0x00\n                /* \"#utility.yul\":566:575   */\n              dup4\n                /* \"#utility.yul\":562:579   */\n              add\n                /* \"#utility.yul\":553:559   */\n              dup5\n                /* \"#utility.yul\":509:580   */\n              tag_25\n              jump\t// in\n            tag_39:\n                /* \"#utility.yul\":365:587   */\n              swap3\n              swap2\n              pop\n              pop\n              jump\t// out\n                /* \"#utility.yul\":593:692   */\n            tag_26:\n                /* \"#utility.yul\":645:651   */\n              0x00\n                /* \"#utility.yul\":679:684   */\n              dup2\n                /* \"#utility.yul\":673:685   */\n              mload\n                /* \"#utility.yul\":663:685   */\n              swap1\n              pop\n                /* \"#utility.yul\":593:692   */\n              swap2\n              swap1\n              pop\n              jump\t// out\n                /* \"#utility.yul\":698:867   */\n            tag_27:\n                /* \"#utility.yul\":782:793   */\n              0x00\n                /* \"#utility.yul\":816:822   */\n              dup3\n                /* \"#utility.yul\":811:814   */\n              dup3\n                /* \"#utility.yul\":804:823   */\n              mstore\n                /* \"#utility.yul\":856:860   */\n              0x20\n                /* \"#utility.yul\":851:854   */\n              dup3\n                /* \"#utility.yul\":847:861   */\n              add\n                /* \"#utility.yul\":832:861   */\n              swap1\n              pop\n                /* \"#utility.yul\":698:867   */\n              swap3\n              swap2\n              pop\n              pop\n              jump\t// out\n                /* \"#utility.yul\":873:1012   */\n            tag_28:\n                /* \"#utility.yul\":962:968   */\n              dup3\n                /* \"#utility.yul\":957:960   */\n              dup2\n                /* \"#utility.yul\":952:955   */\n              dup4\n                /* \"#utility.yul\":946:969   */\n              mcopy\n                /* \"#utility.yul\":1003:1004   */\n              0x00\n                /* \"#utility.yul\":994:1000   */\n              dup4\n                /* \"#utility.yul\":989:992   */\n              dup4\n                /* \"#utility.yul\":985:1001   */\n              add\n                /* \"#utility.yul\":978:1005   */\n              mstore\n                /* \"#utility.yul\":873:1012   */\n              pop\n              pop\n              pop\n              jump\t// out\n                /* \"#utility.yul\":1018:1120   */\n            tag_29:\n                /* \"#utility.yul\":1059:1065   */\n              0x00\n                /* \"#utility.yul\":1110:1112   */\n              0x1f\n                /* \"#utility.yul\":1106:1113   */\n              not\n                /* \"#utility.yul\":1101:1103   */\n              0x1f\n                /* \"#utility.yul\":1094:1099   */\n              dup4\n                /* \"#utility.yul\":1090:1104   */\n              add\n                /* \"#utility.yul\":1086:1114   */\n              and\n                /* \"#utility.yul\":1076:1114   */\n              swap1\n              pop\n                /* \"#utility.yul\":1018:1120   */\n              swap2\n              swap1\n              pop\n              jump\t// out\n                /* \"#utility.yul\":1126:1503   */\n            tag_30:\n                /* \"#utility.yul\":1214:1217   */\n              0x00\n                /* \"#utility.yul\":1242:1281   */\n              tag_45\n                /* \"#utility.yul\":1275:1280   */\n              dup3\n                /* \"#utility.yul\":1242:1281   */\n              tag_26\n              jump\t// in\n            tag_45:\n                /* \"#utility.yul\":1297:1368   */\n              tag_46\n                /* \"#utility.yul\":1361:1367   */\n              dup2\n                /* \"#utility.yul\":1356:1359   */\n              dup6\n                /* \"#utility.yul\":1297:1368   */\n              tag_27\n              jump\t// in\n            tag_46:\n                /* \"#utility.yul\":1290:1368   */\n              swap4\n              pop\n                /* \"#utility.yul\":1377:1442   */\n              tag_47\n                /* \"#utility.yul\":1435:1441   */\n              dup2\n                /* \"#utility.yul\":1430:1433   */\n              dup6\n                /* \"#utility.yul\":1423:1427   */\n              0x20\n                /* \"#utility.yul\":1416:1421   */\n              dup7\n                /* \"#utility.yul\":1412:1428   */\n              add\n                /* \"#utility.yul\":1377:1442   */\n              tag_28\n              jump\t// in\n            tag_47:\n                /* \"#utility.yul\":1467:1496   */\n              tag_48\n                /* \"#utility.yul\":1489:1495   */\n              dup2\n                /* \"#utility.yul\":1467:1496   */\n              tag_29\n              jump\t// in\n            tag_48:\n                /* \"#utility.yul\":1462:1465   */\n              dup5\n                /* \"#utility.yul\":1458:1497   */\n              add\n                /* \"#utility.yul\":1451:1497   */\n              swap2\n              pop\n                /* \"#utility.yul\":1218:1503   */\n              pop\n                /* \"#utility.yul\":1126:1503   */\n              swap3\n              swap2\n              pop\n              pop\n              jump\t// out\n                /* \"#utility.yul\":1509:1822   */\n            tag_16:\n                /* \"#utility.yul\":1622:1626   */\n              0x00\n                /* \"#utility.yul\":1660:1662   */\n              0x20\n                /* \"#utility.yul\":1649:1658   */\n              dup3\n                /* \"#utility.yul\":1645:1663   */\n              add\n                /* \"#utility.yul\":1637:1663   */\n              swap1\n              pop\n                /* \"#utility.yul\":1709:1718   */\n              dup2\n                /* \"#utility.yul\":1703:1707   */\n              dup2\n                /* \"#utility.yul\":1699:1719   */\n              sub\n                /* \"#utility.yul\":1695:1696   */\n              0x00\n                /* \"#utility.yul\":1684:1693   */\n              dup4\n                /* \"#utility.yul\":1680:1697   */\n              add\n                /* \"#utility.yul\":1673:1720   */\n              mstore\n                /* \"#utility.yul\":1737:1815   */\n              tag_50\n                /* \"#utility.yul\":1810:1814   */\n              dup2\n                /* \"#utility.yul\":1801:1807   */\n              dup5\n                /* \"#utility.yul\":1737:1815   */\n              tag_30\n              jump\t// in\n            tag_50:\n                /* \"#utility.yul\":1729:1815   */\n              swap1\n              pop\n                /* \"#utility.yul\":1509:1822   */\n              swap3\n              swap2\n              pop\n              pop\n              jump\t// out\n                /* \"#utility.yul\":1828:2008   */\n            tag_31:\n                /* \"#utility.yul\":1876:1953   */\n              0x4e487b7100000000000000000000000000000000000000000000000000000000\n                /* \"#utility.yul\":1873:1874   */\n              0x00\n                /* \"#utility.yul\":1866:1954   */\n              mstore\n                /* \"#utility.yul\":1973:1977   */\n              0x22\n                /* \"#utility.yul\":1970:1971   */\n              0x04\n                /* \"#utility.yul\":1963:1978   */\n              mstore\n                /* \"#utility.yul\":1997:2001   */\n              0x24\n                /* \"#utility.yul\":1994:1995   */\n              0x00\n                /* \"#utility.yul\":1987:2002   */\n              revert\n                /* \"#utility.yul\":2014:2334   */\n            tag_18:\n                /* \"#utility.yul\":2058:2064   */\n              0x00\n                /* \"#utility.yul\":2095:2096   */\n              0x02\n                /* \"#utility.yul\":2089:2093   */\n              dup3\n                /* \"#utility.yul\":2085:2097   */\n              div\n                /* \"#utility.yul\":2075:2097   */\n              swap1\n              pop\n                /* \"#utility.yul\":2142:2143   */\n              0x01\n                /* \"#utility.yul\":2136:2140   */\n              dup3\n                /* \"#utility.yul\":2132:2144   */\n              and\n                /* \"#utility.yul\":2163:2181   */\n              dup1\n                /* \"#utility.yul\":2153:2234   */\n              tag_53\n              jumpi\n                /* \"#utility.yul\":2219:2223   */\n              0x7f\n                /* \"#utility.yul\":2211:2217   */\n              dup3\n                /* \"#utility.yul\":2207:2224   */\n              and\n                /* \"#utility.yul\":2197:2224   */\n              swap2\n              pop\n                /* \"#utility.yul\":2153:2234   */\n            tag_53:\n                /* \"#utility.yul\":2281:2283   */\n              0x20\n                /* \"#utility.yul\":2273:2279   */\n              dup3\n                /* \"#utility.yul\":2270:2284   */\n              lt\n                /* \"#utility.yul\":2250:2268   */\n              dup2\n                /* \"#utility.yul\":2247:2285   */\n              sub\n                /* \"#utility.yul\":2244:2328   */\n              tag_54\n              jumpi\n                /* \"#utility.yul\":2300:2318   */\n              tag_55\n              tag_31\n              jump\t// in\n            tag_55:\n                /* \"#utility.yul\":2244:2328   */\n            tag_54:\n                /* \"#utility.yul\":2065:2334   */\n              pop\n                /* \"#utility.yul\":2014:2334   */\n              swap2\n              swap1\n              pop\n              jump\t// out\n\n            auxdata: 0xa264697066735822122078eafd7f7ec0341b975179623f1c8108f6fbe574696c081bdd3483bb544095f964736f6c634300081a0033\n        }\n    }\n\n    auxdata: 0xa2646970667358221220a6ed5f2c03408e1d94dfd605f5b969fd5a59e95702bbed9b0bbce85a2161e58164736f6c634300081a0033\n}\n",
				"bytecode": {
					"linkReferences": {},
					"object": "6080604052348015600e575f80fd5b506111e58061001c5f395ff3fe60806040526004361061003e575f3560e01c80636a51b918146100425780637fe4faf81461007e578063a15ab08d146100bd578063c33cd615146100e5575b5f80fd5b34801561004d575f80fd5b5061006860048036038101906100639190610478565b610101565b604051610075919061051d565b60405180910390f35b348015610089575f80fd5b506100a4600480360381019061009f9190610478565b61013b565b6040516100b494939291906105d5565b60405180910390f35b3480156100c8575f80fd5b506100e360048036038101906100de9190610775565b6102f0565b005b6100ff60048036038101906100fa9190610775565b61038a565b005b5f818154811061010f575f80fd5b905f5260205f20015f915054906101000a900473ffffffffffffffffffffffffffffffffffffffff1681565b5f8060605f805f8681548110610154576101536107cf565b5b905f5260205f20015f9054906101000a900473ffffffffffffffffffffffffffffffffffffffff1690508073ffffffffffffffffffffffffffffffffffffffff16638da5cb5b6040518163ffffffff1660e01b8152600401602060405180830381865afa1580156101c7573d5f803e3d5ffd5b505050506040513d601f19601f820116820180604052508101906101eb9190610810565b8173ffffffffffffffffffffffffffffffffffffffff1663909c00876040518163ffffffff1660e01b8152600401602060405180830381865afa158015610234573d5f803e3d5ffd5b505050506040513d601f19601f820116820180604052508101906102589190610810565b8273ffffffffffffffffffffffffffffffffffffffff1663fd0160fe6040518163ffffffff1660e01b81526004015f60405180830381865afa1580156102a0573d5f803e3d5ffd5b505050506040513d5f823e3d601f19601f820116820180604052508101906102c891906108a9565b8373ffffffffffffffffffffffffffffffffffffffff16319450945094509450509193509193565b5f82826040516102ff90610427565b61030a9291906108f0565b604051809103905ff080158015610323573d5f803e3d5ffd5b5090505f81908060018154018082558091505060019003905f5260205f20015f9091909190916101000a81548173ffffffffffffffffffffffffffffffffffffffff021916908373ffffffffffffffffffffffffffffffffffffffff160217905550505050565b5f34838360405161039a90610427565b6103a59291906108f0565b6040518091039082f09050801580156103c0573d5f803e3d5ffd5b5090505f81908060018154018082558091505060019003905f5260205f20015f9091909190916101000a81548173ffffffffffffffffffffffffffffffffffffffff021916908373ffffffffffffffffffffffffffffffffffffffff160217905550505050565b6108918061091f83390190565b5f604051905090565b5f80fd5b5f80fd5b5f819050919050565b61045781610445565b8114610461575f80fd5b50565b5f813590506104728161044e565b92915050565b5f6020828403121561048d5761048c61043d565b5b5f61049a84828501610464565b91505092915050565b5f73ffffffffffffffffffffffffffffffffffffffff82169050919050565b5f819050919050565b5f6104e56104e06104db846104a3565b6104c2565b6104a3565b9050919050565b5f6104f6826104cb565b9050919050565b5f610507826104ec565b9050919050565b610517816104fd565b82525050565b5f6020820190506105305f83018461050e565b92915050565b5f610540826104a3565b9050919050565b61055081610536565b82525050565b5f81519050919050565b5f82825260208201905092915050565b8281835e5f83830152505050565b5f601f19601f8301169050919050565b5f61059882610556565b6105a28185610560565b93506105b2818560208601610570565b6105bb8161057e565b840191505092915050565b6105cf81610445565b82525050565b5f6080820190506105e85f830187610547565b6105f56020830186610547565b8181036040830152610607818561058e565b905061061660608301846105c6565b95945050505050565b61062881610536565b8114610632575f80fd5b50565b5f813590506106438161061f565b92915050565b5f80fd5b5f80fd5b7f4e487b71000000000000000000000000000000000000000000000000000000005f52604160045260245ffd5b6106878261057e565b810181811067ffffffffffffffff821117156106a6576106a5610651565b5b80604052505050565b5f6106b8610434565b90506106c4828261067e565b919050565b5f67ffffffffffffffff8211156106e3576106e2610651565b5b6106ec8261057e565b9050602081019050919050565b828183375f83830152505050565b5f610719610714846106c9565b6106af565b9050828152602081018484840111156107355761073461064d565b5b6107408482856106f9565b509392505050565b5f82601f83011261075c5761075b610649565b5b813561076c848260208601610707565b91505092915050565b5f806040838503121561078b5761078a61043d565b5b5f61079885828601610635565b925050602083013567ffffffffffffffff8111156107b9576107b8610441565b5b6107c585828601610748565b9150509250929050565b7f4e487b71000000000000000000000000000000000000000000000000000000005f52603260045260245ffd5b5f8151905061080a8161061f565b92915050565b5f602082840312156108255761082461043d565b5b5f610832848285016107fc565b91505092915050565b5f61084d610848846106c9565b6106af565b9050828152602081018484840111156108695761086861064d565b5b610874848285610570565b509392505050565b5f82601f8301126108905761088f610649565b5b81516108a084826020860161083b565b91505092915050565b5f602082840312156108be576108bd61043d565b5b5f82015167ffffffffffffffff8111156108db576108da610441565b5b6108e78482850161087c565b91505092915050565b5f6040820190506109035f830185610547565b8181036020830152610915818461058e565b9050939250505056fe608060405260405161089138038061089183398181016040528101906100259190610262565b815f806101000a81548173ffffffffffffffffffffffffffffffffffffffff021916908373ffffffffffffffffffffffffffffffffffffffff1602179055503060015f6101000a81548173ffffffffffffffffffffffffffffffffffffffff021916908373ffffffffffffffffffffffffffffffffffffffff16021790555080600290816100b391906104c9565b505050610598565b5f604051905090565b5f80fd5b5f80fd5b5f73ffffffffffffffffffffffffffffffffffffffff82169050919050565b5f6100f5826100cc565b9050919050565b610105816100eb565b811461010f575f80fd5b50565b5f81519050610120816100fc565b92915050565b5f80fd5b5f80fd5b5f601f19601f8301169050919050565b7f4e487b71000000000000000000000000000000000000000000000000000000005f52604160045260245ffd5b6101748261012e565b810181811067ffffffffffffffff821117156101935761019261013e565b5b80604052505050565b5f6101a56100bb565b90506101b1828261016b565b919050565b5f67ffffffffffffffff8211156101d0576101cf61013e565b5b6101d98261012e565b9050602081019050919050565b8281835e5f83830152505050565b5f610206610201846101b6565b61019c565b9050828152602081018484840111156102225761022161012a565b5b61022d8482856101e6565b509392505050565b5f82601f83011261024957610248610126565b5b81516102598482602086016101f4565b91505092915050565b5f8060408385031215610278576102776100c4565b5b5f61028585828601610112565b925050602083015167ffffffffffffffff8111156102a6576102a56100c8565b5b6102b285828601610235565b9150509250929050565b5f81519050919050565b7f4e487b71000000000000000000000000000000000000000000000000000000005f52602260045260245ffd5b5f600282049050600182168061030a57607f821691505b60208210810361031d5761031c6102c6565b5b50919050565b5f819050815f5260205f209050919050565b5f6020601f8301049050919050565b5f82821b905092915050565b5f6008830261037f7fffffffffffffffffffffffffffffffffffffffffffffffffffffffffffffffff82610344565b6103898683610344565b95508019841693508086168417925050509392505050565b5f819050919050565b5f819050919050565b5f6103cd6103c86103c3846103a1565b6103aa565b6103a1565b9050919050565b5f819050919050565b6103e6836103b3565b6103fa6103f2826103d4565b848454610350565b825550505050565b5f90565b61040e610402565b6104198184846103dd565b505050565b5b8181101561043c576104315f82610406565b60018101905061041f565b5050565b601f8211156104815761045281610323565b61045b84610335565b8101602085101561046a578190505b61047e61047685610335565b83018261041e565b50505b505050565b5f82821c905092915050565b5f6104a15f1984600802610486565b1980831691505092915050565b5f6104b98383610492565b9150826002028217905092915050565b6104d2826102bc565b67ffffffffffffffff8111156104eb576104ea61013e565b5b6104f582546102f3565b610500828285610440565b5f60209050601f831160018114610531575f841561051f578287015190505b61052985826104ae565b865550610590565b601f19841661053f86610323565b5f5b8281101561056657848901518255600182019150602085019450602081019050610541565b86831015610583578489015161057f601f891682610492565b8355505b6001600288020188555050505b505050505050565b6102ec806105a55f395ff3fe608060405234801561000f575f80fd5b506004361061003f575f3560e01c80638da5cb5b14610043578063909c008714610061578063fd0160fe1461007f575b5f80fd5b61004b61009d565b60405161005891906101b0565b60405180910390f35b6100696100c0565b60405161007691906101b0565b60405180910390f35b6100876100e5565b6040516100949190610239565b60405180910390f35b5f8054906101000a900473ffffffffffffffffffffffffffffffffffffffff1681565b60015f9054906101000a900473ffffffffffffffffffffffffffffffffffffffff1681565b600280546100f290610286565b80601f016020809104026020016040519081016040528092919081815260200182805461011e90610286565b80156101695780601f1061014057610100808354040283529160200191610169565b820191905f5260205f20905b81548152906001019060200180831161014c57829003601f168201915b505050505081565b5f73ffffffffffffffffffffffffffffffffffffffff82169050919050565b5f61019a82610171565b9050919050565b6101aa81610190565b82525050565b5f6020820190506101c35f8301846101a1565b92915050565b5f81519050919050565b5f82825260208201905092915050565b8281835e5f83830152505050565b5f601f19601f8301169050919050565b5f61020b826101c9565b61021581856101d3565b93506102258185602086016101e3565b61022e816101f1565b840191505092915050565b5f6020820190508181035f8301526102518184610201565b905092915050565b7f4e487b71000000000000000000000000000000000000000000000000000000005f52602260045260245ffd5b5f600282049050600182168061029d57607f821691505b6020821081036102b0576102af610259565b5b5091905056fea264697066735822122078eafd7f7ec0341b975179623f1c8108f6fbe574696c081bdd3483bb544095f964736f6c634300081a0033a2646970667358221220a6ed5f2c03408e1d94dfd605f5b969fd5a59e95702bbed9b0bbce85a2161e58164736f6c634300081a0033",
					"opcodes": "PUSH1 0x80 PUSH1 0x40 MSTORE CALLVALUE DUP1 ISZERO PUSH1 0xE JUMPI PUSH0 DUP1 REVERT JUMPDEST POP PUSH2 0x11E5 DUP1 PUSH2 0x1C PUSH0 CODECOPY PUSH0 RETURN INVALID PUSH1 0x80 PUSH1 0x40 MSTORE PUSH1 0x4 CALLDATASIZE LT PUSH2 0x3E JUMPI PUSH0 CALLDATALOAD PUSH1 0xE0 SHR DUP1 PUSH4 0x6A51B918 EQ PUSH2 0x42 JUMPI DUP1 PUSH4 0x7FE4FAF8 EQ PUSH2 0x7E JUMPI DUP1 PUSH4 0xA15AB08D EQ PUSH2 0xBD JUMPI DUP1 PUSH4 0xC33CD615 EQ PUSH2 0xE5 JUMPI JUMPDEST PUSH0 DUP1 REVERT JUMPDEST CALLVALUE DUP1 ISZERO PUSH2 0x4D JUMPI PUSH0 DUP1 REVERT JUMPDEST POP PUSH2 0x68 PUSH1 0x4 DUP1 CALLDATASIZE SUB DUP2 ADD SWAP1 PUSH2 0x63 SWAP2 SWAP1 PUSH2 0x478 JUMP JUMPDEST PUSH2 0x101 JUMP JUMPDEST PUSH1 0x40 MLOAD PUSH2 0x75 SWAP2 SWAP1 PUSH2 0x51D JUMP JUMPDEST PUSH1 0x40 MLOAD DUP1 SWAP2 SUB SWAP1 RETURN JUMPDEST CALLVALUE DUP1 ISZERO PUSH2 0x89 JUMPI PUSH0 DUP1 REVERT JUMPDEST POP PUSH2 0xA4 PUSH1 0x4 DUP1 CALLDATASIZE SUB DUP2 ADD SWAP1 PUSH2 0x9F SWAP2 SWAP1 PUSH2 0x478 JUMP JUMPDEST PUSH2 0x13B JUMP JUMPDEST PUSH1 0x40 MLOAD PUSH2 0xB4 SWAP5 SWAP4 SWAP3 SWAP2 SWAP1 PUSH2 0x5D5 JUMP JUMPDEST PUSH1 0x40 MLOAD DUP1 SWAP2 SUB SWAP1 RETURN JUMPDEST CALLVALUE DUP1 ISZERO PUSH2 0xC8 JUMPI PUSH0 DUP1 REVERT JUMPDEST POP PUSH2 0xE3 PUSH1 0x4 DUP1 CALLDATASIZE SUB DUP2 ADD SWAP1 PUSH2 0xDE SWAP2 SWAP1 PUSH2 0x775 JUMP JUMPDEST PUSH2 0x2F0 JUMP JUMPDEST STOP JUMPDEST PUSH2 0xFF PUSH1 0x4 DUP1 CALLDATASIZE SUB DUP2 ADD SWAP1 PUSH2 0xFA SWAP2 SWAP1 PUSH2 0x775 JUMP JUMPDEST PUSH2 0x38A JUMP JUMPDEST STOP JUMPDEST PUSH0 DUP2 DUP2 SLOAD DUP2 LT PUSH2 0x10F JUMPI PUSH0 DUP1 REVERT JUMPDEST SWAP1 PUSH0 MSTORE PUSH1 0x20 PUSH0 KECCAK256 ADD PUSH0 SWAP2 POP SLOAD SWAP1 PUSH2 0x100 EXP SWAP1 DIV PUSH20 0xFFFFFFFFFFFFFFFFFFFFFFFFFFFFFFFFFFFFFFFF AND DUP2 JUMP JUMPDEST PUSH0 DUP1 PUSH1 0x60 PUSH0 DUP1 PUSH0 DUP7 DUP2 SLOAD DUP2 LT PUSH2 0x154 JUMPI PUSH2 0x153 PUSH2 0x7CF JUMP JUMPDEST JUMPDEST SWAP1 PUSH0 MSTORE PUSH1 0x20 PUSH0 KECCAK256 ADD PUSH0 SWAP1 SLOAD SWAP1 PUSH2 0x100 EXP SWAP1 DIV PUSH20 0xFFFFFFFFFFFFFFFFFFFFFFFFFFFFFFFFFFFFFFFF AND SWAP1 POP DUP1 PUSH20 0xFFFFFFFFFFFFFFFFFFFFFFFFFFFFFFFFFFFFFFFF AND PUSH4 0x8DA5CB5B PUSH1 0x40 MLOAD DUP2 PUSH4 0xFFFFFFFF AND PUSH1 0xE0 SHL DUP2 MSTORE PUSH1 0x4 ADD PUSH1 0x20 PUSH1 0x40 MLOAD DUP1 DUP4 SUB DUP2 DUP7 GAS STATICCALL ISZERO DUP1 ISZERO PUSH2 0x1C7 JUMPI RETURNDATASIZE PUSH0 DUP1 RETURNDATACOPY RETURNDATASIZE PUSH0 REVERT JUMPDEST POP POP POP POP PUSH1 0x40 MLOAD RETURNDATASIZE PUSH1 0x1F NOT PUSH1 0x1F DUP3 ADD AND DUP3 ADD DUP1 PUSH1 0x40 MSTORE POP DUP2 ADD SWAP1 PUSH2 0x1EB SWAP2 SWAP1 PUSH2 0x810 JUMP JUMPDEST DUP2 PUSH20 0xFFFFFFFFFFFFFFFFFFFFFFFFFFFFFFFFFFFFFFFF AND PUSH4 0x909C0087 PUSH1 0x40 MLOAD DUP2 PUSH4 0xFFFFFFFF AND PUSH1 0xE0 SHL DUP2 MSTORE PUSH1 0x4 ADD PUSH1 0x20 PUSH1 0x40 MLOAD DUP1 DUP4 SUB DUP2 DUP7 GAS STATICCALL ISZERO DUP1 ISZERO PUSH2 0x234 JUMPI RETURNDATASIZE PUSH0 DUP1 RETURNDATACOPY RETURNDATASIZE PUSH0 REVERT JUMPDEST POP POP POP POP PUSH1 0x40 MLOAD RETURNDATASIZE PUSH1 0x1F NOT PUSH1 0x1F DUP3 ADD AND DUP3 ADD DUP1 PUSH1 0x40 MSTORE POP DUP2 ADD SWAP1 PUSH2 0x258 SWAP2 SWAP1 PUSH2 0x810 JUMP JUMPDEST DUP3 PUSH20 0xFFFFFFFFFFFFFFFFFFFFFFFFFFFFFFFFFFFFFFFF AND PUSH4 0xFD0160FE PUSH1 0x40 MLOAD DUP2 PUSH4 0xFFFFFFFF AND PUSH1 0xE0 SHL DUP2 MSTORE PUSH1 0x4 ADD PUSH0 PUSH1 0x40 MLOAD DUP1 DUP4 SUB DUP2 DUP7 GAS STATICCALL ISZERO DUP1 ISZERO PUSH2 0x2A0 JUMPI RETURNDATASIZE PUSH0 DUP1 RETURNDATACOPY RETURNDATASIZE PUSH0 REVERT JUMPDEST POP POP POP POP PUSH1 0x40 MLOAD RETURNDATASIZE PUSH0 DUP3 RETURNDATACOPY RETURNDATASIZE PUSH1 0x1F NOT PUSH1 0x1F DUP3 ADD AND DUP3 ADD DUP1 PUSH1 0x40 MSTORE POP DUP2 ADD SWAP1 PUSH2 0x2C8 SWAP2 SWAP1 PUSH2 0x8A9 JUMP JUMPDEST DUP4 PUSH20 0xFFFFFFFFFFFFFFFFFFFFFFFFFFFFFFFFFFFFFFFF AND BALANCE SWAP5 POP SWAP5 POP SWAP5 POP SWAP5 POP POP SWAP2 SWAP4 POP SWAP2 SWAP4 JUMP JUMPDEST PUSH0 DUP3 DUP3 PUSH1 0x40 MLOAD PUSH2 0x2FF SWAP1 PUSH2 0x427 JUMP JUMPDEST PUSH2 0x30A SWAP3 SWAP2 SWAP1 PUSH2 0x8F0 JUMP JUMPDEST PUSH1 0x40 MLOAD DUP1 SWAP2 SUB SWAP1 PUSH0 CREATE DUP1 ISZERO DUP1 ISZERO PUSH2 0x323 JUMPI RETURNDATASIZE PUSH0 DUP1 RETURNDATACOPY RETURNDATASIZE PUSH0 REVERT JUMPDEST POP SWAP1 POP PUSH0 DUP2 SWAP1 DUP1 PUSH1 0x1 DUP2 SLOAD ADD DUP1 DUP3 SSTORE DUP1 SWAP2 POP POP PUSH1 0x1 SWAP1 SUB SWAP1 PUSH0 MSTORE PUSH1 0x20 PUSH0 KECCAK256 ADD PUSH0 SWAP1 SWAP2 SWAP1 SWAP2 SWAP1 SWAP2 PUSH2 0x100 EXP DUP2 SLOAD DUP2 PUSH20 0xFFFFFFFFFFFFFFFFFFFFFFFFFFFFFFFFFFFFFFFF MUL NOT AND SWAP1 DUP4 PUSH20 0xFFFFFFFFFFFFFFFFFFFFFFFFFFFFFFFFFFFFFFFF AND MUL OR SWAP1 SSTORE POP POP POP POP JUMP JUMPDEST PUSH0 CALLVALUE DUP4 DUP4 PUSH1 0x40 MLOAD PUSH2 0x39A SWAP1 PUSH2 0x427 JUMP JUMPDEST PUSH2 0x3A5 SWAP3 SWAP2 SWAP1 PUSH2 0x8F0 JUMP JUMPDEST PUSH1 0x40 MLOAD DUP1 SWAP2 SUB SWAP1 DUP3 CREATE SWAP1 POP DUP1 ISZERO DUP1 ISZERO PUSH2 0x3C0 JUMPI RETURNDATASIZE PUSH0 DUP1 RETURNDATACOPY RETURNDATASIZE PUSH0 REVERT JUMPDEST POP SWAP1 POP PUSH0 DUP2 SWAP1 DUP1 PUSH1 0x1 DUP2 SLOAD ADD DUP1 DUP3 SSTORE DUP1 SWAP2 POP POP PUSH1 0x1 SWAP1 SUB SWAP1 PUSH0 MSTORE PUSH1 0x20 PUSH0 KECCAK256 ADD PUSH0 SWAP1 SWAP2 SWAP1 SWAP2 SWAP1 SWAP2 PUSH2 0x100 EXP DUP2 SLOAD DUP2 PUSH20 0xFFFFFFFFFFFFFFFFFFFFFFFFFFFFFFFFFFFFFFFF MUL NOT AND SWAP1 DUP4 PUSH20 0xFFFFFFFFFFFFFFFFFFFFFFFFFFFFFFFFFFFFFFFF AND MUL OR SWAP1 SSTORE POP POP POP POP JUMP JUMPDEST PUSH2 0x891 DUP1 PUSH2 0x91F DUP4 CODECOPY ADD SWAP1 JUMP JUMPDEST PUSH0 PUSH1 0x40 MLOAD SWAP1 POP SWAP1 JUMP JUMPDEST PUSH0 DUP1 REVERT JUMPDEST PUSH0 DUP1 REVERT JUMPDEST PUSH0 DUP2 SWAP1 POP SWAP2 SWAP1 POP JUMP JUMPDEST PUSH2 0x457 DUP2 PUSH2 0x445 JUMP JUMPDEST DUP2 EQ PUSH2 0x461 JUMPI PUSH0 DUP1 REVERT JUMPDEST POP JUMP JUMPDEST PUSH0 DUP2 CALLDATALOAD SWAP1 POP PUSH2 0x472 DUP2 PUSH2 0x44E JUMP JUMPDEST SWAP3 SWAP2 POP POP JUMP JUMPDEST PUSH0 PUSH1 0x20 DUP3 DUP5 SUB SLT ISZERO PUSH2 0x48D JUMPI PUSH2 0x48C PUSH2 0x43D JUMP JUMPDEST JUMPDEST PUSH0 PUSH2 0x49A DUP5 DUP3 DUP6 ADD PUSH2 0x464 JUMP JUMPDEST SWAP2 POP POP SWAP3 SWAP2 POP POP JUMP JUMPDEST PUSH0 PUSH20 0xFFFFFFFFFFFFFFFFFFFFFFFFFFFFFFFFFFFFFFFF DUP3 AND SWAP1 POP SWAP2 SWAP1 POP JUMP JUMPDEST PUSH0 DUP2 SWAP1 POP SWAP2 SWAP1 POP JUMP JUMPDEST PUSH0 PUSH2 0x4E5 PUSH2 0x4E0 PUSH2 0x4DB DUP5 PUSH2 0x4A3 JUMP JUMPDEST PUSH2 0x4C2 JUMP JUMPDEST PUSH2 0x4A3 JUMP JUMPDEST SWAP1 POP SWAP2 SWAP1 POP JUMP JUMPDEST PUSH0 PUSH2 0x4F6 DUP3 PUSH2 0x4CB JUMP JUMPDEST SWAP1 POP SWAP2 SWAP1 POP JUMP JUMPDEST PUSH0 PUSH2 0x507 DUP3 PUSH2 0x4EC JUMP JUMPDEST SWAP1 POP SWAP2 SWAP1 POP JUMP JUMPDEST PUSH2 0x517 DUP2 PUSH2 0x4FD JUMP JUMPDEST DUP3 MSTORE POP POP JUMP JUMPDEST PUSH0 PUSH1 0x20 DUP3 ADD SWAP1 POP PUSH2 0x530 PUSH0 DUP4 ADD DUP5 PUSH2 0x50E JUMP JUMPDEST SWAP3 SWAP2 POP POP JUMP JUMPDEST PUSH0 PUSH2 0x540 DUP3 PUSH2 0x4A3 JUMP JUMPDEST SWAP1 POP SWAP2 SWAP1 POP JUMP JUMPDEST PUSH2 0x550 DUP2 PUSH2 0x536 JUMP JUMPDEST DUP3 MSTORE POP POP JUMP JUMPDEST PUSH0 DUP2 MLOAD SWAP1 POP SWAP2 SWAP1 POP JUMP JUMPDEST PUSH0 DUP3 DUP3 MSTORE PUSH1 0x20 DUP3 ADD SWAP1 POP SWAP3 SWAP2 POP POP JUMP JUMPDEST DUP3 DUP2 DUP4 MCOPY PUSH0 DUP4 DUP4 ADD MSTORE POP POP POP JUMP JUMPDEST PUSH0 PUSH1 0x1F NOT PUSH1 0x1F DUP4 ADD AND SWAP1 POP SWAP2 SWAP1 POP JUMP JUMPDEST PUSH0 PUSH2 0x598 DUP3 PUSH2 0x556 JUMP JUMPDEST PUSH2 0x5A2 DUP2 DUP6 PUSH2 0x560 JUMP JUMPDEST SWAP4 POP PUSH2 0x5B2 DUP2 DUP6 PUSH1 0x20 DUP7 ADD PUSH2 0x570 JUMP JUMPDEST PUSH2 0x5BB DUP2 PUSH2 0x57E JUMP JUMPDEST DUP5 ADD SWAP2 POP POP SWAP3 SWAP2 POP POP JUMP JUMPDEST PUSH2 0x5CF DUP2 PUSH2 0x445 JUMP JUMPDEST DUP3 MSTORE POP POP JUMP JUMPDEST PUSH0 PUSH1 0x80 DUP3 ADD SWAP1 POP PUSH2 0x5E8 PUSH0 DUP4 ADD DUP8 PUSH2 0x547 JUMP JUMPDEST PUSH2 0x5F5 PUSH1 0x20 DUP4 ADD DUP7 PUSH2 0x547 JUMP JUMPDEST DUP2 DUP2 SUB PUSH1 0x40 DUP4 ADD MSTORE PUSH2 0x607 DUP2 DUP6 PUSH2 0x58E JUMP JUMPDEST SWAP1 POP PUSH2 0x616 PUSH1 0x60 DUP4 ADD DUP5 PUSH2 0x5C6 JUMP JUMPDEST SWAP6 SWAP5 POP POP POP POP POP JUMP JUMPDEST PUSH2 0x628 DUP2 PUSH2 0x536 JUMP JUMPDEST DUP2 EQ PUSH2 0x632 JUMPI PUSH0 DUP1 REVERT JUMPDEST POP JUMP JUMPDEST PUSH0 DUP2 CALLDATALOAD SWAP1 POP PUSH2 0x643 DUP2 PUSH2 0x61F JUMP JUMPDEST SWAP3 SWAP2 POP POP JUMP JUMPDEST PUSH0 DUP1 REVERT JUMPDEST PUSH0 DUP1 REVERT JUMPDEST PUSH32 0x4E487B7100000000000000000000000000000000000000000000000000000000 PUSH0 MSTORE PUSH1 0x41 PUSH1 0x4 MSTORE PUSH1 0x24 PUSH0 REVERT JUMPDEST PUSH2 0x687 DUP3 PUSH2 0x57E JUMP JUMPDEST DUP2 ADD DUP2 DUP2 LT PUSH8 0xFFFFFFFFFFFFFFFF DUP3 GT OR ISZERO PUSH2 0x6A6 JUMPI PUSH2 0x6A5 PUSH2 0x651 JUMP JUMPDEST JUMPDEST DUP1 PUSH1 0x40 MSTORE POP POP POP JUMP JUMPDEST PUSH0 PUSH2 0x6B8 PUSH2 0x434 JUMP JUMPDEST SWAP1 POP PUSH2 0x6C4 DUP3 DUP3 PUSH2 0x67E JUMP JUMPDEST SWAP2 SWAP1 POP JUMP JUMPDEST PUSH0 PUSH8 0xFFFFFFFFFFFFFFFF DUP3 GT ISZERO PUSH2 0x6E3 JUMPI PUSH2 0x6E2 PUSH2 0x651 JUMP JUMPDEST JUMPDEST PUSH2 0x6EC DUP3 PUSH2 0x57E JUMP JUMPDEST SWAP1 POP PUSH1 0x20 DUP2 ADD SWAP1 POP SWAP2 SWAP1 POP JUMP JUMPDEST DUP3 DUP2 DUP4 CALLDATACOPY PUSH0 DUP4 DUP4 ADD MSTORE POP POP POP JUMP JUMPDEST PUSH0 PUSH2 0x719 PUSH2 0x714 DUP5 PUSH2 0x6C9 JUMP JUMPDEST PUSH2 0x6AF JUMP JUMPDEST SWAP1 POP DUP3 DUP2 MSTORE PUSH1 0x20 DUP2 ADD DUP5 DUP5 DUP5 ADD GT ISZERO PUSH2 0x735 JUMPI PUSH2 0x734 PUSH2 0x64D JUMP JUMPDEST JUMPDEST PUSH2 0x740 DUP5 DUP3 DUP6 PUSH2 0x6F9 JUMP JUMPDEST POP SWAP4 SWAP3 POP POP POP JUMP JUMPDEST PUSH0 DUP3 PUSH1 0x1F DUP4 ADD SLT PUSH2 0x75C JUMPI PUSH2 0x75B PUSH2 0x649 JUMP JUMPDEST JUMPDEST DUP2 CALLDATALOAD PUSH2 0x76C DUP5 DUP3 PUSH1 0x20 DUP7 ADD PUSH2 0x707 JUMP JUMPDEST SWAP2 POP POP SWAP3 SWAP2 POP POP JUMP JUMPDEST PUSH0 DUP1 PUSH1 0x40 DUP4 DUP6 SUB SLT ISZERO PUSH2 0x78B JUMPI PUSH2 0x78A PUSH2 0x43D JUMP JUMPDEST JUMPDEST PUSH0 PUSH2 0x798 DUP6 DUP3 DUP7 ADD PUSH2 0x635 JUMP JUMPDEST SWAP3 POP POP PUSH1 0x20 DUP4 ADD CALLDATALOAD PUSH8 0xFFFFFFFFFFFFFFFF DUP2 GT ISZERO PUSH2 0x7B9 JUMPI PUSH2 0x7B8 PUSH2 0x441 JUMP JUMPDEST JUMPDEST PUSH2 0x7C5 DUP6 DUP3 DUP7 ADD PUSH2 0x748 JUMP JUMPDEST SWAP2 POP POP SWAP3 POP SWAP3 SWAP1 POP JUMP JUMPDEST PUSH32 0x4E487B7100000000000000000000000000000000000000000000000000000000 PUSH0 MSTORE PUSH1 0x32 PUSH1 0x4 MSTORE PUSH1 0x24 PUSH0 REVERT JUMPDEST PUSH0 DUP2 MLOAD SWAP1 POP PUSH2 0x80A DUP2 PUSH2 0x61F JUMP JUMPDEST SWAP3 SWAP2 POP POP JUMP JUMPDEST PUSH0 PUSH1 0x20 DUP3 DUP5 SUB SLT ISZERO PUSH2 0x825 JUMPI PUSH2 0x824 PUSH2 0x43D JUMP JUMPDEST JUMPDEST PUSH0 PUSH2 0x832 DUP5 DUP3 DUP6 ADD PUSH2 0x7FC JUMP JUMPDEST SWAP2 POP POP SWAP3 SWAP2 POP POP JUMP JUMPDEST PUSH0 PUSH2 0x84D PUSH2 0x848 DUP5 PUSH2 0x6C9 JUMP JUMPDEST PUSH2 0x6AF JUMP JUMPDEST SWAP1 POP DUP3 DUP2 MSTORE PUSH1 0x20 DUP2 ADD DUP5 DUP5 DUP5 ADD GT ISZERO PUSH2 0x869 JUMPI PUSH2 0x868 PUSH2 0x64D JUMP JUMPDEST JUMPDEST PUSH2 0x874 DUP5 DUP3 DUP6 PUSH2 0x570 JUMP JUMPDEST POP SWAP4 SWAP3 POP POP POP JUMP JUMPDEST PUSH0 DUP3 PUSH1 0x1F DUP4 ADD SLT PUSH2 0x890 JUMPI PUSH2 0x88F PUSH2 0x649 JUMP JUMPDEST JUMPDEST DUP2 MLOAD PUSH2 0x8A0 DUP5 DUP3 PUSH1 0x20 DUP7 ADD PUSH2 0x83B JUMP JUMPDEST SWAP2 POP POP SWAP3 SWAP2 POP POP JUMP JUMPDEST PUSH0 PUSH1 0x20 DUP3 DUP5 SUB SLT ISZERO PUSH2 0x8BE JUMPI PUSH2 0x8BD PUSH2 0x43D JUMP JUMPDEST JUMPDEST PUSH0 DUP3 ADD MLOAD PUSH8 0xFFFFFFFFFFFFFFFF DUP2 GT ISZERO PUSH2 0x8DB JUMPI PUSH2 0x8DA PUSH2 0x441 JUMP JUMPDEST JUMPDEST PUSH2 0x8E7 DUP5 DUP3 DUP6 ADD PUSH2 0x87C JUMP JUMPDEST SWAP2 POP POP SWAP3 SWAP2 POP POP JUMP JUMPDEST PUSH0 PUSH1 0x40 DUP3 ADD SWAP1 POP PUSH2 0x903 PUSH0 DUP4 ADD DUP6 PUSH2 0x547 JUMP JUMPDEST DUP2 DUP2 SUB PUSH1 0x20 DUP4 ADD MSTORE PUSH2 0x915 DUP2 DUP5 PUSH2 0x58E JUMP JUMPDEST SWAP1 POP SWAP4 SWAP3 POP POP POP JUMP INVALID PUSH1 0x80 PUSH1 0x40 MSTORE PUSH1 0x40 MLOAD PUSH2 0x891 CODESIZE SUB DUP1 PUSH2 0x891 DUP4 CODECOPY DUP2 DUP2 ADD PUSH1 0x40 MSTORE DUP2 ADD SWAP1 PUSH2 0x25 SWAP2 SWAP1 PUSH2 0x262 JUMP JUMPDEST DUP2 PUSH0 DUP1 PUSH2 0x100 EXP DUP2 SLOAD DUP2 PUSH20 0xFFFFFFFFFFFFFFFFFFFFFFFFFFFFFFFFFFFFFFFF MUL NOT AND SWAP1 DUP4 PUSH20 0xFFFFFFFFFFFFFFFFFFFFFFFFFFFFFFFFFFFFFFFF AND MUL OR SWAP1 SSTORE POP ADDRESS PUSH1 0x1 PUSH0 PUSH2 0x100 EXP DUP2 SLOAD DUP2 PUSH20 0xFFFFFFFFFFFFFFFFFFFFFFFFFFFFFFFFFFFFFFFF MUL NOT AND SWAP1 DUP4 PUSH20 0xFFFFFFFFFFFFFFFFFFFFFFFFFFFFFFFFFFFFFFFF AND MUL OR SWAP1 SSTORE POP DUP1 PUSH1 0x2 SWAP1 DUP2 PUSH2 0xB3 SWAP2 SWAP1 PUSH2 0x4C9 JUMP JUMPDEST POP POP POP PUSH2 0x598 JUMP JUMPDEST PUSH0 PUSH1 0x40 MLOAD SWAP1 POP SWAP1 JUMP JUMPDEST PUSH0 DUP1 REVERT JUMPDEST PUSH0 DUP1 REVERT JUMPDEST PUSH0 PUSH20 0xFFFFFFFFFFFFFFFFFFFFFFFFFFFFFFFFFFFFFFFF DUP3 AND SWAP1 POP SWAP2 SWAP1 POP JUMP JUMPDEST PUSH0 PUSH2 0xF5 DUP3 PUSH2 0xCC JUMP JUMPDEST SWAP1 POP SWAP2 SWAP1 POP JUMP JUMPDEST PUSH2 0x105 DUP2 PUSH2 0xEB JUMP JUMPDEST DUP2 EQ PUSH2 0x10F JUMPI PUSH0 DUP1 REVERT JUMPDEST POP JUMP JUMPDEST PUSH0 DUP2 MLOAD SWAP1 POP PUSH2 0x120 DUP2 PUSH2 0xFC JUMP JUMPDEST SWAP3 SWAP2 POP POP JUMP JUMPDEST PUSH0 DUP1 REVERT JUMPDEST PUSH0 DUP1 REVERT JUMPDEST PUSH0 PUSH1 0x1F NOT PUSH1 0x1F DUP4 ADD AND SWAP1 POP SWAP2 SWAP1 POP JUMP JUMPDEST PUSH32 0x4E487B7100000000000000000000000000000000000000000000000000000000 PUSH0 MSTORE PUSH1 0x41 PUSH1 0x4 MSTORE PUSH1 0x24 PUSH0 REVERT JUMPDEST PUSH2 0x174 DUP3 PUSH2 0x12E JUMP JUMPDEST DUP2 ADD DUP2 DUP2 LT PUSH8 0xFFFFFFFFFFFFFFFF DUP3 GT OR ISZERO PUSH2 0x193 JUMPI PUSH2 0x192 PUSH2 0x13E JUMP JUMPDEST JUMPDEST DUP1 PUSH1 0x40 MSTORE POP POP POP JUMP JUMPDEST PUSH0 PUSH2 0x1A5 PUSH2 0xBB JUMP JUMPDEST SWAP1 POP PUSH2 0x1B1 DUP3 DUP3 PUSH2 0x16B JUMP JUMPDEST SWAP2 SWAP1 POP JUMP JUMPDEST PUSH0 PUSH8 0xFFFFFFFFFFFFFFFF DUP3 GT ISZERO PUSH2 0x1D0 JUMPI PUSH2 0x1CF PUSH2 0x13E JUMP JUMPDEST JUMPDEST PUSH2 0x1D9 DUP3 PUSH2 0x12E JUMP JUMPDEST SWAP1 POP PUSH1 0x20 DUP2 ADD SWAP1 POP SWAP2 SWAP1 POP JUMP JUMPDEST DUP3 DUP2 DUP4 MCOPY PUSH0 DUP4 DUP4 ADD MSTORE POP POP POP JUMP JUMPDEST PUSH0 PUSH2 0x206 PUSH2 0x201 DUP5 PUSH2 0x1B6 JUMP JUMPDEST PUSH2 0x19C JUMP JUMPDEST SWAP1 POP DUP3 DUP2 MSTORE PUSH1 0x20 DUP2 ADD DUP5 DUP5 DUP5 ADD GT ISZERO PUSH2 0x222 JUMPI PUSH2 0x221 PUSH2 0x12A JUMP JUMPDEST JUMPDEST PUSH2 0x22D DUP5 DUP3 DUP6 PUSH2 0x1E6 JUMP JUMPDEST POP SWAP4 SWAP3 POP POP POP JUMP JUMPDEST PUSH0 DUP3 PUSH1 0x1F DUP4 ADD SLT PUSH2 0x249 JUMPI PUSH2 0x248 PUSH2 0x126 JUMP JUMPDEST JUMPDEST DUP2 MLOAD PUSH2 0x259 DUP5 DUP3 PUSH1 0x20 DUP7 ADD PUSH2 0x1F4 JUMP JUMPDEST SWAP2 POP POP SWAP3 SWAP2 POP POP JUMP JUMPDEST PUSH0 DUP1 PUSH1 0x40 DUP4 DUP6 SUB SLT ISZERO PUSH2 0x278 JUMPI PUSH2 0x277 PUSH2 0xC4 JUMP JUMPDEST JUMPDEST PUSH0 PUSH2 0x285 DUP6 DUP3 DUP7 ADD PUSH2 0x112 JUMP JUMPDEST SWAP3 POP POP PUSH1 0x20 DUP4 ADD MLOAD PUSH8 0xFFFFFFFFFFFFFFFF DUP2 GT ISZERO PUSH2 0x2A6 JUMPI PUSH2 0x2A5 PUSH2 0xC8 JUMP JUMPDEST JUMPDEST PUSH2 0x2B2 DUP6 DUP3 DUP7 ADD PUSH2 0x235 JUMP JUMPDEST SWAP2 POP POP SWAP3 POP SWAP3 SWAP1 POP JUMP JUMPDEST PUSH0 DUP2 MLOAD SWAP1 POP SWAP2 SWAP1 POP JUMP JUMPDEST PUSH32 0x4E487B7100000000000000000000000000000000000000000000000000000000 PUSH0 MSTORE PUSH1 0x22 PUSH1 0x4 MSTORE PUSH1 0x24 PUSH0 REVERT JUMPDEST PUSH0 PUSH1 0x2 DUP3 DIV SWAP1 POP PUSH1 0x1 DUP3 AND DUP1 PUSH2 0x30A JUMPI PUSH1 0x7F DUP3 AND SWAP2 POP JUMPDEST PUSH1 0x20 DUP3 LT DUP2 SUB PUSH2 0x31D JUMPI PUSH2 0x31C PUSH2 0x2C6 JUMP JUMPDEST JUMPDEST POP SWAP2 SWAP1 POP JUMP JUMPDEST PUSH0 DUP2 SWAP1 POP DUP2 PUSH0 MSTORE PUSH1 0x20 PUSH0 KECCAK256 SWAP1 POP SWAP2 SWAP1 POP JUMP JUMPDEST PUSH0 PUSH1 0x20 PUSH1 0x1F DUP4 ADD DIV SWAP1 POP SWAP2 SWAP1 POP JUMP JUMPDEST PUSH0 DUP3 DUP3 SHL SWAP1 POP SWAP3 SWAP2 POP POP JUMP JUMPDEST PUSH0 PUSH1 0x8 DUP4 MUL PUSH2 0x37F PUSH32 0xFFFFFFFFFFFFFFFFFFFFFFFFFFFFFFFFFFFFFFFFFFFFFFFFFFFFFFFFFFFFFFFF DUP3 PUSH2 0x344 JUMP JUMPDEST PUSH2 0x389 DUP7 DUP4 PUSH2 0x344 JUMP JUMPDEST SWAP6 POP DUP1 NOT DUP5 AND SWAP4 POP DUP1 DUP7 AND DUP5 OR SWAP3 POP POP POP SWAP4 SWAP3 POP POP POP JUMP JUMPDEST PUSH0 DUP2 SWAP1 POP SWAP2 SWAP1 POP JUMP JUMPDEST PUSH0 DUP2 SWAP1 POP SWAP2 SWAP1 POP JUMP JUMPDEST PUSH0 PUSH2 0x3CD PUSH2 0x3C8 PUSH2 0x3C3 DUP5 PUSH2 0x3A1 JUMP JUMPDEST PUSH2 0x3AA JUMP JUMPDEST PUSH2 0x3A1 JUMP JUMPDEST SWAP1 POP SWAP2 SWAP1 POP JUMP JUMPDEST PUSH0 DUP2 SWAP1 POP SWAP2 SWAP1 POP JUMP JUMPDEST PUSH2 0x3E6 DUP4 PUSH2 0x3B3 JUMP JUMPDEST PUSH2 0x3FA PUSH2 0x3F2 DUP3 PUSH2 0x3D4 JUMP JUMPDEST DUP5 DUP5 SLOAD PUSH2 0x350 JUMP JUMPDEST DUP3 SSTORE POP POP POP POP JUMP JUMPDEST PUSH0 SWAP1 JUMP JUMPDEST PUSH2 0x40E PUSH2 0x402 JUMP JUMPDEST PUSH2 0x419 DUP2 DUP5 DUP5 PUSH2 0x3DD JUMP JUMPDEST POP POP POP JUMP JUMPDEST JUMPDEST DUP2 DUP2 LT ISZERO PUSH2 0x43C JUMPI PUSH2 0x431 PUSH0 DUP3 PUSH2 0x406 JUMP JUMPDEST PUSH1 0x1 DUP2 ADD SWAP1 POP PUSH2 0x41F JUMP JUMPDEST POP POP JUMP JUMPDEST PUSH1 0x1F DUP3 GT ISZERO PUSH2 0x481 JUMPI PUSH2 0x452 DUP2 PUSH2 0x323 JUMP JUMPDEST PUSH2 0x45B DUP5 PUSH2 0x335 JUMP JUMPDEST DUP2 ADD PUSH1 0x20 DUP6 LT ISZERO PUSH2 0x46A JUMPI DUP2 SWAP1 POP JUMPDEST PUSH2 0x47E PUSH2 0x476 DUP6 PUSH2 0x335 JUMP JUMPDEST DUP4 ADD DUP3 PUSH2 0x41E JUMP JUMPDEST POP POP JUMPDEST POP POP POP JUMP JUMPDEST PUSH0 DUP3 DUP3 SHR SWAP1 POP SWAP3 SWAP2 POP POP JUMP JUMPDEST PUSH0 PUSH2 0x4A1 PUSH0 NOT DUP5 PUSH1 0x8 MUL PUSH2 0x486 JUMP JUMPDEST NOT DUP1 DUP4 AND SWAP2 POP POP SWAP3 SWAP2 POP POP JUMP JUMPDEST PUSH0 PUSH2 0x4B9 DUP4 DUP4 PUSH2 0x492 JUMP JUMPDEST SWAP2 POP DUP3 PUSH1 0x2 MUL DUP3 OR SWAP1 POP SWAP3 SWAP2 POP POP JUMP JUMPDEST PUSH2 0x4D2 DUP3 PUSH2 0x2BC JUMP JUMPDEST PUSH8 0xFFFFFFFFFFFFFFFF DUP2 GT ISZERO PUSH2 0x4EB JUMPI PUSH2 0x4EA PUSH2 0x13E JUMP JUMPDEST JUMPDEST PUSH2 0x4F5 DUP3 SLOAD PUSH2 0x2F3 JUMP JUMPDEST PUSH2 0x500 DUP3 DUP3 DUP6 PUSH2 0x440 JUMP JUMPDEST PUSH0 PUSH1 0x20 SWAP1 POP PUSH1 0x1F DUP4 GT PUSH1 0x1 DUP2 EQ PUSH2 0x531 JUMPI PUSH0 DUP5 ISZERO PUSH2 0x51F JUMPI DUP3 DUP8 ADD MLOAD SWAP1 POP JUMPDEST PUSH2 0x529 DUP6 DUP3 PUSH2 0x4AE JUMP JUMPDEST DUP7 SSTORE POP PUSH2 0x590 JUMP JUMPDEST PUSH1 0x1F NOT DUP5 AND PUSH2 0x53F DUP7 PUSH2 0x323 JUMP JUMPDEST PUSH0 JUMPDEST DUP3 DUP2 LT ISZERO PUSH2 0x566 JUMPI DUP5 DUP10 ADD MLOAD DUP3 SSTORE PUSH1 0x1 DUP3 ADD SWAP2 POP PUSH1 0x20 DUP6 ADD SWAP5 POP PUSH1 0x20 DUP2 ADD SWAP1 POP PUSH2 0x541 JUMP JUMPDEST DUP7 DUP4 LT ISZERO PUSH2 0x583 JUMPI DUP5 DUP10 ADD MLOAD PUSH2 0x57F PUSH1 0x1F DUP10 AND DUP3 PUSH2 0x492 JUMP JUMPDEST DUP4 SSTORE POP JUMPDEST PUSH1 0x1 PUSH1 0x2 DUP9 MUL ADD DUP9 SSTORE POP POP POP JUMPDEST POP POP POP POP POP POP JUMP JUMPDEST PUSH2 0x2EC DUP1 PUSH2 0x5A5 PUSH0 CODECOPY PUSH0 RETURN INVALID PUSH1 0x80 PUSH1 0x40 MSTORE CALLVALUE DUP1 ISZERO PUSH2 0xF JUMPI PUSH0 DUP1 REVERT JUMPDEST POP PUSH1 0x4 CALLDATASIZE LT PUSH2 0x3F JUMPI PUSH0 CALLDATALOAD PUSH1 0xE0 SHR DUP1 PUSH4 0x8DA5CB5B EQ PUSH2 0x43 JUMPI DUP1 PUSH4 0x909C0087 EQ PUSH2 0x61 JUMPI DUP1 PUSH4 0xFD0160FE EQ PUSH2 0x7F JUMPI JUMPDEST PUSH0 DUP1 REVERT JUMPDEST PUSH2 0x4B PUSH2 0x9D JUMP JUMPDEST PUSH1 0x40 MLOAD PUSH2 0x58 SWAP2 SWAP1 PUSH2 0x1B0 JUMP JUMPDEST PUSH1 0x40 MLOAD DUP1 SWAP2 SUB SWAP1 RETURN JUMPDEST PUSH2 0x69 PUSH2 0xC0 JUMP JUMPDEST PUSH1 0x40 MLOAD PUSH2 0x76 SWAP2 SWAP1 PUSH2 0x1B0 JUMP JUMPDEST PUSH1 0x40 MLOAD DUP1 SWAP2 SUB SWAP1 RETURN JUMPDEST PUSH2 0x87 PUSH2 0xE5 JUMP JUMPDEST PUSH1 0x40 MLOAD PUSH2 0x94 SWAP2 SWAP1 PUSH2 0x239 JUMP JUMPDEST PUSH1 0x40 MLOAD DUP1 SWAP2 SUB SWAP1 RETURN JUMPDEST PUSH0 DUP1 SLOAD SWAP1 PUSH2 0x100 EXP SWAP1 DIV PUSH20 0xFFFFFFFFFFFFFFFFFFFFFFFFFFFFFFFFFFFFFFFF AND DUP2 JUMP JUMPDEST PUSH1 0x1 PUSH0 SWAP1 SLOAD SWAP1 PUSH2 0x100 EXP SWAP1 DIV PUSH20 0xFFFFFFFFFFFFFFFFFFFFFFFFFFFFFFFFFFFFFFFF AND DUP2 JUMP JUMPDEST PUSH1 0x2 DUP1 SLOAD PUSH2 0xF2 SWAP1 PUSH2 0x286 JUMP JUMPDEST DUP1 PUSH1 0x1F ADD PUSH1 0x20 DUP1 SWAP2 DIV MUL PUSH1 0x20 ADD PUSH1 0x40 MLOAD SWAP1 DUP2 ADD PUSH1 0x40 MSTORE DUP1 SWAP3 SWAP2 SWAP1 DUP2 DUP2 MSTORE PUSH1 0x20 ADD DUP3 DUP1 SLOAD PUSH2 0x11E SWAP1 PUSH2 0x286 JUMP JUMPDEST DUP1 ISZERO PUSH2 0x169 JUMPI DUP1 PUSH1 0x1F LT PUSH2 0x140 JUMPI PUSH2 0x100 DUP1 DUP4 SLOAD DIV MUL DUP4 MSTORE SWAP2 PUSH1 0x20 ADD SWAP2 PUSH2 0x169 JUMP JUMPDEST DUP3 ADD SWAP2 SWAP1 PUSH0 MSTORE PUSH1 0x20 PUSH0 KECCAK256 SWAP1 JUMPDEST DUP2 SLOAD DUP2 MSTORE SWAP1 PUSH1 0x1 ADD SWAP1 PUSH1 0x20 ADD DUP1 DUP4 GT PUSH2 0x14C JUMPI DUP3 SWAP1 SUB PUSH1 0x1F AND DUP3 ADD SWAP2 JUMPDEST POP POP POP POP POP DUP2 JUMP JUMPDEST PUSH0 PUSH20 0xFFFFFFFFFFFFFFFFFFFFFFFFFFFFFFFFFFFFFFFF DUP3 AND SWAP1 POP SWAP2 SWAP1 POP JUMP JUMPDEST PUSH0 PUSH2 0x19A DUP3 PUSH2 0x171 JUMP JUMPDEST SWAP1 POP SWAP2 SWAP1 POP JUMP JUMPDEST PUSH2 0x1AA DUP2 PUSH2 0x190 JUMP JUMPDEST DUP3 MSTORE POP POP JUMP JUMPDEST PUSH0 PUSH1 0x20 DUP3 ADD SWAP1 POP PUSH2 0x1C3 PUSH0 DUP4 ADD DUP5 PUSH2 0x1A1 JUMP JUMPDEST SWAP3 SWAP2 POP POP JUMP JUMPDEST PUSH0 DUP2 MLOAD SWAP1 POP SWAP2 SWAP1 POP JUMP JUMPDEST PUSH0 DUP3 DUP3 MSTORE PUSH1 0x20 DUP3 ADD SWAP1 POP SWAP3 SWAP2 POP POP JUMP JUMPDEST DUP3 DUP2 DUP4 MCOPY PUSH0 DUP4 DUP4 ADD MSTORE POP POP POP JUMP JUMPDEST PUSH0 PUSH1 0x1F NOT PUSH1 0x1F DUP4 ADD AND SWAP1 POP SWAP2 SWAP1 POP JUMP JUMPDEST PUSH0 PUSH2 0x20B DUP3 PUSH2 0x1C9 JUMP JUMPDEST PUSH2 0x215 DUP2 DUP6 PUSH2 0x1D3 JUMP JUMPDEST SWAP4 POP PUSH2 0x225 DUP2 DUP6 PUSH1 0x20 DUP7 ADD PUSH2 0x1E3 JUMP JUMPDEST PUSH2 0x22E DUP2 PUSH2 0x1F1 JUMP JUMPDEST DUP5 ADD SWAP2 POP POP SWAP3 SWAP2 POP POP JUMP JUMPDEST PUSH0 PUSH1 0x20 DUP3 ADD SWAP1 POP DUP2 DUP2 SUB PUSH0 DUP4 ADD MSTORE PUSH2 0x251 DUP2 DUP5 PUSH2 0x201 JUMP JUMPDEST SWAP1 POP SWAP3 SWAP2 POP POP JUMP JUMPDEST PUSH32 0x4E487B7100000000000000000000000000000000000000000000000000000000 PUSH0 MSTORE PUSH1 0x22 PUSH1 0x4 MSTORE PUSH1 0x24 PUSH0 REVERT JUMPDEST PUSH0 PUSH1 0x2 DUP3 DIV SWAP1 POP PUSH1 0x1 DUP3 AND DUP1 PUSH2 0x29D JUMPI PUSH1 0x7F DUP3 AND SWAP2 POP JUMPDEST PUSH1 0x20 DUP3 LT DUP2 SUB PUSH2 0x2B0 JUMPI PUSH2 0x2AF PUSH2 0x259 JUMP JUMPDEST JUMPDEST POP SWAP2 SWAP1 POP JUMP INVALID LOG2 PUSH5 0x6970667358 0x22 SLT KECCAK256 PUSH25 0xEAFD7F7EC0341B975179623F1C8108F6FBE574696C081BDD34 DUP4 0xBB SLOAD BLOCKHASH SWAP6 0xF9 PUSH5 0x736F6C6343 STOP ADDMOD BYTE STOP CALLER LOG2 PUSH5 0x6970667358 0x22 SLT KECCAK256 0xA6 0xED PUSH0 0x2C SUB BLOCKHASH DUP15 SAR SWAP5 0xDF 0xD6 SDIV CREATE2 0xB9 PUSH10 0xFD5A59E95702BBED9B0B 0xBC 0xE8 GAS 0x21 PUSH2 0xE581 PUSH5 0x736F6C6343 STOP ADDMOD BYTE STOP CALLER "
				},
				"gasEstimates": {
					"creation": {
						"codeDepositCost": "916200",
						"executionCost": "953",
						"totalCost": "917153"
					},
					"external": {
						"cities(uint256)": "infinite",
						"create(address,string)": "infinite",
						"createAndSendEther(address,string)": "infinite",
						"getCities(uint256)": "infinite"
					}
				},
				"methodIdentifiers": {
					"cities(uint256)": "6a51b918",
					"create(address,string)": "a15ab08d",
					"createAndSendEther(address,string)": "c33cd615",
					"getCities(uint256)": "7fe4faf8"
				}
			},
			"storageLayout": {
				"storage": [
					{
						"astId": 35,
						"contract": "Learning Pth/CreateContractFromContractEX.sol:CityCreation",
						"label": "cities",
						"offset": 0,
						"slot": "0",
						"type": "t_array(t_contract(Creator)31)dyn_storage"
					}
				],
				"types": {
					"t_array(t_contract(Creator)31)dyn_storage": {
						"base": "t_contract(Creator)31",
						"encoding": "dynamic_array",
						"label": "contract Creator[]",
						"numberOfBytes": "32"
					},
					"t_contract(Creator)31": {
						"encoding": "inplace",
						"label": "contract Creator",
						"numberOfBytes": "20"
					}
				}
			},
			"userdoc": {
				"kind": "user",
				"methods": {},
				"version": 1
			}
		}
	}
}