{
	"Learning Pth/Project_Real_Estate.sol": {
		"RealEstate": {
			"abi": [
				{
					"anonymous": false,
					"inputs": [
						{
							"indexed": false,
							"internalType": "uint256",
							"name": "propertyId",
							"type": "uint256"
						}
					],
					"name": "PropertySold",
					"type": "event"
				},
				{
					"inputs": [
						{
							"internalType": "uint256",
							"name": "_propertyId",
							"type": "uint256"
						}
					],
					"name": "buyProperty",
					"outputs": [],
					"stateMutability": "payable",
					"type": "function"
				},
				{
					"inputs": [
						{
							"internalType": "uint256",
							"name": "_propertyId",
							"type": "uint256"
						},
						{
							"internalType": "uint256",
							"name": "_price",
							"type": "uint256"
						},
						{
							"internalType": "string",
							"name": "_name",
							"type": "string"
						},
						{
							"internalType": "string",
							"name": "_description",
							"type": "string"
						},
						{
							"internalType": "string",
							"name": "_location",
							"type": "string"
						}
					],
					"name": "listPropertyForSale",
					"outputs": [],
					"stateMutability": "nonpayable",
					"type": "function"
				},
				{
					"inputs": [
						{
							"internalType": "uint256",
							"name": "",
							"type": "uint256"
						}
					],
					"name": "properties",
					"outputs": [
						{
							"internalType": "uint256",
							"name": "price",
							"type": "uint256"
						},
						{
							"internalType": "address",
							"name": "owner",
							"type": "address"
						},
						{
							"internalType": "bool",
							"name": "forSale",
							"type": "bool"
						},
						{
							"internalType": "string",
							"name": "name",
							"type": "string"
						},
						{
							"internalType": "string",
							"name": "description",
							"type": "string"
						},
						{
							"internalType": "string",
							"name": "location",
							"type": "string"
						}
					],
					"stateMutability": "view",
					"type": "function"
				},
				{
					"inputs": [
						{
							"internalType": "uint256",
							"name": "",
							"type": "uint256"
						}
					],
					"name": "propertyIds",
					"outputs": [
						{
							"internalType": "uint256",
							"name": "",
							"type": "uint256"
						}
					],
					"stateMutability": "view",
					"type": "function"
				}
			],
			"devdoc": {
				"kind": "dev",
				"methods": {},
				"version": 1
			},
			"evm": {
				"assembly": "    /* \"Learning Pth/Project_Real_Estate.sol\":61:1363  contract RealEstate {... */\n  mstore(0x40, 0x80)\n  callvalue\n  dup1\n  iszero\n  tag_1\n  jumpi\n  0x00\n  dup1\n  revert\ntag_1:\n  pop\n  dataSize(sub_0)\n  dup1\n  dataOffset(sub_0)\n  0x00\n  codecopy\n  0x00\n  return\nstop\n\nsub_0: assembly {\n        /* \"Learning Pth/Project_Real_Estate.sol\":61:1363  contract RealEstate {... */\n      mstore(0x40, 0x80)\n      jumpi(tag_1, lt(calldatasize, 0x04))\n      shr(0xe0, calldataload(0x00))\n      dup1\n      0x611cf614\n      eq\n      tag_2\n      jumpi\n      dup1\n      0x6fa830a6\n      eq\n      tag_3\n      jumpi\n      dup1\n      0xd03b47f4\n      eq\n      tag_4\n      jumpi\n      dup1\n      0xf7b10808\n      eq\n      tag_5\n      jumpi\n    tag_1:\n      0x00\n      dup1\n      revert\n        /* \"Learning Pth/Project_Real_Estate.sol\":410:911  function listPropertyForSale(uint256 _propertyId, uint256 _price, string memory _name, string memory _description, ... */\n    tag_2:\n      callvalue\n      dup1\n      iszero\n      tag_6\n      jumpi\n      0x00\n      dup1\n      revert\n    tag_6:\n      pop\n      tag_7\n      0x04\n      dup1\n      calldatasize\n      sub\n      dup2\n      add\n      swap1\n      tag_8\n      swap2\n      swap1\n      tag_9\n      jump\t// in\n    tag_8:\n      tag_10\n      jump\t// in\n    tag_7:\n      stop\n        /* \"Learning Pth/Project_Real_Estate.sol\":919:1360  function buyProperty(uint256 _propertyId) public payable {... */\n    tag_3:\n      tag_11\n      0x04\n      dup1\n      calldatasize\n      sub\n      dup2\n      add\n      swap1\n      tag_12\n      swap2\n      swap1\n      tag_13\n      jump\t// in\n    tag_12:\n      tag_14\n      jump\t// in\n    tag_11:\n      stop\n        /* \"Learning Pth/Project_Real_Estate.sol\":326:354  uint256[] public propertyIds */\n    tag_4:\n      callvalue\n      dup1\n      iszero\n      tag_15\n      jumpi\n      0x00\n      dup1\n      revert\n    tag_15:\n      pop\n      tag_16\n      0x04\n      dup1\n      calldatasize\n      sub\n      dup2\n      add\n      swap1\n      tag_17\n      swap2\n      swap1\n      tag_13\n      jump\t// in\n    tag_17:\n      tag_18\n      jump\t// in\n    tag_16:\n      mload(0x40)\n      tag_19\n      swap2\n      swap1\n      tag_20\n      jump\t// in\n    tag_19:\n      mload(0x40)\n      dup1\n      swap2\n      sub\n      swap1\n      return\n        /* \"Learning Pth/Project_Real_Estate.sol\":270:317  mapping (uint256 => Property) public properties */\n    tag_5:\n      callvalue\n      dup1\n      iszero\n      tag_21\n      jumpi\n      0x00\n      dup1\n      revert\n    tag_21:\n      pop\n      tag_22\n      0x04\n      dup1\n      calldatasize\n      sub\n      dup2\n      add\n      swap1\n      tag_23\n      swap2\n      swap1\n      tag_13\n      jump\t// in\n    tag_23:\n      tag_24\n      jump\t// in\n    tag_22:\n      mload(0x40)\n      tag_25\n      swap7\n      swap6\n      swap5\n      swap4\n      swap3\n      swap2\n      swap1\n      tag_26\n      jump\t// in\n    tag_25:\n      mload(0x40)\n      dup1\n      swap2\n      sub\n      swap1\n      return\n        /* \"Learning Pth/Project_Real_Estate.sol\":410:911  function listPropertyForSale(uint256 _propertyId, uint256 _price, string memory _name, string memory _description, ... */\n    tag_10:\n        /* \"Learning Pth/Project_Real_Estate.sol\":574:601  Property memory newProperty */\n      0x00\n        /* \"Learning Pth/Project_Real_Estate.sol\":604:813  Property({... */\n      mload(0x40)\n      dup1\n      0xc0\n      add\n      0x40\n      mstore\n      dup1\n        /* \"Learning Pth/Project_Real_Estate.sol\":635:641  _price */\n      dup7\n        /* \"Learning Pth/Project_Real_Estate.sol\":604:813  Property({... */\n      dup2\n      mstore\n      0x20\n      add\n        /* \"Learning Pth/Project_Real_Estate.sol\":663:673  msg.sender */\n      caller\n        /* \"Learning Pth/Project_Real_Estate.sol\":604:813  Property({... */\n      0xffffffffffffffffffffffffffffffffffffffff\n      and\n      dup2\n      mstore\n      0x20\n      add\n        /* \"Learning Pth/Project_Real_Estate.sol\":697:701  true */\n      0x01\n        /* \"Learning Pth/Project_Real_Estate.sol\":604:813  Property({... */\n      iszero\n      iszero\n      dup2\n      mstore\n      0x20\n      add\n        /* \"Learning Pth/Project_Real_Estate.sol\":722:727  _name */\n      dup6\n        /* \"Learning Pth/Project_Real_Estate.sol\":604:813  Property({... */\n      dup2\n      mstore\n      0x20\n      add\n        /* \"Learning Pth/Project_Real_Estate.sol\":755:767  _description */\n      dup5\n        /* \"Learning Pth/Project_Real_Estate.sol\":604:813  Property({... */\n      dup2\n      mstore\n      0x20\n      add\n        /* \"Learning Pth/Project_Real_Estate.sol\":792:801  _location */\n      dup4\n        /* \"Learning Pth/Project_Real_Estate.sol\":604:813  Property({... */\n      dup2\n      mstore\n      pop\n        /* \"Learning Pth/Project_Real_Estate.sol\":574:813  Property memory newProperty = Property({... */\n      swap1\n      pop\n        /* \"Learning Pth/Project_Real_Estate.sol\":852:863  newProperty */\n      dup1\n        /* \"Learning Pth/Project_Real_Estate.sol\":826:836  properties */\n      0x00\n        /* \"Learning Pth/Project_Real_Estate.sol\":826:849  properties[_propertyId] */\n      dup1\n        /* \"Learning Pth/Project_Real_Estate.sol\":837:848  _propertyId */\n      dup9\n        /* \"Learning Pth/Project_Real_Estate.sol\":826:849  properties[_propertyId] */\n      dup2\n      mstore\n      0x20\n      add\n      swap1\n      dup2\n      mstore\n      0x20\n      add\n      0x00\n      keccak256\n        /* \"Learning Pth/Project_Real_Estate.sol\":826:863  properties[_propertyId] = newProperty */\n      0x00\n      dup3\n      add\n      mload\n      dup2\n      0x00\n      add\n      sstore\n      0x20\n      dup3\n      add\n      mload\n      dup2\n      0x01\n      add\n      exp(0x0100, 0x00)\n      dup2\n      sload\n      dup2\n      0xffffffffffffffffffffffffffffffffffffffff\n      mul\n      not\n      and\n      swap1\n      dup4\n      0xffffffffffffffffffffffffffffffffffffffff\n      and\n      mul\n      or\n      swap1\n      sstore\n      pop\n      0x40\n      dup3\n      add\n      mload\n      dup2\n      0x01\n      add\n      exp(0x0100, 0x14)\n      dup2\n      sload\n      dup2\n      0xff\n      mul\n      not\n      and\n      swap1\n      dup4\n      iszero\n      iszero\n      mul\n      or\n      swap1\n      sstore\n      pop\n      0x60\n      dup3\n      add\n      mload\n      dup2\n      0x02\n      add\n      swap1\n      dup2\n      tag_28\n      swap2\n      swap1\n      tag_29\n      jump\t// in\n    tag_28:\n      pop\n      0x80\n      dup3\n      add\n      mload\n      dup2\n      0x03\n      add\n      swap1\n      dup2\n      tag_30\n      swap2\n      swap1\n      tag_29\n      jump\t// in\n    tag_30:\n      pop\n      0xa0\n      dup3\n      add\n      mload\n      dup2\n      0x04\n      add\n      swap1\n      dup2\n      tag_31\n      swap2\n      swap1\n      tag_29\n      jump\t// in\n    tag_31:\n      pop\n      swap1\n      pop\n      pop\n        /* \"Learning Pth/Project_Real_Estate.sol\":874:885  propertyIds */\n      0x01\n        /* \"Learning Pth/Project_Real_Estate.sol\":891:902  _propertyId */\n      dup7\n        /* \"Learning Pth/Project_Real_Estate.sol\":874:903  propertyIds.push(_propertyId) */\n      swap1\n      dup1\n      0x01\n      dup2\n      sload\n      add\n      dup1\n      dup3\n      sstore\n      dup1\n      swap2\n      pop\n      pop\n      0x01\n      swap1\n      sub\n      swap1\n      0x00\n      mstore\n      keccak256(0x00, 0x20)\n      add\n      0x00\n      swap1\n      swap2\n      swap1\n      swap2\n      swap1\n      swap2\n      pop\n      sstore\n        /* \"Learning Pth/Project_Real_Estate.sol\":563:911  {... */\n      pop\n        /* \"Learning Pth/Project_Real_Estate.sol\":410:911  function listPropertyForSale(uint256 _propertyId, uint256 _price, string memory _name, string memory _description, ... */\n      pop\n      pop\n      pop\n      pop\n      pop\n      jump\t// out\n        /* \"Learning Pth/Project_Real_Estate.sol\":919:1360  function buyProperty(uint256 _propertyId) public payable {... */\n    tag_14:\n        /* \"Learning Pth/Project_Real_Estate.sol\":987:1012  Property storage property */\n      0x00\n        /* \"Learning Pth/Project_Real_Estate.sol\":1015:1025  properties */\n      dup1\n        /* \"Learning Pth/Project_Real_Estate.sol\":1015:1038  properties[_propertyId] */\n      0x00\n        /* \"Learning Pth/Project_Real_Estate.sol\":1026:1037  _propertyId */\n      dup4\n        /* \"Learning Pth/Project_Real_Estate.sol\":1015:1038  properties[_propertyId] */\n      dup2\n      mstore\n      0x20\n      add\n      swap1\n      dup2\n      mstore\n      0x20\n      add\n      0x00\n      keccak256\n        /* \"Learning Pth/Project_Real_Estate.sol\":987:1038  Property storage property = properties[_propertyId] */\n      swap1\n      pop\n        /* \"Learning Pth/Project_Real_Estate.sol\":1059:1067  property */\n      dup1\n        /* \"Learning Pth/Project_Real_Estate.sol\":1059:1075  property.forSale */\n      0x01\n      add\n      0x14\n      swap1\n      sload\n      swap1\n      0x0100\n      exp\n      swap1\n      div\n      0xff\n      and\n        /* \"Learning Pth/Project_Real_Estate.sol\":1051:1104  require(property.forSale, \"Property is not for sale\") */\n      tag_34\n      jumpi\n      mload(0x40)\n      0x08c379a000000000000000000000000000000000000000000000000000000000\n      dup2\n      mstore\n      0x04\n      add\n      tag_35\n      swap1\n      tag_36\n      jump\t// in\n    tag_35:\n      mload(0x40)\n      dup1\n      swap2\n      sub\n      swap1\n      revert\n    tag_34:\n        /* \"Learning Pth/Project_Real_Estate.sol\":1141:1150  msg.value */\n      callvalue\n        /* \"Learning Pth/Project_Real_Estate.sol\":1123:1131  property */\n      dup2\n        /* \"Learning Pth/Project_Real_Estate.sol\":1123:1137  property.price */\n      0x00\n      add\n      sload\n        /* \"Learning Pth/Project_Real_Estate.sol\":1123:1150  property.price <= msg.value */\n      gt\n      iszero\n        /* \"Learning Pth/Project_Real_Estate.sol\":1115:1173  require(property.price <= msg.value, \"Insufficient funds\") */\n      tag_37\n      jumpi\n      mload(0x40)\n      0x08c379a000000000000000000000000000000000000000000000000000000000\n      dup2\n      mstore\n      0x04\n      add\n      tag_38\n      swap1\n      tag_39\n      jump\t// in\n    tag_38:\n      mload(0x40)\n      dup1\n      swap2\n      sub\n      swap1\n      revert\n    tag_37:\n        /* \"Learning Pth/Project_Real_Estate.sol\":1203:1213  msg.sender */\n      caller\n        /* \"Learning Pth/Project_Real_Estate.sol\":1186:1194  property */\n      dup2\n        /* \"Learning Pth/Project_Real_Estate.sol\":1186:1200  property.owner */\n      0x01\n      add\n      0x00\n        /* \"Learning Pth/Project_Real_Estate.sol\":1186:1213  property.owner = msg.sender */\n      0x0100\n      exp\n      dup2\n      sload\n      dup2\n      0xffffffffffffffffffffffffffffffffffffffff\n      mul\n      not\n      and\n      swap1\n      dup4\n      0xffffffffffffffffffffffffffffffffffffffff\n      and\n      mul\n      or\n      swap1\n      sstore\n      pop\n        /* \"Learning Pth/Project_Real_Estate.sol\":1243:1248  false */\n      0x00\n        /* \"Learning Pth/Project_Real_Estate.sol\":1224:1232  property */\n      dup2\n        /* \"Learning Pth/Project_Real_Estate.sol\":1224:1240  property.forSale */\n      0x01\n      add\n      0x14\n        /* \"Learning Pth/Project_Real_Estate.sol\":1224:1248  property.forSale = false */\n      0x0100\n      exp\n      dup2\n      sload\n      dup2\n      0xff\n      mul\n      not\n      and\n      swap1\n      dup4\n      iszero\n      iszero\n      mul\n      or\n      swap1\n      sstore\n      pop\n        /* \"Learning Pth/Project_Real_Estate.sol\":1269:1277  property */\n      dup1\n        /* \"Learning Pth/Project_Real_Estate.sol\":1269:1283  property.owner */\n      0x01\n      add\n      0x00\n      swap1\n      sload\n      swap1\n      0x0100\n      exp\n      swap1\n      div\n      0xffffffffffffffffffffffffffffffffffffffff\n      and\n        /* \"Learning Pth/Project_Real_Estate.sol\":1261:1293  payable(property.owner).transfer */\n      0xffffffffffffffffffffffffffffffffffffffff\n      and\n        /* \"Learning Pth/Project_Real_Estate.sol\":1261:1309  payable(property.owner).transfer(property.price) */\n      0x08fc\n        /* \"Learning Pth/Project_Real_Estate.sol\":1294:1302  property */\n      dup3\n        /* \"Learning Pth/Project_Real_Estate.sol\":1294:1308  property.price */\n      0x00\n      add\n      sload\n        /* \"Learning Pth/Project_Real_Estate.sol\":1261:1309  payable(property.owner).transfer(property.price) */\n      swap1\n      dup2\n      iszero\n      mul\n      swap1\n      mload(0x40)\n      0x00\n      mload(0x40)\n      dup1\n      dup4\n      sub\n      dup2\n      dup6\n      dup9\n      dup9\n      call\n      swap4\n      pop\n      pop\n      pop\n      pop\n      iszero\n      dup1\n      iszero\n      tag_41\n      jumpi\n      returndatasize\n      0x00\n      dup1\n      returndatacopy\n      revert(0x00, returndatasize)\n    tag_41:\n      pop\n        /* \"Learning Pth/Project_Real_Estate.sol\":1327:1352  PropertySold(_propertyId) */\n      0xca00b0637134f6563551ffb097ffc572f30140029b94a4a1e7ef423b475a894f\n        /* \"Learning Pth/Project_Real_Estate.sol\":1340:1351  _propertyId */\n      dup3\n        /* \"Learning Pth/Project_Real_Estate.sol\":1327:1352  PropertySold(_propertyId) */\n      mload(0x40)\n      tag_42\n      swap2\n      swap1\n      tag_20\n      jump\t// in\n    tag_42:\n      mload(0x40)\n      dup1\n      swap2\n      sub\n      swap1\n      log1\n        /* \"Learning Pth/Project_Real_Estate.sol\":976:1360  {... */\n      pop\n        /* \"Learning Pth/Project_Real_Estate.sol\":919:1360  function buyProperty(uint256 _propertyId) public payable {... */\n      pop\n      jump\t// out\n        /* \"Learning Pth/Project_Real_Estate.sol\":326:354  uint256[] public propertyIds */\n    tag_18:\n      0x01\n      dup2\n      dup2\n      sload\n      dup2\n      lt\n      tag_43\n      jumpi\n      0x00\n      dup1\n      revert\n    tag_43:\n      swap1\n      0x00\n      mstore\n      keccak256(0x00, 0x20)\n      add\n      0x00\n      swap2\n      pop\n      swap1\n      pop\n      sload\n      dup2\n      jump\t// out\n        /* \"Learning Pth/Project_Real_Estate.sol\":270:317  mapping (uint256 => Property) public properties */\n    tag_24:\n      mstore(0x20, 0x00)\n      dup1\n      0x00\n      mstore\n      keccak256(0x00, 0x40)\n      0x00\n      swap2\n      pop\n      swap1\n      pop\n      dup1\n      0x00\n      add\n      sload\n      swap1\n      dup1\n      0x01\n      add\n      0x00\n      swap1\n      sload\n      swap1\n      0x0100\n      exp\n      swap1\n      div\n      0xffffffffffffffffffffffffffffffffffffffff\n      and\n      swap1\n      dup1\n      0x01\n      add\n      0x14\n      swap1\n      sload\n      swap1\n      0x0100\n      exp\n      swap1\n      div\n      0xff\n      and\n      swap1\n      dup1\n      0x02\n      add\n      dup1\n      sload\n      tag_45\n      swap1\n      tag_46\n      jump\t// in\n    tag_45:\n      dup1\n      0x1f\n      add\n      0x20\n      dup1\n      swap2\n      div\n      mul\n      0x20\n      add\n      mload(0x40)\n      swap1\n      dup2\n      add\n      0x40\n      mstore\n      dup1\n      swap3\n      swap2\n      swap1\n      dup2\n      dup2\n      mstore\n      0x20\n      add\n      dup3\n      dup1\n      sload\n      tag_47\n      swap1\n      tag_46\n      jump\t// in\n    tag_47:\n      dup1\n      iszero\n      tag_48\n      jumpi\n      dup1\n      0x1f\n      lt\n      tag_49\n      jumpi\n      0x0100\n      dup1\n      dup4\n      sload\n      div\n      mul\n      dup4\n      mstore\n      swap2\n      0x20\n      add\n      swap2\n      jump(tag_48)\n    tag_49:\n      dup3\n      add\n      swap2\n      swap1\n      0x00\n      mstore\n      keccak256(0x00, 0x20)\n      swap1\n    tag_50:\n      dup2\n      sload\n      dup2\n      mstore\n      swap1\n      0x01\n      add\n      swap1\n      0x20\n      add\n      dup1\n      dup4\n      gt\n      tag_50\n      jumpi\n      dup3\n      swap1\n      sub\n      0x1f\n      and\n      dup3\n      add\n      swap2\n    tag_48:\n      pop\n      pop\n      pop\n      pop\n      pop\n      swap1\n      dup1\n      0x03\n      add\n      dup1\n      sload\n      tag_51\n      swap1\n      tag_46\n      jump\t// in\n    tag_51:\n      dup1\n      0x1f\n      add\n      0x20\n      dup1\n      swap2\n      div\n      mul\n      0x20\n      add\n      mload(0x40)\n      swap1\n      dup2\n      add\n      0x40\n      mstore\n      dup1\n      swap3\n      swap2\n      swap1\n      dup2\n      dup2\n      mstore\n      0x20\n      add\n      dup3\n      dup1\n      sload\n      tag_52\n      swap1\n      tag_46\n      jump\t// in\n    tag_52:\n      dup1\n      iszero\n      tag_53\n      jumpi\n      dup1\n      0x1f\n      lt\n      tag_54\n      jumpi\n      0x0100\n      dup1\n      dup4\n      sload\n      div\n      mul\n      dup4\n      mstore\n      swap2\n      0x20\n      add\n      swap2\n      jump(tag_53)\n    tag_54:\n      dup3\n      add\n      swap2\n      swap1\n      0x00\n      mstore\n      keccak256(0x00, 0x20)\n      swap1\n    tag_55:\n      dup2\n      sload\n      dup2\n      mstore\n      swap1\n      0x01\n      add\n      swap1\n      0x20\n      add\n      dup1\n      dup4\n      gt\n      tag_55\n      jumpi\n      dup3\n      swap1\n      sub\n      0x1f\n      and\n      dup3\n      add\n      swap2\n    tag_53:\n      pop\n      pop\n      pop\n      pop\n      pop\n      swap1\n      dup1\n      0x04\n      add\n      dup1\n      sload\n      tag_56\n      swap1\n      tag_46\n      jump\t// in\n    tag_56:\n      dup1\n      0x1f\n      add\n      0x20\n      dup1\n      swap2\n      div\n      mul\n      0x20\n      add\n      mload(0x40)\n      swap1\n      dup2\n      add\n      0x40\n      mstore\n      dup1\n      swap3\n      swap2\n      swap1\n      dup2\n      dup2\n      mstore\n      0x20\n      add\n      dup3\n      dup1\n      sload\n      tag_57\n      swap1\n      tag_46\n      jump\t// in\n    tag_57:\n      dup1\n      iszero\n      tag_58\n      jumpi\n      dup1\n      0x1f\n      lt\n      tag_59\n      jumpi\n      0x0100\n      dup1\n      dup4\n      sload\n      div\n      mul\n      dup4\n      mstore\n      swap2\n      0x20\n      add\n      swap2\n      jump(tag_58)\n    tag_59:\n      dup3\n      add\n      swap2\n      swap1\n      0x00\n      mstore\n      keccak256(0x00, 0x20)\n      swap1\n    tag_60:\n      dup2\n      sload\n      dup2\n      mstore\n      swap1\n      0x01\n      add\n      swap1\n      0x20\n      add\n      dup1\n      dup4\n      gt\n      tag_60\n      jumpi\n      dup3\n      swap1\n      sub\n      0x1f\n      and\n      dup3\n      add\n      swap2\n    tag_58:\n      pop\n      pop\n      pop\n      pop\n      pop\n      swap1\n      pop\n      dup7\n      jump\t// out\n        /* \"#utility.yul\":7:82   */\n    tag_61:\n        /* \"#utility.yul\":40:46   */\n      0x00\n        /* \"#utility.yul\":73:75   */\n      0x40\n        /* \"#utility.yul\":67:76   */\n      mload\n        /* \"#utility.yul\":57:76   */\n      swap1\n      pop\n        /* \"#utility.yul\":7:82   */\n      swap1\n      jump\t// out\n        /* \"#utility.yul\":88:205   */\n    tag_62:\n        /* \"#utility.yul\":197:198   */\n      0x00\n        /* \"#utility.yul\":194:195   */\n      dup1\n        /* \"#utility.yul\":187:199   */\n      revert\n        /* \"#utility.yul\":211:328   */\n    tag_63:\n        /* \"#utility.yul\":320:321   */\n      0x00\n        /* \"#utility.yul\":317:318   */\n      dup1\n        /* \"#utility.yul\":310:322   */\n      revert\n        /* \"#utility.yul\":334:411   */\n    tag_64:\n        /* \"#utility.yul\":371:378   */\n      0x00\n        /* \"#utility.yul\":400:405   */\n      dup2\n        /* \"#utility.yul\":389:405   */\n      swap1\n      pop\n        /* \"#utility.yul\":334:411   */\n      swap2\n      swap1\n      pop\n      jump\t// out\n        /* \"#utility.yul\":417:539   */\n    tag_65:\n        /* \"#utility.yul\":490:514   */\n      tag_113\n        /* \"#utility.yul\":508:513   */\n      dup2\n        /* \"#utility.yul\":490:514   */\n      tag_64\n      jump\t// in\n    tag_113:\n        /* \"#utility.yul\":483:488   */\n      dup2\n        /* \"#utility.yul\":480:515   */\n      eq\n        /* \"#utility.yul\":470:533   */\n      tag_114\n      jumpi\n        /* \"#utility.yul\":529:530   */\n      0x00\n        /* \"#utility.yul\":526:527   */\n      dup1\n        /* \"#utility.yul\":519:531   */\n      revert\n        /* \"#utility.yul\":470:533   */\n    tag_114:\n        /* \"#utility.yul\":417:539   */\n      pop\n      jump\t// out\n        /* \"#utility.yul\":545:684   */\n    tag_66:\n        /* \"#utility.yul\":591:596   */\n      0x00\n        /* \"#utility.yul\":629:635   */\n      dup2\n        /* \"#utility.yul\":616:636   */\n      calldataload\n        /* \"#utility.yul\":607:636   */\n      swap1\n      pop\n        /* \"#utility.yul\":645:678   */\n      tag_116\n        /* \"#utility.yul\":672:677   */\n      dup2\n        /* \"#utility.yul\":645:678   */\n      tag_65\n      jump\t// in\n    tag_116:\n        /* \"#utility.yul\":545:684   */\n      swap3\n      swap2\n      pop\n      pop\n      jump\t// out\n        /* \"#utility.yul\":690:807   */\n    tag_67:\n        /* \"#utility.yul\":799:800   */\n      0x00\n        /* \"#utility.yul\":796:797   */\n      dup1\n        /* \"#utility.yul\":789:801   */\n      revert\n        /* \"#utility.yul\":813:930   */\n    tag_68:\n        /* \"#utility.yul\":922:923   */\n      0x00\n        /* \"#utility.yul\":919:920   */\n      dup1\n        /* \"#utility.yul\":912:924   */\n      revert\n        /* \"#utility.yul\":936:1038   */\n    tag_69:\n        /* \"#utility.yul\":977:983   */\n      0x00\n        /* \"#utility.yul\":1028:1030   */\n      0x1f\n        /* \"#utility.yul\":1024:1031   */\n      not\n        /* \"#utility.yul\":1019:1021   */\n      0x1f\n        /* \"#utility.yul\":1012:1017   */\n      dup4\n        /* \"#utility.yul\":1008:1022   */\n      add\n        /* \"#utility.yul\":1004:1032   */\n      and\n        /* \"#utility.yul\":994:1032   */\n      swap1\n      pop\n        /* \"#utility.yul\":936:1038   */\n      swap2\n      swap1\n      pop\n      jump\t// out\n        /* \"#utility.yul\":1044:1224   */\n    tag_70:\n        /* \"#utility.yul\":1092:1169   */\n      0x4e487b7100000000000000000000000000000000000000000000000000000000\n        /* \"#utility.yul\":1089:1090   */\n      0x00\n        /* \"#utility.yul\":1082:1170   */\n      mstore\n        /* \"#utility.yul\":1189:1193   */\n      0x41\n        /* \"#utility.yul\":1186:1187   */\n      0x04\n        /* \"#utility.yul\":1179:1194   */\n      mstore\n        /* \"#utility.yul\":1213:1217   */\n      0x24\n        /* \"#utility.yul\":1210:1211   */\n      0x00\n        /* \"#utility.yul\":1203:1218   */\n      revert\n        /* \"#utility.yul\":1230:1511   */\n    tag_71:\n        /* \"#utility.yul\":1313:1340   */\n      tag_122\n        /* \"#utility.yul\":1335:1339   */\n      dup3\n        /* \"#utility.yul\":1313:1340   */\n      tag_69\n      jump\t// in\n    tag_122:\n        /* \"#utility.yul\":1305:1311   */\n      dup2\n        /* \"#utility.yul\":1301:1341   */\n      add\n        /* \"#utility.yul\":1443:1449   */\n      dup2\n        /* \"#utility.yul\":1431:1441   */\n      dup2\n        /* \"#utility.yul\":1428:1450   */\n      lt\n        /* \"#utility.yul\":1407:1425   */\n      0xffffffffffffffff\n        /* \"#utility.yul\":1395:1405   */\n      dup3\n        /* \"#utility.yul\":1392:1426   */\n      gt\n        /* \"#utility.yul\":1389:1451   */\n      or\n        /* \"#utility.yul\":1386:1474   */\n      iszero\n      tag_123\n      jumpi\n        /* \"#utility.yul\":1454:1472   */\n      tag_124\n      tag_70\n      jump\t// in\n    tag_124:\n        /* \"#utility.yul\":1386:1474   */\n    tag_123:\n        /* \"#utility.yul\":1494:1504   */\n      dup1\n        /* \"#utility.yul\":1490:1492   */\n      0x40\n        /* \"#utility.yul\":1483:1505   */\n      mstore\n        /* \"#utility.yul\":1273:1511   */\n      pop\n        /* \"#utility.yul\":1230:1511   */\n      pop\n      pop\n      jump\t// out\n        /* \"#utility.yul\":1517:1646   */\n    tag_72:\n        /* \"#utility.yul\":1551:1557   */\n      0x00\n        /* \"#utility.yul\":1578:1598   */\n      tag_126\n      tag_61\n      jump\t// in\n    tag_126:\n        /* \"#utility.yul\":1568:1598   */\n      swap1\n      pop\n        /* \"#utility.yul\":1607:1640   */\n      tag_127\n        /* \"#utility.yul\":1635:1639   */\n      dup3\n        /* \"#utility.yul\":1627:1633   */\n      dup3\n        /* \"#utility.yul\":1607:1640   */\n      tag_71\n      jump\t// in\n    tag_127:\n        /* \"#utility.yul\":1517:1646   */\n      swap2\n      swap1\n      pop\n      jump\t// out\n        /* \"#utility.yul\":1652:1960   */\n    tag_73:\n        /* \"#utility.yul\":1714:1718   */\n      0x00\n        /* \"#utility.yul\":1804:1822   */\n      0xffffffffffffffff\n        /* \"#utility.yul\":1796:1802   */\n      dup3\n        /* \"#utility.yul\":1793:1823   */\n      gt\n        /* \"#utility.yul\":1790:1846   */\n      iszero\n      tag_129\n      jumpi\n        /* \"#utility.yul\":1826:1844   */\n      tag_130\n      tag_70\n      jump\t// in\n    tag_130:\n        /* \"#utility.yul\":1790:1846   */\n    tag_129:\n        /* \"#utility.yul\":1864:1893   */\n      tag_131\n        /* \"#utility.yul\":1886:1892   */\n      dup3\n        /* \"#utility.yul\":1864:1893   */\n      tag_69\n      jump\t// in\n    tag_131:\n        /* \"#utility.yul\":1856:1893   */\n      swap1\n      pop\n        /* \"#utility.yul\":1948:1952   */\n      0x20\n        /* \"#utility.yul\":1942:1946   */\n      dup2\n        /* \"#utility.yul\":1938:1953   */\n      add\n        /* \"#utility.yul\":1930:1953   */\n      swap1\n      pop\n        /* \"#utility.yul\":1652:1960   */\n      swap2\n      swap1\n      pop\n      jump\t// out\n        /* \"#utility.yul\":1966:2114   */\n    tag_74:\n        /* \"#utility.yul\":2064:2070   */\n      dup3\n        /* \"#utility.yul\":2059:2062   */\n      dup2\n        /* \"#utility.yul\":2054:2057   */\n      dup4\n        /* \"#utility.yul\":2041:2071   */\n      calldatacopy\n        /* \"#utility.yul\":2105:2106   */\n      0x00\n        /* \"#utility.yul\":2096:2102   */\n      dup4\n        /* \"#utility.yul\":2091:2094   */\n      dup4\n        /* \"#utility.yul\":2087:2103   */\n      add\n        /* \"#utility.yul\":2080:2107   */\n      mstore\n        /* \"#utility.yul\":1966:2114   */\n      pop\n      pop\n      pop\n      jump\t// out\n        /* \"#utility.yul\":2120:2545   */\n    tag_75:\n        /* \"#utility.yul\":2198:2203   */\n      0x00\n        /* \"#utility.yul\":2223:2289   */\n      tag_134\n        /* \"#utility.yul\":2239:2288   */\n      tag_135\n        /* \"#utility.yul\":2281:2287   */\n      dup5\n        /* \"#utility.yul\":2239:2288   */\n      tag_73\n      jump\t// in\n    tag_135:\n        /* \"#utility.yul\":2223:2289   */\n      tag_72\n      jump\t// in\n    tag_134:\n        /* \"#utility.yul\":2214:2289   */\n      swap1\n      pop\n        /* \"#utility.yul\":2312:2318   */\n      dup3\n        /* \"#utility.yul\":2305:2310   */\n      dup2\n        /* \"#utility.yul\":2298:2319   */\n      mstore\n        /* \"#utility.yul\":2350:2354   */\n      0x20\n        /* \"#utility.yul\":2343:2348   */\n      dup2\n        /* \"#utility.yul\":2339:2355   */\n      add\n        /* \"#utility.yul\":2388:2391   */\n      dup5\n        /* \"#utility.yul\":2379:2385   */\n      dup5\n        /* \"#utility.yul\":2374:2377   */\n      dup5\n        /* \"#utility.yul\":2370:2386   */\n      add\n        /* \"#utility.yul\":2367:2392   */\n      gt\n        /* \"#utility.yul\":2364:2476   */\n      iszero\n      tag_136\n      jumpi\n        /* \"#utility.yul\":2395:2474   */\n      tag_137\n      tag_68\n      jump\t// in\n    tag_137:\n        /* \"#utility.yul\":2364:2476   */\n    tag_136:\n        /* \"#utility.yul\":2485:2539   */\n      tag_138\n        /* \"#utility.yul\":2532:2538   */\n      dup5\n        /* \"#utility.yul\":2527:2530   */\n      dup3\n        /* \"#utility.yul\":2522:2525   */\n      dup6\n        /* \"#utility.yul\":2485:2539   */\n      tag_74\n      jump\t// in\n    tag_138:\n        /* \"#utility.yul\":2204:2545   */\n      pop\n        /* \"#utility.yul\":2120:2545   */\n      swap4\n      swap3\n      pop\n      pop\n      pop\n      jump\t// out\n        /* \"#utility.yul\":2565:2905   */\n    tag_76:\n        /* \"#utility.yul\":2621:2626   */\n      0x00\n        /* \"#utility.yul\":2670:2673   */\n      dup3\n        /* \"#utility.yul\":2663:2667   */\n      0x1f\n        /* \"#utility.yul\":2655:2661   */\n      dup4\n        /* \"#utility.yul\":2651:2668   */\n      add\n        /* \"#utility.yul\":2647:2674   */\n      slt\n        /* \"#utility.yul\":2637:2759   */\n      tag_140\n      jumpi\n        /* \"#utility.yul\":2678:2757   */\n      tag_141\n      tag_67\n      jump\t// in\n    tag_141:\n        /* \"#utility.yul\":2637:2759   */\n    tag_140:\n        /* \"#utility.yul\":2795:2801   */\n      dup2\n        /* \"#utility.yul\":2782:2802   */\n      calldataload\n        /* \"#utility.yul\":2820:2899   */\n      tag_142\n        /* \"#utility.yul\":2895:2898   */\n      dup5\n        /* \"#utility.yul\":2887:2893   */\n      dup3\n        /* \"#utility.yul\":2880:2884   */\n      0x20\n        /* \"#utility.yul\":2872:2878   */\n      dup7\n        /* \"#utility.yul\":2868:2885   */\n      add\n        /* \"#utility.yul\":2820:2899   */\n      tag_75\n      jump\t// in\n    tag_142:\n        /* \"#utility.yul\":2811:2899   */\n      swap2\n      pop\n        /* \"#utility.yul\":2627:2905   */\n      pop\n        /* \"#utility.yul\":2565:2905   */\n      swap3\n      swap2\n      pop\n      pop\n      jump\t// out\n        /* \"#utility.yul\":2911:4362   */\n    tag_9:\n        /* \"#utility.yul\":3036:3042   */\n      0x00\n        /* \"#utility.yul\":3044:3050   */\n      dup1\n        /* \"#utility.yul\":3052:3058   */\n      0x00\n        /* \"#utility.yul\":3060:3066   */\n      dup1\n        /* \"#utility.yul\":3068:3074   */\n      0x00\n        /* \"#utility.yul\":3117:3120   */\n      0xa0\n        /* \"#utility.yul\":3105:3114   */\n      dup7\n        /* \"#utility.yul\":3096:3103   */\n      dup9\n        /* \"#utility.yul\":3092:3115   */\n      sub\n        /* \"#utility.yul\":3088:3121   */\n      slt\n        /* \"#utility.yul\":3085:3205   */\n      iszero\n      tag_144\n      jumpi\n        /* \"#utility.yul\":3124:3203   */\n      tag_145\n      tag_62\n      jump\t// in\n    tag_145:\n        /* \"#utility.yul\":3085:3205   */\n    tag_144:\n        /* \"#utility.yul\":3244:3245   */\n      0x00\n        /* \"#utility.yul\":3269:3322   */\n      tag_146\n        /* \"#utility.yul\":3314:3321   */\n      dup9\n        /* \"#utility.yul\":3305:3311   */\n      dup3\n        /* \"#utility.yul\":3294:3303   */\n      dup10\n        /* \"#utility.yul\":3290:3312   */\n      add\n        /* \"#utility.yul\":3269:3322   */\n      tag_66\n      jump\t// in\n    tag_146:\n        /* \"#utility.yul\":3259:3322   */\n      swap6\n      pop\n        /* \"#utility.yul\":3215:3332   */\n      pop\n        /* \"#utility.yul\":3371:3373   */\n      0x20\n        /* \"#utility.yul\":3397:3450   */\n      tag_147\n        /* \"#utility.yul\":3442:3449   */\n      dup9\n        /* \"#utility.yul\":3433:3439   */\n      dup3\n        /* \"#utility.yul\":3422:3431   */\n      dup10\n        /* \"#utility.yul\":3418:3440   */\n      add\n        /* \"#utility.yul\":3397:3450   */\n      tag_66\n      jump\t// in\n    tag_147:\n        /* \"#utility.yul\":3387:3450   */\n      swap5\n      pop\n        /* \"#utility.yul\":3342:3460   */\n      pop\n        /* \"#utility.yul\":3527:3529   */\n      0x40\n        /* \"#utility.yul\":3516:3525   */\n      dup7\n        /* \"#utility.yul\":3512:3530   */\n      add\n        /* \"#utility.yul\":3499:3531   */\n      calldataload\n        /* \"#utility.yul\":3558:3576   */\n      0xffffffffffffffff\n        /* \"#utility.yul\":3550:3556   */\n      dup2\n        /* \"#utility.yul\":3547:3577   */\n      gt\n        /* \"#utility.yul\":3544:3661   */\n      iszero\n      tag_148\n      jumpi\n        /* \"#utility.yul\":3580:3659   */\n      tag_149\n      tag_63\n      jump\t// in\n    tag_149:\n        /* \"#utility.yul\":3544:3661   */\n    tag_148:\n        /* \"#utility.yul\":3685:3748   */\n      tag_150\n        /* \"#utility.yul\":3740:3747   */\n      dup9\n        /* \"#utility.yul\":3731:3737   */\n      dup3\n        /* \"#utility.yul\":3720:3729   */\n      dup10\n        /* \"#utility.yul\":3716:3738   */\n      add\n        /* \"#utility.yul\":3685:3748   */\n      tag_76\n      jump\t// in\n    tag_150:\n        /* \"#utility.yul\":3675:3748   */\n      swap4\n      pop\n        /* \"#utility.yul\":3470:3758   */\n      pop\n        /* \"#utility.yul\":3825:3827   */\n      0x60\n        /* \"#utility.yul\":3814:3823   */\n      dup7\n        /* \"#utility.yul\":3810:3828   */\n      add\n        /* \"#utility.yul\":3797:3829   */\n      calldataload\n        /* \"#utility.yul\":3856:3874   */\n      0xffffffffffffffff\n        /* \"#utility.yul\":3848:3854   */\n      dup2\n        /* \"#utility.yul\":3845:3875   */\n      gt\n        /* \"#utility.yul\":3842:3959   */\n      iszero\n      tag_151\n      jumpi\n        /* \"#utility.yul\":3878:3957   */\n      tag_152\n      tag_63\n      jump\t// in\n    tag_152:\n        /* \"#utility.yul\":3842:3959   */\n    tag_151:\n        /* \"#utility.yul\":3983:4046   */\n      tag_153\n        /* \"#utility.yul\":4038:4045   */\n      dup9\n        /* \"#utility.yul\":4029:4035   */\n      dup3\n        /* \"#utility.yul\":4018:4027   */\n      dup10\n        /* \"#utility.yul\":4014:4036   */\n      add\n        /* \"#utility.yul\":3983:4046   */\n      tag_76\n      jump\t// in\n    tag_153:\n        /* \"#utility.yul\":3973:4046   */\n      swap3\n      pop\n        /* \"#utility.yul\":3768:4056   */\n      pop\n        /* \"#utility.yul\":4123:4126   */\n      0x80\n        /* \"#utility.yul\":4112:4121   */\n      dup7\n        /* \"#utility.yul\":4108:4127   */\n      add\n        /* \"#utility.yul\":4095:4128   */\n      calldataload\n        /* \"#utility.yul\":4155:4173   */\n      0xffffffffffffffff\n        /* \"#utility.yul\":4147:4153   */\n      dup2\n        /* \"#utility.yul\":4144:4174   */\n      gt\n        /* \"#utility.yul\":4141:4258   */\n      iszero\n      tag_154\n      jumpi\n        /* \"#utility.yul\":4177:4256   */\n      tag_155\n      tag_63\n      jump\t// in\n    tag_155:\n        /* \"#utility.yul\":4141:4258   */\n    tag_154:\n        /* \"#utility.yul\":4282:4345   */\n      tag_156\n        /* \"#utility.yul\":4337:4344   */\n      dup9\n        /* \"#utility.yul\":4328:4334   */\n      dup3\n        /* \"#utility.yul\":4317:4326   */\n      dup10\n        /* \"#utility.yul\":4313:4335   */\n      add\n        /* \"#utility.yul\":4282:4345   */\n      tag_76\n      jump\t// in\n    tag_156:\n        /* \"#utility.yul\":4272:4345   */\n      swap2\n      pop\n        /* \"#utility.yul\":4066:4355   */\n      pop\n        /* \"#utility.yul\":2911:4362   */\n      swap3\n      swap6\n      pop\n      swap3\n      swap6\n      swap1\n      swap4\n      pop\n      jump\t// out\n        /* \"#utility.yul\":4368:4697   */\n    tag_13:\n        /* \"#utility.yul\":4427:4433   */\n      0x00\n        /* \"#utility.yul\":4476:4478   */\n      0x20\n        /* \"#utility.yul\":4464:4473   */\n      dup3\n        /* \"#utility.yul\":4455:4462   */\n      dup5\n        /* \"#utility.yul\":4451:4474   */\n      sub\n        /* \"#utility.yul\":4447:4479   */\n      slt\n        /* \"#utility.yul\":4444:4563   */\n      iszero\n      tag_158\n      jumpi\n        /* \"#utility.yul\":4482:4561   */\n      tag_159\n      tag_62\n      jump\t// in\n    tag_159:\n        /* \"#utility.yul\":4444:4563   */\n    tag_158:\n        /* \"#utility.yul\":4602:4603   */\n      0x00\n        /* \"#utility.yul\":4627:4680   */\n      tag_160\n        /* \"#utility.yul\":4672:4679   */\n      dup5\n        /* \"#utility.yul\":4663:4669   */\n      dup3\n        /* \"#utility.yul\":4652:4661   */\n      dup6\n        /* \"#utility.yul\":4648:4670   */\n      add\n        /* \"#utility.yul\":4627:4680   */\n      tag_66\n      jump\t// in\n    tag_160:\n        /* \"#utility.yul\":4617:4680   */\n      swap2\n      pop\n        /* \"#utility.yul\":4573:4690   */\n      pop\n        /* \"#utility.yul\":4368:4697   */\n      swap3\n      swap2\n      pop\n      pop\n      jump\t// out\n        /* \"#utility.yul\":4703:4821   */\n    tag_77:\n        /* \"#utility.yul\":4790:4814   */\n      tag_162\n        /* \"#utility.yul\":4808:4813   */\n      dup2\n        /* \"#utility.yul\":4790:4814   */\n      tag_64\n      jump\t// in\n    tag_162:\n        /* \"#utility.yul\":4785:4788   */\n      dup3\n        /* \"#utility.yul\":4778:4815   */\n      mstore\n        /* \"#utility.yul\":4703:4821   */\n      pop\n      pop\n      jump\t// out\n        /* \"#utility.yul\":4827:5049   */\n    tag_20:\n        /* \"#utility.yul\":4920:4924   */\n      0x00\n        /* \"#utility.yul\":4958:4960   */\n      0x20\n        /* \"#utility.yul\":4947:4956   */\n      dup3\n        /* \"#utility.yul\":4943:4961   */\n      add\n        /* \"#utility.yul\":4935:4961   */\n      swap1\n      pop\n        /* \"#utility.yul\":4971:5042   */\n      tag_164\n        /* \"#utility.yul\":5039:5040   */\n      0x00\n        /* \"#utility.yul\":5028:5037   */\n      dup4\n        /* \"#utility.yul\":5024:5041   */\n      add\n        /* \"#utility.yul\":5015:5021   */\n      dup5\n        /* \"#utility.yul\":4971:5042   */\n      tag_77\n      jump\t// in\n    tag_164:\n        /* \"#utility.yul\":4827:5049   */\n      swap3\n      swap2\n      pop\n      pop\n      jump\t// out\n        /* \"#utility.yul\":5055:5181   */\n    tag_78:\n        /* \"#utility.yul\":5092:5099   */\n      0x00\n        /* \"#utility.yul\":5132:5174   */\n      0xffffffffffffffffffffffffffffffffffffffff\n        /* \"#utility.yul\":5125:5130   */\n      dup3\n        /* \"#utility.yul\":5121:5175   */\n      and\n        /* \"#utility.yul\":5110:5175   */\n      swap1\n      pop\n        /* \"#utility.yul\":5055:5181   */\n      swap2\n      swap1\n      pop\n      jump\t// out\n        /* \"#utility.yul\":5187:5283   */\n    tag_79:\n        /* \"#utility.yul\":5224:5231   */\n      0x00\n        /* \"#utility.yul\":5253:5277   */\n      tag_167\n        /* \"#utility.yul\":5271:5276   */\n      dup3\n        /* \"#utility.yul\":5253:5277   */\n      tag_78\n      jump\t// in\n    tag_167:\n        /* \"#utility.yul\":5242:5277   */\n      swap1\n      pop\n        /* \"#utility.yul\":5187:5283   */\n      swap2\n      swap1\n      pop\n      jump\t// out\n        /* \"#utility.yul\":5289:5407   */\n    tag_80:\n        /* \"#utility.yul\":5376:5400   */\n      tag_169\n        /* \"#utility.yul\":5394:5399   */\n      dup2\n        /* \"#utility.yul\":5376:5400   */\n      tag_79\n      jump\t// in\n    tag_169:\n        /* \"#utility.yul\":5371:5374   */\n      dup3\n        /* \"#utility.yul\":5364:5401   */\n      mstore\n        /* \"#utility.yul\":5289:5407   */\n      pop\n      pop\n      jump\t// out\n        /* \"#utility.yul\":5413:5503   */\n    tag_81:\n        /* \"#utility.yul\":5447:5454   */\n      0x00\n        /* \"#utility.yul\":5490:5495   */\n      dup2\n        /* \"#utility.yul\":5483:5496   */\n      iszero\n        /* \"#utility.yul\":5476:5497   */\n      iszero\n        /* \"#utility.yul\":5465:5497   */\n      swap1\n      pop\n        /* \"#utility.yul\":5413:5503   */\n      swap2\n      swap1\n      pop\n      jump\t// out\n        /* \"#utility.yul\":5509:5618   */\n    tag_82:\n        /* \"#utility.yul\":5590:5611   */\n      tag_172\n        /* \"#utility.yul\":5605:5610   */\n      dup2\n        /* \"#utility.yul\":5590:5611   */\n      tag_81\n      jump\t// in\n    tag_172:\n        /* \"#utility.yul\":5585:5588   */\n      dup3\n        /* \"#utility.yul\":5578:5612   */\n      mstore\n        /* \"#utility.yul\":5509:5618   */\n      pop\n      pop\n      jump\t// out\n        /* \"#utility.yul\":5624:5723   */\n    tag_83:\n        /* \"#utility.yul\":5676:5682   */\n      0x00\n        /* \"#utility.yul\":5710:5715   */\n      dup2\n        /* \"#utility.yul\":5704:5716   */\n      mload\n        /* \"#utility.yul\":5694:5716   */\n      swap1\n      pop\n        /* \"#utility.yul\":5624:5723   */\n      swap2\n      swap1\n      pop\n      jump\t// out\n        /* \"#utility.yul\":5729:5898   */\n    tag_84:\n        /* \"#utility.yul\":5813:5824   */\n      0x00\n        /* \"#utility.yul\":5847:5853   */\n      dup3\n        /* \"#utility.yul\":5842:5845   */\n      dup3\n        /* \"#utility.yul\":5835:5854   */\n      mstore\n        /* \"#utility.yul\":5887:5891   */\n      0x20\n        /* \"#utility.yul\":5882:5885   */\n      dup3\n        /* \"#utility.yul\":5878:5892   */\n      add\n        /* \"#utility.yul\":5863:5892   */\n      swap1\n      pop\n        /* \"#utility.yul\":5729:5898   */\n      swap3\n      swap2\n      pop\n      pop\n      jump\t// out\n        /* \"#utility.yul\":5904:6043   */\n    tag_85:\n        /* \"#utility.yul\":5993:5999   */\n      dup3\n        /* \"#utility.yul\":5988:5991   */\n      dup2\n        /* \"#utility.yul\":5983:5986   */\n      dup4\n        /* \"#utility.yul\":5977:6000   */\n      mcopy\n        /* \"#utility.yul\":6034:6035   */\n      0x00\n        /* \"#utility.yul\":6025:6031   */\n      dup4\n        /* \"#utility.yul\":6020:6023   */\n      dup4\n        /* \"#utility.yul\":6016:6032   */\n      add\n        /* \"#utility.yul\":6009:6036   */\n      mstore\n        /* \"#utility.yul\":5904:6043   */\n      pop\n      pop\n      pop\n      jump\t// out\n        /* \"#utility.yul\":6049:6426   */\n    tag_86:\n        /* \"#utility.yul\":6137:6140   */\n      0x00\n        /* \"#utility.yul\":6165:6204   */\n      tag_177\n        /* \"#utility.yul\":6198:6203   */\n      dup3\n        /* \"#utility.yul\":6165:6204   */\n      tag_83\n      jump\t// in\n    tag_177:\n        /* \"#utility.yul\":6220:6291   */\n      tag_178\n        /* \"#utility.yul\":6284:6290   */\n      dup2\n        /* \"#utility.yul\":6279:6282   */\n      dup6\n        /* \"#utility.yul\":6220:6291   */\n      tag_84\n      jump\t// in\n    tag_178:\n        /* \"#utility.yul\":6213:6291   */\n      swap4\n      pop\n        /* \"#utility.yul\":6300:6365   */\n      tag_179\n        /* \"#utility.yul\":6358:6364   */\n      dup2\n        /* \"#utility.yul\":6353:6356   */\n      dup6\n        /* \"#utility.yul\":6346:6350   */\n      0x20\n        /* \"#utility.yul\":6339:6344   */\n      dup7\n        /* \"#utility.yul\":6335:6351   */\n      add\n        /* \"#utility.yul\":6300:6365   */\n      tag_85\n      jump\t// in\n    tag_179:\n        /* \"#utility.yul\":6390:6419   */\n      tag_180\n        /* \"#utility.yul\":6412:6418   */\n      dup2\n        /* \"#utility.yul\":6390:6419   */\n      tag_69\n      jump\t// in\n    tag_180:\n        /* \"#utility.yul\":6385:6388   */\n      dup5\n        /* \"#utility.yul\":6381:6420   */\n      add\n        /* \"#utility.yul\":6374:6420   */\n      swap2\n      pop\n        /* \"#utility.yul\":6141:6426   */\n      pop\n        /* \"#utility.yul\":6049:6426   */\n      swap3\n      swap2\n      pop\n      pop\n      jump\t// out\n        /* \"#utility.yul\":6432:7468   */\n    tag_26:\n        /* \"#utility.yul\":6719:6723   */\n      0x00\n        /* \"#utility.yul\":6757:6760   */\n      0xc0\n        /* \"#utility.yul\":6746:6755   */\n      dup3\n        /* \"#utility.yul\":6742:6761   */\n      add\n        /* \"#utility.yul\":6734:6761   */\n      swap1\n      pop\n        /* \"#utility.yul\":6771:6842   */\n      tag_182\n        /* \"#utility.yul\":6839:6840   */\n      0x00\n        /* \"#utility.yul\":6828:6837   */\n      dup4\n        /* \"#utility.yul\":6824:6841   */\n      add\n        /* \"#utility.yul\":6815:6821   */\n      dup10\n        /* \"#utility.yul\":6771:6842   */\n      tag_77\n      jump\t// in\n    tag_182:\n        /* \"#utility.yul\":6852:6924   */\n      tag_183\n        /* \"#utility.yul\":6920:6922   */\n      0x20\n        /* \"#utility.yul\":6909:6918   */\n      dup4\n        /* \"#utility.yul\":6905:6923   */\n      add\n        /* \"#utility.yul\":6896:6902   */\n      dup9\n        /* \"#utility.yul\":6852:6924   */\n      tag_80\n      jump\t// in\n    tag_183:\n        /* \"#utility.yul\":6934:7000   */\n      tag_184\n        /* \"#utility.yul\":6996:6998   */\n      0x40\n        /* \"#utility.yul\":6985:6994   */\n      dup4\n        /* \"#utility.yul\":6981:6999   */\n      add\n        /* \"#utility.yul\":6972:6978   */\n      dup8\n        /* \"#utility.yul\":6934:7000   */\n      tag_82\n      jump\t// in\n    tag_184:\n        /* \"#utility.yul\":7047:7056   */\n      dup2\n        /* \"#utility.yul\":7041:7045   */\n      dup2\n        /* \"#utility.yul\":7037:7057   */\n      sub\n        /* \"#utility.yul\":7032:7034   */\n      0x60\n        /* \"#utility.yul\":7021:7030   */\n      dup4\n        /* \"#utility.yul\":7017:7035   */\n      add\n        /* \"#utility.yul\":7010:7058   */\n      mstore\n        /* \"#utility.yul\":7075:7153   */\n      tag_185\n        /* \"#utility.yul\":7148:7152   */\n      dup2\n        /* \"#utility.yul\":7139:7145   */\n      dup7\n        /* \"#utility.yul\":7075:7153   */\n      tag_86\n      jump\t// in\n    tag_185:\n        /* \"#utility.yul\":7067:7153   */\n      swap1\n      pop\n        /* \"#utility.yul\":7201:7210   */\n      dup2\n        /* \"#utility.yul\":7195:7199   */\n      dup2\n        /* \"#utility.yul\":7191:7211   */\n      sub\n        /* \"#utility.yul\":7185:7188   */\n      0x80\n        /* \"#utility.yul\":7174:7183   */\n      dup4\n        /* \"#utility.yul\":7170:7189   */\n      add\n        /* \"#utility.yul\":7163:7212   */\n      mstore\n        /* \"#utility.yul\":7229:7307   */\n      tag_186\n        /* \"#utility.yul\":7302:7306   */\n      dup2\n        /* \"#utility.yul\":7293:7299   */\n      dup6\n        /* \"#utility.yul\":7229:7307   */\n      tag_86\n      jump\t// in\n    tag_186:\n        /* \"#utility.yul\":7221:7307   */\n      swap1\n      pop\n        /* \"#utility.yul\":7355:7364   */\n      dup2\n        /* \"#utility.yul\":7349:7353   */\n      dup2\n        /* \"#utility.yul\":7345:7365   */\n      sub\n        /* \"#utility.yul\":7339:7342   */\n      0xa0\n        /* \"#utility.yul\":7328:7337   */\n      dup4\n        /* \"#utility.yul\":7324:7343   */\n      add\n        /* \"#utility.yul\":7317:7366   */\n      mstore\n        /* \"#utility.yul\":7383:7461   */\n      tag_187\n        /* \"#utility.yul\":7456:7460   */\n      dup2\n        /* \"#utility.yul\":7447:7453   */\n      dup5\n        /* \"#utility.yul\":7383:7461   */\n      tag_86\n      jump\t// in\n    tag_187:\n        /* \"#utility.yul\":7375:7461   */\n      swap1\n      pop\n        /* \"#utility.yul\":6432:7468   */\n      swap8\n      swap7\n      pop\n      pop\n      pop\n      pop\n      pop\n      pop\n      pop\n      jump\t// out\n        /* \"#utility.yul\":7474:7654   */\n    tag_87:\n        /* \"#utility.yul\":7522:7599   */\n      0x4e487b7100000000000000000000000000000000000000000000000000000000\n        /* \"#utility.yul\":7519:7520   */\n      0x00\n        /* \"#utility.yul\":7512:7600   */\n      mstore\n        /* \"#utility.yul\":7619:7623   */\n      0x22\n        /* \"#utility.yul\":7616:7617   */\n      0x04\n        /* \"#utility.yul\":7609:7624   */\n      mstore\n        /* \"#utility.yul\":7643:7647   */\n      0x24\n        /* \"#utility.yul\":7640:7641   */\n      0x00\n        /* \"#utility.yul\":7633:7648   */\n      revert\n        /* \"#utility.yul\":7660:7980   */\n    tag_46:\n        /* \"#utility.yul\":7704:7710   */\n      0x00\n        /* \"#utility.yul\":7741:7742   */\n      0x02\n        /* \"#utility.yul\":7735:7739   */\n      dup3\n        /* \"#utility.yul\":7731:7743   */\n      div\n        /* \"#utility.yul\":7721:7743   */\n      swap1\n      pop\n        /* \"#utility.yul\":7788:7789   */\n      0x01\n        /* \"#utility.yul\":7782:7786   */\n      dup3\n        /* \"#utility.yul\":7778:7790   */\n      and\n        /* \"#utility.yul\":7809:7827   */\n      dup1\n        /* \"#utility.yul\":7799:7880   */\n      tag_190\n      jumpi\n        /* \"#utility.yul\":7865:7869   */\n      0x7f\n        /* \"#utility.yul\":7857:7863   */\n      dup3\n        /* \"#utility.yul\":7853:7870   */\n      and\n        /* \"#utility.yul\":7843:7870   */\n      swap2\n      pop\n        /* \"#utility.yul\":7799:7880   */\n    tag_190:\n        /* \"#utility.yul\":7927:7929   */\n      0x20\n        /* \"#utility.yul\":7919:7925   */\n      dup3\n        /* \"#utility.yul\":7916:7930   */\n      lt\n        /* \"#utility.yul\":7896:7914   */\n      dup2\n        /* \"#utility.yul\":7893:7931   */\n      sub\n        /* \"#utility.yul\":7890:7974   */\n      tag_191\n      jumpi\n        /* \"#utility.yul\":7946:7964   */\n      tag_192\n      tag_87\n      jump\t// in\n    tag_192:\n        /* \"#utility.yul\":7890:7974   */\n    tag_191:\n        /* \"#utility.yul\":7711:7980   */\n      pop\n        /* \"#utility.yul\":7660:7980   */\n      swap2\n      swap1\n      pop\n      jump\t// out\n        /* \"#utility.yul\":7986:8127   */\n    tag_88:\n        /* \"#utility.yul\":8035:8039   */\n      0x00\n        /* \"#utility.yul\":8058:8061   */\n      dup2\n        /* \"#utility.yul\":8050:8061   */\n      swap1\n      pop\n        /* \"#utility.yul\":8081:8084   */\n      dup2\n        /* \"#utility.yul\":8078:8079   */\n      0x00\n        /* \"#utility.yul\":8071:8085   */\n      mstore\n        /* \"#utility.yul\":8115:8119   */\n      0x20\n        /* \"#utility.yul\":8112:8113   */\n      0x00\n        /* \"#utility.yul\":8102:8120   */\n      keccak256\n        /* \"#utility.yul\":8094:8120   */\n      swap1\n      pop\n        /* \"#utility.yul\":7986:8127   */\n      swap2\n      swap1\n      pop\n      jump\t// out\n        /* \"#utility.yul\":8133:8226   */\n    tag_89:\n        /* \"#utility.yul\":8170:8176   */\n      0x00\n        /* \"#utility.yul\":8217:8219   */\n      0x20\n        /* \"#utility.yul\":8212:8214   */\n      0x1f\n        /* \"#utility.yul\":8205:8210   */\n      dup4\n        /* \"#utility.yul\":8201:8215   */\n      add\n        /* \"#utility.yul\":8197:8220   */\n      div\n        /* \"#utility.yul\":8187:8220   */\n      swap1\n      pop\n        /* \"#utility.yul\":8133:8226   */\n      swap2\n      swap1\n      pop\n      jump\t// out\n        /* \"#utility.yul\":8232:8339   */\n    tag_90:\n        /* \"#utility.yul\":8276:8284   */\n      0x00\n        /* \"#utility.yul\":8326:8331   */\n      dup3\n        /* \"#utility.yul\":8320:8324   */\n      dup3\n        /* \"#utility.yul\":8316:8332   */\n      shl\n        /* \"#utility.yul\":8295:8332   */\n      swap1\n      pop\n        /* \"#utility.yul\":8232:8339   */\n      swap3\n      swap2\n      pop\n      pop\n      jump\t// out\n        /* \"#utility.yul\":8345:8738   */\n    tag_91:\n        /* \"#utility.yul\":8414:8420   */\n      0x00\n        /* \"#utility.yul\":8464:8465   */\n      0x08\n        /* \"#utility.yul\":8452:8462   */\n      dup4\n        /* \"#utility.yul\":8448:8466   */\n      mul\n        /* \"#utility.yul\":8487:8584   */\n      tag_197\n        /* \"#utility.yul\":8517:8583   */\n      0xffffffffffffffffffffffffffffffffffffffffffffffffffffffffffffffff\n        /* \"#utility.yul\":8506:8515   */\n      dup3\n        /* \"#utility.yul\":8487:8584   */\n      tag_90\n      jump\t// in\n    tag_197:\n        /* \"#utility.yul\":8605:8644   */\n      tag_198\n        /* \"#utility.yul\":8635:8643   */\n      dup7\n        /* \"#utility.yul\":8624:8633   */\n      dup4\n        /* \"#utility.yul\":8605:8644   */\n      tag_90\n      jump\t// in\n    tag_198:\n        /* \"#utility.yul\":8593:8644   */\n      swap6\n      pop\n        /* \"#utility.yul\":8677:8681   */\n      dup1\n        /* \"#utility.yul\":8673:8682   */\n      not\n        /* \"#utility.yul\":8666:8671   */\n      dup5\n        /* \"#utility.yul\":8662:8683   */\n      and\n        /* \"#utility.yul\":8653:8683   */\n      swap4\n      pop\n        /* \"#utility.yul\":8726:8730   */\n      dup1\n        /* \"#utility.yul\":8716:8724   */\n      dup7\n        /* \"#utility.yul\":8712:8731   */\n      and\n        /* \"#utility.yul\":8705:8710   */\n      dup5\n        /* \"#utility.yul\":8702:8732   */\n      or\n        /* \"#utility.yul\":8692:8732   */\n      swap3\n      pop\n        /* \"#utility.yul\":8421:8738   */\n      pop\n      pop\n        /* \"#utility.yul\":8345:8738   */\n      swap4\n      swap3\n      pop\n      pop\n      pop\n      jump\t// out\n        /* \"#utility.yul\":8744:8804   */\n    tag_92:\n        /* \"#utility.yul\":8772:8775   */\n      0x00\n        /* \"#utility.yul\":8793:8798   */\n      dup2\n        /* \"#utility.yul\":8786:8798   */\n      swap1\n      pop\n        /* \"#utility.yul\":8744:8804   */\n      swap2\n      swap1\n      pop\n      jump\t// out\n        /* \"#utility.yul\":8810:8952   */\n    tag_93:\n        /* \"#utility.yul\":8860:8869   */\n      0x00\n        /* \"#utility.yul\":8893:8946   */\n      tag_201\n        /* \"#utility.yul\":8911:8945   */\n      tag_202\n        /* \"#utility.yul\":8920:8944   */\n      tag_203\n        /* \"#utility.yul\":8938:8943   */\n      dup5\n        /* \"#utility.yul\":8920:8944   */\n      tag_64\n      jump\t// in\n    tag_203:\n        /* \"#utility.yul\":8911:8945   */\n      tag_92\n      jump\t// in\n    tag_202:\n        /* \"#utility.yul\":8893:8946   */\n      tag_64\n      jump\t// in\n    tag_201:\n        /* \"#utility.yul\":8880:8946   */\n      swap1\n      pop\n        /* \"#utility.yul\":8810:8952   */\n      swap2\n      swap1\n      pop\n      jump\t// out\n        /* \"#utility.yul\":8958:9033   */\n    tag_94:\n        /* \"#utility.yul\":9001:9004   */\n      0x00\n        /* \"#utility.yul\":9022:9027   */\n      dup2\n        /* \"#utility.yul\":9015:9027   */\n      swap1\n      pop\n        /* \"#utility.yul\":8958:9033   */\n      swap2\n      swap1\n      pop\n      jump\t// out\n        /* \"#utility.yul\":9039:9308   */\n    tag_95:\n        /* \"#utility.yul\":9149:9188   */\n      tag_206\n        /* \"#utility.yul\":9180:9187   */\n      dup4\n        /* \"#utility.yul\":9149:9188   */\n      tag_93\n      jump\t// in\n    tag_206:\n        /* \"#utility.yul\":9210:9301   */\n      tag_207\n        /* \"#utility.yul\":9259:9300   */\n      tag_208\n        /* \"#utility.yul\":9283:9299   */\n      dup3\n        /* \"#utility.yul\":9259:9300   */\n      tag_94\n      jump\t// in\n    tag_208:\n        /* \"#utility.yul\":9251:9257   */\n      dup5\n        /* \"#utility.yul\":9244:9248   */\n      dup5\n        /* \"#utility.yul\":9238:9249   */\n      sload\n        /* \"#utility.yul\":9210:9301   */\n      tag_91\n      jump\t// in\n    tag_207:\n        /* \"#utility.yul\":9204:9208   */\n      dup3\n        /* \"#utility.yul\":9197:9302   */\n      sstore\n        /* \"#utility.yul\":9115:9308   */\n      pop\n        /* \"#utility.yul\":9039:9308   */\n      pop\n      pop\n      pop\n      jump\t// out\n        /* \"#utility.yul\":9314:9387   */\n    tag_96:\n        /* \"#utility.yul\":9359:9362   */\n      0x00\n        /* \"#utility.yul\":9314:9387   */\n      swap1\n      jump\t// out\n        /* \"#utility.yul\":9393:9582   */\n    tag_97:\n        /* \"#utility.yul\":9470:9502   */\n      tag_211\n      tag_96\n      jump\t// in\n    tag_211:\n        /* \"#utility.yul\":9511:9576   */\n      tag_212\n        /* \"#utility.yul\":9569:9575   */\n      dup2\n        /* \"#utility.yul\":9561:9567   */\n      dup5\n        /* \"#utility.yul\":9555:9559   */\n      dup5\n        /* \"#utility.yul\":9511:9576   */\n      tag_95\n      jump\t// in\n    tag_212:\n        /* \"#utility.yul\":9446:9582   */\n      pop\n        /* \"#utility.yul\":9393:9582   */\n      pop\n      pop\n      jump\t// out\n        /* \"#utility.yul\":9588:9774   */\n    tag_98:\n        /* \"#utility.yul\":9648:9768   */\n    tag_214:\n        /* \"#utility.yul\":9665:9668   */\n      dup2\n        /* \"#utility.yul\":9658:9663   */\n      dup2\n        /* \"#utility.yul\":9655:9669   */\n      lt\n        /* \"#utility.yul\":9648:9768   */\n      iszero\n      tag_216\n      jumpi\n        /* \"#utility.yul\":9719:9758   */\n      tag_217\n        /* \"#utility.yul\":9756:9757   */\n      0x00\n        /* \"#utility.yul\":9749:9754   */\n      dup3\n        /* \"#utility.yul\":9719:9758   */\n      tag_97\n      jump\t// in\n    tag_217:\n        /* \"#utility.yul\":9692:9693   */\n      0x01\n        /* \"#utility.yul\":9685:9690   */\n      dup2\n        /* \"#utility.yul\":9681:9694   */\n      add\n        /* \"#utility.yul\":9672:9694   */\n      swap1\n      pop\n        /* \"#utility.yul\":9648:9768   */\n      jump(tag_214)\n    tag_216:\n        /* \"#utility.yul\":9588:9774   */\n      pop\n      pop\n      jump\t// out\n        /* \"#utility.yul\":9780:10323   */\n    tag_99:\n        /* \"#utility.yul\":9881:9883   */\n      0x1f\n        /* \"#utility.yul\":9876:9879   */\n      dup3\n        /* \"#utility.yul\":9873:9884   */\n      gt\n        /* \"#utility.yul\":9870:10316   */\n      iszero\n      tag_219\n      jumpi\n        /* \"#utility.yul\":9915:9953   */\n      tag_220\n        /* \"#utility.yul\":9947:9952   */\n      dup2\n        /* \"#utility.yul\":9915:9953   */\n      tag_88\n      jump\t// in\n    tag_220:\n        /* \"#utility.yul\":9999:10028   */\n      tag_221\n        /* \"#utility.yul\":10017:10027   */\n      dup5\n        /* \"#utility.yul\":9999:10028   */\n      tag_89\n      jump\t// in\n    tag_221:\n        /* \"#utility.yul\":9989:9997   */\n      dup2\n        /* \"#utility.yul\":9985:10029   */\n      add\n        /* \"#utility.yul\":10182:10184   */\n      0x20\n        /* \"#utility.yul\":10170:10180   */\n      dup6\n        /* \"#utility.yul\":10167:10185   */\n      lt\n        /* \"#utility.yul\":10164:10213   */\n      iszero\n      tag_222\n      jumpi\n        /* \"#utility.yul\":10203:10211   */\n      dup2\n        /* \"#utility.yul\":10188:10211   */\n      swap1\n      pop\n        /* \"#utility.yul\":10164:10213   */\n    tag_222:\n        /* \"#utility.yul\":10226:10306   */\n      tag_223\n        /* \"#utility.yul\":10282:10304   */\n      tag_224\n        /* \"#utility.yul\":10300:10303   */\n      dup6\n        /* \"#utility.yul\":10282:10304   */\n      tag_89\n      jump\t// in\n    tag_224:\n        /* \"#utility.yul\":10272:10280   */\n      dup4\n        /* \"#utility.yul\":10268:10305   */\n      add\n        /* \"#utility.yul\":10255:10266   */\n      dup3\n        /* \"#utility.yul\":10226:10306   */\n      tag_98\n      jump\t// in\n    tag_223:\n        /* \"#utility.yul\":9885:10316   */\n      pop\n      pop\n        /* \"#utility.yul\":9870:10316   */\n    tag_219:\n        /* \"#utility.yul\":9780:10323   */\n      pop\n      pop\n      pop\n      jump\t// out\n        /* \"#utility.yul\":10329:10446   */\n    tag_100:\n        /* \"#utility.yul\":10383:10391   */\n      0x00\n        /* \"#utility.yul\":10433:10438   */\n      dup3\n        /* \"#utility.yul\":10427:10431   */\n      dup3\n        /* \"#utility.yul\":10423:10439   */\n      shr\n        /* \"#utility.yul\":10402:10439   */\n      swap1\n      pop\n        /* \"#utility.yul\":10329:10446   */\n      swap3\n      swap2\n      pop\n      pop\n      jump\t// out\n        /* \"#utility.yul\":10452:10621   */\n    tag_101:\n        /* \"#utility.yul\":10496:10502   */\n      0x00\n        /* \"#utility.yul\":10529:10580   */\n      tag_227\n        /* \"#utility.yul\":10577:10578   */\n      0x00\n        /* \"#utility.yul\":10573:10579   */\n      not\n        /* \"#utility.yul\":10565:10570   */\n      dup5\n        /* \"#utility.yul\":10562:10563   */\n      0x08\n        /* \"#utility.yul\":10558:10571   */\n      mul\n        /* \"#utility.yul\":10529:10580   */\n      tag_100\n      jump\t// in\n    tag_227:\n        /* \"#utility.yul\":10525:10581   */\n      not\n        /* \"#utility.yul\":10610:10614   */\n      dup1\n        /* \"#utility.yul\":10604:10608   */\n      dup4\n        /* \"#utility.yul\":10600:10615   */\n      and\n        /* \"#utility.yul\":10590:10615   */\n      swap2\n      pop\n        /* \"#utility.yul\":10503:10621   */\n      pop\n        /* \"#utility.yul\":10452:10621   */\n      swap3\n      swap2\n      pop\n      pop\n      jump\t// out\n        /* \"#utility.yul\":10626:10921   */\n    tag_102:\n        /* \"#utility.yul\":10702:10706   */\n      0x00\n        /* \"#utility.yul\":10848:10877   */\n      tag_229\n        /* \"#utility.yul\":10873:10876   */\n      dup4\n        /* \"#utility.yul\":10867:10871   */\n      dup4\n        /* \"#utility.yul\":10848:10877   */\n      tag_101\n      jump\t// in\n    tag_229:\n        /* \"#utility.yul\":10840:10877   */\n      swap2\n      pop\n        /* \"#utility.yul\":10910:10913   */\n      dup3\n        /* \"#utility.yul\":10907:10908   */\n      0x02\n        /* \"#utility.yul\":10903:10914   */\n      mul\n        /* \"#utility.yul\":10897:10901   */\n      dup3\n        /* \"#utility.yul\":10894:10915   */\n      or\n        /* \"#utility.yul\":10886:10915   */\n      swap1\n      pop\n        /* \"#utility.yul\":10626:10921   */\n      swap3\n      swap2\n      pop\n      pop\n      jump\t// out\n        /* \"#utility.yul\":10926:12321   */\n    tag_29:\n        /* \"#utility.yul\":11043:11080   */\n      tag_231\n        /* \"#utility.yul\":11076:11079   */\n      dup3\n        /* \"#utility.yul\":11043:11080   */\n      tag_83\n      jump\t// in\n    tag_231:\n        /* \"#utility.yul\":11145:11163   */\n      0xffffffffffffffff\n        /* \"#utility.yul\":11137:11143   */\n      dup2\n        /* \"#utility.yul\":11134:11164   */\n      gt\n        /* \"#utility.yul\":11131:11187   */\n      iszero\n      tag_232\n      jumpi\n        /* \"#utility.yul\":11167:11185   */\n      tag_233\n      tag_70\n      jump\t// in\n    tag_233:\n        /* \"#utility.yul\":11131:11187   */\n    tag_232:\n        /* \"#utility.yul\":11211:11249   */\n      tag_234\n        /* \"#utility.yul\":11243:11247   */\n      dup3\n        /* \"#utility.yul\":11237:11248   */\n      sload\n        /* \"#utility.yul\":11211:11249   */\n      tag_46\n      jump\t// in\n    tag_234:\n        /* \"#utility.yul\":11296:11363   */\n      tag_235\n        /* \"#utility.yul\":11356:11362   */\n      dup3\n        /* \"#utility.yul\":11348:11354   */\n      dup3\n        /* \"#utility.yul\":11342:11346   */\n      dup6\n        /* \"#utility.yul\":11296:11363   */\n      tag_99\n      jump\t// in\n    tag_235:\n        /* \"#utility.yul\":11390:11391   */\n      0x00\n        /* \"#utility.yul\":11414:11418   */\n      0x20\n        /* \"#utility.yul\":11401:11418   */\n      swap1\n      pop\n        /* \"#utility.yul\":11446:11448   */\n      0x1f\n        /* \"#utility.yul\":11438:11444   */\n      dup4\n        /* \"#utility.yul\":11435:11449   */\n      gt\n        /* \"#utility.yul\":11463:11464   */\n      0x01\n        /* \"#utility.yul\":11458:12076   */\n      dup2\n      eq\n      tag_237\n      jumpi\n        /* \"#utility.yul\":12120:12121   */\n      0x00\n        /* \"#utility.yul\":12137:12143   */\n      dup5\n        /* \"#utility.yul\":12134:12211   */\n      iszero\n      tag_238\n      jumpi\n        /* \"#utility.yul\":12186:12195   */\n      dup3\n        /* \"#utility.yul\":12181:12184   */\n      dup8\n        /* \"#utility.yul\":12177:12196   */\n      add\n        /* \"#utility.yul\":12171:12197   */\n      mload\n        /* \"#utility.yul\":12162:12197   */\n      swap1\n      pop\n        /* \"#utility.yul\":12134:12211   */\n    tag_238:\n        /* \"#utility.yul\":12237:12304   */\n      tag_239\n        /* \"#utility.yul\":12297:12303   */\n      dup6\n        /* \"#utility.yul\":12290:12295   */\n      dup3\n        /* \"#utility.yul\":12237:12304   */\n      tag_102\n      jump\t// in\n    tag_239:\n        /* \"#utility.yul\":12231:12235   */\n      dup7\n        /* \"#utility.yul\":12224:12305   */\n      sstore\n        /* \"#utility.yul\":12093:12315   */\n      pop\n        /* \"#utility.yul\":11428:12315   */\n      jump(tag_236)\n        /* \"#utility.yul\":11458:12076   */\n    tag_237:\n        /* \"#utility.yul\":11510:11514   */\n      0x1f\n        /* \"#utility.yul\":11506:11515   */\n      not\n        /* \"#utility.yul\":11498:11504   */\n      dup5\n        /* \"#utility.yul\":11494:11516   */\n      and\n        /* \"#utility.yul\":11544:11581   */\n      tag_240\n        /* \"#utility.yul\":11576:11580   */\n      dup7\n        /* \"#utility.yul\":11544:11581   */\n      tag_88\n      jump\t// in\n    tag_240:\n        /* \"#utility.yul\":11603:11604   */\n      0x00\n        /* \"#utility.yul\":11617:11825   */\n    tag_241:\n        /* \"#utility.yul\":11631:11638   */\n      dup3\n        /* \"#utility.yul\":11628:11629   */\n      dup2\n        /* \"#utility.yul\":11625:11639   */\n      lt\n        /* \"#utility.yul\":11617:11825   */\n      iszero\n      tag_243\n      jumpi\n        /* \"#utility.yul\":11710:11719   */\n      dup5\n        /* \"#utility.yul\":11705:11708   */\n      dup10\n        /* \"#utility.yul\":11701:11720   */\n      add\n        /* \"#utility.yul\":11695:11721   */\n      mload\n        /* \"#utility.yul\":11687:11693   */\n      dup3\n        /* \"#utility.yul\":11680:11722   */\n      sstore\n        /* \"#utility.yul\":11761:11762   */\n      0x01\n        /* \"#utility.yul\":11753:11759   */\n      dup3\n        /* \"#utility.yul\":11749:11763   */\n      add\n        /* \"#utility.yul\":11739:11763   */\n      swap2\n      pop\n        /* \"#utility.yul\":11808:11810   */\n      0x20\n        /* \"#utility.yul\":11797:11806   */\n      dup6\n        /* \"#utility.yul\":11793:11811   */\n      add\n        /* \"#utility.yul\":11780:11811   */\n      swap5\n      pop\n        /* \"#utility.yul\":11654:11658   */\n      0x20\n        /* \"#utility.yul\":11651:11652   */\n      dup2\n        /* \"#utility.yul\":11647:11659   */\n      add\n        /* \"#utility.yul\":11642:11659   */\n      swap1\n      pop\n        /* \"#utility.yul\":11617:11825   */\n      jump(tag_241)\n    tag_243:\n        /* \"#utility.yul\":11853:11859   */\n      dup7\n        /* \"#utility.yul\":11844:11851   */\n      dup4\n        /* \"#utility.yul\":11841:11860   */\n      lt\n        /* \"#utility.yul\":11838:12017   */\n      iszero\n      tag_244\n      jumpi\n        /* \"#utility.yul\":11911:11920   */\n      dup5\n        /* \"#utility.yul\":11906:11909   */\n      dup10\n        /* \"#utility.yul\":11902:11921   */\n      add\n        /* \"#utility.yul\":11896:11922   */\n      mload\n        /* \"#utility.yul\":11954:12002   */\n      tag_245\n        /* \"#utility.yul\":11996:12000   */\n      0x1f\n        /* \"#utility.yul\":11988:11994   */\n      dup10\n        /* \"#utility.yul\":11984:12001   */\n      and\n        /* \"#utility.yul\":11973:11982   */\n      dup3\n        /* \"#utility.yul\":11954:12002   */\n      tag_101\n      jump\t// in\n    tag_245:\n        /* \"#utility.yul\":11946:11952   */\n      dup4\n        /* \"#utility.yul\":11939:12003   */\n      sstore\n        /* \"#utility.yul\":11861:12017   */\n      pop\n        /* \"#utility.yul\":11838:12017   */\n    tag_244:\n        /* \"#utility.yul\":12063:12064   */\n      0x01\n        /* \"#utility.yul\":12059:12060   */\n      0x02\n        /* \"#utility.yul\":12051:12057   */\n      dup9\n        /* \"#utility.yul\":12047:12061   */\n      mul\n        /* \"#utility.yul\":12043:12065   */\n      add\n        /* \"#utility.yul\":12037:12041   */\n      dup9\n        /* \"#utility.yul\":12030:12066   */\n      sstore\n        /* \"#utility.yul\":11465:12076   */\n      pop\n      pop\n      pop\n        /* \"#utility.yul\":11428:12315   */\n    tag_236:\n      pop\n        /* \"#utility.yul\":11018:12321   */\n      pop\n      pop\n      pop\n        /* \"#utility.yul\":10926:12321   */\n      pop\n      pop\n      jump\t// out\n        /* \"#utility.yul\":12327:12501   */\n    tag_103:\n        /* \"#utility.yul\":12467:12493   */\n      0x50726f7065727479206973206e6f7420666f722073616c650000000000000000\n        /* \"#utility.yul\":12463:12464   */\n      0x00\n        /* \"#utility.yul\":12455:12461   */\n      dup3\n        /* \"#utility.yul\":12451:12465   */\n      add\n        /* \"#utility.yul\":12444:12494   */\n      mstore\n        /* \"#utility.yul\":12327:12501   */\n      pop\n      jump\t// out\n        /* \"#utility.yul\":12507:12873   */\n    tag_104:\n        /* \"#utility.yul\":12649:12652   */\n      0x00\n        /* \"#utility.yul\":12670:12737   */\n      tag_248\n        /* \"#utility.yul\":12734:12736   */\n      0x18\n        /* \"#utility.yul\":12729:12732   */\n      dup4\n        /* \"#utility.yul\":12670:12737   */\n      tag_84\n      jump\t// in\n    tag_248:\n        /* \"#utility.yul\":12663:12737   */\n      swap2\n      pop\n        /* \"#utility.yul\":12746:12839   */\n      tag_249\n        /* \"#utility.yul\":12835:12838   */\n      dup3\n        /* \"#utility.yul\":12746:12839   */\n      tag_103\n      jump\t// in\n    tag_249:\n        /* \"#utility.yul\":12864:12866   */\n      0x20\n        /* \"#utility.yul\":12859:12862   */\n      dup3\n        /* \"#utility.yul\":12855:12867   */\n      add\n        /* \"#utility.yul\":12848:12867   */\n      swap1\n      pop\n        /* \"#utility.yul\":12507:12873   */\n      swap2\n      swap1\n      pop\n      jump\t// out\n        /* \"#utility.yul\":12879:13298   */\n    tag_36:\n        /* \"#utility.yul\":13045:13049   */\n      0x00\n        /* \"#utility.yul\":13083:13085   */\n      0x20\n        /* \"#utility.yul\":13072:13081   */\n      dup3\n        /* \"#utility.yul\":13068:13086   */\n      add\n        /* \"#utility.yul\":13060:13086   */\n      swap1\n      pop\n        /* \"#utility.yul\":13132:13141   */\n      dup2\n        /* \"#utility.yul\":13126:13130   */\n      dup2\n        /* \"#utility.yul\":13122:13142   */\n      sub\n        /* \"#utility.yul\":13118:13119   */\n      0x00\n        /* \"#utility.yul\":13107:13116   */\n      dup4\n        /* \"#utility.yul\":13103:13120   */\n      add\n        /* \"#utility.yul\":13096:13143   */\n      mstore\n        /* \"#utility.yul\":13160:13291   */\n      tag_251\n        /* \"#utility.yul\":13286:13290   */\n      dup2\n        /* \"#utility.yul\":13160:13291   */\n      tag_104\n      jump\t// in\n    tag_251:\n        /* \"#utility.yul\":13152:13291   */\n      swap1\n      pop\n        /* \"#utility.yul\":12879:13298   */\n      swap2\n      swap1\n      pop\n      jump\t// out\n        /* \"#utility.yul\":13304:13472   */\n    tag_105:\n        /* \"#utility.yul\":13444:13464   */\n      0x496e73756666696369656e742066756e64730000000000000000000000000000\n        /* \"#utility.yul\":13440:13441   */\n      0x00\n        /* \"#utility.yul\":13432:13438   */\n      dup3\n        /* \"#utility.yul\":13428:13442   */\n      add\n        /* \"#utility.yul\":13421:13465   */\n      mstore\n        /* \"#utility.yul\":13304:13472   */\n      pop\n      jump\t// out\n        /* \"#utility.yul\":13478:13844   */\n    tag_106:\n        /* \"#utility.yul\":13620:13623   */\n      0x00\n        /* \"#utility.yul\":13641:13708   */\n      tag_254\n        /* \"#utility.yul\":13705:13707   */\n      0x12\n        /* \"#utility.yul\":13700:13703   */\n      dup4\n        /* \"#utility.yul\":13641:13708   */\n      tag_84\n      jump\t// in\n    tag_254:\n        /* \"#utility.yul\":13634:13708   */\n      swap2\n      pop\n        /* \"#utility.yul\":13717:13810   */\n      tag_255\n        /* \"#utility.yul\":13806:13809   */\n      dup3\n        /* \"#utility.yul\":13717:13810   */\n      tag_105\n      jump\t// in\n    tag_255:\n        /* \"#utility.yul\":13835:13837   */\n      0x20\n        /* \"#utility.yul\":13830:13833   */\n      dup3\n        /* \"#utility.yul\":13826:13838   */\n      add\n        /* \"#utility.yul\":13819:13838   */\n      swap1\n      pop\n        /* \"#utility.yul\":13478:13844   */\n      swap2\n      swap1\n      pop\n      jump\t// out\n        /* \"#utility.yul\":13850:14269   */\n    tag_39:\n        /* \"#utility.yul\":14016:14020   */\n      0x00\n        /* \"#utility.yul\":14054:14056   */\n      0x20\n        /* \"#utility.yul\":14043:14052   */\n      dup3\n        /* \"#utility.yul\":14039:14057   */\n      add\n        /* \"#utility.yul\":14031:14057   */\n      swap1\n      pop\n        /* \"#utility.yul\":14103:14112   */\n      dup2\n        /* \"#utility.yul\":14097:14101   */\n      dup2\n        /* \"#utility.yul\":14093:14113   */\n      sub\n        /* \"#utility.yul\":14089:14090   */\n      0x00\n        /* \"#utility.yul\":14078:14087   */\n      dup4\n        /* \"#utility.yul\":14074:14091   */\n      add\n        /* \"#utility.yul\":14067:14114   */\n      mstore\n        /* \"#utility.yul\":14131:14262   */\n      tag_257\n        /* \"#utility.yul\":14257:14261   */\n      dup2\n        /* \"#utility.yul\":14131:14262   */\n      tag_106\n      jump\t// in\n    tag_257:\n        /* \"#utility.yul\":14123:14262   */\n      swap1\n      pop\n        /* \"#utility.yul\":13850:14269   */\n      swap2\n      swap1\n      pop\n      jump\t// out\n\n    auxdata: 0xa2646970667358221220e14f730c0bd036d4121cb8cd5c902ee330c758e3371c9c66086201122f681c1b64736f6c634300081a0033\n}\n",
				"bytecode": {
					"linkReferences": {},
					"object": "6080604052348015600e575f80fd5b50610d9a8061001c5f395ff3fe60806040526004361061003e575f3560e01c8063611cf614146100425780636fa830a61461006a578063d03b47f414610086578063f7b10808146100c2575b5f80fd5b34801561004d575f80fd5b5061006860048036038101906100639190610780565b610103565b005b610084600480360381019061007f919061084b565b61023e565b005b348015610091575f80fd5b506100ac60048036038101906100a7919061084b565b6103eb565b6040516100b99190610885565b60405180910390f35b3480156100cd575f80fd5b506100e860048036038101906100e3919061084b565b61040b565b6040516100fa96959493929190610957565b60405180910390f35b5f6040518060c001604052808681526020013373ffffffffffffffffffffffffffffffffffffffff168152602001600115158152602001858152602001848152602001838152509050805f808881526020019081526020015f205f820151815f01556020820151816001015f6101000a81548173ffffffffffffffffffffffffffffffffffffffff021916908373ffffffffffffffffffffffffffffffffffffffff16021790555060408201518160010160146101000a81548160ff02191690831515021790555060608201518160020190816101e09190610bc5565b5060808201518160030190816101f69190610bc5565b5060a082015181600401908161020c9190610bc5565b50905050600186908060018154018082558091505060019003905f5260205f20015f9091909190915055505050505050565b5f805f8381526020019081526020015f2090508060010160149054906101000a900460ff166102a2576040517f08c379a000000000000000000000000000000000000000000000000000000000815260040161029990610cde565b60405180910390fd5b34815f015411156102e8576040517f08c379a00000000000000000000000000000000000000000000000000000000081526004016102df90610d46565b60405180910390fd5b33816001015f6101000a81548173ffffffffffffffffffffffffffffffffffffffff021916908373ffffffffffffffffffffffffffffffffffffffff1602179055505f8160010160146101000a81548160ff021916908315150217905550806001015f9054906101000a900473ffffffffffffffffffffffffffffffffffffffff1673ffffffffffffffffffffffffffffffffffffffff166108fc825f015490811502906040515f60405180830381858888f193505050501580156103af573d5f803e3d5ffd5b507fca00b0637134f6563551ffb097ffc572f30140029b94a4a1e7ef423b475a894f826040516103df9190610885565b60405180910390a15050565b600181815481106103fa575f80fd5b905f5260205f20015f915090505481565b5f602052805f5260405f205f91509050805f015490806001015f9054906101000a900473ffffffffffffffffffffffffffffffffffffffff16908060010160149054906101000a900460ff1690806002018054610467906109f8565b80601f0160208091040260200160405190810160405280929190818152602001828054610493906109f8565b80156104de5780601f106104b5576101008083540402835291602001916104de565b820191905f5260205f20905b8154815290600101906020018083116104c157829003601f168201915b5050505050908060030180546104f3906109f8565b80601f016020809104026020016040519081016040528092919081815260200182805461051f906109f8565b801561056a5780601f106105415761010080835404028352916020019161056a565b820191905f5260205f20905b81548152906001019060200180831161054d57829003601f168201915b50505050509080600401805461057f906109f8565b80601f01602080910402602001604051908101604052809291908181526020018280546105ab906109f8565b80156105f65780601f106105cd576101008083540402835291602001916105f6565b820191905f5260205f20905b8154815290600101906020018083116105d957829003601f168201915b5050505050905086565b5f604051905090565b5f80fd5b5f80fd5b5f819050919050565b61062381610611565b811461062d575f80fd5b50565b5f8135905061063e8161061a565b92915050565b5f80fd5b5f80fd5b5f601f19601f8301169050919050565b7f4e487b71000000000000000000000000000000000000000000000000000000005f52604160045260245ffd5b6106928261064c565b810181811067ffffffffffffffff821117156106b1576106b061065c565b5b80604052505050565b5f6106c3610600565b90506106cf8282610689565b919050565b5f67ffffffffffffffff8211156106ee576106ed61065c565b5b6106f78261064c565b9050602081019050919050565b828183375f83830152505050565b5f61072461071f846106d4565b6106ba565b9050828152602081018484840111156107405761073f610648565b5b61074b848285610704565b509392505050565b5f82601f83011261076757610766610644565b5b8135610777848260208601610712565b91505092915050565b5f805f805f60a0868803121561079957610798610609565b5b5f6107a688828901610630565b95505060206107b788828901610630565b945050604086013567ffffffffffffffff8111156107d8576107d761060d565b5b6107e488828901610753565b935050606086013567ffffffffffffffff8111156108055761080461060d565b5b61081188828901610753565b925050608086013567ffffffffffffffff8111156108325761083161060d565b5b61083e88828901610753565b9150509295509295909350565b5f602082840312156108605761085f610609565b5b5f61086d84828501610630565b91505092915050565b61087f81610611565b82525050565b5f6020820190506108985f830184610876565b92915050565b5f73ffffffffffffffffffffffffffffffffffffffff82169050919050565b5f6108c78261089e565b9050919050565b6108d7816108bd565b82525050565b5f8115159050919050565b6108f1816108dd565b82525050565b5f81519050919050565b5f82825260208201905092915050565b8281835e5f83830152505050565b5f610929826108f7565b6109338185610901565b9350610943818560208601610911565b61094c8161064c565b840191505092915050565b5f60c08201905061096a5f830189610876565b61097760208301886108ce565b61098460408301876108e8565b8181036060830152610996818661091f565b905081810360808301526109aa818561091f565b905081810360a08301526109be818461091f565b9050979650505050505050565b7f4e487b71000000000000000000000000000000000000000000000000000000005f52602260045260245ffd5b5f6002820490506001821680610a0f57607f821691505b602082108103610a2257610a216109cb565b5b50919050565b5f819050815f5260205f209050919050565b5f6020601f8301049050919050565b5f82821b905092915050565b5f60088302610a847fffffffffffffffffffffffffffffffffffffffffffffffffffffffffffffffff82610a49565b610a8e8683610a49565b95508019841693508086168417925050509392505050565b5f819050919050565b5f610ac9610ac4610abf84610611565b610aa6565b610611565b9050919050565b5f819050919050565b610ae283610aaf565b610af6610aee82610ad0565b848454610a55565b825550505050565b5f90565b610b0a610afe565b610b15818484610ad9565b505050565b5b81811015610b3857610b2d5f82610b02565b600181019050610b1b565b5050565b601f821115610b7d57610b4e81610a28565b610b5784610a3a565b81016020851015610b66578190505b610b7a610b7285610a3a565b830182610b1a565b50505b505050565b5f82821c905092915050565b5f610b9d5f1984600802610b82565b1980831691505092915050565b5f610bb58383610b8e565b9150826002028217905092915050565b610bce826108f7565b67ffffffffffffffff811115610be757610be661065c565b5b610bf182546109f8565b610bfc828285610b3c565b5f60209050601f831160018114610c2d575f8415610c1b578287015190505b610c258582610baa565b865550610c8c565b601f198416610c3b86610a28565b5f5b82811015610c6257848901518255600182019150602085019450602081019050610c3d565b86831015610c7f5784890151610c7b601f891682610b8e565b8355505b6001600288020188555050505b505050505050565b7f50726f7065727479206973206e6f7420666f722073616c6500000000000000005f82015250565b5f610cc8601883610901565b9150610cd382610c94565b602082019050919050565b5f6020820190508181035f830152610cf581610cbc565b9050919050565b7f496e73756666696369656e742066756e647300000000000000000000000000005f82015250565b5f610d30601283610901565b9150610d3b82610cfc565b602082019050919050565b5f6020820190508181035f830152610d5d81610d24565b905091905056fea2646970667358221220e14f730c0bd036d4121cb8cd5c902ee330c758e3371c9c66086201122f681c1b64736f6c634300081a0033",
					"opcodes": "PUSH1 0x80 PUSH1 0x40 MSTORE CALLVALUE DUP1 ISZERO PUSH1 0xE JUMPI PUSH0 DUP1 REVERT JUMPDEST POP PUSH2 0xD9A DUP1 PUSH2 0x1C PUSH0 CODECOPY PUSH0 RETURN INVALID PUSH1 0x80 PUSH1 0x40 MSTORE PUSH1 0x4 CALLDATASIZE LT PUSH2 0x3E JUMPI PUSH0 CALLDATALOAD PUSH1 0xE0 SHR DUP1 PUSH4 0x611CF614 EQ PUSH2 0x42 JUMPI DUP1 PUSH4 0x6FA830A6 EQ PUSH2 0x6A JUMPI DUP1 PUSH4 0xD03B47F4 EQ PUSH2 0x86 JUMPI DUP1 PUSH4 0xF7B10808 EQ PUSH2 0xC2 JUMPI JUMPDEST PUSH0 DUP1 REVERT JUMPDEST CALLVALUE DUP1 ISZERO PUSH2 0x4D JUMPI PUSH0 DUP1 REVERT JUMPDEST POP PUSH2 0x68 PUSH1 0x4 DUP1 CALLDATASIZE SUB DUP2 ADD SWAP1 PUSH2 0x63 SWAP2 SWAP1 PUSH2 0x780 JUMP JUMPDEST PUSH2 0x103 JUMP JUMPDEST STOP JUMPDEST PUSH2 0x84 PUSH1 0x4 DUP1 CALLDATASIZE SUB DUP2 ADD SWAP1 PUSH2 0x7F SWAP2 SWAP1 PUSH2 0x84B JUMP JUMPDEST PUSH2 0x23E JUMP JUMPDEST STOP JUMPDEST CALLVALUE DUP1 ISZERO PUSH2 0x91 JUMPI PUSH0 DUP1 REVERT JUMPDEST POP PUSH2 0xAC PUSH1 0x4 DUP1 CALLDATASIZE SUB DUP2 ADD SWAP1 PUSH2 0xA7 SWAP2 SWAP1 PUSH2 0x84B JUMP JUMPDEST PUSH2 0x3EB JUMP JUMPDEST PUSH1 0x40 MLOAD PUSH2 0xB9 SWAP2 SWAP1 PUSH2 0x885 JUMP JUMPDEST PUSH1 0x40 MLOAD DUP1 SWAP2 SUB SWAP1 RETURN JUMPDEST CALLVALUE DUP1 ISZERO PUSH2 0xCD JUMPI PUSH0 DUP1 REVERT JUMPDEST POP PUSH2 0xE8 PUSH1 0x4 DUP1 CALLDATASIZE SUB DUP2 ADD SWAP1 PUSH2 0xE3 SWAP2 SWAP1 PUSH2 0x84B JUMP JUMPDEST PUSH2 0x40B JUMP JUMPDEST PUSH1 0x40 MLOAD PUSH2 0xFA SWAP7 SWAP6 SWAP5 SWAP4 SWAP3 SWAP2 SWAP1 PUSH2 0x957 JUMP JUMPDEST PUSH1 0x40 MLOAD DUP1 SWAP2 SUB SWAP1 RETURN JUMPDEST PUSH0 PUSH1 0x40 MLOAD DUP1 PUSH1 0xC0 ADD PUSH1 0x40 MSTORE DUP1 DUP7 DUP2 MSTORE PUSH1 0x20 ADD CALLER PUSH20 0xFFFFFFFFFFFFFFFFFFFFFFFFFFFFFFFFFFFFFFFF AND DUP2 MSTORE PUSH1 0x20 ADD PUSH1 0x1 ISZERO ISZERO DUP2 MSTORE PUSH1 0x20 ADD DUP6 DUP2 MSTORE PUSH1 0x20 ADD DUP5 DUP2 MSTORE PUSH1 0x20 ADD DUP4 DUP2 MSTORE POP SWAP1 POP DUP1 PUSH0 DUP1 DUP9 DUP2 MSTORE PUSH1 0x20 ADD SWAP1 DUP2 MSTORE PUSH1 0x20 ADD PUSH0 KECCAK256 PUSH0 DUP3 ADD MLOAD DUP2 PUSH0 ADD SSTORE PUSH1 0x20 DUP3 ADD MLOAD DUP2 PUSH1 0x1 ADD PUSH0 PUSH2 0x100 EXP DUP2 SLOAD DUP2 PUSH20 0xFFFFFFFFFFFFFFFFFFFFFFFFFFFFFFFFFFFFFFFF MUL NOT AND SWAP1 DUP4 PUSH20 0xFFFFFFFFFFFFFFFFFFFFFFFFFFFFFFFFFFFFFFFF AND MUL OR SWAP1 SSTORE POP PUSH1 0x40 DUP3 ADD MLOAD DUP2 PUSH1 0x1 ADD PUSH1 0x14 PUSH2 0x100 EXP DUP2 SLOAD DUP2 PUSH1 0xFF MUL NOT AND SWAP1 DUP4 ISZERO ISZERO MUL OR SWAP1 SSTORE POP PUSH1 0x60 DUP3 ADD MLOAD DUP2 PUSH1 0x2 ADD SWAP1 DUP2 PUSH2 0x1E0 SWAP2 SWAP1 PUSH2 0xBC5 JUMP JUMPDEST POP PUSH1 0x80 DUP3 ADD MLOAD DUP2 PUSH1 0x3 ADD SWAP1 DUP2 PUSH2 0x1F6 SWAP2 SWAP1 PUSH2 0xBC5 JUMP JUMPDEST POP PUSH1 0xA0 DUP3 ADD MLOAD DUP2 PUSH1 0x4 ADD SWAP1 DUP2 PUSH2 0x20C SWAP2 SWAP1 PUSH2 0xBC5 JUMP JUMPDEST POP SWAP1 POP POP PUSH1 0x1 DUP7 SWAP1 DUP1 PUSH1 0x1 DUP2 SLOAD ADD DUP1 DUP3 SSTORE DUP1 SWAP2 POP POP PUSH1 0x1 SWAP1 SUB SWAP1 PUSH0 MSTORE PUSH1 0x20 PUSH0 KECCAK256 ADD PUSH0 SWAP1 SWAP2 SWAP1 SWAP2 SWAP1 SWAP2 POP SSTORE POP POP POP POP POP POP JUMP JUMPDEST PUSH0 DUP1 PUSH0 DUP4 DUP2 MSTORE PUSH1 0x20 ADD SWAP1 DUP2 MSTORE PUSH1 0x20 ADD PUSH0 KECCAK256 SWAP1 POP DUP1 PUSH1 0x1 ADD PUSH1 0x14 SWAP1 SLOAD SWAP1 PUSH2 0x100 EXP SWAP1 DIV PUSH1 0xFF AND PUSH2 0x2A2 JUMPI PUSH1 0x40 MLOAD PUSH32 0x8C379A000000000000000000000000000000000000000000000000000000000 DUP2 MSTORE PUSH1 0x4 ADD PUSH2 0x299 SWAP1 PUSH2 0xCDE JUMP JUMPDEST PUSH1 0x40 MLOAD DUP1 SWAP2 SUB SWAP1 REVERT JUMPDEST CALLVALUE DUP2 PUSH0 ADD SLOAD GT ISZERO PUSH2 0x2E8 JUMPI PUSH1 0x40 MLOAD PUSH32 0x8C379A000000000000000000000000000000000000000000000000000000000 DUP2 MSTORE PUSH1 0x4 ADD PUSH2 0x2DF SWAP1 PUSH2 0xD46 JUMP JUMPDEST PUSH1 0x40 MLOAD DUP1 SWAP2 SUB SWAP1 REVERT JUMPDEST CALLER DUP2 PUSH1 0x1 ADD PUSH0 PUSH2 0x100 EXP DUP2 SLOAD DUP2 PUSH20 0xFFFFFFFFFFFFFFFFFFFFFFFFFFFFFFFFFFFFFFFF MUL NOT AND SWAP1 DUP4 PUSH20 0xFFFFFFFFFFFFFFFFFFFFFFFFFFFFFFFFFFFFFFFF AND MUL OR SWAP1 SSTORE POP PUSH0 DUP2 PUSH1 0x1 ADD PUSH1 0x14 PUSH2 0x100 EXP DUP2 SLOAD DUP2 PUSH1 0xFF MUL NOT AND SWAP1 DUP4 ISZERO ISZERO MUL OR SWAP1 SSTORE POP DUP1 PUSH1 0x1 ADD PUSH0 SWAP1 SLOAD SWAP1 PUSH2 0x100 EXP SWAP1 DIV PUSH20 0xFFFFFFFFFFFFFFFFFFFFFFFFFFFFFFFFFFFFFFFF AND PUSH20 0xFFFFFFFFFFFFFFFFFFFFFFFFFFFFFFFFFFFFFFFF AND PUSH2 0x8FC DUP3 PUSH0 ADD SLOAD SWAP1 DUP2 ISZERO MUL SWAP1 PUSH1 0x40 MLOAD PUSH0 PUSH1 0x40 MLOAD DUP1 DUP4 SUB DUP2 DUP6 DUP9 DUP9 CALL SWAP4 POP POP POP POP ISZERO DUP1 ISZERO PUSH2 0x3AF JUMPI RETURNDATASIZE PUSH0 DUP1 RETURNDATACOPY RETURNDATASIZE PUSH0 REVERT JUMPDEST POP PUSH32 0xCA00B0637134F6563551FFB097FFC572F30140029B94A4A1E7EF423B475A894F DUP3 PUSH1 0x40 MLOAD PUSH2 0x3DF SWAP2 SWAP1 PUSH2 0x885 JUMP JUMPDEST PUSH1 0x40 MLOAD DUP1 SWAP2 SUB SWAP1 LOG1 POP POP JUMP JUMPDEST PUSH1 0x1 DUP2 DUP2 SLOAD DUP2 LT PUSH2 0x3FA JUMPI PUSH0 DUP1 REVERT JUMPDEST SWAP1 PUSH0 MSTORE PUSH1 0x20 PUSH0 KECCAK256 ADD PUSH0 SWAP2 POP SWAP1 POP SLOAD DUP2 JUMP JUMPDEST PUSH0 PUSH1 0x20 MSTORE DUP1 PUSH0 MSTORE PUSH1 0x40 PUSH0 KECCAK256 PUSH0 SWAP2 POP SWAP1 POP DUP1 PUSH0 ADD SLOAD SWAP1 DUP1 PUSH1 0x1 ADD PUSH0 SWAP1 SLOAD SWAP1 PUSH2 0x100 EXP SWAP1 DIV PUSH20 0xFFFFFFFFFFFFFFFFFFFFFFFFFFFFFFFFFFFFFFFF AND SWAP1 DUP1 PUSH1 0x1 ADD PUSH1 0x14 SWAP1 SLOAD SWAP1 PUSH2 0x100 EXP SWAP1 DIV PUSH1 0xFF AND SWAP1 DUP1 PUSH1 0x2 ADD DUP1 SLOAD PUSH2 0x467 SWAP1 PUSH2 0x9F8 JUMP JUMPDEST DUP1 PUSH1 0x1F ADD PUSH1 0x20 DUP1 SWAP2 DIV MUL PUSH1 0x20 ADD PUSH1 0x40 MLOAD SWAP1 DUP2 ADD PUSH1 0x40 MSTORE DUP1 SWAP3 SWAP2 SWAP1 DUP2 DUP2 MSTORE PUSH1 0x20 ADD DUP3 DUP1 SLOAD PUSH2 0x493 SWAP1 PUSH2 0x9F8 JUMP JUMPDEST DUP1 ISZERO PUSH2 0x4DE JUMPI DUP1 PUSH1 0x1F LT PUSH2 0x4B5 JUMPI PUSH2 0x100 DUP1 DUP4 SLOAD DIV MUL DUP4 MSTORE SWAP2 PUSH1 0x20 ADD SWAP2 PUSH2 0x4DE JUMP JUMPDEST DUP3 ADD SWAP2 SWAP1 PUSH0 MSTORE PUSH1 0x20 PUSH0 KECCAK256 SWAP1 JUMPDEST DUP2 SLOAD DUP2 MSTORE SWAP1 PUSH1 0x1 ADD SWAP1 PUSH1 0x20 ADD DUP1 DUP4 GT PUSH2 0x4C1 JUMPI DUP3 SWAP1 SUB PUSH1 0x1F AND DUP3 ADD SWAP2 JUMPDEST POP POP POP POP POP SWAP1 DUP1 PUSH1 0x3 ADD DUP1 SLOAD PUSH2 0x4F3 SWAP1 PUSH2 0x9F8 JUMP JUMPDEST DUP1 PUSH1 0x1F ADD PUSH1 0x20 DUP1 SWAP2 DIV MUL PUSH1 0x20 ADD PUSH1 0x40 MLOAD SWAP1 DUP2 ADD PUSH1 0x40 MSTORE DUP1 SWAP3 SWAP2 SWAP1 DUP2 DUP2 MSTORE PUSH1 0x20 ADD DUP3 DUP1 SLOAD PUSH2 0x51F SWAP1 PUSH2 0x9F8 JUMP JUMPDEST DUP1 ISZERO PUSH2 0x56A JUMPI DUP1 PUSH1 0x1F LT PUSH2 0x541 JUMPI PUSH2 0x100 DUP1 DUP4 SLOAD DIV MUL DUP4 MSTORE SWAP2 PUSH1 0x20 ADD SWAP2 PUSH2 0x56A JUMP JUMPDEST DUP3 ADD SWAP2 SWAP1 PUSH0 MSTORE PUSH1 0x20 PUSH0 KECCAK256 SWAP1 JUMPDEST DUP2 SLOAD DUP2 MSTORE SWAP1 PUSH1 0x1 ADD SWAP1 PUSH1 0x20 ADD DUP1 DUP4 GT PUSH2 0x54D JUMPI DUP3 SWAP1 SUB PUSH1 0x1F AND DUP3 ADD SWAP2 JUMPDEST POP POP POP POP POP SWAP1 DUP1 PUSH1 0x4 ADD DUP1 SLOAD PUSH2 0x57F SWAP1 PUSH2 0x9F8 JUMP JUMPDEST DUP1 PUSH1 0x1F ADD PUSH1 0x20 DUP1 SWAP2 DIV MUL PUSH1 0x20 ADD PUSH1 0x40 MLOAD SWAP1 DUP2 ADD PUSH1 0x40 MSTORE DUP1 SWAP3 SWAP2 SWAP1 DUP2 DUP2 MSTORE PUSH1 0x20 ADD DUP3 DUP1 SLOAD PUSH2 0x5AB SWAP1 PUSH2 0x9F8 JUMP JUMPDEST DUP1 ISZERO PUSH2 0x5F6 JUMPI DUP1 PUSH1 0x1F LT PUSH2 0x5CD JUMPI PUSH2 0x100 DUP1 DUP4 SLOAD DIV MUL DUP4 MSTORE SWAP2 PUSH1 0x20 ADD SWAP2 PUSH2 0x5F6 JUMP JUMPDEST DUP3 ADD SWAP2 SWAP1 PUSH0 MSTORE PUSH1 0x20 PUSH0 KECCAK256 SWAP1 JUMPDEST DUP2 SLOAD DUP2 MSTORE SWAP1 PUSH1 0x1 ADD SWAP1 PUSH1 0x20 ADD DUP1 DUP4 GT PUSH2 0x5D9 JUMPI DUP3 SWAP1 SUB PUSH1 0x1F AND DUP3 ADD SWAP2 JUMPDEST POP POP POP POP POP SWAP1 POP DUP7 JUMP JUMPDEST PUSH0 PUSH1 0x40 MLOAD SWAP1 POP SWAP1 JUMP JUMPDEST PUSH0 DUP1 REVERT JUMPDEST PUSH0 DUP1 REVERT JUMPDEST PUSH0 DUP2 SWAP1 POP SWAP2 SWAP1 POP JUMP JUMPDEST PUSH2 0x623 DUP2 PUSH2 0x611 JUMP JUMPDEST DUP2 EQ PUSH2 0x62D JUMPI PUSH0 DUP1 REVERT JUMPDEST POP JUMP JUMPDEST PUSH0 DUP2 CALLDATALOAD SWAP1 POP PUSH2 0x63E DUP2 PUSH2 0x61A JUMP JUMPDEST SWAP3 SWAP2 POP POP JUMP JUMPDEST PUSH0 DUP1 REVERT JUMPDEST PUSH0 DUP1 REVERT JUMPDEST PUSH0 PUSH1 0x1F NOT PUSH1 0x1F DUP4 ADD AND SWAP1 POP SWAP2 SWAP1 POP JUMP JUMPDEST PUSH32 0x4E487B7100000000000000000000000000000000000000000000000000000000 PUSH0 MSTORE PUSH1 0x41 PUSH1 0x4 MSTORE PUSH1 0x24 PUSH0 REVERT JUMPDEST PUSH2 0x692 DUP3 PUSH2 0x64C JUMP JUMPDEST DUP2 ADD DUP2 DUP2 LT PUSH8 0xFFFFFFFFFFFFFFFF DUP3 GT OR ISZERO PUSH2 0x6B1 JUMPI PUSH2 0x6B0 PUSH2 0x65C JUMP JUMPDEST JUMPDEST DUP1 PUSH1 0x40 MSTORE POP POP POP JUMP JUMPDEST PUSH0 PUSH2 0x6C3 PUSH2 0x600 JUMP JUMPDEST SWAP1 POP PUSH2 0x6CF DUP3 DUP3 PUSH2 0x689 JUMP JUMPDEST SWAP2 SWAP1 POP JUMP JUMPDEST PUSH0 PUSH8 0xFFFFFFFFFFFFFFFF DUP3 GT ISZERO PUSH2 0x6EE JUMPI PUSH2 0x6ED PUSH2 0x65C JUMP JUMPDEST JUMPDEST PUSH2 0x6F7 DUP3 PUSH2 0x64C JUMP JUMPDEST SWAP1 POP PUSH1 0x20 DUP2 ADD SWAP1 POP SWAP2 SWAP1 POP JUMP JUMPDEST DUP3 DUP2 DUP4 CALLDATACOPY PUSH0 DUP4 DUP4 ADD MSTORE POP POP POP JUMP JUMPDEST PUSH0 PUSH2 0x724 PUSH2 0x71F DUP5 PUSH2 0x6D4 JUMP JUMPDEST PUSH2 0x6BA JUMP JUMPDEST SWAP1 POP DUP3 DUP2 MSTORE PUSH1 0x20 DUP2 ADD DUP5 DUP5 DUP5 ADD GT ISZERO PUSH2 0x740 JUMPI PUSH2 0x73F PUSH2 0x648 JUMP JUMPDEST JUMPDEST PUSH2 0x74B DUP5 DUP3 DUP6 PUSH2 0x704 JUMP JUMPDEST POP SWAP4 SWAP3 POP POP POP JUMP JUMPDEST PUSH0 DUP3 PUSH1 0x1F DUP4 ADD SLT PUSH2 0x767 JUMPI PUSH2 0x766 PUSH2 0x644 JUMP JUMPDEST JUMPDEST DUP2 CALLDATALOAD PUSH2 0x777 DUP5 DUP3 PUSH1 0x20 DUP7 ADD PUSH2 0x712 JUMP JUMPDEST SWAP2 POP POP SWAP3 SWAP2 POP POP JUMP JUMPDEST PUSH0 DUP1 PUSH0 DUP1 PUSH0 PUSH1 0xA0 DUP7 DUP9 SUB SLT ISZERO PUSH2 0x799 JUMPI PUSH2 0x798 PUSH2 0x609 JUMP JUMPDEST JUMPDEST PUSH0 PUSH2 0x7A6 DUP9 DUP3 DUP10 ADD PUSH2 0x630 JUMP JUMPDEST SWAP6 POP POP PUSH1 0x20 PUSH2 0x7B7 DUP9 DUP3 DUP10 ADD PUSH2 0x630 JUMP JUMPDEST SWAP5 POP POP PUSH1 0x40 DUP7 ADD CALLDATALOAD PUSH8 0xFFFFFFFFFFFFFFFF DUP2 GT ISZERO PUSH2 0x7D8 JUMPI PUSH2 0x7D7 PUSH2 0x60D JUMP JUMPDEST JUMPDEST PUSH2 0x7E4 DUP9 DUP3 DUP10 ADD PUSH2 0x753 JUMP JUMPDEST SWAP4 POP POP PUSH1 0x60 DUP7 ADD CALLDATALOAD PUSH8 0xFFFFFFFFFFFFFFFF DUP2 GT ISZERO PUSH2 0x805 JUMPI PUSH2 0x804 PUSH2 0x60D JUMP JUMPDEST JUMPDEST PUSH2 0x811 DUP9 DUP3 DUP10 ADD PUSH2 0x753 JUMP JUMPDEST SWAP3 POP POP PUSH1 0x80 DUP7 ADD CALLDATALOAD PUSH8 0xFFFFFFFFFFFFFFFF DUP2 GT ISZERO PUSH2 0x832 JUMPI PUSH2 0x831 PUSH2 0x60D JUMP JUMPDEST JUMPDEST PUSH2 0x83E DUP9 DUP3 DUP10 ADD PUSH2 0x753 JUMP JUMPDEST SWAP2 POP POP SWAP3 SWAP6 POP SWAP3 SWAP6 SWAP1 SWAP4 POP JUMP JUMPDEST PUSH0 PUSH1 0x20 DUP3 DUP5 SUB SLT ISZERO PUSH2 0x860 JUMPI PUSH2 0x85F PUSH2 0x609 JUMP JUMPDEST JUMPDEST PUSH0 PUSH2 0x86D DUP5 DUP3 DUP6 ADD PUSH2 0x630 JUMP JUMPDEST SWAP2 POP POP SWAP3 SWAP2 POP POP JUMP JUMPDEST PUSH2 0x87F DUP2 PUSH2 0x611 JUMP JUMPDEST DUP3 MSTORE POP POP JUMP JUMPDEST PUSH0 PUSH1 0x20 DUP3 ADD SWAP1 POP PUSH2 0x898 PUSH0 DUP4 ADD DUP5 PUSH2 0x876 JUMP JUMPDEST SWAP3 SWAP2 POP POP JUMP JUMPDEST PUSH0 PUSH20 0xFFFFFFFFFFFFFFFFFFFFFFFFFFFFFFFFFFFFFFFF DUP3 AND SWAP1 POP SWAP2 SWAP1 POP JUMP JUMPDEST PUSH0 PUSH2 0x8C7 DUP3 PUSH2 0x89E JUMP JUMPDEST SWAP1 POP SWAP2 SWAP1 POP JUMP JUMPDEST PUSH2 0x8D7 DUP2 PUSH2 0x8BD JUMP JUMPDEST DUP3 MSTORE POP POP JUMP JUMPDEST PUSH0 DUP2 ISZERO ISZERO SWAP1 POP SWAP2 SWAP1 POP JUMP JUMPDEST PUSH2 0x8F1 DUP2 PUSH2 0x8DD JUMP JUMPDEST DUP3 MSTORE POP POP JUMP JUMPDEST PUSH0 DUP2 MLOAD SWAP1 POP SWAP2 SWAP1 POP JUMP JUMPDEST PUSH0 DUP3 DUP3 MSTORE PUSH1 0x20 DUP3 ADD SWAP1 POP SWAP3 SWAP2 POP POP JUMP JUMPDEST DUP3 DUP2 DUP4 MCOPY PUSH0 DUP4 DUP4 ADD MSTORE POP POP POP JUMP JUMPDEST PUSH0 PUSH2 0x929 DUP3 PUSH2 0x8F7 JUMP JUMPDEST PUSH2 0x933 DUP2 DUP6 PUSH2 0x901 JUMP JUMPDEST SWAP4 POP PUSH2 0x943 DUP2 DUP6 PUSH1 0x20 DUP7 ADD PUSH2 0x911 JUMP JUMPDEST PUSH2 0x94C DUP2 PUSH2 0x64C JUMP JUMPDEST DUP5 ADD SWAP2 POP POP SWAP3 SWAP2 POP POP JUMP JUMPDEST PUSH0 PUSH1 0xC0 DUP3 ADD SWAP1 POP PUSH2 0x96A PUSH0 DUP4 ADD DUP10 PUSH2 0x876 JUMP JUMPDEST PUSH2 0x977 PUSH1 0x20 DUP4 ADD DUP9 PUSH2 0x8CE JUMP JUMPDEST PUSH2 0x984 PUSH1 0x40 DUP4 ADD DUP8 PUSH2 0x8E8 JUMP JUMPDEST DUP2 DUP2 SUB PUSH1 0x60 DUP4 ADD MSTORE PUSH2 0x996 DUP2 DUP7 PUSH2 0x91F JUMP JUMPDEST SWAP1 POP DUP2 DUP2 SUB PUSH1 0x80 DUP4 ADD MSTORE PUSH2 0x9AA DUP2 DUP6 PUSH2 0x91F JUMP JUMPDEST SWAP1 POP DUP2 DUP2 SUB PUSH1 0xA0 DUP4 ADD MSTORE PUSH2 0x9BE DUP2 DUP5 PUSH2 0x91F JUMP JUMPDEST SWAP1 POP SWAP8 SWAP7 POP POP POP POP POP POP POP JUMP JUMPDEST PUSH32 0x4E487B7100000000000000000000000000000000000000000000000000000000 PUSH0 MSTORE PUSH1 0x22 PUSH1 0x4 MSTORE PUSH1 0x24 PUSH0 REVERT JUMPDEST PUSH0 PUSH1 0x2 DUP3 DIV SWAP1 POP PUSH1 0x1 DUP3 AND DUP1 PUSH2 0xA0F JUMPI PUSH1 0x7F DUP3 AND SWAP2 POP JUMPDEST PUSH1 0x20 DUP3 LT DUP2 SUB PUSH2 0xA22 JUMPI PUSH2 0xA21 PUSH2 0x9CB JUMP JUMPDEST JUMPDEST POP SWAP2 SWAP1 POP JUMP JUMPDEST PUSH0 DUP2 SWAP1 POP DUP2 PUSH0 MSTORE PUSH1 0x20 PUSH0 KECCAK256 SWAP1 POP SWAP2 SWAP1 POP JUMP JUMPDEST PUSH0 PUSH1 0x20 PUSH1 0x1F DUP4 ADD DIV SWAP1 POP SWAP2 SWAP1 POP JUMP JUMPDEST PUSH0 DUP3 DUP3 SHL SWAP1 POP SWAP3 SWAP2 POP POP JUMP JUMPDEST PUSH0 PUSH1 0x8 DUP4 MUL PUSH2 0xA84 PUSH32 0xFFFFFFFFFFFFFFFFFFFFFFFFFFFFFFFFFFFFFFFFFFFFFFFFFFFFFFFFFFFFFFFF DUP3 PUSH2 0xA49 JUMP JUMPDEST PUSH2 0xA8E DUP7 DUP4 PUSH2 0xA49 JUMP JUMPDEST SWAP6 POP DUP1 NOT DUP5 AND SWAP4 POP DUP1 DUP7 AND DUP5 OR SWAP3 POP POP POP SWAP4 SWAP3 POP POP POP JUMP JUMPDEST PUSH0 DUP2 SWAP1 POP SWAP2 SWAP1 POP JUMP JUMPDEST PUSH0 PUSH2 0xAC9 PUSH2 0xAC4 PUSH2 0xABF DUP5 PUSH2 0x611 JUMP JUMPDEST PUSH2 0xAA6 JUMP JUMPDEST PUSH2 0x611 JUMP JUMPDEST SWAP1 POP SWAP2 SWAP1 POP JUMP JUMPDEST PUSH0 DUP2 SWAP1 POP SWAP2 SWAP1 POP JUMP JUMPDEST PUSH2 0xAE2 DUP4 PUSH2 0xAAF JUMP JUMPDEST PUSH2 0xAF6 PUSH2 0xAEE DUP3 PUSH2 0xAD0 JUMP JUMPDEST DUP5 DUP5 SLOAD PUSH2 0xA55 JUMP JUMPDEST DUP3 SSTORE POP POP POP POP JUMP JUMPDEST PUSH0 SWAP1 JUMP JUMPDEST PUSH2 0xB0A PUSH2 0xAFE JUMP JUMPDEST PUSH2 0xB15 DUP2 DUP5 DUP5 PUSH2 0xAD9 JUMP JUMPDEST POP POP POP JUMP JUMPDEST JUMPDEST DUP2 DUP2 LT ISZERO PUSH2 0xB38 JUMPI PUSH2 0xB2D PUSH0 DUP3 PUSH2 0xB02 JUMP JUMPDEST PUSH1 0x1 DUP2 ADD SWAP1 POP PUSH2 0xB1B JUMP JUMPDEST POP POP JUMP JUMPDEST PUSH1 0x1F DUP3 GT ISZERO PUSH2 0xB7D JUMPI PUSH2 0xB4E DUP2 PUSH2 0xA28 JUMP JUMPDEST PUSH2 0xB57 DUP5 PUSH2 0xA3A JUMP JUMPDEST DUP2 ADD PUSH1 0x20 DUP6 LT ISZERO PUSH2 0xB66 JUMPI DUP2 SWAP1 POP JUMPDEST PUSH2 0xB7A PUSH2 0xB72 DUP6 PUSH2 0xA3A JUMP JUMPDEST DUP4 ADD DUP3 PUSH2 0xB1A JUMP JUMPDEST POP POP JUMPDEST POP POP POP JUMP JUMPDEST PUSH0 DUP3 DUP3 SHR SWAP1 POP SWAP3 SWAP2 POP POP JUMP JUMPDEST PUSH0 PUSH2 0xB9D PUSH0 NOT DUP5 PUSH1 0x8 MUL PUSH2 0xB82 JUMP JUMPDEST NOT DUP1 DUP4 AND SWAP2 POP POP SWAP3 SWAP2 POP POP JUMP JUMPDEST PUSH0 PUSH2 0xBB5 DUP4 DUP4 PUSH2 0xB8E JUMP JUMPDEST SWAP2 POP DUP3 PUSH1 0x2 MUL DUP3 OR SWAP1 POP SWAP3 SWAP2 POP POP JUMP JUMPDEST PUSH2 0xBCE DUP3 PUSH2 0x8F7 JUMP JUMPDEST PUSH8 0xFFFFFFFFFFFFFFFF DUP2 GT ISZERO PUSH2 0xBE7 JUMPI PUSH2 0xBE6 PUSH2 0x65C JUMP JUMPDEST JUMPDEST PUSH2 0xBF1 DUP3 SLOAD PUSH2 0x9F8 JUMP JUMPDEST PUSH2 0xBFC DUP3 DUP3 DUP6 PUSH2 0xB3C JUMP JUMPDEST PUSH0 PUSH1 0x20 SWAP1 POP PUSH1 0x1F DUP4 GT PUSH1 0x1 DUP2 EQ PUSH2 0xC2D JUMPI PUSH0 DUP5 ISZERO PUSH2 0xC1B JUMPI DUP3 DUP8 ADD MLOAD SWAP1 POP JUMPDEST PUSH2 0xC25 DUP6 DUP3 PUSH2 0xBAA JUMP JUMPDEST DUP7 SSTORE POP PUSH2 0xC8C JUMP JUMPDEST PUSH1 0x1F NOT DUP5 AND PUSH2 0xC3B DUP7 PUSH2 0xA28 JUMP JUMPDEST PUSH0 JUMPDEST DUP3 DUP2 LT ISZERO PUSH2 0xC62 JUMPI DUP5 DUP10 ADD MLOAD DUP3 SSTORE PUSH1 0x1 DUP3 ADD SWAP2 POP PUSH1 0x20 DUP6 ADD SWAP5 POP PUSH1 0x20 DUP2 ADD SWAP1 POP PUSH2 0xC3D JUMP JUMPDEST DUP7 DUP4 LT ISZERO PUSH2 0xC7F JUMPI DUP5 DUP10 ADD MLOAD PUSH2 0xC7B PUSH1 0x1F DUP10 AND DUP3 PUSH2 0xB8E JUMP JUMPDEST DUP4 SSTORE POP JUMPDEST PUSH1 0x1 PUSH1 0x2 DUP9 MUL ADD DUP9 SSTORE POP POP POP JUMPDEST POP POP POP POP POP POP JUMP JUMPDEST PUSH32 0x50726F7065727479206973206E6F7420666F722073616C650000000000000000 PUSH0 DUP3 ADD MSTORE POP JUMP JUMPDEST PUSH0 PUSH2 0xCC8 PUSH1 0x18 DUP4 PUSH2 0x901 JUMP JUMPDEST SWAP2 POP PUSH2 0xCD3 DUP3 PUSH2 0xC94 JUMP JUMPDEST PUSH1 0x20 DUP3 ADD SWAP1 POP SWAP2 SWAP1 POP JUMP JUMPDEST PUSH0 PUSH1 0x20 DUP3 ADD SWAP1 POP DUP2 DUP2 SUB PUSH0 DUP4 ADD MSTORE PUSH2 0xCF5 DUP2 PUSH2 0xCBC JUMP JUMPDEST SWAP1 POP SWAP2 SWAP1 POP JUMP JUMPDEST PUSH32 0x496E73756666696369656E742066756E64730000000000000000000000000000 PUSH0 DUP3 ADD MSTORE POP JUMP JUMPDEST PUSH0 PUSH2 0xD30 PUSH1 0x12 DUP4 PUSH2 0x901 JUMP JUMPDEST SWAP2 POP PUSH2 0xD3B DUP3 PUSH2 0xCFC JUMP JUMPDEST PUSH1 0x20 DUP3 ADD SWAP1 POP SWAP2 SWAP1 POP JUMP JUMPDEST PUSH0 PUSH1 0x20 DUP3 ADD SWAP1 POP DUP2 DUP2 SUB PUSH0 DUP4 ADD MSTORE PUSH2 0xD5D DUP2 PUSH2 0xD24 JUMP JUMPDEST SWAP1 POP SWAP2 SWAP1 POP JUMP INVALID LOG2 PUSH5 0x6970667358 0x22 SLT KECCAK256 0xE1 0x4F PUSH20 0xC0BD036D4121CB8CD5C902EE330C758E3371C9C PUSH7 0x86201122F681C SHL PUSH5 0x736F6C6343 STOP ADDMOD BYTE STOP CALLER "
				},
				"gasEstimates": {
					"creation": {
						"codeDepositCost": "696400",
						"executionCost": "726",
						"totalCost": "697126"
					},
					"external": {
						"buyProperty(uint256)": "infinite",
						"listPropertyForSale(uint256,uint256,string,string,string)": "infinite",
						"properties(uint256)": "infinite",
						"propertyIds(uint256)": "infinite"
					}
				},
				"methodIdentifiers": {
					"buyProperty(uint256)": "6fa830a6",
					"listPropertyForSale(uint256,uint256,string,string,string)": "611cf614",
					"properties(uint256)": "f7b10808",
					"propertyIds(uint256)": "d03b47f4"
				}
			},
			"storageLayout": {
				"storage": [
					{
						"astId": 19,
						"contract": "Learning Pth/Project_Real_Estate.sol:RealEstate",
						"label": "properties",
						"offset": 0,
						"slot": "0",
						"type": "t_mapping(t_uint256,t_struct(Property)14_storage)"
					},
					{
						"astId": 22,
						"contract": "Learning Pth/Project_Real_Estate.sol:RealEstate",
						"label": "propertyIds",
						"offset": 0,
						"slot": "1",
						"type": "t_array(t_uint256)dyn_storage"
					}
				],
				"types": {
					"t_address": {
						"encoding": "inplace",
						"label": "address",
						"numberOfBytes": "20"
					},
					"t_array(t_uint256)dyn_storage": {
						"base": "t_uint256",
						"encoding": "dynamic_array",
						"label": "uint256[]",
						"numberOfBytes": "32"
					},
					"t_bool": {
						"encoding": "inplace",
						"label": "bool",
						"numberOfBytes": "1"
					},
					"t_mapping(t_uint256,t_struct(Property)14_storage)": {
						"encoding": "mapping",
						"key": "t_uint256",
						"label": "mapping(uint256 => struct RealEstate.Property)",
						"numberOfBytes": "32",
						"value": "t_struct(Property)14_storage"
					},
					"t_string_storage": {
						"encoding": "bytes",
						"label": "string",
						"numberOfBytes": "32"
					},
					"t_struct(Property)14_storage": {
						"encoding": "inplace",
						"label": "struct RealEstate.Property",
						"members": [
							{
								"astId": 3,
								"contract": "Learning Pth/Project_Real_Estate.sol:RealEstate",
								"label": "price",
								"offset": 0,
								"slot": "0",
								"type": "t_uint256"
							},
							{
								"astId": 5,
								"contract": "Learning Pth/Project_Real_Estate.sol:RealEstate",
								"label": "owner",
								"offset": 0,
								"slot": "1",
								"type": "t_address"
							},
							{
								"astId": 7,
								"contract": "Learning Pth/Project_Real_Estate.sol:RealEstate",
								"label": "forSale",
								"offset": 20,
								"slot": "1",
								"type": "t_bool"
							},
							{
								"astId": 9,
								"contract": "Learning Pth/Project_Real_Estate.sol:RealEstate",
								"label": "name",
								"offset": 0,
								"slot": "2",
								"type": "t_string_storage"
							},
							{
								"astId": 11,
								"contract": "Learning Pth/Project_Real_Estate.sol:RealEstate",
								"label": "description",
								"offset": 0,
								"slot": "3",
								"type": "t_string_storage"
							},
							{
								"astId": 13,
								"contract": "Learning Pth/Project_Real_Estate.sol:RealEstate",
								"label": "location",
								"offset": 0,
								"slot": "4",
								"type": "t_string_storage"
							}
						],
						"numberOfBytes": "160"
					},
					"t_uint256": {
						"encoding": "inplace",
						"label": "uint256",
						"numberOfBytes": "32"
					}
				}
			},
			"userdoc": {
				"kind": "user",
				"methods": {},
				"version": 1
			}
		}
	}
}