{
	"Learning Pth/Project_Crowd_Funding.sol": {
		"CrowdFunding": {
			"abi": [
				{
					"inputs": [
						{
							"internalType": "uint256",
							"name": "fundingGoalInEther",
							"type": "uint256"
						},
						{
							"internalType": "uint256",
							"name": "durationInMinutes",
							"type": "uint256"
						}
					],
					"stateMutability": "nonpayable",
					"type": "constructor"
				},
				{
					"anonymous": false,
					"inputs": [
						{
							"indexed": false,
							"internalType": "uint256",
							"name": "totalContributions",
							"type": "uint256"
						}
					],
					"name": "DeadlineReached",
					"type": "event"
				},
				{
					"anonymous": false,
					"inputs": [
						{
							"indexed": false,
							"internalType": "address",
							"name": "backer",
							"type": "address"
						},
						{
							"indexed": false,
							"internalType": "uint256",
							"name": "amount",
							"type": "uint256"
						}
					],
					"name": "FundTransfer",
					"type": "event"
				},
				{
					"anonymous": false,
					"inputs": [
						{
							"indexed": false,
							"internalType": "uint256",
							"name": "totalContributions",
							"type": "uint256"
						}
					],
					"name": "GoalReached",
					"type": "event"
				},
				{
					"inputs": [],
					"name": "contribute",
					"outputs": [],
					"stateMutability": "payable",
					"type": "function"
				},
				{
					"inputs": [
						{
							"internalType": "address",
							"name": "",
							"type": "address"
						}
					],
					"name": "contributions",
					"outputs": [
						{
							"internalType": "uint256",
							"name": "",
							"type": "uint256"
						}
					],
					"stateMutability": "view",
					"type": "function"
				},
				{
					"inputs": [],
					"name": "creator",
					"outputs": [
						{
							"internalType": "address",
							"name": "",
							"type": "address"
						}
					],
					"stateMutability": "view",
					"type": "function"
				},
				{
					"inputs": [],
					"name": "deadline",
					"outputs": [
						{
							"internalType": "uint256",
							"name": "",
							"type": "uint256"
						}
					],
					"stateMutability": "view",
					"type": "function"
				},
				{
					"inputs": [
						{
							"internalType": "uint256",
							"name": "durationInMinutes",
							"type": "uint256"
						}
					],
					"name": "extendDeadline",
					"outputs": [],
					"stateMutability": "nonpayable",
					"type": "function"
				},
				{
					"inputs": [],
					"name": "getCurrentBalance",
					"outputs": [
						{
							"internalType": "uint256",
							"name": "",
							"type": "uint256"
						}
					],
					"stateMutability": "view",
					"type": "function"
				},
				{
					"inputs": [],
					"name": "getRefund",
					"outputs": [],
					"stateMutability": "nonpayable",
					"type": "function"
				},
				{
					"inputs": [],
					"name": "goal",
					"outputs": [
						{
							"internalType": "uint256",
							"name": "",
							"type": "uint256"
						}
					],
					"stateMutability": "view",
					"type": "function"
				},
				{
					"inputs": [],
					"name": "isFunded",
					"outputs": [
						{
							"internalType": "bool",
							"name": "",
							"type": "bool"
						}
					],
					"stateMutability": "view",
					"type": "function"
				},
				{
					"inputs": [],
					"name": "totalContributions",
					"outputs": [
						{
							"internalType": "uint256",
							"name": "",
							"type": "uint256"
						}
					],
					"stateMutability": "view",
					"type": "function"
				},
				{
					"inputs": [],
					"name": "withdrawFunds",
					"outputs": [],
					"stateMutability": "nonpayable",
					"type": "function"
				}
			],
			"devdoc": {
				"kind": "dev",
				"methods": {},
				"version": 1
			},
			"evm": {
				"assembly": "    /* \"Learning Pth/Project_Crowd_Funding.sol\":61:2433  contract CrowdFunding {... */\n  mstore(0x40, 0x80)\n    /* \"Learning Pth/Project_Crowd_Funding.sol\":469:741  constructor(uint fundingGoalInEther, uint durationInMinutes) {... */\n  callvalue\n  dup1\n  iszero\n  tag_1\n  jumpi\n  0x00\n  dup1\n  revert\ntag_1:\n  pop\n  mload(0x40)\n  sub(codesize, bytecodeSize)\n  dup1\n  bytecodeSize\n  dup4\n  codecopy\n  dup2\n  dup2\n  add\n  0x40\n  mstore\n  dup2\n  add\n  swap1\n  tag_2\n  swap2\n  swap1\n  tag_3\n  jump\t// in\ntag_2:\n    /* \"Learning Pth/Project_Crowd_Funding.sol\":551:561  msg.sender */\n  caller\n    /* \"Learning Pth/Project_Crowd_Funding.sol\":541:548  creator */\n  0x00\n  dup1\n    /* \"Learning Pth/Project_Crowd_Funding.sol\":541:561  creator = msg.sender */\n  0x0100\n  exp\n  dup2\n  sload\n  dup2\n  0xffffffffffffffffffffffffffffffffffffffff\n  mul\n  not\n  and\n  swap1\n  dup4\n  0xffffffffffffffffffffffffffffffffffffffff\n  and\n  mul\n  or\n  swap1\n  sstore\n  pop\n    /* \"Learning Pth/Project_Crowd_Funding.sol\":600:607  1 ether */\n  0x0de0b6b3a7640000\n    /* \"Learning Pth/Project_Crowd_Funding.sol\":579:597  fundingGoalInEther */\n  dup3\n    /* \"Learning Pth/Project_Crowd_Funding.sol\":579:607  fundingGoalInEther * 1 ether */\n  tag_6\n  swap2\n  swap1\n  tag_7\n  jump\t// in\ntag_6:\n    /* \"Learning Pth/Project_Crowd_Funding.sol\":572:576  goal */\n  0x01\n    /* \"Learning Pth/Project_Crowd_Funding.sol\":572:607  goal = fundingGoalInEther * 1 ether */\n  dup2\n  swap1\n  sstore\n  pop\n    /* \"Learning Pth/Project_Crowd_Funding.sol\":667:676  1 minutes */\n  0x3c\n    /* \"Learning Pth/Project_Crowd_Funding.sol\":647:664  durationInMinutes */\n  dup2\n    /* \"Learning Pth/Project_Crowd_Funding.sol\":647:676  durationInMinutes * 1 minutes */\n  tag_8\n  swap2\n  swap1\n  tag_7\n  jump\t// in\ntag_8:\n    /* \"Learning Pth/Project_Crowd_Funding.sol\":629:644  block.timestamp */\n  timestamp\n    /* \"Learning Pth/Project_Crowd_Funding.sol\":629:676  block.timestamp + durationInMinutes * 1 minutes */\n  tag_9\n  swap2\n  swap1\n  tag_10\n  jump\t// in\ntag_9:\n    /* \"Learning Pth/Project_Crowd_Funding.sol\":618:626  deadline */\n  0x02\n    /* \"Learning Pth/Project_Crowd_Funding.sol\":618:676  deadline = block.timestamp + durationInMinutes * 1 minutes */\n  dup2\n  swap1\n  sstore\n  pop\n    /* \"Learning Pth/Project_Crowd_Funding.sol\":698:703  false */\n  0x00\n    /* \"Learning Pth/Project_Crowd_Funding.sol\":687:695  isFunded */\n  0x05\n  0x00\n    /* \"Learning Pth/Project_Crowd_Funding.sol\":687:703  isFunded = false */\n  0x0100\n  exp\n  dup2\n  sload\n  dup2\n  0xff\n  mul\n  not\n  and\n  swap1\n  dup4\n  iszero\n  iszero\n  mul\n  or\n  swap1\n  sstore\n  pop\n    /* \"Learning Pth/Project_Crowd_Funding.sol\":728:733  false */\n  0x00\n    /* \"Learning Pth/Project_Crowd_Funding.sol\":714:725  isCompleted */\n  0x05\n  0x01\n    /* \"Learning Pth/Project_Crowd_Funding.sol\":714:733  isCompleted = false */\n  0x0100\n  exp\n  dup2\n  sload\n  dup2\n  0xff\n  mul\n  not\n  and\n  swap1\n  dup4\n  iszero\n  iszero\n  mul\n  or\n  swap1\n  sstore\n  pop\n    /* \"Learning Pth/Project_Crowd_Funding.sol\":469:741  constructor(uint fundingGoalInEther, uint durationInMinutes) {... */\n  pop\n  pop\n    /* \"Learning Pth/Project_Crowd_Funding.sol\":61:2433  contract CrowdFunding {... */\n  jump(tag_11)\n    /* \"#utility.yul\":88:205   */\ntag_13:\n    /* \"#utility.yul\":197:198   */\n  0x00\n    /* \"#utility.yul\":194:195   */\n  dup1\n    /* \"#utility.yul\":187:199   */\n  revert\n    /* \"#utility.yul\":334:411   */\ntag_15:\n    /* \"#utility.yul\":371:378   */\n  0x00\n    /* \"#utility.yul\":400:405   */\n  dup2\n    /* \"#utility.yul\":389:405   */\n  swap1\n  pop\n    /* \"#utility.yul\":334:411   */\n  swap2\n  swap1\n  pop\n  jump\t// out\n    /* \"#utility.yul\":417:539   */\ntag_16:\n    /* \"#utility.yul\":490:514   */\n  tag_25\n    /* \"#utility.yul\":508:513   */\n  dup2\n    /* \"#utility.yul\":490:514   */\n  tag_15\n  jump\t// in\ntag_25:\n    /* \"#utility.yul\":483:488   */\n  dup2\n    /* \"#utility.yul\":480:515   */\n  eq\n    /* \"#utility.yul\":470:533   */\n  tag_26\n  jumpi\n    /* \"#utility.yul\":529:530   */\n  0x00\n    /* \"#utility.yul\":526:527   */\n  dup1\n    /* \"#utility.yul\":519:531   */\n  revert\n    /* \"#utility.yul\":470:533   */\ntag_26:\n    /* \"#utility.yul\":417:539   */\n  pop\n  jump\t// out\n    /* \"#utility.yul\":545:688   */\ntag_17:\n    /* \"#utility.yul\":602:607   */\n  0x00\n    /* \"#utility.yul\":633:639   */\n  dup2\n    /* \"#utility.yul\":627:640   */\n  mload\n    /* \"#utility.yul\":618:640   */\n  swap1\n  pop\n    /* \"#utility.yul\":649:682   */\n  tag_28\n    /* \"#utility.yul\":676:681   */\n  dup2\n    /* \"#utility.yul\":649:682   */\n  tag_16\n  jump\t// in\ntag_28:\n    /* \"#utility.yul\":545:688   */\n  swap3\n  swap2\n  pop\n  pop\n  jump\t// out\n    /* \"#utility.yul\":694:1201   */\ntag_3:\n    /* \"#utility.yul\":773:779   */\n  0x00\n    /* \"#utility.yul\":781:787   */\n  dup1\n    /* \"#utility.yul\":830:832   */\n  0x40\n    /* \"#utility.yul\":818:827   */\n  dup4\n    /* \"#utility.yul\":809:816   */\n  dup6\n    /* \"#utility.yul\":805:828   */\n  sub\n    /* \"#utility.yul\":801:833   */\n  slt\n    /* \"#utility.yul\":798:917   */\n  iszero\n  tag_30\n  jumpi\n    /* \"#utility.yul\":836:915   */\n  tag_31\n  tag_13\n  jump\t// in\ntag_31:\n    /* \"#utility.yul\":798:917   */\ntag_30:\n    /* \"#utility.yul\":956:957   */\n  0x00\n    /* \"#utility.yul\":981:1045   */\n  tag_32\n    /* \"#utility.yul\":1037:1044   */\n  dup6\n    /* \"#utility.yul\":1028:1034   */\n  dup3\n    /* \"#utility.yul\":1017:1026   */\n  dup7\n    /* \"#utility.yul\":1013:1035   */\n  add\n    /* \"#utility.yul\":981:1045   */\n  tag_17\n  jump\t// in\ntag_32:\n    /* \"#utility.yul\":971:1045   */\n  swap3\n  pop\n    /* \"#utility.yul\":927:1055   */\n  pop\n    /* \"#utility.yul\":1094:1096   */\n  0x20\n    /* \"#utility.yul\":1120:1184   */\n  tag_33\n    /* \"#utility.yul\":1176:1183   */\n  dup6\n    /* \"#utility.yul\":1167:1173   */\n  dup3\n    /* \"#utility.yul\":1156:1165   */\n  dup7\n    /* \"#utility.yul\":1152:1174   */\n  add\n    /* \"#utility.yul\":1120:1184   */\n  tag_17\n  jump\t// in\ntag_33:\n    /* \"#utility.yul\":1110:1184   */\n  swap2\n  pop\n    /* \"#utility.yul\":1065:1194   */\n  pop\n    /* \"#utility.yul\":694:1201   */\n  swap3\n  pop\n  swap3\n  swap1\n  pop\n  jump\t// out\n    /* \"#utility.yul\":1207:1387   */\ntag_18:\n    /* \"#utility.yul\":1255:1332   */\n  0x4e487b7100000000000000000000000000000000000000000000000000000000\n    /* \"#utility.yul\":1252:1253   */\n  0x00\n    /* \"#utility.yul\":1245:1333   */\n  mstore\n    /* \"#utility.yul\":1352:1356   */\n  0x11\n    /* \"#utility.yul\":1349:1350   */\n  0x04\n    /* \"#utility.yul\":1342:1357   */\n  mstore\n    /* \"#utility.yul\":1376:1380   */\n  0x24\n    /* \"#utility.yul\":1373:1374   */\n  0x00\n    /* \"#utility.yul\":1366:1381   */\n  revert\n    /* \"#utility.yul\":1393:1803   */\ntag_7:\n    /* \"#utility.yul\":1433:1440   */\n  0x00\n    /* \"#utility.yul\":1456:1476   */\n  tag_36\n    /* \"#utility.yul\":1474:1475   */\n  dup3\n    /* \"#utility.yul\":1456:1476   */\n  tag_15\n  jump\t// in\ntag_36:\n    /* \"#utility.yul\":1451:1476   */\n  swap2\n  pop\n    /* \"#utility.yul\":1490:1510   */\n  tag_37\n    /* \"#utility.yul\":1508:1509   */\n  dup4\n    /* \"#utility.yul\":1490:1510   */\n  tag_15\n  jump\t// in\ntag_37:\n    /* \"#utility.yul\":1485:1510   */\n  swap3\n  pop\n    /* \"#utility.yul\":1545:1546   */\n  dup3\n    /* \"#utility.yul\":1542:1543   */\n  dup3\n    /* \"#utility.yul\":1538:1547   */\n  mul\n    /* \"#utility.yul\":1567:1597   */\n  tag_38\n    /* \"#utility.yul\":1585:1596   */\n  dup2\n    /* \"#utility.yul\":1567:1597   */\n  tag_15\n  jump\t// in\ntag_38:\n    /* \"#utility.yul\":1556:1597   */\n  swap2\n  pop\n    /* \"#utility.yul\":1746:1747   */\n  dup3\n    /* \"#utility.yul\":1737:1744   */\n  dup3\n    /* \"#utility.yul\":1733:1748   */\n  div\n    /* \"#utility.yul\":1730:1731   */\n  dup5\n    /* \"#utility.yul\":1727:1749   */\n  eq\n    /* \"#utility.yul\":1707:1708   */\n  dup4\n    /* \"#utility.yul\":1700:1709   */\n  iszero\n    /* \"#utility.yul\":1680:1763   */\n  or\n    /* \"#utility.yul\":1657:1796   */\n  tag_39\n  jumpi\n    /* \"#utility.yul\":1776:1794   */\n  tag_40\n  tag_18\n  jump\t// in\ntag_40:\n    /* \"#utility.yul\":1657:1796   */\ntag_39:\n    /* \"#utility.yul\":1441:1803   */\n  pop\n    /* \"#utility.yul\":1393:1803   */\n  swap3\n  swap2\n  pop\n  pop\n  jump\t// out\n    /* \"#utility.yul\":1809:2000   */\ntag_10:\n    /* \"#utility.yul\":1849:1852   */\n  0x00\n    /* \"#utility.yul\":1868:1888   */\n  tag_42\n    /* \"#utility.yul\":1886:1887   */\n  dup3\n    /* \"#utility.yul\":1868:1888   */\n  tag_15\n  jump\t// in\ntag_42:\n    /* \"#utility.yul\":1863:1888   */\n  swap2\n  pop\n    /* \"#utility.yul\":1902:1922   */\n  tag_43\n    /* \"#utility.yul\":1920:1921   */\n  dup4\n    /* \"#utility.yul\":1902:1922   */\n  tag_15\n  jump\t// in\ntag_43:\n    /* \"#utility.yul\":1897:1922   */\n  swap3\n  pop\n    /* \"#utility.yul\":1945:1946   */\n  dup3\n    /* \"#utility.yul\":1942:1943   */\n  dup3\n    /* \"#utility.yul\":1938:1947   */\n  add\n    /* \"#utility.yul\":1931:1947   */\n  swap1\n  pop\n    /* \"#utility.yul\":1966:1969   */\n  dup1\n    /* \"#utility.yul\":1963:1964   */\n  dup3\n    /* \"#utility.yul\":1960:1970   */\n  gt\n    /* \"#utility.yul\":1957:1993   */\n  iszero\n  tag_44\n  jumpi\n    /* \"#utility.yul\":1973:1991   */\n  tag_45\n  tag_18\n  jump\t// in\ntag_45:\n    /* \"#utility.yul\":1957:1993   */\ntag_44:\n    /* \"#utility.yul\":1809:2000   */\n  swap3\n  swap2\n  pop\n  pop\n  jump\t// out\n    /* \"Learning Pth/Project_Crowd_Funding.sol\":61:2433  contract CrowdFunding {... */\ntag_11:\n  dataSize(sub_0)\n  dup1\n  dataOffset(sub_0)\n  0x00\n  codecopy\n  0x00\n  return\nstop\n\nsub_0: assembly {\n        /* \"Learning Pth/Project_Crowd_Funding.sol\":61:2433  contract CrowdFunding {... */\n      mstore(0x40, 0x80)\n      jumpi(tag_1, lt(calldatasize, 0x04))\n      shr(0xe0, calldataload(0x00))\n      dup1\n      0x40193883\n      gt\n      tag_13\n      jumpi\n      dup1\n      0x40193883\n      eq\n      tag_7\n      jumpi\n      dup1\n      0x42e94c90\n      eq\n      tag_8\n      jumpi\n      dup1\n      0x7c654303\n      eq\n      tag_9\n      jumpi\n      dup1\n      0xa5749710\n      eq\n      tag_10\n      jumpi\n      dup1\n      0xb2d5ae44\n      eq\n      tag_11\n      jumpi\n      dup1\n      0xd7bb99ba\n      eq\n      tag_12\n      jumpi\n      jump(tag_1)\n    tag_13:\n      dup1\n      0x02d05d3f\n      eq\n      tag_2\n      jumpi\n      dup1\n      0x24600fc3\n      eq\n      tag_3\n      jumpi\n      dup1\n      0x29dcb0cf\n      eq\n      tag_4\n      jumpi\n      dup1\n      0x37c08923\n      eq\n      tag_5\n      jumpi\n      dup1\n      0x389b7533\n      eq\n      tag_6\n      jumpi\n    tag_1:\n      0x00\n      dup1\n      revert\n        /* \"Learning Pth/Project_Crowd_Funding.sol\":90:112  address public creator */\n    tag_2:\n      callvalue\n      dup1\n      iszero\n      tag_14\n      jumpi\n      0x00\n      dup1\n      revert\n    tag_14:\n      pop\n      tag_15\n      tag_16\n      jump\t// in\n    tag_15:\n      mload(0x40)\n      tag_17\n      swap2\n      swap1\n      tag_18\n      jump\t// in\n    tag_17:\n      mload(0x40)\n      dup1\n      swap2\n      sub\n      swap1\n      return\n        /* \"Learning Pth/Project_Crowd_Funding.sol\":1411:1680  function withdrawFunds() public onlyCreator {... */\n    tag_3:\n      callvalue\n      dup1\n      iszero\n      tag_19\n      jumpi\n      0x00\n      dup1\n      revert\n    tag_19:\n      pop\n      tag_20\n      tag_21\n      jump\t// in\n    tag_20:\n      stop\n        /* \"Learning Pth/Project_Crowd_Funding.sol\":142:162  uint public deadline */\n    tag_4:\n      callvalue\n      dup1\n      iszero\n      tag_22\n      jumpi\n      0x00\n      dup1\n      revert\n    tag_22:\n      pop\n      tag_23\n      tag_24\n      jump\t// in\n    tag_23:\n      mload(0x40)\n      tag_25\n      swap2\n      swap1\n      tag_26\n      jump\t// in\n    tag_25:\n      mload(0x40)\n      dup1\n      swap2\n      sub\n      swap1\n      return\n        /* \"Learning Pth/Project_Crowd_Funding.sol\":222:252  uint public totalContributions */\n    tag_5:\n      callvalue\n      dup1\n      iszero\n      tag_27\n      jumpi\n      0x00\n      dup1\n      revert\n    tag_27:\n      pop\n      tag_28\n      tag_29\n      jump\t// in\n    tag_28:\n      mload(0x40)\n      tag_30\n      swap2\n      swap1\n      tag_26\n      jump\t// in\n    tag_30:\n      mload(0x40)\n      dup1\n      swap2\n      sub\n      swap1\n      return\n        /* \"Learning Pth/Project_Crowd_Funding.sol\":2303:2430  function extendDeadline(uint durationInMinutes) public onlyCreator {... */\n    tag_6:\n      callvalue\n      dup1\n      iszero\n      tag_31\n      jumpi\n      0x00\n      dup1\n      revert\n    tag_31:\n      pop\n      tag_32\n      0x04\n      dup1\n      calldatasize\n      sub\n      dup2\n      add\n      swap1\n      tag_33\n      swap2\n      swap1\n      tag_34\n      jump\t// in\n    tag_33:\n      tag_35\n      jump\t// in\n    tag_32:\n      stop\n        /* \"Learning Pth/Project_Crowd_Funding.sol\":119:135  uint public goal */\n    tag_7:\n      callvalue\n      dup1\n      iszero\n      tag_36\n      jumpi\n      0x00\n      dup1\n      revert\n    tag_36:\n      pop\n      tag_37\n      tag_38\n      jump\t// in\n    tag_37:\n      mload(0x40)\n      tag_39\n      swap2\n      swap1\n      tag_26\n      jump\t// in\n    tag_39:\n      mload(0x40)\n      dup1\n      swap2\n      sub\n      swap1\n      return\n        /* \"Learning Pth/Project_Crowd_Funding.sol\":169:215  mapping (address => uint) public contributions */\n    tag_8:\n      callvalue\n      dup1\n      iszero\n      tag_40\n      jumpi\n      0x00\n      dup1\n      revert\n    tag_40:\n      pop\n      tag_41\n      0x04\n      dup1\n      calldatasize\n      sub\n      dup2\n      add\n      swap1\n      tag_42\n      swap2\n      swap1\n      tag_43\n      jump\t// in\n    tag_42:\n      tag_44\n      jump\t// in\n    tag_41:\n      mload(0x40)\n      tag_45\n      swap2\n      swap1\n      tag_26\n      jump\t// in\n    tag_45:\n      mload(0x40)\n      dup1\n      swap2\n      sub\n      swap1\n      return\n        /* \"Learning Pth/Project_Crowd_Funding.sol\":259:279  bool public isFunded */\n    tag_9:\n      callvalue\n      dup1\n      iszero\n      tag_46\n      jumpi\n      0x00\n      dup1\n      revert\n    tag_46:\n      pop\n      tag_47\n      tag_48\n      jump\t// in\n    tag_47:\n      mload(0x40)\n      tag_49\n      swap2\n      swap1\n      tag_50\n      jump\t// in\n    tag_49:\n      mload(0x40)\n      dup1\n      swap2\n      sub\n      swap1\n      return\n        /* \"Learning Pth/Project_Crowd_Funding.sol\":2193:2295  function getCurrentBalance() public view returns(uint) {... */\n    tag_10:\n      callvalue\n      dup1\n      iszero\n      tag_51\n      jumpi\n      0x00\n      dup1\n      revert\n    tag_51:\n      pop\n      tag_52\n      tag_53\n      jump\t// in\n    tag_52:\n      mload(0x40)\n      tag_54\n      swap2\n      swap1\n      tag_26\n      jump\t// in\n    tag_54:\n      mload(0x40)\n      dup1\n      swap2\n      sub\n      swap1\n      return\n        /* \"Learning Pth/Project_Crowd_Funding.sol\":1688:2185  function getRefund() public {... */\n    tag_11:\n      callvalue\n      dup1\n      iszero\n      tag_55\n      jumpi\n      0x00\n      dup1\n      revert\n    tag_55:\n      pop\n      tag_56\n      tag_57\n      jump\t// in\n    tag_56:\n      stop\n        /* \"Learning Pth/Project_Crowd_Funding.sol\":883:1403  function contribute() public payable {... */\n    tag_12:\n      tag_58\n      tag_59\n      jump\t// in\n    tag_58:\n      stop\n        /* \"Learning Pth/Project_Crowd_Funding.sol\":90:112  address public creator */\n    tag_16:\n      0x00\n      dup1\n      sload\n      swap1\n      0x0100\n      exp\n      swap1\n      div\n      0xffffffffffffffffffffffffffffffffffffffff\n      and\n      dup2\n      jump\t// out\n        /* \"Learning Pth/Project_Crowd_Funding.sol\":1411:1680  function withdrawFunds() public onlyCreator {... */\n    tag_21:\n        /* \"Learning Pth/Project_Crowd_Funding.sol\":804:811  creator */\n      0x00\n      dup1\n      sload\n      swap1\n      0x0100\n      exp\n      swap1\n      div\n      0xffffffffffffffffffffffffffffffffffffffff\n      and\n        /* \"Learning Pth/Project_Crowd_Funding.sol\":790:811  msg.sender == creator */\n      0xffffffffffffffffffffffffffffffffffffffff\n      and\n        /* \"Learning Pth/Project_Crowd_Funding.sol\":790:800  msg.sender */\n      caller\n        /* \"Learning Pth/Project_Crowd_Funding.sol\":790:811  msg.sender == creator */\n      0xffffffffffffffffffffffffffffffffffffffff\n      and\n      eq\n        /* \"Learning Pth/Project_Crowd_Funding.sol\":782:855  require(msg.sender == creator, \"Only the creator can call this function\") */\n      tag_61\n      jumpi\n      mload(0x40)\n      0x08c379a000000000000000000000000000000000000000000000000000000000\n      dup2\n      mstore\n      0x04\n      add\n      tag_62\n      swap1\n      tag_63\n      jump\t// in\n    tag_62:\n      mload(0x40)\n      dup1\n      swap2\n      sub\n      swap1\n      revert\n    tag_61:\n        /* \"Learning Pth/Project_Crowd_Funding.sol\":1474:1482  isFunded */\n      0x05\n      0x00\n      swap1\n      sload\n      swap1\n      0x0100\n      exp\n      swap1\n      div\n      0xff\n      and\n        /* \"Learning Pth/Project_Crowd_Funding.sol\":1466:1512  require(isFunded, \"Goal has not been reached\") */\n      tag_65\n      jumpi\n      mload(0x40)\n      0x08c379a000000000000000000000000000000000000000000000000000000000\n      dup2\n      mstore\n      0x04\n      add\n      tag_66\n      swap1\n      tag_67\n      jump\t// in\n    tag_66:\n      mload(0x40)\n      dup1\n      swap2\n      sub\n      swap1\n      revert\n    tag_65:\n        /* \"Learning Pth/Project_Crowd_Funding.sol\":1532:1543  isCompleted */\n      0x05\n      0x01\n      swap1\n      sload\n      swap1\n      0x0100\n      exp\n      swap1\n      div\n      0xff\n      and\n        /* \"Learning Pth/Project_Crowd_Funding.sol\":1531:1543  !isCompleted */\n      iszero\n        /* \"Learning Pth/Project_Crowd_Funding.sol\":1523:1581  require(!isCompleted, \"Crowdfunding is already completed\") */\n      tag_68\n      jumpi\n      mload(0x40)\n      0x08c379a000000000000000000000000000000000000000000000000000000000\n      dup2\n      mstore\n      0x04\n      add\n      tag_69\n      swap1\n      tag_70\n      jump\t// in\n    tag_69:\n      mload(0x40)\n      dup1\n      swap2\n      sub\n      swap1\n      revert\n    tag_68:\n        /* \"Learning Pth/Project_Crowd_Funding.sol\":1608:1612  true */\n      0x01\n        /* \"Learning Pth/Project_Crowd_Funding.sol\":1594:1605  isCompleted */\n      0x05\n      0x01\n        /* \"Learning Pth/Project_Crowd_Funding.sol\":1594:1612  isCompleted = true */\n      0x0100\n      exp\n      dup2\n      sload\n      dup2\n      0xff\n      mul\n      not\n      and\n      swap1\n      dup4\n      iszero\n      iszero\n      mul\n      or\n      swap1\n      sstore\n      pop\n        /* \"Learning Pth/Project_Crowd_Funding.sol\":1632:1639  creator */\n      0x00\n      dup1\n      sload\n      swap1\n      0x0100\n      exp\n      swap1\n      div\n      0xffffffffffffffffffffffffffffffffffffffff\n      and\n        /* \"Learning Pth/Project_Crowd_Funding.sol\":1623:1649  payable (creator).transfer */\n      0xffffffffffffffffffffffffffffffffffffffff\n      and\n        /* \"Learning Pth/Project_Crowd_Funding.sol\":1623:1672  payable (creator).transfer(address(this).balance) */\n      0x08fc\n        /* \"Learning Pth/Project_Crowd_Funding.sol\":1650:1671  address(this).balance */\n      selfbalance\n        /* \"Learning Pth/Project_Crowd_Funding.sol\":1623:1672  payable (creator).transfer(address(this).balance) */\n      swap1\n      dup2\n      iszero\n      mul\n      swap1\n      mload(0x40)\n      0x00\n      mload(0x40)\n      dup1\n      dup4\n      sub\n      dup2\n      dup6\n      dup9\n      dup9\n      call\n      swap4\n      pop\n      pop\n      pop\n      pop\n      iszero\n      dup1\n      iszero\n      tag_72\n      jumpi\n      returndatasize\n      0x00\n      dup1\n      returndatacopy\n      revert(0x00, returndatasize)\n    tag_72:\n      pop\n        /* \"Learning Pth/Project_Crowd_Funding.sol\":1411:1680  function withdrawFunds() public onlyCreator {... */\n      jump\t// out\n        /* \"Learning Pth/Project_Crowd_Funding.sol\":142:162  uint public deadline */\n    tag_24:\n      sload(0x02)\n      dup2\n      jump\t// out\n        /* \"Learning Pth/Project_Crowd_Funding.sol\":222:252  uint public totalContributions */\n    tag_29:\n      sload(0x04)\n      dup2\n      jump\t// out\n        /* \"Learning Pth/Project_Crowd_Funding.sol\":2303:2430  function extendDeadline(uint durationInMinutes) public onlyCreator {... */\n    tag_35:\n        /* \"Learning Pth/Project_Crowd_Funding.sol\":804:811  creator */\n      0x00\n      dup1\n      sload\n      swap1\n      0x0100\n      exp\n      swap1\n      div\n      0xffffffffffffffffffffffffffffffffffffffff\n      and\n        /* \"Learning Pth/Project_Crowd_Funding.sol\":790:811  msg.sender == creator */\n      0xffffffffffffffffffffffffffffffffffffffff\n      and\n        /* \"Learning Pth/Project_Crowd_Funding.sol\":790:800  msg.sender */\n      caller\n        /* \"Learning Pth/Project_Crowd_Funding.sol\":790:811  msg.sender == creator */\n      0xffffffffffffffffffffffffffffffffffffffff\n      and\n      eq\n        /* \"Learning Pth/Project_Crowd_Funding.sol\":782:855  require(msg.sender == creator, \"Only the creator can call this function\") */\n      tag_74\n      jumpi\n      mload(0x40)\n      0x08c379a000000000000000000000000000000000000000000000000000000000\n      dup2\n      mstore\n      0x04\n      add\n      tag_75\n      swap1\n      tag_63\n      jump\t// in\n    tag_75:\n      mload(0x40)\n      dup1\n      swap2\n      sub\n      swap1\n      revert\n    tag_74:\n        /* \"Learning Pth/Project_Crowd_Funding.sol\":2413:2422  1 minutes */\n      0x3c\n        /* \"Learning Pth/Project_Crowd_Funding.sol\":2393:2410  durationInMinutes */\n      dup2\n        /* \"Learning Pth/Project_Crowd_Funding.sol\":2393:2422  durationInMinutes + 1 minutes */\n      tag_77\n      swap2\n      swap1\n      tag_78\n      jump\t// in\n    tag_77:\n        /* \"Learning Pth/Project_Crowd_Funding.sol\":2381:2389  deadline */\n      0x02\n      0x00\n        /* \"Learning Pth/Project_Crowd_Funding.sol\":2381:2422  deadline += durationInMinutes + 1 minutes */\n      dup3\n      dup3\n      sload\n      tag_79\n      swap2\n      swap1\n      tag_78\n      jump\t// in\n    tag_79:\n      swap3\n      pop\n      pop\n      dup2\n      swap1\n      sstore\n      pop\n        /* \"Learning Pth/Project_Crowd_Funding.sol\":2303:2430  function extendDeadline(uint durationInMinutes) public onlyCreator {... */\n      pop\n      jump\t// out\n        /* \"Learning Pth/Project_Crowd_Funding.sol\":119:135  uint public goal */\n    tag_38:\n      sload(0x01)\n      dup2\n      jump\t// out\n        /* \"Learning Pth/Project_Crowd_Funding.sol\":169:215  mapping (address => uint) public contributions */\n    tag_44:\n      mstore(0x20, 0x03)\n      dup1\n      0x00\n      mstore\n      keccak256(0x00, 0x40)\n      0x00\n      swap2\n      pop\n      swap1\n      pop\n      sload\n      dup2\n      jump\t// out\n        /* \"Learning Pth/Project_Crowd_Funding.sol\":259:279  bool public isFunded */\n    tag_48:\n      0x05\n      0x00\n      swap1\n      sload\n      swap1\n      0x0100\n      exp\n      swap1\n      div\n      0xff\n      and\n      dup2\n      jump\t// out\n        /* \"Learning Pth/Project_Crowd_Funding.sol\":2193:2295  function getCurrentBalance() public view returns(uint) {... */\n    tag_53:\n        /* \"Learning Pth/Project_Crowd_Funding.sol\":2242:2246  uint */\n      0x00\n        /* \"Learning Pth/Project_Crowd_Funding.sol\":2266:2287  address(this).balance */\n      selfbalance\n        /* \"Learning Pth/Project_Crowd_Funding.sol\":2259:2287  return address(this).balance */\n      swap1\n      pop\n        /* \"Learning Pth/Project_Crowd_Funding.sol\":2193:2295  function getCurrentBalance() public view returns(uint) {... */\n      swap1\n      jump\t// out\n        /* \"Learning Pth/Project_Crowd_Funding.sol\":1688:2185  function getRefund() public {... */\n    tag_57:\n        /* \"Learning Pth/Project_Crowd_Funding.sol\":1754:1762  deadline */\n      sload(0x02)\n        /* \"Learning Pth/Project_Crowd_Funding.sol\":1735:1750  block.timestamp */\n      timestamp\n        /* \"Learning Pth/Project_Crowd_Funding.sol\":1735:1762  block.timestamp >= deadline */\n      lt\n      iszero\n        /* \"Learning Pth/Project_Crowd_Funding.sol\":1727:1795  require(block.timestamp >= deadline, \"Funding period has not ended\") */\n      tag_82\n      jumpi\n      mload(0x40)\n      0x08c379a000000000000000000000000000000000000000000000000000000000\n      dup2\n      mstore\n      0x04\n      add\n      tag_83\n      swap1\n      tag_84\n      jump\t// in\n    tag_83:\n      mload(0x40)\n      dup1\n      swap2\n      sub\n      swap1\n      revert\n    tag_82:\n        /* \"Learning Pth/Project_Crowd_Funding.sol\":1815:1823  isFunded */\n      0x05\n      0x00\n      swap1\n      sload\n      swap1\n      0x0100\n      exp\n      swap1\n      div\n      0xff\n      and\n        /* \"Learning Pth/Project_Crowd_Funding.sol\":1814:1823  !isFunded */\n      iszero\n        /* \"Learning Pth/Project_Crowd_Funding.sol\":1806:1849  require(!isFunded, \"Goal has been reached\") */\n      tag_85\n      jumpi\n      mload(0x40)\n      0x08c379a000000000000000000000000000000000000000000000000000000000\n      dup2\n      mstore\n      0x04\n      add\n      tag_86\n      swap1\n      tag_87\n      jump\t// in\n    tag_86:\n      mload(0x40)\n      dup1\n      swap2\n      sub\n      swap1\n      revert\n    tag_85:\n        /* \"Learning Pth/Project_Crowd_Funding.sol\":1896:1897  0 */\n      0x00\n        /* \"Learning Pth/Project_Crowd_Funding.sol\":1868:1881  contributions */\n      0x03\n        /* \"Learning Pth/Project_Crowd_Funding.sol\":1868:1893  contributions[msg.sender] */\n      0x00\n        /* \"Learning Pth/Project_Crowd_Funding.sol\":1882:1892  msg.sender */\n      caller\n        /* \"Learning Pth/Project_Crowd_Funding.sol\":1868:1893  contributions[msg.sender] */\n      0xffffffffffffffffffffffffffffffffffffffff\n      and\n      0xffffffffffffffffffffffffffffffffffffffff\n      and\n      dup2\n      mstore\n      0x20\n      add\n      swap1\n      dup2\n      mstore\n      0x20\n      add\n      0x00\n      keccak256\n      sload\n        /* \"Learning Pth/Project_Crowd_Funding.sol\":1868:1897  contributions[msg.sender] > 0 */\n      gt\n        /* \"Learning Pth/Project_Crowd_Funding.sol\":1860:1927  require(contributions[msg.sender] > 0, \"No contribution to refund\") */\n      tag_88\n      jumpi\n      mload(0x40)\n      0x08c379a000000000000000000000000000000000000000000000000000000000\n      dup2\n      mstore\n      0x04\n      add\n      tag_89\n      swap1\n      tag_90\n      jump\t// in\n    tag_89:\n      mload(0x40)\n      dup1\n      swap2\n      sub\n      swap1\n      revert\n    tag_88:\n        /* \"Learning Pth/Project_Crowd_Funding.sol\":1940:1957  uint contribution */\n      0x00\n        /* \"Learning Pth/Project_Crowd_Funding.sol\":1960:1973  contributions */\n      0x03\n        /* \"Learning Pth/Project_Crowd_Funding.sol\":1960:1985  contributions[msg.sender] */\n      0x00\n        /* \"Learning Pth/Project_Crowd_Funding.sol\":1974:1984  msg.sender */\n      caller\n        /* \"Learning Pth/Project_Crowd_Funding.sol\":1960:1985  contributions[msg.sender] */\n      0xffffffffffffffffffffffffffffffffffffffff\n      and\n      0xffffffffffffffffffffffffffffffffffffffff\n      and\n      dup2\n      mstore\n      0x20\n      add\n      swap1\n      dup2\n      mstore\n      0x20\n      add\n      0x00\n      keccak256\n      sload\n        /* \"Learning Pth/Project_Crowd_Funding.sol\":1940:1985  uint contribution = contributions[msg.sender] */\n      swap1\n      pop\n        /* \"Learning Pth/Project_Crowd_Funding.sol\":2024:2025  0 */\n      0x00\n        /* \"Learning Pth/Project_Crowd_Funding.sol\":1996:2009  contributions */\n      0x03\n        /* \"Learning Pth/Project_Crowd_Funding.sol\":1996:2021  contributions[msg.sender] */\n      0x00\n        /* \"Learning Pth/Project_Crowd_Funding.sol\":2010:2020  msg.sender */\n      caller\n        /* \"Learning Pth/Project_Crowd_Funding.sol\":1996:2021  contributions[msg.sender] */\n      0xffffffffffffffffffffffffffffffffffffffff\n      and\n      0xffffffffffffffffffffffffffffffffffffffff\n      and\n      dup2\n      mstore\n      0x20\n      add\n      swap1\n      dup2\n      mstore\n      0x20\n      add\n      0x00\n      keccak256\n        /* \"Learning Pth/Project_Crowd_Funding.sol\":1996:2025  contributions[msg.sender] = 0 */\n      dup2\n      swap1\n      sstore\n      pop\n        /* \"Learning Pth/Project_Crowd_Funding.sol\":2058:2070  contribution */\n      dup1\n        /* \"Learning Pth/Project_Crowd_Funding.sol\":2036:2054  totalContributions */\n      0x04\n      0x00\n        /* \"Learning Pth/Project_Crowd_Funding.sol\":2036:2070  totalContributions -= contribution */\n      dup3\n      dup3\n      sload\n      tag_91\n      swap2\n      swap1\n      tag_92\n      jump\t// in\n    tag_91:\n      swap3\n      pop\n      pop\n      dup2\n      swap1\n      sstore\n      pop\n        /* \"Learning Pth/Project_Crowd_Funding.sol\":2089:2099  msg.sender */\n      caller\n        /* \"Learning Pth/Project_Crowd_Funding.sol\":2081:2109  payable(msg.sender).transfer */\n      0xffffffffffffffffffffffffffffffffffffffff\n      and\n        /* \"Learning Pth/Project_Crowd_Funding.sol\":2081:2123  payable(msg.sender).transfer(contribution) */\n      0x08fc\n        /* \"Learning Pth/Project_Crowd_Funding.sol\":2110:2122  contribution */\n      dup3\n        /* \"Learning Pth/Project_Crowd_Funding.sol\":2081:2123  payable(msg.sender).transfer(contribution) */\n      swap1\n      dup2\n      iszero\n      mul\n      swap1\n      mload(0x40)\n      0x00\n      mload(0x40)\n      dup1\n      dup4\n      sub\n      dup2\n      dup6\n      dup9\n      dup9\n      call\n      swap4\n      pop\n      pop\n      pop\n      pop\n      iszero\n      dup1\n      iszero\n      tag_94\n      jumpi\n      returndatasize\n      0x00\n      dup1\n      returndatacopy\n      revert(0x00, returndatasize)\n    tag_94:\n      pop\n        /* \"Learning Pth/Project_Crowd_Funding.sol\":2139:2177  FundTransfer(msg.sender, contribution) */\n      0x97c35397cb6acebd9df368c206404479fc4c80dd6034d1b28943aaf582631870\n        /* \"Learning Pth/Project_Crowd_Funding.sol\":2152:2162  msg.sender */\n      caller\n        /* \"Learning Pth/Project_Crowd_Funding.sol\":2164:2176  contribution */\n      dup3\n        /* \"Learning Pth/Project_Crowd_Funding.sol\":2139:2177  FundTransfer(msg.sender, contribution) */\n      mload(0x40)\n      tag_95\n      swap3\n      swap2\n      swap1\n      tag_96\n      jump\t// in\n    tag_95:\n      mload(0x40)\n      dup1\n      swap2\n      sub\n      swap1\n      log1\n        /* \"Learning Pth/Project_Crowd_Funding.sol\":1716:2185  {... */\n      pop\n        /* \"Learning Pth/Project_Crowd_Funding.sol\":1688:2185  function getRefund() public {... */\n      jump\t// out\n        /* \"Learning Pth/Project_Crowd_Funding.sol\":883:1403  function contribute() public payable {... */\n    tag_59:\n        /* \"Learning Pth/Project_Crowd_Funding.sol\":957:965  deadline */\n      sload(0x02)\n        /* \"Learning Pth/Project_Crowd_Funding.sol\":939:954  block.timestamp */\n      timestamp\n        /* \"Learning Pth/Project_Crowd_Funding.sol\":939:965  block.timestamp < deadline */\n      lt\n        /* \"Learning Pth/Project_Crowd_Funding.sol\":931:994  require(block.timestamp < deadline, \"Funding period has ended\") */\n      tag_98\n      jumpi\n      mload(0x40)\n      0x08c379a000000000000000000000000000000000000000000000000000000000\n      dup2\n      mstore\n      0x04\n      add\n      tag_99\n      swap1\n      tag_100\n      jump\t// in\n    tag_99:\n      mload(0x40)\n      dup1\n      swap2\n      sub\n      swap1\n      revert\n    tag_98:\n        /* \"Learning Pth/Project_Crowd_Funding.sol\":1014:1025  isCompleted */\n      0x05\n      0x01\n      swap1\n      sload\n      swap1\n      0x0100\n      exp\n      swap1\n      div\n      0xff\n      and\n        /* \"Learning Pth/Project_Crowd_Funding.sol\":1013:1025  !isCompleted */\n      iszero\n        /* \"Learning Pth/Project_Crowd_Funding.sol\":1005:1063  require(!isCompleted, \"Crowdfunding is already completed\") */\n      tag_101\n      jumpi\n      mload(0x40)\n      0x08c379a000000000000000000000000000000000000000000000000000000000\n      dup2\n      mstore\n      0x04\n      add\n      tag_102\n      swap1\n      tag_70\n      jump\t// in\n    tag_102:\n      mload(0x40)\n      dup1\n      swap2\n      sub\n      swap1\n      revert\n    tag_101:\n        /* \"Learning Pth/Project_Crowd_Funding.sol\":1076:1093  uint contribution */\n      0x00\n        /* \"Learning Pth/Project_Crowd_Funding.sol\":1096:1105  msg.value */\n      callvalue\n        /* \"Learning Pth/Project_Crowd_Funding.sol\":1076:1105  uint contribution = msg.value */\n      swap1\n      pop\n        /* \"Learning Pth/Project_Crowd_Funding.sol\":1145:1157  contribution */\n      dup1\n        /* \"Learning Pth/Project_Crowd_Funding.sol\":1116:1129  contributions */\n      0x03\n        /* \"Learning Pth/Project_Crowd_Funding.sol\":1116:1141  contributions[msg.sender] */\n      0x00\n        /* \"Learning Pth/Project_Crowd_Funding.sol\":1130:1140  msg.sender */\n      caller\n        /* \"Learning Pth/Project_Crowd_Funding.sol\":1116:1141  contributions[msg.sender] */\n      0xffffffffffffffffffffffffffffffffffffffff\n      and\n      0xffffffffffffffffffffffffffffffffffffffff\n      and\n      dup2\n      mstore\n      0x20\n      add\n      swap1\n      dup2\n      mstore\n      0x20\n      add\n      0x00\n      keccak256\n      0x00\n        /* \"Learning Pth/Project_Crowd_Funding.sol\":1116:1157  contributions[msg.sender] += contribution */\n      dup3\n      dup3\n      sload\n      tag_103\n      swap2\n      swap1\n      tag_78\n      jump\t// in\n    tag_103:\n      swap3\n      pop\n      pop\n      dup2\n      swap1\n      sstore\n      pop\n        /* \"Learning Pth/Project_Crowd_Funding.sol\":1190:1202  contribution */\n      dup1\n        /* \"Learning Pth/Project_Crowd_Funding.sol\":1168:1186  totalContributions */\n      0x04\n      0x00\n        /* \"Learning Pth/Project_Crowd_Funding.sol\":1168:1202  totalContributions += contribution */\n      dup3\n      dup3\n      sload\n      tag_104\n      swap2\n      swap1\n      tag_78\n      jump\t// in\n    tag_104:\n      swap3\n      pop\n      pop\n      dup2\n      swap1\n      sstore\n      pop\n        /* \"Learning Pth/Project_Crowd_Funding.sol\":1241:1245  goal */\n      sload(0x01)\n        /* \"Learning Pth/Project_Crowd_Funding.sol\":1219:1237  totalContributions */\n      sload(0x04)\n        /* \"Learning Pth/Project_Crowd_Funding.sol\":1219:1245  totalContributions >= goal */\n      lt\n        /* \"Learning Pth/Project_Crowd_Funding.sol\":1215:1340  if (totalContributions >= goal) {... */\n      tag_105\n      jumpi\n        /* \"Learning Pth/Project_Crowd_Funding.sol\":1273:1277  true */\n      0x01\n        /* \"Learning Pth/Project_Crowd_Funding.sol\":1262:1270  isFunded */\n      0x05\n      0x00\n        /* \"Learning Pth/Project_Crowd_Funding.sol\":1262:1277  isFunded = true */\n      0x0100\n      exp\n      dup2\n      sload\n      dup2\n      0xff\n      mul\n      not\n      and\n      swap1\n      dup4\n      iszero\n      iszero\n      mul\n      or\n      swap1\n      sstore\n      pop\n        /* \"Learning Pth/Project_Crowd_Funding.sol\":1297:1328  GoalReached(totalContributions) */\n      0xfbfd8ab7c24300fa9888cd721c8565a7da56759384781283684dcf7c7c4a846b\n        /* \"Learning Pth/Project_Crowd_Funding.sol\":1309:1327  totalContributions */\n      sload(0x04)\n        /* \"Learning Pth/Project_Crowd_Funding.sol\":1297:1328  GoalReached(totalContributions) */\n      mload(0x40)\n      tag_106\n      swap2\n      swap1\n      tag_26\n      jump\t// in\n    tag_106:\n      mload(0x40)\n      dup1\n      swap2\n      sub\n      swap1\n      log1\n        /* \"Learning Pth/Project_Crowd_Funding.sol\":1215:1340  if (totalContributions >= goal) {... */\n    tag_105:\n        /* \"Learning Pth/Project_Crowd_Funding.sol\":1357:1395  FundTransfer(msg.sender, contribution) */\n      0x97c35397cb6acebd9df368c206404479fc4c80dd6034d1b28943aaf582631870\n        /* \"Learning Pth/Project_Crowd_Funding.sol\":1370:1380  msg.sender */\n      caller\n        /* \"Learning Pth/Project_Crowd_Funding.sol\":1382:1394  contribution */\n      dup3\n        /* \"Learning Pth/Project_Crowd_Funding.sol\":1357:1395  FundTransfer(msg.sender, contribution) */\n      mload(0x40)\n      tag_107\n      swap3\n      swap2\n      swap1\n      tag_96\n      jump\t// in\n    tag_107:\n      mload(0x40)\n      dup1\n      swap2\n      sub\n      swap1\n      log1\n        /* \"Learning Pth/Project_Crowd_Funding.sol\":920:1403  {... */\n      pop\n        /* \"Learning Pth/Project_Crowd_Funding.sol\":883:1403  function contribute() public payable {... */\n      jump\t// out\n        /* \"#utility.yul\":7:133   */\n    tag_108:\n        /* \"#utility.yul\":44:51   */\n      0x00\n        /* \"#utility.yul\":84:126   */\n      0xffffffffffffffffffffffffffffffffffffffff\n        /* \"#utility.yul\":77:82   */\n      dup3\n        /* \"#utility.yul\":73:127   */\n      and\n        /* \"#utility.yul\":62:127   */\n      swap1\n      pop\n        /* \"#utility.yul\":7:133   */\n      swap2\n      swap1\n      pop\n      jump\t// out\n        /* \"#utility.yul\":139:235   */\n    tag_109:\n        /* \"#utility.yul\":176:183   */\n      0x00\n        /* \"#utility.yul\":205:229   */\n      tag_141\n        /* \"#utility.yul\":223:228   */\n      dup3\n        /* \"#utility.yul\":205:229   */\n      tag_108\n      jump\t// in\n    tag_141:\n        /* \"#utility.yul\":194:229   */\n      swap1\n      pop\n        /* \"#utility.yul\":139:235   */\n      swap2\n      swap1\n      pop\n      jump\t// out\n        /* \"#utility.yul\":241:359   */\n    tag_110:\n        /* \"#utility.yul\":328:352   */\n      tag_143\n        /* \"#utility.yul\":346:351   */\n      dup2\n        /* \"#utility.yul\":328:352   */\n      tag_109\n      jump\t// in\n    tag_143:\n        /* \"#utility.yul\":323:326   */\n      dup3\n        /* \"#utility.yul\":316:353   */\n      mstore\n        /* \"#utility.yul\":241:359   */\n      pop\n      pop\n      jump\t// out\n        /* \"#utility.yul\":365:587   */\n    tag_18:\n        /* \"#utility.yul\":458:462   */\n      0x00\n        /* \"#utility.yul\":496:498   */\n      0x20\n        /* \"#utility.yul\":485:494   */\n      dup3\n        /* \"#utility.yul\":481:499   */\n      add\n        /* \"#utility.yul\":473:499   */\n      swap1\n      pop\n        /* \"#utility.yul\":509:580   */\n      tag_145\n        /* \"#utility.yul\":577:578   */\n      0x00\n        /* \"#utility.yul\":566:575   */\n      dup4\n        /* \"#utility.yul\":562:579   */\n      add\n        /* \"#utility.yul\":553:559   */\n      dup5\n        /* \"#utility.yul\":509:580   */\n      tag_110\n      jump\t// in\n    tag_145:\n        /* \"#utility.yul\":365:587   */\n      swap3\n      swap2\n      pop\n      pop\n      jump\t// out\n        /* \"#utility.yul\":593:670   */\n    tag_111:\n        /* \"#utility.yul\":630:637   */\n      0x00\n        /* \"#utility.yul\":659:664   */\n      dup2\n        /* \"#utility.yul\":648:664   */\n      swap1\n      pop\n        /* \"#utility.yul\":593:670   */\n      swap2\n      swap1\n      pop\n      jump\t// out\n        /* \"#utility.yul\":676:794   */\n    tag_112:\n        /* \"#utility.yul\":763:787   */\n      tag_148\n        /* \"#utility.yul\":781:786   */\n      dup2\n        /* \"#utility.yul\":763:787   */\n      tag_111\n      jump\t// in\n    tag_148:\n        /* \"#utility.yul\":758:761   */\n      dup3\n        /* \"#utility.yul\":751:788   */\n      mstore\n        /* \"#utility.yul\":676:794   */\n      pop\n      pop\n      jump\t// out\n        /* \"#utility.yul\":800:1022   */\n    tag_26:\n        /* \"#utility.yul\":893:897   */\n      0x00\n        /* \"#utility.yul\":931:933   */\n      0x20\n        /* \"#utility.yul\":920:929   */\n      dup3\n        /* \"#utility.yul\":916:934   */\n      add\n        /* \"#utility.yul\":908:934   */\n      swap1\n      pop\n        /* \"#utility.yul\":944:1015   */\n      tag_150\n        /* \"#utility.yul\":1012:1013   */\n      0x00\n        /* \"#utility.yul\":1001:1010   */\n      dup4\n        /* \"#utility.yul\":997:1014   */\n      add\n        /* \"#utility.yul\":988:994   */\n      dup5\n        /* \"#utility.yul\":944:1015   */\n      tag_112\n      jump\t// in\n    tag_150:\n        /* \"#utility.yul\":800:1022   */\n      swap3\n      swap2\n      pop\n      pop\n      jump\t// out\n        /* \"#utility.yul\":1109:1226   */\n    tag_114:\n        /* \"#utility.yul\":1218:1219   */\n      0x00\n        /* \"#utility.yul\":1215:1216   */\n      dup1\n        /* \"#utility.yul\":1208:1220   */\n      revert\n        /* \"#utility.yul\":1355:1477   */\n    tag_116:\n        /* \"#utility.yul\":1428:1452   */\n      tag_155\n        /* \"#utility.yul\":1446:1451   */\n      dup2\n        /* \"#utility.yul\":1428:1452   */\n      tag_111\n      jump\t// in\n    tag_155:\n        /* \"#utility.yul\":1421:1426   */\n      dup2\n        /* \"#utility.yul\":1418:1453   */\n      eq\n        /* \"#utility.yul\":1408:1471   */\n      tag_156\n      jumpi\n        /* \"#utility.yul\":1467:1468   */\n      0x00\n        /* \"#utility.yul\":1464:1465   */\n      dup1\n        /* \"#utility.yul\":1457:1469   */\n      revert\n        /* \"#utility.yul\":1408:1471   */\n    tag_156:\n        /* \"#utility.yul\":1355:1477   */\n      pop\n      jump\t// out\n        /* \"#utility.yul\":1483:1622   */\n    tag_117:\n        /* \"#utility.yul\":1529:1534   */\n      0x00\n        /* \"#utility.yul\":1567:1573   */\n      dup2\n        /* \"#utility.yul\":1554:1574   */\n      calldataload\n        /* \"#utility.yul\":1545:1574   */\n      swap1\n      pop\n        /* \"#utility.yul\":1583:1616   */\n      tag_158\n        /* \"#utility.yul\":1610:1615   */\n      dup2\n        /* \"#utility.yul\":1583:1616   */\n      tag_116\n      jump\t// in\n    tag_158:\n        /* \"#utility.yul\":1483:1622   */\n      swap3\n      swap2\n      pop\n      pop\n      jump\t// out\n        /* \"#utility.yul\":1628:1957   */\n    tag_34:\n        /* \"#utility.yul\":1687:1693   */\n      0x00\n        /* \"#utility.yul\":1736:1738   */\n      0x20\n        /* \"#utility.yul\":1724:1733   */\n      dup3\n        /* \"#utility.yul\":1715:1722   */\n      dup5\n        /* \"#utility.yul\":1711:1734   */\n      sub\n        /* \"#utility.yul\":1707:1739   */\n      slt\n        /* \"#utility.yul\":1704:1823   */\n      iszero\n      tag_160\n      jumpi\n        /* \"#utility.yul\":1742:1821   */\n      tag_161\n      tag_114\n      jump\t// in\n    tag_161:\n        /* \"#utility.yul\":1704:1823   */\n    tag_160:\n        /* \"#utility.yul\":1862:1863   */\n      0x00\n        /* \"#utility.yul\":1887:1940   */\n      tag_162\n        /* \"#utility.yul\":1932:1939   */\n      dup5\n        /* \"#utility.yul\":1923:1929   */\n      dup3\n        /* \"#utility.yul\":1912:1921   */\n      dup6\n        /* \"#utility.yul\":1908:1930   */\n      add\n        /* \"#utility.yul\":1887:1940   */\n      tag_117\n      jump\t// in\n    tag_162:\n        /* \"#utility.yul\":1877:1940   */\n      swap2\n      pop\n        /* \"#utility.yul\":1833:1950   */\n      pop\n        /* \"#utility.yul\":1628:1957   */\n      swap3\n      swap2\n      pop\n      pop\n      jump\t// out\n        /* \"#utility.yul\":1963:2085   */\n    tag_118:\n        /* \"#utility.yul\":2036:2060   */\n      tag_164\n        /* \"#utility.yul\":2054:2059   */\n      dup2\n        /* \"#utility.yul\":2036:2060   */\n      tag_109\n      jump\t// in\n    tag_164:\n        /* \"#utility.yul\":2029:2034   */\n      dup2\n        /* \"#utility.yul\":2026:2061   */\n      eq\n        /* \"#utility.yul\":2016:2079   */\n      tag_165\n      jumpi\n        /* \"#utility.yul\":2075:2076   */\n      0x00\n        /* \"#utility.yul\":2072:2073   */\n      dup1\n        /* \"#utility.yul\":2065:2077   */\n      revert\n        /* \"#utility.yul\":2016:2079   */\n    tag_165:\n        /* \"#utility.yul\":1963:2085   */\n      pop\n      jump\t// out\n        /* \"#utility.yul\":2091:2230   */\n    tag_119:\n        /* \"#utility.yul\":2137:2142   */\n      0x00\n        /* \"#utility.yul\":2175:2181   */\n      dup2\n        /* \"#utility.yul\":2162:2182   */\n      calldataload\n        /* \"#utility.yul\":2153:2182   */\n      swap1\n      pop\n        /* \"#utility.yul\":2191:2224   */\n      tag_167\n        /* \"#utility.yul\":2218:2223   */\n      dup2\n        /* \"#utility.yul\":2191:2224   */\n      tag_118\n      jump\t// in\n    tag_167:\n        /* \"#utility.yul\":2091:2230   */\n      swap3\n      swap2\n      pop\n      pop\n      jump\t// out\n        /* \"#utility.yul\":2236:2565   */\n    tag_43:\n        /* \"#utility.yul\":2295:2301   */\n      0x00\n        /* \"#utility.yul\":2344:2346   */\n      0x20\n        /* \"#utility.yul\":2332:2341   */\n      dup3\n        /* \"#utility.yul\":2323:2330   */\n      dup5\n        /* \"#utility.yul\":2319:2342   */\n      sub\n        /* \"#utility.yul\":2315:2347   */\n      slt\n        /* \"#utility.yul\":2312:2431   */\n      iszero\n      tag_169\n      jumpi\n        /* \"#utility.yul\":2350:2429   */\n      tag_170\n      tag_114\n      jump\t// in\n    tag_170:\n        /* \"#utility.yul\":2312:2431   */\n    tag_169:\n        /* \"#utility.yul\":2470:2471   */\n      0x00\n        /* \"#utility.yul\":2495:2548   */\n      tag_171\n        /* \"#utility.yul\":2540:2547   */\n      dup5\n        /* \"#utility.yul\":2531:2537   */\n      dup3\n        /* \"#utility.yul\":2520:2529   */\n      dup6\n        /* \"#utility.yul\":2516:2538   */\n      add\n        /* \"#utility.yul\":2495:2548   */\n      tag_119\n      jump\t// in\n    tag_171:\n        /* \"#utility.yul\":2485:2548   */\n      swap2\n      pop\n        /* \"#utility.yul\":2441:2558   */\n      pop\n        /* \"#utility.yul\":2236:2565   */\n      swap3\n      swap2\n      pop\n      pop\n      jump\t// out\n        /* \"#utility.yul\":2571:2661   */\n    tag_120:\n        /* \"#utility.yul\":2605:2612   */\n      0x00\n        /* \"#utility.yul\":2648:2653   */\n      dup2\n        /* \"#utility.yul\":2641:2654   */\n      iszero\n        /* \"#utility.yul\":2634:2655   */\n      iszero\n        /* \"#utility.yul\":2623:2655   */\n      swap1\n      pop\n        /* \"#utility.yul\":2571:2661   */\n      swap2\n      swap1\n      pop\n      jump\t// out\n        /* \"#utility.yul\":2667:2776   */\n    tag_121:\n        /* \"#utility.yul\":2748:2769   */\n      tag_174\n        /* \"#utility.yul\":2763:2768   */\n      dup2\n        /* \"#utility.yul\":2748:2769   */\n      tag_120\n      jump\t// in\n    tag_174:\n        /* \"#utility.yul\":2743:2746   */\n      dup3\n        /* \"#utility.yul\":2736:2770   */\n      mstore\n        /* \"#utility.yul\":2667:2776   */\n      pop\n      pop\n      jump\t// out\n        /* \"#utility.yul\":2782:2992   */\n    tag_50:\n        /* \"#utility.yul\":2869:2873   */\n      0x00\n        /* \"#utility.yul\":2907:2909   */\n      0x20\n        /* \"#utility.yul\":2896:2905   */\n      dup3\n        /* \"#utility.yul\":2892:2910   */\n      add\n        /* \"#utility.yul\":2884:2910   */\n      swap1\n      pop\n        /* \"#utility.yul\":2920:2985   */\n      tag_176\n        /* \"#utility.yul\":2982:2983   */\n      0x00\n        /* \"#utility.yul\":2971:2980   */\n      dup4\n        /* \"#utility.yul\":2967:2984   */\n      add\n        /* \"#utility.yul\":2958:2964   */\n      dup5\n        /* \"#utility.yul\":2920:2985   */\n      tag_121\n      jump\t// in\n    tag_176:\n        /* \"#utility.yul\":2782:2992   */\n      swap3\n      swap2\n      pop\n      pop\n      jump\t// out\n        /* \"#utility.yul\":2998:3167   */\n    tag_122:\n        /* \"#utility.yul\":3082:3093   */\n      0x00\n        /* \"#utility.yul\":3116:3122   */\n      dup3\n        /* \"#utility.yul\":3111:3114   */\n      dup3\n        /* \"#utility.yul\":3104:3123   */\n      mstore\n        /* \"#utility.yul\":3156:3160   */\n      0x20\n        /* \"#utility.yul\":3151:3154   */\n      dup3\n        /* \"#utility.yul\":3147:3161   */\n      add\n        /* \"#utility.yul\":3132:3161   */\n      swap1\n      pop\n        /* \"#utility.yul\":2998:3167   */\n      swap3\n      swap2\n      pop\n      pop\n      jump\t// out\n        /* \"#utility.yul\":3173:3399   */\n    tag_123:\n        /* \"#utility.yul\":3313:3347   */\n      0x4f6e6c79207468652063726561746f722063616e2063616c6c20746869732066\n        /* \"#utility.yul\":3309:3310   */\n      0x00\n        /* \"#utility.yul\":3301:3307   */\n      dup3\n        /* \"#utility.yul\":3297:3311   */\n      add\n        /* \"#utility.yul\":3290:3348   */\n      mstore\n        /* \"#utility.yul\":3382:3391   */\n      0x756e6374696f6e00000000000000000000000000000000000000000000000000\n        /* \"#utility.yul\":3377:3379   */\n      0x20\n        /* \"#utility.yul\":3369:3375   */\n      dup3\n        /* \"#utility.yul\":3365:3380   */\n      add\n        /* \"#utility.yul\":3358:3392   */\n      mstore\n        /* \"#utility.yul\":3173:3399   */\n      pop\n      jump\t// out\n        /* \"#utility.yul\":3405:3771   */\n    tag_124:\n        /* \"#utility.yul\":3547:3550   */\n      0x00\n        /* \"#utility.yul\":3568:3635   */\n      tag_180\n        /* \"#utility.yul\":3632:3634   */\n      0x27\n        /* \"#utility.yul\":3627:3630   */\n      dup4\n        /* \"#utility.yul\":3568:3635   */\n      tag_122\n      jump\t// in\n    tag_180:\n        /* \"#utility.yul\":3561:3635   */\n      swap2\n      pop\n        /* \"#utility.yul\":3644:3737   */\n      tag_181\n        /* \"#utility.yul\":3733:3736   */\n      dup3\n        /* \"#utility.yul\":3644:3737   */\n      tag_123\n      jump\t// in\n    tag_181:\n        /* \"#utility.yul\":3762:3764   */\n      0x40\n        /* \"#utility.yul\":3757:3760   */\n      dup3\n        /* \"#utility.yul\":3753:3765   */\n      add\n        /* \"#utility.yul\":3746:3765   */\n      swap1\n      pop\n        /* \"#utility.yul\":3405:3771   */\n      swap2\n      swap1\n      pop\n      jump\t// out\n        /* \"#utility.yul\":3777:4196   */\n    tag_63:\n        /* \"#utility.yul\":3943:3947   */\n      0x00\n        /* \"#utility.yul\":3981:3983   */\n      0x20\n        /* \"#utility.yul\":3970:3979   */\n      dup3\n        /* \"#utility.yul\":3966:3984   */\n      add\n        /* \"#utility.yul\":3958:3984   */\n      swap1\n      pop\n        /* \"#utility.yul\":4030:4039   */\n      dup2\n        /* \"#utility.yul\":4024:4028   */\n      dup2\n        /* \"#utility.yul\":4020:4040   */\n      sub\n        /* \"#utility.yul\":4016:4017   */\n      0x00\n        /* \"#utility.yul\":4005:4014   */\n      dup4\n        /* \"#utility.yul\":4001:4018   */\n      add\n        /* \"#utility.yul\":3994:4041   */\n      mstore\n        /* \"#utility.yul\":4058:4189   */\n      tag_183\n        /* \"#utility.yul\":4184:4188   */\n      dup2\n        /* \"#utility.yul\":4058:4189   */\n      tag_124\n      jump\t// in\n    tag_183:\n        /* \"#utility.yul\":4050:4189   */\n      swap1\n      pop\n        /* \"#utility.yul\":3777:4196   */\n      swap2\n      swap1\n      pop\n      jump\t// out\n        /* \"#utility.yul\":4202:4377   */\n    tag_125:\n        /* \"#utility.yul\":4342:4369   */\n      0x476f616c20686173206e6f74206265656e207265616368656400000000000000\n        /* \"#utility.yul\":4338:4339   */\n      0x00\n        /* \"#utility.yul\":4330:4336   */\n      dup3\n        /* \"#utility.yul\":4326:4340   */\n      add\n        /* \"#utility.yul\":4319:4370   */\n      mstore\n        /* \"#utility.yul\":4202:4377   */\n      pop\n      jump\t// out\n        /* \"#utility.yul\":4383:4749   */\n    tag_126:\n        /* \"#utility.yul\":4525:4528   */\n      0x00\n        /* \"#utility.yul\":4546:4613   */\n      tag_186\n        /* \"#utility.yul\":4610:4612   */\n      0x19\n        /* \"#utility.yul\":4605:4608   */\n      dup4\n        /* \"#utility.yul\":4546:4613   */\n      tag_122\n      jump\t// in\n    tag_186:\n        /* \"#utility.yul\":4539:4613   */\n      swap2\n      pop\n        /* \"#utility.yul\":4622:4715   */\n      tag_187\n        /* \"#utility.yul\":4711:4714   */\n      dup3\n        /* \"#utility.yul\":4622:4715   */\n      tag_125\n      jump\t// in\n    tag_187:\n        /* \"#utility.yul\":4740:4742   */\n      0x20\n        /* \"#utility.yul\":4735:4738   */\n      dup3\n        /* \"#utility.yul\":4731:4743   */\n      add\n        /* \"#utility.yul\":4724:4743   */\n      swap1\n      pop\n        /* \"#utility.yul\":4383:4749   */\n      swap2\n      swap1\n      pop\n      jump\t// out\n        /* \"#utility.yul\":4755:5174   */\n    tag_67:\n        /* \"#utility.yul\":4921:4925   */\n      0x00\n        /* \"#utility.yul\":4959:4961   */\n      0x20\n        /* \"#utility.yul\":4948:4957   */\n      dup3\n        /* \"#utility.yul\":4944:4962   */\n      add\n        /* \"#utility.yul\":4936:4962   */\n      swap1\n      pop\n        /* \"#utility.yul\":5008:5017   */\n      dup2\n        /* \"#utility.yul\":5002:5006   */\n      dup2\n        /* \"#utility.yul\":4998:5018   */\n      sub\n        /* \"#utility.yul\":4994:4995   */\n      0x00\n        /* \"#utility.yul\":4983:4992   */\n      dup4\n        /* \"#utility.yul\":4979:4996   */\n      add\n        /* \"#utility.yul\":4972:5019   */\n      mstore\n        /* \"#utility.yul\":5036:5167   */\n      tag_189\n        /* \"#utility.yul\":5162:5166   */\n      dup2\n        /* \"#utility.yul\":5036:5167   */\n      tag_126\n      jump\t// in\n    tag_189:\n        /* \"#utility.yul\":5028:5167   */\n      swap1\n      pop\n        /* \"#utility.yul\":4755:5174   */\n      swap2\n      swap1\n      pop\n      jump\t// out\n        /* \"#utility.yul\":5180:5400   */\n    tag_127:\n        /* \"#utility.yul\":5320:5354   */\n      0x43726f776466756e64696e6720697320616c726561647920636f6d706c657465\n        /* \"#utility.yul\":5316:5317   */\n      0x00\n        /* \"#utility.yul\":5308:5314   */\n      dup3\n        /* \"#utility.yul\":5304:5318   */\n      add\n        /* \"#utility.yul\":5297:5355   */\n      mstore\n        /* \"#utility.yul\":5389:5392   */\n      0x6400000000000000000000000000000000000000000000000000000000000000\n        /* \"#utility.yul\":5384:5386   */\n      0x20\n        /* \"#utility.yul\":5376:5382   */\n      dup3\n        /* \"#utility.yul\":5372:5387   */\n      add\n        /* \"#utility.yul\":5365:5393   */\n      mstore\n        /* \"#utility.yul\":5180:5400   */\n      pop\n      jump\t// out\n        /* \"#utility.yul\":5406:5772   */\n    tag_128:\n        /* \"#utility.yul\":5548:5551   */\n      0x00\n        /* \"#utility.yul\":5569:5636   */\n      tag_192\n        /* \"#utility.yul\":5633:5635   */\n      0x21\n        /* \"#utility.yul\":5628:5631   */\n      dup4\n        /* \"#utility.yul\":5569:5636   */\n      tag_122\n      jump\t// in\n    tag_192:\n        /* \"#utility.yul\":5562:5636   */\n      swap2\n      pop\n        /* \"#utility.yul\":5645:5738   */\n      tag_193\n        /* \"#utility.yul\":5734:5737   */\n      dup3\n        /* \"#utility.yul\":5645:5738   */\n      tag_127\n      jump\t// in\n    tag_193:\n        /* \"#utility.yul\":5763:5765   */\n      0x40\n        /* \"#utility.yul\":5758:5761   */\n      dup3\n        /* \"#utility.yul\":5754:5766   */\n      add\n        /* \"#utility.yul\":5747:5766   */\n      swap1\n      pop\n        /* \"#utility.yul\":5406:5772   */\n      swap2\n      swap1\n      pop\n      jump\t// out\n        /* \"#utility.yul\":5778:6197   */\n    tag_70:\n        /* \"#utility.yul\":5944:5948   */\n      0x00\n        /* \"#utility.yul\":5982:5984   */\n      0x20\n        /* \"#utility.yul\":5971:5980   */\n      dup3\n        /* \"#utility.yul\":5967:5985   */\n      add\n        /* \"#utility.yul\":5959:5985   */\n      swap1\n      pop\n        /* \"#utility.yul\":6031:6040   */\n      dup2\n        /* \"#utility.yul\":6025:6029   */\n      dup2\n        /* \"#utility.yul\":6021:6041   */\n      sub\n        /* \"#utility.yul\":6017:6018   */\n      0x00\n        /* \"#utility.yul\":6006:6015   */\n      dup4\n        /* \"#utility.yul\":6002:6019   */\n      add\n        /* \"#utility.yul\":5995:6042   */\n      mstore\n        /* \"#utility.yul\":6059:6190   */\n      tag_195\n        /* \"#utility.yul\":6185:6189   */\n      dup2\n        /* \"#utility.yul\":6059:6190   */\n      tag_128\n      jump\t// in\n    tag_195:\n        /* \"#utility.yul\":6051:6190   */\n      swap1\n      pop\n        /* \"#utility.yul\":5778:6197   */\n      swap2\n      swap1\n      pop\n      jump\t// out\n        /* \"#utility.yul\":6203:6383   */\n    tag_129:\n        /* \"#utility.yul\":6251:6328   */\n      0x4e487b7100000000000000000000000000000000000000000000000000000000\n        /* \"#utility.yul\":6248:6249   */\n      0x00\n        /* \"#utility.yul\":6241:6329   */\n      mstore\n        /* \"#utility.yul\":6348:6352   */\n      0x11\n        /* \"#utility.yul\":6345:6346   */\n      0x04\n        /* \"#utility.yul\":6338:6353   */\n      mstore\n        /* \"#utility.yul\":6372:6376   */\n      0x24\n        /* \"#utility.yul\":6369:6370   */\n      0x00\n        /* \"#utility.yul\":6362:6377   */\n      revert\n        /* \"#utility.yul\":6389:6580   */\n    tag_78:\n        /* \"#utility.yul\":6429:6432   */\n      0x00\n        /* \"#utility.yul\":6448:6468   */\n      tag_198\n        /* \"#utility.yul\":6466:6467   */\n      dup3\n        /* \"#utility.yul\":6448:6468   */\n      tag_111\n      jump\t// in\n    tag_198:\n        /* \"#utility.yul\":6443:6468   */\n      swap2\n      pop\n        /* \"#utility.yul\":6482:6502   */\n      tag_199\n        /* \"#utility.yul\":6500:6501   */\n      dup4\n        /* \"#utility.yul\":6482:6502   */\n      tag_111\n      jump\t// in\n    tag_199:\n        /* \"#utility.yul\":6477:6502   */\n      swap3\n      pop\n        /* \"#utility.yul\":6525:6526   */\n      dup3\n        /* \"#utility.yul\":6522:6523   */\n      dup3\n        /* \"#utility.yul\":6518:6527   */\n      add\n        /* \"#utility.yul\":6511:6527   */\n      swap1\n      pop\n        /* \"#utility.yul\":6546:6549   */\n      dup1\n        /* \"#utility.yul\":6543:6544   */\n      dup3\n        /* \"#utility.yul\":6540:6550   */\n      gt\n        /* \"#utility.yul\":6537:6573   */\n      iszero\n      tag_200\n      jumpi\n        /* \"#utility.yul\":6553:6571   */\n      tag_201\n      tag_129\n      jump\t// in\n    tag_201:\n        /* \"#utility.yul\":6537:6573   */\n    tag_200:\n        /* \"#utility.yul\":6389:6580   */\n      swap3\n      swap2\n      pop\n      pop\n      jump\t// out\n        /* \"#utility.yul\":6586:6764   */\n    tag_130:\n        /* \"#utility.yul\":6726:6756   */\n      0x46756e64696e6720706572696f6420686173206e6f7420656e64656400000000\n        /* \"#utility.yul\":6722:6723   */\n      0x00\n        /* \"#utility.yul\":6714:6720   */\n      dup3\n        /* \"#utility.yul\":6710:6724   */\n      add\n        /* \"#utility.yul\":6703:6757   */\n      mstore\n        /* \"#utility.yul\":6586:6764   */\n      pop\n      jump\t// out\n        /* \"#utility.yul\":6770:7136   */\n    tag_131:\n        /* \"#utility.yul\":6912:6915   */\n      0x00\n        /* \"#utility.yul\":6933:7000   */\n      tag_204\n        /* \"#utility.yul\":6997:6999   */\n      0x1c\n        /* \"#utility.yul\":6992:6995   */\n      dup4\n        /* \"#utility.yul\":6933:7000   */\n      tag_122\n      jump\t// in\n    tag_204:\n        /* \"#utility.yul\":6926:7000   */\n      swap2\n      pop\n        /* \"#utility.yul\":7009:7102   */\n      tag_205\n        /* \"#utility.yul\":7098:7101   */\n      dup3\n        /* \"#utility.yul\":7009:7102   */\n      tag_130\n      jump\t// in\n    tag_205:\n        /* \"#utility.yul\":7127:7129   */\n      0x20\n        /* \"#utility.yul\":7122:7125   */\n      dup3\n        /* \"#utility.yul\":7118:7130   */\n      add\n        /* \"#utility.yul\":7111:7130   */\n      swap1\n      pop\n        /* \"#utility.yul\":6770:7136   */\n      swap2\n      swap1\n      pop\n      jump\t// out\n        /* \"#utility.yul\":7142:7561   */\n    tag_84:\n        /* \"#utility.yul\":7308:7312   */\n      0x00\n        /* \"#utility.yul\":7346:7348   */\n      0x20\n        /* \"#utility.yul\":7335:7344   */\n      dup3\n        /* \"#utility.yul\":7331:7349   */\n      add\n        /* \"#utility.yul\":7323:7349   */\n      swap1\n      pop\n        /* \"#utility.yul\":7395:7404   */\n      dup2\n        /* \"#utility.yul\":7389:7393   */\n      dup2\n        /* \"#utility.yul\":7385:7405   */\n      sub\n        /* \"#utility.yul\":7381:7382   */\n      0x00\n        /* \"#utility.yul\":7370:7379   */\n      dup4\n        /* \"#utility.yul\":7366:7383   */\n      add\n        /* \"#utility.yul\":7359:7406   */\n      mstore\n        /* \"#utility.yul\":7423:7554   */\n      tag_207\n        /* \"#utility.yul\":7549:7553   */\n      dup2\n        /* \"#utility.yul\":7423:7554   */\n      tag_131\n      jump\t// in\n    tag_207:\n        /* \"#utility.yul\":7415:7554   */\n      swap1\n      pop\n        /* \"#utility.yul\":7142:7561   */\n      swap2\n      swap1\n      pop\n      jump\t// out\n        /* \"#utility.yul\":7567:7738   */\n    tag_132:\n        /* \"#utility.yul\":7707:7730   */\n      0x476f616c20686173206265656e20726561636865640000000000000000000000\n        /* \"#utility.yul\":7703:7704   */\n      0x00\n        /* \"#utility.yul\":7695:7701   */\n      dup3\n        /* \"#utility.yul\":7691:7705   */\n      add\n        /* \"#utility.yul\":7684:7731   */\n      mstore\n        /* \"#utility.yul\":7567:7738   */\n      pop\n      jump\t// out\n        /* \"#utility.yul\":7744:8110   */\n    tag_133:\n        /* \"#utility.yul\":7886:7889   */\n      0x00\n        /* \"#utility.yul\":7907:7974   */\n      tag_210\n        /* \"#utility.yul\":7971:7973   */\n      0x15\n        /* \"#utility.yul\":7966:7969   */\n      dup4\n        /* \"#utility.yul\":7907:7974   */\n      tag_122\n      jump\t// in\n    tag_210:\n        /* \"#utility.yul\":7900:7974   */\n      swap2\n      pop\n        /* \"#utility.yul\":7983:8076   */\n      tag_211\n        /* \"#utility.yul\":8072:8075   */\n      dup3\n        /* \"#utility.yul\":7983:8076   */\n      tag_132\n      jump\t// in\n    tag_211:\n        /* \"#utility.yul\":8101:8103   */\n      0x20\n        /* \"#utility.yul\":8096:8099   */\n      dup3\n        /* \"#utility.yul\":8092:8104   */\n      add\n        /* \"#utility.yul\":8085:8104   */\n      swap1\n      pop\n        /* \"#utility.yul\":7744:8110   */\n      swap2\n      swap1\n      pop\n      jump\t// out\n        /* \"#utility.yul\":8116:8535   */\n    tag_87:\n        /* \"#utility.yul\":8282:8286   */\n      0x00\n        /* \"#utility.yul\":8320:8322   */\n      0x20\n        /* \"#utility.yul\":8309:8318   */\n      dup3\n        /* \"#utility.yul\":8305:8323   */\n      add\n        /* \"#utility.yul\":8297:8323   */\n      swap1\n      pop\n        /* \"#utility.yul\":8369:8378   */\n      dup2\n        /* \"#utility.yul\":8363:8367   */\n      dup2\n        /* \"#utility.yul\":8359:8379   */\n      sub\n        /* \"#utility.yul\":8355:8356   */\n      0x00\n        /* \"#utility.yul\":8344:8353   */\n      dup4\n        /* \"#utility.yul\":8340:8357   */\n      add\n        /* \"#utility.yul\":8333:8380   */\n      mstore\n        /* \"#utility.yul\":8397:8528   */\n      tag_213\n        /* \"#utility.yul\":8523:8527   */\n      dup2\n        /* \"#utility.yul\":8397:8528   */\n      tag_133\n      jump\t// in\n    tag_213:\n        /* \"#utility.yul\":8389:8528   */\n      swap1\n      pop\n        /* \"#utility.yul\":8116:8535   */\n      swap2\n      swap1\n      pop\n      jump\t// out\n        /* \"#utility.yul\":8541:8716   */\n    tag_134:\n        /* \"#utility.yul\":8681:8708   */\n      0x4e6f20636f6e747269627574696f6e20746f20726566756e6400000000000000\n        /* \"#utility.yul\":8677:8678   */\n      0x00\n        /* \"#utility.yul\":8669:8675   */\n      dup3\n        /* \"#utility.yul\":8665:8679   */\n      add\n        /* \"#utility.yul\":8658:8709   */\n      mstore\n        /* \"#utility.yul\":8541:8716   */\n      pop\n      jump\t// out\n        /* \"#utility.yul\":8722:9088   */\n    tag_135:\n        /* \"#utility.yul\":8864:8867   */\n      0x00\n        /* \"#utility.yul\":8885:8952   */\n      tag_216\n        /* \"#utility.yul\":8949:8951   */\n      0x19\n        /* \"#utility.yul\":8944:8947   */\n      dup4\n        /* \"#utility.yul\":8885:8952   */\n      tag_122\n      jump\t// in\n    tag_216:\n        /* \"#utility.yul\":8878:8952   */\n      swap2\n      pop\n        /* \"#utility.yul\":8961:9054   */\n      tag_217\n        /* \"#utility.yul\":9050:9053   */\n      dup3\n        /* \"#utility.yul\":8961:9054   */\n      tag_134\n      jump\t// in\n    tag_217:\n        /* \"#utility.yul\":9079:9081   */\n      0x20\n        /* \"#utility.yul\":9074:9077   */\n      dup3\n        /* \"#utility.yul\":9070:9082   */\n      add\n        /* \"#utility.yul\":9063:9082   */\n      swap1\n      pop\n        /* \"#utility.yul\":8722:9088   */\n      swap2\n      swap1\n      pop\n      jump\t// out\n        /* \"#utility.yul\":9094:9513   */\n    tag_90:\n        /* \"#utility.yul\":9260:9264   */\n      0x00\n        /* \"#utility.yul\":9298:9300   */\n      0x20\n        /* \"#utility.yul\":9287:9296   */\n      dup3\n        /* \"#utility.yul\":9283:9301   */\n      add\n        /* \"#utility.yul\":9275:9301   */\n      swap1\n      pop\n        /* \"#utility.yul\":9347:9356   */\n      dup2\n        /* \"#utility.yul\":9341:9345   */\n      dup2\n        /* \"#utility.yul\":9337:9357   */\n      sub\n        /* \"#utility.yul\":9333:9334   */\n      0x00\n        /* \"#utility.yul\":9322:9331   */\n      dup4\n        /* \"#utility.yul\":9318:9335   */\n      add\n        /* \"#utility.yul\":9311:9358   */\n      mstore\n        /* \"#utility.yul\":9375:9506   */\n      tag_219\n        /* \"#utility.yul\":9501:9505   */\n      dup2\n        /* \"#utility.yul\":9375:9506   */\n      tag_135\n      jump\t// in\n    tag_219:\n        /* \"#utility.yul\":9367:9506   */\n      swap1\n      pop\n        /* \"#utility.yul\":9094:9513   */\n      swap2\n      swap1\n      pop\n      jump\t// out\n        /* \"#utility.yul\":9519:9713   */\n    tag_92:\n        /* \"#utility.yul\":9559:9563   */\n      0x00\n        /* \"#utility.yul\":9579:9599   */\n      tag_221\n        /* \"#utility.yul\":9597:9598   */\n      dup3\n        /* \"#utility.yul\":9579:9599   */\n      tag_111\n      jump\t// in\n    tag_221:\n        /* \"#utility.yul\":9574:9599   */\n      swap2\n      pop\n        /* \"#utility.yul\":9613:9633   */\n      tag_222\n        /* \"#utility.yul\":9631:9632   */\n      dup4\n        /* \"#utility.yul\":9613:9633   */\n      tag_111\n      jump\t// in\n    tag_222:\n        /* \"#utility.yul\":9608:9633   */\n      swap3\n      pop\n        /* \"#utility.yul\":9657:9658   */\n      dup3\n        /* \"#utility.yul\":9654:9655   */\n      dup3\n        /* \"#utility.yul\":9650:9659   */\n      sub\n        /* \"#utility.yul\":9642:9659   */\n      swap1\n      pop\n        /* \"#utility.yul\":9681:9682   */\n      dup2\n        /* \"#utility.yul\":9675:9679   */\n      dup2\n        /* \"#utility.yul\":9672:9683   */\n      gt\n        /* \"#utility.yul\":9669:9706   */\n      iszero\n      tag_223\n      jumpi\n        /* \"#utility.yul\":9686:9704   */\n      tag_224\n      tag_129\n      jump\t// in\n    tag_224:\n        /* \"#utility.yul\":9669:9706   */\n    tag_223:\n        /* \"#utility.yul\":9519:9713   */\n      swap3\n      swap2\n      pop\n      pop\n      jump\t// out\n        /* \"#utility.yul\":9719:10051   */\n    tag_96:\n        /* \"#utility.yul\":9840:9844   */\n      0x00\n        /* \"#utility.yul\":9878:9880   */\n      0x40\n        /* \"#utility.yul\":9867:9876   */\n      dup3\n        /* \"#utility.yul\":9863:9881   */\n      add\n        /* \"#utility.yul\":9855:9881   */\n      swap1\n      pop\n        /* \"#utility.yul\":9891:9962   */\n      tag_226\n        /* \"#utility.yul\":9959:9960   */\n      0x00\n        /* \"#utility.yul\":9948:9957   */\n      dup4\n        /* \"#utility.yul\":9944:9961   */\n      add\n        /* \"#utility.yul\":9935:9941   */\n      dup6\n        /* \"#utility.yul\":9891:9962   */\n      tag_110\n      jump\t// in\n    tag_226:\n        /* \"#utility.yul\":9972:10044   */\n      tag_227\n        /* \"#utility.yul\":10040:10042   */\n      0x20\n        /* \"#utility.yul\":10029:10038   */\n      dup4\n        /* \"#utility.yul\":10025:10043   */\n      add\n        /* \"#utility.yul\":10016:10022   */\n      dup5\n        /* \"#utility.yul\":9972:10044   */\n      tag_112\n      jump\t// in\n    tag_227:\n        /* \"#utility.yul\":9719:10051   */\n      swap4\n      swap3\n      pop\n      pop\n      pop\n      jump\t// out\n        /* \"#utility.yul\":10057:10231   */\n    tag_136:\n        /* \"#utility.yul\":10197:10223   */\n      0x46756e64696e6720706572696f642068617320656e6465640000000000000000\n        /* \"#utility.yul\":10193:10194   */\n      0x00\n        /* \"#utility.yul\":10185:10191   */\n      dup3\n        /* \"#utility.yul\":10181:10195   */\n      add\n        /* \"#utility.yul\":10174:10224   */\n      mstore\n        /* \"#utility.yul\":10057:10231   */\n      pop\n      jump\t// out\n        /* \"#utility.yul\":10237:10603   */\n    tag_137:\n        /* \"#utility.yul\":10379:10382   */\n      0x00\n        /* \"#utility.yul\":10400:10467   */\n      tag_230\n        /* \"#utility.yul\":10464:10466   */\n      0x18\n        /* \"#utility.yul\":10459:10462   */\n      dup4\n        /* \"#utility.yul\":10400:10467   */\n      tag_122\n      jump\t// in\n    tag_230:\n        /* \"#utility.yul\":10393:10467   */\n      swap2\n      pop\n        /* \"#utility.yul\":10476:10569   */\n      tag_231\n        /* \"#utility.yul\":10565:10568   */\n      dup3\n        /* \"#utility.yul\":10476:10569   */\n      tag_136\n      jump\t// in\n    tag_231:\n        /* \"#utility.yul\":10594:10596   */\n      0x20\n        /* \"#utility.yul\":10589:10592   */\n      dup3\n        /* \"#utility.yul\":10585:10597   */\n      add\n        /* \"#utility.yul\":10578:10597   */\n      swap1\n      pop\n        /* \"#utility.yul\":10237:10603   */\n      swap2\n      swap1\n      pop\n      jump\t// out\n        /* \"#utility.yul\":10609:11028   */\n    tag_100:\n        /* \"#utility.yul\":10775:10779   */\n      0x00\n        /* \"#utility.yul\":10813:10815   */\n      0x20\n        /* \"#utility.yul\":10802:10811   */\n      dup3\n        /* \"#utility.yul\":10798:10816   */\n      add\n        /* \"#utility.yul\":10790:10816   */\n      swap1\n      pop\n        /* \"#utility.yul\":10862:10871   */\n      dup2\n        /* \"#utility.yul\":10856:10860   */\n      dup2\n        /* \"#utility.yul\":10852:10872   */\n      sub\n        /* \"#utility.yul\":10848:10849   */\n      0x00\n        /* \"#utility.yul\":10837:10846   */\n      dup4\n        /* \"#utility.yul\":10833:10850   */\n      add\n        /* \"#utility.yul\":10826:10873   */\n      mstore\n        /* \"#utility.yul\":10890:11021   */\n      tag_233\n        /* \"#utility.yul\":11016:11020   */\n      dup2\n        /* \"#utility.yul\":10890:11021   */\n      tag_137\n      jump\t// in\n    tag_233:\n        /* \"#utility.yul\":10882:11021   */\n      swap1\n      pop\n        /* \"#utility.yul\":10609:11028   */\n      swap2\n      swap1\n      pop\n      jump\t// out\n\n    auxdata: 0xa2646970667358221220eccd684e58f39b6c41742ef72ac957e5035be2b3999e5db74ffa15acea0f158364736f6c634300081a0033\n}\n",
				"bytecode": {
					"linkReferences": {},
					"object": "608060405234801561000f575f80fd5b5060405161105638038061105683398181016040528101906100319190610119565b335f806101000a81548173ffffffffffffffffffffffffffffffffffffffff021916908373ffffffffffffffffffffffffffffffffffffffff160217905550670de0b6b3a7640000826100849190610184565b600181905550603c816100979190610184565b426100a291906101c5565b6002819055505f60055f6101000a81548160ff0219169083151502179055505f600560016101000a81548160ff02191690831515021790555050506101f8565b5f80fd5b5f819050919050565b6100f8816100e6565b8114610102575f80fd5b50565b5f81519050610113816100ef565b92915050565b5f806040838503121561012f5761012e6100e2565b5b5f61013c85828601610105565b925050602061014d85828601610105565b9150509250929050565b7f4e487b71000000000000000000000000000000000000000000000000000000005f52601160045260245ffd5b5f61018e826100e6565b9150610199836100e6565b92508282026101a7816100e6565b915082820484148315176101be576101bd610157565b5b5092915050565b5f6101cf826100e6565b91506101da836100e6565b92508282019050808211156101f2576101f1610157565b5b92915050565b610e51806102055f395ff3fe60806040526004361061009b575f3560e01c80634019388311610063578063401938831461015b57806342e94c90146101855780637c654303146101c1578063a5749710146101eb578063b2d5ae4414610215578063d7bb99ba1461022b5761009b565b806302d05d3f1461009f57806324600fc3146100c957806329dcb0cf146100df57806337c0892314610109578063389b753314610133575b5f80fd5b3480156100aa575f80fd5b506100b3610235565b6040516100c09190610902565b60405180910390f35b3480156100d4575f80fd5b506100dd610258565b005b3480156100ea575f80fd5b506100f3610403565b6040516101009190610933565b60405180910390f35b348015610114575f80fd5b5061011d610409565b60405161012a9190610933565b60405180910390f35b34801561013e575f80fd5b506101596004803603810190610154919061097a565b61040f565b005b348015610166575f80fd5b5061016f6104c3565b60405161017c9190610933565b60405180910390f35b348015610190575f80fd5b506101ab60048036038101906101a691906109cf565b6104c9565b6040516101b89190610933565b60405180910390f35b3480156101cc575f80fd5b506101d56104de565b6040516101e29190610a14565b60405180910390f35b3480156101f6575f80fd5b506101ff6104f0565b60405161020c9190610933565b60405180910390f35b348015610220575f80fd5b506102296104f7565b005b610233610725565b005b5f8054906101000a900473ffffffffffffffffffffffffffffffffffffffff1681565b5f8054906101000a900473ffffffffffffffffffffffffffffffffffffffff1673ffffffffffffffffffffffffffffffffffffffff163373ffffffffffffffffffffffffffffffffffffffff16146102e5576040517f08c379a00000000000000000000000000000000000000000000000000000000081526004016102dc90610aad565b60405180910390fd5b60055f9054906101000a900460ff16610333576040517f08c379a000000000000000000000000000000000000000000000000000000000815260040161032a90610b15565b60405180910390fd5b600560019054906101000a900460ff1615610383576040517f08c379a000000000000000000000000000000000000000000000000000000000815260040161037a90610ba3565b60405180910390fd5b6001600560016101000a81548160ff0219169083151502179055505f8054906101000a900473ffffffffffffffffffffffffffffffffffffffff1673ffffffffffffffffffffffffffffffffffffffff166108fc4790811502906040515f60405180830381858888f19350505050158015610400573d5f803e3d5ffd5b50565b60025481565b60045481565b5f8054906101000a900473ffffffffffffffffffffffffffffffffffffffff1673ffffffffffffffffffffffffffffffffffffffff163373ffffffffffffffffffffffffffffffffffffffff161461049c576040517f08c379a000000000000000000000000000000000000000000000000000000000815260040161049390610aad565b60405180910390fd5b603c816104a99190610bee565b60025f8282546104b99190610bee565b9250508190555050565b60015481565b6003602052805f5260405f205f915090505481565b60055f9054906101000a900460ff1681565b5f47905090565b60025442101561053c576040517f08c379a000000000000000000000000000000000000000000000000000000000815260040161053390610c6b565b60405180910390fd5b60055f9054906101000a900460ff161561058b576040517f08c379a000000000000000000000000000000000000000000000000000000000815260040161058290610cd3565b60405180910390fd5b5f60035f3373ffffffffffffffffffffffffffffffffffffffff1673ffffffffffffffffffffffffffffffffffffffff1681526020019081526020015f20541161060a576040517f08c379a000000000000000000000000000000000000000000000000000000000815260040161060190610d3b565b60405180910390fd5b5f60035f3373ffffffffffffffffffffffffffffffffffffffff1673ffffffffffffffffffffffffffffffffffffffff1681526020019081526020015f205490505f60035f3373ffffffffffffffffffffffffffffffffffffffff1673ffffffffffffffffffffffffffffffffffffffff1681526020019081526020015f20819055508060045f82825461069e9190610d59565b925050819055503373ffffffffffffffffffffffffffffffffffffffff166108fc8290811502906040515f60405180830381858888f193505050501580156106e8573d5f803e3d5ffd5b507f97c35397cb6acebd9df368c206404479fc4c80dd6034d1b28943aaf582631870338260405161071a929190610d8c565b60405180910390a150565b6002544210610769576040517f08c379a000000000000000000000000000000000000000000000000000000000815260040161076090610dfd565b60405180910390fd5b600560019054906101000a900460ff16156107b9576040517f08c379a00000000000000000000000000000000000000000000000000000000081526004016107b090610ba3565b60405180910390fd5b5f3490508060035f3373ffffffffffffffffffffffffffffffffffffffff1673ffffffffffffffffffffffffffffffffffffffff1681526020019081526020015f205f8282546108099190610bee565b925050819055508060045f8282546108219190610bee565b925050819055506001546004541061088757600160055f6101000a81548160ff0219169083151502179055507ffbfd8ab7c24300fa9888cd721c8565a7da56759384781283684dcf7c7c4a846b60045460405161087e9190610933565b60405180910390a15b7f97c35397cb6acebd9df368c206404479fc4c80dd6034d1b28943aaf58263187033826040516108b8929190610d8c565b60405180910390a150565b5f73ffffffffffffffffffffffffffffffffffffffff82169050919050565b5f6108ec826108c3565b9050919050565b6108fc816108e2565b82525050565b5f6020820190506109155f8301846108f3565b92915050565b5f819050919050565b61092d8161091b565b82525050565b5f6020820190506109465f830184610924565b92915050565b5f80fd5b6109598161091b565b8114610963575f80fd5b50565b5f8135905061097481610950565b92915050565b5f6020828403121561098f5761098e61094c565b5b5f61099c84828501610966565b91505092915050565b6109ae816108e2565b81146109b8575f80fd5b50565b5f813590506109c9816109a5565b92915050565b5f602082840312156109e4576109e361094c565b5b5f6109f1848285016109bb565b91505092915050565b5f8115159050919050565b610a0e816109fa565b82525050565b5f602082019050610a275f830184610a05565b92915050565b5f82825260208201905092915050565b7f4f6e6c79207468652063726561746f722063616e2063616c6c207468697320665f8201527f756e6374696f6e00000000000000000000000000000000000000000000000000602082015250565b5f610a97602783610a2d565b9150610aa282610a3d565b604082019050919050565b5f6020820190508181035f830152610ac481610a8b565b9050919050565b7f476f616c20686173206e6f74206265656e2072656163686564000000000000005f82015250565b5f610aff601983610a2d565b9150610b0a82610acb565b602082019050919050565b5f6020820190508181035f830152610b2c81610af3565b9050919050565b7f43726f776466756e64696e6720697320616c726561647920636f6d706c6574655f8201527f6400000000000000000000000000000000000000000000000000000000000000602082015250565b5f610b8d602183610a2d565b9150610b9882610b33565b604082019050919050565b5f6020820190508181035f830152610bba81610b81565b9050919050565b7f4e487b71000000000000000000000000000000000000000000000000000000005f52601160045260245ffd5b5f610bf88261091b565b9150610c038361091b565b9250828201905080821115610c1b57610c1a610bc1565b5b92915050565b7f46756e64696e6720706572696f6420686173206e6f7420656e646564000000005f82015250565b5f610c55601c83610a2d565b9150610c6082610c21565b602082019050919050565b5f6020820190508181035f830152610c8281610c49565b9050919050565b7f476f616c20686173206265656e207265616368656400000000000000000000005f82015250565b5f610cbd601583610a2d565b9150610cc882610c89565b602082019050919050565b5f6020820190508181035f830152610cea81610cb1565b9050919050565b7f4e6f20636f6e747269627574696f6e20746f20726566756e64000000000000005f82015250565b5f610d25601983610a2d565b9150610d3082610cf1565b602082019050919050565b5f6020820190508181035f830152610d5281610d19565b9050919050565b5f610d638261091b565b9150610d6e8361091b565b9250828203905081811115610d8657610d85610bc1565b5b92915050565b5f604082019050610d9f5f8301856108f3565b610dac6020830184610924565b9392505050565b7f46756e64696e6720706572696f642068617320656e64656400000000000000005f82015250565b5f610de7601883610a2d565b9150610df282610db3565b602082019050919050565b5f6020820190508181035f830152610e1481610ddb565b905091905056fea2646970667358221220eccd684e58f39b6c41742ef72ac957e5035be2b3999e5db74ffa15acea0f158364736f6c634300081a0033",
					"opcodes": "PUSH1 0x80 PUSH1 0x40 MSTORE CALLVALUE DUP1 ISZERO PUSH2 0xF JUMPI PUSH0 DUP1 REVERT JUMPDEST POP PUSH1 0x40 MLOAD PUSH2 0x1056 CODESIZE SUB DUP1 PUSH2 0x1056 DUP4 CODECOPY DUP2 DUP2 ADD PUSH1 0x40 MSTORE DUP2 ADD SWAP1 PUSH2 0x31 SWAP2 SWAP1 PUSH2 0x119 JUMP JUMPDEST CALLER PUSH0 DUP1 PUSH2 0x100 EXP DUP2 SLOAD DUP2 PUSH20 0xFFFFFFFFFFFFFFFFFFFFFFFFFFFFFFFFFFFFFFFF MUL NOT AND SWAP1 DUP4 PUSH20 0xFFFFFFFFFFFFFFFFFFFFFFFFFFFFFFFFFFFFFFFF AND MUL OR SWAP1 SSTORE POP PUSH8 0xDE0B6B3A7640000 DUP3 PUSH2 0x84 SWAP2 SWAP1 PUSH2 0x184 JUMP JUMPDEST PUSH1 0x1 DUP2 SWAP1 SSTORE POP PUSH1 0x3C DUP2 PUSH2 0x97 SWAP2 SWAP1 PUSH2 0x184 JUMP JUMPDEST TIMESTAMP PUSH2 0xA2 SWAP2 SWAP1 PUSH2 0x1C5 JUMP JUMPDEST PUSH1 0x2 DUP2 SWAP1 SSTORE POP PUSH0 PUSH1 0x5 PUSH0 PUSH2 0x100 EXP DUP2 SLOAD DUP2 PUSH1 0xFF MUL NOT AND SWAP1 DUP4 ISZERO ISZERO MUL OR SWAP1 SSTORE POP PUSH0 PUSH1 0x5 PUSH1 0x1 PUSH2 0x100 EXP DUP2 SLOAD DUP2 PUSH1 0xFF MUL NOT AND SWAP1 DUP4 ISZERO ISZERO MUL OR SWAP1 SSTORE POP POP POP PUSH2 0x1F8 JUMP JUMPDEST PUSH0 DUP1 REVERT JUMPDEST PUSH0 DUP2 SWAP1 POP SWAP2 SWAP1 POP JUMP JUMPDEST PUSH2 0xF8 DUP2 PUSH2 0xE6 JUMP JUMPDEST DUP2 EQ PUSH2 0x102 JUMPI PUSH0 DUP1 REVERT JUMPDEST POP JUMP JUMPDEST PUSH0 DUP2 MLOAD SWAP1 POP PUSH2 0x113 DUP2 PUSH2 0xEF JUMP JUMPDEST SWAP3 SWAP2 POP POP JUMP JUMPDEST PUSH0 DUP1 PUSH1 0x40 DUP4 DUP6 SUB SLT ISZERO PUSH2 0x12F JUMPI PUSH2 0x12E PUSH2 0xE2 JUMP JUMPDEST JUMPDEST PUSH0 PUSH2 0x13C DUP6 DUP3 DUP7 ADD PUSH2 0x105 JUMP JUMPDEST SWAP3 POP POP PUSH1 0x20 PUSH2 0x14D DUP6 DUP3 DUP7 ADD PUSH2 0x105 JUMP JUMPDEST SWAP2 POP POP SWAP3 POP SWAP3 SWAP1 POP JUMP JUMPDEST PUSH32 0x4E487B7100000000000000000000000000000000000000000000000000000000 PUSH0 MSTORE PUSH1 0x11 PUSH1 0x4 MSTORE PUSH1 0x24 PUSH0 REVERT JUMPDEST PUSH0 PUSH2 0x18E DUP3 PUSH2 0xE6 JUMP JUMPDEST SWAP2 POP PUSH2 0x199 DUP4 PUSH2 0xE6 JUMP JUMPDEST SWAP3 POP DUP3 DUP3 MUL PUSH2 0x1A7 DUP2 PUSH2 0xE6 JUMP JUMPDEST SWAP2 POP DUP3 DUP3 DIV DUP5 EQ DUP4 ISZERO OR PUSH2 0x1BE JUMPI PUSH2 0x1BD PUSH2 0x157 JUMP JUMPDEST JUMPDEST POP SWAP3 SWAP2 POP POP JUMP JUMPDEST PUSH0 PUSH2 0x1CF DUP3 PUSH2 0xE6 JUMP JUMPDEST SWAP2 POP PUSH2 0x1DA DUP4 PUSH2 0xE6 JUMP JUMPDEST SWAP3 POP DUP3 DUP3 ADD SWAP1 POP DUP1 DUP3 GT ISZERO PUSH2 0x1F2 JUMPI PUSH2 0x1F1 PUSH2 0x157 JUMP JUMPDEST JUMPDEST SWAP3 SWAP2 POP POP JUMP JUMPDEST PUSH2 0xE51 DUP1 PUSH2 0x205 PUSH0 CODECOPY PUSH0 RETURN INVALID PUSH1 0x80 PUSH1 0x40 MSTORE PUSH1 0x4 CALLDATASIZE LT PUSH2 0x9B JUMPI PUSH0 CALLDATALOAD PUSH1 0xE0 SHR DUP1 PUSH4 0x40193883 GT PUSH2 0x63 JUMPI DUP1 PUSH4 0x40193883 EQ PUSH2 0x15B JUMPI DUP1 PUSH4 0x42E94C90 EQ PUSH2 0x185 JUMPI DUP1 PUSH4 0x7C654303 EQ PUSH2 0x1C1 JUMPI DUP1 PUSH4 0xA5749710 EQ PUSH2 0x1EB JUMPI DUP1 PUSH4 0xB2D5AE44 EQ PUSH2 0x215 JUMPI DUP1 PUSH4 0xD7BB99BA EQ PUSH2 0x22B JUMPI PUSH2 0x9B JUMP JUMPDEST DUP1 PUSH4 0x2D05D3F EQ PUSH2 0x9F JUMPI DUP1 PUSH4 0x24600FC3 EQ PUSH2 0xC9 JUMPI DUP1 PUSH4 0x29DCB0CF EQ PUSH2 0xDF JUMPI DUP1 PUSH4 0x37C08923 EQ PUSH2 0x109 JUMPI DUP1 PUSH4 0x389B7533 EQ PUSH2 0x133 JUMPI JUMPDEST PUSH0 DUP1 REVERT JUMPDEST CALLVALUE DUP1 ISZERO PUSH2 0xAA JUMPI PUSH0 DUP1 REVERT JUMPDEST POP PUSH2 0xB3 PUSH2 0x235 JUMP JUMPDEST PUSH1 0x40 MLOAD PUSH2 0xC0 SWAP2 SWAP1 PUSH2 0x902 JUMP JUMPDEST PUSH1 0x40 MLOAD DUP1 SWAP2 SUB SWAP1 RETURN JUMPDEST CALLVALUE DUP1 ISZERO PUSH2 0xD4 JUMPI PUSH0 DUP1 REVERT JUMPDEST POP PUSH2 0xDD PUSH2 0x258 JUMP JUMPDEST STOP JUMPDEST CALLVALUE DUP1 ISZERO PUSH2 0xEA JUMPI PUSH0 DUP1 REVERT JUMPDEST POP PUSH2 0xF3 PUSH2 0x403 JUMP JUMPDEST PUSH1 0x40 MLOAD PUSH2 0x100 SWAP2 SWAP1 PUSH2 0x933 JUMP JUMPDEST PUSH1 0x40 MLOAD DUP1 SWAP2 SUB SWAP1 RETURN JUMPDEST CALLVALUE DUP1 ISZERO PUSH2 0x114 JUMPI PUSH0 DUP1 REVERT JUMPDEST POP PUSH2 0x11D PUSH2 0x409 JUMP JUMPDEST PUSH1 0x40 MLOAD PUSH2 0x12A SWAP2 SWAP1 PUSH2 0x933 JUMP JUMPDEST PUSH1 0x40 MLOAD DUP1 SWAP2 SUB SWAP1 RETURN JUMPDEST CALLVALUE DUP1 ISZERO PUSH2 0x13E JUMPI PUSH0 DUP1 REVERT JUMPDEST POP PUSH2 0x159 PUSH1 0x4 DUP1 CALLDATASIZE SUB DUP2 ADD SWAP1 PUSH2 0x154 SWAP2 SWAP1 PUSH2 0x97A JUMP JUMPDEST PUSH2 0x40F JUMP JUMPDEST STOP JUMPDEST CALLVALUE DUP1 ISZERO PUSH2 0x166 JUMPI PUSH0 DUP1 REVERT JUMPDEST POP PUSH2 0x16F PUSH2 0x4C3 JUMP JUMPDEST PUSH1 0x40 MLOAD PUSH2 0x17C SWAP2 SWAP1 PUSH2 0x933 JUMP JUMPDEST PUSH1 0x40 MLOAD DUP1 SWAP2 SUB SWAP1 RETURN JUMPDEST CALLVALUE DUP1 ISZERO PUSH2 0x190 JUMPI PUSH0 DUP1 REVERT JUMPDEST POP PUSH2 0x1AB PUSH1 0x4 DUP1 CALLDATASIZE SUB DUP2 ADD SWAP1 PUSH2 0x1A6 SWAP2 SWAP1 PUSH2 0x9CF JUMP JUMPDEST PUSH2 0x4C9 JUMP JUMPDEST PUSH1 0x40 MLOAD PUSH2 0x1B8 SWAP2 SWAP1 PUSH2 0x933 JUMP JUMPDEST PUSH1 0x40 MLOAD DUP1 SWAP2 SUB SWAP1 RETURN JUMPDEST CALLVALUE DUP1 ISZERO PUSH2 0x1CC JUMPI PUSH0 DUP1 REVERT JUMPDEST POP PUSH2 0x1D5 PUSH2 0x4DE JUMP JUMPDEST PUSH1 0x40 MLOAD PUSH2 0x1E2 SWAP2 SWAP1 PUSH2 0xA14 JUMP JUMPDEST PUSH1 0x40 MLOAD DUP1 SWAP2 SUB SWAP1 RETURN JUMPDEST CALLVALUE DUP1 ISZERO PUSH2 0x1F6 JUMPI PUSH0 DUP1 REVERT JUMPDEST POP PUSH2 0x1FF PUSH2 0x4F0 JUMP JUMPDEST PUSH1 0x40 MLOAD PUSH2 0x20C SWAP2 SWAP1 PUSH2 0x933 JUMP JUMPDEST PUSH1 0x40 MLOAD DUP1 SWAP2 SUB SWAP1 RETURN JUMPDEST CALLVALUE DUP1 ISZERO PUSH2 0x220 JUMPI PUSH0 DUP1 REVERT JUMPDEST POP PUSH2 0x229 PUSH2 0x4F7 JUMP JUMPDEST STOP JUMPDEST PUSH2 0x233 PUSH2 0x725 JUMP JUMPDEST STOP JUMPDEST PUSH0 DUP1 SLOAD SWAP1 PUSH2 0x100 EXP SWAP1 DIV PUSH20 0xFFFFFFFFFFFFFFFFFFFFFFFFFFFFFFFFFFFFFFFF AND DUP2 JUMP JUMPDEST PUSH0 DUP1 SLOAD SWAP1 PUSH2 0x100 EXP SWAP1 DIV PUSH20 0xFFFFFFFFFFFFFFFFFFFFFFFFFFFFFFFFFFFFFFFF AND PUSH20 0xFFFFFFFFFFFFFFFFFFFFFFFFFFFFFFFFFFFFFFFF AND CALLER PUSH20 0xFFFFFFFFFFFFFFFFFFFFFFFFFFFFFFFFFFFFFFFF AND EQ PUSH2 0x2E5 JUMPI PUSH1 0x40 MLOAD PUSH32 0x8C379A000000000000000000000000000000000000000000000000000000000 DUP2 MSTORE PUSH1 0x4 ADD PUSH2 0x2DC SWAP1 PUSH2 0xAAD JUMP JUMPDEST PUSH1 0x40 MLOAD DUP1 SWAP2 SUB SWAP1 REVERT JUMPDEST PUSH1 0x5 PUSH0 SWAP1 SLOAD SWAP1 PUSH2 0x100 EXP SWAP1 DIV PUSH1 0xFF AND PUSH2 0x333 JUMPI PUSH1 0x40 MLOAD PUSH32 0x8C379A000000000000000000000000000000000000000000000000000000000 DUP2 MSTORE PUSH1 0x4 ADD PUSH2 0x32A SWAP1 PUSH2 0xB15 JUMP JUMPDEST PUSH1 0x40 MLOAD DUP1 SWAP2 SUB SWAP1 REVERT JUMPDEST PUSH1 0x5 PUSH1 0x1 SWAP1 SLOAD SWAP1 PUSH2 0x100 EXP SWAP1 DIV PUSH1 0xFF AND ISZERO PUSH2 0x383 JUMPI PUSH1 0x40 MLOAD PUSH32 0x8C379A000000000000000000000000000000000000000000000000000000000 DUP2 MSTORE PUSH1 0x4 ADD PUSH2 0x37A SWAP1 PUSH2 0xBA3 JUMP JUMPDEST PUSH1 0x40 MLOAD DUP1 SWAP2 SUB SWAP1 REVERT JUMPDEST PUSH1 0x1 PUSH1 0x5 PUSH1 0x1 PUSH2 0x100 EXP DUP2 SLOAD DUP2 PUSH1 0xFF MUL NOT AND SWAP1 DUP4 ISZERO ISZERO MUL OR SWAP1 SSTORE POP PUSH0 DUP1 SLOAD SWAP1 PUSH2 0x100 EXP SWAP1 DIV PUSH20 0xFFFFFFFFFFFFFFFFFFFFFFFFFFFFFFFFFFFFFFFF AND PUSH20 0xFFFFFFFFFFFFFFFFFFFFFFFFFFFFFFFFFFFFFFFF AND PUSH2 0x8FC SELFBALANCE SWAP1 DUP2 ISZERO MUL SWAP1 PUSH1 0x40 MLOAD PUSH0 PUSH1 0x40 MLOAD DUP1 DUP4 SUB DUP2 DUP6 DUP9 DUP9 CALL SWAP4 POP POP POP POP ISZERO DUP1 ISZERO PUSH2 0x400 JUMPI RETURNDATASIZE PUSH0 DUP1 RETURNDATACOPY RETURNDATASIZE PUSH0 REVERT JUMPDEST POP JUMP JUMPDEST PUSH1 0x2 SLOAD DUP2 JUMP JUMPDEST PUSH1 0x4 SLOAD DUP2 JUMP JUMPDEST PUSH0 DUP1 SLOAD SWAP1 PUSH2 0x100 EXP SWAP1 DIV PUSH20 0xFFFFFFFFFFFFFFFFFFFFFFFFFFFFFFFFFFFFFFFF AND PUSH20 0xFFFFFFFFFFFFFFFFFFFFFFFFFFFFFFFFFFFFFFFF AND CALLER PUSH20 0xFFFFFFFFFFFFFFFFFFFFFFFFFFFFFFFFFFFFFFFF AND EQ PUSH2 0x49C JUMPI PUSH1 0x40 MLOAD PUSH32 0x8C379A000000000000000000000000000000000000000000000000000000000 DUP2 MSTORE PUSH1 0x4 ADD PUSH2 0x493 SWAP1 PUSH2 0xAAD JUMP JUMPDEST PUSH1 0x40 MLOAD DUP1 SWAP2 SUB SWAP1 REVERT JUMPDEST PUSH1 0x3C DUP2 PUSH2 0x4A9 SWAP2 SWAP1 PUSH2 0xBEE JUMP JUMPDEST PUSH1 0x2 PUSH0 DUP3 DUP3 SLOAD PUSH2 0x4B9 SWAP2 SWAP1 PUSH2 0xBEE JUMP JUMPDEST SWAP3 POP POP DUP2 SWAP1 SSTORE POP POP JUMP JUMPDEST PUSH1 0x1 SLOAD DUP2 JUMP JUMPDEST PUSH1 0x3 PUSH1 0x20 MSTORE DUP1 PUSH0 MSTORE PUSH1 0x40 PUSH0 KECCAK256 PUSH0 SWAP2 POP SWAP1 POP SLOAD DUP2 JUMP JUMPDEST PUSH1 0x5 PUSH0 SWAP1 SLOAD SWAP1 PUSH2 0x100 EXP SWAP1 DIV PUSH1 0xFF AND DUP2 JUMP JUMPDEST PUSH0 SELFBALANCE SWAP1 POP SWAP1 JUMP JUMPDEST PUSH1 0x2 SLOAD TIMESTAMP LT ISZERO PUSH2 0x53C JUMPI PUSH1 0x40 MLOAD PUSH32 0x8C379A000000000000000000000000000000000000000000000000000000000 DUP2 MSTORE PUSH1 0x4 ADD PUSH2 0x533 SWAP1 PUSH2 0xC6B JUMP JUMPDEST PUSH1 0x40 MLOAD DUP1 SWAP2 SUB SWAP1 REVERT JUMPDEST PUSH1 0x5 PUSH0 SWAP1 SLOAD SWAP1 PUSH2 0x100 EXP SWAP1 DIV PUSH1 0xFF AND ISZERO PUSH2 0x58B JUMPI PUSH1 0x40 MLOAD PUSH32 0x8C379A000000000000000000000000000000000000000000000000000000000 DUP2 MSTORE PUSH1 0x4 ADD PUSH2 0x582 SWAP1 PUSH2 0xCD3 JUMP JUMPDEST PUSH1 0x40 MLOAD DUP1 SWAP2 SUB SWAP1 REVERT JUMPDEST PUSH0 PUSH1 0x3 PUSH0 CALLER PUSH20 0xFFFFFFFFFFFFFFFFFFFFFFFFFFFFFFFFFFFFFFFF AND PUSH20 0xFFFFFFFFFFFFFFFFFFFFFFFFFFFFFFFFFFFFFFFF AND DUP2 MSTORE PUSH1 0x20 ADD SWAP1 DUP2 MSTORE PUSH1 0x20 ADD PUSH0 KECCAK256 SLOAD GT PUSH2 0x60A JUMPI PUSH1 0x40 MLOAD PUSH32 0x8C379A000000000000000000000000000000000000000000000000000000000 DUP2 MSTORE PUSH1 0x4 ADD PUSH2 0x601 SWAP1 PUSH2 0xD3B JUMP JUMPDEST PUSH1 0x40 MLOAD DUP1 SWAP2 SUB SWAP1 REVERT JUMPDEST PUSH0 PUSH1 0x3 PUSH0 CALLER PUSH20 0xFFFFFFFFFFFFFFFFFFFFFFFFFFFFFFFFFFFFFFFF AND PUSH20 0xFFFFFFFFFFFFFFFFFFFFFFFFFFFFFFFFFFFFFFFF AND DUP2 MSTORE PUSH1 0x20 ADD SWAP1 DUP2 MSTORE PUSH1 0x20 ADD PUSH0 KECCAK256 SLOAD SWAP1 POP PUSH0 PUSH1 0x3 PUSH0 CALLER PUSH20 0xFFFFFFFFFFFFFFFFFFFFFFFFFFFFFFFFFFFFFFFF AND PUSH20 0xFFFFFFFFFFFFFFFFFFFFFFFFFFFFFFFFFFFFFFFF AND DUP2 MSTORE PUSH1 0x20 ADD SWAP1 DUP2 MSTORE PUSH1 0x20 ADD PUSH0 KECCAK256 DUP2 SWAP1 SSTORE POP DUP1 PUSH1 0x4 PUSH0 DUP3 DUP3 SLOAD PUSH2 0x69E SWAP2 SWAP1 PUSH2 0xD59 JUMP JUMPDEST SWAP3 POP POP DUP2 SWAP1 SSTORE POP CALLER PUSH20 0xFFFFFFFFFFFFFFFFFFFFFFFFFFFFFFFFFFFFFFFF AND PUSH2 0x8FC DUP3 SWAP1 DUP2 ISZERO MUL SWAP1 PUSH1 0x40 MLOAD PUSH0 PUSH1 0x40 MLOAD DUP1 DUP4 SUB DUP2 DUP6 DUP9 DUP9 CALL SWAP4 POP POP POP POP ISZERO DUP1 ISZERO PUSH2 0x6E8 JUMPI RETURNDATASIZE PUSH0 DUP1 RETURNDATACOPY RETURNDATASIZE PUSH0 REVERT JUMPDEST POP PUSH32 0x97C35397CB6ACEBD9DF368C206404479FC4C80DD6034D1B28943AAF582631870 CALLER DUP3 PUSH1 0x40 MLOAD PUSH2 0x71A SWAP3 SWAP2 SWAP1 PUSH2 0xD8C JUMP JUMPDEST PUSH1 0x40 MLOAD DUP1 SWAP2 SUB SWAP1 LOG1 POP JUMP JUMPDEST PUSH1 0x2 SLOAD TIMESTAMP LT PUSH2 0x769 JUMPI PUSH1 0x40 MLOAD PUSH32 0x8C379A000000000000000000000000000000000000000000000000000000000 DUP2 MSTORE PUSH1 0x4 ADD PUSH2 0x760 SWAP1 PUSH2 0xDFD JUMP JUMPDEST PUSH1 0x40 MLOAD DUP1 SWAP2 SUB SWAP1 REVERT JUMPDEST PUSH1 0x5 PUSH1 0x1 SWAP1 SLOAD SWAP1 PUSH2 0x100 EXP SWAP1 DIV PUSH1 0xFF AND ISZERO PUSH2 0x7B9 JUMPI PUSH1 0x40 MLOAD PUSH32 0x8C379A000000000000000000000000000000000000000000000000000000000 DUP2 MSTORE PUSH1 0x4 ADD PUSH2 0x7B0 SWAP1 PUSH2 0xBA3 JUMP JUMPDEST PUSH1 0x40 MLOAD DUP1 SWAP2 SUB SWAP1 REVERT JUMPDEST PUSH0 CALLVALUE SWAP1 POP DUP1 PUSH1 0x3 PUSH0 CALLER PUSH20 0xFFFFFFFFFFFFFFFFFFFFFFFFFFFFFFFFFFFFFFFF AND PUSH20 0xFFFFFFFFFFFFFFFFFFFFFFFFFFFFFFFFFFFFFFFF AND DUP2 MSTORE PUSH1 0x20 ADD SWAP1 DUP2 MSTORE PUSH1 0x20 ADD PUSH0 KECCAK256 PUSH0 DUP3 DUP3 SLOAD PUSH2 0x809 SWAP2 SWAP1 PUSH2 0xBEE JUMP JUMPDEST SWAP3 POP POP DUP2 SWAP1 SSTORE POP DUP1 PUSH1 0x4 PUSH0 DUP3 DUP3 SLOAD PUSH2 0x821 SWAP2 SWAP1 PUSH2 0xBEE JUMP JUMPDEST SWAP3 POP POP DUP2 SWAP1 SSTORE POP PUSH1 0x1 SLOAD PUSH1 0x4 SLOAD LT PUSH2 0x887 JUMPI PUSH1 0x1 PUSH1 0x5 PUSH0 PUSH2 0x100 EXP DUP2 SLOAD DUP2 PUSH1 0xFF MUL NOT AND SWAP1 DUP4 ISZERO ISZERO MUL OR SWAP1 SSTORE POP PUSH32 0xFBFD8AB7C24300FA9888CD721C8565A7DA56759384781283684DCF7C7C4A846B PUSH1 0x4 SLOAD PUSH1 0x40 MLOAD PUSH2 0x87E SWAP2 SWAP1 PUSH2 0x933 JUMP JUMPDEST PUSH1 0x40 MLOAD DUP1 SWAP2 SUB SWAP1 LOG1 JUMPDEST PUSH32 0x97C35397CB6ACEBD9DF368C206404479FC4C80DD6034D1B28943AAF582631870 CALLER DUP3 PUSH1 0x40 MLOAD PUSH2 0x8B8 SWAP3 SWAP2 SWAP1 PUSH2 0xD8C JUMP JUMPDEST PUSH1 0x40 MLOAD DUP1 SWAP2 SUB SWAP1 LOG1 POP JUMP JUMPDEST PUSH0 PUSH20 0xFFFFFFFFFFFFFFFFFFFFFFFFFFFFFFFFFFFFFFFF DUP3 AND SWAP1 POP SWAP2 SWAP1 POP JUMP JUMPDEST PUSH0 PUSH2 0x8EC DUP3 PUSH2 0x8C3 JUMP JUMPDEST SWAP1 POP SWAP2 SWAP1 POP JUMP JUMPDEST PUSH2 0x8FC DUP2 PUSH2 0x8E2 JUMP JUMPDEST DUP3 MSTORE POP POP JUMP JUMPDEST PUSH0 PUSH1 0x20 DUP3 ADD SWAP1 POP PUSH2 0x915 PUSH0 DUP4 ADD DUP5 PUSH2 0x8F3 JUMP JUMPDEST SWAP3 SWAP2 POP POP JUMP JUMPDEST PUSH0 DUP2 SWAP1 POP SWAP2 SWAP1 POP JUMP JUMPDEST PUSH2 0x92D DUP2 PUSH2 0x91B JUMP JUMPDEST DUP3 MSTORE POP POP JUMP JUMPDEST PUSH0 PUSH1 0x20 DUP3 ADD SWAP1 POP PUSH2 0x946 PUSH0 DUP4 ADD DUP5 PUSH2 0x924 JUMP JUMPDEST SWAP3 SWAP2 POP POP JUMP JUMPDEST PUSH0 DUP1 REVERT JUMPDEST PUSH2 0x959 DUP2 PUSH2 0x91B JUMP JUMPDEST DUP2 EQ PUSH2 0x963 JUMPI PUSH0 DUP1 REVERT JUMPDEST POP JUMP JUMPDEST PUSH0 DUP2 CALLDATALOAD SWAP1 POP PUSH2 0x974 DUP2 PUSH2 0x950 JUMP JUMPDEST SWAP3 SWAP2 POP POP JUMP JUMPDEST PUSH0 PUSH1 0x20 DUP3 DUP5 SUB SLT ISZERO PUSH2 0x98F JUMPI PUSH2 0x98E PUSH2 0x94C JUMP JUMPDEST JUMPDEST PUSH0 PUSH2 0x99C DUP5 DUP3 DUP6 ADD PUSH2 0x966 JUMP JUMPDEST SWAP2 POP POP SWAP3 SWAP2 POP POP JUMP JUMPDEST PUSH2 0x9AE DUP2 PUSH2 0x8E2 JUMP JUMPDEST DUP2 EQ PUSH2 0x9B8 JUMPI PUSH0 DUP1 REVERT JUMPDEST POP JUMP JUMPDEST PUSH0 DUP2 CALLDATALOAD SWAP1 POP PUSH2 0x9C9 DUP2 PUSH2 0x9A5 JUMP JUMPDEST SWAP3 SWAP2 POP POP JUMP JUMPDEST PUSH0 PUSH1 0x20 DUP3 DUP5 SUB SLT ISZERO PUSH2 0x9E4 JUMPI PUSH2 0x9E3 PUSH2 0x94C JUMP JUMPDEST JUMPDEST PUSH0 PUSH2 0x9F1 DUP5 DUP3 DUP6 ADD PUSH2 0x9BB JUMP JUMPDEST SWAP2 POP POP SWAP3 SWAP2 POP POP JUMP JUMPDEST PUSH0 DUP2 ISZERO ISZERO SWAP1 POP SWAP2 SWAP1 POP JUMP JUMPDEST PUSH2 0xA0E DUP2 PUSH2 0x9FA JUMP JUMPDEST DUP3 MSTORE POP POP JUMP JUMPDEST PUSH0 PUSH1 0x20 DUP3 ADD SWAP1 POP PUSH2 0xA27 PUSH0 DUP4 ADD DUP5 PUSH2 0xA05 JUMP JUMPDEST SWAP3 SWAP2 POP POP JUMP JUMPDEST PUSH0 DUP3 DUP3 MSTORE PUSH1 0x20 DUP3 ADD SWAP1 POP SWAP3 SWAP2 POP POP JUMP JUMPDEST PUSH32 0x4F6E6C79207468652063726561746F722063616E2063616C6C20746869732066 PUSH0 DUP3 ADD MSTORE PUSH32 0x756E6374696F6E00000000000000000000000000000000000000000000000000 PUSH1 0x20 DUP3 ADD MSTORE POP JUMP JUMPDEST PUSH0 PUSH2 0xA97 PUSH1 0x27 DUP4 PUSH2 0xA2D JUMP JUMPDEST SWAP2 POP PUSH2 0xAA2 DUP3 PUSH2 0xA3D JUMP JUMPDEST PUSH1 0x40 DUP3 ADD SWAP1 POP SWAP2 SWAP1 POP JUMP JUMPDEST PUSH0 PUSH1 0x20 DUP3 ADD SWAP1 POP DUP2 DUP2 SUB PUSH0 DUP4 ADD MSTORE PUSH2 0xAC4 DUP2 PUSH2 0xA8B JUMP JUMPDEST SWAP1 POP SWAP2 SWAP1 POP JUMP JUMPDEST PUSH32 0x476F616C20686173206E6F74206265656E207265616368656400000000000000 PUSH0 DUP3 ADD MSTORE POP JUMP JUMPDEST PUSH0 PUSH2 0xAFF PUSH1 0x19 DUP4 PUSH2 0xA2D JUMP JUMPDEST SWAP2 POP PUSH2 0xB0A DUP3 PUSH2 0xACB JUMP JUMPDEST PUSH1 0x20 DUP3 ADD SWAP1 POP SWAP2 SWAP1 POP JUMP JUMPDEST PUSH0 PUSH1 0x20 DUP3 ADD SWAP1 POP DUP2 DUP2 SUB PUSH0 DUP4 ADD MSTORE PUSH2 0xB2C DUP2 PUSH2 0xAF3 JUMP JUMPDEST SWAP1 POP SWAP2 SWAP1 POP JUMP JUMPDEST PUSH32 0x43726F776466756E64696E6720697320616C726561647920636F6D706C657465 PUSH0 DUP3 ADD MSTORE PUSH32 0x6400000000000000000000000000000000000000000000000000000000000000 PUSH1 0x20 DUP3 ADD MSTORE POP JUMP JUMPDEST PUSH0 PUSH2 0xB8D PUSH1 0x21 DUP4 PUSH2 0xA2D JUMP JUMPDEST SWAP2 POP PUSH2 0xB98 DUP3 PUSH2 0xB33 JUMP JUMPDEST PUSH1 0x40 DUP3 ADD SWAP1 POP SWAP2 SWAP1 POP JUMP JUMPDEST PUSH0 PUSH1 0x20 DUP3 ADD SWAP1 POP DUP2 DUP2 SUB PUSH0 DUP4 ADD MSTORE PUSH2 0xBBA DUP2 PUSH2 0xB81 JUMP JUMPDEST SWAP1 POP SWAP2 SWAP1 POP JUMP JUMPDEST PUSH32 0x4E487B7100000000000000000000000000000000000000000000000000000000 PUSH0 MSTORE PUSH1 0x11 PUSH1 0x4 MSTORE PUSH1 0x24 PUSH0 REVERT JUMPDEST PUSH0 PUSH2 0xBF8 DUP3 PUSH2 0x91B JUMP JUMPDEST SWAP2 POP PUSH2 0xC03 DUP4 PUSH2 0x91B JUMP JUMPDEST SWAP3 POP DUP3 DUP3 ADD SWAP1 POP DUP1 DUP3 GT ISZERO PUSH2 0xC1B JUMPI PUSH2 0xC1A PUSH2 0xBC1 JUMP JUMPDEST JUMPDEST SWAP3 SWAP2 POP POP JUMP JUMPDEST PUSH32 0x46756E64696E6720706572696F6420686173206E6F7420656E64656400000000 PUSH0 DUP3 ADD MSTORE POP JUMP JUMPDEST PUSH0 PUSH2 0xC55 PUSH1 0x1C DUP4 PUSH2 0xA2D JUMP JUMPDEST SWAP2 POP PUSH2 0xC60 DUP3 PUSH2 0xC21 JUMP JUMPDEST PUSH1 0x20 DUP3 ADD SWAP1 POP SWAP2 SWAP1 POP JUMP JUMPDEST PUSH0 PUSH1 0x20 DUP3 ADD SWAP1 POP DUP2 DUP2 SUB PUSH0 DUP4 ADD MSTORE PUSH2 0xC82 DUP2 PUSH2 0xC49 JUMP JUMPDEST SWAP1 POP SWAP2 SWAP1 POP JUMP JUMPDEST PUSH32 0x476F616C20686173206265656E20726561636865640000000000000000000000 PUSH0 DUP3 ADD MSTORE POP JUMP JUMPDEST PUSH0 PUSH2 0xCBD PUSH1 0x15 DUP4 PUSH2 0xA2D JUMP JUMPDEST SWAP2 POP PUSH2 0xCC8 DUP3 PUSH2 0xC89 JUMP JUMPDEST PUSH1 0x20 DUP3 ADD SWAP1 POP SWAP2 SWAP1 POP JUMP JUMPDEST PUSH0 PUSH1 0x20 DUP3 ADD SWAP1 POP DUP2 DUP2 SUB PUSH0 DUP4 ADD MSTORE PUSH2 0xCEA DUP2 PUSH2 0xCB1 JUMP JUMPDEST SWAP1 POP SWAP2 SWAP1 POP JUMP JUMPDEST PUSH32 0x4E6F20636F6E747269627574696F6E20746F20726566756E6400000000000000 PUSH0 DUP3 ADD MSTORE POP JUMP JUMPDEST PUSH0 PUSH2 0xD25 PUSH1 0x19 DUP4 PUSH2 0xA2D JUMP JUMPDEST SWAP2 POP PUSH2 0xD30 DUP3 PUSH2 0xCF1 JUMP JUMPDEST PUSH1 0x20 DUP3 ADD SWAP1 POP SWAP2 SWAP1 POP JUMP JUMPDEST PUSH0 PUSH1 0x20 DUP3 ADD SWAP1 POP DUP2 DUP2 SUB PUSH0 DUP4 ADD MSTORE PUSH2 0xD52 DUP2 PUSH2 0xD19 JUMP JUMPDEST SWAP1 POP SWAP2 SWAP1 POP JUMP JUMPDEST PUSH0 PUSH2 0xD63 DUP3 PUSH2 0x91B JUMP JUMPDEST SWAP2 POP PUSH2 0xD6E DUP4 PUSH2 0x91B JUMP JUMPDEST SWAP3 POP DUP3 DUP3 SUB SWAP1 POP DUP2 DUP2 GT ISZERO PUSH2 0xD86 JUMPI PUSH2 0xD85 PUSH2 0xBC1 JUMP JUMPDEST JUMPDEST SWAP3 SWAP2 POP POP JUMP JUMPDEST PUSH0 PUSH1 0x40 DUP3 ADD SWAP1 POP PUSH2 0xD9F PUSH0 DUP4 ADD DUP6 PUSH2 0x8F3 JUMP JUMPDEST PUSH2 0xDAC PUSH1 0x20 DUP4 ADD DUP5 PUSH2 0x924 JUMP JUMPDEST SWAP4 SWAP3 POP POP POP JUMP JUMPDEST PUSH32 0x46756E64696E6720706572696F642068617320656E6465640000000000000000 PUSH0 DUP3 ADD MSTORE POP JUMP JUMPDEST PUSH0 PUSH2 0xDE7 PUSH1 0x18 DUP4 PUSH2 0xA2D JUMP JUMPDEST SWAP2 POP PUSH2 0xDF2 DUP3 PUSH2 0xDB3 JUMP JUMPDEST PUSH1 0x20 DUP3 ADD SWAP1 POP SWAP2 SWAP1 POP JUMP JUMPDEST PUSH0 PUSH1 0x20 DUP3 ADD SWAP1 POP DUP2 DUP2 SUB PUSH0 DUP4 ADD MSTORE PUSH2 0xE14 DUP2 PUSH2 0xDDB JUMP JUMPDEST SWAP1 POP SWAP2 SWAP1 POP JUMP INVALID LOG2 PUSH5 0x6970667358 0x22 SLT KECCAK256 0xEC 0xCD PUSH9 0x4E58F39B6C41742EF7 0x2A 0xC9 JUMPI 0xE5 SUB JUMPDEST 0xE2 0xB3 SWAP10 SWAP15 TSTORE 0xB7 0x4F STATICCALL ISZERO 0xAC 0xEA 0xF ISZERO DUP4 PUSH5 0x736F6C6343 STOP ADDMOD BYTE STOP CALLER "
				},
				"gasEstimates": {
					"creation": {
						"codeDepositCost": "733000",
						"executionCost": "infinite",
						"totalCost": "infinite"
					},
					"external": {
						"contribute()": "infinite",
						"contributions(address)": "2824",
						"creator()": "2506",
						"deadline()": "2470",
						"extendDeadline(uint256)": "infinite",
						"getCurrentBalance()": "400",
						"getRefund()": "infinite",
						"goal()": "2425",
						"isFunded()": "2510",
						"totalContributions()": "2492",
						"withdrawFunds()": "infinite"
					}
				},
				"methodIdentifiers": {
					"contribute()": "d7bb99ba",
					"contributions(address)": "42e94c90",
					"creator()": "02d05d3f",
					"deadline()": "29dcb0cf",
					"extendDeadline(uint256)": "389b7533",
					"getCurrentBalance()": "a5749710",
					"getRefund()": "b2d5ae44",
					"goal()": "40193883",
					"isFunded()": "7c654303",
					"totalContributions()": "37c08923",
					"withdrawFunds()": "24600fc3"
				}
			},
			"storageLayout": {
				"storage": [
					{
						"astId": 3,
						"contract": "Learning Pth/Project_Crowd_Funding.sol:CrowdFunding",
						"label": "creator",
						"offset": 0,
						"slot": "0",
						"type": "t_address"
					},
					{
						"astId": 5,
						"contract": "Learning Pth/Project_Crowd_Funding.sol:CrowdFunding",
						"label": "goal",
						"offset": 0,
						"slot": "1",
						"type": "t_uint256"
					},
					{
						"astId": 7,
						"contract": "Learning Pth/Project_Crowd_Funding.sol:CrowdFunding",
						"label": "deadline",
						"offset": 0,
						"slot": "2",
						"type": "t_uint256"
					},
					{
						"astId": 11,
						"contract": "Learning Pth/Project_Crowd_Funding.sol:CrowdFunding",
						"label": "contributions",
						"offset": 0,
						"slot": "3",
						"type": "t_mapping(t_address,t_uint256)"
					},
					{
						"astId": 13,
						"contract": "Learning Pth/Project_Crowd_Funding.sol:CrowdFunding",
						"label": "totalContributions",
						"offset": 0,
						"slot": "4",
						"type": "t_uint256"
					},
					{
						"astId": 15,
						"contract": "Learning Pth/Project_Crowd_Funding.sol:CrowdFunding",
						"label": "isFunded",
						"offset": 0,
						"slot": "5",
						"type": "t_bool"
					},
					{
						"astId": 17,
						"contract": "Learning Pth/Project_Crowd_Funding.sol:CrowdFunding",
						"label": "isCompleted",
						"offset": 1,
						"slot": "5",
						"type": "t_bool"
					}
				],
				"types": {
					"t_address": {
						"encoding": "inplace",
						"label": "address",
						"numberOfBytes": "20"
					},
					"t_bool": {
						"encoding": "inplace",
						"label": "bool",
						"numberOfBytes": "1"
					},
					"t_mapping(t_address,t_uint256)": {
						"encoding": "mapping",
						"key": "t_address",
						"label": "mapping(address => uint256)",
						"numberOfBytes": "32",
						"value": "t_uint256"
					},
					"t_uint256": {
						"encoding": "inplace",
						"label": "uint256",
						"numberOfBytes": "32"
					}
				}
			},
			"userdoc": {
				"kind": "user",
				"methods": {},
				"version": 1
			}
		}
	}
}