{
	"Learning Pth/view.sol": {
		"ViewKey": {
			"abi": [
				{
					"inputs": [],
					"name": "gR",
					"outputs": [
						{
							"internalType": "uint256",
							"name": "multiply",
							"type": "uint256"
						},
						{
							"internalType": "uint256",
							"name": "addition",
							"type": "uint256"
						}
					],
					"stateMutability": "view",
					"type": "function"
				},
				{
					"inputs": [],
					"name": "gRes",
					"outputs": [
						{
							"internalType": "uint256",
							"name": "",
							"type": "uint256"
						},
						{
							"internalType": "uint256",
							"name": "",
							"type": "uint256"
						}
					],
					"stateMutability": "view",
					"type": "function"
				},
				{
					"inputs": [],
					"name": "getResult",
					"outputs": [
						{
							"internalType": "uint256",
							"name": "",
							"type": "uint256"
						},
						{
							"internalType": "uint256",
							"name": "",
							"type": "uint256"
						},
						{
							"internalType": "uint256",
							"name": "",
							"type": "uint256"
						},
						{
							"internalType": "uint256",
							"name": "",
							"type": "uint256"
						}
					],
					"stateMutability": "view",
					"type": "function"
				},
				{
					"inputs": [],
					"name": "modState",
					"outputs": [
						{
							"internalType": "uint256",
							"name": "",
							"type": "uint256"
						},
						{
							"internalType": "uint256",
							"name": "",
							"type": "uint256"
						},
						{
							"internalType": "uint256",
							"name": "",
							"type": "uint256"
						},
						{
							"internalType": "uint256",
							"name": "",
							"type": "uint256"
						}
					],
					"stateMutability": "nonpayable",
					"type": "function"
				}
			],
			"devdoc": {
				"kind": "dev",
				"methods": {},
				"version": 1
			},
			"evm": {
				"assembly": "    /* \"Learning Pth/view.sol\":61:906  contract ViewKey {... */\n  mstore(0x40, 0x80)\n    /* \"Learning Pth/view.sol\":101:103  10 */\n  0x0a\n    /* \"Learning Pth/view.sol\":87:103  uint256 BMW = 10 */\n  0x00\n  sstore\n    /* \"Learning Pth/view.sol\":128:130  12 */\n  0x0c\n    /* \"Learning Pth/view.sol\":110:130  uint256 Porsche = 12 */\n  0x01\n  sstore\n    /* \"Learning Pth/view.sol\":152:154  14 */\n  0x0e\n    /* \"Learning Pth/view.sol\":137:154  uint256 Audi = 14 */\n  0x02\n  sstore\n    /* \"Learning Pth/view.sol\":179:181  30 */\n  0x1e\n    /* \"Learning Pth/view.sol\":161:181  uint RollsRoyce = 30 */\n  0x03\n  sstore\n    /* \"Learning Pth/view.sol\":61:906  contract ViewKey {... */\n  callvalue\n  dup1\n  iszero\n  tag_1\n  jumpi\n  0x00\n  dup1\n  revert\ntag_1:\n  pop\n  dataSize(sub_0)\n  dup1\n  dataOffset(sub_0)\n  0x00\n  codecopy\n  0x00\n  return\nstop\n\nsub_0: assembly {\n        /* \"Learning Pth/view.sol\":61:906  contract ViewKey {... */\n      mstore(0x40, 0x80)\n      callvalue\n      dup1\n      iszero\n      tag_1\n      jumpi\n      0x00\n      dup1\n      revert\n    tag_1:\n      pop\n      jumpi(tag_2, lt(calldatasize, 0x04))\n      shr(0xe0, calldataload(0x00))\n      dup1\n      0x0b8ddd98\n      eq\n      tag_3\n      jumpi\n      dup1\n      0x5bf67e74\n      eq\n      tag_4\n      jumpi\n      dup1\n      0xae851587\n      eq\n      tag_5\n      jumpi\n      dup1\n      0xde292789\n      eq\n      tag_6\n      jumpi\n    tag_2:\n      0x00\n      dup1\n      revert\n        /* \"Learning Pth/view.sol\":492:670  function gRes() public view returns(uint256, uint256) {... */\n    tag_3:\n      tag_7\n      tag_8\n      jump\t// in\n    tag_7:\n      mload(0x40)\n      tag_9\n      swap3\n      swap2\n      swap1\n      tag_10\n      jump\t// in\n    tag_9:\n      mload(0x40)\n      dup1\n      swap2\n      sub\n      swap1\n      return\n        /* \"Learning Pth/view.sol\":678:901  function modState() public returns(uint256, uint256, uint256, uint256) {... */\n    tag_4:\n      tag_11\n      tag_12\n      jump\t// in\n    tag_11:\n      mload(0x40)\n      tag_13\n      swap5\n      swap4\n      swap3\n      swap2\n      swap1\n      tag_14\n      jump\t// in\n    tag_13:\n      mload(0x40)\n      dup1\n      swap2\n      sub\n      swap1\n      return\n        /* \"Learning Pth/view.sol\":332:484  function gR() public view returns(uint256 multiply, uint256 addition) {... */\n    tag_5:\n      tag_15\n      tag_16\n      jump\t// in\n    tag_15:\n      mload(0x40)\n      tag_17\n      swap3\n      swap2\n      swap1\n      tag_10\n      jump\t// in\n    tag_17:\n      mload(0x40)\n      dup1\n      swap2\n      sub\n      swap1\n      return\n        /* \"Learning Pth/view.sol\":190:324  function getResult() public view returns(uint256, uint256, uint256, uint256){... */\n    tag_6:\n      tag_18\n      tag_19\n      jump\t// in\n    tag_18:\n      mload(0x40)\n      tag_20\n      swap5\n      swap4\n      swap3\n      swap2\n      swap1\n      tag_14\n      jump\t// in\n    tag_20:\n      mload(0x40)\n      dup1\n      swap2\n      sub\n      swap1\n      return\n        /* \"Learning Pth/view.sol\":492:670  function gRes() public view returns(uint256, uint256) {... */\n    tag_8:\n        /* \"Learning Pth/view.sol\":528:535  uint256 */\n      0x00\n        /* \"Learning Pth/view.sol\":537:544  uint256 */\n      dup1\n        /* \"Learning Pth/view.sol\":557:572  uint256 product */\n      0x00\n        /* \"Learning Pth/view.sol\":581:588  Porsche */\n      sload(0x01)\n        /* \"Learning Pth/view.sol\":575:578  BMW */\n      sload(0x00)\n        /* \"Learning Pth/view.sol\":575:588  BMW * Porsche */\n      tag_22\n      swap2\n      swap1\n      tag_23\n      jump\t// in\n    tag_22:\n        /* \"Learning Pth/view.sol\":557:588  uint256 product = BMW * Porsche */\n      swap1\n      pop\n        /* \"Learning Pth/view.sol\":599:610  uint256 add */\n      0x00\n        /* \"Learning Pth/view.sol\":620:630  RollsRoyce */\n      sload(0x03)\n        /* \"Learning Pth/view.sol\":613:617  Audi */\n      sload(0x02)\n        /* \"Learning Pth/view.sol\":613:630  Audi + RollsRoyce */\n      tag_24\n      swap2\n      swap1\n      tag_25\n      jump\t// in\n    tag_24:\n        /* \"Learning Pth/view.sol\":599:630  uint256 add = Audi + RollsRoyce */\n      swap1\n      pop\n        /* \"Learning Pth/view.sol\":649:656  product */\n      dup2\n        /* \"Learning Pth/view.sol\":658:661  add */\n      dup2\n        /* \"Learning Pth/view.sol\":641:662  return (product, add) */\n      swap4\n      pop\n      swap4\n      pop\n      pop\n      pop\n        /* \"Learning Pth/view.sol\":492:670  function gRes() public view returns(uint256, uint256) {... */\n      swap1\n      swap2\n      jump\t// out\n        /* \"Learning Pth/view.sol\":678:901  function modState() public returns(uint256, uint256, uint256, uint256) {... */\n    tag_12:\n        /* \"Learning Pth/view.sol\":713:720  uint256 */\n      0x00\n        /* \"Learning Pth/view.sol\":722:729  uint256 */\n      dup1\n        /* \"Learning Pth/view.sol\":731:738  uint256 */\n      0x00\n        /* \"Learning Pth/view.sol\":740:747  uint256 */\n      dup1\n        /* \"Learning Pth/view.sol\":768:770  55 */\n      0x37\n        /* \"Learning Pth/view.sol\":761:764  BMW */\n      0x00\n      dup1\n        /* \"Learning Pth/view.sol\":761:770  BMW += 55 */\n      dup3\n      dup3\n      sload\n      tag_27\n      swap2\n      swap1\n      tag_25\n      jump\t// in\n    tag_27:\n      swap3\n      pop\n      pop\n      dup2\n      swap1\n      sstore\n      pop\n        /* \"Learning Pth/view.sol\":793:795  11 */\n      0x0b\n        /* \"Learning Pth/view.sol\":782:789  Porsche */\n      0x01\n      0x00\n        /* \"Learning Pth/view.sol\":782:795  Porsche += 11 */\n      dup3\n      dup3\n      sload\n      tag_28\n      swap2\n      swap1\n      tag_25\n      jump\t// in\n    tag_28:\n      swap3\n      pop\n      pop\n      dup2\n      swap1\n      sstore\n      pop\n        /* \"Learning Pth/view.sol\":815:817  33 */\n      0x21\n        /* \"Learning Pth/view.sol\":807:811  Audi */\n      0x02\n      0x00\n        /* \"Learning Pth/view.sol\":807:817  Audi += 33 */\n      dup3\n      dup3\n      sload\n      tag_29\n      swap2\n      swap1\n      tag_25\n      jump\t// in\n    tag_29:\n      swap3\n      pop\n      pop\n      dup2\n      swap1\n      sstore\n      pop\n        /* \"Learning Pth/view.sol\":842:843  7 */\n      0x07\n        /* \"Learning Pth/view.sol\":829:839  RollsRoyce */\n      0x03\n      0x00\n        /* \"Learning Pth/view.sol\":829:843  RollsRoyce +=7 */\n      dup3\n      dup3\n      sload\n      tag_30\n      swap2\n      swap1\n      tag_25\n      jump\t// in\n    tag_30:\n      swap3\n      pop\n      pop\n      dup2\n      swap1\n      sstore\n      pop\n        /* \"Learning Pth/view.sol\":862:865  BMW */\n      sload(0x00)\n        /* \"Learning Pth/view.sol\":867:874  Porsche */\n      sload(0x01)\n        /* \"Learning Pth/view.sol\":876:880  Audi */\n      sload(0x02)\n        /* \"Learning Pth/view.sol\":882:892  RollsRoyce */\n      sload(0x03)\n        /* \"Learning Pth/view.sol\":854:893  return (BMW, Porsche, Audi, RollsRoyce) */\n      swap4\n      pop\n      swap4\n      pop\n      swap4\n      pop\n      swap4\n      pop\n        /* \"Learning Pth/view.sol\":678:901  function modState() public returns(uint256, uint256, uint256, uint256) {... */\n      swap1\n      swap2\n      swap3\n      swap4\n      jump\t// out\n        /* \"Learning Pth/view.sol\":332:484  function gR() public view returns(uint256 multiply, uint256 addition) {... */\n    tag_16:\n        /* \"Learning Pth/view.sol\":366:382  uint256 multiply */\n      0x00\n        /* \"Learning Pth/view.sol\":384:400  uint256 addition */\n      dup1\n        /* \"Learning Pth/view.sol\":430:437  Porsche */\n      sload(0x01)\n        /* \"Learning Pth/view.sol\":424:427  BMW */\n      sload(0x00)\n        /* \"Learning Pth/view.sol\":424:437  BMW * Porsche */\n      tag_32\n      swap2\n      swap1\n      tag_23\n      jump\t// in\n    tag_32:\n        /* \"Learning Pth/view.sol\":413:437  multiply = BMW * Porsche */\n      swap2\n      pop\n        /* \"Learning Pth/view.sol\":466:476  RollsRoyce */\n      sload(0x03)\n        /* \"Learning Pth/view.sol\":459:463  Audi */\n      sload(0x02)\n        /* \"Learning Pth/view.sol\":459:476  Audi + RollsRoyce */\n      tag_33\n      swap2\n      swap1\n      tag_25\n      jump\t// in\n    tag_33:\n        /* \"Learning Pth/view.sol\":448:476  addition = Audi + RollsRoyce */\n      swap1\n      pop\n        /* \"Learning Pth/view.sol\":332:484  function gR() public view returns(uint256 multiply, uint256 addition) {... */\n      swap1\n      swap2\n      jump\t// out\n        /* \"Learning Pth/view.sol\":190:324  function getResult() public view returns(uint256, uint256, uint256, uint256){... */\n    tag_19:\n        /* \"Learning Pth/view.sol\":231:238  uint256 */\n      0x00\n        /* \"Learning Pth/view.sol\":240:247  uint256 */\n      dup1\n        /* \"Learning Pth/view.sol\":249:256  uint256 */\n      0x00\n        /* \"Learning Pth/view.sol\":258:265  uint256 */\n      dup1\n        /* \"Learning Pth/view.sol\":285:288  BMW */\n      sload(0x00)\n        /* \"Learning Pth/view.sol\":290:297  Porsche */\n      sload(0x01)\n        /* \"Learning Pth/view.sol\":299:303  Audi */\n      sload(0x02)\n        /* \"Learning Pth/view.sol\":305:315  RollsRoyce */\n      sload(0x03)\n        /* \"Learning Pth/view.sol\":277:316  return (BMW, Porsche, Audi, RollsRoyce) */\n      swap4\n      pop\n      swap4\n      pop\n      swap4\n      pop\n      swap4\n      pop\n        /* \"Learning Pth/view.sol\":190:324  function getResult() public view returns(uint256, uint256, uint256, uint256){... */\n      swap1\n      swap2\n      swap3\n      swap4\n      jump\t// out\n        /* \"#utility.yul\":7:84   */\n    tag_35:\n        /* \"#utility.yul\":44:51   */\n      0x00\n        /* \"#utility.yul\":73:78   */\n      dup2\n        /* \"#utility.yul\":62:78   */\n      swap1\n      pop\n        /* \"#utility.yul\":7:84   */\n      swap2\n      swap1\n      pop\n      jump\t// out\n        /* \"#utility.yul\":90:208   */\n    tag_36:\n        /* \"#utility.yul\":177:201   */\n      tag_41\n        /* \"#utility.yul\":195:200   */\n      dup2\n        /* \"#utility.yul\":177:201   */\n      tag_35\n      jump\t// in\n    tag_41:\n        /* \"#utility.yul\":172:175   */\n      dup3\n        /* \"#utility.yul\":165:202   */\n      mstore\n        /* \"#utility.yul\":90:208   */\n      pop\n      pop\n      jump\t// out\n        /* \"#utility.yul\":214:546   */\n    tag_10:\n        /* \"#utility.yul\":335:339   */\n      0x00\n        /* \"#utility.yul\":373:375   */\n      0x40\n        /* \"#utility.yul\":362:371   */\n      dup3\n        /* \"#utility.yul\":358:376   */\n      add\n        /* \"#utility.yul\":350:376   */\n      swap1\n      pop\n        /* \"#utility.yul\":386:457   */\n      tag_43\n        /* \"#utility.yul\":454:455   */\n      0x00\n        /* \"#utility.yul\":443:452   */\n      dup4\n        /* \"#utility.yul\":439:456   */\n      add\n        /* \"#utility.yul\":430:436   */\n      dup6\n        /* \"#utility.yul\":386:457   */\n      tag_36\n      jump\t// in\n    tag_43:\n        /* \"#utility.yul\":467:539   */\n      tag_44\n        /* \"#utility.yul\":535:537   */\n      0x20\n        /* \"#utility.yul\":524:533   */\n      dup4\n        /* \"#utility.yul\":520:538   */\n      add\n        /* \"#utility.yul\":511:517   */\n      dup5\n        /* \"#utility.yul\":467:539   */\n      tag_36\n      jump\t// in\n    tag_44:\n        /* \"#utility.yul\":214:546   */\n      swap4\n      swap3\n      pop\n      pop\n      pop\n      jump\t// out\n        /* \"#utility.yul\":552:1105   */\n    tag_14:\n        /* \"#utility.yul\":729:733   */\n      0x00\n        /* \"#utility.yul\":767:770   */\n      0x80\n        /* \"#utility.yul\":756:765   */\n      dup3\n        /* \"#utility.yul\":752:771   */\n      add\n        /* \"#utility.yul\":744:771   */\n      swap1\n      pop\n        /* \"#utility.yul\":781:852   */\n      tag_46\n        /* \"#utility.yul\":849:850   */\n      0x00\n        /* \"#utility.yul\":838:847   */\n      dup4\n        /* \"#utility.yul\":834:851   */\n      add\n        /* \"#utility.yul\":825:831   */\n      dup8\n        /* \"#utility.yul\":781:852   */\n      tag_36\n      jump\t// in\n    tag_46:\n        /* \"#utility.yul\":862:934   */\n      tag_47\n        /* \"#utility.yul\":930:932   */\n      0x20\n        /* \"#utility.yul\":919:928   */\n      dup4\n        /* \"#utility.yul\":915:933   */\n      add\n        /* \"#utility.yul\":906:912   */\n      dup7\n        /* \"#utility.yul\":862:934   */\n      tag_36\n      jump\t// in\n    tag_47:\n        /* \"#utility.yul\":944:1016   */\n      tag_48\n        /* \"#utility.yul\":1012:1014   */\n      0x40\n        /* \"#utility.yul\":1001:1010   */\n      dup4\n        /* \"#utility.yul\":997:1015   */\n      add\n        /* \"#utility.yul\":988:994   */\n      dup6\n        /* \"#utility.yul\":944:1016   */\n      tag_36\n      jump\t// in\n    tag_48:\n        /* \"#utility.yul\":1026:1098   */\n      tag_49\n        /* \"#utility.yul\":1094:1096   */\n      0x60\n        /* \"#utility.yul\":1083:1092   */\n      dup4\n        /* \"#utility.yul\":1079:1097   */\n      add\n        /* \"#utility.yul\":1070:1076   */\n      dup5\n        /* \"#utility.yul\":1026:1098   */\n      tag_36\n      jump\t// in\n    tag_49:\n        /* \"#utility.yul\":552:1105   */\n      swap6\n      swap5\n      pop\n      pop\n      pop\n      pop\n      pop\n      jump\t// out\n        /* \"#utility.yul\":1111:1291   */\n    tag_37:\n        /* \"#utility.yul\":1159:1236   */\n      0x4e487b7100000000000000000000000000000000000000000000000000000000\n        /* \"#utility.yul\":1156:1157   */\n      0x00\n        /* \"#utility.yul\":1149:1237   */\n      mstore\n        /* \"#utility.yul\":1256:1260   */\n      0x11\n        /* \"#utility.yul\":1253:1254   */\n      0x04\n        /* \"#utility.yul\":1246:1261   */\n      mstore\n        /* \"#utility.yul\":1280:1284   */\n      0x24\n        /* \"#utility.yul\":1277:1278   */\n      0x00\n        /* \"#utility.yul\":1270:1285   */\n      revert\n        /* \"#utility.yul\":1297:1707   */\n    tag_23:\n        /* \"#utility.yul\":1337:1344   */\n      0x00\n        /* \"#utility.yul\":1360:1380   */\n      tag_52\n        /* \"#utility.yul\":1378:1379   */\n      dup3\n        /* \"#utility.yul\":1360:1380   */\n      tag_35\n      jump\t// in\n    tag_52:\n        /* \"#utility.yul\":1355:1380   */\n      swap2\n      pop\n        /* \"#utility.yul\":1394:1414   */\n      tag_53\n        /* \"#utility.yul\":1412:1413   */\n      dup4\n        /* \"#utility.yul\":1394:1414   */\n      tag_35\n      jump\t// in\n    tag_53:\n        /* \"#utility.yul\":1389:1414   */\n      swap3\n      pop\n        /* \"#utility.yul\":1449:1450   */\n      dup3\n        /* \"#utility.yul\":1446:1447   */\n      dup3\n        /* \"#utility.yul\":1442:1451   */\n      mul\n        /* \"#utility.yul\":1471:1501   */\n      tag_54\n        /* \"#utility.yul\":1489:1500   */\n      dup2\n        /* \"#utility.yul\":1471:1501   */\n      tag_35\n      jump\t// in\n    tag_54:\n        /* \"#utility.yul\":1460:1501   */\n      swap2\n      pop\n        /* \"#utility.yul\":1650:1651   */\n      dup3\n        /* \"#utility.yul\":1641:1648   */\n      dup3\n        /* \"#utility.yul\":1637:1652   */\n      div\n        /* \"#utility.yul\":1634:1635   */\n      dup5\n        /* \"#utility.yul\":1631:1653   */\n      eq\n        /* \"#utility.yul\":1611:1612   */\n      dup4\n        /* \"#utility.yul\":1604:1613   */\n      iszero\n        /* \"#utility.yul\":1584:1667   */\n      or\n        /* \"#utility.yul\":1561:1700   */\n      tag_55\n      jumpi\n        /* \"#utility.yul\":1680:1698   */\n      tag_56\n      tag_37\n      jump\t// in\n    tag_56:\n        /* \"#utility.yul\":1561:1700   */\n    tag_55:\n        /* \"#utility.yul\":1345:1707   */\n      pop\n        /* \"#utility.yul\":1297:1707   */\n      swap3\n      swap2\n      pop\n      pop\n      jump\t// out\n        /* \"#utility.yul\":1713:1904   */\n    tag_25:\n        /* \"#utility.yul\":1753:1756   */\n      0x00\n        /* \"#utility.yul\":1772:1792   */\n      tag_58\n        /* \"#utility.yul\":1790:1791   */\n      dup3\n        /* \"#utility.yul\":1772:1792   */\n      tag_35\n      jump\t// in\n    tag_58:\n        /* \"#utility.yul\":1767:1792   */\n      swap2\n      pop\n        /* \"#utility.yul\":1806:1826   */\n      tag_59\n        /* \"#utility.yul\":1824:1825   */\n      dup4\n        /* \"#utility.yul\":1806:1826   */\n      tag_35\n      jump\t// in\n    tag_59:\n        /* \"#utility.yul\":1801:1826   */\n      swap3\n      pop\n        /* \"#utility.yul\":1849:1850   */\n      dup3\n        /* \"#utility.yul\":1846:1847   */\n      dup3\n        /* \"#utility.yul\":1842:1851   */\n      add\n        /* \"#utility.yul\":1835:1851   */\n      swap1\n      pop\n        /* \"#utility.yul\":1870:1873   */\n      dup1\n        /* \"#utility.yul\":1867:1868   */\n      dup3\n        /* \"#utility.yul\":1864:1874   */\n      gt\n        /* \"#utility.yul\":1861:1897   */\n      iszero\n      tag_60\n      jumpi\n        /* \"#utility.yul\":1877:1895   */\n      tag_61\n      tag_37\n      jump\t// in\n    tag_61:\n        /* \"#utility.yul\":1861:1897   */\n    tag_60:\n        /* \"#utility.yul\":1713:1904   */\n      swap3\n      swap2\n      pop\n      pop\n      jump\t// out\n\n    auxdata: 0xa2646970667358221220e40ed8a00ff95d02668cc23ac5828fbbaae941ed3d10b7758eaef6348a49646d64736f6c634300081a0033\n}\n",
				"bytecode": {
					"linkReferences": {},
					"object": "6080604052600a5f55600c600155600e600255601e6003553480156021575f80fd5b506103208061002f5f395ff3fe608060405234801561000f575f80fd5b506004361061004a575f3560e01c80630b8ddd981461004e5780635bf67e741461006d578063ae8515871461008e578063de292789146100ad575b5f80fd5b6100566100ce565b6040516100649291906101df565b60405180910390f35b610075610101565b6040516100859493929190610206565b60405180910390f35b610096610181565b6040516100a49291906101df565b60405180910390f35b6100b56101aa565b6040516100c59493929190610206565b60405180910390f35b5f805f6001545f546100e09190610276565b90505f6003546002546100f391906102b7565b905081819350935050509091565b5f805f8060375f8082825461011691906102b7565b92505081905550600b60015f82825461012f91906102b7565b92505081905550602160025f82825461014891906102b7565b92505081905550600760035f82825461016191906102b7565b925050819055505f54600154600254600354935093509350935090919293565b5f806001545f546101929190610276565b91506003546002546101a491906102b7565b90509091565b5f805f805f54600154600254600354935093509350935090919293565b5f819050919050565b6101d9816101c7565b82525050565b5f6040820190506101f25f8301856101d0565b6101ff60208301846101d0565b9392505050565b5f6080820190506102195f8301876101d0565b61022660208301866101d0565b61023360408301856101d0565b61024060608301846101d0565b95945050505050565b7f4e487b71000000000000000000000000000000000000000000000000000000005f52601160045260245ffd5b5f610280826101c7565b915061028b836101c7565b9250828202610299816101c7565b915082820484148315176102b0576102af610249565b5b5092915050565b5f6102c1826101c7565b91506102cc836101c7565b92508282019050808211156102e4576102e3610249565b5b9291505056fea2646970667358221220e40ed8a00ff95d02668cc23ac5828fbbaae941ed3d10b7758eaef6348a49646d64736f6c634300081a0033",
					"opcodes": "PUSH1 0x80 PUSH1 0x40 MSTORE PUSH1 0xA PUSH0 SSTORE PUSH1 0xC PUSH1 0x1 SSTORE PUSH1 0xE PUSH1 0x2 SSTORE PUSH1 0x1E PUSH1 0x3 SSTORE CALLVALUE DUP1 ISZERO PUSH1 0x21 JUMPI PUSH0 DUP1 REVERT JUMPDEST POP PUSH2 0x320 DUP1 PUSH2 0x2F PUSH0 CODECOPY PUSH0 RETURN INVALID PUSH1 0x80 PUSH1 0x40 MSTORE CALLVALUE DUP1 ISZERO PUSH2 0xF JUMPI PUSH0 DUP1 REVERT JUMPDEST POP PUSH1 0x4 CALLDATASIZE LT PUSH2 0x4A JUMPI PUSH0 CALLDATALOAD PUSH1 0xE0 SHR DUP1 PUSH4 0xB8DDD98 EQ PUSH2 0x4E JUMPI DUP1 PUSH4 0x5BF67E74 EQ PUSH2 0x6D JUMPI DUP1 PUSH4 0xAE851587 EQ PUSH2 0x8E JUMPI DUP1 PUSH4 0xDE292789 EQ PUSH2 0xAD JUMPI JUMPDEST PUSH0 DUP1 REVERT JUMPDEST PUSH2 0x56 PUSH2 0xCE JUMP JUMPDEST PUSH1 0x40 MLOAD PUSH2 0x64 SWAP3 SWAP2 SWAP1 PUSH2 0x1DF JUMP JUMPDEST PUSH1 0x40 MLOAD DUP1 SWAP2 SUB SWAP1 RETURN JUMPDEST PUSH2 0x75 PUSH2 0x101 JUMP JUMPDEST PUSH1 0x40 MLOAD PUSH2 0x85 SWAP5 SWAP4 SWAP3 SWAP2 SWAP1 PUSH2 0x206 JUMP JUMPDEST PUSH1 0x40 MLOAD DUP1 SWAP2 SUB SWAP1 RETURN JUMPDEST PUSH2 0x96 PUSH2 0x181 JUMP JUMPDEST PUSH1 0x40 MLOAD PUSH2 0xA4 SWAP3 SWAP2 SWAP1 PUSH2 0x1DF JUMP JUMPDEST PUSH1 0x40 MLOAD DUP1 SWAP2 SUB SWAP1 RETURN JUMPDEST PUSH2 0xB5 PUSH2 0x1AA JUMP JUMPDEST PUSH1 0x40 MLOAD PUSH2 0xC5 SWAP5 SWAP4 SWAP3 SWAP2 SWAP1 PUSH2 0x206 JUMP JUMPDEST PUSH1 0x40 MLOAD DUP1 SWAP2 SUB SWAP1 RETURN JUMPDEST PUSH0 DUP1 PUSH0 PUSH1 0x1 SLOAD PUSH0 SLOAD PUSH2 0xE0 SWAP2 SWAP1 PUSH2 0x276 JUMP JUMPDEST SWAP1 POP PUSH0 PUSH1 0x3 SLOAD PUSH1 0x2 SLOAD PUSH2 0xF3 SWAP2 SWAP1 PUSH2 0x2B7 JUMP JUMPDEST SWAP1 POP DUP2 DUP2 SWAP4 POP SWAP4 POP POP POP SWAP1 SWAP2 JUMP JUMPDEST PUSH0 DUP1 PUSH0 DUP1 PUSH1 0x37 PUSH0 DUP1 DUP3 DUP3 SLOAD PUSH2 0x116 SWAP2 SWAP1 PUSH2 0x2B7 JUMP JUMPDEST SWAP3 POP POP DUP2 SWAP1 SSTORE POP PUSH1 0xB PUSH1 0x1 PUSH0 DUP3 DUP3 SLOAD PUSH2 0x12F SWAP2 SWAP1 PUSH2 0x2B7 JUMP JUMPDEST SWAP3 POP POP DUP2 SWAP1 SSTORE POP PUSH1 0x21 PUSH1 0x2 PUSH0 DUP3 DUP3 SLOAD PUSH2 0x148 SWAP2 SWAP1 PUSH2 0x2B7 JUMP JUMPDEST SWAP3 POP POP DUP2 SWAP1 SSTORE POP PUSH1 0x7 PUSH1 0x3 PUSH0 DUP3 DUP3 SLOAD PUSH2 0x161 SWAP2 SWAP1 PUSH2 0x2B7 JUMP JUMPDEST SWAP3 POP POP DUP2 SWAP1 SSTORE POP PUSH0 SLOAD PUSH1 0x1 SLOAD PUSH1 0x2 SLOAD PUSH1 0x3 SLOAD SWAP4 POP SWAP4 POP SWAP4 POP SWAP4 POP SWAP1 SWAP2 SWAP3 SWAP4 JUMP JUMPDEST PUSH0 DUP1 PUSH1 0x1 SLOAD PUSH0 SLOAD PUSH2 0x192 SWAP2 SWAP1 PUSH2 0x276 JUMP JUMPDEST SWAP2 POP PUSH1 0x3 SLOAD PUSH1 0x2 SLOAD PUSH2 0x1A4 SWAP2 SWAP1 PUSH2 0x2B7 JUMP JUMPDEST SWAP1 POP SWAP1 SWAP2 JUMP JUMPDEST PUSH0 DUP1 PUSH0 DUP1 PUSH0 SLOAD PUSH1 0x1 SLOAD PUSH1 0x2 SLOAD PUSH1 0x3 SLOAD SWAP4 POP SWAP4 POP SWAP4 POP SWAP4 POP SWAP1 SWAP2 SWAP3 SWAP4 JUMP JUMPDEST PUSH0 DUP2 SWAP1 POP SWAP2 SWAP1 POP JUMP JUMPDEST PUSH2 0x1D9 DUP2 PUSH2 0x1C7 JUMP JUMPDEST DUP3 MSTORE POP POP JUMP JUMPDEST PUSH0 PUSH1 0x40 DUP3 ADD SWAP1 POP PUSH2 0x1F2 PUSH0 DUP4 ADD DUP6 PUSH2 0x1D0 JUMP JUMPDEST PUSH2 0x1FF PUSH1 0x20 DUP4 ADD DUP5 PUSH2 0x1D0 JUMP JUMPDEST SWAP4 SWAP3 POP POP POP JUMP JUMPDEST PUSH0 PUSH1 0x80 DUP3 ADD SWAP1 POP PUSH2 0x219 PUSH0 DUP4 ADD DUP8 PUSH2 0x1D0 JUMP JUMPDEST PUSH2 0x226 PUSH1 0x20 DUP4 ADD DUP7 PUSH2 0x1D0 JUMP JUMPDEST PUSH2 0x233 PUSH1 0x40 DUP4 ADD DUP6 PUSH2 0x1D0 JUMP JUMPDEST PUSH2 0x240 PUSH1 0x60 DUP4 ADD DUP5 PUSH2 0x1D0 JUMP JUMPDEST SWAP6 SWAP5 POP POP POP POP POP JUMP JUMPDEST PUSH32 0x4E487B7100000000000000000000000000000000000000000000000000000000 PUSH0 MSTORE PUSH1 0x11 PUSH1 0x4 MSTORE PUSH1 0x24 PUSH0 REVERT JUMPDEST PUSH0 PUSH2 0x280 DUP3 PUSH2 0x1C7 JUMP JUMPDEST SWAP2 POP PUSH2 0x28B DUP4 PUSH2 0x1C7 JUMP JUMPDEST SWAP3 POP DUP3 DUP3 MUL PUSH2 0x299 DUP2 PUSH2 0x1C7 JUMP JUMPDEST SWAP2 POP DUP3 DUP3 DIV DUP5 EQ DUP4 ISZERO OR PUSH2 0x2B0 JUMPI PUSH2 0x2AF PUSH2 0x249 JUMP JUMPDEST JUMPDEST POP SWAP3 SWAP2 POP POP JUMP JUMPDEST PUSH0 PUSH2 0x2C1 DUP3 PUSH2 0x1C7 JUMP JUMPDEST SWAP2 POP PUSH2 0x2CC DUP4 PUSH2 0x1C7 JUMP JUMPDEST SWAP3 POP DUP3 DUP3 ADD SWAP1 POP DUP1 DUP3 GT ISZERO PUSH2 0x2E4 JUMPI PUSH2 0x2E3 PUSH2 0x249 JUMP JUMPDEST JUMPDEST SWAP3 SWAP2 POP POP JUMP INVALID LOG2 PUSH5 0x6970667358 0x22 SLT KECCAK256 0xE4 0xE 0xD8 LOG0 0xF 0xF9 TSTORE MUL PUSH7 0x8CC23AC5828FBB 0xAA 0xE9 COINBASE 0xED RETURNDATASIZE LT 0xB7 PUSH22 0x8EAEF6348A49646D64736F6C634300081A0033000000 "
				},
				"gasEstimates": {
					"creation": {
						"codeDepositCost": "160000",
						"executionCost": "88623",
						"totalCost": "248623"
					},
					"external": {
						"gR()": "infinite",
						"gRes()": "infinite",
						"getResult()": "infinite",
						"modState()": "infinite"
					}
				},
				"methodIdentifiers": {
					"gR()": "ae851587",
					"gRes()": "0b8ddd98",
					"getResult()": "de292789",
					"modState()": "5bf67e74"
				}
			},
			"storageLayout": {
				"storage": [
					{
						"astId": 4,
						"contract": "Learning Pth/view.sol:ViewKey",
						"label": "BMW",
						"offset": 0,
						"slot": "0",
						"type": "t_uint256"
					},
					{
						"astId": 7,
						"contract": "Learning Pth/view.sol:ViewKey",
						"label": "Porsche",
						"offset": 0,
						"slot": "1",
						"type": "t_uint256"
					},
					{
						"astId": 10,
						"contract": "Learning Pth/view.sol:ViewKey",
						"label": "Audi",
						"offset": 0,
						"slot": "2",
						"type": "t_uint256"
					},
					{
						"astId": 13,
						"contract": "Learning Pth/view.sol:ViewKey",
						"label": "RollsRoyce",
						"offset": 0,
						"slot": "3",
						"type": "t_uint256"
					}
				],
				"types": {
					"t_uint256": {
						"encoding": "inplace",
						"label": "uint256",
						"numberOfBytes": "32"
					}
				}
			},
			"userdoc": {
				"kind": "user",
				"methods": {},
				"version": 1
			}
		}
	}
}