{
	"Learning Pth/CallEx.sol": {
		"Calling": {
			"abi": [
				{
					"anonymous": false,
					"inputs": [
						{
							"indexed": false,
							"internalType": "bool",
							"name": "success",
							"type": "bool"
						},
						{
							"indexed": false,
							"internalType": "bytes",
							"name": "data",
							"type": "bytes"
						}
					],
					"name": "Feedback",
					"type": "event"
				},
				{
					"inputs": [
						{
							"internalType": "address payable",
							"name": "_to",
							"type": "address"
						}
					],
					"name": "testCheck",
					"outputs": [],
					"stateMutability": "payable",
					"type": "function"
				},
				{
					"inputs": [
						{
							"internalType": "address",
							"name": "_to",
							"type": "address"
						}
					],
					"name": "testDoesNotExist",
					"outputs": [],
					"stateMutability": "payable",
					"type": "function"
				}
			],
			"devdoc": {
				"kind": "dev",
				"methods": {},
				"version": 1
			},
			"evm": {
				"assembly": "    /* \"Learning Pth/CallEx.sol\":489:1100  contract Calling {... */\n  mstore(0x40, 0x80)\n  callvalue\n  dup1\n  iszero\n  tag_1\n  jumpi\n  0x00\n  dup1\n  revert\ntag_1:\n  pop\n  dataSize(sub_0)\n  dup1\n  dataOffset(sub_0)\n  0x00\n  codecopy\n  0x00\n  return\nstop\n\nsub_0: assembly {\n        /* \"Learning Pth/CallEx.sol\":489:1100  contract Calling {... */\n      mstore(0x40, 0x80)\n      jumpi(tag_1, lt(calldatasize, 0x04))\n      shr(0xe0, calldataload(0x00))\n      dup1\n      0x30ef3f45\n      eq\n      tag_2\n      jumpi\n      dup1\n      0x767df44a\n      eq\n      tag_3\n      jumpi\n    tag_1:\n      0x00\n      dup1\n      revert\n        /* \"Learning Pth/CallEx.sol\":562:848  function testCheck(address payable _to) public payable {... */\n    tag_2:\n      tag_4\n      0x04\n      dup1\n      calldatasize\n      sub\n      dup2\n      add\n      swap1\n      tag_5\n      swap2\n      swap1\n      tag_6\n      jump\t// in\n    tag_5:\n      tag_7\n      jump\t// in\n    tag_4:\n      stop\n        /* \"Learning Pth/CallEx.sol\":856:1097  function testDoesNotExist(address _to) public payable {... */\n    tag_3:\n      tag_8\n      0x04\n      dup1\n      calldatasize\n      sub\n      dup2\n      add\n      swap1\n      tag_9\n      swap2\n      swap1\n      tag_10\n      jump\t// in\n    tag_9:\n      tag_11\n      jump\t// in\n    tag_8:\n      stop\n        /* \"Learning Pth/CallEx.sol\":562:848  function testCheck(address payable _to) public payable {... */\n    tag_7:\n        /* \"Learning Pth/CallEx.sol\":629:641  bool success */\n      0x00\n        /* \"Learning Pth/CallEx.sol\":643:660  bytes memory data */\n      dup1\n        /* \"Learning Pth/CallEx.sol\":664:667  _to */\n      dup3\n        /* \"Learning Pth/CallEx.sol\":664:672  _to.call */\n      0xffffffffffffffffffffffffffffffffffffffff\n      and\n        /* \"Learning Pth/CallEx.sol\":680:689  msg.value */\n      callvalue\n        /* \"Learning Pth/CallEx.sol\":696:700  5000 */\n      0x1388\n        /* \"Learning Pth/CallEx.sol\":664:801  _to.call{value: msg.value, gas: 5000}(... */\n      swap1\n        /* \"Learning Pth/CallEx.sol\":784:789  68000 */\n      0x0109a0\n        /* \"Learning Pth/CallEx.sol\":716:790  abi.encodeWithSignature(\"check(string,uint256)\", \"check is called\", 68000) */\n      add(0x24, mload(0x40))\n      tag_13\n      swap2\n      swap1\n      tag_14\n      jump\t// in\n    tag_13:\n      mload(0x40)\n      0x20\n      dup2\n      dup4\n      sub\n      sub\n      dup2\n      mstore\n      swap1\n      0x40\n      mstore\n      and(not(0xffffffffffffffffffffffffffffffffffffffffffffffffffffffff), 0xb3cbbc2400000000000000000000000000000000000000000000000000000000)\n      0x20\n      dup3\n      add\n      dup1\n      mload\n      0xffffffffffffffffffffffffffffffffffffffffffffffffffffffff\n      dup4\n      dup2\n      dup4\n      and\n      or\n      dup4\n      mstore\n      pop\n      pop\n      pop\n      pop\n        /* \"Learning Pth/CallEx.sol\":664:801  _to.call{value: msg.value, gas: 5000}(... */\n      mload(0x40)\n      tag_15\n      swap2\n      swap1\n      tag_16\n      jump\t// in\n    tag_15:\n      0x00\n      mload(0x40)\n      dup1\n      dup4\n      sub\n      dup2\n      dup6\n      dup9\n      dup9\n      call\n      swap4\n      pop\n      pop\n      pop\n      pop\n      returndatasize\n      dup1\n      0x00\n      dup2\n      eq\n      tag_19\n      jumpi\n      mload(0x40)\n      swap2\n      pop\n      and(add(returndatasize, 0x3f), not(0x1f))\n      dup3\n      add\n      0x40\n      mstore\n      returndatasize\n      dup3\n      mstore\n      returndatasize\n      0x00\n      0x20\n      dup5\n      add\n      returndatacopy\n      jump(tag_18)\n    tag_19:\n      0x60\n      swap2\n      pop\n    tag_18:\n      pop\n        /* \"Learning Pth/CallEx.sol\":628:801  (bool success, bytes memory data) = _to.call{value: msg.value, gas: 5000}(... */\n      swap2\n      pop\n      swap2\n      pop\n        /* \"Learning Pth/CallEx.sol\":817:840  Feedback(success, data) */\n      0xe2c0ba105fe0c7470fb09ed4d54b72ebbe15a3e2db9ec23d8242bf3a0a7e0660\n        /* \"Learning Pth/CallEx.sol\":826:833  success */\n      dup3\n        /* \"Learning Pth/CallEx.sol\":835:839  data */\n      dup3\n        /* \"Learning Pth/CallEx.sol\":817:840  Feedback(success, data) */\n      mload(0x40)\n      tag_20\n      swap3\n      swap2\n      swap1\n      tag_21\n      jump\t// in\n    tag_20:\n      mload(0x40)\n      dup1\n      swap2\n      sub\n      swap1\n      log1\n        /* \"Learning Pth/CallEx.sol\":617:848  {... */\n      pop\n      pop\n        /* \"Learning Pth/CallEx.sol\":562:848  function testCheck(address payable _to) public payable {... */\n      pop\n      jump\t// out\n        /* \"Learning Pth/CallEx.sol\":856:1097  function testDoesNotExist(address _to) public payable {... */\n    tag_11:\n        /* \"Learning Pth/CallEx.sol\":922:934  bool success */\n      0x00\n        /* \"Learning Pth/CallEx.sol\":936:953  bytes memory data */\n      dup1\n        /* \"Learning Pth/CallEx.sol\":957:960  _to */\n      dup3\n        /* \"Learning Pth/CallEx.sol\":957:965  _to.call */\n      0xffffffffffffffffffffffffffffffffffffffff\n      and\n        /* \"Learning Pth/CallEx.sol\":973:982  msg.value */\n      callvalue\n        /* \"Learning Pth/CallEx.sol\":998:1039  abi.encodeWithSignature(\"doesNotExist()\") */\n      add(0x24, mload(0x40))\n      mload(0x40)\n      0x20\n      dup2\n      dup4\n      sub\n      sub\n      dup2\n      mstore\n      swap1\n      0x40\n      mstore\n      and(not(0xffffffffffffffffffffffffffffffffffffffffffffffffffffffff), 0x1dcc85ae00000000000000000000000000000000000000000000000000000000)\n      0x20\n      dup3\n      add\n      dup1\n      mload\n      0xffffffffffffffffffffffffffffffffffffffffffffffffffffffff\n      dup4\n      dup2\n      dup4\n      and\n      or\n      dup4\n      mstore\n      pop\n      pop\n      pop\n      pop\n        /* \"Learning Pth/CallEx.sol\":957:1050  _to.call{value: msg.value}(... */\n      mload(0x40)\n      tag_23\n      swap2\n      swap1\n      tag_16\n      jump\t// in\n    tag_23:\n      0x00\n      mload(0x40)\n      dup1\n      dup4\n      sub\n      dup2\n      dup6\n      dup8\n      gas\n      call\n      swap3\n      pop\n      pop\n      pop\n      returndatasize\n      dup1\n      0x00\n      dup2\n      eq\n      tag_26\n      jumpi\n      mload(0x40)\n      swap2\n      pop\n      and(add(returndatasize, 0x3f), not(0x1f))\n      dup3\n      add\n      0x40\n      mstore\n      returndatasize\n      dup3\n      mstore\n      returndatasize\n      0x00\n      0x20\n      dup5\n      add\n      returndatacopy\n      jump(tag_25)\n    tag_26:\n      0x60\n      swap2\n      pop\n    tag_25:\n      pop\n        /* \"Learning Pth/CallEx.sol\":921:1050  (bool success, bytes memory data) = _to.call{value: msg.value}(... */\n      swap2\n      pop\n      swap2\n      pop\n        /* \"Learning Pth/CallEx.sol\":1066:1089  Feedback(success, data) */\n      0xe2c0ba105fe0c7470fb09ed4d54b72ebbe15a3e2db9ec23d8242bf3a0a7e0660\n        /* \"Learning Pth/CallEx.sol\":1075:1082  success */\n      dup3\n        /* \"Learning Pth/CallEx.sol\":1084:1088  data */\n      dup3\n        /* \"Learning Pth/CallEx.sol\":1066:1089  Feedback(success, data) */\n      mload(0x40)\n      tag_27\n      swap3\n      swap2\n      swap1\n      tag_21\n      jump\t// in\n    tag_27:\n      mload(0x40)\n      dup1\n      swap2\n      sub\n      swap1\n      log1\n        /* \"Learning Pth/CallEx.sol\":910:1097  {... */\n      pop\n      pop\n        /* \"Learning Pth/CallEx.sol\":856:1097  function testDoesNotExist(address _to) public payable {... */\n      pop\n      jump\t// out\n        /* \"#utility.yul\":88:205   */\n    tag_29:\n        /* \"#utility.yul\":197:198   */\n      0x00\n        /* \"#utility.yul\":194:195   */\n      dup1\n        /* \"#utility.yul\":187:199   */\n      revert\n        /* \"#utility.yul\":334:460   */\n    tag_31:\n        /* \"#utility.yul\":371:378   */\n      0x00\n        /* \"#utility.yul\":411:453   */\n      0xffffffffffffffffffffffffffffffffffffffff\n        /* \"#utility.yul\":404:409   */\n      dup3\n        /* \"#utility.yul\":400:454   */\n      and\n        /* \"#utility.yul\":389:454   */\n      swap1\n      pop\n        /* \"#utility.yul\":334:460   */\n      swap2\n      swap1\n      pop\n      jump\t// out\n        /* \"#utility.yul\":466:570   */\n    tag_32:\n        /* \"#utility.yul\":511:518   */\n      0x00\n        /* \"#utility.yul\":540:564   */\n      tag_61\n        /* \"#utility.yul\":558:563   */\n      dup3\n        /* \"#utility.yul\":540:564   */\n      tag_31\n      jump\t// in\n    tag_61:\n        /* \"#utility.yul\":529:564   */\n      swap1\n      pop\n        /* \"#utility.yul\":466:570   */\n      swap2\n      swap1\n      pop\n      jump\t// out\n        /* \"#utility.yul\":576:714   */\n    tag_33:\n        /* \"#utility.yul\":657:689   */\n      tag_63\n        /* \"#utility.yul\":683:688   */\n      dup2\n        /* \"#utility.yul\":657:689   */\n      tag_32\n      jump\t// in\n    tag_63:\n        /* \"#utility.yul\":650:655   */\n      dup2\n        /* \"#utility.yul\":647:690   */\n      eq\n        /* \"#utility.yul\":637:708   */\n      tag_64\n      jumpi\n        /* \"#utility.yul\":704:705   */\n      0x00\n        /* \"#utility.yul\":701:702   */\n      dup1\n        /* \"#utility.yul\":694:706   */\n      revert\n        /* \"#utility.yul\":637:708   */\n    tag_64:\n        /* \"#utility.yul\":576:714   */\n      pop\n      jump\t// out\n        /* \"#utility.yul\":720:875   */\n    tag_34:\n        /* \"#utility.yul\":774:779   */\n      0x00\n        /* \"#utility.yul\":812:818   */\n      dup2\n        /* \"#utility.yul\":799:819   */\n      calldataload\n        /* \"#utility.yul\":790:819   */\n      swap1\n      pop\n        /* \"#utility.yul\":828:869   */\n      tag_66\n        /* \"#utility.yul\":863:868   */\n      dup2\n        /* \"#utility.yul\":828:869   */\n      tag_33\n      jump\t// in\n    tag_66:\n        /* \"#utility.yul\":720:875   */\n      swap3\n      swap2\n      pop\n      pop\n      jump\t// out\n        /* \"#utility.yul\":881:1226   */\n    tag_6:\n        /* \"#utility.yul\":948:954   */\n      0x00\n        /* \"#utility.yul\":997:999   */\n      0x20\n        /* \"#utility.yul\":985:994   */\n      dup3\n        /* \"#utility.yul\":976:983   */\n      dup5\n        /* \"#utility.yul\":972:995   */\n      sub\n        /* \"#utility.yul\":968:1000   */\n      slt\n        /* \"#utility.yul\":965:1084   */\n      iszero\n      tag_68\n      jumpi\n        /* \"#utility.yul\":1003:1082   */\n      tag_69\n      tag_29\n      jump\t// in\n    tag_69:\n        /* \"#utility.yul\":965:1084   */\n    tag_68:\n        /* \"#utility.yul\":1123:1124   */\n      0x00\n        /* \"#utility.yul\":1148:1209   */\n      tag_70\n        /* \"#utility.yul\":1201:1208   */\n      dup5\n        /* \"#utility.yul\":1192:1198   */\n      dup3\n        /* \"#utility.yul\":1181:1190   */\n      dup6\n        /* \"#utility.yul\":1177:1199   */\n      add\n        /* \"#utility.yul\":1148:1209   */\n      tag_34\n      jump\t// in\n    tag_70:\n        /* \"#utility.yul\":1138:1209   */\n      swap2\n      pop\n        /* \"#utility.yul\":1094:1219   */\n      pop\n        /* \"#utility.yul\":881:1226   */\n      swap3\n      swap2\n      pop\n      pop\n      jump\t// out\n        /* \"#utility.yul\":1232:1328   */\n    tag_35:\n        /* \"#utility.yul\":1269:1276   */\n      0x00\n        /* \"#utility.yul\":1298:1322   */\n      tag_72\n        /* \"#utility.yul\":1316:1321   */\n      dup3\n        /* \"#utility.yul\":1298:1322   */\n      tag_31\n      jump\t// in\n    tag_72:\n        /* \"#utility.yul\":1287:1322   */\n      swap1\n      pop\n        /* \"#utility.yul\":1232:1328   */\n      swap2\n      swap1\n      pop\n      jump\t// out\n        /* \"#utility.yul\":1334:1456   */\n    tag_36:\n        /* \"#utility.yul\":1407:1431   */\n      tag_74\n        /* \"#utility.yul\":1425:1430   */\n      dup2\n        /* \"#utility.yul\":1407:1431   */\n      tag_35\n      jump\t// in\n    tag_74:\n        /* \"#utility.yul\":1400:1405   */\n      dup2\n        /* \"#utility.yul\":1397:1432   */\n      eq\n        /* \"#utility.yul\":1387:1450   */\n      tag_75\n      jumpi\n        /* \"#utility.yul\":1446:1447   */\n      0x00\n        /* \"#utility.yul\":1443:1444   */\n      dup1\n        /* \"#utility.yul\":1436:1448   */\n      revert\n        /* \"#utility.yul\":1387:1450   */\n    tag_75:\n        /* \"#utility.yul\":1334:1456   */\n      pop\n      jump\t// out\n        /* \"#utility.yul\":1462:1601   */\n    tag_37:\n        /* \"#utility.yul\":1508:1513   */\n      0x00\n        /* \"#utility.yul\":1546:1552   */\n      dup2\n        /* \"#utility.yul\":1533:1553   */\n      calldataload\n        /* \"#utility.yul\":1524:1553   */\n      swap1\n      pop\n        /* \"#utility.yul\":1562:1595   */\n      tag_77\n        /* \"#utility.yul\":1589:1594   */\n      dup2\n        /* \"#utility.yul\":1562:1595   */\n      tag_36\n      jump\t// in\n    tag_77:\n        /* \"#utility.yul\":1462:1601   */\n      swap3\n      swap2\n      pop\n      pop\n      jump\t// out\n        /* \"#utility.yul\":1607:1936   */\n    tag_10:\n        /* \"#utility.yul\":1666:1672   */\n      0x00\n        /* \"#utility.yul\":1715:1717   */\n      0x20\n        /* \"#utility.yul\":1703:1712   */\n      dup3\n        /* \"#utility.yul\":1694:1701   */\n      dup5\n        /* \"#utility.yul\":1690:1713   */\n      sub\n        /* \"#utility.yul\":1686:1718   */\n      slt\n        /* \"#utility.yul\":1683:1802   */\n      iszero\n      tag_79\n      jumpi\n        /* \"#utility.yul\":1721:1800   */\n      tag_80\n      tag_29\n      jump\t// in\n    tag_80:\n        /* \"#utility.yul\":1683:1802   */\n    tag_79:\n        /* \"#utility.yul\":1841:1842   */\n      0x00\n        /* \"#utility.yul\":1866:1919   */\n      tag_81\n        /* \"#utility.yul\":1911:1918   */\n      dup5\n        /* \"#utility.yul\":1902:1908   */\n      dup3\n        /* \"#utility.yul\":1891:1900   */\n      dup6\n        /* \"#utility.yul\":1887:1909   */\n      add\n        /* \"#utility.yul\":1866:1919   */\n      tag_37\n      jump\t// in\n    tag_81:\n        /* \"#utility.yul\":1856:1919   */\n      swap2\n      pop\n        /* \"#utility.yul\":1812:1929   */\n      pop\n        /* \"#utility.yul\":1607:1936   */\n      swap3\n      swap2\n      pop\n      pop\n      jump\t// out\n        /* \"#utility.yul\":1942:2111   */\n    tag_38:\n        /* \"#utility.yul\":2026:2037   */\n      0x00\n        /* \"#utility.yul\":2060:2066   */\n      dup3\n        /* \"#utility.yul\":2055:2058   */\n      dup3\n        /* \"#utility.yul\":2048:2067   */\n      mstore\n        /* \"#utility.yul\":2100:2104   */\n      0x20\n        /* \"#utility.yul\":2095:2098   */\n      dup3\n        /* \"#utility.yul\":2091:2105   */\n      add\n        /* \"#utility.yul\":2076:2105   */\n      swap1\n      pop\n        /* \"#utility.yul\":1942:2111   */\n      swap3\n      swap2\n      pop\n      pop\n      jump\t// out\n        /* \"#utility.yul\":2117:2282   */\n    tag_39:\n        /* \"#utility.yul\":2257:2274   */\n      0x636865636b2069732063616c6c65640000000000000000000000000000000000\n        /* \"#utility.yul\":2253:2254   */\n      0x00\n        /* \"#utility.yul\":2245:2251   */\n      dup3\n        /* \"#utility.yul\":2241:2255   */\n      add\n        /* \"#utility.yul\":2234:2275   */\n      mstore\n        /* \"#utility.yul\":2117:2282   */\n      pop\n      jump\t// out\n        /* \"#utility.yul\":2288:2654   */\n    tag_40:\n        /* \"#utility.yul\":2430:2433   */\n      0x00\n        /* \"#utility.yul\":2451:2518   */\n      tag_85\n        /* \"#utility.yul\":2515:2517   */\n      0x0f\n        /* \"#utility.yul\":2510:2513   */\n      dup4\n        /* \"#utility.yul\":2451:2518   */\n      tag_38\n      jump\t// in\n    tag_85:\n        /* \"#utility.yul\":2444:2518   */\n      swap2\n      pop\n        /* \"#utility.yul\":2527:2620   */\n      tag_86\n        /* \"#utility.yul\":2616:2619   */\n      dup3\n        /* \"#utility.yul\":2527:2620   */\n      tag_39\n      jump\t// in\n    tag_86:\n        /* \"#utility.yul\":2645:2647   */\n      0x20\n        /* \"#utility.yul\":2640:2643   */\n      dup3\n        /* \"#utility.yul\":2636:2648   */\n      add\n        /* \"#utility.yul\":2629:2648   */\n      swap1\n      pop\n        /* \"#utility.yul\":2288:2654   */\n      swap2\n      swap1\n      pop\n      jump\t// out\n        /* \"#utility.yul\":2660:2749   */\n    tag_41:\n        /* \"#utility.yul\":2709:2716   */\n      0x00\n        /* \"#utility.yul\":2738:2743   */\n      dup2\n        /* \"#utility.yul\":2727:2743   */\n      swap1\n      pop\n        /* \"#utility.yul\":2660:2749   */\n      swap2\n      swap1\n      pop\n      jump\t// out\n        /* \"#utility.yul\":2755:2846   */\n    tag_42:\n        /* \"#utility.yul\":2791:2798   */\n      0x00\n        /* \"#utility.yul\":2831:2839   */\n      0xffffff\n        /* \"#utility.yul\":2824:2829   */\n      dup3\n        /* \"#utility.yul\":2820:2840   */\n      and\n        /* \"#utility.yul\":2809:2840   */\n      swap1\n      pop\n        /* \"#utility.yul\":2755:2846   */\n      swap2\n      swap1\n      pop\n      jump\t// out\n        /* \"#utility.yul\":2852:2912   */\n    tag_43:\n        /* \"#utility.yul\":2880:2883   */\n      0x00\n        /* \"#utility.yul\":2901:2906   */\n      dup2\n        /* \"#utility.yul\":2894:2906   */\n      swap1\n      pop\n        /* \"#utility.yul\":2852:2912   */\n      swap2\n      swap1\n      pop\n      jump\t// out\n        /* \"#utility.yul\":2918:3082   */\n    tag_44:\n        /* \"#utility.yul\":2979:2988   */\n      0x00\n        /* \"#utility.yul\":3012:3076   */\n      tag_91\n        /* \"#utility.yul\":3029:3075   */\n      tag_92\n        /* \"#utility.yul\":3038:3074   */\n      tag_93\n        /* \"#utility.yul\":3068:3073   */\n      dup5\n        /* \"#utility.yul\":3038:3074   */\n      tag_41\n      jump\t// in\n    tag_93:\n        /* \"#utility.yul\":3029:3075   */\n      tag_43\n      jump\t// in\n    tag_92:\n        /* \"#utility.yul\":3012:3076   */\n      tag_42\n      jump\t// in\n    tag_91:\n        /* \"#utility.yul\":2999:3076   */\n      swap1\n      pop\n        /* \"#utility.yul\":2918:3082   */\n      swap2\n      swap1\n      pop\n      jump\t// out\n        /* \"#utility.yul\":3088:3241   */\n    tag_45:\n        /* \"#utility.yul\":3186:3234   */\n      tag_95\n        /* \"#utility.yul\":3228:3233   */\n      dup2\n        /* \"#utility.yul\":3186:3234   */\n      tag_44\n      jump\t// in\n    tag_95:\n        /* \"#utility.yul\":3181:3184   */\n      dup3\n        /* \"#utility.yul\":3174:3235   */\n      mstore\n        /* \"#utility.yul\":3088:3241   */\n      pop\n      pop\n      jump\t// out\n        /* \"#utility.yul\":3247:3798   */\n    tag_14:\n        /* \"#utility.yul\":3452:3456   */\n      0x00\n        /* \"#utility.yul\":3490:3492   */\n      0x40\n        /* \"#utility.yul\":3479:3488   */\n      dup3\n        /* \"#utility.yul\":3475:3493   */\n      add\n        /* \"#utility.yul\":3467:3493   */\n      swap1\n      pop\n        /* \"#utility.yul\":3539:3548   */\n      dup2\n        /* \"#utility.yul\":3533:3537   */\n      dup2\n        /* \"#utility.yul\":3529:3549   */\n      sub\n        /* \"#utility.yul\":3525:3526   */\n      0x00\n        /* \"#utility.yul\":3514:3523   */\n      dup4\n        /* \"#utility.yul\":3510:3527   */\n      add\n        /* \"#utility.yul\":3503:3550   */\n      mstore\n        /* \"#utility.yul\":3567:3698   */\n      tag_97\n        /* \"#utility.yul\":3693:3697   */\n      dup2\n        /* \"#utility.yul\":3567:3698   */\n      tag_40\n      jump\t// in\n    tag_97:\n        /* \"#utility.yul\":3559:3698   */\n      swap1\n      pop\n        /* \"#utility.yul\":3708:3791   */\n      tag_98\n        /* \"#utility.yul\":3787:3789   */\n      0x20\n        /* \"#utility.yul\":3776:3785   */\n      dup4\n        /* \"#utility.yul\":3772:3790   */\n      add\n        /* \"#utility.yul\":3763:3769   */\n      dup5\n        /* \"#utility.yul\":3708:3791   */\n      tag_45\n      jump\t// in\n    tag_98:\n        /* \"#utility.yul\":3247:3798   */\n      swap3\n      swap2\n      pop\n      pop\n      jump\t// out\n        /* \"#utility.yul\":3804:3902   */\n    tag_46:\n        /* \"#utility.yul\":3855:3861   */\n      0x00\n        /* \"#utility.yul\":3889:3894   */\n      dup2\n        /* \"#utility.yul\":3883:3895   */\n      mload\n        /* \"#utility.yul\":3873:3895   */\n      swap1\n      pop\n        /* \"#utility.yul\":3804:3902   */\n      swap2\n      swap1\n      pop\n      jump\t// out\n        /* \"#utility.yul\":3908:4055   */\n    tag_47:\n        /* \"#utility.yul\":4009:4020   */\n      0x00\n        /* \"#utility.yul\":4046:4049   */\n      dup2\n        /* \"#utility.yul\":4031:4049   */\n      swap1\n      pop\n        /* \"#utility.yul\":3908:4055   */\n      swap3\n      swap2\n      pop\n      pop\n      jump\t// out\n        /* \"#utility.yul\":4061:4200   */\n    tag_48:\n        /* \"#utility.yul\":4150:4156   */\n      dup3\n        /* \"#utility.yul\":4145:4148   */\n      dup2\n        /* \"#utility.yul\":4140:4143   */\n      dup4\n        /* \"#utility.yul\":4134:4157   */\n      mcopy\n        /* \"#utility.yul\":4191:4192   */\n      0x00\n        /* \"#utility.yul\":4182:4188   */\n      dup4\n        /* \"#utility.yul\":4177:4180   */\n      dup4\n        /* \"#utility.yul\":4173:4189   */\n      add\n        /* \"#utility.yul\":4166:4193   */\n      mstore\n        /* \"#utility.yul\":4061:4200   */\n      pop\n      pop\n      pop\n      jump\t// out\n        /* \"#utility.yul\":4206:4592   */\n    tag_49:\n        /* \"#utility.yul\":4310:4313   */\n      0x00\n        /* \"#utility.yul\":4338:4376   */\n      tag_103\n        /* \"#utility.yul\":4370:4375   */\n      dup3\n        /* \"#utility.yul\":4338:4376   */\n      tag_46\n      jump\t// in\n    tag_103:\n        /* \"#utility.yul\":4392:4480   */\n      tag_104\n        /* \"#utility.yul\":4473:4479   */\n      dup2\n        /* \"#utility.yul\":4468:4471   */\n      dup6\n        /* \"#utility.yul\":4392:4480   */\n      tag_47\n      jump\t// in\n    tag_104:\n        /* \"#utility.yul\":4385:4480   */\n      swap4\n      pop\n        /* \"#utility.yul\":4489:4554   */\n      tag_105\n        /* \"#utility.yul\":4547:4553   */\n      dup2\n        /* \"#utility.yul\":4542:4545   */\n      dup6\n        /* \"#utility.yul\":4535:4539   */\n      0x20\n        /* \"#utility.yul\":4528:4533   */\n      dup7\n        /* \"#utility.yul\":4524:4540   */\n      add\n        /* \"#utility.yul\":4489:4554   */\n      tag_48\n      jump\t// in\n    tag_105:\n        /* \"#utility.yul\":4579:4585   */\n      dup1\n        /* \"#utility.yul\":4574:4577   */\n      dup5\n        /* \"#utility.yul\":4570:4586   */\n      add\n        /* \"#utility.yul\":4563:4586   */\n      swap2\n      pop\n        /* \"#utility.yul\":4314:4592   */\n      pop\n        /* \"#utility.yul\":4206:4592   */\n      swap3\n      swap2\n      pop\n      pop\n      jump\t// out\n        /* \"#utility.yul\":4598:4869   */\n    tag_16:\n        /* \"#utility.yul\":4728:4731   */\n      0x00\n        /* \"#utility.yul\":4750:4843   */\n      tag_107\n        /* \"#utility.yul\":4839:4842   */\n      dup3\n        /* \"#utility.yul\":4830:4836   */\n      dup5\n        /* \"#utility.yul\":4750:4843   */\n      tag_49\n      jump\t// in\n    tag_107:\n        /* \"#utility.yul\":4743:4843   */\n      swap2\n      pop\n        /* \"#utility.yul\":4860:4863   */\n      dup2\n        /* \"#utility.yul\":4853:4863   */\n      swap1\n      pop\n        /* \"#utility.yul\":4598:4869   */\n      swap3\n      swap2\n      pop\n      pop\n      jump\t// out\n        /* \"#utility.yul\":4875:4965   */\n    tag_50:\n        /* \"#utility.yul\":4909:4916   */\n      0x00\n        /* \"#utility.yul\":4952:4957   */\n      dup2\n        /* \"#utility.yul\":4945:4958   */\n      iszero\n        /* \"#utility.yul\":4938:4959   */\n      iszero\n        /* \"#utility.yul\":4927:4959   */\n      swap1\n      pop\n        /* \"#utility.yul\":4875:4965   */\n      swap2\n      swap1\n      pop\n      jump\t// out\n        /* \"#utility.yul\":4971:5080   */\n    tag_51:\n        /* \"#utility.yul\":5052:5073   */\n      tag_110\n        /* \"#utility.yul\":5067:5072   */\n      dup2\n        /* \"#utility.yul\":5052:5073   */\n      tag_50\n      jump\t// in\n    tag_110:\n        /* \"#utility.yul\":5047:5050   */\n      dup3\n        /* \"#utility.yul\":5040:5074   */\n      mstore\n        /* \"#utility.yul\":4971:5080   */\n      pop\n      pop\n      jump\t// out\n        /* \"#utility.yul\":5086:5254   */\n    tag_52:\n        /* \"#utility.yul\":5169:5180   */\n      0x00\n        /* \"#utility.yul\":5203:5209   */\n      dup3\n        /* \"#utility.yul\":5198:5201   */\n      dup3\n        /* \"#utility.yul\":5191:5210   */\n      mstore\n        /* \"#utility.yul\":5243:5247   */\n      0x20\n        /* \"#utility.yul\":5238:5241   */\n      dup3\n        /* \"#utility.yul\":5234:5248   */\n      add\n        /* \"#utility.yul\":5219:5248   */\n      swap1\n      pop\n        /* \"#utility.yul\":5086:5254   */\n      swap3\n      swap2\n      pop\n      pop\n      jump\t// out\n        /* \"#utility.yul\":5260:5362   */\n    tag_53:\n        /* \"#utility.yul\":5301:5307   */\n      0x00\n        /* \"#utility.yul\":5352:5354   */\n      0x1f\n        /* \"#utility.yul\":5348:5355   */\n      not\n        /* \"#utility.yul\":5343:5345   */\n      0x1f\n        /* \"#utility.yul\":5336:5341   */\n      dup4\n        /* \"#utility.yul\":5332:5346   */\n      add\n        /* \"#utility.yul\":5328:5356   */\n      and\n        /* \"#utility.yul\":5318:5356   */\n      swap1\n      pop\n        /* \"#utility.yul\":5260:5362   */\n      swap2\n      swap1\n      pop\n      jump\t// out\n        /* \"#utility.yul\":5368:5741   */\n    tag_54:\n        /* \"#utility.yul\":5454:5457   */\n      0x00\n        /* \"#utility.yul\":5482:5520   */\n      tag_114\n        /* \"#utility.yul\":5514:5519   */\n      dup3\n        /* \"#utility.yul\":5482:5520   */\n      tag_46\n      jump\t// in\n    tag_114:\n        /* \"#utility.yul\":5536:5606   */\n      tag_115\n        /* \"#utility.yul\":5599:5605   */\n      dup2\n        /* \"#utility.yul\":5594:5597   */\n      dup6\n        /* \"#utility.yul\":5536:5606   */\n      tag_52\n      jump\t// in\n    tag_115:\n        /* \"#utility.yul\":5529:5606   */\n      swap4\n      pop\n        /* \"#utility.yul\":5615:5680   */\n      tag_116\n        /* \"#utility.yul\":5673:5679   */\n      dup2\n        /* \"#utility.yul\":5668:5671   */\n      dup6\n        /* \"#utility.yul\":5661:5665   */\n      0x20\n        /* \"#utility.yul\":5654:5659   */\n      dup7\n        /* \"#utility.yul\":5650:5666   */\n      add\n        /* \"#utility.yul\":5615:5680   */\n      tag_48\n      jump\t// in\n    tag_116:\n        /* \"#utility.yul\":5705:5734   */\n      tag_117\n        /* \"#utility.yul\":5727:5733   */\n      dup2\n        /* \"#utility.yul\":5705:5734   */\n      tag_53\n      jump\t// in\n    tag_117:\n        /* \"#utility.yul\":5700:5703   */\n      dup5\n        /* \"#utility.yul\":5696:5735   */\n      add\n        /* \"#utility.yul\":5689:5735   */\n      swap2\n      pop\n        /* \"#utility.yul\":5458:5741   */\n      pop\n        /* \"#utility.yul\":5368:5741   */\n      swap3\n      swap2\n      pop\n      pop\n      jump\t// out\n        /* \"#utility.yul\":5747:6154   */\n    tag_21:\n        /* \"#utility.yul\":5880:5884   */\n      0x00\n        /* \"#utility.yul\":5918:5920   */\n      0x40\n        /* \"#utility.yul\":5907:5916   */\n      dup3\n        /* \"#utility.yul\":5903:5921   */\n      add\n        /* \"#utility.yul\":5895:5921   */\n      swap1\n      pop\n        /* \"#utility.yul\":5931:5996   */\n      tag_119\n        /* \"#utility.yul\":5993:5994   */\n      0x00\n        /* \"#utility.yul\":5982:5991   */\n      dup4\n        /* \"#utility.yul\":5978:5995   */\n      add\n        /* \"#utility.yul\":5969:5975   */\n      dup6\n        /* \"#utility.yul\":5931:5996   */\n      tag_51\n      jump\t// in\n    tag_119:\n        /* \"#utility.yul\":6043:6052   */\n      dup2\n        /* \"#utility.yul\":6037:6041   */\n      dup2\n        /* \"#utility.yul\":6033:6053   */\n      sub\n        /* \"#utility.yul\":6028:6030   */\n      0x20\n        /* \"#utility.yul\":6017:6026   */\n      dup4\n        /* \"#utility.yul\":6013:6031   */\n      add\n        /* \"#utility.yul\":6006:6054   */\n      mstore\n        /* \"#utility.yul\":6071:6147   */\n      tag_120\n        /* \"#utility.yul\":6142:6146   */\n      dup2\n        /* \"#utility.yul\":6133:6139   */\n      dup5\n        /* \"#utility.yul\":6071:6147   */\n      tag_54\n      jump\t// in\n    tag_120:\n        /* \"#utility.yul\":6063:6147   */\n      swap1\n      pop\n        /* \"#utility.yul\":5747:6154   */\n      swap4\n      swap3\n      pop\n      pop\n      pop\n      jump\t// out\n\n    auxdata: 0xa2646970667358221220b2e88e7b2615cb1f654fb3afdf44d92306a557420a004bddcf3676929c86b85464736f6c634300081a0033\n}\n",
				"bytecode": {
					"linkReferences": {},
					"object": "6080604052348015600e575f80fd5b506105d28061001c5f395ff3fe608060405260043610610028575f3560e01c806330ef3f451461002c578063767df44a14610048575b5f80fd5b6100466004803603810190610041919061032d565b610064565b005b610062600480360381019061005d9190610393565b6101a3565b005b5f808273ffffffffffffffffffffffffffffffffffffffff163461138890620109a06040516024016100969190610468565b6040516020818303038152906040527fb3cbbc24000000000000000000000000000000000000000000000000000000007bffffffffffffffffffffffffffffffffffffffffffffffffffffffff19166020820180517bffffffffffffffffffffffffffffffffffffffffffffffffffffffff838183161783525050505060405161012091906104e6565b5f60405180830381858888f193505050503d805f811461015b576040519150601f19603f3d011682016040523d82523d5f602084013e610160565b606091505b50915091507fe2c0ba105fe0c7470fb09ed4d54b72ebbe15a3e2db9ec23d8242bf3a0a7e0660828260405161019692919061056e565b60405180910390a1505050565b5f808273ffffffffffffffffffffffffffffffffffffffff16346040516024016040516020818303038152906040527f1dcc85ae000000000000000000000000000000000000000000000000000000007bffffffffffffffffffffffffffffffffffffffffffffffffffffffff19166020820180517bffffffffffffffffffffffffffffffffffffffffffffffffffffffff838183161783525050505060405161024d91906104e6565b5f6040518083038185875af1925050503d805f8114610287576040519150601f19603f3d011682016040523d82523d5f602084013e61028c565b606091505b50915091507fe2c0ba105fe0c7470fb09ed4d54b72ebbe15a3e2db9ec23d8242bf3a0a7e066082826040516102c292919061056e565b60405180910390a1505050565b5f80fd5b5f73ffffffffffffffffffffffffffffffffffffffff82169050919050565b5f6102fc826102d3565b9050919050565b61030c816102f2565b8114610316575f80fd5b50565b5f8135905061032781610303565b92915050565b5f60208284031215610342576103416102cf565b5b5f61034f84828501610319565b91505092915050565b5f610362826102d3565b9050919050565b61037281610358565b811461037c575f80fd5b50565b5f8135905061038d81610369565b92915050565b5f602082840312156103a8576103a76102cf565b5b5f6103b58482850161037f565b91505092915050565b5f82825260208201905092915050565b7f636865636b2069732063616c6c656400000000000000000000000000000000005f82015250565b5f610402600f836103be565b915061040d826103ce565b602082019050919050565b5f819050919050565b5f62ffffff82169050919050565b5f819050919050565b5f61045261044d61044884610418565b61042f565b610421565b9050919050565b61046281610438565b82525050565b5f6040820190508181035f83015261047f816103f6565b905061048e6020830184610459565b92915050565b5f81519050919050565b5f81905092915050565b8281835e5f83830152505050565b5f6104c082610494565b6104ca818561049e565b93506104da8185602086016104a8565b80840191505092915050565b5f6104f182846104b6565b915081905092915050565b5f8115159050919050565b610510816104fc565b82525050565b5f82825260208201905092915050565b5f601f19601f8301169050919050565b5f61054082610494565b61054a8185610516565b935061055a8185602086016104a8565b61056381610526565b840191505092915050565b5f6040820190506105815f830185610507565b81810360208301526105938184610536565b9050939250505056fea2646970667358221220b2e88e7b2615cb1f654fb3afdf44d92306a557420a004bddcf3676929c86b85464736f6c634300081a0033",
					"opcodes": "PUSH1 0x80 PUSH1 0x40 MSTORE CALLVALUE DUP1 ISZERO PUSH1 0xE JUMPI PUSH0 DUP1 REVERT JUMPDEST POP PUSH2 0x5D2 DUP1 PUSH2 0x1C PUSH0 CODECOPY PUSH0 RETURN INVALID PUSH1 0x80 PUSH1 0x40 MSTORE PUSH1 0x4 CALLDATASIZE LT PUSH2 0x28 JUMPI PUSH0 CALLDATALOAD PUSH1 0xE0 SHR DUP1 PUSH4 0x30EF3F45 EQ PUSH2 0x2C JUMPI DUP1 PUSH4 0x767DF44A EQ PUSH2 0x48 JUMPI JUMPDEST PUSH0 DUP1 REVERT JUMPDEST PUSH2 0x46 PUSH1 0x4 DUP1 CALLDATASIZE SUB DUP2 ADD SWAP1 PUSH2 0x41 SWAP2 SWAP1 PUSH2 0x32D JUMP JUMPDEST PUSH2 0x64 JUMP JUMPDEST STOP JUMPDEST PUSH2 0x62 PUSH1 0x4 DUP1 CALLDATASIZE SUB DUP2 ADD SWAP1 PUSH2 0x5D SWAP2 SWAP1 PUSH2 0x393 JUMP JUMPDEST PUSH2 0x1A3 JUMP JUMPDEST STOP JUMPDEST PUSH0 DUP1 DUP3 PUSH20 0xFFFFFFFFFFFFFFFFFFFFFFFFFFFFFFFFFFFFFFFF AND CALLVALUE PUSH2 0x1388 SWAP1 PUSH3 0x109A0 PUSH1 0x40 MLOAD PUSH1 0x24 ADD PUSH2 0x96 SWAP2 SWAP1 PUSH2 0x468 JUMP JUMPDEST PUSH1 0x40 MLOAD PUSH1 0x20 DUP2 DUP4 SUB SUB DUP2 MSTORE SWAP1 PUSH1 0x40 MSTORE PUSH32 0xB3CBBC2400000000000000000000000000000000000000000000000000000000 PUSH28 0xFFFFFFFFFFFFFFFFFFFFFFFFFFFFFFFFFFFFFFFFFFFFFFFFFFFFFFFF NOT AND PUSH1 0x20 DUP3 ADD DUP1 MLOAD PUSH28 0xFFFFFFFFFFFFFFFFFFFFFFFFFFFFFFFFFFFFFFFFFFFFFFFFFFFFFFFF DUP4 DUP2 DUP4 AND OR DUP4 MSTORE POP POP POP POP PUSH1 0x40 MLOAD PUSH2 0x120 SWAP2 SWAP1 PUSH2 0x4E6 JUMP JUMPDEST PUSH0 PUSH1 0x40 MLOAD DUP1 DUP4 SUB DUP2 DUP6 DUP9 DUP9 CALL SWAP4 POP POP POP POP RETURNDATASIZE DUP1 PUSH0 DUP2 EQ PUSH2 0x15B JUMPI PUSH1 0x40 MLOAD SWAP2 POP PUSH1 0x1F NOT PUSH1 0x3F RETURNDATASIZE ADD AND DUP3 ADD PUSH1 0x40 MSTORE RETURNDATASIZE DUP3 MSTORE RETURNDATASIZE PUSH0 PUSH1 0x20 DUP5 ADD RETURNDATACOPY PUSH2 0x160 JUMP JUMPDEST PUSH1 0x60 SWAP2 POP JUMPDEST POP SWAP2 POP SWAP2 POP PUSH32 0xE2C0BA105FE0C7470FB09ED4D54B72EBBE15A3E2DB9EC23D8242BF3A0A7E0660 DUP3 DUP3 PUSH1 0x40 MLOAD PUSH2 0x196 SWAP3 SWAP2 SWAP1 PUSH2 0x56E JUMP JUMPDEST PUSH1 0x40 MLOAD DUP1 SWAP2 SUB SWAP1 LOG1 POP POP POP JUMP JUMPDEST PUSH0 DUP1 DUP3 PUSH20 0xFFFFFFFFFFFFFFFFFFFFFFFFFFFFFFFFFFFFFFFF AND CALLVALUE PUSH1 0x40 MLOAD PUSH1 0x24 ADD PUSH1 0x40 MLOAD PUSH1 0x20 DUP2 DUP4 SUB SUB DUP2 MSTORE SWAP1 PUSH1 0x40 MSTORE PUSH32 0x1DCC85AE00000000000000000000000000000000000000000000000000000000 PUSH28 0xFFFFFFFFFFFFFFFFFFFFFFFFFFFFFFFFFFFFFFFFFFFFFFFFFFFFFFFF NOT AND PUSH1 0x20 DUP3 ADD DUP1 MLOAD PUSH28 0xFFFFFFFFFFFFFFFFFFFFFFFFFFFFFFFFFFFFFFFFFFFFFFFFFFFFFFFF DUP4 DUP2 DUP4 AND OR DUP4 MSTORE POP POP POP POP PUSH1 0x40 MLOAD PUSH2 0x24D SWAP2 SWAP1 PUSH2 0x4E6 JUMP JUMPDEST PUSH0 PUSH1 0x40 MLOAD DUP1 DUP4 SUB DUP2 DUP6 DUP8 GAS CALL SWAP3 POP POP POP RETURNDATASIZE DUP1 PUSH0 DUP2 EQ PUSH2 0x287 JUMPI PUSH1 0x40 MLOAD SWAP2 POP PUSH1 0x1F NOT PUSH1 0x3F RETURNDATASIZE ADD AND DUP3 ADD PUSH1 0x40 MSTORE RETURNDATASIZE DUP3 MSTORE RETURNDATASIZE PUSH0 PUSH1 0x20 DUP5 ADD RETURNDATACOPY PUSH2 0x28C JUMP JUMPDEST PUSH1 0x60 SWAP2 POP JUMPDEST POP SWAP2 POP SWAP2 POP PUSH32 0xE2C0BA105FE0C7470FB09ED4D54B72EBBE15A3E2DB9EC23D8242BF3A0A7E0660 DUP3 DUP3 PUSH1 0x40 MLOAD PUSH2 0x2C2 SWAP3 SWAP2 SWAP1 PUSH2 0x56E JUMP JUMPDEST PUSH1 0x40 MLOAD DUP1 SWAP2 SUB SWAP1 LOG1 POP POP POP JUMP JUMPDEST PUSH0 DUP1 REVERT JUMPDEST PUSH0 PUSH20 0xFFFFFFFFFFFFFFFFFFFFFFFFFFFFFFFFFFFFFFFF DUP3 AND SWAP1 POP SWAP2 SWAP1 POP JUMP JUMPDEST PUSH0 PUSH2 0x2FC DUP3 PUSH2 0x2D3 JUMP JUMPDEST SWAP1 POP SWAP2 SWAP1 POP JUMP JUMPDEST PUSH2 0x30C DUP2 PUSH2 0x2F2 JUMP JUMPDEST DUP2 EQ PUSH2 0x316 JUMPI PUSH0 DUP1 REVERT JUMPDEST POP JUMP JUMPDEST PUSH0 DUP2 CALLDATALOAD SWAP1 POP PUSH2 0x327 DUP2 PUSH2 0x303 JUMP JUMPDEST SWAP3 SWAP2 POP POP JUMP JUMPDEST PUSH0 PUSH1 0x20 DUP3 DUP5 SUB SLT ISZERO PUSH2 0x342 JUMPI PUSH2 0x341 PUSH2 0x2CF JUMP JUMPDEST JUMPDEST PUSH0 PUSH2 0x34F DUP5 DUP3 DUP6 ADD PUSH2 0x319 JUMP JUMPDEST SWAP2 POP POP SWAP3 SWAP2 POP POP JUMP JUMPDEST PUSH0 PUSH2 0x362 DUP3 PUSH2 0x2D3 JUMP JUMPDEST SWAP1 POP SWAP2 SWAP1 POP JUMP JUMPDEST PUSH2 0x372 DUP2 PUSH2 0x358 JUMP JUMPDEST DUP2 EQ PUSH2 0x37C JUMPI PUSH0 DUP1 REVERT JUMPDEST POP JUMP JUMPDEST PUSH0 DUP2 CALLDATALOAD SWAP1 POP PUSH2 0x38D DUP2 PUSH2 0x369 JUMP JUMPDEST SWAP3 SWAP2 POP POP JUMP JUMPDEST PUSH0 PUSH1 0x20 DUP3 DUP5 SUB SLT ISZERO PUSH2 0x3A8 JUMPI PUSH2 0x3A7 PUSH2 0x2CF JUMP JUMPDEST JUMPDEST PUSH0 PUSH2 0x3B5 DUP5 DUP3 DUP6 ADD PUSH2 0x37F JUMP JUMPDEST SWAP2 POP POP SWAP3 SWAP2 POP POP JUMP JUMPDEST PUSH0 DUP3 DUP3 MSTORE PUSH1 0x20 DUP3 ADD SWAP1 POP SWAP3 SWAP2 POP POP JUMP JUMPDEST PUSH32 0x636865636B2069732063616C6C65640000000000000000000000000000000000 PUSH0 DUP3 ADD MSTORE POP JUMP JUMPDEST PUSH0 PUSH2 0x402 PUSH1 0xF DUP4 PUSH2 0x3BE JUMP JUMPDEST SWAP2 POP PUSH2 0x40D DUP3 PUSH2 0x3CE JUMP JUMPDEST PUSH1 0x20 DUP3 ADD SWAP1 POP SWAP2 SWAP1 POP JUMP JUMPDEST PUSH0 DUP2 SWAP1 POP SWAP2 SWAP1 POP JUMP JUMPDEST PUSH0 PUSH3 0xFFFFFF DUP3 AND SWAP1 POP SWAP2 SWAP1 POP JUMP JUMPDEST PUSH0 DUP2 SWAP1 POP SWAP2 SWAP1 POP JUMP JUMPDEST PUSH0 PUSH2 0x452 PUSH2 0x44D PUSH2 0x448 DUP5 PUSH2 0x418 JUMP JUMPDEST PUSH2 0x42F JUMP JUMPDEST PUSH2 0x421 JUMP JUMPDEST SWAP1 POP SWAP2 SWAP1 POP JUMP JUMPDEST PUSH2 0x462 DUP2 PUSH2 0x438 JUMP JUMPDEST DUP3 MSTORE POP POP JUMP JUMPDEST PUSH0 PUSH1 0x40 DUP3 ADD SWAP1 POP DUP2 DUP2 SUB PUSH0 DUP4 ADD MSTORE PUSH2 0x47F DUP2 PUSH2 0x3F6 JUMP JUMPDEST SWAP1 POP PUSH2 0x48E PUSH1 0x20 DUP4 ADD DUP5 PUSH2 0x459 JUMP JUMPDEST SWAP3 SWAP2 POP POP JUMP JUMPDEST PUSH0 DUP2 MLOAD SWAP1 POP SWAP2 SWAP1 POP JUMP JUMPDEST PUSH0 DUP2 SWAP1 POP SWAP3 SWAP2 POP POP JUMP JUMPDEST DUP3 DUP2 DUP4 MCOPY PUSH0 DUP4 DUP4 ADD MSTORE POP POP POP JUMP JUMPDEST PUSH0 PUSH2 0x4C0 DUP3 PUSH2 0x494 JUMP JUMPDEST PUSH2 0x4CA DUP2 DUP6 PUSH2 0x49E JUMP JUMPDEST SWAP4 POP PUSH2 0x4DA DUP2 DUP6 PUSH1 0x20 DUP7 ADD PUSH2 0x4A8 JUMP JUMPDEST DUP1 DUP5 ADD SWAP2 POP POP SWAP3 SWAP2 POP POP JUMP JUMPDEST PUSH0 PUSH2 0x4F1 DUP3 DUP5 PUSH2 0x4B6 JUMP JUMPDEST SWAP2 POP DUP2 SWAP1 POP SWAP3 SWAP2 POP POP JUMP JUMPDEST PUSH0 DUP2 ISZERO ISZERO SWAP1 POP SWAP2 SWAP1 POP JUMP JUMPDEST PUSH2 0x510 DUP2 PUSH2 0x4FC JUMP JUMPDEST DUP3 MSTORE POP POP JUMP JUMPDEST PUSH0 DUP3 DUP3 MSTORE PUSH1 0x20 DUP3 ADD SWAP1 POP SWAP3 SWAP2 POP POP JUMP JUMPDEST PUSH0 PUSH1 0x1F NOT PUSH1 0x1F DUP4 ADD AND SWAP1 POP SWAP2 SWAP1 POP JUMP JUMPDEST PUSH0 PUSH2 0x540 DUP3 PUSH2 0x494 JUMP JUMPDEST PUSH2 0x54A DUP2 DUP6 PUSH2 0x516 JUMP JUMPDEST SWAP4 POP PUSH2 0x55A DUP2 DUP6 PUSH1 0x20 DUP7 ADD PUSH2 0x4A8 JUMP JUMPDEST PUSH2 0x563 DUP2 PUSH2 0x526 JUMP JUMPDEST DUP5 ADD SWAP2 POP POP SWAP3 SWAP2 POP POP JUMP JUMPDEST PUSH0 PUSH1 0x40 DUP3 ADD SWAP1 POP PUSH2 0x581 PUSH0 DUP4 ADD DUP6 PUSH2 0x507 JUMP JUMPDEST DUP2 DUP2 SUB PUSH1 0x20 DUP4 ADD MSTORE PUSH2 0x593 DUP2 DUP5 PUSH2 0x536 JUMP JUMPDEST SWAP1 POP SWAP4 SWAP3 POP POP POP JUMP INVALID LOG2 PUSH5 0x6970667358 0x22 SLT KECCAK256 0xB2 0xE8 DUP15 PUSH28 0x2615CB1F654FB3AFDF44D92306A557420A004BDDCF3676929C86B854 PUSH5 0x736F6C6343 STOP ADDMOD BYTE STOP CALLER "
				},
				"gasEstimates": {
					"creation": {
						"codeDepositCost": "298000",
						"executionCost": "335",
						"totalCost": "298335"
					},
					"external": {
						"testCheck(address)": "infinite",
						"testDoesNotExist(address)": "infinite"
					}
				},
				"methodIdentifiers": {
					"testCheck(address)": "30ef3f45",
					"testDoesNotExist(address)": "767df44a"
				}
			},
			"storageLayout": {
				"storage": [],
				"types": null
			},
			"userdoc": {
				"kind": "user",
				"methods": {},
				"version": 1
			}
		}
	}
}