{
	"Learning Pth/CallEx.sol": {
		"Receiving": {
			"abi": [
				{
					"anonymous": false,
					"inputs": [
						{
							"indexed": false,
							"internalType": "address",
							"name": "sender",
							"type": "address"
						},
						{
							"indexed": false,
							"internalType": "uint256",
							"name": "amount",
							"type": "uint256"
						},
						{
							"indexed": false,
							"internalType": "string",
							"name": "text",
							"type": "string"
						}
					],
					"name": "Received_",
					"type": "event"
				},
				{
					"stateMutability": "payable",
					"type": "fallback"
				},
				{
					"inputs": [
						{
							"internalType": "string",
							"name": "_name",
							"type": "string"
						},
						{
							"internalType": "uint256",
							"name": "_size",
							"type": "uint256"
						}
					],
					"name": "check",
					"outputs": [
						{
							"internalType": "uint256",
							"name": "",
							"type": "uint256"
						}
					],
					"stateMutability": "payable",
					"type": "function"
				},
				{
					"stateMutability": "payable",
					"type": "receive"
				}
			],
			"devdoc": {
				"kind": "dev",
				"methods": {},
				"version": 1
			},
			"evm": {
				"assembly": "    /* \"Learning Pth/CallEx.sol\":61:485  contract Receiving {... */\n  mstore(0x40, 0x80)\n  callvalue\n  dup1\n  iszero\n  tag_1\n  jumpi\n  0x00\n  dup1\n  revert\ntag_1:\n  pop\n  dataSize(sub_0)\n  dup1\n  dataOffset(sub_0)\n  0x00\n  codecopy\n  0x00\n  return\nstop\n\nsub_0: assembly {\n        /* \"Learning Pth/CallEx.sol\":61:485  contract Receiving {... */\n      mstore(0x40, 0x80)\n      jumpi(tag_1, lt(calldatasize, 0x04))\n      shr(0xe0, calldataload(0x00))\n      dup1\n      0xb3cbbc24\n      eq\n      tag_3\n      jumpi\n      jump(tag_2)\n    tag_1:\n      jumpi(tag_2, calldatasize)\n      stop\n    tag_2:\n        /* \"Learning Pth/CallEx.sol\":196:260  Received_(msg.sender, msg.value, \"Fallback is called/triggered\") */\n      0x4fba888802c4c894081b1382990a2d28466fec7dd17b3e5dad6b4a5516be4f96\n        /* \"Learning Pth/CallEx.sol\":206:216  msg.sender */\n      caller\n        /* \"Learning Pth/CallEx.sol\":218:227  msg.value */\n      callvalue\n        /* \"Learning Pth/CallEx.sol\":196:260  Received_(msg.sender, msg.value, \"Fallback is called/triggered\") */\n      mload(0x40)\n      tag_8\n      swap3\n      swap2\n      swap1\n      tag_9\n      jump\t// in\n    tag_8:\n      mload(0x40)\n      dup1\n      swap2\n      sub\n      swap1\n      log1\n        /* \"Learning Pth/CallEx.sol\":61:485  contract Receiving {... */\n      stop\n        /* \"Learning Pth/CallEx.sol\":314:482  function check(string memory _name, uint _size) public payable returns(uint) {... */\n    tag_3:\n      tag_10\n      0x04\n      dup1\n      calldatasize\n      sub\n      dup2\n      add\n      swap1\n      tag_11\n      swap2\n      swap1\n      tag_12\n      jump\t// in\n    tag_11:\n      tag_13\n      jump\t// in\n    tag_10:\n      mload(0x40)\n      tag_14\n      swap2\n      swap1\n      tag_15\n      jump\t// in\n    tag_14:\n      mload(0x40)\n      dup1\n      swap2\n      sub\n      swap1\n      return\n    tag_13:\n        /* \"Learning Pth/CallEx.sol\":385:389  uint */\n      0x00\n        /* \"Learning Pth/CallEx.sol\":407:446  Received_(msg.sender, msg.value, _name) */\n      0x4fba888802c4c894081b1382990a2d28466fec7dd17b3e5dad6b4a5516be4f96\n        /* \"Learning Pth/CallEx.sol\":417:427  msg.sender */\n      caller\n        /* \"Learning Pth/CallEx.sol\":429:438  msg.value */\n      callvalue\n        /* \"Learning Pth/CallEx.sol\":440:445  _name */\n      dup6\n        /* \"Learning Pth/CallEx.sol\":407:446  Received_(msg.sender, msg.value, _name) */\n      mload(0x40)\n      tag_17\n      swap4\n      swap3\n      swap2\n      swap1\n      tag_18\n      jump\t// in\n    tag_17:\n      mload(0x40)\n      dup1\n      swap2\n      sub\n      swap1\n      log1\n        /* \"Learning Pth/CallEx.sol\":472:474  10 */\n      0x0a\n        /* \"Learning Pth/CallEx.sol\":464:469  _size */\n      dup3\n        /* \"Learning Pth/CallEx.sol\":464:474  _size + 10 */\n      tag_19\n      swap2\n      swap1\n      tag_20\n      jump\t// in\n    tag_19:\n        /* \"Learning Pth/CallEx.sol\":457:474  return _size + 10 */\n      swap1\n      pop\n        /* \"Learning Pth/CallEx.sol\":314:482  function check(string memory _name, uint _size) public payable returns(uint) {... */\n      swap3\n      swap2\n      pop\n      pop\n      jump\t// out\n        /* \"#utility.yul\":7:133   */\n    tag_21:\n        /* \"#utility.yul\":44:51   */\n      0x00\n        /* \"#utility.yul\":84:126   */\n      0xffffffffffffffffffffffffffffffffffffffff\n        /* \"#utility.yul\":77:82   */\n      dup3\n        /* \"#utility.yul\":73:127   */\n      and\n        /* \"#utility.yul\":62:127   */\n      swap1\n      pop\n        /* \"#utility.yul\":7:133   */\n      swap2\n      swap1\n      pop\n      jump\t// out\n        /* \"#utility.yul\":139:235   */\n    tag_22:\n        /* \"#utility.yul\":176:183   */\n      0x00\n        /* \"#utility.yul\":205:229   */\n      tag_51\n        /* \"#utility.yul\":223:228   */\n      dup3\n        /* \"#utility.yul\":205:229   */\n      tag_21\n      jump\t// in\n    tag_51:\n        /* \"#utility.yul\":194:229   */\n      swap1\n      pop\n        /* \"#utility.yul\":139:235   */\n      swap2\n      swap1\n      pop\n      jump\t// out\n        /* \"#utility.yul\":241:359   */\n    tag_23:\n        /* \"#utility.yul\":328:352   */\n      tag_53\n        /* \"#utility.yul\":346:351   */\n      dup2\n        /* \"#utility.yul\":328:352   */\n      tag_22\n      jump\t// in\n    tag_53:\n        /* \"#utility.yul\":323:326   */\n      dup3\n        /* \"#utility.yul\":316:353   */\n      mstore\n        /* \"#utility.yul\":241:359   */\n      pop\n      pop\n      jump\t// out\n        /* \"#utility.yul\":365:442   */\n    tag_24:\n        /* \"#utility.yul\":402:409   */\n      0x00\n        /* \"#utility.yul\":431:436   */\n      dup2\n        /* \"#utility.yul\":420:436   */\n      swap1\n      pop\n        /* \"#utility.yul\":365:442   */\n      swap2\n      swap1\n      pop\n      jump\t// out\n        /* \"#utility.yul\":448:566   */\n    tag_25:\n        /* \"#utility.yul\":535:559   */\n      tag_56\n        /* \"#utility.yul\":553:558   */\n      dup2\n        /* \"#utility.yul\":535:559   */\n      tag_24\n      jump\t// in\n    tag_56:\n        /* \"#utility.yul\":530:533   */\n      dup3\n        /* \"#utility.yul\":523:560   */\n      mstore\n        /* \"#utility.yul\":448:566   */\n      pop\n      pop\n      jump\t// out\n        /* \"#utility.yul\":572:741   */\n    tag_26:\n        /* \"#utility.yul\":656:667   */\n      0x00\n        /* \"#utility.yul\":690:696   */\n      dup3\n        /* \"#utility.yul\":685:688   */\n      dup3\n        /* \"#utility.yul\":678:697   */\n      mstore\n        /* \"#utility.yul\":730:734   */\n      0x20\n        /* \"#utility.yul\":725:728   */\n      dup3\n        /* \"#utility.yul\":721:735   */\n      add\n        /* \"#utility.yul\":706:735   */\n      swap1\n      pop\n        /* \"#utility.yul\":572:741   */\n      swap3\n      swap2\n      pop\n      pop\n      jump\t// out\n        /* \"#utility.yul\":747:925   */\n    tag_27:\n        /* \"#utility.yul\":887:917   */\n      0x46616c6c6261636b2069732063616c6c65642f74726967676572656400000000\n        /* \"#utility.yul\":883:884   */\n      0x00\n        /* \"#utility.yul\":875:881   */\n      dup3\n        /* \"#utility.yul\":871:885   */\n      add\n        /* \"#utility.yul\":864:918   */\n      mstore\n        /* \"#utility.yul\":747:925   */\n      pop\n      jump\t// out\n        /* \"#utility.yul\":931:1297   */\n    tag_28:\n        /* \"#utility.yul\":1073:1076   */\n      0x00\n        /* \"#utility.yul\":1094:1161   */\n      tag_60\n        /* \"#utility.yul\":1158:1160   */\n      0x1c\n        /* \"#utility.yul\":1153:1156   */\n      dup4\n        /* \"#utility.yul\":1094:1161   */\n      tag_26\n      jump\t// in\n    tag_60:\n        /* \"#utility.yul\":1087:1161   */\n      swap2\n      pop\n        /* \"#utility.yul\":1170:1263   */\n      tag_61\n        /* \"#utility.yul\":1259:1262   */\n      dup3\n        /* \"#utility.yul\":1170:1263   */\n      tag_27\n      jump\t// in\n    tag_61:\n        /* \"#utility.yul\":1288:1290   */\n      0x20\n        /* \"#utility.yul\":1283:1286   */\n      dup3\n        /* \"#utility.yul\":1279:1291   */\n      add\n        /* \"#utility.yul\":1272:1291   */\n      swap1\n      pop\n        /* \"#utility.yul\":931:1297   */\n      swap2\n      swap1\n      pop\n      jump\t// out\n        /* \"#utility.yul\":1303:1942   */\n    tag_9:\n        /* \"#utility.yul\":1525:1529   */\n      0x00\n        /* \"#utility.yul\":1563:1565   */\n      0x60\n        /* \"#utility.yul\":1552:1561   */\n      dup3\n        /* \"#utility.yul\":1548:1566   */\n      add\n        /* \"#utility.yul\":1540:1566   */\n      swap1\n      pop\n        /* \"#utility.yul\":1576:1647   */\n      tag_63\n        /* \"#utility.yul\":1644:1645   */\n      0x00\n        /* \"#utility.yul\":1633:1642   */\n      dup4\n        /* \"#utility.yul\":1629:1646   */\n      add\n        /* \"#utility.yul\":1620:1626   */\n      dup6\n        /* \"#utility.yul\":1576:1647   */\n      tag_23\n      jump\t// in\n    tag_63:\n        /* \"#utility.yul\":1657:1729   */\n      tag_64\n        /* \"#utility.yul\":1725:1727   */\n      0x20\n        /* \"#utility.yul\":1714:1723   */\n      dup4\n        /* \"#utility.yul\":1710:1728   */\n      add\n        /* \"#utility.yul\":1701:1707   */\n      dup5\n        /* \"#utility.yul\":1657:1729   */\n      tag_25\n      jump\t// in\n    tag_64:\n        /* \"#utility.yul\":1776:1785   */\n      dup2\n        /* \"#utility.yul\":1770:1774   */\n      dup2\n        /* \"#utility.yul\":1766:1786   */\n      sub\n        /* \"#utility.yul\":1761:1763   */\n      0x40\n        /* \"#utility.yul\":1750:1759   */\n      dup4\n        /* \"#utility.yul\":1746:1764   */\n      add\n        /* \"#utility.yul\":1739:1787   */\n      mstore\n        /* \"#utility.yul\":1804:1935   */\n      tag_65\n        /* \"#utility.yul\":1930:1934   */\n      dup2\n        /* \"#utility.yul\":1804:1935   */\n      tag_28\n      jump\t// in\n    tag_65:\n        /* \"#utility.yul\":1796:1935   */\n      swap1\n      pop\n        /* \"#utility.yul\":1303:1942   */\n      swap4\n      swap3\n      pop\n      pop\n      pop\n      jump\t// out\n        /* \"#utility.yul\":1948:2023   */\n    tag_29:\n        /* \"#utility.yul\":1981:1987   */\n      0x00\n        /* \"#utility.yul\":2014:2016   */\n      0x40\n        /* \"#utility.yul\":2008:2017   */\n      mload\n        /* \"#utility.yul\":1998:2017   */\n      swap1\n      pop\n        /* \"#utility.yul\":1948:2023   */\n      swap1\n      jump\t// out\n        /* \"#utility.yul\":2029:2146   */\n    tag_30:\n        /* \"#utility.yul\":2138:2139   */\n      0x00\n        /* \"#utility.yul\":2135:2136   */\n      dup1\n        /* \"#utility.yul\":2128:2140   */\n      revert\n        /* \"#utility.yul\":2152:2269   */\n    tag_31:\n        /* \"#utility.yul\":2261:2262   */\n      0x00\n        /* \"#utility.yul\":2258:2259   */\n      dup1\n        /* \"#utility.yul\":2251:2263   */\n      revert\n        /* \"#utility.yul\":2275:2392   */\n    tag_32:\n        /* \"#utility.yul\":2384:2385   */\n      0x00\n        /* \"#utility.yul\":2381:2382   */\n      dup1\n        /* \"#utility.yul\":2374:2386   */\n      revert\n        /* \"#utility.yul\":2398:2515   */\n    tag_33:\n        /* \"#utility.yul\":2507:2508   */\n      0x00\n        /* \"#utility.yul\":2504:2505   */\n      dup1\n        /* \"#utility.yul\":2497:2509   */\n      revert\n        /* \"#utility.yul\":2521:2623   */\n    tag_34:\n        /* \"#utility.yul\":2562:2568   */\n      0x00\n        /* \"#utility.yul\":2613:2615   */\n      0x1f\n        /* \"#utility.yul\":2609:2616   */\n      not\n        /* \"#utility.yul\":2604:2606   */\n      0x1f\n        /* \"#utility.yul\":2597:2602   */\n      dup4\n        /* \"#utility.yul\":2593:2607   */\n      add\n        /* \"#utility.yul\":2589:2617   */\n      and\n        /* \"#utility.yul\":2579:2617   */\n      swap1\n      pop\n        /* \"#utility.yul\":2521:2623   */\n      swap2\n      swap1\n      pop\n      jump\t// out\n        /* \"#utility.yul\":2629:2809   */\n    tag_35:\n        /* \"#utility.yul\":2677:2754   */\n      0x4e487b7100000000000000000000000000000000000000000000000000000000\n        /* \"#utility.yul\":2674:2675   */\n      0x00\n        /* \"#utility.yul\":2667:2755   */\n      mstore\n        /* \"#utility.yul\":2774:2778   */\n      0x41\n        /* \"#utility.yul\":2771:2772   */\n      0x04\n        /* \"#utility.yul\":2764:2779   */\n      mstore\n        /* \"#utility.yul\":2798:2802   */\n      0x24\n        /* \"#utility.yul\":2795:2796   */\n      0x00\n        /* \"#utility.yul\":2788:2803   */\n      revert\n        /* \"#utility.yul\":2815:3096   */\n    tag_36:\n        /* \"#utility.yul\":2898:2925   */\n      tag_74\n        /* \"#utility.yul\":2920:2924   */\n      dup3\n        /* \"#utility.yul\":2898:2925   */\n      tag_34\n      jump\t// in\n    tag_74:\n        /* \"#utility.yul\":2890:2896   */\n      dup2\n        /* \"#utility.yul\":2886:2926   */\n      add\n        /* \"#utility.yul\":3028:3034   */\n      dup2\n        /* \"#utility.yul\":3016:3026   */\n      dup2\n        /* \"#utility.yul\":3013:3035   */\n      lt\n        /* \"#utility.yul\":2992:3010   */\n      0xffffffffffffffff\n        /* \"#utility.yul\":2980:2990   */\n      dup3\n        /* \"#utility.yul\":2977:3011   */\n      gt\n        /* \"#utility.yul\":2974:3036   */\n      or\n        /* \"#utility.yul\":2971:3059   */\n      iszero\n      tag_75\n      jumpi\n        /* \"#utility.yul\":3039:3057   */\n      tag_76\n      tag_35\n      jump\t// in\n    tag_76:\n        /* \"#utility.yul\":2971:3059   */\n    tag_75:\n        /* \"#utility.yul\":3079:3089   */\n      dup1\n        /* \"#utility.yul\":3075:3077   */\n      0x40\n        /* \"#utility.yul\":3068:3090   */\n      mstore\n        /* \"#utility.yul\":2858:3096   */\n      pop\n        /* \"#utility.yul\":2815:3096   */\n      pop\n      pop\n      jump\t// out\n        /* \"#utility.yul\":3102:3231   */\n    tag_37:\n        /* \"#utility.yul\":3136:3142   */\n      0x00\n        /* \"#utility.yul\":3163:3183   */\n      tag_78\n      tag_29\n      jump\t// in\n    tag_78:\n        /* \"#utility.yul\":3153:3183   */\n      swap1\n      pop\n        /* \"#utility.yul\":3192:3225   */\n      tag_79\n        /* \"#utility.yul\":3220:3224   */\n      dup3\n        /* \"#utility.yul\":3212:3218   */\n      dup3\n        /* \"#utility.yul\":3192:3225   */\n      tag_36\n      jump\t// in\n    tag_79:\n        /* \"#utility.yul\":3102:3231   */\n      swap2\n      swap1\n      pop\n      jump\t// out\n        /* \"#utility.yul\":3237:3545   */\n    tag_38:\n        /* \"#utility.yul\":3299:3303   */\n      0x00\n        /* \"#utility.yul\":3389:3407   */\n      0xffffffffffffffff\n        /* \"#utility.yul\":3381:3387   */\n      dup3\n        /* \"#utility.yul\":3378:3408   */\n      gt\n        /* \"#utility.yul\":3375:3431   */\n      iszero\n      tag_81\n      jumpi\n        /* \"#utility.yul\":3411:3429   */\n      tag_82\n      tag_35\n      jump\t// in\n    tag_82:\n        /* \"#utility.yul\":3375:3431   */\n    tag_81:\n        /* \"#utility.yul\":3449:3478   */\n      tag_83\n        /* \"#utility.yul\":3471:3477   */\n      dup3\n        /* \"#utility.yul\":3449:3478   */\n      tag_34\n      jump\t// in\n    tag_83:\n        /* \"#utility.yul\":3441:3478   */\n      swap1\n      pop\n        /* \"#utility.yul\":3533:3537   */\n      0x20\n        /* \"#utility.yul\":3527:3531   */\n      dup2\n        /* \"#utility.yul\":3523:3538   */\n      add\n        /* \"#utility.yul\":3515:3538   */\n      swap1\n      pop\n        /* \"#utility.yul\":3237:3545   */\n      swap2\n      swap1\n      pop\n      jump\t// out\n        /* \"#utility.yul\":3551:3699   */\n    tag_39:\n        /* \"#utility.yul\":3649:3655   */\n      dup3\n        /* \"#utility.yul\":3644:3647   */\n      dup2\n        /* \"#utility.yul\":3639:3642   */\n      dup4\n        /* \"#utility.yul\":3626:3656   */\n      calldatacopy\n        /* \"#utility.yul\":3690:3691   */\n      0x00\n        /* \"#utility.yul\":3681:3687   */\n      dup4\n        /* \"#utility.yul\":3676:3679   */\n      dup4\n        /* \"#utility.yul\":3672:3688   */\n      add\n        /* \"#utility.yul\":3665:3692   */\n      mstore\n        /* \"#utility.yul\":3551:3699   */\n      pop\n      pop\n      pop\n      jump\t// out\n        /* \"#utility.yul\":3705:4130   */\n    tag_40:\n        /* \"#utility.yul\":3783:3788   */\n      0x00\n        /* \"#utility.yul\":3808:3874   */\n      tag_86\n        /* \"#utility.yul\":3824:3873   */\n      tag_87\n        /* \"#utility.yul\":3866:3872   */\n      dup5\n        /* \"#utility.yul\":3824:3873   */\n      tag_38\n      jump\t// in\n    tag_87:\n        /* \"#utility.yul\":3808:3874   */\n      tag_37\n      jump\t// in\n    tag_86:\n        /* \"#utility.yul\":3799:3874   */\n      swap1\n      pop\n        /* \"#utility.yul\":3897:3903   */\n      dup3\n        /* \"#utility.yul\":3890:3895   */\n      dup2\n        /* \"#utility.yul\":3883:3904   */\n      mstore\n        /* \"#utility.yul\":3935:3939   */\n      0x20\n        /* \"#utility.yul\":3928:3933   */\n      dup2\n        /* \"#utility.yul\":3924:3940   */\n      add\n        /* \"#utility.yul\":3973:3976   */\n      dup5\n        /* \"#utility.yul\":3964:3970   */\n      dup5\n        /* \"#utility.yul\":3959:3962   */\n      dup5\n        /* \"#utility.yul\":3955:3971   */\n      add\n        /* \"#utility.yul\":3952:3977   */\n      gt\n        /* \"#utility.yul\":3949:4061   */\n      iszero\n      tag_88\n      jumpi\n        /* \"#utility.yul\":3980:4059   */\n      tag_89\n      tag_33\n      jump\t// in\n    tag_89:\n        /* \"#utility.yul\":3949:4061   */\n    tag_88:\n        /* \"#utility.yul\":4070:4124   */\n      tag_90\n        /* \"#utility.yul\":4117:4123   */\n      dup5\n        /* \"#utility.yul\":4112:4115   */\n      dup3\n        /* \"#utility.yul\":4107:4110   */\n      dup6\n        /* \"#utility.yul\":4070:4124   */\n      tag_39\n      jump\t// in\n    tag_90:\n        /* \"#utility.yul\":3789:4130   */\n      pop\n        /* \"#utility.yul\":3705:4130   */\n      swap4\n      swap3\n      pop\n      pop\n      pop\n      jump\t// out\n        /* \"#utility.yul\":4150:4490   */\n    tag_41:\n        /* \"#utility.yul\":4206:4211   */\n      0x00\n        /* \"#utility.yul\":4255:4258   */\n      dup3\n        /* \"#utility.yul\":4248:4252   */\n      0x1f\n        /* \"#utility.yul\":4240:4246   */\n      dup4\n        /* \"#utility.yul\":4236:4253   */\n      add\n        /* \"#utility.yul\":4232:4259   */\n      slt\n        /* \"#utility.yul\":4222:4344   */\n      tag_92\n      jumpi\n        /* \"#utility.yul\":4263:4342   */\n      tag_93\n      tag_32\n      jump\t// in\n    tag_93:\n        /* \"#utility.yul\":4222:4344   */\n    tag_92:\n        /* \"#utility.yul\":4380:4386   */\n      dup2\n        /* \"#utility.yul\":4367:4387   */\n      calldataload\n        /* \"#utility.yul\":4405:4484   */\n      tag_94\n        /* \"#utility.yul\":4480:4483   */\n      dup5\n        /* \"#utility.yul\":4472:4478   */\n      dup3\n        /* \"#utility.yul\":4465:4469   */\n      0x20\n        /* \"#utility.yul\":4457:4463   */\n      dup7\n        /* \"#utility.yul\":4453:4470   */\n      add\n        /* \"#utility.yul\":4405:4484   */\n      tag_40\n      jump\t// in\n    tag_94:\n        /* \"#utility.yul\":4396:4484   */\n      swap2\n      pop\n        /* \"#utility.yul\":4212:4490   */\n      pop\n        /* \"#utility.yul\":4150:4490   */\n      swap3\n      swap2\n      pop\n      pop\n      jump\t// out\n        /* \"#utility.yul\":4496:4618   */\n    tag_42:\n        /* \"#utility.yul\":4569:4593   */\n      tag_96\n        /* \"#utility.yul\":4587:4592   */\n      dup2\n        /* \"#utility.yul\":4569:4593   */\n      tag_24\n      jump\t// in\n    tag_96:\n        /* \"#utility.yul\":4562:4567   */\n      dup2\n        /* \"#utility.yul\":4559:4594   */\n      eq\n        /* \"#utility.yul\":4549:4612   */\n      tag_97\n      jumpi\n        /* \"#utility.yul\":4608:4609   */\n      0x00\n        /* \"#utility.yul\":4605:4606   */\n      dup1\n        /* \"#utility.yul\":4598:4610   */\n      revert\n        /* \"#utility.yul\":4549:4612   */\n    tag_97:\n        /* \"#utility.yul\":4496:4618   */\n      pop\n      jump\t// out\n        /* \"#utility.yul\":4624:4763   */\n    tag_43:\n        /* \"#utility.yul\":4670:4675   */\n      0x00\n        /* \"#utility.yul\":4708:4714   */\n      dup2\n        /* \"#utility.yul\":4695:4715   */\n      calldataload\n        /* \"#utility.yul\":4686:4715   */\n      swap1\n      pop\n        /* \"#utility.yul\":4724:4757   */\n      tag_99\n        /* \"#utility.yul\":4751:4756   */\n      dup2\n        /* \"#utility.yul\":4724:4757   */\n      tag_42\n      jump\t// in\n    tag_99:\n        /* \"#utility.yul\":4624:4763   */\n      swap3\n      swap2\n      pop\n      pop\n      jump\t// out\n        /* \"#utility.yul\":4769:5423   */\n    tag_12:\n        /* \"#utility.yul\":4847:4853   */\n      0x00\n        /* \"#utility.yul\":4855:4861   */\n      dup1\n        /* \"#utility.yul\":4904:4906   */\n      0x40\n        /* \"#utility.yul\":4892:4901   */\n      dup4\n        /* \"#utility.yul\":4883:4890   */\n      dup6\n        /* \"#utility.yul\":4879:4902   */\n      sub\n        /* \"#utility.yul\":4875:4907   */\n      slt\n        /* \"#utility.yul\":4872:4991   */\n      iszero\n      tag_101\n      jumpi\n        /* \"#utility.yul\":4910:4989   */\n      tag_102\n      tag_30\n      jump\t// in\n    tag_102:\n        /* \"#utility.yul\":4872:4991   */\n    tag_101:\n        /* \"#utility.yul\":5058:5059   */\n      0x00\n        /* \"#utility.yul\":5047:5056   */\n      dup4\n        /* \"#utility.yul\":5043:5060   */\n      add\n        /* \"#utility.yul\":5030:5061   */\n      calldataload\n        /* \"#utility.yul\":5088:5106   */\n      0xffffffffffffffff\n        /* \"#utility.yul\":5080:5086   */\n      dup2\n        /* \"#utility.yul\":5077:5107   */\n      gt\n        /* \"#utility.yul\":5074:5191   */\n      iszero\n      tag_103\n      jumpi\n        /* \"#utility.yul\":5110:5189   */\n      tag_104\n      tag_31\n      jump\t// in\n    tag_104:\n        /* \"#utility.yul\":5074:5191   */\n    tag_103:\n        /* \"#utility.yul\":5215:5278   */\n      tag_105\n        /* \"#utility.yul\":5270:5277   */\n      dup6\n        /* \"#utility.yul\":5261:5267   */\n      dup3\n        /* \"#utility.yul\":5250:5259   */\n      dup7\n        /* \"#utility.yul\":5246:5268   */\n      add\n        /* \"#utility.yul\":5215:5278   */\n      tag_41\n      jump\t// in\n    tag_105:\n        /* \"#utility.yul\":5205:5278   */\n      swap3\n      pop\n        /* \"#utility.yul\":5001:5288   */\n      pop\n        /* \"#utility.yul\":5327:5329   */\n      0x20\n        /* \"#utility.yul\":5353:5406   */\n      tag_106\n        /* \"#utility.yul\":5398:5405   */\n      dup6\n        /* \"#utility.yul\":5389:5395   */\n      dup3\n        /* \"#utility.yul\":5378:5387   */\n      dup7\n        /* \"#utility.yul\":5374:5396   */\n      add\n        /* \"#utility.yul\":5353:5406   */\n      tag_43\n      jump\t// in\n    tag_106:\n        /* \"#utility.yul\":5343:5406   */\n      swap2\n      pop\n        /* \"#utility.yul\":5298:5416   */\n      pop\n        /* \"#utility.yul\":4769:5423   */\n      swap3\n      pop\n      swap3\n      swap1\n      pop\n      jump\t// out\n        /* \"#utility.yul\":5429:5651   */\n    tag_15:\n        /* \"#utility.yul\":5522:5526   */\n      0x00\n        /* \"#utility.yul\":5560:5562   */\n      0x20\n        /* \"#utility.yul\":5549:5558   */\n      dup3\n        /* \"#utility.yul\":5545:5563   */\n      add\n        /* \"#utility.yul\":5537:5563   */\n      swap1\n      pop\n        /* \"#utility.yul\":5573:5644   */\n      tag_108\n        /* \"#utility.yul\":5641:5642   */\n      0x00\n        /* \"#utility.yul\":5630:5639   */\n      dup4\n        /* \"#utility.yul\":5626:5643   */\n      add\n        /* \"#utility.yul\":5617:5623   */\n      dup5\n        /* \"#utility.yul\":5573:5644   */\n      tag_25\n      jump\t// in\n    tag_108:\n        /* \"#utility.yul\":5429:5651   */\n      swap3\n      swap2\n      pop\n      pop\n      jump\t// out\n        /* \"#utility.yul\":5657:5756   */\n    tag_44:\n        /* \"#utility.yul\":5709:5715   */\n      0x00\n        /* \"#utility.yul\":5743:5748   */\n      dup2\n        /* \"#utility.yul\":5737:5749   */\n      mload\n        /* \"#utility.yul\":5727:5749   */\n      swap1\n      pop\n        /* \"#utility.yul\":5657:5756   */\n      swap2\n      swap1\n      pop\n      jump\t// out\n        /* \"#utility.yul\":5762:5901   */\n    tag_45:\n        /* \"#utility.yul\":5851:5857   */\n      dup3\n        /* \"#utility.yul\":5846:5849   */\n      dup2\n        /* \"#utility.yul\":5841:5844   */\n      dup4\n        /* \"#utility.yul\":5835:5858   */\n      mcopy\n        /* \"#utility.yul\":5892:5893   */\n      0x00\n        /* \"#utility.yul\":5883:5889   */\n      dup4\n        /* \"#utility.yul\":5878:5881   */\n      dup4\n        /* \"#utility.yul\":5874:5890   */\n      add\n        /* \"#utility.yul\":5867:5894   */\n      mstore\n        /* \"#utility.yul\":5762:5901   */\n      pop\n      pop\n      pop\n      jump\t// out\n        /* \"#utility.yul\":5907:6284   */\n    tag_46:\n        /* \"#utility.yul\":5995:5998   */\n      0x00\n        /* \"#utility.yul\":6023:6062   */\n      tag_112\n        /* \"#utility.yul\":6056:6061   */\n      dup3\n        /* \"#utility.yul\":6023:6062   */\n      tag_44\n      jump\t// in\n    tag_112:\n        /* \"#utility.yul\":6078:6149   */\n      tag_113\n        /* \"#utility.yul\":6142:6148   */\n      dup2\n        /* \"#utility.yul\":6137:6140   */\n      dup6\n        /* \"#utility.yul\":6078:6149   */\n      tag_26\n      jump\t// in\n    tag_113:\n        /* \"#utility.yul\":6071:6149   */\n      swap4\n      pop\n        /* \"#utility.yul\":6158:6223   */\n      tag_114\n        /* \"#utility.yul\":6216:6222   */\n      dup2\n        /* \"#utility.yul\":6211:6214   */\n      dup6\n        /* \"#utility.yul\":6204:6208   */\n      0x20\n        /* \"#utility.yul\":6197:6202   */\n      dup7\n        /* \"#utility.yul\":6193:6209   */\n      add\n        /* \"#utility.yul\":6158:6223   */\n      tag_45\n      jump\t// in\n    tag_114:\n        /* \"#utility.yul\":6248:6277   */\n      tag_115\n        /* \"#utility.yul\":6270:6276   */\n      dup2\n        /* \"#utility.yul\":6248:6277   */\n      tag_34\n      jump\t// in\n    tag_115:\n        /* \"#utility.yul\":6243:6246   */\n      dup5\n        /* \"#utility.yul\":6239:6278   */\n      add\n        /* \"#utility.yul\":6232:6278   */\n      swap2\n      pop\n        /* \"#utility.yul\":5999:6284   */\n      pop\n        /* \"#utility.yul\":5907:6284   */\n      swap3\n      swap2\n      pop\n      pop\n      jump\t// out\n        /* \"#utility.yul\":6290:6823   */\n    tag_18:\n        /* \"#utility.yul\":6459:6463   */\n      0x00\n        /* \"#utility.yul\":6497:6499   */\n      0x60\n        /* \"#utility.yul\":6486:6495   */\n      dup3\n        /* \"#utility.yul\":6482:6500   */\n      add\n        /* \"#utility.yul\":6474:6500   */\n      swap1\n      pop\n        /* \"#utility.yul\":6510:6581   */\n      tag_117\n        /* \"#utility.yul\":6578:6579   */\n      0x00\n        /* \"#utility.yul\":6567:6576   */\n      dup4\n        /* \"#utility.yul\":6563:6580   */\n      add\n        /* \"#utility.yul\":6554:6560   */\n      dup7\n        /* \"#utility.yul\":6510:6581   */\n      tag_23\n      jump\t// in\n    tag_117:\n        /* \"#utility.yul\":6591:6663   */\n      tag_118\n        /* \"#utility.yul\":6659:6661   */\n      0x20\n        /* \"#utility.yul\":6648:6657   */\n      dup4\n        /* \"#utility.yul\":6644:6662   */\n      add\n        /* \"#utility.yul\":6635:6641   */\n      dup6\n        /* \"#utility.yul\":6591:6663   */\n      tag_25\n      jump\t// in\n    tag_118:\n        /* \"#utility.yul\":6710:6719   */\n      dup2\n        /* \"#utility.yul\":6704:6708   */\n      dup2\n        /* \"#utility.yul\":6700:6720   */\n      sub\n        /* \"#utility.yul\":6695:6697   */\n      0x40\n        /* \"#utility.yul\":6684:6693   */\n      dup4\n        /* \"#utility.yul\":6680:6698   */\n      add\n        /* \"#utility.yul\":6673:6721   */\n      mstore\n        /* \"#utility.yul\":6738:6816   */\n      tag_119\n        /* \"#utility.yul\":6811:6815   */\n      dup2\n        /* \"#utility.yul\":6802:6808   */\n      dup5\n        /* \"#utility.yul\":6738:6816   */\n      tag_46\n      jump\t// in\n    tag_119:\n        /* \"#utility.yul\":6730:6816   */\n      swap1\n      pop\n        /* \"#utility.yul\":6290:6823   */\n      swap5\n      swap4\n      pop\n      pop\n      pop\n      pop\n      jump\t// out\n        /* \"#utility.yul\":6829:7009   */\n    tag_47:\n        /* \"#utility.yul\":6877:6954   */\n      0x4e487b7100000000000000000000000000000000000000000000000000000000\n        /* \"#utility.yul\":6874:6875   */\n      0x00\n        /* \"#utility.yul\":6867:6955   */\n      mstore\n        /* \"#utility.yul\":6974:6978   */\n      0x11\n        /* \"#utility.yul\":6971:6972   */\n      0x04\n        /* \"#utility.yul\":6964:6979   */\n      mstore\n        /* \"#utility.yul\":6998:7002   */\n      0x24\n        /* \"#utility.yul\":6995:6996   */\n      0x00\n        /* \"#utility.yul\":6988:7003   */\n      revert\n        /* \"#utility.yul\":7015:7206   */\n    tag_20:\n        /* \"#utility.yul\":7055:7058   */\n      0x00\n        /* \"#utility.yul\":7074:7094   */\n      tag_122\n        /* \"#utility.yul\":7092:7093   */\n      dup3\n        /* \"#utility.yul\":7074:7094   */\n      tag_24\n      jump\t// in\n    tag_122:\n        /* \"#utility.yul\":7069:7094   */\n      swap2\n      pop\n        /* \"#utility.yul\":7108:7128   */\n      tag_123\n        /* \"#utility.yul\":7126:7127   */\n      dup4\n        /* \"#utility.yul\":7108:7128   */\n      tag_24\n      jump\t// in\n    tag_123:\n        /* \"#utility.yul\":7103:7128   */\n      swap3\n      pop\n        /* \"#utility.yul\":7151:7152   */\n      dup3\n        /* \"#utility.yul\":7148:7149   */\n      dup3\n        /* \"#utility.yul\":7144:7153   */\n      add\n        /* \"#utility.yul\":7137:7153   */\n      swap1\n      pop\n        /* \"#utility.yul\":7172:7175   */\n      dup1\n        /* \"#utility.yul\":7169:7170   */\n      dup3\n        /* \"#utility.yul\":7166:7176   */\n      gt\n        /* \"#utility.yul\":7163:7199   */\n      iszero\n      tag_124\n      jumpi\n        /* \"#utility.yul\":7179:7197   */\n      tag_125\n      tag_47\n      jump\t// in\n    tag_125:\n        /* \"#utility.yul\":7163:7199   */\n    tag_124:\n        /* \"#utility.yul\":7015:7206   */\n      swap3\n      swap2\n      pop\n      pop\n      jump\t// out\n\n    auxdata: 0xa26469706673582212203a8d0485aeb5fd69b54c7b06c3a44c19fad5c873cdad77dbbbe4b0aa04dfc5b664736f6c634300081a0033\n}\n",
				"bytecode": {
					"linkReferences": {},
					"object": "6080604052348015600e575f80fd5b506104db8061001c5f395ff3fe608060405260043610610021575f3560e01c8063b3cbbc241461006357610028565b3661002857005b7f4fba888802c4c894081b1382990a2d28466fec7dd17b3e5dad6b4a5516be4f963334604051610059929190610195565b60405180910390a1005b61007d60048036038101906100789190610346565b610093565b60405161008a91906103a0565b60405180910390f35b5f7f4fba888802c4c894081b1382990a2d28466fec7dd17b3e5dad6b4a5516be4f963334856040516100c793929190610409565b60405180910390a1600a826100dc9190610472565b905092915050565b5f73ffffffffffffffffffffffffffffffffffffffff82169050919050565b5f61010d826100e4565b9050919050565b61011d81610103565b82525050565b5f819050919050565b61013581610123565b82525050565b5f82825260208201905092915050565b7f46616c6c6261636b2069732063616c6c65642f747269676765726564000000005f82015250565b5f61017f601c8361013b565b915061018a8261014b565b602082019050919050565b5f6060820190506101a85f830185610114565b6101b5602083018461012c565b81810360408301526101c681610173565b90509392505050565b5f604051905090565b5f80fd5b5f80fd5b5f80fd5b5f80fd5b5f601f19601f8301169050919050565b7f4e487b71000000000000000000000000000000000000000000000000000000005f52604160045260245ffd5b61022e826101e8565b810181811067ffffffffffffffff8211171561024d5761024c6101f8565b5b80604052505050565b5f61025f6101cf565b905061026b8282610225565b919050565b5f67ffffffffffffffff82111561028a576102896101f8565b5b610293826101e8565b9050602081019050919050565b828183375f83830152505050565b5f6102c06102bb84610270565b610256565b9050828152602081018484840111156102dc576102db6101e4565b5b6102e78482856102a0565b509392505050565b5f82601f830112610303576103026101e0565b5b81356103138482602086016102ae565b91505092915050565b61032581610123565b811461032f575f80fd5b50565b5f813590506103408161031c565b92915050565b5f806040838503121561035c5761035b6101d8565b5b5f83013567ffffffffffffffff811115610379576103786101dc565b5b610385858286016102ef565b925050602061039685828601610332565b9150509250929050565b5f6020820190506103b35f83018461012c565b92915050565b5f81519050919050565b8281835e5f83830152505050565b5f6103db826103b9565b6103e5818561013b565b93506103f58185602086016103c3565b6103fe816101e8565b840191505092915050565b5f60608201905061041c5f830186610114565b610429602083018561012c565b818103604083015261043b81846103d1565b9050949350505050565b7f4e487b71000000000000000000000000000000000000000000000000000000005f52601160045260245ffd5b5f61047c82610123565b915061048783610123565b925082820190508082111561049f5761049e610445565b5b9291505056fea26469706673582212203a8d0485aeb5fd69b54c7b06c3a44c19fad5c873cdad77dbbbe4b0aa04dfc5b664736f6c634300081a0033",
					"opcodes": "PUSH1 0x80 PUSH1 0x40 MSTORE CALLVALUE DUP1 ISZERO PUSH1 0xE JUMPI PUSH0 DUP1 REVERT JUMPDEST POP PUSH2 0x4DB DUP1 PUSH2 0x1C PUSH0 CODECOPY PUSH0 RETURN INVALID PUSH1 0x80 PUSH1 0x40 MSTORE PUSH1 0x4 CALLDATASIZE LT PUSH2 0x21 JUMPI PUSH0 CALLDATALOAD PUSH1 0xE0 SHR DUP1 PUSH4 0xB3CBBC24 EQ PUSH2 0x63 JUMPI PUSH2 0x28 JUMP JUMPDEST CALLDATASIZE PUSH2 0x28 JUMPI STOP JUMPDEST PUSH32 0x4FBA888802C4C894081B1382990A2D28466FEC7DD17B3E5DAD6B4A5516BE4F96 CALLER CALLVALUE PUSH1 0x40 MLOAD PUSH2 0x59 SWAP3 SWAP2 SWAP1 PUSH2 0x195 JUMP JUMPDEST PUSH1 0x40 MLOAD DUP1 SWAP2 SUB SWAP1 LOG1 STOP JUMPDEST PUSH2 0x7D PUSH1 0x4 DUP1 CALLDATASIZE SUB DUP2 ADD SWAP1 PUSH2 0x78 SWAP2 SWAP1 PUSH2 0x346 JUMP JUMPDEST PUSH2 0x93 JUMP JUMPDEST PUSH1 0x40 MLOAD PUSH2 0x8A SWAP2 SWAP1 PUSH2 0x3A0 JUMP JUMPDEST PUSH1 0x40 MLOAD DUP1 SWAP2 SUB SWAP1 RETURN JUMPDEST PUSH0 PUSH32 0x4FBA888802C4C894081B1382990A2D28466FEC7DD17B3E5DAD6B4A5516BE4F96 CALLER CALLVALUE DUP6 PUSH1 0x40 MLOAD PUSH2 0xC7 SWAP4 SWAP3 SWAP2 SWAP1 PUSH2 0x409 JUMP JUMPDEST PUSH1 0x40 MLOAD DUP1 SWAP2 SUB SWAP1 LOG1 PUSH1 0xA DUP3 PUSH2 0xDC SWAP2 SWAP1 PUSH2 0x472 JUMP JUMPDEST SWAP1 POP SWAP3 SWAP2 POP POP JUMP JUMPDEST PUSH0 PUSH20 0xFFFFFFFFFFFFFFFFFFFFFFFFFFFFFFFFFFFFFFFF DUP3 AND SWAP1 POP SWAP2 SWAP1 POP JUMP JUMPDEST PUSH0 PUSH2 0x10D DUP3 PUSH2 0xE4 JUMP JUMPDEST SWAP1 POP SWAP2 SWAP1 POP JUMP JUMPDEST PUSH2 0x11D DUP2 PUSH2 0x103 JUMP JUMPDEST DUP3 MSTORE POP POP JUMP JUMPDEST PUSH0 DUP2 SWAP1 POP SWAP2 SWAP1 POP JUMP JUMPDEST PUSH2 0x135 DUP2 PUSH2 0x123 JUMP JUMPDEST DUP3 MSTORE POP POP JUMP JUMPDEST PUSH0 DUP3 DUP3 MSTORE PUSH1 0x20 DUP3 ADD SWAP1 POP SWAP3 SWAP2 POP POP JUMP JUMPDEST PUSH32 0x46616C6C6261636B2069732063616C6C65642F74726967676572656400000000 PUSH0 DUP3 ADD MSTORE POP JUMP JUMPDEST PUSH0 PUSH2 0x17F PUSH1 0x1C DUP4 PUSH2 0x13B JUMP JUMPDEST SWAP2 POP PUSH2 0x18A DUP3 PUSH2 0x14B JUMP JUMPDEST PUSH1 0x20 DUP3 ADD SWAP1 POP SWAP2 SWAP1 POP JUMP JUMPDEST PUSH0 PUSH1 0x60 DUP3 ADD SWAP1 POP PUSH2 0x1A8 PUSH0 DUP4 ADD DUP6 PUSH2 0x114 JUMP JUMPDEST PUSH2 0x1B5 PUSH1 0x20 DUP4 ADD DUP5 PUSH2 0x12C JUMP JUMPDEST DUP2 DUP2 SUB PUSH1 0x40 DUP4 ADD MSTORE PUSH2 0x1C6 DUP2 PUSH2 0x173 JUMP JUMPDEST SWAP1 POP SWAP4 SWAP3 POP POP POP JUMP JUMPDEST PUSH0 PUSH1 0x40 MLOAD SWAP1 POP SWAP1 JUMP JUMPDEST PUSH0 DUP1 REVERT JUMPDEST PUSH0 DUP1 REVERT JUMPDEST PUSH0 DUP1 REVERT JUMPDEST PUSH0 DUP1 REVERT JUMPDEST PUSH0 PUSH1 0x1F NOT PUSH1 0x1F DUP4 ADD AND SWAP1 POP SWAP2 SWAP1 POP JUMP JUMPDEST PUSH32 0x4E487B7100000000000000000000000000000000000000000000000000000000 PUSH0 MSTORE PUSH1 0x41 PUSH1 0x4 MSTORE PUSH1 0x24 PUSH0 REVERT JUMPDEST PUSH2 0x22E DUP3 PUSH2 0x1E8 JUMP JUMPDEST DUP2 ADD DUP2 DUP2 LT PUSH8 0xFFFFFFFFFFFFFFFF DUP3 GT OR ISZERO PUSH2 0x24D JUMPI PUSH2 0x24C PUSH2 0x1F8 JUMP JUMPDEST JUMPDEST DUP1 PUSH1 0x40 MSTORE POP POP POP JUMP JUMPDEST PUSH0 PUSH2 0x25F PUSH2 0x1CF JUMP JUMPDEST SWAP1 POP PUSH2 0x26B DUP3 DUP3 PUSH2 0x225 JUMP JUMPDEST SWAP2 SWAP1 POP JUMP JUMPDEST PUSH0 PUSH8 0xFFFFFFFFFFFFFFFF DUP3 GT ISZERO PUSH2 0x28A JUMPI PUSH2 0x289 PUSH2 0x1F8 JUMP JUMPDEST JUMPDEST PUSH2 0x293 DUP3 PUSH2 0x1E8 JUMP JUMPDEST SWAP1 POP PUSH1 0x20 DUP2 ADD SWAP1 POP SWAP2 SWAP1 POP JUMP JUMPDEST DUP3 DUP2 DUP4 CALLDATACOPY PUSH0 DUP4 DUP4 ADD MSTORE POP POP POP JUMP JUMPDEST PUSH0 PUSH2 0x2C0 PUSH2 0x2BB DUP5 PUSH2 0x270 JUMP JUMPDEST PUSH2 0x256 JUMP JUMPDEST SWAP1 POP DUP3 DUP2 MSTORE PUSH1 0x20 DUP2 ADD DUP5 DUP5 DUP5 ADD GT ISZERO PUSH2 0x2DC JUMPI PUSH2 0x2DB PUSH2 0x1E4 JUMP JUMPDEST JUMPDEST PUSH2 0x2E7 DUP5 DUP3 DUP6 PUSH2 0x2A0 JUMP JUMPDEST POP SWAP4 SWAP3 POP POP POP JUMP JUMPDEST PUSH0 DUP3 PUSH1 0x1F DUP4 ADD SLT PUSH2 0x303 JUMPI PUSH2 0x302 PUSH2 0x1E0 JUMP JUMPDEST JUMPDEST DUP2 CALLDATALOAD PUSH2 0x313 DUP5 DUP3 PUSH1 0x20 DUP7 ADD PUSH2 0x2AE JUMP JUMPDEST SWAP2 POP POP SWAP3 SWAP2 POP POP JUMP JUMPDEST PUSH2 0x325 DUP2 PUSH2 0x123 JUMP JUMPDEST DUP2 EQ PUSH2 0x32F JUMPI PUSH0 DUP1 REVERT JUMPDEST POP JUMP JUMPDEST PUSH0 DUP2 CALLDATALOAD SWAP1 POP PUSH2 0x340 DUP2 PUSH2 0x31C JUMP JUMPDEST SWAP3 SWAP2 POP POP JUMP JUMPDEST PUSH0 DUP1 PUSH1 0x40 DUP4 DUP6 SUB SLT ISZERO PUSH2 0x35C JUMPI PUSH2 0x35B PUSH2 0x1D8 JUMP JUMPDEST JUMPDEST PUSH0 DUP4 ADD CALLDATALOAD PUSH8 0xFFFFFFFFFFFFFFFF DUP2 GT ISZERO PUSH2 0x379 JUMPI PUSH2 0x378 PUSH2 0x1DC JUMP JUMPDEST JUMPDEST PUSH2 0x385 DUP6 DUP3 DUP7 ADD PUSH2 0x2EF JUMP JUMPDEST SWAP3 POP POP PUSH1 0x20 PUSH2 0x396 DUP6 DUP3 DUP7 ADD PUSH2 0x332 JUMP JUMPDEST SWAP2 POP POP SWAP3 POP SWAP3 SWAP1 POP JUMP JUMPDEST PUSH0 PUSH1 0x20 DUP3 ADD SWAP1 POP PUSH2 0x3B3 PUSH0 DUP4 ADD DUP5 PUSH2 0x12C JUMP JUMPDEST SWAP3 SWAP2 POP POP JUMP JUMPDEST PUSH0 DUP2 MLOAD SWAP1 POP SWAP2 SWAP1 POP JUMP JUMPDEST DUP3 DUP2 DUP4 MCOPY PUSH0 DUP4 DUP4 ADD MSTORE POP POP POP JUMP JUMPDEST PUSH0 PUSH2 0x3DB DUP3 PUSH2 0x3B9 JUMP JUMPDEST PUSH2 0x3E5 DUP2 DUP6 PUSH2 0x13B JUMP JUMPDEST SWAP4 POP PUSH2 0x3F5 DUP2 DUP6 PUSH1 0x20 DUP7 ADD PUSH2 0x3C3 JUMP JUMPDEST PUSH2 0x3FE DUP2 PUSH2 0x1E8 JUMP JUMPDEST DUP5 ADD SWAP2 POP POP SWAP3 SWAP2 POP POP JUMP JUMPDEST PUSH0 PUSH1 0x60 DUP3 ADD SWAP1 POP PUSH2 0x41C PUSH0 DUP4 ADD DUP7 PUSH2 0x114 JUMP JUMPDEST PUSH2 0x429 PUSH1 0x20 DUP4 ADD DUP6 PUSH2 0x12C JUMP JUMPDEST DUP2 DUP2 SUB PUSH1 0x40 DUP4 ADD MSTORE PUSH2 0x43B DUP2 DUP5 PUSH2 0x3D1 JUMP JUMPDEST SWAP1 POP SWAP5 SWAP4 POP POP POP POP JUMP JUMPDEST PUSH32 0x4E487B7100000000000000000000000000000000000000000000000000000000 PUSH0 MSTORE PUSH1 0x11 PUSH1 0x4 MSTORE PUSH1 0x24 PUSH0 REVERT JUMPDEST PUSH0 PUSH2 0x47C DUP3 PUSH2 0x123 JUMP JUMPDEST SWAP2 POP PUSH2 0x487 DUP4 PUSH2 0x123 JUMP JUMPDEST SWAP3 POP DUP3 DUP3 ADD SWAP1 POP DUP1 DUP3 GT ISZERO PUSH2 0x49F JUMPI PUSH2 0x49E PUSH2 0x445 JUMP JUMPDEST JUMPDEST SWAP3 SWAP2 POP POP JUMP INVALID LOG2 PUSH5 0x6970667358 0x22 SLT KECCAK256 GASPRICE DUP14 DIV DUP6 0xAE 0xB5 REVERT PUSH10 0xB54C7B06C3A44C19FAD5 0xC8 PUSH20 0xCDAD77DBBBE4B0AA04DFC5B664736F6C63430008 BYTE STOP CALLER "
				},
				"gasEstimates": {
					"creation": {
						"codeDepositCost": "248600",
						"executionCost": "285",
						"totalCost": "248885"
					},
					"external": {
						"": "2643",
						"check(string,uint256)": "infinite"
					}
				},
				"methodIdentifiers": {
					"check(string,uint256)": "b3cbbc24"
				}
			},
			"storageLayout": {
				"storage": [],
				"types": null
			},
			"userdoc": {
				"kind": "user",
				"methods": {},
				"version": 1
			}
		}
	}
}