{
	"Learning Pth/local.sol": {
		"LocalVar": {
			"abi": [
				{
					"inputs": [
						{
							"internalType": "uint256",
							"name": "_x",
							"type": "uint256"
						},
						{
							"internalType": "uint256",
							"name": "_y",
							"type": "uint256"
						}
					],
					"name": "localVar",
					"outputs": [
						{
							"internalType": "uint256",
							"name": "",
							"type": "uint256"
						},
						{
							"internalType": "uint256",
							"name": "",
							"type": "uint256"
						},
						{
							"internalType": "address",
							"name": "",
							"type": "address"
						}
					],
					"stateMutability": "nonpayable",
					"type": "function"
				},
				{
					"inputs": [],
					"name": "myState",
					"outputs": [
						{
							"internalType": "uint256",
							"name": "",
							"type": "uint256"
						}
					],
					"stateMutability": "view",
					"type": "function"
				}
			],
			"devdoc": {
				"kind": "dev",
				"methods": {},
				"version": 1
			},
			"evm": {
				"assembly": "    /* \"Learning Pth/local.sol\":61:359  contract LocalVar {... */\n  mstore(0x40, 0x80)\n  callvalue\n  dup1\n  iszero\n  tag_1\n  jumpi\n  0x00\n  dup1\n  revert\ntag_1:\n  pop\n  dataSize(sub_0)\n  dup1\n  dataOffset(sub_0)\n  0x00\n  codecopy\n  0x00\n  return\nstop\n\nsub_0: assembly {\n        /* \"Learning Pth/local.sol\":61:359  contract LocalVar {... */\n      mstore(0x40, 0x80)\n      callvalue\n      dup1\n      iszero\n      tag_1\n      jumpi\n      0x00\n      dup1\n      revert\n    tag_1:\n      pop\n      jumpi(tag_2, lt(calldatasize, 0x04))\n      shr(0xe0, calldataload(0x00))\n      dup1\n      0x8bf1799f\n      eq\n      tag_3\n      jumpi\n      dup1\n      0xec5ad52f\n      eq\n      tag_4\n      jumpi\n    tag_2:\n      0x00\n      dup1\n      revert\n        /* \"Learning Pth/local.sol\":88:110  uint256 public myState */\n    tag_3:\n      tag_5\n      tag_6\n      jump\t// in\n    tag_5:\n      mload(0x40)\n      tag_7\n      swap2\n      swap1\n      tag_8\n      jump\t// in\n    tag_7:\n      mload(0x40)\n      dup1\n      swap2\n      sub\n      swap1\n      return\n        /* \"Learning Pth/local.sol\":119:356  function localVar(uint256 _x, uint256 _y) public returns(uint256, uint256, address){... */\n    tag_4:\n      tag_9\n      0x04\n      dup1\n      calldatasize\n      sub\n      dup2\n      add\n      swap1\n      tag_10\n      swap2\n      swap1\n      tag_11\n      jump\t// in\n    tag_10:\n      tag_12\n      jump\t// in\n    tag_9:\n      mload(0x40)\n      tag_13\n      swap4\n      swap3\n      swap2\n      swap1\n      tag_14\n      jump\t// in\n    tag_13:\n      mload(0x40)\n      dup1\n      swap2\n      sub\n      swap1\n      return\n        /* \"Learning Pth/local.sol\":88:110  uint256 public myState */\n    tag_6:\n      sload(0x00)\n      dup2\n      jump\t// out\n        /* \"Learning Pth/local.sol\":119:356  function localVar(uint256 _x, uint256 _y) public returns(uint256, uint256, address){... */\n    tag_12:\n        /* \"Learning Pth/local.sol\":176:183  uint256 */\n      0x00\n        /* \"Learning Pth/local.sol\":185:192  uint256 */\n      dup1\n        /* \"Learning Pth/local.sol\":194:201  address */\n      0x00\n        /* \"Learning Pth/local.sol\":213:222  uint256 i */\n      dup1\n        /* \"Learning Pth/local.sol\":230:232  _y */\n      dup5\n        /* \"Learning Pth/local.sol\":225:227  _x */\n      dup7\n        /* \"Learning Pth/local.sol\":225:232  _x + _y */\n      tag_16\n      swap2\n      swap1\n      tag_17\n      jump\t// in\n    tag_16:\n        /* \"Learning Pth/local.sol\":213:232  uint256 i = _x + _y */\n      swap1\n      pop\n        /* \"Learning Pth/local.sol\":253:254  i */\n      dup1\n        /* \"Learning Pth/local.sol\":243:250  myState */\n      0x00\n        /* \"Learning Pth/local.sol\":243:254  myState = i */\n      dup2\n      swap1\n      sstore\n      pop\n        /* \"Learning Pth/local.sol\":270:272  85 */\n      0x55\n        /* \"Learning Pth/local.sol\":265:272  i += 85 */\n      dup2\n      tag_18\n      swap2\n      swap1\n      tag_17\n      jump\t// in\n    tag_18:\n      swap1\n      pop\n        /* \"Learning Pth/local.sol\":283:297  address myAddr */\n      0x00\n        /* \"Learning Pth/local.sol\":308:309  1 */\n      0x01\n        /* \"Learning Pth/local.sol\":283:310  address myAddr = address(1) */\n      swap1\n      pop\n        /* \"Learning Pth/local.sol\":329:336  myState */\n      sload(0x00)\n        /* \"Learning Pth/local.sol\":338:339  i */\n      dup3\n        /* \"Learning Pth/local.sol\":341:347  myAddr */\n      dup3\n        /* \"Learning Pth/local.sol\":321:348  return (myState, i, myAddr) */\n      swap5\n      pop\n      swap5\n      pop\n      swap5\n      pop\n      pop\n      pop\n        /* \"Learning Pth/local.sol\":119:356  function localVar(uint256 _x, uint256 _y) public returns(uint256, uint256, address){... */\n      swap3\n      pop\n      swap3\n      pop\n      swap3\n      jump\t// out\n        /* \"#utility.yul\":7:84   */\n    tag_19:\n        /* \"#utility.yul\":44:51   */\n      0x00\n        /* \"#utility.yul\":73:78   */\n      dup2\n        /* \"#utility.yul\":62:78   */\n      swap1\n      pop\n        /* \"#utility.yul\":7:84   */\n      swap2\n      swap1\n      pop\n      jump\t// out\n        /* \"#utility.yul\":90:208   */\n    tag_20:\n        /* \"#utility.yul\":177:201   */\n      tag_33\n        /* \"#utility.yul\":195:200   */\n      dup2\n        /* \"#utility.yul\":177:201   */\n      tag_19\n      jump\t// in\n    tag_33:\n        /* \"#utility.yul\":172:175   */\n      dup3\n        /* \"#utility.yul\":165:202   */\n      mstore\n        /* \"#utility.yul\":90:208   */\n      pop\n      pop\n      jump\t// out\n        /* \"#utility.yul\":214:436   */\n    tag_8:\n        /* \"#utility.yul\":307:311   */\n      0x00\n        /* \"#utility.yul\":345:347   */\n      0x20\n        /* \"#utility.yul\":334:343   */\n      dup3\n        /* \"#utility.yul\":330:348   */\n      add\n        /* \"#utility.yul\":322:348   */\n      swap1\n      pop\n        /* \"#utility.yul\":358:429   */\n      tag_35\n        /* \"#utility.yul\":426:427   */\n      0x00\n        /* \"#utility.yul\":415:424   */\n      dup4\n        /* \"#utility.yul\":411:428   */\n      add\n        /* \"#utility.yul\":402:408   */\n      dup5\n        /* \"#utility.yul\":358:429   */\n      tag_20\n      jump\t// in\n    tag_35:\n        /* \"#utility.yul\":214:436   */\n      swap3\n      swap2\n      pop\n      pop\n      jump\t// out\n        /* \"#utility.yul\":523:640   */\n    tag_22:\n        /* \"#utility.yul\":632:633   */\n      0x00\n        /* \"#utility.yul\":629:630   */\n      dup1\n        /* \"#utility.yul\":622:634   */\n      revert\n        /* \"#utility.yul\":769:891   */\n    tag_24:\n        /* \"#utility.yul\":842:866   */\n      tag_40\n        /* \"#utility.yul\":860:865   */\n      dup2\n        /* \"#utility.yul\":842:866   */\n      tag_19\n      jump\t// in\n    tag_40:\n        /* \"#utility.yul\":835:840   */\n      dup2\n        /* \"#utility.yul\":832:867   */\n      eq\n        /* \"#utility.yul\":822:885   */\n      tag_41\n      jumpi\n        /* \"#utility.yul\":881:882   */\n      0x00\n        /* \"#utility.yul\":878:879   */\n      dup1\n        /* \"#utility.yul\":871:883   */\n      revert\n        /* \"#utility.yul\":822:885   */\n    tag_41:\n        /* \"#utility.yul\":769:891   */\n      pop\n      jump\t// out\n        /* \"#utility.yul\":897:1036   */\n    tag_25:\n        /* \"#utility.yul\":943:948   */\n      0x00\n        /* \"#utility.yul\":981:987   */\n      dup2\n        /* \"#utility.yul\":968:988   */\n      calldataload\n        /* \"#utility.yul\":959:988   */\n      swap1\n      pop\n        /* \"#utility.yul\":997:1030   */\n      tag_43\n        /* \"#utility.yul\":1024:1029   */\n      dup2\n        /* \"#utility.yul\":997:1030   */\n      tag_24\n      jump\t// in\n    tag_43:\n        /* \"#utility.yul\":897:1036   */\n      swap3\n      swap2\n      pop\n      pop\n      jump\t// out\n        /* \"#utility.yul\":1042:1516   */\n    tag_11:\n        /* \"#utility.yul\":1110:1116   */\n      0x00\n        /* \"#utility.yul\":1118:1124   */\n      dup1\n        /* \"#utility.yul\":1167:1169   */\n      0x40\n        /* \"#utility.yul\":1155:1164   */\n      dup4\n        /* \"#utility.yul\":1146:1153   */\n      dup6\n        /* \"#utility.yul\":1142:1165   */\n      sub\n        /* \"#utility.yul\":1138:1170   */\n      slt\n        /* \"#utility.yul\":1135:1254   */\n      iszero\n      tag_45\n      jumpi\n        /* \"#utility.yul\":1173:1252   */\n      tag_46\n      tag_22\n      jump\t// in\n    tag_46:\n        /* \"#utility.yul\":1135:1254   */\n    tag_45:\n        /* \"#utility.yul\":1293:1294   */\n      0x00\n        /* \"#utility.yul\":1318:1371   */\n      tag_47\n        /* \"#utility.yul\":1363:1370   */\n      dup6\n        /* \"#utility.yul\":1354:1360   */\n      dup3\n        /* \"#utility.yul\":1343:1352   */\n      dup7\n        /* \"#utility.yul\":1339:1361   */\n      add\n        /* \"#utility.yul\":1318:1371   */\n      tag_25\n      jump\t// in\n    tag_47:\n        /* \"#utility.yul\":1308:1371   */\n      swap3\n      pop\n        /* \"#utility.yul\":1264:1381   */\n      pop\n        /* \"#utility.yul\":1420:1422   */\n      0x20\n        /* \"#utility.yul\":1446:1499   */\n      tag_48\n        /* \"#utility.yul\":1491:1498   */\n      dup6\n        /* \"#utility.yul\":1482:1488   */\n      dup3\n        /* \"#utility.yul\":1471:1480   */\n      dup7\n        /* \"#utility.yul\":1467:1489   */\n      add\n        /* \"#utility.yul\":1446:1499   */\n      tag_25\n      jump\t// in\n    tag_48:\n        /* \"#utility.yul\":1436:1499   */\n      swap2\n      pop\n        /* \"#utility.yul\":1391:1509   */\n      pop\n        /* \"#utility.yul\":1042:1516   */\n      swap3\n      pop\n      swap3\n      swap1\n      pop\n      jump\t// out\n        /* \"#utility.yul\":1522:1648   */\n    tag_26:\n        /* \"#utility.yul\":1559:1566   */\n      0x00\n        /* \"#utility.yul\":1599:1641   */\n      0xffffffffffffffffffffffffffffffffffffffff\n        /* \"#utility.yul\":1592:1597   */\n      dup3\n        /* \"#utility.yul\":1588:1642   */\n      and\n        /* \"#utility.yul\":1577:1642   */\n      swap1\n      pop\n        /* \"#utility.yul\":1522:1648   */\n      swap2\n      swap1\n      pop\n      jump\t// out\n        /* \"#utility.yul\":1654:1750   */\n    tag_27:\n        /* \"#utility.yul\":1691:1698   */\n      0x00\n        /* \"#utility.yul\":1720:1744   */\n      tag_51\n        /* \"#utility.yul\":1738:1743   */\n      dup3\n        /* \"#utility.yul\":1720:1744   */\n      tag_26\n      jump\t// in\n    tag_51:\n        /* \"#utility.yul\":1709:1744   */\n      swap1\n      pop\n        /* \"#utility.yul\":1654:1750   */\n      swap2\n      swap1\n      pop\n      jump\t// out\n        /* \"#utility.yul\":1756:1874   */\n    tag_28:\n        /* \"#utility.yul\":1843:1867   */\n      tag_53\n        /* \"#utility.yul\":1861:1866   */\n      dup2\n        /* \"#utility.yul\":1843:1867   */\n      tag_27\n      jump\t// in\n    tag_53:\n        /* \"#utility.yul\":1838:1841   */\n      dup3\n        /* \"#utility.yul\":1831:1868   */\n      mstore\n        /* \"#utility.yul\":1756:1874   */\n      pop\n      pop\n      jump\t// out\n        /* \"#utility.yul\":1880:2322   */\n    tag_14:\n        /* \"#utility.yul\":2029:2033   */\n      0x00\n        /* \"#utility.yul\":2067:2069   */\n      0x60\n        /* \"#utility.yul\":2056:2065   */\n      dup3\n        /* \"#utility.yul\":2052:2070   */\n      add\n        /* \"#utility.yul\":2044:2070   */\n      swap1\n      pop\n        /* \"#utility.yul\":2080:2151   */\n      tag_55\n        /* \"#utility.yul\":2148:2149   */\n      0x00\n        /* \"#utility.yul\":2137:2146   */\n      dup4\n        /* \"#utility.yul\":2133:2150   */\n      add\n        /* \"#utility.yul\":2124:2130   */\n      dup7\n        /* \"#utility.yul\":2080:2151   */\n      tag_20\n      jump\t// in\n    tag_55:\n        /* \"#utility.yul\":2161:2233   */\n      tag_56\n        /* \"#utility.yul\":2229:2231   */\n      0x20\n        /* \"#utility.yul\":2218:2227   */\n      dup4\n        /* \"#utility.yul\":2214:2232   */\n      add\n        /* \"#utility.yul\":2205:2211   */\n      dup6\n        /* \"#utility.yul\":2161:2233   */\n      tag_20\n      jump\t// in\n    tag_56:\n        /* \"#utility.yul\":2243:2315   */\n      tag_57\n        /* \"#utility.yul\":2311:2313   */\n      0x40\n        /* \"#utility.yul\":2300:2309   */\n      dup4\n        /* \"#utility.yul\":2296:2314   */\n      add\n        /* \"#utility.yul\":2287:2293   */\n      dup5\n        /* \"#utility.yul\":2243:2315   */\n      tag_28\n      jump\t// in\n    tag_57:\n        /* \"#utility.yul\":1880:2322   */\n      swap5\n      swap4\n      pop\n      pop\n      pop\n      pop\n      jump\t// out\n        /* \"#utility.yul\":2328:2508   */\n    tag_29:\n        /* \"#utility.yul\":2376:2453   */\n      0x4e487b7100000000000000000000000000000000000000000000000000000000\n        /* \"#utility.yul\":2373:2374   */\n      0x00\n        /* \"#utility.yul\":2366:2454   */\n      mstore\n        /* \"#utility.yul\":2473:2477   */\n      0x11\n        /* \"#utility.yul\":2470:2471   */\n      0x04\n        /* \"#utility.yul\":2463:2478   */\n      mstore\n        /* \"#utility.yul\":2497:2501   */\n      0x24\n        /* \"#utility.yul\":2494:2495   */\n      0x00\n        /* \"#utility.yul\":2487:2502   */\n      revert\n        /* \"#utility.yul\":2514:2705   */\n    tag_17:\n        /* \"#utility.yul\":2554:2557   */\n      0x00\n        /* \"#utility.yul\":2573:2593   */\n      tag_60\n        /* \"#utility.yul\":2591:2592   */\n      dup3\n        /* \"#utility.yul\":2573:2593   */\n      tag_19\n      jump\t// in\n    tag_60:\n        /* \"#utility.yul\":2568:2593   */\n      swap2\n      pop\n        /* \"#utility.yul\":2607:2627   */\n      tag_61\n        /* \"#utility.yul\":2625:2626   */\n      dup4\n        /* \"#utility.yul\":2607:2627   */\n      tag_19\n      jump\t// in\n    tag_61:\n        /* \"#utility.yul\":2602:2627   */\n      swap3\n      pop\n        /* \"#utility.yul\":2650:2651   */\n      dup3\n        /* \"#utility.yul\":2647:2648   */\n      dup3\n        /* \"#utility.yul\":2643:2652   */\n      add\n        /* \"#utility.yul\":2636:2652   */\n      swap1\n      pop\n        /* \"#utility.yul\":2671:2674   */\n      dup1\n        /* \"#utility.yul\":2668:2669   */\n      dup3\n        /* \"#utility.yul\":2665:2675   */\n      gt\n        /* \"#utility.yul\":2662:2698   */\n      iszero\n      tag_62\n      jumpi\n        /* \"#utility.yul\":2678:2696   */\n      tag_63\n      tag_29\n      jump\t// in\n    tag_63:\n        /* \"#utility.yul\":2662:2698   */\n    tag_62:\n        /* \"#utility.yul\":2514:2705   */\n      swap3\n      swap2\n      pop\n      pop\n      jump\t// out\n\n    auxdata: 0xa26469706673582212205f4726cbe3f2b0fe0aee4b48dbe32c2c670d69827b4badbf0cec829e7437680364736f6c634300081a0033\n}\n",
				"bytecode": {
					"linkReferences": {},
					"object": "6080604052348015600e575f80fd5b506102738061001c5f395ff3fe608060405234801561000f575f80fd5b5060043610610034575f3560e01c80638bf1799f14610038578063ec5ad52f14610056575b5f80fd5b610040610088565b60405161004d91906100e4565b60405180910390f35b610070600480360381019061006b919061012b565b61008d565b60405161007f939291906101a8565b60405180910390f35b5f5481565b5f805f80848661009d919061020a565b9050805f819055506055816100b2919061020a565b90505f600190505f54828294509450945050509250925092565b5f819050919050565b6100de816100cc565b82525050565b5f6020820190506100f75f8301846100d5565b92915050565b5f80fd5b61010a816100cc565b8114610114575f80fd5b50565b5f8135905061012581610101565b92915050565b5f8060408385031215610141576101406100fd565b5b5f61014e85828601610117565b925050602061015f85828601610117565b9150509250929050565b5f73ffffffffffffffffffffffffffffffffffffffff82169050919050565b5f61019282610169565b9050919050565b6101a281610188565b82525050565b5f6060820190506101bb5f8301866100d5565b6101c860208301856100d5565b6101d56040830184610199565b949350505050565b7f4e487b71000000000000000000000000000000000000000000000000000000005f52601160045260245ffd5b5f610214826100cc565b915061021f836100cc565b9250828201905080821115610237576102366101dd565b5b9291505056fea26469706673582212205f4726cbe3f2b0fe0aee4b48dbe32c2c670d69827b4badbf0cec829e7437680364736f6c634300081a0033",
					"opcodes": "PUSH1 0x80 PUSH1 0x40 MSTORE CALLVALUE DUP1 ISZERO PUSH1 0xE JUMPI PUSH0 DUP1 REVERT JUMPDEST POP PUSH2 0x273 DUP1 PUSH2 0x1C PUSH0 CODECOPY PUSH0 RETURN INVALID PUSH1 0x80 PUSH1 0x40 MSTORE CALLVALUE DUP1 ISZERO PUSH2 0xF JUMPI PUSH0 DUP1 REVERT JUMPDEST POP PUSH1 0x4 CALLDATASIZE LT PUSH2 0x34 JUMPI PUSH0 CALLDATALOAD PUSH1 0xE0 SHR DUP1 PUSH4 0x8BF1799F EQ PUSH2 0x38 JUMPI DUP1 PUSH4 0xEC5AD52F EQ PUSH2 0x56 JUMPI JUMPDEST PUSH0 DUP1 REVERT JUMPDEST PUSH2 0x40 PUSH2 0x88 JUMP JUMPDEST PUSH1 0x40 MLOAD PUSH2 0x4D SWAP2 SWAP1 PUSH2 0xE4 JUMP JUMPDEST PUSH1 0x40 MLOAD DUP1 SWAP2 SUB SWAP1 RETURN JUMPDEST PUSH2 0x70 PUSH1 0x4 DUP1 CALLDATASIZE SUB DUP2 ADD SWAP1 PUSH2 0x6B SWAP2 SWAP1 PUSH2 0x12B JUMP JUMPDEST PUSH2 0x8D JUMP JUMPDEST PUSH1 0x40 MLOAD PUSH2 0x7F SWAP4 SWAP3 SWAP2 SWAP1 PUSH2 0x1A8 JUMP JUMPDEST PUSH1 0x40 MLOAD DUP1 SWAP2 SUB SWAP1 RETURN JUMPDEST PUSH0 SLOAD DUP2 JUMP JUMPDEST PUSH0 DUP1 PUSH0 DUP1 DUP5 DUP7 PUSH2 0x9D SWAP2 SWAP1 PUSH2 0x20A JUMP JUMPDEST SWAP1 POP DUP1 PUSH0 DUP2 SWAP1 SSTORE POP PUSH1 0x55 DUP2 PUSH2 0xB2 SWAP2 SWAP1 PUSH2 0x20A JUMP JUMPDEST SWAP1 POP PUSH0 PUSH1 0x1 SWAP1 POP PUSH0 SLOAD DUP3 DUP3 SWAP5 POP SWAP5 POP SWAP5 POP POP POP SWAP3 POP SWAP3 POP SWAP3 JUMP JUMPDEST PUSH0 DUP2 SWAP1 POP SWAP2 SWAP1 POP JUMP JUMPDEST PUSH2 0xDE DUP2 PUSH2 0xCC JUMP JUMPDEST DUP3 MSTORE POP POP JUMP JUMPDEST PUSH0 PUSH1 0x20 DUP3 ADD SWAP1 POP PUSH2 0xF7 PUSH0 DUP4 ADD DUP5 PUSH2 0xD5 JUMP JUMPDEST SWAP3 SWAP2 POP POP JUMP JUMPDEST PUSH0 DUP1 REVERT JUMPDEST PUSH2 0x10A DUP2 PUSH2 0xCC JUMP JUMPDEST DUP2 EQ PUSH2 0x114 JUMPI PUSH0 DUP1 REVERT JUMPDEST POP JUMP JUMPDEST PUSH0 DUP2 CALLDATALOAD SWAP1 POP PUSH2 0x125 DUP2 PUSH2 0x101 JUMP JUMPDEST SWAP3 SWAP2 POP POP JUMP JUMPDEST PUSH0 DUP1 PUSH1 0x40 DUP4 DUP6 SUB SLT ISZERO PUSH2 0x141 JUMPI PUSH2 0x140 PUSH2 0xFD JUMP JUMPDEST JUMPDEST PUSH0 PUSH2 0x14E DUP6 DUP3 DUP7 ADD PUSH2 0x117 JUMP JUMPDEST SWAP3 POP POP PUSH1 0x20 PUSH2 0x15F DUP6 DUP3 DUP7 ADD PUSH2 0x117 JUMP JUMPDEST SWAP2 POP POP SWAP3 POP SWAP3 SWAP1 POP JUMP JUMPDEST PUSH0 PUSH20 0xFFFFFFFFFFFFFFFFFFFFFFFFFFFFFFFFFFFFFFFF DUP3 AND SWAP1 POP SWAP2 SWAP1 POP JUMP JUMPDEST PUSH0 PUSH2 0x192 DUP3 PUSH2 0x169 JUMP JUMPDEST SWAP1 POP SWAP2 SWAP1 POP JUMP JUMPDEST PUSH2 0x1A2 DUP2 PUSH2 0x188 JUMP JUMPDEST DUP3 MSTORE POP POP JUMP JUMPDEST PUSH0 PUSH1 0x60 DUP3 ADD SWAP1 POP PUSH2 0x1BB PUSH0 DUP4 ADD DUP7 PUSH2 0xD5 JUMP JUMPDEST PUSH2 0x1C8 PUSH1 0x20 DUP4 ADD DUP6 PUSH2 0xD5 JUMP JUMPDEST PUSH2 0x1D5 PUSH1 0x40 DUP4 ADD DUP5 PUSH2 0x199 JUMP JUMPDEST SWAP5 SWAP4 POP POP POP POP JUMP JUMPDEST PUSH32 0x4E487B7100000000000000000000000000000000000000000000000000000000 PUSH0 MSTORE PUSH1 0x11 PUSH1 0x4 MSTORE PUSH1 0x24 PUSH0 REVERT JUMPDEST PUSH0 PUSH2 0x214 DUP3 PUSH2 0xCC JUMP JUMPDEST SWAP2 POP PUSH2 0x21F DUP4 PUSH2 0xCC JUMP JUMPDEST SWAP3 POP DUP3 DUP3 ADD SWAP1 POP DUP1 DUP3 GT ISZERO PUSH2 0x237 JUMPI PUSH2 0x236 PUSH2 0x1DD JUMP JUMPDEST JUMPDEST SWAP3 SWAP2 POP POP JUMP INVALID LOG2 PUSH5 0x6970667358 0x22 SLT KECCAK256 PUSH0 SELFBALANCE 0x26 0xCB 0xE3 CALLCODE 0xB0 INVALID EXP 0xEE 0x4B BASEFEE 0xDB 0xE3 0x2C 0x2C PUSH8 0xD69827B4BADBF0C 0xEC DUP3 SWAP15 PUSH21 0x37680364736F6C634300081A003300000000000000 "
				},
				"gasEstimates": {
					"creation": {
						"codeDepositCost": "125400",
						"executionCost": "169",
						"totalCost": "125569"
					},
					"external": {
						"localVar(uint256,uint256)": "infinite",
						"myState()": "2402"
					}
				},
				"methodIdentifiers": {
					"localVar(uint256,uint256)": "ec5ad52f",
					"myState()": "8bf1799f"
				}
			},
			"storageLayout": {
				"storage": [
					{
						"astId": 3,
						"contract": "Learning Pth/local.sol:LocalVar",
						"label": "myState",
						"offset": 0,
						"slot": "0",
						"type": "t_uint256"
					}
				],
				"types": {
					"t_uint256": {
						"encoding": "inplace",
						"label": "uint256",
						"numberOfBytes": "32"
					}
				}
			},
			"userdoc": {
				"kind": "user",
				"methods": {},
				"version": 1
			}
		}
	}
}