{
	"Learning Pth/CFunding.sol": {
		"Crowd_Funding": {
			"abi": [
				{
					"inputs": [
						{
							"internalType": "uint256",
							"name": "_targetAmount",
							"type": "uint256"
						},
						{
							"internalType": "string",
							"name": "_crowdFundingName",
							"type": "string"
						}
					],
					"stateMutability": "nonpayable",
					"type": "constructor"
				},
				{
					"anonymous": false,
					"inputs": [
						{
							"indexed": false,
							"internalType": "address",
							"name": "contributor",
							"type": "address"
						},
						{
							"indexed": false,
							"internalType": "uint256",
							"name": "amount",
							"type": "uint256"
						}
					],
					"name": "hasContributed",
					"type": "event"
				},
				{
					"anonymous": false,
					"inputs": [
						{
							"indexed": false,
							"internalType": "address",
							"name": "receiver",
							"type": "address"
						},
						{
							"indexed": false,
							"internalType": "uint256",
							"name": "amount",
							"type": "uint256"
						}
					],
					"name": "hasWithdrawn",
					"type": "event"
				},
				{
					"anonymous": false,
					"inputs": [
						{
							"indexed": false,
							"internalType": "address",
							"name": "funder",
							"type": "address"
						},
						{
							"indexed": false,
							"internalType": "uint256",
							"name": "amount",
							"type": "uint256"
						}
					],
					"name": "isRefunded",
					"type": "event"
				},
				{
					"inputs": [],
					"name": "contribute",
					"outputs": [],
					"stateMutability": "payable",
					"type": "function"
				},
				{
					"inputs": [],
					"name": "crowdFundingName",
					"outputs": [
						{
							"internalType": "string",
							"name": "",
							"type": "string"
						}
					],
					"stateMutability": "view",
					"type": "function"
				},
				{
					"inputs": [],
					"name": "endDate",
					"outputs": [
						{
							"internalType": "uint256",
							"name": "",
							"type": "uint256"
						}
					],
					"stateMutability": "view",
					"type": "function"
				},
				{
					"inputs": [],
					"name": "extendDeadline",
					"outputs": [],
					"stateMutability": "nonpayable",
					"type": "function"
				},
				{
					"inputs": [
						{
							"internalType": "address",
							"name": "",
							"type": "address"
						}
					],
					"name": "funders",
					"outputs": [
						{
							"internalType": "uint256",
							"name": "",
							"type": "uint256"
						}
					],
					"stateMutability": "view",
					"type": "function"
				},
				{
					"inputs": [],
					"name": "getBalance",
					"outputs": [
						{
							"internalType": "uint256",
							"name": "",
							"type": "uint256"
						}
					],
					"stateMutability": "view",
					"type": "function"
				},
				{
					"inputs": [],
					"name": "getRefund",
					"outputs": [],
					"stateMutability": "nonpayable",
					"type": "function"
				},
				{
					"inputs": [],
					"name": "hasFunded",
					"outputs": [
						{
							"internalType": "bool",
							"name": "",
							"type": "bool"
						}
					],
					"stateMutability": "view",
					"type": "function"
				},
				{
					"inputs": [],
					"name": "isComplete",
					"outputs": [
						{
							"internalType": "bool",
							"name": "",
							"type": "bool"
						}
					],
					"stateMutability": "view",
					"type": "function"
				},
				{
					"inputs": [],
					"name": "receiver",
					"outputs": [
						{
							"internalType": "address",
							"name": "",
							"type": "address"
						}
					],
					"stateMutability": "view",
					"type": "function"
				},
				{
					"inputs": [],
					"name": "startDate",
					"outputs": [
						{
							"internalType": "uint256",
							"name": "",
							"type": "uint256"
						}
					],
					"stateMutability": "view",
					"type": "function"
				},
				{
					"inputs": [],
					"name": "targetAmount",
					"outputs": [
						{
							"internalType": "uint256",
							"name": "",
							"type": "uint256"
						}
					],
					"stateMutability": "view",
					"type": "function"
				},
				{
					"inputs": [],
					"name": "totalContribution",
					"outputs": [
						{
							"internalType": "uint256",
							"name": "",
							"type": "uint256"
						}
					],
					"stateMutability": "view",
					"type": "function"
				},
				{
					"inputs": [],
					"name": "withdraw",
					"outputs": [],
					"stateMutability": "nonpayable",
					"type": "function"
				}
			],
			"devdoc": {
				"kind": "dev",
				"methods": {},
				"version": 1
			},
			"evm": {
				"assembly": "    /* \"Learning Pth/CFunding.sol\":61:2582  contract Crowd_Funding {... */\n  mstore(0x40, 0x80)\n    /* \"Learning Pth/CFunding.sol\":556:891  constructor(uint _targetAmount, string memory _crowdFundingName) {... */\n  callvalue\n  dup1\n  iszero\n  tag_1\n  jumpi\n  0x00\n  dup1\n  revert\ntag_1:\n  pop\n  mload(0x40)\n  sub(codesize, bytecodeSize)\n  dup1\n  bytecodeSize\n  dup4\n  codecopy\n  dup2\n  dup2\n  add\n  0x40\n  mstore\n  dup2\n  add\n  swap1\n  tag_2\n  swap2\n  swap1\n  tag_3\n  jump\t// in\ntag_2:\n    /* \"Learning Pth/CFunding.sol\":643:653  msg.sender */\n  caller\n    /* \"Learning Pth/CFunding.sol\":632:640  receiver */\n  0x00\n  dup1\n    /* \"Learning Pth/CFunding.sol\":632:653  receiver = msg.sender */\n  0x0100\n  exp\n  dup2\n  sload\n  dup2\n  0xffffffffffffffffffffffffffffffffffffffff\n  mul\n  not\n  and\n  swap1\n  dup4\n  0xffffffffffffffffffffffffffffffffffffffff\n  and\n  mul\n  or\n  swap1\n  sstore\n  pop\n    /* \"Learning Pth/CFunding.sol\":695:702  1 ether */\n  0x0de0b6b3a7640000\n    /* \"Learning Pth/CFunding.sol\":679:692  _targetAmount */\n  dup3\n    /* \"Learning Pth/CFunding.sol\":679:702  _targetAmount * 1 ether */\n  tag_6\n  swap2\n  swap1\n  tag_7\n  jump\t// in\ntag_6:\n    /* \"Learning Pth/CFunding.sol\":664:676  targetAmount */\n  0x01\n    /* \"Learning Pth/CFunding.sol\":664:702  targetAmount = _targetAmount * 1 ether */\n  dup2\n  swap1\n  sstore\n  pop\n    /* \"Learning Pth/CFunding.sol\":725:740  block.timestamp */\n  timestamp\n    /* \"Learning Pth/CFunding.sol\":713:722  startDate */\n  0x03\n    /* \"Learning Pth/CFunding.sol\":713:740  startDate = block.timestamp */\n  dup2\n  swap1\n  sstore\n  pop\n    /* \"Learning Pth/CFunding.sol\":773:779  7 days */\n  0x093a80\n    /* \"Learning Pth/CFunding.sol\":761:770  startDate */\n  sload(0x03)\n    /* \"Learning Pth/CFunding.sol\":761:779  startDate + 7 days */\n  tag_8\n  swap2\n  swap1\n  tag_9\n  jump\t// in\ntag_8:\n    /* \"Learning Pth/CFunding.sol\":751:758  endDate */\n  0x04\n    /* \"Learning Pth/CFunding.sol\":751:779  endDate = startDate + 7 days */\n  dup2\n  swap1\n  sstore\n  pop\n    /* \"Learning Pth/CFunding.sol\":809:826  _crowdFundingName */\n  dup1\n    /* \"Learning Pth/CFunding.sol\":790:806  crowdFundingName */\n  0x05\n    /* \"Learning Pth/CFunding.sol\":790:826  crowdFundingName = _crowdFundingName */\n  swap1\n  dup2\n  tag_10\n  swap2\n  swap1\n  tag_11\n  jump\t// in\ntag_10:\n  pop\n    /* \"Learning Pth/CFunding.sol\":849:854  false */\n  0x00\n    /* \"Learning Pth/CFunding.sol\":837:846  hasFunded */\n  0x07\n  0x00\n    /* \"Learning Pth/CFunding.sol\":837:854  hasFunded = false */\n  0x0100\n  exp\n  dup2\n  sload\n  dup2\n  0xff\n  mul\n  not\n  and\n  swap1\n  dup4\n  iszero\n  iszero\n  mul\n  or\n  swap1\n  sstore\n  pop\n    /* \"Learning Pth/CFunding.sol\":878:883  false */\n  0x00\n    /* \"Learning Pth/CFunding.sol\":865:875  isComplete */\n  0x07\n  0x01\n    /* \"Learning Pth/CFunding.sol\":865:883  isComplete = false */\n  0x0100\n  exp\n  dup2\n  sload\n  dup2\n  0xff\n  mul\n  not\n  and\n  swap1\n  dup4\n  iszero\n  iszero\n  mul\n  or\n  swap1\n  sstore\n  pop\n    /* \"Learning Pth/CFunding.sol\":556:891  constructor(uint _targetAmount, string memory _crowdFundingName) {... */\n  pop\n  pop\n    /* \"Learning Pth/CFunding.sol\":61:2582  contract Crowd_Funding {... */\n  jump(tag_12)\n    /* \"#utility.yul\":7:82   */\ntag_13:\n    /* \"#utility.yul\":40:46   */\n  0x00\n    /* \"#utility.yul\":73:75   */\n  0x40\n    /* \"#utility.yul\":67:76   */\n  mload\n    /* \"#utility.yul\":57:76   */\n  swap1\n  pop\n    /* \"#utility.yul\":7:82   */\n  swap1\n  jump\t// out\n    /* \"#utility.yul\":88:205   */\ntag_14:\n    /* \"#utility.yul\":197:198   */\n  0x00\n    /* \"#utility.yul\":194:195   */\n  dup1\n    /* \"#utility.yul\":187:199   */\n  revert\n    /* \"#utility.yul\":211:328   */\ntag_15:\n    /* \"#utility.yul\":320:321   */\n  0x00\n    /* \"#utility.yul\":317:318   */\n  dup1\n    /* \"#utility.yul\":310:322   */\n  revert\n    /* \"#utility.yul\":334:411   */\ntag_16:\n    /* \"#utility.yul\":371:378   */\n  0x00\n    /* \"#utility.yul\":400:405   */\n  dup2\n    /* \"#utility.yul\":389:405   */\n  swap1\n  pop\n    /* \"#utility.yul\":334:411   */\n  swap2\n  swap1\n  pop\n  jump\t// out\n    /* \"#utility.yul\":417:539   */\ntag_17:\n    /* \"#utility.yul\":490:514   */\n  tag_54\n    /* \"#utility.yul\":508:513   */\n  dup2\n    /* \"#utility.yul\":490:514   */\n  tag_16\n  jump\t// in\ntag_54:\n    /* \"#utility.yul\":483:488   */\n  dup2\n    /* \"#utility.yul\":480:515   */\n  eq\n    /* \"#utility.yul\":470:533   */\n  tag_55\n  jumpi\n    /* \"#utility.yul\":529:530   */\n  0x00\n    /* \"#utility.yul\":526:527   */\n  dup1\n    /* \"#utility.yul\":519:531   */\n  revert\n    /* \"#utility.yul\":470:533   */\ntag_55:\n    /* \"#utility.yul\":417:539   */\n  pop\n  jump\t// out\n    /* \"#utility.yul\":545:688   */\ntag_18:\n    /* \"#utility.yul\":602:607   */\n  0x00\n    /* \"#utility.yul\":633:639   */\n  dup2\n    /* \"#utility.yul\":627:640   */\n  mload\n    /* \"#utility.yul\":618:640   */\n  swap1\n  pop\n    /* \"#utility.yul\":649:682   */\n  tag_57\n    /* \"#utility.yul\":676:681   */\n  dup2\n    /* \"#utility.yul\":649:682   */\n  tag_17\n  jump\t// in\ntag_57:\n    /* \"#utility.yul\":545:688   */\n  swap3\n  swap2\n  pop\n  pop\n  jump\t// out\n    /* \"#utility.yul\":694:811   */\ntag_19:\n    /* \"#utility.yul\":803:804   */\n  0x00\n    /* \"#utility.yul\":800:801   */\n  dup1\n    /* \"#utility.yul\":793:805   */\n  revert\n    /* \"#utility.yul\":817:934   */\ntag_20:\n    /* \"#utility.yul\":926:927   */\n  0x00\n    /* \"#utility.yul\":923:924   */\n  dup1\n    /* \"#utility.yul\":916:928   */\n  revert\n    /* \"#utility.yul\":940:1042   */\ntag_21:\n    /* \"#utility.yul\":981:987   */\n  0x00\n    /* \"#utility.yul\":1032:1034   */\n  0x1f\n    /* \"#utility.yul\":1028:1035   */\n  not\n    /* \"#utility.yul\":1023:1025   */\n  0x1f\n    /* \"#utility.yul\":1016:1021   */\n  dup4\n    /* \"#utility.yul\":1012:1026   */\n  add\n    /* \"#utility.yul\":1008:1036   */\n  and\n    /* \"#utility.yul\":998:1036   */\n  swap1\n  pop\n    /* \"#utility.yul\":940:1042   */\n  swap2\n  swap1\n  pop\n  jump\t// out\n    /* \"#utility.yul\":1048:1228   */\ntag_22:\n    /* \"#utility.yul\":1096:1173   */\n  0x4e487b7100000000000000000000000000000000000000000000000000000000\n    /* \"#utility.yul\":1093:1094   */\n  0x00\n    /* \"#utility.yul\":1086:1174   */\n  mstore\n    /* \"#utility.yul\":1193:1197   */\n  0x41\n    /* \"#utility.yul\":1190:1191   */\n  0x04\n    /* \"#utility.yul\":1183:1198   */\n  mstore\n    /* \"#utility.yul\":1217:1221   */\n  0x24\n    /* \"#utility.yul\":1214:1215   */\n  0x00\n    /* \"#utility.yul\":1207:1222   */\n  revert\n    /* \"#utility.yul\":1234:1515   */\ntag_23:\n    /* \"#utility.yul\":1317:1344   */\n  tag_63\n    /* \"#utility.yul\":1339:1343   */\n  dup3\n    /* \"#utility.yul\":1317:1344   */\n  tag_21\n  jump\t// in\ntag_63:\n    /* \"#utility.yul\":1309:1315   */\n  dup2\n    /* \"#utility.yul\":1305:1345   */\n  add\n    /* \"#utility.yul\":1447:1453   */\n  dup2\n    /* \"#utility.yul\":1435:1445   */\n  dup2\n    /* \"#utility.yul\":1432:1454   */\n  lt\n    /* \"#utility.yul\":1411:1429   */\n  0xffffffffffffffff\n    /* \"#utility.yul\":1399:1409   */\n  dup3\n    /* \"#utility.yul\":1396:1430   */\n  gt\n    /* \"#utility.yul\":1393:1455   */\n  or\n    /* \"#utility.yul\":1390:1478   */\n  iszero\n  tag_64\n  jumpi\n    /* \"#utility.yul\":1458:1476   */\n  tag_65\n  tag_22\n  jump\t// in\ntag_65:\n    /* \"#utility.yul\":1390:1478   */\ntag_64:\n    /* \"#utility.yul\":1498:1508   */\n  dup1\n    /* \"#utility.yul\":1494:1496   */\n  0x40\n    /* \"#utility.yul\":1487:1509   */\n  mstore\n    /* \"#utility.yul\":1277:1515   */\n  pop\n    /* \"#utility.yul\":1234:1515   */\n  pop\n  pop\n  jump\t// out\n    /* \"#utility.yul\":1521:1650   */\ntag_24:\n    /* \"#utility.yul\":1555:1561   */\n  0x00\n    /* \"#utility.yul\":1582:1602   */\n  tag_67\n  tag_13\n  jump\t// in\ntag_67:\n    /* \"#utility.yul\":1572:1602   */\n  swap1\n  pop\n    /* \"#utility.yul\":1611:1644   */\n  tag_68\n    /* \"#utility.yul\":1639:1643   */\n  dup3\n    /* \"#utility.yul\":1631:1637   */\n  dup3\n    /* \"#utility.yul\":1611:1644   */\n  tag_23\n  jump\t// in\ntag_68:\n    /* \"#utility.yul\":1521:1650   */\n  swap2\n  swap1\n  pop\n  jump\t// out\n    /* \"#utility.yul\":1656:1964   */\ntag_25:\n    /* \"#utility.yul\":1718:1722   */\n  0x00\n    /* \"#utility.yul\":1808:1826   */\n  0xffffffffffffffff\n    /* \"#utility.yul\":1800:1806   */\n  dup3\n    /* \"#utility.yul\":1797:1827   */\n  gt\n    /* \"#utility.yul\":1794:1850   */\n  iszero\n  tag_70\n  jumpi\n    /* \"#utility.yul\":1830:1848   */\n  tag_71\n  tag_22\n  jump\t// in\ntag_71:\n    /* \"#utility.yul\":1794:1850   */\ntag_70:\n    /* \"#utility.yul\":1868:1897   */\n  tag_72\n    /* \"#utility.yul\":1890:1896   */\n  dup3\n    /* \"#utility.yul\":1868:1897   */\n  tag_21\n  jump\t// in\ntag_72:\n    /* \"#utility.yul\":1860:1897   */\n  swap1\n  pop\n    /* \"#utility.yul\":1952:1956   */\n  0x20\n    /* \"#utility.yul\":1946:1950   */\n  dup2\n    /* \"#utility.yul\":1942:1957   */\n  add\n    /* \"#utility.yul\":1934:1957   */\n  swap1\n  pop\n    /* \"#utility.yul\":1656:1964   */\n  swap2\n  swap1\n  pop\n  jump\t// out\n    /* \"#utility.yul\":1970:2109   */\ntag_26:\n    /* \"#utility.yul\":2059:2065   */\n  dup3\n    /* \"#utility.yul\":2054:2057   */\n  dup2\n    /* \"#utility.yul\":2049:2052   */\n  dup4\n    /* \"#utility.yul\":2043:2066   */\n  mcopy\n    /* \"#utility.yul\":2100:2101   */\n  0x00\n    /* \"#utility.yul\":2091:2097   */\n  dup4\n    /* \"#utility.yul\":2086:2089   */\n  dup4\n    /* \"#utility.yul\":2082:2098   */\n  add\n    /* \"#utility.yul\":2075:2102   */\n  mstore\n    /* \"#utility.yul\":1970:2109   */\n  pop\n  pop\n  pop\n  jump\t// out\n    /* \"#utility.yul\":2115:2549   */\ntag_27:\n    /* \"#utility.yul\":2204:2209   */\n  0x00\n    /* \"#utility.yul\":2229:2295   */\n  tag_75\n    /* \"#utility.yul\":2245:2294   */\n  tag_76\n    /* \"#utility.yul\":2287:2293   */\n  dup5\n    /* \"#utility.yul\":2245:2294   */\n  tag_25\n  jump\t// in\ntag_76:\n    /* \"#utility.yul\":2229:2295   */\n  tag_24\n  jump\t// in\ntag_75:\n    /* \"#utility.yul\":2220:2295   */\n  swap1\n  pop\n    /* \"#utility.yul\":2318:2324   */\n  dup3\n    /* \"#utility.yul\":2311:2316   */\n  dup2\n    /* \"#utility.yul\":2304:2325   */\n  mstore\n    /* \"#utility.yul\":2356:2360   */\n  0x20\n    /* \"#utility.yul\":2349:2354   */\n  dup2\n    /* \"#utility.yul\":2345:2361   */\n  add\n    /* \"#utility.yul\":2394:2397   */\n  dup5\n    /* \"#utility.yul\":2385:2391   */\n  dup5\n    /* \"#utility.yul\":2380:2383   */\n  dup5\n    /* \"#utility.yul\":2376:2392   */\n  add\n    /* \"#utility.yul\":2373:2398   */\n  gt\n    /* \"#utility.yul\":2370:2482   */\n  iszero\n  tag_77\n  jumpi\n    /* \"#utility.yul\":2401:2480   */\n  tag_78\n  tag_20\n  jump\t// in\ntag_78:\n    /* \"#utility.yul\":2370:2482   */\ntag_77:\n    /* \"#utility.yul\":2491:2543   */\n  tag_79\n    /* \"#utility.yul\":2536:2542   */\n  dup5\n    /* \"#utility.yul\":2531:2534   */\n  dup3\n    /* \"#utility.yul\":2526:2529   */\n  dup6\n    /* \"#utility.yul\":2491:2543   */\n  tag_26\n  jump\t// in\ntag_79:\n    /* \"#utility.yul\":2210:2549   */\n  pop\n    /* \"#utility.yul\":2115:2549   */\n  swap4\n  swap3\n  pop\n  pop\n  pop\n  jump\t// out\n    /* \"#utility.yul\":2569:2924   */\ntag_28:\n    /* \"#utility.yul\":2636:2641   */\n  0x00\n    /* \"#utility.yul\":2685:2688   */\n  dup3\n    /* \"#utility.yul\":2678:2682   */\n  0x1f\n    /* \"#utility.yul\":2670:2676   */\n  dup4\n    /* \"#utility.yul\":2666:2683   */\n  add\n    /* \"#utility.yul\":2662:2689   */\n  slt\n    /* \"#utility.yul\":2652:2774   */\n  tag_81\n  jumpi\n    /* \"#utility.yul\":2693:2772   */\n  tag_82\n  tag_19\n  jump\t// in\ntag_82:\n    /* \"#utility.yul\":2652:2774   */\ntag_81:\n    /* \"#utility.yul\":2803:2809   */\n  dup2\n    /* \"#utility.yul\":2797:2810   */\n  mload\n    /* \"#utility.yul\":2828:2918   */\n  tag_83\n    /* \"#utility.yul\":2914:2917   */\n  dup5\n    /* \"#utility.yul\":2906:2912   */\n  dup3\n    /* \"#utility.yul\":2899:2903   */\n  0x20\n    /* \"#utility.yul\":2891:2897   */\n  dup7\n    /* \"#utility.yul\":2887:2904   */\n  add\n    /* \"#utility.yul\":2828:2918   */\n  tag_27\n  jump\t// in\ntag_83:\n    /* \"#utility.yul\":2819:2918   */\n  swap2\n  pop\n    /* \"#utility.yul\":2642:2924   */\n  pop\n    /* \"#utility.yul\":2569:2924   */\n  swap3\n  swap2\n  pop\n  pop\n  jump\t// out\n    /* \"#utility.yul\":2930:3610   */\ntag_3:\n    /* \"#utility.yul\":3019:3025   */\n  0x00\n    /* \"#utility.yul\":3027:3033   */\n  dup1\n    /* \"#utility.yul\":3076:3078   */\n  0x40\n    /* \"#utility.yul\":3064:3073   */\n  dup4\n    /* \"#utility.yul\":3055:3062   */\n  dup6\n    /* \"#utility.yul\":3051:3074   */\n  sub\n    /* \"#utility.yul\":3047:3079   */\n  slt\n    /* \"#utility.yul\":3044:3163   */\n  iszero\n  tag_85\n  jumpi\n    /* \"#utility.yul\":3082:3161   */\n  tag_86\n  tag_14\n  jump\t// in\ntag_86:\n    /* \"#utility.yul\":3044:3163   */\ntag_85:\n    /* \"#utility.yul\":3202:3203   */\n  0x00\n    /* \"#utility.yul\":3227:3291   */\n  tag_87\n    /* \"#utility.yul\":3283:3290   */\n  dup6\n    /* \"#utility.yul\":3274:3280   */\n  dup3\n    /* \"#utility.yul\":3263:3272   */\n  dup7\n    /* \"#utility.yul\":3259:3281   */\n  add\n    /* \"#utility.yul\":3227:3291   */\n  tag_18\n  jump\t// in\ntag_87:\n    /* \"#utility.yul\":3217:3291   */\n  swap3\n  pop\n    /* \"#utility.yul\":3173:3301   */\n  pop\n    /* \"#utility.yul\":3361:3363   */\n  0x20\n    /* \"#utility.yul\":3350:3359   */\n  dup4\n    /* \"#utility.yul\":3346:3364   */\n  add\n    /* \"#utility.yul\":3340:3365   */\n  mload\n    /* \"#utility.yul\":3392:3410   */\n  0xffffffffffffffff\n    /* \"#utility.yul\":3384:3390   */\n  dup2\n    /* \"#utility.yul\":3381:3411   */\n  gt\n    /* \"#utility.yul\":3378:3495   */\n  iszero\n  tag_88\n  jumpi\n    /* \"#utility.yul\":3414:3493   */\n  tag_89\n  tag_15\n  jump\t// in\ntag_89:\n    /* \"#utility.yul\":3378:3495   */\ntag_88:\n    /* \"#utility.yul\":3519:3593   */\n  tag_90\n    /* \"#utility.yul\":3585:3592   */\n  dup6\n    /* \"#utility.yul\":3576:3582   */\n  dup3\n    /* \"#utility.yul\":3565:3574   */\n  dup7\n    /* \"#utility.yul\":3561:3583   */\n  add\n    /* \"#utility.yul\":3519:3593   */\n  tag_28\n  jump\t// in\ntag_90:\n    /* \"#utility.yul\":3509:3593   */\n  swap2\n  pop\n    /* \"#utility.yul\":3311:3603   */\n  pop\n    /* \"#utility.yul\":2930:3610   */\n  swap3\n  pop\n  swap3\n  swap1\n  pop\n  jump\t// out\n    /* \"#utility.yul\":3616:3796   */\ntag_29:\n    /* \"#utility.yul\":3664:3741   */\n  0x4e487b7100000000000000000000000000000000000000000000000000000000\n    /* \"#utility.yul\":3661:3662   */\n  0x00\n    /* \"#utility.yul\":3654:3742   */\n  mstore\n    /* \"#utility.yul\":3761:3765   */\n  0x11\n    /* \"#utility.yul\":3758:3759   */\n  0x04\n    /* \"#utility.yul\":3751:3766   */\n  mstore\n    /* \"#utility.yul\":3785:3789   */\n  0x24\n    /* \"#utility.yul\":3782:3783   */\n  0x00\n    /* \"#utility.yul\":3775:3790   */\n  revert\n    /* \"#utility.yul\":3802:4212   */\ntag_7:\n    /* \"#utility.yul\":3842:3849   */\n  0x00\n    /* \"#utility.yul\":3865:3885   */\n  tag_93\n    /* \"#utility.yul\":3883:3884   */\n  dup3\n    /* \"#utility.yul\":3865:3885   */\n  tag_16\n  jump\t// in\ntag_93:\n    /* \"#utility.yul\":3860:3885   */\n  swap2\n  pop\n    /* \"#utility.yul\":3899:3919   */\n  tag_94\n    /* \"#utility.yul\":3917:3918   */\n  dup4\n    /* \"#utility.yul\":3899:3919   */\n  tag_16\n  jump\t// in\ntag_94:\n    /* \"#utility.yul\":3894:3919   */\n  swap3\n  pop\n    /* \"#utility.yul\":3954:3955   */\n  dup3\n    /* \"#utility.yul\":3951:3952   */\n  dup3\n    /* \"#utility.yul\":3947:3956   */\n  mul\n    /* \"#utility.yul\":3976:4006   */\n  tag_95\n    /* \"#utility.yul\":3994:4005   */\n  dup2\n    /* \"#utility.yul\":3976:4006   */\n  tag_16\n  jump\t// in\ntag_95:\n    /* \"#utility.yul\":3965:4006   */\n  swap2\n  pop\n    /* \"#utility.yul\":4155:4156   */\n  dup3\n    /* \"#utility.yul\":4146:4153   */\n  dup3\n    /* \"#utility.yul\":4142:4157   */\n  div\n    /* \"#utility.yul\":4139:4140   */\n  dup5\n    /* \"#utility.yul\":4136:4158   */\n  eq\n    /* \"#utility.yul\":4116:4117   */\n  dup4\n    /* \"#utility.yul\":4109:4118   */\n  iszero\n    /* \"#utility.yul\":4089:4172   */\n  or\n    /* \"#utility.yul\":4066:4205   */\n  tag_96\n  jumpi\n    /* \"#utility.yul\":4185:4203   */\n  tag_97\n  tag_29\n  jump\t// in\ntag_97:\n    /* \"#utility.yul\":4066:4205   */\ntag_96:\n    /* \"#utility.yul\":3850:4212   */\n  pop\n    /* \"#utility.yul\":3802:4212   */\n  swap3\n  swap2\n  pop\n  pop\n  jump\t// out\n    /* \"#utility.yul\":4218:4409   */\ntag_9:\n    /* \"#utility.yul\":4258:4261   */\n  0x00\n    /* \"#utility.yul\":4277:4297   */\n  tag_99\n    /* \"#utility.yul\":4295:4296   */\n  dup3\n    /* \"#utility.yul\":4277:4297   */\n  tag_16\n  jump\t// in\ntag_99:\n    /* \"#utility.yul\":4272:4297   */\n  swap2\n  pop\n    /* \"#utility.yul\":4311:4331   */\n  tag_100\n    /* \"#utility.yul\":4329:4330   */\n  dup4\n    /* \"#utility.yul\":4311:4331   */\n  tag_16\n  jump\t// in\ntag_100:\n    /* \"#utility.yul\":4306:4331   */\n  swap3\n  pop\n    /* \"#utility.yul\":4354:4355   */\n  dup3\n    /* \"#utility.yul\":4351:4352   */\n  dup3\n    /* \"#utility.yul\":4347:4356   */\n  add\n    /* \"#utility.yul\":4340:4356   */\n  swap1\n  pop\n    /* \"#utility.yul\":4375:4378   */\n  dup1\n    /* \"#utility.yul\":4372:4373   */\n  dup3\n    /* \"#utility.yul\":4369:4379   */\n  gt\n    /* \"#utility.yul\":4366:4402   */\n  iszero\n  tag_101\n  jumpi\n    /* \"#utility.yul\":4382:4400   */\n  tag_102\n  tag_29\n  jump\t// in\ntag_102:\n    /* \"#utility.yul\":4366:4402   */\ntag_101:\n    /* \"#utility.yul\":4218:4409   */\n  swap3\n  swap2\n  pop\n  pop\n  jump\t// out\n    /* \"#utility.yul\":4415:4514   */\ntag_30:\n    /* \"#utility.yul\":4467:4473   */\n  0x00\n    /* \"#utility.yul\":4501:4506   */\n  dup2\n    /* \"#utility.yul\":4495:4507   */\n  mload\n    /* \"#utility.yul\":4485:4507   */\n  swap1\n  pop\n    /* \"#utility.yul\":4415:4514   */\n  swap2\n  swap1\n  pop\n  jump\t// out\n    /* \"#utility.yul\":4520:4700   */\ntag_31:\n    /* \"#utility.yul\":4568:4645   */\n  0x4e487b7100000000000000000000000000000000000000000000000000000000\n    /* \"#utility.yul\":4565:4566   */\n  0x00\n    /* \"#utility.yul\":4558:4646   */\n  mstore\n    /* \"#utility.yul\":4665:4669   */\n  0x22\n    /* \"#utility.yul\":4662:4663   */\n  0x04\n    /* \"#utility.yul\":4655:4670   */\n  mstore\n    /* \"#utility.yul\":4689:4693   */\n  0x24\n    /* \"#utility.yul\":4686:4687   */\n  0x00\n    /* \"#utility.yul\":4679:4694   */\n  revert\n    /* \"#utility.yul\":4706:5026   */\ntag_32:\n    /* \"#utility.yul\":4750:4756   */\n  0x00\n    /* \"#utility.yul\":4787:4788   */\n  0x02\n    /* \"#utility.yul\":4781:4785   */\n  dup3\n    /* \"#utility.yul\":4777:4789   */\n  div\n    /* \"#utility.yul\":4767:4789   */\n  swap1\n  pop\n    /* \"#utility.yul\":4834:4835   */\n  0x01\n    /* \"#utility.yul\":4828:4832   */\n  dup3\n    /* \"#utility.yul\":4824:4836   */\n  and\n    /* \"#utility.yul\":4855:4873   */\n  dup1\n    /* \"#utility.yul\":4845:4926   */\n  tag_106\n  jumpi\n    /* \"#utility.yul\":4911:4915   */\n  0x7f\n    /* \"#utility.yul\":4903:4909   */\n  dup3\n    /* \"#utility.yul\":4899:4916   */\n  and\n    /* \"#utility.yul\":4889:4916   */\n  swap2\n  pop\n    /* \"#utility.yul\":4845:4926   */\ntag_106:\n    /* \"#utility.yul\":4973:4975   */\n  0x20\n    /* \"#utility.yul\":4965:4971   */\n  dup3\n    /* \"#utility.yul\":4962:4976   */\n  lt\n    /* \"#utility.yul\":4942:4960   */\n  dup2\n    /* \"#utility.yul\":4939:4977   */\n  sub\n    /* \"#utility.yul\":4936:5020   */\n  tag_107\n  jumpi\n    /* \"#utility.yul\":4992:5010   */\n  tag_108\n  tag_31\n  jump\t// in\ntag_108:\n    /* \"#utility.yul\":4936:5020   */\ntag_107:\n    /* \"#utility.yul\":4757:5026   */\n  pop\n    /* \"#utility.yul\":4706:5026   */\n  swap2\n  swap1\n  pop\n  jump\t// out\n    /* \"#utility.yul\":5032:5173   */\ntag_33:\n    /* \"#utility.yul\":5081:5085   */\n  0x00\n    /* \"#utility.yul\":5104:5107   */\n  dup2\n    /* \"#utility.yul\":5096:5107   */\n  swap1\n  pop\n    /* \"#utility.yul\":5127:5130   */\n  dup2\n    /* \"#utility.yul\":5124:5125   */\n  0x00\n    /* \"#utility.yul\":5117:5131   */\n  mstore\n    /* \"#utility.yul\":5161:5165   */\n  0x20\n    /* \"#utility.yul\":5158:5159   */\n  0x00\n    /* \"#utility.yul\":5148:5166   */\n  keccak256\n    /* \"#utility.yul\":5140:5166   */\n  swap1\n  pop\n    /* \"#utility.yul\":5032:5173   */\n  swap2\n  swap1\n  pop\n  jump\t// out\n    /* \"#utility.yul\":5179:5272   */\ntag_34:\n    /* \"#utility.yul\":5216:5222   */\n  0x00\n    /* \"#utility.yul\":5263:5265   */\n  0x20\n    /* \"#utility.yul\":5258:5260   */\n  0x1f\n    /* \"#utility.yul\":5251:5256   */\n  dup4\n    /* \"#utility.yul\":5247:5261   */\n  add\n    /* \"#utility.yul\":5243:5266   */\n  div\n    /* \"#utility.yul\":5233:5266   */\n  swap1\n  pop\n    /* \"#utility.yul\":5179:5272   */\n  swap2\n  swap1\n  pop\n  jump\t// out\n    /* \"#utility.yul\":5278:5385   */\ntag_35:\n    /* \"#utility.yul\":5322:5330   */\n  0x00\n    /* \"#utility.yul\":5372:5377   */\n  dup3\n    /* \"#utility.yul\":5366:5370   */\n  dup3\n    /* \"#utility.yul\":5362:5378   */\n  shl\n    /* \"#utility.yul\":5341:5378   */\n  swap1\n  pop\n    /* \"#utility.yul\":5278:5385   */\n  swap3\n  swap2\n  pop\n  pop\n  jump\t// out\n    /* \"#utility.yul\":5391:5784   */\ntag_36:\n    /* \"#utility.yul\":5460:5466   */\n  0x00\n    /* \"#utility.yul\":5510:5511   */\n  0x08\n    /* \"#utility.yul\":5498:5508   */\n  dup4\n    /* \"#utility.yul\":5494:5512   */\n  mul\n    /* \"#utility.yul\":5533:5630   */\n  tag_113\n    /* \"#utility.yul\":5563:5629   */\n  0xffffffffffffffffffffffffffffffffffffffffffffffffffffffffffffffff\n    /* \"#utility.yul\":5552:5561   */\n  dup3\n    /* \"#utility.yul\":5533:5630   */\n  tag_35\n  jump\t// in\ntag_113:\n    /* \"#utility.yul\":5651:5690   */\n  tag_114\n    /* \"#utility.yul\":5681:5689   */\n  dup7\n    /* \"#utility.yul\":5670:5679   */\n  dup4\n    /* \"#utility.yul\":5651:5690   */\n  tag_35\n  jump\t// in\ntag_114:\n    /* \"#utility.yul\":5639:5690   */\n  swap6\n  pop\n    /* \"#utility.yul\":5723:5727   */\n  dup1\n    /* \"#utility.yul\":5719:5728   */\n  not\n    /* \"#utility.yul\":5712:5717   */\n  dup5\n    /* \"#utility.yul\":5708:5729   */\n  and\n    /* \"#utility.yul\":5699:5729   */\n  swap4\n  pop\n    /* \"#utility.yul\":5772:5776   */\n  dup1\n    /* \"#utility.yul\":5762:5770   */\n  dup7\n    /* \"#utility.yul\":5758:5777   */\n  and\n    /* \"#utility.yul\":5751:5756   */\n  dup5\n    /* \"#utility.yul\":5748:5778   */\n  or\n    /* \"#utility.yul\":5738:5778   */\n  swap3\n  pop\n    /* \"#utility.yul\":5467:5784   */\n  pop\n  pop\n    /* \"#utility.yul\":5391:5784   */\n  swap4\n  swap3\n  pop\n  pop\n  pop\n  jump\t// out\n    /* \"#utility.yul\":5790:5850   */\ntag_37:\n    /* \"#utility.yul\":5818:5821   */\n  0x00\n    /* \"#utility.yul\":5839:5844   */\n  dup2\n    /* \"#utility.yul\":5832:5844   */\n  swap1\n  pop\n    /* \"#utility.yul\":5790:5850   */\n  swap2\n  swap1\n  pop\n  jump\t// out\n    /* \"#utility.yul\":5856:5998   */\ntag_38:\n    /* \"#utility.yul\":5906:5915   */\n  0x00\n    /* \"#utility.yul\":5939:5992   */\n  tag_117\n    /* \"#utility.yul\":5957:5991   */\n  tag_118\n    /* \"#utility.yul\":5966:5990   */\n  tag_119\n    /* \"#utility.yul\":5984:5989   */\n  dup5\n    /* \"#utility.yul\":5966:5990   */\n  tag_16\n  jump\t// in\ntag_119:\n    /* \"#utility.yul\":5957:5991   */\n  tag_37\n  jump\t// in\ntag_118:\n    /* \"#utility.yul\":5939:5992   */\n  tag_16\n  jump\t// in\ntag_117:\n    /* \"#utility.yul\":5926:5992   */\n  swap1\n  pop\n    /* \"#utility.yul\":5856:5998   */\n  swap2\n  swap1\n  pop\n  jump\t// out\n    /* \"#utility.yul\":6004:6079   */\ntag_39:\n    /* \"#utility.yul\":6047:6050   */\n  0x00\n    /* \"#utility.yul\":6068:6073   */\n  dup2\n    /* \"#utility.yul\":6061:6073   */\n  swap1\n  pop\n    /* \"#utility.yul\":6004:6079   */\n  swap2\n  swap1\n  pop\n  jump\t// out\n    /* \"#utility.yul\":6085:6354   */\ntag_40:\n    /* \"#utility.yul\":6195:6234   */\n  tag_122\n    /* \"#utility.yul\":6226:6233   */\n  dup4\n    /* \"#utility.yul\":6195:6234   */\n  tag_38\n  jump\t// in\ntag_122:\n    /* \"#utility.yul\":6256:6347   */\n  tag_123\n    /* \"#utility.yul\":6305:6346   */\n  tag_124\n    /* \"#utility.yul\":6329:6345   */\n  dup3\n    /* \"#utility.yul\":6305:6346   */\n  tag_39\n  jump\t// in\ntag_124:\n    /* \"#utility.yul\":6297:6303   */\n  dup5\n    /* \"#utility.yul\":6290:6294   */\n  dup5\n    /* \"#utility.yul\":6284:6295   */\n  sload\n    /* \"#utility.yul\":6256:6347   */\n  tag_36\n  jump\t// in\ntag_123:\n    /* \"#utility.yul\":6250:6254   */\n  dup3\n    /* \"#utility.yul\":6243:6348   */\n  sstore\n    /* \"#utility.yul\":6161:6354   */\n  pop\n    /* \"#utility.yul\":6085:6354   */\n  pop\n  pop\n  pop\n  jump\t// out\n    /* \"#utility.yul\":6360:6433   */\ntag_41:\n    /* \"#utility.yul\":6405:6408   */\n  0x00\n    /* \"#utility.yul\":6360:6433   */\n  swap1\n  jump\t// out\n    /* \"#utility.yul\":6439:6628   */\ntag_42:\n    /* \"#utility.yul\":6516:6548   */\n  tag_127\n  tag_41\n  jump\t// in\ntag_127:\n    /* \"#utility.yul\":6557:6622   */\n  tag_128\n    /* \"#utility.yul\":6615:6621   */\n  dup2\n    /* \"#utility.yul\":6607:6613   */\n  dup5\n    /* \"#utility.yul\":6601:6605   */\n  dup5\n    /* \"#utility.yul\":6557:6622   */\n  tag_40\n  jump\t// in\ntag_128:\n    /* \"#utility.yul\":6492:6628   */\n  pop\n    /* \"#utility.yul\":6439:6628   */\n  pop\n  pop\n  jump\t// out\n    /* \"#utility.yul\":6634:6820   */\ntag_43:\n    /* \"#utility.yul\":6694:6814   */\ntag_130:\n    /* \"#utility.yul\":6711:6714   */\n  dup2\n    /* \"#utility.yul\":6704:6709   */\n  dup2\n    /* \"#utility.yul\":6701:6715   */\n  lt\n    /* \"#utility.yul\":6694:6814   */\n  iszero\n  tag_132\n  jumpi\n    /* \"#utility.yul\":6765:6804   */\n  tag_133\n    /* \"#utility.yul\":6802:6803   */\n  0x00\n    /* \"#utility.yul\":6795:6800   */\n  dup3\n    /* \"#utility.yul\":6765:6804   */\n  tag_42\n  jump\t// in\ntag_133:\n    /* \"#utility.yul\":6738:6739   */\n  0x01\n    /* \"#utility.yul\":6731:6736   */\n  dup2\n    /* \"#utility.yul\":6727:6740   */\n  add\n    /* \"#utility.yul\":6718:6740   */\n  swap1\n  pop\n    /* \"#utility.yul\":6694:6814   */\n  jump(tag_130)\ntag_132:\n    /* \"#utility.yul\":6634:6820   */\n  pop\n  pop\n  jump\t// out\n    /* \"#utility.yul\":6826:7369   */\ntag_44:\n    /* \"#utility.yul\":6927:6929   */\n  0x1f\n    /* \"#utility.yul\":6922:6925   */\n  dup3\n    /* \"#utility.yul\":6919:6930   */\n  gt\n    /* \"#utility.yul\":6916:7362   */\n  iszero\n  tag_135\n  jumpi\n    /* \"#utility.yul\":6961:6999   */\n  tag_136\n    /* \"#utility.yul\":6993:6998   */\n  dup2\n    /* \"#utility.yul\":6961:6999   */\n  tag_33\n  jump\t// in\ntag_136:\n    /* \"#utility.yul\":7045:7074   */\n  tag_137\n    /* \"#utility.yul\":7063:7073   */\n  dup5\n    /* \"#utility.yul\":7045:7074   */\n  tag_34\n  jump\t// in\ntag_137:\n    /* \"#utility.yul\":7035:7043   */\n  dup2\n    /* \"#utility.yul\":7031:7075   */\n  add\n    /* \"#utility.yul\":7228:7230   */\n  0x20\n    /* \"#utility.yul\":7216:7226   */\n  dup6\n    /* \"#utility.yul\":7213:7231   */\n  lt\n    /* \"#utility.yul\":7210:7259   */\n  iszero\n  tag_138\n  jumpi\n    /* \"#utility.yul\":7249:7257   */\n  dup2\n    /* \"#utility.yul\":7234:7257   */\n  swap1\n  pop\n    /* \"#utility.yul\":7210:7259   */\ntag_138:\n    /* \"#utility.yul\":7272:7352   */\n  tag_139\n    /* \"#utility.yul\":7328:7350   */\n  tag_140\n    /* \"#utility.yul\":7346:7349   */\n  dup6\n    /* \"#utility.yul\":7328:7350   */\n  tag_34\n  jump\t// in\ntag_140:\n    /* \"#utility.yul\":7318:7326   */\n  dup4\n    /* \"#utility.yul\":7314:7351   */\n  add\n    /* \"#utility.yul\":7301:7312   */\n  dup3\n    /* \"#utility.yul\":7272:7352   */\n  tag_43\n  jump\t// in\ntag_139:\n    /* \"#utility.yul\":6931:7362   */\n  pop\n  pop\n    /* \"#utility.yul\":6916:7362   */\ntag_135:\n    /* \"#utility.yul\":6826:7369   */\n  pop\n  pop\n  pop\n  jump\t// out\n    /* \"#utility.yul\":7375:7492   */\ntag_45:\n    /* \"#utility.yul\":7429:7437   */\n  0x00\n    /* \"#utility.yul\":7479:7484   */\n  dup3\n    /* \"#utility.yul\":7473:7477   */\n  dup3\n    /* \"#utility.yul\":7469:7485   */\n  shr\n    /* \"#utility.yul\":7448:7485   */\n  swap1\n  pop\n    /* \"#utility.yul\":7375:7492   */\n  swap3\n  swap2\n  pop\n  pop\n  jump\t// out\n    /* \"#utility.yul\":7498:7667   */\ntag_46:\n    /* \"#utility.yul\":7542:7548   */\n  0x00\n    /* \"#utility.yul\":7575:7626   */\n  tag_143\n    /* \"#utility.yul\":7623:7624   */\n  0x00\n    /* \"#utility.yul\":7619:7625   */\n  not\n    /* \"#utility.yul\":7611:7616   */\n  dup5\n    /* \"#utility.yul\":7608:7609   */\n  0x08\n    /* \"#utility.yul\":7604:7617   */\n  mul\n    /* \"#utility.yul\":7575:7626   */\n  tag_45\n  jump\t// in\ntag_143:\n    /* \"#utility.yul\":7571:7627   */\n  not\n    /* \"#utility.yul\":7656:7660   */\n  dup1\n    /* \"#utility.yul\":7650:7654   */\n  dup4\n    /* \"#utility.yul\":7646:7661   */\n  and\n    /* \"#utility.yul\":7636:7661   */\n  swap2\n  pop\n    /* \"#utility.yul\":7549:7667   */\n  pop\n    /* \"#utility.yul\":7498:7667   */\n  swap3\n  swap2\n  pop\n  pop\n  jump\t// out\n    /* \"#utility.yul\":7672:7967   */\ntag_47:\n    /* \"#utility.yul\":7748:7752   */\n  0x00\n    /* \"#utility.yul\":7894:7923   */\n  tag_145\n    /* \"#utility.yul\":7919:7922   */\n  dup4\n    /* \"#utility.yul\":7913:7917   */\n  dup4\n    /* \"#utility.yul\":7894:7923   */\n  tag_46\n  jump\t// in\ntag_145:\n    /* \"#utility.yul\":7886:7923   */\n  swap2\n  pop\n    /* \"#utility.yul\":7956:7959   */\n  dup3\n    /* \"#utility.yul\":7953:7954   */\n  0x02\n    /* \"#utility.yul\":7949:7960   */\n  mul\n    /* \"#utility.yul\":7943:7947   */\n  dup3\n    /* \"#utility.yul\":7940:7961   */\n  or\n    /* \"#utility.yul\":7932:7961   */\n  swap1\n  pop\n    /* \"#utility.yul\":7672:7967   */\n  swap3\n  swap2\n  pop\n  pop\n  jump\t// out\n    /* \"#utility.yul\":7972:9367   */\ntag_11:\n    /* \"#utility.yul\":8089:8126   */\n  tag_147\n    /* \"#utility.yul\":8122:8125   */\n  dup3\n    /* \"#utility.yul\":8089:8126   */\n  tag_30\n  jump\t// in\ntag_147:\n    /* \"#utility.yul\":8191:8209   */\n  0xffffffffffffffff\n    /* \"#utility.yul\":8183:8189   */\n  dup2\n    /* \"#utility.yul\":8180:8210   */\n  gt\n    /* \"#utility.yul\":8177:8233   */\n  iszero\n  tag_148\n  jumpi\n    /* \"#utility.yul\":8213:8231   */\n  tag_149\n  tag_22\n  jump\t// in\ntag_149:\n    /* \"#utility.yul\":8177:8233   */\ntag_148:\n    /* \"#utility.yul\":8257:8295   */\n  tag_150\n    /* \"#utility.yul\":8289:8293   */\n  dup3\n    /* \"#utility.yul\":8283:8294   */\n  sload\n    /* \"#utility.yul\":8257:8295   */\n  tag_32\n  jump\t// in\ntag_150:\n    /* \"#utility.yul\":8342:8409   */\n  tag_151\n    /* \"#utility.yul\":8402:8408   */\n  dup3\n    /* \"#utility.yul\":8394:8400   */\n  dup3\n    /* \"#utility.yul\":8388:8392   */\n  dup6\n    /* \"#utility.yul\":8342:8409   */\n  tag_44\n  jump\t// in\ntag_151:\n    /* \"#utility.yul\":8436:8437   */\n  0x00\n    /* \"#utility.yul\":8460:8464   */\n  0x20\n    /* \"#utility.yul\":8447:8464   */\n  swap1\n  pop\n    /* \"#utility.yul\":8492:8494   */\n  0x1f\n    /* \"#utility.yul\":8484:8490   */\n  dup4\n    /* \"#utility.yul\":8481:8495   */\n  gt\n    /* \"#utility.yul\":8509:8510   */\n  0x01\n    /* \"#utility.yul\":8504:9122   */\n  dup2\n  eq\n  tag_153\n  jumpi\n    /* \"#utility.yul\":9166:9167   */\n  0x00\n    /* \"#utility.yul\":9183:9189   */\n  dup5\n    /* \"#utility.yul\":9180:9257   */\n  iszero\n  tag_154\n  jumpi\n    /* \"#utility.yul\":9232:9241   */\n  dup3\n    /* \"#utility.yul\":9227:9230   */\n  dup8\n    /* \"#utility.yul\":9223:9242   */\n  add\n    /* \"#utility.yul\":9217:9243   */\n  mload\n    /* \"#utility.yul\":9208:9243   */\n  swap1\n  pop\n    /* \"#utility.yul\":9180:9257   */\ntag_154:\n    /* \"#utility.yul\":9283:9350   */\n  tag_155\n    /* \"#utility.yul\":9343:9349   */\n  dup6\n    /* \"#utility.yul\":9336:9341   */\n  dup3\n    /* \"#utility.yul\":9283:9350   */\n  tag_47\n  jump\t// in\ntag_155:\n    /* \"#utility.yul\":9277:9281   */\n  dup7\n    /* \"#utility.yul\":9270:9351   */\n  sstore\n    /* \"#utility.yul\":9139:9361   */\n  pop\n    /* \"#utility.yul\":8474:9361   */\n  jump(tag_152)\n    /* \"#utility.yul\":8504:9122   */\ntag_153:\n    /* \"#utility.yul\":8556:8560   */\n  0x1f\n    /* \"#utility.yul\":8552:8561   */\n  not\n    /* \"#utility.yul\":8544:8550   */\n  dup5\n    /* \"#utility.yul\":8540:8562   */\n  and\n    /* \"#utility.yul\":8590:8627   */\n  tag_156\n    /* \"#utility.yul\":8622:8626   */\n  dup7\n    /* \"#utility.yul\":8590:8627   */\n  tag_33\n  jump\t// in\ntag_156:\n    /* \"#utility.yul\":8649:8650   */\n  0x00\n    /* \"#utility.yul\":8663:8871   */\ntag_157:\n    /* \"#utility.yul\":8677:8684   */\n  dup3\n    /* \"#utility.yul\":8674:8675   */\n  dup2\n    /* \"#utility.yul\":8671:8685   */\n  lt\n    /* \"#utility.yul\":8663:8871   */\n  iszero\n  tag_159\n  jumpi\n    /* \"#utility.yul\":8756:8765   */\n  dup5\n    /* \"#utility.yul\":8751:8754   */\n  dup10\n    /* \"#utility.yul\":8747:8766   */\n  add\n    /* \"#utility.yul\":8741:8767   */\n  mload\n    /* \"#utility.yul\":8733:8739   */\n  dup3\n    /* \"#utility.yul\":8726:8768   */\n  sstore\n    /* \"#utility.yul\":8807:8808   */\n  0x01\n    /* \"#utility.yul\":8799:8805   */\n  dup3\n    /* \"#utility.yul\":8795:8809   */\n  add\n    /* \"#utility.yul\":8785:8809   */\n  swap2\n  pop\n    /* \"#utility.yul\":8854:8856   */\n  0x20\n    /* \"#utility.yul\":8843:8852   */\n  dup6\n    /* \"#utility.yul\":8839:8857   */\n  add\n    /* \"#utility.yul\":8826:8857   */\n  swap5\n  pop\n    /* \"#utility.yul\":8700:8704   */\n  0x20\n    /* \"#utility.yul\":8697:8698   */\n  dup2\n    /* \"#utility.yul\":8693:8705   */\n  add\n    /* \"#utility.yul\":8688:8705   */\n  swap1\n  pop\n    /* \"#utility.yul\":8663:8871   */\n  jump(tag_157)\ntag_159:\n    /* \"#utility.yul\":8899:8905   */\n  dup7\n    /* \"#utility.yul\":8890:8897   */\n  dup4\n    /* \"#utility.yul\":8887:8906   */\n  lt\n    /* \"#utility.yul\":8884:9063   */\n  iszero\n  tag_160\n  jumpi\n    /* \"#utility.yul\":8957:8966   */\n  dup5\n    /* \"#utility.yul\":8952:8955   */\n  dup10\n    /* \"#utility.yul\":8948:8967   */\n  add\n    /* \"#utility.yul\":8942:8968   */\n  mload\n    /* \"#utility.yul\":9000:9048   */\n  tag_161\n    /* \"#utility.yul\":9042:9046   */\n  0x1f\n    /* \"#utility.yul\":9034:9040   */\n  dup10\n    /* \"#utility.yul\":9030:9047   */\n  and\n    /* \"#utility.yul\":9019:9028   */\n  dup3\n    /* \"#utility.yul\":9000:9048   */\n  tag_46\n  jump\t// in\ntag_161:\n    /* \"#utility.yul\":8992:8998   */\n  dup4\n    /* \"#utility.yul\":8985:9049   */\n  sstore\n    /* \"#utility.yul\":8907:9063   */\n  pop\n    /* \"#utility.yul\":8884:9063   */\ntag_160:\n    /* \"#utility.yul\":9109:9110   */\n  0x01\n    /* \"#utility.yul\":9105:9106   */\n  0x02\n    /* \"#utility.yul\":9097:9103   */\n  dup9\n    /* \"#utility.yul\":9093:9107   */\n  mul\n    /* \"#utility.yul\":9089:9111   */\n  add\n    /* \"#utility.yul\":9083:9087   */\n  dup9\n    /* \"#utility.yul\":9076:9112   */\n  sstore\n    /* \"#utility.yul\":8511:9122   */\n  pop\n  pop\n  pop\n    /* \"#utility.yul\":8474:9361   */\ntag_152:\n  pop\n    /* \"#utility.yul\":8064:9367   */\n  pop\n  pop\n  pop\n    /* \"#utility.yul\":7972:9367   */\n  pop\n  pop\n  jump\t// out\n    /* \"Learning Pth/CFunding.sol\":61:2582  contract Crowd_Funding {... */\ntag_12:\n  dataSize(sub_0)\n  dup1\n  dataOffset(sub_0)\n  0x00\n  codecopy\n  0x00\n  return\nstop\n\nsub_0: assembly {\n        /* \"Learning Pth/CFunding.sol\":61:2582  contract Crowd_Funding {... */\n      mstore(0x40, 0x80)\n      jumpi(tag_1, lt(calldatasize, 0x04))\n      shr(0xe0, calldataload(0x00))\n      dup1\n      0x69ef5e0a\n      gt\n      tag_16\n      jumpi\n      dup1\n      0xb2fa1c9e\n      gt\n      tag_17\n      jumpi\n      dup1\n      0xb2fa1c9e\n      eq\n      tag_12\n      jumpi\n      dup1\n      0xc24a0f8b\n      eq\n      tag_13\n      jumpi\n      dup1\n      0xd7bb99ba\n      eq\n      tag_14\n      jumpi\n      dup1\n      0xf7260d3e\n      eq\n      tag_15\n      jumpi\n      jump(tag_1)\n    tag_17:\n      dup1\n      0x69ef5e0a\n      eq\n      tag_9\n      jumpi\n      dup1\n      0x953b8fb8\n      eq\n      tag_10\n      jumpi\n      dup1\n      0xb2d5ae44\n      eq\n      tag_11\n      jumpi\n      jump(tag_1)\n    tag_16:\n      dup1\n      0x12065fe0\n      gt\n      tag_18\n      jumpi\n      dup1\n      0x12065fe0\n      eq\n      tag_5\n      jumpi\n      dup1\n      0x1e171d7c\n      eq\n      tag_6\n      jumpi\n      dup1\n      0x3ccfd60b\n      eq\n      tag_7\n      jumpi\n      dup1\n      0x4a9e3635\n      eq\n      tag_8\n      jumpi\n      jump(tag_1)\n    tag_18:\n      dup1\n      0x031b3677\n      eq\n      tag_2\n      jumpi\n      dup1\n      0x0b97bc86\n      eq\n      tag_3\n      jumpi\n      dup1\n      0x0dcf4b8f\n      eq\n      tag_4\n      jumpi\n    tag_1:\n      0x00\n      dup1\n      revert\n        /* \"Learning Pth/CFunding.sol\":279:319  mapping (address => uint) public funders */\n    tag_2:\n      callvalue\n      dup1\n      iszero\n      tag_19\n      jumpi\n      0x00\n      dup1\n      revert\n    tag_19:\n      pop\n      tag_20\n      0x04\n      dup1\n      calldatasize\n      sub\n      dup2\n      add\n      swap1\n      tag_21\n      swap2\n      swap1\n      tag_22\n      jump\t// in\n    tag_21:\n      tag_23\n      jump\t// in\n    tag_20:\n      mload(0x40)\n      tag_24\n      swap2\n      swap1\n      tag_25\n      jump\t// in\n    tag_24:\n      mload(0x40)\n      dup1\n      swap2\n      sub\n      swap1\n      return\n        /* \"Learning Pth/CFunding.sol\":188:209  uint public startDate */\n    tag_3:\n      callvalue\n      dup1\n      iszero\n      tag_26\n      jumpi\n      0x00\n      dup1\n      revert\n    tag_26:\n      pop\n      tag_27\n      tag_28\n      jump\t// in\n    tag_27:\n      mload(0x40)\n      tag_29\n      swap2\n      swap1\n      tag_25\n      jump\t// in\n    tag_29:\n      mload(0x40)\n      dup1\n      swap2\n      sub\n      swap1\n      return\n        /* \"Learning Pth/CFunding.sol\":152:181  uint public totalContribution */\n    tag_4:\n      callvalue\n      dup1\n      iszero\n      tag_30\n      jumpi\n      0x00\n      dup1\n      revert\n    tag_30:\n      pop\n      tag_31\n      tag_32\n      jump\t// in\n    tag_31:\n      mload(0x40)\n      tag_33\n      swap2\n      swap1\n      tag_25\n      jump\t// in\n    tag_33:\n      mload(0x40)\n      dup1\n      swap2\n      sub\n      swap1\n      return\n        /* \"Learning Pth/CFunding.sol\":2484:2579  function getBalance() public view returns(uint) {... */\n    tag_5:\n      callvalue\n      dup1\n      iszero\n      tag_34\n      jumpi\n      0x00\n      dup1\n      revert\n    tag_34:\n      pop\n      tag_35\n      tag_36\n      jump\t// in\n    tag_35:\n      mload(0x40)\n      tag_37\n      swap2\n      swap1\n      tag_25\n      jump\t// in\n    tag_37:\n      mload(0x40)\n      dup1\n      swap2\n      sub\n      swap1\n      return\n        /* \"Learning Pth/CFunding.sol\":326:347  bool public hasFunded */\n    tag_6:\n      callvalue\n      dup1\n      iszero\n      tag_38\n      jumpi\n      0x00\n      dup1\n      revert\n    tag_38:\n      pop\n      tag_39\n      tag_40\n      jump\t// in\n    tag_39:\n      mload(0x40)\n      tag_41\n      swap2\n      swap1\n      tag_42\n      jump\t// in\n    tag_41:\n      mload(0x40)\n      dup1\n      swap2\n      sub\n      swap1\n      return\n        /* \"Learning Pth/CFunding.sol\":1566:1884  function withdraw() public onlyReceiver {... */\n    tag_7:\n      callvalue\n      dup1\n      iszero\n      tag_43\n      jumpi\n      0x00\n      dup1\n      revert\n    tag_43:\n      pop\n      tag_44\n      tag_45\n      jump\t// in\n    tag_44:\n      stop\n        /* \"Learning Pth/CFunding.sol\":242:272  string public crowdFundingName */\n    tag_8:\n      callvalue\n      dup1\n      iszero\n      tag_46\n      jumpi\n      0x00\n      dup1\n      revert\n    tag_46:\n      pop\n      tag_47\n      tag_48\n      jump\t// in\n    tag_47:\n      mload(0x40)\n      tag_49\n      swap2\n      swap1\n      tag_50\n      jump\t// in\n    tag_49:\n      mload(0x40)\n      dup1\n      swap2\n      sub\n      swap1\n      return\n        /* \"Learning Pth/CFunding.sol\":1918:1999  function extendDeadline() public onlyReceiver{... */\n    tag_9:\n      callvalue\n      dup1\n      iszero\n      tag_51\n      jumpi\n      0x00\n      dup1\n      revert\n    tag_51:\n      pop\n      tag_52\n      tag_53\n      jump\t// in\n    tag_52:\n      stop\n        /* \"Learning Pth/CFunding.sol\":121:145  uint public targetAmount */\n    tag_10:\n      callvalue\n      dup1\n      iszero\n      tag_54\n      jumpi\n      0x00\n      dup1\n      revert\n    tag_54:\n      pop\n      tag_55\n      tag_56\n      jump\t// in\n    tag_55:\n      mload(0x40)\n      tag_57\n      swap2\n      swap1\n      tag_25\n      jump\t// in\n    tag_57:\n      mload(0x40)\n      dup1\n      swap2\n      sub\n      swap1\n      return\n        /* \"Learning Pth/CFunding.sol\":2026:2453  function getRefund() public {... */\n    tag_11:\n      callvalue\n      dup1\n      iszero\n      tag_58\n      jumpi\n      0x00\n      dup1\n      revert\n    tag_58:\n      pop\n      tag_59\n      tag_60\n      jump\t// in\n    tag_59:\n      stop\n        /* \"Learning Pth/CFunding.sol\":354:376  bool public isComplete */\n    tag_12:\n      callvalue\n      dup1\n      iszero\n      tag_61\n      jumpi\n      0x00\n      dup1\n      revert\n    tag_61:\n      pop\n      tag_62\n      tag_63\n      jump\t// in\n    tag_62:\n      mload(0x40)\n      tag_64\n      swap2\n      swap1\n      tag_42\n      jump\t// in\n    tag_64:\n      mload(0x40)\n      dup1\n      swap2\n      sub\n      swap1\n      return\n        /* \"Learning Pth/CFunding.sol\":216:235  uint public endDate */\n    tag_13:\n      callvalue\n      dup1\n      iszero\n      tag_65\n      jumpi\n      0x00\n      dup1\n      revert\n    tag_65:\n      pop\n      tag_66\n      tag_67\n      jump\t// in\n    tag_66:\n      mload(0x40)\n      tag_68\n      swap2\n      swap1\n      tag_25\n      jump\t// in\n    tag_68:\n      mload(0x40)\n      dup1\n      swap2\n      sub\n      swap1\n      return\n        /* \"Learning Pth/CFunding.sol\":953:1345  function contribute() public payable {... */\n    tag_14:\n      tag_69\n      tag_70\n      jump\t// in\n    tag_69:\n      stop\n        /* \"Learning Pth/CFunding.sol\":91:114  address public receiver */\n    tag_15:\n      callvalue\n      dup1\n      iszero\n      tag_71\n      jumpi\n      0x00\n      dup1\n      revert\n    tag_71:\n      pop\n      tag_72\n      tag_73\n      jump\t// in\n    tag_72:\n      mload(0x40)\n      tag_74\n      swap2\n      swap1\n      tag_75\n      jump\t// in\n    tag_74:\n      mload(0x40)\n      dup1\n      swap2\n      sub\n      swap1\n      return\n        /* \"Learning Pth/CFunding.sol\":279:319  mapping (address => uint) public funders */\n    tag_23:\n      mstore(0x20, 0x06)\n      dup1\n      0x00\n      mstore\n      keccak256(0x00, 0x40)\n      0x00\n      swap2\n      pop\n      swap1\n      pop\n      sload\n      dup2\n      jump\t// out\n        /* \"Learning Pth/CFunding.sol\":188:209  uint public startDate */\n    tag_28:\n      sload(0x03)\n      dup2\n      jump\t// out\n        /* \"Learning Pth/CFunding.sol\":152:181  uint public totalContribution */\n    tag_32:\n      sload(0x02)\n      dup2\n      jump\t// out\n        /* \"Learning Pth/CFunding.sol\":2484:2579  function getBalance() public view returns(uint) {... */\n    tag_36:\n        /* \"Learning Pth/CFunding.sol\":2526:2530  uint */\n      0x00\n        /* \"Learning Pth/CFunding.sol\":2550:2571  address(this).balance */\n      selfbalance\n        /* \"Learning Pth/CFunding.sol\":2543:2571  return address(this).balance */\n      swap1\n      pop\n        /* \"Learning Pth/CFunding.sol\":2484:2579  function getBalance() public view returns(uint) {... */\n      swap1\n      jump\t// out\n        /* \"Learning Pth/CFunding.sol\":326:347  bool public hasFunded */\n    tag_40:\n      0x07\n      0x00\n      swap1\n      sload\n      swap1\n      0x0100\n      exp\n      swap1\n      div\n      0xff\n      and\n      dup2\n      jump\t// out\n        /* \"Learning Pth/CFunding.sol\":1566:1884  function withdraw() public onlyReceiver {... */\n    tag_45:\n        /* \"Learning Pth/CFunding.sol\":1444:1454  msg.sender */\n      caller\n        /* \"Learning Pth/CFunding.sol\":1432:1454  receiver == msg.sender */\n      0xffffffffffffffffffffffffffffffffffffffff\n      and\n        /* \"Learning Pth/CFunding.sol\":1432:1440  receiver */\n      0x00\n      dup1\n      sload\n      swap1\n      0x0100\n      exp\n      swap1\n      div\n      0xffffffffffffffffffffffffffffffffffffffff\n      and\n        /* \"Learning Pth/CFunding.sol\":1432:1454  receiver == msg.sender */\n      0xffffffffffffffffffffffffffffffffffffffff\n      and\n      eq\n        /* \"Learning Pth/CFunding.sol\":1424:1495  require(receiver == msg.sender, \"only receiver can call this function\") */\n      tag_78\n      jumpi\n      mload(0x40)\n      0x08c379a000000000000000000000000000000000000000000000000000000000\n      dup2\n      mstore\n      0x04\n      add\n      tag_79\n      swap1\n      tag_80\n      jump\t// in\n    tag_79:\n      mload(0x40)\n      dup1\n      swap2\n      sub\n      swap1\n      revert\n    tag_78:\n        /* \"Learning Pth/CFunding.sol\":1646:1658  targetAmount */\n      sload(0x01)\n        /* \"Learning Pth/CFunding.sol\":1625:1642  totalContribution */\n      sload(0x02)\n        /* \"Learning Pth/CFunding.sol\":1625:1658  totalContribution >= targetAmount */\n      lt\n      iszero\n        /* \"Learning Pth/CFunding.sol\":1617:1702  require(totalContribution >= targetAmount, \"the target amount has not been achieved\") */\n      tag_82\n      jumpi\n      mload(0x40)\n      0x08c379a000000000000000000000000000000000000000000000000000000000\n      dup2\n      mstore\n      0x04\n      add\n      tag_83\n      swap1\n      tag_84\n      jump\t// in\n    tag_83:\n      mload(0x40)\n      dup1\n      swap2\n      sub\n      swap1\n      revert\n    tag_82:\n        /* \"Learning Pth/CFunding.sol\":1736:1740  true */\n      0x01\n        /* \"Learning Pth/CFunding.sol\":1723:1733  isComplete */\n      0x07\n      0x01\n        /* \"Learning Pth/CFunding.sol\":1723:1740  isComplete = true */\n      0x0100\n      exp\n      dup2\n      sload\n      dup2\n      0xff\n      mul\n      not\n      and\n      swap1\n      dup4\n      iszero\n      iszero\n      mul\n      or\n      swap1\n      sstore\n      pop\n        /* \"Learning Pth/CFunding.sol\":1751:1761  uint value */\n      0x00\n        /* \"Learning Pth/CFunding.sol\":1764:1785  address(this).balance */\n      selfbalance\n        /* \"Learning Pth/CFunding.sol\":1751:1785  uint value = address(this).balance */\n      swap1\n      pop\n        /* \"Learning Pth/CFunding.sol\":1804:1812  receiver */\n      0x00\n      dup1\n      sload\n      swap1\n      0x0100\n      exp\n      swap1\n      div\n      0xffffffffffffffffffffffffffffffffffffffff\n      and\n        /* \"Learning Pth/CFunding.sol\":1796:1822  payable(receiver).transfer */\n      0xffffffffffffffffffffffffffffffffffffffff\n      and\n        /* \"Learning Pth/CFunding.sol\":1796:1829  payable(receiver).transfer(value) */\n      0x08fc\n        /* \"Learning Pth/CFunding.sol\":1823:1828  value */\n      dup3\n        /* \"Learning Pth/CFunding.sol\":1796:1829  payable(receiver).transfer(value) */\n      swap1\n      dup2\n      iszero\n      mul\n      swap1\n      mload(0x40)\n      0x00\n      mload(0x40)\n      dup1\n      dup4\n      sub\n      dup2\n      dup6\n      dup9\n      dup9\n      call\n      swap4\n      pop\n      pop\n      pop\n      pop\n      iszero\n      dup1\n      iszero\n      tag_86\n      jumpi\n      returndatasize\n      0x00\n      dup1\n      returndatacopy\n      revert(0x00, returndatasize)\n    tag_86:\n      pop\n        /* \"Learning Pth/CFunding.sol\":1847:1876  hasWithdrawn(receiver, value) */\n      0x1af6e864e9128d8512e8f900b05cf8b9865bda2b23d6491e856825bb2b6b11b1\n        /* \"Learning Pth/CFunding.sol\":1860:1868  receiver */\n      0x00\n      dup1\n      sload\n      swap1\n      0x0100\n      exp\n      swap1\n      div\n      0xffffffffffffffffffffffffffffffffffffffff\n      and\n        /* \"Learning Pth/CFunding.sol\":1870:1875  value */\n      dup3\n        /* \"Learning Pth/CFunding.sol\":1847:1876  hasWithdrawn(receiver, value) */\n      mload(0x40)\n      tag_87\n      swap3\n      swap2\n      swap1\n      tag_88\n      jump\t// in\n    tag_87:\n      mload(0x40)\n      dup1\n      swap2\n      sub\n      swap1\n      log1\n        /* \"Learning Pth/CFunding.sol\":1606:1884  {... */\n      pop\n        /* \"Learning Pth/CFunding.sol\":1566:1884  function withdraw() public onlyReceiver {... */\n      jump\t// out\n        /* \"Learning Pth/CFunding.sol\":242:272  string public crowdFundingName */\n    tag_48:\n      0x05\n      dup1\n      sload\n      tag_89\n      swap1\n      tag_90\n      jump\t// in\n    tag_89:\n      dup1\n      0x1f\n      add\n      0x20\n      dup1\n      swap2\n      div\n      mul\n      0x20\n      add\n      mload(0x40)\n      swap1\n      dup2\n      add\n      0x40\n      mstore\n      dup1\n      swap3\n      swap2\n      swap1\n      dup2\n      dup2\n      mstore\n      0x20\n      add\n      dup3\n      dup1\n      sload\n      tag_91\n      swap1\n      tag_90\n      jump\t// in\n    tag_91:\n      dup1\n      iszero\n      tag_92\n      jumpi\n      dup1\n      0x1f\n      lt\n      tag_93\n      jumpi\n      0x0100\n      dup1\n      dup4\n      sload\n      div\n      mul\n      dup4\n      mstore\n      swap2\n      0x20\n      add\n      swap2\n      jump(tag_92)\n    tag_93:\n      dup3\n      add\n      swap2\n      swap1\n      0x00\n      mstore\n      keccak256(0x00, 0x20)\n      swap1\n    tag_94:\n      dup2\n      sload\n      dup2\n      mstore\n      swap1\n      0x01\n      add\n      swap1\n      0x20\n      add\n      dup1\n      dup4\n      gt\n      tag_94\n      jumpi\n      dup3\n      swap1\n      sub\n      0x1f\n      and\n      dup3\n      add\n      swap2\n    tag_92:\n      pop\n      pop\n      pop\n      pop\n      pop\n      dup2\n      jump\t// out\n        /* \"Learning Pth/CFunding.sol\":1918:1999  function extendDeadline() public onlyReceiver{... */\n    tag_53:\n        /* \"Learning Pth/CFunding.sol\":1444:1454  msg.sender */\n      caller\n        /* \"Learning Pth/CFunding.sol\":1432:1454  receiver == msg.sender */\n      0xffffffffffffffffffffffffffffffffffffffff\n      and\n        /* \"Learning Pth/CFunding.sol\":1432:1440  receiver */\n      0x00\n      dup1\n      sload\n      swap1\n      0x0100\n      exp\n      swap1\n      div\n      0xffffffffffffffffffffffffffffffffffffffff\n      and\n        /* \"Learning Pth/CFunding.sol\":1432:1454  receiver == msg.sender */\n      0xffffffffffffffffffffffffffffffffffffffff\n      and\n      eq\n        /* \"Learning Pth/CFunding.sol\":1424:1495  require(receiver == msg.sender, \"only receiver can call this function\") */\n      tag_96\n      jumpi\n      mload(0x40)\n      0x08c379a000000000000000000000000000000000000000000000000000000000\n      dup2\n      mstore\n      0x04\n      add\n      tag_97\n      swap1\n      tag_80\n      jump\t// in\n    tag_97:\n      mload(0x40)\n      dup1\n      swap2\n      sub\n      swap1\n      revert\n    tag_96:\n        /* \"Learning Pth/CFunding.sol\":1985:1991  3 days */\n      0x03f480\n        /* \"Learning Pth/CFunding.sol\":1974:1981  endDate */\n      0x04\n      0x00\n        /* \"Learning Pth/CFunding.sol\":1974:1991  endDate += 3 days */\n      dup3\n      dup3\n      sload\n      tag_99\n      swap2\n      swap1\n      tag_100\n      jump\t// in\n    tag_99:\n      swap3\n      pop\n      pop\n      dup2\n      swap1\n      sstore\n      pop\n        /* \"Learning Pth/CFunding.sol\":1918:1999  function extendDeadline() public onlyReceiver{... */\n      jump\t// out\n        /* \"Learning Pth/CFunding.sol\":121:145  uint public targetAmount */\n    tag_56:\n      sload(0x01)\n      dup2\n      jump\t// out\n        /* \"Learning Pth/CFunding.sol\":2026:2453  function getRefund() public {... */\n    tag_60:\n        /* \"Learning Pth/CFunding.sol\":2085:2092  endDate */\n      sload(0x04)\n        /* \"Learning Pth/CFunding.sol\":2073:2082  startDate */\n      sload(0x03)\n        /* \"Learning Pth/CFunding.sol\":2073:2092  startDate < endDate */\n      lt\n        /* \"Learning Pth/CFunding.sol\":2065:2142  require(startDate < endDate, \"can't get refund after crowdfunding has ended\") */\n      tag_102\n      jumpi\n      mload(0x40)\n      0x08c379a000000000000000000000000000000000000000000000000000000000\n      dup2\n      mstore\n      0x04\n      add\n      tag_103\n      swap1\n      tag_104\n      jump\t// in\n    tag_103:\n      mload(0x40)\n      dup1\n      swap2\n      sub\n      swap1\n      revert\n    tag_102:\n        /* \"Learning Pth/CFunding.sol\":2183:2184  0 */\n      0x00\n        /* \"Learning Pth/CFunding.sol\":2161:2168  funders */\n      0x06\n        /* \"Learning Pth/CFunding.sol\":2161:2180  funders[msg.sender] */\n      0x00\n        /* \"Learning Pth/CFunding.sol\":2169:2179  msg.sender */\n      caller\n        /* \"Learning Pth/CFunding.sol\":2161:2180  funders[msg.sender] */\n      0xffffffffffffffffffffffffffffffffffffffff\n      and\n      0xffffffffffffffffffffffffffffffffffffffff\n      and\n      dup2\n      mstore\n      0x20\n      add\n      swap1\n      dup2\n      mstore\n      0x20\n      add\n      0x00\n      keccak256\n      sload\n        /* \"Learning Pth/CFunding.sol\":2161:2184  funders[msg.sender] > 0 */\n      gt\n        /* \"Learning Pth/CFunding.sol\":2153:2232  require(funders[msg.sender] > 0, \"you did not participate in the crowdfunding\") */\n      tag_105\n      jumpi\n      mload(0x40)\n      0x08c379a000000000000000000000000000000000000000000000000000000000\n      dup2\n      mstore\n      0x04\n      add\n      tag_106\n      swap1\n      tag_107\n      jump\t// in\n    tag_106:\n      mload(0x40)\n      dup1\n      swap2\n      sub\n      swap1\n      revert\n    tag_105:\n        /* \"Learning Pth/CFunding.sol\":2245:2256  uint amount */\n      0x00\n        /* \"Learning Pth/CFunding.sol\":2259:2266  funders */\n      0x06\n        /* \"Learning Pth/CFunding.sol\":2259:2278  funders[msg.sender] */\n      0x00\n        /* \"Learning Pth/CFunding.sol\":2267:2277  msg.sender */\n      caller\n        /* \"Learning Pth/CFunding.sol\":2259:2278  funders[msg.sender] */\n      0xffffffffffffffffffffffffffffffffffffffff\n      and\n      0xffffffffffffffffffffffffffffffffffffffff\n      and\n      dup2\n      mstore\n      0x20\n      add\n      swap1\n      dup2\n      mstore\n      0x20\n      add\n      0x00\n      keccak256\n      sload\n        /* \"Learning Pth/CFunding.sol\":2245:2278  uint amount = funders[msg.sender] */\n      swap1\n      pop\n        /* \"Learning Pth/CFunding.sol\":2311:2312  0 */\n      0x00\n        /* \"Learning Pth/CFunding.sol\":2289:2296  funders */\n      0x06\n        /* \"Learning Pth/CFunding.sol\":2289:2308  funders[msg.sender] */\n      0x00\n        /* \"Learning Pth/CFunding.sol\":2297:2307  msg.sender */\n      caller\n        /* \"Learning Pth/CFunding.sol\":2289:2308  funders[msg.sender] */\n      0xffffffffffffffffffffffffffffffffffffffff\n      and\n      0xffffffffffffffffffffffffffffffffffffffff\n      and\n      dup2\n      mstore\n      0x20\n      add\n      swap1\n      dup2\n      mstore\n      0x20\n      add\n      0x00\n      keccak256\n        /* \"Learning Pth/CFunding.sol\":2289:2312  funders[msg.sender] = 0 */\n      dup2\n      swap1\n      sstore\n      pop\n        /* \"Learning Pth/CFunding.sol\":2344:2350  amount */\n      dup1\n        /* \"Learning Pth/CFunding.sol\":2323:2340  totalContribution */\n      0x02\n      0x00\n        /* \"Learning Pth/CFunding.sol\":2323:2350  totalContribution -= amount */\n      dup3\n      dup3\n      sload\n      tag_108\n      swap2\n      swap1\n      tag_109\n      jump\t// in\n    tag_108:\n      swap3\n      pop\n      pop\n      dup2\n      swap1\n      sstore\n      pop\n        /* \"Learning Pth/CFunding.sol\":2369:2379  msg.sender */\n      caller\n        /* \"Learning Pth/CFunding.sol\":2361:2389  payable(msg.sender).transfer */\n      0xffffffffffffffffffffffffffffffffffffffff\n      and\n        /* \"Learning Pth/CFunding.sol\":2361:2397  payable(msg.sender).transfer(amount) */\n      0x08fc\n        /* \"Learning Pth/CFunding.sol\":2390:2396  amount */\n      dup3\n        /* \"Learning Pth/CFunding.sol\":2361:2397  payable(msg.sender).transfer(amount) */\n      swap1\n      dup2\n      iszero\n      mul\n      swap1\n      mload(0x40)\n      0x00\n      mload(0x40)\n      dup1\n      dup4\n      sub\n      dup2\n      dup6\n      dup9\n      dup9\n      call\n      swap4\n      pop\n      pop\n      pop\n      pop\n      iszero\n      dup1\n      iszero\n      tag_111\n      jumpi\n      returndatasize\n      0x00\n      dup1\n      returndatacopy\n      revert(0x00, returndatasize)\n    tag_111:\n      pop\n        /* \"Learning Pth/CFunding.sol\":2415:2445  isRefunded(msg.sender, amount) */\n      0x39468c1d71427885cd0ca9666ce55b825f33a599cd88ccd9e542c50d6f2e28d4\n        /* \"Learning Pth/CFunding.sol\":2426:2436  msg.sender */\n      caller\n        /* \"Learning Pth/CFunding.sol\":2438:2444  amount */\n      dup3\n        /* \"Learning Pth/CFunding.sol\":2415:2445  isRefunded(msg.sender, amount) */\n      mload(0x40)\n      tag_112\n      swap3\n      swap2\n      swap1\n      tag_88\n      jump\t// in\n    tag_112:\n      mload(0x40)\n      dup1\n      swap2\n      sub\n      swap1\n      log1\n        /* \"Learning Pth/CFunding.sol\":2054:2453  {... */\n      pop\n        /* \"Learning Pth/CFunding.sol\":2026:2453  function getRefund() public {... */\n      jump\t// out\n        /* \"Learning Pth/CFunding.sol\":354:376  bool public isComplete */\n    tag_63:\n      0x07\n      0x01\n      swap1\n      sload\n      swap1\n      0x0100\n      exp\n      swap1\n      div\n      0xff\n      and\n      dup2\n      jump\t// out\n        /* \"Learning Pth/CFunding.sol\":216:235  uint public endDate */\n    tag_67:\n      sload(0x04)\n      dup2\n      jump\t// out\n        /* \"Learning Pth/CFunding.sol\":953:1345  function contribute() public payable {... */\n    tag_70:\n        /* \"Learning Pth/CFunding.sol\":1021:1028  endDate */\n      sload(0x04)\n        /* \"Learning Pth/CFunding.sol\":1009:1018  startDate */\n      sload(0x03)\n        /* \"Learning Pth/CFunding.sol\":1009:1028  startDate < endDate */\n      lt\n        /* \"Learning Pth/CFunding.sol\":1001:1055  require(startDate < endDate, \"crowdfunding has ended\") */\n      tag_114\n      jumpi\n      mload(0x40)\n      0x08c379a000000000000000000000000000000000000000000000000000000000\n      dup2\n      mstore\n      0x04\n      add\n      tag_115\n      swap1\n      tag_116\n      jump\t// in\n    tag_115:\n      mload(0x40)\n      dup1\n      swap2\n      sub\n      swap1\n      revert\n    tag_114:\n        /* \"Learning Pth/CFunding.sol\":1094:1106  targetAmount */\n      sload(0x01)\n        /* \"Learning Pth/CFunding.sol\":1074:1091  totalContribution */\n      sload(0x02)\n        /* \"Learning Pth/CFunding.sol\":1074:1106  totalContribution < targetAmount */\n      lt\n        /* \"Learning Pth/CFunding.sol\":1066:1145  require(totalContribution < targetAmount, \"the target amount has been reached\") */\n      tag_117\n      jumpi\n      mload(0x40)\n      0x08c379a000000000000000000000000000000000000000000000000000000000\n      dup2\n      mstore\n      0x04\n      add\n      tag_118\n      swap1\n      tag_119\n      jump\t// in\n    tag_118:\n      mload(0x40)\n      dup1\n      swap2\n      sub\n      swap1\n      revert\n    tag_117:\n        /* \"Learning Pth/CFunding.sol\":1158:1168  uint value */\n      0x00\n        /* \"Learning Pth/CFunding.sol\":1171:1180  msg.value */\n      callvalue\n        /* \"Learning Pth/CFunding.sol\":1158:1180  uint value = msg.value */\n      swap1\n      pop\n        /* \"Learning Pth/CFunding.sol\":1213:1218  value */\n      dup1\n        /* \"Learning Pth/CFunding.sol\":1191:1198  funders */\n      0x06\n        /* \"Learning Pth/CFunding.sol\":1191:1210  funders[msg.sender] */\n      0x00\n        /* \"Learning Pth/CFunding.sol\":1199:1209  msg.sender */\n      caller\n        /* \"Learning Pth/CFunding.sol\":1191:1210  funders[msg.sender] */\n      0xffffffffffffffffffffffffffffffffffffffff\n      and\n      0xffffffffffffffffffffffffffffffffffffffff\n      and\n      dup2\n      mstore\n      0x20\n      add\n      swap1\n      dup2\n      mstore\n      0x20\n      add\n      0x00\n      keccak256\n        /* \"Learning Pth/CFunding.sol\":1191:1218  funders[msg.sender] = value */\n      dup2\n      swap1\n      sstore\n      pop\n        /* \"Learning Pth/CFunding.sol\":1250:1255  value */\n      dup1\n        /* \"Learning Pth/CFunding.sol\":1229:1246  totalContribution */\n      0x02\n      0x00\n        /* \"Learning Pth/CFunding.sol\":1229:1255  totalContribution += value */\n      dup3\n      dup3\n      sload\n      tag_120\n      swap2\n      swap1\n      tag_100\n      jump\t// in\n    tag_120:\n      swap3\n      pop\n      pop\n      dup2\n      swap1\n      sstore\n      pop\n        /* \"Learning Pth/CFunding.sol\":1278:1282  true */\n      0x01\n        /* \"Learning Pth/CFunding.sol\":1266:1275  hasFunded */\n      0x07\n      0x00\n        /* \"Learning Pth/CFunding.sol\":1266:1282  hasFunded = true */\n      0x0100\n      exp\n      dup2\n      sload\n      dup2\n      0xff\n      mul\n      not\n      and\n      swap1\n      dup4\n      iszero\n      iszero\n      mul\n      or\n      swap1\n      sstore\n      pop\n        /* \"Learning Pth/CFunding.sol\":1300:1337  hasContributed(msg.sender, msg.value) */\n      0x6e74c4bdbf4d61760a6e0b30521eb2f8149d30b241e3bc325426a99478a10bd7\n        /* \"Learning Pth/CFunding.sol\":1315:1325  msg.sender */\n      caller\n        /* \"Learning Pth/CFunding.sol\":1327:1336  msg.value */\n      callvalue\n        /* \"Learning Pth/CFunding.sol\":1300:1337  hasContributed(msg.sender, msg.value) */\n      mload(0x40)\n      tag_121\n      swap3\n      swap2\n      swap1\n      tag_88\n      jump\t// in\n    tag_121:\n      mload(0x40)\n      dup1\n      swap2\n      sub\n      swap1\n      log1\n        /* \"Learning Pth/CFunding.sol\":990:1345  {... */\n      pop\n        /* \"Learning Pth/CFunding.sol\":953:1345  function contribute() public payable {... */\n      jump\t// out\n        /* \"Learning Pth/CFunding.sol\":91:114  address public receiver */\n    tag_73:\n      0x00\n      dup1\n      sload\n      swap1\n      0x0100\n      exp\n      swap1\n      div\n      0xffffffffffffffffffffffffffffffffffffffff\n      and\n      dup2\n      jump\t// out\n        /* \"#utility.yul\":88:205   */\n    tag_123:\n        /* \"#utility.yul\":197:198   */\n      0x00\n        /* \"#utility.yul\":194:195   */\n      dup1\n        /* \"#utility.yul\":187:199   */\n      revert\n        /* \"#utility.yul\":334:460   */\n    tag_125:\n        /* \"#utility.yul\":371:378   */\n      0x00\n        /* \"#utility.yul\":411:453   */\n      0xffffffffffffffffffffffffffffffffffffffff\n        /* \"#utility.yul\":404:409   */\n      dup3\n        /* \"#utility.yul\":400:454   */\n      and\n        /* \"#utility.yul\":389:454   */\n      swap1\n      pop\n        /* \"#utility.yul\":334:460   */\n      swap2\n      swap1\n      pop\n      jump\t// out\n        /* \"#utility.yul\":466:562   */\n    tag_126:\n        /* \"#utility.yul\":503:510   */\n      0x00\n        /* \"#utility.yul\":532:556   */\n      tag_159\n        /* \"#utility.yul\":550:555   */\n      dup3\n        /* \"#utility.yul\":532:556   */\n      tag_125\n      jump\t// in\n    tag_159:\n        /* \"#utility.yul\":521:556   */\n      swap1\n      pop\n        /* \"#utility.yul\":466:562   */\n      swap2\n      swap1\n      pop\n      jump\t// out\n        /* \"#utility.yul\":568:690   */\n    tag_127:\n        /* \"#utility.yul\":641:665   */\n      tag_161\n        /* \"#utility.yul\":659:664   */\n      dup2\n        /* \"#utility.yul\":641:665   */\n      tag_126\n      jump\t// in\n    tag_161:\n        /* \"#utility.yul\":634:639   */\n      dup2\n        /* \"#utility.yul\":631:666   */\n      eq\n        /* \"#utility.yul\":621:684   */\n      tag_162\n      jumpi\n        /* \"#utility.yul\":680:681   */\n      0x00\n        /* \"#utility.yul\":677:678   */\n      dup1\n        /* \"#utility.yul\":670:682   */\n      revert\n        /* \"#utility.yul\":621:684   */\n    tag_162:\n        /* \"#utility.yul\":568:690   */\n      pop\n      jump\t// out\n        /* \"#utility.yul\":696:835   */\n    tag_128:\n        /* \"#utility.yul\":742:747   */\n      0x00\n        /* \"#utility.yul\":780:786   */\n      dup2\n        /* \"#utility.yul\":767:787   */\n      calldataload\n        /* \"#utility.yul\":758:787   */\n      swap1\n      pop\n        /* \"#utility.yul\":796:829   */\n      tag_164\n        /* \"#utility.yul\":823:828   */\n      dup2\n        /* \"#utility.yul\":796:829   */\n      tag_127\n      jump\t// in\n    tag_164:\n        /* \"#utility.yul\":696:835   */\n      swap3\n      swap2\n      pop\n      pop\n      jump\t// out\n        /* \"#utility.yul\":841:1170   */\n    tag_22:\n        /* \"#utility.yul\":900:906   */\n      0x00\n        /* \"#utility.yul\":949:951   */\n      0x20\n        /* \"#utility.yul\":937:946   */\n      dup3\n        /* \"#utility.yul\":928:935   */\n      dup5\n        /* \"#utility.yul\":924:947   */\n      sub\n        /* \"#utility.yul\":920:952   */\n      slt\n        /* \"#utility.yul\":917:1036   */\n      iszero\n      tag_166\n      jumpi\n        /* \"#utility.yul\":955:1034   */\n      tag_167\n      tag_123\n      jump\t// in\n    tag_167:\n        /* \"#utility.yul\":917:1036   */\n    tag_166:\n        /* \"#utility.yul\":1075:1076   */\n      0x00\n        /* \"#utility.yul\":1100:1153   */\n      tag_168\n        /* \"#utility.yul\":1145:1152   */\n      dup5\n        /* \"#utility.yul\":1136:1142   */\n      dup3\n        /* \"#utility.yul\":1125:1134   */\n      dup6\n        /* \"#utility.yul\":1121:1143   */\n      add\n        /* \"#utility.yul\":1100:1153   */\n      tag_128\n      jump\t// in\n    tag_168:\n        /* \"#utility.yul\":1090:1153   */\n      swap2\n      pop\n        /* \"#utility.yul\":1046:1163   */\n      pop\n        /* \"#utility.yul\":841:1170   */\n      swap3\n      swap2\n      pop\n      pop\n      jump\t// out\n        /* \"#utility.yul\":1176:1253   */\n    tag_129:\n        /* \"#utility.yul\":1213:1220   */\n      0x00\n        /* \"#utility.yul\":1242:1247   */\n      dup2\n        /* \"#utility.yul\":1231:1247   */\n      swap1\n      pop\n        /* \"#utility.yul\":1176:1253   */\n      swap2\n      swap1\n      pop\n      jump\t// out\n        /* \"#utility.yul\":1259:1377   */\n    tag_130:\n        /* \"#utility.yul\":1346:1370   */\n      tag_171\n        /* \"#utility.yul\":1364:1369   */\n      dup2\n        /* \"#utility.yul\":1346:1370   */\n      tag_129\n      jump\t// in\n    tag_171:\n        /* \"#utility.yul\":1341:1344   */\n      dup3\n        /* \"#utility.yul\":1334:1371   */\n      mstore\n        /* \"#utility.yul\":1259:1377   */\n      pop\n      pop\n      jump\t// out\n        /* \"#utility.yul\":1383:1605   */\n    tag_25:\n        /* \"#utility.yul\":1476:1480   */\n      0x00\n        /* \"#utility.yul\":1514:1516   */\n      0x20\n        /* \"#utility.yul\":1503:1512   */\n      dup3\n        /* \"#utility.yul\":1499:1517   */\n      add\n        /* \"#utility.yul\":1491:1517   */\n      swap1\n      pop\n        /* \"#utility.yul\":1527:1598   */\n      tag_173\n        /* \"#utility.yul\":1595:1596   */\n      0x00\n        /* \"#utility.yul\":1584:1593   */\n      dup4\n        /* \"#utility.yul\":1580:1597   */\n      add\n        /* \"#utility.yul\":1571:1577   */\n      dup5\n        /* \"#utility.yul\":1527:1598   */\n      tag_130\n      jump\t// in\n    tag_173:\n        /* \"#utility.yul\":1383:1605   */\n      swap3\n      swap2\n      pop\n      pop\n      jump\t// out\n        /* \"#utility.yul\":1611:1701   */\n    tag_131:\n        /* \"#utility.yul\":1645:1652   */\n      0x00\n        /* \"#utility.yul\":1688:1693   */\n      dup2\n        /* \"#utility.yul\":1681:1694   */\n      iszero\n        /* \"#utility.yul\":1674:1695   */\n      iszero\n        /* \"#utility.yul\":1663:1695   */\n      swap1\n      pop\n        /* \"#utility.yul\":1611:1701   */\n      swap2\n      swap1\n      pop\n      jump\t// out\n        /* \"#utility.yul\":1707:1816   */\n    tag_132:\n        /* \"#utility.yul\":1788:1809   */\n      tag_176\n        /* \"#utility.yul\":1803:1808   */\n      dup2\n        /* \"#utility.yul\":1788:1809   */\n      tag_131\n      jump\t// in\n    tag_176:\n        /* \"#utility.yul\":1783:1786   */\n      dup3\n        /* \"#utility.yul\":1776:1810   */\n      mstore\n        /* \"#utility.yul\":1707:1816   */\n      pop\n      pop\n      jump\t// out\n        /* \"#utility.yul\":1822:2032   */\n    tag_42:\n        /* \"#utility.yul\":1909:1913   */\n      0x00\n        /* \"#utility.yul\":1947:1949   */\n      0x20\n        /* \"#utility.yul\":1936:1945   */\n      dup3\n        /* \"#utility.yul\":1932:1950   */\n      add\n        /* \"#utility.yul\":1924:1950   */\n      swap1\n      pop\n        /* \"#utility.yul\":1960:2025   */\n      tag_178\n        /* \"#utility.yul\":2022:2023   */\n      0x00\n        /* \"#utility.yul\":2011:2020   */\n      dup4\n        /* \"#utility.yul\":2007:2024   */\n      add\n        /* \"#utility.yul\":1998:2004   */\n      dup5\n        /* \"#utility.yul\":1960:2025   */\n      tag_132\n      jump\t// in\n    tag_178:\n        /* \"#utility.yul\":1822:2032   */\n      swap3\n      swap2\n      pop\n      pop\n      jump\t// out\n        /* \"#utility.yul\":2038:2137   */\n    tag_133:\n        /* \"#utility.yul\":2090:2096   */\n      0x00\n        /* \"#utility.yul\":2124:2129   */\n      dup2\n        /* \"#utility.yul\":2118:2130   */\n      mload\n        /* \"#utility.yul\":2108:2130   */\n      swap1\n      pop\n        /* \"#utility.yul\":2038:2137   */\n      swap2\n      swap1\n      pop\n      jump\t// out\n        /* \"#utility.yul\":2143:2312   */\n    tag_134:\n        /* \"#utility.yul\":2227:2238   */\n      0x00\n        /* \"#utility.yul\":2261:2267   */\n      dup3\n        /* \"#utility.yul\":2256:2259   */\n      dup3\n        /* \"#utility.yul\":2249:2268   */\n      mstore\n        /* \"#utility.yul\":2301:2305   */\n      0x20\n        /* \"#utility.yul\":2296:2299   */\n      dup3\n        /* \"#utility.yul\":2292:2306   */\n      add\n        /* \"#utility.yul\":2277:2306   */\n      swap1\n      pop\n        /* \"#utility.yul\":2143:2312   */\n      swap3\n      swap2\n      pop\n      pop\n      jump\t// out\n        /* \"#utility.yul\":2318:2457   */\n    tag_135:\n        /* \"#utility.yul\":2407:2413   */\n      dup3\n        /* \"#utility.yul\":2402:2405   */\n      dup2\n        /* \"#utility.yul\":2397:2400   */\n      dup4\n        /* \"#utility.yul\":2391:2414   */\n      mcopy\n        /* \"#utility.yul\":2448:2449   */\n      0x00\n        /* \"#utility.yul\":2439:2445   */\n      dup4\n        /* \"#utility.yul\":2434:2437   */\n      dup4\n        /* \"#utility.yul\":2430:2446   */\n      add\n        /* \"#utility.yul\":2423:2450   */\n      mstore\n        /* \"#utility.yul\":2318:2457   */\n      pop\n      pop\n      pop\n      jump\t// out\n        /* \"#utility.yul\":2463:2565   */\n    tag_136:\n        /* \"#utility.yul\":2504:2510   */\n      0x00\n        /* \"#utility.yul\":2555:2557   */\n      0x1f\n        /* \"#utility.yul\":2551:2558   */\n      not\n        /* \"#utility.yul\":2546:2548   */\n      0x1f\n        /* \"#utility.yul\":2539:2544   */\n      dup4\n        /* \"#utility.yul\":2535:2549   */\n      add\n        /* \"#utility.yul\":2531:2559   */\n      and\n        /* \"#utility.yul\":2521:2559   */\n      swap1\n      pop\n        /* \"#utility.yul\":2463:2565   */\n      swap2\n      swap1\n      pop\n      jump\t// out\n        /* \"#utility.yul\":2571:2948   */\n    tag_137:\n        /* \"#utility.yul\":2659:2662   */\n      0x00\n        /* \"#utility.yul\":2687:2726   */\n      tag_184\n        /* \"#utility.yul\":2720:2725   */\n      dup3\n        /* \"#utility.yul\":2687:2726   */\n      tag_133\n      jump\t// in\n    tag_184:\n        /* \"#utility.yul\":2742:2813   */\n      tag_185\n        /* \"#utility.yul\":2806:2812   */\n      dup2\n        /* \"#utility.yul\":2801:2804   */\n      dup6\n        /* \"#utility.yul\":2742:2813   */\n      tag_134\n      jump\t// in\n    tag_185:\n        /* \"#utility.yul\":2735:2813   */\n      swap4\n      pop\n        /* \"#utility.yul\":2822:2887   */\n      tag_186\n        /* \"#utility.yul\":2880:2886   */\n      dup2\n        /* \"#utility.yul\":2875:2878   */\n      dup6\n        /* \"#utility.yul\":2868:2872   */\n      0x20\n        /* \"#utility.yul\":2861:2866   */\n      dup7\n        /* \"#utility.yul\":2857:2873   */\n      add\n        /* \"#utility.yul\":2822:2887   */\n      tag_135\n      jump\t// in\n    tag_186:\n        /* \"#utility.yul\":2912:2941   */\n      tag_187\n        /* \"#utility.yul\":2934:2940   */\n      dup2\n        /* \"#utility.yul\":2912:2941   */\n      tag_136\n      jump\t// in\n    tag_187:\n        /* \"#utility.yul\":2907:2910   */\n      dup5\n        /* \"#utility.yul\":2903:2942   */\n      add\n        /* \"#utility.yul\":2896:2942   */\n      swap2\n      pop\n        /* \"#utility.yul\":2663:2948   */\n      pop\n        /* \"#utility.yul\":2571:2948   */\n      swap3\n      swap2\n      pop\n      pop\n      jump\t// out\n        /* \"#utility.yul\":2954:3267   */\n    tag_50:\n        /* \"#utility.yul\":3067:3071   */\n      0x00\n        /* \"#utility.yul\":3105:3107   */\n      0x20\n        /* \"#utility.yul\":3094:3103   */\n      dup3\n        /* \"#utility.yul\":3090:3108   */\n      add\n        /* \"#utility.yul\":3082:3108   */\n      swap1\n      pop\n        /* \"#utility.yul\":3154:3163   */\n      dup2\n        /* \"#utility.yul\":3148:3152   */\n      dup2\n        /* \"#utility.yul\":3144:3164   */\n      sub\n        /* \"#utility.yul\":3140:3141   */\n      0x00\n        /* \"#utility.yul\":3129:3138   */\n      dup4\n        /* \"#utility.yul\":3125:3142   */\n      add\n        /* \"#utility.yul\":3118:3165   */\n      mstore\n        /* \"#utility.yul\":3182:3260   */\n      tag_189\n        /* \"#utility.yul\":3255:3259   */\n      dup2\n        /* \"#utility.yul\":3246:3252   */\n      dup5\n        /* \"#utility.yul\":3182:3260   */\n      tag_137\n      jump\t// in\n    tag_189:\n        /* \"#utility.yul\":3174:3260   */\n      swap1\n      pop\n        /* \"#utility.yul\":2954:3267   */\n      swap3\n      swap2\n      pop\n      pop\n      jump\t// out\n        /* \"#utility.yul\":3273:3391   */\n    tag_138:\n        /* \"#utility.yul\":3360:3384   */\n      tag_191\n        /* \"#utility.yul\":3378:3383   */\n      dup2\n        /* \"#utility.yul\":3360:3384   */\n      tag_126\n      jump\t// in\n    tag_191:\n        /* \"#utility.yul\":3355:3358   */\n      dup3\n        /* \"#utility.yul\":3348:3385   */\n      mstore\n        /* \"#utility.yul\":3273:3391   */\n      pop\n      pop\n      jump\t// out\n        /* \"#utility.yul\":3397:3619   */\n    tag_75:\n        /* \"#utility.yul\":3490:3494   */\n      0x00\n        /* \"#utility.yul\":3528:3530   */\n      0x20\n        /* \"#utility.yul\":3517:3526   */\n      dup3\n        /* \"#utility.yul\":3513:3531   */\n      add\n        /* \"#utility.yul\":3505:3531   */\n      swap1\n      pop\n        /* \"#utility.yul\":3541:3612   */\n      tag_193\n        /* \"#utility.yul\":3609:3610   */\n      0x00\n        /* \"#utility.yul\":3598:3607   */\n      dup4\n        /* \"#utility.yul\":3594:3611   */\n      add\n        /* \"#utility.yul\":3585:3591   */\n      dup5\n        /* \"#utility.yul\":3541:3612   */\n      tag_138\n      jump\t// in\n    tag_193:\n        /* \"#utility.yul\":3397:3619   */\n      swap3\n      swap2\n      pop\n      pop\n      jump\t// out\n        /* \"#utility.yul\":3625:3848   */\n    tag_139:\n        /* \"#utility.yul\":3765:3799   */\n      0x6f6e6c792072656365697665722063616e2063616c6c20746869732066756e63\n        /* \"#utility.yul\":3761:3762   */\n      0x00\n        /* \"#utility.yul\":3753:3759   */\n      dup3\n        /* \"#utility.yul\":3749:3763   */\n      add\n        /* \"#utility.yul\":3742:3800   */\n      mstore\n        /* \"#utility.yul\":3834:3840   */\n      0x74696f6e00000000000000000000000000000000000000000000000000000000\n        /* \"#utility.yul\":3829:3831   */\n      0x20\n        /* \"#utility.yul\":3821:3827   */\n      dup3\n        /* \"#utility.yul\":3817:3832   */\n      add\n        /* \"#utility.yul\":3810:3841   */\n      mstore\n        /* \"#utility.yul\":3625:3848   */\n      pop\n      jump\t// out\n        /* \"#utility.yul\":3854:4220   */\n    tag_140:\n        /* \"#utility.yul\":3996:3999   */\n      0x00\n        /* \"#utility.yul\":4017:4084   */\n      tag_196\n        /* \"#utility.yul\":4081:4083   */\n      0x24\n        /* \"#utility.yul\":4076:4079   */\n      dup4\n        /* \"#utility.yul\":4017:4084   */\n      tag_134\n      jump\t// in\n    tag_196:\n        /* \"#utility.yul\":4010:4084   */\n      swap2\n      pop\n        /* \"#utility.yul\":4093:4186   */\n      tag_197\n        /* \"#utility.yul\":4182:4185   */\n      dup3\n        /* \"#utility.yul\":4093:4186   */\n      tag_139\n      jump\t// in\n    tag_197:\n        /* \"#utility.yul\":4211:4213   */\n      0x40\n        /* \"#utility.yul\":4206:4209   */\n      dup3\n        /* \"#utility.yul\":4202:4214   */\n      add\n        /* \"#utility.yul\":4195:4214   */\n      swap1\n      pop\n        /* \"#utility.yul\":3854:4220   */\n      swap2\n      swap1\n      pop\n      jump\t// out\n        /* \"#utility.yul\":4226:4645   */\n    tag_80:\n        /* \"#utility.yul\":4392:4396   */\n      0x00\n        /* \"#utility.yul\":4430:4432   */\n      0x20\n        /* \"#utility.yul\":4419:4428   */\n      dup3\n        /* \"#utility.yul\":4415:4433   */\n      add\n        /* \"#utility.yul\":4407:4433   */\n      swap1\n      pop\n        /* \"#utility.yul\":4479:4488   */\n      dup2\n        /* \"#utility.yul\":4473:4477   */\n      dup2\n        /* \"#utility.yul\":4469:4489   */\n      sub\n        /* \"#utility.yul\":4465:4466   */\n      0x00\n        /* \"#utility.yul\":4454:4463   */\n      dup4\n        /* \"#utility.yul\":4450:4467   */\n      add\n        /* \"#utility.yul\":4443:4490   */\n      mstore\n        /* \"#utility.yul\":4507:4638   */\n      tag_199\n        /* \"#utility.yul\":4633:4637   */\n      dup2\n        /* \"#utility.yul\":4507:4638   */\n      tag_140\n      jump\t// in\n    tag_199:\n        /* \"#utility.yul\":4499:4638   */\n      swap1\n      pop\n        /* \"#utility.yul\":4226:4645   */\n      swap2\n      swap1\n      pop\n      jump\t// out\n        /* \"#utility.yul\":4651:4877   */\n    tag_141:\n        /* \"#utility.yul\":4791:4825   */\n      0x7468652074617267657420616d6f756e7420686173206e6f74206265656e2061\n        /* \"#utility.yul\":4787:4788   */\n      0x00\n        /* \"#utility.yul\":4779:4785   */\n      dup3\n        /* \"#utility.yul\":4775:4789   */\n      add\n        /* \"#utility.yul\":4768:4826   */\n      mstore\n        /* \"#utility.yul\":4860:4869   */\n      0x6368696576656400000000000000000000000000000000000000000000000000\n        /* \"#utility.yul\":4855:4857   */\n      0x20\n        /* \"#utility.yul\":4847:4853   */\n      dup3\n        /* \"#utility.yul\":4843:4858   */\n      add\n        /* \"#utility.yul\":4836:4870   */\n      mstore\n        /* \"#utility.yul\":4651:4877   */\n      pop\n      jump\t// out\n        /* \"#utility.yul\":4883:5249   */\n    tag_142:\n        /* \"#utility.yul\":5025:5028   */\n      0x00\n        /* \"#utility.yul\":5046:5113   */\n      tag_202\n        /* \"#utility.yul\":5110:5112   */\n      0x27\n        /* \"#utility.yul\":5105:5108   */\n      dup4\n        /* \"#utility.yul\":5046:5113   */\n      tag_134\n      jump\t// in\n    tag_202:\n        /* \"#utility.yul\":5039:5113   */\n      swap2\n      pop\n        /* \"#utility.yul\":5122:5215   */\n      tag_203\n        /* \"#utility.yul\":5211:5214   */\n      dup3\n        /* \"#utility.yul\":5122:5215   */\n      tag_141\n      jump\t// in\n    tag_203:\n        /* \"#utility.yul\":5240:5242   */\n      0x40\n        /* \"#utility.yul\":5235:5238   */\n      dup3\n        /* \"#utility.yul\":5231:5243   */\n      add\n        /* \"#utility.yul\":5224:5243   */\n      swap1\n      pop\n        /* \"#utility.yul\":4883:5249   */\n      swap2\n      swap1\n      pop\n      jump\t// out\n        /* \"#utility.yul\":5255:5674   */\n    tag_84:\n        /* \"#utility.yul\":5421:5425   */\n      0x00\n        /* \"#utility.yul\":5459:5461   */\n      0x20\n        /* \"#utility.yul\":5448:5457   */\n      dup3\n        /* \"#utility.yul\":5444:5462   */\n      add\n        /* \"#utility.yul\":5436:5462   */\n      swap1\n      pop\n        /* \"#utility.yul\":5508:5517   */\n      dup2\n        /* \"#utility.yul\":5502:5506   */\n      dup2\n        /* \"#utility.yul\":5498:5518   */\n      sub\n        /* \"#utility.yul\":5494:5495   */\n      0x00\n        /* \"#utility.yul\":5483:5492   */\n      dup4\n        /* \"#utility.yul\":5479:5496   */\n      add\n        /* \"#utility.yul\":5472:5519   */\n      mstore\n        /* \"#utility.yul\":5536:5667   */\n      tag_205\n        /* \"#utility.yul\":5662:5666   */\n      dup2\n        /* \"#utility.yul\":5536:5667   */\n      tag_142\n      jump\t// in\n    tag_205:\n        /* \"#utility.yul\":5528:5667   */\n      swap1\n      pop\n        /* \"#utility.yul\":5255:5674   */\n      swap2\n      swap1\n      pop\n      jump\t// out\n        /* \"#utility.yul\":5680:6012   */\n    tag_88:\n        /* \"#utility.yul\":5801:5805   */\n      0x00\n        /* \"#utility.yul\":5839:5841   */\n      0x40\n        /* \"#utility.yul\":5828:5837   */\n      dup3\n        /* \"#utility.yul\":5824:5842   */\n      add\n        /* \"#utility.yul\":5816:5842   */\n      swap1\n      pop\n        /* \"#utility.yul\":5852:5923   */\n      tag_207\n        /* \"#utility.yul\":5920:5921   */\n      0x00\n        /* \"#utility.yul\":5909:5918   */\n      dup4\n        /* \"#utility.yul\":5905:5922   */\n      add\n        /* \"#utility.yul\":5896:5902   */\n      dup6\n        /* \"#utility.yul\":5852:5923   */\n      tag_138\n      jump\t// in\n    tag_207:\n        /* \"#utility.yul\":5933:6005   */\n      tag_208\n        /* \"#utility.yul\":6001:6003   */\n      0x20\n        /* \"#utility.yul\":5990:5999   */\n      dup4\n        /* \"#utility.yul\":5986:6004   */\n      add\n        /* \"#utility.yul\":5977:5983   */\n      dup5\n        /* \"#utility.yul\":5933:6005   */\n      tag_130\n      jump\t// in\n    tag_208:\n        /* \"#utility.yul\":5680:6012   */\n      swap4\n      swap3\n      pop\n      pop\n      pop\n      jump\t// out\n        /* \"#utility.yul\":6018:6198   */\n    tag_143:\n        /* \"#utility.yul\":6066:6143   */\n      0x4e487b7100000000000000000000000000000000000000000000000000000000\n        /* \"#utility.yul\":6063:6064   */\n      0x00\n        /* \"#utility.yul\":6056:6144   */\n      mstore\n        /* \"#utility.yul\":6163:6167   */\n      0x22\n        /* \"#utility.yul\":6160:6161   */\n      0x04\n        /* \"#utility.yul\":6153:6168   */\n      mstore\n        /* \"#utility.yul\":6187:6191   */\n      0x24\n        /* \"#utility.yul\":6184:6185   */\n      0x00\n        /* \"#utility.yul\":6177:6192   */\n      revert\n        /* \"#utility.yul\":6204:6524   */\n    tag_90:\n        /* \"#utility.yul\":6248:6254   */\n      0x00\n        /* \"#utility.yul\":6285:6286   */\n      0x02\n        /* \"#utility.yul\":6279:6283   */\n      dup3\n        /* \"#utility.yul\":6275:6287   */\n      div\n        /* \"#utility.yul\":6265:6287   */\n      swap1\n      pop\n        /* \"#utility.yul\":6332:6333   */\n      0x01\n        /* \"#utility.yul\":6326:6330   */\n      dup3\n        /* \"#utility.yul\":6322:6334   */\n      and\n        /* \"#utility.yul\":6353:6371   */\n      dup1\n        /* \"#utility.yul\":6343:6424   */\n      tag_211\n      jumpi\n        /* \"#utility.yul\":6409:6413   */\n      0x7f\n        /* \"#utility.yul\":6401:6407   */\n      dup3\n        /* \"#utility.yul\":6397:6414   */\n      and\n        /* \"#utility.yul\":6387:6414   */\n      swap2\n      pop\n        /* \"#utility.yul\":6343:6424   */\n    tag_211:\n        /* \"#utility.yul\":6471:6473   */\n      0x20\n        /* \"#utility.yul\":6463:6469   */\n      dup3\n        /* \"#utility.yul\":6460:6474   */\n      lt\n        /* \"#utility.yul\":6440:6458   */\n      dup2\n        /* \"#utility.yul\":6437:6475   */\n      sub\n        /* \"#utility.yul\":6434:6518   */\n      tag_212\n      jumpi\n        /* \"#utility.yul\":6490:6508   */\n      tag_213\n      tag_143\n      jump\t// in\n    tag_213:\n        /* \"#utility.yul\":6434:6518   */\n    tag_212:\n        /* \"#utility.yul\":6255:6524   */\n      pop\n        /* \"#utility.yul\":6204:6524   */\n      swap2\n      swap1\n      pop\n      jump\t// out\n        /* \"#utility.yul\":6530:6710   */\n    tag_144:\n        /* \"#utility.yul\":6578:6655   */\n      0x4e487b7100000000000000000000000000000000000000000000000000000000\n        /* \"#utility.yul\":6575:6576   */\n      0x00\n        /* \"#utility.yul\":6568:6656   */\n      mstore\n        /* \"#utility.yul\":6675:6679   */\n      0x11\n        /* \"#utility.yul\":6672:6673   */\n      0x04\n        /* \"#utility.yul\":6665:6680   */\n      mstore\n        /* \"#utility.yul\":6699:6703   */\n      0x24\n        /* \"#utility.yul\":6696:6697   */\n      0x00\n        /* \"#utility.yul\":6689:6704   */\n      revert\n        /* \"#utility.yul\":6716:6907   */\n    tag_100:\n        /* \"#utility.yul\":6756:6759   */\n      0x00\n        /* \"#utility.yul\":6775:6795   */\n      tag_216\n        /* \"#utility.yul\":6793:6794   */\n      dup3\n        /* \"#utility.yul\":6775:6795   */\n      tag_129\n      jump\t// in\n    tag_216:\n        /* \"#utility.yul\":6770:6795   */\n      swap2\n      pop\n        /* \"#utility.yul\":6809:6829   */\n      tag_217\n        /* \"#utility.yul\":6827:6828   */\n      dup4\n        /* \"#utility.yul\":6809:6829   */\n      tag_129\n      jump\t// in\n    tag_217:\n        /* \"#utility.yul\":6804:6829   */\n      swap3\n      pop\n        /* \"#utility.yul\":6852:6853   */\n      dup3\n        /* \"#utility.yul\":6849:6850   */\n      dup3\n        /* \"#utility.yul\":6845:6854   */\n      add\n        /* \"#utility.yul\":6838:6854   */\n      swap1\n      pop\n        /* \"#utility.yul\":6873:6876   */\n      dup1\n        /* \"#utility.yul\":6870:6871   */\n      dup3\n        /* \"#utility.yul\":6867:6877   */\n      gt\n        /* \"#utility.yul\":6864:6900   */\n      iszero\n      tag_218\n      jumpi\n        /* \"#utility.yul\":6880:6898   */\n      tag_219\n      tag_144\n      jump\t// in\n    tag_219:\n        /* \"#utility.yul\":6864:6900   */\n    tag_218:\n        /* \"#utility.yul\":6716:6907   */\n      swap3\n      swap2\n      pop\n      pop\n      jump\t// out\n        /* \"#utility.yul\":6913:7145   */\n    tag_145:\n        /* \"#utility.yul\":7053:7087   */\n      0x63616e27742067657420726566756e642061667465722063726f776466756e64\n        /* \"#utility.yul\":7049:7050   */\n      0x00\n        /* \"#utility.yul\":7041:7047   */\n      dup3\n        /* \"#utility.yul\":7037:7051   */\n      add\n        /* \"#utility.yul\":7030:7088   */\n      mstore\n        /* \"#utility.yul\":7122:7137   */\n      0x696e672068617320656e64656400000000000000000000000000000000000000\n        /* \"#utility.yul\":7117:7119   */\n      0x20\n        /* \"#utility.yul\":7109:7115   */\n      dup3\n        /* \"#utility.yul\":7105:7120   */\n      add\n        /* \"#utility.yul\":7098:7138   */\n      mstore\n        /* \"#utility.yul\":6913:7145   */\n      pop\n      jump\t// out\n        /* \"#utility.yul\":7151:7517   */\n    tag_146:\n        /* \"#utility.yul\":7293:7296   */\n      0x00\n        /* \"#utility.yul\":7314:7381   */\n      tag_222\n        /* \"#utility.yul\":7378:7380   */\n      0x2d\n        /* \"#utility.yul\":7373:7376   */\n      dup4\n        /* \"#utility.yul\":7314:7381   */\n      tag_134\n      jump\t// in\n    tag_222:\n        /* \"#utility.yul\":7307:7381   */\n      swap2\n      pop\n        /* \"#utility.yul\":7390:7483   */\n      tag_223\n        /* \"#utility.yul\":7479:7482   */\n      dup3\n        /* \"#utility.yul\":7390:7483   */\n      tag_145\n      jump\t// in\n    tag_223:\n        /* \"#utility.yul\":7508:7510   */\n      0x40\n        /* \"#utility.yul\":7503:7506   */\n      dup3\n        /* \"#utility.yul\":7499:7511   */\n      add\n        /* \"#utility.yul\":7492:7511   */\n      swap1\n      pop\n        /* \"#utility.yul\":7151:7517   */\n      swap2\n      swap1\n      pop\n      jump\t// out\n        /* \"#utility.yul\":7523:7942   */\n    tag_104:\n        /* \"#utility.yul\":7689:7693   */\n      0x00\n        /* \"#utility.yul\":7727:7729   */\n      0x20\n        /* \"#utility.yul\":7716:7725   */\n      dup3\n        /* \"#utility.yul\":7712:7730   */\n      add\n        /* \"#utility.yul\":7704:7730   */\n      swap1\n      pop\n        /* \"#utility.yul\":7776:7785   */\n      dup2\n        /* \"#utility.yul\":7770:7774   */\n      dup2\n        /* \"#utility.yul\":7766:7786   */\n      sub\n        /* \"#utility.yul\":7762:7763   */\n      0x00\n        /* \"#utility.yul\":7751:7760   */\n      dup4\n        /* \"#utility.yul\":7747:7764   */\n      add\n        /* \"#utility.yul\":7740:7787   */\n      mstore\n        /* \"#utility.yul\":7804:7935   */\n      tag_225\n        /* \"#utility.yul\":7930:7934   */\n      dup2\n        /* \"#utility.yul\":7804:7935   */\n      tag_146\n      jump\t// in\n    tag_225:\n        /* \"#utility.yul\":7796:7935   */\n      swap1\n      pop\n        /* \"#utility.yul\":7523:7942   */\n      swap2\n      swap1\n      pop\n      jump\t// out\n        /* \"#utility.yul\":7948:8178   */\n    tag_147:\n        /* \"#utility.yul\":8088:8122   */\n      0x796f7520646964206e6f7420706172746963697061746520696e207468652063\n        /* \"#utility.yul\":8084:8085   */\n      0x00\n        /* \"#utility.yul\":8076:8082   */\n      dup3\n        /* \"#utility.yul\":8072:8086   */\n      add\n        /* \"#utility.yul\":8065:8123   */\n      mstore\n        /* \"#utility.yul\":8157:8170   */\n      0x726f776466756e64696e67000000000000000000000000000000000000000000\n        /* \"#utility.yul\":8152:8154   */\n      0x20\n        /* \"#utility.yul\":8144:8150   */\n      dup3\n        /* \"#utility.yul\":8140:8155   */\n      add\n        /* \"#utility.yul\":8133:8171   */\n      mstore\n        /* \"#utility.yul\":7948:8178   */\n      pop\n      jump\t// out\n        /* \"#utility.yul\":8184:8550   */\n    tag_148:\n        /* \"#utility.yul\":8326:8329   */\n      0x00\n        /* \"#utility.yul\":8347:8414   */\n      tag_228\n        /* \"#utility.yul\":8411:8413   */\n      0x2b\n        /* \"#utility.yul\":8406:8409   */\n      dup4\n        /* \"#utility.yul\":8347:8414   */\n      tag_134\n      jump\t// in\n    tag_228:\n        /* \"#utility.yul\":8340:8414   */\n      swap2\n      pop\n        /* \"#utility.yul\":8423:8516   */\n      tag_229\n        /* \"#utility.yul\":8512:8515   */\n      dup3\n        /* \"#utility.yul\":8423:8516   */\n      tag_147\n      jump\t// in\n    tag_229:\n        /* \"#utility.yul\":8541:8543   */\n      0x40\n        /* \"#utility.yul\":8536:8539   */\n      dup3\n        /* \"#utility.yul\":8532:8544   */\n      add\n        /* \"#utility.yul\":8525:8544   */\n      swap1\n      pop\n        /* \"#utility.yul\":8184:8550   */\n      swap2\n      swap1\n      pop\n      jump\t// out\n        /* \"#utility.yul\":8556:8975   */\n    tag_107:\n        /* \"#utility.yul\":8722:8726   */\n      0x00\n        /* \"#utility.yul\":8760:8762   */\n      0x20\n        /* \"#utility.yul\":8749:8758   */\n      dup3\n        /* \"#utility.yul\":8745:8763   */\n      add\n        /* \"#utility.yul\":8737:8763   */\n      swap1\n      pop\n        /* \"#utility.yul\":8809:8818   */\n      dup2\n        /* \"#utility.yul\":8803:8807   */\n      dup2\n        /* \"#utility.yul\":8799:8819   */\n      sub\n        /* \"#utility.yul\":8795:8796   */\n      0x00\n        /* \"#utility.yul\":8784:8793   */\n      dup4\n        /* \"#utility.yul\":8780:8797   */\n      add\n        /* \"#utility.yul\":8773:8820   */\n      mstore\n        /* \"#utility.yul\":8837:8968   */\n      tag_231\n        /* \"#utility.yul\":8963:8967   */\n      dup2\n        /* \"#utility.yul\":8837:8968   */\n      tag_148\n      jump\t// in\n    tag_231:\n        /* \"#utility.yul\":8829:8968   */\n      swap1\n      pop\n        /* \"#utility.yul\":8556:8975   */\n      swap2\n      swap1\n      pop\n      jump\t// out\n        /* \"#utility.yul\":8981:9175   */\n    tag_109:\n        /* \"#utility.yul\":9021:9025   */\n      0x00\n        /* \"#utility.yul\":9041:9061   */\n      tag_233\n        /* \"#utility.yul\":9059:9060   */\n      dup3\n        /* \"#utility.yul\":9041:9061   */\n      tag_129\n      jump\t// in\n    tag_233:\n        /* \"#utility.yul\":9036:9061   */\n      swap2\n      pop\n        /* \"#utility.yul\":9075:9095   */\n      tag_234\n        /* \"#utility.yul\":9093:9094   */\n      dup4\n        /* \"#utility.yul\":9075:9095   */\n      tag_129\n      jump\t// in\n    tag_234:\n        /* \"#utility.yul\":9070:9095   */\n      swap3\n      pop\n        /* \"#utility.yul\":9119:9120   */\n      dup3\n        /* \"#utility.yul\":9116:9117   */\n      dup3\n        /* \"#utility.yul\":9112:9121   */\n      sub\n        /* \"#utility.yul\":9104:9121   */\n      swap1\n      pop\n        /* \"#utility.yul\":9143:9144   */\n      dup2\n        /* \"#utility.yul\":9137:9141   */\n      dup2\n        /* \"#utility.yul\":9134:9145   */\n      gt\n        /* \"#utility.yul\":9131:9168   */\n      iszero\n      tag_235\n      jumpi\n        /* \"#utility.yul\":9148:9166   */\n      tag_236\n      tag_144\n      jump\t// in\n    tag_236:\n        /* \"#utility.yul\":9131:9168   */\n    tag_235:\n        /* \"#utility.yul\":8981:9175   */\n      swap3\n      swap2\n      pop\n      pop\n      jump\t// out\n        /* \"#utility.yul\":9181:9353   */\n    tag_149:\n        /* \"#utility.yul\":9321:9345   */\n      0x63726f776466756e64696e672068617320656e64656400000000000000000000\n        /* \"#utility.yul\":9317:9318   */\n      0x00\n        /* \"#utility.yul\":9309:9315   */\n      dup3\n        /* \"#utility.yul\":9305:9319   */\n      add\n        /* \"#utility.yul\":9298:9346   */\n      mstore\n        /* \"#utility.yul\":9181:9353   */\n      pop\n      jump\t// out\n        /* \"#utility.yul\":9359:9725   */\n    tag_150:\n        /* \"#utility.yul\":9501:9504   */\n      0x00\n        /* \"#utility.yul\":9522:9589   */\n      tag_239\n        /* \"#utility.yul\":9586:9588   */\n      0x16\n        /* \"#utility.yul\":9581:9584   */\n      dup4\n        /* \"#utility.yul\":9522:9589   */\n      tag_134\n      jump\t// in\n    tag_239:\n        /* \"#utility.yul\":9515:9589   */\n      swap2\n      pop\n        /* \"#utility.yul\":9598:9691   */\n      tag_240\n        /* \"#utility.yul\":9687:9690   */\n      dup3\n        /* \"#utility.yul\":9598:9691   */\n      tag_149\n      jump\t// in\n    tag_240:\n        /* \"#utility.yul\":9716:9718   */\n      0x20\n        /* \"#utility.yul\":9711:9714   */\n      dup3\n        /* \"#utility.yul\":9707:9719   */\n      add\n        /* \"#utility.yul\":9700:9719   */\n      swap1\n      pop\n        /* \"#utility.yul\":9359:9725   */\n      swap2\n      swap1\n      pop\n      jump\t// out\n        /* \"#utility.yul\":9731:10150   */\n    tag_116:\n        /* \"#utility.yul\":9897:9901   */\n      0x00\n        /* \"#utility.yul\":9935:9937   */\n      0x20\n        /* \"#utility.yul\":9924:9933   */\n      dup3\n        /* \"#utility.yul\":9920:9938   */\n      add\n        /* \"#utility.yul\":9912:9938   */\n      swap1\n      pop\n        /* \"#utility.yul\":9984:9993   */\n      dup2\n        /* \"#utility.yul\":9978:9982   */\n      dup2\n        /* \"#utility.yul\":9974:9994   */\n      sub\n        /* \"#utility.yul\":9970:9971   */\n      0x00\n        /* \"#utility.yul\":9959:9968   */\n      dup4\n        /* \"#utility.yul\":9955:9972   */\n      add\n        /* \"#utility.yul\":9948:9995   */\n      mstore\n        /* \"#utility.yul\":10012:10143   */\n      tag_242\n        /* \"#utility.yul\":10138:10142   */\n      dup2\n        /* \"#utility.yul\":10012:10143   */\n      tag_150\n      jump\t// in\n    tag_242:\n        /* \"#utility.yul\":10004:10143   */\n      swap1\n      pop\n        /* \"#utility.yul\":9731:10150   */\n      swap2\n      swap1\n      pop\n      jump\t// out\n        /* \"#utility.yul\":10156:10377   */\n    tag_151:\n        /* \"#utility.yul\":10296:10330   */\n      0x7468652074617267657420616d6f756e7420686173206265656e207265616368\n        /* \"#utility.yul\":10292:10293   */\n      0x00\n        /* \"#utility.yul\":10284:10290   */\n      dup3\n        /* \"#utility.yul\":10280:10294   */\n      add\n        /* \"#utility.yul\":10273:10331   */\n      mstore\n        /* \"#utility.yul\":10365:10369   */\n      0x6564000000000000000000000000000000000000000000000000000000000000\n        /* \"#utility.yul\":10360:10362   */\n      0x20\n        /* \"#utility.yul\":10352:10358   */\n      dup3\n        /* \"#utility.yul\":10348:10363   */\n      add\n        /* \"#utility.yul\":10341:10370   */\n      mstore\n        /* \"#utility.yul\":10156:10377   */\n      pop\n      jump\t// out\n        /* \"#utility.yul\":10383:10749   */\n    tag_152:\n        /* \"#utility.yul\":10525:10528   */\n      0x00\n        /* \"#utility.yul\":10546:10613   */\n      tag_245\n        /* \"#utility.yul\":10610:10612   */\n      0x22\n        /* \"#utility.yul\":10605:10608   */\n      dup4\n        /* \"#utility.yul\":10546:10613   */\n      tag_134\n      jump\t// in\n    tag_245:\n        /* \"#utility.yul\":10539:10613   */\n      swap2\n      pop\n        /* \"#utility.yul\":10622:10715   */\n      tag_246\n        /* \"#utility.yul\":10711:10714   */\n      dup3\n        /* \"#utility.yul\":10622:10715   */\n      tag_151\n      jump\t// in\n    tag_246:\n        /* \"#utility.yul\":10740:10742   */\n      0x40\n        /* \"#utility.yul\":10735:10738   */\n      dup3\n        /* \"#utility.yul\":10731:10743   */\n      add\n        /* \"#utility.yul\":10724:10743   */\n      swap1\n      pop\n        /* \"#utility.yul\":10383:10749   */\n      swap2\n      swap1\n      pop\n      jump\t// out\n        /* \"#utility.yul\":10755:11174   */\n    tag_119:\n        /* \"#utility.yul\":10921:10925   */\n      0x00\n        /* \"#utility.yul\":10959:10961   */\n      0x20\n        /* \"#utility.yul\":10948:10957   */\n      dup3\n        /* \"#utility.yul\":10944:10962   */\n      add\n        /* \"#utility.yul\":10936:10962   */\n      swap1\n      pop\n        /* \"#utility.yul\":11008:11017   */\n      dup2\n        /* \"#utility.yul\":11002:11006   */\n      dup2\n        /* \"#utility.yul\":10998:11018   */\n      sub\n        /* \"#utility.yul\":10994:10995   */\n      0x00\n        /* \"#utility.yul\":10983:10992   */\n      dup4\n        /* \"#utility.yul\":10979:10996   */\n      add\n        /* \"#utility.yul\":10972:11019   */\n      mstore\n        /* \"#utility.yul\":11036:11167   */\n      tag_248\n        /* \"#utility.yul\":11162:11166   */\n      dup2\n        /* \"#utility.yul\":11036:11167   */\n      tag_152\n      jump\t// in\n    tag_248:\n        /* \"#utility.yul\":11028:11167   */\n      swap1\n      pop\n        /* \"#utility.yul\":10755:11174   */\n      swap2\n      swap1\n      pop\n      jump\t// out\n\n    auxdata: 0xa2646970667358221220fe3378e79a02f86ebbb46fdda8c7e484cfebd833245fc479a6a59751111ddf7b64736f6c634300081a0033\n}\n",
				"bytecode": {
					"linkReferences": {},
					"object": "608060405234801561000f575f80fd5b506040516115d23803806115d283398181016040528101906100319190610272565b335f806101000a81548173ffffffffffffffffffffffffffffffffffffffff021916908373ffffffffffffffffffffffffffffffffffffffff160217905550670de0b6b3a76400008261008491906102f9565b6001819055504260038190555062093a806003546100a2919061033a565b60048190555080600590816100b79190610571565b505f60075f6101000a81548160ff0219169083151502179055505f600760016101000a81548160ff0219169083151502179055505050610640565b5f604051905090565b5f80fd5b5f80fd5b5f819050919050565b61011581610103565b811461011f575f80fd5b50565b5f815190506101308161010c565b92915050565b5f80fd5b5f80fd5b5f601f19601f8301169050919050565b7f4e487b71000000000000000000000000000000000000000000000000000000005f52604160045260245ffd5b6101848261013e565b810181811067ffffffffffffffff821117156101a3576101a261014e565b5b80604052505050565b5f6101b56100f2565b90506101c1828261017b565b919050565b5f67ffffffffffffffff8211156101e0576101df61014e565b5b6101e98261013e565b9050602081019050919050565b8281835e5f83830152505050565b5f610216610211846101c6565b6101ac565b9050828152602081018484840111156102325761023161013a565b5b61023d8482856101f6565b509392505050565b5f82601f83011261025957610258610136565b5b8151610269848260208601610204565b91505092915050565b5f8060408385031215610288576102876100fb565b5b5f61029585828601610122565b925050602083015167ffffffffffffffff8111156102b6576102b56100ff565b5b6102c285828601610245565b9150509250929050565b7f4e487b71000000000000000000000000000000000000000000000000000000005f52601160045260245ffd5b5f61030382610103565b915061030e83610103565b925082820261031c81610103565b91508282048414831517610333576103326102cc565b5b5092915050565b5f61034482610103565b915061034f83610103565b9250828201905080821115610367576103666102cc565b5b92915050565b5f81519050919050565b7f4e487b71000000000000000000000000000000000000000000000000000000005f52602260045260245ffd5b5f60028204905060018216806103bb57607f821691505b6020821081036103ce576103cd610377565b5b50919050565b5f819050815f5260205f209050919050565b5f6020601f8301049050919050565b5f82821b905092915050565b5f600883026104307fffffffffffffffffffffffffffffffffffffffffffffffffffffffffffffffff826103f5565b61043a86836103f5565b95508019841693508086168417925050509392505050565b5f819050919050565b5f61047561047061046b84610103565b610452565b610103565b9050919050565b5f819050919050565b61048e8361045b565b6104a261049a8261047c565b848454610401565b825550505050565b5f90565b6104b66104aa565b6104c1818484610485565b505050565b5b818110156104e4576104d95f826104ae565b6001810190506104c7565b5050565b601f821115610529576104fa816103d4565b610503846103e6565b81016020851015610512578190505b61052661051e856103e6565b8301826104c6565b50505b505050565b5f82821c905092915050565b5f6105495f198460080261052e565b1980831691505092915050565b5f610561838361053a565b9150826002028217905092915050565b61057a8261036d565b67ffffffffffffffff8111156105935761059261014e565b5b61059d82546103a4565b6105a88282856104e8565b5f60209050601f8311600181146105d9575f84156105c7578287015190505b6105d18582610556565b865550610638565b601f1984166105e7866103d4565b5f5b8281101561060e578489015182556001820191506020850194506020810190506105e9565b8683101561062b5784890151610627601f89168261053a565b8355505b6001600288020188555050505b505050505050565b610f858061064d5f395ff3fe6080604052600436106100dc575f3560e01c806369ef5e0a1161007e578063b2fa1c9e11610058578063b2fa1c9e1461025a578063c24a0f8b14610284578063d7bb99ba146102ae578063f7260d3e146102b8576100dc565b806369ef5e0a14610204578063953b8fb81461021a578063b2d5ae4414610244576100dc565b806312065fe0116100ba57806312065fe0146101705780631e171d7c1461019a5780633ccfd60b146101c45780634a9e3635146101da576100dc565b8063031b3677146100e05780630b97bc861461011c5780630dcf4b8f14610146575b5f80fd5b3480156100eb575f80fd5b50610106600480360381019061010191906109c3565b6102e2565b6040516101139190610a06565b60405180910390f35b348015610127575f80fd5b506101306102f7565b60405161013d9190610a06565b60405180910390f35b348015610151575f80fd5b5061015a6102fd565b6040516101679190610a06565b60405180910390f35b34801561017b575f80fd5b50610184610303565b6040516101919190610a06565b60405180910390f35b3480156101a5575f80fd5b506101ae61030a565b6040516101bb9190610a39565b60405180910390f35b3480156101cf575f80fd5b506101d861031c565b005b3480156101e5575f80fd5b506101ee6104cd565b6040516101fb9190610ac2565b60405180910390f35b34801561020f575f80fd5b50610218610559565b005b348015610225575f80fd5b5061022e610603565b60405161023b9190610a06565b60405180910390f35b34801561024f575f80fd5b50610258610609565b005b348015610265575f80fd5b5061026e6107e9565b60405161027b9190610a39565b60405180910390f35b34801561028f575f80fd5b506102986107fc565b6040516102a59190610a06565b60405180910390f35b6102b6610802565b005b3480156102c3575f80fd5b506102cc610942565b6040516102d99190610af1565b60405180910390f35b6006602052805f5260405f205f915090505481565b60035481565b60025481565b5f47905090565b60075f9054906101000a900460ff1681565b3373ffffffffffffffffffffffffffffffffffffffff165f8054906101000a900473ffffffffffffffffffffffffffffffffffffffff1673ffffffffffffffffffffffffffffffffffffffff16146103a9576040517f08c379a00000000000000000000000000000000000000000000000000000000081526004016103a090610b7a565b60405180910390fd5b60015460025410156103f0576040517f08c379a00000000000000000000000000000000000000000000000000000000081526004016103e790610c08565b60405180910390fd5b6001600760016101000a81548160ff0219169083151502179055505f4790505f8054906101000a900473ffffffffffffffffffffffffffffffffffffffff1673ffffffffffffffffffffffffffffffffffffffff166108fc8290811502906040515f60405180830381858888f19350505050158015610471573d5f803e3d5ffd5b507f1af6e864e9128d8512e8f900b05cf8b9865bda2b23d6491e856825bb2b6b11b15f8054906101000a900473ffffffffffffffffffffffffffffffffffffffff16826040516104c2929190610c26565b60405180910390a150565b600580546104da90610c7a565b80601f016020809104026020016040519081016040528092919081815260200182805461050690610c7a565b80156105515780601f1061052857610100808354040283529160200191610551565b820191905f5260205f20905b81548152906001019060200180831161053457829003601f168201915b505050505081565b3373ffffffffffffffffffffffffffffffffffffffff165f8054906101000a900473ffffffffffffffffffffffffffffffffffffffff1673ffffffffffffffffffffffffffffffffffffffff16146105e6576040517f08c379a00000000000000000000000000000000000000000000000000000000081526004016105dd90610b7a565b60405180910390fd5b6203f48060045f8282546105fa9190610cd7565b92505081905550565b60015481565b6004546003541061064f576040517f08c379a000000000000000000000000000000000000000000000000000000000815260040161064690610d7a565b60405180910390fd5b5f60065f3373ffffffffffffffffffffffffffffffffffffffff1673ffffffffffffffffffffffffffffffffffffffff1681526020019081526020015f2054116106ce576040517f08c379a00000000000000000000000000000000000000000000000000000000081526004016106c590610e08565b60405180910390fd5b5f60065f3373ffffffffffffffffffffffffffffffffffffffff1673ffffffffffffffffffffffffffffffffffffffff1681526020019081526020015f205490505f60065f3373ffffffffffffffffffffffffffffffffffffffff1673ffffffffffffffffffffffffffffffffffffffff1681526020019081526020015f20819055508060025f8282546107629190610e26565b925050819055503373ffffffffffffffffffffffffffffffffffffffff166108fc8290811502906040515f60405180830381858888f193505050501580156107ac573d5f803e3d5ffd5b507f39468c1d71427885cd0ca9666ce55b825f33a599cd88ccd9e542c50d6f2e28d433826040516107de929190610c26565b60405180910390a150565b600760019054906101000a900460ff1681565b60045481565b60045460035410610848576040517f08c379a000000000000000000000000000000000000000000000000000000000815260040161083f90610ea3565b60405180910390fd5b6001546002541061088e576040517f08c379a000000000000000000000000000000000000000000000000000000000815260040161088590610f31565b60405180910390fd5b5f3490508060065f3373ffffffffffffffffffffffffffffffffffffffff1673ffffffffffffffffffffffffffffffffffffffff1681526020019081526020015f20819055508060025f8282546108e59190610cd7565b92505081905550600160075f6101000a81548160ff0219169083151502179055507f6e74c4bdbf4d61760a6e0b30521eb2f8149d30b241e3bc325426a99478a10bd73334604051610937929190610c26565b60405180910390a150565b5f8054906101000a900473ffffffffffffffffffffffffffffffffffffffff1681565b5f80fd5b5f73ffffffffffffffffffffffffffffffffffffffff82169050919050565b5f61099282610969565b9050919050565b6109a281610988565b81146109ac575f80fd5b50565b5f813590506109bd81610999565b92915050565b5f602082840312156109d8576109d7610965565b5b5f6109e5848285016109af565b91505092915050565b5f819050919050565b610a00816109ee565b82525050565b5f602082019050610a195f8301846109f7565b92915050565b5f8115159050919050565b610a3381610a1f565b82525050565b5f602082019050610a4c5f830184610a2a565b92915050565b5f81519050919050565b5f82825260208201905092915050565b8281835e5f83830152505050565b5f601f19601f8301169050919050565b5f610a9482610a52565b610a9e8185610a5c565b9350610aae818560208601610a6c565b610ab781610a7a565b840191505092915050565b5f6020820190508181035f830152610ada8184610a8a565b905092915050565b610aeb81610988565b82525050565b5f602082019050610b045f830184610ae2565b92915050565b7f6f6e6c792072656365697665722063616e2063616c6c20746869732066756e635f8201527f74696f6e00000000000000000000000000000000000000000000000000000000602082015250565b5f610b64602483610a5c565b9150610b6f82610b0a565b604082019050919050565b5f6020820190508181035f830152610b9181610b58565b9050919050565b7f7468652074617267657420616d6f756e7420686173206e6f74206265656e20615f8201527f6368696576656400000000000000000000000000000000000000000000000000602082015250565b5f610bf2602783610a5c565b9150610bfd82610b98565b604082019050919050565b5f6020820190508181035f830152610c1f81610be6565b9050919050565b5f604082019050610c395f830185610ae2565b610c4660208301846109f7565b9392505050565b7f4e487b71000000000000000000000000000000000000000000000000000000005f52602260045260245ffd5b5f6002820490506001821680610c9157607f821691505b602082108103610ca457610ca3610c4d565b5b50919050565b7f4e487b71000000000000000000000000000000000000000000000000000000005f52601160045260245ffd5b5f610ce1826109ee565b9150610cec836109ee565b9250828201905080821115610d0457610d03610caa565b5b92915050565b7f63616e27742067657420726566756e642061667465722063726f776466756e645f8201527f696e672068617320656e64656400000000000000000000000000000000000000602082015250565b5f610d64602d83610a5c565b9150610d6f82610d0a565b604082019050919050565b5f6020820190508181035f830152610d9181610d58565b9050919050565b7f796f7520646964206e6f7420706172746963697061746520696e2074686520635f8201527f726f776466756e64696e67000000000000000000000000000000000000000000602082015250565b5f610df2602b83610a5c565b9150610dfd82610d98565b604082019050919050565b5f6020820190508181035f830152610e1f81610de6565b9050919050565b5f610e30826109ee565b9150610e3b836109ee565b9250828203905081811115610e5357610e52610caa565b5b92915050565b7f63726f776466756e64696e672068617320656e646564000000000000000000005f82015250565b5f610e8d601683610a5c565b9150610e9882610e59565b602082019050919050565b5f6020820190508181035f830152610eba81610e81565b9050919050565b7f7468652074617267657420616d6f756e7420686173206265656e2072656163685f8201527f6564000000000000000000000000000000000000000000000000000000000000602082015250565b5f610f1b602283610a5c565b9150610f2682610ec1565b604082019050919050565b5f6020820190508181035f830152610f4881610f0f565b905091905056fea2646970667358221220fe3378e79a02f86ebbb46fdda8c7e484cfebd833245fc479a6a59751111ddf7b64736f6c634300081a0033",
					"opcodes": "PUSH1 0x80 PUSH1 0x40 MSTORE CALLVALUE DUP1 ISZERO PUSH2 0xF JUMPI PUSH0 DUP1 REVERT JUMPDEST POP PUSH1 0x40 MLOAD PUSH2 0x15D2 CODESIZE SUB DUP1 PUSH2 0x15D2 DUP4 CODECOPY DUP2 DUP2 ADD PUSH1 0x40 MSTORE DUP2 ADD SWAP1 PUSH2 0x31 SWAP2 SWAP1 PUSH2 0x272 JUMP JUMPDEST CALLER PUSH0 DUP1 PUSH2 0x100 EXP DUP2 SLOAD DUP2 PUSH20 0xFFFFFFFFFFFFFFFFFFFFFFFFFFFFFFFFFFFFFFFF MUL NOT AND SWAP1 DUP4 PUSH20 0xFFFFFFFFFFFFFFFFFFFFFFFFFFFFFFFFFFFFFFFF AND MUL OR SWAP1 SSTORE POP PUSH8 0xDE0B6B3A7640000 DUP3 PUSH2 0x84 SWAP2 SWAP1 PUSH2 0x2F9 JUMP JUMPDEST PUSH1 0x1 DUP2 SWAP1 SSTORE POP TIMESTAMP PUSH1 0x3 DUP2 SWAP1 SSTORE POP PUSH3 0x93A80 PUSH1 0x3 SLOAD PUSH2 0xA2 SWAP2 SWAP1 PUSH2 0x33A JUMP JUMPDEST PUSH1 0x4 DUP2 SWAP1 SSTORE POP DUP1 PUSH1 0x5 SWAP1 DUP2 PUSH2 0xB7 SWAP2 SWAP1 PUSH2 0x571 JUMP JUMPDEST POP PUSH0 PUSH1 0x7 PUSH0 PUSH2 0x100 EXP DUP2 SLOAD DUP2 PUSH1 0xFF MUL NOT AND SWAP1 DUP4 ISZERO ISZERO MUL OR SWAP1 SSTORE POP PUSH0 PUSH1 0x7 PUSH1 0x1 PUSH2 0x100 EXP DUP2 SLOAD DUP2 PUSH1 0xFF MUL NOT AND SWAP1 DUP4 ISZERO ISZERO MUL OR SWAP1 SSTORE POP POP POP PUSH2 0x640 JUMP JUMPDEST PUSH0 PUSH1 0x40 MLOAD SWAP1 POP SWAP1 JUMP JUMPDEST PUSH0 DUP1 REVERT JUMPDEST PUSH0 DUP1 REVERT JUMPDEST PUSH0 DUP2 SWAP1 POP SWAP2 SWAP1 POP JUMP JUMPDEST PUSH2 0x115 DUP2 PUSH2 0x103 JUMP JUMPDEST DUP2 EQ PUSH2 0x11F JUMPI PUSH0 DUP1 REVERT JUMPDEST POP JUMP JUMPDEST PUSH0 DUP2 MLOAD SWAP1 POP PUSH2 0x130 DUP2 PUSH2 0x10C JUMP JUMPDEST SWAP3 SWAP2 POP POP JUMP JUMPDEST PUSH0 DUP1 REVERT JUMPDEST PUSH0 DUP1 REVERT JUMPDEST PUSH0 PUSH1 0x1F NOT PUSH1 0x1F DUP4 ADD AND SWAP1 POP SWAP2 SWAP1 POP JUMP JUMPDEST PUSH32 0x4E487B7100000000000000000000000000000000000000000000000000000000 PUSH0 MSTORE PUSH1 0x41 PUSH1 0x4 MSTORE PUSH1 0x24 PUSH0 REVERT JUMPDEST PUSH2 0x184 DUP3 PUSH2 0x13E JUMP JUMPDEST DUP2 ADD DUP2 DUP2 LT PUSH8 0xFFFFFFFFFFFFFFFF DUP3 GT OR ISZERO PUSH2 0x1A3 JUMPI PUSH2 0x1A2 PUSH2 0x14E JUMP JUMPDEST JUMPDEST DUP1 PUSH1 0x40 MSTORE POP POP POP JUMP JUMPDEST PUSH0 PUSH2 0x1B5 PUSH2 0xF2 JUMP JUMPDEST SWAP1 POP PUSH2 0x1C1 DUP3 DUP3 PUSH2 0x17B JUMP JUMPDEST SWAP2 SWAP1 POP JUMP JUMPDEST PUSH0 PUSH8 0xFFFFFFFFFFFFFFFF DUP3 GT ISZERO PUSH2 0x1E0 JUMPI PUSH2 0x1DF PUSH2 0x14E JUMP JUMPDEST JUMPDEST PUSH2 0x1E9 DUP3 PUSH2 0x13E JUMP JUMPDEST SWAP1 POP PUSH1 0x20 DUP2 ADD SWAP1 POP SWAP2 SWAP1 POP JUMP JUMPDEST DUP3 DUP2 DUP4 MCOPY PUSH0 DUP4 DUP4 ADD MSTORE POP POP POP JUMP JUMPDEST PUSH0 PUSH2 0x216 PUSH2 0x211 DUP5 PUSH2 0x1C6 JUMP JUMPDEST PUSH2 0x1AC JUMP JUMPDEST SWAP1 POP DUP3 DUP2 MSTORE PUSH1 0x20 DUP2 ADD DUP5 DUP5 DUP5 ADD GT ISZERO PUSH2 0x232 JUMPI PUSH2 0x231 PUSH2 0x13A JUMP JUMPDEST JUMPDEST PUSH2 0x23D DUP5 DUP3 DUP6 PUSH2 0x1F6 JUMP JUMPDEST POP SWAP4 SWAP3 POP POP POP JUMP JUMPDEST PUSH0 DUP3 PUSH1 0x1F DUP4 ADD SLT PUSH2 0x259 JUMPI PUSH2 0x258 PUSH2 0x136 JUMP JUMPDEST JUMPDEST DUP2 MLOAD PUSH2 0x269 DUP5 DUP3 PUSH1 0x20 DUP7 ADD PUSH2 0x204 JUMP JUMPDEST SWAP2 POP POP SWAP3 SWAP2 POP POP JUMP JUMPDEST PUSH0 DUP1 PUSH1 0x40 DUP4 DUP6 SUB SLT ISZERO PUSH2 0x288 JUMPI PUSH2 0x287 PUSH2 0xFB JUMP JUMPDEST JUMPDEST PUSH0 PUSH2 0x295 DUP6 DUP3 DUP7 ADD PUSH2 0x122 JUMP JUMPDEST SWAP3 POP POP PUSH1 0x20 DUP4 ADD MLOAD PUSH8 0xFFFFFFFFFFFFFFFF DUP2 GT ISZERO PUSH2 0x2B6 JUMPI PUSH2 0x2B5 PUSH2 0xFF JUMP JUMPDEST JUMPDEST PUSH2 0x2C2 DUP6 DUP3 DUP7 ADD PUSH2 0x245 JUMP JUMPDEST SWAP2 POP POP SWAP3 POP SWAP3 SWAP1 POP JUMP JUMPDEST PUSH32 0x4E487B7100000000000000000000000000000000000000000000000000000000 PUSH0 MSTORE PUSH1 0x11 PUSH1 0x4 MSTORE PUSH1 0x24 PUSH0 REVERT JUMPDEST PUSH0 PUSH2 0x303 DUP3 PUSH2 0x103 JUMP JUMPDEST SWAP2 POP PUSH2 0x30E DUP4 PUSH2 0x103 JUMP JUMPDEST SWAP3 POP DUP3 DUP3 MUL PUSH2 0x31C DUP2 PUSH2 0x103 JUMP JUMPDEST SWAP2 POP DUP3 DUP3 DIV DUP5 EQ DUP4 ISZERO OR PUSH2 0x333 JUMPI PUSH2 0x332 PUSH2 0x2CC JUMP JUMPDEST JUMPDEST POP SWAP3 SWAP2 POP POP JUMP JUMPDEST PUSH0 PUSH2 0x344 DUP3 PUSH2 0x103 JUMP JUMPDEST SWAP2 POP PUSH2 0x34F DUP4 PUSH2 0x103 JUMP JUMPDEST SWAP3 POP DUP3 DUP3 ADD SWAP1 POP DUP1 DUP3 GT ISZERO PUSH2 0x367 JUMPI PUSH2 0x366 PUSH2 0x2CC JUMP JUMPDEST JUMPDEST SWAP3 SWAP2 POP POP JUMP JUMPDEST PUSH0 DUP2 MLOAD SWAP1 POP SWAP2 SWAP1 POP JUMP JUMPDEST PUSH32 0x4E487B7100000000000000000000000000000000000000000000000000000000 PUSH0 MSTORE PUSH1 0x22 PUSH1 0x4 MSTORE PUSH1 0x24 PUSH0 REVERT JUMPDEST PUSH0 PUSH1 0x2 DUP3 DIV SWAP1 POP PUSH1 0x1 DUP3 AND DUP1 PUSH2 0x3BB JUMPI PUSH1 0x7F DUP3 AND SWAP2 POP JUMPDEST PUSH1 0x20 DUP3 LT DUP2 SUB PUSH2 0x3CE JUMPI PUSH2 0x3CD PUSH2 0x377 JUMP JUMPDEST JUMPDEST POP SWAP2 SWAP1 POP JUMP JUMPDEST PUSH0 DUP2 SWAP1 POP DUP2 PUSH0 MSTORE PUSH1 0x20 PUSH0 KECCAK256 SWAP1 POP SWAP2 SWAP1 POP JUMP JUMPDEST PUSH0 PUSH1 0x20 PUSH1 0x1F DUP4 ADD DIV SWAP1 POP SWAP2 SWAP1 POP JUMP JUMPDEST PUSH0 DUP3 DUP3 SHL SWAP1 POP SWAP3 SWAP2 POP POP JUMP JUMPDEST PUSH0 PUSH1 0x8 DUP4 MUL PUSH2 0x430 PUSH32 0xFFFFFFFFFFFFFFFFFFFFFFFFFFFFFFFFFFFFFFFFFFFFFFFFFFFFFFFFFFFFFFFF DUP3 PUSH2 0x3F5 JUMP JUMPDEST PUSH2 0x43A DUP7 DUP4 PUSH2 0x3F5 JUMP JUMPDEST SWAP6 POP DUP1 NOT DUP5 AND SWAP4 POP DUP1 DUP7 AND DUP5 OR SWAP3 POP POP POP SWAP4 SWAP3 POP POP POP JUMP JUMPDEST PUSH0 DUP2 SWAP1 POP SWAP2 SWAP1 POP JUMP JUMPDEST PUSH0 PUSH2 0x475 PUSH2 0x470 PUSH2 0x46B DUP5 PUSH2 0x103 JUMP JUMPDEST PUSH2 0x452 JUMP JUMPDEST PUSH2 0x103 JUMP JUMPDEST SWAP1 POP SWAP2 SWAP1 POP JUMP JUMPDEST PUSH0 DUP2 SWAP1 POP SWAP2 SWAP1 POP JUMP JUMPDEST PUSH2 0x48E DUP4 PUSH2 0x45B JUMP JUMPDEST PUSH2 0x4A2 PUSH2 0x49A DUP3 PUSH2 0x47C JUMP JUMPDEST DUP5 DUP5 SLOAD PUSH2 0x401 JUMP JUMPDEST DUP3 SSTORE POP POP POP POP JUMP JUMPDEST PUSH0 SWAP1 JUMP JUMPDEST PUSH2 0x4B6 PUSH2 0x4AA JUMP JUMPDEST PUSH2 0x4C1 DUP2 DUP5 DUP5 PUSH2 0x485 JUMP JUMPDEST POP POP POP JUMP JUMPDEST JUMPDEST DUP2 DUP2 LT ISZERO PUSH2 0x4E4 JUMPI PUSH2 0x4D9 PUSH0 DUP3 PUSH2 0x4AE JUMP JUMPDEST PUSH1 0x1 DUP2 ADD SWAP1 POP PUSH2 0x4C7 JUMP JUMPDEST POP POP JUMP JUMPDEST PUSH1 0x1F DUP3 GT ISZERO PUSH2 0x529 JUMPI PUSH2 0x4FA DUP2 PUSH2 0x3D4 JUMP JUMPDEST PUSH2 0x503 DUP5 PUSH2 0x3E6 JUMP JUMPDEST DUP2 ADD PUSH1 0x20 DUP6 LT ISZERO PUSH2 0x512 JUMPI DUP2 SWAP1 POP JUMPDEST PUSH2 0x526 PUSH2 0x51E DUP6 PUSH2 0x3E6 JUMP JUMPDEST DUP4 ADD DUP3 PUSH2 0x4C6 JUMP JUMPDEST POP POP JUMPDEST POP POP POP JUMP JUMPDEST PUSH0 DUP3 DUP3 SHR SWAP1 POP SWAP3 SWAP2 POP POP JUMP JUMPDEST PUSH0 PUSH2 0x549 PUSH0 NOT DUP5 PUSH1 0x8 MUL PUSH2 0x52E JUMP JUMPDEST NOT DUP1 DUP4 AND SWAP2 POP POP SWAP3 SWAP2 POP POP JUMP JUMPDEST PUSH0 PUSH2 0x561 DUP4 DUP4 PUSH2 0x53A JUMP JUMPDEST SWAP2 POP DUP3 PUSH1 0x2 MUL DUP3 OR SWAP1 POP SWAP3 SWAP2 POP POP JUMP JUMPDEST PUSH2 0x57A DUP3 PUSH2 0x36D JUMP JUMPDEST PUSH8 0xFFFFFFFFFFFFFFFF DUP2 GT ISZERO PUSH2 0x593 JUMPI PUSH2 0x592 PUSH2 0x14E JUMP JUMPDEST JUMPDEST PUSH2 0x59D DUP3 SLOAD PUSH2 0x3A4 JUMP JUMPDEST PUSH2 0x5A8 DUP3 DUP3 DUP6 PUSH2 0x4E8 JUMP JUMPDEST PUSH0 PUSH1 0x20 SWAP1 POP PUSH1 0x1F DUP4 GT PUSH1 0x1 DUP2 EQ PUSH2 0x5D9 JUMPI PUSH0 DUP5 ISZERO PUSH2 0x5C7 JUMPI DUP3 DUP8 ADD MLOAD SWAP1 POP JUMPDEST PUSH2 0x5D1 DUP6 DUP3 PUSH2 0x556 JUMP JUMPDEST DUP7 SSTORE POP PUSH2 0x638 JUMP JUMPDEST PUSH1 0x1F NOT DUP5 AND PUSH2 0x5E7 DUP7 PUSH2 0x3D4 JUMP JUMPDEST PUSH0 JUMPDEST DUP3 DUP2 LT ISZERO PUSH2 0x60E JUMPI DUP5 DUP10 ADD MLOAD DUP3 SSTORE PUSH1 0x1 DUP3 ADD SWAP2 POP PUSH1 0x20 DUP6 ADD SWAP5 POP PUSH1 0x20 DUP2 ADD SWAP1 POP PUSH2 0x5E9 JUMP JUMPDEST DUP7 DUP4 LT ISZERO PUSH2 0x62B JUMPI DUP5 DUP10 ADD MLOAD PUSH2 0x627 PUSH1 0x1F DUP10 AND DUP3 PUSH2 0x53A JUMP JUMPDEST DUP4 SSTORE POP JUMPDEST PUSH1 0x1 PUSH1 0x2 DUP9 MUL ADD DUP9 SSTORE POP POP POP JUMPDEST POP POP POP POP POP POP JUMP JUMPDEST PUSH2 0xF85 DUP1 PUSH2 0x64D PUSH0 CODECOPY PUSH0 RETURN INVALID PUSH1 0x80 PUSH1 0x40 MSTORE PUSH1 0x4 CALLDATASIZE LT PUSH2 0xDC JUMPI PUSH0 CALLDATALOAD PUSH1 0xE0 SHR DUP1 PUSH4 0x69EF5E0A GT PUSH2 0x7E JUMPI DUP1 PUSH4 0xB2FA1C9E GT PUSH2 0x58 JUMPI DUP1 PUSH4 0xB2FA1C9E EQ PUSH2 0x25A JUMPI DUP1 PUSH4 0xC24A0F8B EQ PUSH2 0x284 JUMPI DUP1 PUSH4 0xD7BB99BA EQ PUSH2 0x2AE JUMPI DUP1 PUSH4 0xF7260D3E EQ PUSH2 0x2B8 JUMPI PUSH2 0xDC JUMP JUMPDEST DUP1 PUSH4 0x69EF5E0A EQ PUSH2 0x204 JUMPI DUP1 PUSH4 0x953B8FB8 EQ PUSH2 0x21A JUMPI DUP1 PUSH4 0xB2D5AE44 EQ PUSH2 0x244 JUMPI PUSH2 0xDC JUMP JUMPDEST DUP1 PUSH4 0x12065FE0 GT PUSH2 0xBA JUMPI DUP1 PUSH4 0x12065FE0 EQ PUSH2 0x170 JUMPI DUP1 PUSH4 0x1E171D7C EQ PUSH2 0x19A JUMPI DUP1 PUSH4 0x3CCFD60B EQ PUSH2 0x1C4 JUMPI DUP1 PUSH4 0x4A9E3635 EQ PUSH2 0x1DA JUMPI PUSH2 0xDC JUMP JUMPDEST DUP1 PUSH4 0x31B3677 EQ PUSH2 0xE0 JUMPI DUP1 PUSH4 0xB97BC86 EQ PUSH2 0x11C JUMPI DUP1 PUSH4 0xDCF4B8F EQ PUSH2 0x146 JUMPI JUMPDEST PUSH0 DUP1 REVERT JUMPDEST CALLVALUE DUP1 ISZERO PUSH2 0xEB JUMPI PUSH0 DUP1 REVERT JUMPDEST POP PUSH2 0x106 PUSH1 0x4 DUP1 CALLDATASIZE SUB DUP2 ADD SWAP1 PUSH2 0x101 SWAP2 SWAP1 PUSH2 0x9C3 JUMP JUMPDEST PUSH2 0x2E2 JUMP JUMPDEST PUSH1 0x40 MLOAD PUSH2 0x113 SWAP2 SWAP1 PUSH2 0xA06 JUMP JUMPDEST PUSH1 0x40 MLOAD DUP1 SWAP2 SUB SWAP1 RETURN JUMPDEST CALLVALUE DUP1 ISZERO PUSH2 0x127 JUMPI PUSH0 DUP1 REVERT JUMPDEST POP PUSH2 0x130 PUSH2 0x2F7 JUMP JUMPDEST PUSH1 0x40 MLOAD PUSH2 0x13D SWAP2 SWAP1 PUSH2 0xA06 JUMP JUMPDEST PUSH1 0x40 MLOAD DUP1 SWAP2 SUB SWAP1 RETURN JUMPDEST CALLVALUE DUP1 ISZERO PUSH2 0x151 JUMPI PUSH0 DUP1 REVERT JUMPDEST POP PUSH2 0x15A PUSH2 0x2FD JUMP JUMPDEST PUSH1 0x40 MLOAD PUSH2 0x167 SWAP2 SWAP1 PUSH2 0xA06 JUMP JUMPDEST PUSH1 0x40 MLOAD DUP1 SWAP2 SUB SWAP1 RETURN JUMPDEST CALLVALUE DUP1 ISZERO PUSH2 0x17B JUMPI PUSH0 DUP1 REVERT JUMPDEST POP PUSH2 0x184 PUSH2 0x303 JUMP JUMPDEST PUSH1 0x40 MLOAD PUSH2 0x191 SWAP2 SWAP1 PUSH2 0xA06 JUMP JUMPDEST PUSH1 0x40 MLOAD DUP1 SWAP2 SUB SWAP1 RETURN JUMPDEST CALLVALUE DUP1 ISZERO PUSH2 0x1A5 JUMPI PUSH0 DUP1 REVERT JUMPDEST POP PUSH2 0x1AE PUSH2 0x30A JUMP JUMPDEST PUSH1 0x40 MLOAD PUSH2 0x1BB SWAP2 SWAP1 PUSH2 0xA39 JUMP JUMPDEST PUSH1 0x40 MLOAD DUP1 SWAP2 SUB SWAP1 RETURN JUMPDEST CALLVALUE DUP1 ISZERO PUSH2 0x1CF JUMPI PUSH0 DUP1 REVERT JUMPDEST POP PUSH2 0x1D8 PUSH2 0x31C JUMP JUMPDEST STOP JUMPDEST CALLVALUE DUP1 ISZERO PUSH2 0x1E5 JUMPI PUSH0 DUP1 REVERT JUMPDEST POP PUSH2 0x1EE PUSH2 0x4CD JUMP JUMPDEST PUSH1 0x40 MLOAD PUSH2 0x1FB SWAP2 SWAP1 PUSH2 0xAC2 JUMP JUMPDEST PUSH1 0x40 MLOAD DUP1 SWAP2 SUB SWAP1 RETURN JUMPDEST CALLVALUE DUP1 ISZERO PUSH2 0x20F JUMPI PUSH0 DUP1 REVERT JUMPDEST POP PUSH2 0x218 PUSH2 0x559 JUMP JUMPDEST STOP JUMPDEST CALLVALUE DUP1 ISZERO PUSH2 0x225 JUMPI PUSH0 DUP1 REVERT JUMPDEST POP PUSH2 0x22E PUSH2 0x603 JUMP JUMPDEST PUSH1 0x40 MLOAD PUSH2 0x23B SWAP2 SWAP1 PUSH2 0xA06 JUMP JUMPDEST PUSH1 0x40 MLOAD DUP1 SWAP2 SUB SWAP1 RETURN JUMPDEST CALLVALUE DUP1 ISZERO PUSH2 0x24F JUMPI PUSH0 DUP1 REVERT JUMPDEST POP PUSH2 0x258 PUSH2 0x609 JUMP JUMPDEST STOP JUMPDEST CALLVALUE DUP1 ISZERO PUSH2 0x265 JUMPI PUSH0 DUP1 REVERT JUMPDEST POP PUSH2 0x26E PUSH2 0x7E9 JUMP JUMPDEST PUSH1 0x40 MLOAD PUSH2 0x27B SWAP2 SWAP1 PUSH2 0xA39 JUMP JUMPDEST PUSH1 0x40 MLOAD DUP1 SWAP2 SUB SWAP1 RETURN JUMPDEST CALLVALUE DUP1 ISZERO PUSH2 0x28F JUMPI PUSH0 DUP1 REVERT JUMPDEST POP PUSH2 0x298 PUSH2 0x7FC JUMP JUMPDEST PUSH1 0x40 MLOAD PUSH2 0x2A5 SWAP2 SWAP1 PUSH2 0xA06 JUMP JUMPDEST PUSH1 0x40 MLOAD DUP1 SWAP2 SUB SWAP1 RETURN JUMPDEST PUSH2 0x2B6 PUSH2 0x802 JUMP JUMPDEST STOP JUMPDEST CALLVALUE DUP1 ISZERO PUSH2 0x2C3 JUMPI PUSH0 DUP1 REVERT JUMPDEST POP PUSH2 0x2CC PUSH2 0x942 JUMP JUMPDEST PUSH1 0x40 MLOAD PUSH2 0x2D9 SWAP2 SWAP1 PUSH2 0xAF1 JUMP JUMPDEST PUSH1 0x40 MLOAD DUP1 SWAP2 SUB SWAP1 RETURN JUMPDEST PUSH1 0x6 PUSH1 0x20 MSTORE DUP1 PUSH0 MSTORE PUSH1 0x40 PUSH0 KECCAK256 PUSH0 SWAP2 POP SWAP1 POP SLOAD DUP2 JUMP JUMPDEST PUSH1 0x3 SLOAD DUP2 JUMP JUMPDEST PUSH1 0x2 SLOAD DUP2 JUMP JUMPDEST PUSH0 SELFBALANCE SWAP1 POP SWAP1 JUMP JUMPDEST PUSH1 0x7 PUSH0 SWAP1 SLOAD SWAP1 PUSH2 0x100 EXP SWAP1 DIV PUSH1 0xFF AND DUP2 JUMP JUMPDEST CALLER PUSH20 0xFFFFFFFFFFFFFFFFFFFFFFFFFFFFFFFFFFFFFFFF AND PUSH0 DUP1 SLOAD SWAP1 PUSH2 0x100 EXP SWAP1 DIV PUSH20 0xFFFFFFFFFFFFFFFFFFFFFFFFFFFFFFFFFFFFFFFF AND PUSH20 0xFFFFFFFFFFFFFFFFFFFFFFFFFFFFFFFFFFFFFFFF AND EQ PUSH2 0x3A9 JUMPI PUSH1 0x40 MLOAD PUSH32 0x8C379A000000000000000000000000000000000000000000000000000000000 DUP2 MSTORE PUSH1 0x4 ADD PUSH2 0x3A0 SWAP1 PUSH2 0xB7A JUMP JUMPDEST PUSH1 0x40 MLOAD DUP1 SWAP2 SUB SWAP1 REVERT JUMPDEST PUSH1 0x1 SLOAD PUSH1 0x2 SLOAD LT ISZERO PUSH2 0x3F0 JUMPI PUSH1 0x40 MLOAD PUSH32 0x8C379A000000000000000000000000000000000000000000000000000000000 DUP2 MSTORE PUSH1 0x4 ADD PUSH2 0x3E7 SWAP1 PUSH2 0xC08 JUMP JUMPDEST PUSH1 0x40 MLOAD DUP1 SWAP2 SUB SWAP1 REVERT JUMPDEST PUSH1 0x1 PUSH1 0x7 PUSH1 0x1 PUSH2 0x100 EXP DUP2 SLOAD DUP2 PUSH1 0xFF MUL NOT AND SWAP1 DUP4 ISZERO ISZERO MUL OR SWAP1 SSTORE POP PUSH0 SELFBALANCE SWAP1 POP PUSH0 DUP1 SLOAD SWAP1 PUSH2 0x100 EXP SWAP1 DIV PUSH20 0xFFFFFFFFFFFFFFFFFFFFFFFFFFFFFFFFFFFFFFFF AND PUSH20 0xFFFFFFFFFFFFFFFFFFFFFFFFFFFFFFFFFFFFFFFF AND PUSH2 0x8FC DUP3 SWAP1 DUP2 ISZERO MUL SWAP1 PUSH1 0x40 MLOAD PUSH0 PUSH1 0x40 MLOAD DUP1 DUP4 SUB DUP2 DUP6 DUP9 DUP9 CALL SWAP4 POP POP POP POP ISZERO DUP1 ISZERO PUSH2 0x471 JUMPI RETURNDATASIZE PUSH0 DUP1 RETURNDATACOPY RETURNDATASIZE PUSH0 REVERT JUMPDEST POP PUSH32 0x1AF6E864E9128D8512E8F900B05CF8B9865BDA2B23D6491E856825BB2B6B11B1 PUSH0 DUP1 SLOAD SWAP1 PUSH2 0x100 EXP SWAP1 DIV PUSH20 0xFFFFFFFFFFFFFFFFFFFFFFFFFFFFFFFFFFFFFFFF AND DUP3 PUSH1 0x40 MLOAD PUSH2 0x4C2 SWAP3 SWAP2 SWAP1 PUSH2 0xC26 JUMP JUMPDEST PUSH1 0x40 MLOAD DUP1 SWAP2 SUB SWAP1 LOG1 POP JUMP JUMPDEST PUSH1 0x5 DUP1 SLOAD PUSH2 0x4DA SWAP1 PUSH2 0xC7A JUMP JUMPDEST DUP1 PUSH1 0x1F ADD PUSH1 0x20 DUP1 SWAP2 DIV MUL PUSH1 0x20 ADD PUSH1 0x40 MLOAD SWAP1 DUP2 ADD PUSH1 0x40 MSTORE DUP1 SWAP3 SWAP2 SWAP1 DUP2 DUP2 MSTORE PUSH1 0x20 ADD DUP3 DUP1 SLOAD PUSH2 0x506 SWAP1 PUSH2 0xC7A JUMP JUMPDEST DUP1 ISZERO PUSH2 0x551 JUMPI DUP1 PUSH1 0x1F LT PUSH2 0x528 JUMPI PUSH2 0x100 DUP1 DUP4 SLOAD DIV MUL DUP4 MSTORE SWAP2 PUSH1 0x20 ADD SWAP2 PUSH2 0x551 JUMP JUMPDEST DUP3 ADD SWAP2 SWAP1 PUSH0 MSTORE PUSH1 0x20 PUSH0 KECCAK256 SWAP1 JUMPDEST DUP2 SLOAD DUP2 MSTORE SWAP1 PUSH1 0x1 ADD SWAP1 PUSH1 0x20 ADD DUP1 DUP4 GT PUSH2 0x534 JUMPI DUP3 SWAP1 SUB PUSH1 0x1F AND DUP3 ADD SWAP2 JUMPDEST POP POP POP POP POP DUP2 JUMP JUMPDEST CALLER PUSH20 0xFFFFFFFFFFFFFFFFFFFFFFFFFFFFFFFFFFFFFFFF AND PUSH0 DUP1 SLOAD SWAP1 PUSH2 0x100 EXP SWAP1 DIV PUSH20 0xFFFFFFFFFFFFFFFFFFFFFFFFFFFFFFFFFFFFFFFF AND PUSH20 0xFFFFFFFFFFFFFFFFFFFFFFFFFFFFFFFFFFFFFFFF AND EQ PUSH2 0x5E6 JUMPI PUSH1 0x40 MLOAD PUSH32 0x8C379A000000000000000000000000000000000000000000000000000000000 DUP2 MSTORE PUSH1 0x4 ADD PUSH2 0x5DD SWAP1 PUSH2 0xB7A JUMP JUMPDEST PUSH1 0x40 MLOAD DUP1 SWAP2 SUB SWAP1 REVERT JUMPDEST PUSH3 0x3F480 PUSH1 0x4 PUSH0 DUP3 DUP3 SLOAD PUSH2 0x5FA SWAP2 SWAP1 PUSH2 0xCD7 JUMP JUMPDEST SWAP3 POP POP DUP2 SWAP1 SSTORE POP JUMP JUMPDEST PUSH1 0x1 SLOAD DUP2 JUMP JUMPDEST PUSH1 0x4 SLOAD PUSH1 0x3 SLOAD LT PUSH2 0x64F JUMPI PUSH1 0x40 MLOAD PUSH32 0x8C379A000000000000000000000000000000000000000000000000000000000 DUP2 MSTORE PUSH1 0x4 ADD PUSH2 0x646 SWAP1 PUSH2 0xD7A JUMP JUMPDEST PUSH1 0x40 MLOAD DUP1 SWAP2 SUB SWAP1 REVERT JUMPDEST PUSH0 PUSH1 0x6 PUSH0 CALLER PUSH20 0xFFFFFFFFFFFFFFFFFFFFFFFFFFFFFFFFFFFFFFFF AND PUSH20 0xFFFFFFFFFFFFFFFFFFFFFFFFFFFFFFFFFFFFFFFF AND DUP2 MSTORE PUSH1 0x20 ADD SWAP1 DUP2 MSTORE PUSH1 0x20 ADD PUSH0 KECCAK256 SLOAD GT PUSH2 0x6CE JUMPI PUSH1 0x40 MLOAD PUSH32 0x8C379A000000000000000000000000000000000000000000000000000000000 DUP2 MSTORE PUSH1 0x4 ADD PUSH2 0x6C5 SWAP1 PUSH2 0xE08 JUMP JUMPDEST PUSH1 0x40 MLOAD DUP1 SWAP2 SUB SWAP1 REVERT JUMPDEST PUSH0 PUSH1 0x6 PUSH0 CALLER PUSH20 0xFFFFFFFFFFFFFFFFFFFFFFFFFFFFFFFFFFFFFFFF AND PUSH20 0xFFFFFFFFFFFFFFFFFFFFFFFFFFFFFFFFFFFFFFFF AND DUP2 MSTORE PUSH1 0x20 ADD SWAP1 DUP2 MSTORE PUSH1 0x20 ADD PUSH0 KECCAK256 SLOAD SWAP1 POP PUSH0 PUSH1 0x6 PUSH0 CALLER PUSH20 0xFFFFFFFFFFFFFFFFFFFFFFFFFFFFFFFFFFFFFFFF AND PUSH20 0xFFFFFFFFFFFFFFFFFFFFFFFFFFFFFFFFFFFFFFFF AND DUP2 MSTORE PUSH1 0x20 ADD SWAP1 DUP2 MSTORE PUSH1 0x20 ADD PUSH0 KECCAK256 DUP2 SWAP1 SSTORE POP DUP1 PUSH1 0x2 PUSH0 DUP3 DUP3 SLOAD PUSH2 0x762 SWAP2 SWAP1 PUSH2 0xE26 JUMP JUMPDEST SWAP3 POP POP DUP2 SWAP1 SSTORE POP CALLER PUSH20 0xFFFFFFFFFFFFFFFFFFFFFFFFFFFFFFFFFFFFFFFF AND PUSH2 0x8FC DUP3 SWAP1 DUP2 ISZERO MUL SWAP1 PUSH1 0x40 MLOAD PUSH0 PUSH1 0x40 MLOAD DUP1 DUP4 SUB DUP2 DUP6 DUP9 DUP9 CALL SWAP4 POP POP POP POP ISZERO DUP1 ISZERO PUSH2 0x7AC JUMPI RETURNDATASIZE PUSH0 DUP1 RETURNDATACOPY RETURNDATASIZE PUSH0 REVERT JUMPDEST POP PUSH32 0x39468C1D71427885CD0CA9666CE55B825F33A599CD88CCD9E542C50D6F2E28D4 CALLER DUP3 PUSH1 0x40 MLOAD PUSH2 0x7DE SWAP3 SWAP2 SWAP1 PUSH2 0xC26 JUMP JUMPDEST PUSH1 0x40 MLOAD DUP1 SWAP2 SUB SWAP1 LOG1 POP JUMP JUMPDEST PUSH1 0x7 PUSH1 0x1 SWAP1 SLOAD SWAP1 PUSH2 0x100 EXP SWAP1 DIV PUSH1 0xFF AND DUP2 JUMP JUMPDEST PUSH1 0x4 SLOAD DUP2 JUMP JUMPDEST PUSH1 0x4 SLOAD PUSH1 0x3 SLOAD LT PUSH2 0x848 JUMPI PUSH1 0x40 MLOAD PUSH32 0x8C379A000000000000000000000000000000000000000000000000000000000 DUP2 MSTORE PUSH1 0x4 ADD PUSH2 0x83F SWAP1 PUSH2 0xEA3 JUMP JUMPDEST PUSH1 0x40 MLOAD DUP1 SWAP2 SUB SWAP1 REVERT JUMPDEST PUSH1 0x1 SLOAD PUSH1 0x2 SLOAD LT PUSH2 0x88E JUMPI PUSH1 0x40 MLOAD PUSH32 0x8C379A000000000000000000000000000000000000000000000000000000000 DUP2 MSTORE PUSH1 0x4 ADD PUSH2 0x885 SWAP1 PUSH2 0xF31 JUMP JUMPDEST PUSH1 0x40 MLOAD DUP1 SWAP2 SUB SWAP1 REVERT JUMPDEST PUSH0 CALLVALUE SWAP1 POP DUP1 PUSH1 0x6 PUSH0 CALLER PUSH20 0xFFFFFFFFFFFFFFFFFFFFFFFFFFFFFFFFFFFFFFFF AND PUSH20 0xFFFFFFFFFFFFFFFFFFFFFFFFFFFFFFFFFFFFFFFF AND DUP2 MSTORE PUSH1 0x20 ADD SWAP1 DUP2 MSTORE PUSH1 0x20 ADD PUSH0 KECCAK256 DUP2 SWAP1 SSTORE POP DUP1 PUSH1 0x2 PUSH0 DUP3 DUP3 SLOAD PUSH2 0x8E5 SWAP2 SWAP1 PUSH2 0xCD7 JUMP JUMPDEST SWAP3 POP POP DUP2 SWAP1 SSTORE POP PUSH1 0x1 PUSH1 0x7 PUSH0 PUSH2 0x100 EXP DUP2 SLOAD DUP2 PUSH1 0xFF MUL NOT AND SWAP1 DUP4 ISZERO ISZERO MUL OR SWAP1 SSTORE POP PUSH32 0x6E74C4BDBF4D61760A6E0B30521EB2F8149D30B241E3BC325426A99478A10BD7 CALLER CALLVALUE PUSH1 0x40 MLOAD PUSH2 0x937 SWAP3 SWAP2 SWAP1 PUSH2 0xC26 JUMP JUMPDEST PUSH1 0x40 MLOAD DUP1 SWAP2 SUB SWAP1 LOG1 POP JUMP JUMPDEST PUSH0 DUP1 SLOAD SWAP1 PUSH2 0x100 EXP SWAP1 DIV PUSH20 0xFFFFFFFFFFFFFFFFFFFFFFFFFFFFFFFFFFFFFFFF AND DUP2 JUMP JUMPDEST PUSH0 DUP1 REVERT JUMPDEST PUSH0 PUSH20 0xFFFFFFFFFFFFFFFFFFFFFFFFFFFFFFFFFFFFFFFF DUP3 AND SWAP1 POP SWAP2 SWAP1 POP JUMP JUMPDEST PUSH0 PUSH2 0x992 DUP3 PUSH2 0x969 JUMP JUMPDEST SWAP1 POP SWAP2 SWAP1 POP JUMP JUMPDEST PUSH2 0x9A2 DUP2 PUSH2 0x988 JUMP JUMPDEST DUP2 EQ PUSH2 0x9AC JUMPI PUSH0 DUP1 REVERT JUMPDEST POP JUMP JUMPDEST PUSH0 DUP2 CALLDATALOAD SWAP1 POP PUSH2 0x9BD DUP2 PUSH2 0x999 JUMP JUMPDEST SWAP3 SWAP2 POP POP JUMP JUMPDEST PUSH0 PUSH1 0x20 DUP3 DUP5 SUB SLT ISZERO PUSH2 0x9D8 JUMPI PUSH2 0x9D7 PUSH2 0x965 JUMP JUMPDEST JUMPDEST PUSH0 PUSH2 0x9E5 DUP5 DUP3 DUP6 ADD PUSH2 0x9AF JUMP JUMPDEST SWAP2 POP POP SWAP3 SWAP2 POP POP JUMP JUMPDEST PUSH0 DUP2 SWAP1 POP SWAP2 SWAP1 POP JUMP JUMPDEST PUSH2 0xA00 DUP2 PUSH2 0x9EE JUMP JUMPDEST DUP3 MSTORE POP POP JUMP JUMPDEST PUSH0 PUSH1 0x20 DUP3 ADD SWAP1 POP PUSH2 0xA19 PUSH0 DUP4 ADD DUP5 PUSH2 0x9F7 JUMP JUMPDEST SWAP3 SWAP2 POP POP JUMP JUMPDEST PUSH0 DUP2 ISZERO ISZERO SWAP1 POP SWAP2 SWAP1 POP JUMP JUMPDEST PUSH2 0xA33 DUP2 PUSH2 0xA1F JUMP JUMPDEST DUP3 MSTORE POP POP JUMP JUMPDEST PUSH0 PUSH1 0x20 DUP3 ADD SWAP1 POP PUSH2 0xA4C PUSH0 DUP4 ADD DUP5 PUSH2 0xA2A JUMP JUMPDEST SWAP3 SWAP2 POP POP JUMP JUMPDEST PUSH0 DUP2 MLOAD SWAP1 POP SWAP2 SWAP1 POP JUMP JUMPDEST PUSH0 DUP3 DUP3 MSTORE PUSH1 0x20 DUP3 ADD SWAP1 POP SWAP3 SWAP2 POP POP JUMP JUMPDEST DUP3 DUP2 DUP4 MCOPY PUSH0 DUP4 DUP4 ADD MSTORE POP POP POP JUMP JUMPDEST PUSH0 PUSH1 0x1F NOT PUSH1 0x1F DUP4 ADD AND SWAP1 POP SWAP2 SWAP1 POP JUMP JUMPDEST PUSH0 PUSH2 0xA94 DUP3 PUSH2 0xA52 JUMP JUMPDEST PUSH2 0xA9E DUP2 DUP6 PUSH2 0xA5C JUMP JUMPDEST SWAP4 POP PUSH2 0xAAE DUP2 DUP6 PUSH1 0x20 DUP7 ADD PUSH2 0xA6C JUMP JUMPDEST PUSH2 0xAB7 DUP2 PUSH2 0xA7A JUMP JUMPDEST DUP5 ADD SWAP2 POP POP SWAP3 SWAP2 POP POP JUMP JUMPDEST PUSH0 PUSH1 0x20 DUP3 ADD SWAP1 POP DUP2 DUP2 SUB PUSH0 DUP4 ADD MSTORE PUSH2 0xADA DUP2 DUP5 PUSH2 0xA8A JUMP JUMPDEST SWAP1 POP SWAP3 SWAP2 POP POP JUMP JUMPDEST PUSH2 0xAEB DUP2 PUSH2 0x988 JUMP JUMPDEST DUP3 MSTORE POP POP JUMP JUMPDEST PUSH0 PUSH1 0x20 DUP3 ADD SWAP1 POP PUSH2 0xB04 PUSH0 DUP4 ADD DUP5 PUSH2 0xAE2 JUMP JUMPDEST SWAP3 SWAP2 POP POP JUMP JUMPDEST PUSH32 0x6F6E6C792072656365697665722063616E2063616C6C20746869732066756E63 PUSH0 DUP3 ADD MSTORE PUSH32 0x74696F6E00000000000000000000000000000000000000000000000000000000 PUSH1 0x20 DUP3 ADD MSTORE POP JUMP JUMPDEST PUSH0 PUSH2 0xB64 PUSH1 0x24 DUP4 PUSH2 0xA5C JUMP JUMPDEST SWAP2 POP PUSH2 0xB6F DUP3 PUSH2 0xB0A JUMP JUMPDEST PUSH1 0x40 DUP3 ADD SWAP1 POP SWAP2 SWAP1 POP JUMP JUMPDEST PUSH0 PUSH1 0x20 DUP3 ADD SWAP1 POP DUP2 DUP2 SUB PUSH0 DUP4 ADD MSTORE PUSH2 0xB91 DUP2 PUSH2 0xB58 JUMP JUMPDEST SWAP1 POP SWAP2 SWAP1 POP JUMP JUMPDEST PUSH32 0x7468652074617267657420616D6F756E7420686173206E6F74206265656E2061 PUSH0 DUP3 ADD MSTORE PUSH32 0x6368696576656400000000000000000000000000000000000000000000000000 PUSH1 0x20 DUP3 ADD MSTORE POP JUMP JUMPDEST PUSH0 PUSH2 0xBF2 PUSH1 0x27 DUP4 PUSH2 0xA5C JUMP JUMPDEST SWAP2 POP PUSH2 0xBFD DUP3 PUSH2 0xB98 JUMP JUMPDEST PUSH1 0x40 DUP3 ADD SWAP1 POP SWAP2 SWAP1 POP JUMP JUMPDEST PUSH0 PUSH1 0x20 DUP3 ADD SWAP1 POP DUP2 DUP2 SUB PUSH0 DUP4 ADD MSTORE PUSH2 0xC1F DUP2 PUSH2 0xBE6 JUMP JUMPDEST SWAP1 POP SWAP2 SWAP1 POP JUMP JUMPDEST PUSH0 PUSH1 0x40 DUP3 ADD SWAP1 POP PUSH2 0xC39 PUSH0 DUP4 ADD DUP6 PUSH2 0xAE2 JUMP JUMPDEST PUSH2 0xC46 PUSH1 0x20 DUP4 ADD DUP5 PUSH2 0x9F7 JUMP JUMPDEST SWAP4 SWAP3 POP POP POP JUMP JUMPDEST PUSH32 0x4E487B7100000000000000000000000000000000000000000000000000000000 PUSH0 MSTORE PUSH1 0x22 PUSH1 0x4 MSTORE PUSH1 0x24 PUSH0 REVERT JUMPDEST PUSH0 PUSH1 0x2 DUP3 DIV SWAP1 POP PUSH1 0x1 DUP3 AND DUP1 PUSH2 0xC91 JUMPI PUSH1 0x7F DUP3 AND SWAP2 POP JUMPDEST PUSH1 0x20 DUP3 LT DUP2 SUB PUSH2 0xCA4 JUMPI PUSH2 0xCA3 PUSH2 0xC4D JUMP JUMPDEST JUMPDEST POP SWAP2 SWAP1 POP JUMP JUMPDEST PUSH32 0x4E487B7100000000000000000000000000000000000000000000000000000000 PUSH0 MSTORE PUSH1 0x11 PUSH1 0x4 MSTORE PUSH1 0x24 PUSH0 REVERT JUMPDEST PUSH0 PUSH2 0xCE1 DUP3 PUSH2 0x9EE JUMP JUMPDEST SWAP2 POP PUSH2 0xCEC DUP4 PUSH2 0x9EE JUMP JUMPDEST SWAP3 POP DUP3 DUP3 ADD SWAP1 POP DUP1 DUP3 GT ISZERO PUSH2 0xD04 JUMPI PUSH2 0xD03 PUSH2 0xCAA JUMP JUMPDEST JUMPDEST SWAP3 SWAP2 POP POP JUMP JUMPDEST PUSH32 0x63616E27742067657420726566756E642061667465722063726F776466756E64 PUSH0 DUP3 ADD MSTORE PUSH32 0x696E672068617320656E64656400000000000000000000000000000000000000 PUSH1 0x20 DUP3 ADD MSTORE POP JUMP JUMPDEST PUSH0 PUSH2 0xD64 PUSH1 0x2D DUP4 PUSH2 0xA5C JUMP JUMPDEST SWAP2 POP PUSH2 0xD6F DUP3 PUSH2 0xD0A JUMP JUMPDEST PUSH1 0x40 DUP3 ADD SWAP1 POP SWAP2 SWAP1 POP JUMP JUMPDEST PUSH0 PUSH1 0x20 DUP3 ADD SWAP1 POP DUP2 DUP2 SUB PUSH0 DUP4 ADD MSTORE PUSH2 0xD91 DUP2 PUSH2 0xD58 JUMP JUMPDEST SWAP1 POP SWAP2 SWAP1 POP JUMP JUMPDEST PUSH32 0x796F7520646964206E6F7420706172746963697061746520696E207468652063 PUSH0 DUP3 ADD MSTORE PUSH32 0x726F776466756E64696E67000000000000000000000000000000000000000000 PUSH1 0x20 DUP3 ADD MSTORE POP JUMP JUMPDEST PUSH0 PUSH2 0xDF2 PUSH1 0x2B DUP4 PUSH2 0xA5C JUMP JUMPDEST SWAP2 POP PUSH2 0xDFD DUP3 PUSH2 0xD98 JUMP JUMPDEST PUSH1 0x40 DUP3 ADD SWAP1 POP SWAP2 SWAP1 POP JUMP JUMPDEST PUSH0 PUSH1 0x20 DUP3 ADD SWAP1 POP DUP2 DUP2 SUB PUSH0 DUP4 ADD MSTORE PUSH2 0xE1F DUP2 PUSH2 0xDE6 JUMP JUMPDEST SWAP1 POP SWAP2 SWAP1 POP JUMP JUMPDEST PUSH0 PUSH2 0xE30 DUP3 PUSH2 0x9EE JUMP JUMPDEST SWAP2 POP PUSH2 0xE3B DUP4 PUSH2 0x9EE JUMP JUMPDEST SWAP3 POP DUP3 DUP3 SUB SWAP1 POP DUP2 DUP2 GT ISZERO PUSH2 0xE53 JUMPI PUSH2 0xE52 PUSH2 0xCAA JUMP JUMPDEST JUMPDEST SWAP3 SWAP2 POP POP JUMP JUMPDEST PUSH32 0x63726F776466756E64696E672068617320656E64656400000000000000000000 PUSH0 DUP3 ADD MSTORE POP JUMP JUMPDEST PUSH0 PUSH2 0xE8D PUSH1 0x16 DUP4 PUSH2 0xA5C JUMP JUMPDEST SWAP2 POP PUSH2 0xE98 DUP3 PUSH2 0xE59 JUMP JUMPDEST PUSH1 0x20 DUP3 ADD SWAP1 POP SWAP2 SWAP1 POP JUMP JUMPDEST PUSH0 PUSH1 0x20 DUP3 ADD SWAP1 POP DUP2 DUP2 SUB PUSH0 DUP4 ADD MSTORE PUSH2 0xEBA DUP2 PUSH2 0xE81 JUMP JUMPDEST SWAP1 POP SWAP2 SWAP1 POP JUMP JUMPDEST PUSH32 0x7468652074617267657420616D6F756E7420686173206265656E207265616368 PUSH0 DUP3 ADD MSTORE PUSH32 0x6564000000000000000000000000000000000000000000000000000000000000 PUSH1 0x20 DUP3 ADD MSTORE POP JUMP JUMPDEST PUSH0 PUSH2 0xF1B PUSH1 0x22 DUP4 PUSH2 0xA5C JUMP JUMPDEST SWAP2 POP PUSH2 0xF26 DUP3 PUSH2 0xEC1 JUMP JUMPDEST PUSH1 0x40 DUP3 ADD SWAP1 POP SWAP2 SWAP1 POP JUMP JUMPDEST PUSH0 PUSH1 0x20 DUP3 ADD SWAP1 POP DUP2 DUP2 SUB PUSH0 DUP4 ADD MSTORE PUSH2 0xF48 DUP2 PUSH2 0xF0F JUMP JUMPDEST SWAP1 POP SWAP2 SWAP1 POP JUMP INVALID LOG2 PUSH5 0x6970667358 0x22 SLT KECCAK256 INVALID CALLER PUSH25 0xE79A02F86EBBB46FDDA8C7E484CFEBD833245FC479A6A59751 GT SAR 0xDF PUSH28 0x64736F6C634300081A00330000000000000000000000000000000000 "
				},
				"gasEstimates": {
					"creation": {
						"codeDepositCost": "794600",
						"executionCost": "infinite",
						"totalCost": "infinite"
					},
					"external": {
						"contribute()": "infinite",
						"crowdFundingName()": "infinite",
						"endDate()": "2469",
						"extendDeadline()": "infinite",
						"funders(address)": "2826",
						"getBalance()": "357",
						"getRefund()": "infinite",
						"hasFunded()": "2511",
						"isComplete()": "2539",
						"receiver()": "2593",
						"startDate()": "2471",
						"targetAmount()": "2470",
						"totalContribution()": "2493",
						"withdraw()": "infinite"
					}
				},
				"methodIdentifiers": {
					"contribute()": "d7bb99ba",
					"crowdFundingName()": "4a9e3635",
					"endDate()": "c24a0f8b",
					"extendDeadline()": "69ef5e0a",
					"funders(address)": "031b3677",
					"getBalance()": "12065fe0",
					"getRefund()": "b2d5ae44",
					"hasFunded()": "1e171d7c",
					"isComplete()": "b2fa1c9e",
					"receiver()": "f7260d3e",
					"startDate()": "0b97bc86",
					"targetAmount()": "953b8fb8",
					"totalContribution()": "0dcf4b8f",
					"withdraw()": "3ccfd60b"
				}
			},
			"storageLayout": {
				"storage": [
					{
						"astId": 3,
						"contract": "Learning Pth/CFunding.sol:Crowd_Funding",
						"label": "receiver",
						"offset": 0,
						"slot": "0",
						"type": "t_address"
					},
					{
						"astId": 5,
						"contract": "Learning Pth/CFunding.sol:Crowd_Funding",
						"label": "targetAmount",
						"offset": 0,
						"slot": "1",
						"type": "t_uint256"
					},
					{
						"astId": 7,
						"contract": "Learning Pth/CFunding.sol:Crowd_Funding",
						"label": "totalContribution",
						"offset": 0,
						"slot": "2",
						"type": "t_uint256"
					},
					{
						"astId": 9,
						"contract": "Learning Pth/CFunding.sol:Crowd_Funding",
						"label": "startDate",
						"offset": 0,
						"slot": "3",
						"type": "t_uint256"
					},
					{
						"astId": 11,
						"contract": "Learning Pth/CFunding.sol:Crowd_Funding",
						"label": "endDate",
						"offset": 0,
						"slot": "4",
						"type": "t_uint256"
					},
					{
						"astId": 13,
						"contract": "Learning Pth/CFunding.sol:Crowd_Funding",
						"label": "crowdFundingName",
						"offset": 0,
						"slot": "5",
						"type": "t_string_storage"
					},
					{
						"astId": 17,
						"contract": "Learning Pth/CFunding.sol:Crowd_Funding",
						"label": "funders",
						"offset": 0,
						"slot": "6",
						"type": "t_mapping(t_address,t_uint256)"
					},
					{
						"astId": 19,
						"contract": "Learning Pth/CFunding.sol:Crowd_Funding",
						"label": "hasFunded",
						"offset": 0,
						"slot": "7",
						"type": "t_bool"
					},
					{
						"astId": 21,
						"contract": "Learning Pth/CFunding.sol:Crowd_Funding",
						"label": "isComplete",
						"offset": 1,
						"slot": "7",
						"type": "t_bool"
					}
				],
				"types": {
					"t_address": {
						"encoding": "inplace",
						"label": "address",
						"numberOfBytes": "20"
					},
					"t_bool": {
						"encoding": "inplace",
						"label": "bool",
						"numberOfBytes": "1"
					},
					"t_mapping(t_address,t_uint256)": {
						"encoding": "mapping",
						"key": "t_address",
						"label": "mapping(address => uint256)",
						"numberOfBytes": "32",
						"value": "t_uint256"
					},
					"t_string_storage": {
						"encoding": "bytes",
						"label": "string",
						"numberOfBytes": "32"
					},
					"t_uint256": {
						"encoding": "inplace",
						"label": "uint256",
						"numberOfBytes": "32"
					}
				}
			},
			"userdoc": {
				"kind": "user",
				"methods": {},
				"version": 1
			}
		}
	}
}