{
	"Learning Pth/CrowdFundingP.sol": {
		"CrowdFunding": {
			"abi": [
				{
					"inputs": [
						{
							"internalType": "uint256",
							"name": "_goal",
							"type": "uint256"
						}
					],
					"stateMutability": "nonpayable",
					"type": "constructor"
				},
				{
					"inputs": [],
					"name": "contribute",
					"outputs": [],
					"stateMutability": "payable",
					"type": "function"
				},
				{
					"inputs": [
						{
							"internalType": "address",
							"name": "",
							"type": "address"
						}
					],
					"name": "contributions",
					"outputs": [
						{
							"internalType": "uint256",
							"name": "",
							"type": "uint256"
						}
					],
					"stateMutability": "view",
					"type": "function"
				},
				{
					"inputs": [],
					"name": "deadline",
					"outputs": [
						{
							"internalType": "uint256",
							"name": "",
							"type": "uint256"
						}
					],
					"stateMutability": "view",
					"type": "function"
				},
				{
					"inputs": [],
					"name": "extendDeadline",
					"outputs": [],
					"stateMutability": "nonpayable",
					"type": "function"
				},
				{
					"inputs": [],
					"name": "getBalance",
					"outputs": [
						{
							"internalType": "uint256",
							"name": "",
							"type": "uint256"
						}
					],
					"stateMutability": "view",
					"type": "function"
				},
				{
					"inputs": [],
					"name": "getRefund",
					"outputs": [],
					"stateMutability": "payable",
					"type": "function"
				},
				{
					"inputs": [],
					"name": "goal",
					"outputs": [
						{
							"internalType": "uint256",
							"name": "",
							"type": "uint256"
						}
					],
					"stateMutability": "view",
					"type": "function"
				},
				{
					"inputs": [],
					"name": "isComplete",
					"outputs": [
						{
							"internalType": "bool",
							"name": "",
							"type": "bool"
						}
					],
					"stateMutability": "view",
					"type": "function"
				},
				{
					"inputs": [],
					"name": "isFunded",
					"outputs": [
						{
							"internalType": "bool",
							"name": "",
							"type": "bool"
						}
					],
					"stateMutability": "view",
					"type": "function"
				},
				{
					"inputs": [],
					"name": "owner",
					"outputs": [
						{
							"internalType": "address",
							"name": "",
							"type": "address"
						}
					],
					"stateMutability": "view",
					"type": "function"
				},
				{
					"inputs": [],
					"name": "startDate",
					"outputs": [
						{
							"internalType": "uint256",
							"name": "",
							"type": "uint256"
						}
					],
					"stateMutability": "view",
					"type": "function"
				},
				{
					"inputs": [],
					"name": "totalContribution",
					"outputs": [
						{
							"internalType": "uint256",
							"name": "",
							"type": "uint256"
						}
					],
					"stateMutability": "view",
					"type": "function"
				},
				{
					"inputs": [],
					"name": "withdraw",
					"outputs": [],
					"stateMutability": "nonpayable",
					"type": "function"
				}
			],
			"devdoc": {
				"kind": "dev",
				"methods": {},
				"version": 1
			},
			"evm": {
				"assembly": "    /* \"Learning Pth/CrowdFundingP.sol\":61:2455  contract CrowdFunding {... */\n  mstore(0x40, 0x80)\n    /* \"Learning Pth/CrowdFundingP.sol\":344:568  constructor(uint _goal) {... */\n  callvalue\n  dup1\n  iszero\n  tag_1\n  jumpi\n  0x00\n  dup1\n  revert\ntag_1:\n  pop\n  mload(0x40)\n  sub(codesize, bytecodeSize)\n  dup1\n  bytecodeSize\n  dup4\n  codecopy\n  dup2\n  dup2\n  add\n  0x40\n  mstore\n  dup2\n  add\n  swap1\n  tag_2\n  swap2\n  swap1\n  tag_3\n  jump\t// in\ntag_2:\n    /* \"Learning Pth/CrowdFundingP.sol\":387:397  msg.sender */\n  caller\n    /* \"Learning Pth/CrowdFundingP.sol\":379:384  owner */\n  0x00\n  dup1\n    /* \"Learning Pth/CrowdFundingP.sol\":379:397  owner = msg.sender */\n  0x0100\n  exp\n  dup2\n  sload\n  dup2\n  0xffffffffffffffffffffffffffffffffffffffff\n  mul\n  not\n  and\n  swap1\n  dup4\n  0xffffffffffffffffffffffffffffffffffffffff\n  and\n  mul\n  or\n  swap1\n  sstore\n  pop\n    /* \"Learning Pth/CrowdFundingP.sol\":420:435  block.timestamp */\n  timestamp\n    /* \"Learning Pth/CrowdFundingP.sol\":408:417  startDate */\n  0x02\n    /* \"Learning Pth/CrowdFundingP.sol\":408:435  startDate = block.timestamp */\n  dup2\n  swap1\n  sstore\n  pop\n    /* \"Learning Pth/CrowdFundingP.sol\":475:481  7 days */\n  0x093a80\n    /* \"Learning Pth/CrowdFundingP.sol\":457:472  block.timestamp */\n  timestamp\n    /* \"Learning Pth/CrowdFundingP.sol\":457:481  block.timestamp + 7 days */\n  tag_6\n  swap2\n  swap1\n  tag_7\n  jump\t// in\ntag_6:\n    /* \"Learning Pth/CrowdFundingP.sol\":446:454  deadline */\n  0x01\n    /* \"Learning Pth/CrowdFundingP.sol\":446:481  deadline = block.timestamp + 7 days */\n  dup2\n  swap1\n  sstore\n  pop\n    /* \"Learning Pth/CrowdFundingP.sol\":505:510  false */\n  0x00\n    /* \"Learning Pth/CrowdFundingP.sol\":492:502  isComplete */\n  0x03\n  0x01\n    /* \"Learning Pth/CrowdFundingP.sol\":492:510  isComplete = false */\n  0x0100\n  exp\n  dup2\n  sload\n  dup2\n  0xff\n  mul\n  not\n  and\n  swap1\n  dup4\n  iszero\n  iszero\n  mul\n  or\n  swap1\n  sstore\n  pop\n    /* \"Learning Pth/CrowdFundingP.sol\":532:537  false */\n  0x00\n    /* \"Learning Pth/CrowdFundingP.sol\":521:529  isFunded */\n  0x03\n  0x00\n    /* \"Learning Pth/CrowdFundingP.sol\":521:537  isFunded = false */\n  0x0100\n  exp\n  dup2\n  sload\n  dup2\n  0xff\n  mul\n  not\n  and\n  swap1\n  dup4\n  iszero\n  iszero\n  mul\n  or\n  swap1\n  sstore\n  pop\n    /* \"Learning Pth/CrowdFundingP.sol\":555:560  _goal */\n  dup1\n    /* \"Learning Pth/CrowdFundingP.sol\":548:552  goal */\n  0x06\n    /* \"Learning Pth/CrowdFundingP.sol\":548:560  goal = _goal */\n  dup2\n  swap1\n  sstore\n  pop\n    /* \"Learning Pth/CrowdFundingP.sol\":344:568  constructor(uint _goal) {... */\n  pop\n    /* \"Learning Pth/CrowdFundingP.sol\":61:2455  contract CrowdFunding {... */\n  jump(tag_8)\n    /* \"#utility.yul\":88:205   */\ntag_10:\n    /* \"#utility.yul\":197:198   */\n  0x00\n    /* \"#utility.yul\":194:195   */\n  dup1\n    /* \"#utility.yul\":187:199   */\n  revert\n    /* \"#utility.yul\":334:411   */\ntag_12:\n    /* \"#utility.yul\":371:378   */\n  0x00\n    /* \"#utility.yul\":400:405   */\n  dup2\n    /* \"#utility.yul\":389:405   */\n  swap1\n  pop\n    /* \"#utility.yul\":334:411   */\n  swap2\n  swap1\n  pop\n  jump\t// out\n    /* \"#utility.yul\":417:539   */\ntag_13:\n    /* \"#utility.yul\":490:514   */\n  tag_22\n    /* \"#utility.yul\":508:513   */\n  dup2\n    /* \"#utility.yul\":490:514   */\n  tag_12\n  jump\t// in\ntag_22:\n    /* \"#utility.yul\":483:488   */\n  dup2\n    /* \"#utility.yul\":480:515   */\n  eq\n    /* \"#utility.yul\":470:533   */\n  tag_23\n  jumpi\n    /* \"#utility.yul\":529:530   */\n  0x00\n    /* \"#utility.yul\":526:527   */\n  dup1\n    /* \"#utility.yul\":519:531   */\n  revert\n    /* \"#utility.yul\":470:533   */\ntag_23:\n    /* \"#utility.yul\":417:539   */\n  pop\n  jump\t// out\n    /* \"#utility.yul\":545:688   */\ntag_14:\n    /* \"#utility.yul\":602:607   */\n  0x00\n    /* \"#utility.yul\":633:639   */\n  dup2\n    /* \"#utility.yul\":627:640   */\n  mload\n    /* \"#utility.yul\":618:640   */\n  swap1\n  pop\n    /* \"#utility.yul\":649:682   */\n  tag_25\n    /* \"#utility.yul\":676:681   */\n  dup2\n    /* \"#utility.yul\":649:682   */\n  tag_13\n  jump\t// in\ntag_25:\n    /* \"#utility.yul\":545:688   */\n  swap3\n  swap2\n  pop\n  pop\n  jump\t// out\n    /* \"#utility.yul\":694:1045   */\ntag_3:\n    /* \"#utility.yul\":764:770   */\n  0x00\n    /* \"#utility.yul\":813:815   */\n  0x20\n    /* \"#utility.yul\":801:810   */\n  dup3\n    /* \"#utility.yul\":792:799   */\n  dup5\n    /* \"#utility.yul\":788:811   */\n  sub\n    /* \"#utility.yul\":784:816   */\n  slt\n    /* \"#utility.yul\":781:900   */\n  iszero\n  tag_27\n  jumpi\n    /* \"#utility.yul\":819:898   */\n  tag_28\n  tag_10\n  jump\t// in\ntag_28:\n    /* \"#utility.yul\":781:900   */\ntag_27:\n    /* \"#utility.yul\":939:940   */\n  0x00\n    /* \"#utility.yul\":964:1028   */\n  tag_29\n    /* \"#utility.yul\":1020:1027   */\n  dup5\n    /* \"#utility.yul\":1011:1017   */\n  dup3\n    /* \"#utility.yul\":1000:1009   */\n  dup6\n    /* \"#utility.yul\":996:1018   */\n  add\n    /* \"#utility.yul\":964:1028   */\n  tag_14\n  jump\t// in\ntag_29:\n    /* \"#utility.yul\":954:1028   */\n  swap2\n  pop\n    /* \"#utility.yul\":910:1038   */\n  pop\n    /* \"#utility.yul\":694:1045   */\n  swap3\n  swap2\n  pop\n  pop\n  jump\t// out\n    /* \"#utility.yul\":1051:1231   */\ntag_15:\n    /* \"#utility.yul\":1099:1176   */\n  0x4e487b7100000000000000000000000000000000000000000000000000000000\n    /* \"#utility.yul\":1096:1097   */\n  0x00\n    /* \"#utility.yul\":1089:1177   */\n  mstore\n    /* \"#utility.yul\":1196:1200   */\n  0x11\n    /* \"#utility.yul\":1193:1194   */\n  0x04\n    /* \"#utility.yul\":1186:1201   */\n  mstore\n    /* \"#utility.yul\":1220:1224   */\n  0x24\n    /* \"#utility.yul\":1217:1218   */\n  0x00\n    /* \"#utility.yul\":1210:1225   */\n  revert\n    /* \"#utility.yul\":1237:1428   */\ntag_7:\n    /* \"#utility.yul\":1277:1280   */\n  0x00\n    /* \"#utility.yul\":1296:1316   */\n  tag_32\n    /* \"#utility.yul\":1314:1315   */\n  dup3\n    /* \"#utility.yul\":1296:1316   */\n  tag_12\n  jump\t// in\ntag_32:\n    /* \"#utility.yul\":1291:1316   */\n  swap2\n  pop\n    /* \"#utility.yul\":1330:1350   */\n  tag_33\n    /* \"#utility.yul\":1348:1349   */\n  dup4\n    /* \"#utility.yul\":1330:1350   */\n  tag_12\n  jump\t// in\ntag_33:\n    /* \"#utility.yul\":1325:1350   */\n  swap3\n  pop\n    /* \"#utility.yul\":1373:1374   */\n  dup3\n    /* \"#utility.yul\":1370:1371   */\n  dup3\n    /* \"#utility.yul\":1366:1375   */\n  add\n    /* \"#utility.yul\":1359:1375   */\n  swap1\n  pop\n    /* \"#utility.yul\":1394:1397   */\n  dup1\n    /* \"#utility.yul\":1391:1392   */\n  dup3\n    /* \"#utility.yul\":1388:1398   */\n  gt\n    /* \"#utility.yul\":1385:1421   */\n  iszero\n  tag_34\n  jumpi\n    /* \"#utility.yul\":1401:1419   */\n  tag_35\n  tag_15\n  jump\t// in\ntag_35:\n    /* \"#utility.yul\":1385:1421   */\ntag_34:\n    /* \"#utility.yul\":1237:1428   */\n  swap3\n  swap2\n  pop\n  pop\n  jump\t// out\n    /* \"Learning Pth/CrowdFundingP.sol\":61:2455  contract CrowdFunding {... */\ntag_8:\n  dataSize(sub_0)\n  dup1\n  dataOffset(sub_0)\n  0x00\n  codecopy\n  0x00\n  return\nstop\n\nsub_0: assembly {\n        /* \"Learning Pth/CrowdFundingP.sol\":61:2455  contract CrowdFunding {... */\n      mstore(0x40, 0x80)\n      jumpi(tag_1, lt(calldatasize, 0x04))\n      shr(0xe0, calldataload(0x00))\n      dup1\n      0x42e94c90\n      gt\n      tag_15\n      jumpi\n      dup1\n      0x8da5cb5b\n      gt\n      tag_16\n      jumpi\n      dup1\n      0x8da5cb5b\n      eq\n      tag_11\n      jumpi\n      dup1\n      0xb2d5ae44\n      eq\n      tag_12\n      jumpi\n      dup1\n      0xb2fa1c9e\n      eq\n      tag_13\n      jumpi\n      dup1\n      0xd7bb99ba\n      eq\n      tag_14\n      jumpi\n      jump(tag_1)\n    tag_16:\n      dup1\n      0x42e94c90\n      eq\n      tag_8\n      jumpi\n      dup1\n      0x69ef5e0a\n      eq\n      tag_9\n      jumpi\n      dup1\n      0x7c654303\n      eq\n      tag_10\n      jumpi\n      jump(tag_1)\n    tag_15:\n      dup1\n      0x0b97bc86\n      eq\n      tag_2\n      jumpi\n      dup1\n      0x0dcf4b8f\n      eq\n      tag_3\n      jumpi\n      dup1\n      0x12065fe0\n      eq\n      tag_4\n      jumpi\n      dup1\n      0x29dcb0cf\n      eq\n      tag_5\n      jumpi\n      dup1\n      0x3ccfd60b\n      eq\n      tag_6\n      jumpi\n      dup1\n      0x40193883\n      eq\n      tag_7\n      jumpi\n    tag_1:\n      0x00\n      dup1\n      revert\n        /* \"Learning Pth/CrowdFundingP.sol\":146:167  uint public startDate */\n    tag_2:\n      callvalue\n      dup1\n      iszero\n      tag_17\n      jumpi\n      0x00\n      dup1\n      revert\n    tag_17:\n      pop\n      tag_18\n      tag_19\n      jump\t// in\n    tag_18:\n      mload(0x40)\n      tag_20\n      swap2\n      swap1\n      tag_21\n      jump\t// in\n    tag_20:\n      mload(0x40)\n      dup1\n      swap2\n      sub\n      swap1\n      return\n        /* \"Learning Pth/CrowdFundingP.sol\":283:312  uint public totalContribution */\n    tag_3:\n      callvalue\n      dup1\n      iszero\n      tag_22\n      jumpi\n      0x00\n      dup1\n      revert\n    tag_22:\n      pop\n      tag_23\n      tag_24\n      jump\t// in\n    tag_23:\n      mload(0x40)\n      tag_25\n      swap2\n      swap1\n      tag_21\n      jump\t// in\n    tag_25:\n      mload(0x40)\n      dup1\n      swap2\n      sub\n      swap1\n      return\n        /* \"Learning Pth/CrowdFundingP.sol\":1964:2059  function getBalance() public view returns(uint) {... */\n    tag_4:\n      callvalue\n      dup1\n      iszero\n      tag_26\n      jumpi\n      0x00\n      dup1\n      revert\n    tag_26:\n      pop\n      tag_27\n      tag_28\n      jump\t// in\n    tag_27:\n      mload(0x40)\n      tag_29\n      swap2\n      swap1\n      tag_21\n      jump\t// in\n    tag_29:\n      mload(0x40)\n      dup1\n      swap2\n      sub\n      swap1\n      return\n        /* \"Learning Pth/CrowdFundingP.sol\":119:139  uint public deadline */\n    tag_5:\n      callvalue\n      dup1\n      iszero\n      tag_30\n      jumpi\n      0x00\n      dup1\n      revert\n    tag_30:\n      pop\n      tag_31\n      tag_32\n      jump\t// in\n    tag_31:\n      mload(0x40)\n      tag_33\n      swap2\n      swap1\n      tag_21\n      jump\t// in\n    tag_33:\n      mload(0x40)\n      dup1\n      swap2\n      sub\n      swap1\n      return\n        /* \"Learning Pth/CrowdFundingP.sol\":1221:1469  function withdraw() onlyOwner public {... */\n    tag_6:\n      callvalue\n      dup1\n      iszero\n      tag_34\n      jumpi\n      0x00\n      dup1\n      revert\n    tag_34:\n      pop\n      tag_35\n      tag_36\n      jump\t// in\n    tag_35:\n      stop\n        /* \"Learning Pth/CrowdFundingP.sol\":319:335  uint public goal */\n    tag_7:\n      callvalue\n      dup1\n      iszero\n      tag_37\n      jumpi\n      0x00\n      dup1\n      revert\n    tag_37:\n      pop\n      tag_38\n      tag_39\n      jump\t// in\n    tag_38:\n      mload(0x40)\n      tag_40\n      swap2\n      swap1\n      tag_21\n      jump\t// in\n    tag_40:\n      mload(0x40)\n      dup1\n      swap2\n      sub\n      swap1\n      return\n        /* \"Learning Pth/CrowdFundingP.sol\":230:276  mapping (address => uint) public contributions */\n    tag_8:\n      callvalue\n      dup1\n      iszero\n      tag_41\n      jumpi\n      0x00\n      dup1\n      revert\n    tag_41:\n      pop\n      tag_42\n      0x04\n      dup1\n      calldatasize\n      sub\n      dup2\n      add\n      swap1\n      tag_43\n      swap2\n      swap1\n      tag_44\n      jump\t// in\n    tag_43:\n      tag_45\n      jump\t// in\n    tag_42:\n      mload(0x40)\n      tag_46\n      swap2\n      swap1\n      tag_21\n      jump\t// in\n    tag_46:\n      mload(0x40)\n      dup1\n      swap2\n      sub\n      swap1\n      return\n        /* \"Learning Pth/CrowdFundingP.sol\":2091:2161  function extendDeadline() public {... */\n    tag_9:\n      callvalue\n      dup1\n      iszero\n      tag_47\n      jumpi\n      0x00\n      dup1\n      revert\n    tag_47:\n      pop\n      tag_48\n      tag_49\n      jump\t// in\n    tag_48:\n      stop\n        /* \"Learning Pth/CrowdFundingP.sol\":174:194  bool public isFunded */\n    tag_10:\n      callvalue\n      dup1\n      iszero\n      tag_50\n      jumpi\n      0x00\n      dup1\n      revert\n    tag_50:\n      pop\n      tag_51\n      tag_52\n      jump\t// in\n    tag_51:\n      mload(0x40)\n      tag_53\n      swap2\n      swap1\n      tag_54\n      jump\t// in\n    tag_53:\n      mload(0x40)\n      dup1\n      swap2\n      sub\n      swap1\n      return\n        /* \"Learning Pth/CrowdFundingP.sol\":92:112  address public owner */\n    tag_11:\n      callvalue\n      dup1\n      iszero\n      tag_55\n      jumpi\n      0x00\n      dup1\n      revert\n    tag_55:\n      pop\n      tag_56\n      tag_57\n      jump\t// in\n    tag_56:\n      mload(0x40)\n      tag_58\n      swap2\n      swap1\n      tag_59\n      jump\t// in\n    tag_58:\n      mload(0x40)\n      dup1\n      swap2\n      sub\n      swap1\n      return\n        /* \"Learning Pth/CrowdFundingP.sol\":1513:1933  function getRefund() public payable {... */\n    tag_12:\n      tag_60\n      tag_61\n      jump\t// in\n    tag_60:\n      stop\n        /* \"Learning Pth/CrowdFundingP.sol\":201:223  bool public isComplete */\n    tag_13:\n      callvalue\n      dup1\n      iszero\n      tag_62\n      jumpi\n      0x00\n      dup1\n      revert\n    tag_62:\n      pop\n      tag_63\n      tag_64\n      jump\t// in\n    tag_63:\n      mload(0x40)\n      tag_65\n      swap2\n      swap1\n      tag_54\n      jump\t// in\n    tag_65:\n      mload(0x40)\n      dup1\n      swap2\n      sub\n      swap1\n      return\n        /* \"Learning Pth/CrowdFundingP.sol\":622:985  function contribute() public payable {... */\n    tag_14:\n      tag_66\n      tag_67\n      jump\t// in\n    tag_66:\n      stop\n        /* \"Learning Pth/CrowdFundingP.sol\":146:167  uint public startDate */\n    tag_19:\n      sload(0x02)\n      dup2\n      jump\t// out\n        /* \"Learning Pth/CrowdFundingP.sol\":283:312  uint public totalContribution */\n    tag_24:\n      sload(0x05)\n      dup2\n      jump\t// out\n        /* \"Learning Pth/CrowdFundingP.sol\":1964:2059  function getBalance() public view returns(uint) {... */\n    tag_28:\n        /* \"Learning Pth/CrowdFundingP.sol\":2006:2010  uint */\n      0x00\n        /* \"Learning Pth/CrowdFundingP.sol\":2030:2051  address(this).balance */\n      selfbalance\n        /* \"Learning Pth/CrowdFundingP.sol\":2023:2051  return address(this).balance */\n      swap1\n      pop\n        /* \"Learning Pth/CrowdFundingP.sol\":1964:2059  function getBalance() public view returns(uint) {... */\n      swap1\n      jump\t// out\n        /* \"Learning Pth/CrowdFundingP.sol\":119:139  uint public deadline */\n    tag_32:\n      sload(0x01)\n      dup2\n      jump\t// out\n        /* \"Learning Pth/CrowdFundingP.sol\":1221:1469  function withdraw() onlyOwner public {... */\n    tag_36:\n        /* \"Learning Pth/CrowdFundingP.sol\":1100:1110  msg.sender */\n      caller\n        /* \"Learning Pth/CrowdFundingP.sol\":1091:1110  owner == msg.sender */\n      0xffffffffffffffffffffffffffffffffffffffff\n      and\n        /* \"Learning Pth/CrowdFundingP.sol\":1091:1096  owner */\n      0x00\n      dup1\n      sload\n      swap1\n      0x0100\n      exp\n      swap1\n      div\n      0xffffffffffffffffffffffffffffffffffffffff\n      and\n        /* \"Learning Pth/CrowdFundingP.sol\":1091:1110  owner == msg.sender */\n      0xffffffffffffffffffffffffffffffffffffffff\n      and\n      eq\n        /* \"Learning Pth/CrowdFundingP.sol\":1083:1150  require(owner == msg.sender, \"only owner can perform this action.\") */\n      tag_70\n      jumpi\n      mload(0x40)\n      0x08c379a000000000000000000000000000000000000000000000000000000000\n      dup2\n      mstore\n      0x04\n      add\n      tag_71\n      swap1\n      tag_72\n      jump\t// in\n    tag_71:\n      mload(0x40)\n      dup1\n      swap2\n      sub\n      swap1\n      revert\n    tag_70:\n        /* \"Learning Pth/CrowdFundingP.sol\":1288:1297  startDate */\n      sload(0x02)\n        /* \"Learning Pth/CrowdFundingP.sol\":1277:1285  deadline */\n      sload(0x01)\n        /* \"Learning Pth/CrowdFundingP.sol\":1277:1297  deadline > startDate */\n      gt\n        /* \"Learning Pth/CrowdFundingP.sol\":1269:1319  require(deadline > startDate, \"deadline not over\") */\n      tag_74\n      jumpi\n      mload(0x40)\n      0x08c379a000000000000000000000000000000000000000000000000000000000\n      dup2\n      mstore\n      0x04\n      add\n      tag_75\n      swap1\n      tag_76\n      jump\t// in\n    tag_75:\n      mload(0x40)\n      dup1\n      swap2\n      sub\n      swap1\n      revert\n    tag_74:\n        /* \"Learning Pth/CrowdFundingP.sol\":1339:1349  isComplete */\n      0x03\n      0x01\n      swap1\n      sload\n      swap1\n      0x0100\n      exp\n      swap1\n      div\n      0xff\n      and\n        /* \"Learning Pth/CrowdFundingP.sol\":1338:1349  !isComplete */\n      iszero\n        /* \"Learning Pth/CrowdFundingP.sol\":1330:1374  require(!isComplete, \"crowdfunding is over\") */\n      tag_77\n      jumpi\n      mload(0x40)\n      0x08c379a000000000000000000000000000000000000000000000000000000000\n      dup2\n      mstore\n      0x04\n      add\n      tag_78\n      swap1\n      tag_79\n      jump\t// in\n    tag_78:\n      mload(0x40)\n      dup1\n      swap2\n      sub\n      swap1\n      revert\n    tag_77:\n        /* \"Learning Pth/CrowdFundingP.sol\":1400:1404  true */\n      0x01\n        /* \"Learning Pth/CrowdFundingP.sol\":1387:1397  isComplete */\n      0x03\n      0x01\n        /* \"Learning Pth/CrowdFundingP.sol\":1387:1404  isComplete = true */\n      0x0100\n      exp\n      dup2\n      sload\n      dup2\n      0xff\n      mul\n      not\n      and\n      swap1\n      dup4\n      iszero\n      iszero\n      mul\n      or\n      swap1\n      sstore\n      pop\n        /* \"Learning Pth/CrowdFundingP.sol\":1423:1428  owner */\n      0x00\n      dup1\n      sload\n      swap1\n      0x0100\n      exp\n      swap1\n      div\n      0xffffffffffffffffffffffffffffffffffffffff\n      and\n        /* \"Learning Pth/CrowdFundingP.sol\":1415:1438  payable(owner).transfer */\n      0xffffffffffffffffffffffffffffffffffffffff\n      and\n        /* \"Learning Pth/CrowdFundingP.sol\":1415:1461  payable(owner).transfer(address(this).balance) */\n      0x08fc\n        /* \"Learning Pth/CrowdFundingP.sol\":1439:1460  address(this).balance */\n      selfbalance\n        /* \"Learning Pth/CrowdFundingP.sol\":1415:1461  payable(owner).transfer(address(this).balance) */\n      swap1\n      dup2\n      iszero\n      mul\n      swap1\n      mload(0x40)\n      0x00\n      mload(0x40)\n      dup1\n      dup4\n      sub\n      dup2\n      dup6\n      dup9\n      dup9\n      call\n      swap4\n      pop\n      pop\n      pop\n      pop\n      iszero\n      dup1\n      iszero\n      tag_81\n      jumpi\n      returndatasize\n      0x00\n      dup1\n      returndatacopy\n      revert(0x00, returndatasize)\n    tag_81:\n      pop\n        /* \"Learning Pth/CrowdFundingP.sol\":1221:1469  function withdraw() onlyOwner public {... */\n      jump\t// out\n        /* \"Learning Pth/CrowdFundingP.sol\":319:335  uint public goal */\n    tag_39:\n      sload(0x06)\n      dup2\n      jump\t// out\n        /* \"Learning Pth/CrowdFundingP.sol\":230:276  mapping (address => uint) public contributions */\n    tag_45:\n      mstore(0x20, 0x04)\n      dup1\n      0x00\n      mstore\n      keccak256(0x00, 0x40)\n      0x00\n      swap2\n      pop\n      swap1\n      pop\n      sload\n      dup2\n      jump\t// out\n        /* \"Learning Pth/CrowdFundingP.sol\":2091:2161  function extendDeadline() public {... */\n    tag_49:\n        /* \"Learning Pth/CrowdFundingP.sol\":2147:2153  2 days */\n      0x02a300\n        /* \"Learning Pth/CrowdFundingP.sol\":2135:2143  deadline */\n      0x01\n      0x00\n        /* \"Learning Pth/CrowdFundingP.sol\":2135:2153  deadline += 2 days */\n      dup3\n      dup3\n      sload\n      tag_83\n      swap2\n      swap1\n      tag_84\n      jump\t// in\n    tag_83:\n      swap3\n      pop\n      pop\n      dup2\n      swap1\n      sstore\n      pop\n        /* \"Learning Pth/CrowdFundingP.sol\":2091:2161  function extendDeadline() public {... */\n      jump\t// out\n        /* \"Learning Pth/CrowdFundingP.sol\":174:194  bool public isFunded */\n    tag_52:\n      0x03\n      0x00\n      swap1\n      sload\n      swap1\n      0x0100\n      exp\n      swap1\n      div\n      0xff\n      and\n      dup2\n      jump\t// out\n        /* \"Learning Pth/CrowdFundingP.sol\":92:112  address public owner */\n    tag_57:\n      0x00\n      dup1\n      sload\n      swap1\n      0x0100\n      exp\n      swap1\n      div\n      0xffffffffffffffffffffffffffffffffffffffff\n      and\n      dup2\n      jump\t// out\n        /* \"Learning Pth/CrowdFundingP.sol\":1513:1933  function getRefund() public payable {... */\n    tag_61:\n        /* \"Learning Pth/CrowdFundingP.sol\":1581:1589  deadline */\n      sload(0x01)\n        /* \"Learning Pth/CrowdFundingP.sol\":1568:1577  startDate */\n      sload(0x02)\n        /* \"Learning Pth/CrowdFundingP.sol\":1568:1589  startDate >= deadline */\n      lt\n      iszero\n        /* \"Learning Pth/CrowdFundingP.sol\":1560:1625  require(startDate >= deadline, \"can't get refund after deadline\") */\n      tag_86\n      jumpi\n      mload(0x40)\n      0x08c379a000000000000000000000000000000000000000000000000000000000\n      dup2\n      mstore\n      0x04\n      add\n      tag_87\n      swap1\n      tag_88\n      jump\t// in\n    tag_87:\n      mload(0x40)\n      dup1\n      swap2\n      sub\n      swap1\n      revert\n    tag_86:\n        /* \"Learning Pth/CrowdFundingP.sol\":1645:1653  isFunded */\n      0x03\n      0x00\n      swap1\n      sload\n      swap1\n      0x0100\n      exp\n      swap1\n      div\n      0xff\n      and\n        /* \"Learning Pth/CrowdFundingP.sol\":1644:1653  !isFunded */\n      iszero\n        /* \"Learning Pth/CrowdFundingP.sol\":1636:1673  require(!isFunded, \"goal is reached\") */\n      tag_89\n      jumpi\n      mload(0x40)\n      0x08c379a000000000000000000000000000000000000000000000000000000000\n      dup2\n      mstore\n      0x04\n      add\n      tag_90\n      swap1\n      tag_91\n      jump\t// in\n    tag_90:\n      mload(0x40)\n      dup1\n      swap2\n      sub\n      swap1\n      revert\n    tag_89:\n        /* \"Learning Pth/CrowdFundingP.sol\":1720:1721  0 */\n      0x00\n        /* \"Learning Pth/CrowdFundingP.sol\":1692:1705  contributions */\n      0x04\n        /* \"Learning Pth/CrowdFundingP.sol\":1692:1717  contributions[msg.sender] */\n      0x00\n        /* \"Learning Pth/CrowdFundingP.sol\":1706:1716  msg.sender */\n      caller\n        /* \"Learning Pth/CrowdFundingP.sol\":1692:1717  contributions[msg.sender] */\n      0xffffffffffffffffffffffffffffffffffffffff\n      and\n      0xffffffffffffffffffffffffffffffffffffffff\n      and\n      dup2\n      mstore\n      0x20\n      add\n      swap1\n      dup2\n      mstore\n      0x20\n      add\n      0x00\n      keccak256\n      sload\n        /* \"Learning Pth/CrowdFundingP.sol\":1692:1721  contributions[msg.sender] > 0 */\n      gt\n        /* \"Learning Pth/CrowdFundingP.sol\":1684:1751  require(contributions[msg.sender] > 0, \"no contribution to refund\") */\n      tag_92\n      jumpi\n      mload(0x40)\n      0x08c379a000000000000000000000000000000000000000000000000000000000\n      dup2\n      mstore\n      0x04\n      add\n      tag_93\n      swap1\n      tag_94\n      jump\t// in\n    tag_93:\n      mload(0x40)\n      dup1\n      swap2\n      sub\n      swap1\n      revert\n    tag_92:\n        /* \"Learning Pth/CrowdFundingP.sol\":1764:1774  uint value */\n      0x00\n        /* \"Learning Pth/CrowdFundingP.sol\":1777:1790  contributions */\n      0x04\n        /* \"Learning Pth/CrowdFundingP.sol\":1777:1802  contributions[msg.sender] */\n      0x00\n        /* \"Learning Pth/CrowdFundingP.sol\":1791:1801  msg.sender */\n      caller\n        /* \"Learning Pth/CrowdFundingP.sol\":1777:1802  contributions[msg.sender] */\n      0xffffffffffffffffffffffffffffffffffffffff\n      and\n      0xffffffffffffffffffffffffffffffffffffffff\n      and\n      dup2\n      mstore\n      0x20\n      add\n      swap1\n      dup2\n      mstore\n      0x20\n      add\n      0x00\n      keccak256\n      sload\n        /* \"Learning Pth/CrowdFundingP.sol\":1764:1802  uint value = contributions[msg.sender] */\n      swap1\n      pop\n        /* \"Learning Pth/CrowdFundingP.sol\":1841:1842  0 */\n      0x00\n        /* \"Learning Pth/CrowdFundingP.sol\":1813:1826  contributions */\n      0x04\n        /* \"Learning Pth/CrowdFundingP.sol\":1813:1838  contributions[msg.sender] */\n      0x00\n        /* \"Learning Pth/CrowdFundingP.sol\":1827:1837  msg.sender */\n      caller\n        /* \"Learning Pth/CrowdFundingP.sol\":1813:1838  contributions[msg.sender] */\n      0xffffffffffffffffffffffffffffffffffffffff\n      and\n      0xffffffffffffffffffffffffffffffffffffffff\n      and\n      dup2\n      mstore\n      0x20\n      add\n      swap1\n      dup2\n      mstore\n      0x20\n      add\n      0x00\n      keccak256\n        /* \"Learning Pth/CrowdFundingP.sol\":1813:1842  contributions[msg.sender] = 0 */\n      dup2\n      swap1\n      sstore\n      pop\n        /* \"Learning Pth/CrowdFundingP.sol\":1874:1879  value */\n      dup1\n        /* \"Learning Pth/CrowdFundingP.sol\":1853:1870  totalContribution */\n      0x05\n      0x00\n        /* \"Learning Pth/CrowdFundingP.sol\":1853:1879  totalContribution -= value */\n      dup3\n      dup3\n      sload\n      tag_95\n      swap2\n      swap1\n      tag_96\n      jump\t// in\n    tag_95:\n      swap3\n      pop\n      pop\n      dup2\n      swap1\n      sstore\n      pop\n        /* \"Learning Pth/CrowdFundingP.sol\":1898:1908  msg.sender */\n      caller\n        /* \"Learning Pth/CrowdFundingP.sol\":1890:1918  payable(msg.sender).transfer */\n      0xffffffffffffffffffffffffffffffffffffffff\n      and\n        /* \"Learning Pth/CrowdFundingP.sol\":1890:1925  payable(msg.sender).transfer(value) */\n      0x08fc\n        /* \"Learning Pth/CrowdFundingP.sol\":1919:1924  value */\n      dup3\n        /* \"Learning Pth/CrowdFundingP.sol\":1890:1925  payable(msg.sender).transfer(value) */\n      swap1\n      dup2\n      iszero\n      mul\n      swap1\n      mload(0x40)\n      0x00\n      mload(0x40)\n      dup1\n      dup4\n      sub\n      dup2\n      dup6\n      dup9\n      dup9\n      call\n      swap4\n      pop\n      pop\n      pop\n      pop\n      iszero\n      dup1\n      iszero\n      tag_98\n      jumpi\n      returndatasize\n      0x00\n      dup1\n      returndatacopy\n      revert(0x00, returndatasize)\n    tag_98:\n      pop\n        /* \"Learning Pth/CrowdFundingP.sol\":1549:1933  {... */\n      pop\n        /* \"Learning Pth/CrowdFundingP.sol\":1513:1933  function getRefund() public payable {... */\n      jump\t// out\n        /* \"Learning Pth/CrowdFundingP.sol\":201:223  bool public isComplete */\n    tag_64:\n      0x03\n      0x01\n      swap1\n      sload\n      swap1\n      0x0100\n      exp\n      swap1\n      div\n      0xff\n      and\n      dup2\n      jump\t// out\n        /* \"Learning Pth/CrowdFundingP.sol\":622:985  function contribute() public payable {... */\n    tag_67:\n        /* \"Learning Pth/CrowdFundingP.sol\":690:698  deadline */\n      sload(0x01)\n        /* \"Learning Pth/CrowdFundingP.sol\":678:687  startDate */\n      sload(0x02)\n        /* \"Learning Pth/CrowdFundingP.sol\":678:698  startDate < deadline */\n      lt\n        /* \"Learning Pth/CrowdFundingP.sol\":670:719  require(startDate < deadline, \"deadline reached\") */\n      tag_100\n      jumpi\n      mload(0x40)\n      0x08c379a000000000000000000000000000000000000000000000000000000000\n      dup2\n      mstore\n      0x04\n      add\n      tag_101\n      swap1\n      tag_102\n      jump\t// in\n    tag_101:\n      mload(0x40)\n      dup1\n      swap2\n      sub\n      swap1\n      revert\n    tag_100:\n        /* \"Learning Pth/CrowdFundingP.sol\":739:749  isComplete */\n      0x03\n      0x01\n      swap1\n      sload\n      swap1\n      0x0100\n      exp\n      swap1\n      div\n      0xff\n      and\n        /* \"Learning Pth/CrowdFundingP.sol\":738:749  !isComplete */\n      iszero\n        /* \"Learning Pth/CrowdFundingP.sol\":730:774  require(!isComplete, \"crowdfunding is over\") */\n      tag_103\n      jumpi\n      mload(0x40)\n      0x08c379a000000000000000000000000000000000000000000000000000000000\n      dup2\n      mstore\n      0x04\n      add\n      tag_104\n      swap1\n      tag_79\n      jump\t// in\n    tag_104:\n      mload(0x40)\n      dup1\n      swap2\n      sub\n      swap1\n      revert\n    tag_103:\n        /* \"Learning Pth/CrowdFundingP.sol\":787:797  uint value */\n      0x00\n        /* \"Learning Pth/CrowdFundingP.sol\":800:809  msg.value */\n      callvalue\n        /* \"Learning Pth/CrowdFundingP.sol\":787:809  uint value = msg.value */\n      swap1\n      pop\n        /* \"Learning Pth/CrowdFundingP.sol\":849:854  value */\n      dup1\n        /* \"Learning Pth/CrowdFundingP.sol\":820:833  contributions */\n      0x04\n        /* \"Learning Pth/CrowdFundingP.sol\":820:845  contributions[msg.sender] */\n      0x00\n        /* \"Learning Pth/CrowdFundingP.sol\":834:844  msg.sender */\n      caller\n        /* \"Learning Pth/CrowdFundingP.sol\":820:845  contributions[msg.sender] */\n      0xffffffffffffffffffffffffffffffffffffffff\n      and\n      0xffffffffffffffffffffffffffffffffffffffff\n      and\n      dup2\n      mstore\n      0x20\n      add\n      swap1\n      dup2\n      mstore\n      0x20\n      add\n      0x00\n      keccak256\n      0x00\n        /* \"Learning Pth/CrowdFundingP.sol\":820:854  contributions[msg.sender] += value */\n      dup3\n      dup3\n      sload\n      tag_105\n      swap2\n      swap1\n      tag_84\n      jump\t// in\n    tag_105:\n      swap3\n      pop\n      pop\n      dup2\n      swap1\n      sstore\n      pop\n        /* \"Learning Pth/CrowdFundingP.sol\":886:891  value */\n      dup1\n        /* \"Learning Pth/CrowdFundingP.sol\":865:882  totalContribution */\n      0x05\n      0x00\n        /* \"Learning Pth/CrowdFundingP.sol\":865:891  totalContribution += value */\n      dup3\n      dup3\n      sload\n      tag_106\n      swap2\n      swap1\n      tag_84\n      jump\t// in\n    tag_106:\n      swap3\n      pop\n      pop\n      dup2\n      swap1\n      sstore\n      pop\n        /* \"Learning Pth/CrowdFundingP.sol\":929:933  goal */\n      sload(0x06)\n        /* \"Learning Pth/CrowdFundingP.sol\":908:925  totalContribution */\n      sload(0x05)\n        /* \"Learning Pth/CrowdFundingP.sol\":908:933  totalContribution >= goal */\n      lt\n        /* \"Learning Pth/CrowdFundingP.sol\":904:977  if (totalContribution >= goal) {... */\n      tag_107\n      jumpi\n        /* \"Learning Pth/CrowdFundingP.sol\":961:965  true */\n      0x01\n        /* \"Learning Pth/CrowdFundingP.sol\":950:958  isFunded */\n      0x03\n      0x00\n        /* \"Learning Pth/CrowdFundingP.sol\":950:965  isFunded = true */\n      0x0100\n      exp\n      dup2\n      sload\n      dup2\n      0xff\n      mul\n      not\n      and\n      swap1\n      dup4\n      iszero\n      iszero\n      mul\n      or\n      swap1\n      sstore\n      pop\n        /* \"Learning Pth/CrowdFundingP.sol\":904:977  if (totalContribution >= goal) {... */\n    tag_107:\n        /* \"Learning Pth/CrowdFundingP.sol\":659:985  {... */\n      pop\n        /* \"Learning Pth/CrowdFundingP.sol\":622:985  function contribute() public payable {... */\n      jump\t// out\n        /* \"#utility.yul\":7:84   */\n    tag_108:\n        /* \"#utility.yul\":44:51   */\n      0x00\n        /* \"#utility.yul\":73:78   */\n      dup2\n        /* \"#utility.yul\":62:78   */\n      swap1\n      pop\n        /* \"#utility.yul\":7:84   */\n      swap2\n      swap1\n      pop\n      jump\t// out\n        /* \"#utility.yul\":90:208   */\n    tag_109:\n        /* \"#utility.yul\":177:201   */\n      tag_139\n        /* \"#utility.yul\":195:200   */\n      dup2\n        /* \"#utility.yul\":177:201   */\n      tag_108\n      jump\t// in\n    tag_139:\n        /* \"#utility.yul\":172:175   */\n      dup3\n        /* \"#utility.yul\":165:202   */\n      mstore\n        /* \"#utility.yul\":90:208   */\n      pop\n      pop\n      jump\t// out\n        /* \"#utility.yul\":214:436   */\n    tag_21:\n        /* \"#utility.yul\":307:311   */\n      0x00\n        /* \"#utility.yul\":345:347   */\n      0x20\n        /* \"#utility.yul\":334:343   */\n      dup3\n        /* \"#utility.yul\":330:348   */\n      add\n        /* \"#utility.yul\":322:348   */\n      swap1\n      pop\n        /* \"#utility.yul\":358:429   */\n      tag_141\n        /* \"#utility.yul\":426:427   */\n      0x00\n        /* \"#utility.yul\":415:424   */\n      dup4\n        /* \"#utility.yul\":411:428   */\n      add\n        /* \"#utility.yul\":402:408   */\n      dup5\n        /* \"#utility.yul\":358:429   */\n      tag_109\n      jump\t// in\n    tag_141:\n        /* \"#utility.yul\":214:436   */\n      swap3\n      swap2\n      pop\n      pop\n      jump\t// out\n        /* \"#utility.yul\":523:640   */\n    tag_111:\n        /* \"#utility.yul\":632:633   */\n      0x00\n        /* \"#utility.yul\":629:630   */\n      dup1\n        /* \"#utility.yul\":622:634   */\n      revert\n        /* \"#utility.yul\":769:895   */\n    tag_113:\n        /* \"#utility.yul\":806:813   */\n      0x00\n        /* \"#utility.yul\":846:888   */\n      0xffffffffffffffffffffffffffffffffffffffff\n        /* \"#utility.yul\":839:844   */\n      dup3\n        /* \"#utility.yul\":835:889   */\n      and\n        /* \"#utility.yul\":824:889   */\n      swap1\n      pop\n        /* \"#utility.yul\":769:895   */\n      swap2\n      swap1\n      pop\n      jump\t// out\n        /* \"#utility.yul\":901:997   */\n    tag_114:\n        /* \"#utility.yul\":938:945   */\n      0x00\n        /* \"#utility.yul\":967:991   */\n      tag_147\n        /* \"#utility.yul\":985:990   */\n      dup3\n        /* \"#utility.yul\":967:991   */\n      tag_113\n      jump\t// in\n    tag_147:\n        /* \"#utility.yul\":956:991   */\n      swap1\n      pop\n        /* \"#utility.yul\":901:997   */\n      swap2\n      swap1\n      pop\n      jump\t// out\n        /* \"#utility.yul\":1003:1125   */\n    tag_115:\n        /* \"#utility.yul\":1076:1100   */\n      tag_149\n        /* \"#utility.yul\":1094:1099   */\n      dup2\n        /* \"#utility.yul\":1076:1100   */\n      tag_114\n      jump\t// in\n    tag_149:\n        /* \"#utility.yul\":1069:1074   */\n      dup2\n        /* \"#utility.yul\":1066:1101   */\n      eq\n        /* \"#utility.yul\":1056:1119   */\n      tag_150\n      jumpi\n        /* \"#utility.yul\":1115:1116   */\n      0x00\n        /* \"#utility.yul\":1112:1113   */\n      dup1\n        /* \"#utility.yul\":1105:1117   */\n      revert\n        /* \"#utility.yul\":1056:1119   */\n    tag_150:\n        /* \"#utility.yul\":1003:1125   */\n      pop\n      jump\t// out\n        /* \"#utility.yul\":1131:1270   */\n    tag_116:\n        /* \"#utility.yul\":1177:1182   */\n      0x00\n        /* \"#utility.yul\":1215:1221   */\n      dup2\n        /* \"#utility.yul\":1202:1222   */\n      calldataload\n        /* \"#utility.yul\":1193:1222   */\n      swap1\n      pop\n        /* \"#utility.yul\":1231:1264   */\n      tag_152\n        /* \"#utility.yul\":1258:1263   */\n      dup2\n        /* \"#utility.yul\":1231:1264   */\n      tag_115\n      jump\t// in\n    tag_152:\n        /* \"#utility.yul\":1131:1270   */\n      swap3\n      swap2\n      pop\n      pop\n      jump\t// out\n        /* \"#utility.yul\":1276:1605   */\n    tag_44:\n        /* \"#utility.yul\":1335:1341   */\n      0x00\n        /* \"#utility.yul\":1384:1386   */\n      0x20\n        /* \"#utility.yul\":1372:1381   */\n      dup3\n        /* \"#utility.yul\":1363:1370   */\n      dup5\n        /* \"#utility.yul\":1359:1382   */\n      sub\n        /* \"#utility.yul\":1355:1387   */\n      slt\n        /* \"#utility.yul\":1352:1471   */\n      iszero\n      tag_154\n      jumpi\n        /* \"#utility.yul\":1390:1469   */\n      tag_155\n      tag_111\n      jump\t// in\n    tag_155:\n        /* \"#utility.yul\":1352:1471   */\n    tag_154:\n        /* \"#utility.yul\":1510:1511   */\n      0x00\n        /* \"#utility.yul\":1535:1588   */\n      tag_156\n        /* \"#utility.yul\":1580:1587   */\n      dup5\n        /* \"#utility.yul\":1571:1577   */\n      dup3\n        /* \"#utility.yul\":1560:1569   */\n      dup6\n        /* \"#utility.yul\":1556:1578   */\n      add\n        /* \"#utility.yul\":1535:1588   */\n      tag_116\n      jump\t// in\n    tag_156:\n        /* \"#utility.yul\":1525:1588   */\n      swap2\n      pop\n        /* \"#utility.yul\":1481:1598   */\n      pop\n        /* \"#utility.yul\":1276:1605   */\n      swap3\n      swap2\n      pop\n      pop\n      jump\t// out\n        /* \"#utility.yul\":1611:1701   */\n    tag_117:\n        /* \"#utility.yul\":1645:1652   */\n      0x00\n        /* \"#utility.yul\":1688:1693   */\n      dup2\n        /* \"#utility.yul\":1681:1694   */\n      iszero\n        /* \"#utility.yul\":1674:1695   */\n      iszero\n        /* \"#utility.yul\":1663:1695   */\n      swap1\n      pop\n        /* \"#utility.yul\":1611:1701   */\n      swap2\n      swap1\n      pop\n      jump\t// out\n        /* \"#utility.yul\":1707:1816   */\n    tag_118:\n        /* \"#utility.yul\":1788:1809   */\n      tag_159\n        /* \"#utility.yul\":1803:1808   */\n      dup2\n        /* \"#utility.yul\":1788:1809   */\n      tag_117\n      jump\t// in\n    tag_159:\n        /* \"#utility.yul\":1783:1786   */\n      dup3\n        /* \"#utility.yul\":1776:1810   */\n      mstore\n        /* \"#utility.yul\":1707:1816   */\n      pop\n      pop\n      jump\t// out\n        /* \"#utility.yul\":1822:2032   */\n    tag_54:\n        /* \"#utility.yul\":1909:1913   */\n      0x00\n        /* \"#utility.yul\":1947:1949   */\n      0x20\n        /* \"#utility.yul\":1936:1945   */\n      dup3\n        /* \"#utility.yul\":1932:1950   */\n      add\n        /* \"#utility.yul\":1924:1950   */\n      swap1\n      pop\n        /* \"#utility.yul\":1960:2025   */\n      tag_161\n        /* \"#utility.yul\":2022:2023   */\n      0x00\n        /* \"#utility.yul\":2011:2020   */\n      dup4\n        /* \"#utility.yul\":2007:2024   */\n      add\n        /* \"#utility.yul\":1998:2004   */\n      dup5\n        /* \"#utility.yul\":1960:2025   */\n      tag_118\n      jump\t// in\n    tag_161:\n        /* \"#utility.yul\":1822:2032   */\n      swap3\n      swap2\n      pop\n      pop\n      jump\t// out\n        /* \"#utility.yul\":2038:2156   */\n    tag_119:\n        /* \"#utility.yul\":2125:2149   */\n      tag_163\n        /* \"#utility.yul\":2143:2148   */\n      dup2\n        /* \"#utility.yul\":2125:2149   */\n      tag_114\n      jump\t// in\n    tag_163:\n        /* \"#utility.yul\":2120:2123   */\n      dup3\n        /* \"#utility.yul\":2113:2150   */\n      mstore\n        /* \"#utility.yul\":2038:2156   */\n      pop\n      pop\n      jump\t// out\n        /* \"#utility.yul\":2162:2384   */\n    tag_59:\n        /* \"#utility.yul\":2255:2259   */\n      0x00\n        /* \"#utility.yul\":2293:2295   */\n      0x20\n        /* \"#utility.yul\":2282:2291   */\n      dup3\n        /* \"#utility.yul\":2278:2296   */\n      add\n        /* \"#utility.yul\":2270:2296   */\n      swap1\n      pop\n        /* \"#utility.yul\":2306:2377   */\n      tag_165\n        /* \"#utility.yul\":2374:2375   */\n      0x00\n        /* \"#utility.yul\":2363:2372   */\n      dup4\n        /* \"#utility.yul\":2359:2376   */\n      add\n        /* \"#utility.yul\":2350:2356   */\n      dup5\n        /* \"#utility.yul\":2306:2377   */\n      tag_119\n      jump\t// in\n    tag_165:\n        /* \"#utility.yul\":2162:2384   */\n      swap3\n      swap2\n      pop\n      pop\n      jump\t// out\n        /* \"#utility.yul\":2390:2559   */\n    tag_120:\n        /* \"#utility.yul\":2474:2485   */\n      0x00\n        /* \"#utility.yul\":2508:2514   */\n      dup3\n        /* \"#utility.yul\":2503:2506   */\n      dup3\n        /* \"#utility.yul\":2496:2515   */\n      mstore\n        /* \"#utility.yul\":2548:2552   */\n      0x20\n        /* \"#utility.yul\":2543:2546   */\n      dup3\n        /* \"#utility.yul\":2539:2553   */\n      add\n        /* \"#utility.yul\":2524:2553   */\n      swap1\n      pop\n        /* \"#utility.yul\":2390:2559   */\n      swap3\n      swap2\n      pop\n      pop\n      jump\t// out\n        /* \"#utility.yul\":2565:2787   */\n    tag_121:\n        /* \"#utility.yul\":2705:2739   */\n      0x6f6e6c79206f776e65722063616e20706572666f726d20746869732061637469\n        /* \"#utility.yul\":2701:2702   */\n      0x00\n        /* \"#utility.yul\":2693:2699   */\n      dup3\n        /* \"#utility.yul\":2689:2703   */\n      add\n        /* \"#utility.yul\":2682:2740   */\n      mstore\n        /* \"#utility.yul\":2774:2779   */\n      0x6f6e2e0000000000000000000000000000000000000000000000000000000000\n        /* \"#utility.yul\":2769:2771   */\n      0x20\n        /* \"#utility.yul\":2761:2767   */\n      dup3\n        /* \"#utility.yul\":2757:2772   */\n      add\n        /* \"#utility.yul\":2750:2780   */\n      mstore\n        /* \"#utility.yul\":2565:2787   */\n      pop\n      jump\t// out\n        /* \"#utility.yul\":2793:3159   */\n    tag_122:\n        /* \"#utility.yul\":2935:2938   */\n      0x00\n        /* \"#utility.yul\":2956:3023   */\n      tag_169\n        /* \"#utility.yul\":3020:3022   */\n      0x23\n        /* \"#utility.yul\":3015:3018   */\n      dup4\n        /* \"#utility.yul\":2956:3023   */\n      tag_120\n      jump\t// in\n    tag_169:\n        /* \"#utility.yul\":2949:3023   */\n      swap2\n      pop\n        /* \"#utility.yul\":3032:3125   */\n      tag_170\n        /* \"#utility.yul\":3121:3124   */\n      dup3\n        /* \"#utility.yul\":3032:3125   */\n      tag_121\n      jump\t// in\n    tag_170:\n        /* \"#utility.yul\":3150:3152   */\n      0x40\n        /* \"#utility.yul\":3145:3148   */\n      dup3\n        /* \"#utility.yul\":3141:3153   */\n      add\n        /* \"#utility.yul\":3134:3153   */\n      swap1\n      pop\n        /* \"#utility.yul\":2793:3159   */\n      swap2\n      swap1\n      pop\n      jump\t// out\n        /* \"#utility.yul\":3165:3584   */\n    tag_72:\n        /* \"#utility.yul\":3331:3335   */\n      0x00\n        /* \"#utility.yul\":3369:3371   */\n      0x20\n        /* \"#utility.yul\":3358:3367   */\n      dup3\n        /* \"#utility.yul\":3354:3372   */\n      add\n        /* \"#utility.yul\":3346:3372   */\n      swap1\n      pop\n        /* \"#utility.yul\":3418:3427   */\n      dup2\n        /* \"#utility.yul\":3412:3416   */\n      dup2\n        /* \"#utility.yul\":3408:3428   */\n      sub\n        /* \"#utility.yul\":3404:3405   */\n      0x00\n        /* \"#utility.yul\":3393:3402   */\n      dup4\n        /* \"#utility.yul\":3389:3406   */\n      add\n        /* \"#utility.yul\":3382:3429   */\n      mstore\n        /* \"#utility.yul\":3446:3577   */\n      tag_172\n        /* \"#utility.yul\":3572:3576   */\n      dup2\n        /* \"#utility.yul\":3446:3577   */\n      tag_122\n      jump\t// in\n    tag_172:\n        /* \"#utility.yul\":3438:3577   */\n      swap1\n      pop\n        /* \"#utility.yul\":3165:3584   */\n      swap2\n      swap1\n      pop\n      jump\t// out\n        /* \"#utility.yul\":3590:3757   */\n    tag_123:\n        /* \"#utility.yul\":3730:3749   */\n      0x646561646c696e65206e6f74206f766572000000000000000000000000000000\n        /* \"#utility.yul\":3726:3727   */\n      0x00\n        /* \"#utility.yul\":3718:3724   */\n      dup3\n        /* \"#utility.yul\":3714:3728   */\n      add\n        /* \"#utility.yul\":3707:3750   */\n      mstore\n        /* \"#utility.yul\":3590:3757   */\n      pop\n      jump\t// out\n        /* \"#utility.yul\":3763:4129   */\n    tag_124:\n        /* \"#utility.yul\":3905:3908   */\n      0x00\n        /* \"#utility.yul\":3926:3993   */\n      tag_175\n        /* \"#utility.yul\":3990:3992   */\n      0x11\n        /* \"#utility.yul\":3985:3988   */\n      dup4\n        /* \"#utility.yul\":3926:3993   */\n      tag_120\n      jump\t// in\n    tag_175:\n        /* \"#utility.yul\":3919:3993   */\n      swap2\n      pop\n        /* \"#utility.yul\":4002:4095   */\n      tag_176\n        /* \"#utility.yul\":4091:4094   */\n      dup3\n        /* \"#utility.yul\":4002:4095   */\n      tag_123\n      jump\t// in\n    tag_176:\n        /* \"#utility.yul\":4120:4122   */\n      0x20\n        /* \"#utility.yul\":4115:4118   */\n      dup3\n        /* \"#utility.yul\":4111:4123   */\n      add\n        /* \"#utility.yul\":4104:4123   */\n      swap1\n      pop\n        /* \"#utility.yul\":3763:4129   */\n      swap2\n      swap1\n      pop\n      jump\t// out\n        /* \"#utility.yul\":4135:4554   */\n    tag_76:\n        /* \"#utility.yul\":4301:4305   */\n      0x00\n        /* \"#utility.yul\":4339:4341   */\n      0x20\n        /* \"#utility.yul\":4328:4337   */\n      dup3\n        /* \"#utility.yul\":4324:4342   */\n      add\n        /* \"#utility.yul\":4316:4342   */\n      swap1\n      pop\n        /* \"#utility.yul\":4388:4397   */\n      dup2\n        /* \"#utility.yul\":4382:4386   */\n      dup2\n        /* \"#utility.yul\":4378:4398   */\n      sub\n        /* \"#utility.yul\":4374:4375   */\n      0x00\n        /* \"#utility.yul\":4363:4372   */\n      dup4\n        /* \"#utility.yul\":4359:4376   */\n      add\n        /* \"#utility.yul\":4352:4399   */\n      mstore\n        /* \"#utility.yul\":4416:4547   */\n      tag_178\n        /* \"#utility.yul\":4542:4546   */\n      dup2\n        /* \"#utility.yul\":4416:4547   */\n      tag_124\n      jump\t// in\n    tag_178:\n        /* \"#utility.yul\":4408:4547   */\n      swap1\n      pop\n        /* \"#utility.yul\":4135:4554   */\n      swap2\n      swap1\n      pop\n      jump\t// out\n        /* \"#utility.yul\":4560:4730   */\n    tag_125:\n        /* \"#utility.yul\":4700:4722   */\n      0x63726f776466756e64696e67206973206f766572000000000000000000000000\n        /* \"#utility.yul\":4696:4697   */\n      0x00\n        /* \"#utility.yul\":4688:4694   */\n      dup3\n        /* \"#utility.yul\":4684:4698   */\n      add\n        /* \"#utility.yul\":4677:4723   */\n      mstore\n        /* \"#utility.yul\":4560:4730   */\n      pop\n      jump\t// out\n        /* \"#utility.yul\":4736:5102   */\n    tag_126:\n        /* \"#utility.yul\":4878:4881   */\n      0x00\n        /* \"#utility.yul\":4899:4966   */\n      tag_181\n        /* \"#utility.yul\":4963:4965   */\n      0x14\n        /* \"#utility.yul\":4958:4961   */\n      dup4\n        /* \"#utility.yul\":4899:4966   */\n      tag_120\n      jump\t// in\n    tag_181:\n        /* \"#utility.yul\":4892:4966   */\n      swap2\n      pop\n        /* \"#utility.yul\":4975:5068   */\n      tag_182\n        /* \"#utility.yul\":5064:5067   */\n      dup3\n        /* \"#utility.yul\":4975:5068   */\n      tag_125\n      jump\t// in\n    tag_182:\n        /* \"#utility.yul\":5093:5095   */\n      0x20\n        /* \"#utility.yul\":5088:5091   */\n      dup3\n        /* \"#utility.yul\":5084:5096   */\n      add\n        /* \"#utility.yul\":5077:5096   */\n      swap1\n      pop\n        /* \"#utility.yul\":4736:5102   */\n      swap2\n      swap1\n      pop\n      jump\t// out\n        /* \"#utility.yul\":5108:5527   */\n    tag_79:\n        /* \"#utility.yul\":5274:5278   */\n      0x00\n        /* \"#utility.yul\":5312:5314   */\n      0x20\n        /* \"#utility.yul\":5301:5310   */\n      dup3\n        /* \"#utility.yul\":5297:5315   */\n      add\n        /* \"#utility.yul\":5289:5315   */\n      swap1\n      pop\n        /* \"#utility.yul\":5361:5370   */\n      dup2\n        /* \"#utility.yul\":5355:5359   */\n      dup2\n        /* \"#utility.yul\":5351:5371   */\n      sub\n        /* \"#utility.yul\":5347:5348   */\n      0x00\n        /* \"#utility.yul\":5336:5345   */\n      dup4\n        /* \"#utility.yul\":5332:5349   */\n      add\n        /* \"#utility.yul\":5325:5372   */\n      mstore\n        /* \"#utility.yul\":5389:5520   */\n      tag_184\n        /* \"#utility.yul\":5515:5519   */\n      dup2\n        /* \"#utility.yul\":5389:5520   */\n      tag_126\n      jump\t// in\n    tag_184:\n        /* \"#utility.yul\":5381:5520   */\n      swap1\n      pop\n        /* \"#utility.yul\":5108:5527   */\n      swap2\n      swap1\n      pop\n      jump\t// out\n        /* \"#utility.yul\":5533:5713   */\n    tag_127:\n        /* \"#utility.yul\":5581:5658   */\n      0x4e487b7100000000000000000000000000000000000000000000000000000000\n        /* \"#utility.yul\":5578:5579   */\n      0x00\n        /* \"#utility.yul\":5571:5659   */\n      mstore\n        /* \"#utility.yul\":5678:5682   */\n      0x11\n        /* \"#utility.yul\":5675:5676   */\n      0x04\n        /* \"#utility.yul\":5668:5683   */\n      mstore\n        /* \"#utility.yul\":5702:5706   */\n      0x24\n        /* \"#utility.yul\":5699:5700   */\n      0x00\n        /* \"#utility.yul\":5692:5707   */\n      revert\n        /* \"#utility.yul\":5719:5910   */\n    tag_84:\n        /* \"#utility.yul\":5759:5762   */\n      0x00\n        /* \"#utility.yul\":5778:5798   */\n      tag_187\n        /* \"#utility.yul\":5796:5797   */\n      dup3\n        /* \"#utility.yul\":5778:5798   */\n      tag_108\n      jump\t// in\n    tag_187:\n        /* \"#utility.yul\":5773:5798   */\n      swap2\n      pop\n        /* \"#utility.yul\":5812:5832   */\n      tag_188\n        /* \"#utility.yul\":5830:5831   */\n      dup4\n        /* \"#utility.yul\":5812:5832   */\n      tag_108\n      jump\t// in\n    tag_188:\n        /* \"#utility.yul\":5807:5832   */\n      swap3\n      pop\n        /* \"#utility.yul\":5855:5856   */\n      dup3\n        /* \"#utility.yul\":5852:5853   */\n      dup3\n        /* \"#utility.yul\":5848:5857   */\n      add\n        /* \"#utility.yul\":5841:5857   */\n      swap1\n      pop\n        /* \"#utility.yul\":5876:5879   */\n      dup1\n        /* \"#utility.yul\":5873:5874   */\n      dup3\n        /* \"#utility.yul\":5870:5880   */\n      gt\n        /* \"#utility.yul\":5867:5903   */\n      iszero\n      tag_189\n      jumpi\n        /* \"#utility.yul\":5883:5901   */\n      tag_190\n      tag_127\n      jump\t// in\n    tag_190:\n        /* \"#utility.yul\":5867:5903   */\n    tag_189:\n        /* \"#utility.yul\":5719:5910   */\n      swap3\n      swap2\n      pop\n      pop\n      jump\t// out\n        /* \"#utility.yul\":5916:6097   */\n    tag_128:\n        /* \"#utility.yul\":6056:6089   */\n      0x63616e27742067657420726566756e6420616674657220646561646c696e6500\n        /* \"#utility.yul\":6052:6053   */\n      0x00\n        /* \"#utility.yul\":6044:6050   */\n      dup3\n        /* \"#utility.yul\":6040:6054   */\n      add\n        /* \"#utility.yul\":6033:6090   */\n      mstore\n        /* \"#utility.yul\":5916:6097   */\n      pop\n      jump\t// out\n        /* \"#utility.yul\":6103:6469   */\n    tag_129:\n        /* \"#utility.yul\":6245:6248   */\n      0x00\n        /* \"#utility.yul\":6266:6333   */\n      tag_193\n        /* \"#utility.yul\":6330:6332   */\n      0x1f\n        /* \"#utility.yul\":6325:6328   */\n      dup4\n        /* \"#utility.yul\":6266:6333   */\n      tag_120\n      jump\t// in\n    tag_193:\n        /* \"#utility.yul\":6259:6333   */\n      swap2\n      pop\n        /* \"#utility.yul\":6342:6435   */\n      tag_194\n        /* \"#utility.yul\":6431:6434   */\n      dup3\n        /* \"#utility.yul\":6342:6435   */\n      tag_128\n      jump\t// in\n    tag_194:\n        /* \"#utility.yul\":6460:6462   */\n      0x20\n        /* \"#utility.yul\":6455:6458   */\n      dup3\n        /* \"#utility.yul\":6451:6463   */\n      add\n        /* \"#utility.yul\":6444:6463   */\n      swap1\n      pop\n        /* \"#utility.yul\":6103:6469   */\n      swap2\n      swap1\n      pop\n      jump\t// out\n        /* \"#utility.yul\":6475:6894   */\n    tag_88:\n        /* \"#utility.yul\":6641:6645   */\n      0x00\n        /* \"#utility.yul\":6679:6681   */\n      0x20\n        /* \"#utility.yul\":6668:6677   */\n      dup3\n        /* \"#utility.yul\":6664:6682   */\n      add\n        /* \"#utility.yul\":6656:6682   */\n      swap1\n      pop\n        /* \"#utility.yul\":6728:6737   */\n      dup2\n        /* \"#utility.yul\":6722:6726   */\n      dup2\n        /* \"#utility.yul\":6718:6738   */\n      sub\n        /* \"#utility.yul\":6714:6715   */\n      0x00\n        /* \"#utility.yul\":6703:6712   */\n      dup4\n        /* \"#utility.yul\":6699:6716   */\n      add\n        /* \"#utility.yul\":6692:6739   */\n      mstore\n        /* \"#utility.yul\":6756:6887   */\n      tag_196\n        /* \"#utility.yul\":6882:6886   */\n      dup2\n        /* \"#utility.yul\":6756:6887   */\n      tag_129\n      jump\t// in\n    tag_196:\n        /* \"#utility.yul\":6748:6887   */\n      swap1\n      pop\n        /* \"#utility.yul\":6475:6894   */\n      swap2\n      swap1\n      pop\n      jump\t// out\n        /* \"#utility.yul\":6900:7065   */\n    tag_130:\n        /* \"#utility.yul\":7040:7057   */\n      0x676f616c20697320726561636865640000000000000000000000000000000000\n        /* \"#utility.yul\":7036:7037   */\n      0x00\n        /* \"#utility.yul\":7028:7034   */\n      dup3\n        /* \"#utility.yul\":7024:7038   */\n      add\n        /* \"#utility.yul\":7017:7058   */\n      mstore\n        /* \"#utility.yul\":6900:7065   */\n      pop\n      jump\t// out\n        /* \"#utility.yul\":7071:7437   */\n    tag_131:\n        /* \"#utility.yul\":7213:7216   */\n      0x00\n        /* \"#utility.yul\":7234:7301   */\n      tag_199\n        /* \"#utility.yul\":7298:7300   */\n      0x0f\n        /* \"#utility.yul\":7293:7296   */\n      dup4\n        /* \"#utility.yul\":7234:7301   */\n      tag_120\n      jump\t// in\n    tag_199:\n        /* \"#utility.yul\":7227:7301   */\n      swap2\n      pop\n        /* \"#utility.yul\":7310:7403   */\n      tag_200\n        /* \"#utility.yul\":7399:7402   */\n      dup3\n        /* \"#utility.yul\":7310:7403   */\n      tag_130\n      jump\t// in\n    tag_200:\n        /* \"#utility.yul\":7428:7430   */\n      0x20\n        /* \"#utility.yul\":7423:7426   */\n      dup3\n        /* \"#utility.yul\":7419:7431   */\n      add\n        /* \"#utility.yul\":7412:7431   */\n      swap1\n      pop\n        /* \"#utility.yul\":7071:7437   */\n      swap2\n      swap1\n      pop\n      jump\t// out\n        /* \"#utility.yul\":7443:7862   */\n    tag_91:\n        /* \"#utility.yul\":7609:7613   */\n      0x00\n        /* \"#utility.yul\":7647:7649   */\n      0x20\n        /* \"#utility.yul\":7636:7645   */\n      dup3\n        /* \"#utility.yul\":7632:7650   */\n      add\n        /* \"#utility.yul\":7624:7650   */\n      swap1\n      pop\n        /* \"#utility.yul\":7696:7705   */\n      dup2\n        /* \"#utility.yul\":7690:7694   */\n      dup2\n        /* \"#utility.yul\":7686:7706   */\n      sub\n        /* \"#utility.yul\":7682:7683   */\n      0x00\n        /* \"#utility.yul\":7671:7680   */\n      dup4\n        /* \"#utility.yul\":7667:7684   */\n      add\n        /* \"#utility.yul\":7660:7707   */\n      mstore\n        /* \"#utility.yul\":7724:7855   */\n      tag_202\n        /* \"#utility.yul\":7850:7854   */\n      dup2\n        /* \"#utility.yul\":7724:7855   */\n      tag_131\n      jump\t// in\n    tag_202:\n        /* \"#utility.yul\":7716:7855   */\n      swap1\n      pop\n        /* \"#utility.yul\":7443:7862   */\n      swap2\n      swap1\n      pop\n      jump\t// out\n        /* \"#utility.yul\":7868:8043   */\n    tag_132:\n        /* \"#utility.yul\":8008:8035   */\n      0x6e6f20636f6e747269627574696f6e20746f20726566756e6400000000000000\n        /* \"#utility.yul\":8004:8005   */\n      0x00\n        /* \"#utility.yul\":7996:8002   */\n      dup3\n        /* \"#utility.yul\":7992:8006   */\n      add\n        /* \"#utility.yul\":7985:8036   */\n      mstore\n        /* \"#utility.yul\":7868:8043   */\n      pop\n      jump\t// out\n        /* \"#utility.yul\":8049:8415   */\n    tag_133:\n        /* \"#utility.yul\":8191:8194   */\n      0x00\n        /* \"#utility.yul\":8212:8279   */\n      tag_205\n        /* \"#utility.yul\":8276:8278   */\n      0x19\n        /* \"#utility.yul\":8271:8274   */\n      dup4\n        /* \"#utility.yul\":8212:8279   */\n      tag_120\n      jump\t// in\n    tag_205:\n        /* \"#utility.yul\":8205:8279   */\n      swap2\n      pop\n        /* \"#utility.yul\":8288:8381   */\n      tag_206\n        /* \"#utility.yul\":8377:8380   */\n      dup3\n        /* \"#utility.yul\":8288:8381   */\n      tag_132\n      jump\t// in\n    tag_206:\n        /* \"#utility.yul\":8406:8408   */\n      0x20\n        /* \"#utility.yul\":8401:8404   */\n      dup3\n        /* \"#utility.yul\":8397:8409   */\n      add\n        /* \"#utility.yul\":8390:8409   */\n      swap1\n      pop\n        /* \"#utility.yul\":8049:8415   */\n      swap2\n      swap1\n      pop\n      jump\t// out\n        /* \"#utility.yul\":8421:8840   */\n    tag_94:\n        /* \"#utility.yul\":8587:8591   */\n      0x00\n        /* \"#utility.yul\":8625:8627   */\n      0x20\n        /* \"#utility.yul\":8614:8623   */\n      dup3\n        /* \"#utility.yul\":8610:8628   */\n      add\n        /* \"#utility.yul\":8602:8628   */\n      swap1\n      pop\n        /* \"#utility.yul\":8674:8683   */\n      dup2\n        /* \"#utility.yul\":8668:8672   */\n      dup2\n        /* \"#utility.yul\":8664:8684   */\n      sub\n        /* \"#utility.yul\":8660:8661   */\n      0x00\n        /* \"#utility.yul\":8649:8658   */\n      dup4\n        /* \"#utility.yul\":8645:8662   */\n      add\n        /* \"#utility.yul\":8638:8685   */\n      mstore\n        /* \"#utility.yul\":8702:8833   */\n      tag_208\n        /* \"#utility.yul\":8828:8832   */\n      dup2\n        /* \"#utility.yul\":8702:8833   */\n      tag_133\n      jump\t// in\n    tag_208:\n        /* \"#utility.yul\":8694:8833   */\n      swap1\n      pop\n        /* \"#utility.yul\":8421:8840   */\n      swap2\n      swap1\n      pop\n      jump\t// out\n        /* \"#utility.yul\":8846:9040   */\n    tag_96:\n        /* \"#utility.yul\":8886:8890   */\n      0x00\n        /* \"#utility.yul\":8906:8926   */\n      tag_210\n        /* \"#utility.yul\":8924:8925   */\n      dup3\n        /* \"#utility.yul\":8906:8926   */\n      tag_108\n      jump\t// in\n    tag_210:\n        /* \"#utility.yul\":8901:8926   */\n      swap2\n      pop\n        /* \"#utility.yul\":8940:8960   */\n      tag_211\n        /* \"#utility.yul\":8958:8959   */\n      dup4\n        /* \"#utility.yul\":8940:8960   */\n      tag_108\n      jump\t// in\n    tag_211:\n        /* \"#utility.yul\":8935:8960   */\n      swap3\n      pop\n        /* \"#utility.yul\":8984:8985   */\n      dup3\n        /* \"#utility.yul\":8981:8982   */\n      dup3\n        /* \"#utility.yul\":8977:8986   */\n      sub\n        /* \"#utility.yul\":8969:8986   */\n      swap1\n      pop\n        /* \"#utility.yul\":9008:9009   */\n      dup2\n        /* \"#utility.yul\":9002:9006   */\n      dup2\n        /* \"#utility.yul\":8999:9010   */\n      gt\n        /* \"#utility.yul\":8996:9033   */\n      iszero\n      tag_212\n      jumpi\n        /* \"#utility.yul\":9013:9031   */\n      tag_213\n      tag_127\n      jump\t// in\n    tag_213:\n        /* \"#utility.yul\":8996:9033   */\n    tag_212:\n        /* \"#utility.yul\":8846:9040   */\n      swap3\n      swap2\n      pop\n      pop\n      jump\t// out\n        /* \"#utility.yul\":9046:9212   */\n    tag_134:\n        /* \"#utility.yul\":9186:9204   */\n      0x646561646c696e65207265616368656400000000000000000000000000000000\n        /* \"#utility.yul\":9182:9183   */\n      0x00\n        /* \"#utility.yul\":9174:9180   */\n      dup3\n        /* \"#utility.yul\":9170:9184   */\n      add\n        /* \"#utility.yul\":9163:9205   */\n      mstore\n        /* \"#utility.yul\":9046:9212   */\n      pop\n      jump\t// out\n        /* \"#utility.yul\":9218:9584   */\n    tag_135:\n        /* \"#utility.yul\":9360:9363   */\n      0x00\n        /* \"#utility.yul\":9381:9448   */\n      tag_216\n        /* \"#utility.yul\":9445:9447   */\n      0x10\n        /* \"#utility.yul\":9440:9443   */\n      dup4\n        /* \"#utility.yul\":9381:9448   */\n      tag_120\n      jump\t// in\n    tag_216:\n        /* \"#utility.yul\":9374:9448   */\n      swap2\n      pop\n        /* \"#utility.yul\":9457:9550   */\n      tag_217\n        /* \"#utility.yul\":9546:9549   */\n      dup3\n        /* \"#utility.yul\":9457:9550   */\n      tag_134\n      jump\t// in\n    tag_217:\n        /* \"#utility.yul\":9575:9577   */\n      0x20\n        /* \"#utility.yul\":9570:9573   */\n      dup3\n        /* \"#utility.yul\":9566:9578   */\n      add\n        /* \"#utility.yul\":9559:9578   */\n      swap1\n      pop\n        /* \"#utility.yul\":9218:9584   */\n      swap2\n      swap1\n      pop\n      jump\t// out\n        /* \"#utility.yul\":9590:10009   */\n    tag_102:\n        /* \"#utility.yul\":9756:9760   */\n      0x00\n        /* \"#utility.yul\":9794:9796   */\n      0x20\n        /* \"#utility.yul\":9783:9792   */\n      dup3\n        /* \"#utility.yul\":9779:9797   */\n      add\n        /* \"#utility.yul\":9771:9797   */\n      swap1\n      pop\n        /* \"#utility.yul\":9843:9852   */\n      dup2\n        /* \"#utility.yul\":9837:9841   */\n      dup2\n        /* \"#utility.yul\":9833:9853   */\n      sub\n        /* \"#utility.yul\":9829:9830   */\n      0x00\n        /* \"#utility.yul\":9818:9827   */\n      dup4\n        /* \"#utility.yul\":9814:9831   */\n      add\n        /* \"#utility.yul\":9807:9854   */\n      mstore\n        /* \"#utility.yul\":9871:10002   */\n      tag_219\n        /* \"#utility.yul\":9997:10001   */\n      dup2\n        /* \"#utility.yul\":9871:10002   */\n      tag_135\n      jump\t// in\n    tag_219:\n        /* \"#utility.yul\":9863:10002   */\n      swap1\n      pop\n        /* \"#utility.yul\":9590:10009   */\n      swap2\n      swap1\n      pop\n      jump\t// out\n\n    auxdata: 0xa2646970667358221220bee473301307a526d583e269162b91dd413713db912ff3827a403ab3745ce49c64736f6c634300081a0033\n}\n",
				"bytecode": {
					"linkReferences": {},
					"object": "608060405234801561000f575f80fd5b50604051610e79380380610e7983398181016040528101906100319190610103565b335f806101000a81548173ffffffffffffffffffffffffffffffffffffffff021916908373ffffffffffffffffffffffffffffffffffffffff1602179055504260028190555062093a8042610086919061015b565b6001819055505f600360016101000a81548160ff0219169083151502179055505f60035f6101000a81548160ff021916908315150217905550806006819055505061018e565b5f80fd5b5f819050919050565b6100e2816100d0565b81146100ec575f80fd5b50565b5f815190506100fd816100d9565b92915050565b5f60208284031215610118576101176100cc565b5b5f610125848285016100ef565b91505092915050565b7f4e487b71000000000000000000000000000000000000000000000000000000005f52601160045260245ffd5b5f610165826100d0565b9150610170836100d0565b92508282019050808211156101885761018761012e565b5b92915050565b610cde8061019b5f395ff3fe6080604052600436106100c1575f3560e01c806342e94c901161007e5780638da5cb5b116100585780638da5cb5b14610229578063b2d5ae4414610253578063b2fa1c9e1461025d578063d7bb99ba14610287576100c1565b806342e94c90146101ad57806369ef5e0a146101e95780637c654303146101ff576100c1565b80630b97bc86146100c55780630dcf4b8f146100ef57806312065fe01461011957806329dcb0cf146101435780633ccfd60b1461016d5780634019388314610183575b5f80fd5b3480156100d0575f80fd5b506100d9610291565b6040516100e6919061080a565b60405180910390f35b3480156100fa575f80fd5b50610103610297565b604051610110919061080a565b60405180910390f35b348015610124575f80fd5b5061012d61029d565b60405161013a919061080a565b60405180910390f35b34801561014e575f80fd5b506101576102a4565b604051610164919061080a565b60405180910390f35b348015610178575f80fd5b506101816102aa565b005b34801561018e575f80fd5b5061019761044d565b6040516101a4919061080a565b60405180910390f35b3480156101b8575f80fd5b506101d360048036038101906101ce9190610881565b610453565b6040516101e0919061080a565b60405180910390f35b3480156101f4575f80fd5b506101fd610468565b005b34801561020a575f80fd5b50610213610485565b60405161022091906108c6565b60405180910390f35b348015610234575f80fd5b5061023d610497565b60405161024a91906108ee565b60405180910390f35b61025b6104ba565b005b348015610268575f80fd5b506102716106b1565b60405161027e91906108c6565b60405180910390f35b61028f6106c4565b005b60025481565b60055481565b5f47905090565b60015481565b3373ffffffffffffffffffffffffffffffffffffffff165f8054906101000a900473ffffffffffffffffffffffffffffffffffffffff1673ffffffffffffffffffffffffffffffffffffffff1614610337576040517f08c379a000000000000000000000000000000000000000000000000000000000815260040161032e90610987565b60405180910390fd5b6002546001541161037d576040517f08c379a0000000000000000000000000000000000000000000000000000000008152600401610374906109ef565b60405180910390fd5b600360019054906101000a900460ff16156103cd576040517f08c379a00000000000000000000000000000000000000000000000000000000081526004016103c490610a57565b60405180910390fd5b6001600360016101000a81548160ff0219169083151502179055505f8054906101000a900473ffffffffffffffffffffffffffffffffffffffff1673ffffffffffffffffffffffffffffffffffffffff166108fc4790811502906040515f60405180830381858888f1935050505015801561044a573d5f803e3d5ffd5b50565b60065481565b6004602052805f5260405f205f915090505481565b6202a30060015f82825461047c9190610aa2565b92505081905550565b60035f9054906101000a900460ff1681565b5f8054906101000a900473ffffffffffffffffffffffffffffffffffffffff1681565b6001546002541015610501576040517f08c379a00000000000000000000000000000000000000000000000000000000081526004016104f890610b1f565b60405180910390fd5b60035f9054906101000a900460ff1615610550576040517f08c379a000000000000000000000000000000000000000000000000000000000815260040161054790610b87565b60405180910390fd5b5f60045f3373ffffffffffffffffffffffffffffffffffffffff1673ffffffffffffffffffffffffffffffffffffffff1681526020019081526020015f2054116105cf576040517f08c379a00000000000000000000000000000000000000000000000000000000081526004016105c690610bef565b60405180910390fd5b5f60045f3373ffffffffffffffffffffffffffffffffffffffff1673ffffffffffffffffffffffffffffffffffffffff1681526020019081526020015f205490505f60045f3373ffffffffffffffffffffffffffffffffffffffff1673ffffffffffffffffffffffffffffffffffffffff1681526020019081526020015f20819055508060055f8282546106639190610c0d565b925050819055503373ffffffffffffffffffffffffffffffffffffffff166108fc8290811502906040515f60405180830381858888f193505050501580156106ad573d5f803e3d5ffd5b5050565b600360019054906101000a900460ff1681565b6001546002541061070a576040517f08c379a000000000000000000000000000000000000000000000000000000000815260040161070190610c8a565b60405180910390fd5b600360019054906101000a900460ff161561075a576040517f08c379a000000000000000000000000000000000000000000000000000000000815260040161075190610a57565b60405180910390fd5b5f3490508060045f3373ffffffffffffffffffffffffffffffffffffffff1673ffffffffffffffffffffffffffffffffffffffff1681526020019081526020015f205f8282546107aa9190610aa2565b925050819055508060055f8282546107c29190610aa2565b92505081905550600654600554106107ef57600160035f6101000a81548160ff0219169083151502179055505b50565b5f819050919050565b610804816107f2565b82525050565b5f60208201905061081d5f8301846107fb565b92915050565b5f80fd5b5f73ffffffffffffffffffffffffffffffffffffffff82169050919050565b5f61085082610827565b9050919050565b61086081610846565b811461086a575f80fd5b50565b5f8135905061087b81610857565b92915050565b5f6020828403121561089657610895610823565b5b5f6108a38482850161086d565b91505092915050565b5f8115159050919050565b6108c0816108ac565b82525050565b5f6020820190506108d95f8301846108b7565b92915050565b6108e881610846565b82525050565b5f6020820190506109015f8301846108df565b92915050565b5f82825260208201905092915050565b7f6f6e6c79206f776e65722063616e20706572666f726d207468697320616374695f8201527f6f6e2e0000000000000000000000000000000000000000000000000000000000602082015250565b5f610971602383610907565b915061097c82610917565b604082019050919050565b5f6020820190508181035f83015261099e81610965565b9050919050565b7f646561646c696e65206e6f74206f7665720000000000000000000000000000005f82015250565b5f6109d9601183610907565b91506109e4826109a5565b602082019050919050565b5f6020820190508181035f830152610a06816109cd565b9050919050565b7f63726f776466756e64696e67206973206f7665720000000000000000000000005f82015250565b5f610a41601483610907565b9150610a4c82610a0d565b602082019050919050565b5f6020820190508181035f830152610a6e81610a35565b9050919050565b7f4e487b71000000000000000000000000000000000000000000000000000000005f52601160045260245ffd5b5f610aac826107f2565b9150610ab7836107f2565b9250828201905080821115610acf57610ace610a75565b5b92915050565b7f63616e27742067657420726566756e6420616674657220646561646c696e65005f82015250565b5f610b09601f83610907565b9150610b1482610ad5565b602082019050919050565b5f6020820190508181035f830152610b3681610afd565b9050919050565b7f676f616c206973207265616368656400000000000000000000000000000000005f82015250565b5f610b71600f83610907565b9150610b7c82610b3d565b602082019050919050565b5f6020820190508181035f830152610b9e81610b65565b9050919050565b7f6e6f20636f6e747269627574696f6e20746f20726566756e64000000000000005f82015250565b5f610bd9601983610907565b9150610be482610ba5565b602082019050919050565b5f6020820190508181035f830152610c0681610bcd565b9050919050565b5f610c17826107f2565b9150610c22836107f2565b9250828203905081811115610c3a57610c39610a75565b5b92915050565b7f646561646c696e652072656163686564000000000000000000000000000000005f82015250565b5f610c74601083610907565b9150610c7f82610c40565b602082019050919050565b5f6020820190508181035f830152610ca181610c68565b905091905056fea2646970667358221220bee473301307a526d583e269162b91dd413713db912ff3827a403ab3745ce49c64736f6c634300081a0033",
					"opcodes": "PUSH1 0x80 PUSH1 0x40 MSTORE CALLVALUE DUP1 ISZERO PUSH2 0xF JUMPI PUSH0 DUP1 REVERT JUMPDEST POP PUSH1 0x40 MLOAD PUSH2 0xE79 CODESIZE SUB DUP1 PUSH2 0xE79 DUP4 CODECOPY DUP2 DUP2 ADD PUSH1 0x40 MSTORE DUP2 ADD SWAP1 PUSH2 0x31 SWAP2 SWAP1 PUSH2 0x103 JUMP JUMPDEST CALLER PUSH0 DUP1 PUSH2 0x100 EXP DUP2 SLOAD DUP2 PUSH20 0xFFFFFFFFFFFFFFFFFFFFFFFFFFFFFFFFFFFFFFFF MUL NOT AND SWAP1 DUP4 PUSH20 0xFFFFFFFFFFFFFFFFFFFFFFFFFFFFFFFFFFFFFFFF AND MUL OR SWAP1 SSTORE POP TIMESTAMP PUSH1 0x2 DUP2 SWAP1 SSTORE POP PUSH3 0x93A80 TIMESTAMP PUSH2 0x86 SWAP2 SWAP1 PUSH2 0x15B JUMP JUMPDEST PUSH1 0x1 DUP2 SWAP1 SSTORE POP PUSH0 PUSH1 0x3 PUSH1 0x1 PUSH2 0x100 EXP DUP2 SLOAD DUP2 PUSH1 0xFF MUL NOT AND SWAP1 DUP4 ISZERO ISZERO MUL OR SWAP1 SSTORE POP PUSH0 PUSH1 0x3 PUSH0 PUSH2 0x100 EXP DUP2 SLOAD DUP2 PUSH1 0xFF MUL NOT AND SWAP1 DUP4 ISZERO ISZERO MUL OR SWAP1 SSTORE POP DUP1 PUSH1 0x6 DUP2 SWAP1 SSTORE POP POP PUSH2 0x18E JUMP JUMPDEST PUSH0 DUP1 REVERT JUMPDEST PUSH0 DUP2 SWAP1 POP SWAP2 SWAP1 POP JUMP JUMPDEST PUSH2 0xE2 DUP2 PUSH2 0xD0 JUMP JUMPDEST DUP2 EQ PUSH2 0xEC JUMPI PUSH0 DUP1 REVERT JUMPDEST POP JUMP JUMPDEST PUSH0 DUP2 MLOAD SWAP1 POP PUSH2 0xFD DUP2 PUSH2 0xD9 JUMP JUMPDEST SWAP3 SWAP2 POP POP JUMP JUMPDEST PUSH0 PUSH1 0x20 DUP3 DUP5 SUB SLT ISZERO PUSH2 0x118 JUMPI PUSH2 0x117 PUSH2 0xCC JUMP JUMPDEST JUMPDEST PUSH0 PUSH2 0x125 DUP5 DUP3 DUP6 ADD PUSH2 0xEF JUMP JUMPDEST SWAP2 POP POP SWAP3 SWAP2 POP POP JUMP JUMPDEST PUSH32 0x4E487B7100000000000000000000000000000000000000000000000000000000 PUSH0 MSTORE PUSH1 0x11 PUSH1 0x4 MSTORE PUSH1 0x24 PUSH0 REVERT JUMPDEST PUSH0 PUSH2 0x165 DUP3 PUSH2 0xD0 JUMP JUMPDEST SWAP2 POP PUSH2 0x170 DUP4 PUSH2 0xD0 JUMP JUMPDEST SWAP3 POP DUP3 DUP3 ADD SWAP1 POP DUP1 DUP3 GT ISZERO PUSH2 0x188 JUMPI PUSH2 0x187 PUSH2 0x12E JUMP JUMPDEST JUMPDEST SWAP3 SWAP2 POP POP JUMP JUMPDEST PUSH2 0xCDE DUP1 PUSH2 0x19B PUSH0 CODECOPY PUSH0 RETURN INVALID PUSH1 0x80 PUSH1 0x40 MSTORE PUSH1 0x4 CALLDATASIZE LT PUSH2 0xC1 JUMPI PUSH0 CALLDATALOAD PUSH1 0xE0 SHR DUP1 PUSH4 0x42E94C90 GT PUSH2 0x7E JUMPI DUP1 PUSH4 0x8DA5CB5B GT PUSH2 0x58 JUMPI DUP1 PUSH4 0x8DA5CB5B EQ PUSH2 0x229 JUMPI DUP1 PUSH4 0xB2D5AE44 EQ PUSH2 0x253 JUMPI DUP1 PUSH4 0xB2FA1C9E EQ PUSH2 0x25D JUMPI DUP1 PUSH4 0xD7BB99BA EQ PUSH2 0x287 JUMPI PUSH2 0xC1 JUMP JUMPDEST DUP1 PUSH4 0x42E94C90 EQ PUSH2 0x1AD JUMPI DUP1 PUSH4 0x69EF5E0A EQ PUSH2 0x1E9 JUMPI DUP1 PUSH4 0x7C654303 EQ PUSH2 0x1FF JUMPI PUSH2 0xC1 JUMP JUMPDEST DUP1 PUSH4 0xB97BC86 EQ PUSH2 0xC5 JUMPI DUP1 PUSH4 0xDCF4B8F EQ PUSH2 0xEF JUMPI DUP1 PUSH4 0x12065FE0 EQ PUSH2 0x119 JUMPI DUP1 PUSH4 0x29DCB0CF EQ PUSH2 0x143 JUMPI DUP1 PUSH4 0x3CCFD60B EQ PUSH2 0x16D JUMPI DUP1 PUSH4 0x40193883 EQ PUSH2 0x183 JUMPI JUMPDEST PUSH0 DUP1 REVERT JUMPDEST CALLVALUE DUP1 ISZERO PUSH2 0xD0 JUMPI PUSH0 DUP1 REVERT JUMPDEST POP PUSH2 0xD9 PUSH2 0x291 JUMP JUMPDEST PUSH1 0x40 MLOAD PUSH2 0xE6 SWAP2 SWAP1 PUSH2 0x80A JUMP JUMPDEST PUSH1 0x40 MLOAD DUP1 SWAP2 SUB SWAP1 RETURN JUMPDEST CALLVALUE DUP1 ISZERO PUSH2 0xFA JUMPI PUSH0 DUP1 REVERT JUMPDEST POP PUSH2 0x103 PUSH2 0x297 JUMP JUMPDEST PUSH1 0x40 MLOAD PUSH2 0x110 SWAP2 SWAP1 PUSH2 0x80A JUMP JUMPDEST PUSH1 0x40 MLOAD DUP1 SWAP2 SUB SWAP1 RETURN JUMPDEST CALLVALUE DUP1 ISZERO PUSH2 0x124 JUMPI PUSH0 DUP1 REVERT JUMPDEST POP PUSH2 0x12D PUSH2 0x29D JUMP JUMPDEST PUSH1 0x40 MLOAD PUSH2 0x13A SWAP2 SWAP1 PUSH2 0x80A JUMP JUMPDEST PUSH1 0x40 MLOAD DUP1 SWAP2 SUB SWAP1 RETURN JUMPDEST CALLVALUE DUP1 ISZERO PUSH2 0x14E JUMPI PUSH0 DUP1 REVERT JUMPDEST POP PUSH2 0x157 PUSH2 0x2A4 JUMP JUMPDEST PUSH1 0x40 MLOAD PUSH2 0x164 SWAP2 SWAP1 PUSH2 0x80A JUMP JUMPDEST PUSH1 0x40 MLOAD DUP1 SWAP2 SUB SWAP1 RETURN JUMPDEST CALLVALUE DUP1 ISZERO PUSH2 0x178 JUMPI PUSH0 DUP1 REVERT JUMPDEST POP PUSH2 0x181 PUSH2 0x2AA JUMP JUMPDEST STOP JUMPDEST CALLVALUE DUP1 ISZERO PUSH2 0x18E JUMPI PUSH0 DUP1 REVERT JUMPDEST POP PUSH2 0x197 PUSH2 0x44D JUMP JUMPDEST PUSH1 0x40 MLOAD PUSH2 0x1A4 SWAP2 SWAP1 PUSH2 0x80A JUMP JUMPDEST PUSH1 0x40 MLOAD DUP1 SWAP2 SUB SWAP1 RETURN JUMPDEST CALLVALUE DUP1 ISZERO PUSH2 0x1B8 JUMPI PUSH0 DUP1 REVERT JUMPDEST POP PUSH2 0x1D3 PUSH1 0x4 DUP1 CALLDATASIZE SUB DUP2 ADD SWAP1 PUSH2 0x1CE SWAP2 SWAP1 PUSH2 0x881 JUMP JUMPDEST PUSH2 0x453 JUMP JUMPDEST PUSH1 0x40 MLOAD PUSH2 0x1E0 SWAP2 SWAP1 PUSH2 0x80A JUMP JUMPDEST PUSH1 0x40 MLOAD DUP1 SWAP2 SUB SWAP1 RETURN JUMPDEST CALLVALUE DUP1 ISZERO PUSH2 0x1F4 JUMPI PUSH0 DUP1 REVERT JUMPDEST POP PUSH2 0x1FD PUSH2 0x468 JUMP JUMPDEST STOP JUMPDEST CALLVALUE DUP1 ISZERO PUSH2 0x20A JUMPI PUSH0 DUP1 REVERT JUMPDEST POP PUSH2 0x213 PUSH2 0x485 JUMP JUMPDEST PUSH1 0x40 MLOAD PUSH2 0x220 SWAP2 SWAP1 PUSH2 0x8C6 JUMP JUMPDEST PUSH1 0x40 MLOAD DUP1 SWAP2 SUB SWAP1 RETURN JUMPDEST CALLVALUE DUP1 ISZERO PUSH2 0x234 JUMPI PUSH0 DUP1 REVERT JUMPDEST POP PUSH2 0x23D PUSH2 0x497 JUMP JUMPDEST PUSH1 0x40 MLOAD PUSH2 0x24A SWAP2 SWAP1 PUSH2 0x8EE JUMP JUMPDEST PUSH1 0x40 MLOAD DUP1 SWAP2 SUB SWAP1 RETURN JUMPDEST PUSH2 0x25B PUSH2 0x4BA JUMP JUMPDEST STOP JUMPDEST CALLVALUE DUP1 ISZERO PUSH2 0x268 JUMPI PUSH0 DUP1 REVERT JUMPDEST POP PUSH2 0x271 PUSH2 0x6B1 JUMP JUMPDEST PUSH1 0x40 MLOAD PUSH2 0x27E SWAP2 SWAP1 PUSH2 0x8C6 JUMP JUMPDEST PUSH1 0x40 MLOAD DUP1 SWAP2 SUB SWAP1 RETURN JUMPDEST PUSH2 0x28F PUSH2 0x6C4 JUMP JUMPDEST STOP JUMPDEST PUSH1 0x2 SLOAD DUP2 JUMP JUMPDEST PUSH1 0x5 SLOAD DUP2 JUMP JUMPDEST PUSH0 SELFBALANCE SWAP1 POP SWAP1 JUMP JUMPDEST PUSH1 0x1 SLOAD DUP2 JUMP JUMPDEST CALLER PUSH20 0xFFFFFFFFFFFFFFFFFFFFFFFFFFFFFFFFFFFFFFFF AND PUSH0 DUP1 SLOAD SWAP1 PUSH2 0x100 EXP SWAP1 DIV PUSH20 0xFFFFFFFFFFFFFFFFFFFFFFFFFFFFFFFFFFFFFFFF AND PUSH20 0xFFFFFFFFFFFFFFFFFFFFFFFFFFFFFFFFFFFFFFFF AND EQ PUSH2 0x337 JUMPI PUSH1 0x40 MLOAD PUSH32 0x8C379A000000000000000000000000000000000000000000000000000000000 DUP2 MSTORE PUSH1 0x4 ADD PUSH2 0x32E SWAP1 PUSH2 0x987 JUMP JUMPDEST PUSH1 0x40 MLOAD DUP1 SWAP2 SUB SWAP1 REVERT JUMPDEST PUSH1 0x2 SLOAD PUSH1 0x1 SLOAD GT PUSH2 0x37D JUMPI PUSH1 0x40 MLOAD PUSH32 0x8C379A000000000000000000000000000000000000000000000000000000000 DUP2 MSTORE PUSH1 0x4 ADD PUSH2 0x374 SWAP1 PUSH2 0x9EF JUMP JUMPDEST PUSH1 0x40 MLOAD DUP1 SWAP2 SUB SWAP1 REVERT JUMPDEST PUSH1 0x3 PUSH1 0x1 SWAP1 SLOAD SWAP1 PUSH2 0x100 EXP SWAP1 DIV PUSH1 0xFF AND ISZERO PUSH2 0x3CD JUMPI PUSH1 0x40 MLOAD PUSH32 0x8C379A000000000000000000000000000000000000000000000000000000000 DUP2 MSTORE PUSH1 0x4 ADD PUSH2 0x3C4 SWAP1 PUSH2 0xA57 JUMP JUMPDEST PUSH1 0x40 MLOAD DUP1 SWAP2 SUB SWAP1 REVERT JUMPDEST PUSH1 0x1 PUSH1 0x3 PUSH1 0x1 PUSH2 0x100 EXP DUP2 SLOAD DUP2 PUSH1 0xFF MUL NOT AND SWAP1 DUP4 ISZERO ISZERO MUL OR SWAP1 SSTORE POP PUSH0 DUP1 SLOAD SWAP1 PUSH2 0x100 EXP SWAP1 DIV PUSH20 0xFFFFFFFFFFFFFFFFFFFFFFFFFFFFFFFFFFFFFFFF AND PUSH20 0xFFFFFFFFFFFFFFFFFFFFFFFFFFFFFFFFFFFFFFFF AND PUSH2 0x8FC SELFBALANCE SWAP1 DUP2 ISZERO MUL SWAP1 PUSH1 0x40 MLOAD PUSH0 PUSH1 0x40 MLOAD DUP1 DUP4 SUB DUP2 DUP6 DUP9 DUP9 CALL SWAP4 POP POP POP POP ISZERO DUP1 ISZERO PUSH2 0x44A JUMPI RETURNDATASIZE PUSH0 DUP1 RETURNDATACOPY RETURNDATASIZE PUSH0 REVERT JUMPDEST POP JUMP JUMPDEST PUSH1 0x6 SLOAD DUP2 JUMP JUMPDEST PUSH1 0x4 PUSH1 0x20 MSTORE DUP1 PUSH0 MSTORE PUSH1 0x40 PUSH0 KECCAK256 PUSH0 SWAP2 POP SWAP1 POP SLOAD DUP2 JUMP JUMPDEST PUSH3 0x2A300 PUSH1 0x1 PUSH0 DUP3 DUP3 SLOAD PUSH2 0x47C SWAP2 SWAP1 PUSH2 0xAA2 JUMP JUMPDEST SWAP3 POP POP DUP2 SWAP1 SSTORE POP JUMP JUMPDEST PUSH1 0x3 PUSH0 SWAP1 SLOAD SWAP1 PUSH2 0x100 EXP SWAP1 DIV PUSH1 0xFF AND DUP2 JUMP JUMPDEST PUSH0 DUP1 SLOAD SWAP1 PUSH2 0x100 EXP SWAP1 DIV PUSH20 0xFFFFFFFFFFFFFFFFFFFFFFFFFFFFFFFFFFFFFFFF AND DUP2 JUMP JUMPDEST PUSH1 0x1 SLOAD PUSH1 0x2 SLOAD LT ISZERO PUSH2 0x501 JUMPI PUSH1 0x40 MLOAD PUSH32 0x8C379A000000000000000000000000000000000000000000000000000000000 DUP2 MSTORE PUSH1 0x4 ADD PUSH2 0x4F8 SWAP1 PUSH2 0xB1F JUMP JUMPDEST PUSH1 0x40 MLOAD DUP1 SWAP2 SUB SWAP1 REVERT JUMPDEST PUSH1 0x3 PUSH0 SWAP1 SLOAD SWAP1 PUSH2 0x100 EXP SWAP1 DIV PUSH1 0xFF AND ISZERO PUSH2 0x550 JUMPI PUSH1 0x40 MLOAD PUSH32 0x8C379A000000000000000000000000000000000000000000000000000000000 DUP2 MSTORE PUSH1 0x4 ADD PUSH2 0x547 SWAP1 PUSH2 0xB87 JUMP JUMPDEST PUSH1 0x40 MLOAD DUP1 SWAP2 SUB SWAP1 REVERT JUMPDEST PUSH0 PUSH1 0x4 PUSH0 CALLER PUSH20 0xFFFFFFFFFFFFFFFFFFFFFFFFFFFFFFFFFFFFFFFF AND PUSH20 0xFFFFFFFFFFFFFFFFFFFFFFFFFFFFFFFFFFFFFFFF AND DUP2 MSTORE PUSH1 0x20 ADD SWAP1 DUP2 MSTORE PUSH1 0x20 ADD PUSH0 KECCAK256 SLOAD GT PUSH2 0x5CF JUMPI PUSH1 0x40 MLOAD PUSH32 0x8C379A000000000000000000000000000000000000000000000000000000000 DUP2 MSTORE PUSH1 0x4 ADD PUSH2 0x5C6 SWAP1 PUSH2 0xBEF JUMP JUMPDEST PUSH1 0x40 MLOAD DUP1 SWAP2 SUB SWAP1 REVERT JUMPDEST PUSH0 PUSH1 0x4 PUSH0 CALLER PUSH20 0xFFFFFFFFFFFFFFFFFFFFFFFFFFFFFFFFFFFFFFFF AND PUSH20 0xFFFFFFFFFFFFFFFFFFFFFFFFFFFFFFFFFFFFFFFF AND DUP2 MSTORE PUSH1 0x20 ADD SWAP1 DUP2 MSTORE PUSH1 0x20 ADD PUSH0 KECCAK256 SLOAD SWAP1 POP PUSH0 PUSH1 0x4 PUSH0 CALLER PUSH20 0xFFFFFFFFFFFFFFFFFFFFFFFFFFFFFFFFFFFFFFFF AND PUSH20 0xFFFFFFFFFFFFFFFFFFFFFFFFFFFFFFFFFFFFFFFF AND DUP2 MSTORE PUSH1 0x20 ADD SWAP1 DUP2 MSTORE PUSH1 0x20 ADD PUSH0 KECCAK256 DUP2 SWAP1 SSTORE POP DUP1 PUSH1 0x5 PUSH0 DUP3 DUP3 SLOAD PUSH2 0x663 SWAP2 SWAP1 PUSH2 0xC0D JUMP JUMPDEST SWAP3 POP POP DUP2 SWAP1 SSTORE POP CALLER PUSH20 0xFFFFFFFFFFFFFFFFFFFFFFFFFFFFFFFFFFFFFFFF AND PUSH2 0x8FC DUP3 SWAP1 DUP2 ISZERO MUL SWAP1 PUSH1 0x40 MLOAD PUSH0 PUSH1 0x40 MLOAD DUP1 DUP4 SUB DUP2 DUP6 DUP9 DUP9 CALL SWAP4 POP POP POP POP ISZERO DUP1 ISZERO PUSH2 0x6AD JUMPI RETURNDATASIZE PUSH0 DUP1 RETURNDATACOPY RETURNDATASIZE PUSH0 REVERT JUMPDEST POP POP JUMP JUMPDEST PUSH1 0x3 PUSH1 0x1 SWAP1 SLOAD SWAP1 PUSH2 0x100 EXP SWAP1 DIV PUSH1 0xFF AND DUP2 JUMP JUMPDEST PUSH1 0x1 SLOAD PUSH1 0x2 SLOAD LT PUSH2 0x70A JUMPI PUSH1 0x40 MLOAD PUSH32 0x8C379A000000000000000000000000000000000000000000000000000000000 DUP2 MSTORE PUSH1 0x4 ADD PUSH2 0x701 SWAP1 PUSH2 0xC8A JUMP JUMPDEST PUSH1 0x40 MLOAD DUP1 SWAP2 SUB SWAP1 REVERT JUMPDEST PUSH1 0x3 PUSH1 0x1 SWAP1 SLOAD SWAP1 PUSH2 0x100 EXP SWAP1 DIV PUSH1 0xFF AND ISZERO PUSH2 0x75A JUMPI PUSH1 0x40 MLOAD PUSH32 0x8C379A000000000000000000000000000000000000000000000000000000000 DUP2 MSTORE PUSH1 0x4 ADD PUSH2 0x751 SWAP1 PUSH2 0xA57 JUMP JUMPDEST PUSH1 0x40 MLOAD DUP1 SWAP2 SUB SWAP1 REVERT JUMPDEST PUSH0 CALLVALUE SWAP1 POP DUP1 PUSH1 0x4 PUSH0 CALLER PUSH20 0xFFFFFFFFFFFFFFFFFFFFFFFFFFFFFFFFFFFFFFFF AND PUSH20 0xFFFFFFFFFFFFFFFFFFFFFFFFFFFFFFFFFFFFFFFF AND DUP2 MSTORE PUSH1 0x20 ADD SWAP1 DUP2 MSTORE PUSH1 0x20 ADD PUSH0 KECCAK256 PUSH0 DUP3 DUP3 SLOAD PUSH2 0x7AA SWAP2 SWAP1 PUSH2 0xAA2 JUMP JUMPDEST SWAP3 POP POP DUP2 SWAP1 SSTORE POP DUP1 PUSH1 0x5 PUSH0 DUP3 DUP3 SLOAD PUSH2 0x7C2 SWAP2 SWAP1 PUSH2 0xAA2 JUMP JUMPDEST SWAP3 POP POP DUP2 SWAP1 SSTORE POP PUSH1 0x6 SLOAD PUSH1 0x5 SLOAD LT PUSH2 0x7EF JUMPI PUSH1 0x1 PUSH1 0x3 PUSH0 PUSH2 0x100 EXP DUP2 SLOAD DUP2 PUSH1 0xFF MUL NOT AND SWAP1 DUP4 ISZERO ISZERO MUL OR SWAP1 SSTORE POP JUMPDEST POP JUMP JUMPDEST PUSH0 DUP2 SWAP1 POP SWAP2 SWAP1 POP JUMP JUMPDEST PUSH2 0x804 DUP2 PUSH2 0x7F2 JUMP JUMPDEST DUP3 MSTORE POP POP JUMP JUMPDEST PUSH0 PUSH1 0x20 DUP3 ADD SWAP1 POP PUSH2 0x81D PUSH0 DUP4 ADD DUP5 PUSH2 0x7FB JUMP JUMPDEST SWAP3 SWAP2 POP POP JUMP JUMPDEST PUSH0 DUP1 REVERT JUMPDEST PUSH0 PUSH20 0xFFFFFFFFFFFFFFFFFFFFFFFFFFFFFFFFFFFFFFFF DUP3 AND SWAP1 POP SWAP2 SWAP1 POP JUMP JUMPDEST PUSH0 PUSH2 0x850 DUP3 PUSH2 0x827 JUMP JUMPDEST SWAP1 POP SWAP2 SWAP1 POP JUMP JUMPDEST PUSH2 0x860 DUP2 PUSH2 0x846 JUMP JUMPDEST DUP2 EQ PUSH2 0x86A JUMPI PUSH0 DUP1 REVERT JUMPDEST POP JUMP JUMPDEST PUSH0 DUP2 CALLDATALOAD SWAP1 POP PUSH2 0x87B DUP2 PUSH2 0x857 JUMP JUMPDEST SWAP3 SWAP2 POP POP JUMP JUMPDEST PUSH0 PUSH1 0x20 DUP3 DUP5 SUB SLT ISZERO PUSH2 0x896 JUMPI PUSH2 0x895 PUSH2 0x823 JUMP JUMPDEST JUMPDEST PUSH0 PUSH2 0x8A3 DUP5 DUP3 DUP6 ADD PUSH2 0x86D JUMP JUMPDEST SWAP2 POP POP SWAP3 SWAP2 POP POP JUMP JUMPDEST PUSH0 DUP2 ISZERO ISZERO SWAP1 POP SWAP2 SWAP1 POP JUMP JUMPDEST PUSH2 0x8C0 DUP2 PUSH2 0x8AC JUMP JUMPDEST DUP3 MSTORE POP POP JUMP JUMPDEST PUSH0 PUSH1 0x20 DUP3 ADD SWAP1 POP PUSH2 0x8D9 PUSH0 DUP4 ADD DUP5 PUSH2 0x8B7 JUMP JUMPDEST SWAP3 SWAP2 POP POP JUMP JUMPDEST PUSH2 0x8E8 DUP2 PUSH2 0x846 JUMP JUMPDEST DUP3 MSTORE POP POP JUMP JUMPDEST PUSH0 PUSH1 0x20 DUP3 ADD SWAP1 POP PUSH2 0x901 PUSH0 DUP4 ADD DUP5 PUSH2 0x8DF JUMP JUMPDEST SWAP3 SWAP2 POP POP JUMP JUMPDEST PUSH0 DUP3 DUP3 MSTORE PUSH1 0x20 DUP3 ADD SWAP1 POP SWAP3 SWAP2 POP POP JUMP JUMPDEST PUSH32 0x6F6E6C79206F776E65722063616E20706572666F726D20746869732061637469 PUSH0 DUP3 ADD MSTORE PUSH32 0x6F6E2E0000000000000000000000000000000000000000000000000000000000 PUSH1 0x20 DUP3 ADD MSTORE POP JUMP JUMPDEST PUSH0 PUSH2 0x971 PUSH1 0x23 DUP4 PUSH2 0x907 JUMP JUMPDEST SWAP2 POP PUSH2 0x97C DUP3 PUSH2 0x917 JUMP JUMPDEST PUSH1 0x40 DUP3 ADD SWAP1 POP SWAP2 SWAP1 POP JUMP JUMPDEST PUSH0 PUSH1 0x20 DUP3 ADD SWAP1 POP DUP2 DUP2 SUB PUSH0 DUP4 ADD MSTORE PUSH2 0x99E DUP2 PUSH2 0x965 JUMP JUMPDEST SWAP1 POP SWAP2 SWAP1 POP JUMP JUMPDEST PUSH32 0x646561646C696E65206E6F74206F766572000000000000000000000000000000 PUSH0 DUP3 ADD MSTORE POP JUMP JUMPDEST PUSH0 PUSH2 0x9D9 PUSH1 0x11 DUP4 PUSH2 0x907 JUMP JUMPDEST SWAP2 POP PUSH2 0x9E4 DUP3 PUSH2 0x9A5 JUMP JUMPDEST PUSH1 0x20 DUP3 ADD SWAP1 POP SWAP2 SWAP1 POP JUMP JUMPDEST PUSH0 PUSH1 0x20 DUP3 ADD SWAP1 POP DUP2 DUP2 SUB PUSH0 DUP4 ADD MSTORE PUSH2 0xA06 DUP2 PUSH2 0x9CD JUMP JUMPDEST SWAP1 POP SWAP2 SWAP1 POP JUMP JUMPDEST PUSH32 0x63726F776466756E64696E67206973206F766572000000000000000000000000 PUSH0 DUP3 ADD MSTORE POP JUMP JUMPDEST PUSH0 PUSH2 0xA41 PUSH1 0x14 DUP4 PUSH2 0x907 JUMP JUMPDEST SWAP2 POP PUSH2 0xA4C DUP3 PUSH2 0xA0D JUMP JUMPDEST PUSH1 0x20 DUP3 ADD SWAP1 POP SWAP2 SWAP1 POP JUMP JUMPDEST PUSH0 PUSH1 0x20 DUP3 ADD SWAP1 POP DUP2 DUP2 SUB PUSH0 DUP4 ADD MSTORE PUSH2 0xA6E DUP2 PUSH2 0xA35 JUMP JUMPDEST SWAP1 POP SWAP2 SWAP1 POP JUMP JUMPDEST PUSH32 0x4E487B7100000000000000000000000000000000000000000000000000000000 PUSH0 MSTORE PUSH1 0x11 PUSH1 0x4 MSTORE PUSH1 0x24 PUSH0 REVERT JUMPDEST PUSH0 PUSH2 0xAAC DUP3 PUSH2 0x7F2 JUMP JUMPDEST SWAP2 POP PUSH2 0xAB7 DUP4 PUSH2 0x7F2 JUMP JUMPDEST SWAP3 POP DUP3 DUP3 ADD SWAP1 POP DUP1 DUP3 GT ISZERO PUSH2 0xACF JUMPI PUSH2 0xACE PUSH2 0xA75 JUMP JUMPDEST JUMPDEST SWAP3 SWAP2 POP POP JUMP JUMPDEST PUSH32 0x63616E27742067657420726566756E6420616674657220646561646C696E6500 PUSH0 DUP3 ADD MSTORE POP JUMP JUMPDEST PUSH0 PUSH2 0xB09 PUSH1 0x1F DUP4 PUSH2 0x907 JUMP JUMPDEST SWAP2 POP PUSH2 0xB14 DUP3 PUSH2 0xAD5 JUMP JUMPDEST PUSH1 0x20 DUP3 ADD SWAP1 POP SWAP2 SWAP1 POP JUMP JUMPDEST PUSH0 PUSH1 0x20 DUP3 ADD SWAP1 POP DUP2 DUP2 SUB PUSH0 DUP4 ADD MSTORE PUSH2 0xB36 DUP2 PUSH2 0xAFD JUMP JUMPDEST SWAP1 POP SWAP2 SWAP1 POP JUMP JUMPDEST PUSH32 0x676F616C20697320726561636865640000000000000000000000000000000000 PUSH0 DUP3 ADD MSTORE POP JUMP JUMPDEST PUSH0 PUSH2 0xB71 PUSH1 0xF DUP4 PUSH2 0x907 JUMP JUMPDEST SWAP2 POP PUSH2 0xB7C DUP3 PUSH2 0xB3D JUMP JUMPDEST PUSH1 0x20 DUP3 ADD SWAP1 POP SWAP2 SWAP1 POP JUMP JUMPDEST PUSH0 PUSH1 0x20 DUP3 ADD SWAP1 POP DUP2 DUP2 SUB PUSH0 DUP4 ADD MSTORE PUSH2 0xB9E DUP2 PUSH2 0xB65 JUMP JUMPDEST SWAP1 POP SWAP2 SWAP1 POP JUMP JUMPDEST PUSH32 0x6E6F20636F6E747269627574696F6E20746F20726566756E6400000000000000 PUSH0 DUP3 ADD MSTORE POP JUMP JUMPDEST PUSH0 PUSH2 0xBD9 PUSH1 0x19 DUP4 PUSH2 0x907 JUMP JUMPDEST SWAP2 POP PUSH2 0xBE4 DUP3 PUSH2 0xBA5 JUMP JUMPDEST PUSH1 0x20 DUP3 ADD SWAP1 POP SWAP2 SWAP1 POP JUMP JUMPDEST PUSH0 PUSH1 0x20 DUP3 ADD SWAP1 POP DUP2 DUP2 SUB PUSH0 DUP4 ADD MSTORE PUSH2 0xC06 DUP2 PUSH2 0xBCD JUMP JUMPDEST SWAP1 POP SWAP2 SWAP1 POP JUMP JUMPDEST PUSH0 PUSH2 0xC17 DUP3 PUSH2 0x7F2 JUMP JUMPDEST SWAP2 POP PUSH2 0xC22 DUP4 PUSH2 0x7F2 JUMP JUMPDEST SWAP3 POP DUP3 DUP3 SUB SWAP1 POP DUP2 DUP2 GT ISZERO PUSH2 0xC3A JUMPI PUSH2 0xC39 PUSH2 0xA75 JUMP JUMPDEST JUMPDEST SWAP3 SWAP2 POP POP JUMP JUMPDEST PUSH32 0x646561646C696E65207265616368656400000000000000000000000000000000 PUSH0 DUP3 ADD MSTORE POP JUMP JUMPDEST PUSH0 PUSH2 0xC74 PUSH1 0x10 DUP4 PUSH2 0x907 JUMP JUMPDEST SWAP2 POP PUSH2 0xC7F DUP3 PUSH2 0xC40 JUMP JUMPDEST PUSH1 0x20 DUP3 ADD SWAP1 POP SWAP2 SWAP1 POP JUMP JUMPDEST PUSH0 PUSH1 0x20 DUP3 ADD SWAP1 POP DUP2 DUP2 SUB PUSH0 DUP4 ADD MSTORE PUSH2 0xCA1 DUP2 PUSH2 0xC68 JUMP JUMPDEST SWAP1 POP SWAP2 SWAP1 POP JUMP INVALID LOG2 PUSH5 0x6970667358 0x22 SLT KECCAK256 0xBE 0xE4 PUSH20 0x301307A526D583E269162B91DD413713DB912FF3 DUP3 PUSH27 0x403AB3745CE49C64736F6C634300081A0033000000000000000000 "
				},
				"gasEstimates": {
					"creation": {
						"codeDepositCost": "658800",
						"executionCost": "infinite",
						"totalCost": "infinite"
					},
					"external": {
						"contribute()": "infinite",
						"contributions(address)": "2825",
						"deadline()": "2492",
						"extendDeadline()": "infinite",
						"getBalance()": "379",
						"getRefund()": "infinite",
						"goal()": "2536",
						"isComplete()": "2583",
						"isFunded()": "2533",
						"owner()": "2527",
						"startDate()": "2426",
						"totalContribution()": "2448",
						"withdraw()": "infinite"
					}
				},
				"methodIdentifiers": {
					"contribute()": "d7bb99ba",
					"contributions(address)": "42e94c90",
					"deadline()": "29dcb0cf",
					"extendDeadline()": "69ef5e0a",
					"getBalance()": "12065fe0",
					"getRefund()": "b2d5ae44",
					"goal()": "40193883",
					"isComplete()": "b2fa1c9e",
					"isFunded()": "7c654303",
					"owner()": "8da5cb5b",
					"startDate()": "0b97bc86",
					"totalContribution()": "0dcf4b8f",
					"withdraw()": "3ccfd60b"
				}
			},
			"storageLayout": {
				"storage": [
					{
						"astId": 3,
						"contract": "Learning Pth/CrowdFundingP.sol:CrowdFunding",
						"label": "owner",
						"offset": 0,
						"slot": "0",
						"type": "t_address"
					},
					{
						"astId": 5,
						"contract": "Learning Pth/CrowdFundingP.sol:CrowdFunding",
						"label": "deadline",
						"offset": 0,
						"slot": "1",
						"type": "t_uint256"
					},
					{
						"astId": 7,
						"contract": "Learning Pth/CrowdFundingP.sol:CrowdFunding",
						"label": "startDate",
						"offset": 0,
						"slot": "2",
						"type": "t_uint256"
					},
					{
						"astId": 9,
						"contract": "Learning Pth/CrowdFundingP.sol:CrowdFunding",
						"label": "isFunded",
						"offset": 0,
						"slot": "3",
						"type": "t_bool"
					},
					{
						"astId": 11,
						"contract": "Learning Pth/CrowdFundingP.sol:CrowdFunding",
						"label": "isComplete",
						"offset": 1,
						"slot": "3",
						"type": "t_bool"
					},
					{
						"astId": 15,
						"contract": "Learning Pth/CrowdFundingP.sol:CrowdFunding",
						"label": "contributions",
						"offset": 0,
						"slot": "4",
						"type": "t_mapping(t_address,t_uint256)"
					},
					{
						"astId": 17,
						"contract": "Learning Pth/CrowdFundingP.sol:CrowdFunding",
						"label": "totalContribution",
						"offset": 0,
						"slot": "5",
						"type": "t_uint256"
					},
					{
						"astId": 19,
						"contract": "Learning Pth/CrowdFundingP.sol:CrowdFunding",
						"label": "goal",
						"offset": 0,
						"slot": "6",
						"type": "t_uint256"
					}
				],
				"types": {
					"t_address": {
						"encoding": "inplace",
						"label": "address",
						"numberOfBytes": "20"
					},
					"t_bool": {
						"encoding": "inplace",
						"label": "bool",
						"numberOfBytes": "1"
					},
					"t_mapping(t_address,t_uint256)": {
						"encoding": "mapping",
						"key": "t_address",
						"label": "mapping(address => uint256)",
						"numberOfBytes": "32",
						"value": "t_uint256"
					},
					"t_uint256": {
						"encoding": "inplace",
						"label": "uint256",
						"numberOfBytes": "32"
					}
				}
			},
			"userdoc": {
				"kind": "user",
				"methods": {},
				"version": 1
			}
		}
	}
}