{
	"Learning Pth/EventEx.sol": {
		"Event_": {
			"abi": [
				{
					"anonymous": false,
					"inputs": [
						{
							"indexed": true,
							"internalType": "address",
							"name": "sender",
							"type": "address"
						},
						{
							"indexed": true,
							"internalType": "address",
							"name": "recipient",
							"type": "address"
						},
						{
							"indexed": false,
							"internalType": "uint256",
							"name": "amount",
							"type": "uint256"
						},
						{
							"indexed": false,
							"internalType": "string",
							"name": "message",
							"type": "string"
						}
					],
					"name": "Log",
					"type": "event"
				},
				{
					"anonymous": false,
					"inputs": [],
					"name": "NewLog",
					"type": "event"
				},
				{
					"inputs": [],
					"name": "test_",
					"outputs": [],
					"stateMutability": "nonpayable",
					"type": "function"
				}
			],
			"devdoc": {
				"kind": "dev",
				"methods": {},
				"version": 1
			},
			"evm": {
				"assembly": "    /* \"Learning Pth/EventEx.sol\":61:328  contract Event_ {... */\n  mstore(0x40, 0x80)\n  callvalue\n  dup1\n  iszero\n  tag_1\n  jumpi\n  0x00\n  dup1\n  revert\ntag_1:\n  pop\n  dataSize(sub_0)\n  dup1\n  dataOffset(sub_0)\n  0x00\n  codecopy\n  0x00\n  return\nstop\n\nsub_0: assembly {\n        /* \"Learning Pth/EventEx.sol\":61:328  contract Event_ {... */\n      mstore(0x40, 0x80)\n      callvalue\n      dup1\n      iszero\n      tag_1\n      jumpi\n      0x00\n      dup1\n      revert\n    tag_1:\n      pop\n      jumpi(tag_2, lt(calldatasize, 0x04))\n      shr(0xe0, calldataload(0x00))\n      dup1\n      0x643898cd\n      eq\n      tag_3\n      jumpi\n    tag_2:\n      0x00\n      dup1\n      revert\n        /* \"Learning Pth/EventEx.sol\":211:325  function test_() public {... */\n    tag_3:\n      tag_4\n      tag_5\n      jump\t// in\n    tag_4:\n      stop\n    tag_5:\n        /* \"Learning Pth/EventEx.sol\":275:276  0 */\n      0x00\n        /* \"Learning Pth/EventEx.sol\":251:291  Log(msg.sender, address(0), 2000, \"BTC\") */\n      0xffffffffffffffffffffffffffffffffffffffff\n      and\n        /* \"Learning Pth/EventEx.sol\":255:265  msg.sender */\n      caller\n        /* \"Learning Pth/EventEx.sol\":251:291  Log(msg.sender, address(0), 2000, \"BTC\") */\n      0xffffffffffffffffffffffffffffffffffffffff\n      and\n      0x240344918ab2e8be9aa11d18cab81545b365f0033a413133b8122f4f0cbbc822\n        /* \"Learning Pth/EventEx.sol\":279:283  2000 */\n      0x07d0\n        /* \"Learning Pth/EventEx.sol\":251:291  Log(msg.sender, address(0), 2000, \"BTC\") */\n      mload(0x40)\n      tag_7\n      swap2\n      swap1\n      tag_8\n      jump\t// in\n    tag_7:\n      mload(0x40)\n      dup1\n      swap2\n      sub\n      swap1\n      log3\n        /* \"Learning Pth/EventEx.sol\":309:317  NewLog() */\n      0xa08103b0e6cb1e282a4df849625b11bb7f5947f8ed4719c49eb5ba81eb781c42\n      mload(0x40)\n      mload(0x40)\n      dup1\n      swap2\n      sub\n      swap1\n      log1\n        /* \"Learning Pth/EventEx.sol\":211:325  function test_() public {... */\n      jump\t// out\n        /* \"#utility.yul\":7:95   */\n    tag_9:\n        /* \"#utility.yul\":55:62   */\n      0x00\n        /* \"#utility.yul\":84:89   */\n      dup2\n        /* \"#utility.yul\":73:89   */\n      swap1\n      pop\n        /* \"#utility.yul\":7:95   */\n      swap2\n      swap1\n      pop\n      jump\t// out\n        /* \"#utility.yul\":101:178   */\n    tag_10:\n        /* \"#utility.yul\":138:145   */\n      0x00\n        /* \"#utility.yul\":167:172   */\n      dup2\n        /* \"#utility.yul\":156:172   */\n      swap1\n      pop\n        /* \"#utility.yul\":101:178   */\n      swap2\n      swap1\n      pop\n      jump\t// out\n        /* \"#utility.yul\":184:244   */\n    tag_11:\n        /* \"#utility.yul\":212:215   */\n      0x00\n        /* \"#utility.yul\":233:238   */\n      dup2\n        /* \"#utility.yul\":226:238   */\n      swap1\n      pop\n        /* \"#utility.yul\":184:244   */\n      swap2\n      swap1\n      pop\n      jump\t// out\n        /* \"#utility.yul\":250:414   */\n    tag_12:\n        /* \"#utility.yul\":311:320   */\n      0x00\n        /* \"#utility.yul\":344:408   */\n      tag_22\n        /* \"#utility.yul\":362:407   */\n      tag_23\n        /* \"#utility.yul\":371:406   */\n      tag_24\n        /* \"#utility.yul\":400:405   */\n      dup5\n        /* \"#utility.yul\":371:406   */\n      tag_9\n      jump\t// in\n    tag_24:\n        /* \"#utility.yul\":362:407   */\n      tag_11\n      jump\t// in\n    tag_23:\n        /* \"#utility.yul\":344:408   */\n      tag_10\n      jump\t// in\n    tag_22:\n        /* \"#utility.yul\":331:408   */\n      swap1\n      pop\n        /* \"#utility.yul\":250:414   */\n      swap2\n      swap1\n      pop\n      jump\t// out\n        /* \"#utility.yul\":420:573   */\n    tag_13:\n        /* \"#utility.yul\":518:566   */\n      tag_26\n        /* \"#utility.yul\":560:565   */\n      dup2\n        /* \"#utility.yul\":518:566   */\n      tag_12\n      jump\t// in\n    tag_26:\n        /* \"#utility.yul\":513:516   */\n      dup3\n        /* \"#utility.yul\":506:567   */\n      mstore\n        /* \"#utility.yul\":420:573   */\n      pop\n      pop\n      jump\t// out\n        /* \"#utility.yul\":579:748   */\n    tag_14:\n        /* \"#utility.yul\":663:674   */\n      0x00\n        /* \"#utility.yul\":697:703   */\n      dup3\n        /* \"#utility.yul\":692:695   */\n      dup3\n        /* \"#utility.yul\":685:704   */\n      mstore\n        /* \"#utility.yul\":737:741   */\n      0x20\n        /* \"#utility.yul\":732:735   */\n      dup3\n        /* \"#utility.yul\":728:742   */\n      add\n        /* \"#utility.yul\":713:742   */\n      swap1\n      pop\n        /* \"#utility.yul\":579:748   */\n      swap3\n      swap2\n      pop\n      pop\n      jump\t// out\n        /* \"#utility.yul\":754:907   */\n    tag_15:\n        /* \"#utility.yul\":894:899   */\n      0x4254430000000000000000000000000000000000000000000000000000000000\n        /* \"#utility.yul\":890:891   */\n      0x00\n        /* \"#utility.yul\":882:888   */\n      dup3\n        /* \"#utility.yul\":878:892   */\n      add\n        /* \"#utility.yul\":871:900   */\n      mstore\n        /* \"#utility.yul\":754:907   */\n      pop\n      jump\t// out\n        /* \"#utility.yul\":913:1278   */\n    tag_16:\n        /* \"#utility.yul\":1055:1058   */\n      0x00\n        /* \"#utility.yul\":1076:1142   */\n      tag_30\n        /* \"#utility.yul\":1140:1141   */\n      0x03\n        /* \"#utility.yul\":1135:1138   */\n      dup4\n        /* \"#utility.yul\":1076:1142   */\n      tag_14\n      jump\t// in\n    tag_30:\n        /* \"#utility.yul\":1069:1142   */\n      swap2\n      pop\n        /* \"#utility.yul\":1151:1244   */\n      tag_31\n        /* \"#utility.yul\":1240:1243   */\n      dup3\n        /* \"#utility.yul\":1151:1244   */\n      tag_15\n      jump\t// in\n    tag_31:\n        /* \"#utility.yul\":1269:1271   */\n      0x20\n        /* \"#utility.yul\":1264:1267   */\n      dup3\n        /* \"#utility.yul\":1260:1272   */\n      add\n        /* \"#utility.yul\":1253:1272   */\n      swap1\n      pop\n        /* \"#utility.yul\":913:1278   */\n      swap2\n      swap1\n      pop\n      jump\t// out\n        /* \"#utility.yul\":1284:1835   */\n    tag_8:\n        /* \"#utility.yul\":1489:1493   */\n      0x00\n        /* \"#utility.yul\":1527:1529   */\n      0x40\n        /* \"#utility.yul\":1516:1525   */\n      dup3\n        /* \"#utility.yul\":1512:1530   */\n      add\n        /* \"#utility.yul\":1504:1530   */\n      swap1\n      pop\n        /* \"#utility.yul\":1540:1622   */\n      tag_33\n        /* \"#utility.yul\":1619:1620   */\n      0x00\n        /* \"#utility.yul\":1608:1617   */\n      dup4\n        /* \"#utility.yul\":1604:1621   */\n      add\n        /* \"#utility.yul\":1595:1601   */\n      dup5\n        /* \"#utility.yul\":1540:1622   */\n      tag_13\n      jump\t// in\n    tag_33:\n        /* \"#utility.yul\":1669:1678   */\n      dup2\n        /* \"#utility.yul\":1663:1667   */\n      dup2\n        /* \"#utility.yul\":1659:1679   */\n      sub\n        /* \"#utility.yul\":1654:1656   */\n      0x20\n        /* \"#utility.yul\":1643:1652   */\n      dup4\n        /* \"#utility.yul\":1639:1657   */\n      add\n        /* \"#utility.yul\":1632:1680   */\n      mstore\n        /* \"#utility.yul\":1697:1828   */\n      tag_34\n        /* \"#utility.yul\":1823:1827   */\n      dup2\n        /* \"#utility.yul\":1697:1828   */\n      tag_16\n      jump\t// in\n    tag_34:\n        /* \"#utility.yul\":1689:1828   */\n      swap1\n      pop\n        /* \"#utility.yul\":1284:1835   */\n      swap3\n      swap2\n      pop\n      pop\n      jump\t// out\n\n    auxdata: 0xa26469706673582212209c97d467c8304e4bd624e13abd833a654dacc5e1401b9915340b09d84ad6287264736f6c634300081a0033\n}\n",
				"bytecode": {
					"linkReferences": {},
					"object": "6080604052348015600e575f80fd5b506101d38061001c5f395ff3fe608060405234801561000f575f80fd5b5060043610610029575f3560e01c8063643898cd1461002d575b5f80fd5b610035610037565b005b5f73ffffffffffffffffffffffffffffffffffffffff163373ffffffffffffffffffffffffffffffffffffffff167f240344918ab2e8be9aa11d18cab81545b365f0033a413133b8122f4f0cbbc8226107d06040516100969190610171565b60405180910390a37fa08103b0e6cb1e282a4df849625b11bb7f5947f8ed4719c49eb5ba81eb781c4260405160405180910390a1565b5f819050919050565b5f819050919050565b5f819050919050565b5f6101016100fc6100f7846100cc565b6100de565b6100d5565b9050919050565b610111816100e7565b82525050565b5f82825260208201905092915050565b7f42544300000000000000000000000000000000000000000000000000000000005f82015250565b5f61015b600383610117565b915061016682610127565b602082019050919050565b5f6040820190506101845f830184610108565b81810360208301526101958161014f565b90509291505056fea26469706673582212209c97d467c8304e4bd624e13abd833a654dacc5e1401b9915340b09d84ad6287264736f6c634300081a0033",
					"opcodes": "PUSH1 0x80 PUSH1 0x40 MSTORE CALLVALUE DUP1 ISZERO PUSH1 0xE JUMPI PUSH0 DUP1 REVERT JUMPDEST POP PUSH2 0x1D3 DUP1 PUSH2 0x1C PUSH0 CODECOPY PUSH0 RETURN INVALID PUSH1 0x80 PUSH1 0x40 MSTORE CALLVALUE DUP1 ISZERO PUSH2 0xF JUMPI PUSH0 DUP1 REVERT JUMPDEST POP PUSH1 0x4 CALLDATASIZE LT PUSH2 0x29 JUMPI PUSH0 CALLDATALOAD PUSH1 0xE0 SHR DUP1 PUSH4 0x643898CD EQ PUSH2 0x2D JUMPI JUMPDEST PUSH0 DUP1 REVERT JUMPDEST PUSH2 0x35 PUSH2 0x37 JUMP JUMPDEST STOP JUMPDEST PUSH0 PUSH20 0xFFFFFFFFFFFFFFFFFFFFFFFFFFFFFFFFFFFFFFFF AND CALLER PUSH20 0xFFFFFFFFFFFFFFFFFFFFFFFFFFFFFFFFFFFFFFFF AND PUSH32 0x240344918AB2E8BE9AA11D18CAB81545B365F0033A413133B8122F4F0CBBC822 PUSH2 0x7D0 PUSH1 0x40 MLOAD PUSH2 0x96 SWAP2 SWAP1 PUSH2 0x171 JUMP JUMPDEST PUSH1 0x40 MLOAD DUP1 SWAP2 SUB SWAP1 LOG3 PUSH32 0xA08103B0E6CB1E282A4DF849625B11BB7F5947F8ED4719C49EB5BA81EB781C42 PUSH1 0x40 MLOAD PUSH1 0x40 MLOAD DUP1 SWAP2 SUB SWAP1 LOG1 JUMP JUMPDEST PUSH0 DUP2 SWAP1 POP SWAP2 SWAP1 POP JUMP JUMPDEST PUSH0 DUP2 SWAP1 POP SWAP2 SWAP1 POP JUMP JUMPDEST PUSH0 DUP2 SWAP1 POP SWAP2 SWAP1 POP JUMP JUMPDEST PUSH0 PUSH2 0x101 PUSH2 0xFC PUSH2 0xF7 DUP5 PUSH2 0xCC JUMP JUMPDEST PUSH2 0xDE JUMP JUMPDEST PUSH2 0xD5 JUMP JUMPDEST SWAP1 POP SWAP2 SWAP1 POP JUMP JUMPDEST PUSH2 0x111 DUP2 PUSH2 0xE7 JUMP JUMPDEST DUP3 MSTORE POP POP JUMP JUMPDEST PUSH0 DUP3 DUP3 MSTORE PUSH1 0x20 DUP3 ADD SWAP1 POP SWAP3 SWAP2 POP POP JUMP JUMPDEST PUSH32 0x4254430000000000000000000000000000000000000000000000000000000000 PUSH0 DUP3 ADD MSTORE POP JUMP JUMPDEST PUSH0 PUSH2 0x15B PUSH1 0x3 DUP4 PUSH2 0x117 JUMP JUMPDEST SWAP2 POP PUSH2 0x166 DUP3 PUSH2 0x127 JUMP JUMPDEST PUSH1 0x20 DUP3 ADD SWAP1 POP SWAP2 SWAP1 POP JUMP JUMPDEST PUSH0 PUSH1 0x40 DUP3 ADD SWAP1 POP PUSH2 0x184 PUSH0 DUP4 ADD DUP5 PUSH2 0x108 JUMP JUMPDEST DUP2 DUP2 SUB PUSH1 0x20 DUP4 ADD MSTORE PUSH2 0x195 DUP2 PUSH2 0x14F JUMP JUMPDEST SWAP1 POP SWAP3 SWAP2 POP POP JUMP INVALID LOG2 PUSH5 0x6970667358 0x22 SLT KECCAK256 SWAP13 SWAP8 0xD4 PUSH8 0xC8304E4BD624E13A 0xBD DUP4 GASPRICE PUSH6 0x4DACC5E1401B SWAP10 ISZERO CALLVALUE SIGNEXTEND MULMOD 0xD8 BLOBBASEFEE 0xD6 0x28 PUSH19 0x64736F6C634300081A00330000000000000000 "
				},
				"gasEstimates": {
					"creation": {
						"codeDepositCost": "93400",
						"executionCost": "139",
						"totalCost": "93539"
					},
					"external": {
						"test_()": "3945"
					}
				},
				"methodIdentifiers": {
					"test_()": "643898cd"
				}
			},
			"storageLayout": {
				"storage": [],
				"types": null
			},
			"userdoc": {
				"kind": "user",
				"methods": {},
				"version": 1
			}
		}
	}
}