{
	"Learning Pth/Cloth_Brand_Project.sol": {
		"Web3_Shoes": {
			"abi": [
				{
					"anonymous": false,
					"inputs": [
						{
							"indexed": false,
							"internalType": "uint256",
							"name": "shoeId",
							"type": "uint256"
						},
						{
							"indexed": false,
							"internalType": "string",
							"name": "text",
							"type": "string"
						}
					],
					"name": "shoeSold",
					"type": "event"
				},
				{
					"inputs": [
						{
							"internalType": "uint256",
							"name": "_shoeId",
							"type": "uint256"
						}
					],
					"name": "buyShoe",
					"outputs": [],
					"stateMutability": "payable",
					"type": "function"
				},
				{
					"inputs": [
						{
							"internalType": "string",
							"name": "_brandName",
							"type": "string"
						},
						{
							"internalType": "string",
							"name": "_shoeType",
							"type": "string"
						},
						{
							"internalType": "string",
							"name": "_description",
							"type": "string"
						},
						{
							"internalType": "string",
							"name": "_size",
							"type": "string"
						},
						{
							"internalType": "uint256",
							"name": "_price",
							"type": "uint256"
						},
						{
							"internalType": "uint256",
							"name": "_shoeId",
							"type": "uint256"
						}
					],
					"name": "listShoes",
					"outputs": [],
					"stateMutability": "nonpayable",
					"type": "function"
				},
				{
					"inputs": [
						{
							"internalType": "uint256",
							"name": "",
							"type": "uint256"
						}
					],
					"name": "shoe_list",
					"outputs": [
						{
							"internalType": "uint256",
							"name": "",
							"type": "uint256"
						}
					],
					"stateMutability": "view",
					"type": "function"
				},
				{
					"inputs": [
						{
							"internalType": "uint256",
							"name": "",
							"type": "uint256"
						}
					],
					"name": "shoes",
					"outputs": [
						{
							"internalType": "string",
							"name": "brandName",
							"type": "string"
						},
						{
							"internalType": "string",
							"name": "shoeType",
							"type": "string"
						},
						{
							"internalType": "string",
							"name": "description",
							"type": "string"
						},
						{
							"internalType": "uint256",
							"name": "price",
							"type": "uint256"
						},
						{
							"internalType": "bool",
							"name": "forSale",
							"type": "bool"
						},
						{
							"internalType": "string",
							"name": "size",
							"type": "string"
						},
						{
							"internalType": "address",
							"name": "owner",
							"type": "address"
						}
					],
					"stateMutability": "view",
					"type": "function"
				}
			],
			"devdoc": {
				"kind": "dev",
				"methods": {},
				"version": 1
			},
			"evm": {
				"assembly": "    /* \"Learning Pth/Cloth_Brand_Project.sol\":61:1320  contract Web3_Shoes {... */\n  mstore(0x40, 0x80)\n  callvalue\n  dup1\n  iszero\n  tag_1\n  jumpi\n  0x00\n  dup1\n  revert\ntag_1:\n  pop\n  dataSize(sub_0)\n  dup1\n  dataOffset(sub_0)\n  0x00\n  codecopy\n  0x00\n  return\nstop\n\nsub_0: assembly {\n        /* \"Learning Pth/Cloth_Brand_Project.sol\":61:1320  contract Web3_Shoes {... */\n      mstore(0x40, 0x80)\n      jumpi(tag_1, lt(calldatasize, 0x04))\n      shr(0xe0, calldataload(0x00))\n      dup1\n      0x1315879f\n      eq\n      tag_2\n      jumpi\n      dup1\n      0x13636548\n      eq\n      tag_3\n      jumpi\n      dup1\n      0x59f26e96\n      eq\n      tag_4\n      jumpi\n      dup1\n      0x607473cf\n      eq\n      tag_5\n      jumpi\n    tag_1:\n      0x00\n      dup1\n      revert\n        /* \"Learning Pth/Cloth_Brand_Project.sol\":928:1317  function buyShoe(uint _shoeId) public payable {... */\n    tag_2:\n      tag_6\n      0x04\n      dup1\n      calldatasize\n      sub\n      dup2\n      add\n      swap1\n      tag_7\n      swap2\n      swap1\n      tag_8\n      jump\t// in\n    tag_7:\n      tag_9\n      jump\t// in\n    tag_6:\n      stop\n        /* \"Learning Pth/Cloth_Brand_Project.sol\":335:358  uint[] public shoe_list */\n    tag_3:\n      callvalue\n      dup1\n      iszero\n      tag_10\n      jumpi\n      0x00\n      dup1\n      revert\n    tag_10:\n      pop\n      tag_11\n      0x04\n      dup1\n      calldatasize\n      sub\n      dup2\n      add\n      swap1\n      tag_12\n      swap2\n      swap1\n      tag_8\n      jump\t// in\n    tag_12:\n      tag_13\n      jump\t// in\n    tag_11:\n      mload(0x40)\n      tag_14\n      swap2\n      swap1\n      tag_15\n      jump\t// in\n    tag_14:\n      mload(0x40)\n      dup1\n      swap2\n      sub\n      swap1\n      return\n        /* \"Learning Pth/Cloth_Brand_Project.sol\":414:920  function listShoes(string memory _brandName, string memory _shoeType, string memory _description, ... */\n    tag_4:\n      callvalue\n      dup1\n      iszero\n      tag_16\n      jumpi\n      0x00\n      dup1\n      revert\n    tag_16:\n      pop\n      tag_17\n      0x04\n      dup1\n      calldatasize\n      sub\n      dup2\n      add\n      swap1\n      tag_18\n      swap2\n      swap1\n      tag_19\n      jump\t// in\n    tag_18:\n      tag_20\n      jump\t// in\n    tag_17:\n      stop\n        /* \"Learning Pth/Cloth_Brand_Project.sol\":293:328  mapping (uint => Shoe) public shoes */\n    tag_5:\n      callvalue\n      dup1\n      iszero\n      tag_21\n      jumpi\n      0x00\n      dup1\n      revert\n    tag_21:\n      pop\n      tag_22\n      0x04\n      dup1\n      calldatasize\n      sub\n      dup2\n      add\n      swap1\n      tag_23\n      swap2\n      swap1\n      tag_8\n      jump\t// in\n    tag_23:\n      tag_24\n      jump\t// in\n    tag_22:\n      mload(0x40)\n      tag_25\n      swap8\n      swap7\n      swap6\n      swap5\n      swap4\n      swap3\n      swap2\n      swap1\n      tag_26\n      jump\t// in\n    tag_25:\n      mload(0x40)\n      dup1\n      swap2\n      sub\n      swap1\n      return\n        /* \"Learning Pth/Cloth_Brand_Project.sol\":928:1317  function buyShoe(uint _shoeId) public payable {... */\n    tag_9:\n        /* \"Learning Pth/Cloth_Brand_Project.sol\":985:1002  Shoe storage shoe */\n      0x00\n        /* \"Learning Pth/Cloth_Brand_Project.sol\":1005:1010  shoes */\n      dup1\n        /* \"Learning Pth/Cloth_Brand_Project.sol\":1005:1019  shoes[_shoeId] */\n      0x00\n        /* \"Learning Pth/Cloth_Brand_Project.sol\":1011:1018  _shoeId */\n      dup4\n        /* \"Learning Pth/Cloth_Brand_Project.sol\":1005:1019  shoes[_shoeId] */\n      dup2\n      mstore\n      0x20\n      add\n      swap1\n      dup2\n      mstore\n      0x20\n      add\n      0x00\n      keccak256\n        /* \"Learning Pth/Cloth_Brand_Project.sol\":985:1019  Shoe storage shoe = shoes[_shoeId] */\n      swap1\n      pop\n        /* \"Learning Pth/Cloth_Brand_Project.sol\":1051:1055  shoe */\n      dup1\n        /* \"Learning Pth/Cloth_Brand_Project.sol\":1051:1061  shoe.price */\n      0x03\n      add\n      sload\n        /* \"Learning Pth/Cloth_Brand_Project.sol\":1038:1047  msg.value */\n      callvalue\n        /* \"Learning Pth/Cloth_Brand_Project.sol\":1038:1061  msg.value == shoe.price */\n      eq\n        /* \"Learning Pth/Cloth_Brand_Project.sol\":1030:1084  require(msg.value == shoe.price, \"insufficient funds\") */\n      tag_28\n      jumpi\n      mload(0x40)\n      0x08c379a000000000000000000000000000000000000000000000000000000000\n      dup2\n      mstore\n      0x04\n      add\n      tag_29\n      swap1\n      tag_30\n      jump\t// in\n    tag_29:\n      mload(0x40)\n      dup1\n      swap2\n      sub\n      swap1\n      revert\n    tag_28:\n        /* \"Learning Pth/Cloth_Brand_Project.sol\":1103:1107  shoe */\n      dup1\n        /* \"Learning Pth/Cloth_Brand_Project.sol\":1103:1115  shoe.forSale */\n      0x04\n      add\n      0x00\n      swap1\n      sload\n      swap1\n      0x0100\n      exp\n      swap1\n      div\n      0xff\n      and\n        /* \"Learning Pth/Cloth_Brand_Project.sol\":1095:1141  require(shoe.forSale, \"shoe is not available\") */\n      tag_31\n      jumpi\n      mload(0x40)\n      0x08c379a000000000000000000000000000000000000000000000000000000000\n      dup2\n      mstore\n      0x04\n      add\n      tag_32\n      swap1\n      tag_33\n      jump\t// in\n    tag_32:\n      mload(0x40)\n      dup1\n      swap2\n      sub\n      swap1\n      revert\n    tag_31:\n        /* \"Learning Pth/Cloth_Brand_Project.sol\":1167:1177  msg.sender */\n      caller\n        /* \"Learning Pth/Cloth_Brand_Project.sol\":1154:1158  shoe */\n      dup2\n        /* \"Learning Pth/Cloth_Brand_Project.sol\":1154:1164  shoe.owner */\n      0x06\n      add\n      0x00\n        /* \"Learning Pth/Cloth_Brand_Project.sol\":1154:1177  shoe.owner = msg.sender */\n      0x0100\n      exp\n      dup2\n      sload\n      dup2\n      0xffffffffffffffffffffffffffffffffffffffff\n      mul\n      not\n      and\n      swap1\n      dup4\n      0xffffffffffffffffffffffffffffffffffffffff\n      and\n      mul\n      or\n      swap1\n      sstore\n      pop\n        /* \"Learning Pth/Cloth_Brand_Project.sol\":1203:1208  false */\n      0x00\n        /* \"Learning Pth/Cloth_Brand_Project.sol\":1188:1192  shoe */\n      dup2\n        /* \"Learning Pth/Cloth_Brand_Project.sol\":1188:1200  shoe.forSale */\n      0x04\n      add\n      0x00\n        /* \"Learning Pth/Cloth_Brand_Project.sol\":1188:1208  shoe.forSale = false */\n      0x0100\n      exp\n      dup2\n      sload\n      dup2\n      0xff\n      mul\n      not\n      and\n      swap1\n      dup4\n      iszero\n      iszero\n      mul\n      or\n      swap1\n      sstore\n      pop\n        /* \"Learning Pth/Cloth_Brand_Project.sol\":1229:1233  shoe */\n      dup1\n        /* \"Learning Pth/Cloth_Brand_Project.sol\":1229:1239  shoe.owner */\n      0x06\n      add\n      0x00\n      swap1\n      sload\n      swap1\n      0x0100\n      exp\n      swap1\n      div\n      0xffffffffffffffffffffffffffffffffffffffff\n      and\n        /* \"Learning Pth/Cloth_Brand_Project.sol\":1221:1249  payable(shoe.owner).transfer */\n      0xffffffffffffffffffffffffffffffffffffffff\n      and\n        /* \"Learning Pth/Cloth_Brand_Project.sol\":1221:1261  payable(shoe.owner).transfer(shoe.price) */\n      0x08fc\n        /* \"Learning Pth/Cloth_Brand_Project.sol\":1250:1254  shoe */\n      dup3\n        /* \"Learning Pth/Cloth_Brand_Project.sol\":1250:1260  shoe.price */\n      0x03\n      add\n      sload\n        /* \"Learning Pth/Cloth_Brand_Project.sol\":1221:1261  payable(shoe.owner).transfer(shoe.price) */\n      swap1\n      dup2\n      iszero\n      mul\n      swap1\n      mload(0x40)\n      0x00\n      mload(0x40)\n      dup1\n      dup4\n      sub\n      dup2\n      dup6\n      dup9\n      dup9\n      call\n      swap4\n      pop\n      pop\n      pop\n      pop\n      iszero\n      dup1\n      iszero\n      tag_35\n      jumpi\n      returndatasize\n      0x00\n      dup1\n      returndatacopy\n      revert(0x00, returndatasize)\n    tag_35:\n      pop\n        /* \"Learning Pth/Cloth_Brand_Project.sol\":1279:1309  shoeSold(_shoeId, \"shoe sold\") */\n      0x04ba5d41600a02c8b7e1ed4632cbf95b58ad9725c5d4acffc2daa81b2298ec9b\n        /* \"Learning Pth/Cloth_Brand_Project.sol\":1288:1295  _shoeId */\n      dup3\n        /* \"Learning Pth/Cloth_Brand_Project.sol\":1279:1309  shoeSold(_shoeId, \"shoe sold\") */\n      mload(0x40)\n      tag_36\n      swap2\n      swap1\n      tag_37\n      jump\t// in\n    tag_36:\n      mload(0x40)\n      dup1\n      swap2\n      sub\n      swap1\n      log1\n        /* \"Learning Pth/Cloth_Brand_Project.sol\":974:1317  {... */\n      pop\n        /* \"Learning Pth/Cloth_Brand_Project.sol\":928:1317  function buyShoe(uint _shoeId) public payable {... */\n      pop\n      jump\t// out\n        /* \"Learning Pth/Cloth_Brand_Project.sol\":335:358  uint[] public shoe_list */\n    tag_13:\n      0x01\n      dup2\n      dup2\n      sload\n      dup2\n      lt\n      tag_38\n      jumpi\n      0x00\n      dup1\n      revert\n    tag_38:\n      swap1\n      0x00\n      mstore\n      keccak256(0x00, 0x20)\n      add\n      0x00\n      swap2\n      pop\n      swap1\n      pop\n      sload\n      dup2\n      jump\t// out\n        /* \"Learning Pth/Cloth_Brand_Project.sol\":414:920  function listShoes(string memory _brandName, string memory _shoeType, string memory _description, ... */\n    tag_20:\n        /* \"Learning Pth/Cloth_Brand_Project.sol\":584:600  Shoe memory shoe */\n      0x00\n        /* \"Learning Pth/Cloth_Brand_Project.sol\":603:844  Shoe({... */\n      mload(0x40)\n      dup1\n      0xe0\n      add\n      0x40\n      mstore\n      dup1\n        /* \"Learning Pth/Cloth_Brand_Project.sol\":634:644  _brandName */\n      dup9\n        /* \"Learning Pth/Cloth_Brand_Project.sol\":603:844  Shoe({... */\n      dup2\n      mstore\n      0x20\n      add\n        /* \"Learning Pth/Cloth_Brand_Project.sol\":669:678  _shoeType */\n      dup8\n        /* \"Learning Pth/Cloth_Brand_Project.sol\":603:844  Shoe({... */\n      dup2\n      mstore\n      0x20\n      add\n        /* \"Learning Pth/Cloth_Brand_Project.sol\":706:718  _description */\n      dup7\n        /* \"Learning Pth/Cloth_Brand_Project.sol\":603:844  Shoe({... */\n      dup2\n      mstore\n      0x20\n      add\n        /* \"Learning Pth/Cloth_Brand_Project.sol\":740:746  _price */\n      dup5\n        /* \"Learning Pth/Cloth_Brand_Project.sol\":603:844  Shoe({... */\n      dup2\n      mstore\n      0x20\n      add\n        /* \"Learning Pth/Cloth_Brand_Project.sol\":770:774  true */\n      0x01\n        /* \"Learning Pth/Cloth_Brand_Project.sol\":603:844  Shoe({... */\n      iszero\n      iszero\n      dup2\n      mstore\n      0x20\n      add\n        /* \"Learning Pth/Cloth_Brand_Project.sol\":795:800  _size */\n      dup6\n        /* \"Learning Pth/Cloth_Brand_Project.sol\":603:844  Shoe({... */\n      dup2\n      mstore\n      0x20\n      add\n        /* \"Learning Pth/Cloth_Brand_Project.sol\":822:832  msg.sender */\n      caller\n        /* \"Learning Pth/Cloth_Brand_Project.sol\":603:844  Shoe({... */\n      0xffffffffffffffffffffffffffffffffffffffff\n      and\n      dup2\n      mstore\n      pop\n        /* \"Learning Pth/Cloth_Brand_Project.sol\":584:844  Shoe memory shoe = Shoe({... */\n      swap1\n      pop\n        /* \"Learning Pth/Cloth_Brand_Project.sol\":874:878  shoe */\n      dup1\n        /* \"Learning Pth/Cloth_Brand_Project.sol\":857:862  shoes */\n      0x00\n        /* \"Learning Pth/Cloth_Brand_Project.sol\":857:871  shoes[_shoeId] */\n      dup1\n        /* \"Learning Pth/Cloth_Brand_Project.sol\":863:870  _shoeId */\n      dup5\n        /* \"Learning Pth/Cloth_Brand_Project.sol\":857:871  shoes[_shoeId] */\n      dup2\n      mstore\n      0x20\n      add\n      swap1\n      dup2\n      mstore\n      0x20\n      add\n      0x00\n      keccak256\n        /* \"Learning Pth/Cloth_Brand_Project.sol\":857:878  shoes[_shoeId] = shoe */\n      0x00\n      dup3\n      add\n      mload\n      dup2\n      0x00\n      add\n      swap1\n      dup2\n      tag_41\n      swap2\n      swap1\n      tag_42\n      jump\t// in\n    tag_41:\n      pop\n      0x20\n      dup3\n      add\n      mload\n      dup2\n      0x01\n      add\n      swap1\n      dup2\n      tag_43\n      swap2\n      swap1\n      tag_42\n      jump\t// in\n    tag_43:\n      pop\n      0x40\n      dup3\n      add\n      mload\n      dup2\n      0x02\n      add\n      swap1\n      dup2\n      tag_44\n      swap2\n      swap1\n      tag_42\n      jump\t// in\n    tag_44:\n      pop\n      0x60\n      dup3\n      add\n      mload\n      dup2\n      0x03\n      add\n      sstore\n      0x80\n      dup3\n      add\n      mload\n      dup2\n      0x04\n      add\n      exp(0x0100, 0x00)\n      dup2\n      sload\n      dup2\n      0xff\n      mul\n      not\n      and\n      swap1\n      dup4\n      iszero\n      iszero\n      mul\n      or\n      swap1\n      sstore\n      pop\n      0xa0\n      dup3\n      add\n      mload\n      dup2\n      0x05\n      add\n      swap1\n      dup2\n      tag_45\n      swap2\n      swap1\n      tag_42\n      jump\t// in\n    tag_45:\n      pop\n      0xc0\n      dup3\n      add\n      mload\n      dup2\n      0x06\n      add\n      exp(0x0100, 0x00)\n      dup2\n      sload\n      dup2\n      0xffffffffffffffffffffffffffffffffffffffff\n      mul\n      not\n      and\n      swap1\n      dup4\n      0xffffffffffffffffffffffffffffffffffffffff\n      and\n      mul\n      or\n      swap1\n      sstore\n      pop\n      swap1\n      pop\n      pop\n        /* \"Learning Pth/Cloth_Brand_Project.sol\":889:898  shoe_list */\n      0x01\n        /* \"Learning Pth/Cloth_Brand_Project.sol\":904:911  _shoeId */\n      dup3\n        /* \"Learning Pth/Cloth_Brand_Project.sol\":889:912  shoe_list.push(_shoeId) */\n      swap1\n      dup1\n      0x01\n      dup2\n      sload\n      add\n      dup1\n      dup3\n      sstore\n      dup1\n      swap2\n      pop\n      pop\n      0x01\n      swap1\n      sub\n      swap1\n      0x00\n      mstore\n      keccak256(0x00, 0x20)\n      add\n      0x00\n      swap1\n      swap2\n      swap1\n      swap2\n      swap1\n      swap2\n      pop\n      sstore\n        /* \"Learning Pth/Cloth_Brand_Project.sol\":573:920  {... */\n      pop\n        /* \"Learning Pth/Cloth_Brand_Project.sol\":414:920  function listShoes(string memory _brandName, string memory _shoeType, string memory _description, ... */\n      pop\n      pop\n      pop\n      pop\n      pop\n      pop\n      jump\t// out\n        /* \"Learning Pth/Cloth_Brand_Project.sol\":293:328  mapping (uint => Shoe) public shoes */\n    tag_24:\n      mstore(0x20, 0x00)\n      dup1\n      0x00\n      mstore\n      keccak256(0x00, 0x40)\n      0x00\n      swap2\n      pop\n      swap1\n      pop\n      dup1\n      0x00\n      add\n      dup1\n      sload\n      tag_47\n      swap1\n      tag_48\n      jump\t// in\n    tag_47:\n      dup1\n      0x1f\n      add\n      0x20\n      dup1\n      swap2\n      div\n      mul\n      0x20\n      add\n      mload(0x40)\n      swap1\n      dup2\n      add\n      0x40\n      mstore\n      dup1\n      swap3\n      swap2\n      swap1\n      dup2\n      dup2\n      mstore\n      0x20\n      add\n      dup3\n      dup1\n      sload\n      tag_49\n      swap1\n      tag_48\n      jump\t// in\n    tag_49:\n      dup1\n      iszero\n      tag_50\n      jumpi\n      dup1\n      0x1f\n      lt\n      tag_51\n      jumpi\n      0x0100\n      dup1\n      dup4\n      sload\n      div\n      mul\n      dup4\n      mstore\n      swap2\n      0x20\n      add\n      swap2\n      jump(tag_50)\n    tag_51:\n      dup3\n      add\n      swap2\n      swap1\n      0x00\n      mstore\n      keccak256(0x00, 0x20)\n      swap1\n    tag_52:\n      dup2\n      sload\n      dup2\n      mstore\n      swap1\n      0x01\n      add\n      swap1\n      0x20\n      add\n      dup1\n      dup4\n      gt\n      tag_52\n      jumpi\n      dup3\n      swap1\n      sub\n      0x1f\n      and\n      dup3\n      add\n      swap2\n    tag_50:\n      pop\n      pop\n      pop\n      pop\n      pop\n      swap1\n      dup1\n      0x01\n      add\n      dup1\n      sload\n      tag_53\n      swap1\n      tag_48\n      jump\t// in\n    tag_53:\n      dup1\n      0x1f\n      add\n      0x20\n      dup1\n      swap2\n      div\n      mul\n      0x20\n      add\n      mload(0x40)\n      swap1\n      dup2\n      add\n      0x40\n      mstore\n      dup1\n      swap3\n      swap2\n      swap1\n      dup2\n      dup2\n      mstore\n      0x20\n      add\n      dup3\n      dup1\n      sload\n      tag_54\n      swap1\n      tag_48\n      jump\t// in\n    tag_54:\n      dup1\n      iszero\n      tag_55\n      jumpi\n      dup1\n      0x1f\n      lt\n      tag_56\n      jumpi\n      0x0100\n      dup1\n      dup4\n      sload\n      div\n      mul\n      dup4\n      mstore\n      swap2\n      0x20\n      add\n      swap2\n      jump(tag_55)\n    tag_56:\n      dup3\n      add\n      swap2\n      swap1\n      0x00\n      mstore\n      keccak256(0x00, 0x20)\n      swap1\n    tag_57:\n      dup2\n      sload\n      dup2\n      mstore\n      swap1\n      0x01\n      add\n      swap1\n      0x20\n      add\n      dup1\n      dup4\n      gt\n      tag_57\n      jumpi\n      dup3\n      swap1\n      sub\n      0x1f\n      and\n      dup3\n      add\n      swap2\n    tag_55:\n      pop\n      pop\n      pop\n      pop\n      pop\n      swap1\n      dup1\n      0x02\n      add\n      dup1\n      sload\n      tag_58\n      swap1\n      tag_48\n      jump\t// in\n    tag_58:\n      dup1\n      0x1f\n      add\n      0x20\n      dup1\n      swap2\n      div\n      mul\n      0x20\n      add\n      mload(0x40)\n      swap1\n      dup2\n      add\n      0x40\n      mstore\n      dup1\n      swap3\n      swap2\n      swap1\n      dup2\n      dup2\n      mstore\n      0x20\n      add\n      dup3\n      dup1\n      sload\n      tag_59\n      swap1\n      tag_48\n      jump\t// in\n    tag_59:\n      dup1\n      iszero\n      tag_60\n      jumpi\n      dup1\n      0x1f\n      lt\n      tag_61\n      jumpi\n      0x0100\n      dup1\n      dup4\n      sload\n      div\n      mul\n      dup4\n      mstore\n      swap2\n      0x20\n      add\n      swap2\n      jump(tag_60)\n    tag_61:\n      dup3\n      add\n      swap2\n      swap1\n      0x00\n      mstore\n      keccak256(0x00, 0x20)\n      swap1\n    tag_62:\n      dup2\n      sload\n      dup2\n      mstore\n      swap1\n      0x01\n      add\n      swap1\n      0x20\n      add\n      dup1\n      dup4\n      gt\n      tag_62\n      jumpi\n      dup3\n      swap1\n      sub\n      0x1f\n      and\n      dup3\n      add\n      swap2\n    tag_60:\n      pop\n      pop\n      pop\n      pop\n      pop\n      swap1\n      dup1\n      0x03\n      add\n      sload\n      swap1\n      dup1\n      0x04\n      add\n      0x00\n      swap1\n      sload\n      swap1\n      0x0100\n      exp\n      swap1\n      div\n      0xff\n      and\n      swap1\n      dup1\n      0x05\n      add\n      dup1\n      sload\n      tag_63\n      swap1\n      tag_48\n      jump\t// in\n    tag_63:\n      dup1\n      0x1f\n      add\n      0x20\n      dup1\n      swap2\n      div\n      mul\n      0x20\n      add\n      mload(0x40)\n      swap1\n      dup2\n      add\n      0x40\n      mstore\n      dup1\n      swap3\n      swap2\n      swap1\n      dup2\n      dup2\n      mstore\n      0x20\n      add\n      dup3\n      dup1\n      sload\n      tag_64\n      swap1\n      tag_48\n      jump\t// in\n    tag_64:\n      dup1\n      iszero\n      tag_65\n      jumpi\n      dup1\n      0x1f\n      lt\n      tag_66\n      jumpi\n      0x0100\n      dup1\n      dup4\n      sload\n      div\n      mul\n      dup4\n      mstore\n      swap2\n      0x20\n      add\n      swap2\n      jump(tag_65)\n    tag_66:\n      dup3\n      add\n      swap2\n      swap1\n      0x00\n      mstore\n      keccak256(0x00, 0x20)\n      swap1\n    tag_67:\n      dup2\n      sload\n      dup2\n      mstore\n      swap1\n      0x01\n      add\n      swap1\n      0x20\n      add\n      dup1\n      dup4\n      gt\n      tag_67\n      jumpi\n      dup3\n      swap1\n      sub\n      0x1f\n      and\n      dup3\n      add\n      swap2\n    tag_65:\n      pop\n      pop\n      pop\n      pop\n      pop\n      swap1\n      dup1\n      0x06\n      add\n      0x00\n      swap1\n      sload\n      swap1\n      0x0100\n      exp\n      swap1\n      div\n      0xffffffffffffffffffffffffffffffffffffffff\n      and\n      swap1\n      pop\n      dup8\n      jump\t// out\n        /* \"#utility.yul\":7:82   */\n    tag_68:\n        /* \"#utility.yul\":40:46   */\n      0x00\n        /* \"#utility.yul\":73:75   */\n      0x40\n        /* \"#utility.yul\":67:76   */\n      mload\n        /* \"#utility.yul\":57:76   */\n      swap1\n      pop\n        /* \"#utility.yul\":7:82   */\n      swap1\n      jump\t// out\n        /* \"#utility.yul\":88:205   */\n    tag_69:\n        /* \"#utility.yul\":197:198   */\n      0x00\n        /* \"#utility.yul\":194:195   */\n      dup1\n        /* \"#utility.yul\":187:199   */\n      revert\n        /* \"#utility.yul\":211:328   */\n    tag_70:\n        /* \"#utility.yul\":320:321   */\n      0x00\n        /* \"#utility.yul\":317:318   */\n      dup1\n        /* \"#utility.yul\":310:322   */\n      revert\n        /* \"#utility.yul\":334:411   */\n    tag_71:\n        /* \"#utility.yul\":371:378   */\n      0x00\n        /* \"#utility.yul\":400:405   */\n      dup2\n        /* \"#utility.yul\":389:405   */\n      swap1\n      pop\n        /* \"#utility.yul\":334:411   */\n      swap2\n      swap1\n      pop\n      jump\t// out\n        /* \"#utility.yul\":417:539   */\n    tag_72:\n        /* \"#utility.yul\":490:514   */\n      tag_122\n        /* \"#utility.yul\":508:513   */\n      dup2\n        /* \"#utility.yul\":490:514   */\n      tag_71\n      jump\t// in\n    tag_122:\n        /* \"#utility.yul\":483:488   */\n      dup2\n        /* \"#utility.yul\":480:515   */\n      eq\n        /* \"#utility.yul\":470:533   */\n      tag_123\n      jumpi\n        /* \"#utility.yul\":529:530   */\n      0x00\n        /* \"#utility.yul\":526:527   */\n      dup1\n        /* \"#utility.yul\":519:531   */\n      revert\n        /* \"#utility.yul\":470:533   */\n    tag_123:\n        /* \"#utility.yul\":417:539   */\n      pop\n      jump\t// out\n        /* \"#utility.yul\":545:684   */\n    tag_73:\n        /* \"#utility.yul\":591:596   */\n      0x00\n        /* \"#utility.yul\":629:635   */\n      dup2\n        /* \"#utility.yul\":616:636   */\n      calldataload\n        /* \"#utility.yul\":607:636   */\n      swap1\n      pop\n        /* \"#utility.yul\":645:678   */\n      tag_125\n        /* \"#utility.yul\":672:677   */\n      dup2\n        /* \"#utility.yul\":645:678   */\n      tag_72\n      jump\t// in\n    tag_125:\n        /* \"#utility.yul\":545:684   */\n      swap3\n      swap2\n      pop\n      pop\n      jump\t// out\n        /* \"#utility.yul\":690:1019   */\n    tag_8:\n        /* \"#utility.yul\":749:755   */\n      0x00\n        /* \"#utility.yul\":798:800   */\n      0x20\n        /* \"#utility.yul\":786:795   */\n      dup3\n        /* \"#utility.yul\":777:784   */\n      dup5\n        /* \"#utility.yul\":773:796   */\n      sub\n        /* \"#utility.yul\":769:801   */\n      slt\n        /* \"#utility.yul\":766:885   */\n      iszero\n      tag_127\n      jumpi\n        /* \"#utility.yul\":804:883   */\n      tag_128\n      tag_69\n      jump\t// in\n    tag_128:\n        /* \"#utility.yul\":766:885   */\n    tag_127:\n        /* \"#utility.yul\":924:925   */\n      0x00\n        /* \"#utility.yul\":949:1002   */\n      tag_129\n        /* \"#utility.yul\":994:1001   */\n      dup5\n        /* \"#utility.yul\":985:991   */\n      dup3\n        /* \"#utility.yul\":974:983   */\n      dup6\n        /* \"#utility.yul\":970:992   */\n      add\n        /* \"#utility.yul\":949:1002   */\n      tag_73\n      jump\t// in\n    tag_129:\n        /* \"#utility.yul\":939:1002   */\n      swap2\n      pop\n        /* \"#utility.yul\":895:1012   */\n      pop\n        /* \"#utility.yul\":690:1019   */\n      swap3\n      swap2\n      pop\n      pop\n      jump\t// out\n        /* \"#utility.yul\":1025:1143   */\n    tag_74:\n        /* \"#utility.yul\":1112:1136   */\n      tag_131\n        /* \"#utility.yul\":1130:1135   */\n      dup2\n        /* \"#utility.yul\":1112:1136   */\n      tag_71\n      jump\t// in\n    tag_131:\n        /* \"#utility.yul\":1107:1110   */\n      dup3\n        /* \"#utility.yul\":1100:1137   */\n      mstore\n        /* \"#utility.yul\":1025:1143   */\n      pop\n      pop\n      jump\t// out\n        /* \"#utility.yul\":1149:1371   */\n    tag_15:\n        /* \"#utility.yul\":1242:1246   */\n      0x00\n        /* \"#utility.yul\":1280:1282   */\n      0x20\n        /* \"#utility.yul\":1269:1278   */\n      dup3\n        /* \"#utility.yul\":1265:1283   */\n      add\n        /* \"#utility.yul\":1257:1283   */\n      swap1\n      pop\n        /* \"#utility.yul\":1293:1364   */\n      tag_133\n        /* \"#utility.yul\":1361:1362   */\n      0x00\n        /* \"#utility.yul\":1350:1359   */\n      dup4\n        /* \"#utility.yul\":1346:1363   */\n      add\n        /* \"#utility.yul\":1337:1343   */\n      dup5\n        /* \"#utility.yul\":1293:1364   */\n      tag_74\n      jump\t// in\n    tag_133:\n        /* \"#utility.yul\":1149:1371   */\n      swap3\n      swap2\n      pop\n      pop\n      jump\t// out\n        /* \"#utility.yul\":1377:1494   */\n    tag_75:\n        /* \"#utility.yul\":1486:1487   */\n      0x00\n        /* \"#utility.yul\":1483:1484   */\n      dup1\n        /* \"#utility.yul\":1476:1488   */\n      revert\n        /* \"#utility.yul\":1500:1617   */\n    tag_76:\n        /* \"#utility.yul\":1609:1610   */\n      0x00\n        /* \"#utility.yul\":1606:1607   */\n      dup1\n        /* \"#utility.yul\":1599:1611   */\n      revert\n        /* \"#utility.yul\":1623:1725   */\n    tag_77:\n        /* \"#utility.yul\":1664:1670   */\n      0x00\n        /* \"#utility.yul\":1715:1717   */\n      0x1f\n        /* \"#utility.yul\":1711:1718   */\n      not\n        /* \"#utility.yul\":1706:1708   */\n      0x1f\n        /* \"#utility.yul\":1699:1704   */\n      dup4\n        /* \"#utility.yul\":1695:1709   */\n      add\n        /* \"#utility.yul\":1691:1719   */\n      and\n        /* \"#utility.yul\":1681:1719   */\n      swap1\n      pop\n        /* \"#utility.yul\":1623:1725   */\n      swap2\n      swap1\n      pop\n      jump\t// out\n        /* \"#utility.yul\":1731:1911   */\n    tag_78:\n        /* \"#utility.yul\":1779:1856   */\n      0x4e487b7100000000000000000000000000000000000000000000000000000000\n        /* \"#utility.yul\":1776:1777   */\n      0x00\n        /* \"#utility.yul\":1769:1857   */\n      mstore\n        /* \"#utility.yul\":1876:1880   */\n      0x41\n        /* \"#utility.yul\":1873:1874   */\n      0x04\n        /* \"#utility.yul\":1866:1881   */\n      mstore\n        /* \"#utility.yul\":1900:1904   */\n      0x24\n        /* \"#utility.yul\":1897:1898   */\n      0x00\n        /* \"#utility.yul\":1890:1905   */\n      revert\n        /* \"#utility.yul\":1917:2198   */\n    tag_79:\n        /* \"#utility.yul\":2000:2027   */\n      tag_139\n        /* \"#utility.yul\":2022:2026   */\n      dup3\n        /* \"#utility.yul\":2000:2027   */\n      tag_77\n      jump\t// in\n    tag_139:\n        /* \"#utility.yul\":1992:1998   */\n      dup2\n        /* \"#utility.yul\":1988:2028   */\n      add\n        /* \"#utility.yul\":2130:2136   */\n      dup2\n        /* \"#utility.yul\":2118:2128   */\n      dup2\n        /* \"#utility.yul\":2115:2137   */\n      lt\n        /* \"#utility.yul\":2094:2112   */\n      0xffffffffffffffff\n        /* \"#utility.yul\":2082:2092   */\n      dup3\n        /* \"#utility.yul\":2079:2113   */\n      gt\n        /* \"#utility.yul\":2076:2138   */\n      or\n        /* \"#utility.yul\":2073:2161   */\n      iszero\n      tag_140\n      jumpi\n        /* \"#utility.yul\":2141:2159   */\n      tag_141\n      tag_78\n      jump\t// in\n    tag_141:\n        /* \"#utility.yul\":2073:2161   */\n    tag_140:\n        /* \"#utility.yul\":2181:2191   */\n      dup1\n        /* \"#utility.yul\":2177:2179   */\n      0x40\n        /* \"#utility.yul\":2170:2192   */\n      mstore\n        /* \"#utility.yul\":1960:2198   */\n      pop\n        /* \"#utility.yul\":1917:2198   */\n      pop\n      pop\n      jump\t// out\n        /* \"#utility.yul\":2204:2333   */\n    tag_80:\n        /* \"#utility.yul\":2238:2244   */\n      0x00\n        /* \"#utility.yul\":2265:2285   */\n      tag_143\n      tag_68\n      jump\t// in\n    tag_143:\n        /* \"#utility.yul\":2255:2285   */\n      swap1\n      pop\n        /* \"#utility.yul\":2294:2327   */\n      tag_144\n        /* \"#utility.yul\":2322:2326   */\n      dup3\n        /* \"#utility.yul\":2314:2320   */\n      dup3\n        /* \"#utility.yul\":2294:2327   */\n      tag_79\n      jump\t// in\n    tag_144:\n        /* \"#utility.yul\":2204:2333   */\n      swap2\n      swap1\n      pop\n      jump\t// out\n        /* \"#utility.yul\":2339:2647   */\n    tag_81:\n        /* \"#utility.yul\":2401:2405   */\n      0x00\n        /* \"#utility.yul\":2491:2509   */\n      0xffffffffffffffff\n        /* \"#utility.yul\":2483:2489   */\n      dup3\n        /* \"#utility.yul\":2480:2510   */\n      gt\n        /* \"#utility.yul\":2477:2533   */\n      iszero\n      tag_146\n      jumpi\n        /* \"#utility.yul\":2513:2531   */\n      tag_147\n      tag_78\n      jump\t// in\n    tag_147:\n        /* \"#utility.yul\":2477:2533   */\n    tag_146:\n        /* \"#utility.yul\":2551:2580   */\n      tag_148\n        /* \"#utility.yul\":2573:2579   */\n      dup3\n        /* \"#utility.yul\":2551:2580   */\n      tag_77\n      jump\t// in\n    tag_148:\n        /* \"#utility.yul\":2543:2580   */\n      swap1\n      pop\n        /* \"#utility.yul\":2635:2639   */\n      0x20\n        /* \"#utility.yul\":2629:2633   */\n      dup2\n        /* \"#utility.yul\":2625:2640   */\n      add\n        /* \"#utility.yul\":2617:2640   */\n      swap1\n      pop\n        /* \"#utility.yul\":2339:2647   */\n      swap2\n      swap1\n      pop\n      jump\t// out\n        /* \"#utility.yul\":2653:2801   */\n    tag_82:\n        /* \"#utility.yul\":2751:2757   */\n      dup3\n        /* \"#utility.yul\":2746:2749   */\n      dup2\n        /* \"#utility.yul\":2741:2744   */\n      dup4\n        /* \"#utility.yul\":2728:2758   */\n      calldatacopy\n        /* \"#utility.yul\":2792:2793   */\n      0x00\n        /* \"#utility.yul\":2783:2789   */\n      dup4\n        /* \"#utility.yul\":2778:2781   */\n      dup4\n        /* \"#utility.yul\":2774:2790   */\n      add\n        /* \"#utility.yul\":2767:2794   */\n      mstore\n        /* \"#utility.yul\":2653:2801   */\n      pop\n      pop\n      pop\n      jump\t// out\n        /* \"#utility.yul\":2807:3232   */\n    tag_83:\n        /* \"#utility.yul\":2885:2890   */\n      0x00\n        /* \"#utility.yul\":2910:2976   */\n      tag_151\n        /* \"#utility.yul\":2926:2975   */\n      tag_152\n        /* \"#utility.yul\":2968:2974   */\n      dup5\n        /* \"#utility.yul\":2926:2975   */\n      tag_81\n      jump\t// in\n    tag_152:\n        /* \"#utility.yul\":2910:2976   */\n      tag_80\n      jump\t// in\n    tag_151:\n        /* \"#utility.yul\":2901:2976   */\n      swap1\n      pop\n        /* \"#utility.yul\":2999:3005   */\n      dup3\n        /* \"#utility.yul\":2992:2997   */\n      dup2\n        /* \"#utility.yul\":2985:3006   */\n      mstore\n        /* \"#utility.yul\":3037:3041   */\n      0x20\n        /* \"#utility.yul\":3030:3035   */\n      dup2\n        /* \"#utility.yul\":3026:3042   */\n      add\n        /* \"#utility.yul\":3075:3078   */\n      dup5\n        /* \"#utility.yul\":3066:3072   */\n      dup5\n        /* \"#utility.yul\":3061:3064   */\n      dup5\n        /* \"#utility.yul\":3057:3073   */\n      add\n        /* \"#utility.yul\":3054:3079   */\n      gt\n        /* \"#utility.yul\":3051:3163   */\n      iszero\n      tag_153\n      jumpi\n        /* \"#utility.yul\":3082:3161   */\n      tag_154\n      tag_76\n      jump\t// in\n    tag_154:\n        /* \"#utility.yul\":3051:3163   */\n    tag_153:\n        /* \"#utility.yul\":3172:3226   */\n      tag_155\n        /* \"#utility.yul\":3219:3225   */\n      dup5\n        /* \"#utility.yul\":3214:3217   */\n      dup3\n        /* \"#utility.yul\":3209:3212   */\n      dup6\n        /* \"#utility.yul\":3172:3226   */\n      tag_82\n      jump\t// in\n    tag_155:\n        /* \"#utility.yul\":2891:3232   */\n      pop\n        /* \"#utility.yul\":2807:3232   */\n      swap4\n      swap3\n      pop\n      pop\n      pop\n      jump\t// out\n        /* \"#utility.yul\":3252:3592   */\n    tag_84:\n        /* \"#utility.yul\":3308:3313   */\n      0x00\n        /* \"#utility.yul\":3357:3360   */\n      dup3\n        /* \"#utility.yul\":3350:3354   */\n      0x1f\n        /* \"#utility.yul\":3342:3348   */\n      dup4\n        /* \"#utility.yul\":3338:3355   */\n      add\n        /* \"#utility.yul\":3334:3361   */\n      slt\n        /* \"#utility.yul\":3324:3446   */\n      tag_157\n      jumpi\n        /* \"#utility.yul\":3365:3444   */\n      tag_158\n      tag_75\n      jump\t// in\n    tag_158:\n        /* \"#utility.yul\":3324:3446   */\n    tag_157:\n        /* \"#utility.yul\":3482:3488   */\n      dup2\n        /* \"#utility.yul\":3469:3489   */\n      calldataload\n        /* \"#utility.yul\":3507:3586   */\n      tag_159\n        /* \"#utility.yul\":3582:3585   */\n      dup5\n        /* \"#utility.yul\":3574:3580   */\n      dup3\n        /* \"#utility.yul\":3567:3571   */\n      0x20\n        /* \"#utility.yul\":3559:3565   */\n      dup7\n        /* \"#utility.yul\":3555:3572   */\n      add\n        /* \"#utility.yul\":3507:3586   */\n      tag_83\n      jump\t// in\n    tag_159:\n        /* \"#utility.yul\":3498:3586   */\n      swap2\n      pop\n        /* \"#utility.yul\":3314:3592   */\n      pop\n        /* \"#utility.yul\":3252:3592   */\n      swap3\n      swap2\n      pop\n      pop\n      jump\t// out\n        /* \"#utility.yul\":3598:5375   */\n    tag_19:\n        /* \"#utility.yul\":3742:3748   */\n      0x00\n        /* \"#utility.yul\":3750:3756   */\n      dup1\n        /* \"#utility.yul\":3758:3764   */\n      0x00\n        /* \"#utility.yul\":3766:3772   */\n      dup1\n        /* \"#utility.yul\":3774:3780   */\n      0x00\n        /* \"#utility.yul\":3782:3788   */\n      dup1\n        /* \"#utility.yul\":3831:3834   */\n      0xc0\n        /* \"#utility.yul\":3819:3828   */\n      dup8\n        /* \"#utility.yul\":3810:3817   */\n      dup10\n        /* \"#utility.yul\":3806:3829   */\n      sub\n        /* \"#utility.yul\":3802:3835   */\n      slt\n        /* \"#utility.yul\":3799:3919   */\n      iszero\n      tag_161\n      jumpi\n        /* \"#utility.yul\":3838:3917   */\n      tag_162\n      tag_69\n      jump\t// in\n    tag_162:\n        /* \"#utility.yul\":3799:3919   */\n    tag_161:\n        /* \"#utility.yul\":3986:3987   */\n      0x00\n        /* \"#utility.yul\":3975:3984   */\n      dup8\n        /* \"#utility.yul\":3971:3988   */\n      add\n        /* \"#utility.yul\":3958:3989   */\n      calldataload\n        /* \"#utility.yul\":4016:4034   */\n      0xffffffffffffffff\n        /* \"#utility.yul\":4008:4014   */\n      dup2\n        /* \"#utility.yul\":4005:4035   */\n      gt\n        /* \"#utility.yul\":4002:4119   */\n      iszero\n      tag_163\n      jumpi\n        /* \"#utility.yul\":4038:4117   */\n      tag_164\n      tag_70\n      jump\t// in\n    tag_164:\n        /* \"#utility.yul\":4002:4119   */\n    tag_163:\n        /* \"#utility.yul\":4143:4206   */\n      tag_165\n        /* \"#utility.yul\":4198:4205   */\n      dup10\n        /* \"#utility.yul\":4189:4195   */\n      dup3\n        /* \"#utility.yul\":4178:4187   */\n      dup11\n        /* \"#utility.yul\":4174:4196   */\n      add\n        /* \"#utility.yul\":4143:4206   */\n      tag_84\n      jump\t// in\n    tag_165:\n        /* \"#utility.yul\":4133:4206   */\n      swap7\n      pop\n        /* \"#utility.yul\":3929:4216   */\n      pop\n        /* \"#utility.yul\":4283:4285   */\n      0x20\n        /* \"#utility.yul\":4272:4281   */\n      dup8\n        /* \"#utility.yul\":4268:4286   */\n      add\n        /* \"#utility.yul\":4255:4287   */\n      calldataload\n        /* \"#utility.yul\":4314:4332   */\n      0xffffffffffffffff\n        /* \"#utility.yul\":4306:4312   */\n      dup2\n        /* \"#utility.yul\":4303:4333   */\n      gt\n        /* \"#utility.yul\":4300:4417   */\n      iszero\n      tag_166\n      jumpi\n        /* \"#utility.yul\":4336:4415   */\n      tag_167\n      tag_70\n      jump\t// in\n    tag_167:\n        /* \"#utility.yul\":4300:4417   */\n    tag_166:\n        /* \"#utility.yul\":4441:4504   */\n      tag_168\n        /* \"#utility.yul\":4496:4503   */\n      dup10\n        /* \"#utility.yul\":4487:4493   */\n      dup3\n        /* \"#utility.yul\":4476:4485   */\n      dup11\n        /* \"#utility.yul\":4472:4494   */\n      add\n        /* \"#utility.yul\":4441:4504   */\n      tag_84\n      jump\t// in\n    tag_168:\n        /* \"#utility.yul\":4431:4504   */\n      swap6\n      pop\n        /* \"#utility.yul\":4226:4514   */\n      pop\n        /* \"#utility.yul\":4581:4583   */\n      0x40\n        /* \"#utility.yul\":4570:4579   */\n      dup8\n        /* \"#utility.yul\":4566:4584   */\n      add\n        /* \"#utility.yul\":4553:4585   */\n      calldataload\n        /* \"#utility.yul\":4612:4630   */\n      0xffffffffffffffff\n        /* \"#utility.yul\":4604:4610   */\n      dup2\n        /* \"#utility.yul\":4601:4631   */\n      gt\n        /* \"#utility.yul\":4598:4715   */\n      iszero\n      tag_169\n      jumpi\n        /* \"#utility.yul\":4634:4713   */\n      tag_170\n      tag_70\n      jump\t// in\n    tag_170:\n        /* \"#utility.yul\":4598:4715   */\n    tag_169:\n        /* \"#utility.yul\":4739:4802   */\n      tag_171\n        /* \"#utility.yul\":4794:4801   */\n      dup10\n        /* \"#utility.yul\":4785:4791   */\n      dup3\n        /* \"#utility.yul\":4774:4783   */\n      dup11\n        /* \"#utility.yul\":4770:4792   */\n      add\n        /* \"#utility.yul\":4739:4802   */\n      tag_84\n      jump\t// in\n    tag_171:\n        /* \"#utility.yul\":4729:4802   */\n      swap5\n      pop\n        /* \"#utility.yul\":4524:4812   */\n      pop\n        /* \"#utility.yul\":4879:4881   */\n      0x60\n        /* \"#utility.yul\":4868:4877   */\n      dup8\n        /* \"#utility.yul\":4864:4882   */\n      add\n        /* \"#utility.yul\":4851:4883   */\n      calldataload\n        /* \"#utility.yul\":4910:4928   */\n      0xffffffffffffffff\n        /* \"#utility.yul\":4902:4908   */\n      dup2\n        /* \"#utility.yul\":4899:4929   */\n      gt\n        /* \"#utility.yul\":4896:5013   */\n      iszero\n      tag_172\n      jumpi\n        /* \"#utility.yul\":4932:5011   */\n      tag_173\n      tag_70\n      jump\t// in\n    tag_173:\n        /* \"#utility.yul\":4896:5013   */\n    tag_172:\n        /* \"#utility.yul\":5037:5100   */\n      tag_174\n        /* \"#utility.yul\":5092:5099   */\n      dup10\n        /* \"#utility.yul\":5083:5089   */\n      dup3\n        /* \"#utility.yul\":5072:5081   */\n      dup11\n        /* \"#utility.yul\":5068:5090   */\n      add\n        /* \"#utility.yul\":5037:5100   */\n      tag_84\n      jump\t// in\n    tag_174:\n        /* \"#utility.yul\":5027:5100   */\n      swap4\n      pop\n        /* \"#utility.yul\":4822:5110   */\n      pop\n        /* \"#utility.yul\":5149:5152   */\n      0x80\n        /* \"#utility.yul\":5176:5229   */\n      tag_175\n        /* \"#utility.yul\":5221:5228   */\n      dup10\n        /* \"#utility.yul\":5212:5218   */\n      dup3\n        /* \"#utility.yul\":5201:5210   */\n      dup11\n        /* \"#utility.yul\":5197:5219   */\n      add\n        /* \"#utility.yul\":5176:5229   */\n      tag_73\n      jump\t// in\n    tag_175:\n        /* \"#utility.yul\":5166:5229   */\n      swap3\n      pop\n        /* \"#utility.yul\":5120:5239   */\n      pop\n        /* \"#utility.yul\":5278:5281   */\n      0xa0\n        /* \"#utility.yul\":5305:5358   */\n      tag_176\n        /* \"#utility.yul\":5350:5357   */\n      dup10\n        /* \"#utility.yul\":5341:5347   */\n      dup3\n        /* \"#utility.yul\":5330:5339   */\n      dup11\n        /* \"#utility.yul\":5326:5348   */\n      add\n        /* \"#utility.yul\":5305:5358   */\n      tag_73\n      jump\t// in\n    tag_176:\n        /* \"#utility.yul\":5295:5358   */\n      swap2\n      pop\n        /* \"#utility.yul\":5249:5368   */\n      pop\n        /* \"#utility.yul\":3598:5375   */\n      swap3\n      swap6\n      pop\n      swap3\n      swap6\n      pop\n      swap3\n      swap6\n      jump\t// out\n        /* \"#utility.yul\":5381:5480   */\n    tag_85:\n        /* \"#utility.yul\":5433:5439   */\n      0x00\n        /* \"#utility.yul\":5467:5472   */\n      dup2\n        /* \"#utility.yul\":5461:5473   */\n      mload\n        /* \"#utility.yul\":5451:5473   */\n      swap1\n      pop\n        /* \"#utility.yul\":5381:5480   */\n      swap2\n      swap1\n      pop\n      jump\t// out\n        /* \"#utility.yul\":5486:5655   */\n    tag_86:\n        /* \"#utility.yul\":5570:5581   */\n      0x00\n        /* \"#utility.yul\":5604:5610   */\n      dup3\n        /* \"#utility.yul\":5599:5602   */\n      dup3\n        /* \"#utility.yul\":5592:5611   */\n      mstore\n        /* \"#utility.yul\":5644:5648   */\n      0x20\n        /* \"#utility.yul\":5639:5642   */\n      dup3\n        /* \"#utility.yul\":5635:5649   */\n      add\n        /* \"#utility.yul\":5620:5649   */\n      swap1\n      pop\n        /* \"#utility.yul\":5486:5655   */\n      swap3\n      swap2\n      pop\n      pop\n      jump\t// out\n        /* \"#utility.yul\":5661:5800   */\n    tag_87:\n        /* \"#utility.yul\":5750:5756   */\n      dup3\n        /* \"#utility.yul\":5745:5748   */\n      dup2\n        /* \"#utility.yul\":5740:5743   */\n      dup4\n        /* \"#utility.yul\":5734:5757   */\n      mcopy\n        /* \"#utility.yul\":5791:5792   */\n      0x00\n        /* \"#utility.yul\":5782:5788   */\n      dup4\n        /* \"#utility.yul\":5777:5780   */\n      dup4\n        /* \"#utility.yul\":5773:5789   */\n      add\n        /* \"#utility.yul\":5766:5793   */\n      mstore\n        /* \"#utility.yul\":5661:5800   */\n      pop\n      pop\n      pop\n      jump\t// out\n        /* \"#utility.yul\":5806:6183   */\n    tag_88:\n        /* \"#utility.yul\":5894:5897   */\n      0x00\n        /* \"#utility.yul\":5922:5961   */\n      tag_181\n        /* \"#utility.yul\":5955:5960   */\n      dup3\n        /* \"#utility.yul\":5922:5961   */\n      tag_85\n      jump\t// in\n    tag_181:\n        /* \"#utility.yul\":5977:6048   */\n      tag_182\n        /* \"#utility.yul\":6041:6047   */\n      dup2\n        /* \"#utility.yul\":6036:6039   */\n      dup6\n        /* \"#utility.yul\":5977:6048   */\n      tag_86\n      jump\t// in\n    tag_182:\n        /* \"#utility.yul\":5970:6048   */\n      swap4\n      pop\n        /* \"#utility.yul\":6057:6122   */\n      tag_183\n        /* \"#utility.yul\":6115:6121   */\n      dup2\n        /* \"#utility.yul\":6110:6113   */\n      dup6\n        /* \"#utility.yul\":6103:6107   */\n      0x20\n        /* \"#utility.yul\":6096:6101   */\n      dup7\n        /* \"#utility.yul\":6092:6108   */\n      add\n        /* \"#utility.yul\":6057:6122   */\n      tag_87\n      jump\t// in\n    tag_183:\n        /* \"#utility.yul\":6147:6176   */\n      tag_184\n        /* \"#utility.yul\":6169:6175   */\n      dup2\n        /* \"#utility.yul\":6147:6176   */\n      tag_77\n      jump\t// in\n    tag_184:\n        /* \"#utility.yul\":6142:6145   */\n      dup5\n        /* \"#utility.yul\":6138:6177   */\n      add\n        /* \"#utility.yul\":6131:6177   */\n      swap2\n      pop\n        /* \"#utility.yul\":5898:6183   */\n      pop\n        /* \"#utility.yul\":5806:6183   */\n      swap3\n      swap2\n      pop\n      pop\n      jump\t// out\n        /* \"#utility.yul\":6189:6279   */\n    tag_89:\n        /* \"#utility.yul\":6223:6230   */\n      0x00\n        /* \"#utility.yul\":6266:6271   */\n      dup2\n        /* \"#utility.yul\":6259:6272   */\n      iszero\n        /* \"#utility.yul\":6252:6273   */\n      iszero\n        /* \"#utility.yul\":6241:6273   */\n      swap1\n      pop\n        /* \"#utility.yul\":6189:6279   */\n      swap2\n      swap1\n      pop\n      jump\t// out\n        /* \"#utility.yul\":6285:6394   */\n    tag_90:\n        /* \"#utility.yul\":6366:6387   */\n      tag_187\n        /* \"#utility.yul\":6381:6386   */\n      dup2\n        /* \"#utility.yul\":6366:6387   */\n      tag_89\n      jump\t// in\n    tag_187:\n        /* \"#utility.yul\":6361:6364   */\n      dup3\n        /* \"#utility.yul\":6354:6388   */\n      mstore\n        /* \"#utility.yul\":6285:6394   */\n      pop\n      pop\n      jump\t// out\n        /* \"#utility.yul\":6400:6526   */\n    tag_91:\n        /* \"#utility.yul\":6437:6444   */\n      0x00\n        /* \"#utility.yul\":6477:6519   */\n      0xffffffffffffffffffffffffffffffffffffffff\n        /* \"#utility.yul\":6470:6475   */\n      dup3\n        /* \"#utility.yul\":6466:6520   */\n      and\n        /* \"#utility.yul\":6455:6520   */\n      swap1\n      pop\n        /* \"#utility.yul\":6400:6526   */\n      swap2\n      swap1\n      pop\n      jump\t// out\n        /* \"#utility.yul\":6532:6628   */\n    tag_92:\n        /* \"#utility.yul\":6569:6576   */\n      0x00\n        /* \"#utility.yul\":6598:6622   */\n      tag_190\n        /* \"#utility.yul\":6616:6621   */\n      dup3\n        /* \"#utility.yul\":6598:6622   */\n      tag_91\n      jump\t// in\n    tag_190:\n        /* \"#utility.yul\":6587:6622   */\n      swap1\n      pop\n        /* \"#utility.yul\":6532:6628   */\n      swap2\n      swap1\n      pop\n      jump\t// out\n        /* \"#utility.yul\":6634:6752   */\n    tag_93:\n        /* \"#utility.yul\":6721:6745   */\n      tag_192\n        /* \"#utility.yul\":6739:6744   */\n      dup2\n        /* \"#utility.yul\":6721:6745   */\n      tag_92\n      jump\t// in\n    tag_192:\n        /* \"#utility.yul\":6716:6719   */\n      dup3\n        /* \"#utility.yul\":6709:6746   */\n      mstore\n        /* \"#utility.yul\":6634:6752   */\n      pop\n      pop\n      jump\t// out\n        /* \"#utility.yul\":6758:7996   */\n    tag_26:\n        /* \"#utility.yul\":7093:7097   */\n      0x00\n        /* \"#utility.yul\":7131:7134   */\n      0xe0\n        /* \"#utility.yul\":7120:7129   */\n      dup3\n        /* \"#utility.yul\":7116:7135   */\n      add\n        /* \"#utility.yul\":7108:7135   */\n      swap1\n      pop\n        /* \"#utility.yul\":7181:7190   */\n      dup2\n        /* \"#utility.yul\":7175:7179   */\n      dup2\n        /* \"#utility.yul\":7171:7191   */\n      sub\n        /* \"#utility.yul\":7167:7168   */\n      0x00\n        /* \"#utility.yul\":7156:7165   */\n      dup4\n        /* \"#utility.yul\":7152:7169   */\n      add\n        /* \"#utility.yul\":7145:7192   */\n      mstore\n        /* \"#utility.yul\":7209:7287   */\n      tag_194\n        /* \"#utility.yul\":7282:7286   */\n      dup2\n        /* \"#utility.yul\":7273:7279   */\n      dup11\n        /* \"#utility.yul\":7209:7287   */\n      tag_88\n      jump\t// in\n    tag_194:\n        /* \"#utility.yul\":7201:7287   */\n      swap1\n      pop\n        /* \"#utility.yul\":7334:7343   */\n      dup2\n        /* \"#utility.yul\":7328:7332   */\n      dup2\n        /* \"#utility.yul\":7324:7344   */\n      sub\n        /* \"#utility.yul\":7319:7321   */\n      0x20\n        /* \"#utility.yul\":7308:7317   */\n      dup4\n        /* \"#utility.yul\":7304:7322   */\n      add\n        /* \"#utility.yul\":7297:7345   */\n      mstore\n        /* \"#utility.yul\":7362:7440   */\n      tag_195\n        /* \"#utility.yul\":7435:7439   */\n      dup2\n        /* \"#utility.yul\":7426:7432   */\n      dup10\n        /* \"#utility.yul\":7362:7440   */\n      tag_88\n      jump\t// in\n    tag_195:\n        /* \"#utility.yul\":7354:7440   */\n      swap1\n      pop\n        /* \"#utility.yul\":7487:7496   */\n      dup2\n        /* \"#utility.yul\":7481:7485   */\n      dup2\n        /* \"#utility.yul\":7477:7497   */\n      sub\n        /* \"#utility.yul\":7472:7474   */\n      0x40\n        /* \"#utility.yul\":7461:7470   */\n      dup4\n        /* \"#utility.yul\":7457:7475   */\n      add\n        /* \"#utility.yul\":7450:7498   */\n      mstore\n        /* \"#utility.yul\":7515:7593   */\n      tag_196\n        /* \"#utility.yul\":7588:7592   */\n      dup2\n        /* \"#utility.yul\":7579:7585   */\n      dup9\n        /* \"#utility.yul\":7515:7593   */\n      tag_88\n      jump\t// in\n    tag_196:\n        /* \"#utility.yul\":7507:7593   */\n      swap1\n      pop\n        /* \"#utility.yul\":7603:7675   */\n      tag_197\n        /* \"#utility.yul\":7671:7673   */\n      0x60\n        /* \"#utility.yul\":7660:7669   */\n      dup4\n        /* \"#utility.yul\":7656:7674   */\n      add\n        /* \"#utility.yul\":7647:7653   */\n      dup8\n        /* \"#utility.yul\":7603:7675   */\n      tag_74\n      jump\t// in\n    tag_197:\n        /* \"#utility.yul\":7685:7752   */\n      tag_198\n        /* \"#utility.yul\":7747:7750   */\n      0x80\n        /* \"#utility.yul\":7736:7745   */\n      dup4\n        /* \"#utility.yul\":7732:7751   */\n      add\n        /* \"#utility.yul\":7723:7729   */\n      dup7\n        /* \"#utility.yul\":7685:7752   */\n      tag_90\n      jump\t// in\n    tag_198:\n        /* \"#utility.yul\":7800:7809   */\n      dup2\n        /* \"#utility.yul\":7794:7798   */\n      dup2\n        /* \"#utility.yul\":7790:7810   */\n      sub\n        /* \"#utility.yul\":7784:7787   */\n      0xa0\n        /* \"#utility.yul\":7773:7782   */\n      dup4\n        /* \"#utility.yul\":7769:7788   */\n      add\n        /* \"#utility.yul\":7762:7811   */\n      mstore\n        /* \"#utility.yul\":7828:7906   */\n      tag_199\n        /* \"#utility.yul\":7901:7905   */\n      dup2\n        /* \"#utility.yul\":7892:7898   */\n      dup6\n        /* \"#utility.yul\":7828:7906   */\n      tag_88\n      jump\t// in\n    tag_199:\n        /* \"#utility.yul\":7820:7906   */\n      swap1\n      pop\n        /* \"#utility.yul\":7916:7989   */\n      tag_200\n        /* \"#utility.yul\":7984:7987   */\n      0xc0\n        /* \"#utility.yul\":7973:7982   */\n      dup4\n        /* \"#utility.yul\":7969:7988   */\n      add\n        /* \"#utility.yul\":7960:7966   */\n      dup5\n        /* \"#utility.yul\":7916:7989   */\n      tag_93\n      jump\t// in\n    tag_200:\n        /* \"#utility.yul\":6758:7996   */\n      swap9\n      swap8\n      pop\n      pop\n      pop\n      pop\n      pop\n      pop\n      pop\n      pop\n      jump\t// out\n        /* \"#utility.yul\":8002:8170   */\n    tag_94:\n        /* \"#utility.yul\":8142:8162   */\n      0x696e73756666696369656e742066756e64730000000000000000000000000000\n        /* \"#utility.yul\":8138:8139   */\n      0x00\n        /* \"#utility.yul\":8130:8136   */\n      dup3\n        /* \"#utility.yul\":8126:8140   */\n      add\n        /* \"#utility.yul\":8119:8163   */\n      mstore\n        /* \"#utility.yul\":8002:8170   */\n      pop\n      jump\t// out\n        /* \"#utility.yul\":8176:8542   */\n    tag_95:\n        /* \"#utility.yul\":8318:8321   */\n      0x00\n        /* \"#utility.yul\":8339:8406   */\n      tag_203\n        /* \"#utility.yul\":8403:8405   */\n      0x12\n        /* \"#utility.yul\":8398:8401   */\n      dup4\n        /* \"#utility.yul\":8339:8406   */\n      tag_86\n      jump\t// in\n    tag_203:\n        /* \"#utility.yul\":8332:8406   */\n      swap2\n      pop\n        /* \"#utility.yul\":8415:8508   */\n      tag_204\n        /* \"#utility.yul\":8504:8507   */\n      dup3\n        /* \"#utility.yul\":8415:8508   */\n      tag_94\n      jump\t// in\n    tag_204:\n        /* \"#utility.yul\":8533:8535   */\n      0x20\n        /* \"#utility.yul\":8528:8531   */\n      dup3\n        /* \"#utility.yul\":8524:8536   */\n      add\n        /* \"#utility.yul\":8517:8536   */\n      swap1\n      pop\n        /* \"#utility.yul\":8176:8542   */\n      swap2\n      swap1\n      pop\n      jump\t// out\n        /* \"#utility.yul\":8548:8967   */\n    tag_30:\n        /* \"#utility.yul\":8714:8718   */\n      0x00\n        /* \"#utility.yul\":8752:8754   */\n      0x20\n        /* \"#utility.yul\":8741:8750   */\n      dup3\n        /* \"#utility.yul\":8737:8755   */\n      add\n        /* \"#utility.yul\":8729:8755   */\n      swap1\n      pop\n        /* \"#utility.yul\":8801:8810   */\n      dup2\n        /* \"#utility.yul\":8795:8799   */\n      dup2\n        /* \"#utility.yul\":8791:8811   */\n      sub\n        /* \"#utility.yul\":8787:8788   */\n      0x00\n        /* \"#utility.yul\":8776:8785   */\n      dup4\n        /* \"#utility.yul\":8772:8789   */\n      add\n        /* \"#utility.yul\":8765:8812   */\n      mstore\n        /* \"#utility.yul\":8829:8960   */\n      tag_206\n        /* \"#utility.yul\":8955:8959   */\n      dup2\n        /* \"#utility.yul\":8829:8960   */\n      tag_95\n      jump\t// in\n    tag_206:\n        /* \"#utility.yul\":8821:8960   */\n      swap1\n      pop\n        /* \"#utility.yul\":8548:8967   */\n      swap2\n      swap1\n      pop\n      jump\t// out\n        /* \"#utility.yul\":8973:9144   */\n    tag_96:\n        /* \"#utility.yul\":9113:9136   */\n      0x73686f65206973206e6f7420617661696c61626c650000000000000000000000\n        /* \"#utility.yul\":9109:9110   */\n      0x00\n        /* \"#utility.yul\":9101:9107   */\n      dup3\n        /* \"#utility.yul\":9097:9111   */\n      add\n        /* \"#utility.yul\":9090:9137   */\n      mstore\n        /* \"#utility.yul\":8973:9144   */\n      pop\n      jump\t// out\n        /* \"#utility.yul\":9150:9516   */\n    tag_97:\n        /* \"#utility.yul\":9292:9295   */\n      0x00\n        /* \"#utility.yul\":9313:9380   */\n      tag_209\n        /* \"#utility.yul\":9377:9379   */\n      0x15\n        /* \"#utility.yul\":9372:9375   */\n      dup4\n        /* \"#utility.yul\":9313:9380   */\n      tag_86\n      jump\t// in\n    tag_209:\n        /* \"#utility.yul\":9306:9380   */\n      swap2\n      pop\n        /* \"#utility.yul\":9389:9482   */\n      tag_210\n        /* \"#utility.yul\":9478:9481   */\n      dup3\n        /* \"#utility.yul\":9389:9482   */\n      tag_96\n      jump\t// in\n    tag_210:\n        /* \"#utility.yul\":9507:9509   */\n      0x20\n        /* \"#utility.yul\":9502:9505   */\n      dup3\n        /* \"#utility.yul\":9498:9510   */\n      add\n        /* \"#utility.yul\":9491:9510   */\n      swap1\n      pop\n        /* \"#utility.yul\":9150:9516   */\n      swap2\n      swap1\n      pop\n      jump\t// out\n        /* \"#utility.yul\":9522:9941   */\n    tag_33:\n        /* \"#utility.yul\":9688:9692   */\n      0x00\n        /* \"#utility.yul\":9726:9728   */\n      0x20\n        /* \"#utility.yul\":9715:9724   */\n      dup3\n        /* \"#utility.yul\":9711:9729   */\n      add\n        /* \"#utility.yul\":9703:9729   */\n      swap1\n      pop\n        /* \"#utility.yul\":9775:9784   */\n      dup2\n        /* \"#utility.yul\":9769:9773   */\n      dup2\n        /* \"#utility.yul\":9765:9785   */\n      sub\n        /* \"#utility.yul\":9761:9762   */\n      0x00\n        /* \"#utility.yul\":9750:9759   */\n      dup4\n        /* \"#utility.yul\":9746:9763   */\n      add\n        /* \"#utility.yul\":9739:9786   */\n      mstore\n        /* \"#utility.yul\":9803:9934   */\n      tag_212\n        /* \"#utility.yul\":9929:9933   */\n      dup2\n        /* \"#utility.yul\":9803:9934   */\n      tag_97\n      jump\t// in\n    tag_212:\n        /* \"#utility.yul\":9795:9934   */\n      swap1\n      pop\n        /* \"#utility.yul\":9522:9941   */\n      swap2\n      swap1\n      pop\n      jump\t// out\n        /* \"#utility.yul\":9947:10106   */\n    tag_98:\n        /* \"#utility.yul\":10087:10098   */\n      0x73686f6520736f6c640000000000000000000000000000000000000000000000\n        /* \"#utility.yul\":10083:10084   */\n      0x00\n        /* \"#utility.yul\":10075:10081   */\n      dup3\n        /* \"#utility.yul\":10071:10085   */\n      add\n        /* \"#utility.yul\":10064:10099   */\n      mstore\n        /* \"#utility.yul\":9947:10106   */\n      pop\n      jump\t// out\n        /* \"#utility.yul\":10112:10477   */\n    tag_99:\n        /* \"#utility.yul\":10254:10257   */\n      0x00\n        /* \"#utility.yul\":10275:10341   */\n      tag_215\n        /* \"#utility.yul\":10339:10340   */\n      0x09\n        /* \"#utility.yul\":10334:10337   */\n      dup4\n        /* \"#utility.yul\":10275:10341   */\n      tag_86\n      jump\t// in\n    tag_215:\n        /* \"#utility.yul\":10268:10341   */\n      swap2\n      pop\n        /* \"#utility.yul\":10350:10443   */\n      tag_216\n        /* \"#utility.yul\":10439:10442   */\n      dup3\n        /* \"#utility.yul\":10350:10443   */\n      tag_98\n      jump\t// in\n    tag_216:\n        /* \"#utility.yul\":10468:10470   */\n      0x20\n        /* \"#utility.yul\":10463:10466   */\n      dup3\n        /* \"#utility.yul\":10459:10471   */\n      add\n        /* \"#utility.yul\":10452:10471   */\n      swap1\n      pop\n        /* \"#utility.yul\":10112:10477   */\n      swap2\n      swap1\n      pop\n      jump\t// out\n        /* \"#utility.yul\":10483:11012   */\n    tag_37:\n        /* \"#utility.yul\":10677:10681   */\n      0x00\n        /* \"#utility.yul\":10715:10717   */\n      0x40\n        /* \"#utility.yul\":10704:10713   */\n      dup3\n        /* \"#utility.yul\":10700:10718   */\n      add\n        /* \"#utility.yul\":10692:10718   */\n      swap1\n      pop\n        /* \"#utility.yul\":10728:10799   */\n      tag_218\n        /* \"#utility.yul\":10796:10797   */\n      0x00\n        /* \"#utility.yul\":10785:10794   */\n      dup4\n        /* \"#utility.yul\":10781:10798   */\n      add\n        /* \"#utility.yul\":10772:10778   */\n      dup5\n        /* \"#utility.yul\":10728:10799   */\n      tag_74\n      jump\t// in\n    tag_218:\n        /* \"#utility.yul\":10846:10855   */\n      dup2\n        /* \"#utility.yul\":10840:10844   */\n      dup2\n        /* \"#utility.yul\":10836:10856   */\n      sub\n        /* \"#utility.yul\":10831:10833   */\n      0x20\n        /* \"#utility.yul\":10820:10829   */\n      dup4\n        /* \"#utility.yul\":10816:10834   */\n      add\n        /* \"#utility.yul\":10809:10857   */\n      mstore\n        /* \"#utility.yul\":10874:11005   */\n      tag_219\n        /* \"#utility.yul\":11000:11004   */\n      dup2\n        /* \"#utility.yul\":10874:11005   */\n      tag_99\n      jump\t// in\n    tag_219:\n        /* \"#utility.yul\":10866:11005   */\n      swap1\n      pop\n        /* \"#utility.yul\":10483:11012   */\n      swap3\n      swap2\n      pop\n      pop\n      jump\t// out\n        /* \"#utility.yul\":11018:11198   */\n    tag_100:\n        /* \"#utility.yul\":11066:11143   */\n      0x4e487b7100000000000000000000000000000000000000000000000000000000\n        /* \"#utility.yul\":11063:11064   */\n      0x00\n        /* \"#utility.yul\":11056:11144   */\n      mstore\n        /* \"#utility.yul\":11163:11167   */\n      0x22\n        /* \"#utility.yul\":11160:11161   */\n      0x04\n        /* \"#utility.yul\":11153:11168   */\n      mstore\n        /* \"#utility.yul\":11187:11191   */\n      0x24\n        /* \"#utility.yul\":11184:11185   */\n      0x00\n        /* \"#utility.yul\":11177:11192   */\n      revert\n        /* \"#utility.yul\":11204:11524   */\n    tag_48:\n        /* \"#utility.yul\":11248:11254   */\n      0x00\n        /* \"#utility.yul\":11285:11286   */\n      0x02\n        /* \"#utility.yul\":11279:11283   */\n      dup3\n        /* \"#utility.yul\":11275:11287   */\n      div\n        /* \"#utility.yul\":11265:11287   */\n      swap1\n      pop\n        /* \"#utility.yul\":11332:11333   */\n      0x01\n        /* \"#utility.yul\":11326:11330   */\n      dup3\n        /* \"#utility.yul\":11322:11334   */\n      and\n        /* \"#utility.yul\":11353:11371   */\n      dup1\n        /* \"#utility.yul\":11343:11424   */\n      tag_222\n      jumpi\n        /* \"#utility.yul\":11409:11413   */\n      0x7f\n        /* \"#utility.yul\":11401:11407   */\n      dup3\n        /* \"#utility.yul\":11397:11414   */\n      and\n        /* \"#utility.yul\":11387:11414   */\n      swap2\n      pop\n        /* \"#utility.yul\":11343:11424   */\n    tag_222:\n        /* \"#utility.yul\":11471:11473   */\n      0x20\n        /* \"#utility.yul\":11463:11469   */\n      dup3\n        /* \"#utility.yul\":11460:11474   */\n      lt\n        /* \"#utility.yul\":11440:11458   */\n      dup2\n        /* \"#utility.yul\":11437:11475   */\n      sub\n        /* \"#utility.yul\":11434:11518   */\n      tag_223\n      jumpi\n        /* \"#utility.yul\":11490:11508   */\n      tag_224\n      tag_100\n      jump\t// in\n    tag_224:\n        /* \"#utility.yul\":11434:11518   */\n    tag_223:\n        /* \"#utility.yul\":11255:11524   */\n      pop\n        /* \"#utility.yul\":11204:11524   */\n      swap2\n      swap1\n      pop\n      jump\t// out\n        /* \"#utility.yul\":11530:11671   */\n    tag_101:\n        /* \"#utility.yul\":11579:11583   */\n      0x00\n        /* \"#utility.yul\":11602:11605   */\n      dup2\n        /* \"#utility.yul\":11594:11605   */\n      swap1\n      pop\n        /* \"#utility.yul\":11625:11628   */\n      dup2\n        /* \"#utility.yul\":11622:11623   */\n      0x00\n        /* \"#utility.yul\":11615:11629   */\n      mstore\n        /* \"#utility.yul\":11659:11663   */\n      0x20\n        /* \"#utility.yul\":11656:11657   */\n      0x00\n        /* \"#utility.yul\":11646:11664   */\n      keccak256\n        /* \"#utility.yul\":11638:11664   */\n      swap1\n      pop\n        /* \"#utility.yul\":11530:11671   */\n      swap2\n      swap1\n      pop\n      jump\t// out\n        /* \"#utility.yul\":11677:11770   */\n    tag_102:\n        /* \"#utility.yul\":11714:11720   */\n      0x00\n        /* \"#utility.yul\":11761:11763   */\n      0x20\n        /* \"#utility.yul\":11756:11758   */\n      0x1f\n        /* \"#utility.yul\":11749:11754   */\n      dup4\n        /* \"#utility.yul\":11745:11759   */\n      add\n        /* \"#utility.yul\":11741:11764   */\n      div\n        /* \"#utility.yul\":11731:11764   */\n      swap1\n      pop\n        /* \"#utility.yul\":11677:11770   */\n      swap2\n      swap1\n      pop\n      jump\t// out\n        /* \"#utility.yul\":11776:11883   */\n    tag_103:\n        /* \"#utility.yul\":11820:11828   */\n      0x00\n        /* \"#utility.yul\":11870:11875   */\n      dup3\n        /* \"#utility.yul\":11864:11868   */\n      dup3\n        /* \"#utility.yul\":11860:11876   */\n      shl\n        /* \"#utility.yul\":11839:11876   */\n      swap1\n      pop\n        /* \"#utility.yul\":11776:11883   */\n      swap3\n      swap2\n      pop\n      pop\n      jump\t// out\n        /* \"#utility.yul\":11889:12282   */\n    tag_104:\n        /* \"#utility.yul\":11958:11964   */\n      0x00\n        /* \"#utility.yul\":12008:12009   */\n      0x08\n        /* \"#utility.yul\":11996:12006   */\n      dup4\n        /* \"#utility.yul\":11992:12010   */\n      mul\n        /* \"#utility.yul\":12031:12128   */\n      tag_229\n        /* \"#utility.yul\":12061:12127   */\n      0xffffffffffffffffffffffffffffffffffffffffffffffffffffffffffffffff\n        /* \"#utility.yul\":12050:12059   */\n      dup3\n        /* \"#utility.yul\":12031:12128   */\n      tag_103\n      jump\t// in\n    tag_229:\n        /* \"#utility.yul\":12149:12188   */\n      tag_230\n        /* \"#utility.yul\":12179:12187   */\n      dup7\n        /* \"#utility.yul\":12168:12177   */\n      dup4\n        /* \"#utility.yul\":12149:12188   */\n      tag_103\n      jump\t// in\n    tag_230:\n        /* \"#utility.yul\":12137:12188   */\n      swap6\n      pop\n        /* \"#utility.yul\":12221:12225   */\n      dup1\n        /* \"#utility.yul\":12217:12226   */\n      not\n        /* \"#utility.yul\":12210:12215   */\n      dup5\n        /* \"#utility.yul\":12206:12227   */\n      and\n        /* \"#utility.yul\":12197:12227   */\n      swap4\n      pop\n        /* \"#utility.yul\":12270:12274   */\n      dup1\n        /* \"#utility.yul\":12260:12268   */\n      dup7\n        /* \"#utility.yul\":12256:12275   */\n      and\n        /* \"#utility.yul\":12249:12254   */\n      dup5\n        /* \"#utility.yul\":12246:12276   */\n      or\n        /* \"#utility.yul\":12236:12276   */\n      swap3\n      pop\n        /* \"#utility.yul\":11965:12282   */\n      pop\n      pop\n        /* \"#utility.yul\":11889:12282   */\n      swap4\n      swap3\n      pop\n      pop\n      pop\n      jump\t// out\n        /* \"#utility.yul\":12288:12348   */\n    tag_105:\n        /* \"#utility.yul\":12316:12319   */\n      0x00\n        /* \"#utility.yul\":12337:12342   */\n      dup2\n        /* \"#utility.yul\":12330:12342   */\n      swap1\n      pop\n        /* \"#utility.yul\":12288:12348   */\n      swap2\n      swap1\n      pop\n      jump\t// out\n        /* \"#utility.yul\":12354:12496   */\n    tag_106:\n        /* \"#utility.yul\":12404:12413   */\n      0x00\n        /* \"#utility.yul\":12437:12490   */\n      tag_233\n        /* \"#utility.yul\":12455:12489   */\n      tag_234\n        /* \"#utility.yul\":12464:12488   */\n      tag_235\n        /* \"#utility.yul\":12482:12487   */\n      dup5\n        /* \"#utility.yul\":12464:12488   */\n      tag_71\n      jump\t// in\n    tag_235:\n        /* \"#utility.yul\":12455:12489   */\n      tag_105\n      jump\t// in\n    tag_234:\n        /* \"#utility.yul\":12437:12490   */\n      tag_71\n      jump\t// in\n    tag_233:\n        /* \"#utility.yul\":12424:12490   */\n      swap1\n      pop\n        /* \"#utility.yul\":12354:12496   */\n      swap2\n      swap1\n      pop\n      jump\t// out\n        /* \"#utility.yul\":12502:12577   */\n    tag_107:\n        /* \"#utility.yul\":12545:12548   */\n      0x00\n        /* \"#utility.yul\":12566:12571   */\n      dup2\n        /* \"#utility.yul\":12559:12571   */\n      swap1\n      pop\n        /* \"#utility.yul\":12502:12577   */\n      swap2\n      swap1\n      pop\n      jump\t// out\n        /* \"#utility.yul\":12583:12852   */\n    tag_108:\n        /* \"#utility.yul\":12693:12732   */\n      tag_238\n        /* \"#utility.yul\":12724:12731   */\n      dup4\n        /* \"#utility.yul\":12693:12732   */\n      tag_106\n      jump\t// in\n    tag_238:\n        /* \"#utility.yul\":12754:12845   */\n      tag_239\n        /* \"#utility.yul\":12803:12844   */\n      tag_240\n        /* \"#utility.yul\":12827:12843   */\n      dup3\n        /* \"#utility.yul\":12803:12844   */\n      tag_107\n      jump\t// in\n    tag_240:\n        /* \"#utility.yul\":12795:12801   */\n      dup5\n        /* \"#utility.yul\":12788:12792   */\n      dup5\n        /* \"#utility.yul\":12782:12793   */\n      sload\n        /* \"#utility.yul\":12754:12845   */\n      tag_104\n      jump\t// in\n    tag_239:\n        /* \"#utility.yul\":12748:12752   */\n      dup3\n        /* \"#utility.yul\":12741:12846   */\n      sstore\n        /* \"#utility.yul\":12659:12852   */\n      pop\n        /* \"#utility.yul\":12583:12852   */\n      pop\n      pop\n      pop\n      jump\t// out\n        /* \"#utility.yul\":12858:12931   */\n    tag_109:\n        /* \"#utility.yul\":12903:12906   */\n      0x00\n        /* \"#utility.yul\":12858:12931   */\n      swap1\n      jump\t// out\n        /* \"#utility.yul\":12937:13126   */\n    tag_110:\n        /* \"#utility.yul\":13014:13046   */\n      tag_243\n      tag_109\n      jump\t// in\n    tag_243:\n        /* \"#utility.yul\":13055:13120   */\n      tag_244\n        /* \"#utility.yul\":13113:13119   */\n      dup2\n        /* \"#utility.yul\":13105:13111   */\n      dup5\n        /* \"#utility.yul\":13099:13103   */\n      dup5\n        /* \"#utility.yul\":13055:13120   */\n      tag_108\n      jump\t// in\n    tag_244:\n        /* \"#utility.yul\":12990:13126   */\n      pop\n        /* \"#utility.yul\":12937:13126   */\n      pop\n      pop\n      jump\t// out\n        /* \"#utility.yul\":13132:13318   */\n    tag_111:\n        /* \"#utility.yul\":13192:13312   */\n    tag_246:\n        /* \"#utility.yul\":13209:13212   */\n      dup2\n        /* \"#utility.yul\":13202:13207   */\n      dup2\n        /* \"#utility.yul\":13199:13213   */\n      lt\n        /* \"#utility.yul\":13192:13312   */\n      iszero\n      tag_248\n      jumpi\n        /* \"#utility.yul\":13263:13302   */\n      tag_249\n        /* \"#utility.yul\":13300:13301   */\n      0x00\n        /* \"#utility.yul\":13293:13298   */\n      dup3\n        /* \"#utility.yul\":13263:13302   */\n      tag_110\n      jump\t// in\n    tag_249:\n        /* \"#utility.yul\":13236:13237   */\n      0x01\n        /* \"#utility.yul\":13229:13234   */\n      dup2\n        /* \"#utility.yul\":13225:13238   */\n      add\n        /* \"#utility.yul\":13216:13238   */\n      swap1\n      pop\n        /* \"#utility.yul\":13192:13312   */\n      jump(tag_246)\n    tag_248:\n        /* \"#utility.yul\":13132:13318   */\n      pop\n      pop\n      jump\t// out\n        /* \"#utility.yul\":13324:13867   */\n    tag_112:\n        /* \"#utility.yul\":13425:13427   */\n      0x1f\n        /* \"#utility.yul\":13420:13423   */\n      dup3\n        /* \"#utility.yul\":13417:13428   */\n      gt\n        /* \"#utility.yul\":13414:13860   */\n      iszero\n      tag_251\n      jumpi\n        /* \"#utility.yul\":13459:13497   */\n      tag_252\n        /* \"#utility.yul\":13491:13496   */\n      dup2\n        /* \"#utility.yul\":13459:13497   */\n      tag_101\n      jump\t// in\n    tag_252:\n        /* \"#utility.yul\":13543:13572   */\n      tag_253\n        /* \"#utility.yul\":13561:13571   */\n      dup5\n        /* \"#utility.yul\":13543:13572   */\n      tag_102\n      jump\t// in\n    tag_253:\n        /* \"#utility.yul\":13533:13541   */\n      dup2\n        /* \"#utility.yul\":13529:13573   */\n      add\n        /* \"#utility.yul\":13726:13728   */\n      0x20\n        /* \"#utility.yul\":13714:13724   */\n      dup6\n        /* \"#utility.yul\":13711:13729   */\n      lt\n        /* \"#utility.yul\":13708:13757   */\n      iszero\n      tag_254\n      jumpi\n        /* \"#utility.yul\":13747:13755   */\n      dup2\n        /* \"#utility.yul\":13732:13755   */\n      swap1\n      pop\n        /* \"#utility.yul\":13708:13757   */\n    tag_254:\n        /* \"#utility.yul\":13770:13850   */\n      tag_255\n        /* \"#utility.yul\":13826:13848   */\n      tag_256\n        /* \"#utility.yul\":13844:13847   */\n      dup6\n        /* \"#utility.yul\":13826:13848   */\n      tag_102\n      jump\t// in\n    tag_256:\n        /* \"#utility.yul\":13816:13824   */\n      dup4\n        /* \"#utility.yul\":13812:13849   */\n      add\n        /* \"#utility.yul\":13799:13810   */\n      dup3\n        /* \"#utility.yul\":13770:13850   */\n      tag_111\n      jump\t// in\n    tag_255:\n        /* \"#utility.yul\":13429:13860   */\n      pop\n      pop\n        /* \"#utility.yul\":13414:13860   */\n    tag_251:\n        /* \"#utility.yul\":13324:13867   */\n      pop\n      pop\n      pop\n      jump\t// out\n        /* \"#utility.yul\":13873:13990   */\n    tag_113:\n        /* \"#utility.yul\":13927:13935   */\n      0x00\n        /* \"#utility.yul\":13977:13982   */\n      dup3\n        /* \"#utility.yul\":13971:13975   */\n      dup3\n        /* \"#utility.yul\":13967:13983   */\n      shr\n        /* \"#utility.yul\":13946:13983   */\n      swap1\n      pop\n        /* \"#utility.yul\":13873:13990   */\n      swap3\n      swap2\n      pop\n      pop\n      jump\t// out\n        /* \"#utility.yul\":13996:14165   */\n    tag_114:\n        /* \"#utility.yul\":14040:14046   */\n      0x00\n        /* \"#utility.yul\":14073:14124   */\n      tag_259\n        /* \"#utility.yul\":14121:14122   */\n      0x00\n        /* \"#utility.yul\":14117:14123   */\n      not\n        /* \"#utility.yul\":14109:14114   */\n      dup5\n        /* \"#utility.yul\":14106:14107   */\n      0x08\n        /* \"#utility.yul\":14102:14115   */\n      mul\n        /* \"#utility.yul\":14073:14124   */\n      tag_113\n      jump\t// in\n    tag_259:\n        /* \"#utility.yul\":14069:14125   */\n      not\n        /* \"#utility.yul\":14154:14158   */\n      dup1\n        /* \"#utility.yul\":14148:14152   */\n      dup4\n        /* \"#utility.yul\":14144:14159   */\n      and\n        /* \"#utility.yul\":14134:14159   */\n      swap2\n      pop\n        /* \"#utility.yul\":14047:14165   */\n      pop\n        /* \"#utility.yul\":13996:14165   */\n      swap3\n      swap2\n      pop\n      pop\n      jump\t// out\n        /* \"#utility.yul\":14170:14465   */\n    tag_115:\n        /* \"#utility.yul\":14246:14250   */\n      0x00\n        /* \"#utility.yul\":14392:14421   */\n      tag_261\n        /* \"#utility.yul\":14417:14420   */\n      dup4\n        /* \"#utility.yul\":14411:14415   */\n      dup4\n        /* \"#utility.yul\":14392:14421   */\n      tag_114\n      jump\t// in\n    tag_261:\n        /* \"#utility.yul\":14384:14421   */\n      swap2\n      pop\n        /* \"#utility.yul\":14454:14457   */\n      dup3\n        /* \"#utility.yul\":14451:14452   */\n      0x02\n        /* \"#utility.yul\":14447:14458   */\n      mul\n        /* \"#utility.yul\":14441:14445   */\n      dup3\n        /* \"#utility.yul\":14438:14459   */\n      or\n        /* \"#utility.yul\":14430:14459   */\n      swap1\n      pop\n        /* \"#utility.yul\":14170:14465   */\n      swap3\n      swap2\n      pop\n      pop\n      jump\t// out\n        /* \"#utility.yul\":14470:15865   */\n    tag_42:\n        /* \"#utility.yul\":14587:14624   */\n      tag_263\n        /* \"#utility.yul\":14620:14623   */\n      dup3\n        /* \"#utility.yul\":14587:14624   */\n      tag_85\n      jump\t// in\n    tag_263:\n        /* \"#utility.yul\":14689:14707   */\n      0xffffffffffffffff\n        /* \"#utility.yul\":14681:14687   */\n      dup2\n        /* \"#utility.yul\":14678:14708   */\n      gt\n        /* \"#utility.yul\":14675:14731   */\n      iszero\n      tag_264\n      jumpi\n        /* \"#utility.yul\":14711:14729   */\n      tag_265\n      tag_78\n      jump\t// in\n    tag_265:\n        /* \"#utility.yul\":14675:14731   */\n    tag_264:\n        /* \"#utility.yul\":14755:14793   */\n      tag_266\n        /* \"#utility.yul\":14787:14791   */\n      dup3\n        /* \"#utility.yul\":14781:14792   */\n      sload\n        /* \"#utility.yul\":14755:14793   */\n      tag_48\n      jump\t// in\n    tag_266:\n        /* \"#utility.yul\":14840:14907   */\n      tag_267\n        /* \"#utility.yul\":14900:14906   */\n      dup3\n        /* \"#utility.yul\":14892:14898   */\n      dup3\n        /* \"#utility.yul\":14886:14890   */\n      dup6\n        /* \"#utility.yul\":14840:14907   */\n      tag_112\n      jump\t// in\n    tag_267:\n        /* \"#utility.yul\":14934:14935   */\n      0x00\n        /* \"#utility.yul\":14958:14962   */\n      0x20\n        /* \"#utility.yul\":14945:14962   */\n      swap1\n      pop\n        /* \"#utility.yul\":14990:14992   */\n      0x1f\n        /* \"#utility.yul\":14982:14988   */\n      dup4\n        /* \"#utility.yul\":14979:14993   */\n      gt\n        /* \"#utility.yul\":15007:15008   */\n      0x01\n        /* \"#utility.yul\":15002:15620   */\n      dup2\n      eq\n      tag_269\n      jumpi\n        /* \"#utility.yul\":15664:15665   */\n      0x00\n        /* \"#utility.yul\":15681:15687   */\n      dup5\n        /* \"#utility.yul\":15678:15755   */\n      iszero\n      tag_270\n      jumpi\n        /* \"#utility.yul\":15730:15739   */\n      dup3\n        /* \"#utility.yul\":15725:15728   */\n      dup8\n        /* \"#utility.yul\":15721:15740   */\n      add\n        /* \"#utility.yul\":15715:15741   */\n      mload\n        /* \"#utility.yul\":15706:15741   */\n      swap1\n      pop\n        /* \"#utility.yul\":15678:15755   */\n    tag_270:\n        /* \"#utility.yul\":15781:15848   */\n      tag_271\n        /* \"#utility.yul\":15841:15847   */\n      dup6\n        /* \"#utility.yul\":15834:15839   */\n      dup3\n        /* \"#utility.yul\":15781:15848   */\n      tag_115\n      jump\t// in\n    tag_271:\n        /* \"#utility.yul\":15775:15779   */\n      dup7\n        /* \"#utility.yul\":15768:15849   */\n      sstore\n        /* \"#utility.yul\":15637:15859   */\n      pop\n        /* \"#utility.yul\":14972:15859   */\n      jump(tag_268)\n        /* \"#utility.yul\":15002:15620   */\n    tag_269:\n        /* \"#utility.yul\":15054:15058   */\n      0x1f\n        /* \"#utility.yul\":15050:15059   */\n      not\n        /* \"#utility.yul\":15042:15048   */\n      dup5\n        /* \"#utility.yul\":15038:15060   */\n      and\n        /* \"#utility.yul\":15088:15125   */\n      tag_272\n        /* \"#utility.yul\":15120:15124   */\n      dup7\n        /* \"#utility.yul\":15088:15125   */\n      tag_101\n      jump\t// in\n    tag_272:\n        /* \"#utility.yul\":15147:15148   */\n      0x00\n        /* \"#utility.yul\":15161:15369   */\n    tag_273:\n        /* \"#utility.yul\":15175:15182   */\n      dup3\n        /* \"#utility.yul\":15172:15173   */\n      dup2\n        /* \"#utility.yul\":15169:15183   */\n      lt\n        /* \"#utility.yul\":15161:15369   */\n      iszero\n      tag_275\n      jumpi\n        /* \"#utility.yul\":15254:15263   */\n      dup5\n        /* \"#utility.yul\":15249:15252   */\n      dup10\n        /* \"#utility.yul\":15245:15264   */\n      add\n        /* \"#utility.yul\":15239:15265   */\n      mload\n        /* \"#utility.yul\":15231:15237   */\n      dup3\n        /* \"#utility.yul\":15224:15266   */\n      sstore\n        /* \"#utility.yul\":15305:15306   */\n      0x01\n        /* \"#utility.yul\":15297:15303   */\n      dup3\n        /* \"#utility.yul\":15293:15307   */\n      add\n        /* \"#utility.yul\":15283:15307   */\n      swap2\n      pop\n        /* \"#utility.yul\":15352:15354   */\n      0x20\n        /* \"#utility.yul\":15341:15350   */\n      dup6\n        /* \"#utility.yul\":15337:15355   */\n      add\n        /* \"#utility.yul\":15324:15355   */\n      swap5\n      pop\n        /* \"#utility.yul\":15198:15202   */\n      0x20\n        /* \"#utility.yul\":15195:15196   */\n      dup2\n        /* \"#utility.yul\":15191:15203   */\n      add\n        /* \"#utility.yul\":15186:15203   */\n      swap1\n      pop\n        /* \"#utility.yul\":15161:15369   */\n      jump(tag_273)\n    tag_275:\n        /* \"#utility.yul\":15397:15403   */\n      dup7\n        /* \"#utility.yul\":15388:15395   */\n      dup4\n        /* \"#utility.yul\":15385:15404   */\n      lt\n        /* \"#utility.yul\":15382:15561   */\n      iszero\n      tag_276\n      jumpi\n        /* \"#utility.yul\":15455:15464   */\n      dup5\n        /* \"#utility.yul\":15450:15453   */\n      dup10\n        /* \"#utility.yul\":15446:15465   */\n      add\n        /* \"#utility.yul\":15440:15466   */\n      mload\n        /* \"#utility.yul\":15498:15546   */\n      tag_277\n        /* \"#utility.yul\":15540:15544   */\n      0x1f\n        /* \"#utility.yul\":15532:15538   */\n      dup10\n        /* \"#utility.yul\":15528:15545   */\n      and\n        /* \"#utility.yul\":15517:15526   */\n      dup3\n        /* \"#utility.yul\":15498:15546   */\n      tag_114\n      jump\t// in\n    tag_277:\n        /* \"#utility.yul\":15490:15496   */\n      dup4\n        /* \"#utility.yul\":15483:15547   */\n      sstore\n        /* \"#utility.yul\":15405:15561   */\n      pop\n        /* \"#utility.yul\":15382:15561   */\n    tag_276:\n        /* \"#utility.yul\":15607:15608   */\n      0x01\n        /* \"#utility.yul\":15603:15604   */\n      0x02\n        /* \"#utility.yul\":15595:15601   */\n      dup9\n        /* \"#utility.yul\":15591:15605   */\n      mul\n        /* \"#utility.yul\":15587:15609   */\n      add\n        /* \"#utility.yul\":15581:15585   */\n      dup9\n        /* \"#utility.yul\":15574:15610   */\n      sstore\n        /* \"#utility.yul\":15009:15620   */\n      pop\n      pop\n      pop\n        /* \"#utility.yul\":14972:15859   */\n    tag_268:\n      pop\n        /* \"#utility.yul\":14562:15865   */\n      pop\n      pop\n      pop\n        /* \"#utility.yul\":14470:15865   */\n      pop\n      pop\n      jump\t// out\n\n    auxdata: 0xa264697066735822122038de9f79da5e0fa6931c53d3695f54b5be62015b9c82c4a5eb090cf89157f88564736f6c634300081a0033\n}\n",
				"bytecode": {
					"linkReferences": {},
					"object": "6080604052348015600e575f80fd5b50610efa8061001c5f395ff3fe60806040526004361061003e575f3560e01c80631315879f14610042578063136365481461005e57806359f26e961461009a578063607473cf146100c2575b5f80fd5b61005c600480360381019061005791906106eb565b610104565b005b348015610069575f80fd5b50610084600480360381019061007f91906106eb565b6102b0565b6040516100919190610725565b60405180910390f35b3480156100a5575f80fd5b506100c060048036038101906100bb919061087a565b6102d0565b005b3480156100cd575f80fd5b506100e860048036038101906100e391906106eb565b610427565b6040516100fb9796959493929190610a2c565b60405180910390f35b5f805f8381526020019081526020015f2090508060030154341461015d576040517f08c379a000000000000000000000000000000000000000000000000000000000815260040161015490610aff565b60405180910390fd5b806004015f9054906101000a900460ff166101ad576040517f08c379a00000000000000000000000000000000000000000000000000000000081526004016101a490610b67565b60405180910390fd5b33816006015f6101000a81548173ffffffffffffffffffffffffffffffffffffffff021916908373ffffffffffffffffffffffffffffffffffffffff1602179055505f816004015f6101000a81548160ff021916908315150217905550806006015f9054906101000a900473ffffffffffffffffffffffffffffffffffffffff1673ffffffffffffffffffffffffffffffffffffffff166108fc826003015490811502906040515f60405180830381858888f19350505050158015610274573d5f803e3d5ffd5b507f04ba5d41600a02c8b7e1ed4632cbf95b58ad9725c5d4acffc2daa81b2298ec9b826040516102a49190610bcf565b60405180910390a15050565b600181815481106102bf575f80fd5b905f5260205f20015f915090505481565b5f6040518060e001604052808881526020018781526020018681526020018481526020016001151581526020018581526020013373ffffffffffffffffffffffffffffffffffffffff168152509050805f808481526020019081526020015f205f820151815f0190816103439190610df5565b5060208201518160010190816103599190610df5565b50604082015181600201908161036f9190610df5565b50606082015181600301556080820151816004015f6101000a81548160ff02191690831515021790555060a08201518160050190816103ae9190610df5565b5060c0820151816006015f6101000a81548173ffffffffffffffffffffffffffffffffffffffff021916908373ffffffffffffffffffffffffffffffffffffffff160217905550905050600182908060018154018082558091505060019003905f5260205f20015f909190919091505550505050505050565b5f602052805f5260405f205f91509050805f01805461044590610c28565b80601f016020809104026020016040519081016040528092919081815260200182805461047190610c28565b80156104bc5780601f10610493576101008083540402835291602001916104bc565b820191905f5260205f20905b81548152906001019060200180831161049f57829003601f168201915b5050505050908060010180546104d190610c28565b80601f01602080910402602001604051908101604052809291908181526020018280546104fd90610c28565b80156105485780601f1061051f57610100808354040283529160200191610548565b820191905f5260205f20905b81548152906001019060200180831161052b57829003601f168201915b50505050509080600201805461055d90610c28565b80601f016020809104026020016040519081016040528092919081815260200182805461058990610c28565b80156105d45780601f106105ab576101008083540402835291602001916105d4565b820191905f5260205f20905b8154815290600101906020018083116105b757829003601f168201915b505050505090806003015490806004015f9054906101000a900460ff169080600501805461060190610c28565b80601f016020809104026020016040519081016040528092919081815260200182805461062d90610c28565b80156106785780601f1061064f57610100808354040283529160200191610678565b820191905f5260205f20905b81548152906001019060200180831161065b57829003601f168201915b505050505090806006015f9054906101000a900473ffffffffffffffffffffffffffffffffffffffff16905087565b5f604051905090565b5f80fd5b5f80fd5b5f819050919050565b6106ca816106b8565b81146106d4575f80fd5b50565b5f813590506106e5816106c1565b92915050565b5f60208284031215610700576106ff6106b0565b5b5f61070d848285016106d7565b91505092915050565b61071f816106b8565b82525050565b5f6020820190506107385f830184610716565b92915050565b5f80fd5b5f80fd5b5f601f19601f8301169050919050565b7f4e487b71000000000000000000000000000000000000000000000000000000005f52604160045260245ffd5b61078c82610746565b810181811067ffffffffffffffff821117156107ab576107aa610756565b5b80604052505050565b5f6107bd6106a7565b90506107c98282610783565b919050565b5f67ffffffffffffffff8211156107e8576107e7610756565b5b6107f182610746565b9050602081019050919050565b828183375f83830152505050565b5f61081e610819846107ce565b6107b4565b90508281526020810184848401111561083a57610839610742565b5b6108458482856107fe565b509392505050565b5f82601f8301126108615761086061073e565b5b813561087184826020860161080c565b91505092915050565b5f805f805f8060c08789031215610894576108936106b0565b5b5f87013567ffffffffffffffff8111156108b1576108b06106b4565b5b6108bd89828a0161084d565b965050602087013567ffffffffffffffff8111156108de576108dd6106b4565b5b6108ea89828a0161084d565b955050604087013567ffffffffffffffff81111561090b5761090a6106b4565b5b61091789828a0161084d565b945050606087013567ffffffffffffffff811115610938576109376106b4565b5b61094489828a0161084d565b935050608061095589828a016106d7565b92505060a061096689828a016106d7565b9150509295509295509295565b5f81519050919050565b5f82825260208201905092915050565b8281835e5f83830152505050565b5f6109a582610973565b6109af818561097d565b93506109bf81856020860161098d565b6109c881610746565b840191505092915050565b5f8115159050919050565b6109e7816109d3565b82525050565b5f73ffffffffffffffffffffffffffffffffffffffff82169050919050565b5f610a16826109ed565b9050919050565b610a2681610a0c565b82525050565b5f60e0820190508181035f830152610a44818a61099b565b90508181036020830152610a58818961099b565b90508181036040830152610a6c818861099b565b9050610a7b6060830187610716565b610a8860808301866109de565b81810360a0830152610a9a818561099b565b9050610aa960c0830184610a1d565b98975050505050505050565b7f696e73756666696369656e742066756e647300000000000000000000000000005f82015250565b5f610ae960128361097d565b9150610af482610ab5565b602082019050919050565b5f6020820190508181035f830152610b1681610add565b9050919050565b7f73686f65206973206e6f7420617661696c61626c6500000000000000000000005f82015250565b5f610b5160158361097d565b9150610b5c82610b1d565b602082019050919050565b5f6020820190508181035f830152610b7e81610b45565b9050919050565b7f73686f6520736f6c6400000000000000000000000000000000000000000000005f82015250565b5f610bb960098361097d565b9150610bc482610b85565b602082019050919050565b5f604082019050610be25f830184610716565b8181036020830152610bf381610bad565b905092915050565b7f4e487b71000000000000000000000000000000000000000000000000000000005f52602260045260245ffd5b5f6002820490506001821680610c3f57607f821691505b602082108103610c5257610c51610bfb565b5b50919050565b5f819050815f5260205f209050919050565b5f6020601f8301049050919050565b5f82821b905092915050565b5f60088302610cb47fffffffffffffffffffffffffffffffffffffffffffffffffffffffffffffffff82610c79565b610cbe8683610c79565b95508019841693508086168417925050509392505050565b5f819050919050565b5f610cf9610cf4610cef846106b8565b610cd6565b6106b8565b9050919050565b5f819050919050565b610d1283610cdf565b610d26610d1e82610d00565b848454610c85565b825550505050565b5f90565b610d3a610d2e565b610d45818484610d09565b505050565b5b81811015610d6857610d5d5f82610d32565b600181019050610d4b565b5050565b601f821115610dad57610d7e81610c58565b610d8784610c6a565b81016020851015610d96578190505b610daa610da285610c6a565b830182610d4a565b50505b505050565b5f82821c905092915050565b5f610dcd5f1984600802610db2565b1980831691505092915050565b5f610de58383610dbe565b9150826002028217905092915050565b610dfe82610973565b67ffffffffffffffff811115610e1757610e16610756565b5b610e218254610c28565b610e2c828285610d6c565b5f60209050601f831160018114610e5d575f8415610e4b578287015190505b610e558582610dda565b865550610ebc565b601f198416610e6b86610c58565b5f5b82811015610e9257848901518255600182019150602085019450602081019050610e6d565b86831015610eaf5784890151610eab601f891682610dbe565b8355505b6001600288020188555050505b50505050505056fea264697066735822122038de9f79da5e0fa6931c53d3695f54b5be62015b9c82c4a5eb090cf89157f88564736f6c634300081a0033",
					"opcodes": "PUSH1 0x80 PUSH1 0x40 MSTORE CALLVALUE DUP1 ISZERO PUSH1 0xE JUMPI PUSH0 DUP1 REVERT JUMPDEST POP PUSH2 0xEFA DUP1 PUSH2 0x1C PUSH0 CODECOPY PUSH0 RETURN INVALID PUSH1 0x80 PUSH1 0x40 MSTORE PUSH1 0x4 CALLDATASIZE LT PUSH2 0x3E JUMPI PUSH0 CALLDATALOAD PUSH1 0xE0 SHR DUP1 PUSH4 0x1315879F EQ PUSH2 0x42 JUMPI DUP1 PUSH4 0x13636548 EQ PUSH2 0x5E JUMPI DUP1 PUSH4 0x59F26E96 EQ PUSH2 0x9A JUMPI DUP1 PUSH4 0x607473CF EQ PUSH2 0xC2 JUMPI JUMPDEST PUSH0 DUP1 REVERT JUMPDEST PUSH2 0x5C PUSH1 0x4 DUP1 CALLDATASIZE SUB DUP2 ADD SWAP1 PUSH2 0x57 SWAP2 SWAP1 PUSH2 0x6EB JUMP JUMPDEST PUSH2 0x104 JUMP JUMPDEST STOP JUMPDEST CALLVALUE DUP1 ISZERO PUSH2 0x69 JUMPI PUSH0 DUP1 REVERT JUMPDEST POP PUSH2 0x84 PUSH1 0x4 DUP1 CALLDATASIZE SUB DUP2 ADD SWAP1 PUSH2 0x7F SWAP2 SWAP1 PUSH2 0x6EB JUMP JUMPDEST PUSH2 0x2B0 JUMP JUMPDEST PUSH1 0x40 MLOAD PUSH2 0x91 SWAP2 SWAP1 PUSH2 0x725 JUMP JUMPDEST PUSH1 0x40 MLOAD DUP1 SWAP2 SUB SWAP1 RETURN JUMPDEST CALLVALUE DUP1 ISZERO PUSH2 0xA5 JUMPI PUSH0 DUP1 REVERT JUMPDEST POP PUSH2 0xC0 PUSH1 0x4 DUP1 CALLDATASIZE SUB DUP2 ADD SWAP1 PUSH2 0xBB SWAP2 SWAP1 PUSH2 0x87A JUMP JUMPDEST PUSH2 0x2D0 JUMP JUMPDEST STOP JUMPDEST CALLVALUE DUP1 ISZERO PUSH2 0xCD JUMPI PUSH0 DUP1 REVERT JUMPDEST POP PUSH2 0xE8 PUSH1 0x4 DUP1 CALLDATASIZE SUB DUP2 ADD SWAP1 PUSH2 0xE3 SWAP2 SWAP1 PUSH2 0x6EB JUMP JUMPDEST PUSH2 0x427 JUMP JUMPDEST PUSH1 0x40 MLOAD PUSH2 0xFB SWAP8 SWAP7 SWAP6 SWAP5 SWAP4 SWAP3 SWAP2 SWAP1 PUSH2 0xA2C JUMP JUMPDEST PUSH1 0x40 MLOAD DUP1 SWAP2 SUB SWAP1 RETURN JUMPDEST PUSH0 DUP1 PUSH0 DUP4 DUP2 MSTORE PUSH1 0x20 ADD SWAP1 DUP2 MSTORE PUSH1 0x20 ADD PUSH0 KECCAK256 SWAP1 POP DUP1 PUSH1 0x3 ADD SLOAD CALLVALUE EQ PUSH2 0x15D JUMPI PUSH1 0x40 MLOAD PUSH32 0x8C379A000000000000000000000000000000000000000000000000000000000 DUP2 MSTORE PUSH1 0x4 ADD PUSH2 0x154 SWAP1 PUSH2 0xAFF JUMP JUMPDEST PUSH1 0x40 MLOAD DUP1 SWAP2 SUB SWAP1 REVERT JUMPDEST DUP1 PUSH1 0x4 ADD PUSH0 SWAP1 SLOAD SWAP1 PUSH2 0x100 EXP SWAP1 DIV PUSH1 0xFF AND PUSH2 0x1AD JUMPI PUSH1 0x40 MLOAD PUSH32 0x8C379A000000000000000000000000000000000000000000000000000000000 DUP2 MSTORE PUSH1 0x4 ADD PUSH2 0x1A4 SWAP1 PUSH2 0xB67 JUMP JUMPDEST PUSH1 0x40 MLOAD DUP1 SWAP2 SUB SWAP1 REVERT JUMPDEST CALLER DUP2 PUSH1 0x6 ADD PUSH0 PUSH2 0x100 EXP DUP2 SLOAD DUP2 PUSH20 0xFFFFFFFFFFFFFFFFFFFFFFFFFFFFFFFFFFFFFFFF MUL NOT AND SWAP1 DUP4 PUSH20 0xFFFFFFFFFFFFFFFFFFFFFFFFFFFFFFFFFFFFFFFF AND MUL OR SWAP1 SSTORE POP PUSH0 DUP2 PUSH1 0x4 ADD PUSH0 PUSH2 0x100 EXP DUP2 SLOAD DUP2 PUSH1 0xFF MUL NOT AND SWAP1 DUP4 ISZERO ISZERO MUL OR SWAP1 SSTORE POP DUP1 PUSH1 0x6 ADD PUSH0 SWAP1 SLOAD SWAP1 PUSH2 0x100 EXP SWAP1 DIV PUSH20 0xFFFFFFFFFFFFFFFFFFFFFFFFFFFFFFFFFFFFFFFF AND PUSH20 0xFFFFFFFFFFFFFFFFFFFFFFFFFFFFFFFFFFFFFFFF AND PUSH2 0x8FC DUP3 PUSH1 0x3 ADD SLOAD SWAP1 DUP2 ISZERO MUL SWAP1 PUSH1 0x40 MLOAD PUSH0 PUSH1 0x40 MLOAD DUP1 DUP4 SUB DUP2 DUP6 DUP9 DUP9 CALL SWAP4 POP POP POP POP ISZERO DUP1 ISZERO PUSH2 0x274 JUMPI RETURNDATASIZE PUSH0 DUP1 RETURNDATACOPY RETURNDATASIZE PUSH0 REVERT JUMPDEST POP PUSH32 0x4BA5D41600A02C8B7E1ED4632CBF95B58AD9725C5D4ACFFC2DAA81B2298EC9B DUP3 PUSH1 0x40 MLOAD PUSH2 0x2A4 SWAP2 SWAP1 PUSH2 0xBCF JUMP JUMPDEST PUSH1 0x40 MLOAD DUP1 SWAP2 SUB SWAP1 LOG1 POP POP JUMP JUMPDEST PUSH1 0x1 DUP2 DUP2 SLOAD DUP2 LT PUSH2 0x2BF JUMPI PUSH0 DUP1 REVERT JUMPDEST SWAP1 PUSH0 MSTORE PUSH1 0x20 PUSH0 KECCAK256 ADD PUSH0 SWAP2 POP SWAP1 POP SLOAD DUP2 JUMP JUMPDEST PUSH0 PUSH1 0x40 MLOAD DUP1 PUSH1 0xE0 ADD PUSH1 0x40 MSTORE DUP1 DUP9 DUP2 MSTORE PUSH1 0x20 ADD DUP8 DUP2 MSTORE PUSH1 0x20 ADD DUP7 DUP2 MSTORE PUSH1 0x20 ADD DUP5 DUP2 MSTORE PUSH1 0x20 ADD PUSH1 0x1 ISZERO ISZERO DUP2 MSTORE PUSH1 0x20 ADD DUP6 DUP2 MSTORE PUSH1 0x20 ADD CALLER PUSH20 0xFFFFFFFFFFFFFFFFFFFFFFFFFFFFFFFFFFFFFFFF AND DUP2 MSTORE POP SWAP1 POP DUP1 PUSH0 DUP1 DUP5 DUP2 MSTORE PUSH1 0x20 ADD SWAP1 DUP2 MSTORE PUSH1 0x20 ADD PUSH0 KECCAK256 PUSH0 DUP3 ADD MLOAD DUP2 PUSH0 ADD SWAP1 DUP2 PUSH2 0x343 SWAP2 SWAP1 PUSH2 0xDF5 JUMP JUMPDEST POP PUSH1 0x20 DUP3 ADD MLOAD DUP2 PUSH1 0x1 ADD SWAP1 DUP2 PUSH2 0x359 SWAP2 SWAP1 PUSH2 0xDF5 JUMP JUMPDEST POP PUSH1 0x40 DUP3 ADD MLOAD DUP2 PUSH1 0x2 ADD SWAP1 DUP2 PUSH2 0x36F SWAP2 SWAP1 PUSH2 0xDF5 JUMP JUMPDEST POP PUSH1 0x60 DUP3 ADD MLOAD DUP2 PUSH1 0x3 ADD SSTORE PUSH1 0x80 DUP3 ADD MLOAD DUP2 PUSH1 0x4 ADD PUSH0 PUSH2 0x100 EXP DUP2 SLOAD DUP2 PUSH1 0xFF MUL NOT AND SWAP1 DUP4 ISZERO ISZERO MUL OR SWAP1 SSTORE POP PUSH1 0xA0 DUP3 ADD MLOAD DUP2 PUSH1 0x5 ADD SWAP1 DUP2 PUSH2 0x3AE SWAP2 SWAP1 PUSH2 0xDF5 JUMP JUMPDEST POP PUSH1 0xC0 DUP3 ADD MLOAD DUP2 PUSH1 0x6 ADD PUSH0 PUSH2 0x100 EXP DUP2 SLOAD DUP2 PUSH20 0xFFFFFFFFFFFFFFFFFFFFFFFFFFFFFFFFFFFFFFFF MUL NOT AND SWAP1 DUP4 PUSH20 0xFFFFFFFFFFFFFFFFFFFFFFFFFFFFFFFFFFFFFFFF AND MUL OR SWAP1 SSTORE POP SWAP1 POP POP PUSH1 0x1 DUP3 SWAP1 DUP1 PUSH1 0x1 DUP2 SLOAD ADD DUP1 DUP3 SSTORE DUP1 SWAP2 POP POP PUSH1 0x1 SWAP1 SUB SWAP1 PUSH0 MSTORE PUSH1 0x20 PUSH0 KECCAK256 ADD PUSH0 SWAP1 SWAP2 SWAP1 SWAP2 SWAP1 SWAP2 POP SSTORE POP POP POP POP POP POP POP JUMP JUMPDEST PUSH0 PUSH1 0x20 MSTORE DUP1 PUSH0 MSTORE PUSH1 0x40 PUSH0 KECCAK256 PUSH0 SWAP2 POP SWAP1 POP DUP1 PUSH0 ADD DUP1 SLOAD PUSH2 0x445 SWAP1 PUSH2 0xC28 JUMP JUMPDEST DUP1 PUSH1 0x1F ADD PUSH1 0x20 DUP1 SWAP2 DIV MUL PUSH1 0x20 ADD PUSH1 0x40 MLOAD SWAP1 DUP2 ADD PUSH1 0x40 MSTORE DUP1 SWAP3 SWAP2 SWAP1 DUP2 DUP2 MSTORE PUSH1 0x20 ADD DUP3 DUP1 SLOAD PUSH2 0x471 SWAP1 PUSH2 0xC28 JUMP JUMPDEST DUP1 ISZERO PUSH2 0x4BC JUMPI DUP1 PUSH1 0x1F LT PUSH2 0x493 JUMPI PUSH2 0x100 DUP1 DUP4 SLOAD DIV MUL DUP4 MSTORE SWAP2 PUSH1 0x20 ADD SWAP2 PUSH2 0x4BC JUMP JUMPDEST DUP3 ADD SWAP2 SWAP1 PUSH0 MSTORE PUSH1 0x20 PUSH0 KECCAK256 SWAP1 JUMPDEST DUP2 SLOAD DUP2 MSTORE SWAP1 PUSH1 0x1 ADD SWAP1 PUSH1 0x20 ADD DUP1 DUP4 GT PUSH2 0x49F JUMPI DUP3 SWAP1 SUB PUSH1 0x1F AND DUP3 ADD SWAP2 JUMPDEST POP POP POP POP POP SWAP1 DUP1 PUSH1 0x1 ADD DUP1 SLOAD PUSH2 0x4D1 SWAP1 PUSH2 0xC28 JUMP JUMPDEST DUP1 PUSH1 0x1F ADD PUSH1 0x20 DUP1 SWAP2 DIV MUL PUSH1 0x20 ADD PUSH1 0x40 MLOAD SWAP1 DUP2 ADD PUSH1 0x40 MSTORE DUP1 SWAP3 SWAP2 SWAP1 DUP2 DUP2 MSTORE PUSH1 0x20 ADD DUP3 DUP1 SLOAD PUSH2 0x4FD SWAP1 PUSH2 0xC28 JUMP JUMPDEST DUP1 ISZERO PUSH2 0x548 JUMPI DUP1 PUSH1 0x1F LT PUSH2 0x51F JUMPI PUSH2 0x100 DUP1 DUP4 SLOAD DIV MUL DUP4 MSTORE SWAP2 PUSH1 0x20 ADD SWAP2 PUSH2 0x548 JUMP JUMPDEST DUP3 ADD SWAP2 SWAP1 PUSH0 MSTORE PUSH1 0x20 PUSH0 KECCAK256 SWAP1 JUMPDEST DUP2 SLOAD DUP2 MSTORE SWAP1 PUSH1 0x1 ADD SWAP1 PUSH1 0x20 ADD DUP1 DUP4 GT PUSH2 0x52B JUMPI DUP3 SWAP1 SUB PUSH1 0x1F AND DUP3 ADD SWAP2 JUMPDEST POP POP POP POP POP SWAP1 DUP1 PUSH1 0x2 ADD DUP1 SLOAD PUSH2 0x55D SWAP1 PUSH2 0xC28 JUMP JUMPDEST DUP1 PUSH1 0x1F ADD PUSH1 0x20 DUP1 SWAP2 DIV MUL PUSH1 0x20 ADD PUSH1 0x40 MLOAD SWAP1 DUP2 ADD PUSH1 0x40 MSTORE DUP1 SWAP3 SWAP2 SWAP1 DUP2 DUP2 MSTORE PUSH1 0x20 ADD DUP3 DUP1 SLOAD PUSH2 0x589 SWAP1 PUSH2 0xC28 JUMP JUMPDEST DUP1 ISZERO PUSH2 0x5D4 JUMPI DUP1 PUSH1 0x1F LT PUSH2 0x5AB JUMPI PUSH2 0x100 DUP1 DUP4 SLOAD DIV MUL DUP4 MSTORE SWAP2 PUSH1 0x20 ADD SWAP2 PUSH2 0x5D4 JUMP JUMPDEST DUP3 ADD SWAP2 SWAP1 PUSH0 MSTORE PUSH1 0x20 PUSH0 KECCAK256 SWAP1 JUMPDEST DUP2 SLOAD DUP2 MSTORE SWAP1 PUSH1 0x1 ADD SWAP1 PUSH1 0x20 ADD DUP1 DUP4 GT PUSH2 0x5B7 JUMPI DUP3 SWAP1 SUB PUSH1 0x1F AND DUP3 ADD SWAP2 JUMPDEST POP POP POP POP POP SWAP1 DUP1 PUSH1 0x3 ADD SLOAD SWAP1 DUP1 PUSH1 0x4 ADD PUSH0 SWAP1 SLOAD SWAP1 PUSH2 0x100 EXP SWAP1 DIV PUSH1 0xFF AND SWAP1 DUP1 PUSH1 0x5 ADD DUP1 SLOAD PUSH2 0x601 SWAP1 PUSH2 0xC28 JUMP JUMPDEST DUP1 PUSH1 0x1F ADD PUSH1 0x20 DUP1 SWAP2 DIV MUL PUSH1 0x20 ADD PUSH1 0x40 MLOAD SWAP1 DUP2 ADD PUSH1 0x40 MSTORE DUP1 SWAP3 SWAP2 SWAP1 DUP2 DUP2 MSTORE PUSH1 0x20 ADD DUP3 DUP1 SLOAD PUSH2 0x62D SWAP1 PUSH2 0xC28 JUMP JUMPDEST DUP1 ISZERO PUSH2 0x678 JUMPI DUP1 PUSH1 0x1F LT PUSH2 0x64F JUMPI PUSH2 0x100 DUP1 DUP4 SLOAD DIV MUL DUP4 MSTORE SWAP2 PUSH1 0x20 ADD SWAP2 PUSH2 0x678 JUMP JUMPDEST DUP3 ADD SWAP2 SWAP1 PUSH0 MSTORE PUSH1 0x20 PUSH0 KECCAK256 SWAP1 JUMPDEST DUP2 SLOAD DUP2 MSTORE SWAP1 PUSH1 0x1 ADD SWAP1 PUSH1 0x20 ADD DUP1 DUP4 GT PUSH2 0x65B JUMPI DUP3 SWAP1 SUB PUSH1 0x1F AND DUP3 ADD SWAP2 JUMPDEST POP POP POP POP POP SWAP1 DUP1 PUSH1 0x6 ADD PUSH0 SWAP1 SLOAD SWAP1 PUSH2 0x100 EXP SWAP1 DIV PUSH20 0xFFFFFFFFFFFFFFFFFFFFFFFFFFFFFFFFFFFFFFFF AND SWAP1 POP DUP8 JUMP JUMPDEST PUSH0 PUSH1 0x40 MLOAD SWAP1 POP SWAP1 JUMP JUMPDEST PUSH0 DUP1 REVERT JUMPDEST PUSH0 DUP1 REVERT JUMPDEST PUSH0 DUP2 SWAP1 POP SWAP2 SWAP1 POP JUMP JUMPDEST PUSH2 0x6CA DUP2 PUSH2 0x6B8 JUMP JUMPDEST DUP2 EQ PUSH2 0x6D4 JUMPI PUSH0 DUP1 REVERT JUMPDEST POP JUMP JUMPDEST PUSH0 DUP2 CALLDATALOAD SWAP1 POP PUSH2 0x6E5 DUP2 PUSH2 0x6C1 JUMP JUMPDEST SWAP3 SWAP2 POP POP JUMP JUMPDEST PUSH0 PUSH1 0x20 DUP3 DUP5 SUB SLT ISZERO PUSH2 0x700 JUMPI PUSH2 0x6FF PUSH2 0x6B0 JUMP JUMPDEST JUMPDEST PUSH0 PUSH2 0x70D DUP5 DUP3 DUP6 ADD PUSH2 0x6D7 JUMP JUMPDEST SWAP2 POP POP SWAP3 SWAP2 POP POP JUMP JUMPDEST PUSH2 0x71F DUP2 PUSH2 0x6B8 JUMP JUMPDEST DUP3 MSTORE POP POP JUMP JUMPDEST PUSH0 PUSH1 0x20 DUP3 ADD SWAP1 POP PUSH2 0x738 PUSH0 DUP4 ADD DUP5 PUSH2 0x716 JUMP JUMPDEST SWAP3 SWAP2 POP POP JUMP JUMPDEST PUSH0 DUP1 REVERT JUMPDEST PUSH0 DUP1 REVERT JUMPDEST PUSH0 PUSH1 0x1F NOT PUSH1 0x1F DUP4 ADD AND SWAP1 POP SWAP2 SWAP1 POP JUMP JUMPDEST PUSH32 0x4E487B7100000000000000000000000000000000000000000000000000000000 PUSH0 MSTORE PUSH1 0x41 PUSH1 0x4 MSTORE PUSH1 0x24 PUSH0 REVERT JUMPDEST PUSH2 0x78C DUP3 PUSH2 0x746 JUMP JUMPDEST DUP2 ADD DUP2 DUP2 LT PUSH8 0xFFFFFFFFFFFFFFFF DUP3 GT OR ISZERO PUSH2 0x7AB JUMPI PUSH2 0x7AA PUSH2 0x756 JUMP JUMPDEST JUMPDEST DUP1 PUSH1 0x40 MSTORE POP POP POP JUMP JUMPDEST PUSH0 PUSH2 0x7BD PUSH2 0x6A7 JUMP JUMPDEST SWAP1 POP PUSH2 0x7C9 DUP3 DUP3 PUSH2 0x783 JUMP JUMPDEST SWAP2 SWAP1 POP JUMP JUMPDEST PUSH0 PUSH8 0xFFFFFFFFFFFFFFFF DUP3 GT ISZERO PUSH2 0x7E8 JUMPI PUSH2 0x7E7 PUSH2 0x756 JUMP JUMPDEST JUMPDEST PUSH2 0x7F1 DUP3 PUSH2 0x746 JUMP JUMPDEST SWAP1 POP PUSH1 0x20 DUP2 ADD SWAP1 POP SWAP2 SWAP1 POP JUMP JUMPDEST DUP3 DUP2 DUP4 CALLDATACOPY PUSH0 DUP4 DUP4 ADD MSTORE POP POP POP JUMP JUMPDEST PUSH0 PUSH2 0x81E PUSH2 0x819 DUP5 PUSH2 0x7CE JUMP JUMPDEST PUSH2 0x7B4 JUMP JUMPDEST SWAP1 POP DUP3 DUP2 MSTORE PUSH1 0x20 DUP2 ADD DUP5 DUP5 DUP5 ADD GT ISZERO PUSH2 0x83A JUMPI PUSH2 0x839 PUSH2 0x742 JUMP JUMPDEST JUMPDEST PUSH2 0x845 DUP5 DUP3 DUP6 PUSH2 0x7FE JUMP JUMPDEST POP SWAP4 SWAP3 POP POP POP JUMP JUMPDEST PUSH0 DUP3 PUSH1 0x1F DUP4 ADD SLT PUSH2 0x861 JUMPI PUSH2 0x860 PUSH2 0x73E JUMP JUMPDEST JUMPDEST DUP2 CALLDATALOAD PUSH2 0x871 DUP5 DUP3 PUSH1 0x20 DUP7 ADD PUSH2 0x80C JUMP JUMPDEST SWAP2 POP POP SWAP3 SWAP2 POP POP JUMP JUMPDEST PUSH0 DUP1 PUSH0 DUP1 PUSH0 DUP1 PUSH1 0xC0 DUP8 DUP10 SUB SLT ISZERO PUSH2 0x894 JUMPI PUSH2 0x893 PUSH2 0x6B0 JUMP JUMPDEST JUMPDEST PUSH0 DUP8 ADD CALLDATALOAD PUSH8 0xFFFFFFFFFFFFFFFF DUP2 GT ISZERO PUSH2 0x8B1 JUMPI PUSH2 0x8B0 PUSH2 0x6B4 JUMP JUMPDEST JUMPDEST PUSH2 0x8BD DUP10 DUP3 DUP11 ADD PUSH2 0x84D JUMP JUMPDEST SWAP7 POP POP PUSH1 0x20 DUP8 ADD CALLDATALOAD PUSH8 0xFFFFFFFFFFFFFFFF DUP2 GT ISZERO PUSH2 0x8DE JUMPI PUSH2 0x8DD PUSH2 0x6B4 JUMP JUMPDEST JUMPDEST PUSH2 0x8EA DUP10 DUP3 DUP11 ADD PUSH2 0x84D JUMP JUMPDEST SWAP6 POP POP PUSH1 0x40 DUP8 ADD CALLDATALOAD PUSH8 0xFFFFFFFFFFFFFFFF DUP2 GT ISZERO PUSH2 0x90B JUMPI PUSH2 0x90A PUSH2 0x6B4 JUMP JUMPDEST JUMPDEST PUSH2 0x917 DUP10 DUP3 DUP11 ADD PUSH2 0x84D JUMP JUMPDEST SWAP5 POP POP PUSH1 0x60 DUP8 ADD CALLDATALOAD PUSH8 0xFFFFFFFFFFFFFFFF DUP2 GT ISZERO PUSH2 0x938 JUMPI PUSH2 0x937 PUSH2 0x6B4 JUMP JUMPDEST JUMPDEST PUSH2 0x944 DUP10 DUP3 DUP11 ADD PUSH2 0x84D JUMP JUMPDEST SWAP4 POP POP PUSH1 0x80 PUSH2 0x955 DUP10 DUP3 DUP11 ADD PUSH2 0x6D7 JUMP JUMPDEST SWAP3 POP POP PUSH1 0xA0 PUSH2 0x966 DUP10 DUP3 DUP11 ADD PUSH2 0x6D7 JUMP JUMPDEST SWAP2 POP POP SWAP3 SWAP6 POP SWAP3 SWAP6 POP SWAP3 SWAP6 JUMP JUMPDEST PUSH0 DUP2 MLOAD SWAP1 POP SWAP2 SWAP1 POP JUMP JUMPDEST PUSH0 DUP3 DUP3 MSTORE PUSH1 0x20 DUP3 ADD SWAP1 POP SWAP3 SWAP2 POP POP JUMP JUMPDEST DUP3 DUP2 DUP4 MCOPY PUSH0 DUP4 DUP4 ADD MSTORE POP POP POP JUMP JUMPDEST PUSH0 PUSH2 0x9A5 DUP3 PUSH2 0x973 JUMP JUMPDEST PUSH2 0x9AF DUP2 DUP6 PUSH2 0x97D JUMP JUMPDEST SWAP4 POP PUSH2 0x9BF DUP2 DUP6 PUSH1 0x20 DUP7 ADD PUSH2 0x98D JUMP JUMPDEST PUSH2 0x9C8 DUP2 PUSH2 0x746 JUMP JUMPDEST DUP5 ADD SWAP2 POP POP SWAP3 SWAP2 POP POP JUMP JUMPDEST PUSH0 DUP2 ISZERO ISZERO SWAP1 POP SWAP2 SWAP1 POP JUMP JUMPDEST PUSH2 0x9E7 DUP2 PUSH2 0x9D3 JUMP JUMPDEST DUP3 MSTORE POP POP JUMP JUMPDEST PUSH0 PUSH20 0xFFFFFFFFFFFFFFFFFFFFFFFFFFFFFFFFFFFFFFFF DUP3 AND SWAP1 POP SWAP2 SWAP1 POP JUMP JUMPDEST PUSH0 PUSH2 0xA16 DUP3 PUSH2 0x9ED JUMP JUMPDEST SWAP1 POP SWAP2 SWAP1 POP JUMP JUMPDEST PUSH2 0xA26 DUP2 PUSH2 0xA0C JUMP JUMPDEST DUP3 MSTORE POP POP JUMP JUMPDEST PUSH0 PUSH1 0xE0 DUP3 ADD SWAP1 POP DUP2 DUP2 SUB PUSH0 DUP4 ADD MSTORE PUSH2 0xA44 DUP2 DUP11 PUSH2 0x99B JUMP JUMPDEST SWAP1 POP DUP2 DUP2 SUB PUSH1 0x20 DUP4 ADD MSTORE PUSH2 0xA58 DUP2 DUP10 PUSH2 0x99B JUMP JUMPDEST SWAP1 POP DUP2 DUP2 SUB PUSH1 0x40 DUP4 ADD MSTORE PUSH2 0xA6C DUP2 DUP9 PUSH2 0x99B JUMP JUMPDEST SWAP1 POP PUSH2 0xA7B PUSH1 0x60 DUP4 ADD DUP8 PUSH2 0x716 JUMP JUMPDEST PUSH2 0xA88 PUSH1 0x80 DUP4 ADD DUP7 PUSH2 0x9DE JUMP JUMPDEST DUP2 DUP2 SUB PUSH1 0xA0 DUP4 ADD MSTORE PUSH2 0xA9A DUP2 DUP6 PUSH2 0x99B JUMP JUMPDEST SWAP1 POP PUSH2 0xAA9 PUSH1 0xC0 DUP4 ADD DUP5 PUSH2 0xA1D JUMP JUMPDEST SWAP9 SWAP8 POP POP POP POP POP POP POP POP JUMP JUMPDEST PUSH32 0x696E73756666696369656E742066756E64730000000000000000000000000000 PUSH0 DUP3 ADD MSTORE POP JUMP JUMPDEST PUSH0 PUSH2 0xAE9 PUSH1 0x12 DUP4 PUSH2 0x97D JUMP JUMPDEST SWAP2 POP PUSH2 0xAF4 DUP3 PUSH2 0xAB5 JUMP JUMPDEST PUSH1 0x20 DUP3 ADD SWAP1 POP SWAP2 SWAP1 POP JUMP JUMPDEST PUSH0 PUSH1 0x20 DUP3 ADD SWAP1 POP DUP2 DUP2 SUB PUSH0 DUP4 ADD MSTORE PUSH2 0xB16 DUP2 PUSH2 0xADD JUMP JUMPDEST SWAP1 POP SWAP2 SWAP1 POP JUMP JUMPDEST PUSH32 0x73686F65206973206E6F7420617661696C61626C650000000000000000000000 PUSH0 DUP3 ADD MSTORE POP JUMP JUMPDEST PUSH0 PUSH2 0xB51 PUSH1 0x15 DUP4 PUSH2 0x97D JUMP JUMPDEST SWAP2 POP PUSH2 0xB5C DUP3 PUSH2 0xB1D JUMP JUMPDEST PUSH1 0x20 DUP3 ADD SWAP1 POP SWAP2 SWAP1 POP JUMP JUMPDEST PUSH0 PUSH1 0x20 DUP3 ADD SWAP1 POP DUP2 DUP2 SUB PUSH0 DUP4 ADD MSTORE PUSH2 0xB7E DUP2 PUSH2 0xB45 JUMP JUMPDEST SWAP1 POP SWAP2 SWAP1 POP JUMP JUMPDEST PUSH32 0x73686F6520736F6C640000000000000000000000000000000000000000000000 PUSH0 DUP3 ADD MSTORE POP JUMP JUMPDEST PUSH0 PUSH2 0xBB9 PUSH1 0x9 DUP4 PUSH2 0x97D JUMP JUMPDEST SWAP2 POP PUSH2 0xBC4 DUP3 PUSH2 0xB85 JUMP JUMPDEST PUSH1 0x20 DUP3 ADD SWAP1 POP SWAP2 SWAP1 POP JUMP JUMPDEST PUSH0 PUSH1 0x40 DUP3 ADD SWAP1 POP PUSH2 0xBE2 PUSH0 DUP4 ADD DUP5 PUSH2 0x716 JUMP JUMPDEST DUP2 DUP2 SUB PUSH1 0x20 DUP4 ADD MSTORE PUSH2 0xBF3 DUP2 PUSH2 0xBAD JUMP JUMPDEST SWAP1 POP SWAP3 SWAP2 POP POP JUMP JUMPDEST PUSH32 0x4E487B7100000000000000000000000000000000000000000000000000000000 PUSH0 MSTORE PUSH1 0x22 PUSH1 0x4 MSTORE PUSH1 0x24 PUSH0 REVERT JUMPDEST PUSH0 PUSH1 0x2 DUP3 DIV SWAP1 POP PUSH1 0x1 DUP3 AND DUP1 PUSH2 0xC3F JUMPI PUSH1 0x7F DUP3 AND SWAP2 POP JUMPDEST PUSH1 0x20 DUP3 LT DUP2 SUB PUSH2 0xC52 JUMPI PUSH2 0xC51 PUSH2 0xBFB JUMP JUMPDEST JUMPDEST POP SWAP2 SWAP1 POP JUMP JUMPDEST PUSH0 DUP2 SWAP1 POP DUP2 PUSH0 MSTORE PUSH1 0x20 PUSH0 KECCAK256 SWAP1 POP SWAP2 SWAP1 POP JUMP JUMPDEST PUSH0 PUSH1 0x20 PUSH1 0x1F DUP4 ADD DIV SWAP1 POP SWAP2 SWAP1 POP JUMP JUMPDEST PUSH0 DUP3 DUP3 SHL SWAP1 POP SWAP3 SWAP2 POP POP JUMP JUMPDEST PUSH0 PUSH1 0x8 DUP4 MUL PUSH2 0xCB4 PUSH32 0xFFFFFFFFFFFFFFFFFFFFFFFFFFFFFFFFFFFFFFFFFFFFFFFFFFFFFFFFFFFFFFFF DUP3 PUSH2 0xC79 JUMP JUMPDEST PUSH2 0xCBE DUP7 DUP4 PUSH2 0xC79 JUMP JUMPDEST SWAP6 POP DUP1 NOT DUP5 AND SWAP4 POP DUP1 DUP7 AND DUP5 OR SWAP3 POP POP POP SWAP4 SWAP3 POP POP POP JUMP JUMPDEST PUSH0 DUP2 SWAP1 POP SWAP2 SWAP1 POP JUMP JUMPDEST PUSH0 PUSH2 0xCF9 PUSH2 0xCF4 PUSH2 0xCEF DUP5 PUSH2 0x6B8 JUMP JUMPDEST PUSH2 0xCD6 JUMP JUMPDEST PUSH2 0x6B8 JUMP JUMPDEST SWAP1 POP SWAP2 SWAP1 POP JUMP JUMPDEST PUSH0 DUP2 SWAP1 POP SWAP2 SWAP1 POP JUMP JUMPDEST PUSH2 0xD12 DUP4 PUSH2 0xCDF JUMP JUMPDEST PUSH2 0xD26 PUSH2 0xD1E DUP3 PUSH2 0xD00 JUMP JUMPDEST DUP5 DUP5 SLOAD PUSH2 0xC85 JUMP JUMPDEST DUP3 SSTORE POP POP POP POP JUMP JUMPDEST PUSH0 SWAP1 JUMP JUMPDEST PUSH2 0xD3A PUSH2 0xD2E JUMP JUMPDEST PUSH2 0xD45 DUP2 DUP5 DUP5 PUSH2 0xD09 JUMP JUMPDEST POP POP POP JUMP JUMPDEST JUMPDEST DUP2 DUP2 LT ISZERO PUSH2 0xD68 JUMPI PUSH2 0xD5D PUSH0 DUP3 PUSH2 0xD32 JUMP JUMPDEST PUSH1 0x1 DUP2 ADD SWAP1 POP PUSH2 0xD4B JUMP JUMPDEST POP POP JUMP JUMPDEST PUSH1 0x1F DUP3 GT ISZERO PUSH2 0xDAD JUMPI PUSH2 0xD7E DUP2 PUSH2 0xC58 JUMP JUMPDEST PUSH2 0xD87 DUP5 PUSH2 0xC6A JUMP JUMPDEST DUP2 ADD PUSH1 0x20 DUP6 LT ISZERO PUSH2 0xD96 JUMPI DUP2 SWAP1 POP JUMPDEST PUSH2 0xDAA PUSH2 0xDA2 DUP6 PUSH2 0xC6A JUMP JUMPDEST DUP4 ADD DUP3 PUSH2 0xD4A JUMP JUMPDEST POP POP JUMPDEST POP POP POP JUMP JUMPDEST PUSH0 DUP3 DUP3 SHR SWAP1 POP SWAP3 SWAP2 POP POP JUMP JUMPDEST PUSH0 PUSH2 0xDCD PUSH0 NOT DUP5 PUSH1 0x8 MUL PUSH2 0xDB2 JUMP JUMPDEST NOT DUP1 DUP4 AND SWAP2 POP POP SWAP3 SWAP2 POP POP JUMP JUMPDEST PUSH0 PUSH2 0xDE5 DUP4 DUP4 PUSH2 0xDBE JUMP JUMPDEST SWAP2 POP DUP3 PUSH1 0x2 MUL DUP3 OR SWAP1 POP SWAP3 SWAP2 POP POP JUMP JUMPDEST PUSH2 0xDFE DUP3 PUSH2 0x973 JUMP JUMPDEST PUSH8 0xFFFFFFFFFFFFFFFF DUP2 GT ISZERO PUSH2 0xE17 JUMPI PUSH2 0xE16 PUSH2 0x756 JUMP JUMPDEST JUMPDEST PUSH2 0xE21 DUP3 SLOAD PUSH2 0xC28 JUMP JUMPDEST PUSH2 0xE2C DUP3 DUP3 DUP6 PUSH2 0xD6C JUMP JUMPDEST PUSH0 PUSH1 0x20 SWAP1 POP PUSH1 0x1F DUP4 GT PUSH1 0x1 DUP2 EQ PUSH2 0xE5D JUMPI PUSH0 DUP5 ISZERO PUSH2 0xE4B JUMPI DUP3 DUP8 ADD MLOAD SWAP1 POP JUMPDEST PUSH2 0xE55 DUP6 DUP3 PUSH2 0xDDA JUMP JUMPDEST DUP7 SSTORE POP PUSH2 0xEBC JUMP JUMPDEST PUSH1 0x1F NOT DUP5 AND PUSH2 0xE6B DUP7 PUSH2 0xC58 JUMP JUMPDEST PUSH0 JUMPDEST DUP3 DUP2 LT ISZERO PUSH2 0xE92 JUMPI DUP5 DUP10 ADD MLOAD DUP3 SSTORE PUSH1 0x1 DUP3 ADD SWAP2 POP PUSH1 0x20 DUP6 ADD SWAP5 POP PUSH1 0x20 DUP2 ADD SWAP1 POP PUSH2 0xE6D JUMP JUMPDEST DUP7 DUP4 LT ISZERO PUSH2 0xEAF JUMPI DUP5 DUP10 ADD MLOAD PUSH2 0xEAB PUSH1 0x1F DUP10 AND DUP3 PUSH2 0xDBE JUMP JUMPDEST DUP4 SSTORE POP JUMPDEST PUSH1 0x1 PUSH1 0x2 DUP9 MUL ADD DUP9 SSTORE POP POP POP JUMPDEST POP POP POP POP POP POP JUMP INVALID LOG2 PUSH5 0x6970667358 0x22 SLT KECCAK256 CODESIZE 0xDE SWAP16 PUSH26 0xDA5E0FA6931C53D3695F54B5BE62015B9C82C4A5EB090CF89157 0xF8 DUP6 PUSH5 0x736F6C6343 STOP ADDMOD BYTE STOP CALLER "
				},
				"gasEstimates": {
					"creation": {
						"codeDepositCost": "766800",
						"executionCost": "797",
						"totalCost": "767597"
					},
					"external": {
						"buyShoe(uint256)": "infinite",
						"listShoes(string,string,string,string,uint256,uint256)": "infinite",
						"shoe_list(uint256)": "infinite",
						"shoes(uint256)": "infinite"
					}
				},
				"methodIdentifiers": {
					"buyShoe(uint256)": "1315879f",
					"listShoes(string,string,string,string,uint256,uint256)": "59f26e96",
					"shoe_list(uint256)": "13636548",
					"shoes(uint256)": "607473cf"
				}
			},
			"storageLayout": {
				"storage": [
					{
						"astId": 21,
						"contract": "Learning Pth/Cloth_Brand_Project.sol:Web3_Shoes",
						"label": "shoes",
						"offset": 0,
						"slot": "0",
						"type": "t_mapping(t_uint256,t_struct(Shoe)16_storage)"
					},
					{
						"astId": 24,
						"contract": "Learning Pth/Cloth_Brand_Project.sol:Web3_Shoes",
						"label": "shoe_list",
						"offset": 0,
						"slot": "1",
						"type": "t_array(t_uint256)dyn_storage"
					}
				],
				"types": {
					"t_address": {
						"encoding": "inplace",
						"label": "address",
						"numberOfBytes": "20"
					},
					"t_array(t_uint256)dyn_storage": {
						"base": "t_uint256",
						"encoding": "dynamic_array",
						"label": "uint256[]",
						"numberOfBytes": "32"
					},
					"t_bool": {
						"encoding": "inplace",
						"label": "bool",
						"numberOfBytes": "1"
					},
					"t_mapping(t_uint256,t_struct(Shoe)16_storage)": {
						"encoding": "mapping",
						"key": "t_uint256",
						"label": "mapping(uint256 => struct Web3_Shoes.Shoe)",
						"numberOfBytes": "32",
						"value": "t_struct(Shoe)16_storage"
					},
					"t_string_storage": {
						"encoding": "bytes",
						"label": "string",
						"numberOfBytes": "32"
					},
					"t_struct(Shoe)16_storage": {
						"encoding": "inplace",
						"label": "struct Web3_Shoes.Shoe",
						"members": [
							{
								"astId": 3,
								"contract": "Learning Pth/Cloth_Brand_Project.sol:Web3_Shoes",
								"label": "brandName",
								"offset": 0,
								"slot": "0",
								"type": "t_string_storage"
							},
							{
								"astId": 5,
								"contract": "Learning Pth/Cloth_Brand_Project.sol:Web3_Shoes",
								"label": "shoeType",
								"offset": 0,
								"slot": "1",
								"type": "t_string_storage"
							},
							{
								"astId": 7,
								"contract": "Learning Pth/Cloth_Brand_Project.sol:Web3_Shoes",
								"label": "description",
								"offset": 0,
								"slot": "2",
								"type": "t_string_storage"
							},
							{
								"astId": 9,
								"contract": "Learning Pth/Cloth_Brand_Project.sol:Web3_Shoes",
								"label": "price",
								"offset": 0,
								"slot": "3",
								"type": "t_uint256"
							},
							{
								"astId": 11,
								"contract": "Learning Pth/Cloth_Brand_Project.sol:Web3_Shoes",
								"label": "forSale",
								"offset": 0,
								"slot": "4",
								"type": "t_bool"
							},
							{
								"astId": 13,
								"contract": "Learning Pth/Cloth_Brand_Project.sol:Web3_Shoes",
								"label": "size",
								"offset": 0,
								"slot": "5",
								"type": "t_string_storage"
							},
							{
								"astId": 15,
								"contract": "Learning Pth/Cloth_Brand_Project.sol:Web3_Shoes",
								"label": "owner",
								"offset": 0,
								"slot": "6",
								"type": "t_address"
							}
						],
						"numberOfBytes": "224"
					},
					"t_uint256": {
						"encoding": "inplace",
						"label": "uint256",
						"numberOfBytes": "32"
					}
				}
			},
			"userdoc": {
				"kind": "user",
				"methods": {},
				"version": 1
			}
		}
	}
}