{
	"Learning Pth/TryCatchEX.sol": {
		"B": {
			"abi": [
				{
					"inputs": [],
					"stateMutability": "nonpayable",
					"type": "constructor"
				},
				{
					"anonymous": false,
					"inputs": [
						{
							"indexed": false,
							"internalType": "string",
							"name": "text",
							"type": "string"
						}
					],
					"name": "Log",
					"type": "event"
				},
				{
					"anonymous": false,
					"inputs": [
						{
							"indexed": false,
							"internalType": "bytes",
							"name": "data",
							"type": "bytes"
						}
					],
					"name": "LogByte",
					"type": "event"
				},
				{
					"inputs": [],
					"name": "a",
					"outputs": [
						{
							"internalType": "contract A",
							"name": "",
							"type": "address"
						}
					],
					"stateMutability": "view",
					"type": "function"
				},
				{
					"inputs": [
						{
							"internalType": "address",
							"name": "_addr",
							"type": "address"
						}
					],
					"name": "tryAndCatchAddress",
					"outputs": [],
					"stateMutability": "nonpayable",
					"type": "function"
				},
				{
					"inputs": [
						{
							"internalType": "uint256",
							"name": "_number",
							"type": "uint256"
						}
					],
					"name": "tryAndCatchNum",
					"outputs": [],
					"stateMutability": "nonpayable",
					"type": "function"
				}
			],
			"devdoc": {
				"kind": "dev",
				"methods": {},
				"version": 1
			},
			"evm": {
				"assembly": "    /* \"Learning Pth/TryCatchEX.sol\":453:1177  contract B {... */\n  mstore(0x40, 0x80)\n    /* \"Learning Pth/TryCatchEX.sol\":553:607  constructor() {... */\n  callvalue\n  dup1\n  iszero\n  tag_1\n  jumpi\n  0x00\n  dup1\n  revert\ntag_1:\n  pop\n    /* \"Learning Pth/TryCatchEX.sol\":588:598  msg.sender */\n  caller\n    /* \"Learning Pth/TryCatchEX.sol\":582:599  new A(msg.sender) */\n  mload(0x40)\n  tag_4\n  swap1\n  tag_5\n  jump\t// in\ntag_4:\n  tag_6\n  swap2\n  swap1\n  tag_7\n  jump\t// in\ntag_6:\n  mload(0x40)\n  dup1\n  swap2\n  sub\n  swap1\n  0x00\n  create\n  dup1\n  iszero\n  dup1\n  iszero\n  tag_8\n  jumpi\n  returndatasize\n  0x00\n  dup1\n  returndatacopy\n  revert(0x00, returndatasize)\ntag_8:\n  pop\n    /* \"Learning Pth/TryCatchEX.sol\":578:579  a */\n  0x00\n  dup1\n    /* \"Learning Pth/TryCatchEX.sol\":578:599  a = new A(msg.sender) */\n  0x0100\n  exp\n  dup2\n  sload\n  dup2\n  0xffffffffffffffffffffffffffffffffffffffff\n  mul\n  not\n  and\n  swap1\n  dup4\n  0xffffffffffffffffffffffffffffffffffffffff\n  and\n  mul\n  or\n  swap1\n  sstore\n  pop\n    /* \"Learning Pth/TryCatchEX.sol\":453:1177  contract B {... */\n  jump(tag_9)\ntag_5:\n  dataSize(sub_1)\n  dup1\n  dataOffset(sub_1)\n  dup4\n  codecopy\n  add\n  swap1\n  jump\t// out\n    /* \"#utility.yul\":7:133   */\ntag_10:\n    /* \"#utility.yul\":44:51   */\n  0x00\n    /* \"#utility.yul\":84:126   */\n  0xffffffffffffffffffffffffffffffffffffffff\n    /* \"#utility.yul\":77:82   */\n  dup3\n    /* \"#utility.yul\":73:127   */\n  and\n    /* \"#utility.yul\":62:127   */\n  swap1\n  pop\n    /* \"#utility.yul\":7:133   */\n  swap2\n  swap1\n  pop\n  jump\t// out\n    /* \"#utility.yul\":139:235   */\ntag_11:\n    /* \"#utility.yul\":176:183   */\n  0x00\n    /* \"#utility.yul\":205:229   */\n  tag_16\n    /* \"#utility.yul\":223:228   */\n  dup3\n    /* \"#utility.yul\":205:229   */\n  tag_10\n  jump\t// in\ntag_16:\n    /* \"#utility.yul\":194:229   */\n  swap1\n  pop\n    /* \"#utility.yul\":139:235   */\n  swap2\n  swap1\n  pop\n  jump\t// out\n    /* \"#utility.yul\":241:359   */\ntag_12:\n    /* \"#utility.yul\":328:352   */\n  tag_18\n    /* \"#utility.yul\":346:351   */\n  dup2\n    /* \"#utility.yul\":328:352   */\n  tag_11\n  jump\t// in\ntag_18:\n    /* \"#utility.yul\":323:326   */\n  dup3\n    /* \"#utility.yul\":316:353   */\n  mstore\n    /* \"#utility.yul\":241:359   */\n  pop\n  pop\n  jump\t// out\n    /* \"#utility.yul\":365:587   */\ntag_7:\n    /* \"#utility.yul\":458:462   */\n  0x00\n    /* \"#utility.yul\":496:498   */\n  0x20\n    /* \"#utility.yul\":485:494   */\n  dup3\n    /* \"#utility.yul\":481:499   */\n  add\n    /* \"#utility.yul\":473:499   */\n  swap1\n  pop\n    /* \"#utility.yul\":509:580   */\n  tag_20\n    /* \"#utility.yul\":577:578   */\n  0x00\n    /* \"#utility.yul\":566:575   */\n  dup4\n    /* \"#utility.yul\":562:579   */\n  add\n    /* \"#utility.yul\":553:559   */\n  dup5\n    /* \"#utility.yul\":509:580   */\n  tag_12\n  jump\t// in\ntag_20:\n    /* \"#utility.yul\":365:587   */\n  swap3\n  swap2\n  pop\n  pop\n  jump\t// out\n    /* \"Learning Pth/TryCatchEX.sol\":453:1177  contract B {... */\ntag_9:\n  dataSize(sub_0)\n  dup1\n  dataOffset(sub_0)\n  0x00\n  codecopy\n  0x00\n  return\nstop\n\nsub_0: assembly {\n        /* \"Learning Pth/TryCatchEX.sol\":453:1177  contract B {... */\n      mstore(0x40, 0x80)\n      callvalue\n      dup1\n      iszero\n      tag_1\n      jumpi\n      0x00\n      dup1\n      revert\n    tag_1:\n      pop\n      jumpi(tag_2, lt(calldatasize, 0x04))\n      shr(0xe0, calldataload(0x00))\n      dup1\n      0x0dbe671f\n      eq\n      tag_3\n      jumpi\n      dup1\n      0x7a3689be\n      eq\n      tag_4\n      jumpi\n      dup1\n      0x8b309ccf\n      eq\n      tag_5\n      jumpi\n    tag_2:\n      0x00\n      dup1\n      revert\n        /* \"Learning Pth/TryCatchEX.sol\":534:544  A public a */\n    tag_3:\n      tag_6\n      tag_7\n      jump\t// in\n    tag_6:\n      mload(0x40)\n      tag_8\n      swap2\n      swap1\n      tag_9\n      jump\t// in\n    tag_8:\n      mload(0x40)\n      dup1\n      swap2\n      sub\n      swap1\n      return\n        /* \"Learning Pth/TryCatchEX.sol\":615:856  function tryAndCatchNum(uint _number) public {... */\n    tag_4:\n      tag_10\n      0x04\n      dup1\n      calldatasize\n      sub\n      dup2\n      add\n      swap1\n      tag_11\n      swap2\n      swap1\n      tag_12\n      jump\t// in\n    tag_11:\n      tag_13\n      jump\t// in\n    tag_10:\n      stop\n        /* \"Learning Pth/TryCatchEX.sol\":864:1174  function tryAndCatchAddress(address _addr) public {... */\n    tag_5:\n      tag_14\n      0x04\n      dup1\n      calldatasize\n      sub\n      dup2\n      add\n      swap1\n      tag_15\n      swap2\n      swap1\n      tag_16\n      jump\t// in\n    tag_15:\n      tag_17\n      jump\t// in\n    tag_14:\n      stop\n        /* \"Learning Pth/TryCatchEX.sol\":534:544  A public a */\n    tag_7:\n      0x00\n      dup1\n      sload\n      swap1\n      0x0100\n      exp\n      swap1\n      div\n      0xffffffffffffffffffffffffffffffffffffffff\n      and\n      dup2\n      jump\t// out\n        /* \"Learning Pth/TryCatchEX.sol\":615:856  function tryAndCatchNum(uint _number) public {... */\n    tag_13:\n        /* \"Learning Pth/TryCatchEX.sol\":675:676  a */\n      0x00\n      dup1\n      sload\n      swap1\n      0x0100\n      exp\n      swap1\n      div\n      0xffffffffffffffffffffffffffffffffffffffff\n      and\n        /* \"Learning Pth/TryCatchEX.sol\":675:687  a.myFunction */\n      0xffffffffffffffffffffffffffffffffffffffff\n      and\n      0x50628c96\n        /* \"Learning Pth/TryCatchEX.sol\":688:695  _number */\n      dup3\n        /* \"Learning Pth/TryCatchEX.sol\":675:696  a.myFunction(_number) */\n      mload(0x40)\n      dup3\n      0xffffffff\n      and\n      0xe0\n      shl\n      dup2\n      mstore\n      0x04\n      add\n      tag_19\n      swap2\n      swap1\n      tag_20\n      jump\t// in\n    tag_19:\n      0x00\n      mload(0x40)\n      dup1\n      dup4\n      sub\n      dup2\n      dup7\n      gas\n      staticcall\n      swap3\n      pop\n      pop\n      pop\n      dup1\n      iszero\n      tag_21\n      jumpi\n      pop\n      mload(0x40)\n      returndatasize\n      0x00\n      dup3\n      returndatacopy\n      returndatasize\n      not(0x1f)\n      0x1f\n      dup3\n      add\n      and\n      dup3\n      add\n      dup1\n      0x40\n      mstore\n      pop\n      dup2\n      add\n      swap1\n      tag_22\n      swap2\n      swap1\n      tag_23\n      jump\t// in\n    tag_22:\n      0x01\n    tag_21:\n        /* \"Learning Pth/TryCatchEX.sol\":671:849  try a.myFunction(_number) returns(string memory result) {... */\n      tag_24\n      jumpi\n        /* \"Learning Pth/TryCatchEX.sol\":797:837  Log(\"couldn't fetch external call data\") */\n      0xcf34ef537ac33ee1ac626ca1587a0a7e8e51561e5514f8cb36afa1c5102b3bab\n      mload(0x40)\n      tag_28\n      swap1\n      tag_29\n      jump\t// in\n    tag_28:\n      mload(0x40)\n      dup1\n      swap2\n      sub\n      swap1\n      log1\n        /* \"Learning Pth/TryCatchEX.sol\":671:849  try a.myFunction(_number) returns(string memory result) {... */\n      jump(tag_30)\n    tag_24:\n        /* \"Learning Pth/TryCatchEX.sol\":747:758  Log(result) */\n      0xcf34ef537ac33ee1ac626ca1587a0a7e8e51561e5514f8cb36afa1c5102b3bab\n        /* \"Learning Pth/TryCatchEX.sol\":751:757  result */\n      dup2\n        /* \"Learning Pth/TryCatchEX.sol\":747:758  Log(result) */\n      mload(0x40)\n      tag_31\n      swap2\n      swap1\n      tag_32\n      jump\t// in\n    tag_31:\n      mload(0x40)\n      dup1\n      swap2\n      sub\n      swap1\n      log1\n        /* \"Learning Pth/TryCatchEX.sol\":697:770  returns(string memory result) {... */\n      pop\n        /* \"Learning Pth/TryCatchEX.sol\":671:849  try a.myFunction(_number) returns(string memory result) {... */\n    tag_30:\n        /* \"Learning Pth/TryCatchEX.sol\":615:856  function tryAndCatchNum(uint _number) public {... */\n      pop\n      jump\t// out\n        /* \"Learning Pth/TryCatchEX.sol\":864:1174  function tryAndCatchAddress(address _addr) public {... */\n    tag_17:\n        /* \"Learning Pth/TryCatchEX.sol\":935:940  _addr */\n      dup1\n        /* \"Learning Pth/TryCatchEX.sol\":929:941  new A(_addr) */\n      mload(0x40)\n      tag_34\n      swap1\n      tag_35\n      jump\t// in\n    tag_34:\n      tag_36\n      swap2\n      swap1\n      tag_37\n      jump\t// in\n    tag_36:\n      mload(0x40)\n      dup1\n      swap2\n      sub\n      swap1\n      0x00\n      create\n      dup1\n      iszero\n      tag_38\n      jumpi\n      0x01\n    tag_38:\n        /* \"Learning Pth/TryCatchEX.sol\":925:1167  try new A(_addr) returns(A) {... */\n      tag_39\n      jumpi\n      tag_43\n      tag_44\n      jump\t// in\n    tag_43:\n      dup1\n      0x08c379a0\n      sub\n      tag_42\n      jumpi\n      pop\n      tag_45\n      tag_46\n      jump\t// in\n    tag_45:\n      dup1\n      tag_47\n      jumpi\n      pop\n      jump(tag_41)\n    tag_47:\n        /* \"Learning Pth/TryCatchEX.sol\":1068:1079  Log(reason) */\n      0xcf34ef537ac33ee1ac626ca1587a0a7e8e51561e5514f8cb36afa1c5102b3bab\n        /* \"Learning Pth/TryCatchEX.sol\":1072:1078  reason */\n      dup2\n        /* \"Learning Pth/TryCatchEX.sol\":1068:1079  Log(reason) */\n      mload(0x40)\n      tag_48\n      swap2\n      swap1\n      tag_32\n      jump\t// in\n    tag_48:\n      mload(0x40)\n      dup1\n      swap2\n      sub\n      swap1\n      log1\n        /* \"Learning Pth/TryCatchEX.sol\":1013:1091  catch Error (string memory reason) {... */\n      pop\n        /* \"Learning Pth/TryCatchEX.sol\":925:1167  try new A(_addr) returns(A) {... */\n      jump(tag_40)\n    tag_42:\n      pop\n    tag_41:\n      returndatasize\n      dup1\n      0x00\n      dup2\n      eq\n      tag_50\n      jumpi\n      mload(0x40)\n      swap2\n      pop\n      and(add(returndatasize, 0x3f), not(0x1f))\n      dup3\n      add\n      0x40\n      mstore\n      returndatasize\n      dup3\n      mstore\n      returndatasize\n      0x00\n      0x20\n      dup5\n      add\n      returndatacopy\n      jump(tag_49)\n    tag_50:\n      0x60\n      swap2\n      pop\n    tag_49:\n      pop\n        /* \"Learning Pth/TryCatchEX.sol\":1140:1155  LogByte(reason) */\n      0x3055ab4f5ad62abb7e17c2a3c8bac6f6b3f8ce3fea318218845b94a96525e483\n        /* \"Learning Pth/TryCatchEX.sol\":1148:1154  reason */\n      dup2\n        /* \"Learning Pth/TryCatchEX.sol\":1140:1155  LogByte(reason) */\n      mload(0x40)\n      tag_51\n      swap2\n      swap1\n      tag_52\n      jump\t// in\n    tag_51:\n      mload(0x40)\n      dup1\n      swap2\n      sub\n      swap1\n      log1\n        /* \"Learning Pth/TryCatchEX.sol\":1092:1167  catch (bytes memory reason) {... */\n      pop\n        /* \"Learning Pth/TryCatchEX.sol\":925:1167  try new A(_addr) returns(A) {... */\n    tag_40:\n      jump(tag_53)\n    tag_39:\n        /* \"Learning Pth/TryCatchEX.sol\":973:1000  Log(\"the address is valid\") */\n      0xcf34ef537ac33ee1ac626ca1587a0a7e8e51561e5514f8cb36afa1c5102b3bab\n      mload(0x40)\n      tag_54\n      swap1\n      tag_55\n      jump\t// in\n    tag_54:\n      mload(0x40)\n      dup1\n      swap2\n      sub\n      swap1\n      log1\n        /* \"Learning Pth/TryCatchEX.sol\":942:1012  returns(A) {... */\n      pop\n        /* \"Learning Pth/TryCatchEX.sol\":925:1167  try new A(_addr) returns(A) {... */\n    tag_53:\n        /* \"Learning Pth/TryCatchEX.sol\":864:1174  function tryAndCatchAddress(address _addr) public {... */\n      pop\n      jump\t// out\n    tag_35:\n      dataSize(sub_0)\n      dup1\n      dataOffset(sub_0)\n      dup4\n      codecopy\n      add\n      swap1\n      jump\t// out\n        /* \"#utility.yul\":7:133   */\n    tag_56:\n        /* \"#utility.yul\":44:51   */\n      0x00\n        /* \"#utility.yul\":84:126   */\n      0xffffffffffffffffffffffffffffffffffffffff\n        /* \"#utility.yul\":77:82   */\n      dup3\n        /* \"#utility.yul\":73:127   */\n      and\n        /* \"#utility.yul\":62:127   */\n      swap1\n      pop\n        /* \"#utility.yul\":7:133   */\n      swap2\n      swap1\n      pop\n      jump\t// out\n        /* \"#utility.yul\":139:199   */\n    tag_57:\n        /* \"#utility.yul\":167:170   */\n      0x00\n        /* \"#utility.yul\":188:193   */\n      dup2\n        /* \"#utility.yul\":181:193   */\n      swap1\n      pop\n        /* \"#utility.yul\":139:199   */\n      swap2\n      swap1\n      pop\n      jump\t// out\n        /* \"#utility.yul\":205:347   */\n    tag_58:\n        /* \"#utility.yul\":255:264   */\n      0x00\n        /* \"#utility.yul\":288:341   */\n      tag_98\n        /* \"#utility.yul\":306:340   */\n      tag_99\n        /* \"#utility.yul\":315:339   */\n      tag_100\n        /* \"#utility.yul\":333:338   */\n      dup5\n        /* \"#utility.yul\":315:339   */\n      tag_56\n      jump\t// in\n    tag_100:\n        /* \"#utility.yul\":306:340   */\n      tag_57\n      jump\t// in\n    tag_99:\n        /* \"#utility.yul\":288:341   */\n      tag_56\n      jump\t// in\n    tag_98:\n        /* \"#utility.yul\":275:341   */\n      swap1\n      pop\n        /* \"#utility.yul\":205:347   */\n      swap2\n      swap1\n      pop\n      jump\t// out\n        /* \"#utility.yul\":353:479   */\n    tag_59:\n        /* \"#utility.yul\":403:412   */\n      0x00\n        /* \"#utility.yul\":436:473   */\n      tag_102\n        /* \"#utility.yul\":467:472   */\n      dup3\n        /* \"#utility.yul\":436:473   */\n      tag_58\n      jump\t// in\n    tag_102:\n        /* \"#utility.yul\":423:473   */\n      swap1\n      pop\n        /* \"#utility.yul\":353:479   */\n      swap2\n      swap1\n      pop\n      jump\t// out\n        /* \"#utility.yul\":485:619   */\n    tag_60:\n        /* \"#utility.yul\":543:552   */\n      0x00\n        /* \"#utility.yul\":576:613   */\n      tag_104\n        /* \"#utility.yul\":607:612   */\n      dup3\n        /* \"#utility.yul\":576:613   */\n      tag_59\n      jump\t// in\n    tag_104:\n        /* \"#utility.yul\":563:613   */\n      swap1\n      pop\n        /* \"#utility.yul\":485:619   */\n      swap2\n      swap1\n      pop\n      jump\t// out\n        /* \"#utility.yul\":625:772   */\n    tag_61:\n        /* \"#utility.yul\":720:765   */\n      tag_106\n        /* \"#utility.yul\":759:764   */\n      dup2\n        /* \"#utility.yul\":720:765   */\n      tag_60\n      jump\t// in\n    tag_106:\n        /* \"#utility.yul\":715:718   */\n      dup3\n        /* \"#utility.yul\":708:766   */\n      mstore\n        /* \"#utility.yul\":625:772   */\n      pop\n      pop\n      jump\t// out\n        /* \"#utility.yul\":778:1016   */\n    tag_9:\n        /* \"#utility.yul\":879:883   */\n      0x00\n        /* \"#utility.yul\":917:919   */\n      0x20\n        /* \"#utility.yul\":906:915   */\n      dup3\n        /* \"#utility.yul\":902:920   */\n      add\n        /* \"#utility.yul\":894:920   */\n      swap1\n      pop\n        /* \"#utility.yul\":930:1009   */\n      tag_108\n        /* \"#utility.yul\":1006:1007   */\n      0x00\n        /* \"#utility.yul\":995:1004   */\n      dup4\n        /* \"#utility.yul\":991:1008   */\n      add\n        /* \"#utility.yul\":982:988   */\n      dup5\n        /* \"#utility.yul\":930:1009   */\n      tag_61\n      jump\t// in\n    tag_108:\n        /* \"#utility.yul\":778:1016   */\n      swap3\n      swap2\n      pop\n      pop\n      jump\t// out\n        /* \"#utility.yul\":1022:1097   */\n    tag_62:\n        /* \"#utility.yul\":1055:1061   */\n      0x00\n        /* \"#utility.yul\":1088:1090   */\n      0x40\n        /* \"#utility.yul\":1082:1091   */\n      mload\n        /* \"#utility.yul\":1072:1091   */\n      swap1\n      pop\n        /* \"#utility.yul\":1022:1097   */\n      swap1\n      jump\t// out\n        /* \"#utility.yul\":1103:1220   */\n    tag_63:\n        /* \"#utility.yul\":1212:1213   */\n      0x00\n        /* \"#utility.yul\":1209:1210   */\n      dup1\n        /* \"#utility.yul\":1202:1214   */\n      revert\n        /* \"#utility.yul\":1226:1343   */\n    tag_64:\n        /* \"#utility.yul\":1335:1336   */\n      0x00\n        /* \"#utility.yul\":1332:1333   */\n      dup1\n        /* \"#utility.yul\":1325:1337   */\n      revert\n        /* \"#utility.yul\":1349:1426   */\n    tag_65:\n        /* \"#utility.yul\":1386:1393   */\n      0x00\n        /* \"#utility.yul\":1415:1420   */\n      dup2\n        /* \"#utility.yul\":1404:1420   */\n      swap1\n      pop\n        /* \"#utility.yul\":1349:1426   */\n      swap2\n      swap1\n      pop\n      jump\t// out\n        /* \"#utility.yul\":1432:1554   */\n    tag_66:\n        /* \"#utility.yul\":1505:1529   */\n      tag_114\n        /* \"#utility.yul\":1523:1528   */\n      dup2\n        /* \"#utility.yul\":1505:1529   */\n      tag_65\n      jump\t// in\n    tag_114:\n        /* \"#utility.yul\":1498:1503   */\n      dup2\n        /* \"#utility.yul\":1495:1530   */\n      eq\n        /* \"#utility.yul\":1485:1548   */\n      tag_115\n      jumpi\n        /* \"#utility.yul\":1544:1545   */\n      0x00\n        /* \"#utility.yul\":1541:1542   */\n      dup1\n        /* \"#utility.yul\":1534:1546   */\n      revert\n        /* \"#utility.yul\":1485:1548   */\n    tag_115:\n        /* \"#utility.yul\":1432:1554   */\n      pop\n      jump\t// out\n        /* \"#utility.yul\":1560:1699   */\n    tag_67:\n        /* \"#utility.yul\":1606:1611   */\n      0x00\n        /* \"#utility.yul\":1644:1650   */\n      dup2\n        /* \"#utility.yul\":1631:1651   */\n      calldataload\n        /* \"#utility.yul\":1622:1651   */\n      swap1\n      pop\n        /* \"#utility.yul\":1660:1693   */\n      tag_117\n        /* \"#utility.yul\":1687:1692   */\n      dup2\n        /* \"#utility.yul\":1660:1693   */\n      tag_66\n      jump\t// in\n    tag_117:\n        /* \"#utility.yul\":1560:1699   */\n      swap3\n      swap2\n      pop\n      pop\n      jump\t// out\n        /* \"#utility.yul\":1705:2034   */\n    tag_12:\n        /* \"#utility.yul\":1764:1770   */\n      0x00\n        /* \"#utility.yul\":1813:1815   */\n      0x20\n        /* \"#utility.yul\":1801:1810   */\n      dup3\n        /* \"#utility.yul\":1792:1799   */\n      dup5\n        /* \"#utility.yul\":1788:1811   */\n      sub\n        /* \"#utility.yul\":1784:1816   */\n      slt\n        /* \"#utility.yul\":1781:1900   */\n      iszero\n      tag_119\n      jumpi\n        /* \"#utility.yul\":1819:1898   */\n      tag_120\n      tag_63\n      jump\t// in\n    tag_120:\n        /* \"#utility.yul\":1781:1900   */\n    tag_119:\n        /* \"#utility.yul\":1939:1940   */\n      0x00\n        /* \"#utility.yul\":1964:2017   */\n      tag_121\n        /* \"#utility.yul\":2009:2016   */\n      dup5\n        /* \"#utility.yul\":2000:2006   */\n      dup3\n        /* \"#utility.yul\":1989:1998   */\n      dup6\n        /* \"#utility.yul\":1985:2007   */\n      add\n        /* \"#utility.yul\":1964:2017   */\n      tag_67\n      jump\t// in\n    tag_121:\n        /* \"#utility.yul\":1954:2017   */\n      swap2\n      pop\n        /* \"#utility.yul\":1910:2027   */\n      pop\n        /* \"#utility.yul\":1705:2034   */\n      swap3\n      swap2\n      pop\n      pop\n      jump\t// out\n        /* \"#utility.yul\":2040:2136   */\n    tag_68:\n        /* \"#utility.yul\":2077:2084   */\n      0x00\n        /* \"#utility.yul\":2106:2130   */\n      tag_123\n        /* \"#utility.yul\":2124:2129   */\n      dup3\n        /* \"#utility.yul\":2106:2130   */\n      tag_56\n      jump\t// in\n    tag_123:\n        /* \"#utility.yul\":2095:2130   */\n      swap1\n      pop\n        /* \"#utility.yul\":2040:2136   */\n      swap2\n      swap1\n      pop\n      jump\t// out\n        /* \"#utility.yul\":2142:2264   */\n    tag_69:\n        /* \"#utility.yul\":2215:2239   */\n      tag_125\n        /* \"#utility.yul\":2233:2238   */\n      dup2\n        /* \"#utility.yul\":2215:2239   */\n      tag_68\n      jump\t// in\n    tag_125:\n        /* \"#utility.yul\":2208:2213   */\n      dup2\n        /* \"#utility.yul\":2205:2240   */\n      eq\n        /* \"#utility.yul\":2195:2258   */\n      tag_126\n      jumpi\n        /* \"#utility.yul\":2254:2255   */\n      0x00\n        /* \"#utility.yul\":2251:2252   */\n      dup1\n        /* \"#utility.yul\":2244:2256   */\n      revert\n        /* \"#utility.yul\":2195:2258   */\n    tag_126:\n        /* \"#utility.yul\":2142:2264   */\n      pop\n      jump\t// out\n        /* \"#utility.yul\":2270:2409   */\n    tag_70:\n        /* \"#utility.yul\":2316:2321   */\n      0x00\n        /* \"#utility.yul\":2354:2360   */\n      dup2\n        /* \"#utility.yul\":2341:2361   */\n      calldataload\n        /* \"#utility.yul\":2332:2361   */\n      swap1\n      pop\n        /* \"#utility.yul\":2370:2403   */\n      tag_128\n        /* \"#utility.yul\":2397:2402   */\n      dup2\n        /* \"#utility.yul\":2370:2403   */\n      tag_69\n      jump\t// in\n    tag_128:\n        /* \"#utility.yul\":2270:2409   */\n      swap3\n      swap2\n      pop\n      pop\n      jump\t// out\n        /* \"#utility.yul\":2415:2744   */\n    tag_16:\n        /* \"#utility.yul\":2474:2480   */\n      0x00\n        /* \"#utility.yul\":2523:2525   */\n      0x20\n        /* \"#utility.yul\":2511:2520   */\n      dup3\n        /* \"#utility.yul\":2502:2509   */\n      dup5\n        /* \"#utility.yul\":2498:2521   */\n      sub\n        /* \"#utility.yul\":2494:2526   */\n      slt\n        /* \"#utility.yul\":2491:2610   */\n      iszero\n      tag_130\n      jumpi\n        /* \"#utility.yul\":2529:2608   */\n      tag_131\n      tag_63\n      jump\t// in\n    tag_131:\n        /* \"#utility.yul\":2491:2610   */\n    tag_130:\n        /* \"#utility.yul\":2649:2650   */\n      0x00\n        /* \"#utility.yul\":2674:2727   */\n      tag_132\n        /* \"#utility.yul\":2719:2726   */\n      dup5\n        /* \"#utility.yul\":2710:2716   */\n      dup3\n        /* \"#utility.yul\":2699:2708   */\n      dup6\n        /* \"#utility.yul\":2695:2717   */\n      add\n        /* \"#utility.yul\":2674:2727   */\n      tag_70\n      jump\t// in\n    tag_132:\n        /* \"#utility.yul\":2664:2727   */\n      swap2\n      pop\n        /* \"#utility.yul\":2620:2737   */\n      pop\n        /* \"#utility.yul\":2415:2744   */\n      swap3\n      swap2\n      pop\n      pop\n      jump\t// out\n        /* \"#utility.yul\":2750:2868   */\n    tag_71:\n        /* \"#utility.yul\":2837:2861   */\n      tag_134\n        /* \"#utility.yul\":2855:2860   */\n      dup2\n        /* \"#utility.yul\":2837:2861   */\n      tag_65\n      jump\t// in\n    tag_134:\n        /* \"#utility.yul\":2832:2835   */\n      dup3\n        /* \"#utility.yul\":2825:2862   */\n      mstore\n        /* \"#utility.yul\":2750:2868   */\n      pop\n      pop\n      jump\t// out\n        /* \"#utility.yul\":2874:3096   */\n    tag_20:\n        /* \"#utility.yul\":2967:2971   */\n      0x00\n        /* \"#utility.yul\":3005:3007   */\n      0x20\n        /* \"#utility.yul\":2994:3003   */\n      dup3\n        /* \"#utility.yul\":2990:3008   */\n      add\n        /* \"#utility.yul\":2982:3008   */\n      swap1\n      pop\n        /* \"#utility.yul\":3018:3089   */\n      tag_136\n        /* \"#utility.yul\":3086:3087   */\n      0x00\n        /* \"#utility.yul\":3075:3084   */\n      dup4\n        /* \"#utility.yul\":3071:3088   */\n      add\n        /* \"#utility.yul\":3062:3068   */\n      dup5\n        /* \"#utility.yul\":3018:3089   */\n      tag_71\n      jump\t// in\n    tag_136:\n        /* \"#utility.yul\":2874:3096   */\n      swap3\n      swap2\n      pop\n      pop\n      jump\t// out\n        /* \"#utility.yul\":3102:3219   */\n    tag_72:\n        /* \"#utility.yul\":3211:3212   */\n      0x00\n        /* \"#utility.yul\":3208:3209   */\n      dup1\n        /* \"#utility.yul\":3201:3213   */\n      revert\n        /* \"#utility.yul\":3225:3342   */\n    tag_73:\n        /* \"#utility.yul\":3334:3335   */\n      0x00\n        /* \"#utility.yul\":3331:3332   */\n      dup1\n        /* \"#utility.yul\":3324:3336   */\n      revert\n        /* \"#utility.yul\":3348:3450   */\n    tag_74:\n        /* \"#utility.yul\":3389:3395   */\n      0x00\n        /* \"#utility.yul\":3440:3442   */\n      0x1f\n        /* \"#utility.yul\":3436:3443   */\n      not\n        /* \"#utility.yul\":3431:3433   */\n      0x1f\n        /* \"#utility.yul\":3424:3429   */\n      dup4\n        /* \"#utility.yul\":3420:3434   */\n      add\n        /* \"#utility.yul\":3416:3444   */\n      and\n        /* \"#utility.yul\":3406:3444   */\n      swap1\n      pop\n        /* \"#utility.yul\":3348:3450   */\n      swap2\n      swap1\n      pop\n      jump\t// out\n        /* \"#utility.yul\":3456:3636   */\n    tag_75:\n        /* \"#utility.yul\":3504:3581   */\n      0x4e487b7100000000000000000000000000000000000000000000000000000000\n        /* \"#utility.yul\":3501:3502   */\n      0x00\n        /* \"#utility.yul\":3494:3582   */\n      mstore\n        /* \"#utility.yul\":3601:3605   */\n      0x41\n        /* \"#utility.yul\":3598:3599   */\n      0x04\n        /* \"#utility.yul\":3591:3606   */\n      mstore\n        /* \"#utility.yul\":3625:3629   */\n      0x24\n        /* \"#utility.yul\":3622:3623   */\n      0x00\n        /* \"#utility.yul\":3615:3630   */\n      revert\n        /* \"#utility.yul\":3642:3923   */\n    tag_76:\n        /* \"#utility.yul\":3725:3752   */\n      tag_142\n        /* \"#utility.yul\":3747:3751   */\n      dup3\n        /* \"#utility.yul\":3725:3752   */\n      tag_74\n      jump\t// in\n    tag_142:\n        /* \"#utility.yul\":3717:3723   */\n      dup2\n        /* \"#utility.yul\":3713:3753   */\n      add\n        /* \"#utility.yul\":3855:3861   */\n      dup2\n        /* \"#utility.yul\":3843:3853   */\n      dup2\n        /* \"#utility.yul\":3840:3862   */\n      lt\n        /* \"#utility.yul\":3819:3837   */\n      0xffffffffffffffff\n        /* \"#utility.yul\":3807:3817   */\n      dup3\n        /* \"#utility.yul\":3804:3838   */\n      gt\n        /* \"#utility.yul\":3801:3863   */\n      or\n        /* \"#utility.yul\":3798:3886   */\n      iszero\n      tag_143\n      jumpi\n        /* \"#utility.yul\":3866:3884   */\n      tag_144\n      tag_75\n      jump\t// in\n    tag_144:\n        /* \"#utility.yul\":3798:3886   */\n    tag_143:\n        /* \"#utility.yul\":3906:3916   */\n      dup1\n        /* \"#utility.yul\":3902:3904   */\n      0x40\n        /* \"#utility.yul\":3895:3917   */\n      mstore\n        /* \"#utility.yul\":3685:3923   */\n      pop\n        /* \"#utility.yul\":3642:3923   */\n      pop\n      pop\n      jump\t// out\n        /* \"#utility.yul\":3929:4058   */\n    tag_77:\n        /* \"#utility.yul\":3963:3969   */\n      0x00\n        /* \"#utility.yul\":3990:4010   */\n      tag_146\n      tag_62\n      jump\t// in\n    tag_146:\n        /* \"#utility.yul\":3980:4010   */\n      swap1\n      pop\n        /* \"#utility.yul\":4019:4052   */\n      tag_147\n        /* \"#utility.yul\":4047:4051   */\n      dup3\n        /* \"#utility.yul\":4039:4045   */\n      dup3\n        /* \"#utility.yul\":4019:4052   */\n      tag_76\n      jump\t// in\n    tag_147:\n        /* \"#utility.yul\":3929:4058   */\n      swap2\n      swap1\n      pop\n      jump\t// out\n        /* \"#utility.yul\":4064:4372   */\n    tag_78:\n        /* \"#utility.yul\":4126:4130   */\n      0x00\n        /* \"#utility.yul\":4216:4234   */\n      0xffffffffffffffff\n        /* \"#utility.yul\":4208:4214   */\n      dup3\n        /* \"#utility.yul\":4205:4235   */\n      gt\n        /* \"#utility.yul\":4202:4258   */\n      iszero\n      tag_149\n      jumpi\n        /* \"#utility.yul\":4238:4256   */\n      tag_150\n      tag_75\n      jump\t// in\n    tag_150:\n        /* \"#utility.yul\":4202:4258   */\n    tag_149:\n        /* \"#utility.yul\":4276:4305   */\n      tag_151\n        /* \"#utility.yul\":4298:4304   */\n      dup3\n        /* \"#utility.yul\":4276:4305   */\n      tag_74\n      jump\t// in\n    tag_151:\n        /* \"#utility.yul\":4268:4305   */\n      swap1\n      pop\n        /* \"#utility.yul\":4360:4364   */\n      0x20\n        /* \"#utility.yul\":4354:4358   */\n      dup2\n        /* \"#utility.yul\":4350:4365   */\n      add\n        /* \"#utility.yul\":4342:4365   */\n      swap1\n      pop\n        /* \"#utility.yul\":4064:4372   */\n      swap2\n      swap1\n      pop\n      jump\t// out\n        /* \"#utility.yul\":4378:4517   */\n    tag_79:\n        /* \"#utility.yul\":4467:4473   */\n      dup3\n        /* \"#utility.yul\":4462:4465   */\n      dup2\n        /* \"#utility.yul\":4457:4460   */\n      dup4\n        /* \"#utility.yul\":4451:4474   */\n      mcopy\n        /* \"#utility.yul\":4508:4509   */\n      0x00\n        /* \"#utility.yul\":4499:4505   */\n      dup4\n        /* \"#utility.yul\":4494:4497   */\n      dup4\n        /* \"#utility.yul\":4490:4506   */\n      add\n        /* \"#utility.yul\":4483:4510   */\n      mstore\n        /* \"#utility.yul\":4378:4517   */\n      pop\n      pop\n      pop\n      jump\t// out\n        /* \"#utility.yul\":4523:4957   */\n    tag_80:\n        /* \"#utility.yul\":4612:4617   */\n      0x00\n        /* \"#utility.yul\":4637:4703   */\n      tag_154\n        /* \"#utility.yul\":4653:4702   */\n      tag_155\n        /* \"#utility.yul\":4695:4701   */\n      dup5\n        /* \"#utility.yul\":4653:4702   */\n      tag_78\n      jump\t// in\n    tag_155:\n        /* \"#utility.yul\":4637:4703   */\n      tag_77\n      jump\t// in\n    tag_154:\n        /* \"#utility.yul\":4628:4703   */\n      swap1\n      pop\n        /* \"#utility.yul\":4726:4732   */\n      dup3\n        /* \"#utility.yul\":4719:4724   */\n      dup2\n        /* \"#utility.yul\":4712:4733   */\n      mstore\n        /* \"#utility.yul\":4764:4768   */\n      0x20\n        /* \"#utility.yul\":4757:4762   */\n      dup2\n        /* \"#utility.yul\":4753:4769   */\n      add\n        /* \"#utility.yul\":4802:4805   */\n      dup5\n        /* \"#utility.yul\":4793:4799   */\n      dup5\n        /* \"#utility.yul\":4788:4791   */\n      dup5\n        /* \"#utility.yul\":4784:4800   */\n      add\n        /* \"#utility.yul\":4781:4806   */\n      gt\n        /* \"#utility.yul\":4778:4890   */\n      iszero\n      tag_156\n      jumpi\n        /* \"#utility.yul\":4809:4888   */\n      tag_157\n      tag_73\n      jump\t// in\n    tag_157:\n        /* \"#utility.yul\":4778:4890   */\n    tag_156:\n        /* \"#utility.yul\":4899:4951   */\n      tag_158\n        /* \"#utility.yul\":4944:4950   */\n      dup5\n        /* \"#utility.yul\":4939:4942   */\n      dup3\n        /* \"#utility.yul\":4934:4937   */\n      dup6\n        /* \"#utility.yul\":4899:4951   */\n      tag_79\n      jump\t// in\n    tag_158:\n        /* \"#utility.yul\":4618:4957   */\n      pop\n        /* \"#utility.yul\":4523:4957   */\n      swap4\n      swap3\n      pop\n      pop\n      pop\n      jump\t// out\n        /* \"#utility.yul\":4977:5332   */\n    tag_81:\n        /* \"#utility.yul\":5044:5049   */\n      0x00\n        /* \"#utility.yul\":5093:5096   */\n      dup3\n        /* \"#utility.yul\":5086:5090   */\n      0x1f\n        /* \"#utility.yul\":5078:5084   */\n      dup4\n        /* \"#utility.yul\":5074:5091   */\n      add\n        /* \"#utility.yul\":5070:5097   */\n      slt\n        /* \"#utility.yul\":5060:5182   */\n      tag_160\n      jumpi\n        /* \"#utility.yul\":5101:5180   */\n      tag_161\n      tag_72\n      jump\t// in\n    tag_161:\n        /* \"#utility.yul\":5060:5182   */\n    tag_160:\n        /* \"#utility.yul\":5211:5217   */\n      dup2\n        /* \"#utility.yul\":5205:5218   */\n      mload\n        /* \"#utility.yul\":5236:5326   */\n      tag_162\n        /* \"#utility.yul\":5322:5325   */\n      dup5\n        /* \"#utility.yul\":5314:5320   */\n      dup3\n        /* \"#utility.yul\":5307:5311   */\n      0x20\n        /* \"#utility.yul\":5299:5305   */\n      dup7\n        /* \"#utility.yul\":5295:5312   */\n      add\n        /* \"#utility.yul\":5236:5326   */\n      tag_80\n      jump\t// in\n    tag_162:\n        /* \"#utility.yul\":5227:5326   */\n      swap2\n      pop\n        /* \"#utility.yul\":5050:5332   */\n      pop\n        /* \"#utility.yul\":4977:5332   */\n      swap3\n      swap2\n      pop\n      pop\n      jump\t// out\n        /* \"#utility.yul\":5338:5862   */\n    tag_23:\n        /* \"#utility.yul\":5418:5424   */\n      0x00\n        /* \"#utility.yul\":5467:5469   */\n      0x20\n        /* \"#utility.yul\":5455:5464   */\n      dup3\n        /* \"#utility.yul\":5446:5453   */\n      dup5\n        /* \"#utility.yul\":5442:5465   */\n      sub\n        /* \"#utility.yul\":5438:5470   */\n      slt\n        /* \"#utility.yul\":5435:5554   */\n      iszero\n      tag_164\n      jumpi\n        /* \"#utility.yul\":5473:5552   */\n      tag_165\n      tag_63\n      jump\t// in\n    tag_165:\n        /* \"#utility.yul\":5435:5554   */\n    tag_164:\n        /* \"#utility.yul\":5614:5615   */\n      0x00\n        /* \"#utility.yul\":5603:5612   */\n      dup3\n        /* \"#utility.yul\":5599:5616   */\n      add\n        /* \"#utility.yul\":5593:5617   */\n      mload\n        /* \"#utility.yul\":5644:5662   */\n      0xffffffffffffffff\n        /* \"#utility.yul\":5636:5642   */\n      dup2\n        /* \"#utility.yul\":5633:5663   */\n      gt\n        /* \"#utility.yul\":5630:5747   */\n      iszero\n      tag_166\n      jumpi\n        /* \"#utility.yul\":5666:5745   */\n      tag_167\n      tag_64\n      jump\t// in\n    tag_167:\n        /* \"#utility.yul\":5630:5747   */\n    tag_166:\n        /* \"#utility.yul\":5771:5845   */\n      tag_168\n        /* \"#utility.yul\":5837:5844   */\n      dup5\n        /* \"#utility.yul\":5828:5834   */\n      dup3\n        /* \"#utility.yul\":5817:5826   */\n      dup6\n        /* \"#utility.yul\":5813:5835   */\n      add\n        /* \"#utility.yul\":5771:5845   */\n      tag_81\n      jump\t// in\n    tag_168:\n        /* \"#utility.yul\":5761:5845   */\n      swap2\n      pop\n        /* \"#utility.yul\":5564:5855   */\n      pop\n        /* \"#utility.yul\":5338:5862   */\n      swap3\n      swap2\n      pop\n      pop\n      jump\t// out\n        /* \"#utility.yul\":5868:6037   */\n    tag_82:\n        /* \"#utility.yul\":5952:5963   */\n      0x00\n        /* \"#utility.yul\":5986:5992   */\n      dup3\n        /* \"#utility.yul\":5981:5984   */\n      dup3\n        /* \"#utility.yul\":5974:5993   */\n      mstore\n        /* \"#utility.yul\":6026:6030   */\n      0x20\n        /* \"#utility.yul\":6021:6024   */\n      dup3\n        /* \"#utility.yul\":6017:6031   */\n      add\n        /* \"#utility.yul\":6002:6031   */\n      swap1\n      pop\n        /* \"#utility.yul\":5868:6037   */\n      swap3\n      swap2\n      pop\n      pop\n      jump\t// out\n        /* \"#utility.yul\":6043:6263   */\n    tag_83:\n        /* \"#utility.yul\":6183:6217   */\n      0x636f756c646e27742066657463682065787465726e616c2063616c6c20646174\n        /* \"#utility.yul\":6179:6180   */\n      0x00\n        /* \"#utility.yul\":6171:6177   */\n      dup3\n        /* \"#utility.yul\":6167:6181   */\n      add\n        /* \"#utility.yul\":6160:6218   */\n      mstore\n        /* \"#utility.yul\":6252:6255   */\n      0x6100000000000000000000000000000000000000000000000000000000000000\n        /* \"#utility.yul\":6247:6249   */\n      0x20\n        /* \"#utility.yul\":6239:6245   */\n      dup3\n        /* \"#utility.yul\":6235:6250   */\n      add\n        /* \"#utility.yul\":6228:6256   */\n      mstore\n        /* \"#utility.yul\":6043:6263   */\n      pop\n      jump\t// out\n        /* \"#utility.yul\":6269:6635   */\n    tag_84:\n        /* \"#utility.yul\":6411:6414   */\n      0x00\n        /* \"#utility.yul\":6432:6499   */\n      tag_172\n        /* \"#utility.yul\":6496:6498   */\n      0x21\n        /* \"#utility.yul\":6491:6494   */\n      dup4\n        /* \"#utility.yul\":6432:6499   */\n      tag_82\n      jump\t// in\n    tag_172:\n        /* \"#utility.yul\":6425:6499   */\n      swap2\n      pop\n        /* \"#utility.yul\":6508:6601   */\n      tag_173\n        /* \"#utility.yul\":6597:6600   */\n      dup3\n        /* \"#utility.yul\":6508:6601   */\n      tag_83\n      jump\t// in\n    tag_173:\n        /* \"#utility.yul\":6626:6628   */\n      0x40\n        /* \"#utility.yul\":6621:6624   */\n      dup3\n        /* \"#utility.yul\":6617:6629   */\n      add\n        /* \"#utility.yul\":6610:6629   */\n      swap1\n      pop\n        /* \"#utility.yul\":6269:6635   */\n      swap2\n      swap1\n      pop\n      jump\t// out\n        /* \"#utility.yul\":6641:7060   */\n    tag_29:\n        /* \"#utility.yul\":6807:6811   */\n      0x00\n        /* \"#utility.yul\":6845:6847   */\n      0x20\n        /* \"#utility.yul\":6834:6843   */\n      dup3\n        /* \"#utility.yul\":6830:6848   */\n      add\n        /* \"#utility.yul\":6822:6848   */\n      swap1\n      pop\n        /* \"#utility.yul\":6894:6903   */\n      dup2\n        /* \"#utility.yul\":6888:6892   */\n      dup2\n        /* \"#utility.yul\":6884:6904   */\n      sub\n        /* \"#utility.yul\":6880:6881   */\n      0x00\n        /* \"#utility.yul\":6869:6878   */\n      dup4\n        /* \"#utility.yul\":6865:6882   */\n      add\n        /* \"#utility.yul\":6858:6905   */\n      mstore\n        /* \"#utility.yul\":6922:7053   */\n      tag_175\n        /* \"#utility.yul\":7048:7052   */\n      dup2\n        /* \"#utility.yul\":6922:7053   */\n      tag_84\n      jump\t// in\n    tag_175:\n        /* \"#utility.yul\":6914:7053   */\n      swap1\n      pop\n        /* \"#utility.yul\":6641:7060   */\n      swap2\n      swap1\n      pop\n      jump\t// out\n        /* \"#utility.yul\":7066:7165   */\n    tag_85:\n        /* \"#utility.yul\":7118:7124   */\n      0x00\n        /* \"#utility.yul\":7152:7157   */\n      dup2\n        /* \"#utility.yul\":7146:7158   */\n      mload\n        /* \"#utility.yul\":7136:7158   */\n      swap1\n      pop\n        /* \"#utility.yul\":7066:7165   */\n      swap2\n      swap1\n      pop\n      jump\t// out\n        /* \"#utility.yul\":7171:7548   */\n    tag_86:\n        /* \"#utility.yul\":7259:7262   */\n      0x00\n        /* \"#utility.yul\":7287:7326   */\n      tag_178\n        /* \"#utility.yul\":7320:7325   */\n      dup3\n        /* \"#utility.yul\":7287:7326   */\n      tag_85\n      jump\t// in\n    tag_178:\n        /* \"#utility.yul\":7342:7413   */\n      tag_179\n        /* \"#utility.yul\":7406:7412   */\n      dup2\n        /* \"#utility.yul\":7401:7404   */\n      dup6\n        /* \"#utility.yul\":7342:7413   */\n      tag_82\n      jump\t// in\n    tag_179:\n        /* \"#utility.yul\":7335:7413   */\n      swap4\n      pop\n        /* \"#utility.yul\":7422:7487   */\n      tag_180\n        /* \"#utility.yul\":7480:7486   */\n      dup2\n        /* \"#utility.yul\":7475:7478   */\n      dup6\n        /* \"#utility.yul\":7468:7472   */\n      0x20\n        /* \"#utility.yul\":7461:7466   */\n      dup7\n        /* \"#utility.yul\":7457:7473   */\n      add\n        /* \"#utility.yul\":7422:7487   */\n      tag_79\n      jump\t// in\n    tag_180:\n        /* \"#utility.yul\":7512:7541   */\n      tag_181\n        /* \"#utility.yul\":7534:7540   */\n      dup2\n        /* \"#utility.yul\":7512:7541   */\n      tag_74\n      jump\t// in\n    tag_181:\n        /* \"#utility.yul\":7507:7510   */\n      dup5\n        /* \"#utility.yul\":7503:7542   */\n      add\n        /* \"#utility.yul\":7496:7542   */\n      swap2\n      pop\n        /* \"#utility.yul\":7263:7548   */\n      pop\n        /* \"#utility.yul\":7171:7548   */\n      swap3\n      swap2\n      pop\n      pop\n      jump\t// out\n        /* \"#utility.yul\":7554:7867   */\n    tag_32:\n        /* \"#utility.yul\":7667:7671   */\n      0x00\n        /* \"#utility.yul\":7705:7707   */\n      0x20\n        /* \"#utility.yul\":7694:7703   */\n      dup3\n        /* \"#utility.yul\":7690:7708   */\n      add\n        /* \"#utility.yul\":7682:7708   */\n      swap1\n      pop\n        /* \"#utility.yul\":7754:7763   */\n      dup2\n        /* \"#utility.yul\":7748:7752   */\n      dup2\n        /* \"#utility.yul\":7744:7764   */\n      sub\n        /* \"#utility.yul\":7740:7741   */\n      0x00\n        /* \"#utility.yul\":7729:7738   */\n      dup4\n        /* \"#utility.yul\":7725:7742   */\n      add\n        /* \"#utility.yul\":7718:7765   */\n      mstore\n        /* \"#utility.yul\":7782:7860   */\n      tag_183\n        /* \"#utility.yul\":7855:7859   */\n      dup2\n        /* \"#utility.yul\":7846:7852   */\n      dup5\n        /* \"#utility.yul\":7782:7860   */\n      tag_86\n      jump\t// in\n    tag_183:\n        /* \"#utility.yul\":7774:7860   */\n      swap1\n      pop\n        /* \"#utility.yul\":7554:7867   */\n      swap3\n      swap2\n      pop\n      pop\n      jump\t// out\n        /* \"#utility.yul\":7873:7991   */\n    tag_87:\n        /* \"#utility.yul\":7960:7984   */\n      tag_185\n        /* \"#utility.yul\":7978:7983   */\n      dup2\n        /* \"#utility.yul\":7960:7984   */\n      tag_68\n      jump\t// in\n    tag_185:\n        /* \"#utility.yul\":7955:7958   */\n      dup3\n        /* \"#utility.yul\":7948:7985   */\n      mstore\n        /* \"#utility.yul\":7873:7991   */\n      pop\n      pop\n      jump\t// out\n        /* \"#utility.yul\":7997:8219   */\n    tag_37:\n        /* \"#utility.yul\":8090:8094   */\n      0x00\n        /* \"#utility.yul\":8128:8130   */\n      0x20\n        /* \"#utility.yul\":8117:8126   */\n      dup3\n        /* \"#utility.yul\":8113:8131   */\n      add\n        /* \"#utility.yul\":8105:8131   */\n      swap1\n      pop\n        /* \"#utility.yul\":8141:8212   */\n      tag_187\n        /* \"#utility.yul\":8209:8210   */\n      0x00\n        /* \"#utility.yul\":8198:8207   */\n      dup4\n        /* \"#utility.yul\":8194:8211   */\n      add\n        /* \"#utility.yul\":8185:8191   */\n      dup5\n        /* \"#utility.yul\":8141:8212   */\n      tag_87\n      jump\t// in\n    tag_187:\n        /* \"#utility.yul\":7997:8219   */\n      swap3\n      swap2\n      pop\n      pop\n      jump\t// out\n        /* \"#utility.yul\":8225:8331   */\n    tag_88:\n        /* \"#utility.yul\":8269:8277   */\n      0x00\n        /* \"#utility.yul\":8318:8323   */\n      dup2\n        /* \"#utility.yul\":8313:8316   */\n      0xe0\n        /* \"#utility.yul\":8309:8324   */\n      shr\n        /* \"#utility.yul\":8288:8324   */\n      swap1\n      pop\n        /* \"#utility.yul\":8225:8331   */\n      swap2\n      swap1\n      pop\n      jump\t// out\n        /* \"#utility.yul\":8337:8520   */\n    tag_44:\n        /* \"#utility.yul\":8372:8375   */\n      0x00\n        /* \"#utility.yul\":8410:8411   */\n      0x03\n        /* \"#utility.yul\":8392:8408   */\n      returndatasize\n        /* \"#utility.yul\":8389:8412   */\n      gt\n        /* \"#utility.yul\":8386:8514   */\n      iszero\n      tag_190\n      jumpi\n        /* \"#utility.yul\":8448:8449   */\n      0x04\n        /* \"#utility.yul\":8445:8446   */\n      0x00\n        /* \"#utility.yul\":8442:8443   */\n      dup1\n        /* \"#utility.yul\":8427:8450   */\n      returndatacopy\n        /* \"#utility.yul\":8470:8504   */\n      tag_191\n        /* \"#utility.yul\":8501:8502   */\n      0x00\n        /* \"#utility.yul\":8495:8503   */\n      mload\n        /* \"#utility.yul\":8470:8504   */\n      tag_88\n      jump\t// in\n    tag_191:\n        /* \"#utility.yul\":8463:8504   */\n      swap1\n      pop\n        /* \"#utility.yul\":8386:8514   */\n    tag_190:\n        /* \"#utility.yul\":8337:8520   */\n      swap1\n      jump\t// out\n        /* \"#utility.yul\":8526:9237   */\n    tag_46:\n        /* \"#utility.yul\":8565:8568   */\n      0x00\n        /* \"#utility.yul\":8603:8607   */\n      0x44\n        /* \"#utility.yul\":8585:8601   */\n      returndatasize\n        /* \"#utility.yul\":8582:8608   */\n      lt\n        /* \"#utility.yul\":8611:8616   */\n      tag_192\n        /* \"#utility.yul\":8579:8618   */\n      jumpi\n        /* \"#utility.yul\":8640:8660   */\n      tag_194\n      tag_62\n      jump\t// in\n    tag_194:\n        /* \"#utility.yul\":8715:8716   */\n      0x04\n        /* \"#utility.yul\":8697:8713   */\n      returndatasize\n        /* \"#utility.yul\":8693:8717   */\n      sub\n        /* \"#utility.yul\":8690:8691   */\n      0x04\n        /* \"#utility.yul\":8684:8688   */\n      dup3\n        /* \"#utility.yul\":8669:8718   */\n      returndatacopy\n        /* \"#utility.yul\":8748:8752   */\n      dup1\n        /* \"#utility.yul\":8742:8753   */\n      mload\n        /* \"#utility.yul\":8847:8863   */\n      returndatasize\n        /* \"#utility.yul\":8840:8844   */\n      0x24\n        /* \"#utility.yul\":8832:8838   */\n      dup3\n        /* \"#utility.yul\":8828:8845   */\n      add\n        /* \"#utility.yul\":8825:8864   */\n      gt\n        /* \"#utility.yul\":8792:8810   */\n      0xffffffffffffffff\n        /* \"#utility.yul\":8784:8790   */\n      dup3\n        /* \"#utility.yul\":8781:8811   */\n      gt\n        /* \"#utility.yul\":8765:8878   */\n      or\n        /* \"#utility.yul\":8762:8908   */\n      iszero\n      tag_195\n      jumpi\n        /* \"#utility.yul\":8893:8898   */\n      pop\n      pop\n      jump(tag_192)\n        /* \"#utility.yul\":8762:8908   */\n    tag_195:\n        /* \"#utility.yul\":8939:8945   */\n      dup1\n        /* \"#utility.yul\":8933:8937   */\n      dup3\n        /* \"#utility.yul\":8929:8946   */\n      add\n        /* \"#utility.yul\":8975:8978   */\n      dup1\n        /* \"#utility.yul\":8969:8979   */\n      mload\n        /* \"#utility.yul\":9002:9020   */\n      0xffffffffffffffff\n        /* \"#utility.yul\":8994:9000   */\n      dup2\n        /* \"#utility.yul\":8991:9021   */\n      gt\n        /* \"#utility.yul\":8988:9031   */\n      iszero\n      tag_196\n      jumpi\n        /* \"#utility.yul\":9024:9029   */\n      pop\n      pop\n      pop\n      pop\n      jump(tag_192)\n        /* \"#utility.yul\":8988:9031   */\n    tag_196:\n        /* \"#utility.yul\":9072:9078   */\n      dup1\n        /* \"#utility.yul\":9065:9069   */\n      0x20\n        /* \"#utility.yul\":9060:9063   */\n      dup4\n        /* \"#utility.yul\":9056:9070   */\n      add\n        /* \"#utility.yul\":9052:9079   */\n      add\n        /* \"#utility.yul\":9131:9132   */\n      0x04\n        /* \"#utility.yul\":9113:9129   */\n      returndatasize\n        /* \"#utility.yul\":9109:9133   */\n      sub\n        /* \"#utility.yul\":9103:9107   */\n      dup6\n        /* \"#utility.yul\":9099:9134   */\n      add\n        /* \"#utility.yul\":9094:9097   */\n      dup2\n        /* \"#utility.yul\":9091:9135   */\n      gt\n        /* \"#utility.yul\":9088:9145   */\n      iszero\n      tag_197\n      jumpi\n        /* \"#utility.yul\":9138:9143   */\n      pop\n      pop\n      pop\n      pop\n      pop\n      jump(tag_192)\n        /* \"#utility.yul\":9088:9145   */\n    tag_197:\n        /* \"#utility.yul\":9155:9212   */\n      tag_198\n        /* \"#utility.yul\":9203:9209   */\n      dup3\n        /* \"#utility.yul\":9197:9201   */\n      0x20\n        /* \"#utility.yul\":9193:9210   */\n      add\n        /* \"#utility.yul\":9185:9191   */\n      dup6\n        /* \"#utility.yul\":9181:9211   */\n      add\n        /* \"#utility.yul\":9175:9179   */\n      dup7\n        /* \"#utility.yul\":9155:9212   */\n      tag_76\n      jump\t// in\n    tag_198:\n        /* \"#utility.yul\":9228:9231   */\n      dup3\n        /* \"#utility.yul\":9221:9231   */\n      swap6\n      pop\n        /* \"#utility.yul\":8569:9237   */\n      pop\n      pop\n      pop\n      pop\n      pop\n        /* \"#utility.yul\":8526:9237   */\n    tag_192:\n      swap1\n      jump\t// out\n        /* \"#utility.yul\":9243:9341   */\n    tag_89:\n        /* \"#utility.yul\":9294:9300   */\n      0x00\n        /* \"#utility.yul\":9328:9333   */\n      dup2\n        /* \"#utility.yul\":9322:9334   */\n      mload\n        /* \"#utility.yul\":9312:9334   */\n      swap1\n      pop\n        /* \"#utility.yul\":9243:9341   */\n      swap2\n      swap1\n      pop\n      jump\t// out\n        /* \"#utility.yul\":9347:9515   */\n    tag_90:\n        /* \"#utility.yul\":9430:9441   */\n      0x00\n        /* \"#utility.yul\":9464:9470   */\n      dup3\n        /* \"#utility.yul\":9459:9462   */\n      dup3\n        /* \"#utility.yul\":9452:9471   */\n      mstore\n        /* \"#utility.yul\":9504:9508   */\n      0x20\n        /* \"#utility.yul\":9499:9502   */\n      dup3\n        /* \"#utility.yul\":9495:9509   */\n      add\n        /* \"#utility.yul\":9480:9509   */\n      swap1\n      pop\n        /* \"#utility.yul\":9347:9515   */\n      swap3\n      swap2\n      pop\n      pop\n      jump\t// out\n        /* \"#utility.yul\":9521:9894   */\n    tag_91:\n        /* \"#utility.yul\":9607:9610   */\n      0x00\n        /* \"#utility.yul\":9635:9673   */\n      tag_202\n        /* \"#utility.yul\":9667:9672   */\n      dup3\n        /* \"#utility.yul\":9635:9673   */\n      tag_89\n      jump\t// in\n    tag_202:\n        /* \"#utility.yul\":9689:9759   */\n      tag_203\n        /* \"#utility.yul\":9752:9758   */\n      dup2\n        /* \"#utility.yul\":9747:9750   */\n      dup6\n        /* \"#utility.yul\":9689:9759   */\n      tag_90\n      jump\t// in\n    tag_203:\n        /* \"#utility.yul\":9682:9759   */\n      swap4\n      pop\n        /* \"#utility.yul\":9768:9833   */\n      tag_204\n        /* \"#utility.yul\":9826:9832   */\n      dup2\n        /* \"#utility.yul\":9821:9824   */\n      dup6\n        /* \"#utility.yul\":9814:9818   */\n      0x20\n        /* \"#utility.yul\":9807:9812   */\n      dup7\n        /* \"#utility.yul\":9803:9819   */\n      add\n        /* \"#utility.yul\":9768:9833   */\n      tag_79\n      jump\t// in\n    tag_204:\n        /* \"#utility.yul\":9858:9887   */\n      tag_205\n        /* \"#utility.yul\":9880:9886   */\n      dup2\n        /* \"#utility.yul\":9858:9887   */\n      tag_74\n      jump\t// in\n    tag_205:\n        /* \"#utility.yul\":9853:9856   */\n      dup5\n        /* \"#utility.yul\":9849:9888   */\n      add\n        /* \"#utility.yul\":9842:9888   */\n      swap2\n      pop\n        /* \"#utility.yul\":9611:9894   */\n      pop\n        /* \"#utility.yul\":9521:9894   */\n      swap3\n      swap2\n      pop\n      pop\n      jump\t// out\n        /* \"#utility.yul\":9900:10209   */\n    tag_52:\n        /* \"#utility.yul\":10011:10015   */\n      0x00\n        /* \"#utility.yul\":10049:10051   */\n      0x20\n        /* \"#utility.yul\":10038:10047   */\n      dup3\n        /* \"#utility.yul\":10034:10052   */\n      add\n        /* \"#utility.yul\":10026:10052   */\n      swap1\n      pop\n        /* \"#utility.yul\":10098:10107   */\n      dup2\n        /* \"#utility.yul\":10092:10096   */\n      dup2\n        /* \"#utility.yul\":10088:10108   */\n      sub\n        /* \"#utility.yul\":10084:10085   */\n      0x00\n        /* \"#utility.yul\":10073:10082   */\n      dup4\n        /* \"#utility.yul\":10069:10086   */\n      add\n        /* \"#utility.yul\":10062:10109   */\n      mstore\n        /* \"#utility.yul\":10126:10202   */\n      tag_207\n        /* \"#utility.yul\":10197:10201   */\n      dup2\n        /* \"#utility.yul\":10188:10194   */\n      dup5\n        /* \"#utility.yul\":10126:10202   */\n      tag_91\n      jump\t// in\n    tag_207:\n        /* \"#utility.yul\":10118:10202   */\n      swap1\n      pop\n        /* \"#utility.yul\":9900:10209   */\n      swap3\n      swap2\n      pop\n      pop\n      jump\t// out\n        /* \"#utility.yul\":10215:10385   */\n    tag_92:\n        /* \"#utility.yul\":10355:10377   */\n      0x74686520616464726573732069732076616c6964000000000000000000000000\n        /* \"#utility.yul\":10351:10352   */\n      0x00\n        /* \"#utility.yul\":10343:10349   */\n      dup3\n        /* \"#utility.yul\":10339:10353   */\n      add\n        /* \"#utility.yul\":10332:10378   */\n      mstore\n        /* \"#utility.yul\":10215:10385   */\n      pop\n      jump\t// out\n        /* \"#utility.yul\":10391:10757   */\n    tag_93:\n        /* \"#utility.yul\":10533:10536   */\n      0x00\n        /* \"#utility.yul\":10554:10621   */\n      tag_210\n        /* \"#utility.yul\":10618:10620   */\n      0x14\n        /* \"#utility.yul\":10613:10616   */\n      dup4\n        /* \"#utility.yul\":10554:10621   */\n      tag_82\n      jump\t// in\n    tag_210:\n        /* \"#utility.yul\":10547:10621   */\n      swap2\n      pop\n        /* \"#utility.yul\":10630:10723   */\n      tag_211\n        /* \"#utility.yul\":10719:10722   */\n      dup3\n        /* \"#utility.yul\":10630:10723   */\n      tag_92\n      jump\t// in\n    tag_211:\n        /* \"#utility.yul\":10748:10750   */\n      0x20\n        /* \"#utility.yul\":10743:10746   */\n      dup3\n        /* \"#utility.yul\":10739:10751   */\n      add\n        /* \"#utility.yul\":10732:10751   */\n      swap1\n      pop\n        /* \"#utility.yul\":10391:10757   */\n      swap2\n      swap1\n      pop\n      jump\t// out\n        /* \"#utility.yul\":10763:11182   */\n    tag_55:\n        /* \"#utility.yul\":10929:10933   */\n      0x00\n        /* \"#utility.yul\":10967:10969   */\n      0x20\n        /* \"#utility.yul\":10956:10965   */\n      dup3\n        /* \"#utility.yul\":10952:10970   */\n      add\n        /* \"#utility.yul\":10944:10970   */\n      swap1\n      pop\n        /* \"#utility.yul\":11016:11025   */\n      dup2\n        /* \"#utility.yul\":11010:11014   */\n      dup2\n        /* \"#utility.yul\":11006:11026   */\n      sub\n        /* \"#utility.yul\":11002:11003   */\n      0x00\n        /* \"#utility.yul\":10991:11000   */\n      dup4\n        /* \"#utility.yul\":10987:11004   */\n      add\n        /* \"#utility.yul\":10980:11027   */\n      mstore\n        /* \"#utility.yul\":11044:11175   */\n      tag_213\n        /* \"#utility.yul\":11170:11174   */\n      dup2\n        /* \"#utility.yul\":11044:11175   */\n      tag_93\n      jump\t// in\n    tag_213:\n        /* \"#utility.yul\":11036:11175   */\n      swap1\n      pop\n        /* \"#utility.yul\":10763:11182   */\n      swap2\n      swap1\n      pop\n      jump\t// out\n    stop\n\n    sub_0: assembly {\n            /* \"Learning Pth/TryCatchEX.sol\":61:449  contract A {... */\n          mstore(0x40, 0x80)\n            /* \"Learning Pth/TryCatchEX.sol\":108:271  constructor(address _owner) {... */\n          callvalue\n          dup1\n          iszero\n          tag_1\n          jumpi\n          0x00\n          dup1\n          revert\n        tag_1:\n          pop\n          mload(0x40)\n          sub(codesize, bytecodeSize)\n          dup1\n          bytecodeSize\n          dup4\n          codecopy\n          dup2\n          dup2\n          add\n          0x40\n          mstore\n          dup2\n          add\n          swap1\n          tag_2\n          swap2\n          swap1\n          tag_3\n          jump\t// in\n        tag_2:\n            /* \"Learning Pth/TryCatchEX.sol\":173:174  0 */\n          0x00\n            /* \"Learning Pth/TryCatchEX.sol\":155:175  _owner != address(0) */\n          0xffffffffffffffffffffffffffffffffffffffff\n          and\n            /* \"Learning Pth/TryCatchEX.sol\":155:161  _owner */\n          dup2\n            /* \"Learning Pth/TryCatchEX.sol\":155:175  _owner != address(0) */\n          0xffffffffffffffffffffffffffffffffffffffff\n          and\n          sub\n            /* \"Learning Pth/TryCatchEX.sol\":147:199  require(_owner != address(0), \"not a valid address\") */\n          tag_6\n          jumpi\n          mload(0x40)\n          0x08c379a000000000000000000000000000000000000000000000000000000000\n          dup2\n          mstore\n          0x04\n          add\n          tag_7\n          swap1\n          tag_8\n          jump\t// in\n        tag_7:\n          mload(0x40)\n          dup1\n          swap2\n          sub\n          swap1\n          revert\n        tag_6:\n            /* \"Learning Pth/TryCatchEX.sol\":235:236  1 */\n          0x01\n            /* \"Learning Pth/TryCatchEX.sol\":217:237  _owner != address(1) */\n          0xffffffffffffffffffffffffffffffffffffffff\n          and\n            /* \"Learning Pth/TryCatchEX.sol\":217:223  _owner */\n          dup2\n            /* \"Learning Pth/TryCatchEX.sol\":217:237  _owner != address(1) */\n          0xffffffffffffffffffffffffffffffffffffffff\n          and\n          sub\n            /* \"Learning Pth/TryCatchEX.sol\":210:238  assert(_owner != address(1)) */\n          tag_9\n          jumpi\n          tag_10\n          tag_11\n          jump\t// in\n        tag_10:\n        tag_9:\n            /* \"Learning Pth/TryCatchEX.sol\":257:263  _owner */\n          dup1\n            /* \"Learning Pth/TryCatchEX.sol\":249:254  owner */\n          0x00\n          dup1\n            /* \"Learning Pth/TryCatchEX.sol\":249:263  owner = _owner */\n          0x0100\n          exp\n          dup2\n          sload\n          dup2\n          0xffffffffffffffffffffffffffffffffffffffff\n          mul\n          not\n          and\n          swap1\n          dup4\n          0xffffffffffffffffffffffffffffffffffffffff\n          and\n          mul\n          or\n          swap1\n          sstore\n          pop\n            /* \"Learning Pth/TryCatchEX.sol\":108:271  constructor(address _owner) {... */\n          pop\n            /* \"Learning Pth/TryCatchEX.sol\":61:449  contract A {... */\n          jump(tag_12)\n            /* \"#utility.yul\":88:205   */\n        tag_14:\n            /* \"#utility.yul\":197:198   */\n          0x00\n            /* \"#utility.yul\":194:195   */\n          dup1\n            /* \"#utility.yul\":187:199   */\n          revert\n            /* \"#utility.yul\":334:460   */\n        tag_16:\n            /* \"#utility.yul\":371:378   */\n          0x00\n            /* \"#utility.yul\":411:453   */\n          0xffffffffffffffffffffffffffffffffffffffff\n            /* \"#utility.yul\":404:409   */\n          dup3\n            /* \"#utility.yul\":400:454   */\n          and\n            /* \"#utility.yul\":389:454   */\n          swap1\n          pop\n            /* \"#utility.yul\":334:460   */\n          swap2\n          swap1\n          pop\n          jump\t// out\n            /* \"#utility.yul\":466:562   */\n        tag_17:\n            /* \"#utility.yul\":503:510   */\n          0x00\n            /* \"#utility.yul\":532:556   */\n          tag_29\n            /* \"#utility.yul\":550:555   */\n          dup3\n            /* \"#utility.yul\":532:556   */\n          tag_16\n          jump\t// in\n        tag_29:\n            /* \"#utility.yul\":521:556   */\n          swap1\n          pop\n            /* \"#utility.yul\":466:562   */\n          swap2\n          swap1\n          pop\n          jump\t// out\n            /* \"#utility.yul\":568:690   */\n        tag_18:\n            /* \"#utility.yul\":641:665   */\n          tag_31\n            /* \"#utility.yul\":659:664   */\n          dup2\n            /* \"#utility.yul\":641:665   */\n          tag_17\n          jump\t// in\n        tag_31:\n            /* \"#utility.yul\":634:639   */\n          dup2\n            /* \"#utility.yul\":631:666   */\n          eq\n            /* \"#utility.yul\":621:684   */\n          tag_32\n          jumpi\n            /* \"#utility.yul\":680:681   */\n          0x00\n            /* \"#utility.yul\":677:678   */\n          dup1\n            /* \"#utility.yul\":670:682   */\n          revert\n            /* \"#utility.yul\":621:684   */\n        tag_32:\n            /* \"#utility.yul\":568:690   */\n          pop\n          jump\t// out\n            /* \"#utility.yul\":696:839   */\n        tag_19:\n            /* \"#utility.yul\":753:758   */\n          0x00\n            /* \"#utility.yul\":784:790   */\n          dup2\n            /* \"#utility.yul\":778:791   */\n          mload\n            /* \"#utility.yul\":769:791   */\n          swap1\n          pop\n            /* \"#utility.yul\":800:833   */\n          tag_34\n            /* \"#utility.yul\":827:832   */\n          dup2\n            /* \"#utility.yul\":800:833   */\n          tag_18\n          jump\t// in\n        tag_34:\n            /* \"#utility.yul\":696:839   */\n          swap3\n          swap2\n          pop\n          pop\n          jump\t// out\n            /* \"#utility.yul\":845:1196   */\n        tag_3:\n            /* \"#utility.yul\":915:921   */\n          0x00\n            /* \"#utility.yul\":964:966   */\n          0x20\n            /* \"#utility.yul\":952:961   */\n          dup3\n            /* \"#utility.yul\":943:950   */\n          dup5\n            /* \"#utility.yul\":939:962   */\n          sub\n            /* \"#utility.yul\":935:967   */\n          slt\n            /* \"#utility.yul\":932:1051   */\n          iszero\n          tag_36\n          jumpi\n            /* \"#utility.yul\":970:1049   */\n          tag_37\n          tag_14\n          jump\t// in\n        tag_37:\n            /* \"#utility.yul\":932:1051   */\n        tag_36:\n            /* \"#utility.yul\":1090:1091   */\n          0x00\n            /* \"#utility.yul\":1115:1179   */\n          tag_38\n            /* \"#utility.yul\":1171:1178   */\n          dup5\n            /* \"#utility.yul\":1162:1168   */\n          dup3\n            /* \"#utility.yul\":1151:1160   */\n          dup6\n            /* \"#utility.yul\":1147:1169   */\n          add\n            /* \"#utility.yul\":1115:1179   */\n          tag_19\n          jump\t// in\n        tag_38:\n            /* \"#utility.yul\":1105:1179   */\n          swap2\n          pop\n            /* \"#utility.yul\":1061:1189   */\n          pop\n            /* \"#utility.yul\":845:1196   */\n          swap3\n          swap2\n          pop\n          pop\n          jump\t// out\n            /* \"#utility.yul\":1202:1371   */\n        tag_20:\n            /* \"#utility.yul\":1286:1297   */\n          0x00\n            /* \"#utility.yul\":1320:1326   */\n          dup3\n            /* \"#utility.yul\":1315:1318   */\n          dup3\n            /* \"#utility.yul\":1308:1327   */\n          mstore\n            /* \"#utility.yul\":1360:1364   */\n          0x20\n            /* \"#utility.yul\":1355:1358   */\n          dup3\n            /* \"#utility.yul\":1351:1365   */\n          add\n            /* \"#utility.yul\":1336:1365   */\n          swap1\n          pop\n            /* \"#utility.yul\":1202:1371   */\n          swap3\n          swap2\n          pop\n          pop\n          jump\t// out\n            /* \"#utility.yul\":1377:1546   */\n        tag_21:\n            /* \"#utility.yul\":1517:1538   */\n          0x6e6f7420612076616c6964206164647265737300000000000000000000000000\n            /* \"#utility.yul\":1513:1514   */\n          0x00\n            /* \"#utility.yul\":1505:1511   */\n          dup3\n            /* \"#utility.yul\":1501:1515   */\n          add\n            /* \"#utility.yul\":1494:1539   */\n          mstore\n            /* \"#utility.yul\":1377:1546   */\n          pop\n          jump\t// out\n            /* \"#utility.yul\":1552:1918   */\n        tag_22:\n            /* \"#utility.yul\":1694:1697   */\n          0x00\n            /* \"#utility.yul\":1715:1782   */\n          tag_42\n            /* \"#utility.yul\":1779:1781   */\n          0x13\n            /* \"#utility.yul\":1774:1777   */\n          dup4\n            /* \"#utility.yul\":1715:1782   */\n          tag_20\n          jump\t// in\n        tag_42:\n            /* \"#utility.yul\":1708:1782   */\n          swap2\n          pop\n            /* \"#utility.yul\":1791:1884   */\n          tag_43\n            /* \"#utility.yul\":1880:1883   */\n          dup3\n            /* \"#utility.yul\":1791:1884   */\n          tag_21\n          jump\t// in\n        tag_43:\n            /* \"#utility.yul\":1909:1911   */\n          0x20\n            /* \"#utility.yul\":1904:1907   */\n          dup3\n            /* \"#utility.yul\":1900:1912   */\n          add\n            /* \"#utility.yul\":1893:1912   */\n          swap1\n          pop\n            /* \"#utility.yul\":1552:1918   */\n          swap2\n          swap1\n          pop\n          jump\t// out\n            /* \"#utility.yul\":1924:2343   */\n        tag_8:\n            /* \"#utility.yul\":2090:2094   */\n          0x00\n            /* \"#utility.yul\":2128:2130   */\n          0x20\n            /* \"#utility.yul\":2117:2126   */\n          dup3\n            /* \"#utility.yul\":2113:2131   */\n          add\n            /* \"#utility.yul\":2105:2131   */\n          swap1\n          pop\n            /* \"#utility.yul\":2177:2186   */\n          dup2\n            /* \"#utility.yul\":2171:2175   */\n          dup2\n            /* \"#utility.yul\":2167:2187   */\n          sub\n            /* \"#utility.yul\":2163:2164   */\n          0x00\n            /* \"#utility.yul\":2152:2161   */\n          dup4\n            /* \"#utility.yul\":2148:2165   */\n          add\n            /* \"#utility.yul\":2141:2188   */\n          mstore\n            /* \"#utility.yul\":2205:2336   */\n          tag_45\n            /* \"#utility.yul\":2331:2335   */\n          dup2\n            /* \"#utility.yul\":2205:2336   */\n          tag_22\n          jump\t// in\n        tag_45:\n            /* \"#utility.yul\":2197:2336   */\n          swap1\n          pop\n            /* \"#utility.yul\":1924:2343   */\n          swap2\n          swap1\n          pop\n          jump\t// out\n            /* \"#utility.yul\":2349:2529   */\n        tag_11:\n            /* \"#utility.yul\":2397:2474   */\n          0x4e487b7100000000000000000000000000000000000000000000000000000000\n            /* \"#utility.yul\":2394:2395   */\n          0x00\n            /* \"#utility.yul\":2387:2475   */\n          mstore\n            /* \"#utility.yul\":2494:2498   */\n          0x01\n            /* \"#utility.yul\":2491:2492   */\n          0x04\n            /* \"#utility.yul\":2484:2499   */\n          mstore\n            /* \"#utility.yul\":2518:2522   */\n          0x24\n            /* \"#utility.yul\":2515:2516   */\n          0x00\n            /* \"#utility.yul\":2508:2523   */\n          revert\n            /* \"Learning Pth/TryCatchEX.sol\":61:449  contract A {... */\n        tag_12:\n          dataSize(sub_0)\n          dup1\n          dataOffset(sub_0)\n          0x00\n          codecopy\n          0x00\n          return\n        stop\n\n        sub_0: assembly {\n                /* \"Learning Pth/TryCatchEX.sol\":61:449  contract A {... */\n              mstore(0x40, 0x80)\n              callvalue\n              dup1\n              iszero\n              tag_1\n              jumpi\n              0x00\n              dup1\n              revert\n            tag_1:\n              pop\n              jumpi(tag_2, lt(calldatasize, 0x04))\n              shr(0xe0, calldataload(0x00))\n              dup1\n              0x50628c96\n              eq\n              tag_3\n              jumpi\n              dup1\n              0x8da5cb5b\n              eq\n              tag_4\n              jumpi\n            tag_2:\n              0x00\n              dup1\n              revert\n                /* \"Learning Pth/TryCatchEX.sol\":279:446  function myFunction(uint _num) public pure returns(string memory) {... */\n            tag_3:\n              tag_5\n              0x04\n              dup1\n              calldatasize\n              sub\n              dup2\n              add\n              swap1\n              tag_6\n              swap2\n              swap1\n              tag_7\n              jump\t// in\n            tag_6:\n              tag_8\n              jump\t// in\n            tag_5:\n              mload(0x40)\n              tag_9\n              swap2\n              swap1\n              tag_10\n              jump\t// in\n            tag_9:\n              mload(0x40)\n              dup1\n              swap2\n              sub\n              swap1\n              return\n                /* \"Learning Pth/TryCatchEX.sol\":79:99  address public owner */\n            tag_4:\n              tag_11\n              tag_12\n              jump\t// in\n            tag_11:\n              mload(0x40)\n              tag_13\n              swap2\n              swap1\n              tag_14\n              jump\t// in\n            tag_13:\n              mload(0x40)\n              dup1\n              swap2\n              sub\n              swap1\n              return\n                /* \"Learning Pth/TryCatchEX.sol\":279:446  function myFunction(uint _num) public pure returns(string memory) {... */\n            tag_8:\n                /* \"Learning Pth/TryCatchEX.sol\":330:343  string memory */\n              0x60\n                /* \"Learning Pth/TryCatchEX.sol\":372:373  0 */\n              0x00\n                /* \"Learning Pth/TryCatchEX.sol\":364:368  _num */\n              dup3\n                /* \"Learning Pth/TryCatchEX.sol\":364:373  _num != 0 */\n              sub\n                /* \"Learning Pth/TryCatchEX.sol\":356:401  require(_num != 0, \"number must not be zero\") */\n              tag_16\n              jumpi\n              mload(0x40)\n              0x08c379a000000000000000000000000000000000000000000000000000000000\n              dup2\n              mstore\n              0x04\n              add\n              tag_17\n              swap1\n              tag_18\n              jump\t// in\n            tag_17:\n              mload(0x40)\n              dup1\n              swap2\n              sub\n              swap1\n              revert\n            tag_16:\n                /* \"Learning Pth/TryCatchEX.sol\":412:438  return \"Number is correct\" */\n              mload(0x40)\n              dup1\n              0x40\n              add\n              0x40\n              mstore\n              dup1\n              0x11\n              dup2\n              mstore\n              0x20\n              add\n              0x4e756d62657220697320636f7272656374000000000000000000000000000000\n              dup2\n              mstore\n              pop\n              swap1\n              pop\n                /* \"Learning Pth/TryCatchEX.sol\":279:446  function myFunction(uint _num) public pure returns(string memory) {... */\n              swap2\n              swap1\n              pop\n              jump\t// out\n                /* \"Learning Pth/TryCatchEX.sol\":79:99  address public owner */\n            tag_12:\n              0x00\n              dup1\n              sload\n              swap1\n              0x0100\n              exp\n              swap1\n              div\n              0xffffffffffffffffffffffffffffffffffffffff\n              and\n              dup2\n              jump\t// out\n                /* \"#utility.yul\":88:205   */\n            tag_20:\n                /* \"#utility.yul\":197:198   */\n              0x00\n                /* \"#utility.yul\":194:195   */\n              dup1\n                /* \"#utility.yul\":187:199   */\n              revert\n                /* \"#utility.yul\":334:411   */\n            tag_22:\n                /* \"#utility.yul\":371:378   */\n              0x00\n                /* \"#utility.yul\":400:405   */\n              dup2\n                /* \"#utility.yul\":389:405   */\n              swap1\n              pop\n                /* \"#utility.yul\":334:411   */\n              swap2\n              swap1\n              pop\n              jump\t// out\n                /* \"#utility.yul\":417:539   */\n            tag_23:\n                /* \"#utility.yul\":490:514   */\n              tag_41\n                /* \"#utility.yul\":508:513   */\n              dup2\n                /* \"#utility.yul\":490:514   */\n              tag_22\n              jump\t// in\n            tag_41:\n                /* \"#utility.yul\":483:488   */\n              dup2\n                /* \"#utility.yul\":480:515   */\n              eq\n                /* \"#utility.yul\":470:533   */\n              tag_42\n              jumpi\n                /* \"#utility.yul\":529:530   */\n              0x00\n                /* \"#utility.yul\":526:527   */\n              dup1\n                /* \"#utility.yul\":519:531   */\n              revert\n                /* \"#utility.yul\":470:533   */\n            tag_42:\n                /* \"#utility.yul\":417:539   */\n              pop\n              jump\t// out\n                /* \"#utility.yul\":545:684   */\n            tag_24:\n                /* \"#utility.yul\":591:596   */\n              0x00\n                /* \"#utility.yul\":629:635   */\n              dup2\n                /* \"#utility.yul\":616:636   */\n              calldataload\n                /* \"#utility.yul\":607:636   */\n              swap1\n              pop\n                /* \"#utility.yul\":645:678   */\n              tag_44\n                /* \"#utility.yul\":672:677   */\n              dup2\n                /* \"#utility.yul\":645:678   */\n              tag_23\n              jump\t// in\n            tag_44:\n                /* \"#utility.yul\":545:684   */\n              swap3\n              swap2\n              pop\n              pop\n              jump\t// out\n                /* \"#utility.yul\":690:1019   */\n            tag_7:\n                /* \"#utility.yul\":749:755   */\n              0x00\n                /* \"#utility.yul\":798:800   */\n              0x20\n                /* \"#utility.yul\":786:795   */\n              dup3\n                /* \"#utility.yul\":777:784   */\n              dup5\n                /* \"#utility.yul\":773:796   */\n              sub\n                /* \"#utility.yul\":769:801   */\n              slt\n                /* \"#utility.yul\":766:885   */\n              iszero\n              tag_46\n              jumpi\n                /* \"#utility.yul\":804:883   */\n              tag_47\n              tag_20\n              jump\t// in\n            tag_47:\n                /* \"#utility.yul\":766:885   */\n            tag_46:\n                /* \"#utility.yul\":924:925   */\n              0x00\n                /* \"#utility.yul\":949:1002   */\n              tag_48\n                /* \"#utility.yul\":994:1001   */\n              dup5\n                /* \"#utility.yul\":985:991   */\n              dup3\n                /* \"#utility.yul\":974:983   */\n              dup6\n                /* \"#utility.yul\":970:992   */\n              add\n                /* \"#utility.yul\":949:1002   */\n              tag_24\n              jump\t// in\n            tag_48:\n                /* \"#utility.yul\":939:1002   */\n              swap2\n              pop\n                /* \"#utility.yul\":895:1012   */\n              pop\n                /* \"#utility.yul\":690:1019   */\n              swap3\n              swap2\n              pop\n              pop\n              jump\t// out\n                /* \"#utility.yul\":1025:1124   */\n            tag_25:\n                /* \"#utility.yul\":1077:1083   */\n              0x00\n                /* \"#utility.yul\":1111:1116   */\n              dup2\n                /* \"#utility.yul\":1105:1117   */\n              mload\n                /* \"#utility.yul\":1095:1117   */\n              swap1\n              pop\n                /* \"#utility.yul\":1025:1124   */\n              swap2\n              swap1\n              pop\n              jump\t// out\n                /* \"#utility.yul\":1130:1299   */\n            tag_26:\n                /* \"#utility.yul\":1214:1225   */\n              0x00\n                /* \"#utility.yul\":1248:1254   */\n              dup3\n                /* \"#utility.yul\":1243:1246   */\n              dup3\n                /* \"#utility.yul\":1236:1255   */\n              mstore\n                /* \"#utility.yul\":1288:1292   */\n              0x20\n                /* \"#utility.yul\":1283:1286   */\n              dup3\n                /* \"#utility.yul\":1279:1293   */\n              add\n                /* \"#utility.yul\":1264:1293   */\n              swap1\n              pop\n                /* \"#utility.yul\":1130:1299   */\n              swap3\n              swap2\n              pop\n              pop\n              jump\t// out\n                /* \"#utility.yul\":1305:1444   */\n            tag_27:\n                /* \"#utility.yul\":1394:1400   */\n              dup3\n                /* \"#utility.yul\":1389:1392   */\n              dup2\n                /* \"#utility.yul\":1384:1387   */\n              dup4\n                /* \"#utility.yul\":1378:1401   */\n              mcopy\n                /* \"#utility.yul\":1435:1436   */\n              0x00\n                /* \"#utility.yul\":1426:1432   */\n              dup4\n                /* \"#utility.yul\":1421:1424   */\n              dup4\n                /* \"#utility.yul\":1417:1433   */\n              add\n                /* \"#utility.yul\":1410:1437   */\n              mstore\n                /* \"#utility.yul\":1305:1444   */\n              pop\n              pop\n              pop\n              jump\t// out\n                /* \"#utility.yul\":1450:1552   */\n            tag_28:\n                /* \"#utility.yul\":1491:1497   */\n              0x00\n                /* \"#utility.yul\":1542:1544   */\n              0x1f\n                /* \"#utility.yul\":1538:1545   */\n              not\n                /* \"#utility.yul\":1533:1535   */\n              0x1f\n                /* \"#utility.yul\":1526:1531   */\n              dup4\n                /* \"#utility.yul\":1522:1536   */\n              add\n                /* \"#utility.yul\":1518:1546   */\n              and\n                /* \"#utility.yul\":1508:1546   */\n              swap1\n              pop\n                /* \"#utility.yul\":1450:1552   */\n              swap2\n              swap1\n              pop\n              jump\t// out\n                /* \"#utility.yul\":1558:1935   */\n            tag_29:\n                /* \"#utility.yul\":1646:1649   */\n              0x00\n                /* \"#utility.yul\":1674:1713   */\n              tag_54\n                /* \"#utility.yul\":1707:1712   */\n              dup3\n                /* \"#utility.yul\":1674:1713   */\n              tag_25\n              jump\t// in\n            tag_54:\n                /* \"#utility.yul\":1729:1800   */\n              tag_55\n                /* \"#utility.yul\":1793:1799   */\n              dup2\n                /* \"#utility.yul\":1788:1791   */\n              dup6\n                /* \"#utility.yul\":1729:1800   */\n              tag_26\n              jump\t// in\n            tag_55:\n                /* \"#utility.yul\":1722:1800   */\n              swap4\n              pop\n                /* \"#utility.yul\":1809:1874   */\n              tag_56\n                /* \"#utility.yul\":1867:1873   */\n              dup2\n                /* \"#utility.yul\":1862:1865   */\n              dup6\n                /* \"#utility.yul\":1855:1859   */\n              0x20\n                /* \"#utility.yul\":1848:1853   */\n              dup7\n                /* \"#utility.yul\":1844:1860   */\n              add\n                /* \"#utility.yul\":1809:1874   */\n              tag_27\n              jump\t// in\n            tag_56:\n                /* \"#utility.yul\":1899:1928   */\n              tag_57\n                /* \"#utility.yul\":1921:1927   */\n              dup2\n                /* \"#utility.yul\":1899:1928   */\n              tag_28\n              jump\t// in\n            tag_57:\n                /* \"#utility.yul\":1894:1897   */\n              dup5\n                /* \"#utility.yul\":1890:1929   */\n              add\n                /* \"#utility.yul\":1883:1929   */\n              swap2\n              pop\n                /* \"#utility.yul\":1650:1935   */\n              pop\n                /* \"#utility.yul\":1558:1935   */\n              swap3\n              swap2\n              pop\n              pop\n              jump\t// out\n                /* \"#utility.yul\":1941:2254   */\n            tag_10:\n                /* \"#utility.yul\":2054:2058   */\n              0x00\n                /* \"#utility.yul\":2092:2094   */\n              0x20\n                /* \"#utility.yul\":2081:2090   */\n              dup3\n                /* \"#utility.yul\":2077:2095   */\n              add\n                /* \"#utility.yul\":2069:2095   */\n              swap1\n              pop\n                /* \"#utility.yul\":2141:2150   */\n              dup2\n                /* \"#utility.yul\":2135:2139   */\n              dup2\n                /* \"#utility.yul\":2131:2151   */\n              sub\n                /* \"#utility.yul\":2127:2128   */\n              0x00\n                /* \"#utility.yul\":2116:2125   */\n              dup4\n                /* \"#utility.yul\":2112:2129   */\n              add\n                /* \"#utility.yul\":2105:2152   */\n              mstore\n                /* \"#utility.yul\":2169:2247   */\n              tag_59\n                /* \"#utility.yul\":2242:2246   */\n              dup2\n                /* \"#utility.yul\":2233:2239   */\n              dup5\n                /* \"#utility.yul\":2169:2247   */\n              tag_29\n              jump\t// in\n            tag_59:\n                /* \"#utility.yul\":2161:2247   */\n              swap1\n              pop\n                /* \"#utility.yul\":1941:2254   */\n              swap3\n              swap2\n              pop\n              pop\n              jump\t// out\n                /* \"#utility.yul\":2260:2386   */\n            tag_30:\n                /* \"#utility.yul\":2297:2304   */\n              0x00\n                /* \"#utility.yul\":2337:2379   */\n              0xffffffffffffffffffffffffffffffffffffffff\n                /* \"#utility.yul\":2330:2335   */\n              dup3\n                /* \"#utility.yul\":2326:2380   */\n              and\n                /* \"#utility.yul\":2315:2380   */\n              swap1\n              pop\n                /* \"#utility.yul\":2260:2386   */\n              swap2\n              swap1\n              pop\n              jump\t// out\n                /* \"#utility.yul\":2392:2488   */\n            tag_31:\n                /* \"#utility.yul\":2429:2436   */\n              0x00\n                /* \"#utility.yul\":2458:2482   */\n              tag_62\n                /* \"#utility.yul\":2476:2481   */\n              dup3\n                /* \"#utility.yul\":2458:2482   */\n              tag_30\n              jump\t// in\n            tag_62:\n                /* \"#utility.yul\":2447:2482   */\n              swap1\n              pop\n                /* \"#utility.yul\":2392:2488   */\n              swap2\n              swap1\n              pop\n              jump\t// out\n                /* \"#utility.yul\":2494:2612   */\n            tag_32:\n                /* \"#utility.yul\":2581:2605   */\n              tag_64\n                /* \"#utility.yul\":2599:2604   */\n              dup2\n                /* \"#utility.yul\":2581:2605   */\n              tag_31\n              jump\t// in\n            tag_64:\n                /* \"#utility.yul\":2576:2579   */\n              dup3\n                /* \"#utility.yul\":2569:2606   */\n              mstore\n                /* \"#utility.yul\":2494:2612   */\n              pop\n              pop\n              jump\t// out\n                /* \"#utility.yul\":2618:2840   */\n            tag_14:\n                /* \"#utility.yul\":2711:2715   */\n              0x00\n                /* \"#utility.yul\":2749:2751   */\n              0x20\n                /* \"#utility.yul\":2738:2747   */\n              dup3\n                /* \"#utility.yul\":2734:2752   */\n              add\n                /* \"#utility.yul\":2726:2752   */\n              swap1\n              pop\n                /* \"#utility.yul\":2762:2833   */\n              tag_66\n                /* \"#utility.yul\":2830:2831   */\n              0x00\n                /* \"#utility.yul\":2819:2828   */\n              dup4\n                /* \"#utility.yul\":2815:2832   */\n              add\n                /* \"#utility.yul\":2806:2812   */\n              dup5\n                /* \"#utility.yul\":2762:2833   */\n              tag_32\n              jump\t// in\n            tag_66:\n                /* \"#utility.yul\":2618:2840   */\n              swap3\n              swap2\n              pop\n              pop\n              jump\t// out\n                /* \"#utility.yul\":2846:3019   */\n            tag_33:\n                /* \"#utility.yul\":2986:3011   */\n              0x6e756d626572206d757374206e6f74206265207a65726f000000000000000000\n                /* \"#utility.yul\":2982:2983   */\n              0x00\n                /* \"#utility.yul\":2974:2980   */\n              dup3\n                /* \"#utility.yul\":2970:2984   */\n              add\n                /* \"#utility.yul\":2963:3012   */\n              mstore\n                /* \"#utility.yul\":2846:3019   */\n              pop\n              jump\t// out\n                /* \"#utility.yul\":3025:3391   */\n            tag_34:\n                /* \"#utility.yul\":3167:3170   */\n              0x00\n                /* \"#utility.yul\":3188:3255   */\n              tag_69\n                /* \"#utility.yul\":3252:3254   */\n              0x17\n                /* \"#utility.yul\":3247:3250   */\n              dup4\n                /* \"#utility.yul\":3188:3255   */\n              tag_26\n              jump\t// in\n            tag_69:\n                /* \"#utility.yul\":3181:3255   */\n              swap2\n              pop\n                /* \"#utility.yul\":3264:3357   */\n              tag_70\n                /* \"#utility.yul\":3353:3356   */\n              dup3\n                /* \"#utility.yul\":3264:3357   */\n              tag_33\n              jump\t// in\n            tag_70:\n                /* \"#utility.yul\":3382:3384   */\n              0x20\n                /* \"#utility.yul\":3377:3380   */\n              dup3\n                /* \"#utility.yul\":3373:3385   */\n              add\n                /* \"#utility.yul\":3366:3385   */\n              swap1\n              pop\n                /* \"#utility.yul\":3025:3391   */\n              swap2\n              swap1\n              pop\n              jump\t// out\n                /* \"#utility.yul\":3397:3816   */\n            tag_18:\n                /* \"#utility.yul\":3563:3567   */\n              0x00\n                /* \"#utility.yul\":3601:3603   */\n              0x20\n                /* \"#utility.yul\":3590:3599   */\n              dup3\n                /* \"#utility.yul\":3586:3604   */\n              add\n                /* \"#utility.yul\":3578:3604   */\n              swap1\n              pop\n                /* \"#utility.yul\":3650:3659   */\n              dup2\n                /* \"#utility.yul\":3644:3648   */\n              dup2\n                /* \"#utility.yul\":3640:3660   */\n              sub\n                /* \"#utility.yul\":3636:3637   */\n              0x00\n                /* \"#utility.yul\":3625:3634   */\n              dup4\n                /* \"#utility.yul\":3621:3638   */\n              add\n                /* \"#utility.yul\":3614:3661   */\n              mstore\n                /* \"#utility.yul\":3678:3809   */\n              tag_72\n                /* \"#utility.yul\":3804:3808   */\n              dup2\n                /* \"#utility.yul\":3678:3809   */\n              tag_34\n              jump\t// in\n            tag_72:\n                /* \"#utility.yul\":3670:3809   */\n              swap1\n              pop\n                /* \"#utility.yul\":3397:3816   */\n              swap2\n              swap1\n              pop\n              jump\t// out\n\n            auxdata: 0xa2646970667358221220b33029af33f462992c6d399c6ee1604b8266da0561d96351d8d16bb3110c794864736f6c634300081a0033\n        }\n    }\n\n    auxdata: 0xa26469706673582212204d4bc90b47d38294e689dc26573fdbcac97e14838a8f2e1a0ad1c98086d57db464736f6c634300081a0033\n}\n\nsub_1: assembly {\n        /* \"Learning Pth/TryCatchEX.sol\":61:449  contract A {... */\n      mstore(0x40, 0x80)\n        /* \"Learning Pth/TryCatchEX.sol\":108:271  constructor(address _owner) {... */\n      callvalue\n      dup1\n      iszero\n      tag_1\n      jumpi\n      0x00\n      dup1\n      revert\n    tag_1:\n      pop\n      mload(0x40)\n      sub(codesize, bytecodeSize)\n      dup1\n      bytecodeSize\n      dup4\n      codecopy\n      dup2\n      dup2\n      add\n      0x40\n      mstore\n      dup2\n      add\n      swap1\n      tag_2\n      swap2\n      swap1\n      tag_3\n      jump\t// in\n    tag_2:\n        /* \"Learning Pth/TryCatchEX.sol\":173:174  0 */\n      0x00\n        /* \"Learning Pth/TryCatchEX.sol\":155:175  _owner != address(0) */\n      0xffffffffffffffffffffffffffffffffffffffff\n      and\n        /* \"Learning Pth/TryCatchEX.sol\":155:161  _owner */\n      dup2\n        /* \"Learning Pth/TryCatchEX.sol\":155:175  _owner != address(0) */\n      0xffffffffffffffffffffffffffffffffffffffff\n      and\n      sub\n        /* \"Learning Pth/TryCatchEX.sol\":147:199  require(_owner != address(0), \"not a valid address\") */\n      tag_6\n      jumpi\n      mload(0x40)\n      0x08c379a000000000000000000000000000000000000000000000000000000000\n      dup2\n      mstore\n      0x04\n      add\n      tag_7\n      swap1\n      tag_8\n      jump\t// in\n    tag_7:\n      mload(0x40)\n      dup1\n      swap2\n      sub\n      swap1\n      revert\n    tag_6:\n        /* \"Learning Pth/TryCatchEX.sol\":235:236  1 */\n      0x01\n        /* \"Learning Pth/TryCatchEX.sol\":217:237  _owner != address(1) */\n      0xffffffffffffffffffffffffffffffffffffffff\n      and\n        /* \"Learning Pth/TryCatchEX.sol\":217:223  _owner */\n      dup2\n        /* \"Learning Pth/TryCatchEX.sol\":217:237  _owner != address(1) */\n      0xffffffffffffffffffffffffffffffffffffffff\n      and\n      sub\n        /* \"Learning Pth/TryCatchEX.sol\":210:238  assert(_owner != address(1)) */\n      tag_9\n      jumpi\n      tag_10\n      tag_11\n      jump\t// in\n    tag_10:\n    tag_9:\n        /* \"Learning Pth/TryCatchEX.sol\":257:263  _owner */\n      dup1\n        /* \"Learning Pth/TryCatchEX.sol\":249:254  owner */\n      0x00\n      dup1\n        /* \"Learning Pth/TryCatchEX.sol\":249:263  owner = _owner */\n      0x0100\n      exp\n      dup2\n      sload\n      dup2\n      0xffffffffffffffffffffffffffffffffffffffff\n      mul\n      not\n      and\n      swap1\n      dup4\n      0xffffffffffffffffffffffffffffffffffffffff\n      and\n      mul\n      or\n      swap1\n      sstore\n      pop\n        /* \"Learning Pth/TryCatchEX.sol\":108:271  constructor(address _owner) {... */\n      pop\n        /* \"Learning Pth/TryCatchEX.sol\":61:449  contract A {... */\n      jump(tag_12)\n        /* \"#utility.yul\":88:205   */\n    tag_14:\n        /* \"#utility.yul\":197:198   */\n      0x00\n        /* \"#utility.yul\":194:195   */\n      dup1\n        /* \"#utility.yul\":187:199   */\n      revert\n        /* \"#utility.yul\":334:460   */\n    tag_16:\n        /* \"#utility.yul\":371:378   */\n      0x00\n        /* \"#utility.yul\":411:453   */\n      0xffffffffffffffffffffffffffffffffffffffff\n        /* \"#utility.yul\":404:409   */\n      dup3\n        /* \"#utility.yul\":400:454   */\n      and\n        /* \"#utility.yul\":389:454   */\n      swap1\n      pop\n        /* \"#utility.yul\":334:460   */\n      swap2\n      swap1\n      pop\n      jump\t// out\n        /* \"#utility.yul\":466:562   */\n    tag_17:\n        /* \"#utility.yul\":503:510   */\n      0x00\n        /* \"#utility.yul\":532:556   */\n      tag_29\n        /* \"#utility.yul\":550:555   */\n      dup3\n        /* \"#utility.yul\":532:556   */\n      tag_16\n      jump\t// in\n    tag_29:\n        /* \"#utility.yul\":521:556   */\n      swap1\n      pop\n        /* \"#utility.yul\":466:562   */\n      swap2\n      swap1\n      pop\n      jump\t// out\n        /* \"#utility.yul\":568:690   */\n    tag_18:\n        /* \"#utility.yul\":641:665   */\n      tag_31\n        /* \"#utility.yul\":659:664   */\n      dup2\n        /* \"#utility.yul\":641:665   */\n      tag_17\n      jump\t// in\n    tag_31:\n        /* \"#utility.yul\":634:639   */\n      dup2\n        /* \"#utility.yul\":631:666   */\n      eq\n        /* \"#utility.yul\":621:684   */\n      tag_32\n      jumpi\n        /* \"#utility.yul\":680:681   */\n      0x00\n        /* \"#utility.yul\":677:678   */\n      dup1\n        /* \"#utility.yul\":670:682   */\n      revert\n        /* \"#utility.yul\":621:684   */\n    tag_32:\n        /* \"#utility.yul\":568:690   */\n      pop\n      jump\t// out\n        /* \"#utility.yul\":696:839   */\n    tag_19:\n        /* \"#utility.yul\":753:758   */\n      0x00\n        /* \"#utility.yul\":784:790   */\n      dup2\n        /* \"#utility.yul\":778:791   */\n      mload\n        /* \"#utility.yul\":769:791   */\n      swap1\n      pop\n        /* \"#utility.yul\":800:833   */\n      tag_34\n        /* \"#utility.yul\":827:832   */\n      dup2\n        /* \"#utility.yul\":800:833   */\n      tag_18\n      jump\t// in\n    tag_34:\n        /* \"#utility.yul\":696:839   */\n      swap3\n      swap2\n      pop\n      pop\n      jump\t// out\n        /* \"#utility.yul\":845:1196   */\n    tag_3:\n        /* \"#utility.yul\":915:921   */\n      0x00\n        /* \"#utility.yul\":964:966   */\n      0x20\n        /* \"#utility.yul\":952:961   */\n      dup3\n        /* \"#utility.yul\":943:950   */\n      dup5\n        /* \"#utility.yul\":939:962   */\n      sub\n        /* \"#utility.yul\":935:967   */\n      slt\n        /* \"#utility.yul\":932:1051   */\n      iszero\n      tag_36\n      jumpi\n        /* \"#utility.yul\":970:1049   */\n      tag_37\n      tag_14\n      jump\t// in\n    tag_37:\n        /* \"#utility.yul\":932:1051   */\n    tag_36:\n        /* \"#utility.yul\":1090:1091   */\n      0x00\n        /* \"#utility.yul\":1115:1179   */\n      tag_38\n        /* \"#utility.yul\":1171:1178   */\n      dup5\n        /* \"#utility.yul\":1162:1168   */\n      dup3\n        /* \"#utility.yul\":1151:1160   */\n      dup6\n        /* \"#utility.yul\":1147:1169   */\n      add\n        /* \"#utility.yul\":1115:1179   */\n      tag_19\n      jump\t// in\n    tag_38:\n        /* \"#utility.yul\":1105:1179   */\n      swap2\n      pop\n        /* \"#utility.yul\":1061:1189   */\n      pop\n        /* \"#utility.yul\":845:1196   */\n      swap3\n      swap2\n      pop\n      pop\n      jump\t// out\n        /* \"#utility.yul\":1202:1371   */\n    tag_20:\n        /* \"#utility.yul\":1286:1297   */\n      0x00\n        /* \"#utility.yul\":1320:1326   */\n      dup3\n        /* \"#utility.yul\":1315:1318   */\n      dup3\n        /* \"#utility.yul\":1308:1327   */\n      mstore\n        /* \"#utility.yul\":1360:1364   */\n      0x20\n        /* \"#utility.yul\":1355:1358   */\n      dup3\n        /* \"#utility.yul\":1351:1365   */\n      add\n        /* \"#utility.yul\":1336:1365   */\n      swap1\n      pop\n        /* \"#utility.yul\":1202:1371   */\n      swap3\n      swap2\n      pop\n      pop\n      jump\t// out\n        /* \"#utility.yul\":1377:1546   */\n    tag_21:\n        /* \"#utility.yul\":1517:1538   */\n      0x6e6f7420612076616c6964206164647265737300000000000000000000000000\n        /* \"#utility.yul\":1513:1514   */\n      0x00\n        /* \"#utility.yul\":1505:1511   */\n      dup3\n        /* \"#utility.yul\":1501:1515   */\n      add\n        /* \"#utility.yul\":1494:1539   */\n      mstore\n        /* \"#utility.yul\":1377:1546   */\n      pop\n      jump\t// out\n        /* \"#utility.yul\":1552:1918   */\n    tag_22:\n        /* \"#utility.yul\":1694:1697   */\n      0x00\n        /* \"#utility.yul\":1715:1782   */\n      tag_42\n        /* \"#utility.yul\":1779:1781   */\n      0x13\n        /* \"#utility.yul\":1774:1777   */\n      dup4\n        /* \"#utility.yul\":1715:1782   */\n      tag_20\n      jump\t// in\n    tag_42:\n        /* \"#utility.yul\":1708:1782   */\n      swap2\n      pop\n        /* \"#utility.yul\":1791:1884   */\n      tag_43\n        /* \"#utility.yul\":1880:1883   */\n      dup3\n        /* \"#utility.yul\":1791:1884   */\n      tag_21\n      jump\t// in\n    tag_43:\n        /* \"#utility.yul\":1909:1911   */\n      0x20\n        /* \"#utility.yul\":1904:1907   */\n      dup3\n        /* \"#utility.yul\":1900:1912   */\n      add\n        /* \"#utility.yul\":1893:1912   */\n      swap1\n      pop\n        /* \"#utility.yul\":1552:1918   */\n      swap2\n      swap1\n      pop\n      jump\t// out\n        /* \"#utility.yul\":1924:2343   */\n    tag_8:\n        /* \"#utility.yul\":2090:2094   */\n      0x00\n        /* \"#utility.yul\":2128:2130   */\n      0x20\n        /* \"#utility.yul\":2117:2126   */\n      dup3\n        /* \"#utility.yul\":2113:2131   */\n      add\n        /* \"#utility.yul\":2105:2131   */\n      swap1\n      pop\n        /* \"#utility.yul\":2177:2186   */\n      dup2\n        /* \"#utility.yul\":2171:2175   */\n      dup2\n        /* \"#utility.yul\":2167:2187   */\n      sub\n        /* \"#utility.yul\":2163:2164   */\n      0x00\n        /* \"#utility.yul\":2152:2161   */\n      dup4\n        /* \"#utility.yul\":2148:2165   */\n      add\n        /* \"#utility.yul\":2141:2188   */\n      mstore\n        /* \"#utility.yul\":2205:2336   */\n      tag_45\n        /* \"#utility.yul\":2331:2335   */\n      dup2\n        /* \"#utility.yul\":2205:2336   */\n      tag_22\n      jump\t// in\n    tag_45:\n        /* \"#utility.yul\":2197:2336   */\n      swap1\n      pop\n        /* \"#utility.yul\":1924:2343   */\n      swap2\n      swap1\n      pop\n      jump\t// out\n        /* \"#utility.yul\":2349:2529   */\n    tag_11:\n        /* \"#utility.yul\":2397:2474   */\n      0x4e487b7100000000000000000000000000000000000000000000000000000000\n        /* \"#utility.yul\":2394:2395   */\n      0x00\n        /* \"#utility.yul\":2387:2475   */\n      mstore\n        /* \"#utility.yul\":2494:2498   */\n      0x01\n        /* \"#utility.yul\":2491:2492   */\n      0x04\n        /* \"#utility.yul\":2484:2499   */\n      mstore\n        /* \"#utility.yul\":2518:2522   */\n      0x24\n        /* \"#utility.yul\":2515:2516   */\n      0x00\n        /* \"#utility.yul\":2508:2523   */\n      revert\n        /* \"Learning Pth/TryCatchEX.sol\":61:449  contract A {... */\n    tag_12:\n      dataSize(sub_0)\n      dup1\n      dataOffset(sub_0)\n      0x00\n      codecopy\n      0x00\n      return\n    stop\n\n    sub_0: assembly {\n            /* \"Learning Pth/TryCatchEX.sol\":61:449  contract A {... */\n          mstore(0x40, 0x80)\n          callvalue\n          dup1\n          iszero\n          tag_1\n          jumpi\n          0x00\n          dup1\n          revert\n        tag_1:\n          pop\n          jumpi(tag_2, lt(calldatasize, 0x04))\n          shr(0xe0, calldataload(0x00))\n          dup1\n          0x50628c96\n          eq\n          tag_3\n          jumpi\n          dup1\n          0x8da5cb5b\n          eq\n          tag_4\n          jumpi\n        tag_2:\n          0x00\n          dup1\n          revert\n            /* \"Learning Pth/TryCatchEX.sol\":279:446  function myFunction(uint _num) public pure returns(string memory) {... */\n        tag_3:\n          tag_5\n          0x04\n          dup1\n          calldatasize\n          sub\n          dup2\n          add\n          swap1\n          tag_6\n          swap2\n          swap1\n          tag_7\n          jump\t// in\n        tag_6:\n          tag_8\n          jump\t// in\n        tag_5:\n          mload(0x40)\n          tag_9\n          swap2\n          swap1\n          tag_10\n          jump\t// in\n        tag_9:\n          mload(0x40)\n          dup1\n          swap2\n          sub\n          swap1\n          return\n            /* \"Learning Pth/TryCatchEX.sol\":79:99  address public owner */\n        tag_4:\n          tag_11\n          tag_12\n          jump\t// in\n        tag_11:\n          mload(0x40)\n          tag_13\n          swap2\n          swap1\n          tag_14\n          jump\t// in\n        tag_13:\n          mload(0x40)\n          dup1\n          swap2\n          sub\n          swap1\n          return\n            /* \"Learning Pth/TryCatchEX.sol\":279:446  function myFunction(uint _num) public pure returns(string memory) {... */\n        tag_8:\n            /* \"Learning Pth/TryCatchEX.sol\":330:343  string memory */\n          0x60\n            /* \"Learning Pth/TryCatchEX.sol\":372:373  0 */\n          0x00\n            /* \"Learning Pth/TryCatchEX.sol\":364:368  _num */\n          dup3\n            /* \"Learning Pth/TryCatchEX.sol\":364:373  _num != 0 */\n          sub\n            /* \"Learning Pth/TryCatchEX.sol\":356:401  require(_num != 0, \"number must not be zero\") */\n          tag_16\n          jumpi\n          mload(0x40)\n          0x08c379a000000000000000000000000000000000000000000000000000000000\n          dup2\n          mstore\n          0x04\n          add\n          tag_17\n          swap1\n          tag_18\n          jump\t// in\n        tag_17:\n          mload(0x40)\n          dup1\n          swap2\n          sub\n          swap1\n          revert\n        tag_16:\n            /* \"Learning Pth/TryCatchEX.sol\":412:438  return \"Number is correct\" */\n          mload(0x40)\n          dup1\n          0x40\n          add\n          0x40\n          mstore\n          dup1\n          0x11\n          dup2\n          mstore\n          0x20\n          add\n          0x4e756d62657220697320636f7272656374000000000000000000000000000000\n          dup2\n          mstore\n          pop\n          swap1\n          pop\n            /* \"Learning Pth/TryCatchEX.sol\":279:446  function myFunction(uint _num) public pure returns(string memory) {... */\n          swap2\n          swap1\n          pop\n          jump\t// out\n            /* \"Learning Pth/TryCatchEX.sol\":79:99  address public owner */\n        tag_12:\n          0x00\n          dup1\n          sload\n          swap1\n          0x0100\n          exp\n          swap1\n          div\n          0xffffffffffffffffffffffffffffffffffffffff\n          and\n          dup2\n          jump\t// out\n            /* \"#utility.yul\":88:205   */\n        tag_20:\n            /* \"#utility.yul\":197:198   */\n          0x00\n            /* \"#utility.yul\":194:195   */\n          dup1\n            /* \"#utility.yul\":187:199   */\n          revert\n            /* \"#utility.yul\":334:411   */\n        tag_22:\n            /* \"#utility.yul\":371:378   */\n          0x00\n            /* \"#utility.yul\":400:405   */\n          dup2\n            /* \"#utility.yul\":389:405   */\n          swap1\n          pop\n            /* \"#utility.yul\":334:411   */\n          swap2\n          swap1\n          pop\n          jump\t// out\n            /* \"#utility.yul\":417:539   */\n        tag_23:\n            /* \"#utility.yul\":490:514   */\n          tag_41\n            /* \"#utility.yul\":508:513   */\n          dup2\n            /* \"#utility.yul\":490:514   */\n          tag_22\n          jump\t// in\n        tag_41:\n            /* \"#utility.yul\":483:488   */\n          dup2\n            /* \"#utility.yul\":480:515   */\n          eq\n            /* \"#utility.yul\":470:533   */\n          tag_42\n          jumpi\n            /* \"#utility.yul\":529:530   */\n          0x00\n            /* \"#utility.yul\":526:527   */\n          dup1\n            /* \"#utility.yul\":519:531   */\n          revert\n            /* \"#utility.yul\":470:533   */\n        tag_42:\n            /* \"#utility.yul\":417:539   */\n          pop\n          jump\t// out\n            /* \"#utility.yul\":545:684   */\n        tag_24:\n            /* \"#utility.yul\":591:596   */\n          0x00\n            /* \"#utility.yul\":629:635   */\n          dup2\n            /* \"#utility.yul\":616:636   */\n          calldataload\n            /* \"#utility.yul\":607:636   */\n          swap1\n          pop\n            /* \"#utility.yul\":645:678   */\n          tag_44\n            /* \"#utility.yul\":672:677   */\n          dup2\n            /* \"#utility.yul\":645:678   */\n          tag_23\n          jump\t// in\n        tag_44:\n            /* \"#utility.yul\":545:684   */\n          swap3\n          swap2\n          pop\n          pop\n          jump\t// out\n            /* \"#utility.yul\":690:1019   */\n        tag_7:\n            /* \"#utility.yul\":749:755   */\n          0x00\n            /* \"#utility.yul\":798:800   */\n          0x20\n            /* \"#utility.yul\":786:795   */\n          dup3\n            /* \"#utility.yul\":777:784   */\n          dup5\n            /* \"#utility.yul\":773:796   */\n          sub\n            /* \"#utility.yul\":769:801   */\n          slt\n            /* \"#utility.yul\":766:885   */\n          iszero\n          tag_46\n          jumpi\n            /* \"#utility.yul\":804:883   */\n          tag_47\n          tag_20\n          jump\t// in\n        tag_47:\n            /* \"#utility.yul\":766:885   */\n        tag_46:\n            /* \"#utility.yul\":924:925   */\n          0x00\n            /* \"#utility.yul\":949:1002   */\n          tag_48\n            /* \"#utility.yul\":994:1001   */\n          dup5\n            /* \"#utility.yul\":985:991   */\n          dup3\n            /* \"#utility.yul\":974:983   */\n          dup6\n            /* \"#utility.yul\":970:992   */\n          add\n            /* \"#utility.yul\":949:1002   */\n          tag_24\n          jump\t// in\n        tag_48:\n            /* \"#utility.yul\":939:1002   */\n          swap2\n          pop\n            /* \"#utility.yul\":895:1012   */\n          pop\n            /* \"#utility.yul\":690:1019   */\n          swap3\n          swap2\n          pop\n          pop\n          jump\t// out\n            /* \"#utility.yul\":1025:1124   */\n        tag_25:\n            /* \"#utility.yul\":1077:1083   */\n          0x00\n            /* \"#utility.yul\":1111:1116   */\n          dup2\n            /* \"#utility.yul\":1105:1117   */\n          mload\n            /* \"#utility.yul\":1095:1117   */\n          swap1\n          pop\n            /* \"#utility.yul\":1025:1124   */\n          swap2\n          swap1\n          pop\n          jump\t// out\n            /* \"#utility.yul\":1130:1299   */\n        tag_26:\n            /* \"#utility.yul\":1214:1225   */\n          0x00\n            /* \"#utility.yul\":1248:1254   */\n          dup3\n            /* \"#utility.yul\":1243:1246   */\n          dup3\n            /* \"#utility.yul\":1236:1255   */\n          mstore\n            /* \"#utility.yul\":1288:1292   */\n          0x20\n            /* \"#utility.yul\":1283:1286   */\n          dup3\n            /* \"#utility.yul\":1279:1293   */\n          add\n            /* \"#utility.yul\":1264:1293   */\n          swap1\n          pop\n            /* \"#utility.yul\":1130:1299   */\n          swap3\n          swap2\n          pop\n          pop\n          jump\t// out\n            /* \"#utility.yul\":1305:1444   */\n        tag_27:\n            /* \"#utility.yul\":1394:1400   */\n          dup3\n            /* \"#utility.yul\":1389:1392   */\n          dup2\n            /* \"#utility.yul\":1384:1387   */\n          dup4\n            /* \"#utility.yul\":1378:1401   */\n          mcopy\n            /* \"#utility.yul\":1435:1436   */\n          0x00\n            /* \"#utility.yul\":1426:1432   */\n          dup4\n            /* \"#utility.yul\":1421:1424   */\n          dup4\n            /* \"#utility.yul\":1417:1433   */\n          add\n            /* \"#utility.yul\":1410:1437   */\n          mstore\n            /* \"#utility.yul\":1305:1444   */\n          pop\n          pop\n          pop\n          jump\t// out\n            /* \"#utility.yul\":1450:1552   */\n        tag_28:\n            /* \"#utility.yul\":1491:1497   */\n          0x00\n            /* \"#utility.yul\":1542:1544   */\n          0x1f\n            /* \"#utility.yul\":1538:1545   */\n          not\n            /* \"#utility.yul\":1533:1535   */\n          0x1f\n            /* \"#utility.yul\":1526:1531   */\n          dup4\n            /* \"#utility.yul\":1522:1536   */\n          add\n            /* \"#utility.yul\":1518:1546   */\n          and\n            /* \"#utility.yul\":1508:1546   */\n          swap1\n          pop\n            /* \"#utility.yul\":1450:1552   */\n          swap2\n          swap1\n          pop\n          jump\t// out\n            /* \"#utility.yul\":1558:1935   */\n        tag_29:\n            /* \"#utility.yul\":1646:1649   */\n          0x00\n            /* \"#utility.yul\":1674:1713   */\n          tag_54\n            /* \"#utility.yul\":1707:1712   */\n          dup3\n            /* \"#utility.yul\":1674:1713   */\n          tag_25\n          jump\t// in\n        tag_54:\n            /* \"#utility.yul\":1729:1800   */\n          tag_55\n            /* \"#utility.yul\":1793:1799   */\n          dup2\n            /* \"#utility.yul\":1788:1791   */\n          dup6\n            /* \"#utility.yul\":1729:1800   */\n          tag_26\n          jump\t// in\n        tag_55:\n            /* \"#utility.yul\":1722:1800   */\n          swap4\n          pop\n            /* \"#utility.yul\":1809:1874   */\n          tag_56\n            /* \"#utility.yul\":1867:1873   */\n          dup2\n            /* \"#utility.yul\":1862:1865   */\n          dup6\n            /* \"#utility.yul\":1855:1859   */\n          0x20\n            /* \"#utility.yul\":1848:1853   */\n          dup7\n            /* \"#utility.yul\":1844:1860   */\n          add\n            /* \"#utility.yul\":1809:1874   */\n          tag_27\n          jump\t// in\n        tag_56:\n            /* \"#utility.yul\":1899:1928   */\n          tag_57\n            /* \"#utility.yul\":1921:1927   */\n          dup2\n            /* \"#utility.yul\":1899:1928   */\n          tag_28\n          jump\t// in\n        tag_57:\n            /* \"#utility.yul\":1894:1897   */\n          dup5\n            /* \"#utility.yul\":1890:1929   */\n          add\n            /* \"#utility.yul\":1883:1929   */\n          swap2\n          pop\n            /* \"#utility.yul\":1650:1935   */\n          pop\n            /* \"#utility.yul\":1558:1935   */\n          swap3\n          swap2\n          pop\n          pop\n          jump\t// out\n            /* \"#utility.yul\":1941:2254   */\n        tag_10:\n            /* \"#utility.yul\":2054:2058   */\n          0x00\n            /* \"#utility.yul\":2092:2094   */\n          0x20\n            /* \"#utility.yul\":2081:2090   */\n          dup3\n            /* \"#utility.yul\":2077:2095   */\n          add\n            /* \"#utility.yul\":2069:2095   */\n          swap1\n          pop\n            /* \"#utility.yul\":2141:2150   */\n          dup2\n            /* \"#utility.yul\":2135:2139   */\n          dup2\n            /* \"#utility.yul\":2131:2151   */\n          sub\n            /* \"#utility.yul\":2127:2128   */\n          0x00\n            /* \"#utility.yul\":2116:2125   */\n          dup4\n            /* \"#utility.yul\":2112:2129   */\n          add\n            /* \"#utility.yul\":2105:2152   */\n          mstore\n            /* \"#utility.yul\":2169:2247   */\n          tag_59\n            /* \"#utility.yul\":2242:2246   */\n          dup2\n            /* \"#utility.yul\":2233:2239   */\n          dup5\n            /* \"#utility.yul\":2169:2247   */\n          tag_29\n          jump\t// in\n        tag_59:\n            /* \"#utility.yul\":2161:2247   */\n          swap1\n          pop\n            /* \"#utility.yul\":1941:2254   */\n          swap3\n          swap2\n          pop\n          pop\n          jump\t// out\n            /* \"#utility.yul\":2260:2386   */\n        tag_30:\n            /* \"#utility.yul\":2297:2304   */\n          0x00\n            /* \"#utility.yul\":2337:2379   */\n          0xffffffffffffffffffffffffffffffffffffffff\n            /* \"#utility.yul\":2330:2335   */\n          dup3\n            /* \"#utility.yul\":2326:2380   */\n          and\n            /* \"#utility.yul\":2315:2380   */\n          swap1\n          pop\n            /* \"#utility.yul\":2260:2386   */\n          swap2\n          swap1\n          pop\n          jump\t// out\n            /* \"#utility.yul\":2392:2488   */\n        tag_31:\n            /* \"#utility.yul\":2429:2436   */\n          0x00\n            /* \"#utility.yul\":2458:2482   */\n          tag_62\n            /* \"#utility.yul\":2476:2481   */\n          dup3\n            /* \"#utility.yul\":2458:2482   */\n          tag_30\n          jump\t// in\n        tag_62:\n            /* \"#utility.yul\":2447:2482   */\n          swap1\n          pop\n            /* \"#utility.yul\":2392:2488   */\n          swap2\n          swap1\n          pop\n          jump\t// out\n            /* \"#utility.yul\":2494:2612   */\n        tag_32:\n            /* \"#utility.yul\":2581:2605   */\n          tag_64\n            /* \"#utility.yul\":2599:2604   */\n          dup2\n            /* \"#utility.yul\":2581:2605   */\n          tag_31\n          jump\t// in\n        tag_64:\n            /* \"#utility.yul\":2576:2579   */\n          dup3\n            /* \"#utility.yul\":2569:2606   */\n          mstore\n            /* \"#utility.yul\":2494:2612   */\n          pop\n          pop\n          jump\t// out\n            /* \"#utility.yul\":2618:2840   */\n        tag_14:\n            /* \"#utility.yul\":2711:2715   */\n          0x00\n            /* \"#utility.yul\":2749:2751   */\n          0x20\n            /* \"#utility.yul\":2738:2747   */\n          dup3\n            /* \"#utility.yul\":2734:2752   */\n          add\n            /* \"#utility.yul\":2726:2752   */\n          swap1\n          pop\n            /* \"#utility.yul\":2762:2833   */\n          tag_66\n            /* \"#utility.yul\":2830:2831   */\n          0x00\n            /* \"#utility.yul\":2819:2828   */\n          dup4\n            /* \"#utility.yul\":2815:2832   */\n          add\n            /* \"#utility.yul\":2806:2812   */\n          dup5\n            /* \"#utility.yul\":2762:2833   */\n          tag_32\n          jump\t// in\n        tag_66:\n            /* \"#utility.yul\":2618:2840   */\n          swap3\n          swap2\n          pop\n          pop\n          jump\t// out\n            /* \"#utility.yul\":2846:3019   */\n        tag_33:\n            /* \"#utility.yul\":2986:3011   */\n          0x6e756d626572206d757374206e6f74206265207a65726f000000000000000000\n            /* \"#utility.yul\":2982:2983   */\n          0x00\n            /* \"#utility.yul\":2974:2980   */\n          dup3\n            /* \"#utility.yul\":2970:2984   */\n          add\n            /* \"#utility.yul\":2963:3012   */\n          mstore\n            /* \"#utility.yul\":2846:3019   */\n          pop\n          jump\t// out\n            /* \"#utility.yul\":3025:3391   */\n        tag_34:\n            /* \"#utility.yul\":3167:3170   */\n          0x00\n            /* \"#utility.yul\":3188:3255   */\n          tag_69\n            /* \"#utility.yul\":3252:3254   */\n          0x17\n            /* \"#utility.yul\":3247:3250   */\n          dup4\n            /* \"#utility.yul\":3188:3255   */\n          tag_26\n          jump\t// in\n        tag_69:\n            /* \"#utility.yul\":3181:3255   */\n          swap2\n          pop\n            /* \"#utility.yul\":3264:3357   */\n          tag_70\n            /* \"#utility.yul\":3353:3356   */\n          dup3\n            /* \"#utility.yul\":3264:3357   */\n          tag_33\n          jump\t// in\n        tag_70:\n            /* \"#utility.yul\":3382:3384   */\n          0x20\n            /* \"#utility.yul\":3377:3380   */\n          dup3\n            /* \"#utility.yul\":3373:3385   */\n          add\n            /* \"#utility.yul\":3366:3385   */\n          swap1\n          pop\n            /* \"#utility.yul\":3025:3391   */\n          swap2\n          swap1\n          pop\n          jump\t// out\n            /* \"#utility.yul\":3397:3816   */\n        tag_18:\n            /* \"#utility.yul\":3563:3567   */\n          0x00\n            /* \"#utility.yul\":3601:3603   */\n          0x20\n            /* \"#utility.yul\":3590:3599   */\n          dup3\n            /* \"#utility.yul\":3586:3604   */\n          add\n            /* \"#utility.yul\":3578:3604   */\n          swap1\n          pop\n            /* \"#utility.yul\":3650:3659   */\n          dup2\n            /* \"#utility.yul\":3644:3648   */\n          dup2\n            /* \"#utility.yul\":3640:3660   */\n          sub\n            /* \"#utility.yul\":3636:3637   */\n          0x00\n            /* \"#utility.yul\":3625:3634   */\n          dup4\n            /* \"#utility.yul\":3621:3638   */\n          add\n            /* \"#utility.yul\":3614:3661   */\n          mstore\n            /* \"#utility.yul\":3678:3809   */\n          tag_72\n            /* \"#utility.yul\":3804:3808   */\n          dup2\n            /* \"#utility.yul\":3678:3809   */\n          tag_34\n          jump\t// in\n        tag_72:\n            /* \"#utility.yul\":3670:3809   */\n          swap1\n          pop\n            /* \"#utility.yul\":3397:3816   */\n          swap2\n          swap1\n          pop\n          jump\t// out\n\n        auxdata: 0xa2646970667358221220b33029af33f462992c6d399c6ee1604b8266da0561d96351d8d16bb3110c794864736f6c634300081a0033\n    }\n}\n",
				"bytecode": {
					"linkReferences": {},
					"object": "608060405234801561000f575f80fd5b503360405161001d90610084565b61002791906100d0565b604051809103905ff080158015610040573d5f803e3d5ffd5b505f806101000a81548173ffffffffffffffffffffffffffffffffffffffff021916908373ffffffffffffffffffffffffffffffffffffffff1602179055506100e9565b61056e80610f7c83390190565b5f73ffffffffffffffffffffffffffffffffffffffff82169050919050565b5f6100ba82610091565b9050919050565b6100ca816100b0565b82525050565b5f6020820190506100e35f8301846100c1565b92915050565b610e86806100f65f395ff3fe608060405234801561000f575f80fd5b506004361061003f575f3560e01c80630dbe671f146100435780637a3689be146100615780638b309ccf1461007d575b5f80fd5b61004b610099565b604051610058919061038d565b60405180910390f35b61007b600480360381019061007691906103ea565b6100bc565b005b61009760048036038101906100929190610450565b6101cb565b005b5f8054906101000a900473ffffffffffffffffffffffffffffffffffffffff1681565b5f8054906101000a900473ffffffffffffffffffffffffffffffffffffffff1673ffffffffffffffffffffffffffffffffffffffff166350628c96826040518263ffffffff1660e01b8152600401610114919061048a565b5f60405180830381865afa92505050801561015157506040513d5f823e3d601f19601f8201168201806040525081019061014e91906105df565b60015b61018f577fcf34ef537ac33ee1ac626ca1587a0a7e8e51561e5514f8cb36afa1c5102b3bab604051610182906106a6565b60405180910390a16101c8565b7fcf34ef537ac33ee1ac626ca1587a0a7e8e51561e5514f8cb36afa1c5102b3bab816040516101be9190610706565b60405180910390a1505b50565b806040516101d890610306565b6101e29190610735565b604051809103905ff080156101f45760015b6102cc5761020061075a565b806308c379a00361025c5750610214610779565b8061021f575061025e565b7fcf34ef537ac33ee1ac626ca1587a0a7e8e51561e5514f8cb36afa1c5102b3bab8160405161024e9190610706565b60405180910390a1506102c7565b505b3d805f8114610288576040519150601f19603f3d011682016040523d82523d5f602084013e61028d565b606091505b507f3055ab4f5ad62abb7e17c2a3c8bac6f6b3f8ce3fea318218845b94a96525e483816040516102bd919061085a565b60405180910390a1505b610303565b7fcf34ef537ac33ee1ac626ca1587a0a7e8e51561e5514f8cb36afa1c5102b3bab6040516102f9906108c4565b60405180910390a1505b50565b61056e806108e383390190565b5f73ffffffffffffffffffffffffffffffffffffffff82169050919050565b5f819050919050565b5f61035561035061034b84610313565b610332565b610313565b9050919050565b5f6103668261033b565b9050919050565b5f6103778261035c565b9050919050565b6103878161036d565b82525050565b5f6020820190506103a05f83018461037e565b92915050565b5f604051905090565b5f80fd5b5f80fd5b5f819050919050565b6103c9816103b7565b81146103d3575f80fd5b50565b5f813590506103e4816103c0565b92915050565b5f602082840312156103ff576103fe6103af565b5b5f61040c848285016103d6565b91505092915050565b5f61041f82610313565b9050919050565b61042f81610415565b8114610439575f80fd5b50565b5f8135905061044a81610426565b92915050565b5f60208284031215610465576104646103af565b5b5f6104728482850161043c565b91505092915050565b610484816103b7565b82525050565b5f60208201905061049d5f83018461047b565b92915050565b5f80fd5b5f80fd5b5f601f19601f8301169050919050565b7f4e487b71000000000000000000000000000000000000000000000000000000005f52604160045260245ffd5b6104f1826104ab565b810181811067ffffffffffffffff821117156105105761050f6104bb565b5b80604052505050565b5f6105226103a6565b905061052e82826104e8565b919050565b5f67ffffffffffffffff82111561054d5761054c6104bb565b5b610556826104ab565b9050602081019050919050565b8281835e5f83830152505050565b5f61058361057e84610533565b610519565b90508281526020810184848401111561059f5761059e6104a7565b5b6105aa848285610563565b509392505050565b5f82601f8301126105c6576105c56104a3565b5b81516105d6848260208601610571565b91505092915050565b5f602082840312156105f4576105f36103af565b5b5f82015167ffffffffffffffff811115610611576106106103b3565b5b61061d848285016105b2565b91505092915050565b5f82825260208201905092915050565b7f636f756c646e27742066657463682065787465726e616c2063616c6c206461745f8201527f6100000000000000000000000000000000000000000000000000000000000000602082015250565b5f610690602183610626565b915061069b82610636565b604082019050919050565b5f6020820190508181035f8301526106bd81610684565b9050919050565b5f81519050919050565b5f6106d8826106c4565b6106e28185610626565b93506106f2818560208601610563565b6106fb816104ab565b840191505092915050565b5f6020820190508181035f83015261071e81846106ce565b905092915050565b61072f81610415565b82525050565b5f6020820190506107485f830184610726565b92915050565b5f8160e01c9050919050565b5f60033d11156107765760045f803e6107735f5161074e565b90505b90565b5f60443d106108055761078a6103a6565b60043d036004823e80513d602482011167ffffffffffffffff821117156107b2575050610805565b808201805167ffffffffffffffff8111156107d05750505050610805565b80602083010160043d0385018111156107ed575050505050610805565b6107fc826020018501866104e8565b82955050505050505b90565b5f81519050919050565b5f82825260208201905092915050565b5f61082c82610808565b6108368185610812565b9350610846818560208601610563565b61084f816104ab565b840191505092915050565b5f6020820190508181035f8301526108728184610822565b905092915050565b7f74686520616464726573732069732076616c69640000000000000000000000005f82015250565b5f6108ae601483610626565b91506108b98261087a565b602082019050919050565b5f6020820190508181035f8301526108db816108a2565b905091905056fe608060405234801561000f575f80fd5b5060405161056e38038061056e8339818101604052810190610031919061017f565b5f73ffffffffffffffffffffffffffffffffffffffff168173ffffffffffffffffffffffffffffffffffffffff160361009f576040517f08c379a000000000000000000000000000000000000000000000000000000000815260040161009690610204565b60405180910390fd5b600173ffffffffffffffffffffffffffffffffffffffff168173ffffffffffffffffffffffffffffffffffffffff16036100dc576100db610222565b5b805f806101000a81548173ffffffffffffffffffffffffffffffffffffffff021916908373ffffffffffffffffffffffffffffffffffffffff1602179055505061024f565b5f80fd5b5f73ffffffffffffffffffffffffffffffffffffffff82169050919050565b5f61014e82610125565b9050919050565b61015e81610144565b8114610168575f80fd5b50565b5f8151905061017981610155565b92915050565b5f6020828403121561019457610193610121565b5b5f6101a18482850161016b565b91505092915050565b5f82825260208201905092915050565b7f6e6f7420612076616c69642061646472657373000000000000000000000000005f82015250565b5f6101ee6013836101aa565b91506101f9826101ba565b602082019050919050565b5f6020820190508181035f83015261021b816101e2565b9050919050565b7f4e487b71000000000000000000000000000000000000000000000000000000005f52600160045260245ffd5b6103128061025c5f395ff3fe608060405234801561000f575f80fd5b5060043610610034575f3560e01c806350628c96146100385780638da5cb5b14610068575b5f80fd5b610052600480360381019061004d9190610161565b610086565b60405161005f91906101fc565b60405180910390f35b610070610107565b60405161007d919061025b565b60405180910390f35b60605f82036100ca576040517f08c379a00000000000000000000000000000000000000000000000000000000081526004016100c1906102be565b60405180910390fd5b6040518060400160405280601181526020017f4e756d62657220697320636f72726563740000000000000000000000000000008152509050919050565b5f8054906101000a900473ffffffffffffffffffffffffffffffffffffffff1681565b5f80fd5b5f819050919050565b6101408161012e565b811461014a575f80fd5b50565b5f8135905061015b81610137565b92915050565b5f602082840312156101765761017561012a565b5b5f6101838482850161014d565b91505092915050565b5f81519050919050565b5f82825260208201905092915050565b8281835e5f83830152505050565b5f601f19601f8301169050919050565b5f6101ce8261018c565b6101d88185610196565b93506101e88185602086016101a6565b6101f1816101b4565b840191505092915050565b5f6020820190508181035f83015261021481846101c4565b905092915050565b5f73ffffffffffffffffffffffffffffffffffffffff82169050919050565b5f6102458261021c565b9050919050565b6102558161023b565b82525050565b5f60208201905061026e5f83018461024c565b92915050565b7f6e756d626572206d757374206e6f74206265207a65726f0000000000000000005f82015250565b5f6102a8601783610196565b91506102b382610274565b602082019050919050565b5f6020820190508181035f8301526102d58161029c565b905091905056fea2646970667358221220b33029af33f462992c6d399c6ee1604b8266da0561d96351d8d16bb3110c794864736f6c634300081a0033a26469706673582212204d4bc90b47d38294e689dc26573fdbcac97e14838a8f2e1a0ad1c98086d57db464736f6c634300081a0033608060405234801561000f575f80fd5b5060405161056e38038061056e8339818101604052810190610031919061017f565b5f73ffffffffffffffffffffffffffffffffffffffff168173ffffffffffffffffffffffffffffffffffffffff160361009f576040517f08c379a000000000000000000000000000000000000000000000000000000000815260040161009690610204565b60405180910390fd5b600173ffffffffffffffffffffffffffffffffffffffff168173ffffffffffffffffffffffffffffffffffffffff16036100dc576100db610222565b5b805f806101000a81548173ffffffffffffffffffffffffffffffffffffffff021916908373ffffffffffffffffffffffffffffffffffffffff1602179055505061024f565b5f80fd5b5f73ffffffffffffffffffffffffffffffffffffffff82169050919050565b5f61014e82610125565b9050919050565b61015e81610144565b8114610168575f80fd5b50565b5f8151905061017981610155565b92915050565b5f6020828403121561019457610193610121565b5b5f6101a18482850161016b565b91505092915050565b5f82825260208201905092915050565b7f6e6f7420612076616c69642061646472657373000000000000000000000000005f82015250565b5f6101ee6013836101aa565b91506101f9826101ba565b602082019050919050565b5f6020820190508181035f83015261021b816101e2565b9050919050565b7f4e487b71000000000000000000000000000000000000000000000000000000005f52600160045260245ffd5b6103128061025c5f395ff3fe608060405234801561000f575f80fd5b5060043610610034575f3560e01c806350628c96146100385780638da5cb5b14610068575b5f80fd5b610052600480360381019061004d9190610161565b610086565b60405161005f91906101fc565b60405180910390f35b610070610107565b60405161007d919061025b565b60405180910390f35b60605f82036100ca576040517f08c379a00000000000000000000000000000000000000000000000000000000081526004016100c1906102be565b60405180910390fd5b6040518060400160405280601181526020017f4e756d62657220697320636f72726563740000000000000000000000000000008152509050919050565b5f8054906101000a900473ffffffffffffffffffffffffffffffffffffffff1681565b5f80fd5b5f819050919050565b6101408161012e565b811461014a575f80fd5b50565b5f8135905061015b81610137565b92915050565b5f602082840312156101765761017561012a565b5b5f6101838482850161014d565b91505092915050565b5f81519050919050565b5f82825260208201905092915050565b8281835e5f83830152505050565b5f601f19601f8301169050919050565b5f6101ce8261018c565b6101d88185610196565b93506101e88185602086016101a6565b6101f1816101b4565b840191505092915050565b5f6020820190508181035f83015261021481846101c4565b905092915050565b5f73ffffffffffffffffffffffffffffffffffffffff82169050919050565b5f6102458261021c565b9050919050565b6102558161023b565b82525050565b5f60208201905061026e5f83018461024c565b92915050565b7f6e756d626572206d757374206e6f74206265207a65726f0000000000000000005f82015250565b5f6102a8601783610196565b91506102b382610274565b602082019050919050565b5f6020820190508181035f8301526102d58161029c565b905091905056fea2646970667358221220b33029af33f462992c6d399c6ee1604b8266da0561d96351d8d16bb3110c794864736f6c634300081a0033",
					"opcodes": "PUSH1 0x80 PUSH1 0x40 MSTORE CALLVALUE DUP1 ISZERO PUSH2 0xF JUMPI PUSH0 DUP1 REVERT JUMPDEST POP CALLER PUSH1 0x40 MLOAD PUSH2 0x1D SWAP1 PUSH2 0x84 JUMP JUMPDEST PUSH2 0x27 SWAP2 SWAP1 PUSH2 0xD0 JUMP JUMPDEST PUSH1 0x40 MLOAD DUP1 SWAP2 SUB SWAP1 PUSH0 CREATE DUP1 ISZERO DUP1 ISZERO PUSH2 0x40 JUMPI RETURNDATASIZE PUSH0 DUP1 RETURNDATACOPY RETURNDATASIZE PUSH0 REVERT JUMPDEST POP PUSH0 DUP1 PUSH2 0x100 EXP DUP2 SLOAD DUP2 PUSH20 0xFFFFFFFFFFFFFFFFFFFFFFFFFFFFFFFFFFFFFFFF MUL NOT AND SWAP1 DUP4 PUSH20 0xFFFFFFFFFFFFFFFFFFFFFFFFFFFFFFFFFFFFFFFF AND MUL OR SWAP1 SSTORE POP PUSH2 0xE9 JUMP JUMPDEST PUSH2 0x56E DUP1 PUSH2 0xF7C DUP4 CODECOPY ADD SWAP1 JUMP JUMPDEST PUSH0 PUSH20 0xFFFFFFFFFFFFFFFFFFFFFFFFFFFFFFFFFFFFFFFF DUP3 AND SWAP1 POP SWAP2 SWAP1 POP JUMP JUMPDEST PUSH0 PUSH2 0xBA DUP3 PUSH2 0x91 JUMP JUMPDEST SWAP1 POP SWAP2 SWAP1 POP JUMP JUMPDEST PUSH2 0xCA DUP2 PUSH2 0xB0 JUMP JUMPDEST DUP3 MSTORE POP POP JUMP JUMPDEST PUSH0 PUSH1 0x20 DUP3 ADD SWAP1 POP PUSH2 0xE3 PUSH0 DUP4 ADD DUP5 PUSH2 0xC1 JUMP JUMPDEST SWAP3 SWAP2 POP POP JUMP JUMPDEST PUSH2 0xE86 DUP1 PUSH2 0xF6 PUSH0 CODECOPY PUSH0 RETURN INVALID PUSH1 0x80 PUSH1 0x40 MSTORE CALLVALUE DUP1 ISZERO PUSH2 0xF JUMPI PUSH0 DUP1 REVERT JUMPDEST POP PUSH1 0x4 CALLDATASIZE LT PUSH2 0x3F JUMPI PUSH0 CALLDATALOAD PUSH1 0xE0 SHR DUP1 PUSH4 0xDBE671F EQ PUSH2 0x43 JUMPI DUP1 PUSH4 0x7A3689BE EQ PUSH2 0x61 JUMPI DUP1 PUSH4 0x8B309CCF EQ PUSH2 0x7D JUMPI JUMPDEST PUSH0 DUP1 REVERT JUMPDEST PUSH2 0x4B PUSH2 0x99 JUMP JUMPDEST PUSH1 0x40 MLOAD PUSH2 0x58 SWAP2 SWAP1 PUSH2 0x38D JUMP JUMPDEST PUSH1 0x40 MLOAD DUP1 SWAP2 SUB SWAP1 RETURN JUMPDEST PUSH2 0x7B PUSH1 0x4 DUP1 CALLDATASIZE SUB DUP2 ADD SWAP1 PUSH2 0x76 SWAP2 SWAP1 PUSH2 0x3EA JUMP JUMPDEST PUSH2 0xBC JUMP JUMPDEST STOP JUMPDEST PUSH2 0x97 PUSH1 0x4 DUP1 CALLDATASIZE SUB DUP2 ADD SWAP1 PUSH2 0x92 SWAP2 SWAP1 PUSH2 0x450 JUMP JUMPDEST PUSH2 0x1CB JUMP JUMPDEST STOP JUMPDEST PUSH0 DUP1 SLOAD SWAP1 PUSH2 0x100 EXP SWAP1 DIV PUSH20 0xFFFFFFFFFFFFFFFFFFFFFFFFFFFFFFFFFFFFFFFF AND DUP2 JUMP JUMPDEST PUSH0 DUP1 SLOAD SWAP1 PUSH2 0x100 EXP SWAP1 DIV PUSH20 0xFFFFFFFFFFFFFFFFFFFFFFFFFFFFFFFFFFFFFFFF AND PUSH20 0xFFFFFFFFFFFFFFFFFFFFFFFFFFFFFFFFFFFFFFFF AND PUSH4 0x50628C96 DUP3 PUSH1 0x40 MLOAD DUP3 PUSH4 0xFFFFFFFF AND PUSH1 0xE0 SHL DUP2 MSTORE PUSH1 0x4 ADD PUSH2 0x114 SWAP2 SWAP1 PUSH2 0x48A JUMP JUMPDEST PUSH0 PUSH1 0x40 MLOAD DUP1 DUP4 SUB DUP2 DUP7 GAS STATICCALL SWAP3 POP POP POP DUP1 ISZERO PUSH2 0x151 JUMPI POP PUSH1 0x40 MLOAD RETURNDATASIZE PUSH0 DUP3 RETURNDATACOPY RETURNDATASIZE PUSH1 0x1F NOT PUSH1 0x1F DUP3 ADD AND DUP3 ADD DUP1 PUSH1 0x40 MSTORE POP DUP2 ADD SWAP1 PUSH2 0x14E SWAP2 SWAP1 PUSH2 0x5DF JUMP JUMPDEST PUSH1 0x1 JUMPDEST PUSH2 0x18F JUMPI PUSH32 0xCF34EF537AC33EE1AC626CA1587A0A7E8E51561E5514F8CB36AFA1C5102B3BAB PUSH1 0x40 MLOAD PUSH2 0x182 SWAP1 PUSH2 0x6A6 JUMP JUMPDEST PUSH1 0x40 MLOAD DUP1 SWAP2 SUB SWAP1 LOG1 PUSH2 0x1C8 JUMP JUMPDEST PUSH32 0xCF34EF537AC33EE1AC626CA1587A0A7E8E51561E5514F8CB36AFA1C5102B3BAB DUP2 PUSH1 0x40 MLOAD PUSH2 0x1BE SWAP2 SWAP1 PUSH2 0x706 JUMP JUMPDEST PUSH1 0x40 MLOAD DUP1 SWAP2 SUB SWAP1 LOG1 POP JUMPDEST POP JUMP JUMPDEST DUP1 PUSH1 0x40 MLOAD PUSH2 0x1D8 SWAP1 PUSH2 0x306 JUMP JUMPDEST PUSH2 0x1E2 SWAP2 SWAP1 PUSH2 0x735 JUMP JUMPDEST PUSH1 0x40 MLOAD DUP1 SWAP2 SUB SWAP1 PUSH0 CREATE DUP1 ISZERO PUSH2 0x1F4 JUMPI PUSH1 0x1 JUMPDEST PUSH2 0x2CC JUMPI PUSH2 0x200 PUSH2 0x75A JUMP JUMPDEST DUP1 PUSH4 0x8C379A0 SUB PUSH2 0x25C JUMPI POP PUSH2 0x214 PUSH2 0x779 JUMP JUMPDEST DUP1 PUSH2 0x21F JUMPI POP PUSH2 0x25E JUMP JUMPDEST PUSH32 0xCF34EF537AC33EE1AC626CA1587A0A7E8E51561E5514F8CB36AFA1C5102B3BAB DUP2 PUSH1 0x40 MLOAD PUSH2 0x24E SWAP2 SWAP1 PUSH2 0x706 JUMP JUMPDEST PUSH1 0x40 MLOAD DUP1 SWAP2 SUB SWAP1 LOG1 POP PUSH2 0x2C7 JUMP JUMPDEST POP JUMPDEST RETURNDATASIZE DUP1 PUSH0 DUP2 EQ PUSH2 0x288 JUMPI PUSH1 0x40 MLOAD SWAP2 POP PUSH1 0x1F NOT PUSH1 0x3F RETURNDATASIZE ADD AND DUP3 ADD PUSH1 0x40 MSTORE RETURNDATASIZE DUP3 MSTORE RETURNDATASIZE PUSH0 PUSH1 0x20 DUP5 ADD RETURNDATACOPY PUSH2 0x28D JUMP JUMPDEST PUSH1 0x60 SWAP2 POP JUMPDEST POP PUSH32 0x3055AB4F5AD62ABB7E17C2A3C8BAC6F6B3F8CE3FEA318218845B94A96525E483 DUP2 PUSH1 0x40 MLOAD PUSH2 0x2BD SWAP2 SWAP1 PUSH2 0x85A JUMP JUMPDEST PUSH1 0x40 MLOAD DUP1 SWAP2 SUB SWAP1 LOG1 POP JUMPDEST PUSH2 0x303 JUMP JUMPDEST PUSH32 0xCF34EF537AC33EE1AC626CA1587A0A7E8E51561E5514F8CB36AFA1C5102B3BAB PUSH1 0x40 MLOAD PUSH2 0x2F9 SWAP1 PUSH2 0x8C4 JUMP JUMPDEST PUSH1 0x40 MLOAD DUP1 SWAP2 SUB SWAP1 LOG1 POP JUMPDEST POP JUMP JUMPDEST PUSH2 0x56E DUP1 PUSH2 0x8E3 DUP4 CODECOPY ADD SWAP1 JUMP JUMPDEST PUSH0 PUSH20 0xFFFFFFFFFFFFFFFFFFFFFFFFFFFFFFFFFFFFFFFF DUP3 AND SWAP1 POP SWAP2 SWAP1 POP JUMP JUMPDEST PUSH0 DUP2 SWAP1 POP SWAP2 SWAP1 POP JUMP JUMPDEST PUSH0 PUSH2 0x355 PUSH2 0x350 PUSH2 0x34B DUP5 PUSH2 0x313 JUMP JUMPDEST PUSH2 0x332 JUMP JUMPDEST PUSH2 0x313 JUMP JUMPDEST SWAP1 POP SWAP2 SWAP1 POP JUMP JUMPDEST PUSH0 PUSH2 0x366 DUP3 PUSH2 0x33B JUMP JUMPDEST SWAP1 POP SWAP2 SWAP1 POP JUMP JUMPDEST PUSH0 PUSH2 0x377 DUP3 PUSH2 0x35C JUMP JUMPDEST SWAP1 POP SWAP2 SWAP1 POP JUMP JUMPDEST PUSH2 0x387 DUP2 PUSH2 0x36D JUMP JUMPDEST DUP3 MSTORE POP POP JUMP JUMPDEST PUSH0 PUSH1 0x20 DUP3 ADD SWAP1 POP PUSH2 0x3A0 PUSH0 DUP4 ADD DUP5 PUSH2 0x37E JUMP JUMPDEST SWAP3 SWAP2 POP POP JUMP JUMPDEST PUSH0 PUSH1 0x40 MLOAD SWAP1 POP SWAP1 JUMP JUMPDEST PUSH0 DUP1 REVERT JUMPDEST PUSH0 DUP1 REVERT JUMPDEST PUSH0 DUP2 SWAP1 POP SWAP2 SWAP1 POP JUMP JUMPDEST PUSH2 0x3C9 DUP2 PUSH2 0x3B7 JUMP JUMPDEST DUP2 EQ PUSH2 0x3D3 JUMPI PUSH0 DUP1 REVERT JUMPDEST POP JUMP JUMPDEST PUSH0 DUP2 CALLDATALOAD SWAP1 POP PUSH2 0x3E4 DUP2 PUSH2 0x3C0 JUMP JUMPDEST SWAP3 SWAP2 POP POP JUMP JUMPDEST PUSH0 PUSH1 0x20 DUP3 DUP5 SUB SLT ISZERO PUSH2 0x3FF JUMPI PUSH2 0x3FE PUSH2 0x3AF JUMP JUMPDEST JUMPDEST PUSH0 PUSH2 0x40C DUP5 DUP3 DUP6 ADD PUSH2 0x3D6 JUMP JUMPDEST SWAP2 POP POP SWAP3 SWAP2 POP POP JUMP JUMPDEST PUSH0 PUSH2 0x41F DUP3 PUSH2 0x313 JUMP JUMPDEST SWAP1 POP SWAP2 SWAP1 POP JUMP JUMPDEST PUSH2 0x42F DUP2 PUSH2 0x415 JUMP JUMPDEST DUP2 EQ PUSH2 0x439 JUMPI PUSH0 DUP1 REVERT JUMPDEST POP JUMP JUMPDEST PUSH0 DUP2 CALLDATALOAD SWAP1 POP PUSH2 0x44A DUP2 PUSH2 0x426 JUMP JUMPDEST SWAP3 SWAP2 POP POP JUMP JUMPDEST PUSH0 PUSH1 0x20 DUP3 DUP5 SUB SLT ISZERO PUSH2 0x465 JUMPI PUSH2 0x464 PUSH2 0x3AF JUMP JUMPDEST JUMPDEST PUSH0 PUSH2 0x472 DUP5 DUP3 DUP6 ADD PUSH2 0x43C JUMP JUMPDEST SWAP2 POP POP SWAP3 SWAP2 POP POP JUMP JUMPDEST PUSH2 0x484 DUP2 PUSH2 0x3B7 JUMP JUMPDEST DUP3 MSTORE POP POP JUMP JUMPDEST PUSH0 PUSH1 0x20 DUP3 ADD SWAP1 POP PUSH2 0x49D PUSH0 DUP4 ADD DUP5 PUSH2 0x47B JUMP JUMPDEST SWAP3 SWAP2 POP POP JUMP JUMPDEST PUSH0 DUP1 REVERT JUMPDEST PUSH0 DUP1 REVERT JUMPDEST PUSH0 PUSH1 0x1F NOT PUSH1 0x1F DUP4 ADD AND SWAP1 POP SWAP2 SWAP1 POP JUMP JUMPDEST PUSH32 0x4E487B7100000000000000000000000000000000000000000000000000000000 PUSH0 MSTORE PUSH1 0x41 PUSH1 0x4 MSTORE PUSH1 0x24 PUSH0 REVERT JUMPDEST PUSH2 0x4F1 DUP3 PUSH2 0x4AB JUMP JUMPDEST DUP2 ADD DUP2 DUP2 LT PUSH8 0xFFFFFFFFFFFFFFFF DUP3 GT OR ISZERO PUSH2 0x510 JUMPI PUSH2 0x50F PUSH2 0x4BB JUMP JUMPDEST JUMPDEST DUP1 PUSH1 0x40 MSTORE POP POP POP JUMP JUMPDEST PUSH0 PUSH2 0x522 PUSH2 0x3A6 JUMP JUMPDEST SWAP1 POP PUSH2 0x52E DUP3 DUP3 PUSH2 0x4E8 JUMP JUMPDEST SWAP2 SWAP1 POP JUMP JUMPDEST PUSH0 PUSH8 0xFFFFFFFFFFFFFFFF DUP3 GT ISZERO PUSH2 0x54D JUMPI PUSH2 0x54C PUSH2 0x4BB JUMP JUMPDEST JUMPDEST PUSH2 0x556 DUP3 PUSH2 0x4AB JUMP JUMPDEST SWAP1 POP PUSH1 0x20 DUP2 ADD SWAP1 POP SWAP2 SWAP1 POP JUMP JUMPDEST DUP3 DUP2 DUP4 MCOPY PUSH0 DUP4 DUP4 ADD MSTORE POP POP POP JUMP JUMPDEST PUSH0 PUSH2 0x583 PUSH2 0x57E DUP5 PUSH2 0x533 JUMP JUMPDEST PUSH2 0x519 JUMP JUMPDEST SWAP1 POP DUP3 DUP2 MSTORE PUSH1 0x20 DUP2 ADD DUP5 DUP5 DUP5 ADD GT ISZERO PUSH2 0x59F JUMPI PUSH2 0x59E PUSH2 0x4A7 JUMP JUMPDEST JUMPDEST PUSH2 0x5AA DUP5 DUP3 DUP6 PUSH2 0x563 JUMP JUMPDEST POP SWAP4 SWAP3 POP POP POP JUMP JUMPDEST PUSH0 DUP3 PUSH1 0x1F DUP4 ADD SLT PUSH2 0x5C6 JUMPI PUSH2 0x5C5 PUSH2 0x4A3 JUMP JUMPDEST JUMPDEST DUP2 MLOAD PUSH2 0x5D6 DUP5 DUP3 PUSH1 0x20 DUP7 ADD PUSH2 0x571 JUMP JUMPDEST SWAP2 POP POP SWAP3 SWAP2 POP POP JUMP JUMPDEST PUSH0 PUSH1 0x20 DUP3 DUP5 SUB SLT ISZERO PUSH2 0x5F4 JUMPI PUSH2 0x5F3 PUSH2 0x3AF JUMP JUMPDEST JUMPDEST PUSH0 DUP3 ADD MLOAD PUSH8 0xFFFFFFFFFFFFFFFF DUP2 GT ISZERO PUSH2 0x611 JUMPI PUSH2 0x610 PUSH2 0x3B3 JUMP JUMPDEST JUMPDEST PUSH2 0x61D DUP5 DUP3 DUP6 ADD PUSH2 0x5B2 JUMP JUMPDEST SWAP2 POP POP SWAP3 SWAP2 POP POP JUMP JUMPDEST PUSH0 DUP3 DUP3 MSTORE PUSH1 0x20 DUP3 ADD SWAP1 POP SWAP3 SWAP2 POP POP JUMP JUMPDEST PUSH32 0x636F756C646E27742066657463682065787465726E616C2063616C6C20646174 PUSH0 DUP3 ADD MSTORE PUSH32 0x6100000000000000000000000000000000000000000000000000000000000000 PUSH1 0x20 DUP3 ADD MSTORE POP JUMP JUMPDEST PUSH0 PUSH2 0x690 PUSH1 0x21 DUP4 PUSH2 0x626 JUMP JUMPDEST SWAP2 POP PUSH2 0x69B DUP3 PUSH2 0x636 JUMP JUMPDEST PUSH1 0x40 DUP3 ADD SWAP1 POP SWAP2 SWAP1 POP JUMP JUMPDEST PUSH0 PUSH1 0x20 DUP3 ADD SWAP1 POP DUP2 DUP2 SUB PUSH0 DUP4 ADD MSTORE PUSH2 0x6BD DUP2 PUSH2 0x684 JUMP JUMPDEST SWAP1 POP SWAP2 SWAP1 POP JUMP JUMPDEST PUSH0 DUP2 MLOAD SWAP1 POP SWAP2 SWAP1 POP JUMP JUMPDEST PUSH0 PUSH2 0x6D8 DUP3 PUSH2 0x6C4 JUMP JUMPDEST PUSH2 0x6E2 DUP2 DUP6 PUSH2 0x626 JUMP JUMPDEST SWAP4 POP PUSH2 0x6F2 DUP2 DUP6 PUSH1 0x20 DUP7 ADD PUSH2 0x563 JUMP JUMPDEST PUSH2 0x6FB DUP2 PUSH2 0x4AB JUMP JUMPDEST DUP5 ADD SWAP2 POP POP SWAP3 SWAP2 POP POP JUMP JUMPDEST PUSH0 PUSH1 0x20 DUP3 ADD SWAP1 POP DUP2 DUP2 SUB PUSH0 DUP4 ADD MSTORE PUSH2 0x71E DUP2 DUP5 PUSH2 0x6CE JUMP JUMPDEST SWAP1 POP SWAP3 SWAP2 POP POP JUMP JUMPDEST PUSH2 0x72F DUP2 PUSH2 0x415 JUMP JUMPDEST DUP3 MSTORE POP POP JUMP JUMPDEST PUSH0 PUSH1 0x20 DUP3 ADD SWAP1 POP PUSH2 0x748 PUSH0 DUP4 ADD DUP5 PUSH2 0x726 JUMP JUMPDEST SWAP3 SWAP2 POP POP JUMP JUMPDEST PUSH0 DUP2 PUSH1 0xE0 SHR SWAP1 POP SWAP2 SWAP1 POP JUMP JUMPDEST PUSH0 PUSH1 0x3 RETURNDATASIZE GT ISZERO PUSH2 0x776 JUMPI PUSH1 0x4 PUSH0 DUP1 RETURNDATACOPY PUSH2 0x773 PUSH0 MLOAD PUSH2 0x74E JUMP JUMPDEST SWAP1 POP JUMPDEST SWAP1 JUMP JUMPDEST PUSH0 PUSH1 0x44 RETURNDATASIZE LT PUSH2 0x805 JUMPI PUSH2 0x78A PUSH2 0x3A6 JUMP JUMPDEST PUSH1 0x4 RETURNDATASIZE SUB PUSH1 0x4 DUP3 RETURNDATACOPY DUP1 MLOAD RETURNDATASIZE PUSH1 0x24 DUP3 ADD GT PUSH8 0xFFFFFFFFFFFFFFFF DUP3 GT OR ISZERO PUSH2 0x7B2 JUMPI POP POP PUSH2 0x805 JUMP JUMPDEST DUP1 DUP3 ADD DUP1 MLOAD PUSH8 0xFFFFFFFFFFFFFFFF DUP2 GT ISZERO PUSH2 0x7D0 JUMPI POP POP POP POP PUSH2 0x805 JUMP JUMPDEST DUP1 PUSH1 0x20 DUP4 ADD ADD PUSH1 0x4 RETURNDATASIZE SUB DUP6 ADD DUP2 GT ISZERO PUSH2 0x7ED JUMPI POP POP POP POP POP PUSH2 0x805 JUMP JUMPDEST PUSH2 0x7FC DUP3 PUSH1 0x20 ADD DUP6 ADD DUP7 PUSH2 0x4E8 JUMP JUMPDEST DUP3 SWAP6 POP POP POP POP POP POP JUMPDEST SWAP1 JUMP JUMPDEST PUSH0 DUP2 MLOAD SWAP1 POP SWAP2 SWAP1 POP JUMP JUMPDEST PUSH0 DUP3 DUP3 MSTORE PUSH1 0x20 DUP3 ADD SWAP1 POP SWAP3 SWAP2 POP POP JUMP JUMPDEST PUSH0 PUSH2 0x82C DUP3 PUSH2 0x808 JUMP JUMPDEST PUSH2 0x836 DUP2 DUP6 PUSH2 0x812 JUMP JUMPDEST SWAP4 POP PUSH2 0x846 DUP2 DUP6 PUSH1 0x20 DUP7 ADD PUSH2 0x563 JUMP JUMPDEST PUSH2 0x84F DUP2 PUSH2 0x4AB JUMP JUMPDEST DUP5 ADD SWAP2 POP POP SWAP3 SWAP2 POP POP JUMP JUMPDEST PUSH0 PUSH1 0x20 DUP3 ADD SWAP1 POP DUP2 DUP2 SUB PUSH0 DUP4 ADD MSTORE PUSH2 0x872 DUP2 DUP5 PUSH2 0x822 JUMP JUMPDEST SWAP1 POP SWAP3 SWAP2 POP POP JUMP JUMPDEST PUSH32 0x74686520616464726573732069732076616C6964000000000000000000000000 PUSH0 DUP3 ADD MSTORE POP JUMP JUMPDEST PUSH0 PUSH2 0x8AE PUSH1 0x14 DUP4 PUSH2 0x626 JUMP JUMPDEST SWAP2 POP PUSH2 0x8B9 DUP3 PUSH2 0x87A JUMP JUMPDEST PUSH1 0x20 DUP3 ADD SWAP1 POP SWAP2 SWAP1 POP JUMP JUMPDEST PUSH0 PUSH1 0x20 DUP3 ADD SWAP1 POP DUP2 DUP2 SUB PUSH0 DUP4 ADD MSTORE PUSH2 0x8DB DUP2 PUSH2 0x8A2 JUMP JUMPDEST SWAP1 POP SWAP2 SWAP1 POP JUMP INVALID PUSH1 0x80 PUSH1 0x40 MSTORE CALLVALUE DUP1 ISZERO PUSH2 0xF JUMPI PUSH0 DUP1 REVERT JUMPDEST POP PUSH1 0x40 MLOAD PUSH2 0x56E CODESIZE SUB DUP1 PUSH2 0x56E DUP4 CODECOPY DUP2 DUP2 ADD PUSH1 0x40 MSTORE DUP2 ADD SWAP1 PUSH2 0x31 SWAP2 SWAP1 PUSH2 0x17F JUMP JUMPDEST PUSH0 PUSH20 0xFFFFFFFFFFFFFFFFFFFFFFFFFFFFFFFFFFFFFFFF AND DUP2 PUSH20 0xFFFFFFFFFFFFFFFFFFFFFFFFFFFFFFFFFFFFFFFF AND SUB PUSH2 0x9F JUMPI PUSH1 0x40 MLOAD PUSH32 0x8C379A000000000000000000000000000000000000000000000000000000000 DUP2 MSTORE PUSH1 0x4 ADD PUSH2 0x96 SWAP1 PUSH2 0x204 JUMP JUMPDEST PUSH1 0x40 MLOAD DUP1 SWAP2 SUB SWAP1 REVERT JUMPDEST PUSH1 0x1 PUSH20 0xFFFFFFFFFFFFFFFFFFFFFFFFFFFFFFFFFFFFFFFF AND DUP2 PUSH20 0xFFFFFFFFFFFFFFFFFFFFFFFFFFFFFFFFFFFFFFFF AND SUB PUSH2 0xDC JUMPI PUSH2 0xDB PUSH2 0x222 JUMP JUMPDEST JUMPDEST DUP1 PUSH0 DUP1 PUSH2 0x100 EXP DUP2 SLOAD DUP2 PUSH20 0xFFFFFFFFFFFFFFFFFFFFFFFFFFFFFFFFFFFFFFFF MUL NOT AND SWAP1 DUP4 PUSH20 0xFFFFFFFFFFFFFFFFFFFFFFFFFFFFFFFFFFFFFFFF AND MUL OR SWAP1 SSTORE POP POP PUSH2 0x24F JUMP JUMPDEST PUSH0 DUP1 REVERT JUMPDEST PUSH0 PUSH20 0xFFFFFFFFFFFFFFFFFFFFFFFFFFFFFFFFFFFFFFFF DUP3 AND SWAP1 POP SWAP2 SWAP1 POP JUMP JUMPDEST PUSH0 PUSH2 0x14E DUP3 PUSH2 0x125 JUMP JUMPDEST SWAP1 POP SWAP2 SWAP1 POP JUMP JUMPDEST PUSH2 0x15E DUP2 PUSH2 0x144 JUMP JUMPDEST DUP2 EQ PUSH2 0x168 JUMPI PUSH0 DUP1 REVERT JUMPDEST POP JUMP JUMPDEST PUSH0 DUP2 MLOAD SWAP1 POP PUSH2 0x179 DUP2 PUSH2 0x155 JUMP JUMPDEST SWAP3 SWAP2 POP POP JUMP JUMPDEST PUSH0 PUSH1 0x20 DUP3 DUP5 SUB SLT ISZERO PUSH2 0x194 JUMPI PUSH2 0x193 PUSH2 0x121 JUMP JUMPDEST JUMPDEST PUSH0 PUSH2 0x1A1 DUP5 DUP3 DUP6 ADD PUSH2 0x16B JUMP JUMPDEST SWAP2 POP POP SWAP3 SWAP2 POP POP JUMP JUMPDEST PUSH0 DUP3 DUP3 MSTORE PUSH1 0x20 DUP3 ADD SWAP1 POP SWAP3 SWAP2 POP POP JUMP JUMPDEST PUSH32 0x6E6F7420612076616C6964206164647265737300000000000000000000000000 PUSH0 DUP3 ADD MSTORE POP JUMP JUMPDEST PUSH0 PUSH2 0x1EE PUSH1 0x13 DUP4 PUSH2 0x1AA JUMP JUMPDEST SWAP2 POP PUSH2 0x1F9 DUP3 PUSH2 0x1BA JUMP JUMPDEST PUSH1 0x20 DUP3 ADD SWAP1 POP SWAP2 SWAP1 POP JUMP JUMPDEST PUSH0 PUSH1 0x20 DUP3 ADD SWAP1 POP DUP2 DUP2 SUB PUSH0 DUP4 ADD MSTORE PUSH2 0x21B DUP2 PUSH2 0x1E2 JUMP JUMPDEST SWAP1 POP SWAP2 SWAP1 POP JUMP JUMPDEST PUSH32 0x4E487B7100000000000000000000000000000000000000000000000000000000 PUSH0 MSTORE PUSH1 0x1 PUSH1 0x4 MSTORE PUSH1 0x24 PUSH0 REVERT JUMPDEST PUSH2 0x312 DUP1 PUSH2 0x25C PUSH0 CODECOPY PUSH0 RETURN INVALID PUSH1 0x80 PUSH1 0x40 MSTORE CALLVALUE DUP1 ISZERO PUSH2 0xF JUMPI PUSH0 DUP1 REVERT JUMPDEST POP PUSH1 0x4 CALLDATASIZE LT PUSH2 0x34 JUMPI PUSH0 CALLDATALOAD PUSH1 0xE0 SHR DUP1 PUSH4 0x50628C96 EQ PUSH2 0x38 JUMPI DUP1 PUSH4 0x8DA5CB5B EQ PUSH2 0x68 JUMPI JUMPDEST PUSH0 DUP1 REVERT JUMPDEST PUSH2 0x52 PUSH1 0x4 DUP1 CALLDATASIZE SUB DUP2 ADD SWAP1 PUSH2 0x4D SWAP2 SWAP1 PUSH2 0x161 JUMP JUMPDEST PUSH2 0x86 JUMP JUMPDEST PUSH1 0x40 MLOAD PUSH2 0x5F SWAP2 SWAP1 PUSH2 0x1FC JUMP JUMPDEST PUSH1 0x40 MLOAD DUP1 SWAP2 SUB SWAP1 RETURN JUMPDEST PUSH2 0x70 PUSH2 0x107 JUMP JUMPDEST PUSH1 0x40 MLOAD PUSH2 0x7D SWAP2 SWAP1 PUSH2 0x25B JUMP JUMPDEST PUSH1 0x40 MLOAD DUP1 SWAP2 SUB SWAP1 RETURN JUMPDEST PUSH1 0x60 PUSH0 DUP3 SUB PUSH2 0xCA JUMPI PUSH1 0x40 MLOAD PUSH32 0x8C379A000000000000000000000000000000000000000000000000000000000 DUP2 MSTORE PUSH1 0x4 ADD PUSH2 0xC1 SWAP1 PUSH2 0x2BE JUMP JUMPDEST PUSH1 0x40 MLOAD DUP1 SWAP2 SUB SWAP1 REVERT JUMPDEST PUSH1 0x40 MLOAD DUP1 PUSH1 0x40 ADD PUSH1 0x40 MSTORE DUP1 PUSH1 0x11 DUP2 MSTORE PUSH1 0x20 ADD PUSH32 0x4E756D62657220697320636F7272656374000000000000000000000000000000 DUP2 MSTORE POP SWAP1 POP SWAP2 SWAP1 POP JUMP JUMPDEST PUSH0 DUP1 SLOAD SWAP1 PUSH2 0x100 EXP SWAP1 DIV PUSH20 0xFFFFFFFFFFFFFFFFFFFFFFFFFFFFFFFFFFFFFFFF AND DUP2 JUMP JUMPDEST PUSH0 DUP1 REVERT JUMPDEST PUSH0 DUP2 SWAP1 POP SWAP2 SWAP1 POP JUMP JUMPDEST PUSH2 0x140 DUP2 PUSH2 0x12E JUMP JUMPDEST DUP2 EQ PUSH2 0x14A JUMPI PUSH0 DUP1 REVERT JUMPDEST POP JUMP JUMPDEST PUSH0 DUP2 CALLDATALOAD SWAP1 POP PUSH2 0x15B DUP2 PUSH2 0x137 JUMP JUMPDEST SWAP3 SWAP2 POP POP JUMP JUMPDEST PUSH0 PUSH1 0x20 DUP3 DUP5 SUB SLT ISZERO PUSH2 0x176 JUMPI PUSH2 0x175 PUSH2 0x12A JUMP JUMPDEST JUMPDEST PUSH0 PUSH2 0x183 DUP5 DUP3 DUP6 ADD PUSH2 0x14D JUMP JUMPDEST SWAP2 POP POP SWAP3 SWAP2 POP POP JUMP JUMPDEST PUSH0 DUP2 MLOAD SWAP1 POP SWAP2 SWAP1 POP JUMP JUMPDEST PUSH0 DUP3 DUP3 MSTORE PUSH1 0x20 DUP3 ADD SWAP1 POP SWAP3 SWAP2 POP POP JUMP JUMPDEST DUP3 DUP2 DUP4 MCOPY PUSH0 DUP4 DUP4 ADD MSTORE POP POP POP JUMP JUMPDEST PUSH0 PUSH1 0x1F NOT PUSH1 0x1F DUP4 ADD AND SWAP1 POP SWAP2 SWAP1 POP JUMP JUMPDEST PUSH0 PUSH2 0x1CE DUP3 PUSH2 0x18C JUMP JUMPDEST PUSH2 0x1D8 DUP2 DUP6 PUSH2 0x196 JUMP JUMPDEST SWAP4 POP PUSH2 0x1E8 DUP2 DUP6 PUSH1 0x20 DUP7 ADD PUSH2 0x1A6 JUMP JUMPDEST PUSH2 0x1F1 DUP2 PUSH2 0x1B4 JUMP JUMPDEST DUP5 ADD SWAP2 POP POP SWAP3 SWAP2 POP POP JUMP JUMPDEST PUSH0 PUSH1 0x20 DUP3 ADD SWAP1 POP DUP2 DUP2 SUB PUSH0 DUP4 ADD MSTORE PUSH2 0x214 DUP2 DUP5 PUSH2 0x1C4 JUMP JUMPDEST SWAP1 POP SWAP3 SWAP2 POP POP JUMP JUMPDEST PUSH0 PUSH20 0xFFFFFFFFFFFFFFFFFFFFFFFFFFFFFFFFFFFFFFFF DUP3 AND SWAP1 POP SWAP2 SWAP1 POP JUMP JUMPDEST PUSH0 PUSH2 0x245 DUP3 PUSH2 0x21C JUMP JUMPDEST SWAP1 POP SWAP2 SWAP1 POP JUMP JUMPDEST PUSH2 0x255 DUP2 PUSH2 0x23B JUMP JUMPDEST DUP3 MSTORE POP POP JUMP JUMPDEST PUSH0 PUSH1 0x20 DUP3 ADD SWAP1 POP PUSH2 0x26E PUSH0 DUP4 ADD DUP5 PUSH2 0x24C JUMP JUMPDEST SWAP3 SWAP2 POP POP JUMP JUMPDEST PUSH32 0x6E756D626572206D757374206E6F74206265207A65726F000000000000000000 PUSH0 DUP3 ADD MSTORE POP JUMP JUMPDEST PUSH0 PUSH2 0x2A8 PUSH1 0x17 DUP4 PUSH2 0x196 JUMP JUMPDEST SWAP2 POP PUSH2 0x2B3 DUP3 PUSH2 0x274 JUMP JUMPDEST PUSH1 0x20 DUP3 ADD SWAP1 POP SWAP2 SWAP1 POP JUMP JUMPDEST PUSH0 PUSH1 0x20 DUP3 ADD SWAP1 POP DUP2 DUP2 SUB PUSH0 DUP4 ADD MSTORE PUSH2 0x2D5 DUP2 PUSH2 0x29C JUMP JUMPDEST SWAP1 POP SWAP2 SWAP1 POP JUMP INVALID LOG2 PUSH5 0x6970667358 0x22 SLT KECCAK256 0xB3 ADDRESS 0x29 0xAF CALLER DELEGATECALL PUSH3 0x992C6D CODECOPY SWAP13 PUSH15 0xE1604B8266DA0561D96351D8D16BB3 GT 0xC PUSH26 0x4864736F6C634300081A0033A26469706673582212204D4BC90B SELFBALANCE 0xD3 DUP3 SWAP5 0xE6 DUP10 0xDC 0x26 JUMPI EXTCODEHASH 0xDB 0xCA 0xC9 PUSH31 0x14838A8F2E1A0AD1C98086D57DB464736F6C634300081A0033608060405234 DUP1 ISZERO PUSH2 0xF JUMPI PUSH0 DUP1 REVERT JUMPDEST POP PUSH1 0x40 MLOAD PUSH2 0x56E CODESIZE SUB DUP1 PUSH2 0x56E DUP4 CODECOPY DUP2 DUP2 ADD PUSH1 0x40 MSTORE DUP2 ADD SWAP1 PUSH2 0x31 SWAP2 SWAP1 PUSH2 0x17F JUMP JUMPDEST PUSH0 PUSH20 0xFFFFFFFFFFFFFFFFFFFFFFFFFFFFFFFFFFFFFFFF AND DUP2 PUSH20 0xFFFFFFFFFFFFFFFFFFFFFFFFFFFFFFFFFFFFFFFF AND SUB PUSH2 0x9F JUMPI PUSH1 0x40 MLOAD PUSH32 0x8C379A000000000000000000000000000000000000000000000000000000000 DUP2 MSTORE PUSH1 0x4 ADD PUSH2 0x96 SWAP1 PUSH2 0x204 JUMP JUMPDEST PUSH1 0x40 MLOAD DUP1 SWAP2 SUB SWAP1 REVERT JUMPDEST PUSH1 0x1 PUSH20 0xFFFFFFFFFFFFFFFFFFFFFFFFFFFFFFFFFFFFFFFF AND DUP2 PUSH20 0xFFFFFFFFFFFFFFFFFFFFFFFFFFFFFFFFFFFFFFFF AND SUB PUSH2 0xDC JUMPI PUSH2 0xDB PUSH2 0x222 JUMP JUMPDEST JUMPDEST DUP1 PUSH0 DUP1 PUSH2 0x100 EXP DUP2 SLOAD DUP2 PUSH20 0xFFFFFFFFFFFFFFFFFFFFFFFFFFFFFFFFFFFFFFFF MUL NOT AND SWAP1 DUP4 PUSH20 0xFFFFFFFFFFFFFFFFFFFFFFFFFFFFFFFFFFFFFFFF AND MUL OR SWAP1 SSTORE POP POP PUSH2 0x24F JUMP JUMPDEST PUSH0 DUP1 REVERT JUMPDEST PUSH0 PUSH20 0xFFFFFFFFFFFFFFFFFFFFFFFFFFFFFFFFFFFFFFFF DUP3 AND SWAP1 POP SWAP2 SWAP1 POP JUMP JUMPDEST PUSH0 PUSH2 0x14E DUP3 PUSH2 0x125 JUMP JUMPDEST SWAP1 POP SWAP2 SWAP1 POP JUMP JUMPDEST PUSH2 0x15E DUP2 PUSH2 0x144 JUMP JUMPDEST DUP2 EQ PUSH2 0x168 JUMPI PUSH0 DUP1 REVERT JUMPDEST POP JUMP JUMPDEST PUSH0 DUP2 MLOAD SWAP1 POP PUSH2 0x179 DUP2 PUSH2 0x155 JUMP JUMPDEST SWAP3 SWAP2 POP POP JUMP JUMPDEST PUSH0 PUSH1 0x20 DUP3 DUP5 SUB SLT ISZERO PUSH2 0x194 JUMPI PUSH2 0x193 PUSH2 0x121 JUMP JUMPDEST JUMPDEST PUSH0 PUSH2 0x1A1 DUP5 DUP3 DUP6 ADD PUSH2 0x16B JUMP JUMPDEST SWAP2 POP POP SWAP3 SWAP2 POP POP JUMP JUMPDEST PUSH0 DUP3 DUP3 MSTORE PUSH1 0x20 DUP3 ADD SWAP1 POP SWAP3 SWAP2 POP POP JUMP JUMPDEST PUSH32 0x6E6F7420612076616C6964206164647265737300000000000000000000000000 PUSH0 DUP3 ADD MSTORE POP JUMP JUMPDEST PUSH0 PUSH2 0x1EE PUSH1 0x13 DUP4 PUSH2 0x1AA JUMP JUMPDEST SWAP2 POP PUSH2 0x1F9 DUP3 PUSH2 0x1BA JUMP JUMPDEST PUSH1 0x20 DUP3 ADD SWAP1 POP SWAP2 SWAP1 POP JUMP JUMPDEST PUSH0 PUSH1 0x20 DUP3 ADD SWAP1 POP DUP2 DUP2 SUB PUSH0 DUP4 ADD MSTORE PUSH2 0x21B DUP2 PUSH2 0x1E2 JUMP JUMPDEST SWAP1 POP SWAP2 SWAP1 POP JUMP JUMPDEST PUSH32 0x4E487B7100000000000000000000000000000000000000000000000000000000 PUSH0 MSTORE PUSH1 0x1 PUSH1 0x4 MSTORE PUSH1 0x24 PUSH0 REVERT JUMPDEST PUSH2 0x312 DUP1 PUSH2 0x25C PUSH0 CODECOPY PUSH0 RETURN INVALID PUSH1 0x80 PUSH1 0x40 MSTORE CALLVALUE DUP1 ISZERO PUSH2 0xF JUMPI PUSH0 DUP1 REVERT JUMPDEST POP PUSH1 0x4 CALLDATASIZE LT PUSH2 0x34 JUMPI PUSH0 CALLDATALOAD PUSH1 0xE0 SHR DUP1 PUSH4 0x50628C96 EQ PUSH2 0x38 JUMPI DUP1 PUSH4 0x8DA5CB5B EQ PUSH2 0x68 JUMPI JUMPDEST PUSH0 DUP1 REVERT JUMPDEST PUSH2 0x52 PUSH1 0x4 DUP1 CALLDATASIZE SUB DUP2 ADD SWAP1 PUSH2 0x4D SWAP2 SWAP1 PUSH2 0x161 JUMP JUMPDEST PUSH2 0x86 JUMP JUMPDEST PUSH1 0x40 MLOAD PUSH2 0x5F SWAP2 SWAP1 PUSH2 0x1FC JUMP JUMPDEST PUSH1 0x40 MLOAD DUP1 SWAP2 SUB SWAP1 RETURN JUMPDEST PUSH2 0x70 PUSH2 0x107 JUMP JUMPDEST PUSH1 0x40 MLOAD PUSH2 0x7D SWAP2 SWAP1 PUSH2 0x25B JUMP JUMPDEST PUSH1 0x40 MLOAD DUP1 SWAP2 SUB SWAP1 RETURN JUMPDEST PUSH1 0x60 PUSH0 DUP3 SUB PUSH2 0xCA JUMPI PUSH1 0x40 MLOAD PUSH32 0x8C379A000000000000000000000000000000000000000000000000000000000 DUP2 MSTORE PUSH1 0x4 ADD PUSH2 0xC1 SWAP1 PUSH2 0x2BE JUMP JUMPDEST PUSH1 0x40 MLOAD DUP1 SWAP2 SUB SWAP1 REVERT JUMPDEST PUSH1 0x40 MLOAD DUP1 PUSH1 0x40 ADD PUSH1 0x40 MSTORE DUP1 PUSH1 0x11 DUP2 MSTORE PUSH1 0x20 ADD PUSH32 0x4E756D62657220697320636F7272656374000000000000000000000000000000 DUP2 MSTORE POP SWAP1 POP SWAP2 SWAP1 POP JUMP JUMPDEST PUSH0 DUP1 SLOAD SWAP1 PUSH2 0x100 EXP SWAP1 DIV PUSH20 0xFFFFFFFFFFFFFFFFFFFFFFFFFFFFFFFFFFFFFFFF AND DUP2 JUMP JUMPDEST PUSH0 DUP1 REVERT JUMPDEST PUSH0 DUP2 SWAP1 POP SWAP2 SWAP1 POP JUMP JUMPDEST PUSH2 0x140 DUP2 PUSH2 0x12E JUMP JUMPDEST DUP2 EQ PUSH2 0x14A JUMPI PUSH0 DUP1 REVERT JUMPDEST POP JUMP JUMPDEST PUSH0 DUP2 CALLDATALOAD SWAP1 POP PUSH2 0x15B DUP2 PUSH2 0x137 JUMP JUMPDEST SWAP3 SWAP2 POP POP JUMP JUMPDEST PUSH0 PUSH1 0x20 DUP3 DUP5 SUB SLT ISZERO PUSH2 0x176 JUMPI PUSH2 0x175 PUSH2 0x12A JUMP JUMPDEST JUMPDEST PUSH0 PUSH2 0x183 DUP5 DUP3 DUP6 ADD PUSH2 0x14D JUMP JUMPDEST SWAP2 POP POP SWAP3 SWAP2 POP POP JUMP JUMPDEST PUSH0 DUP2 MLOAD SWAP1 POP SWAP2 SWAP1 POP JUMP JUMPDEST PUSH0 DUP3 DUP3 MSTORE PUSH1 0x20 DUP3 ADD SWAP1 POP SWAP3 SWAP2 POP POP JUMP JUMPDEST DUP3 DUP2 DUP4 MCOPY PUSH0 DUP4 DUP4 ADD MSTORE POP POP POP JUMP JUMPDEST PUSH0 PUSH1 0x1F NOT PUSH1 0x1F DUP4 ADD AND SWAP1 POP SWAP2 SWAP1 POP JUMP JUMPDEST PUSH0 PUSH2 0x1CE DUP3 PUSH2 0x18C JUMP JUMPDEST PUSH2 0x1D8 DUP2 DUP6 PUSH2 0x196 JUMP JUMPDEST SWAP4 POP PUSH2 0x1E8 DUP2 DUP6 PUSH1 0x20 DUP7 ADD PUSH2 0x1A6 JUMP JUMPDEST PUSH2 0x1F1 DUP2 PUSH2 0x1B4 JUMP JUMPDEST DUP5 ADD SWAP2 POP POP SWAP3 SWAP2 POP POP JUMP JUMPDEST PUSH0 PUSH1 0x20 DUP3 ADD SWAP1 POP DUP2 DUP2 SUB PUSH0 DUP4 ADD MSTORE PUSH2 0x214 DUP2 DUP5 PUSH2 0x1C4 JUMP JUMPDEST SWAP1 POP SWAP3 SWAP2 POP POP JUMP JUMPDEST PUSH0 PUSH20 0xFFFFFFFFFFFFFFFFFFFFFFFFFFFFFFFFFFFFFFFF DUP3 AND SWAP1 POP SWAP2 SWAP1 POP JUMP JUMPDEST PUSH0 PUSH2 0x245 DUP3 PUSH2 0x21C JUMP JUMPDEST SWAP1 POP SWAP2 SWAP1 POP JUMP JUMPDEST PUSH2 0x255 DUP2 PUSH2 0x23B JUMP JUMPDEST DUP3 MSTORE POP POP JUMP JUMPDEST PUSH0 PUSH1 0x20 DUP3 ADD SWAP1 POP PUSH2 0x26E PUSH0 DUP4 ADD DUP5 PUSH2 0x24C JUMP JUMPDEST SWAP3 SWAP2 POP POP JUMP JUMPDEST PUSH32 0x6E756D626572206D757374206E6F74206265207A65726F000000000000000000 PUSH0 DUP3 ADD MSTORE POP JUMP JUMPDEST PUSH0 PUSH2 0x2A8 PUSH1 0x17 DUP4 PUSH2 0x196 JUMP JUMPDEST SWAP2 POP PUSH2 0x2B3 DUP3 PUSH2 0x274 JUMP JUMPDEST PUSH1 0x20 DUP3 ADD SWAP1 POP SWAP2 SWAP1 POP JUMP JUMPDEST PUSH0 PUSH1 0x20 DUP3 ADD SWAP1 POP DUP2 DUP2 SUB PUSH0 DUP4 ADD MSTORE PUSH2 0x2D5 DUP2 PUSH2 0x29C JUMP JUMPDEST SWAP1 POP SWAP2 SWAP1 POP JUMP INVALID LOG2 PUSH5 0x6970667358 0x22 SLT KECCAK256 0xB3 ADDRESS 0x29 0xAF CALLER DELEGATECALL PUSH3 0x992C6D CODECOPY SWAP13 PUSH15 0xE1604B8266DA0561D96351D8D16BB3 GT 0xC PUSH26 0x4864736F6C634300081A00330000000000000000000000000000 "
				},
				"gasEstimates": {
					"creation": {
						"codeDepositCost": "743600",
						"executionCost": "infinite",
						"totalCost": "infinite"
					},
					"external": {
						"a()": "infinite",
						"tryAndCatchAddress(address)": "infinite",
						"tryAndCatchNum(uint256)": "infinite"
					}
				},
				"methodIdentifiers": {
					"a()": "0dbe671f",
					"tryAndCatchAddress(address)": "8b309ccf",
					"tryAndCatchNum(uint256)": "7a3689be"
				}
			},
			"storageLayout": {
				"storage": [
					{
						"astId": 61,
						"contract": "Learning Pth/TryCatchEX.sol:B",
						"label": "a",
						"offset": 0,
						"slot": "0",
						"type": "t_contract(A)50"
					}
				],
				"types": {
					"t_contract(A)50": {
						"encoding": "inplace",
						"label": "contract A",
						"numberOfBytes": "20"
					}
				}
			},
			"userdoc": {
				"kind": "user",
				"methods": {},
				"version": 1
			}
		}
	}
}