{
	"Learning Pth/Shoe_Brand_Project.sol": {
		"Web3_Shoes": {
			"abi": [
				{
					"anonymous": false,
					"inputs": [
						{
							"indexed": false,
							"internalType": "uint256",
							"name": "shoeId",
							"type": "uint256"
						},
						{
							"indexed": false,
							"internalType": "string",
							"name": "text",
							"type": "string"
						}
					],
					"name": "shoeSold",
					"type": "event"
				},
				{
					"inputs": [
						{
							"internalType": "uint256",
							"name": "_shoeId",
							"type": "uint256"
						}
					],
					"name": "buyShoe",
					"outputs": [],
					"stateMutability": "payable",
					"type": "function"
				},
				{
					"inputs": [
						{
							"internalType": "string",
							"name": "_brandName",
							"type": "string"
						},
						{
							"internalType": "string",
							"name": "_shoeType",
							"type": "string"
						},
						{
							"internalType": "string",
							"name": "_description",
							"type": "string"
						},
						{
							"internalType": "string",
							"name": "_size",
							"type": "string"
						},
						{
							"internalType": "uint256",
							"name": "_price",
							"type": "uint256"
						},
						{
							"internalType": "uint256",
							"name": "_shoeId",
							"type": "uint256"
						}
					],
					"name": "listShoes",
					"outputs": [],
					"stateMutability": "nonpayable",
					"type": "function"
				},
				{
					"inputs": [
						{
							"internalType": "uint256",
							"name": "",
							"type": "uint256"
						}
					],
					"name": "shoe_list",
					"outputs": [
						{
							"internalType": "uint256",
							"name": "",
							"type": "uint256"
						}
					],
					"stateMutability": "view",
					"type": "function"
				},
				{
					"inputs": [
						{
							"internalType": "uint256",
							"name": "",
							"type": "uint256"
						}
					],
					"name": "shoes",
					"outputs": [
						{
							"internalType": "string",
							"name": "brandName",
							"type": "string"
						},
						{
							"internalType": "string",
							"name": "shoeType",
							"type": "string"
						},
						{
							"internalType": "string",
							"name": "description",
							"type": "string"
						},
						{
							"internalType": "uint256",
							"name": "price",
							"type": "uint256"
						},
						{
							"internalType": "bool",
							"name": "forSale",
							"type": "bool"
						},
						{
							"internalType": "string",
							"name": "size",
							"type": "string"
						},
						{
							"internalType": "address",
							"name": "owner",
							"type": "address"
						}
					],
					"stateMutability": "view",
					"type": "function"
				}
			],
			"devdoc": {
				"kind": "dev",
				"methods": {},
				"version": 1
			},
			"evm": {
				"assembly": "    /* \"Learning Pth/Shoe_Brand_Project.sol\":61:1443  contract Web3_Shoes {... */\n  mstore(0x40, 0x80)\n  callvalue\n  dup1\n  iszero\n  tag_1\n  jumpi\n  0x00\n  dup1\n  revert\ntag_1:\n  pop\n  dataSize(sub_0)\n  dup1\n  dataOffset(sub_0)\n  0x00\n  codecopy\n  0x00\n  return\nstop\n\nsub_0: assembly {\n        /* \"Learning Pth/Shoe_Brand_Project.sol\":61:1443  contract Web3_Shoes {... */\n      mstore(0x40, 0x80)\n      jumpi(tag_1, lt(calldatasize, 0x04))\n      shr(0xe0, calldataload(0x00))\n      dup1\n      0x1315879f\n      eq\n      tag_2\n      jumpi\n      dup1\n      0x13636548\n      eq\n      tag_3\n      jumpi\n      dup1\n      0x59f26e96\n      eq\n      tag_4\n      jumpi\n      dup1\n      0x607473cf\n      eq\n      tag_5\n      jumpi\n    tag_1:\n      0x00\n      dup1\n      revert\n        /* \"Learning Pth/Shoe_Brand_Project.sol\":928:1440  function buyShoe(uint _shoeId) public payable {... */\n    tag_2:\n      tag_6\n      0x04\n      dup1\n      calldatasize\n      sub\n      dup2\n      add\n      swap1\n      tag_7\n      swap2\n      swap1\n      tag_8\n      jump\t// in\n    tag_7:\n      tag_9\n      jump\t// in\n    tag_6:\n      stop\n        /* \"Learning Pth/Shoe_Brand_Project.sol\":335:358  uint[] public shoe_list */\n    tag_3:\n      callvalue\n      dup1\n      iszero\n      tag_10\n      jumpi\n      0x00\n      dup1\n      revert\n    tag_10:\n      pop\n      tag_11\n      0x04\n      dup1\n      calldatasize\n      sub\n      dup2\n      add\n      swap1\n      tag_12\n      swap2\n      swap1\n      tag_8\n      jump\t// in\n    tag_12:\n      tag_13\n      jump\t// in\n    tag_11:\n      mload(0x40)\n      tag_14\n      swap2\n      swap1\n      tag_15\n      jump\t// in\n    tag_14:\n      mload(0x40)\n      dup1\n      swap2\n      sub\n      swap1\n      return\n        /* \"Learning Pth/Shoe_Brand_Project.sol\":414:920  function listShoes(string memory _brandName, string memory _shoeType, string memory _description, ... */\n    tag_4:\n      callvalue\n      dup1\n      iszero\n      tag_16\n      jumpi\n      0x00\n      dup1\n      revert\n    tag_16:\n      pop\n      tag_17\n      0x04\n      dup1\n      calldatasize\n      sub\n      dup2\n      add\n      swap1\n      tag_18\n      swap2\n      swap1\n      tag_19\n      jump\t// in\n    tag_18:\n      tag_20\n      jump\t// in\n    tag_17:\n      stop\n        /* \"Learning Pth/Shoe_Brand_Project.sol\":293:328  mapping (uint => Shoe) public shoes */\n    tag_5:\n      callvalue\n      dup1\n      iszero\n      tag_21\n      jumpi\n      0x00\n      dup1\n      revert\n    tag_21:\n      pop\n      tag_22\n      0x04\n      dup1\n      calldatasize\n      sub\n      dup2\n      add\n      swap1\n      tag_23\n      swap2\n      swap1\n      tag_8\n      jump\t// in\n    tag_23:\n      tag_24\n      jump\t// in\n    tag_22:\n      mload(0x40)\n      tag_25\n      swap8\n      swap7\n      swap6\n      swap5\n      swap4\n      swap3\n      swap2\n      swap1\n      tag_26\n      jump\t// in\n    tag_25:\n      mload(0x40)\n      dup1\n      swap2\n      sub\n      swap1\n      return\n        /* \"Learning Pth/Shoe_Brand_Project.sol\":928:1440  function buyShoe(uint _shoeId) public payable {... */\n    tag_9:\n        /* \"Learning Pth/Shoe_Brand_Project.sol\":985:1002  Shoe storage shoe */\n      0x00\n        /* \"Learning Pth/Shoe_Brand_Project.sol\":1005:1010  shoes */\n      dup1\n        /* \"Learning Pth/Shoe_Brand_Project.sol\":1005:1019  shoes[_shoeId] */\n      0x00\n        /* \"Learning Pth/Shoe_Brand_Project.sol\":1011:1018  _shoeId */\n      dup4\n        /* \"Learning Pth/Shoe_Brand_Project.sol\":1005:1019  shoes[_shoeId] */\n      dup2\n      mstore\n      0x20\n      add\n      swap1\n      dup2\n      mstore\n      0x20\n      add\n      0x00\n      keccak256\n        /* \"Learning Pth/Shoe_Brand_Project.sol\":985:1019  Shoe storage shoe = shoes[_shoeId] */\n      swap1\n      pop\n        /* \"Learning Pth/Shoe_Brand_Project.sol\":1051:1055  shoe */\n      dup1\n        /* \"Learning Pth/Shoe_Brand_Project.sol\":1051:1061  shoe.price */\n      0x03\n      add\n      sload\n        /* \"Learning Pth/Shoe_Brand_Project.sol\":1038:1047  msg.value */\n      callvalue\n        /* \"Learning Pth/Shoe_Brand_Project.sol\":1038:1061  msg.value == shoe.price */\n      eq\n        /* \"Learning Pth/Shoe_Brand_Project.sol\":1030:1084  require(msg.value == shoe.price, \"insufficient funds\") */\n      tag_28\n      jumpi\n      mload(0x40)\n      0x08c379a000000000000000000000000000000000000000000000000000000000\n      dup2\n      mstore\n      0x04\n      add\n      tag_29\n      swap1\n      tag_30\n      jump\t// in\n    tag_29:\n      mload(0x40)\n      dup1\n      swap2\n      sub\n      swap1\n      revert\n    tag_28:\n        /* \"Learning Pth/Shoe_Brand_Project.sol\":1103:1107  shoe */\n      dup1\n        /* \"Learning Pth/Shoe_Brand_Project.sol\":1103:1115  shoe.forSale */\n      0x04\n      add\n      0x00\n      swap1\n      sload\n      swap1\n      0x0100\n      exp\n      swap1\n      div\n      0xff\n      and\n        /* \"Learning Pth/Shoe_Brand_Project.sol\":1095:1141  require(shoe.forSale, \"shoe is not available\") */\n      tag_31\n      jumpi\n      mload(0x40)\n      0x08c379a000000000000000000000000000000000000000000000000000000000\n      dup2\n      mstore\n      0x04\n      add\n      tag_32\n      swap1\n      tag_33\n      jump\t// in\n    tag_32:\n      mload(0x40)\n      dup1\n      swap2\n      sub\n      swap1\n      revert\n    tag_31:\n        /* \"Learning Pth/Shoe_Brand_Project.sol\":1167:1177  msg.sender */\n      caller\n        /* \"Learning Pth/Shoe_Brand_Project.sol\":1154:1158  shoe */\n      dup2\n        /* \"Learning Pth/Shoe_Brand_Project.sol\":1154:1164  shoe.owner */\n      0x06\n      add\n      0x00\n        /* \"Learning Pth/Shoe_Brand_Project.sol\":1154:1177  shoe.owner = msg.sender */\n      0x0100\n      exp\n      dup2\n      sload\n      dup2\n      0xffffffffffffffffffffffffffffffffffffffff\n      mul\n      not\n      and\n      swap1\n      dup4\n      0xffffffffffffffffffffffffffffffffffffffff\n      and\n      mul\n      or\n      swap1\n      sstore\n      pop\n        /* \"Learning Pth/Shoe_Brand_Project.sol\":1203:1208  false */\n      0x00\n        /* \"Learning Pth/Shoe_Brand_Project.sol\":1188:1192  shoe */\n      dup2\n        /* \"Learning Pth/Shoe_Brand_Project.sol\":1188:1200  shoe.forSale */\n      0x04\n      add\n      0x00\n        /* \"Learning Pth/Shoe_Brand_Project.sol\":1188:1208  shoe.forSale = false */\n      0x0100\n      exp\n      dup2\n      sload\n      dup2\n      0xff\n      mul\n      not\n      and\n      swap1\n      dup4\n      iszero\n      iszero\n      mul\n      or\n      swap1\n      sstore\n      pop\n        /* \"Learning Pth/Shoe_Brand_Project.sol\":1222:1234  bool success */\n      0x00\n        /* \"Learning Pth/Shoe_Brand_Project.sol\":1241:1245  shoe */\n      dup2\n        /* \"Learning Pth/Shoe_Brand_Project.sol\":1241:1251  shoe.owner */\n      0x06\n      add\n      0x00\n      swap1\n      sload\n      swap1\n      0x0100\n      exp\n      swap1\n      div\n      0xffffffffffffffffffffffffffffffffffffffff\n      and\n        /* \"Learning Pth/Shoe_Brand_Project.sol\":1240:1257  (shoe.owner).call */\n      0xffffffffffffffffffffffffffffffffffffffff\n      and\n        /* \"Learning Pth/Shoe_Brand_Project.sol\":1265:1269  shoe */\n      dup3\n        /* \"Learning Pth/Shoe_Brand_Project.sol\":1265:1275  shoe.price */\n      0x03\n      add\n      sload\n        /* \"Learning Pth/Shoe_Brand_Project.sol\":1240:1280  (shoe.owner).call{value: shoe.price}(\"\") */\n      mload(0x40)\n      tag_34\n      swap1\n      tag_35\n      jump\t// in\n    tag_34:\n      0x00\n      mload(0x40)\n      dup1\n      dup4\n      sub\n      dup2\n      dup6\n      dup8\n      gas\n      call\n      swap3\n      pop\n      pop\n      pop\n      returndatasize\n      dup1\n      0x00\n      dup2\n      eq\n      tag_38\n      jumpi\n      mload(0x40)\n      swap2\n      pop\n      and(add(returndatasize, 0x3f), not(0x1f))\n      dup3\n      add\n      0x40\n      mstore\n      returndatasize\n      dup3\n      mstore\n      returndatasize\n      0x00\n      0x20\n      dup5\n      add\n      returndatacopy\n      jump(tag_37)\n    tag_38:\n      0x60\n      swap2\n      pop\n    tag_37:\n      pop\n        /* \"Learning Pth/Shoe_Brand_Project.sol\":1221:1280  (bool success, ) = (shoe.owner).call{value: shoe.price}(\"\") */\n      pop\n      swap1\n      pop\n        /* \"Learning Pth/Shoe_Brand_Project.sol\":1299:1306  success */\n      dup1\n        /* \"Learning Pth/Shoe_Brand_Project.sol\":1291:1329  require(success, \"transaction failed\") */\n      tag_39\n      jumpi\n      mload(0x40)\n      0x08c379a000000000000000000000000000000000000000000000000000000000\n      dup2\n      mstore\n      0x04\n      add\n      tag_40\n      swap1\n      tag_41\n      jump\t// in\n    tag_40:\n      mload(0x40)\n      dup1\n      swap2\n      sub\n      swap1\n      revert\n    tag_39:\n        /* \"Learning Pth/Shoe_Brand_Project.sol\":1402:1432  shoeSold(_shoeId, \"shoe sold\") */\n      0x04ba5d41600a02c8b7e1ed4632cbf95b58ad9725c5d4acffc2daa81b2298ec9b\n        /* \"Learning Pth/Shoe_Brand_Project.sol\":1411:1418  _shoeId */\n      dup4\n        /* \"Learning Pth/Shoe_Brand_Project.sol\":1402:1432  shoeSold(_shoeId, \"shoe sold\") */\n      mload(0x40)\n      tag_42\n      swap2\n      swap1\n      tag_43\n      jump\t// in\n    tag_42:\n      mload(0x40)\n      dup1\n      swap2\n      sub\n      swap1\n      log1\n        /* \"Learning Pth/Shoe_Brand_Project.sol\":974:1440  {... */\n      pop\n      pop\n        /* \"Learning Pth/Shoe_Brand_Project.sol\":928:1440  function buyShoe(uint _shoeId) public payable {... */\n      pop\n      jump\t// out\n        /* \"Learning Pth/Shoe_Brand_Project.sol\":335:358  uint[] public shoe_list */\n    tag_13:\n      0x01\n      dup2\n      dup2\n      sload\n      dup2\n      lt\n      tag_44\n      jumpi\n      0x00\n      dup1\n      revert\n    tag_44:\n      swap1\n      0x00\n      mstore\n      keccak256(0x00, 0x20)\n      add\n      0x00\n      swap2\n      pop\n      swap1\n      pop\n      sload\n      dup2\n      jump\t// out\n        /* \"Learning Pth/Shoe_Brand_Project.sol\":414:920  function listShoes(string memory _brandName, string memory _shoeType, string memory _description, ... */\n    tag_20:\n        /* \"Learning Pth/Shoe_Brand_Project.sol\":584:600  Shoe memory shoe */\n      0x00\n        /* \"Learning Pth/Shoe_Brand_Project.sol\":603:844  Shoe({... */\n      mload(0x40)\n      dup1\n      0xe0\n      add\n      0x40\n      mstore\n      dup1\n        /* \"Learning Pth/Shoe_Brand_Project.sol\":634:644  _brandName */\n      dup9\n        /* \"Learning Pth/Shoe_Brand_Project.sol\":603:844  Shoe({... */\n      dup2\n      mstore\n      0x20\n      add\n        /* \"Learning Pth/Shoe_Brand_Project.sol\":669:678  _shoeType */\n      dup8\n        /* \"Learning Pth/Shoe_Brand_Project.sol\":603:844  Shoe({... */\n      dup2\n      mstore\n      0x20\n      add\n        /* \"Learning Pth/Shoe_Brand_Project.sol\":706:718  _description */\n      dup7\n        /* \"Learning Pth/Shoe_Brand_Project.sol\":603:844  Shoe({... */\n      dup2\n      mstore\n      0x20\n      add\n        /* \"Learning Pth/Shoe_Brand_Project.sol\":740:746  _price */\n      dup5\n        /* \"Learning Pth/Shoe_Brand_Project.sol\":603:844  Shoe({... */\n      dup2\n      mstore\n      0x20\n      add\n        /* \"Learning Pth/Shoe_Brand_Project.sol\":770:774  true */\n      0x01\n        /* \"Learning Pth/Shoe_Brand_Project.sol\":603:844  Shoe({... */\n      iszero\n      iszero\n      dup2\n      mstore\n      0x20\n      add\n        /* \"Learning Pth/Shoe_Brand_Project.sol\":795:800  _size */\n      dup6\n        /* \"Learning Pth/Shoe_Brand_Project.sol\":603:844  Shoe({... */\n      dup2\n      mstore\n      0x20\n      add\n        /* \"Learning Pth/Shoe_Brand_Project.sol\":822:832  msg.sender */\n      caller\n        /* \"Learning Pth/Shoe_Brand_Project.sol\":603:844  Shoe({... */\n      0xffffffffffffffffffffffffffffffffffffffff\n      and\n      dup2\n      mstore\n      pop\n        /* \"Learning Pth/Shoe_Brand_Project.sol\":584:844  Shoe memory shoe = Shoe({... */\n      swap1\n      pop\n        /* \"Learning Pth/Shoe_Brand_Project.sol\":874:878  shoe */\n      dup1\n        /* \"Learning Pth/Shoe_Brand_Project.sol\":857:862  shoes */\n      0x00\n        /* \"Learning Pth/Shoe_Brand_Project.sol\":857:871  shoes[_shoeId] */\n      dup1\n        /* \"Learning Pth/Shoe_Brand_Project.sol\":863:870  _shoeId */\n      dup5\n        /* \"Learning Pth/Shoe_Brand_Project.sol\":857:871  shoes[_shoeId] */\n      dup2\n      mstore\n      0x20\n      add\n      swap1\n      dup2\n      mstore\n      0x20\n      add\n      0x00\n      keccak256\n        /* \"Learning Pth/Shoe_Brand_Project.sol\":857:878  shoes[_shoeId] = shoe */\n      0x00\n      dup3\n      add\n      mload\n      dup2\n      0x00\n      add\n      swap1\n      dup2\n      tag_47\n      swap2\n      swap1\n      tag_48\n      jump\t// in\n    tag_47:\n      pop\n      0x20\n      dup3\n      add\n      mload\n      dup2\n      0x01\n      add\n      swap1\n      dup2\n      tag_49\n      swap2\n      swap1\n      tag_48\n      jump\t// in\n    tag_49:\n      pop\n      0x40\n      dup3\n      add\n      mload\n      dup2\n      0x02\n      add\n      swap1\n      dup2\n      tag_50\n      swap2\n      swap1\n      tag_48\n      jump\t// in\n    tag_50:\n      pop\n      0x60\n      dup3\n      add\n      mload\n      dup2\n      0x03\n      add\n      sstore\n      0x80\n      dup3\n      add\n      mload\n      dup2\n      0x04\n      add\n      exp(0x0100, 0x00)\n      dup2\n      sload\n      dup2\n      0xff\n      mul\n      not\n      and\n      swap1\n      dup4\n      iszero\n      iszero\n      mul\n      or\n      swap1\n      sstore\n      pop\n      0xa0\n      dup3\n      add\n      mload\n      dup2\n      0x05\n      add\n      swap1\n      dup2\n      tag_51\n      swap2\n      swap1\n      tag_48\n      jump\t// in\n    tag_51:\n      pop\n      0xc0\n      dup3\n      add\n      mload\n      dup2\n      0x06\n      add\n      exp(0x0100, 0x00)\n      dup2\n      sload\n      dup2\n      0xffffffffffffffffffffffffffffffffffffffff\n      mul\n      not\n      and\n      swap1\n      dup4\n      0xffffffffffffffffffffffffffffffffffffffff\n      and\n      mul\n      or\n      swap1\n      sstore\n      pop\n      swap1\n      pop\n      pop\n        /* \"Learning Pth/Shoe_Brand_Project.sol\":889:898  shoe_list */\n      0x01\n        /* \"Learning Pth/Shoe_Brand_Project.sol\":904:911  _shoeId */\n      dup3\n        /* \"Learning Pth/Shoe_Brand_Project.sol\":889:912  shoe_list.push(_shoeId) */\n      swap1\n      dup1\n      0x01\n      dup2\n      sload\n      add\n      dup1\n      dup3\n      sstore\n      dup1\n      swap2\n      pop\n      pop\n      0x01\n      swap1\n      sub\n      swap1\n      0x00\n      mstore\n      keccak256(0x00, 0x20)\n      add\n      0x00\n      swap1\n      swap2\n      swap1\n      swap2\n      swap1\n      swap2\n      pop\n      sstore\n        /* \"Learning Pth/Shoe_Brand_Project.sol\":573:920  {... */\n      pop\n        /* \"Learning Pth/Shoe_Brand_Project.sol\":414:920  function listShoes(string memory _brandName, string memory _shoeType, string memory _description, ... */\n      pop\n      pop\n      pop\n      pop\n      pop\n      pop\n      jump\t// out\n        /* \"Learning Pth/Shoe_Brand_Project.sol\":293:328  mapping (uint => Shoe) public shoes */\n    tag_24:\n      mstore(0x20, 0x00)\n      dup1\n      0x00\n      mstore\n      keccak256(0x00, 0x40)\n      0x00\n      swap2\n      pop\n      swap1\n      pop\n      dup1\n      0x00\n      add\n      dup1\n      sload\n      tag_53\n      swap1\n      tag_54\n      jump\t// in\n    tag_53:\n      dup1\n      0x1f\n      add\n      0x20\n      dup1\n      swap2\n      div\n      mul\n      0x20\n      add\n      mload(0x40)\n      swap1\n      dup2\n      add\n      0x40\n      mstore\n      dup1\n      swap3\n      swap2\n      swap1\n      dup2\n      dup2\n      mstore\n      0x20\n      add\n      dup3\n      dup1\n      sload\n      tag_55\n      swap1\n      tag_54\n      jump\t// in\n    tag_55:\n      dup1\n      iszero\n      tag_56\n      jumpi\n      dup1\n      0x1f\n      lt\n      tag_57\n      jumpi\n      0x0100\n      dup1\n      dup4\n      sload\n      div\n      mul\n      dup4\n      mstore\n      swap2\n      0x20\n      add\n      swap2\n      jump(tag_56)\n    tag_57:\n      dup3\n      add\n      swap2\n      swap1\n      0x00\n      mstore\n      keccak256(0x00, 0x20)\n      swap1\n    tag_58:\n      dup2\n      sload\n      dup2\n      mstore\n      swap1\n      0x01\n      add\n      swap1\n      0x20\n      add\n      dup1\n      dup4\n      gt\n      tag_58\n      jumpi\n      dup3\n      swap1\n      sub\n      0x1f\n      and\n      dup3\n      add\n      swap2\n    tag_56:\n      pop\n      pop\n      pop\n      pop\n      pop\n      swap1\n      dup1\n      0x01\n      add\n      dup1\n      sload\n      tag_59\n      swap1\n      tag_54\n      jump\t// in\n    tag_59:\n      dup1\n      0x1f\n      add\n      0x20\n      dup1\n      swap2\n      div\n      mul\n      0x20\n      add\n      mload(0x40)\n      swap1\n      dup2\n      add\n      0x40\n      mstore\n      dup1\n      swap3\n      swap2\n      swap1\n      dup2\n      dup2\n      mstore\n      0x20\n      add\n      dup3\n      dup1\n      sload\n      tag_60\n      swap1\n      tag_54\n      jump\t// in\n    tag_60:\n      dup1\n      iszero\n      tag_61\n      jumpi\n      dup1\n      0x1f\n      lt\n      tag_62\n      jumpi\n      0x0100\n      dup1\n      dup4\n      sload\n      div\n      mul\n      dup4\n      mstore\n      swap2\n      0x20\n      add\n      swap2\n      jump(tag_61)\n    tag_62:\n      dup3\n      add\n      swap2\n      swap1\n      0x00\n      mstore\n      keccak256(0x00, 0x20)\n      swap1\n    tag_63:\n      dup2\n      sload\n      dup2\n      mstore\n      swap1\n      0x01\n      add\n      swap1\n      0x20\n      add\n      dup1\n      dup4\n      gt\n      tag_63\n      jumpi\n      dup3\n      swap1\n      sub\n      0x1f\n      and\n      dup3\n      add\n      swap2\n    tag_61:\n      pop\n      pop\n      pop\n      pop\n      pop\n      swap1\n      dup1\n      0x02\n      add\n      dup1\n      sload\n      tag_64\n      swap1\n      tag_54\n      jump\t// in\n    tag_64:\n      dup1\n      0x1f\n      add\n      0x20\n      dup1\n      swap2\n      div\n      mul\n      0x20\n      add\n      mload(0x40)\n      swap1\n      dup2\n      add\n      0x40\n      mstore\n      dup1\n      swap3\n      swap2\n      swap1\n      dup2\n      dup2\n      mstore\n      0x20\n      add\n      dup3\n      dup1\n      sload\n      tag_65\n      swap1\n      tag_54\n      jump\t// in\n    tag_65:\n      dup1\n      iszero\n      tag_66\n      jumpi\n      dup1\n      0x1f\n      lt\n      tag_67\n      jumpi\n      0x0100\n      dup1\n      dup4\n      sload\n      div\n      mul\n      dup4\n      mstore\n      swap2\n      0x20\n      add\n      swap2\n      jump(tag_66)\n    tag_67:\n      dup3\n      add\n      swap2\n      swap1\n      0x00\n      mstore\n      keccak256(0x00, 0x20)\n      swap1\n    tag_68:\n      dup2\n      sload\n      dup2\n      mstore\n      swap1\n      0x01\n      add\n      swap1\n      0x20\n      add\n      dup1\n      dup4\n      gt\n      tag_68\n      jumpi\n      dup3\n      swap1\n      sub\n      0x1f\n      and\n      dup3\n      add\n      swap2\n    tag_66:\n      pop\n      pop\n      pop\n      pop\n      pop\n      swap1\n      dup1\n      0x03\n      add\n      sload\n      swap1\n      dup1\n      0x04\n      add\n      0x00\n      swap1\n      sload\n      swap1\n      0x0100\n      exp\n      swap1\n      div\n      0xff\n      and\n      swap1\n      dup1\n      0x05\n      add\n      dup1\n      sload\n      tag_69\n      swap1\n      tag_54\n      jump\t// in\n    tag_69:\n      dup1\n      0x1f\n      add\n      0x20\n      dup1\n      swap2\n      div\n      mul\n      0x20\n      add\n      mload(0x40)\n      swap1\n      dup2\n      add\n      0x40\n      mstore\n      dup1\n      swap3\n      swap2\n      swap1\n      dup2\n      dup2\n      mstore\n      0x20\n      add\n      dup3\n      dup1\n      sload\n      tag_70\n      swap1\n      tag_54\n      jump\t// in\n    tag_70:\n      dup1\n      iszero\n      tag_71\n      jumpi\n      dup1\n      0x1f\n      lt\n      tag_72\n      jumpi\n      0x0100\n      dup1\n      dup4\n      sload\n      div\n      mul\n      dup4\n      mstore\n      swap2\n      0x20\n      add\n      swap2\n      jump(tag_71)\n    tag_72:\n      dup3\n      add\n      swap2\n      swap1\n      0x00\n      mstore\n      keccak256(0x00, 0x20)\n      swap1\n    tag_73:\n      dup2\n      sload\n      dup2\n      mstore\n      swap1\n      0x01\n      add\n      swap1\n      0x20\n      add\n      dup1\n      dup4\n      gt\n      tag_73\n      jumpi\n      dup3\n      swap1\n      sub\n      0x1f\n      and\n      dup3\n      add\n      swap2\n    tag_71:\n      pop\n      pop\n      pop\n      pop\n      pop\n      swap1\n      dup1\n      0x06\n      add\n      0x00\n      swap1\n      sload\n      swap1\n      0x0100\n      exp\n      swap1\n      div\n      0xffffffffffffffffffffffffffffffffffffffff\n      and\n      swap1\n      pop\n      dup8\n      jump\t// out\n        /* \"#utility.yul\":7:82   */\n    tag_74:\n        /* \"#utility.yul\":40:46   */\n      0x00\n        /* \"#utility.yul\":73:75   */\n      0x40\n        /* \"#utility.yul\":67:76   */\n      mload\n        /* \"#utility.yul\":57:76   */\n      swap1\n      pop\n        /* \"#utility.yul\":7:82   */\n      swap1\n      jump\t// out\n        /* \"#utility.yul\":88:205   */\n    tag_75:\n        /* \"#utility.yul\":197:198   */\n      0x00\n        /* \"#utility.yul\":194:195   */\n      dup1\n        /* \"#utility.yul\":187:199   */\n      revert\n        /* \"#utility.yul\":211:328   */\n    tag_76:\n        /* \"#utility.yul\":320:321   */\n      0x00\n        /* \"#utility.yul\":317:318   */\n      dup1\n        /* \"#utility.yul\":310:322   */\n      revert\n        /* \"#utility.yul\":334:411   */\n    tag_77:\n        /* \"#utility.yul\":371:378   */\n      0x00\n        /* \"#utility.yul\":400:405   */\n      dup2\n        /* \"#utility.yul\":389:405   */\n      swap1\n      pop\n        /* \"#utility.yul\":334:411   */\n      swap2\n      swap1\n      pop\n      jump\t// out\n        /* \"#utility.yul\":417:539   */\n    tag_78:\n        /* \"#utility.yul\":490:514   */\n      tag_133\n        /* \"#utility.yul\":508:513   */\n      dup2\n        /* \"#utility.yul\":490:514   */\n      tag_77\n      jump\t// in\n    tag_133:\n        /* \"#utility.yul\":483:488   */\n      dup2\n        /* \"#utility.yul\":480:515   */\n      eq\n        /* \"#utility.yul\":470:533   */\n      tag_134\n      jumpi\n        /* \"#utility.yul\":529:530   */\n      0x00\n        /* \"#utility.yul\":526:527   */\n      dup1\n        /* \"#utility.yul\":519:531   */\n      revert\n        /* \"#utility.yul\":470:533   */\n    tag_134:\n        /* \"#utility.yul\":417:539   */\n      pop\n      jump\t// out\n        /* \"#utility.yul\":545:684   */\n    tag_79:\n        /* \"#utility.yul\":591:596   */\n      0x00\n        /* \"#utility.yul\":629:635   */\n      dup2\n        /* \"#utility.yul\":616:636   */\n      calldataload\n        /* \"#utility.yul\":607:636   */\n      swap1\n      pop\n        /* \"#utility.yul\":645:678   */\n      tag_136\n        /* \"#utility.yul\":672:677   */\n      dup2\n        /* \"#utility.yul\":645:678   */\n      tag_78\n      jump\t// in\n    tag_136:\n        /* \"#utility.yul\":545:684   */\n      swap3\n      swap2\n      pop\n      pop\n      jump\t// out\n        /* \"#utility.yul\":690:1019   */\n    tag_8:\n        /* \"#utility.yul\":749:755   */\n      0x00\n        /* \"#utility.yul\":798:800   */\n      0x20\n        /* \"#utility.yul\":786:795   */\n      dup3\n        /* \"#utility.yul\":777:784   */\n      dup5\n        /* \"#utility.yul\":773:796   */\n      sub\n        /* \"#utility.yul\":769:801   */\n      slt\n        /* \"#utility.yul\":766:885   */\n      iszero\n      tag_138\n      jumpi\n        /* \"#utility.yul\":804:883   */\n      tag_139\n      tag_75\n      jump\t// in\n    tag_139:\n        /* \"#utility.yul\":766:885   */\n    tag_138:\n        /* \"#utility.yul\":924:925   */\n      0x00\n        /* \"#utility.yul\":949:1002   */\n      tag_140\n        /* \"#utility.yul\":994:1001   */\n      dup5\n        /* \"#utility.yul\":985:991   */\n      dup3\n        /* \"#utility.yul\":974:983   */\n      dup6\n        /* \"#utility.yul\":970:992   */\n      add\n        /* \"#utility.yul\":949:1002   */\n      tag_79\n      jump\t// in\n    tag_140:\n        /* \"#utility.yul\":939:1002   */\n      swap2\n      pop\n        /* \"#utility.yul\":895:1012   */\n      pop\n        /* \"#utility.yul\":690:1019   */\n      swap3\n      swap2\n      pop\n      pop\n      jump\t// out\n        /* \"#utility.yul\":1025:1143   */\n    tag_80:\n        /* \"#utility.yul\":1112:1136   */\n      tag_142\n        /* \"#utility.yul\":1130:1135   */\n      dup2\n        /* \"#utility.yul\":1112:1136   */\n      tag_77\n      jump\t// in\n    tag_142:\n        /* \"#utility.yul\":1107:1110   */\n      dup3\n        /* \"#utility.yul\":1100:1137   */\n      mstore\n        /* \"#utility.yul\":1025:1143   */\n      pop\n      pop\n      jump\t// out\n        /* \"#utility.yul\":1149:1371   */\n    tag_15:\n        /* \"#utility.yul\":1242:1246   */\n      0x00\n        /* \"#utility.yul\":1280:1282   */\n      0x20\n        /* \"#utility.yul\":1269:1278   */\n      dup3\n        /* \"#utility.yul\":1265:1283   */\n      add\n        /* \"#utility.yul\":1257:1283   */\n      swap1\n      pop\n        /* \"#utility.yul\":1293:1364   */\n      tag_144\n        /* \"#utility.yul\":1361:1362   */\n      0x00\n        /* \"#utility.yul\":1350:1359   */\n      dup4\n        /* \"#utility.yul\":1346:1363   */\n      add\n        /* \"#utility.yul\":1337:1343   */\n      dup5\n        /* \"#utility.yul\":1293:1364   */\n      tag_80\n      jump\t// in\n    tag_144:\n        /* \"#utility.yul\":1149:1371   */\n      swap3\n      swap2\n      pop\n      pop\n      jump\t// out\n        /* \"#utility.yul\":1377:1494   */\n    tag_81:\n        /* \"#utility.yul\":1486:1487   */\n      0x00\n        /* \"#utility.yul\":1483:1484   */\n      dup1\n        /* \"#utility.yul\":1476:1488   */\n      revert\n        /* \"#utility.yul\":1500:1617   */\n    tag_82:\n        /* \"#utility.yul\":1609:1610   */\n      0x00\n        /* \"#utility.yul\":1606:1607   */\n      dup1\n        /* \"#utility.yul\":1599:1611   */\n      revert\n        /* \"#utility.yul\":1623:1725   */\n    tag_83:\n        /* \"#utility.yul\":1664:1670   */\n      0x00\n        /* \"#utility.yul\":1715:1717   */\n      0x1f\n        /* \"#utility.yul\":1711:1718   */\n      not\n        /* \"#utility.yul\":1706:1708   */\n      0x1f\n        /* \"#utility.yul\":1699:1704   */\n      dup4\n        /* \"#utility.yul\":1695:1709   */\n      add\n        /* \"#utility.yul\":1691:1719   */\n      and\n        /* \"#utility.yul\":1681:1719   */\n      swap1\n      pop\n        /* \"#utility.yul\":1623:1725   */\n      swap2\n      swap1\n      pop\n      jump\t// out\n        /* \"#utility.yul\":1731:1911   */\n    tag_84:\n        /* \"#utility.yul\":1779:1856   */\n      0x4e487b7100000000000000000000000000000000000000000000000000000000\n        /* \"#utility.yul\":1776:1777   */\n      0x00\n        /* \"#utility.yul\":1769:1857   */\n      mstore\n        /* \"#utility.yul\":1876:1880   */\n      0x41\n        /* \"#utility.yul\":1873:1874   */\n      0x04\n        /* \"#utility.yul\":1866:1881   */\n      mstore\n        /* \"#utility.yul\":1900:1904   */\n      0x24\n        /* \"#utility.yul\":1897:1898   */\n      0x00\n        /* \"#utility.yul\":1890:1905   */\n      revert\n        /* \"#utility.yul\":1917:2198   */\n    tag_85:\n        /* \"#utility.yul\":2000:2027   */\n      tag_150\n        /* \"#utility.yul\":2022:2026   */\n      dup3\n        /* \"#utility.yul\":2000:2027   */\n      tag_83\n      jump\t// in\n    tag_150:\n        /* \"#utility.yul\":1992:1998   */\n      dup2\n        /* \"#utility.yul\":1988:2028   */\n      add\n        /* \"#utility.yul\":2130:2136   */\n      dup2\n        /* \"#utility.yul\":2118:2128   */\n      dup2\n        /* \"#utility.yul\":2115:2137   */\n      lt\n        /* \"#utility.yul\":2094:2112   */\n      0xffffffffffffffff\n        /* \"#utility.yul\":2082:2092   */\n      dup3\n        /* \"#utility.yul\":2079:2113   */\n      gt\n        /* \"#utility.yul\":2076:2138   */\n      or\n        /* \"#utility.yul\":2073:2161   */\n      iszero\n      tag_151\n      jumpi\n        /* \"#utility.yul\":2141:2159   */\n      tag_152\n      tag_84\n      jump\t// in\n    tag_152:\n        /* \"#utility.yul\":2073:2161   */\n    tag_151:\n        /* \"#utility.yul\":2181:2191   */\n      dup1\n        /* \"#utility.yul\":2177:2179   */\n      0x40\n        /* \"#utility.yul\":2170:2192   */\n      mstore\n        /* \"#utility.yul\":1960:2198   */\n      pop\n        /* \"#utility.yul\":1917:2198   */\n      pop\n      pop\n      jump\t// out\n        /* \"#utility.yul\":2204:2333   */\n    tag_86:\n        /* \"#utility.yul\":2238:2244   */\n      0x00\n        /* \"#utility.yul\":2265:2285   */\n      tag_154\n      tag_74\n      jump\t// in\n    tag_154:\n        /* \"#utility.yul\":2255:2285   */\n      swap1\n      pop\n        /* \"#utility.yul\":2294:2327   */\n      tag_155\n        /* \"#utility.yul\":2322:2326   */\n      dup3\n        /* \"#utility.yul\":2314:2320   */\n      dup3\n        /* \"#utility.yul\":2294:2327   */\n      tag_85\n      jump\t// in\n    tag_155:\n        /* \"#utility.yul\":2204:2333   */\n      swap2\n      swap1\n      pop\n      jump\t// out\n        /* \"#utility.yul\":2339:2647   */\n    tag_87:\n        /* \"#utility.yul\":2401:2405   */\n      0x00\n        /* \"#utility.yul\":2491:2509   */\n      0xffffffffffffffff\n        /* \"#utility.yul\":2483:2489   */\n      dup3\n        /* \"#utility.yul\":2480:2510   */\n      gt\n        /* \"#utility.yul\":2477:2533   */\n      iszero\n      tag_157\n      jumpi\n        /* \"#utility.yul\":2513:2531   */\n      tag_158\n      tag_84\n      jump\t// in\n    tag_158:\n        /* \"#utility.yul\":2477:2533   */\n    tag_157:\n        /* \"#utility.yul\":2551:2580   */\n      tag_159\n        /* \"#utility.yul\":2573:2579   */\n      dup3\n        /* \"#utility.yul\":2551:2580   */\n      tag_83\n      jump\t// in\n    tag_159:\n        /* \"#utility.yul\":2543:2580   */\n      swap1\n      pop\n        /* \"#utility.yul\":2635:2639   */\n      0x20\n        /* \"#utility.yul\":2629:2633   */\n      dup2\n        /* \"#utility.yul\":2625:2640   */\n      add\n        /* \"#utility.yul\":2617:2640   */\n      swap1\n      pop\n        /* \"#utility.yul\":2339:2647   */\n      swap2\n      swap1\n      pop\n      jump\t// out\n        /* \"#utility.yul\":2653:2801   */\n    tag_88:\n        /* \"#utility.yul\":2751:2757   */\n      dup3\n        /* \"#utility.yul\":2746:2749   */\n      dup2\n        /* \"#utility.yul\":2741:2744   */\n      dup4\n        /* \"#utility.yul\":2728:2758   */\n      calldatacopy\n        /* \"#utility.yul\":2792:2793   */\n      0x00\n        /* \"#utility.yul\":2783:2789   */\n      dup4\n        /* \"#utility.yul\":2778:2781   */\n      dup4\n        /* \"#utility.yul\":2774:2790   */\n      add\n        /* \"#utility.yul\":2767:2794   */\n      mstore\n        /* \"#utility.yul\":2653:2801   */\n      pop\n      pop\n      pop\n      jump\t// out\n        /* \"#utility.yul\":2807:3232   */\n    tag_89:\n        /* \"#utility.yul\":2885:2890   */\n      0x00\n        /* \"#utility.yul\":2910:2976   */\n      tag_162\n        /* \"#utility.yul\":2926:2975   */\n      tag_163\n        /* \"#utility.yul\":2968:2974   */\n      dup5\n        /* \"#utility.yul\":2926:2975   */\n      tag_87\n      jump\t// in\n    tag_163:\n        /* \"#utility.yul\":2910:2976   */\n      tag_86\n      jump\t// in\n    tag_162:\n        /* \"#utility.yul\":2901:2976   */\n      swap1\n      pop\n        /* \"#utility.yul\":2999:3005   */\n      dup3\n        /* \"#utility.yul\":2992:2997   */\n      dup2\n        /* \"#utility.yul\":2985:3006   */\n      mstore\n        /* \"#utility.yul\":3037:3041   */\n      0x20\n        /* \"#utility.yul\":3030:3035   */\n      dup2\n        /* \"#utility.yul\":3026:3042   */\n      add\n        /* \"#utility.yul\":3075:3078   */\n      dup5\n        /* \"#utility.yul\":3066:3072   */\n      dup5\n        /* \"#utility.yul\":3061:3064   */\n      dup5\n        /* \"#utility.yul\":3057:3073   */\n      add\n        /* \"#utility.yul\":3054:3079   */\n      gt\n        /* \"#utility.yul\":3051:3163   */\n      iszero\n      tag_164\n      jumpi\n        /* \"#utility.yul\":3082:3161   */\n      tag_165\n      tag_82\n      jump\t// in\n    tag_165:\n        /* \"#utility.yul\":3051:3163   */\n    tag_164:\n        /* \"#utility.yul\":3172:3226   */\n      tag_166\n        /* \"#utility.yul\":3219:3225   */\n      dup5\n        /* \"#utility.yul\":3214:3217   */\n      dup3\n        /* \"#utility.yul\":3209:3212   */\n      dup6\n        /* \"#utility.yul\":3172:3226   */\n      tag_88\n      jump\t// in\n    tag_166:\n        /* \"#utility.yul\":2891:3232   */\n      pop\n        /* \"#utility.yul\":2807:3232   */\n      swap4\n      swap3\n      pop\n      pop\n      pop\n      jump\t// out\n        /* \"#utility.yul\":3252:3592   */\n    tag_90:\n        /* \"#utility.yul\":3308:3313   */\n      0x00\n        /* \"#utility.yul\":3357:3360   */\n      dup3\n        /* \"#utility.yul\":3350:3354   */\n      0x1f\n        /* \"#utility.yul\":3342:3348   */\n      dup4\n        /* \"#utility.yul\":3338:3355   */\n      add\n        /* \"#utility.yul\":3334:3361   */\n      slt\n        /* \"#utility.yul\":3324:3446   */\n      tag_168\n      jumpi\n        /* \"#utility.yul\":3365:3444   */\n      tag_169\n      tag_81\n      jump\t// in\n    tag_169:\n        /* \"#utility.yul\":3324:3446   */\n    tag_168:\n        /* \"#utility.yul\":3482:3488   */\n      dup2\n        /* \"#utility.yul\":3469:3489   */\n      calldataload\n        /* \"#utility.yul\":3507:3586   */\n      tag_170\n        /* \"#utility.yul\":3582:3585   */\n      dup5\n        /* \"#utility.yul\":3574:3580   */\n      dup3\n        /* \"#utility.yul\":3567:3571   */\n      0x20\n        /* \"#utility.yul\":3559:3565   */\n      dup7\n        /* \"#utility.yul\":3555:3572   */\n      add\n        /* \"#utility.yul\":3507:3586   */\n      tag_89\n      jump\t// in\n    tag_170:\n        /* \"#utility.yul\":3498:3586   */\n      swap2\n      pop\n        /* \"#utility.yul\":3314:3592   */\n      pop\n        /* \"#utility.yul\":3252:3592   */\n      swap3\n      swap2\n      pop\n      pop\n      jump\t// out\n        /* \"#utility.yul\":3598:5375   */\n    tag_19:\n        /* \"#utility.yul\":3742:3748   */\n      0x00\n        /* \"#utility.yul\":3750:3756   */\n      dup1\n        /* \"#utility.yul\":3758:3764   */\n      0x00\n        /* \"#utility.yul\":3766:3772   */\n      dup1\n        /* \"#utility.yul\":3774:3780   */\n      0x00\n        /* \"#utility.yul\":3782:3788   */\n      dup1\n        /* \"#utility.yul\":3831:3834   */\n      0xc0\n        /* \"#utility.yul\":3819:3828   */\n      dup8\n        /* \"#utility.yul\":3810:3817   */\n      dup10\n        /* \"#utility.yul\":3806:3829   */\n      sub\n        /* \"#utility.yul\":3802:3835   */\n      slt\n        /* \"#utility.yul\":3799:3919   */\n      iszero\n      tag_172\n      jumpi\n        /* \"#utility.yul\":3838:3917   */\n      tag_173\n      tag_75\n      jump\t// in\n    tag_173:\n        /* \"#utility.yul\":3799:3919   */\n    tag_172:\n        /* \"#utility.yul\":3986:3987   */\n      0x00\n        /* \"#utility.yul\":3975:3984   */\n      dup8\n        /* \"#utility.yul\":3971:3988   */\n      add\n        /* \"#utility.yul\":3958:3989   */\n      calldataload\n        /* \"#utility.yul\":4016:4034   */\n      0xffffffffffffffff\n        /* \"#utility.yul\":4008:4014   */\n      dup2\n        /* \"#utility.yul\":4005:4035   */\n      gt\n        /* \"#utility.yul\":4002:4119   */\n      iszero\n      tag_174\n      jumpi\n        /* \"#utility.yul\":4038:4117   */\n      tag_175\n      tag_76\n      jump\t// in\n    tag_175:\n        /* \"#utility.yul\":4002:4119   */\n    tag_174:\n        /* \"#utility.yul\":4143:4206   */\n      tag_176\n        /* \"#utility.yul\":4198:4205   */\n      dup10\n        /* \"#utility.yul\":4189:4195   */\n      dup3\n        /* \"#utility.yul\":4178:4187   */\n      dup11\n        /* \"#utility.yul\":4174:4196   */\n      add\n        /* \"#utility.yul\":4143:4206   */\n      tag_90\n      jump\t// in\n    tag_176:\n        /* \"#utility.yul\":4133:4206   */\n      swap7\n      pop\n        /* \"#utility.yul\":3929:4216   */\n      pop\n        /* \"#utility.yul\":4283:4285   */\n      0x20\n        /* \"#utility.yul\":4272:4281   */\n      dup8\n        /* \"#utility.yul\":4268:4286   */\n      add\n        /* \"#utility.yul\":4255:4287   */\n      calldataload\n        /* \"#utility.yul\":4314:4332   */\n      0xffffffffffffffff\n        /* \"#utility.yul\":4306:4312   */\n      dup2\n        /* \"#utility.yul\":4303:4333   */\n      gt\n        /* \"#utility.yul\":4300:4417   */\n      iszero\n      tag_177\n      jumpi\n        /* \"#utility.yul\":4336:4415   */\n      tag_178\n      tag_76\n      jump\t// in\n    tag_178:\n        /* \"#utility.yul\":4300:4417   */\n    tag_177:\n        /* \"#utility.yul\":4441:4504   */\n      tag_179\n        /* \"#utility.yul\":4496:4503   */\n      dup10\n        /* \"#utility.yul\":4487:4493   */\n      dup3\n        /* \"#utility.yul\":4476:4485   */\n      dup11\n        /* \"#utility.yul\":4472:4494   */\n      add\n        /* \"#utility.yul\":4441:4504   */\n      tag_90\n      jump\t// in\n    tag_179:\n        /* \"#utility.yul\":4431:4504   */\n      swap6\n      pop\n        /* \"#utility.yul\":4226:4514   */\n      pop\n        /* \"#utility.yul\":4581:4583   */\n      0x40\n        /* \"#utility.yul\":4570:4579   */\n      dup8\n        /* \"#utility.yul\":4566:4584   */\n      add\n        /* \"#utility.yul\":4553:4585   */\n      calldataload\n        /* \"#utility.yul\":4612:4630   */\n      0xffffffffffffffff\n        /* \"#utility.yul\":4604:4610   */\n      dup2\n        /* \"#utility.yul\":4601:4631   */\n      gt\n        /* \"#utility.yul\":4598:4715   */\n      iszero\n      tag_180\n      jumpi\n        /* \"#utility.yul\":4634:4713   */\n      tag_181\n      tag_76\n      jump\t// in\n    tag_181:\n        /* \"#utility.yul\":4598:4715   */\n    tag_180:\n        /* \"#utility.yul\":4739:4802   */\n      tag_182\n        /* \"#utility.yul\":4794:4801   */\n      dup10\n        /* \"#utility.yul\":4785:4791   */\n      dup3\n        /* \"#utility.yul\":4774:4783   */\n      dup11\n        /* \"#utility.yul\":4770:4792   */\n      add\n        /* \"#utility.yul\":4739:4802   */\n      tag_90\n      jump\t// in\n    tag_182:\n        /* \"#utility.yul\":4729:4802   */\n      swap5\n      pop\n        /* \"#utility.yul\":4524:4812   */\n      pop\n        /* \"#utility.yul\":4879:4881   */\n      0x60\n        /* \"#utility.yul\":4868:4877   */\n      dup8\n        /* \"#utility.yul\":4864:4882   */\n      add\n        /* \"#utility.yul\":4851:4883   */\n      calldataload\n        /* \"#utility.yul\":4910:4928   */\n      0xffffffffffffffff\n        /* \"#utility.yul\":4902:4908   */\n      dup2\n        /* \"#utility.yul\":4899:4929   */\n      gt\n        /* \"#utility.yul\":4896:5013   */\n      iszero\n      tag_183\n      jumpi\n        /* \"#utility.yul\":4932:5011   */\n      tag_184\n      tag_76\n      jump\t// in\n    tag_184:\n        /* \"#utility.yul\":4896:5013   */\n    tag_183:\n        /* \"#utility.yul\":5037:5100   */\n      tag_185\n        /* \"#utility.yul\":5092:5099   */\n      dup10\n        /* \"#utility.yul\":5083:5089   */\n      dup3\n        /* \"#utility.yul\":5072:5081   */\n      dup11\n        /* \"#utility.yul\":5068:5090   */\n      add\n        /* \"#utility.yul\":5037:5100   */\n      tag_90\n      jump\t// in\n    tag_185:\n        /* \"#utility.yul\":5027:5100   */\n      swap4\n      pop\n        /* \"#utility.yul\":4822:5110   */\n      pop\n        /* \"#utility.yul\":5149:5152   */\n      0x80\n        /* \"#utility.yul\":5176:5229   */\n      tag_186\n        /* \"#utility.yul\":5221:5228   */\n      dup10\n        /* \"#utility.yul\":5212:5218   */\n      dup3\n        /* \"#utility.yul\":5201:5210   */\n      dup11\n        /* \"#utility.yul\":5197:5219   */\n      add\n        /* \"#utility.yul\":5176:5229   */\n      tag_79\n      jump\t// in\n    tag_186:\n        /* \"#utility.yul\":5166:5229   */\n      swap3\n      pop\n        /* \"#utility.yul\":5120:5239   */\n      pop\n        /* \"#utility.yul\":5278:5281   */\n      0xa0\n        /* \"#utility.yul\":5305:5358   */\n      tag_187\n        /* \"#utility.yul\":5350:5357   */\n      dup10\n        /* \"#utility.yul\":5341:5347   */\n      dup3\n        /* \"#utility.yul\":5330:5339   */\n      dup11\n        /* \"#utility.yul\":5326:5348   */\n      add\n        /* \"#utility.yul\":5305:5358   */\n      tag_79\n      jump\t// in\n    tag_187:\n        /* \"#utility.yul\":5295:5358   */\n      swap2\n      pop\n        /* \"#utility.yul\":5249:5368   */\n      pop\n        /* \"#utility.yul\":3598:5375   */\n      swap3\n      swap6\n      pop\n      swap3\n      swap6\n      pop\n      swap3\n      swap6\n      jump\t// out\n        /* \"#utility.yul\":5381:5480   */\n    tag_91:\n        /* \"#utility.yul\":5433:5439   */\n      0x00\n        /* \"#utility.yul\":5467:5472   */\n      dup2\n        /* \"#utility.yul\":5461:5473   */\n      mload\n        /* \"#utility.yul\":5451:5473   */\n      swap1\n      pop\n        /* \"#utility.yul\":5381:5480   */\n      swap2\n      swap1\n      pop\n      jump\t// out\n        /* \"#utility.yul\":5486:5655   */\n    tag_92:\n        /* \"#utility.yul\":5570:5581   */\n      0x00\n        /* \"#utility.yul\":5604:5610   */\n      dup3\n        /* \"#utility.yul\":5599:5602   */\n      dup3\n        /* \"#utility.yul\":5592:5611   */\n      mstore\n        /* \"#utility.yul\":5644:5648   */\n      0x20\n        /* \"#utility.yul\":5639:5642   */\n      dup3\n        /* \"#utility.yul\":5635:5649   */\n      add\n        /* \"#utility.yul\":5620:5649   */\n      swap1\n      pop\n        /* \"#utility.yul\":5486:5655   */\n      swap3\n      swap2\n      pop\n      pop\n      jump\t// out\n        /* \"#utility.yul\":5661:5800   */\n    tag_93:\n        /* \"#utility.yul\":5750:5756   */\n      dup3\n        /* \"#utility.yul\":5745:5748   */\n      dup2\n        /* \"#utility.yul\":5740:5743   */\n      dup4\n        /* \"#utility.yul\":5734:5757   */\n      mcopy\n        /* \"#utility.yul\":5791:5792   */\n      0x00\n        /* \"#utility.yul\":5782:5788   */\n      dup4\n        /* \"#utility.yul\":5777:5780   */\n      dup4\n        /* \"#utility.yul\":5773:5789   */\n      add\n        /* \"#utility.yul\":5766:5793   */\n      mstore\n        /* \"#utility.yul\":5661:5800   */\n      pop\n      pop\n      pop\n      jump\t// out\n        /* \"#utility.yul\":5806:6183   */\n    tag_94:\n        /* \"#utility.yul\":5894:5897   */\n      0x00\n        /* \"#utility.yul\":5922:5961   */\n      tag_192\n        /* \"#utility.yul\":5955:5960   */\n      dup3\n        /* \"#utility.yul\":5922:5961   */\n      tag_91\n      jump\t// in\n    tag_192:\n        /* \"#utility.yul\":5977:6048   */\n      tag_193\n        /* \"#utility.yul\":6041:6047   */\n      dup2\n        /* \"#utility.yul\":6036:6039   */\n      dup6\n        /* \"#utility.yul\":5977:6048   */\n      tag_92\n      jump\t// in\n    tag_193:\n        /* \"#utility.yul\":5970:6048   */\n      swap4\n      pop\n        /* \"#utility.yul\":6057:6122   */\n      tag_194\n        /* \"#utility.yul\":6115:6121   */\n      dup2\n        /* \"#utility.yul\":6110:6113   */\n      dup6\n        /* \"#utility.yul\":6103:6107   */\n      0x20\n        /* \"#utility.yul\":6096:6101   */\n      dup7\n        /* \"#utility.yul\":6092:6108   */\n      add\n        /* \"#utility.yul\":6057:6122   */\n      tag_93\n      jump\t// in\n    tag_194:\n        /* \"#utility.yul\":6147:6176   */\n      tag_195\n        /* \"#utility.yul\":6169:6175   */\n      dup2\n        /* \"#utility.yul\":6147:6176   */\n      tag_83\n      jump\t// in\n    tag_195:\n        /* \"#utility.yul\":6142:6145   */\n      dup5\n        /* \"#utility.yul\":6138:6177   */\n      add\n        /* \"#utility.yul\":6131:6177   */\n      swap2\n      pop\n        /* \"#utility.yul\":5898:6183   */\n      pop\n        /* \"#utility.yul\":5806:6183   */\n      swap3\n      swap2\n      pop\n      pop\n      jump\t// out\n        /* \"#utility.yul\":6189:6279   */\n    tag_95:\n        /* \"#utility.yul\":6223:6230   */\n      0x00\n        /* \"#utility.yul\":6266:6271   */\n      dup2\n        /* \"#utility.yul\":6259:6272   */\n      iszero\n        /* \"#utility.yul\":6252:6273   */\n      iszero\n        /* \"#utility.yul\":6241:6273   */\n      swap1\n      pop\n        /* \"#utility.yul\":6189:6279   */\n      swap2\n      swap1\n      pop\n      jump\t// out\n        /* \"#utility.yul\":6285:6394   */\n    tag_96:\n        /* \"#utility.yul\":6366:6387   */\n      tag_198\n        /* \"#utility.yul\":6381:6386   */\n      dup2\n        /* \"#utility.yul\":6366:6387   */\n      tag_95\n      jump\t// in\n    tag_198:\n        /* \"#utility.yul\":6361:6364   */\n      dup3\n        /* \"#utility.yul\":6354:6388   */\n      mstore\n        /* \"#utility.yul\":6285:6394   */\n      pop\n      pop\n      jump\t// out\n        /* \"#utility.yul\":6400:6526   */\n    tag_97:\n        /* \"#utility.yul\":6437:6444   */\n      0x00\n        /* \"#utility.yul\":6477:6519   */\n      0xffffffffffffffffffffffffffffffffffffffff\n        /* \"#utility.yul\":6470:6475   */\n      dup3\n        /* \"#utility.yul\":6466:6520   */\n      and\n        /* \"#utility.yul\":6455:6520   */\n      swap1\n      pop\n        /* \"#utility.yul\":6400:6526   */\n      swap2\n      swap1\n      pop\n      jump\t// out\n        /* \"#utility.yul\":6532:6628   */\n    tag_98:\n        /* \"#utility.yul\":6569:6576   */\n      0x00\n        /* \"#utility.yul\":6598:6622   */\n      tag_201\n        /* \"#utility.yul\":6616:6621   */\n      dup3\n        /* \"#utility.yul\":6598:6622   */\n      tag_97\n      jump\t// in\n    tag_201:\n        /* \"#utility.yul\":6587:6622   */\n      swap1\n      pop\n        /* \"#utility.yul\":6532:6628   */\n      swap2\n      swap1\n      pop\n      jump\t// out\n        /* \"#utility.yul\":6634:6752   */\n    tag_99:\n        /* \"#utility.yul\":6721:6745   */\n      tag_203\n        /* \"#utility.yul\":6739:6744   */\n      dup2\n        /* \"#utility.yul\":6721:6745   */\n      tag_98\n      jump\t// in\n    tag_203:\n        /* \"#utility.yul\":6716:6719   */\n      dup3\n        /* \"#utility.yul\":6709:6746   */\n      mstore\n        /* \"#utility.yul\":6634:6752   */\n      pop\n      pop\n      jump\t// out\n        /* \"#utility.yul\":6758:7996   */\n    tag_26:\n        /* \"#utility.yul\":7093:7097   */\n      0x00\n        /* \"#utility.yul\":7131:7134   */\n      0xe0\n        /* \"#utility.yul\":7120:7129   */\n      dup3\n        /* \"#utility.yul\":7116:7135   */\n      add\n        /* \"#utility.yul\":7108:7135   */\n      swap1\n      pop\n        /* \"#utility.yul\":7181:7190   */\n      dup2\n        /* \"#utility.yul\":7175:7179   */\n      dup2\n        /* \"#utility.yul\":7171:7191   */\n      sub\n        /* \"#utility.yul\":7167:7168   */\n      0x00\n        /* \"#utility.yul\":7156:7165   */\n      dup4\n        /* \"#utility.yul\":7152:7169   */\n      add\n        /* \"#utility.yul\":7145:7192   */\n      mstore\n        /* \"#utility.yul\":7209:7287   */\n      tag_205\n        /* \"#utility.yul\":7282:7286   */\n      dup2\n        /* \"#utility.yul\":7273:7279   */\n      dup11\n        /* \"#utility.yul\":7209:7287   */\n      tag_94\n      jump\t// in\n    tag_205:\n        /* \"#utility.yul\":7201:7287   */\n      swap1\n      pop\n        /* \"#utility.yul\":7334:7343   */\n      dup2\n        /* \"#utility.yul\":7328:7332   */\n      dup2\n        /* \"#utility.yul\":7324:7344   */\n      sub\n        /* \"#utility.yul\":7319:7321   */\n      0x20\n        /* \"#utility.yul\":7308:7317   */\n      dup4\n        /* \"#utility.yul\":7304:7322   */\n      add\n        /* \"#utility.yul\":7297:7345   */\n      mstore\n        /* \"#utility.yul\":7362:7440   */\n      tag_206\n        /* \"#utility.yul\":7435:7439   */\n      dup2\n        /* \"#utility.yul\":7426:7432   */\n      dup10\n        /* \"#utility.yul\":7362:7440   */\n      tag_94\n      jump\t// in\n    tag_206:\n        /* \"#utility.yul\":7354:7440   */\n      swap1\n      pop\n        /* \"#utility.yul\":7487:7496   */\n      dup2\n        /* \"#utility.yul\":7481:7485   */\n      dup2\n        /* \"#utility.yul\":7477:7497   */\n      sub\n        /* \"#utility.yul\":7472:7474   */\n      0x40\n        /* \"#utility.yul\":7461:7470   */\n      dup4\n        /* \"#utility.yul\":7457:7475   */\n      add\n        /* \"#utility.yul\":7450:7498   */\n      mstore\n        /* \"#utility.yul\":7515:7593   */\n      tag_207\n        /* \"#utility.yul\":7588:7592   */\n      dup2\n        /* \"#utility.yul\":7579:7585   */\n      dup9\n        /* \"#utility.yul\":7515:7593   */\n      tag_94\n      jump\t// in\n    tag_207:\n        /* \"#utility.yul\":7507:7593   */\n      swap1\n      pop\n        /* \"#utility.yul\":7603:7675   */\n      tag_208\n        /* \"#utility.yul\":7671:7673   */\n      0x60\n        /* \"#utility.yul\":7660:7669   */\n      dup4\n        /* \"#utility.yul\":7656:7674   */\n      add\n        /* \"#utility.yul\":7647:7653   */\n      dup8\n        /* \"#utility.yul\":7603:7675   */\n      tag_80\n      jump\t// in\n    tag_208:\n        /* \"#utility.yul\":7685:7752   */\n      tag_209\n        /* \"#utility.yul\":7747:7750   */\n      0x80\n        /* \"#utility.yul\":7736:7745   */\n      dup4\n        /* \"#utility.yul\":7732:7751   */\n      add\n        /* \"#utility.yul\":7723:7729   */\n      dup7\n        /* \"#utility.yul\":7685:7752   */\n      tag_96\n      jump\t// in\n    tag_209:\n        /* \"#utility.yul\":7800:7809   */\n      dup2\n        /* \"#utility.yul\":7794:7798   */\n      dup2\n        /* \"#utility.yul\":7790:7810   */\n      sub\n        /* \"#utility.yul\":7784:7787   */\n      0xa0\n        /* \"#utility.yul\":7773:7782   */\n      dup4\n        /* \"#utility.yul\":7769:7788   */\n      add\n        /* \"#utility.yul\":7762:7811   */\n      mstore\n        /* \"#utility.yul\":7828:7906   */\n      tag_210\n        /* \"#utility.yul\":7901:7905   */\n      dup2\n        /* \"#utility.yul\":7892:7898   */\n      dup6\n        /* \"#utility.yul\":7828:7906   */\n      tag_94\n      jump\t// in\n    tag_210:\n        /* \"#utility.yul\":7820:7906   */\n      swap1\n      pop\n        /* \"#utility.yul\":7916:7989   */\n      tag_211\n        /* \"#utility.yul\":7984:7987   */\n      0xc0\n        /* \"#utility.yul\":7973:7982   */\n      dup4\n        /* \"#utility.yul\":7969:7988   */\n      add\n        /* \"#utility.yul\":7960:7966   */\n      dup5\n        /* \"#utility.yul\":7916:7989   */\n      tag_99\n      jump\t// in\n    tag_211:\n        /* \"#utility.yul\":6758:7996   */\n      swap9\n      swap8\n      pop\n      pop\n      pop\n      pop\n      pop\n      pop\n      pop\n      pop\n      jump\t// out\n        /* \"#utility.yul\":8002:8170   */\n    tag_100:\n        /* \"#utility.yul\":8142:8162   */\n      0x696e73756666696369656e742066756e64730000000000000000000000000000\n        /* \"#utility.yul\":8138:8139   */\n      0x00\n        /* \"#utility.yul\":8130:8136   */\n      dup3\n        /* \"#utility.yul\":8126:8140   */\n      add\n        /* \"#utility.yul\":8119:8163   */\n      mstore\n        /* \"#utility.yul\":8002:8170   */\n      pop\n      jump\t// out\n        /* \"#utility.yul\":8176:8542   */\n    tag_101:\n        /* \"#utility.yul\":8318:8321   */\n      0x00\n        /* \"#utility.yul\":8339:8406   */\n      tag_214\n        /* \"#utility.yul\":8403:8405   */\n      0x12\n        /* \"#utility.yul\":8398:8401   */\n      dup4\n        /* \"#utility.yul\":8339:8406   */\n      tag_92\n      jump\t// in\n    tag_214:\n        /* \"#utility.yul\":8332:8406   */\n      swap2\n      pop\n        /* \"#utility.yul\":8415:8508   */\n      tag_215\n        /* \"#utility.yul\":8504:8507   */\n      dup3\n        /* \"#utility.yul\":8415:8508   */\n      tag_100\n      jump\t// in\n    tag_215:\n        /* \"#utility.yul\":8533:8535   */\n      0x20\n        /* \"#utility.yul\":8528:8531   */\n      dup3\n        /* \"#utility.yul\":8524:8536   */\n      add\n        /* \"#utility.yul\":8517:8536   */\n      swap1\n      pop\n        /* \"#utility.yul\":8176:8542   */\n      swap2\n      swap1\n      pop\n      jump\t// out\n        /* \"#utility.yul\":8548:8967   */\n    tag_30:\n        /* \"#utility.yul\":8714:8718   */\n      0x00\n        /* \"#utility.yul\":8752:8754   */\n      0x20\n        /* \"#utility.yul\":8741:8750   */\n      dup3\n        /* \"#utility.yul\":8737:8755   */\n      add\n        /* \"#utility.yul\":8729:8755   */\n      swap1\n      pop\n        /* \"#utility.yul\":8801:8810   */\n      dup2\n        /* \"#utility.yul\":8795:8799   */\n      dup2\n        /* \"#utility.yul\":8791:8811   */\n      sub\n        /* \"#utility.yul\":8787:8788   */\n      0x00\n        /* \"#utility.yul\":8776:8785   */\n      dup4\n        /* \"#utility.yul\":8772:8789   */\n      add\n        /* \"#utility.yul\":8765:8812   */\n      mstore\n        /* \"#utility.yul\":8829:8960   */\n      tag_217\n        /* \"#utility.yul\":8955:8959   */\n      dup2\n        /* \"#utility.yul\":8829:8960   */\n      tag_101\n      jump\t// in\n    tag_217:\n        /* \"#utility.yul\":8821:8960   */\n      swap1\n      pop\n        /* \"#utility.yul\":8548:8967   */\n      swap2\n      swap1\n      pop\n      jump\t// out\n        /* \"#utility.yul\":8973:9144   */\n    tag_102:\n        /* \"#utility.yul\":9113:9136   */\n      0x73686f65206973206e6f7420617661696c61626c650000000000000000000000\n        /* \"#utility.yul\":9109:9110   */\n      0x00\n        /* \"#utility.yul\":9101:9107   */\n      dup3\n        /* \"#utility.yul\":9097:9111   */\n      add\n        /* \"#utility.yul\":9090:9137   */\n      mstore\n        /* \"#utility.yul\":8973:9144   */\n      pop\n      jump\t// out\n        /* \"#utility.yul\":9150:9516   */\n    tag_103:\n        /* \"#utility.yul\":9292:9295   */\n      0x00\n        /* \"#utility.yul\":9313:9380   */\n      tag_220\n        /* \"#utility.yul\":9377:9379   */\n      0x15\n        /* \"#utility.yul\":9372:9375   */\n      dup4\n        /* \"#utility.yul\":9313:9380   */\n      tag_92\n      jump\t// in\n    tag_220:\n        /* \"#utility.yul\":9306:9380   */\n      swap2\n      pop\n        /* \"#utility.yul\":9389:9482   */\n      tag_221\n        /* \"#utility.yul\":9478:9481   */\n      dup3\n        /* \"#utility.yul\":9389:9482   */\n      tag_102\n      jump\t// in\n    tag_221:\n        /* \"#utility.yul\":9507:9509   */\n      0x20\n        /* \"#utility.yul\":9502:9505   */\n      dup3\n        /* \"#utility.yul\":9498:9510   */\n      add\n        /* \"#utility.yul\":9491:9510   */\n      swap1\n      pop\n        /* \"#utility.yul\":9150:9516   */\n      swap2\n      swap1\n      pop\n      jump\t// out\n        /* \"#utility.yul\":9522:9941   */\n    tag_33:\n        /* \"#utility.yul\":9688:9692   */\n      0x00\n        /* \"#utility.yul\":9726:9728   */\n      0x20\n        /* \"#utility.yul\":9715:9724   */\n      dup3\n        /* \"#utility.yul\":9711:9729   */\n      add\n        /* \"#utility.yul\":9703:9729   */\n      swap1\n      pop\n        /* \"#utility.yul\":9775:9784   */\n      dup2\n        /* \"#utility.yul\":9769:9773   */\n      dup2\n        /* \"#utility.yul\":9765:9785   */\n      sub\n        /* \"#utility.yul\":9761:9762   */\n      0x00\n        /* \"#utility.yul\":9750:9759   */\n      dup4\n        /* \"#utility.yul\":9746:9763   */\n      add\n        /* \"#utility.yul\":9739:9786   */\n      mstore\n        /* \"#utility.yul\":9803:9934   */\n      tag_223\n        /* \"#utility.yul\":9929:9933   */\n      dup2\n        /* \"#utility.yul\":9803:9934   */\n      tag_103\n      jump\t// in\n    tag_223:\n        /* \"#utility.yul\":9795:9934   */\n      swap1\n      pop\n        /* \"#utility.yul\":9522:9941   */\n      swap2\n      swap1\n      pop\n      jump\t// out\n        /* \"#utility.yul\":9947:10094   */\n    tag_104:\n        /* \"#utility.yul\":10048:10059   */\n      0x00\n        /* \"#utility.yul\":10085:10088   */\n      dup2\n        /* \"#utility.yul\":10070:10088   */\n      swap1\n      pop\n        /* \"#utility.yul\":9947:10094   */\n      swap3\n      swap2\n      pop\n      pop\n      jump\t// out\n        /* \"#utility.yul\":10100:10214   */\n    tag_105:\n      pop\n      jump\t// out\n        /* \"#utility.yul\":10220:10618   */\n    tag_106:\n        /* \"#utility.yul\":10379:10382   */\n      0x00\n        /* \"#utility.yul\":10400:10483   */\n      tag_227\n        /* \"#utility.yul\":10481:10482   */\n      0x00\n        /* \"#utility.yul\":10476:10479   */\n      dup4\n        /* \"#utility.yul\":10400:10483   */\n      tag_104\n      jump\t// in\n    tag_227:\n        /* \"#utility.yul\":10393:10483   */\n      swap2\n      pop\n        /* \"#utility.yul\":10492:10585   */\n      tag_228\n        /* \"#utility.yul\":10581:10584   */\n      dup3\n        /* \"#utility.yul\":10492:10585   */\n      tag_105\n      jump\t// in\n    tag_228:\n        /* \"#utility.yul\":10610:10611   */\n      0x00\n        /* \"#utility.yul\":10605:10608   */\n      dup3\n        /* \"#utility.yul\":10601:10612   */\n      add\n        /* \"#utility.yul\":10594:10612   */\n      swap1\n      pop\n        /* \"#utility.yul\":10220:10618   */\n      swap2\n      swap1\n      pop\n      jump\t// out\n        /* \"#utility.yul\":10624:11003   */\n    tag_35:\n        /* \"#utility.yul\":10808:10811   */\n      0x00\n        /* \"#utility.yul\":10830:10977   */\n      tag_230\n        /* \"#utility.yul\":10973:10976   */\n      dup3\n        /* \"#utility.yul\":10830:10977   */\n      tag_106\n      jump\t// in\n    tag_230:\n        /* \"#utility.yul\":10823:10977   */\n      swap2\n      pop\n        /* \"#utility.yul\":10994:10997   */\n      dup2\n        /* \"#utility.yul\":10987:10997   */\n      swap1\n      pop\n        /* \"#utility.yul\":10624:11003   */\n      swap2\n      swap1\n      pop\n      jump\t// out\n        /* \"#utility.yul\":11009:11177   */\n    tag_107:\n        /* \"#utility.yul\":11149:11169   */\n      0x7472616e73616374696f6e206661696c65640000000000000000000000000000\n        /* \"#utility.yul\":11145:11146   */\n      0x00\n        /* \"#utility.yul\":11137:11143   */\n      dup3\n        /* \"#utility.yul\":11133:11147   */\n      add\n        /* \"#utility.yul\":11126:11170   */\n      mstore\n        /* \"#utility.yul\":11009:11177   */\n      pop\n      jump\t// out\n        /* \"#utility.yul\":11183:11549   */\n    tag_108:\n        /* \"#utility.yul\":11325:11328   */\n      0x00\n        /* \"#utility.yul\":11346:11413   */\n      tag_233\n        /* \"#utility.yul\":11410:11412   */\n      0x12\n        /* \"#utility.yul\":11405:11408   */\n      dup4\n        /* \"#utility.yul\":11346:11413   */\n      tag_92\n      jump\t// in\n    tag_233:\n        /* \"#utility.yul\":11339:11413   */\n      swap2\n      pop\n        /* \"#utility.yul\":11422:11515   */\n      tag_234\n        /* \"#utility.yul\":11511:11514   */\n      dup3\n        /* \"#utility.yul\":11422:11515   */\n      tag_107\n      jump\t// in\n    tag_234:\n        /* \"#utility.yul\":11540:11542   */\n      0x20\n        /* \"#utility.yul\":11535:11538   */\n      dup3\n        /* \"#utility.yul\":11531:11543   */\n      add\n        /* \"#utility.yul\":11524:11543   */\n      swap1\n      pop\n        /* \"#utility.yul\":11183:11549   */\n      swap2\n      swap1\n      pop\n      jump\t// out\n        /* \"#utility.yul\":11555:11974   */\n    tag_41:\n        /* \"#utility.yul\":11721:11725   */\n      0x00\n        /* \"#utility.yul\":11759:11761   */\n      0x20\n        /* \"#utility.yul\":11748:11757   */\n      dup3\n        /* \"#utility.yul\":11744:11762   */\n      add\n        /* \"#utility.yul\":11736:11762   */\n      swap1\n      pop\n        /* \"#utility.yul\":11808:11817   */\n      dup2\n        /* \"#utility.yul\":11802:11806   */\n      dup2\n        /* \"#utility.yul\":11798:11818   */\n      sub\n        /* \"#utility.yul\":11794:11795   */\n      0x00\n        /* \"#utility.yul\":11783:11792   */\n      dup4\n        /* \"#utility.yul\":11779:11796   */\n      add\n        /* \"#utility.yul\":11772:11819   */\n      mstore\n        /* \"#utility.yul\":11836:11967   */\n      tag_236\n        /* \"#utility.yul\":11962:11966   */\n      dup2\n        /* \"#utility.yul\":11836:11967   */\n      tag_108\n      jump\t// in\n    tag_236:\n        /* \"#utility.yul\":11828:11967   */\n      swap1\n      pop\n        /* \"#utility.yul\":11555:11974   */\n      swap2\n      swap1\n      pop\n      jump\t// out\n        /* \"#utility.yul\":11980:12139   */\n    tag_109:\n        /* \"#utility.yul\":12120:12131   */\n      0x73686f6520736f6c640000000000000000000000000000000000000000000000\n        /* \"#utility.yul\":12116:12117   */\n      0x00\n        /* \"#utility.yul\":12108:12114   */\n      dup3\n        /* \"#utility.yul\":12104:12118   */\n      add\n        /* \"#utility.yul\":12097:12132   */\n      mstore\n        /* \"#utility.yul\":11980:12139   */\n      pop\n      jump\t// out\n        /* \"#utility.yul\":12145:12510   */\n    tag_110:\n        /* \"#utility.yul\":12287:12290   */\n      0x00\n        /* \"#utility.yul\":12308:12374   */\n      tag_239\n        /* \"#utility.yul\":12372:12373   */\n      0x09\n        /* \"#utility.yul\":12367:12370   */\n      dup4\n        /* \"#utility.yul\":12308:12374   */\n      tag_92\n      jump\t// in\n    tag_239:\n        /* \"#utility.yul\":12301:12374   */\n      swap2\n      pop\n        /* \"#utility.yul\":12383:12476   */\n      tag_240\n        /* \"#utility.yul\":12472:12475   */\n      dup3\n        /* \"#utility.yul\":12383:12476   */\n      tag_109\n      jump\t// in\n    tag_240:\n        /* \"#utility.yul\":12501:12503   */\n      0x20\n        /* \"#utility.yul\":12496:12499   */\n      dup3\n        /* \"#utility.yul\":12492:12504   */\n      add\n        /* \"#utility.yul\":12485:12504   */\n      swap1\n      pop\n        /* \"#utility.yul\":12145:12510   */\n      swap2\n      swap1\n      pop\n      jump\t// out\n        /* \"#utility.yul\":12516:13045   */\n    tag_43:\n        /* \"#utility.yul\":12710:12714   */\n      0x00\n        /* \"#utility.yul\":12748:12750   */\n      0x40\n        /* \"#utility.yul\":12737:12746   */\n      dup3\n        /* \"#utility.yul\":12733:12751   */\n      add\n        /* \"#utility.yul\":12725:12751   */\n      swap1\n      pop\n        /* \"#utility.yul\":12761:12832   */\n      tag_242\n        /* \"#utility.yul\":12829:12830   */\n      0x00\n        /* \"#utility.yul\":12818:12827   */\n      dup4\n        /* \"#utility.yul\":12814:12831   */\n      add\n        /* \"#utility.yul\":12805:12811   */\n      dup5\n        /* \"#utility.yul\":12761:12832   */\n      tag_80\n      jump\t// in\n    tag_242:\n        /* \"#utility.yul\":12879:12888   */\n      dup2\n        /* \"#utility.yul\":12873:12877   */\n      dup2\n        /* \"#utility.yul\":12869:12889   */\n      sub\n        /* \"#utility.yul\":12864:12866   */\n      0x20\n        /* \"#utility.yul\":12853:12862   */\n      dup4\n        /* \"#utility.yul\":12849:12867   */\n      add\n        /* \"#utility.yul\":12842:12890   */\n      mstore\n        /* \"#utility.yul\":12907:13038   */\n      tag_243\n        /* \"#utility.yul\":13033:13037   */\n      dup2\n        /* \"#utility.yul\":12907:13038   */\n      tag_110\n      jump\t// in\n    tag_243:\n        /* \"#utility.yul\":12899:13038   */\n      swap1\n      pop\n        /* \"#utility.yul\":12516:13045   */\n      swap3\n      swap2\n      pop\n      pop\n      jump\t// out\n        /* \"#utility.yul\":13051:13231   */\n    tag_111:\n        /* \"#utility.yul\":13099:13176   */\n      0x4e487b7100000000000000000000000000000000000000000000000000000000\n        /* \"#utility.yul\":13096:13097   */\n      0x00\n        /* \"#utility.yul\":13089:13177   */\n      mstore\n        /* \"#utility.yul\":13196:13200   */\n      0x22\n        /* \"#utility.yul\":13193:13194   */\n      0x04\n        /* \"#utility.yul\":13186:13201   */\n      mstore\n        /* \"#utility.yul\":13220:13224   */\n      0x24\n        /* \"#utility.yul\":13217:13218   */\n      0x00\n        /* \"#utility.yul\":13210:13225   */\n      revert\n        /* \"#utility.yul\":13237:13557   */\n    tag_54:\n        /* \"#utility.yul\":13281:13287   */\n      0x00\n        /* \"#utility.yul\":13318:13319   */\n      0x02\n        /* \"#utility.yul\":13312:13316   */\n      dup3\n        /* \"#utility.yul\":13308:13320   */\n      div\n        /* \"#utility.yul\":13298:13320   */\n      swap1\n      pop\n        /* \"#utility.yul\":13365:13366   */\n      0x01\n        /* \"#utility.yul\":13359:13363   */\n      dup3\n        /* \"#utility.yul\":13355:13367   */\n      and\n        /* \"#utility.yul\":13386:13404   */\n      dup1\n        /* \"#utility.yul\":13376:13457   */\n      tag_246\n      jumpi\n        /* \"#utility.yul\":13442:13446   */\n      0x7f\n        /* \"#utility.yul\":13434:13440   */\n      dup3\n        /* \"#utility.yul\":13430:13447   */\n      and\n        /* \"#utility.yul\":13420:13447   */\n      swap2\n      pop\n        /* \"#utility.yul\":13376:13457   */\n    tag_246:\n        /* \"#utility.yul\":13504:13506   */\n      0x20\n        /* \"#utility.yul\":13496:13502   */\n      dup3\n        /* \"#utility.yul\":13493:13507   */\n      lt\n        /* \"#utility.yul\":13473:13491   */\n      dup2\n        /* \"#utility.yul\":13470:13508   */\n      sub\n        /* \"#utility.yul\":13467:13551   */\n      tag_247\n      jumpi\n        /* \"#utility.yul\":13523:13541   */\n      tag_248\n      tag_111\n      jump\t// in\n    tag_248:\n        /* \"#utility.yul\":13467:13551   */\n    tag_247:\n        /* \"#utility.yul\":13288:13557   */\n      pop\n        /* \"#utility.yul\":13237:13557   */\n      swap2\n      swap1\n      pop\n      jump\t// out\n        /* \"#utility.yul\":13563:13704   */\n    tag_112:\n        /* \"#utility.yul\":13612:13616   */\n      0x00\n        /* \"#utility.yul\":13635:13638   */\n      dup2\n        /* \"#utility.yul\":13627:13638   */\n      swap1\n      pop\n        /* \"#utility.yul\":13658:13661   */\n      dup2\n        /* \"#utility.yul\":13655:13656   */\n      0x00\n        /* \"#utility.yul\":13648:13662   */\n      mstore\n        /* \"#utility.yul\":13692:13696   */\n      0x20\n        /* \"#utility.yul\":13689:13690   */\n      0x00\n        /* \"#utility.yul\":13679:13697   */\n      keccak256\n        /* \"#utility.yul\":13671:13697   */\n      swap1\n      pop\n        /* \"#utility.yul\":13563:13704   */\n      swap2\n      swap1\n      pop\n      jump\t// out\n        /* \"#utility.yul\":13710:13803   */\n    tag_113:\n        /* \"#utility.yul\":13747:13753   */\n      0x00\n        /* \"#utility.yul\":13794:13796   */\n      0x20\n        /* \"#utility.yul\":13789:13791   */\n      0x1f\n        /* \"#utility.yul\":13782:13787   */\n      dup4\n        /* \"#utility.yul\":13778:13792   */\n      add\n        /* \"#utility.yul\":13774:13797   */\n      div\n        /* \"#utility.yul\":13764:13797   */\n      swap1\n      pop\n        /* \"#utility.yul\":13710:13803   */\n      swap2\n      swap1\n      pop\n      jump\t// out\n        /* \"#utility.yul\":13809:13916   */\n    tag_114:\n        /* \"#utility.yul\":13853:13861   */\n      0x00\n        /* \"#utility.yul\":13903:13908   */\n      dup3\n        /* \"#utility.yul\":13897:13901   */\n      dup3\n        /* \"#utility.yul\":13893:13909   */\n      shl\n        /* \"#utility.yul\":13872:13909   */\n      swap1\n      pop\n        /* \"#utility.yul\":13809:13916   */\n      swap3\n      swap2\n      pop\n      pop\n      jump\t// out\n        /* \"#utility.yul\":13922:14315   */\n    tag_115:\n        /* \"#utility.yul\":13991:13997   */\n      0x00\n        /* \"#utility.yul\":14041:14042   */\n      0x08\n        /* \"#utility.yul\":14029:14039   */\n      dup4\n        /* \"#utility.yul\":14025:14043   */\n      mul\n        /* \"#utility.yul\":14064:14161   */\n      tag_253\n        /* \"#utility.yul\":14094:14160   */\n      0xffffffffffffffffffffffffffffffffffffffffffffffffffffffffffffffff\n        /* \"#utility.yul\":14083:14092   */\n      dup3\n        /* \"#utility.yul\":14064:14161   */\n      tag_114\n      jump\t// in\n    tag_253:\n        /* \"#utility.yul\":14182:14221   */\n      tag_254\n        /* \"#utility.yul\":14212:14220   */\n      dup7\n        /* \"#utility.yul\":14201:14210   */\n      dup4\n        /* \"#utility.yul\":14182:14221   */\n      tag_114\n      jump\t// in\n    tag_254:\n        /* \"#utility.yul\":14170:14221   */\n      swap6\n      pop\n        /* \"#utility.yul\":14254:14258   */\n      dup1\n        /* \"#utility.yul\":14250:14259   */\n      not\n        /* \"#utility.yul\":14243:14248   */\n      dup5\n        /* \"#utility.yul\":14239:14260   */\n      and\n        /* \"#utility.yul\":14230:14260   */\n      swap4\n      pop\n        /* \"#utility.yul\":14303:14307   */\n      dup1\n        /* \"#utility.yul\":14293:14301   */\n      dup7\n        /* \"#utility.yul\":14289:14308   */\n      and\n        /* \"#utility.yul\":14282:14287   */\n      dup5\n        /* \"#utility.yul\":14279:14309   */\n      or\n        /* \"#utility.yul\":14269:14309   */\n      swap3\n      pop\n        /* \"#utility.yul\":13998:14315   */\n      pop\n      pop\n        /* \"#utility.yul\":13922:14315   */\n      swap4\n      swap3\n      pop\n      pop\n      pop\n      jump\t// out\n        /* \"#utility.yul\":14321:14381   */\n    tag_116:\n        /* \"#utility.yul\":14349:14352   */\n      0x00\n        /* \"#utility.yul\":14370:14375   */\n      dup2\n        /* \"#utility.yul\":14363:14375   */\n      swap1\n      pop\n        /* \"#utility.yul\":14321:14381   */\n      swap2\n      swap1\n      pop\n      jump\t// out\n        /* \"#utility.yul\":14387:14529   */\n    tag_117:\n        /* \"#utility.yul\":14437:14446   */\n      0x00\n        /* \"#utility.yul\":14470:14523   */\n      tag_257\n        /* \"#utility.yul\":14488:14522   */\n      tag_258\n        /* \"#utility.yul\":14497:14521   */\n      tag_259\n        /* \"#utility.yul\":14515:14520   */\n      dup5\n        /* \"#utility.yul\":14497:14521   */\n      tag_77\n      jump\t// in\n    tag_259:\n        /* \"#utility.yul\":14488:14522   */\n      tag_116\n      jump\t// in\n    tag_258:\n        /* \"#utility.yul\":14470:14523   */\n      tag_77\n      jump\t// in\n    tag_257:\n        /* \"#utility.yul\":14457:14523   */\n      swap1\n      pop\n        /* \"#utility.yul\":14387:14529   */\n      swap2\n      swap1\n      pop\n      jump\t// out\n        /* \"#utility.yul\":14535:14610   */\n    tag_118:\n        /* \"#utility.yul\":14578:14581   */\n      0x00\n        /* \"#utility.yul\":14599:14604   */\n      dup2\n        /* \"#utility.yul\":14592:14604   */\n      swap1\n      pop\n        /* \"#utility.yul\":14535:14610   */\n      swap2\n      swap1\n      pop\n      jump\t// out\n        /* \"#utility.yul\":14616:14885   */\n    tag_119:\n        /* \"#utility.yul\":14726:14765   */\n      tag_262\n        /* \"#utility.yul\":14757:14764   */\n      dup4\n        /* \"#utility.yul\":14726:14765   */\n      tag_117\n      jump\t// in\n    tag_262:\n        /* \"#utility.yul\":14787:14878   */\n      tag_263\n        /* \"#utility.yul\":14836:14877   */\n      tag_264\n        /* \"#utility.yul\":14860:14876   */\n      dup3\n        /* \"#utility.yul\":14836:14877   */\n      tag_118\n      jump\t// in\n    tag_264:\n        /* \"#utility.yul\":14828:14834   */\n      dup5\n        /* \"#utility.yul\":14821:14825   */\n      dup5\n        /* \"#utility.yul\":14815:14826   */\n      sload\n        /* \"#utility.yul\":14787:14878   */\n      tag_115\n      jump\t// in\n    tag_263:\n        /* \"#utility.yul\":14781:14785   */\n      dup3\n        /* \"#utility.yul\":14774:14879   */\n      sstore\n        /* \"#utility.yul\":14692:14885   */\n      pop\n        /* \"#utility.yul\":14616:14885   */\n      pop\n      pop\n      pop\n      jump\t// out\n        /* \"#utility.yul\":14891:14964   */\n    tag_120:\n        /* \"#utility.yul\":14936:14939   */\n      0x00\n        /* \"#utility.yul\":14891:14964   */\n      swap1\n      jump\t// out\n        /* \"#utility.yul\":14970:15159   */\n    tag_121:\n        /* \"#utility.yul\":15047:15079   */\n      tag_267\n      tag_120\n      jump\t// in\n    tag_267:\n        /* \"#utility.yul\":15088:15153   */\n      tag_268\n        /* \"#utility.yul\":15146:15152   */\n      dup2\n        /* \"#utility.yul\":15138:15144   */\n      dup5\n        /* \"#utility.yul\":15132:15136   */\n      dup5\n        /* \"#utility.yul\":15088:15153   */\n      tag_119\n      jump\t// in\n    tag_268:\n        /* \"#utility.yul\":15023:15159   */\n      pop\n        /* \"#utility.yul\":14970:15159   */\n      pop\n      pop\n      jump\t// out\n        /* \"#utility.yul\":15165:15351   */\n    tag_122:\n        /* \"#utility.yul\":15225:15345   */\n    tag_270:\n        /* \"#utility.yul\":15242:15245   */\n      dup2\n        /* \"#utility.yul\":15235:15240   */\n      dup2\n        /* \"#utility.yul\":15232:15246   */\n      lt\n        /* \"#utility.yul\":15225:15345   */\n      iszero\n      tag_272\n      jumpi\n        /* \"#utility.yul\":15296:15335   */\n      tag_273\n        /* \"#utility.yul\":15333:15334   */\n      0x00\n        /* \"#utility.yul\":15326:15331   */\n      dup3\n        /* \"#utility.yul\":15296:15335   */\n      tag_121\n      jump\t// in\n    tag_273:\n        /* \"#utility.yul\":15269:15270   */\n      0x01\n        /* \"#utility.yul\":15262:15267   */\n      dup2\n        /* \"#utility.yul\":15258:15271   */\n      add\n        /* \"#utility.yul\":15249:15271   */\n      swap1\n      pop\n        /* \"#utility.yul\":15225:15345   */\n      jump(tag_270)\n    tag_272:\n        /* \"#utility.yul\":15165:15351   */\n      pop\n      pop\n      jump\t// out\n        /* \"#utility.yul\":15357:15900   */\n    tag_123:\n        /* \"#utility.yul\":15458:15460   */\n      0x1f\n        /* \"#utility.yul\":15453:15456   */\n      dup3\n        /* \"#utility.yul\":15450:15461   */\n      gt\n        /* \"#utility.yul\":15447:15893   */\n      iszero\n      tag_275\n      jumpi\n        /* \"#utility.yul\":15492:15530   */\n      tag_276\n        /* \"#utility.yul\":15524:15529   */\n      dup2\n        /* \"#utility.yul\":15492:15530   */\n      tag_112\n      jump\t// in\n    tag_276:\n        /* \"#utility.yul\":15576:15605   */\n      tag_277\n        /* \"#utility.yul\":15594:15604   */\n      dup5\n        /* \"#utility.yul\":15576:15605   */\n      tag_113\n      jump\t// in\n    tag_277:\n        /* \"#utility.yul\":15566:15574   */\n      dup2\n        /* \"#utility.yul\":15562:15606   */\n      add\n        /* \"#utility.yul\":15759:15761   */\n      0x20\n        /* \"#utility.yul\":15747:15757   */\n      dup6\n        /* \"#utility.yul\":15744:15762   */\n      lt\n        /* \"#utility.yul\":15741:15790   */\n      iszero\n      tag_278\n      jumpi\n        /* \"#utility.yul\":15780:15788   */\n      dup2\n        /* \"#utility.yul\":15765:15788   */\n      swap1\n      pop\n        /* \"#utility.yul\":15741:15790   */\n    tag_278:\n        /* \"#utility.yul\":15803:15883   */\n      tag_279\n        /* \"#utility.yul\":15859:15881   */\n      tag_280\n        /* \"#utility.yul\":15877:15880   */\n      dup6\n        /* \"#utility.yul\":15859:15881   */\n      tag_113\n      jump\t// in\n    tag_280:\n        /* \"#utility.yul\":15849:15857   */\n      dup4\n        /* \"#utility.yul\":15845:15882   */\n      add\n        /* \"#utility.yul\":15832:15843   */\n      dup3\n        /* \"#utility.yul\":15803:15883   */\n      tag_122\n      jump\t// in\n    tag_279:\n        /* \"#utility.yul\":15462:15893   */\n      pop\n      pop\n        /* \"#utility.yul\":15447:15893   */\n    tag_275:\n        /* \"#utility.yul\":15357:15900   */\n      pop\n      pop\n      pop\n      jump\t// out\n        /* \"#utility.yul\":15906:16023   */\n    tag_124:\n        /* \"#utility.yul\":15960:15968   */\n      0x00\n        /* \"#utility.yul\":16010:16015   */\n      dup3\n        /* \"#utility.yul\":16004:16008   */\n      dup3\n        /* \"#utility.yul\":16000:16016   */\n      shr\n        /* \"#utility.yul\":15979:16016   */\n      swap1\n      pop\n        /* \"#utility.yul\":15906:16023   */\n      swap3\n      swap2\n      pop\n      pop\n      jump\t// out\n        /* \"#utility.yul\":16029:16198   */\n    tag_125:\n        /* \"#utility.yul\":16073:16079   */\n      0x00\n        /* \"#utility.yul\":16106:16157   */\n      tag_283\n        /* \"#utility.yul\":16154:16155   */\n      0x00\n        /* \"#utility.yul\":16150:16156   */\n      not\n        /* \"#utility.yul\":16142:16147   */\n      dup5\n        /* \"#utility.yul\":16139:16140   */\n      0x08\n        /* \"#utility.yul\":16135:16148   */\n      mul\n        /* \"#utility.yul\":16106:16157   */\n      tag_124\n      jump\t// in\n    tag_283:\n        /* \"#utility.yul\":16102:16158   */\n      not\n        /* \"#utility.yul\":16187:16191   */\n      dup1\n        /* \"#utility.yul\":16181:16185   */\n      dup4\n        /* \"#utility.yul\":16177:16192   */\n      and\n        /* \"#utility.yul\":16167:16192   */\n      swap2\n      pop\n        /* \"#utility.yul\":16080:16198   */\n      pop\n        /* \"#utility.yul\":16029:16198   */\n      swap3\n      swap2\n      pop\n      pop\n      jump\t// out\n        /* \"#utility.yul\":16203:16498   */\n    tag_126:\n        /* \"#utility.yul\":16279:16283   */\n      0x00\n        /* \"#utility.yul\":16425:16454   */\n      tag_285\n        /* \"#utility.yul\":16450:16453   */\n      dup4\n        /* \"#utility.yul\":16444:16448   */\n      dup4\n        /* \"#utility.yul\":16425:16454   */\n      tag_125\n      jump\t// in\n    tag_285:\n        /* \"#utility.yul\":16417:16454   */\n      swap2\n      pop\n        /* \"#utility.yul\":16487:16490   */\n      dup3\n        /* \"#utility.yul\":16484:16485   */\n      0x02\n        /* \"#utility.yul\":16480:16491   */\n      mul\n        /* \"#utility.yul\":16474:16478   */\n      dup3\n        /* \"#utility.yul\":16471:16492   */\n      or\n        /* \"#utility.yul\":16463:16492   */\n      swap1\n      pop\n        /* \"#utility.yul\":16203:16498   */\n      swap3\n      swap2\n      pop\n      pop\n      jump\t// out\n        /* \"#utility.yul\":16503:17898   */\n    tag_48:\n        /* \"#utility.yul\":16620:16657   */\n      tag_287\n        /* \"#utility.yul\":16653:16656   */\n      dup3\n        /* \"#utility.yul\":16620:16657   */\n      tag_91\n      jump\t// in\n    tag_287:\n        /* \"#utility.yul\":16722:16740   */\n      0xffffffffffffffff\n        /* \"#utility.yul\":16714:16720   */\n      dup2\n        /* \"#utility.yul\":16711:16741   */\n      gt\n        /* \"#utility.yul\":16708:16764   */\n      iszero\n      tag_288\n      jumpi\n        /* \"#utility.yul\":16744:16762   */\n      tag_289\n      tag_84\n      jump\t// in\n    tag_289:\n        /* \"#utility.yul\":16708:16764   */\n    tag_288:\n        /* \"#utility.yul\":16788:16826   */\n      tag_290\n        /* \"#utility.yul\":16820:16824   */\n      dup3\n        /* \"#utility.yul\":16814:16825   */\n      sload\n        /* \"#utility.yul\":16788:16826   */\n      tag_54\n      jump\t// in\n    tag_290:\n        /* \"#utility.yul\":16873:16940   */\n      tag_291\n        /* \"#utility.yul\":16933:16939   */\n      dup3\n        /* \"#utility.yul\":16925:16931   */\n      dup3\n        /* \"#utility.yul\":16919:16923   */\n      dup6\n        /* \"#utility.yul\":16873:16940   */\n      tag_123\n      jump\t// in\n    tag_291:\n        /* \"#utility.yul\":16967:16968   */\n      0x00\n        /* \"#utility.yul\":16991:16995   */\n      0x20\n        /* \"#utility.yul\":16978:16995   */\n      swap1\n      pop\n        /* \"#utility.yul\":17023:17025   */\n      0x1f\n        /* \"#utility.yul\":17015:17021   */\n      dup4\n        /* \"#utility.yul\":17012:17026   */\n      gt\n        /* \"#utility.yul\":17040:17041   */\n      0x01\n        /* \"#utility.yul\":17035:17653   */\n      dup2\n      eq\n      tag_293\n      jumpi\n        /* \"#utility.yul\":17697:17698   */\n      0x00\n        /* \"#utility.yul\":17714:17720   */\n      dup5\n        /* \"#utility.yul\":17711:17788   */\n      iszero\n      tag_294\n      jumpi\n        /* \"#utility.yul\":17763:17772   */\n      dup3\n        /* \"#utility.yul\":17758:17761   */\n      dup8\n        /* \"#utility.yul\":17754:17773   */\n      add\n        /* \"#utility.yul\":17748:17774   */\n      mload\n        /* \"#utility.yul\":17739:17774   */\n      swap1\n      pop\n        /* \"#utility.yul\":17711:17788   */\n    tag_294:\n        /* \"#utility.yul\":17814:17881   */\n      tag_295\n        /* \"#utility.yul\":17874:17880   */\n      dup6\n        /* \"#utility.yul\":17867:17872   */\n      dup3\n        /* \"#utility.yul\":17814:17881   */\n      tag_126\n      jump\t// in\n    tag_295:\n        /* \"#utility.yul\":17808:17812   */\n      dup7\n        /* \"#utility.yul\":17801:17882   */\n      sstore\n        /* \"#utility.yul\":17670:17892   */\n      pop\n        /* \"#utility.yul\":17005:17892   */\n      jump(tag_292)\n        /* \"#utility.yul\":17035:17653   */\n    tag_293:\n        /* \"#utility.yul\":17087:17091   */\n      0x1f\n        /* \"#utility.yul\":17083:17092   */\n      not\n        /* \"#utility.yul\":17075:17081   */\n      dup5\n        /* \"#utility.yul\":17071:17093   */\n      and\n        /* \"#utility.yul\":17121:17158   */\n      tag_296\n        /* \"#utility.yul\":17153:17157   */\n      dup7\n        /* \"#utility.yul\":17121:17158   */\n      tag_112\n      jump\t// in\n    tag_296:\n        /* \"#utility.yul\":17180:17181   */\n      0x00\n        /* \"#utility.yul\":17194:17402   */\n    tag_297:\n        /* \"#utility.yul\":17208:17215   */\n      dup3\n        /* \"#utility.yul\":17205:17206   */\n      dup2\n        /* \"#utility.yul\":17202:17216   */\n      lt\n        /* \"#utility.yul\":17194:17402   */\n      iszero\n      tag_299\n      jumpi\n        /* \"#utility.yul\":17287:17296   */\n      dup5\n        /* \"#utility.yul\":17282:17285   */\n      dup10\n        /* \"#utility.yul\":17278:17297   */\n      add\n        /* \"#utility.yul\":17272:17298   */\n      mload\n        /* \"#utility.yul\":17264:17270   */\n      dup3\n        /* \"#utility.yul\":17257:17299   */\n      sstore\n        /* \"#utility.yul\":17338:17339   */\n      0x01\n        /* \"#utility.yul\":17330:17336   */\n      dup3\n        /* \"#utility.yul\":17326:17340   */\n      add\n        /* \"#utility.yul\":17316:17340   */\n      swap2\n      pop\n        /* \"#utility.yul\":17385:17387   */\n      0x20\n        /* \"#utility.yul\":17374:17383   */\n      dup6\n        /* \"#utility.yul\":17370:17388   */\n      add\n        /* \"#utility.yul\":17357:17388   */\n      swap5\n      pop\n        /* \"#utility.yul\":17231:17235   */\n      0x20\n        /* \"#utility.yul\":17228:17229   */\n      dup2\n        /* \"#utility.yul\":17224:17236   */\n      add\n        /* \"#utility.yul\":17219:17236   */\n      swap1\n      pop\n        /* \"#utility.yul\":17194:17402   */\n      jump(tag_297)\n    tag_299:\n        /* \"#utility.yul\":17430:17436   */\n      dup7\n        /* \"#utility.yul\":17421:17428   */\n      dup4\n        /* \"#utility.yul\":17418:17437   */\n      lt\n        /* \"#utility.yul\":17415:17594   */\n      iszero\n      tag_300\n      jumpi\n        /* \"#utility.yul\":17488:17497   */\n      dup5\n        /* \"#utility.yul\":17483:17486   */\n      dup10\n        /* \"#utility.yul\":17479:17498   */\n      add\n        /* \"#utility.yul\":17473:17499   */\n      mload\n        /* \"#utility.yul\":17531:17579   */\n      tag_301\n        /* \"#utility.yul\":17573:17577   */\n      0x1f\n        /* \"#utility.yul\":17565:17571   */\n      dup10\n        /* \"#utility.yul\":17561:17578   */\n      and\n        /* \"#utility.yul\":17550:17559   */\n      dup3\n        /* \"#utility.yul\":17531:17579   */\n      tag_125\n      jump\t// in\n    tag_301:\n        /* \"#utility.yul\":17523:17529   */\n      dup4\n        /* \"#utility.yul\":17516:17580   */\n      sstore\n        /* \"#utility.yul\":17438:17594   */\n      pop\n        /* \"#utility.yul\":17415:17594   */\n    tag_300:\n        /* \"#utility.yul\":17640:17641   */\n      0x01\n        /* \"#utility.yul\":17636:17637   */\n      0x02\n        /* \"#utility.yul\":17628:17634   */\n      dup9\n        /* \"#utility.yul\":17624:17638   */\n      mul\n        /* \"#utility.yul\":17620:17642   */\n      add\n        /* \"#utility.yul\":17614:17618   */\n      dup9\n        /* \"#utility.yul\":17607:17643   */\n      sstore\n        /* \"#utility.yul\":17042:17653   */\n      pop\n      pop\n      pop\n        /* \"#utility.yul\":17005:17892   */\n    tag_292:\n      pop\n        /* \"#utility.yul\":16595:17898   */\n      pop\n      pop\n      pop\n        /* \"#utility.yul\":16503:17898   */\n      pop\n      pop\n      jump\t// out\n\n    auxdata: 0xa26469706673582212208262129f453548fa993329b9c8f7c08b3d739bc78dc43f692d18d7d4260a148764736f6c634300081a0033\n}\n",
				"bytecode": {
					"linkReferences": {},
					"object": "6080604052348015600e575f80fd5b506110088061001c5f395ff3fe60806040526004361061003e575f3560e01c80631315879f14610042578063136365481461005e57806359f26e961461009a578063607473cf146100c2575b5f80fd5b61005c60048036038101906100579190610750565b610104565b005b348015610069575f80fd5b50610084600480360381019061007f9190610750565b610315565b604051610091919061078a565b60405180910390f35b3480156100a5575f80fd5b506100c060048036038101906100bb91906108df565b610335565b005b3480156100cd575f80fd5b506100e860048036038101906100e39190610750565b61048c565b6040516100fb9796959493929190610a91565b60405180910390f35b5f805f8381526020019081526020015f2090508060030154341461015d576040517f08c379a000000000000000000000000000000000000000000000000000000000815260040161015490610b64565b60405180910390fd5b806004015f9054906101000a900460ff166101ad576040517f08c379a00000000000000000000000000000000000000000000000000000000081526004016101a490610bcc565b60405180910390fd5b33816006015f6101000a81548173ffffffffffffffffffffffffffffffffffffffff021916908373ffffffffffffffffffffffffffffffffffffffff1602179055505f816004015f6101000a81548160ff0219169083151502179055505f816006015f9054906101000a900473ffffffffffffffffffffffffffffffffffffffff1673ffffffffffffffffffffffffffffffffffffffff16826003015460405161025690610c17565b5f6040518083038185875af1925050503d805f8114610290576040519150601f19603f3d011682016040523d82523d5f602084013e610295565b606091505b50509050806102d9576040517f08c379a00000000000000000000000000000000000000000000000000000000081526004016102d090610c75565b60405180910390fd5b7f04ba5d41600a02c8b7e1ed4632cbf95b58ad9725c5d4acffc2daa81b2298ec9b836040516103089190610cdd565b60405180910390a1505050565b60018181548110610324575f80fd5b905f5260205f20015f915090505481565b5f6040518060e001604052808881526020018781526020018681526020018481526020016001151581526020018581526020013373ffffffffffffffffffffffffffffffffffffffff168152509050805f808481526020019081526020015f205f820151815f0190816103a89190610f03565b5060208201518160010190816103be9190610f03565b5060408201518160020190816103d49190610f03565b50606082015181600301556080820151816004015f6101000a81548160ff02191690831515021790555060a08201518160050190816104139190610f03565b5060c0820151816006015f6101000a81548173ffffffffffffffffffffffffffffffffffffffff021916908373ffffffffffffffffffffffffffffffffffffffff160217905550905050600182908060018154018082558091505060019003905f5260205f20015f909190919091505550505050505050565b5f602052805f5260405f205f91509050805f0180546104aa90610d36565b80601f01602080910402602001604051908101604052809291908181526020018280546104d690610d36565b80156105215780601f106104f857610100808354040283529160200191610521565b820191905f5260205f20905b81548152906001019060200180831161050457829003601f168201915b50505050509080600101805461053690610d36565b80601f016020809104026020016040519081016040528092919081815260200182805461056290610d36565b80156105ad5780601f10610584576101008083540402835291602001916105ad565b820191905f5260205f20905b81548152906001019060200180831161059057829003601f168201915b5050505050908060020180546105c290610d36565b80601f01602080910402602001604051908101604052809291908181526020018280546105ee90610d36565b80156106395780601f1061061057610100808354040283529160200191610639565b820191905f5260205f20905b81548152906001019060200180831161061c57829003601f168201915b505050505090806003015490806004015f9054906101000a900460ff169080600501805461066690610d36565b80601f016020809104026020016040519081016040528092919081815260200182805461069290610d36565b80156106dd5780601f106106b4576101008083540402835291602001916106dd565b820191905f5260205f20905b8154815290600101906020018083116106c057829003601f168201915b505050505090806006015f9054906101000a900473ffffffffffffffffffffffffffffffffffffffff16905087565b5f604051905090565b5f80fd5b5f80fd5b5f819050919050565b61072f8161071d565b8114610739575f80fd5b50565b5f8135905061074a81610726565b92915050565b5f6020828403121561076557610764610715565b5b5f6107728482850161073c565b91505092915050565b6107848161071d565b82525050565b5f60208201905061079d5f83018461077b565b92915050565b5f80fd5b5f80fd5b5f601f19601f8301169050919050565b7f4e487b71000000000000000000000000000000000000000000000000000000005f52604160045260245ffd5b6107f1826107ab565b810181811067ffffffffffffffff821117156108105761080f6107bb565b5b80604052505050565b5f61082261070c565b905061082e82826107e8565b919050565b5f67ffffffffffffffff82111561084d5761084c6107bb565b5b610856826107ab565b9050602081019050919050565b828183375f83830152505050565b5f61088361087e84610833565b610819565b90508281526020810184848401111561089f5761089e6107a7565b5b6108aa848285610863565b509392505050565b5f82601f8301126108c6576108c56107a3565b5b81356108d6848260208601610871565b91505092915050565b5f805f805f8060c087890312156108f9576108f8610715565b5b5f87013567ffffffffffffffff81111561091657610915610719565b5b61092289828a016108b2565b965050602087013567ffffffffffffffff81111561094357610942610719565b5b61094f89828a016108b2565b955050604087013567ffffffffffffffff8111156109705761096f610719565b5b61097c89828a016108b2565b945050606087013567ffffffffffffffff81111561099d5761099c610719565b5b6109a989828a016108b2565b93505060806109ba89828a0161073c565b92505060a06109cb89828a0161073c565b9150509295509295509295565b5f81519050919050565b5f82825260208201905092915050565b8281835e5f83830152505050565b5f610a0a826109d8565b610a1481856109e2565b9350610a248185602086016109f2565b610a2d816107ab565b840191505092915050565b5f8115159050919050565b610a4c81610a38565b82525050565b5f73ffffffffffffffffffffffffffffffffffffffff82169050919050565b5f610a7b82610a52565b9050919050565b610a8b81610a71565b82525050565b5f60e0820190508181035f830152610aa9818a610a00565b90508181036020830152610abd8189610a00565b90508181036040830152610ad18188610a00565b9050610ae0606083018761077b565b610aed6080830186610a43565b81810360a0830152610aff8185610a00565b9050610b0e60c0830184610a82565b98975050505050505050565b7f696e73756666696369656e742066756e647300000000000000000000000000005f82015250565b5f610b4e6012836109e2565b9150610b5982610b1a565b602082019050919050565b5f6020820190508181035f830152610b7b81610b42565b9050919050565b7f73686f65206973206e6f7420617661696c61626c6500000000000000000000005f82015250565b5f610bb66015836109e2565b9150610bc182610b82565b602082019050919050565b5f6020820190508181035f830152610be381610baa565b9050919050565b5f81905092915050565b50565b5f610c025f83610bea565b9150610c0d82610bf4565b5f82019050919050565b5f610c2182610bf7565b9150819050919050565b7f7472616e73616374696f6e206661696c656400000000000000000000000000005f82015250565b5f610c5f6012836109e2565b9150610c6a82610c2b565b602082019050919050565b5f6020820190508181035f830152610c8c81610c53565b9050919050565b7f73686f6520736f6c6400000000000000000000000000000000000000000000005f82015250565b5f610cc76009836109e2565b9150610cd282610c93565b602082019050919050565b5f604082019050610cf05f83018461077b565b8181036020830152610d0181610cbb565b905092915050565b7f4e487b71000000000000000000000000000000000000000000000000000000005f52602260045260245ffd5b5f6002820490506001821680610d4d57607f821691505b602082108103610d6057610d5f610d09565b5b50919050565b5f819050815f5260205f209050919050565b5f6020601f8301049050919050565b5f82821b905092915050565b5f60088302610dc27fffffffffffffffffffffffffffffffffffffffffffffffffffffffffffffffff82610d87565b610dcc8683610d87565b95508019841693508086168417925050509392505050565b5f819050919050565b5f610e07610e02610dfd8461071d565b610de4565b61071d565b9050919050565b5f819050919050565b610e2083610ded565b610e34610e2c82610e0e565b848454610d93565b825550505050565b5f90565b610e48610e3c565b610e53818484610e17565b505050565b5b81811015610e7657610e6b5f82610e40565b600181019050610e59565b5050565b601f821115610ebb57610e8c81610d66565b610e9584610d78565b81016020851015610ea4578190505b610eb8610eb085610d78565b830182610e58565b50505b505050565b5f82821c905092915050565b5f610edb5f1984600802610ec0565b1980831691505092915050565b5f610ef38383610ecc565b9150826002028217905092915050565b610f0c826109d8565b67ffffffffffffffff811115610f2557610f246107bb565b5b610f2f8254610d36565b610f3a828285610e7a565b5f60209050601f831160018114610f6b575f8415610f59578287015190505b610f638582610ee8565b865550610fca565b601f198416610f7986610d66565b5f5b82811015610fa057848901518255600182019150602085019450602081019050610f7b565b86831015610fbd5784890151610fb9601f891682610ecc565b8355505b6001600288020188555050505b50505050505056fea26469706673582212208262129f453548fa993329b9c8f7c08b3d739bc78dc43f692d18d7d4260a148764736f6c634300081a0033",
					"opcodes": "PUSH1 0x80 PUSH1 0x40 MSTORE CALLVALUE DUP1 ISZERO PUSH1 0xE JUMPI PUSH0 DUP1 REVERT JUMPDEST POP PUSH2 0x1008 DUP1 PUSH2 0x1C PUSH0 CODECOPY PUSH0 RETURN INVALID PUSH1 0x80 PUSH1 0x40 MSTORE PUSH1 0x4 CALLDATASIZE LT PUSH2 0x3E JUMPI PUSH0 CALLDATALOAD PUSH1 0xE0 SHR DUP1 PUSH4 0x1315879F EQ PUSH2 0x42 JUMPI DUP1 PUSH4 0x13636548 EQ PUSH2 0x5E JUMPI DUP1 PUSH4 0x59F26E96 EQ PUSH2 0x9A JUMPI DUP1 PUSH4 0x607473CF EQ PUSH2 0xC2 JUMPI JUMPDEST PUSH0 DUP1 REVERT JUMPDEST PUSH2 0x5C PUSH1 0x4 DUP1 CALLDATASIZE SUB DUP2 ADD SWAP1 PUSH2 0x57 SWAP2 SWAP1 PUSH2 0x750 JUMP JUMPDEST PUSH2 0x104 JUMP JUMPDEST STOP JUMPDEST CALLVALUE DUP1 ISZERO PUSH2 0x69 JUMPI PUSH0 DUP1 REVERT JUMPDEST POP PUSH2 0x84 PUSH1 0x4 DUP1 CALLDATASIZE SUB DUP2 ADD SWAP1 PUSH2 0x7F SWAP2 SWAP1 PUSH2 0x750 JUMP JUMPDEST PUSH2 0x315 JUMP JUMPDEST PUSH1 0x40 MLOAD PUSH2 0x91 SWAP2 SWAP1 PUSH2 0x78A JUMP JUMPDEST PUSH1 0x40 MLOAD DUP1 SWAP2 SUB SWAP1 RETURN JUMPDEST CALLVALUE DUP1 ISZERO PUSH2 0xA5 JUMPI PUSH0 DUP1 REVERT JUMPDEST POP PUSH2 0xC0 PUSH1 0x4 DUP1 CALLDATASIZE SUB DUP2 ADD SWAP1 PUSH2 0xBB SWAP2 SWAP1 PUSH2 0x8DF JUMP JUMPDEST PUSH2 0x335 JUMP JUMPDEST STOP JUMPDEST CALLVALUE DUP1 ISZERO PUSH2 0xCD JUMPI PUSH0 DUP1 REVERT JUMPDEST POP PUSH2 0xE8 PUSH1 0x4 DUP1 CALLDATASIZE SUB DUP2 ADD SWAP1 PUSH2 0xE3 SWAP2 SWAP1 PUSH2 0x750 JUMP JUMPDEST PUSH2 0x48C JUMP JUMPDEST PUSH1 0x40 MLOAD PUSH2 0xFB SWAP8 SWAP7 SWAP6 SWAP5 SWAP4 SWAP3 SWAP2 SWAP1 PUSH2 0xA91 JUMP JUMPDEST PUSH1 0x40 MLOAD DUP1 SWAP2 SUB SWAP1 RETURN JUMPDEST PUSH0 DUP1 PUSH0 DUP4 DUP2 MSTORE PUSH1 0x20 ADD SWAP1 DUP2 MSTORE PUSH1 0x20 ADD PUSH0 KECCAK256 SWAP1 POP DUP1 PUSH1 0x3 ADD SLOAD CALLVALUE EQ PUSH2 0x15D JUMPI PUSH1 0x40 MLOAD PUSH32 0x8C379A000000000000000000000000000000000000000000000000000000000 DUP2 MSTORE PUSH1 0x4 ADD PUSH2 0x154 SWAP1 PUSH2 0xB64 JUMP JUMPDEST PUSH1 0x40 MLOAD DUP1 SWAP2 SUB SWAP1 REVERT JUMPDEST DUP1 PUSH1 0x4 ADD PUSH0 SWAP1 SLOAD SWAP1 PUSH2 0x100 EXP SWAP1 DIV PUSH1 0xFF AND PUSH2 0x1AD JUMPI PUSH1 0x40 MLOAD PUSH32 0x8C379A000000000000000000000000000000000000000000000000000000000 DUP2 MSTORE PUSH1 0x4 ADD PUSH2 0x1A4 SWAP1 PUSH2 0xBCC JUMP JUMPDEST PUSH1 0x40 MLOAD DUP1 SWAP2 SUB SWAP1 REVERT JUMPDEST CALLER DUP2 PUSH1 0x6 ADD PUSH0 PUSH2 0x100 EXP DUP2 SLOAD DUP2 PUSH20 0xFFFFFFFFFFFFFFFFFFFFFFFFFFFFFFFFFFFFFFFF MUL NOT AND SWAP1 DUP4 PUSH20 0xFFFFFFFFFFFFFFFFFFFFFFFFFFFFFFFFFFFFFFFF AND MUL OR SWAP1 SSTORE POP PUSH0 DUP2 PUSH1 0x4 ADD PUSH0 PUSH2 0x100 EXP DUP2 SLOAD DUP2 PUSH1 0xFF MUL NOT AND SWAP1 DUP4 ISZERO ISZERO MUL OR SWAP1 SSTORE POP PUSH0 DUP2 PUSH1 0x6 ADD PUSH0 SWAP1 SLOAD SWAP1 PUSH2 0x100 EXP SWAP1 DIV PUSH20 0xFFFFFFFFFFFFFFFFFFFFFFFFFFFFFFFFFFFFFFFF AND PUSH20 0xFFFFFFFFFFFFFFFFFFFFFFFFFFFFFFFFFFFFFFFF AND DUP3 PUSH1 0x3 ADD SLOAD PUSH1 0x40 MLOAD PUSH2 0x256 SWAP1 PUSH2 0xC17 JUMP JUMPDEST PUSH0 PUSH1 0x40 MLOAD DUP1 DUP4 SUB DUP2 DUP6 DUP8 GAS CALL SWAP3 POP POP POP RETURNDATASIZE DUP1 PUSH0 DUP2 EQ PUSH2 0x290 JUMPI PUSH1 0x40 MLOAD SWAP2 POP PUSH1 0x1F NOT PUSH1 0x3F RETURNDATASIZE ADD AND DUP3 ADD PUSH1 0x40 MSTORE RETURNDATASIZE DUP3 MSTORE RETURNDATASIZE PUSH0 PUSH1 0x20 DUP5 ADD RETURNDATACOPY PUSH2 0x295 JUMP JUMPDEST PUSH1 0x60 SWAP2 POP JUMPDEST POP POP SWAP1 POP DUP1 PUSH2 0x2D9 JUMPI PUSH1 0x40 MLOAD PUSH32 0x8C379A000000000000000000000000000000000000000000000000000000000 DUP2 MSTORE PUSH1 0x4 ADD PUSH2 0x2D0 SWAP1 PUSH2 0xC75 JUMP JUMPDEST PUSH1 0x40 MLOAD DUP1 SWAP2 SUB SWAP1 REVERT JUMPDEST PUSH32 0x4BA5D41600A02C8B7E1ED4632CBF95B58AD9725C5D4ACFFC2DAA81B2298EC9B DUP4 PUSH1 0x40 MLOAD PUSH2 0x308 SWAP2 SWAP1 PUSH2 0xCDD JUMP JUMPDEST PUSH1 0x40 MLOAD DUP1 SWAP2 SUB SWAP1 LOG1 POP POP POP JUMP JUMPDEST PUSH1 0x1 DUP2 DUP2 SLOAD DUP2 LT PUSH2 0x324 JUMPI PUSH0 DUP1 REVERT JUMPDEST SWAP1 PUSH0 MSTORE PUSH1 0x20 PUSH0 KECCAK256 ADD PUSH0 SWAP2 POP SWAP1 POP SLOAD DUP2 JUMP JUMPDEST PUSH0 PUSH1 0x40 MLOAD DUP1 PUSH1 0xE0 ADD PUSH1 0x40 MSTORE DUP1 DUP9 DUP2 MSTORE PUSH1 0x20 ADD DUP8 DUP2 MSTORE PUSH1 0x20 ADD DUP7 DUP2 MSTORE PUSH1 0x20 ADD DUP5 DUP2 MSTORE PUSH1 0x20 ADD PUSH1 0x1 ISZERO ISZERO DUP2 MSTORE PUSH1 0x20 ADD DUP6 DUP2 MSTORE PUSH1 0x20 ADD CALLER PUSH20 0xFFFFFFFFFFFFFFFFFFFFFFFFFFFFFFFFFFFFFFFF AND DUP2 MSTORE POP SWAP1 POP DUP1 PUSH0 DUP1 DUP5 DUP2 MSTORE PUSH1 0x20 ADD SWAP1 DUP2 MSTORE PUSH1 0x20 ADD PUSH0 KECCAK256 PUSH0 DUP3 ADD MLOAD DUP2 PUSH0 ADD SWAP1 DUP2 PUSH2 0x3A8 SWAP2 SWAP1 PUSH2 0xF03 JUMP JUMPDEST POP PUSH1 0x20 DUP3 ADD MLOAD DUP2 PUSH1 0x1 ADD SWAP1 DUP2 PUSH2 0x3BE SWAP2 SWAP1 PUSH2 0xF03 JUMP JUMPDEST POP PUSH1 0x40 DUP3 ADD MLOAD DUP2 PUSH1 0x2 ADD SWAP1 DUP2 PUSH2 0x3D4 SWAP2 SWAP1 PUSH2 0xF03 JUMP JUMPDEST POP PUSH1 0x60 DUP3 ADD MLOAD DUP2 PUSH1 0x3 ADD SSTORE PUSH1 0x80 DUP3 ADD MLOAD DUP2 PUSH1 0x4 ADD PUSH0 PUSH2 0x100 EXP DUP2 SLOAD DUP2 PUSH1 0xFF MUL NOT AND SWAP1 DUP4 ISZERO ISZERO MUL OR SWAP1 SSTORE POP PUSH1 0xA0 DUP3 ADD MLOAD DUP2 PUSH1 0x5 ADD SWAP1 DUP2 PUSH2 0x413 SWAP2 SWAP1 PUSH2 0xF03 JUMP JUMPDEST POP PUSH1 0xC0 DUP3 ADD MLOAD DUP2 PUSH1 0x6 ADD PUSH0 PUSH2 0x100 EXP DUP2 SLOAD DUP2 PUSH20 0xFFFFFFFFFFFFFFFFFFFFFFFFFFFFFFFFFFFFFFFF MUL NOT AND SWAP1 DUP4 PUSH20 0xFFFFFFFFFFFFFFFFFFFFFFFFFFFFFFFFFFFFFFFF AND MUL OR SWAP1 SSTORE POP SWAP1 POP POP PUSH1 0x1 DUP3 SWAP1 DUP1 PUSH1 0x1 DUP2 SLOAD ADD DUP1 DUP3 SSTORE DUP1 SWAP2 POP POP PUSH1 0x1 SWAP1 SUB SWAP1 PUSH0 MSTORE PUSH1 0x20 PUSH0 KECCAK256 ADD PUSH0 SWAP1 SWAP2 SWAP1 SWAP2 SWAP1 SWAP2 POP SSTORE POP POP POP POP POP POP POP JUMP JUMPDEST PUSH0 PUSH1 0x20 MSTORE DUP1 PUSH0 MSTORE PUSH1 0x40 PUSH0 KECCAK256 PUSH0 SWAP2 POP SWAP1 POP DUP1 PUSH0 ADD DUP1 SLOAD PUSH2 0x4AA SWAP1 PUSH2 0xD36 JUMP JUMPDEST DUP1 PUSH1 0x1F ADD PUSH1 0x20 DUP1 SWAP2 DIV MUL PUSH1 0x20 ADD PUSH1 0x40 MLOAD SWAP1 DUP2 ADD PUSH1 0x40 MSTORE DUP1 SWAP3 SWAP2 SWAP1 DUP2 DUP2 MSTORE PUSH1 0x20 ADD DUP3 DUP1 SLOAD PUSH2 0x4D6 SWAP1 PUSH2 0xD36 JUMP JUMPDEST DUP1 ISZERO PUSH2 0x521 JUMPI DUP1 PUSH1 0x1F LT PUSH2 0x4F8 JUMPI PUSH2 0x100 DUP1 DUP4 SLOAD DIV MUL DUP4 MSTORE SWAP2 PUSH1 0x20 ADD SWAP2 PUSH2 0x521 JUMP JUMPDEST DUP3 ADD SWAP2 SWAP1 PUSH0 MSTORE PUSH1 0x20 PUSH0 KECCAK256 SWAP1 JUMPDEST DUP2 SLOAD DUP2 MSTORE SWAP1 PUSH1 0x1 ADD SWAP1 PUSH1 0x20 ADD DUP1 DUP4 GT PUSH2 0x504 JUMPI DUP3 SWAP1 SUB PUSH1 0x1F AND DUP3 ADD SWAP2 JUMPDEST POP POP POP POP POP SWAP1 DUP1 PUSH1 0x1 ADD DUP1 SLOAD PUSH2 0x536 SWAP1 PUSH2 0xD36 JUMP JUMPDEST DUP1 PUSH1 0x1F ADD PUSH1 0x20 DUP1 SWAP2 DIV MUL PUSH1 0x20 ADD PUSH1 0x40 MLOAD SWAP1 DUP2 ADD PUSH1 0x40 MSTORE DUP1 SWAP3 SWAP2 SWAP1 DUP2 DUP2 MSTORE PUSH1 0x20 ADD DUP3 DUP1 SLOAD PUSH2 0x562 SWAP1 PUSH2 0xD36 JUMP JUMPDEST DUP1 ISZERO PUSH2 0x5AD JUMPI DUP1 PUSH1 0x1F LT PUSH2 0x584 JUMPI PUSH2 0x100 DUP1 DUP4 SLOAD DIV MUL DUP4 MSTORE SWAP2 PUSH1 0x20 ADD SWAP2 PUSH2 0x5AD JUMP JUMPDEST DUP3 ADD SWAP2 SWAP1 PUSH0 MSTORE PUSH1 0x20 PUSH0 KECCAK256 SWAP1 JUMPDEST DUP2 SLOAD DUP2 MSTORE SWAP1 PUSH1 0x1 ADD SWAP1 PUSH1 0x20 ADD DUP1 DUP4 GT PUSH2 0x590 JUMPI DUP3 SWAP1 SUB PUSH1 0x1F AND DUP3 ADD SWAP2 JUMPDEST POP POP POP POP POP SWAP1 DUP1 PUSH1 0x2 ADD DUP1 SLOAD PUSH2 0x5C2 SWAP1 PUSH2 0xD36 JUMP JUMPDEST DUP1 PUSH1 0x1F ADD PUSH1 0x20 DUP1 SWAP2 DIV MUL PUSH1 0x20 ADD PUSH1 0x40 MLOAD SWAP1 DUP2 ADD PUSH1 0x40 MSTORE DUP1 SWAP3 SWAP2 SWAP1 DUP2 DUP2 MSTORE PUSH1 0x20 ADD DUP3 DUP1 SLOAD PUSH2 0x5EE SWAP1 PUSH2 0xD36 JUMP JUMPDEST DUP1 ISZERO PUSH2 0x639 JUMPI DUP1 PUSH1 0x1F LT PUSH2 0x610 JUMPI PUSH2 0x100 DUP1 DUP4 SLOAD DIV MUL DUP4 MSTORE SWAP2 PUSH1 0x20 ADD SWAP2 PUSH2 0x639 JUMP JUMPDEST DUP3 ADD SWAP2 SWAP1 PUSH0 MSTORE PUSH1 0x20 PUSH0 KECCAK256 SWAP1 JUMPDEST DUP2 SLOAD DUP2 MSTORE SWAP1 PUSH1 0x1 ADD SWAP1 PUSH1 0x20 ADD DUP1 DUP4 GT PUSH2 0x61C JUMPI DUP3 SWAP1 SUB PUSH1 0x1F AND DUP3 ADD SWAP2 JUMPDEST POP POP POP POP POP SWAP1 DUP1 PUSH1 0x3 ADD SLOAD SWAP1 DUP1 PUSH1 0x4 ADD PUSH0 SWAP1 SLOAD SWAP1 PUSH2 0x100 EXP SWAP1 DIV PUSH1 0xFF AND SWAP1 DUP1 PUSH1 0x5 ADD DUP1 SLOAD PUSH2 0x666 SWAP1 PUSH2 0xD36 JUMP JUMPDEST DUP1 PUSH1 0x1F ADD PUSH1 0x20 DUP1 SWAP2 DIV MUL PUSH1 0x20 ADD PUSH1 0x40 MLOAD SWAP1 DUP2 ADD PUSH1 0x40 MSTORE DUP1 SWAP3 SWAP2 SWAP1 DUP2 DUP2 MSTORE PUSH1 0x20 ADD DUP3 DUP1 SLOAD PUSH2 0x692 SWAP1 PUSH2 0xD36 JUMP JUMPDEST DUP1 ISZERO PUSH2 0x6DD JUMPI DUP1 PUSH1 0x1F LT PUSH2 0x6B4 JUMPI PUSH2 0x100 DUP1 DUP4 SLOAD DIV MUL DUP4 MSTORE SWAP2 PUSH1 0x20 ADD SWAP2 PUSH2 0x6DD JUMP JUMPDEST DUP3 ADD SWAP2 SWAP1 PUSH0 MSTORE PUSH1 0x20 PUSH0 KECCAK256 SWAP1 JUMPDEST DUP2 SLOAD DUP2 MSTORE SWAP1 PUSH1 0x1 ADD SWAP1 PUSH1 0x20 ADD DUP1 DUP4 GT PUSH2 0x6C0 JUMPI DUP3 SWAP1 SUB PUSH1 0x1F AND DUP3 ADD SWAP2 JUMPDEST POP POP POP POP POP SWAP1 DUP1 PUSH1 0x6 ADD PUSH0 SWAP1 SLOAD SWAP1 PUSH2 0x100 EXP SWAP1 DIV PUSH20 0xFFFFFFFFFFFFFFFFFFFFFFFFFFFFFFFFFFFFFFFF AND SWAP1 POP DUP8 JUMP JUMPDEST PUSH0 PUSH1 0x40 MLOAD SWAP1 POP SWAP1 JUMP JUMPDEST PUSH0 DUP1 REVERT JUMPDEST PUSH0 DUP1 REVERT JUMPDEST PUSH0 DUP2 SWAP1 POP SWAP2 SWAP1 POP JUMP JUMPDEST PUSH2 0x72F DUP2 PUSH2 0x71D JUMP JUMPDEST DUP2 EQ PUSH2 0x739 JUMPI PUSH0 DUP1 REVERT JUMPDEST POP JUMP JUMPDEST PUSH0 DUP2 CALLDATALOAD SWAP1 POP PUSH2 0x74A DUP2 PUSH2 0x726 JUMP JUMPDEST SWAP3 SWAP2 POP POP JUMP JUMPDEST PUSH0 PUSH1 0x20 DUP3 DUP5 SUB SLT ISZERO PUSH2 0x765 JUMPI PUSH2 0x764 PUSH2 0x715 JUMP JUMPDEST JUMPDEST PUSH0 PUSH2 0x772 DUP5 DUP3 DUP6 ADD PUSH2 0x73C JUMP JUMPDEST SWAP2 POP POP SWAP3 SWAP2 POP POP JUMP JUMPDEST PUSH2 0x784 DUP2 PUSH2 0x71D JUMP JUMPDEST DUP3 MSTORE POP POP JUMP JUMPDEST PUSH0 PUSH1 0x20 DUP3 ADD SWAP1 POP PUSH2 0x79D PUSH0 DUP4 ADD DUP5 PUSH2 0x77B JUMP JUMPDEST SWAP3 SWAP2 POP POP JUMP JUMPDEST PUSH0 DUP1 REVERT JUMPDEST PUSH0 DUP1 REVERT JUMPDEST PUSH0 PUSH1 0x1F NOT PUSH1 0x1F DUP4 ADD AND SWAP1 POP SWAP2 SWAP1 POP JUMP JUMPDEST PUSH32 0x4E487B7100000000000000000000000000000000000000000000000000000000 PUSH0 MSTORE PUSH1 0x41 PUSH1 0x4 MSTORE PUSH1 0x24 PUSH0 REVERT JUMPDEST PUSH2 0x7F1 DUP3 PUSH2 0x7AB JUMP JUMPDEST DUP2 ADD DUP2 DUP2 LT PUSH8 0xFFFFFFFFFFFFFFFF DUP3 GT OR ISZERO PUSH2 0x810 JUMPI PUSH2 0x80F PUSH2 0x7BB JUMP JUMPDEST JUMPDEST DUP1 PUSH1 0x40 MSTORE POP POP POP JUMP JUMPDEST PUSH0 PUSH2 0x822 PUSH2 0x70C JUMP JUMPDEST SWAP1 POP PUSH2 0x82E DUP3 DUP3 PUSH2 0x7E8 JUMP JUMPDEST SWAP2 SWAP1 POP JUMP JUMPDEST PUSH0 PUSH8 0xFFFFFFFFFFFFFFFF DUP3 GT ISZERO PUSH2 0x84D JUMPI PUSH2 0x84C PUSH2 0x7BB JUMP JUMPDEST JUMPDEST PUSH2 0x856 DUP3 PUSH2 0x7AB JUMP JUMPDEST SWAP1 POP PUSH1 0x20 DUP2 ADD SWAP1 POP SWAP2 SWAP1 POP JUMP JUMPDEST DUP3 DUP2 DUP4 CALLDATACOPY PUSH0 DUP4 DUP4 ADD MSTORE POP POP POP JUMP JUMPDEST PUSH0 PUSH2 0x883 PUSH2 0x87E DUP5 PUSH2 0x833 JUMP JUMPDEST PUSH2 0x819 JUMP JUMPDEST SWAP1 POP DUP3 DUP2 MSTORE PUSH1 0x20 DUP2 ADD DUP5 DUP5 DUP5 ADD GT ISZERO PUSH2 0x89F JUMPI PUSH2 0x89E PUSH2 0x7A7 JUMP JUMPDEST JUMPDEST PUSH2 0x8AA DUP5 DUP3 DUP6 PUSH2 0x863 JUMP JUMPDEST POP SWAP4 SWAP3 POP POP POP JUMP JUMPDEST PUSH0 DUP3 PUSH1 0x1F DUP4 ADD SLT PUSH2 0x8C6 JUMPI PUSH2 0x8C5 PUSH2 0x7A3 JUMP JUMPDEST JUMPDEST DUP2 CALLDATALOAD PUSH2 0x8D6 DUP5 DUP3 PUSH1 0x20 DUP7 ADD PUSH2 0x871 JUMP JUMPDEST SWAP2 POP POP SWAP3 SWAP2 POP POP JUMP JUMPDEST PUSH0 DUP1 PUSH0 DUP1 PUSH0 DUP1 PUSH1 0xC0 DUP8 DUP10 SUB SLT ISZERO PUSH2 0x8F9 JUMPI PUSH2 0x8F8 PUSH2 0x715 JUMP JUMPDEST JUMPDEST PUSH0 DUP8 ADD CALLDATALOAD PUSH8 0xFFFFFFFFFFFFFFFF DUP2 GT ISZERO PUSH2 0x916 JUMPI PUSH2 0x915 PUSH2 0x719 JUMP JUMPDEST JUMPDEST PUSH2 0x922 DUP10 DUP3 DUP11 ADD PUSH2 0x8B2 JUMP JUMPDEST SWAP7 POP POP PUSH1 0x20 DUP8 ADD CALLDATALOAD PUSH8 0xFFFFFFFFFFFFFFFF DUP2 GT ISZERO PUSH2 0x943 JUMPI PUSH2 0x942 PUSH2 0x719 JUMP JUMPDEST JUMPDEST PUSH2 0x94F DUP10 DUP3 DUP11 ADD PUSH2 0x8B2 JUMP JUMPDEST SWAP6 POP POP PUSH1 0x40 DUP8 ADD CALLDATALOAD PUSH8 0xFFFFFFFFFFFFFFFF DUP2 GT ISZERO PUSH2 0x970 JUMPI PUSH2 0x96F PUSH2 0x719 JUMP JUMPDEST JUMPDEST PUSH2 0x97C DUP10 DUP3 DUP11 ADD PUSH2 0x8B2 JUMP JUMPDEST SWAP5 POP POP PUSH1 0x60 DUP8 ADD CALLDATALOAD PUSH8 0xFFFFFFFFFFFFFFFF DUP2 GT ISZERO PUSH2 0x99D JUMPI PUSH2 0x99C PUSH2 0x719 JUMP JUMPDEST JUMPDEST PUSH2 0x9A9 DUP10 DUP3 DUP11 ADD PUSH2 0x8B2 JUMP JUMPDEST SWAP4 POP POP PUSH1 0x80 PUSH2 0x9BA DUP10 DUP3 DUP11 ADD PUSH2 0x73C JUMP JUMPDEST SWAP3 POP POP PUSH1 0xA0 PUSH2 0x9CB DUP10 DUP3 DUP11 ADD PUSH2 0x73C JUMP JUMPDEST SWAP2 POP POP SWAP3 SWAP6 POP SWAP3 SWAP6 POP SWAP3 SWAP6 JUMP JUMPDEST PUSH0 DUP2 MLOAD SWAP1 POP SWAP2 SWAP1 POP JUMP JUMPDEST PUSH0 DUP3 DUP3 MSTORE PUSH1 0x20 DUP3 ADD SWAP1 POP SWAP3 SWAP2 POP POP JUMP JUMPDEST DUP3 DUP2 DUP4 MCOPY PUSH0 DUP4 DUP4 ADD MSTORE POP POP POP JUMP JUMPDEST PUSH0 PUSH2 0xA0A DUP3 PUSH2 0x9D8 JUMP JUMPDEST PUSH2 0xA14 DUP2 DUP6 PUSH2 0x9E2 JUMP JUMPDEST SWAP4 POP PUSH2 0xA24 DUP2 DUP6 PUSH1 0x20 DUP7 ADD PUSH2 0x9F2 JUMP JUMPDEST PUSH2 0xA2D DUP2 PUSH2 0x7AB JUMP JUMPDEST DUP5 ADD SWAP2 POP POP SWAP3 SWAP2 POP POP JUMP JUMPDEST PUSH0 DUP2 ISZERO ISZERO SWAP1 POP SWAP2 SWAP1 POP JUMP JUMPDEST PUSH2 0xA4C DUP2 PUSH2 0xA38 JUMP JUMPDEST DUP3 MSTORE POP POP JUMP JUMPDEST PUSH0 PUSH20 0xFFFFFFFFFFFFFFFFFFFFFFFFFFFFFFFFFFFFFFFF DUP3 AND SWAP1 POP SWAP2 SWAP1 POP JUMP JUMPDEST PUSH0 PUSH2 0xA7B DUP3 PUSH2 0xA52 JUMP JUMPDEST SWAP1 POP SWAP2 SWAP1 POP JUMP JUMPDEST PUSH2 0xA8B DUP2 PUSH2 0xA71 JUMP JUMPDEST DUP3 MSTORE POP POP JUMP JUMPDEST PUSH0 PUSH1 0xE0 DUP3 ADD SWAP1 POP DUP2 DUP2 SUB PUSH0 DUP4 ADD MSTORE PUSH2 0xAA9 DUP2 DUP11 PUSH2 0xA00 JUMP JUMPDEST SWAP1 POP DUP2 DUP2 SUB PUSH1 0x20 DUP4 ADD MSTORE PUSH2 0xABD DUP2 DUP10 PUSH2 0xA00 JUMP JUMPDEST SWAP1 POP DUP2 DUP2 SUB PUSH1 0x40 DUP4 ADD MSTORE PUSH2 0xAD1 DUP2 DUP9 PUSH2 0xA00 JUMP JUMPDEST SWAP1 POP PUSH2 0xAE0 PUSH1 0x60 DUP4 ADD DUP8 PUSH2 0x77B JUMP JUMPDEST PUSH2 0xAED PUSH1 0x80 DUP4 ADD DUP7 PUSH2 0xA43 JUMP JUMPDEST DUP2 DUP2 SUB PUSH1 0xA0 DUP4 ADD MSTORE PUSH2 0xAFF DUP2 DUP6 PUSH2 0xA00 JUMP JUMPDEST SWAP1 POP PUSH2 0xB0E PUSH1 0xC0 DUP4 ADD DUP5 PUSH2 0xA82 JUMP JUMPDEST SWAP9 SWAP8 POP POP POP POP POP POP POP POP JUMP JUMPDEST PUSH32 0x696E73756666696369656E742066756E64730000000000000000000000000000 PUSH0 DUP3 ADD MSTORE POP JUMP JUMPDEST PUSH0 PUSH2 0xB4E PUSH1 0x12 DUP4 PUSH2 0x9E2 JUMP JUMPDEST SWAP2 POP PUSH2 0xB59 DUP3 PUSH2 0xB1A JUMP JUMPDEST PUSH1 0x20 DUP3 ADD SWAP1 POP SWAP2 SWAP1 POP JUMP JUMPDEST PUSH0 PUSH1 0x20 DUP3 ADD SWAP1 POP DUP2 DUP2 SUB PUSH0 DUP4 ADD MSTORE PUSH2 0xB7B DUP2 PUSH2 0xB42 JUMP JUMPDEST SWAP1 POP SWAP2 SWAP1 POP JUMP JUMPDEST PUSH32 0x73686F65206973206E6F7420617661696C61626C650000000000000000000000 PUSH0 DUP3 ADD MSTORE POP JUMP JUMPDEST PUSH0 PUSH2 0xBB6 PUSH1 0x15 DUP4 PUSH2 0x9E2 JUMP JUMPDEST SWAP2 POP PUSH2 0xBC1 DUP3 PUSH2 0xB82 JUMP JUMPDEST PUSH1 0x20 DUP3 ADD SWAP1 POP SWAP2 SWAP1 POP JUMP JUMPDEST PUSH0 PUSH1 0x20 DUP3 ADD SWAP1 POP DUP2 DUP2 SUB PUSH0 DUP4 ADD MSTORE PUSH2 0xBE3 DUP2 PUSH2 0xBAA JUMP JUMPDEST SWAP1 POP SWAP2 SWAP1 POP JUMP JUMPDEST PUSH0 DUP2 SWAP1 POP SWAP3 SWAP2 POP POP JUMP JUMPDEST POP JUMP JUMPDEST PUSH0 PUSH2 0xC02 PUSH0 DUP4 PUSH2 0xBEA JUMP JUMPDEST SWAP2 POP PUSH2 0xC0D DUP3 PUSH2 0xBF4 JUMP JUMPDEST PUSH0 DUP3 ADD SWAP1 POP SWAP2 SWAP1 POP JUMP JUMPDEST PUSH0 PUSH2 0xC21 DUP3 PUSH2 0xBF7 JUMP JUMPDEST SWAP2 POP DUP2 SWAP1 POP SWAP2 SWAP1 POP JUMP JUMPDEST PUSH32 0x7472616E73616374696F6E206661696C65640000000000000000000000000000 PUSH0 DUP3 ADD MSTORE POP JUMP JUMPDEST PUSH0 PUSH2 0xC5F PUSH1 0x12 DUP4 PUSH2 0x9E2 JUMP JUMPDEST SWAP2 POP PUSH2 0xC6A DUP3 PUSH2 0xC2B JUMP JUMPDEST PUSH1 0x20 DUP3 ADD SWAP1 POP SWAP2 SWAP1 POP JUMP JUMPDEST PUSH0 PUSH1 0x20 DUP3 ADD SWAP1 POP DUP2 DUP2 SUB PUSH0 DUP4 ADD MSTORE PUSH2 0xC8C DUP2 PUSH2 0xC53 JUMP JUMPDEST SWAP1 POP SWAP2 SWAP1 POP JUMP JUMPDEST PUSH32 0x73686F6520736F6C640000000000000000000000000000000000000000000000 PUSH0 DUP3 ADD MSTORE POP JUMP JUMPDEST PUSH0 PUSH2 0xCC7 PUSH1 0x9 DUP4 PUSH2 0x9E2 JUMP JUMPDEST SWAP2 POP PUSH2 0xCD2 DUP3 PUSH2 0xC93 JUMP JUMPDEST PUSH1 0x20 DUP3 ADD SWAP1 POP SWAP2 SWAP1 POP JUMP JUMPDEST PUSH0 PUSH1 0x40 DUP3 ADD SWAP1 POP PUSH2 0xCF0 PUSH0 DUP4 ADD DUP5 PUSH2 0x77B JUMP JUMPDEST DUP2 DUP2 SUB PUSH1 0x20 DUP4 ADD MSTORE PUSH2 0xD01 DUP2 PUSH2 0xCBB JUMP JUMPDEST SWAP1 POP SWAP3 SWAP2 POP POP JUMP JUMPDEST PUSH32 0x4E487B7100000000000000000000000000000000000000000000000000000000 PUSH0 MSTORE PUSH1 0x22 PUSH1 0x4 MSTORE PUSH1 0x24 PUSH0 REVERT JUMPDEST PUSH0 PUSH1 0x2 DUP3 DIV SWAP1 POP PUSH1 0x1 DUP3 AND DUP1 PUSH2 0xD4D JUMPI PUSH1 0x7F DUP3 AND SWAP2 POP JUMPDEST PUSH1 0x20 DUP3 LT DUP2 SUB PUSH2 0xD60 JUMPI PUSH2 0xD5F PUSH2 0xD09 JUMP JUMPDEST JUMPDEST POP SWAP2 SWAP1 POP JUMP JUMPDEST PUSH0 DUP2 SWAP1 POP DUP2 PUSH0 MSTORE PUSH1 0x20 PUSH0 KECCAK256 SWAP1 POP SWAP2 SWAP1 POP JUMP JUMPDEST PUSH0 PUSH1 0x20 PUSH1 0x1F DUP4 ADD DIV SWAP1 POP SWAP2 SWAP1 POP JUMP JUMPDEST PUSH0 DUP3 DUP3 SHL SWAP1 POP SWAP3 SWAP2 POP POP JUMP JUMPDEST PUSH0 PUSH1 0x8 DUP4 MUL PUSH2 0xDC2 PUSH32 0xFFFFFFFFFFFFFFFFFFFFFFFFFFFFFFFFFFFFFFFFFFFFFFFFFFFFFFFFFFFFFFFF DUP3 PUSH2 0xD87 JUMP JUMPDEST PUSH2 0xDCC DUP7 DUP4 PUSH2 0xD87 JUMP JUMPDEST SWAP6 POP DUP1 NOT DUP5 AND SWAP4 POP DUP1 DUP7 AND DUP5 OR SWAP3 POP POP POP SWAP4 SWAP3 POP POP POP JUMP JUMPDEST PUSH0 DUP2 SWAP1 POP SWAP2 SWAP1 POP JUMP JUMPDEST PUSH0 PUSH2 0xE07 PUSH2 0xE02 PUSH2 0xDFD DUP5 PUSH2 0x71D JUMP JUMPDEST PUSH2 0xDE4 JUMP JUMPDEST PUSH2 0x71D JUMP JUMPDEST SWAP1 POP SWAP2 SWAP1 POP JUMP JUMPDEST PUSH0 DUP2 SWAP1 POP SWAP2 SWAP1 POP JUMP JUMPDEST PUSH2 0xE20 DUP4 PUSH2 0xDED JUMP JUMPDEST PUSH2 0xE34 PUSH2 0xE2C DUP3 PUSH2 0xE0E JUMP JUMPDEST DUP5 DUP5 SLOAD PUSH2 0xD93 JUMP JUMPDEST DUP3 SSTORE POP POP POP POP JUMP JUMPDEST PUSH0 SWAP1 JUMP JUMPDEST PUSH2 0xE48 PUSH2 0xE3C JUMP JUMPDEST PUSH2 0xE53 DUP2 DUP5 DUP5 PUSH2 0xE17 JUMP JUMPDEST POP POP POP JUMP JUMPDEST JUMPDEST DUP2 DUP2 LT ISZERO PUSH2 0xE76 JUMPI PUSH2 0xE6B PUSH0 DUP3 PUSH2 0xE40 JUMP JUMPDEST PUSH1 0x1 DUP2 ADD SWAP1 POP PUSH2 0xE59 JUMP JUMPDEST POP POP JUMP JUMPDEST PUSH1 0x1F DUP3 GT ISZERO PUSH2 0xEBB JUMPI PUSH2 0xE8C DUP2 PUSH2 0xD66 JUMP JUMPDEST PUSH2 0xE95 DUP5 PUSH2 0xD78 JUMP JUMPDEST DUP2 ADD PUSH1 0x20 DUP6 LT ISZERO PUSH2 0xEA4 JUMPI DUP2 SWAP1 POP JUMPDEST PUSH2 0xEB8 PUSH2 0xEB0 DUP6 PUSH2 0xD78 JUMP JUMPDEST DUP4 ADD DUP3 PUSH2 0xE58 JUMP JUMPDEST POP POP JUMPDEST POP POP POP JUMP JUMPDEST PUSH0 DUP3 DUP3 SHR SWAP1 POP SWAP3 SWAP2 POP POP JUMP JUMPDEST PUSH0 PUSH2 0xEDB PUSH0 NOT DUP5 PUSH1 0x8 MUL PUSH2 0xEC0 JUMP JUMPDEST NOT DUP1 DUP4 AND SWAP2 POP POP SWAP3 SWAP2 POP POP JUMP JUMPDEST PUSH0 PUSH2 0xEF3 DUP4 DUP4 PUSH2 0xECC JUMP JUMPDEST SWAP2 POP DUP3 PUSH1 0x2 MUL DUP3 OR SWAP1 POP SWAP3 SWAP2 POP POP JUMP JUMPDEST PUSH2 0xF0C DUP3 PUSH2 0x9D8 JUMP JUMPDEST PUSH8 0xFFFFFFFFFFFFFFFF DUP2 GT ISZERO PUSH2 0xF25 JUMPI PUSH2 0xF24 PUSH2 0x7BB JUMP JUMPDEST JUMPDEST PUSH2 0xF2F DUP3 SLOAD PUSH2 0xD36 JUMP JUMPDEST PUSH2 0xF3A DUP3 DUP3 DUP6 PUSH2 0xE7A JUMP JUMPDEST PUSH0 PUSH1 0x20 SWAP1 POP PUSH1 0x1F DUP4 GT PUSH1 0x1 DUP2 EQ PUSH2 0xF6B JUMPI PUSH0 DUP5 ISZERO PUSH2 0xF59 JUMPI DUP3 DUP8 ADD MLOAD SWAP1 POP JUMPDEST PUSH2 0xF63 DUP6 DUP3 PUSH2 0xEE8 JUMP JUMPDEST DUP7 SSTORE POP PUSH2 0xFCA JUMP JUMPDEST PUSH1 0x1F NOT DUP5 AND PUSH2 0xF79 DUP7 PUSH2 0xD66 JUMP JUMPDEST PUSH0 JUMPDEST DUP3 DUP2 LT ISZERO PUSH2 0xFA0 JUMPI DUP5 DUP10 ADD MLOAD DUP3 SSTORE PUSH1 0x1 DUP3 ADD SWAP2 POP PUSH1 0x20 DUP6 ADD SWAP5 POP PUSH1 0x20 DUP2 ADD SWAP1 POP PUSH2 0xF7B JUMP JUMPDEST DUP7 DUP4 LT ISZERO PUSH2 0xFBD JUMPI DUP5 DUP10 ADD MLOAD PUSH2 0xFB9 PUSH1 0x1F DUP10 AND DUP3 PUSH2 0xECC JUMP JUMPDEST DUP4 SSTORE POP JUMPDEST PUSH1 0x1 PUSH1 0x2 DUP9 MUL ADD DUP9 SSTORE POP POP POP JUMPDEST POP POP POP POP POP POP JUMP INVALID LOG2 PUSH5 0x6970667358 0x22 SLT KECCAK256 DUP3 PUSH3 0x129F45 CALLDATALOAD BASEFEE STATICCALL SWAP10 CALLER 0x29 0xB9 0xC8 0xF7 0xC0 DUP12 RETURNDATASIZE PUSH20 0x9BC78DC43F692D18D7D4260A148764736F6C6343 STOP ADDMOD BYTE STOP CALLER "
				},
				"gasEstimates": {
					"creation": {
						"codeDepositCost": "820800",
						"executionCost": "855",
						"totalCost": "821655"
					},
					"external": {
						"buyShoe(uint256)": "infinite",
						"listShoes(string,string,string,string,uint256,uint256)": "infinite",
						"shoe_list(uint256)": "infinite",
						"shoes(uint256)": "infinite"
					}
				},
				"methodIdentifiers": {
					"buyShoe(uint256)": "1315879f",
					"listShoes(string,string,string,string,uint256,uint256)": "59f26e96",
					"shoe_list(uint256)": "13636548",
					"shoes(uint256)": "607473cf"
				}
			},
			"storageLayout": {
				"storage": [
					{
						"astId": 21,
						"contract": "Learning Pth/Shoe_Brand_Project.sol:Web3_Shoes",
						"label": "shoes",
						"offset": 0,
						"slot": "0",
						"type": "t_mapping(t_uint256,t_struct(Shoe)16_storage)"
					},
					{
						"astId": 24,
						"contract": "Learning Pth/Shoe_Brand_Project.sol:Web3_Shoes",
						"label": "shoe_list",
						"offset": 0,
						"slot": "1",
						"type": "t_array(t_uint256)dyn_storage"
					}
				],
				"types": {
					"t_address": {
						"encoding": "inplace",
						"label": "address",
						"numberOfBytes": "20"
					},
					"t_array(t_uint256)dyn_storage": {
						"base": "t_uint256",
						"encoding": "dynamic_array",
						"label": "uint256[]",
						"numberOfBytes": "32"
					},
					"t_bool": {
						"encoding": "inplace",
						"label": "bool",
						"numberOfBytes": "1"
					},
					"t_mapping(t_uint256,t_struct(Shoe)16_storage)": {
						"encoding": "mapping",
						"key": "t_uint256",
						"label": "mapping(uint256 => struct Web3_Shoes.Shoe)",
						"numberOfBytes": "32",
						"value": "t_struct(Shoe)16_storage"
					},
					"t_string_storage": {
						"encoding": "bytes",
						"label": "string",
						"numberOfBytes": "32"
					},
					"t_struct(Shoe)16_storage": {
						"encoding": "inplace",
						"label": "struct Web3_Shoes.Shoe",
						"members": [
							{
								"astId": 3,
								"contract": "Learning Pth/Shoe_Brand_Project.sol:Web3_Shoes",
								"label": "brandName",
								"offset": 0,
								"slot": "0",
								"type": "t_string_storage"
							},
							{
								"astId": 5,
								"contract": "Learning Pth/Shoe_Brand_Project.sol:Web3_Shoes",
								"label": "shoeType",
								"offset": 0,
								"slot": "1",
								"type": "t_string_storage"
							},
							{
								"astId": 7,
								"contract": "Learning Pth/Shoe_Brand_Project.sol:Web3_Shoes",
								"label": "description",
								"offset": 0,
								"slot": "2",
								"type": "t_string_storage"
							},
							{
								"astId": 9,
								"contract": "Learning Pth/Shoe_Brand_Project.sol:Web3_Shoes",
								"label": "price",
								"offset": 0,
								"slot": "3",
								"type": "t_uint256"
							},
							{
								"astId": 11,
								"contract": "Learning Pth/Shoe_Brand_Project.sol:Web3_Shoes",
								"label": "forSale",
								"offset": 0,
								"slot": "4",
								"type": "t_bool"
							},
							{
								"astId": 13,
								"contract": "Learning Pth/Shoe_Brand_Project.sol:Web3_Shoes",
								"label": "size",
								"offset": 0,
								"slot": "5",
								"type": "t_string_storage"
							},
							{
								"astId": 15,
								"contract": "Learning Pth/Shoe_Brand_Project.sol:Web3_Shoes",
								"label": "owner",
								"offset": 0,
								"slot": "6",
								"type": "t_address"
							}
						],
						"numberOfBytes": "224"
					},
					"t_uint256": {
						"encoding": "inplace",
						"label": "uint256",
						"numberOfBytes": "32"
					}
				}
			},
			"userdoc": {
				"kind": "user",
				"methods": {},
				"version": 1
			}
		}
	}
}