{
	"Learning Pth/ErrorHandling.sol": {
		"ErrorHandling": {
			"abi": [
				{
					"inputs": [
						{
							"internalType": "uint256",
							"name": "_numb1",
							"type": "uint256"
						},
						{
							"internalType": "uint256",
							"name": "_numb2",
							"type": "uint256"
						}
					],
					"name": "assertErr",
					"outputs": [
						{
							"internalType": "bool",
							"name": "",
							"type": "bool"
						}
					],
					"stateMutability": "pure",
					"type": "function"
				},
				{
					"inputs": [],
					"name": "data",
					"outputs": [
						{
							"internalType": "uint256",
							"name": "",
							"type": "uint256"
						}
					],
					"stateMutability": "view",
					"type": "function"
				},
				{
					"inputs": [
						{
							"internalType": "uint256",
							"name": "_number1",
							"type": "uint256"
						},
						{
							"internalType": "uint256",
							"name": "_number2",
							"type": "uint256"
						}
					],
					"name": "requiretErr",
					"outputs": [
						{
							"internalType": "string",
							"name": "",
							"type": "string"
						},
						{
							"internalType": "uint256",
							"name": "",
							"type": "uint256"
						}
					],
					"stateMutability": "pure",
					"type": "function"
				},
				{
					"inputs": [
						{
							"internalType": "uint256",
							"name": "_num1",
							"type": "uint256"
						},
						{
							"internalType": "uint256",
							"name": "_num2",
							"type": "uint256"
						}
					],
					"name": "revertErr",
					"outputs": [
						{
							"internalType": "string",
							"name": "",
							"type": "string"
						}
					],
					"stateMutability": "pure",
					"type": "function"
				}
			],
			"devdoc": {
				"kind": "dev",
				"methods": {},
				"version": 1
			},
			"evm": {
				"assembly": "    /* \"Learning Pth/ErrorHandling.sol\":61:814  contract ErrorHandling {... */\n  mstore(0x40, 0x80)\n  callvalue\n  dup1\n  iszero\n  tag_1\n  jumpi\n  0x00\n  dup1\n  revert\ntag_1:\n  pop\n  dataSize(sub_0)\n  dup1\n  dataOffset(sub_0)\n  0x00\n  codecopy\n  0x00\n  return\nstop\n\nsub_0: assembly {\n        /* \"Learning Pth/ErrorHandling.sol\":61:814  contract ErrorHandling {... */\n      mstore(0x40, 0x80)\n      callvalue\n      dup1\n      iszero\n      tag_1\n      jumpi\n      0x00\n      dup1\n      revert\n    tag_1:\n      pop\n      jumpi(tag_2, lt(calldatasize, 0x04))\n      shr(0xe0, calldataload(0x00))\n      dup1\n      0x3af76748\n      eq\n      tag_3\n      jumpi\n      dup1\n      0x73d4a13a\n      eq\n      tag_4\n      jumpi\n      dup1\n      0x85d1de58\n      eq\n      tag_5\n      jumpi\n      dup1\n      0xe2f7fdcc\n      eq\n      tag_6\n      jumpi\n    tag_2:\n      0x00\n      dup1\n      revert\n        /* \"Learning Pth/ErrorHandling.sol\":116:367  function requiretErr(uint _number1, uint _number2) public pure returns(string memory, uint) {... */\n    tag_3:\n      tag_7\n      0x04\n      dup1\n      calldatasize\n      sub\n      dup2\n      add\n      swap1\n      tag_8\n      swap2\n      swap1\n      tag_9\n      jump\t// in\n    tag_8:\n      tag_10\n      jump\t// in\n    tag_7:\n      mload(0x40)\n      tag_11\n      swap3\n      swap2\n      swap1\n      tag_12\n      jump\t// in\n    tag_11:\n      mload(0x40)\n      dup1\n      swap2\n      sub\n      swap1\n      return\n        /* \"Learning Pth/ErrorHandling.sol\":91:107  uint public data */\n    tag_4:\n      tag_13\n      tag_14\n      jump\t// in\n    tag_13:\n      mload(0x40)\n      tag_15\n      swap2\n      swap1\n      tag_16\n      jump\t// in\n    tag_15:\n      mload(0x40)\n      dup1\n      swap2\n      sub\n      swap1\n      return\n        /* \"Learning Pth/ErrorHandling.sol\":552:811  function revertErr(uint _num1, uint _num2) public pure returns(string memory) {... */\n    tag_5:\n      tag_17\n      0x04\n      dup1\n      calldatasize\n      sub\n      dup2\n      add\n      swap1\n      tag_18\n      swap2\n      swap1\n      tag_9\n      jump\t// in\n    tag_18:\n      tag_19\n      jump\t// in\n    tag_17:\n      mload(0x40)\n      tag_20\n      swap2\n      swap1\n      tag_21\n      jump\t// in\n    tag_20:\n      mload(0x40)\n      dup1\n      swap2\n      sub\n      swap1\n      return\n        /* \"Learning Pth/ErrorHandling.sol\":375:544  function assertErr(uint _numb1, uint _numb2) public pure returns(bool) {... */\n    tag_6:\n      tag_22\n      0x04\n      dup1\n      calldatasize\n      sub\n      dup2\n      add\n      swap1\n      tag_23\n      swap2\n      swap1\n      tag_9\n      jump\t// in\n    tag_23:\n      tag_24\n      jump\t// in\n    tag_22:\n      mload(0x40)\n      tag_25\n      swap2\n      swap1\n      tag_26\n      jump\t// in\n    tag_25:\n      mload(0x40)\n      dup1\n      swap2\n      sub\n      swap1\n      return\n        /* \"Learning Pth/ErrorHandling.sol\":116:367  function requiretErr(uint _number1, uint _number2) public pure returns(string memory, uint) {... */\n    tag_10:\n        /* \"Learning Pth/ErrorHandling.sol\":187:200  string memory */\n      0x60\n        /* \"Learning Pth/ErrorHandling.sol\":202:206  uint */\n      0x00\n        /* \"Learning Pth/ErrorHandling.sol\":219:229  uint total */\n      dup1\n        /* \"Learning Pth/ErrorHandling.sol\":243:251  _number2 */\n      dup4\n        /* \"Learning Pth/ErrorHandling.sol\":232:240  _number1 */\n      dup6\n        /* \"Learning Pth/ErrorHandling.sol\":232:251  _number1 + _number2 */\n      tag_28\n      swap2\n      swap1\n      tag_29\n      jump\t// in\n    tag_28:\n        /* \"Learning Pth/ErrorHandling.sol\":219:251  uint total = _number1 + _number2 */\n      swap1\n      pop\n        /* \"Learning Pth/ErrorHandling.sol\":279:282  255 */\n      0xff\n        /* \"Learning Pth/ErrorHandling.sol\":270:275  total */\n      dup2\n        /* \"Learning Pth/ErrorHandling.sol\":270:282  total >= 255 */\n      lt\n      iszero\n        /* \"Learning Pth/ErrorHandling.sol\":262:309  require(total >= 255, \"it's less than unit256\") */\n      tag_30\n      jumpi\n      mload(0x40)\n      0x08c379a000000000000000000000000000000000000000000000000000000000\n      dup2\n      mstore\n      0x04\n      add\n      tag_31\n      swap1\n      tag_32\n      jump\t// in\n    tag_31:\n      mload(0x40)\n      dup1\n      swap2\n      sub\n      swap1\n      revert\n    tag_30:\n        /* \"Learning Pth/ErrorHandling.sol\":353:358  total */\n      dup1\n        /* \"Learning Pth/ErrorHandling.sol\":320:359  return (\"the number is uint256\", total) */\n      mload(0x40)\n      dup1\n      0x40\n      add\n      0x40\n      mstore\n      dup1\n      0x15\n      dup2\n      mstore\n      0x20\n      add\n      0x746865206e756d6265722069732075696e743235360000000000000000000000\n      dup2\n      mstore\n      pop\n      swap1\n      swap3\n      pop\n      swap3\n      pop\n      pop\n        /* \"Learning Pth/ErrorHandling.sol\":116:367  function requiretErr(uint _number1, uint _number2) public pure returns(string memory, uint) {... */\n      swap3\n      pop\n      swap3\n      swap1\n      pop\n      jump\t// out\n        /* \"Learning Pth/ErrorHandling.sol\":91:107  uint public data */\n    tag_14:\n      sload(0x00)\n      dup2\n      jump\t// out\n        /* \"Learning Pth/ErrorHandling.sol\":552:811  function revertErr(uint _num1, uint _num2) public pure returns(string memory) {... */\n    tag_19:\n        /* \"Learning Pth/ErrorHandling.sol\":615:628  string memory */\n      0x60\n        /* \"Learning Pth/ErrorHandling.sol\":641:649  uint add */\n      0x00\n        /* \"Learning Pth/ErrorHandling.sol\":660:665  _num2 */\n      dup3\n        /* \"Learning Pth/ErrorHandling.sol\":652:657  _num1 */\n      dup5\n        /* \"Learning Pth/ErrorHandling.sol\":652:665  _num1 + _num2 */\n      tag_34\n      swap2\n      swap1\n      tag_29\n      jump\t// in\n    tag_34:\n        /* \"Learning Pth/ErrorHandling.sol\":641:665  uint add = _num1 + _num2 */\n      swap1\n      pop\n        /* \"Learning Pth/ErrorHandling.sol\":686:689  100 */\n      0x64\n        /* \"Learning Pth/ErrorHandling.sol\":680:683  add */\n      dup2\n        /* \"Learning Pth/ErrorHandling.sol\":680:689  add < 100 */\n      lt\n        /* \"Learning Pth/ErrorHandling.sol\":676:804  if (add < 100) {... */\n      iszero\n      tag_35\n      jumpi\n        /* \"Learning Pth/ErrorHandling.sol\":706:735  revert(\"number is too small\") */\n      mload(0x40)\n      0x08c379a000000000000000000000000000000000000000000000000000000000\n      dup2\n      mstore\n      0x04\n      add\n      tag_36\n      swap1\n      tag_37\n      jump\t// in\n    tag_36:\n      mload(0x40)\n      dup1\n      swap2\n      sub\n      swap1\n      revert\n        /* \"Learning Pth/ErrorHandling.sol\":676:804  if (add < 100) {... */\n    tag_35:\n        /* \"Learning Pth/ErrorHandling.sol\":768:792  return \"number is large\" */\n      mload(0x40)\n      dup1\n      0x40\n      add\n      0x40\n      mstore\n      dup1\n      0x0f\n      dup2\n      mstore\n      0x20\n      add\n      0x6e756d626572206973206c617267650000000000000000000000000000000000\n      dup2\n      mstore\n      pop\n      swap2\n      pop\n      pop\n        /* \"Learning Pth/ErrorHandling.sol\":552:811  function revertErr(uint _num1, uint _num2) public pure returns(string memory) {... */\n      swap3\n      swap2\n      pop\n      pop\n      jump\t// out\n        /* \"Learning Pth/ErrorHandling.sol\":375:544  function assertErr(uint _numb1, uint _numb2) public pure returns(bool) {... */\n    tag_24:\n        /* \"Learning Pth/ErrorHandling.sol\":440:444  bool */\n      0x00\n        /* \"Learning Pth/ErrorHandling.sol\":457:466  uint summ */\n      dup1\n        /* \"Learning Pth/ErrorHandling.sol\":478:484  _numb2 */\n      dup3\n        /* \"Learning Pth/ErrorHandling.sol\":469:475  _numb1 */\n      dup5\n        /* \"Learning Pth/ErrorHandling.sol\":469:484  _numb1 + _numb2 */\n      tag_40\n      swap2\n      swap1\n      tag_29\n      jump\t// in\n    tag_40:\n        /* \"Learning Pth/ErrorHandling.sol\":457:484  uint summ = _numb1 + _numb2 */\n      swap1\n      pop\n        /* \"Learning Pth/ErrorHandling.sol\":510:513  300 */\n      0x012c\n        /* \"Learning Pth/ErrorHandling.sol\":502:506  summ */\n      dup2\n        /* \"Learning Pth/ErrorHandling.sol\":502:513  summ <= 300 */\n      gt\n      iszero\n        /* \"Learning Pth/ErrorHandling.sol\":495:514  assert(summ <= 300) */\n      tag_41\n      jumpi\n      tag_42\n      tag_43\n      jump\t// in\n    tag_42:\n    tag_41:\n        /* \"Learning Pth/ErrorHandling.sol\":532:536  true */\n      0x01\n        /* \"Learning Pth/ErrorHandling.sol\":525:536  return true */\n      swap2\n      pop\n      pop\n        /* \"Learning Pth/ErrorHandling.sol\":375:544  function assertErr(uint _numb1, uint _numb2) public pure returns(bool) {... */\n      swap3\n      swap2\n      pop\n      pop\n      jump\t// out\n        /* \"#utility.yul\":88:205   */\n    tag_45:\n        /* \"#utility.yul\":197:198   */\n      0x00\n        /* \"#utility.yul\":194:195   */\n      dup1\n        /* \"#utility.yul\":187:199   */\n      revert\n        /* \"#utility.yul\":334:411   */\n    tag_47:\n        /* \"#utility.yul\":371:378   */\n      0x00\n        /* \"#utility.yul\":400:405   */\n      dup2\n        /* \"#utility.yul\":389:405   */\n      swap1\n      pop\n        /* \"#utility.yul\":334:411   */\n      swap2\n      swap1\n      pop\n      jump\t// out\n        /* \"#utility.yul\":417:539   */\n    tag_48:\n        /* \"#utility.yul\":490:514   */\n      tag_69\n        /* \"#utility.yul\":508:513   */\n      dup2\n        /* \"#utility.yul\":490:514   */\n      tag_47\n      jump\t// in\n    tag_69:\n        /* \"#utility.yul\":483:488   */\n      dup2\n        /* \"#utility.yul\":480:515   */\n      eq\n        /* \"#utility.yul\":470:533   */\n      tag_70\n      jumpi\n        /* \"#utility.yul\":529:530   */\n      0x00\n        /* \"#utility.yul\":526:527   */\n      dup1\n        /* \"#utility.yul\":519:531   */\n      revert\n        /* \"#utility.yul\":470:533   */\n    tag_70:\n        /* \"#utility.yul\":417:539   */\n      pop\n      jump\t// out\n        /* \"#utility.yul\":545:684   */\n    tag_49:\n        /* \"#utility.yul\":591:596   */\n      0x00\n        /* \"#utility.yul\":629:635   */\n      dup2\n        /* \"#utility.yul\":616:636   */\n      calldataload\n        /* \"#utility.yul\":607:636   */\n      swap1\n      pop\n        /* \"#utility.yul\":645:678   */\n      tag_72\n        /* \"#utility.yul\":672:677   */\n      dup2\n        /* \"#utility.yul\":645:678   */\n      tag_48\n      jump\t// in\n    tag_72:\n        /* \"#utility.yul\":545:684   */\n      swap3\n      swap2\n      pop\n      pop\n      jump\t// out\n        /* \"#utility.yul\":690:1164   */\n    tag_9:\n        /* \"#utility.yul\":758:764   */\n      0x00\n        /* \"#utility.yul\":766:772   */\n      dup1\n        /* \"#utility.yul\":815:817   */\n      0x40\n        /* \"#utility.yul\":803:812   */\n      dup4\n        /* \"#utility.yul\":794:801   */\n      dup6\n        /* \"#utility.yul\":790:813   */\n      sub\n        /* \"#utility.yul\":786:818   */\n      slt\n        /* \"#utility.yul\":783:902   */\n      iszero\n      tag_74\n      jumpi\n        /* \"#utility.yul\":821:900   */\n      tag_75\n      tag_45\n      jump\t// in\n    tag_75:\n        /* \"#utility.yul\":783:902   */\n    tag_74:\n        /* \"#utility.yul\":941:942   */\n      0x00\n        /* \"#utility.yul\":966:1019   */\n      tag_76\n        /* \"#utility.yul\":1011:1018   */\n      dup6\n        /* \"#utility.yul\":1002:1008   */\n      dup3\n        /* \"#utility.yul\":991:1000   */\n      dup7\n        /* \"#utility.yul\":987:1009   */\n      add\n        /* \"#utility.yul\":966:1019   */\n      tag_49\n      jump\t// in\n    tag_76:\n        /* \"#utility.yul\":956:1019   */\n      swap3\n      pop\n        /* \"#utility.yul\":912:1029   */\n      pop\n        /* \"#utility.yul\":1068:1070   */\n      0x20\n        /* \"#utility.yul\":1094:1147   */\n      tag_77\n        /* \"#utility.yul\":1139:1146   */\n      dup6\n        /* \"#utility.yul\":1130:1136   */\n      dup3\n        /* \"#utility.yul\":1119:1128   */\n      dup7\n        /* \"#utility.yul\":1115:1137   */\n      add\n        /* \"#utility.yul\":1094:1147   */\n      tag_49\n      jump\t// in\n    tag_77:\n        /* \"#utility.yul\":1084:1147   */\n      swap2\n      pop\n        /* \"#utility.yul\":1039:1157   */\n      pop\n        /* \"#utility.yul\":690:1164   */\n      swap3\n      pop\n      swap3\n      swap1\n      pop\n      jump\t// out\n        /* \"#utility.yul\":1170:1269   */\n    tag_50:\n        /* \"#utility.yul\":1222:1228   */\n      0x00\n        /* \"#utility.yul\":1256:1261   */\n      dup2\n        /* \"#utility.yul\":1250:1262   */\n      mload\n        /* \"#utility.yul\":1240:1262   */\n      swap1\n      pop\n        /* \"#utility.yul\":1170:1269   */\n      swap2\n      swap1\n      pop\n      jump\t// out\n        /* \"#utility.yul\":1275:1444   */\n    tag_51:\n        /* \"#utility.yul\":1359:1370   */\n      0x00\n        /* \"#utility.yul\":1393:1399   */\n      dup3\n        /* \"#utility.yul\":1388:1391   */\n      dup3\n        /* \"#utility.yul\":1381:1400   */\n      mstore\n        /* \"#utility.yul\":1433:1437   */\n      0x20\n        /* \"#utility.yul\":1428:1431   */\n      dup3\n        /* \"#utility.yul\":1424:1438   */\n      add\n        /* \"#utility.yul\":1409:1438   */\n      swap1\n      pop\n        /* \"#utility.yul\":1275:1444   */\n      swap3\n      swap2\n      pop\n      pop\n      jump\t// out\n        /* \"#utility.yul\":1450:1589   */\n    tag_52:\n        /* \"#utility.yul\":1539:1545   */\n      dup3\n        /* \"#utility.yul\":1534:1537   */\n      dup2\n        /* \"#utility.yul\":1529:1532   */\n      dup4\n        /* \"#utility.yul\":1523:1546   */\n      mcopy\n        /* \"#utility.yul\":1580:1581   */\n      0x00\n        /* \"#utility.yul\":1571:1577   */\n      dup4\n        /* \"#utility.yul\":1566:1569   */\n      dup4\n        /* \"#utility.yul\":1562:1578   */\n      add\n        /* \"#utility.yul\":1555:1582   */\n      mstore\n        /* \"#utility.yul\":1450:1589   */\n      pop\n      pop\n      pop\n      jump\t// out\n        /* \"#utility.yul\":1595:1697   */\n    tag_53:\n        /* \"#utility.yul\":1636:1642   */\n      0x00\n        /* \"#utility.yul\":1687:1689   */\n      0x1f\n        /* \"#utility.yul\":1683:1690   */\n      not\n        /* \"#utility.yul\":1678:1680   */\n      0x1f\n        /* \"#utility.yul\":1671:1676   */\n      dup4\n        /* \"#utility.yul\":1667:1681   */\n      add\n        /* \"#utility.yul\":1663:1691   */\n      and\n        /* \"#utility.yul\":1653:1691   */\n      swap1\n      pop\n        /* \"#utility.yul\":1595:1697   */\n      swap2\n      swap1\n      pop\n      jump\t// out\n        /* \"#utility.yul\":1703:2080   */\n    tag_54:\n        /* \"#utility.yul\":1791:1794   */\n      0x00\n        /* \"#utility.yul\":1819:1858   */\n      tag_83\n        /* \"#utility.yul\":1852:1857   */\n      dup3\n        /* \"#utility.yul\":1819:1858   */\n      tag_50\n      jump\t// in\n    tag_83:\n        /* \"#utility.yul\":1874:1945   */\n      tag_84\n        /* \"#utility.yul\":1938:1944   */\n      dup2\n        /* \"#utility.yul\":1933:1936   */\n      dup6\n        /* \"#utility.yul\":1874:1945   */\n      tag_51\n      jump\t// in\n    tag_84:\n        /* \"#utility.yul\":1867:1945   */\n      swap4\n      pop\n        /* \"#utility.yul\":1954:2019   */\n      tag_85\n        /* \"#utility.yul\":2012:2018   */\n      dup2\n        /* \"#utility.yul\":2007:2010   */\n      dup6\n        /* \"#utility.yul\":2000:2004   */\n      0x20\n        /* \"#utility.yul\":1993:1998   */\n      dup7\n        /* \"#utility.yul\":1989:2005   */\n      add\n        /* \"#utility.yul\":1954:2019   */\n      tag_52\n      jump\t// in\n    tag_85:\n        /* \"#utility.yul\":2044:2073   */\n      tag_86\n        /* \"#utility.yul\":2066:2072   */\n      dup2\n        /* \"#utility.yul\":2044:2073   */\n      tag_53\n      jump\t// in\n    tag_86:\n        /* \"#utility.yul\":2039:2042   */\n      dup5\n        /* \"#utility.yul\":2035:2074   */\n      add\n        /* \"#utility.yul\":2028:2074   */\n      swap2\n      pop\n        /* \"#utility.yul\":1795:2080   */\n      pop\n        /* \"#utility.yul\":1703:2080   */\n      swap3\n      swap2\n      pop\n      pop\n      jump\t// out\n        /* \"#utility.yul\":2086:2204   */\n    tag_55:\n        /* \"#utility.yul\":2173:2197   */\n      tag_88\n        /* \"#utility.yul\":2191:2196   */\n      dup2\n        /* \"#utility.yul\":2173:2197   */\n      tag_47\n      jump\t// in\n    tag_88:\n        /* \"#utility.yul\":2168:2171   */\n      dup3\n        /* \"#utility.yul\":2161:2198   */\n      mstore\n        /* \"#utility.yul\":2086:2204   */\n      pop\n      pop\n      jump\t// out\n        /* \"#utility.yul\":2210:2633   */\n    tag_12:\n        /* \"#utility.yul\":2351:2355   */\n      0x00\n        /* \"#utility.yul\":2389:2391   */\n      0x40\n        /* \"#utility.yul\":2378:2387   */\n      dup3\n        /* \"#utility.yul\":2374:2392   */\n      add\n        /* \"#utility.yul\":2366:2392   */\n      swap1\n      pop\n        /* \"#utility.yul\":2438:2447   */\n      dup2\n        /* \"#utility.yul\":2432:2436   */\n      dup2\n        /* \"#utility.yul\":2428:2448   */\n      sub\n        /* \"#utility.yul\":2424:2425   */\n      0x00\n        /* \"#utility.yul\":2413:2422   */\n      dup4\n        /* \"#utility.yul\":2409:2426   */\n      add\n        /* \"#utility.yul\":2402:2449   */\n      mstore\n        /* \"#utility.yul\":2466:2544   */\n      tag_90\n        /* \"#utility.yul\":2539:2543   */\n      dup2\n        /* \"#utility.yul\":2530:2536   */\n      dup6\n        /* \"#utility.yul\":2466:2544   */\n      tag_54\n      jump\t// in\n    tag_90:\n        /* \"#utility.yul\":2458:2544   */\n      swap1\n      pop\n        /* \"#utility.yul\":2554:2626   */\n      tag_91\n        /* \"#utility.yul\":2622:2624   */\n      0x20\n        /* \"#utility.yul\":2611:2620   */\n      dup4\n        /* \"#utility.yul\":2607:2625   */\n      add\n        /* \"#utility.yul\":2598:2604   */\n      dup5\n        /* \"#utility.yul\":2554:2626   */\n      tag_55\n      jump\t// in\n    tag_91:\n        /* \"#utility.yul\":2210:2633   */\n      swap4\n      swap3\n      pop\n      pop\n      pop\n      jump\t// out\n        /* \"#utility.yul\":2639:2861   */\n    tag_16:\n        /* \"#utility.yul\":2732:2736   */\n      0x00\n        /* \"#utility.yul\":2770:2772   */\n      0x20\n        /* \"#utility.yul\":2759:2768   */\n      dup3\n        /* \"#utility.yul\":2755:2773   */\n      add\n        /* \"#utility.yul\":2747:2773   */\n      swap1\n      pop\n        /* \"#utility.yul\":2783:2854   */\n      tag_93\n        /* \"#utility.yul\":2851:2852   */\n      0x00\n        /* \"#utility.yul\":2840:2849   */\n      dup4\n        /* \"#utility.yul\":2836:2853   */\n      add\n        /* \"#utility.yul\":2827:2833   */\n      dup5\n        /* \"#utility.yul\":2783:2854   */\n      tag_55\n      jump\t// in\n    tag_93:\n        /* \"#utility.yul\":2639:2861   */\n      swap3\n      swap2\n      pop\n      pop\n      jump\t// out\n        /* \"#utility.yul\":2867:3180   */\n    tag_21:\n        /* \"#utility.yul\":2980:2984   */\n      0x00\n        /* \"#utility.yul\":3018:3020   */\n      0x20\n        /* \"#utility.yul\":3007:3016   */\n      dup3\n        /* \"#utility.yul\":3003:3021   */\n      add\n        /* \"#utility.yul\":2995:3021   */\n      swap1\n      pop\n        /* \"#utility.yul\":3067:3076   */\n      dup2\n        /* \"#utility.yul\":3061:3065   */\n      dup2\n        /* \"#utility.yul\":3057:3077   */\n      sub\n        /* \"#utility.yul\":3053:3054   */\n      0x00\n        /* \"#utility.yul\":3042:3051   */\n      dup4\n        /* \"#utility.yul\":3038:3055   */\n      add\n        /* \"#utility.yul\":3031:3078   */\n      mstore\n        /* \"#utility.yul\":3095:3173   */\n      tag_95\n        /* \"#utility.yul\":3168:3172   */\n      dup2\n        /* \"#utility.yul\":3159:3165   */\n      dup5\n        /* \"#utility.yul\":3095:3173   */\n      tag_54\n      jump\t// in\n    tag_95:\n        /* \"#utility.yul\":3087:3173   */\n      swap1\n      pop\n        /* \"#utility.yul\":2867:3180   */\n      swap3\n      swap2\n      pop\n      pop\n      jump\t// out\n        /* \"#utility.yul\":3186:3276   */\n    tag_56:\n        /* \"#utility.yul\":3220:3227   */\n      0x00\n        /* \"#utility.yul\":3263:3268   */\n      dup2\n        /* \"#utility.yul\":3256:3269   */\n      iszero\n        /* \"#utility.yul\":3249:3270   */\n      iszero\n        /* \"#utility.yul\":3238:3270   */\n      swap1\n      pop\n        /* \"#utility.yul\":3186:3276   */\n      swap2\n      swap1\n      pop\n      jump\t// out\n        /* \"#utility.yul\":3282:3391   */\n    tag_57:\n        /* \"#utility.yul\":3363:3384   */\n      tag_98\n        /* \"#utility.yul\":3378:3383   */\n      dup2\n        /* \"#utility.yul\":3363:3384   */\n      tag_56\n      jump\t// in\n    tag_98:\n        /* \"#utility.yul\":3358:3361   */\n      dup3\n        /* \"#utility.yul\":3351:3385   */\n      mstore\n        /* \"#utility.yul\":3282:3391   */\n      pop\n      pop\n      jump\t// out\n        /* \"#utility.yul\":3397:3607   */\n    tag_26:\n        /* \"#utility.yul\":3484:3488   */\n      0x00\n        /* \"#utility.yul\":3522:3524   */\n      0x20\n        /* \"#utility.yul\":3511:3520   */\n      dup3\n        /* \"#utility.yul\":3507:3525   */\n      add\n        /* \"#utility.yul\":3499:3525   */\n      swap1\n      pop\n        /* \"#utility.yul\":3535:3600   */\n      tag_100\n        /* \"#utility.yul\":3597:3598   */\n      0x00\n        /* \"#utility.yul\":3586:3595   */\n      dup4\n        /* \"#utility.yul\":3582:3599   */\n      add\n        /* \"#utility.yul\":3573:3579   */\n      dup5\n        /* \"#utility.yul\":3535:3600   */\n      tag_57\n      jump\t// in\n    tag_100:\n        /* \"#utility.yul\":3397:3607   */\n      swap3\n      swap2\n      pop\n      pop\n      jump\t// out\n        /* \"#utility.yul\":3613:3793   */\n    tag_58:\n        /* \"#utility.yul\":3661:3738   */\n      0x4e487b7100000000000000000000000000000000000000000000000000000000\n        /* \"#utility.yul\":3658:3659   */\n      0x00\n        /* \"#utility.yul\":3651:3739   */\n      mstore\n        /* \"#utility.yul\":3758:3762   */\n      0x11\n        /* \"#utility.yul\":3755:3756   */\n      0x04\n        /* \"#utility.yul\":3748:3763   */\n      mstore\n        /* \"#utility.yul\":3782:3786   */\n      0x24\n        /* \"#utility.yul\":3779:3780   */\n      0x00\n        /* \"#utility.yul\":3772:3787   */\n      revert\n        /* \"#utility.yul\":3799:3990   */\n    tag_29:\n        /* \"#utility.yul\":3839:3842   */\n      0x00\n        /* \"#utility.yul\":3858:3878   */\n      tag_103\n        /* \"#utility.yul\":3876:3877   */\n      dup3\n        /* \"#utility.yul\":3858:3878   */\n      tag_47\n      jump\t// in\n    tag_103:\n        /* \"#utility.yul\":3853:3878   */\n      swap2\n      pop\n        /* \"#utility.yul\":3892:3912   */\n      tag_104\n        /* \"#utility.yul\":3910:3911   */\n      dup4\n        /* \"#utility.yul\":3892:3912   */\n      tag_47\n      jump\t// in\n    tag_104:\n        /* \"#utility.yul\":3887:3912   */\n      swap3\n      pop\n        /* \"#utility.yul\":3935:3936   */\n      dup3\n        /* \"#utility.yul\":3932:3933   */\n      dup3\n        /* \"#utility.yul\":3928:3937   */\n      add\n        /* \"#utility.yul\":3921:3937   */\n      swap1\n      pop\n        /* \"#utility.yul\":3956:3959   */\n      dup1\n        /* \"#utility.yul\":3953:3954   */\n      dup3\n        /* \"#utility.yul\":3950:3960   */\n      gt\n        /* \"#utility.yul\":3947:3983   */\n      iszero\n      tag_105\n      jumpi\n        /* \"#utility.yul\":3963:3981   */\n      tag_106\n      tag_58\n      jump\t// in\n    tag_106:\n        /* \"#utility.yul\":3947:3983   */\n    tag_105:\n        /* \"#utility.yul\":3799:3990   */\n      swap3\n      swap2\n      pop\n      pop\n      jump\t// out\n        /* \"#utility.yul\":3996:4168   */\n    tag_59:\n        /* \"#utility.yul\":4136:4160   */\n      0x69742773206c657373207468616e20756e697432353600000000000000000000\n        /* \"#utility.yul\":4132:4133   */\n      0x00\n        /* \"#utility.yul\":4124:4130   */\n      dup3\n        /* \"#utility.yul\":4120:4134   */\n      add\n        /* \"#utility.yul\":4113:4161   */\n      mstore\n        /* \"#utility.yul\":3996:4168   */\n      pop\n      jump\t// out\n        /* \"#utility.yul\":4174:4540   */\n    tag_60:\n        /* \"#utility.yul\":4316:4319   */\n      0x00\n        /* \"#utility.yul\":4337:4404   */\n      tag_109\n        /* \"#utility.yul\":4401:4403   */\n      0x16\n        /* \"#utility.yul\":4396:4399   */\n      dup4\n        /* \"#utility.yul\":4337:4404   */\n      tag_51\n      jump\t// in\n    tag_109:\n        /* \"#utility.yul\":4330:4404   */\n      swap2\n      pop\n        /* \"#utility.yul\":4413:4506   */\n      tag_110\n        /* \"#utility.yul\":4502:4505   */\n      dup3\n        /* \"#utility.yul\":4413:4506   */\n      tag_59\n      jump\t// in\n    tag_110:\n        /* \"#utility.yul\":4531:4533   */\n      0x20\n        /* \"#utility.yul\":4526:4529   */\n      dup3\n        /* \"#utility.yul\":4522:4534   */\n      add\n        /* \"#utility.yul\":4515:4534   */\n      swap1\n      pop\n        /* \"#utility.yul\":4174:4540   */\n      swap2\n      swap1\n      pop\n      jump\t// out\n        /* \"#utility.yul\":4546:4965   */\n    tag_32:\n        /* \"#utility.yul\":4712:4716   */\n      0x00\n        /* \"#utility.yul\":4750:4752   */\n      0x20\n        /* \"#utility.yul\":4739:4748   */\n      dup3\n        /* \"#utility.yul\":4735:4753   */\n      add\n        /* \"#utility.yul\":4727:4753   */\n      swap1\n      pop\n        /* \"#utility.yul\":4799:4808   */\n      dup2\n        /* \"#utility.yul\":4793:4797   */\n      dup2\n        /* \"#utility.yul\":4789:4809   */\n      sub\n        /* \"#utility.yul\":4785:4786   */\n      0x00\n        /* \"#utility.yul\":4774:4783   */\n      dup4\n        /* \"#utility.yul\":4770:4787   */\n      add\n        /* \"#utility.yul\":4763:4810   */\n      mstore\n        /* \"#utility.yul\":4827:4958   */\n      tag_112\n        /* \"#utility.yul\":4953:4957   */\n      dup2\n        /* \"#utility.yul\":4827:4958   */\n      tag_60\n      jump\t// in\n    tag_112:\n        /* \"#utility.yul\":4819:4958   */\n      swap1\n      pop\n        /* \"#utility.yul\":4546:4965   */\n      swap2\n      swap1\n      pop\n      jump\t// out\n        /* \"#utility.yul\":4971:5140   */\n    tag_61:\n        /* \"#utility.yul\":5111:5132   */\n      0x6e756d62657220697320746f6f20736d616c6c00000000000000000000000000\n        /* \"#utility.yul\":5107:5108   */\n      0x00\n        /* \"#utility.yul\":5099:5105   */\n      dup3\n        /* \"#utility.yul\":5095:5109   */\n      add\n        /* \"#utility.yul\":5088:5133   */\n      mstore\n        /* \"#utility.yul\":4971:5140   */\n      pop\n      jump\t// out\n        /* \"#utility.yul\":5146:5512   */\n    tag_62:\n        /* \"#utility.yul\":5288:5291   */\n      0x00\n        /* \"#utility.yul\":5309:5376   */\n      tag_115\n        /* \"#utility.yul\":5373:5375   */\n      0x13\n        /* \"#utility.yul\":5368:5371   */\n      dup4\n        /* \"#utility.yul\":5309:5376   */\n      tag_51\n      jump\t// in\n    tag_115:\n        /* \"#utility.yul\":5302:5376   */\n      swap2\n      pop\n        /* \"#utility.yul\":5385:5478   */\n      tag_116\n        /* \"#utility.yul\":5474:5477   */\n      dup3\n        /* \"#utility.yul\":5385:5478   */\n      tag_61\n      jump\t// in\n    tag_116:\n        /* \"#utility.yul\":5503:5505   */\n      0x20\n        /* \"#utility.yul\":5498:5501   */\n      dup3\n        /* \"#utility.yul\":5494:5506   */\n      add\n        /* \"#utility.yul\":5487:5506   */\n      swap1\n      pop\n        /* \"#utility.yul\":5146:5512   */\n      swap2\n      swap1\n      pop\n      jump\t// out\n        /* \"#utility.yul\":5518:5937   */\n    tag_37:\n        /* \"#utility.yul\":5684:5688   */\n      0x00\n        /* \"#utility.yul\":5722:5724   */\n      0x20\n        /* \"#utility.yul\":5711:5720   */\n      dup3\n        /* \"#utility.yul\":5707:5725   */\n      add\n        /* \"#utility.yul\":5699:5725   */\n      swap1\n      pop\n        /* \"#utility.yul\":5771:5780   */\n      dup2\n        /* \"#utility.yul\":5765:5769   */\n      dup2\n        /* \"#utility.yul\":5761:5781   */\n      sub\n        /* \"#utility.yul\":5757:5758   */\n      0x00\n        /* \"#utility.yul\":5746:5755   */\n      dup4\n        /* \"#utility.yul\":5742:5759   */\n      add\n        /* \"#utility.yul\":5735:5782   */\n      mstore\n        /* \"#utility.yul\":5799:5930   */\n      tag_118\n        /* \"#utility.yul\":5925:5929   */\n      dup2\n        /* \"#utility.yul\":5799:5930   */\n      tag_62\n      jump\t// in\n    tag_118:\n        /* \"#utility.yul\":5791:5930   */\n      swap1\n      pop\n        /* \"#utility.yul\":5518:5937   */\n      swap2\n      swap1\n      pop\n      jump\t// out\n        /* \"#utility.yul\":5943:6123   */\n    tag_43:\n        /* \"#utility.yul\":5991:6068   */\n      0x4e487b7100000000000000000000000000000000000000000000000000000000\n        /* \"#utility.yul\":5988:5989   */\n      0x00\n        /* \"#utility.yul\":5981:6069   */\n      mstore\n        /* \"#utility.yul\":6088:6092   */\n      0x01\n        /* \"#utility.yul\":6085:6086   */\n      0x04\n        /* \"#utility.yul\":6078:6093   */\n      mstore\n        /* \"#utility.yul\":6112:6116   */\n      0x24\n        /* \"#utility.yul\":6109:6110   */\n      0x00\n        /* \"#utility.yul\":6102:6117   */\n      revert\n\n    auxdata: 0xa2646970667358221220e28cb3d0dc40b21a49095a0bff3fee89588d35e90a8d5a0b01f959af84e475b564736f6c634300081a0033\n}\n",
				"bytecode": {
					"linkReferences": {},
					"object": "6080604052348015600e575f80fd5b5061057f8061001c5f395ff3fe608060405234801561000f575f80fd5b506004361061004a575f3560e01c80633af767481461004e57806373d4a13a1461007f57806385d1de581461009d578063e2f7fdcc146100cd575b5f80fd5b61006860048036038101906100639190610295565b6100fd565b604051610076929190610352565b60405180910390f35b610087610197565b6040516100949190610380565b60405180910390f35b6100b760048036038101906100b29190610295565b61019c565b6040516100c49190610399565b60405180910390f35b6100e760048036038101906100e29190610295565b610230565b6040516100f491906103d3565b60405180910390f35b60605f80838561010d9190610419565b905060ff811015610153576040517f08c379a000000000000000000000000000000000000000000000000000000000815260040161014a90610496565b60405180910390fd5b806040518060400160405280601581526020017f746865206e756d6265722069732075696e7432353600000000000000000000008152509092509250509250929050565b5f5481565b60605f82846101ab9190610419565b905060648110156101f1576040517f08c379a00000000000000000000000000000000000000000000000000000000081526004016101e8906104fe565b60405180910390fd5b6040518060400160405280600f81526020017f6e756d626572206973206c61726765000000000000000000000000000000000081525091505092915050565b5f80828461023e9190610419565b905061012c8111156102535761025261051c565b5b600191505092915050565b5f80fd5b5f819050919050565b61027481610262565b811461027e575f80fd5b50565b5f8135905061028f8161026b565b92915050565b5f80604083850312156102ab576102aa61025e565b5b5f6102b885828601610281565b92505060206102c985828601610281565b9150509250929050565b5f81519050919050565b5f82825260208201905092915050565b8281835e5f83830152505050565b5f601f19601f8301169050919050565b5f610315826102d3565b61031f81856102dd565b935061032f8185602086016102ed565b610338816102fb565b840191505092915050565b61034c81610262565b82525050565b5f6040820190508181035f83015261036a818561030b565b90506103796020830184610343565b9392505050565b5f6020820190506103935f830184610343565b92915050565b5f6020820190508181035f8301526103b1818461030b565b905092915050565b5f8115159050919050565b6103cd816103b9565b82525050565b5f6020820190506103e65f8301846103c4565b92915050565b7f4e487b71000000000000000000000000000000000000000000000000000000005f52601160045260245ffd5b5f61042382610262565b915061042e83610262565b9250828201905080821115610446576104456103ec565b5b92915050565b7f69742773206c657373207468616e20756e6974323536000000000000000000005f82015250565b5f6104806016836102dd565b915061048b8261044c565b602082019050919050565b5f6020820190508181035f8301526104ad81610474565b9050919050565b7f6e756d62657220697320746f6f20736d616c6c000000000000000000000000005f82015250565b5f6104e86013836102dd565b91506104f3826104b4565b602082019050919050565b5f6020820190508181035f830152610515816104dc565b9050919050565b7f4e487b71000000000000000000000000000000000000000000000000000000005f52600160045260245ffdfea2646970667358221220e28cb3d0dc40b21a49095a0bff3fee89588d35e90a8d5a0b01f959af84e475b564736f6c634300081a0033",
					"opcodes": "PUSH1 0x80 PUSH1 0x40 MSTORE CALLVALUE DUP1 ISZERO PUSH1 0xE JUMPI PUSH0 DUP1 REVERT JUMPDEST POP PUSH2 0x57F DUP1 PUSH2 0x1C PUSH0 CODECOPY PUSH0 RETURN INVALID PUSH1 0x80 PUSH1 0x40 MSTORE CALLVALUE DUP1 ISZERO PUSH2 0xF JUMPI PUSH0 DUP1 REVERT JUMPDEST POP PUSH1 0x4 CALLDATASIZE LT PUSH2 0x4A JUMPI PUSH0 CALLDATALOAD PUSH1 0xE0 SHR DUP1 PUSH4 0x3AF76748 EQ PUSH2 0x4E JUMPI DUP1 PUSH4 0x73D4A13A EQ PUSH2 0x7F JUMPI DUP1 PUSH4 0x85D1DE58 EQ PUSH2 0x9D JUMPI DUP1 PUSH4 0xE2F7FDCC EQ PUSH2 0xCD JUMPI JUMPDEST PUSH0 DUP1 REVERT JUMPDEST PUSH2 0x68 PUSH1 0x4 DUP1 CALLDATASIZE SUB DUP2 ADD SWAP1 PUSH2 0x63 SWAP2 SWAP1 PUSH2 0x295 JUMP JUMPDEST PUSH2 0xFD JUMP JUMPDEST PUSH1 0x40 MLOAD PUSH2 0x76 SWAP3 SWAP2 SWAP1 PUSH2 0x352 JUMP JUMPDEST PUSH1 0x40 MLOAD DUP1 SWAP2 SUB SWAP1 RETURN JUMPDEST PUSH2 0x87 PUSH2 0x197 JUMP JUMPDEST PUSH1 0x40 MLOAD PUSH2 0x94 SWAP2 SWAP1 PUSH2 0x380 JUMP JUMPDEST PUSH1 0x40 MLOAD DUP1 SWAP2 SUB SWAP1 RETURN JUMPDEST PUSH2 0xB7 PUSH1 0x4 DUP1 CALLDATASIZE SUB DUP2 ADD SWAP1 PUSH2 0xB2 SWAP2 SWAP1 PUSH2 0x295 JUMP JUMPDEST PUSH2 0x19C JUMP JUMPDEST PUSH1 0x40 MLOAD PUSH2 0xC4 SWAP2 SWAP1 PUSH2 0x399 JUMP JUMPDEST PUSH1 0x40 MLOAD DUP1 SWAP2 SUB SWAP1 RETURN JUMPDEST PUSH2 0xE7 PUSH1 0x4 DUP1 CALLDATASIZE SUB DUP2 ADD SWAP1 PUSH2 0xE2 SWAP2 SWAP1 PUSH2 0x295 JUMP JUMPDEST PUSH2 0x230 JUMP JUMPDEST PUSH1 0x40 MLOAD PUSH2 0xF4 SWAP2 SWAP1 PUSH2 0x3D3 JUMP JUMPDEST PUSH1 0x40 MLOAD DUP1 SWAP2 SUB SWAP1 RETURN JUMPDEST PUSH1 0x60 PUSH0 DUP1 DUP4 DUP6 PUSH2 0x10D SWAP2 SWAP1 PUSH2 0x419 JUMP JUMPDEST SWAP1 POP PUSH1 0xFF DUP2 LT ISZERO PUSH2 0x153 JUMPI PUSH1 0x40 MLOAD PUSH32 0x8C379A000000000000000000000000000000000000000000000000000000000 DUP2 MSTORE PUSH1 0x4 ADD PUSH2 0x14A SWAP1 PUSH2 0x496 JUMP JUMPDEST PUSH1 0x40 MLOAD DUP1 SWAP2 SUB SWAP1 REVERT JUMPDEST DUP1 PUSH1 0x40 MLOAD DUP1 PUSH1 0x40 ADD PUSH1 0x40 MSTORE DUP1 PUSH1 0x15 DUP2 MSTORE PUSH1 0x20 ADD PUSH32 0x746865206E756D6265722069732075696E743235360000000000000000000000 DUP2 MSTORE POP SWAP1 SWAP3 POP SWAP3 POP POP SWAP3 POP SWAP3 SWAP1 POP JUMP JUMPDEST PUSH0 SLOAD DUP2 JUMP JUMPDEST PUSH1 0x60 PUSH0 DUP3 DUP5 PUSH2 0x1AB SWAP2 SWAP1 PUSH2 0x419 JUMP JUMPDEST SWAP1 POP PUSH1 0x64 DUP2 LT ISZERO PUSH2 0x1F1 JUMPI PUSH1 0x40 MLOAD PUSH32 0x8C379A000000000000000000000000000000000000000000000000000000000 DUP2 MSTORE PUSH1 0x4 ADD PUSH2 0x1E8 SWAP1 PUSH2 0x4FE JUMP JUMPDEST PUSH1 0x40 MLOAD DUP1 SWAP2 SUB SWAP1 REVERT JUMPDEST PUSH1 0x40 MLOAD DUP1 PUSH1 0x40 ADD PUSH1 0x40 MSTORE DUP1 PUSH1 0xF DUP2 MSTORE PUSH1 0x20 ADD PUSH32 0x6E756D626572206973206C617267650000000000000000000000000000000000 DUP2 MSTORE POP SWAP2 POP POP SWAP3 SWAP2 POP POP JUMP JUMPDEST PUSH0 DUP1 DUP3 DUP5 PUSH2 0x23E SWAP2 SWAP1 PUSH2 0x419 JUMP JUMPDEST SWAP1 POP PUSH2 0x12C DUP2 GT ISZERO PUSH2 0x253 JUMPI PUSH2 0x252 PUSH2 0x51C JUMP JUMPDEST JUMPDEST PUSH1 0x1 SWAP2 POP POP SWAP3 SWAP2 POP POP JUMP JUMPDEST PUSH0 DUP1 REVERT JUMPDEST PUSH0 DUP2 SWAP1 POP SWAP2 SWAP1 POP JUMP JUMPDEST PUSH2 0x274 DUP2 PUSH2 0x262 JUMP JUMPDEST DUP2 EQ PUSH2 0x27E JUMPI PUSH0 DUP1 REVERT JUMPDEST POP JUMP JUMPDEST PUSH0 DUP2 CALLDATALOAD SWAP1 POP PUSH2 0x28F DUP2 PUSH2 0x26B JUMP JUMPDEST SWAP3 SWAP2 POP POP JUMP JUMPDEST PUSH0 DUP1 PUSH1 0x40 DUP4 DUP6 SUB SLT ISZERO PUSH2 0x2AB JUMPI PUSH2 0x2AA PUSH2 0x25E JUMP JUMPDEST JUMPDEST PUSH0 PUSH2 0x2B8 DUP6 DUP3 DUP7 ADD PUSH2 0x281 JUMP JUMPDEST SWAP3 POP POP PUSH1 0x20 PUSH2 0x2C9 DUP6 DUP3 DUP7 ADD PUSH2 0x281 JUMP JUMPDEST SWAP2 POP POP SWAP3 POP SWAP3 SWAP1 POP JUMP JUMPDEST PUSH0 DUP2 MLOAD SWAP1 POP SWAP2 SWAP1 POP JUMP JUMPDEST PUSH0 DUP3 DUP3 MSTORE PUSH1 0x20 DUP3 ADD SWAP1 POP SWAP3 SWAP2 POP POP JUMP JUMPDEST DUP3 DUP2 DUP4 MCOPY PUSH0 DUP4 DUP4 ADD MSTORE POP POP POP JUMP JUMPDEST PUSH0 PUSH1 0x1F NOT PUSH1 0x1F DUP4 ADD AND SWAP1 POP SWAP2 SWAP1 POP JUMP JUMPDEST PUSH0 PUSH2 0x315 DUP3 PUSH2 0x2D3 JUMP JUMPDEST PUSH2 0x31F DUP2 DUP6 PUSH2 0x2DD JUMP JUMPDEST SWAP4 POP PUSH2 0x32F DUP2 DUP6 PUSH1 0x20 DUP7 ADD PUSH2 0x2ED JUMP JUMPDEST PUSH2 0x338 DUP2 PUSH2 0x2FB JUMP JUMPDEST DUP5 ADD SWAP2 POP POP SWAP3 SWAP2 POP POP JUMP JUMPDEST PUSH2 0x34C DUP2 PUSH2 0x262 JUMP JUMPDEST DUP3 MSTORE POP POP JUMP JUMPDEST PUSH0 PUSH1 0x40 DUP3 ADD SWAP1 POP DUP2 DUP2 SUB PUSH0 DUP4 ADD MSTORE PUSH2 0x36A DUP2 DUP6 PUSH2 0x30B JUMP JUMPDEST SWAP1 POP PUSH2 0x379 PUSH1 0x20 DUP4 ADD DUP5 PUSH2 0x343 JUMP JUMPDEST SWAP4 SWAP3 POP POP POP JUMP JUMPDEST PUSH0 PUSH1 0x20 DUP3 ADD SWAP1 POP PUSH2 0x393 PUSH0 DUP4 ADD DUP5 PUSH2 0x343 JUMP JUMPDEST SWAP3 SWAP2 POP POP JUMP JUMPDEST PUSH0 PUSH1 0x20 DUP3 ADD SWAP1 POP DUP2 DUP2 SUB PUSH0 DUP4 ADD MSTORE PUSH2 0x3B1 DUP2 DUP5 PUSH2 0x30B JUMP JUMPDEST SWAP1 POP SWAP3 SWAP2 POP POP JUMP JUMPDEST PUSH0 DUP2 ISZERO ISZERO SWAP1 POP SWAP2 SWAP1 POP JUMP JUMPDEST PUSH2 0x3CD DUP2 PUSH2 0x3B9 JUMP JUMPDEST DUP3 MSTORE POP POP JUMP JUMPDEST PUSH0 PUSH1 0x20 DUP3 ADD SWAP1 POP PUSH2 0x3E6 PUSH0 DUP4 ADD DUP5 PUSH2 0x3C4 JUMP JUMPDEST SWAP3 SWAP2 POP POP JUMP JUMPDEST PUSH32 0x4E487B7100000000000000000000000000000000000000000000000000000000 PUSH0 MSTORE PUSH1 0x11 PUSH1 0x4 MSTORE PUSH1 0x24 PUSH0 REVERT JUMPDEST PUSH0 PUSH2 0x423 DUP3 PUSH2 0x262 JUMP JUMPDEST SWAP2 POP PUSH2 0x42E DUP4 PUSH2 0x262 JUMP JUMPDEST SWAP3 POP DUP3 DUP3 ADD SWAP1 POP DUP1 DUP3 GT ISZERO PUSH2 0x446 JUMPI PUSH2 0x445 PUSH2 0x3EC JUMP JUMPDEST JUMPDEST SWAP3 SWAP2 POP POP JUMP JUMPDEST PUSH32 0x69742773206C657373207468616E20756E697432353600000000000000000000 PUSH0 DUP3 ADD MSTORE POP JUMP JUMPDEST PUSH0 PUSH2 0x480 PUSH1 0x16 DUP4 PUSH2 0x2DD JUMP JUMPDEST SWAP2 POP PUSH2 0x48B DUP3 PUSH2 0x44C JUMP JUMPDEST PUSH1 0x20 DUP3 ADD SWAP1 POP SWAP2 SWAP1 POP JUMP JUMPDEST PUSH0 PUSH1 0x20 DUP3 ADD SWAP1 POP DUP2 DUP2 SUB PUSH0 DUP4 ADD MSTORE PUSH2 0x4AD DUP2 PUSH2 0x474 JUMP JUMPDEST SWAP1 POP SWAP2 SWAP1 POP JUMP JUMPDEST PUSH32 0x6E756D62657220697320746F6F20736D616C6C00000000000000000000000000 PUSH0 DUP3 ADD MSTORE POP JUMP JUMPDEST PUSH0 PUSH2 0x4E8 PUSH1 0x13 DUP4 PUSH2 0x2DD JUMP JUMPDEST SWAP2 POP PUSH2 0x4F3 DUP3 PUSH2 0x4B4 JUMP JUMPDEST PUSH1 0x20 DUP3 ADD SWAP1 POP SWAP2 SWAP1 POP JUMP JUMPDEST PUSH0 PUSH1 0x20 DUP3 ADD SWAP1 POP DUP2 DUP2 SUB PUSH0 DUP4 ADD MSTORE PUSH2 0x515 DUP2 PUSH2 0x4DC JUMP JUMPDEST SWAP1 POP SWAP2 SWAP1 POP JUMP JUMPDEST PUSH32 0x4E487B7100000000000000000000000000000000000000000000000000000000 PUSH0 MSTORE PUSH1 0x1 PUSH1 0x4 MSTORE PUSH1 0x24 PUSH0 REVERT INVALID LOG2 PUSH5 0x6970667358 0x22 SLT KECCAK256 0xE2 DUP13 0xB3 0xD0 0xDC BLOCKHASH 0xB2 BYTE BLOBHASH MULMOD GAS SIGNEXTEND SELFDESTRUCT EXTCODEHASH 0xEE DUP10 PC DUP14 CALLDATALOAD 0xE9 EXP DUP14 GAS SIGNEXTEND ADD 0xF9 MSIZE 0xAF DUP5 0xE4 PUSH22 0xB564736F6C634300081A003300000000000000000000 "
				},
				"gasEstimates": {
					"creation": {
						"codeDepositCost": "281400",
						"executionCost": "316",
						"totalCost": "281716"
					},
					"external": {
						"assertErr(uint256,uint256)": "infinite",
						"data()": "2424",
						"requiretErr(uint256,uint256)": "infinite",
						"revertErr(uint256,uint256)": "infinite"
					}
				},
				"methodIdentifiers": {
					"assertErr(uint256,uint256)": "e2f7fdcc",
					"data()": "73d4a13a",
					"requiretErr(uint256,uint256)": "3af76748",
					"revertErr(uint256,uint256)": "85d1de58"
				}
			},
			"storageLayout": {
				"storage": [
					{
						"astId": 3,
						"contract": "Learning Pth/ErrorHandling.sol:ErrorHandling",
						"label": "data",
						"offset": 0,
						"slot": "0",
						"type": "t_uint256"
					}
				],
				"types": {
					"t_uint256": {
						"encoding": "inplace",
						"label": "uint256",
						"numberOfBytes": "32"
					}
				}
			},
			"userdoc": {
				"kind": "user",
				"methods": {},
				"version": 1
			}
		}
	}
}