{
	"Learning Pth/EventTicket.sol": {
		"EventTicket": {
			"abi": [
				{
					"inputs": [
						{
							"internalType": "uint256",
							"name": "_price",
							"type": "uint256"
						}
					],
					"stateMutability": "nonpayable",
					"type": "constructor"
				},
				{
					"inputs": [
						{
							"internalType": "uint256",
							"name": "_value1",
							"type": "uint256"
						}
					],
					"name": "buyTicket",
					"outputs": [
						{
							"internalType": "uint256",
							"name": "ticketId",
							"type": "uint256"
						}
					],
					"stateMutability": "nonpayable",
					"type": "function"
				},
				{
					"inputs": [],
					"name": "endAt",
					"outputs": [
						{
							"internalType": "uint256",
							"name": "",
							"type": "uint256"
						}
					],
					"stateMutability": "view",
					"type": "function"
				},
				{
					"inputs": [],
					"name": "getTotalAmount",
					"outputs": [
						{
							"internalType": "uint256",
							"name": "",
							"type": "uint256"
						}
					],
					"stateMutability": "view",
					"type": "function"
				},
				{
					"inputs": [],
					"name": "numberOfTicket",
					"outputs": [
						{
							"internalType": "uint256",
							"name": "",
							"type": "uint256"
						}
					],
					"stateMutability": "view",
					"type": "function"
				},
				{
					"inputs": [],
					"name": "price",
					"outputs": [
						{
							"internalType": "uint256",
							"name": "",
							"type": "uint256"
						}
					],
					"stateMutability": "view",
					"type": "function"
				},
				{
					"inputs": [],
					"name": "startAt",
					"outputs": [
						{
							"internalType": "uint256",
							"name": "",
							"type": "uint256"
						}
					],
					"stateMutability": "view",
					"type": "function"
				},
				{
					"inputs": [],
					"name": "timeRange",
					"outputs": [
						{
							"internalType": "uint256",
							"name": "",
							"type": "uint256"
						}
					],
					"stateMutability": "view",
					"type": "function"
				},
				{
					"inputs": [],
					"name": "totalAmount",
					"outputs": [
						{
							"internalType": "uint256",
							"name": "",
							"type": "uint256"
						}
					],
					"stateMutability": "view",
					"type": "function"
				}
			],
			"devdoc": {
				"kind": "dev",
				"methods": {},
				"version": 1
			},
			"evm": {
				"assembly": "    /* \"Learning Pth/EventTicket.sol\":61:721  contract EventTicket {... */\n  mstore(0x40, 0x80)\n    /* \"Learning Pth/EventTicket.sol\":256:446  constructor(uint _price) {... */\n  callvalue\n  dup1\n  iszero\n  tag_1\n  jumpi\n  0x00\n  dup1\n  revert\ntag_1:\n  pop\n  mload(0x40)\n  sub(codesize, bytecodeSize)\n  dup1\n  bytecodeSize\n  dup4\n  codecopy\n  dup2\n  dup2\n  add\n  0x40\n  mstore\n  dup2\n  add\n  swap1\n  tag_2\n  swap2\n  swap1\n  tag_3\n  jump\t// in\ntag_2:\n    /* \"Learning Pth/EventTicket.sol\":300:306  _price */\n  dup1\n    /* \"Learning Pth/EventTicket.sol\":292:297  price */\n  0x02\n    /* \"Learning Pth/EventTicket.sol\":292:306  price = _price */\n  dup2\n  swap1\n  sstore\n  pop\n    /* \"Learning Pth/EventTicket.sol\":327:342  block.timestamp */\n  timestamp\n    /* \"Learning Pth/EventTicket.sol\":317:324  startAt */\n  0x03\n    /* \"Learning Pth/EventTicket.sol\":317:342  startAt = block.timestamp */\n  dup2\n  swap1\n  sstore\n  pop\n    /* \"Learning Pth/EventTicket.sol\":379:385  7 days */\n  0x093a80\n    /* \"Learning Pth/EventTicket.sol\":361:376  block.timestamp */\n  timestamp\n    /* \"Learning Pth/EventTicket.sol\":361:385  block.timestamp + 7 days */\n  tag_6\n  swap2\n  swap1\n  tag_7\n  jump\t// in\ntag_6:\n    /* \"Learning Pth/EventTicket.sol\":353:358  endAt */\n  0x04\n    /* \"Learning Pth/EventTicket.sol\":353:385  endAt = block.timestamp + 7 days */\n  dup2\n  swap1\n  sstore\n  pop\n    /* \"Learning Pth/EventTicket.sol\":436:438  24 */\n  0x18\n    /* \"Learning Pth/EventTicket.sol\":432:434  60 */\n  0x3c\n    /* \"Learning Pth/EventTicket.sol\":428:430  60 */\n  dup1\n    /* \"Learning Pth/EventTicket.sol\":417:424  startAt */\n  sload(0x03)\n    /* \"Learning Pth/EventTicket.sol\":409:414  endAt */\n  sload(0x04)\n    /* \"Learning Pth/EventTicket.sol\":409:424  endAt - startAt */\n  tag_8\n  swap2\n  swap1\n  tag_9\n  jump\t// in\ntag_8:\n    /* \"Learning Pth/EventTicket.sol\":408:430  (endAt - startAt) / 60 */\n  tag_10\n  swap2\n  swap1\n  tag_11\n  jump\t// in\ntag_10:\n    /* \"Learning Pth/EventTicket.sol\":408:434  (endAt - startAt) / 60 /60 */\n  tag_12\n  swap2\n  swap1\n  tag_11\n  jump\t// in\ntag_12:\n    /* \"Learning Pth/EventTicket.sol\":408:438  (endAt - startAt) / 60 /60 /24 */\n  tag_13\n  swap2\n  swap1\n  tag_11\n  jump\t// in\ntag_13:\n    /* \"Learning Pth/EventTicket.sol\":396:405  timeRange */\n  0x05\n    /* \"Learning Pth/EventTicket.sol\":396:438  timeRange = (endAt - startAt) / 60 /60 /24 */\n  dup2\n  swap1\n  sstore\n  pop\n    /* \"Learning Pth/EventTicket.sol\":256:446  constructor(uint _price) {... */\n  pop\n    /* \"Learning Pth/EventTicket.sol\":61:721  contract EventTicket {... */\n  jump(tag_14)\n    /* \"#utility.yul\":88:205   */\ntag_16:\n    /* \"#utility.yul\":197:198   */\n  0x00\n    /* \"#utility.yul\":194:195   */\n  dup1\n    /* \"#utility.yul\":187:199   */\n  revert\n    /* \"#utility.yul\":334:411   */\ntag_18:\n    /* \"#utility.yul\":371:378   */\n  0x00\n    /* \"#utility.yul\":400:405   */\n  dup2\n    /* \"#utility.yul\":389:405   */\n  swap1\n  pop\n    /* \"#utility.yul\":334:411   */\n  swap2\n  swap1\n  pop\n  jump\t// out\n    /* \"#utility.yul\":417:539   */\ntag_19:\n    /* \"#utility.yul\":490:514   */\n  tag_29\n    /* \"#utility.yul\":508:513   */\n  dup2\n    /* \"#utility.yul\":490:514   */\n  tag_18\n  jump\t// in\ntag_29:\n    /* \"#utility.yul\":483:488   */\n  dup2\n    /* \"#utility.yul\":480:515   */\n  eq\n    /* \"#utility.yul\":470:533   */\n  tag_30\n  jumpi\n    /* \"#utility.yul\":529:530   */\n  0x00\n    /* \"#utility.yul\":526:527   */\n  dup1\n    /* \"#utility.yul\":519:531   */\n  revert\n    /* \"#utility.yul\":470:533   */\ntag_30:\n    /* \"#utility.yul\":417:539   */\n  pop\n  jump\t// out\n    /* \"#utility.yul\":545:688   */\ntag_20:\n    /* \"#utility.yul\":602:607   */\n  0x00\n    /* \"#utility.yul\":633:639   */\n  dup2\n    /* \"#utility.yul\":627:640   */\n  mload\n    /* \"#utility.yul\":618:640   */\n  swap1\n  pop\n    /* \"#utility.yul\":649:682   */\n  tag_32\n    /* \"#utility.yul\":676:681   */\n  dup2\n    /* \"#utility.yul\":649:682   */\n  tag_19\n  jump\t// in\ntag_32:\n    /* \"#utility.yul\":545:688   */\n  swap3\n  swap2\n  pop\n  pop\n  jump\t// out\n    /* \"#utility.yul\":694:1045   */\ntag_3:\n    /* \"#utility.yul\":764:770   */\n  0x00\n    /* \"#utility.yul\":813:815   */\n  0x20\n    /* \"#utility.yul\":801:810   */\n  dup3\n    /* \"#utility.yul\":792:799   */\n  dup5\n    /* \"#utility.yul\":788:811   */\n  sub\n    /* \"#utility.yul\":784:816   */\n  slt\n    /* \"#utility.yul\":781:900   */\n  iszero\n  tag_34\n  jumpi\n    /* \"#utility.yul\":819:898   */\n  tag_35\n  tag_16\n  jump\t// in\ntag_35:\n    /* \"#utility.yul\":781:900   */\ntag_34:\n    /* \"#utility.yul\":939:940   */\n  0x00\n    /* \"#utility.yul\":964:1028   */\n  tag_36\n    /* \"#utility.yul\":1020:1027   */\n  dup5\n    /* \"#utility.yul\":1011:1017   */\n  dup3\n    /* \"#utility.yul\":1000:1009   */\n  dup6\n    /* \"#utility.yul\":996:1018   */\n  add\n    /* \"#utility.yul\":964:1028   */\n  tag_20\n  jump\t// in\ntag_36:\n    /* \"#utility.yul\":954:1028   */\n  swap2\n  pop\n    /* \"#utility.yul\":910:1038   */\n  pop\n    /* \"#utility.yul\":694:1045   */\n  swap3\n  swap2\n  pop\n  pop\n  jump\t// out\n    /* \"#utility.yul\":1051:1231   */\ntag_21:\n    /* \"#utility.yul\":1099:1176   */\n  0x4e487b7100000000000000000000000000000000000000000000000000000000\n    /* \"#utility.yul\":1096:1097   */\n  0x00\n    /* \"#utility.yul\":1089:1177   */\n  mstore\n    /* \"#utility.yul\":1196:1200   */\n  0x11\n    /* \"#utility.yul\":1193:1194   */\n  0x04\n    /* \"#utility.yul\":1186:1201   */\n  mstore\n    /* \"#utility.yul\":1220:1224   */\n  0x24\n    /* \"#utility.yul\":1217:1218   */\n  0x00\n    /* \"#utility.yul\":1210:1225   */\n  revert\n    /* \"#utility.yul\":1237:1428   */\ntag_7:\n    /* \"#utility.yul\":1277:1280   */\n  0x00\n    /* \"#utility.yul\":1296:1316   */\n  tag_39\n    /* \"#utility.yul\":1314:1315   */\n  dup3\n    /* \"#utility.yul\":1296:1316   */\n  tag_18\n  jump\t// in\ntag_39:\n    /* \"#utility.yul\":1291:1316   */\n  swap2\n  pop\n    /* \"#utility.yul\":1330:1350   */\n  tag_40\n    /* \"#utility.yul\":1348:1349   */\n  dup4\n    /* \"#utility.yul\":1330:1350   */\n  tag_18\n  jump\t// in\ntag_40:\n    /* \"#utility.yul\":1325:1350   */\n  swap3\n  pop\n    /* \"#utility.yul\":1373:1374   */\n  dup3\n    /* \"#utility.yul\":1370:1371   */\n  dup3\n    /* \"#utility.yul\":1366:1375   */\n  add\n    /* \"#utility.yul\":1359:1375   */\n  swap1\n  pop\n    /* \"#utility.yul\":1394:1397   */\n  dup1\n    /* \"#utility.yul\":1391:1392   */\n  dup3\n    /* \"#utility.yul\":1388:1398   */\n  gt\n    /* \"#utility.yul\":1385:1421   */\n  iszero\n  tag_41\n  jumpi\n    /* \"#utility.yul\":1401:1419   */\n  tag_42\n  tag_21\n  jump\t// in\ntag_42:\n    /* \"#utility.yul\":1385:1421   */\ntag_41:\n    /* \"#utility.yul\":1237:1428   */\n  swap3\n  swap2\n  pop\n  pop\n  jump\t// out\n    /* \"#utility.yul\":1434:1628   */\ntag_9:\n    /* \"#utility.yul\":1474:1478   */\n  0x00\n    /* \"#utility.yul\":1494:1514   */\n  tag_44\n    /* \"#utility.yul\":1512:1513   */\n  dup3\n    /* \"#utility.yul\":1494:1514   */\n  tag_18\n  jump\t// in\ntag_44:\n    /* \"#utility.yul\":1489:1514   */\n  swap2\n  pop\n    /* \"#utility.yul\":1528:1548   */\n  tag_45\n    /* \"#utility.yul\":1546:1547   */\n  dup4\n    /* \"#utility.yul\":1528:1548   */\n  tag_18\n  jump\t// in\ntag_45:\n    /* \"#utility.yul\":1523:1548   */\n  swap3\n  pop\n    /* \"#utility.yul\":1572:1573   */\n  dup3\n    /* \"#utility.yul\":1569:1570   */\n  dup3\n    /* \"#utility.yul\":1565:1574   */\n  sub\n    /* \"#utility.yul\":1557:1574   */\n  swap1\n  pop\n    /* \"#utility.yul\":1596:1597   */\n  dup2\n    /* \"#utility.yul\":1590:1594   */\n  dup2\n    /* \"#utility.yul\":1587:1598   */\n  gt\n    /* \"#utility.yul\":1584:1621   */\n  iszero\n  tag_46\n  jumpi\n    /* \"#utility.yul\":1601:1619   */\n  tag_47\n  tag_21\n  jump\t// in\ntag_47:\n    /* \"#utility.yul\":1584:1621   */\ntag_46:\n    /* \"#utility.yul\":1434:1628   */\n  swap3\n  swap2\n  pop\n  pop\n  jump\t// out\n    /* \"#utility.yul\":1634:1814   */\ntag_22:\n    /* \"#utility.yul\":1682:1759   */\n  0x4e487b7100000000000000000000000000000000000000000000000000000000\n    /* \"#utility.yul\":1679:1680   */\n  0x00\n    /* \"#utility.yul\":1672:1760   */\n  mstore\n    /* \"#utility.yul\":1779:1783   */\n  0x12\n    /* \"#utility.yul\":1776:1777   */\n  0x04\n    /* \"#utility.yul\":1769:1784   */\n  mstore\n    /* \"#utility.yul\":1803:1807   */\n  0x24\n    /* \"#utility.yul\":1800:1801   */\n  0x00\n    /* \"#utility.yul\":1793:1808   */\n  revert\n    /* \"#utility.yul\":1820:2005   */\ntag_11:\n    /* \"#utility.yul\":1860:1861   */\n  0x00\n    /* \"#utility.yul\":1877:1897   */\n  tag_50\n    /* \"#utility.yul\":1895:1896   */\n  dup3\n    /* \"#utility.yul\":1877:1897   */\n  tag_18\n  jump\t// in\ntag_50:\n    /* \"#utility.yul\":1872:1897   */\n  swap2\n  pop\n    /* \"#utility.yul\":1911:1931   */\n  tag_51\n    /* \"#utility.yul\":1929:1930   */\n  dup4\n    /* \"#utility.yul\":1911:1931   */\n  tag_18\n  jump\t// in\ntag_51:\n    /* \"#utility.yul\":1906:1931   */\n  swap3\n  pop\n    /* \"#utility.yul\":1950:1951   */\n  dup3\n    /* \"#utility.yul\":1940:1975   */\n  tag_52\n  jumpi\n    /* \"#utility.yul\":1955:1973   */\n  tag_53\n  tag_22\n  jump\t// in\ntag_53:\n    /* \"#utility.yul\":1940:1975   */\ntag_52:\n    /* \"#utility.yul\":1997:1998   */\n  dup3\n    /* \"#utility.yul\":1994:1995   */\n  dup3\n    /* \"#utility.yul\":1990:1999   */\n  div\n    /* \"#utility.yul\":1985:1999   */\n  swap1\n  pop\n    /* \"#utility.yul\":1820:2005   */\n  swap3\n  swap2\n  pop\n  pop\n  jump\t// out\n    /* \"Learning Pth/EventTicket.sol\":61:721  contract EventTicket {... */\ntag_14:\n  dataSize(sub_0)\n  dup1\n  dataOffset(sub_0)\n  0x00\n  codecopy\n  0x00\n  return\nstop\n\nsub_0: assembly {\n        /* \"Learning Pth/EventTicket.sol\":61:721  contract EventTicket {... */\n      mstore(0x40, 0x80)\n      callvalue\n      dup1\n      iszero\n      tag_1\n      jumpi\n      0x00\n      dup1\n      revert\n    tag_1:\n      pop\n      jumpi(tag_2, lt(calldatasize, 0x04))\n      shr(0xe0, calldataload(0x00))\n      dup1\n      0x7cc3ae8c\n      gt\n      tag_11\n      jumpi\n      dup1\n      0x7cc3ae8c\n      eq\n      tag_7\n      jumpi\n      dup1\n      0xa035b1fe\n      eq\n      tag_8\n      jumpi\n      dup1\n      0xc7446565\n      eq\n      tag_9\n      jumpi\n      dup1\n      0xf454f2e0\n      eq\n      tag_10\n      jumpi\n      jump(tag_2)\n    tag_11:\n      dup1\n      0x1a39d8ef\n      eq\n      tag_3\n      jumpi\n      dup1\n      0x6284568a\n      eq\n      tag_4\n      jumpi\n      dup1\n      0x65ac4341\n      eq\n      tag_5\n      jumpi\n      dup1\n      0x67dd74ca\n      eq\n      tag_6\n      jumpi\n    tag_2:\n      0x00\n      dup1\n      revert\n        /* \"Learning Pth/EventTicket.sol\":122:145  uint public totalAmount */\n    tag_3:\n      tag_12\n      tag_13\n      jump\t// in\n    tag_12:\n      mload(0x40)\n      tag_14\n      swap2\n      swap1\n      tag_15\n      jump\t// in\n    tag_14:\n      mload(0x40)\n      dup1\n      swap2\n      sub\n      swap1\n      return\n        /* \"Learning Pth/EventTicket.sol\":226:247  uint public timeRange */\n    tag_4:\n      tag_16\n      tag_17\n      jump\t// in\n    tag_16:\n      mload(0x40)\n      tag_18\n      swap2\n      swap1\n      tag_15\n      jump\t// in\n    tag_18:\n      mload(0x40)\n      dup1\n      swap2\n      sub\n      swap1\n      return\n        /* \"Learning Pth/EventTicket.sol\":629:718  function getTotalAmount() public view returns(uint) {... */\n    tag_5:\n      tag_19\n      tag_20\n      jump\t// in\n    tag_19:\n      mload(0x40)\n      tag_21\n      swap2\n      swap1\n      tag_15\n      jump\t// in\n    tag_21:\n      mload(0x40)\n      dup1\n      swap2\n      sub\n      swap1\n      return\n        /* \"Learning Pth/EventTicket.sol\":454:621  function buyTicket(uint _value1) public returns(uint ticketId) {... */\n    tag_6:\n      tag_22\n      0x04\n      dup1\n      calldatasize\n      sub\n      dup2\n      add\n      swap1\n      tag_23\n      swap2\n      swap1\n      tag_24\n      jump\t// in\n    tag_23:\n      tag_25\n      jump\t// in\n    tag_22:\n      mload(0x40)\n      tag_26\n      swap2\n      swap1\n      tag_15\n      jump\t// in\n    tag_26:\n      mload(0x40)\n      dup1\n      swap2\n      sub\n      swap1\n      return\n        /* \"Learning Pth/EventTicket.sol\":202:219  uint public endAt */\n    tag_7:\n      tag_27\n      tag_28\n      jump\t// in\n    tag_27:\n      mload(0x40)\n      tag_29\n      swap2\n      swap1\n      tag_15\n      jump\t// in\n    tag_29:\n      mload(0x40)\n      dup1\n      swap2\n      sub\n      swap1\n      return\n        /* \"Learning Pth/EventTicket.sol\":152:169  uint public price */\n    tag_8:\n      tag_30\n      tag_31\n      jump\t// in\n    tag_30:\n      mload(0x40)\n      tag_32\n      swap2\n      swap1\n      tag_15\n      jump\t// in\n    tag_32:\n      mload(0x40)\n      dup1\n      swap2\n      sub\n      swap1\n      return\n        /* \"Learning Pth/EventTicket.sol\":176:195  uint public startAt */\n    tag_9:\n      tag_33\n      tag_34\n      jump\t// in\n    tag_33:\n      mload(0x40)\n      tag_35\n      swap2\n      swap1\n      tag_15\n      jump\t// in\n    tag_35:\n      mload(0x40)\n      dup1\n      swap2\n      sub\n      swap1\n      return\n        /* \"Learning Pth/EventTicket.sol\":89:115  uint public numberOfTicket */\n    tag_10:\n      tag_36\n      tag_37\n      jump\t// in\n    tag_36:\n      mload(0x40)\n      tag_38\n      swap2\n      swap1\n      tag_15\n      jump\t// in\n    tag_38:\n      mload(0x40)\n      dup1\n      swap2\n      sub\n      swap1\n      return\n        /* \"Learning Pth/EventTicket.sol\":122:145  uint public totalAmount */\n    tag_13:\n      sload(0x01)\n      dup2\n      jump\t// out\n        /* \"Learning Pth/EventTicket.sol\":226:247  uint public timeRange */\n    tag_17:\n      sload(0x05)\n      dup2\n      jump\t// out\n        /* \"Learning Pth/EventTicket.sol\":629:718  function getTotalAmount() public view returns(uint) {... */\n    tag_20:\n        /* \"Learning Pth/EventTicket.sol\":675:679  uint */\n      0x00\n        /* \"Learning Pth/EventTicket.sol\":699:710  totalAmount */\n      sload(0x01)\n        /* \"Learning Pth/EventTicket.sol\":692:710  return totalAmount */\n      swap1\n      pop\n        /* \"Learning Pth/EventTicket.sol\":629:718  function getTotalAmount() public view returns(uint) {... */\n      swap1\n      jump\t// out\n        /* \"Learning Pth/EventTicket.sol\":454:621  function buyTicket(uint _value1) public returns(uint ticketId) {... */\n    tag_25:\n        /* \"Learning Pth/EventTicket.sol\":502:515  uint ticketId */\n      0x00\n        /* \"Learning Pth/EventTicket.sol\":528:542  numberOfTicket */\n      dup1\n      0x00\n        /* \"Learning Pth/EventTicket.sol\":528:544  numberOfTicket++ */\n      dup2\n      sload\n      dup1\n      swap3\n      swap2\n      swap1\n      tag_41\n      swap1\n      tag_42\n      jump\t// in\n    tag_41:\n      swap2\n      swap1\n      pop\n      sstore\n      pop\n        /* \"Learning Pth/EventTicket.sol\":570:577  _value1 */\n      dup2\n        /* \"Learning Pth/EventTicket.sol\":555:566  totalAmount */\n      0x01\n      0x00\n        /* \"Learning Pth/EventTicket.sol\":555:577  totalAmount += _value1 */\n      dup3\n      dup3\n      sload\n      tag_43\n      swap2\n      swap1\n      tag_44\n      jump\t// in\n    tag_43:\n      swap3\n      pop\n      pop\n      dup2\n      swap1\n      sstore\n      pop\n        /* \"Learning Pth/EventTicket.sol\":599:613  numberOfTicket */\n      sload(0x00)\n        /* \"Learning Pth/EventTicket.sol\":588:613  ticketId = numberOfTicket */\n      swap1\n      pop\n        /* \"Learning Pth/EventTicket.sol\":454:621  function buyTicket(uint _value1) public returns(uint ticketId) {... */\n      swap2\n      swap1\n      pop\n      jump\t// out\n        /* \"Learning Pth/EventTicket.sol\":202:219  uint public endAt */\n    tag_28:\n      sload(0x04)\n      dup2\n      jump\t// out\n        /* \"Learning Pth/EventTicket.sol\":152:169  uint public price */\n    tag_31:\n      sload(0x02)\n      dup2\n      jump\t// out\n        /* \"Learning Pth/EventTicket.sol\":176:195  uint public startAt */\n    tag_34:\n      sload(0x03)\n      dup2\n      jump\t// out\n        /* \"Learning Pth/EventTicket.sol\":89:115  uint public numberOfTicket */\n    tag_37:\n      sload(0x00)\n      dup2\n      jump\t// out\n        /* \"#utility.yul\":7:84   */\n    tag_45:\n        /* \"#utility.yul\":44:51   */\n      0x00\n        /* \"#utility.yul\":73:78   */\n      dup2\n        /* \"#utility.yul\":62:78   */\n      swap1\n      pop\n        /* \"#utility.yul\":7:84   */\n      swap2\n      swap1\n      pop\n      jump\t// out\n        /* \"#utility.yul\":90:208   */\n    tag_46:\n        /* \"#utility.yul\":177:201   */\n      tag_56\n        /* \"#utility.yul\":195:200   */\n      dup2\n        /* \"#utility.yul\":177:201   */\n      tag_45\n      jump\t// in\n    tag_56:\n        /* \"#utility.yul\":172:175   */\n      dup3\n        /* \"#utility.yul\":165:202   */\n      mstore\n        /* \"#utility.yul\":90:208   */\n      pop\n      pop\n      jump\t// out\n        /* \"#utility.yul\":214:436   */\n    tag_15:\n        /* \"#utility.yul\":307:311   */\n      0x00\n        /* \"#utility.yul\":345:347   */\n      0x20\n        /* \"#utility.yul\":334:343   */\n      dup3\n        /* \"#utility.yul\":330:348   */\n      add\n        /* \"#utility.yul\":322:348   */\n      swap1\n      pop\n        /* \"#utility.yul\":358:429   */\n      tag_58\n        /* \"#utility.yul\":426:427   */\n      0x00\n        /* \"#utility.yul\":415:424   */\n      dup4\n        /* \"#utility.yul\":411:428   */\n      add\n        /* \"#utility.yul\":402:408   */\n      dup5\n        /* \"#utility.yul\":358:429   */\n      tag_46\n      jump\t// in\n    tag_58:\n        /* \"#utility.yul\":214:436   */\n      swap3\n      swap2\n      pop\n      pop\n      jump\t// out\n        /* \"#utility.yul\":523:640   */\n    tag_48:\n        /* \"#utility.yul\":632:633   */\n      0x00\n        /* \"#utility.yul\":629:630   */\n      dup1\n        /* \"#utility.yul\":622:634   */\n      revert\n        /* \"#utility.yul\":769:891   */\n    tag_50:\n        /* \"#utility.yul\":842:866   */\n      tag_63\n        /* \"#utility.yul\":860:865   */\n      dup2\n        /* \"#utility.yul\":842:866   */\n      tag_45\n      jump\t// in\n    tag_63:\n        /* \"#utility.yul\":835:840   */\n      dup2\n        /* \"#utility.yul\":832:867   */\n      eq\n        /* \"#utility.yul\":822:885   */\n      tag_64\n      jumpi\n        /* \"#utility.yul\":881:882   */\n      0x00\n        /* \"#utility.yul\":878:879   */\n      dup1\n        /* \"#utility.yul\":871:883   */\n      revert\n        /* \"#utility.yul\":822:885   */\n    tag_64:\n        /* \"#utility.yul\":769:891   */\n      pop\n      jump\t// out\n        /* \"#utility.yul\":897:1036   */\n    tag_51:\n        /* \"#utility.yul\":943:948   */\n      0x00\n        /* \"#utility.yul\":981:987   */\n      dup2\n        /* \"#utility.yul\":968:988   */\n      calldataload\n        /* \"#utility.yul\":959:988   */\n      swap1\n      pop\n        /* \"#utility.yul\":997:1030   */\n      tag_66\n        /* \"#utility.yul\":1024:1029   */\n      dup2\n        /* \"#utility.yul\":997:1030   */\n      tag_50\n      jump\t// in\n    tag_66:\n        /* \"#utility.yul\":897:1036   */\n      swap3\n      swap2\n      pop\n      pop\n      jump\t// out\n        /* \"#utility.yul\":1042:1371   */\n    tag_24:\n        /* \"#utility.yul\":1101:1107   */\n      0x00\n        /* \"#utility.yul\":1150:1152   */\n      0x20\n        /* \"#utility.yul\":1138:1147   */\n      dup3\n        /* \"#utility.yul\":1129:1136   */\n      dup5\n        /* \"#utility.yul\":1125:1148   */\n      sub\n        /* \"#utility.yul\":1121:1153   */\n      slt\n        /* \"#utility.yul\":1118:1237   */\n      iszero\n      tag_68\n      jumpi\n        /* \"#utility.yul\":1156:1235   */\n      tag_69\n      tag_48\n      jump\t// in\n    tag_69:\n        /* \"#utility.yul\":1118:1237   */\n    tag_68:\n        /* \"#utility.yul\":1276:1277   */\n      0x00\n        /* \"#utility.yul\":1301:1354   */\n      tag_70\n        /* \"#utility.yul\":1346:1353   */\n      dup5\n        /* \"#utility.yul\":1337:1343   */\n      dup3\n        /* \"#utility.yul\":1326:1335   */\n      dup6\n        /* \"#utility.yul\":1322:1344   */\n      add\n        /* \"#utility.yul\":1301:1354   */\n      tag_51\n      jump\t// in\n    tag_70:\n        /* \"#utility.yul\":1291:1354   */\n      swap2\n      pop\n        /* \"#utility.yul\":1247:1364   */\n      pop\n        /* \"#utility.yul\":1042:1371   */\n      swap3\n      swap2\n      pop\n      pop\n      jump\t// out\n        /* \"#utility.yul\":1377:1557   */\n    tag_52:\n        /* \"#utility.yul\":1425:1502   */\n      0x4e487b7100000000000000000000000000000000000000000000000000000000\n        /* \"#utility.yul\":1422:1423   */\n      0x00\n        /* \"#utility.yul\":1415:1503   */\n      mstore\n        /* \"#utility.yul\":1522:1526   */\n      0x11\n        /* \"#utility.yul\":1519:1520   */\n      0x04\n        /* \"#utility.yul\":1512:1527   */\n      mstore\n        /* \"#utility.yul\":1546:1550   */\n      0x24\n        /* \"#utility.yul\":1543:1544   */\n      0x00\n        /* \"#utility.yul\":1536:1551   */\n      revert\n        /* \"#utility.yul\":1563:1796   */\n    tag_42:\n        /* \"#utility.yul\":1602:1605   */\n      0x00\n        /* \"#utility.yul\":1625:1649   */\n      tag_73\n        /* \"#utility.yul\":1643:1648   */\n      dup3\n        /* \"#utility.yul\":1625:1649   */\n      tag_45\n      jump\t// in\n    tag_73:\n        /* \"#utility.yul\":1616:1649   */\n      swap2\n      pop\n        /* \"#utility.yul\":1671:1737   */\n      0xffffffffffffffffffffffffffffffffffffffffffffffffffffffffffffffff\n        /* \"#utility.yul\":1664:1669   */\n      dup3\n        /* \"#utility.yul\":1661:1738   */\n      sub\n        /* \"#utility.yul\":1658:1761   */\n      tag_74\n      jumpi\n        /* \"#utility.yul\":1741:1759   */\n      tag_75\n      tag_52\n      jump\t// in\n    tag_75:\n        /* \"#utility.yul\":1658:1761   */\n    tag_74:\n        /* \"#utility.yul\":1788:1789   */\n      0x01\n        /* \"#utility.yul\":1781:1786   */\n      dup3\n        /* \"#utility.yul\":1777:1790   */\n      add\n        /* \"#utility.yul\":1770:1790   */\n      swap1\n      pop\n        /* \"#utility.yul\":1563:1796   */\n      swap2\n      swap1\n      pop\n      jump\t// out\n        /* \"#utility.yul\":1802:1993   */\n    tag_44:\n        /* \"#utility.yul\":1842:1845   */\n      0x00\n        /* \"#utility.yul\":1861:1881   */\n      tag_77\n        /* \"#utility.yul\":1879:1880   */\n      dup3\n        /* \"#utility.yul\":1861:1881   */\n      tag_45\n      jump\t// in\n    tag_77:\n        /* \"#utility.yul\":1856:1881   */\n      swap2\n      pop\n        /* \"#utility.yul\":1895:1915   */\n      tag_78\n        /* \"#utility.yul\":1913:1914   */\n      dup4\n        /* \"#utility.yul\":1895:1915   */\n      tag_45\n      jump\t// in\n    tag_78:\n        /* \"#utility.yul\":1890:1915   */\n      swap3\n      pop\n        /* \"#utility.yul\":1938:1939   */\n      dup3\n        /* \"#utility.yul\":1935:1936   */\n      dup3\n        /* \"#utility.yul\":1931:1940   */\n      add\n        /* \"#utility.yul\":1924:1940   */\n      swap1\n      pop\n        /* \"#utility.yul\":1959:1962   */\n      dup1\n        /* \"#utility.yul\":1956:1957   */\n      dup3\n        /* \"#utility.yul\":1953:1963   */\n      gt\n        /* \"#utility.yul\":1950:1986   */\n      iszero\n      tag_79\n      jumpi\n        /* \"#utility.yul\":1966:1984   */\n      tag_80\n      tag_52\n      jump\t// in\n    tag_80:\n        /* \"#utility.yul\":1950:1986   */\n    tag_79:\n        /* \"#utility.yul\":1802:1993   */\n      swap3\n      swap2\n      pop\n      pop\n      jump\t// out\n\n    auxdata: 0xa2646970667358221220d18c02f7380b2532786244969d2616120bafbcfa59b92046cc682bc0413e853364736f6c634300081a0033\n}\n",
				"bytecode": {
					"linkReferences": {},
					"object": "608060405234801561000f575f80fd5b50604051610549380380610549833981810160405281019061003191906100ca565b806002819055504260038190555062093a804261004e9190610122565b6004819055506018603c806003546004546100699190610155565b61007391906101b5565b61007d91906101b5565b61008791906101b5565b600581905550506101e5565b5f80fd5b5f819050919050565b6100a981610097565b81146100b3575f80fd5b50565b5f815190506100c4816100a0565b92915050565b5f602082840312156100df576100de610093565b5b5f6100ec848285016100b6565b91505092915050565b7f4e487b71000000000000000000000000000000000000000000000000000000005f52601160045260245ffd5b5f61012c82610097565b915061013783610097565b925082820190508082111561014f5761014e6100f5565b5b92915050565b5f61015f82610097565b915061016a83610097565b9250828203905081811115610182576101816100f5565b5b92915050565b7f4e487b71000000000000000000000000000000000000000000000000000000005f52601260045260245ffd5b5f6101bf82610097565b91506101ca83610097565b9250826101da576101d9610188565b5b828204905092915050565b610357806101f25f395ff3fe608060405234801561000f575f80fd5b5060043610610086575f3560e01c80637cc3ae8c116100595780637cc3ae8c14610114578063a035b1fe14610132578063c744656514610150578063f454f2e01461016e57610086565b80631a39d8ef1461008a5780636284568a146100a857806365ac4341146100c657806367dd74ca146100e4575b5f80fd5b61009261018c565b60405161009f9190610208565b60405180910390f35b6100b0610192565b6040516100bd9190610208565b60405180910390f35b6100ce610198565b6040516100db9190610208565b60405180910390f35b6100fe60048036038101906100f9919061024f565b6101a1565b60405161010b9190610208565b60405180910390f35b61011c6101d9565b6040516101299190610208565b60405180910390f35b61013a6101df565b6040516101479190610208565b60405180910390f35b6101586101e5565b6040516101659190610208565b60405180910390f35b6101766101eb565b6040516101839190610208565b60405180910390f35b60015481565b60055481565b5f600154905090565b5f805f8154809291906101b3906102a7565b91905055508160015f8282546101c991906102ee565b925050819055505f549050919050565b60045481565b60025481565b60035481565b5f5481565b5f819050919050565b610202816101f0565b82525050565b5f60208201905061021b5f8301846101f9565b92915050565b5f80fd5b61022e816101f0565b8114610238575f80fd5b50565b5f8135905061024981610225565b92915050565b5f6020828403121561026457610263610221565b5b5f6102718482850161023b565b91505092915050565b7f4e487b71000000000000000000000000000000000000000000000000000000005f52601160045260245ffd5b5f6102b1826101f0565b91507fffffffffffffffffffffffffffffffffffffffffffffffffffffffffffffffff82036102e3576102e261027a565b5b600182019050919050565b5f6102f8826101f0565b9150610303836101f0565b925082820190508082111561031b5761031a61027a565b5b9291505056fea2646970667358221220d18c02f7380b2532786244969d2616120bafbcfa59b92046cc682bc0413e853364736f6c634300081a0033",
					"opcodes": "PUSH1 0x80 PUSH1 0x40 MSTORE CALLVALUE DUP1 ISZERO PUSH2 0xF JUMPI PUSH0 DUP1 REVERT JUMPDEST POP PUSH1 0x40 MLOAD PUSH2 0x549 CODESIZE SUB DUP1 PUSH2 0x549 DUP4 CODECOPY DUP2 DUP2 ADD PUSH1 0x40 MSTORE DUP2 ADD SWAP1 PUSH2 0x31 SWAP2 SWAP1 PUSH2 0xCA JUMP JUMPDEST DUP1 PUSH1 0x2 DUP2 SWAP1 SSTORE POP TIMESTAMP PUSH1 0x3 DUP2 SWAP1 SSTORE POP PUSH3 0x93A80 TIMESTAMP PUSH2 0x4E SWAP2 SWAP1 PUSH2 0x122 JUMP JUMPDEST PUSH1 0x4 DUP2 SWAP1 SSTORE POP PUSH1 0x18 PUSH1 0x3C DUP1 PUSH1 0x3 SLOAD PUSH1 0x4 SLOAD PUSH2 0x69 SWAP2 SWAP1 PUSH2 0x155 JUMP JUMPDEST PUSH2 0x73 SWAP2 SWAP1 PUSH2 0x1B5 JUMP JUMPDEST PUSH2 0x7D SWAP2 SWAP1 PUSH2 0x1B5 JUMP JUMPDEST PUSH2 0x87 SWAP2 SWAP1 PUSH2 0x1B5 JUMP JUMPDEST PUSH1 0x5 DUP2 SWAP1 SSTORE POP POP PUSH2 0x1E5 JUMP JUMPDEST PUSH0 DUP1 REVERT JUMPDEST PUSH0 DUP2 SWAP1 POP SWAP2 SWAP1 POP JUMP JUMPDEST PUSH2 0xA9 DUP2 PUSH2 0x97 JUMP JUMPDEST DUP2 EQ PUSH2 0xB3 JUMPI PUSH0 DUP1 REVERT JUMPDEST POP JUMP JUMPDEST PUSH0 DUP2 MLOAD SWAP1 POP PUSH2 0xC4 DUP2 PUSH2 0xA0 JUMP JUMPDEST SWAP3 SWAP2 POP POP JUMP JUMPDEST PUSH0 PUSH1 0x20 DUP3 DUP5 SUB SLT ISZERO PUSH2 0xDF JUMPI PUSH2 0xDE PUSH2 0x93 JUMP JUMPDEST JUMPDEST PUSH0 PUSH2 0xEC DUP5 DUP3 DUP6 ADD PUSH2 0xB6 JUMP JUMPDEST SWAP2 POP POP SWAP3 SWAP2 POP POP JUMP JUMPDEST PUSH32 0x4E487B7100000000000000000000000000000000000000000000000000000000 PUSH0 MSTORE PUSH1 0x11 PUSH1 0x4 MSTORE PUSH1 0x24 PUSH0 REVERT JUMPDEST PUSH0 PUSH2 0x12C DUP3 PUSH2 0x97 JUMP JUMPDEST SWAP2 POP PUSH2 0x137 DUP4 PUSH2 0x97 JUMP JUMPDEST SWAP3 POP DUP3 DUP3 ADD SWAP1 POP DUP1 DUP3 GT ISZERO PUSH2 0x14F JUMPI PUSH2 0x14E PUSH2 0xF5 JUMP JUMPDEST JUMPDEST SWAP3 SWAP2 POP POP JUMP JUMPDEST PUSH0 PUSH2 0x15F DUP3 PUSH2 0x97 JUMP JUMPDEST SWAP2 POP PUSH2 0x16A DUP4 PUSH2 0x97 JUMP JUMPDEST SWAP3 POP DUP3 DUP3 SUB SWAP1 POP DUP2 DUP2 GT ISZERO PUSH2 0x182 JUMPI PUSH2 0x181 PUSH2 0xF5 JUMP JUMPDEST JUMPDEST SWAP3 SWAP2 POP POP JUMP JUMPDEST PUSH32 0x4E487B7100000000000000000000000000000000000000000000000000000000 PUSH0 MSTORE PUSH1 0x12 PUSH1 0x4 MSTORE PUSH1 0x24 PUSH0 REVERT JUMPDEST PUSH0 PUSH2 0x1BF DUP3 PUSH2 0x97 JUMP JUMPDEST SWAP2 POP PUSH2 0x1CA DUP4 PUSH2 0x97 JUMP JUMPDEST SWAP3 POP DUP3 PUSH2 0x1DA JUMPI PUSH2 0x1D9 PUSH2 0x188 JUMP JUMPDEST JUMPDEST DUP3 DUP3 DIV SWAP1 POP SWAP3 SWAP2 POP POP JUMP JUMPDEST PUSH2 0x357 DUP1 PUSH2 0x1F2 PUSH0 CODECOPY PUSH0 RETURN INVALID PUSH1 0x80 PUSH1 0x40 MSTORE CALLVALUE DUP1 ISZERO PUSH2 0xF JUMPI PUSH0 DUP1 REVERT JUMPDEST POP PUSH1 0x4 CALLDATASIZE LT PUSH2 0x86 JUMPI PUSH0 CALLDATALOAD PUSH1 0xE0 SHR DUP1 PUSH4 0x7CC3AE8C GT PUSH2 0x59 JUMPI DUP1 PUSH4 0x7CC3AE8C EQ PUSH2 0x114 JUMPI DUP1 PUSH4 0xA035B1FE EQ PUSH2 0x132 JUMPI DUP1 PUSH4 0xC7446565 EQ PUSH2 0x150 JUMPI DUP1 PUSH4 0xF454F2E0 EQ PUSH2 0x16E JUMPI PUSH2 0x86 JUMP JUMPDEST DUP1 PUSH4 0x1A39D8EF EQ PUSH2 0x8A JUMPI DUP1 PUSH4 0x6284568A EQ PUSH2 0xA8 JUMPI DUP1 PUSH4 0x65AC4341 EQ PUSH2 0xC6 JUMPI DUP1 PUSH4 0x67DD74CA EQ PUSH2 0xE4 JUMPI JUMPDEST PUSH0 DUP1 REVERT JUMPDEST PUSH2 0x92 PUSH2 0x18C JUMP JUMPDEST PUSH1 0x40 MLOAD PUSH2 0x9F SWAP2 SWAP1 PUSH2 0x208 JUMP JUMPDEST PUSH1 0x40 MLOAD DUP1 SWAP2 SUB SWAP1 RETURN JUMPDEST PUSH2 0xB0 PUSH2 0x192 JUMP JUMPDEST PUSH1 0x40 MLOAD PUSH2 0xBD SWAP2 SWAP1 PUSH2 0x208 JUMP JUMPDEST PUSH1 0x40 MLOAD DUP1 SWAP2 SUB SWAP1 RETURN JUMPDEST PUSH2 0xCE PUSH2 0x198 JUMP JUMPDEST PUSH1 0x40 MLOAD PUSH2 0xDB SWAP2 SWAP1 PUSH2 0x208 JUMP JUMPDEST PUSH1 0x40 MLOAD DUP1 SWAP2 SUB SWAP1 RETURN JUMPDEST PUSH2 0xFE PUSH1 0x4 DUP1 CALLDATASIZE SUB DUP2 ADD SWAP1 PUSH2 0xF9 SWAP2 SWAP1 PUSH2 0x24F JUMP JUMPDEST PUSH2 0x1A1 JUMP JUMPDEST PUSH1 0x40 MLOAD PUSH2 0x10B SWAP2 SWAP1 PUSH2 0x208 JUMP JUMPDEST PUSH1 0x40 MLOAD DUP1 SWAP2 SUB SWAP1 RETURN JUMPDEST PUSH2 0x11C PUSH2 0x1D9 JUMP JUMPDEST PUSH1 0x40 MLOAD PUSH2 0x129 SWAP2 SWAP1 PUSH2 0x208 JUMP JUMPDEST PUSH1 0x40 MLOAD DUP1 SWAP2 SUB SWAP1 RETURN JUMPDEST PUSH2 0x13A PUSH2 0x1DF JUMP JUMPDEST PUSH1 0x40 MLOAD PUSH2 0x147 SWAP2 SWAP1 PUSH2 0x208 JUMP JUMPDEST PUSH1 0x40 MLOAD DUP1 SWAP2 SUB SWAP1 RETURN JUMPDEST PUSH2 0x158 PUSH2 0x1E5 JUMP JUMPDEST PUSH1 0x40 MLOAD PUSH2 0x165 SWAP2 SWAP1 PUSH2 0x208 JUMP JUMPDEST PUSH1 0x40 MLOAD DUP1 SWAP2 SUB SWAP1 RETURN JUMPDEST PUSH2 0x176 PUSH2 0x1EB JUMP JUMPDEST PUSH1 0x40 MLOAD PUSH2 0x183 SWAP2 SWAP1 PUSH2 0x208 JUMP JUMPDEST PUSH1 0x40 MLOAD DUP1 SWAP2 SUB SWAP1 RETURN JUMPDEST PUSH1 0x1 SLOAD DUP2 JUMP JUMPDEST PUSH1 0x5 SLOAD DUP2 JUMP JUMPDEST PUSH0 PUSH1 0x1 SLOAD SWAP1 POP SWAP1 JUMP JUMPDEST PUSH0 DUP1 PUSH0 DUP2 SLOAD DUP1 SWAP3 SWAP2 SWAP1 PUSH2 0x1B3 SWAP1 PUSH2 0x2A7 JUMP JUMPDEST SWAP2 SWAP1 POP SSTORE POP DUP2 PUSH1 0x1 PUSH0 DUP3 DUP3 SLOAD PUSH2 0x1C9 SWAP2 SWAP1 PUSH2 0x2EE JUMP JUMPDEST SWAP3 POP POP DUP2 SWAP1 SSTORE POP PUSH0 SLOAD SWAP1 POP SWAP2 SWAP1 POP JUMP JUMPDEST PUSH1 0x4 SLOAD DUP2 JUMP JUMPDEST PUSH1 0x2 SLOAD DUP2 JUMP JUMPDEST PUSH1 0x3 SLOAD DUP2 JUMP JUMPDEST PUSH0 SLOAD DUP2 JUMP JUMPDEST PUSH0 DUP2 SWAP1 POP SWAP2 SWAP1 POP JUMP JUMPDEST PUSH2 0x202 DUP2 PUSH2 0x1F0 JUMP JUMPDEST DUP3 MSTORE POP POP JUMP JUMPDEST PUSH0 PUSH1 0x20 DUP3 ADD SWAP1 POP PUSH2 0x21B PUSH0 DUP4 ADD DUP5 PUSH2 0x1F9 JUMP JUMPDEST SWAP3 SWAP2 POP POP JUMP JUMPDEST PUSH0 DUP1 REVERT JUMPDEST PUSH2 0x22E DUP2 PUSH2 0x1F0 JUMP JUMPDEST DUP2 EQ PUSH2 0x238 JUMPI PUSH0 DUP1 REVERT JUMPDEST POP JUMP JUMPDEST PUSH0 DUP2 CALLDATALOAD SWAP1 POP PUSH2 0x249 DUP2 PUSH2 0x225 JUMP JUMPDEST SWAP3 SWAP2 POP POP JUMP JUMPDEST PUSH0 PUSH1 0x20 DUP3 DUP5 SUB SLT ISZERO PUSH2 0x264 JUMPI PUSH2 0x263 PUSH2 0x221 JUMP JUMPDEST JUMPDEST PUSH0 PUSH2 0x271 DUP5 DUP3 DUP6 ADD PUSH2 0x23B JUMP JUMPDEST SWAP2 POP POP SWAP3 SWAP2 POP POP JUMP JUMPDEST PUSH32 0x4E487B7100000000000000000000000000000000000000000000000000000000 PUSH0 MSTORE PUSH1 0x11 PUSH1 0x4 MSTORE PUSH1 0x24 PUSH0 REVERT JUMPDEST PUSH0 PUSH2 0x2B1 DUP3 PUSH2 0x1F0 JUMP JUMPDEST SWAP2 POP PUSH32 0xFFFFFFFFFFFFFFFFFFFFFFFFFFFFFFFFFFFFFFFFFFFFFFFFFFFFFFFFFFFFFFFF DUP3 SUB PUSH2 0x2E3 JUMPI PUSH2 0x2E2 PUSH2 0x27A JUMP JUMPDEST JUMPDEST PUSH1 0x1 DUP3 ADD SWAP1 POP SWAP2 SWAP1 POP JUMP JUMPDEST PUSH0 PUSH2 0x2F8 DUP3 PUSH2 0x1F0 JUMP JUMPDEST SWAP2 POP PUSH2 0x303 DUP4 PUSH2 0x1F0 JUMP JUMPDEST SWAP3 POP DUP3 DUP3 ADD SWAP1 POP DUP1 DUP3 GT ISZERO PUSH2 0x31B JUMPI PUSH2 0x31A PUSH2 0x27A JUMP JUMPDEST JUMPDEST SWAP3 SWAP2 POP POP JUMP INVALID LOG2 PUSH5 0x6970667358 0x22 SLT KECCAK256 0xD1 DUP13 MUL 0xF7 CODESIZE SIGNEXTEND 0x25 ORIGIN PUSH25 0x6244969D2616120BAFBCFA59B92046CC682BC0413E85336473 PUSH16 0x6C634300081A00330000000000000000 "
				},
				"gasEstimates": {
					"creation": {
						"codeDepositCost": "171000",
						"executionCost": "infinite",
						"totalCost": "infinite"
					},
					"external": {
						"buyTicket(uint256)": "infinite",
						"endAt()": "2425",
						"getTotalAmount()": "2477",
						"numberOfTicket()": "2490",
						"price()": "2447",
						"startAt()": "2469",
						"timeRange()": "2448",
						"totalAmount()": "2426"
					}
				},
				"methodIdentifiers": {
					"buyTicket(uint256)": "67dd74ca",
					"endAt()": "7cc3ae8c",
					"getTotalAmount()": "65ac4341",
					"numberOfTicket()": "f454f2e0",
					"price()": "a035b1fe",
					"startAt()": "c7446565",
					"timeRange()": "6284568a",
					"totalAmount()": "1a39d8ef"
				}
			},
			"storageLayout": {
				"storage": [
					{
						"astId": 3,
						"contract": "Learning Pth/EventTicket.sol:EventTicket",
						"label": "numberOfTicket",
						"offset": 0,
						"slot": "0",
						"type": "t_uint256"
					},
					{
						"astId": 5,
						"contract": "Learning Pth/EventTicket.sol:EventTicket",
						"label": "totalAmount",
						"offset": 0,
						"slot": "1",
						"type": "t_uint256"
					},
					{
						"astId": 7,
						"contract": "Learning Pth/EventTicket.sol:EventTicket",
						"label": "price",
						"offset": 0,
						"slot": "2",
						"type": "t_uint256"
					},
					{
						"astId": 9,
						"contract": "Learning Pth/EventTicket.sol:EventTicket",
						"label": "startAt",
						"offset": 0,
						"slot": "3",
						"type": "t_uint256"
					},
					{
						"astId": 11,
						"contract": "Learning Pth/EventTicket.sol:EventTicket",
						"label": "endAt",
						"offset": 0,
						"slot": "4",
						"type": "t_uint256"
					},
					{
						"astId": 13,
						"contract": "Learning Pth/EventTicket.sol:EventTicket",
						"label": "timeRange",
						"offset": 0,
						"slot": "5",
						"type": "t_uint256"
					}
				],
				"types": {
					"t_uint256": {
						"encoding": "inplace",
						"label": "uint256",
						"numberOfBytes": "32"
					}
				}
			},
			"userdoc": {
				"kind": "user",
				"methods": {},
				"version": 1
			}
		}
	}
}