{
	"Learning Pth/ArraysEx.sol": {
		"Array_": {
			"abi": [
				{
					"inputs": [
						{
							"internalType": "uint256",
							"name": "",
							"type": "uint256"
						}
					],
					"name": "arr",
					"outputs": [
						{
							"internalType": "uint256",
							"name": "",
							"type": "uint256"
						}
					],
					"stateMutability": "view",
					"type": "function"
				},
				{
					"inputs": [
						{
							"internalType": "uint256",
							"name": "",
							"type": "uint256"
						}
					],
					"name": "arr2",
					"outputs": [
						{
							"internalType": "uint256",
							"name": "",
							"type": "uint256"
						}
					],
					"stateMutability": "view",
					"type": "function"
				},
				{
					"inputs": [
						{
							"internalType": "uint256",
							"name": "",
							"type": "uint256"
						}
					],
					"name": "array",
					"outputs": [
						{
							"internalType": "uint256",
							"name": "",
							"type": "uint256"
						}
					],
					"stateMutability": "view",
					"type": "function"
				},
				{
					"inputs": [],
					"name": "get",
					"outputs": [
						{
							"internalType": "uint256[]",
							"name": "",
							"type": "uint256[]"
						}
					],
					"stateMutability": "view",
					"type": "function"
				},
				{
					"inputs": [],
					"name": "length",
					"outputs": [
						{
							"internalType": "uint256",
							"name": "",
							"type": "uint256"
						}
					],
					"stateMutability": "view",
					"type": "function"
				},
				{
					"inputs": [],
					"name": "pop",
					"outputs": [],
					"stateMutability": "nonpayable",
					"type": "function"
				},
				{
					"inputs": [
						{
							"internalType": "uint256",
							"name": "_in",
							"type": "uint256"
						}
					],
					"name": "push",
					"outputs": [],
					"stateMutability": "nonpayable",
					"type": "function"
				},
				{
					"inputs": [
						{
							"internalType": "uint256",
							"name": "_in",
							"type": "uint256"
						}
					],
					"name": "remove",
					"outputs": [],
					"stateMutability": "nonpayable",
					"type": "function"
				},
				{
					"inputs": [],
					"name": "updateArr",
					"outputs": [],
					"stateMutability": "nonpayable",
					"type": "function"
				}
			],
			"devdoc": {
				"kind": "dev",
				"methods": {},
				"version": 1
			},
			"evm": {
				"assembly": "    /* \"Learning Pth/ArraysEx.sol\":61:681  contract Array_ {... */\n  mstore(0x40, 0x80)\n    /* \"Learning Pth/ArraysEx.sol\":110:146  uint[5] public arr = [1, 2, 3, 4, 5] */\n  mload(0x40)\n  dup1\n  0xa0\n  add\n  0x40\n  mstore\n  dup1\n    /* \"Learning Pth/ArraysEx.sol\":132:133  1 */\n  0x01\n    /* \"Learning Pth/ArraysEx.sol\":110:146  uint[5] public arr = [1, 2, 3, 4, 5] */\n  0xff\n  and\n  dup2\n  mstore\n  0x20\n  add\n    /* \"Learning Pth/ArraysEx.sol\":135:136  2 */\n  0x02\n    /* \"Learning Pth/ArraysEx.sol\":110:146  uint[5] public arr = [1, 2, 3, 4, 5] */\n  0xff\n  and\n  dup2\n  mstore\n  0x20\n  add\n    /* \"Learning Pth/ArraysEx.sol\":138:139  3 */\n  0x03\n    /* \"Learning Pth/ArraysEx.sol\":110:146  uint[5] public arr = [1, 2, 3, 4, 5] */\n  0xff\n  and\n  dup2\n  mstore\n  0x20\n  add\n    /* \"Learning Pth/ArraysEx.sol\":141:142  4 */\n  0x04\n    /* \"Learning Pth/ArraysEx.sol\":110:146  uint[5] public arr = [1, 2, 3, 4, 5] */\n  0xff\n  and\n  dup2\n  mstore\n  0x20\n  add\n    /* \"Learning Pth/ArraysEx.sol\":144:145  5 */\n  0x05\n    /* \"Learning Pth/ArraysEx.sol\":110:146  uint[5] public arr = [1, 2, 3, 4, 5] */\n  0xff\n  and\n  dup2\n  mstore\n  pop\n  0x01\n  swap1\n  0x05\n  tag_1\n  swap3\n  swap2\n  swap1\n  tag_2\n  jump\t// in\ntag_1:\n  pop\n    /* \"Learning Pth/ArraysEx.sol\":153:202  uint[] public arr2 = [10, 20, 30, 40, 50, 60, 70] */\n  mload(0x40)\n  dup1\n  0xe0\n  add\n  0x40\n  mstore\n  dup1\n    /* \"Learning Pth/ArraysEx.sol\":175:177  10 */\n  0x0a\n    /* \"Learning Pth/ArraysEx.sol\":153:202  uint[] public arr2 = [10, 20, 30, 40, 50, 60, 70] */\n  0xff\n  and\n  dup2\n  mstore\n  0x20\n  add\n    /* \"Learning Pth/ArraysEx.sol\":179:181  20 */\n  0x14\n    /* \"Learning Pth/ArraysEx.sol\":153:202  uint[] public arr2 = [10, 20, 30, 40, 50, 60, 70] */\n  0xff\n  and\n  dup2\n  mstore\n  0x20\n  add\n    /* \"Learning Pth/ArraysEx.sol\":183:185  30 */\n  0x1e\n    /* \"Learning Pth/ArraysEx.sol\":153:202  uint[] public arr2 = [10, 20, 30, 40, 50, 60, 70] */\n  0xff\n  and\n  dup2\n  mstore\n  0x20\n  add\n    /* \"Learning Pth/ArraysEx.sol\":187:189  40 */\n  0x28\n    /* \"Learning Pth/ArraysEx.sol\":153:202  uint[] public arr2 = [10, 20, 30, 40, 50, 60, 70] */\n  0xff\n  and\n  dup2\n  mstore\n  0x20\n  add\n    /* \"Learning Pth/ArraysEx.sol\":191:193  50 */\n  0x32\n    /* \"Learning Pth/ArraysEx.sol\":153:202  uint[] public arr2 = [10, 20, 30, 40, 50, 60, 70] */\n  0xff\n  and\n  dup2\n  mstore\n  0x20\n  add\n    /* \"Learning Pth/ArraysEx.sol\":195:197  60 */\n  0x3c\n    /* \"Learning Pth/ArraysEx.sol\":153:202  uint[] public arr2 = [10, 20, 30, 40, 50, 60, 70] */\n  0xff\n  and\n  dup2\n  mstore\n  0x20\n  add\n    /* \"Learning Pth/ArraysEx.sol\":199:201  70 */\n  0x46\n    /* \"Learning Pth/ArraysEx.sol\":153:202  uint[] public arr2 = [10, 20, 30, 40, 50, 60, 70] */\n  0xff\n  and\n  dup2\n  mstore\n  pop\n  0x06\n  swap1\n  0x07\n  tag_3\n  swap3\n  swap2\n  swap1\n  tag_4\n  jump\t// in\ntag_3:\n  pop\n    /* \"Learning Pth/ArraysEx.sol\":61:681  contract Array_ {... */\n  callvalue\n  dup1\n  iszero\n  tag_5\n  jumpi\n  0x00\n  dup1\n  revert\ntag_5:\n  pop\n  jump(tag_6)\ntag_2:\n  dup3\n  0x05\n  dup2\n  add\n  swap3\n  dup3\n  iszero\n  tag_7\n  jumpi\n  swap2\n  0x20\n  mul\n  dup3\n  add\ntag_8:\n  dup3\n  dup2\n  gt\n  iszero\n  tag_9\n  jumpi\n  dup3\n  mload\n  dup3\n  swap1\n  0xff\n  and\n  swap1\n  sstore\n  swap2\n  0x20\n  add\n  swap2\n  swap1\n  0x01\n  add\n  swap1\n  jump(tag_8)\ntag_9:\ntag_7:\n  pop\n  swap1\n  pop\n  tag_10\n  swap2\n  swap1\n  tag_11\n  jump\t// in\ntag_10:\n  pop\n  swap1\n  jump\t// out\ntag_4:\n  dup3\n  dup1\n  sload\n  dup3\n  dup3\n  sstore\n  swap1\n  0x00\n  mstore\n  keccak256(0x00, 0x20)\n  swap1\n  dup2\n  add\n  swap3\n  dup3\n  iszero\n  tag_12\n  jumpi\n  swap2\n  0x20\n  mul\n  dup3\n  add\ntag_13:\n  dup3\n  dup2\n  gt\n  iszero\n  tag_14\n  jumpi\n  dup3\n  mload\n  dup3\n  swap1\n  0xff\n  and\n  swap1\n  sstore\n  swap2\n  0x20\n  add\n  swap2\n  swap1\n  0x01\n  add\n  swap1\n  jump(tag_13)\ntag_14:\ntag_12:\n  pop\n  swap1\n  pop\n  tag_15\n  swap2\n  swap1\n  tag_11\n  jump\t// in\ntag_15:\n  pop\n  swap1\n  jump\t// out\ntag_11:\ntag_16:\n  dup1\n  dup3\n  gt\n  iszero\n  tag_17\n  jumpi\n  0x00\n  dup2\n  0x00\n  swap1\n  sstore\n  pop\n  0x01\n  add\n  jump(tag_16)\ntag_17:\n  pop\n  swap1\n  jump\t// out\ntag_6:\n  dataSize(sub_0)\n  dup1\n  dataOffset(sub_0)\n  0x00\n  codecopy\n  0x00\n  return\nstop\n\nsub_0: assembly {\n        /* \"Learning Pth/ArraysEx.sol\":61:681  contract Array_ {... */\n      mstore(0x40, 0x80)\n      callvalue\n      dup1\n      iszero\n      tag_1\n      jumpi\n      0x00\n      dup1\n      revert\n    tag_1:\n      pop\n      jumpi(tag_2, lt(calldatasize, 0x04))\n      shr(0xe0, calldataload(0x00))\n      dup1\n      0x71e5ee5f\n      gt\n      tag_12\n      jumpi\n      dup1\n      0x71e5ee5f\n      eq\n      tag_7\n      jumpi\n      dup1\n      0x959ac484\n      eq\n      tag_8\n      jumpi\n      dup1\n      0xa4ece52c\n      eq\n      tag_9\n      jumpi\n      dup1\n      0xd43f0e2b\n      eq\n      tag_10\n      jumpi\n      dup1\n      0xedf0099b\n      eq\n      tag_11\n      jumpi\n      jump(tag_2)\n    tag_12:\n      dup1\n      0x1f7b6d32\n      eq\n      tag_3\n      jumpi\n      dup1\n      0x38d94193\n      eq\n      tag_4\n      jumpi\n      dup1\n      0x4cc82215\n      eq\n      tag_5\n      jumpi\n      dup1\n      0x6d4ce63c\n      eq\n      tag_6\n      jumpi\n    tag_2:\n      0x00\n      dup1\n      revert\n        /* \"Learning Pth/ArraysEx.sol\":510:592  function length() public view returns(uint) {... */\n    tag_3:\n      tag_13\n      tag_14\n      jump\t// in\n    tag_13:\n      mload(0x40)\n      tag_15\n      swap2\n      swap1\n      tag_16\n      jump\t// in\n    tag_15:\n      mload(0x40)\n      dup1\n      swap2\n      sub\n      swap1\n      return\n        /* \"Learning Pth/ArraysEx.sol\":84:103  uint[] public array */\n    tag_4:\n      tag_17\n      0x04\n      dup1\n      calldatasize\n      sub\n      dup2\n      add\n      swap1\n      tag_18\n      swap2\n      swap1\n      tag_19\n      jump\t// in\n    tag_18:\n      tag_20\n      jump\t// in\n    tag_17:\n      mload(0x40)\n      tag_21\n      swap2\n      swap1\n      tag_16\n      jump\t// in\n    tag_21:\n      mload(0x40)\n      dup1\n      swap2\n      sub\n      swap1\n      return\n        /* \"Learning Pth/ArraysEx.sol\":433:502  function remove(uint _in) public {... */\n    tag_5:\n      tag_22\n      0x04\n      dup1\n      calldatasize\n      sub\n      dup2\n      add\n      swap1\n      tag_23\n      swap2\n      swap1\n      tag_19\n      jump\t// in\n    tag_23:\n      tag_24\n      jump\t// in\n    tag_22:\n      stop\n        /* \"Learning Pth/ArraysEx.sol\":211:292  function get() public view returns(uint[] memory) {... */\n    tag_6:\n      tag_25\n      tag_26\n      jump\t// in\n    tag_25:\n      mload(0x40)\n      tag_27\n      swap2\n      swap1\n      tag_28\n      jump\t// in\n    tag_27:\n      mload(0x40)\n      dup1\n      swap2\n      sub\n      swap1\n      return\n        /* \"Learning Pth/ArraysEx.sol\":110:146  uint[5] public arr = [1, 2, 3, 4, 5] */\n    tag_7:\n      tag_29\n      0x04\n      dup1\n      calldatasize\n      sub\n      dup2\n      add\n      swap1\n      tag_30\n      swap2\n      swap1\n      tag_19\n      jump\t// in\n    tag_30:\n      tag_31\n      jump\t// in\n    tag_29:\n      mload(0x40)\n      tag_32\n      swap2\n      swap1\n      tag_16\n      jump\t// in\n    tag_32:\n      mload(0x40)\n      dup1\n      swap2\n      sub\n      swap1\n      return\n        /* \"Learning Pth/ArraysEx.sol\":300:365  function push(uint _in) public {... */\n    tag_8:\n      tag_33\n      0x04\n      dup1\n      calldatasize\n      sub\n      dup2\n      add\n      swap1\n      tag_34\n      swap2\n      swap1\n      tag_19\n      jump\t// in\n    tag_34:\n      tag_35\n      jump\t// in\n    tag_33:\n      stop\n        /* \"Learning Pth/ArraysEx.sol\":373:425  function pop() public {... */\n    tag_9:\n      tag_36\n      tag_37\n      jump\t// in\n    tag_36:\n      stop\n        /* \"Learning Pth/ArraysEx.sol\":600:678  function updateArr() public {... */\n    tag_10:\n      tag_38\n      tag_39\n      jump\t// in\n    tag_38:\n      stop\n        /* \"Learning Pth/ArraysEx.sol\":153:202  uint[] public arr2 = [10, 20, 30, 40, 50, 60, 70] */\n    tag_11:\n      tag_40\n      0x04\n      dup1\n      calldatasize\n      sub\n      dup2\n      add\n      swap1\n      tag_41\n      swap2\n      swap1\n      tag_19\n      jump\t// in\n    tag_41:\n      tag_42\n      jump\t// in\n    tag_40:\n      mload(0x40)\n      tag_43\n      swap2\n      swap1\n      tag_16\n      jump\t// in\n    tag_43:\n      mload(0x40)\n      dup1\n      swap2\n      sub\n      swap1\n      return\n        /* \"Learning Pth/ArraysEx.sol\":510:592  function length() public view returns(uint) {... */\n    tag_14:\n        /* \"Learning Pth/ArraysEx.sol\":548:552  uint */\n      0x00\n        /* \"Learning Pth/ArraysEx.sol\":572:577  array */\n      dup1\n        /* \"Learning Pth/ArraysEx.sol\":572:584  array.length */\n      dup1\n      sload\n      swap1\n      pop\n        /* \"Learning Pth/ArraysEx.sol\":565:584  return array.length */\n      swap1\n      pop\n        /* \"Learning Pth/ArraysEx.sol\":510:592  function length() public view returns(uint) {... */\n      swap1\n      jump\t// out\n        /* \"Learning Pth/ArraysEx.sol\":84:103  uint[] public array */\n    tag_20:\n      0x00\n      dup2\n      dup2\n      sload\n      dup2\n      lt\n      tag_45\n      jumpi\n      0x00\n      dup1\n      revert\n    tag_45:\n      swap1\n      0x00\n      mstore\n      keccak256(0x00, 0x20)\n      add\n      0x00\n      swap2\n      pop\n      swap1\n      pop\n      sload\n      dup2\n      jump\t// out\n        /* \"Learning Pth/ArraysEx.sol\":433:502  function remove(uint _in) public {... */\n    tag_24:\n        /* \"Learning Pth/ArraysEx.sol\":484:489  array */\n      0x00\n        /* \"Learning Pth/ArraysEx.sol\":490:493  _in */\n      dup2\n        /* \"Learning Pth/ArraysEx.sol\":484:494  array[_in] */\n      dup2\n      sload\n      dup2\n      lt\n      tag_48\n      jumpi\n      tag_49\n      tag_50\n      jump\t// in\n    tag_49:\n    tag_48:\n      swap1\n      0x00\n      mstore\n      keccak256(0x00, 0x20)\n      add\n        /* \"Learning Pth/ArraysEx.sol\":477:494  delete array[_in] */\n      0x00\n      swap1\n      sstore\n        /* \"Learning Pth/ArraysEx.sol\":433:502  function remove(uint _in) public {... */\n      pop\n      jump\t// out\n        /* \"Learning Pth/ArraysEx.sol\":211:292  function get() public view returns(uint[] memory) {... */\n    tag_26:\n        /* \"Learning Pth/ArraysEx.sol\":246:259  uint[] memory */\n      0x60\n        /* \"Learning Pth/ArraysEx.sol\":279:284  array */\n      0x00\n        /* \"Learning Pth/ArraysEx.sol\":272:284  return array */\n      dup1\n      sload\n      dup1\n      0x20\n      mul\n      0x20\n      add\n      mload(0x40)\n      swap1\n      dup2\n      add\n      0x40\n      mstore\n      dup1\n      swap3\n      swap2\n      swap1\n      dup2\n      dup2\n      mstore\n      0x20\n      add\n      dup3\n      dup1\n      sload\n      dup1\n      iszero\n      tag_53\n      jumpi\n      0x20\n      mul\n      dup3\n      add\n      swap2\n      swap1\n      0x00\n      mstore\n      keccak256(0x00, 0x20)\n      swap1\n    tag_54:\n      dup2\n      sload\n      dup2\n      mstore\n      0x20\n      add\n      swap1\n      0x01\n      add\n      swap1\n      dup1\n      dup4\n      gt\n      tag_54\n      jumpi\n    tag_53:\n      pop\n      pop\n      pop\n      pop\n      pop\n      swap1\n      pop\n        /* \"Learning Pth/ArraysEx.sol\":211:292  function get() public view returns(uint[] memory) {... */\n      swap1\n      jump\t// out\n        /* \"Learning Pth/ArraysEx.sol\":110:146  uint[5] public arr = [1, 2, 3, 4, 5] */\n    tag_31:\n      0x01\n      dup2\n      0x05\n      dup2\n      lt\n      tag_55\n      jumpi\n      0x00\n      dup1\n      revert\n    tag_55:\n      add\n      0x00\n      swap2\n      pop\n      swap1\n      pop\n      sload\n      dup2\n      jump\t// out\n        /* \"Learning Pth/ArraysEx.sol\":300:365  function push(uint _in) public {... */\n    tag_35:\n        /* \"Learning Pth/ArraysEx.sol\":342:347  array */\n      0x00\n        /* \"Learning Pth/ArraysEx.sol\":353:356  _in */\n      dup2\n        /* \"Learning Pth/ArraysEx.sol\":342:357  array.push(_in) */\n      swap1\n      dup1\n      0x01\n      dup2\n      sload\n      add\n      dup1\n      dup3\n      sstore\n      dup1\n      swap2\n      pop\n      pop\n      0x01\n      swap1\n      sub\n      swap1\n      0x00\n      mstore\n      keccak256(0x00, 0x20)\n      add\n      0x00\n      swap1\n      swap2\n      swap1\n      swap2\n      swap1\n      swap2\n      pop\n      sstore\n        /* \"Learning Pth/ArraysEx.sol\":300:365  function push(uint _in) public {... */\n      pop\n      jump\t// out\n        /* \"Learning Pth/ArraysEx.sol\":373:425  function pop() public {... */\n    tag_37:\n        /* \"Learning Pth/ArraysEx.sol\":406:411  array */\n      0x00\n        /* \"Learning Pth/ArraysEx.sol\":406:417  array.pop() */\n      dup1\n      sload\n      dup1\n      tag_60\n      jumpi\n      tag_61\n      tag_62\n      jump\t// in\n    tag_61:\n    tag_60:\n      0x01\n      swap1\n      sub\n      dup2\n      dup2\n      swap1\n      0x00\n      mstore\n      keccak256(0x00, 0x20)\n      add\n      0x00\n      swap1\n      sstore\n      swap1\n      sstore\n        /* \"Learning Pth/ArraysEx.sol\":373:425  function pop() public {... */\n      jump\t// out\n        /* \"Learning Pth/ArraysEx.sol\":600:678  function updateArr() public {... */\n    tag_39:\n        /* \"Learning Pth/ArraysEx.sol\":639:654  uint[] memory a */\n      0x00\n        /* \"Learning Pth/ArraysEx.sol\":668:669  5 */\n      0x05\n        /* \"Learning Pth/ArraysEx.sol\":657:670  new uint[](5) */\n      0xffffffffffffffff\n      dup2\n      gt\n      iszero\n      tag_65\n      jumpi\n      tag_66\n      tag_67\n      jump\t// in\n    tag_66:\n    tag_65:\n      mload(0x40)\n      swap1\n      dup1\n      dup3\n      mstore\n      dup1\n      0x20\n      mul\n      0x20\n      add\n      dup3\n      add\n      0x40\n      mstore\n      dup1\n      iszero\n      tag_68\n      jumpi\n      dup2\n      0x20\n      add\n      0x20\n      dup3\n      mul\n      dup1\n      calldatasize\n      dup4\n      calldatacopy\n      dup1\n      dup3\n      add\n      swap2\n      pop\n      pop\n      swap1\n      pop\n    tag_68:\n      pop\n        /* \"Learning Pth/ArraysEx.sol\":639:670  uint[] memory a = new uint[](5) */\n      swap1\n      pop\n        /* \"Learning Pth/ArraysEx.sol\":628:678  {... */\n      pop\n        /* \"Learning Pth/ArraysEx.sol\":600:678  function updateArr() public {... */\n      jump\t// out\n        /* \"Learning Pth/ArraysEx.sol\":153:202  uint[] public arr2 = [10, 20, 30, 40, 50, 60, 70] */\n    tag_42:\n      0x06\n      dup2\n      dup2\n      sload\n      dup2\n      lt\n      tag_69\n      jumpi\n      0x00\n      dup1\n      revert\n    tag_69:\n      swap1\n      0x00\n      mstore\n      keccak256(0x00, 0x20)\n      add\n      0x00\n      swap2\n      pop\n      swap1\n      pop\n      sload\n      dup2\n      jump\t// out\n        /* \"#utility.yul\":7:84   */\n    tag_71:\n        /* \"#utility.yul\":44:51   */\n      0x00\n        /* \"#utility.yul\":73:78   */\n      dup2\n        /* \"#utility.yul\":62:78   */\n      swap1\n      pop\n        /* \"#utility.yul\":7:84   */\n      swap2\n      swap1\n      pop\n      jump\t// out\n        /* \"#utility.yul\":90:208   */\n    tag_72:\n        /* \"#utility.yul\":177:201   */\n      tag_88\n        /* \"#utility.yul\":195:200   */\n      dup2\n        /* \"#utility.yul\":177:201   */\n      tag_71\n      jump\t// in\n    tag_88:\n        /* \"#utility.yul\":172:175   */\n      dup3\n        /* \"#utility.yul\":165:202   */\n      mstore\n        /* \"#utility.yul\":90:208   */\n      pop\n      pop\n      jump\t// out\n        /* \"#utility.yul\":214:436   */\n    tag_16:\n        /* \"#utility.yul\":307:311   */\n      0x00\n        /* \"#utility.yul\":345:347   */\n      0x20\n        /* \"#utility.yul\":334:343   */\n      dup3\n        /* \"#utility.yul\":330:348   */\n      add\n        /* \"#utility.yul\":322:348   */\n      swap1\n      pop\n        /* \"#utility.yul\":358:429   */\n      tag_90\n        /* \"#utility.yul\":426:427   */\n      0x00\n        /* \"#utility.yul\":415:424   */\n      dup4\n        /* \"#utility.yul\":411:428   */\n      add\n        /* \"#utility.yul\":402:408   */\n      dup5\n        /* \"#utility.yul\":358:429   */\n      tag_72\n      jump\t// in\n    tag_90:\n        /* \"#utility.yul\":214:436   */\n      swap3\n      swap2\n      pop\n      pop\n      jump\t// out\n        /* \"#utility.yul\":523:640   */\n    tag_74:\n        /* \"#utility.yul\":632:633   */\n      0x00\n        /* \"#utility.yul\":629:630   */\n      dup1\n        /* \"#utility.yul\":622:634   */\n      revert\n        /* \"#utility.yul\":769:891   */\n    tag_76:\n        /* \"#utility.yul\":842:866   */\n      tag_95\n        /* \"#utility.yul\":860:865   */\n      dup2\n        /* \"#utility.yul\":842:866   */\n      tag_71\n      jump\t// in\n    tag_95:\n        /* \"#utility.yul\":835:840   */\n      dup2\n        /* \"#utility.yul\":832:867   */\n      eq\n        /* \"#utility.yul\":822:885   */\n      tag_96\n      jumpi\n        /* \"#utility.yul\":881:882   */\n      0x00\n        /* \"#utility.yul\":878:879   */\n      dup1\n        /* \"#utility.yul\":871:883   */\n      revert\n        /* \"#utility.yul\":822:885   */\n    tag_96:\n        /* \"#utility.yul\":769:891   */\n      pop\n      jump\t// out\n        /* \"#utility.yul\":897:1036   */\n    tag_77:\n        /* \"#utility.yul\":943:948   */\n      0x00\n        /* \"#utility.yul\":981:987   */\n      dup2\n        /* \"#utility.yul\":968:988   */\n      calldataload\n        /* \"#utility.yul\":959:988   */\n      swap1\n      pop\n        /* \"#utility.yul\":997:1030   */\n      tag_98\n        /* \"#utility.yul\":1024:1029   */\n      dup2\n        /* \"#utility.yul\":997:1030   */\n      tag_76\n      jump\t// in\n    tag_98:\n        /* \"#utility.yul\":897:1036   */\n      swap3\n      swap2\n      pop\n      pop\n      jump\t// out\n        /* \"#utility.yul\":1042:1371   */\n    tag_19:\n        /* \"#utility.yul\":1101:1107   */\n      0x00\n        /* \"#utility.yul\":1150:1152   */\n      0x20\n        /* \"#utility.yul\":1138:1147   */\n      dup3\n        /* \"#utility.yul\":1129:1136   */\n      dup5\n        /* \"#utility.yul\":1125:1148   */\n      sub\n        /* \"#utility.yul\":1121:1153   */\n      slt\n        /* \"#utility.yul\":1118:1237   */\n      iszero\n      tag_100\n      jumpi\n        /* \"#utility.yul\":1156:1235   */\n      tag_101\n      tag_74\n      jump\t// in\n    tag_101:\n        /* \"#utility.yul\":1118:1237   */\n    tag_100:\n        /* \"#utility.yul\":1276:1277   */\n      0x00\n        /* \"#utility.yul\":1301:1354   */\n      tag_102\n        /* \"#utility.yul\":1346:1353   */\n      dup5\n        /* \"#utility.yul\":1337:1343   */\n      dup3\n        /* \"#utility.yul\":1326:1335   */\n      dup6\n        /* \"#utility.yul\":1322:1344   */\n      add\n        /* \"#utility.yul\":1301:1354   */\n      tag_77\n      jump\t// in\n    tag_102:\n        /* \"#utility.yul\":1291:1354   */\n      swap2\n      pop\n        /* \"#utility.yul\":1247:1364   */\n      pop\n        /* \"#utility.yul\":1042:1371   */\n      swap3\n      swap2\n      pop\n      pop\n      jump\t// out\n        /* \"#utility.yul\":1377:1491   */\n    tag_78:\n        /* \"#utility.yul\":1444:1450   */\n      0x00\n        /* \"#utility.yul\":1478:1483   */\n      dup2\n        /* \"#utility.yul\":1472:1484   */\n      mload\n        /* \"#utility.yul\":1462:1484   */\n      swap1\n      pop\n        /* \"#utility.yul\":1377:1491   */\n      swap2\n      swap1\n      pop\n      jump\t// out\n        /* \"#utility.yul\":1497:1681   */\n    tag_79:\n        /* \"#utility.yul\":1596:1607   */\n      0x00\n        /* \"#utility.yul\":1630:1636   */\n      dup3\n        /* \"#utility.yul\":1625:1628   */\n      dup3\n        /* \"#utility.yul\":1618:1637   */\n      mstore\n        /* \"#utility.yul\":1670:1674   */\n      0x20\n        /* \"#utility.yul\":1665:1668   */\n      dup3\n        /* \"#utility.yul\":1661:1675   */\n      add\n        /* \"#utility.yul\":1646:1675   */\n      swap1\n      pop\n        /* \"#utility.yul\":1497:1681   */\n      swap3\n      swap2\n      pop\n      pop\n      jump\t// out\n        /* \"#utility.yul\":1687:1819   */\n    tag_80:\n        /* \"#utility.yul\":1754:1758   */\n      0x00\n        /* \"#utility.yul\":1777:1780   */\n      dup2\n        /* \"#utility.yul\":1769:1780   */\n      swap1\n      pop\n        /* \"#utility.yul\":1807:1811   */\n      0x20\n        /* \"#utility.yul\":1802:1805   */\n      dup3\n        /* \"#utility.yul\":1798:1812   */\n      add\n        /* \"#utility.yul\":1790:1812   */\n      swap1\n      pop\n        /* \"#utility.yul\":1687:1819   */\n      swap2\n      swap1\n      pop\n      jump\t// out\n        /* \"#utility.yul\":1825:1933   */\n    tag_81:\n        /* \"#utility.yul\":1902:1926   */\n      tag_107\n        /* \"#utility.yul\":1920:1925   */\n      dup2\n        /* \"#utility.yul\":1902:1926   */\n      tag_71\n      jump\t// in\n    tag_107:\n        /* \"#utility.yul\":1897:1900   */\n      dup3\n        /* \"#utility.yul\":1890:1927   */\n      mstore\n        /* \"#utility.yul\":1825:1933   */\n      pop\n      pop\n      jump\t// out\n        /* \"#utility.yul\":1939:2118   */\n    tag_82:\n        /* \"#utility.yul\":2008:2018   */\n      0x00\n        /* \"#utility.yul\":2029:2075   */\n      tag_109\n        /* \"#utility.yul\":2071:2074   */\n      dup4\n        /* \"#utility.yul\":2063:2069   */\n      dup4\n        /* \"#utility.yul\":2029:2075   */\n      tag_81\n      jump\t// in\n    tag_109:\n        /* \"#utility.yul\":2107:2111   */\n      0x20\n        /* \"#utility.yul\":2102:2105   */\n      dup4\n        /* \"#utility.yul\":2098:2112   */\n      add\n        /* \"#utility.yul\":2084:2112   */\n      swap1\n      pop\n        /* \"#utility.yul\":1939:2118   */\n      swap3\n      swap2\n      pop\n      pop\n      jump\t// out\n        /* \"#utility.yul\":2124:2237   */\n    tag_83:\n        /* \"#utility.yul\":2194:2198   */\n      0x00\n        /* \"#utility.yul\":2226:2230   */\n      0x20\n        /* \"#utility.yul\":2221:2224   */\n      dup3\n        /* \"#utility.yul\":2217:2231   */\n      add\n        /* \"#utility.yul\":2209:2231   */\n      swap1\n      pop\n        /* \"#utility.yul\":2124:2237   */\n      swap2\n      swap1\n      pop\n      jump\t// out\n        /* \"#utility.yul\":2273:3005   */\n    tag_84:\n        /* \"#utility.yul\":2392:2395   */\n      0x00\n        /* \"#utility.yul\":2421:2475   */\n      tag_112\n        /* \"#utility.yul\":2469:2474   */\n      dup3\n        /* \"#utility.yul\":2421:2475   */\n      tag_78\n      jump\t// in\n    tag_112:\n        /* \"#utility.yul\":2491:2577   */\n      tag_113\n        /* \"#utility.yul\":2570:2576   */\n      dup2\n        /* \"#utility.yul\":2565:2568   */\n      dup6\n        /* \"#utility.yul\":2491:2577   */\n      tag_79\n      jump\t// in\n    tag_113:\n        /* \"#utility.yul\":2484:2577   */\n      swap4\n      pop\n        /* \"#utility.yul\":2601:2657   */\n      tag_114\n        /* \"#utility.yul\":2651:2656   */\n      dup4\n        /* \"#utility.yul\":2601:2657   */\n      tag_80\n      jump\t// in\n    tag_114:\n        /* \"#utility.yul\":2680:2687   */\n      dup1\n        /* \"#utility.yul\":2711:2712   */\n      0x00\n        /* \"#utility.yul\":2696:2980   */\n    tag_115:\n        /* \"#utility.yul\":2721:2727   */\n      dup4\n        /* \"#utility.yul\":2718:2719   */\n      dup2\n        /* \"#utility.yul\":2715:2728   */\n      lt\n        /* \"#utility.yul\":2696:2980   */\n      iszero\n      tag_117\n      jumpi\n        /* \"#utility.yul\":2797:2803   */\n      dup2\n        /* \"#utility.yul\":2791:2804   */\n      mload\n        /* \"#utility.yul\":2824:2887   */\n      tag_118\n        /* \"#utility.yul\":2883:2886   */\n      dup9\n        /* \"#utility.yul\":2868:2881   */\n      dup3\n        /* \"#utility.yul\":2824:2887   */\n      tag_82\n      jump\t// in\n    tag_118:\n        /* \"#utility.yul\":2817:2887   */\n      swap8\n      pop\n        /* \"#utility.yul\":2910:2970   */\n      tag_119\n        /* \"#utility.yul\":2963:2969   */\n      dup4\n        /* \"#utility.yul\":2910:2970   */\n      tag_83\n      jump\t// in\n    tag_119:\n        /* \"#utility.yul\":2900:2970   */\n      swap3\n      pop\n        /* \"#utility.yul\":2756:2980   */\n      pop\n        /* \"#utility.yul\":2743:2744   */\n      0x01\n        /* \"#utility.yul\":2740:2741   */\n      dup2\n        /* \"#utility.yul\":2736:2745   */\n      add\n        /* \"#utility.yul\":2731:2745   */\n      swap1\n      pop\n        /* \"#utility.yul\":2696:2980   */\n      jump(tag_115)\n    tag_117:\n        /* \"#utility.yul\":2700:2714   */\n      pop\n        /* \"#utility.yul\":2996:2999   */\n      dup6\n        /* \"#utility.yul\":2989:2999   */\n      swap4\n      pop\n        /* \"#utility.yul\":2397:3005   */\n      pop\n      pop\n      pop\n        /* \"#utility.yul\":2273:3005   */\n      swap3\n      swap2\n      pop\n      pop\n      jump\t// out\n        /* \"#utility.yul\":3011:3384   */\n    tag_28:\n        /* \"#utility.yul\":3154:3158   */\n      0x00\n        /* \"#utility.yul\":3192:3194   */\n      0x20\n        /* \"#utility.yul\":3181:3190   */\n      dup3\n        /* \"#utility.yul\":3177:3195   */\n      add\n        /* \"#utility.yul\":3169:3195   */\n      swap1\n      pop\n        /* \"#utility.yul\":3241:3250   */\n      dup2\n        /* \"#utility.yul\":3235:3239   */\n      dup2\n        /* \"#utility.yul\":3231:3251   */\n      sub\n        /* \"#utility.yul\":3227:3228   */\n      0x00\n        /* \"#utility.yul\":3216:3225   */\n      dup4\n        /* \"#utility.yul\":3212:3229   */\n      add\n        /* \"#utility.yul\":3205:3252   */\n      mstore\n        /* \"#utility.yul\":3269:3377   */\n      tag_121\n        /* \"#utility.yul\":3372:3376   */\n      dup2\n        /* \"#utility.yul\":3363:3369   */\n      dup5\n        /* \"#utility.yul\":3269:3377   */\n      tag_84\n      jump\t// in\n    tag_121:\n        /* \"#utility.yul\":3261:3377   */\n      swap1\n      pop\n        /* \"#utility.yul\":3011:3384   */\n      swap3\n      swap2\n      pop\n      pop\n      jump\t// out\n        /* \"#utility.yul\":3390:3570   */\n    tag_50:\n        /* \"#utility.yul\":3438:3515   */\n      0x4e487b7100000000000000000000000000000000000000000000000000000000\n        /* \"#utility.yul\":3435:3436   */\n      0x00\n        /* \"#utility.yul\":3428:3516   */\n      mstore\n        /* \"#utility.yul\":3535:3539   */\n      0x32\n        /* \"#utility.yul\":3532:3533   */\n      0x04\n        /* \"#utility.yul\":3525:3540   */\n      mstore\n        /* \"#utility.yul\":3559:3563   */\n      0x24\n        /* \"#utility.yul\":3556:3557   */\n      0x00\n        /* \"#utility.yul\":3549:3564   */\n      revert\n        /* \"#utility.yul\":3576:3756   */\n    tag_62:\n        /* \"#utility.yul\":3624:3701   */\n      0x4e487b7100000000000000000000000000000000000000000000000000000000\n        /* \"#utility.yul\":3621:3622   */\n      0x00\n        /* \"#utility.yul\":3614:3702   */\n      mstore\n        /* \"#utility.yul\":3721:3725   */\n      0x31\n        /* \"#utility.yul\":3718:3719   */\n      0x04\n        /* \"#utility.yul\":3711:3726   */\n      mstore\n        /* \"#utility.yul\":3745:3749   */\n      0x24\n        /* \"#utility.yul\":3742:3743   */\n      0x00\n        /* \"#utility.yul\":3735:3750   */\n      revert\n        /* \"#utility.yul\":3762:3942   */\n    tag_67:\n        /* \"#utility.yul\":3810:3887   */\n      0x4e487b7100000000000000000000000000000000000000000000000000000000\n        /* \"#utility.yul\":3807:3808   */\n      0x00\n        /* \"#utility.yul\":3800:3888   */\n      mstore\n        /* \"#utility.yul\":3907:3911   */\n      0x41\n        /* \"#utility.yul\":3904:3905   */\n      0x04\n        /* \"#utility.yul\":3897:3912   */\n      mstore\n        /* \"#utility.yul\":3931:3935   */\n      0x24\n        /* \"#utility.yul\":3928:3929   */\n      0x00\n        /* \"#utility.yul\":3921:3936   */\n      revert\n\n    auxdata: 0xa2646970667358221220811aae39ab050398f9315426eb4679286c210d2fb4f6c400f2efaca4a66b02d964736f6c634300081a0033\n}\n",
				"bytecode": {
					"linkReferences": {},
					"object": "60806040526040518060a00160405280600160ff168152602001600260ff168152602001600360ff168152602001600460ff168152602001600560ff16815250600190600561004f9291906100c1565b506040518060e00160405280600a60ff168152602001601460ff168152602001601e60ff168152602001602860ff168152602001603260ff168152602001603c60ff168152602001604660ff1681525060069060076100af929190610106565b503480156100bb575f80fd5b50610171565b82600581019282156100f5579160200282015b828111156100f4578251829060ff169055916020019190600101906100d4565b5b5090506101029190610156565b5090565b828054828255905f5260205f20908101928215610145579160200282015b82811115610144578251829060ff16905591602001919060010190610124565b5b5090506101529190610156565b5090565b5b8082111561016d575f815f905550600101610157565b5090565b6105428061017e5f395ff3fe608060405234801561000f575f80fd5b5060043610610091575f3560e01c806371e5ee5f1161006457806371e5ee5f1461011d578063959ac4841461014d578063a4ece52c14610169578063d43f0e2b14610173578063edf0099b1461017d57610091565b80631f7b6d321461009557806338d94193146100b35780634cc82215146100e35780636d4ce63c146100ff575b5f80fd5b61009d6101ad565b6040516100aa919061033c565b60405180910390f35b6100cd60048036038101906100c89190610383565b6101b8565b6040516100da919061033c565b60405180910390f35b6100fd60048036038101906100f89190610383565b6101d7565b005b6101076101f8565b6040516101149190610465565b60405180910390f35b61013760048036038101906101329190610383565b61024d565b604051610144919061033c565b60405180910390f35b61016760048036038101906101629190610383565b610266565b005b61017161028e565b005b61017b6102b4565b005b61019760048036038101906101929190610383565b610304565b6040516101a4919061033c565b60405180910390f35b5f8080549050905090565b5f81815481106101c6575f80fd5b905f5260205f20015f915090505481565b5f81815481106101ea576101e9610485565b5b905f5260205f20015f905550565b60605f80548060200260200160405190810160405280929190818152602001828054801561024357602002820191905f5260205f20905b81548152602001906001019080831161022f575b5050505050905090565b6001816005811061025c575f80fd5b015f915090505481565b5f81908060018154018082558091505060019003905f5260205f20015f909190919091505550565b5f80548061029f5761029e6104b2565b5b600190038181905f5260205f20015f90559055565b5f600567ffffffffffffffff8111156102d0576102cf6104df565b5b6040519080825280602002602001820160405280156102fe5781602001602082028036833780820191505090505b50905050565b60068181548110610313575f80fd5b905f5260205f20015f915090505481565b5f819050919050565b61033681610324565b82525050565b5f60208201905061034f5f83018461032d565b92915050565b5f80fd5b61036281610324565b811461036c575f80fd5b50565b5f8135905061037d81610359565b92915050565b5f6020828403121561039857610397610355565b5b5f6103a58482850161036f565b91505092915050565b5f81519050919050565b5f82825260208201905092915050565b5f819050602082019050919050565b6103e081610324565b82525050565b5f6103f183836103d7565b60208301905092915050565b5f602082019050919050565b5f610413826103ae565b61041d81856103b8565b9350610428836103c8565b805f5b8381101561045857815161043f88826103e6565b975061044a836103fd565b92505060018101905061042b565b5085935050505092915050565b5f6020820190508181035f83015261047d8184610409565b905092915050565b7f4e487b71000000000000000000000000000000000000000000000000000000005f52603260045260245ffd5b7f4e487b71000000000000000000000000000000000000000000000000000000005f52603160045260245ffd5b7f4e487b71000000000000000000000000000000000000000000000000000000005f52604160045260245ffdfea2646970667358221220811aae39ab050398f9315426eb4679286c210d2fb4f6c400f2efaca4a66b02d964736f6c634300081a0033",
					"opcodes": "PUSH1 0x80 PUSH1 0x40 MSTORE PUSH1 0x40 MLOAD DUP1 PUSH1 0xA0 ADD PUSH1 0x40 MSTORE DUP1 PUSH1 0x1 PUSH1 0xFF AND DUP2 MSTORE PUSH1 0x20 ADD PUSH1 0x2 PUSH1 0xFF AND DUP2 MSTORE PUSH1 0x20 ADD PUSH1 0x3 PUSH1 0xFF AND DUP2 MSTORE PUSH1 0x20 ADD PUSH1 0x4 PUSH1 0xFF AND DUP2 MSTORE PUSH1 0x20 ADD PUSH1 0x5 PUSH1 0xFF AND DUP2 MSTORE POP PUSH1 0x1 SWAP1 PUSH1 0x5 PUSH2 0x4F SWAP3 SWAP2 SWAP1 PUSH2 0xC1 JUMP JUMPDEST POP PUSH1 0x40 MLOAD DUP1 PUSH1 0xE0 ADD PUSH1 0x40 MSTORE DUP1 PUSH1 0xA PUSH1 0xFF AND DUP2 MSTORE PUSH1 0x20 ADD PUSH1 0x14 PUSH1 0xFF AND DUP2 MSTORE PUSH1 0x20 ADD PUSH1 0x1E PUSH1 0xFF AND DUP2 MSTORE PUSH1 0x20 ADD PUSH1 0x28 PUSH1 0xFF AND DUP2 MSTORE PUSH1 0x20 ADD PUSH1 0x32 PUSH1 0xFF AND DUP2 MSTORE PUSH1 0x20 ADD PUSH1 0x3C PUSH1 0xFF AND DUP2 MSTORE PUSH1 0x20 ADD PUSH1 0x46 PUSH1 0xFF AND DUP2 MSTORE POP PUSH1 0x6 SWAP1 PUSH1 0x7 PUSH2 0xAF SWAP3 SWAP2 SWAP1 PUSH2 0x106 JUMP JUMPDEST POP CALLVALUE DUP1 ISZERO PUSH2 0xBB JUMPI PUSH0 DUP1 REVERT JUMPDEST POP PUSH2 0x171 JUMP JUMPDEST DUP3 PUSH1 0x5 DUP2 ADD SWAP3 DUP3 ISZERO PUSH2 0xF5 JUMPI SWAP2 PUSH1 0x20 MUL DUP3 ADD JUMPDEST DUP3 DUP2 GT ISZERO PUSH2 0xF4 JUMPI DUP3 MLOAD DUP3 SWAP1 PUSH1 0xFF AND SWAP1 SSTORE SWAP2 PUSH1 0x20 ADD SWAP2 SWAP1 PUSH1 0x1 ADD SWAP1 PUSH2 0xD4 JUMP JUMPDEST JUMPDEST POP SWAP1 POP PUSH2 0x102 SWAP2 SWAP1 PUSH2 0x156 JUMP JUMPDEST POP SWAP1 JUMP JUMPDEST DUP3 DUP1 SLOAD DUP3 DUP3 SSTORE SWAP1 PUSH0 MSTORE PUSH1 0x20 PUSH0 KECCAK256 SWAP1 DUP2 ADD SWAP3 DUP3 ISZERO PUSH2 0x145 JUMPI SWAP2 PUSH1 0x20 MUL DUP3 ADD JUMPDEST DUP3 DUP2 GT ISZERO PUSH2 0x144 JUMPI DUP3 MLOAD DUP3 SWAP1 PUSH1 0xFF AND SWAP1 SSTORE SWAP2 PUSH1 0x20 ADD SWAP2 SWAP1 PUSH1 0x1 ADD SWAP1 PUSH2 0x124 JUMP JUMPDEST JUMPDEST POP SWAP1 POP PUSH2 0x152 SWAP2 SWAP1 PUSH2 0x156 JUMP JUMPDEST POP SWAP1 JUMP JUMPDEST JUMPDEST DUP1 DUP3 GT ISZERO PUSH2 0x16D JUMPI PUSH0 DUP2 PUSH0 SWAP1 SSTORE POP PUSH1 0x1 ADD PUSH2 0x157 JUMP JUMPDEST POP SWAP1 JUMP JUMPDEST PUSH2 0x542 DUP1 PUSH2 0x17E PUSH0 CODECOPY PUSH0 RETURN INVALID PUSH1 0x80 PUSH1 0x40 MSTORE CALLVALUE DUP1 ISZERO PUSH2 0xF JUMPI PUSH0 DUP1 REVERT JUMPDEST POP PUSH1 0x4 CALLDATASIZE LT PUSH2 0x91 JUMPI PUSH0 CALLDATALOAD PUSH1 0xE0 SHR DUP1 PUSH4 0x71E5EE5F GT PUSH2 0x64 JUMPI DUP1 PUSH4 0x71E5EE5F EQ PUSH2 0x11D JUMPI DUP1 PUSH4 0x959AC484 EQ PUSH2 0x14D JUMPI DUP1 PUSH4 0xA4ECE52C EQ PUSH2 0x169 JUMPI DUP1 PUSH4 0xD43F0E2B EQ PUSH2 0x173 JUMPI DUP1 PUSH4 0xEDF0099B EQ PUSH2 0x17D JUMPI PUSH2 0x91 JUMP JUMPDEST DUP1 PUSH4 0x1F7B6D32 EQ PUSH2 0x95 JUMPI DUP1 PUSH4 0x38D94193 EQ PUSH2 0xB3 JUMPI DUP1 PUSH4 0x4CC82215 EQ PUSH2 0xE3 JUMPI DUP1 PUSH4 0x6D4CE63C EQ PUSH2 0xFF JUMPI JUMPDEST PUSH0 DUP1 REVERT JUMPDEST PUSH2 0x9D PUSH2 0x1AD JUMP JUMPDEST PUSH1 0x40 MLOAD PUSH2 0xAA SWAP2 SWAP1 PUSH2 0x33C JUMP JUMPDEST PUSH1 0x40 MLOAD DUP1 SWAP2 SUB SWAP1 RETURN JUMPDEST PUSH2 0xCD PUSH1 0x4 DUP1 CALLDATASIZE SUB DUP2 ADD SWAP1 PUSH2 0xC8 SWAP2 SWAP1 PUSH2 0x383 JUMP JUMPDEST PUSH2 0x1B8 JUMP JUMPDEST PUSH1 0x40 MLOAD PUSH2 0xDA SWAP2 SWAP1 PUSH2 0x33C JUMP JUMPDEST PUSH1 0x40 MLOAD DUP1 SWAP2 SUB SWAP1 RETURN JUMPDEST PUSH2 0xFD PUSH1 0x4 DUP1 CALLDATASIZE SUB DUP2 ADD SWAP1 PUSH2 0xF8 SWAP2 SWAP1 PUSH2 0x383 JUMP JUMPDEST PUSH2 0x1D7 JUMP JUMPDEST STOP JUMPDEST PUSH2 0x107 PUSH2 0x1F8 JUMP JUMPDEST PUSH1 0x40 MLOAD PUSH2 0x114 SWAP2 SWAP1 PUSH2 0x465 JUMP JUMPDEST PUSH1 0x40 MLOAD DUP1 SWAP2 SUB SWAP1 RETURN JUMPDEST PUSH2 0x137 PUSH1 0x4 DUP1 CALLDATASIZE SUB DUP2 ADD SWAP1 PUSH2 0x132 SWAP2 SWAP1 PUSH2 0x383 JUMP JUMPDEST PUSH2 0x24D JUMP JUMPDEST PUSH1 0x40 MLOAD PUSH2 0x144 SWAP2 SWAP1 PUSH2 0x33C JUMP JUMPDEST PUSH1 0x40 MLOAD DUP1 SWAP2 SUB SWAP1 RETURN JUMPDEST PUSH2 0x167 PUSH1 0x4 DUP1 CALLDATASIZE SUB DUP2 ADD SWAP1 PUSH2 0x162 SWAP2 SWAP1 PUSH2 0x383 JUMP JUMPDEST PUSH2 0x266 JUMP JUMPDEST STOP JUMPDEST PUSH2 0x171 PUSH2 0x28E JUMP JUMPDEST STOP JUMPDEST PUSH2 0x17B PUSH2 0x2B4 JUMP JUMPDEST STOP JUMPDEST PUSH2 0x197 PUSH1 0x4 DUP1 CALLDATASIZE SUB DUP2 ADD SWAP1 PUSH2 0x192 SWAP2 SWAP1 PUSH2 0x383 JUMP JUMPDEST PUSH2 0x304 JUMP JUMPDEST PUSH1 0x40 MLOAD PUSH2 0x1A4 SWAP2 SWAP1 PUSH2 0x33C JUMP JUMPDEST PUSH1 0x40 MLOAD DUP1 SWAP2 SUB SWAP1 RETURN JUMPDEST PUSH0 DUP1 DUP1 SLOAD SWAP1 POP SWAP1 POP SWAP1 JUMP JUMPDEST PUSH0 DUP2 DUP2 SLOAD DUP2 LT PUSH2 0x1C6 JUMPI PUSH0 DUP1 REVERT JUMPDEST SWAP1 PUSH0 MSTORE PUSH1 0x20 PUSH0 KECCAK256 ADD PUSH0 SWAP2 POP SWAP1 POP SLOAD DUP2 JUMP JUMPDEST PUSH0 DUP2 DUP2 SLOAD DUP2 LT PUSH2 0x1EA JUMPI PUSH2 0x1E9 PUSH2 0x485 JUMP JUMPDEST JUMPDEST SWAP1 PUSH0 MSTORE PUSH1 0x20 PUSH0 KECCAK256 ADD PUSH0 SWAP1 SSTORE POP JUMP JUMPDEST PUSH1 0x60 PUSH0 DUP1 SLOAD DUP1 PUSH1 0x20 MUL PUSH1 0x20 ADD PUSH1 0x40 MLOAD SWAP1 DUP2 ADD PUSH1 0x40 MSTORE DUP1 SWAP3 SWAP2 SWAP1 DUP2 DUP2 MSTORE PUSH1 0x20 ADD DUP3 DUP1 SLOAD DUP1 ISZERO PUSH2 0x243 JUMPI PUSH1 0x20 MUL DUP3 ADD SWAP2 SWAP1 PUSH0 MSTORE PUSH1 0x20 PUSH0 KECCAK256 SWAP1 JUMPDEST DUP2 SLOAD DUP2 MSTORE PUSH1 0x20 ADD SWAP1 PUSH1 0x1 ADD SWAP1 DUP1 DUP4 GT PUSH2 0x22F JUMPI JUMPDEST POP POP POP POP POP SWAP1 POP SWAP1 JUMP JUMPDEST PUSH1 0x1 DUP2 PUSH1 0x5 DUP2 LT PUSH2 0x25C JUMPI PUSH0 DUP1 REVERT JUMPDEST ADD PUSH0 SWAP2 POP SWAP1 POP SLOAD DUP2 JUMP JUMPDEST PUSH0 DUP2 SWAP1 DUP1 PUSH1 0x1 DUP2 SLOAD ADD DUP1 DUP3 SSTORE DUP1 SWAP2 POP POP PUSH1 0x1 SWAP1 SUB SWAP1 PUSH0 MSTORE PUSH1 0x20 PUSH0 KECCAK256 ADD PUSH0 SWAP1 SWAP2 SWAP1 SWAP2 SWAP1 SWAP2 POP SSTORE POP JUMP JUMPDEST PUSH0 DUP1 SLOAD DUP1 PUSH2 0x29F JUMPI PUSH2 0x29E PUSH2 0x4B2 JUMP JUMPDEST JUMPDEST PUSH1 0x1 SWAP1 SUB DUP2 DUP2 SWAP1 PUSH0 MSTORE PUSH1 0x20 PUSH0 KECCAK256 ADD PUSH0 SWAP1 SSTORE SWAP1 SSTORE JUMP JUMPDEST PUSH0 PUSH1 0x5 PUSH8 0xFFFFFFFFFFFFFFFF DUP2 GT ISZERO PUSH2 0x2D0 JUMPI PUSH2 0x2CF PUSH2 0x4DF JUMP JUMPDEST JUMPDEST PUSH1 0x40 MLOAD SWAP1 DUP1 DUP3 MSTORE DUP1 PUSH1 0x20 MUL PUSH1 0x20 ADD DUP3 ADD PUSH1 0x40 MSTORE DUP1 ISZERO PUSH2 0x2FE JUMPI DUP2 PUSH1 0x20 ADD PUSH1 0x20 DUP3 MUL DUP1 CALLDATASIZE DUP4 CALLDATACOPY DUP1 DUP3 ADD SWAP2 POP POP SWAP1 POP JUMPDEST POP SWAP1 POP POP JUMP JUMPDEST PUSH1 0x6 DUP2 DUP2 SLOAD DUP2 LT PUSH2 0x313 JUMPI PUSH0 DUP1 REVERT JUMPDEST SWAP1 PUSH0 MSTORE PUSH1 0x20 PUSH0 KECCAK256 ADD PUSH0 SWAP2 POP SWAP1 POP SLOAD DUP2 JUMP JUMPDEST PUSH0 DUP2 SWAP1 POP SWAP2 SWAP1 POP JUMP JUMPDEST PUSH2 0x336 DUP2 PUSH2 0x324 JUMP JUMPDEST DUP3 MSTORE POP POP JUMP JUMPDEST PUSH0 PUSH1 0x20 DUP3 ADD SWAP1 POP PUSH2 0x34F PUSH0 DUP4 ADD DUP5 PUSH2 0x32D JUMP JUMPDEST SWAP3 SWAP2 POP POP JUMP JUMPDEST PUSH0 DUP1 REVERT JUMPDEST PUSH2 0x362 DUP2 PUSH2 0x324 JUMP JUMPDEST DUP2 EQ PUSH2 0x36C JUMPI PUSH0 DUP1 REVERT JUMPDEST POP JUMP JUMPDEST PUSH0 DUP2 CALLDATALOAD SWAP1 POP PUSH2 0x37D DUP2 PUSH2 0x359 JUMP JUMPDEST SWAP3 SWAP2 POP POP JUMP JUMPDEST PUSH0 PUSH1 0x20 DUP3 DUP5 SUB SLT ISZERO PUSH2 0x398 JUMPI PUSH2 0x397 PUSH2 0x355 JUMP JUMPDEST JUMPDEST PUSH0 PUSH2 0x3A5 DUP5 DUP3 DUP6 ADD PUSH2 0x36F JUMP JUMPDEST SWAP2 POP POP SWAP3 SWAP2 POP POP JUMP JUMPDEST PUSH0 DUP2 MLOAD SWAP1 POP SWAP2 SWAP1 POP JUMP JUMPDEST PUSH0 DUP3 DUP3 MSTORE PUSH1 0x20 DUP3 ADD SWAP1 POP SWAP3 SWAP2 POP POP JUMP JUMPDEST PUSH0 DUP2 SWAP1 POP PUSH1 0x20 DUP3 ADD SWAP1 POP SWAP2 SWAP1 POP JUMP JUMPDEST PUSH2 0x3E0 DUP2 PUSH2 0x324 JUMP JUMPDEST DUP3 MSTORE POP POP JUMP JUMPDEST PUSH0 PUSH2 0x3F1 DUP4 DUP4 PUSH2 0x3D7 JUMP JUMPDEST PUSH1 0x20 DUP4 ADD SWAP1 POP SWAP3 SWAP2 POP POP JUMP JUMPDEST PUSH0 PUSH1 0x20 DUP3 ADD SWAP1 POP SWAP2 SWAP1 POP JUMP JUMPDEST PUSH0 PUSH2 0x413 DUP3 PUSH2 0x3AE JUMP JUMPDEST PUSH2 0x41D DUP2 DUP6 PUSH2 0x3B8 JUMP JUMPDEST SWAP4 POP PUSH2 0x428 DUP4 PUSH2 0x3C8 JUMP JUMPDEST DUP1 PUSH0 JUMPDEST DUP4 DUP2 LT ISZERO PUSH2 0x458 JUMPI DUP2 MLOAD PUSH2 0x43F DUP9 DUP3 PUSH2 0x3E6 JUMP JUMPDEST SWAP8 POP PUSH2 0x44A DUP4 PUSH2 0x3FD JUMP JUMPDEST SWAP3 POP POP PUSH1 0x1 DUP2 ADD SWAP1 POP PUSH2 0x42B JUMP JUMPDEST POP DUP6 SWAP4 POP POP POP POP SWAP3 SWAP2 POP POP JUMP JUMPDEST PUSH0 PUSH1 0x20 DUP3 ADD SWAP1 POP DUP2 DUP2 SUB PUSH0 DUP4 ADD MSTORE PUSH2 0x47D DUP2 DUP5 PUSH2 0x409 JUMP JUMPDEST SWAP1 POP SWAP3 SWAP2 POP POP JUMP JUMPDEST PUSH32 0x4E487B7100000000000000000000000000000000000000000000000000000000 PUSH0 MSTORE PUSH1 0x32 PUSH1 0x4 MSTORE PUSH1 0x24 PUSH0 REVERT JUMPDEST PUSH32 0x4E487B7100000000000000000000000000000000000000000000000000000000 PUSH0 MSTORE PUSH1 0x31 PUSH1 0x4 MSTORE PUSH1 0x24 PUSH0 REVERT JUMPDEST PUSH32 0x4E487B7100000000000000000000000000000000000000000000000000000000 PUSH0 MSTORE PUSH1 0x41 PUSH1 0x4 MSTORE PUSH1 0x24 PUSH0 REVERT INVALID LOG2 PUSH5 0x6970667358 0x22 SLT KECCAK256 DUP2 BYTE 0xAE CODECOPY 0xAB SDIV SUB SWAP9 0xF9 BALANCE SLOAD 0x26 0xEB CHAINID PUSH26 0x286C210D2FB4F6C400F2EFACA4A66B02D964736F6C634300081A STOP CALLER "
				},
				"gasEstimates": {
					"creation": {
						"codeDepositCost": "269200",
						"executionCost": "infinite",
						"totalCost": "infinite"
					},
					"external": {
						"arr(uint256)": "infinite",
						"arr2(uint256)": "infinite",
						"array(uint256)": "infinite",
						"get()": "infinite",
						"length()": "2441",
						"pop()": "29484",
						"push(uint256)": "46842",
						"remove(uint256)": "7631",
						"updateArr()": "404"
					}
				},
				"methodIdentifiers": {
					"arr(uint256)": "71e5ee5f",
					"arr2(uint256)": "edf0099b",
					"array(uint256)": "38d94193",
					"get()": "6d4ce63c",
					"length()": "1f7b6d32",
					"pop()": "a4ece52c",
					"push(uint256)": "959ac484",
					"remove(uint256)": "4cc82215",
					"updateArr()": "d43f0e2b"
				}
			},
			"storageLayout": {
				"storage": [
					{
						"astId": 4,
						"contract": "Learning Pth/ArraysEx.sol:Array_",
						"label": "array",
						"offset": 0,
						"slot": "0",
						"type": "t_array(t_uint256)dyn_storage"
					},
					{
						"astId": 14,
						"contract": "Learning Pth/ArraysEx.sol:Array_",
						"label": "arr",
						"offset": 0,
						"slot": "1",
						"type": "t_array(t_uint256)5_storage"
					},
					{
						"astId": 25,
						"contract": "Learning Pth/ArraysEx.sol:Array_",
						"label": "arr2",
						"offset": 0,
						"slot": "6",
						"type": "t_array(t_uint256)dyn_storage"
					}
				],
				"types": {
					"t_array(t_uint256)5_storage": {
						"base": "t_uint256",
						"encoding": "inplace",
						"label": "uint256[5]",
						"numberOfBytes": "160"
					},
					"t_array(t_uint256)dyn_storage": {
						"base": "t_uint256",
						"encoding": "dynamic_array",
						"label": "uint256[]",
						"numberOfBytes": "32"
					},
					"t_uint256": {
						"encoding": "inplace",
						"label": "uint256",
						"numberOfBytes": "32"
					}
				}
			},
			"userdoc": {
				"kind": "user",
				"methods": {},
				"version": 1
			}
		}
	}
}